{
  "_format": "hh-sol-artifact-1",
  "contractName": "OrganizationRegistry",
  "sourceName": "src/OrganizationRegistry.sol",
  "abi": [
    {
      "inputs": [],
      "stateMutability": "nonpayable",
      "type": "constructor"
    },
    {
      "inputs": [
        {
          "internalType": "address",
          "name": "target",
          "type": "address"
        }
      ],
      "name": "AddressEmptyCode",
      "type": "error"
    },
    {
      "inputs": [
        {
          "internalType": "address",
          "name": "implementation",
          "type": "address"
        }
      ],
      "name": "ERC1967InvalidImplementation",
      "type": "error"
    },
    {
      "inputs": [],
      "name": "ERC1967NonPayable",
      "type": "error"
    },
    {
      "inputs": [],
      "name": "EnforcedPause",
      "type": "error"
    },
    {
      "inputs": [],
      "name": "ExpectedPause",
      "type": "error"
    },
    {
      "inputs": [],
      "name": "FailedCall",
      "type": "error"
    },
    {
      "inputs": [],
      "name": "FailedDeployment",
      "type": "error"
    },
    {
      "inputs": [
        {
          "internalType": "uint256",
          "name": "balance",
          "type": "uint256"
        },
        {
          "internalType": "uint256",
          "name": "needed",
          "type": "uint256"
        }
      ],
      "name": "InsufficientBalance",
      "type": "error"
    },
    {
      "inputs": [],
      "name": "InvalidInitialization",
      "type": "error"
    },
    {
      "inputs": [],
      "name": "InvalidName",
      "type": "error"
    },
    {
      "inputs": [],
      "name": "InvalidOwnerAddress",
      "type": "error"
    },
    {
      "inputs": [],
      "name": "NotInitializing",
      "type": "error"
    },
    {
      "inputs": [],
      "name": "OrganizationAlreadyExists",
      "type": "error"
    },
    {
      "inputs": [],
      "name": "OrganizationNotFound",
      "type": "error"
    },
    {
      "inputs": [
        {
          "internalType": "address",
          "name": "owner",
          "type": "address"
        }
      ],
      "name": "OwnableInvalidOwner",
      "type": "error"
    },
    {
      "inputs": [
        {
          "internalType": "address",
          "name": "account",
          "type": "address"
        }
      ],
      "name": "OwnableUnauthorizedAccount",
      "type": "error"
    },
    {
      "inputs": [],
      "name": "UUPSUnauthorizedCallContext",
      "type": "error"
    },
    {
      "inputs": [
        {
          "internalType": "bytes32",
          "name": "slot",
          "type": "bytes32"
        }
      ],
      "name": "UUPSUnsupportedProxiableUUID",
      "type": "error"
    },
    {
      "inputs": [],
      "name": "ZeroAddressNotAllowed",
      "type": "error"
    },
    {
      "anonymous": false,
      "inputs": [
        {
          "indexed": true,
          "internalType": "bytes32",
          "name": "organizationId",
          "type": "bytes32"
        },
        {
          "indexed": false,
          "internalType": "address",
          "name": "oldAnchor",
          "type": "address"
        },
        {
          "indexed": false,
          "internalType": "address",
          "name": "newAnchor",
          "type": "address"
        }
      ],
      "name": "CredentialAnchorUpdated",
      "type": "event"
    },
    {
      "anonymous": false,
      "inputs": [
        {
          "indexed": false,
          "internalType": "uint64",
          "name": "version",
          "type": "uint64"
        }
      ],
      "name": "Initialized",
      "type": "event"
    },
    {
      "anonymous": false,
      "inputs": [
        {
          "indexed": true,
          "internalType": "bytes32",
          "name": "organizationId",
          "type": "bytes32"
        }
      ],
      "name": "OrganizationDeactivated",
      "type": "event"
    },
    {
      "anonymous": false,
      "inputs": [
        {
          "indexed": true,
          "internalType": "bytes32",
          "name": "organizationId",
          "type": "bytes32"
        }
      ],
      "name": "OrganizationReactivated",
      "type": "event"
    },
    {
      "anonymous": false,
      "inputs": [
        {
          "indexed": true,
          "internalType": "bytes32",
          "name": "organizationId",
          "type": "bytes32"
        },
        {
          "indexed": false,
          "internalType": "string",
          "name": "name",
          "type": "string"
        },
        {
          "indexed": true,
          "internalType": "address",
          "name": "owner",
          "type": "address"
        },
        {
          "indexed": false,
          "internalType": "address",
          "name": "credentialAnchor",
          "type": "address"
        }
      ],
      "name": "OrganizationRegistered",
      "type": "event"
    },
    {
      "anonymous": false,
      "inputs": [
        {
          "indexed": true,
          "internalType": "address",
          "name": "previousOwner",
          "type": "address"
        },
        {
          "indexed": true,
          "internalType": "address",
          "name": "newOwner",
          "type": "address"
        }
      ],
      "name": "OwnershipTransferred",
      "type": "event"
    },
    {
      "anonymous": false,
      "inputs": [
        {
          "indexed": false,
          "internalType": "address",
          "name": "account",
          "type": "address"
        }
      ],
      "name": "Paused",
      "type": "event"
    },
    {
      "anonymous": false,
      "inputs": [
        {
          "indexed": false,
          "internalType": "address",
          "name": "account",
          "type": "address"
        }
      ],
      "name": "Unpaused",
      "type": "event"
    },
    {
      "anonymous": false,
      "inputs": [
        {
          "indexed": true,
          "internalType": "address",
          "name": "implementation",
          "type": "address"
        }
      ],
      "name": "Upgraded",
      "type": "event"
    },
    {
      "inputs": [],
      "name": "UPGRADE_INTERFACE_VERSION",
      "outputs": [
        {
          "internalType": "string",
          "name": "",
          "type": "string"
        }
      ],
      "stateMutability": "view",
      "type": "function"
    },
    {
      "inputs": [],
      "name": "anchorImplementation",
      "outputs": [
        {
          "internalType": "address",
          "name": "",
          "type": "address"
        }
      ],
      "stateMutability": "view",
      "type": "function"
    },
    {
      "inputs": [
        {
          "internalType": "bytes32",
          "name": "organizationId",
          "type": "bytes32"
        }
      ],
      "name": "deactivateOrganization",
      "outputs": [],
      "stateMutability": "nonpayable",
      "type": "function"
    },
    {
      "inputs": [
        {
          "internalType": "bytes32",
          "name": "organizationId",
          "type": "bytes32"
        }
      ],
      "name": "getCredentialAnchor",
      "outputs": [
        {
          "internalType": "address",
          "name": "",
          "type": "address"
        }
      ],
      "stateMutability": "view",
      "type": "function"
    },
    {
      "inputs": [
        {
          "internalType": "bytes32",
          "name": "organizationId",
          "type": "bytes32"
        }
      ],
      "name": "getOrganization",
      "outputs": [
        {
          "components": [
            {
              "internalType": "bytes32",
              "name": "organizationId",
              "type": "bytes32"
            },
            {
              "internalType": "string",
              "name": "name",
              "type": "string"
            },
            {
              "internalType": "address",
              "name": "owner",
              "type": "address"
            },
            {
              "internalType": "address",
              "name": "credentialAnchor",
              "type": "address"
            },
            {
              "internalType": "bool",
              "name": "active",
              "type": "bool"
            },
            {
              "internalType": "uint64",
              "name": "createdAt",
              "type": "uint64"
            }
          ],
          "internalType": "struct OrganizationRegistry.Organization",
          "name": "",
          "type": "tuple"
        }
      ],
      "stateMutability": "view",
      "type": "function"
    },
    {
      "inputs": [
        {
          "internalType": "address",
          "name": "owner_",
          "type": "address"
        }
      ],
      "name": "getOwnerOrganizations",
      "outputs": [
        {
          "internalType": "bytes32[]",
          "name": "",
          "type": "bytes32[]"
        }
      ],
      "stateMutability": "view",
      "type": "function"
    },
    {
      "inputs": [
        {
          "internalType": "address",
          "name": "owner_",
          "type": "address"
        },
        {
          "internalType": "address",
          "name": "anchorImplementation_",
          "type": "address"
        }
      ],
      "name": "initialize",
      "outputs": [],
      "stateMutability": "nonpayable",
      "type": "function"
    },
    {
      "inputs": [
        {
          "internalType": "bytes32",
          "name": "organizationId",
          "type": "bytes32"
        }
      ],
      "name": "isActive",
      "outputs": [
        {
          "internalType": "bool",
          "name": "",
          "type": "bool"
        }
      ],
      "stateMutability": "view",
      "type": "function"
    },
    {
      "inputs": [
        {
          "internalType": "bytes32",
          "name": "organizationId",
          "type": "bytes32"
        }
      ],
      "name": "organizationExists",
      "outputs": [
        {
          "internalType": "bool",
          "name": "",
          "type": "bool"
        }
      ],
      "stateMutability": "view",
      "type": "function"
    },
    {
      "inputs": [],
      "name": "owner",
      "outputs": [
        {
          "internalType": "address",
          "name": "",
          "type": "address"
        }
      ],
      "stateMutability": "view",
      "type": "function"
    },
    {
      "inputs": [],
      "name": "pause",
      "outputs": [],
      "stateMutability": "nonpayable",
      "type": "function"
    },
    {
      "inputs": [],
      "name": "paused",
      "outputs": [
        {
          "internalType": "bool",
          "name": "",
          "type": "bool"
        }
      ],
      "stateMutability": "view",
      "type": "function"
    },
    {
      "inputs": [],
      "name": "proxiableUUID",
      "outputs": [
        {
          "internalType": "bytes32",
          "name": "",
          "type": "bytes32"
        }
      ],
      "stateMutability": "view",
      "type": "function"
    },
    {
      "inputs": [
        {
          "internalType": "bytes32",
          "name": "organizationId",
          "type": "bytes32"
        }
      ],
      "name": "reactivateOrganization",
      "outputs": [],
      "stateMutability": "nonpayable",
      "type": "function"
    },
    {
      "inputs": [
        {
          "internalType": "bytes32",
          "name": "organizationId",
          "type": "bytes32"
        },
        {
          "internalType": "string",
          "name": "name",
          "type": "string"
        },
        {
          "internalType": "address",
          "name": "owner_",
          "type": "address"
        }
      ],
      "name": "registerOrganization",
      "outputs": [],
      "stateMutability": "nonpayable",
      "type": "function"
    },
    {
      "inputs": [],
      "name": "renounceOwnership",
      "outputs": [],
      "stateMutability": "nonpayable",
      "type": "function"
    },
    {
      "inputs": [
        {
          "internalType": "bytes32",
          "name": "organizationId",
          "type": "bytes32"
        },
        {
          "internalType": "address",
          "name": "newAnchor",
          "type": "address"
        }
      ],
      "name": "setCredentialAnchor",
      "outputs": [],
      "stateMutability": "nonpayable",
      "type": "function"
    },
    {
      "inputs": [
        {
          "internalType": "address",
          "name": "newOwner",
          "type": "address"
        }
      ],
      "name": "transferOwnership",
      "outputs": [],
      "stateMutability": "nonpayable",
      "type": "function"
    },
    {
      "inputs": [],
      "name": "unpause",
      "outputs": [],
      "stateMutability": "nonpayable",
      "type": "function"
    },
    {
      "inputs": [
        {
          "internalType": "address",
          "name": "newImplementation",
          "type": "address"
        },
        {
          "internalType": "bytes",
          "name": "data",
          "type": "bytes"
        }
      ],
      "name": "upgradeToAndCall",
      "outputs": [],
      "stateMutability": "payable",
      "type": "function"
    }
  ],
  "bytecode": "0x60a080604052346100cc57306080527ff0c57e16840df040f15088dc2f81fe391c3923bec73e23a9662efc9c229c6a009081549060ff8260401c166100bd57506001600160401b036002600160401b031982821601610078575b60405161141b90816100d2823960805181818161093901526109f30152f35b6001600160401b031990911681179091556040519081527fc7f505b2f371ae2175ee4913f4499e1f2633a7b5936321eed1cdaeb6115181d290602090a1388080610059565b63f92ee8a960e01b8152600490fd5b600080fdfe608080604052600436101561001357600080fd5b600090813560e01c90816322b3cd4e14610efb575080632a2f326214610e73578063387ae2df14610dcb5780633f4ba83a14610d53578063485cc95514610bd95780634f1ef286146109a357806352d1902d1461092657806354f44f50146108fd5780635949f5fe146108c85780635c36901c146108945780635c975abb14610864578063715018a6146107fa57806375122198146107935780638456cb591461072b5780638da5cb5b146106f55780638fb71f88146106ba57806394f96d921461063c578063ad3cb1cc146105f2578063c9a49cd81461012c5763f2fde38b146100fd57600080fd5b34610129576020366003190112610129576101266101196110ef565b61012161129d565b611202565b80f35b80fd5b50346101295760603660031901126101295767ffffffffffffffff6024358181116105ee57366023820112156105ee57818160040135116105ee573660248260040135830101116105ee576044356001600160a01b03811681036105ea5761019261129d565b61019a6112d6565b60043584528360205282600360408620015460a81c166105d8576001600160a01b038116156105c6578160040135156105b4576002546e5af43d82803e903d91602b57fd5bf360405160208101906004358252602081526101fa81611137565b519020608883901c62ffffff16763d602d80600a3d3981f3363d3d373d3d3d363d7300000017875260789290921b6effffffffffffffffffffffffffffff1916176020526001600160a01b03906037600987f5169283156105a257833b1561059e57604051631a4438cd60e21b815260048035908201526001600160a01b0383166024820152858160448183895af180156105935761056b575b50604051906102a282611105565b60043582526102b936856004013560248701611191565b906020830191825260018060a01b03841660408401528560608401526001608084015280421660a08401526004358752866020526040872091835183555180519182116105575761030d60018401546111c8565b601f8111610512575b50602090601f83116001146104a3576003939291899183610498575b505060001982851b1c1916600191821b17908201555b6040838101516002830180546001600160a01b039283166001600160a01b03199091161790556060850151939092018054608086015160a09687015167ffffffffffffffff60a81b60a89190911b1660ff60a01b91151590971b169484166001600160e81b0319909116179390931793909317909155821685526001602052842080549068010000000000000000821015610484576001820180825582101561047057907f20ac4a6f7fbdab312f371e7b83c5e603919cb138e7a2df23dc4923df4e7e138792918652600435906020872001556040519360408552836004013560408601528360040135602485016060870137856060856004013587010152602085015260018060a01b03169260608160043594601f8019916004013501168101030190a380f35b634e487b7160e01b86526032600452602486fd5b634e487b7160e01b86526041600452602486fd5b015190503880610332565b906001840189526020892091895b601f19851681106104fa575091839160019360039695601f198116106104e2575b505050811b016001820155610348565b015160001983871b60f8161c191690553880806104d2565b919260206001819286850151815501940192016104b1565b60018401895260208920601f840160051c810160208510610550575b601f830160051c82018110610544575050610316565b6000815560010161052e565b508061052e565b634e487b7160e01b88526041600452602488fd5b81819692961161057f576040529338610294565b634e487b7160e01b82526041600452602482fd5b6040513d88823e3d90fd5b8480fd5b60405163b06ebf3d60e01b8152600490fd5b60405163430f13b360e01b8152600490fd5b604051633649397d60e21b8152600490fd5b6040516369c24f0b60e01b8152600490fd5b8380fd5b8280fd5b503461012957806003193601126101295761063860405161061281611137565b60058152640352e302e360dc1b6020820152604051918291602083526020830190611094565b0390f35b50346101295760203660031901126101295760043561065961129d565b600361066482611276565b01805460ff8160a01c166106a85760ff60a01b1916600160a01b1790557f8f4db2185972a55559da730c90a8acded3a7af760f4458a6483635e4f6c78e5d8280a280f35b604051639551f8b360e01b8152600490fd5b50346101295760203660031901126101295767ffffffffffffffff60036040602093600435815280855220015460a81c161515604051908152f35b50346101295780600319360112610129576000805160206113a6833981519152546040516001600160a01b039091168152602090f35b503461012957806003193601126101295761074461129d565b61074c6112d6565b6000805160206113c6833981519152600160ff198254161790557f62e78cea01bee320cd4e420270b5ea74000d11b0c9f74754ebdbfc544b05a2586020604051338152a180f35b5034610129576020366003190112610129576004356107b061129d565b60036107bb82611276565b01805460ff8160a01c16156106a85760ff60a01b191690557fe7f23ad0482281bdca8c9022eca0694c84d1b459193746feaabfd12f144b82218280a280f35b503461012957806003193601126101295761081361129d565b6000805160206113a683398151915280546001600160a01b0319811690915581906001600160a01b03167f8be0079c531659141344cd1fd0a4f28419497f9722a3daafe3b4186f6b6457e08280a380f35b5034610129578060031936011261012957602060ff6000805160206113c683398151915254166040519015158152f35b50346101295760203660031901126101295760ff60036040602093600435815280855220015460a01c166040519015158152f35b50346101295760203660031901126101295760209060043581528082526003604060018060a01b039220015416604051908152f35b50346101295780600319360112610129576002546040516001600160a01b039091168152602090f35b50346101295780600319360112610129577f00000000000000000000000000000000000000000000000000000000000000006001600160a01b031630036109915760206040517f360894a13ba1a3210667c828492db98dca3e2076cc3735a920a3ca505d382bbc8152f35b60405163703e46dd60e11b8152600490fd5b506040366003190112610129576109b86110ef565b60243567ffffffffffffffff81116105ee57366023820112156105ee576109e9903690602481600401359101611191565b6001600160a01b037f00000000000000000000000000000000000000000000000000000000000000008116308114908115610bab575b5061099157610a2c61129d565b6040516352d1902d60e01b8152908316926020918281600481885afa869181610b78575b50610a6e57604051634c9c8ce360e01b815260048101869052602490fd5b9385947f360894a13ba1a3210667c828492db98dca3e2076cc3735a920a3ca505d382bbc90818103610b605750823b15610b475780546001600160a01b0319168217905560405185917fbc7cd75a20ee27fd9adebab32041f755214dbc6bffa90cc0225b39da2e5c2d3b8380a2845115610b2a5750808484610b1d96519101845af4903d15610b21573d610b0181611175565b90610b0f6040519283611153565b81528581943d92013e611342565b5080f35b60609250611342565b935050505034610b38575080f35b63b398979f60e01b8152600490fd5b604051634c9c8ce360e01b815260048101839052602490fd5b60249060405190632a87526960e21b82526004820152fd5b9091508381813d8311610ba4575b610b908183611153565b81010312610ba057519038610a50565b8680fd5b503d610b86565b9050817f360894a13ba1a3210667c828492db98dca3e2076cc3735a920a3ca505d382bbc5416141538610a1f565b503461012957604036600319011261012957610bf36110ef565b610bfb6110d4565b907ff0c57e16840df040f15088dc2f81fe391c3923bec73e23a9662efc9c229c6a0091825460ff8160401c16159267ffffffffffffffff821680159081610d4b575b6001149081610d41575b159081610d38575b50610d265767ffffffffffffffff1982166001178555610c809184610d07575b50610c78611301565b610121611301565b610c88611301565b6001600160a01b03168015610cf5576bffffffffffffffffffffffff60a01b6002541617600255610cb7575080f35b68ff00000000000000001981541690557fc7f505b2f371ae2175ee4913f4499e1f2633a7b5936321eed1cdaeb6115181d2602060405160018152a180f35b6040516342bcdf7f60e11b8152600490fd5b68ffffffffffffffffff19166801000000000000000117855538610c6f565b60405163f92ee8a960e01b8152600490fd5b90501538610c4f565b303b159150610c47565b859150610c3d565b5034610129578060031936011261012957610d6c61129d565b6000805160206113c6833981519152805460ff811615610db95760ff191690557f5db9ee0a495bf2e6ff9c91a7834c1ba4fdd244a5e8aa4e537bd38aeae4b073aa6020604051338152a180f35b604051638dfc202b60e01b8152600490fd5b5034610129576020908160031936011261012957906001600160a01b03610df06110ef565b16825260018082526040832092604051808486549182815201908196845285842090845b818110610e605750505081610e2a910382611153565b6040519380850191818652518092526040850195925b828110610e4d5785870386f35b8351875295810195928101928401610e40565b8254845292870192918601918601610e14565b503461012957604036600319011261012957600435610e906110d4565b610e9861129d565b6001600160a01b039081168015610cf5577fb64a4e5f8a39f24326087967436e949d007c756770a1aef1bf7342fb42458019916040916003610ed986611276565b0180546001600160a01b0319811683179091558351921682526020820152a280f35b823461012957602091826003193601126110905760a081610f1c8493611105565b8281526060858201528260408201528260608201528260808201520152610f44600435611276565b60405191610f5183611105565b815483528360018084019260405193849282825492610f6f846111c8565b808752936001811690811561106b575060011461102e575b50505050610f9792500382611153565b83830190815260018060a01b03600381600285015416936040860194855201549060608501908083168252608086019160ff8460a01c16151583528161100c67ffffffffffffffff968760a08b019760a81c1687526040519a8b9a818c5251908b01525160c060408b015260e08a0190611094565b96511660608801525116608086015251151560a0850152511660c08301520390f35b815285812095935091905b818310611053575088945050820101610f97888080610f87565b85548784018501529485019486945091830191611039565b9350505050610f9794925060ff191682840152151560051b8201018692888080610f87565b5080fd5b919082519283825260005b8481106110c0575050826000602080949584010152601f8019910116010190565b60208183018101518483018201520161109f565b602435906001600160a01b03821682036110ea57565b600080fd5b600435906001600160a01b03821682036110ea57565b60c0810190811067ffffffffffffffff82111761112157604052565b634e487b7160e01b600052604160045260246000fd5b6040810190811067ffffffffffffffff82111761112157604052565b90601f8019910116810190811067ffffffffffffffff82111761112157604052565b67ffffffffffffffff811161112157601f01601f191660200190565b92919261119d82611175565b916111ab6040519384611153565b8294818452818301116110ea578281602093846000960137010152565b90600182811c921680156111f8575b60208310146111e257565b634e487b7160e01b600052602260045260246000fd5b91607f16916111d7565b6001600160a01b0390811690811561125d576000805160206113a683398151915280546001600160a01b031981168417909155167f8be0079c531659141344cd1fd0a4f28419497f9722a3daafe3b4186f6b6457e0600080a3565b604051631e4fbdf760e01b815260006004820152602490fd5b600052600060205260406000209067ffffffffffffffff600383015460a81c16156106a857565b6000805160206113a6833981519152546001600160a01b031633036112be57565b60405163118cdaa760e01b8152336004820152602490fd5b60ff6000805160206113c683398151915254166112ef57565b60405163d93c066560e01b8152600490fd5b60ff7ff0c57e16840df040f15088dc2f81fe391c3923bec73e23a9662efc9c229c6a005460401c161561133057565b604051631afcd79f60e31b8152600490fd5b90611369575080511561135757805190602001fd5b60405163d6bda27560e01b8152600490fd5b8151158061139c575b61137a575090565b604051639996b31560e01b81526001600160a01b039091166004820152602490fd5b50803b1561137256fe9016d09d72d40fdae2fd8ceac6b6234c7706214fd39c1cd1e609a0528c199300cd5ed15c6e187e77e9aee88184c21f4f2182ab5827cb3b7e07fbedcd63f03300a26469706673582212209f9bd54e6d74d2560ccfd0ff7eea9b2d234c98d6f7320e161b51e1bf19bd9cb264736f6c63430008180033",
  "linkReferences": {},
  "deployedLinkReferences": {}
}