{
  "_format": "hh-sol-artifact-1",
  "contractName": "MockV2_CapabilityRegistry",
  "sourceName": "src/mocks/MockV2.sol",
  "abi": [
    {
      "inputs": [],
      "name": "ActionRequired",
      "type": "error"
    },
    {
      "inputs": [
        {
          "internalType": "address",
          "name": "target",
          "type": "address"
        }
      ],
      "name": "AddressEmptyCode",
      "type": "error"
    },
    {
      "inputs": [],
      "name": "AlreadyRevokedCapability",
      "type": "error"
    },
    {
      "inputs": [],
      "name": "CapabilityExists",
      "type": "error"
    },
    {
      "inputs": [],
      "name": "CapabilityNotFound",
      "type": "error"
    },
    {
      "inputs": [
        {
          "internalType": "address",
          "name": "implementation",
          "type": "address"
        }
      ],
      "name": "ERC1967InvalidImplementation",
      "type": "error"
    },
    {
      "inputs": [],
      "name": "ERC1967NonPayable",
      "type": "error"
    },
    {
      "inputs": [],
      "name": "EnforcedPause",
      "type": "error"
    },
    {
      "inputs": [],
      "name": "ExpectedPause",
      "type": "error"
    },
    {
      "inputs": [],
      "name": "FailedCall",
      "type": "error"
    },
    {
      "inputs": [],
      "name": "InvalidInitialization",
      "type": "error"
    },
    {
      "inputs": [],
      "name": "NotAuthorizedForCapability",
      "type": "error"
    },
    {
      "inputs": [],
      "name": "NotInitializing",
      "type": "error"
    },
    {
      "inputs": [
        {
          "internalType": "address",
          "name": "owner",
          "type": "address"
        }
      ],
      "name": "OwnableInvalidOwner",
      "type": "error"
    },
    {
      "inputs": [
        {
          "internalType": "address",
          "name": "account",
          "type": "address"
        }
      ],
      "name": "OwnableUnauthorizedAccount",
      "type": "error"
    },
    {
      "inputs": [],
      "name": "UUPSUnauthorizedCallContext",
      "type": "error"
    },
    {
      "inputs": [
        {
          "internalType": "bytes32",
          "name": "slot",
          "type": "bytes32"
        }
      ],
      "name": "UUPSUnsupportedProxiableUUID",
      "type": "error"
    },
    {
      "anonymous": false,
      "inputs": [
        {
          "indexed": true,
          "internalType": "bytes32",
          "name": "capabilityId",
          "type": "bytes32"
        },
        {
          "indexed": true,
          "internalType": "bytes32",
          "name": "actionHash",
          "type": "bytes32"
        },
        {
          "indexed": true,
          "internalType": "address",
          "name": "registrar",
          "type": "address"
        }
      ],
      "name": "CapabilityRegistered",
      "type": "event"
    },
    {
      "anonymous": false,
      "inputs": [
        {
          "indexed": true,
          "internalType": "bytes32",
          "name": "capabilityId",
          "type": "bytes32"
        }
      ],
      "name": "CapabilityRevoked",
      "type": "event"
    },
    {
      "anonymous": false,
      "inputs": [
        {
          "indexed": true,
          "internalType": "bytes32",
          "name": "grantLeafHash",
          "type": "bytes32"
        }
      ],
      "name": "GrantRevoked",
      "type": "event"
    },
    {
      "anonymous": false,
      "inputs": [
        {
          "indexed": true,
          "internalType": "address",
          "name": "grantor",
          "type": "address"
        },
        {
          "indexed": true,
          "internalType": "address",
          "name": "grantee",
          "type": "address"
        },
        {
          "indexed": false,
          "internalType": "bytes32",
          "name": "newRoot",
          "type": "bytes32"
        }
      ],
      "name": "GrantRootUpdated",
      "type": "event"
    },
    {
      "anonymous": false,
      "inputs": [
        {
          "indexed": false,
          "internalType": "uint64",
          "name": "version",
          "type": "uint64"
        }
      ],
      "name": "Initialized",
      "type": "event"
    },
    {
      "anonymous": false,
      "inputs": [
        {
          "indexed": true,
          "internalType": "address",
          "name": "previousOwner",
          "type": "address"
        },
        {
          "indexed": true,
          "internalType": "address",
          "name": "newOwner",
          "type": "address"
        }
      ],
      "name": "OwnershipTransferred",
      "type": "event"
    },
    {
      "anonymous": false,
      "inputs": [
        {
          "indexed": false,
          "internalType": "address",
          "name": "account",
          "type": "address"
        }
      ],
      "name": "Paused",
      "type": "event"
    },
    {
      "anonymous": false,
      "inputs": [
        {
          "indexed": false,
          "internalType": "address",
          "name": "account",
          "type": "address"
        }
      ],
      "name": "Unpaused",
      "type": "event"
    },
    {
      "anonymous": false,
      "inputs": [
        {
          "indexed": true,
          "internalType": "address",
          "name": "implementation",
          "type": "address"
        }
      ],
      "name": "Upgraded",
      "type": "event"
    },
    {
      "inputs": [],
      "name": "UPGRADE_INTERFACE_VERSION",
      "outputs": [
        {
          "internalType": "string",
          "name": "",
          "type": "string"
        }
      ],
      "stateMutability": "view",
      "type": "function"
    },
    {
      "inputs": [],
      "name": "VERSION",
      "outputs": [
        {
          "internalType": "uint256",
          "name": "",
          "type": "uint256"
        }
      ],
      "stateMutability": "view",
      "type": "function"
    },
    {
      "inputs": [
        {
          "internalType": "bytes32",
          "name": "",
          "type": "bytes32"
        }
      ],
      "name": "capabilities",
      "outputs": [
        {
          "internalType": "bytes32",
          "name": "actionHash",
          "type": "bytes32"
        },
        {
          "internalType": "address",
          "name": "registrar",
          "type": "address"
        },
        {
          "internalType": "uint64",
          "name": "createdAt",
          "type": "uint64"
        },
        {
          "internalType": "uint64",
          "name": "expiresAt",
          "type": "uint64"
        },
        {
          "internalType": "bool",
          "name": "revoked",
          "type": "bool"
        }
      ],
      "stateMutability": "view",
      "type": "function"
    },
    {
      "inputs": [
        {
          "internalType": "bytes32",
          "name": "capabilityId",
          "type": "bytes32"
        }
      ],
      "name": "getCapability",
      "outputs": [
        {
          "components": [
            {
              "internalType": "bytes32",
              "name": "actionHash",
              "type": "bytes32"
            },
            {
              "internalType": "address",
              "name": "registrar",
              "type": "address"
            },
            {
              "internalType": "uint64",
              "name": "createdAt",
              "type": "uint64"
            },
            {
              "internalType": "uint64",
              "name": "expiresAt",
              "type": "uint64"
            },
            {
              "internalType": "bool",
              "name": "revoked",
              "type": "bool"
            }
          ],
          "internalType": "struct CapabilityRegistry.CapabilityDef",
          "name": "",
          "type": "tuple"
        }
      ],
      "stateMutability": "view",
      "type": "function"
    },
    {
      "inputs": [
        {
          "internalType": "uint256",
          "name": "index",
          "type": "uint256"
        }
      ],
      "name": "getCapabilityAt",
      "outputs": [
        {
          "internalType": "bytes32",
          "name": "",
          "type": "bytes32"
        }
      ],
      "stateMutability": "view",
      "type": "function"
    },
    {
      "inputs": [],
      "name": "getCapabilityCount",
      "outputs": [
        {
          "internalType": "uint256",
          "name": "",
          "type": "uint256"
        }
      ],
      "stateMutability": "view",
      "type": "function"
    },
    {
      "inputs": [
        {
          "internalType": "address",
          "name": "",
          "type": "address"
        },
        {
          "internalType": "address",
          "name": "",
          "type": "address"
        }
      ],
      "name": "grantRoots",
      "outputs": [
        {
          "internalType": "bytes32",
          "name": "",
          "type": "bytes32"
        }
      ],
      "stateMutability": "view",
      "type": "function"
    },
    {
      "inputs": [
        {
          "internalType": "address",
          "name": "owner_",
          "type": "address"
        }
      ],
      "name": "initialize",
      "outputs": [],
      "stateMutability": "nonpayable",
      "type": "function"
    },
    {
      "inputs": [],
      "name": "owner",
      "outputs": [
        {
          "internalType": "address",
          "name": "",
          "type": "address"
        }
      ],
      "stateMutability": "view",
      "type": "function"
    },
    {
      "inputs": [],
      "name": "pause",
      "outputs": [],
      "stateMutability": "nonpayable",
      "type": "function"
    },
    {
      "inputs": [],
      "name": "paused",
      "outputs": [
        {
          "internalType": "bool",
          "name": "",
          "type": "bool"
        }
      ],
      "stateMutability": "view",
      "type": "function"
    },
    {
      "inputs": [],
      "name": "proxiableUUID",
      "outputs": [
        {
          "internalType": "bytes32",
          "name": "",
          "type": "bytes32"
        }
      ],
      "stateMutability": "view",
      "type": "function"
    },
    {
      "inputs": [
        {
          "internalType": "bytes32",
          "name": "capabilityId",
          "type": "bytes32"
        },
        {
          "internalType": "string",
          "name": "action",
          "type": "string"
        },
        {
          "internalType": "uint64",
          "name": "expiresAt",
          "type": "uint64"
        }
      ],
      "name": "registerCapability",
      "outputs": [],
      "stateMutability": "nonpayable",
      "type": "function"
    },
    {
      "inputs": [],
      "name": "renounceOwnership",
      "outputs": [],
      "stateMutability": "nonpayable",
      "type": "function"
    },
    {
      "inputs": [
        {
          "internalType": "bytes32",
          "name": "capabilityId",
          "type": "bytes32"
        }
      ],
      "name": "revokeCapability",
      "outputs": [],
      "stateMutability": "nonpayable",
      "type": "function"
    },
    {
      "inputs": [
        {
          "internalType": "bytes32",
          "name": "grantLeafHash",
          "type": "bytes32"
        },
        {
          "internalType": "bytes32",
          "name": "capabilityId",
          "type": "bytes32"
        }
      ],
      "name": "revokeGrant",
      "outputs": [],
      "stateMutability": "nonpayable",
      "type": "function"
    },
    {
      "inputs": [
        {
          "internalType": "bytes32",
          "name": "",
          "type": "bytes32"
        }
      ],
      "name": "revokedGrants",
      "outputs": [
        {
          "internalType": "bool",
          "name": "",
          "type": "bool"
        }
      ],
      "stateMutability": "view",
      "type": "function"
    },
    {
      "inputs": [
        {
          "internalType": "address",
          "name": "newOwner",
          "type": "address"
        }
      ],
      "name": "transferOwnership",
      "outputs": [],
      "stateMutability": "nonpayable",
      "type": "function"
    },
    {
      "inputs": [],
      "name": "unpause",
      "outputs": [],
      "stateMutability": "nonpayable",
      "type": "function"
    },
    {
      "inputs": [
        {
          "internalType": "address",
          "name": "grantee",
          "type": "address"
        },
        {
          "internalType": "bytes32",
          "name": "newRoot",
          "type": "bytes32"
        }
      ],
      "name": "updateGrantRoot",
      "outputs": [],
      "stateMutability": "nonpayable",
      "type": "function"
    },
    {
      "inputs": [
        {
          "internalType": "address",
          "name": "newImplementation",
          "type": "address"
        },
        {
          "internalType": "bytes",
          "name": "data",
          "type": "bytes"
        }
      ],
      "name": "upgradeToAndCall",
      "outputs": [],
      "stateMutability": "payable",
      "type": "function"
    },
    {
      "inputs": [
        {
          "internalType": "address",
          "name": "agent",
          "type": "address"
        },
        {
          "internalType": "bytes32",
          "name": "capabilityId",
          "type": "bytes32"
        },
        {
          "internalType": "bytes32",
          "name": "grantLeaf",
          "type": "bytes32"
        },
        {
          "internalType": "bytes32[]",
          "name": "merkleProof",
          "type": "bytes32[]"
        },
        {
          "internalType": "address",
          "name": "grantor",
          "type": "address"
        },
        {
          "internalType": "bytes32",
          "name": "constraintsHash",
          "type": "bytes32"
        },
        {
          "internalType": "uint64",
          "name": "expiresAt",
          "type": "uint64"
        }
      ],
      "name": "verifyCapability",
      "outputs": [
        {
          "internalType": "bool",
          "name": "",
          "type": "bool"
        }
      ],
      "stateMutability": "view",
      "type": "function"
    }
  ],
  "bytecode": "0x60a080604052346100cc57306080527ff0c57e16840df040f15088dc2f81fe391c3923bec73e23a9662efc9c229c6a009081549060ff8260401c166100bd57506001600160401b036002600160401b031982821601610078575b60405161141690816100d2823960805181818161091f01526109fe0152f35b6001600160401b031990911681179091556040519081527fc7f505b2f371ae2175ee4913f4499e1f2633a7b5936321eed1cdaeb6115181d290602090a1388080610059565b63f92ee8a960e01b8152600490fd5b600080fdfe6040608081526004908136101561001557600080fd5b600091823560e01c9081632435499214610d2b5781633a7f6cc714610c655781633f4ba83a14610bed5781634f1ef2861461098357816352d1902d1461090a5781635c975abb146108d95781636f4907a6146108ad578163715018a6146108435781637b23648a146107a55781638456cb591461073d57816388a8baf9146106d15781638da5cb5b1461069b578163925d6c17146106475781639cb7c5f414610587578163ad3cb1cc146104e9578163adf4d59e1461034e578163b036fe7e1461032f578163c2ead131146102c9578163c4d66de814610191578163e6a2aaba1461016357508063f2fde38b146101335763ffa1ad741461011557600080fd5b3461012f578160031936011261012f576020905160028152f35b5080fd5b82346101605760203660031901126101605761015d610150610f41565b6101586112c3565b611224565b80f35b80fd5b828434610160576020366003190112610160575061018360209235610fc9565b91905490519160031b1c8152f35b9050346102c55760203660031901126102c5576101ac610f41565b907ff0c57e16840df040f15088dc2f81fe391c3923bec73e23a9662efc9c229c6a0091825460ff81861c1615926001600160401b038216801590816102bd575b60011490816102b3575b1590816102aa575b5061029c575067ffffffffffffffff198116600117845561023191908361027d575b506102296112fc565b6101586112fc565b6102396112fc565b610241578280f35b805460ff60401b1916905551600181527fc7f505b2f371ae2175ee4913f4499e1f2633a7b5936321eed1cdaeb6115181d290602090a138808280f35b68ffffffffffffffffff19166801000000000000000117845538610220565b855163f92ee8a960e01b8152fd5b905015386101fe565b303b1591506101f6565b8591506101ec565b8280fd5b9050346102c55760203660031901126102c5578160a09360ff92358152806020522080549260026001830154926001600160401b039182910154938351968752600180891b0381166020880152871c1682860152821660608501521c1615156080820152f35b50503461012f578160031936011261012f576020906001549051908152f35b83833461012f57602036600319011261012f578235908183528260205280832060018101546001600160401b038160a01c16156104d9576001600160a01b0390811633141590816104bd575b506104ad57600201805460ff81841c1661049d5760ff60401b1916600160401b179055818352600260205280832054600154600019919082810190811161048a576103e490610fc9565b90549060031b1c8061040f6103f884610fc9565b819391549060031b91821b91600019901b19161790565b905585526002602052828520556001548015610477579080859392019061043582610fc9565b909182549160031b1b1916905560015582825260026020528120557f49605d0360d8e90064c274ba9997a3d883d637411e4a6855594c367b31679d668280a280f35b634e487b7160e01b855260318652602485fd5b634e487b7160e01b865260118752602486fd5b825163f3d4f46960e01b81528690fd5b815163093886bb60e21b81528590fd5b90506000805160206113a183398151915254163314158661039a565b8251635ad384df60e11b81528690fd5b9050346102c557826003193601126102c557815190828201908282106001600160401b038311176105745750825260058152602090640352e302e360dc1b6020820152825193849260208452825192836020860152825b84811061055e57505050828201840152601f01601f19168101030190f35b8181018301518882018801528795508201610540565b634e487b7160e01b855260419052602484fd5b9050346102c55760203660031901126102c55782829160a094608084516105ad81610f5c565b828152826020820152828682015282606082015201523581528060205220600282516105d881610f5c565b825493848252600184015493600180881b0394602084019580821687526001600160401b0395869384868801948c1c16845201549660ff60806060880197868b1689520198861c1615158852845198895251166020880152511690850152511660608301525115156080820152f35b50503461012f578060031936011261012f57610661610f41565b6001600160a01b036024358181169290839003610697579160209491849316825260038552828220908252845220549051908152f35b8480fd5b50503461012f578160031936011261012f576000805160206113a18339815191525490516001600160a01b039091168152602090f35b50503461012f578060031936011261012f576106eb610f41565b906024359033845260036020528084209260018060a01b0316928385526020528181852055519081527f4e3ff2d25bd4f01c0127a172e8169c31a4c228854f2fabb6d12219b28ec0611060203392a380f35b50503461012f578160031936011261012f5760207f62e78cea01bee320cd4e420270b5ea74000d11b0c9f74754ebdbfc544b05a2589161077b6112c3565b610783611298565b6000805160206113c1833981519152805460ff1916600117905551338152a180f35b8284346101605760e0366003190112610160576107c0610f41565b90606435916001600160401b03948584116102c557366023850112156102c557830135908582116102c5573660248360051b860101116102c557608435926001600160a01b03841684036101605760c435968716870361016057509161083a939160209693602460a4359401906044359060243590611016565b90519015158152f35b833461016057806003193601126101605761085c6112c3565b6000805160206113a183398151915280546001600160a01b0319811690915581906001600160a01b03167f8be0079c531659141344cd1fd0a4f28419497f9722a3daafe3b4186f6b6457e08280a380f35b9050346102c55760203660031901126102c557816020938260ff93358252855220541690519015158152f35b50503461012f578160031936011261012f5760209060ff6000805160206113c1833981519152541690519015158152f35b828434610160578060031936011261016057507f00000000000000000000000000000000000000000000000000000000000000006001600160a01b0316300361097657602090517f360894a13ba1a3210667c828492db98dca3e2076cc3735a920a3ca505d382bbc8152f35b5163703e46dd60e11b8152fd5b918091506003193601126102c557610999610f41565b9060249384356001600160401b03811161012f573660238201121561012f57808501356109c581610fae565b946109d285519687610f8d565b81865260209182870193368a8383010111610be9578186928b8693018737880101526001600160a01b037f00000000000000000000000000000000000000000000000000000000000000008116308114908115610bbb575b50610bab57610a376112c3565b81169585516352d1902d60e01b815283818a818b5afa869181610b78575b50610a71575050505050505191634c9c8ce360e01b8352820152fd5b9088888894938c7f360894a13ba1a3210667c828492db98dca3e2076cc3735a920a3ca505d382bbc91828103610b635750853b15610b4f575080546001600160a01b031916821790558451889392917fbc7cd75a20ee27fd9adebab32041f755214dbc6bffa90cc0225b39da2e5c2d3b8580a2825115610b31575050610b239582915190845af4913d15610b27573d610b15610b0c82610fae565b92519283610f8d565b81528581943d92013e61133d565b5080f35b506060925061133d565b955095505050505034610b4357505080f35b63b398979f60e01b8152fd5b8651634c9c8ce360e01b8152808501849052fd5b8751632a87526960e21b815280860191909152fd5b9091508481813d8311610ba4575b610b908183610f8d565b81010312610ba057519038610a55565b8680fd5b503d610b86565b855163703e46dd60e11b81528890fd5b9050817f360894a13ba1a3210667c828492db98dca3e2076cc3735a920a3ca505d382bbc5416141538610a2a565b8580fd5b9050346102c557826003193601126102c557610c076112c3565b6000805160206113c18339815191529081549060ff821615610c57575060ff19169055513381527f5db9ee0a495bf2e6ff9c91a7834c1ba4fdd244a5e8aa4e537bd38aeae4b073aa90602090a180f35b8351638dfc202b60e01b8152fd5b919050346102c557806003193601126102c557602435835260208390528083206001015482359290336001600160a01b0391821614159081610d0f575b50610d01578284528060205260ff8285205416610cf3578284526020528220805460ff191660011790557fbc7909d45ab794ee63122077124d9ce05bea1db0768be90c77d2eddbdf1eef4f8280a280f35b905163f3d4f46960e01b8152fd5b905163093886bb60e21b8152fd5b90506000805160206113a1833981519152541633141538610ca2565b83833461012f57606036600319011261012f5782356024356001600160401b038082116106975736602383011215610697578186013593818511610be95760248301926024863692010111610be95760443591808316809303610ba057610d90611298565b610d986112c3565b8487526020928784526001918083858b20015460a01c16610f31578715610f215788906002878a610de089895183819483830196873781018883820152038084520182610f8d565b519020865190610def82610f5c565b81528781013381528782018442168152606083019687528860808401968088528d8152808c5220925183558783019160018060a01b039051168254916001600160401b0360a01b905160a01b169163ffffffff60e01b16171790550192511668ff0000000000000000835492511515861b169168ffffffffffffffffff1916171790558054600160401b811015610f0e57610e926103f882848994018555610fc9565b9055546000198101908111610efb5790610ece929185885260028352818820555185819683830195863781018783820152038086520184610f8d565b3392519020907ff29a7a8b7e17110feb5338446fbfdcb1f7370015c5a13bfdf070ccbf6b5e2dfe8480a480f35b634e487b7160e01b875260118852602487fd5b634e487b7160e01b885260418952602488fd5b8351630731582160e51b81528a90fd5b83516305b8e23b60e01b81528a90fd5b600435906001600160a01b0382168203610f5757565b600080fd5b60a081019081106001600160401b03821117610f7757604052565b634e487b7160e01b600052604160045260246000fd5b90601f801991011681019081106001600160401b03821117610f7757604052565b6001600160401b038111610f7757601f01601f191660200190565b6001548110156110005760016000527fb10e2d527612073b26eecdfd717e6a320cf44b4afac2b0732d9fcbe2b7fa0cf60190600090565b634e487b7160e01b600052603260045260246000fd5b90949592919796936000928684526020928484526040958686209760028901549260ff848a1c166111e5576001600160401b03809416801515908161121a575b506111e5576001998a01546001600160a01b039c8d169c919082168d90036112095791849392918d9695928b51978a89019e8f528c89015216928360608801526080870152169a8b60a086015260a0855260c085019a858c10848d11176111f5578e908c8b5286519020036111e557875260038652878720908752855286862054998a156111d6578c87526004865260ff88882054166111d65780151590816111cc575b506111be5783116111aa576005908360051b936111198686018b610f8d565b895260e09360e08401908201913683116111a657905b82821061119757505050869798999a9885985b611154575b5050505050505050501490565b805189101561119257889984899a841b85010151908181106000146111845787528552878787205b9a0198611142565b90875285528787872061117c565b611147565b8135815290860190860161112f565b8780fd5b634e487b7160e01b85526041600452602485fd5b509399505050505050505050565b90504211386110fa565b50949a50505050505050505050565b50959b5050505050505050505050565b634e487b7160e01b89526041600452602489fd5b50969c505050505050505050505050565b9050421138611056565b6001600160a01b0390811690811561127f576000805160206113a183398151915280546001600160a01b031981168417909155167f8be0079c531659141344cd1fd0a4f28419497f9722a3daafe3b4186f6b6457e0600080a3565b604051631e4fbdf760e01b815260006004820152602490fd5b60ff6000805160206113c183398151915254166112b157565b60405163d93c066560e01b8152600490fd5b6000805160206113a1833981519152546001600160a01b031633036112e457565b60405163118cdaa760e01b8152336004820152602490fd5b60ff7ff0c57e16840df040f15088dc2f81fe391c3923bec73e23a9662efc9c229c6a005460401c161561132b57565b604051631afcd79f60e31b8152600490fd5b90611364575080511561135257805190602001fd5b60405163d6bda27560e01b8152600490fd5b81511580611397575b611375575090565b604051639996b31560e01b81526001600160a01b039091166004820152602490fd5b50803b1561136d56fe9016d09d72d40fdae2fd8ceac6b6234c7706214fd39c1cd1e609a0528c199300cd5ed15c6e187e77e9aee88184c21f4f2182ab5827cb3b7e07fbedcd63f03300a2646970667358221220a4dde5d9d47aed943ae34840320ebe838fd05dd7891a894ddbef743223a7d34e64736f6c63430008180033",
  "linkReferences": {},
  "deployedLinkReferences": {}
}