{
  "_format": "hh-sol-artifact-1",
  "contractName": "MockV2_CredentialRegistry",
  "sourceName": "src/mocks/MockV2.sol",
  "abi": [
    {
      "inputs": [
        {
          "internalType": "address",
          "name": "target",
          "type": "address"
        }
      ],
      "name": "AddressEmptyCode",
      "type": "error"
    },
    {
      "inputs": [
        {
          "internalType": "address",
          "name": "implementation",
          "type": "address"
        }
      ],
      "name": "ERC1967InvalidImplementation",
      "type": "error"
    },
    {
      "inputs": [],
      "name": "ERC1967NonPayable",
      "type": "error"
    },
    {
      "inputs": [],
      "name": "EnforcedPause",
      "type": "error"
    },
    {
      "inputs": [],
      "name": "ExpectedPause",
      "type": "error"
    },
    {
      "inputs": [],
      "name": "FailedCall",
      "type": "error"
    },
    {
      "inputs": [],
      "name": "InvalidInitialization",
      "type": "error"
    },
    {
      "inputs": [],
      "name": "NotInitializing",
      "type": "error"
    },
    {
      "inputs": [],
      "name": "NullifierUsed",
      "type": "error"
    },
    {
      "inputs": [],
      "name": "OnlyIssuer",
      "type": "error"
    },
    {
      "inputs": [],
      "name": "OnlySessionManager",
      "type": "error"
    },
    {
      "inputs": [
        {
          "internalType": "address",
          "name": "owner",
          "type": "address"
        }
      ],
      "name": "OwnableInvalidOwner",
      "type": "error"
    },
    {
      "inputs": [
        {
          "internalType": "address",
          "name": "account",
          "type": "address"
        }
      ],
      "name": "OwnableUnauthorizedAccount",
      "type": "error"
    },
    {
      "inputs": [],
      "name": "UUPSUnauthorizedCallContext",
      "type": "error"
    },
    {
      "inputs": [
        {
          "internalType": "bytes32",
          "name": "slot",
          "type": "bytes32"
        }
      ],
      "name": "UUPSUnsupportedProxiableUUID",
      "type": "error"
    },
    {
      "anonymous": false,
      "inputs": [
        {
          "indexed": true,
          "internalType": "bytes32",
          "name": "newRoot",
          "type": "bytes32"
        }
      ],
      "name": "ActiveRootUpdated",
      "type": "event"
    },
    {
      "anonymous": false,
      "inputs": [
        {
          "indexed": false,
          "internalType": "uint64",
          "name": "version",
          "type": "uint64"
        }
      ],
      "name": "Initialized",
      "type": "event"
    },
    {
      "anonymous": false,
      "inputs": [
        {
          "indexed": true,
          "internalType": "address",
          "name": "previousOwner",
          "type": "address"
        },
        {
          "indexed": true,
          "internalType": "address",
          "name": "newOwner",
          "type": "address"
        }
      ],
      "name": "OwnershipTransferred",
      "type": "event"
    },
    {
      "anonymous": false,
      "inputs": [
        {
          "indexed": false,
          "internalType": "address",
          "name": "account",
          "type": "address"
        }
      ],
      "name": "Paused",
      "type": "event"
    },
    {
      "anonymous": false,
      "inputs": [
        {
          "indexed": true,
          "internalType": "bytes32",
          "name": "newRoot",
          "type": "bytes32"
        }
      ],
      "name": "RevokedSecretRootUpdated",
      "type": "event"
    },
    {
      "anonymous": false,
      "inputs": [
        {
          "indexed": false,
          "internalType": "address",
          "name": "account",
          "type": "address"
        }
      ],
      "name": "Unpaused",
      "type": "event"
    },
    {
      "anonymous": false,
      "inputs": [
        {
          "indexed": true,
          "internalType": "address",
          "name": "implementation",
          "type": "address"
        }
      ],
      "name": "Upgraded",
      "type": "event"
    },
    {
      "inputs": [],
      "name": "UPGRADE_INTERFACE_VERSION",
      "outputs": [
        {
          "internalType": "string",
          "name": "",
          "type": "string"
        }
      ],
      "stateMutability": "view",
      "type": "function"
    },
    {
      "inputs": [],
      "name": "VERSION",
      "outputs": [
        {
          "internalType": "uint256",
          "name": "",
          "type": "uint256"
        }
      ],
      "stateMutability": "view",
      "type": "function"
    },
    {
      "inputs": [],
      "name": "activeRoot",
      "outputs": [
        {
          "internalType": "bytes32",
          "name": "",
          "type": "bytes32"
        }
      ],
      "stateMutability": "view",
      "type": "function"
    },
    {
      "inputs": [
        {
          "internalType": "address",
          "name": "issuer",
          "type": "address"
        }
      ],
      "name": "addIssuer",
      "outputs": [],
      "stateMutability": "nonpayable",
      "type": "function"
    },
    {
      "inputs": [
        {
          "internalType": "address",
          "name": "owner_",
          "type": "address"
        }
      ],
      "name": "initialize",
      "outputs": [],
      "stateMutability": "nonpayable",
      "type": "function"
    },
    {
      "inputs": [
        {
          "internalType": "bytes32",
          "name": "nullifier",
          "type": "bytes32"
        }
      ],
      "name": "isNullifierUsed",
      "outputs": [
        {
          "internalType": "bool",
          "name": "",
          "type": "bool"
        }
      ],
      "stateMutability": "view",
      "type": "function"
    },
    {
      "inputs": [
        {
          "internalType": "address",
          "name": "",
          "type": "address"
        }
      ],
      "name": "issuers",
      "outputs": [
        {
          "internalType": "bool",
          "name": "",
          "type": "bool"
        }
      ],
      "stateMutability": "view",
      "type": "function"
    },
    {
      "inputs": [
        {
          "internalType": "bytes32",
          "name": "nullifier",
          "type": "bytes32"
        }
      ],
      "name": "markNullifierUsed",
      "outputs": [],
      "stateMutability": "nonpayable",
      "type": "function"
    },
    {
      "inputs": [],
      "name": "owner",
      "outputs": [
        {
          "internalType": "address",
          "name": "",
          "type": "address"
        }
      ],
      "stateMutability": "view",
      "type": "function"
    },
    {
      "inputs": [],
      "name": "pause",
      "outputs": [],
      "stateMutability": "nonpayable",
      "type": "function"
    },
    {
      "inputs": [],
      "name": "paused",
      "outputs": [
        {
          "internalType": "bool",
          "name": "",
          "type": "bool"
        }
      ],
      "stateMutability": "view",
      "type": "function"
    },
    {
      "inputs": [],
      "name": "proxiableUUID",
      "outputs": [
        {
          "internalType": "bytes32",
          "name": "",
          "type": "bytes32"
        }
      ],
      "stateMutability": "view",
      "type": "function"
    },
    {
      "inputs": [
        {
          "internalType": "address",
          "name": "issuer",
          "type": "address"
        }
      ],
      "name": "removeIssuer",
      "outputs": [],
      "stateMutability": "nonpayable",
      "type": "function"
    },
    {
      "inputs": [],
      "name": "renounceOwnership",
      "outputs": [],
      "stateMutability": "nonpayable",
      "type": "function"
    },
    {
      "inputs": [],
      "name": "revokedSecretRoot",
      "outputs": [
        {
          "internalType": "bytes32",
          "name": "",
          "type": "bytes32"
        }
      ],
      "stateMutability": "view",
      "type": "function"
    },
    {
      "inputs": [
        {
          "internalType": "address",
          "name": "",
          "type": "address"
        }
      ],
      "name": "sessionManagers",
      "outputs": [
        {
          "internalType": "bool",
          "name": "",
          "type": "bool"
        }
      ],
      "stateMutability": "view",
      "type": "function"
    },
    {
      "inputs": [
        {
          "internalType": "address",
          "name": "sessionManager",
          "type": "address"
        },
        {
          "internalType": "bool",
          "name": "allowed",
          "type": "bool"
        }
      ],
      "name": "setSessionManager",
      "outputs": [],
      "stateMutability": "nonpayable",
      "type": "function"
    },
    {
      "inputs": [
        {
          "internalType": "address",
          "name": "newOwner",
          "type": "address"
        }
      ],
      "name": "transferOwnership",
      "outputs": [],
      "stateMutability": "nonpayable",
      "type": "function"
    },
    {
      "inputs": [],
      "name": "unpause",
      "outputs": [],
      "stateMutability": "nonpayable",
      "type": "function"
    },
    {
      "inputs": [
        {
          "internalType": "bytes32",
          "name": "newRoot",
          "type": "bytes32"
        }
      ],
      "name": "updateActiveRoot",
      "outputs": [],
      "stateMutability": "nonpayable",
      "type": "function"
    },
    {
      "inputs": [
        {
          "internalType": "bytes32",
          "name": "newRoot",
          "type": "bytes32"
        }
      ],
      "name": "updateRevokedSecretRoot",
      "outputs": [],
      "stateMutability": "nonpayable",
      "type": "function"
    },
    {
      "inputs": [
        {
          "internalType": "address",
          "name": "newImplementation",
          "type": "address"
        },
        {
          "internalType": "bytes",
          "name": "data",
          "type": "bytes"
        }
      ],
      "name": "upgradeToAndCall",
      "outputs": [],
      "stateMutability": "payable",
      "type": "function"
    },
    {
      "inputs": [
        {
          "internalType": "bytes32",
          "name": "",
          "type": "bytes32"
        }
      ],
      "name": "usedNullifiers",
      "outputs": [
        {
          "internalType": "bool",
          "name": "",
          "type": "bool"
        }
      ],
      "stateMutability": "view",
      "type": "function"
    }
  ],
  "bytecode": "0x60a080604052346100cc57306080527ff0c57e16840df040f15088dc2f81fe391c3923bec73e23a9662efc9c229c6a009081549060ff8260401c166100bd57506001600160401b036002600160401b031982821601610078575b604051610d5b90816100d282396080518181816105f901526106d90152f35b6001600160401b031990911681179091556040519081527fc7f505b2f371ae2175ee4913f4499e1f2633a7b5936321eed1cdaeb6115181d290602090a1388080610059565b63f92ee8a960e01b8152600490fd5b600080fdfe608060408181526004918236101561001657600080fd5b600092833560e01c918263057cb0f514610a8a57508163206137aa14610a1b57816320694db014610a4757816322dc7b4c14610a1b57816323914869146109bd57816338a7543e146109805781633f4ba83a1461090857816347bc7093146108c85781634f1ef2861461065d57816352d1902d146105e45781635c975abb146105b35781636b6debf714610594578163715018a61461052a5781638456cb59146104c25781638da5cb5b1461048c578163abb2efdf1461046d578163ad3cb1cc146103ce578163c1c67f5f14610378578163c4d66de81461021c578163eb9e5849146101de578163f2fde38b146101ae578163f54e3a8514610140575063ffa1ad741461012257600080fd5b3461013c578160031936011261013c576020905160028152f35b5080fd5b9050346101aa5760203660031901126101aa578035913384528360205260ff81852054161561019d575050610173610c16565b806003557e12e8d1cf1cc3bbbeeed8d45e664cae7b568efc953ca943c64e07f3f4e588598280a280f35b516355b51ef160e01b8152fd5b8280fd5b83346101db5760203660031901126101db576101d86101cb610afa565b6101d3610bdd565b610b69565b80f35b80fd5b50503461013c57602036600319011261013c5760209160ff9082906001600160a01b03610209610afa565b1681526001855220541690519015158152f35b9050346101aa5760203660031901126101aa57610237610afa565b907ff0c57e16840df040f15088dc2f81fe391c3923bec73e23a9662efc9c229c6a0091825460ff81861c16159267ffffffffffffffff821680159081610370575b6001149081610366575b15908161035d575b5061034f575067ffffffffffffffff198116600117845582610330575b506102b0610c41565b6102b8610c41565b6102c181610b69565b6102c9610c41565b6001600160a01b031684526020849052828420805460ff191660011790556102ef578280f35b805468ff00000000000000001916905551600181527fc7f505b2f371ae2175ee4913f4499e1f2633a7b5936321eed1cdaeb6115181d290602090a138808280f35b68ffffffffffffffffff191668010000000000000001178355386102a7565b855163f92ee8a960e01b8152fd5b9050153861028a565b303b159150610282565b859150610278565b50503461013c578060031936011261013c57610392610afa565b90602435918215158093036103ca576103a9610bdd565b60018060a01b03168352600160205282209060ff8019835416911617905580f35b8380fd5b9050346101aa57826003193601126101aa578151908282019082821067ffffffffffffffff83111761045a5750825260058152602090640352e302e360dc1b6020820152825193849260208452825192836020860152825b84811061044457505050828201840152601f01601f19168101030190f35b8181018301518882018801528795508201610426565b634e487b7160e01b855260419052602484fd5b50503461013c578160031936011261013c576020906002549051908152f35b50503461013c578160031936011261013c57600080516020610ce68339815191525490516001600160a01b039091168152602090f35b50503461013c578160031936011261013c5760207f62e78cea01bee320cd4e420270b5ea74000d11b0c9f74754ebdbfc544b05a25891610500610bdd565b610508610c16565b600080516020610d06833981519152805460ff1916600117905551338152a180f35b83346101db57806003193601126101db57610543610bdd565b600080516020610ce683398151915280546001600160a01b0319811690915581906001600160a01b03167f8be0079c531659141344cd1fd0a4f28419497f9722a3daafe3b4186f6b6457e08280a380f35b50503461013c578160031936011261013c576020906003549051908152f35b50503461013c578160031936011261013c5760209060ff600080516020610d06833981519152541690519015158152f35b8284346101db57806003193601126101db57507f00000000000000000000000000000000000000000000000000000000000000006001600160a01b0316300361065057602090517f360894a13ba1a3210667c828492db98dca3e2076cc3735a920a3ca505d382bbc8152f35b5163703e46dd60e11b8152fd5b918091506003193601126101aa57610673610afa565b90602493843567ffffffffffffffff811161013c573660238201121561013c57808501356106a081610b4d565b946106ad85519687610b15565b81865260209182870193368a83830101116108c4578186928b8693018737880101526001600160a01b037f00000000000000000000000000000000000000000000000000000000000000008116308114908115610896575b5061088657610712610bdd565b81169585516352d1902d60e01b815283818a818b5afa869181610853575b5061074c575050505050505191634c9c8ce360e01b8352820152fd5b9088888894938c7f360894a13ba1a3210667c828492db98dca3e2076cc3735a920a3ca505d382bbc9182810361083e5750853b1561082a575080546001600160a01b031916821790558451889392917fbc7cd75a20ee27fd9adebab32041f755214dbc6bffa90cc0225b39da2e5c2d3b8580a282511561080c5750506107fe9582915190845af4913d15610802573d6107f06107e782610b4d565b92519283610b15565b81528581943d92013e610c82565b5080f35b5060609250610c82565b95509550505050503461081e57505080f35b63b398979f60e01b8152fd5b8651634c9c8ce360e01b8152808501849052fd5b8751632a87526960e21b815280860191909152fd5b9091508481813d831161087f575b61086b8183610b15565b8101031261087b57519038610730565b8680fd5b503d610861565b855163703e46dd60e11b81528890fd5b9050817f360894a13ba1a3210667c828492db98dca3e2076cc3735a920a3ca505d382bbc5416141538610705565b8580fd5b50503461013c57602036600319011261013c576108e3610afa565b6108eb610bdd565b6001600160a01b0316825260208290528120805460ff1916905580f35b9050346101aa57826003193601126101aa57610922610bdd565b600080516020610d068339815191529081549060ff821615610972575060ff19169055513381527f5db9ee0a495bf2e6ff9c91a7834c1ba4fdd244a5e8aa4e537bd38aeae4b073aa90602090a180f35b8351638dfc202b60e01b8152fd5b50503461013c57602036600319011261013c5760209160ff9082906001600160a01b036109ab610afa565b16815280855220541690519015158152f35b9050346101aa5760203660031901126101aa578035913384528360205260ff81852054161561019d5750506109f0610c16565b806002557f76261461236844337b0eb16561d37bd90c48cf1b779a7122006f8df07243d4188280a280f35b9050346101aa5760203660031901126101aa57816020938260ff93358252855220541690519015158152f35b50503461013c57602036600319011261013c57610a62610afa565b610a6a610bdd565b6001600160a01b0316825260208290528120805460ff1916600117905580f35b909150346103ca5760203660031901126103ca57813590338552600160205260ff848620541615610aec57508084528160205260ff8385205416610add5783526020528120805460ff1916600117905580f35b509051639281498560e01b8152fd5b63b86cb9f160e01b81529050fd5b600435906001600160a01b0382168203610b1057565b600080fd5b90601f8019910116810190811067ffffffffffffffff821117610b3757604052565b634e487b7160e01b600052604160045260246000fd5b67ffffffffffffffff8111610b3757601f01601f191660200190565b6001600160a01b03908116908115610bc457600080516020610ce683398151915280546001600160a01b031981168417909155167f8be0079c531659141344cd1fd0a4f28419497f9722a3daafe3b4186f6b6457e0600080a3565b604051631e4fbdf760e01b815260006004820152602490fd5b600080516020610ce6833981519152546001600160a01b03163303610bfe57565b60405163118cdaa760e01b8152336004820152602490fd5b60ff600080516020610d068339815191525416610c2f57565b60405163d93c066560e01b8152600490fd5b60ff7ff0c57e16840df040f15088dc2f81fe391c3923bec73e23a9662efc9c229c6a005460401c1615610c7057565b604051631afcd79f60e31b8152600490fd5b90610ca95750805115610c9757805190602001fd5b60405163d6bda27560e01b8152600490fd5b81511580610cdc575b610cba575090565b604051639996b31560e01b81526001600160a01b039091166004820152602490fd5b50803b15610cb256fe9016d09d72d40fdae2fd8ceac6b6234c7706214fd39c1cd1e609a0528c199300cd5ed15c6e187e77e9aee88184c21f4f2182ab5827cb3b7e07fbedcd63f03300a2646970667358221220a8883ca21b9b8e059c88ef7bf5a35b31a7be500275d9fc9bd650f81226447c0464736f6c63430008180033",
  "linkReferences": {},
  "deployedLinkReferences": {}
}