{
  "_format": "hh-sol-artifact-1",
  "contractName": "MockV2_DelegationManager",
  "sourceName": "src/mocks/MockV2.sol",
  "abi": [
    {
      "inputs": [],
      "name": "AccessControlBadConfirmation",
      "type": "error"
    },
    {
      "inputs": [
        {
          "internalType": "address",
          "name": "account",
          "type": "address"
        },
        {
          "internalType": "bytes32",
          "name": "neededRole",
          "type": "bytes32"
        }
      ],
      "name": "AccessControlUnauthorizedAccount",
      "type": "error"
    },
    {
      "inputs": [
        {
          "internalType": "address",
          "name": "target",
          "type": "address"
        }
      ],
      "name": "AddressEmptyCode",
      "type": "error"
    },
    {
      "inputs": [],
      "name": "AlreadyRevokedDelegation",
      "type": "error"
    },
    {
      "inputs": [],
      "name": "ArrayLengthMismatch",
      "type": "error"
    },
    {
      "inputs": [],
      "name": "ChainTooLong",
      "type": "error"
    },
    {
      "inputs": [],
      "name": "DelegatorHasBeenRevoked",
      "type": "error"
    },
    {
      "inputs": [
        {
          "internalType": "address",
          "name": "implementation",
          "type": "address"
        }
      ],
      "name": "ERC1967InvalidImplementation",
      "type": "error"
    },
    {
      "inputs": [],
      "name": "ERC1967NonPayable",
      "type": "error"
    },
    {
      "inputs": [],
      "name": "EmptyChain",
      "type": "error"
    },
    {
      "inputs": [],
      "name": "EnforcedPause",
      "type": "error"
    },
    {
      "inputs": [],
      "name": "ExpectedPause",
      "type": "error"
    },
    {
      "inputs": [],
      "name": "FailedCall",
      "type": "error"
    },
    {
      "inputs": [],
      "name": "InvalidInitialization",
      "type": "error"
    },
    {
      "inputs": [],
      "name": "NotInitializing",
      "type": "error"
    },
    {
      "inputs": [],
      "name": "ScopeAlreadyRegistered",
      "type": "error"
    },
    {
      "inputs": [],
      "name": "ScopeLimitExceeded",
      "type": "error"
    },
    {
      "inputs": [],
      "name": "UUPSUnauthorizedCallContext",
      "type": "error"
    },
    {
      "inputs": [
        {
          "internalType": "bytes32",
          "name": "slot",
          "type": "bytes32"
        }
      ],
      "name": "UUPSUnsupportedProxiableUUID",
      "type": "error"
    },
    {
      "anonymous": false,
      "inputs": [
        {
          "indexed": true,
          "internalType": "bytes32",
          "name": "delegationLeafHash",
          "type": "bytes32"
        },
        {
          "indexed": true,
          "internalType": "address",
          "name": "delegator",
          "type": "address"
        }
      ],
      "name": "DelegationRevoked",
      "type": "event"
    },
    {
      "anonymous": false,
      "inputs": [
        {
          "indexed": true,
          "internalType": "address",
          "name": "delegator",
          "type": "address"
        },
        {
          "indexed": true,
          "internalType": "bytes32",
          "name": "scopeHash",
          "type": "bytes32"
        },
        {
          "indexed": false,
          "internalType": "bytes32",
          "name": "newRoot",
          "type": "bytes32"
        },
        {
          "indexed": false,
          "internalType": "uint64",
          "name": "expiresAt",
          "type": "uint64"
        }
      ],
      "name": "DelegationRootUpdated",
      "type": "event"
    },
    {
      "anonymous": false,
      "inputs": [
        {
          "indexed": true,
          "internalType": "address",
          "name": "delegator",
          "type": "address"
        }
      ],
      "name": "DelegatorReAuthorized",
      "type": "event"
    },
    {
      "anonymous": false,
      "inputs": [
        {
          "indexed": true,
          "internalType": "address",
          "name": "delegator",
          "type": "address"
        }
      ],
      "name": "DelegatorRevoked",
      "type": "event"
    },
    {
      "anonymous": false,
      "inputs": [
        {
          "indexed": false,
          "internalType": "uint64",
          "name": "version",
          "type": "uint64"
        }
      ],
      "name": "Initialized",
      "type": "event"
    },
    {
      "anonymous": false,
      "inputs": [
        {
          "indexed": false,
          "internalType": "address",
          "name": "account",
          "type": "address"
        }
      ],
      "name": "Paused",
      "type": "event"
    },
    {
      "anonymous": false,
      "inputs": [
        {
          "indexed": true,
          "internalType": "bytes32",
          "name": "role",
          "type": "bytes32"
        },
        {
          "indexed": true,
          "internalType": "bytes32",
          "name": "previousAdminRole",
          "type": "bytes32"
        },
        {
          "indexed": true,
          "internalType": "bytes32",
          "name": "newAdminRole",
          "type": "bytes32"
        }
      ],
      "name": "RoleAdminChanged",
      "type": "event"
    },
    {
      "anonymous": false,
      "inputs": [
        {
          "indexed": true,
          "internalType": "bytes32",
          "name": "role",
          "type": "bytes32"
        },
        {
          "indexed": true,
          "internalType": "address",
          "name": "account",
          "type": "address"
        },
        {
          "indexed": true,
          "internalType": "address",
          "name": "sender",
          "type": "address"
        }
      ],
      "name": "RoleGranted",
      "type": "event"
    },
    {
      "anonymous": false,
      "inputs": [
        {
          "indexed": true,
          "internalType": "bytes32",
          "name": "role",
          "type": "bytes32"
        },
        {
          "indexed": true,
          "internalType": "address",
          "name": "account",
          "type": "address"
        },
        {
          "indexed": true,
          "internalType": "address",
          "name": "sender",
          "type": "address"
        }
      ],
      "name": "RoleRevoked",
      "type": "event"
    },
    {
      "anonymous": false,
      "inputs": [
        {
          "indexed": false,
          "internalType": "string",
          "name": "action",
          "type": "string"
        },
        {
          "indexed": true,
          "internalType": "bytes32",
          "name": "scopeHash",
          "type": "bytes32"
        }
      ],
      "name": "ScopeRegistered",
      "type": "event"
    },
    {
      "anonymous": false,
      "inputs": [
        {
          "indexed": false,
          "internalType": "address",
          "name": "account",
          "type": "address"
        }
      ],
      "name": "Unpaused",
      "type": "event"
    },
    {
      "anonymous": false,
      "inputs": [
        {
          "indexed": true,
          "internalType": "address",
          "name": "implementation",
          "type": "address"
        }
      ],
      "name": "Upgraded",
      "type": "event"
    },
    {
      "inputs": [],
      "name": "DEFAULT_ADMIN_ROLE",
      "outputs": [
        {
          "internalType": "bytes32",
          "name": "",
          "type": "bytes32"
        }
      ],
      "stateMutability": "view",
      "type": "function"
    },
    {
      "inputs": [],
      "name": "MAX_DELEGATION_DEPTH",
      "outputs": [
        {
          "internalType": "uint8",
          "name": "",
          "type": "uint8"
        }
      ],
      "stateMutability": "view",
      "type": "function"
    },
    {
      "inputs": [],
      "name": "ROOT_UPDATER_ROLE",
      "outputs": [
        {
          "internalType": "bytes32",
          "name": "",
          "type": "bytes32"
        }
      ],
      "stateMutability": "view",
      "type": "function"
    },
    {
      "inputs": [],
      "name": "UPGRADE_INTERFACE_VERSION",
      "outputs": [
        {
          "internalType": "string",
          "name": "",
          "type": "string"
        }
      ],
      "stateMutability": "view",
      "type": "function"
    },
    {
      "inputs": [],
      "name": "VERSION",
      "outputs": [
        {
          "internalType": "uint256",
          "name": "",
          "type": "uint256"
        }
      ],
      "stateMutability": "view",
      "type": "function"
    },
    {
      "inputs": [
        {
          "internalType": "address",
          "name": "",
          "type": "address"
        },
        {
          "internalType": "bytes32",
          "name": "",
          "type": "bytes32"
        }
      ],
      "name": "delegationRoots",
      "outputs": [
        {
          "internalType": "bytes32",
          "name": "root",
          "type": "bytes32"
        },
        {
          "internalType": "uint64",
          "name": "expiresAt",
          "type": "uint64"
        },
        {
          "internalType": "uint64",
          "name": "createdAt",
          "type": "uint64"
        }
      ],
      "stateMutability": "view",
      "type": "function"
    },
    {
      "inputs": [
        {
          "internalType": "address",
          "name": "delegator",
          "type": "address"
        }
      ],
      "name": "emergencyRevokeAll",
      "outputs": [],
      "stateMutability": "nonpayable",
      "type": "function"
    },
    {
      "inputs": [
        {
          "internalType": "address",
          "name": "delegator",
          "type": "address"
        },
        {
          "internalType": "bytes32",
          "name": "scopeHash",
          "type": "bytes32"
        }
      ],
      "name": "getDelegationRoot",
      "outputs": [
        {
          "internalType": "bytes32",
          "name": "root",
          "type": "bytes32"
        },
        {
          "internalType": "uint64",
          "name": "expiresAt",
          "type": "uint64"
        },
        {
          "internalType": "uint64",
          "name": "createdAt",
          "type": "uint64"
        }
      ],
      "stateMutability": "view",
      "type": "function"
    },
    {
      "inputs": [
        {
          "internalType": "address",
          "name": "delegator",
          "type": "address"
        }
      ],
      "name": "getDelegatorScopeCount",
      "outputs": [
        {
          "internalType": "uint256",
          "name": "",
          "type": "uint256"
        }
      ],
      "stateMutability": "view",
      "type": "function"
    },
    {
      "inputs": [
        {
          "internalType": "bytes32",
          "name": "role",
          "type": "bytes32"
        }
      ],
      "name": "getRoleAdmin",
      "outputs": [
        {
          "internalType": "bytes32",
          "name": "",
          "type": "bytes32"
        }
      ],
      "stateMutability": "view",
      "type": "function"
    },
    {
      "inputs": [
        {
          "internalType": "bytes32",
          "name": "scopeHash",
          "type": "bytes32"
        }
      ],
      "name": "getScopeAction",
      "outputs": [
        {
          "internalType": "string",
          "name": "",
          "type": "string"
        }
      ],
      "stateMutability": "view",
      "type": "function"
    },
    {
      "inputs": [
        {
          "internalType": "bytes32",
          "name": "role",
          "type": "bytes32"
        },
        {
          "internalType": "address",
          "name": "account",
          "type": "address"
        }
      ],
      "name": "grantRole",
      "outputs": [],
      "stateMutability": "nonpayable",
      "type": "function"
    },
    {
      "inputs": [
        {
          "internalType": "bytes32",
          "name": "role",
          "type": "bytes32"
        },
        {
          "internalType": "address",
          "name": "account",
          "type": "address"
        }
      ],
      "name": "hasRole",
      "outputs": [
        {
          "internalType": "bool",
          "name": "",
          "type": "bool"
        }
      ],
      "stateMutability": "view",
      "type": "function"
    },
    {
      "inputs": [
        {
          "internalType": "address",
          "name": "owner_",
          "type": "address"
        }
      ],
      "name": "initialize",
      "outputs": [],
      "stateMutability": "nonpayable",
      "type": "function"
    },
    {
      "inputs": [
        {
          "internalType": "bytes32",
          "name": "leafHash",
          "type": "bytes32"
        }
      ],
      "name": "isRevoked",
      "outputs": [
        {
          "internalType": "bool",
          "name": "",
          "type": "bool"
        }
      ],
      "stateMutability": "view",
      "type": "function"
    },
    {
      "inputs": [],
      "name": "pause",
      "outputs": [],
      "stateMutability": "nonpayable",
      "type": "function"
    },
    {
      "inputs": [],
      "name": "paused",
      "outputs": [
        {
          "internalType": "bool",
          "name": "",
          "type": "bool"
        }
      ],
      "stateMutability": "view",
      "type": "function"
    },
    {
      "inputs": [],
      "name": "proxiableUUID",
      "outputs": [
        {
          "internalType": "bytes32",
          "name": "",
          "type": "bytes32"
        }
      ],
      "stateMutability": "view",
      "type": "function"
    },
    {
      "inputs": [
        {
          "internalType": "address",
          "name": "delegator",
          "type": "address"
        }
      ],
      "name": "reAuthorizeDelegator",
      "outputs": [],
      "stateMutability": "nonpayable",
      "type": "function"
    },
    {
      "inputs": [
        {
          "internalType": "string",
          "name": "action",
          "type": "string"
        }
      ],
      "name": "registerScope",
      "outputs": [],
      "stateMutability": "nonpayable",
      "type": "function"
    },
    {
      "inputs": [
        {
          "internalType": "bytes32",
          "name": "role",
          "type": "bytes32"
        },
        {
          "internalType": "address",
          "name": "callerConfirmation",
          "type": "address"
        }
      ],
      "name": "renounceRole",
      "outputs": [],
      "stateMutability": "nonpayable",
      "type": "function"
    },
    {
      "inputs": [
        {
          "internalType": "bytes32",
          "name": "delegationLeafHash",
          "type": "bytes32"
        },
        {
          "internalType": "address",
          "name": "delegator",
          "type": "address"
        }
      ],
      "name": "revokeDelegation",
      "outputs": [],
      "stateMutability": "nonpayable",
      "type": "function"
    },
    {
      "inputs": [
        {
          "internalType": "bytes32",
          "name": "role",
          "type": "bytes32"
        },
        {
          "internalType": "address",
          "name": "account",
          "type": "address"
        }
      ],
      "name": "revokeRole",
      "outputs": [],
      "stateMutability": "nonpayable",
      "type": "function"
    },
    {
      "inputs": [
        {
          "internalType": "bytes32",
          "name": "",
          "type": "bytes32"
        }
      ],
      "name": "revokedDelegations",
      "outputs": [
        {
          "internalType": "bool",
          "name": "",
          "type": "bool"
        }
      ],
      "stateMutability": "view",
      "type": "function"
    },
    {
      "inputs": [
        {
          "internalType": "address",
          "name": "",
          "type": "address"
        }
      ],
      "name": "revokedDelegators",
      "outputs": [
        {
          "internalType": "bool",
          "name": "",
          "type": "bool"
        }
      ],
      "stateMutability": "view",
      "type": "function"
    },
    {
      "inputs": [
        {
          "internalType": "bytes32",
          "name": "",
          "type": "bytes32"
        }
      ],
      "name": "scopeActions",
      "outputs": [
        {
          "internalType": "string",
          "name": "",
          "type": "string"
        }
      ],
      "stateMutability": "view",
      "type": "function"
    },
    {
      "inputs": [
        {
          "internalType": "address",
          "name": "updater",
          "type": "address"
        },
        {
          "internalType": "bool",
          "name": "allowed",
          "type": "bool"
        }
      ],
      "name": "setRootUpdater",
      "outputs": [],
      "stateMutability": "nonpayable",
      "type": "function"
    },
    {
      "inputs": [
        {
          "internalType": "bytes4",
          "name": "interfaceId",
          "type": "bytes4"
        }
      ],
      "name": "supportsInterface",
      "outputs": [
        {
          "internalType": "bool",
          "name": "",
          "type": "bool"
        }
      ],
      "stateMutability": "view",
      "type": "function"
    },
    {
      "inputs": [],
      "name": "unpause",
      "outputs": [],
      "stateMutability": "nonpayable",
      "type": "function"
    },
    {
      "inputs": [
        {
          "internalType": "address",
          "name": "delegator",
          "type": "address"
        },
        {
          "internalType": "bytes32",
          "name": "scopeHash",
          "type": "bytes32"
        },
        {
          "internalType": "bytes32",
          "name": "newRoot",
          "type": "bytes32"
        },
        {
          "internalType": "uint64",
          "name": "expiresAt",
          "type": "uint64"
        }
      ],
      "name": "updateDelegationRoot",
      "outputs": [],
      "stateMutability": "nonpayable",
      "type": "function"
    },
    {
      "inputs": [
        {
          "internalType": "address",
          "name": "newImplementation",
          "type": "address"
        },
        {
          "internalType": "bytes",
          "name": "data",
          "type": "bytes"
        }
      ],
      "name": "upgradeToAndCall",
      "outputs": [],
      "stateMutability": "payable",
      "type": "function"
    },
    {
      "inputs": [
        {
          "internalType": "bytes32",
          "name": "delegationLeaf",
          "type": "bytes32"
        },
        {
          "internalType": "bytes32[]",
          "name": "merkleProof",
          "type": "bytes32[]"
        },
        {
          "internalType": "address",
          "name": "delegator",
          "type": "address"
        },
        {
          "internalType": "bytes32",
          "name": "scopeHash",
          "type": "bytes32"
        },
        {
          "internalType": "uint64",
          "name": "expiresAt",
          "type": "uint64"
        },
        {
          "internalType": "uint8",
          "name": "maxDepth",
          "type": "uint8"
        }
      ],
      "name": "verifyDelegation",
      "outputs": [
        {
          "internalType": "bool",
          "name": "",
          "type": "bool"
        }
      ],
      "stateMutability": "view",
      "type": "function"
    },
    {
      "inputs": [
        {
          "internalType": "bytes32[]",
          "name": "delegationLeaves",
          "type": "bytes32[]"
        },
        {
          "internalType": "bytes32[][]",
          "name": "merkleProofs",
          "type": "bytes32[][]"
        },
        {
          "internalType": "address[]",
          "name": "delegators",
          "type": "address[]"
        },
        {
          "internalType": "address[]",
          "name": "delegates",
          "type": "address[]"
        },
        {
          "internalType": "bytes32[]",
          "name": "scopeHashes",
          "type": "bytes32[]"
        },
        {
          "internalType": "uint64[]",
          "name": "expiries",
          "type": "uint64[]"
        },
        {
          "internalType": "uint8[]",
          "name": "maxDepths",
          "type": "uint8[]"
        }
      ],
      "name": "verifyDelegationChain",
      "outputs": [
        {
          "internalType": "bool",
          "name": "",
          "type": "bool"
        }
      ],
      "stateMutability": "view",
      "type": "function"
    },
    {
      "inputs": [
        {
          "internalType": "bytes32",
          "name": "delegationLeaf",
          "type": "bytes32"
        },
        {
          "internalType": "bytes32[]",
          "name": "merkleProof",
          "type": "bytes32[]"
        },
        {
          "internalType": "address",
          "name": "delegator",
          "type": "address"
        },
        {
          "internalType": "string",
          "name": "action",
          "type": "string"
        },
        {
          "internalType": "uint64",
          "name": "expiresAt",
          "type": "uint64"
        },
        {
          "internalType": "uint8",
          "name": "maxDepth",
          "type": "uint8"
        }
      ],
      "name": "verifyDelegationForAction",
      "outputs": [
        {
          "internalType": "bool",
          "name": "",
          "type": "bool"
        }
      ],
      "stateMutability": "view",
      "type": "function"
    }
  ],
  "bytecode": "0x60a080604052346100cc57306080527ff0c57e16840df040f15088dc2f81fe391c3923bec73e23a9662efc9c229c6a009081549060ff8260401c166100bd57506001600160401b036002600160401b031982821601610078575b60405161225e90816100d28239608051818181610b470152610e340152f35b6001600160401b031990911681179091556040519081527fc7f505b2f371ae2175ee4913f4499e1f2633a7b5936321eed1cdaeb6115181d290602090a1388080610059565b63f92ee8a960e01b8152600490fd5b600080fdfe60e060408181526004918236101561001657600080fd5b600092833560e01c91826301ffc9a714611307575081630f4252cc146112c957816317140090146112935781631ac924a814610993578163232acf5e1461101b578163248a9ca31461125b5781632f2ff15d1461123157816336568abe146111eb57816336e4b80a146110c05781633f4ba83a146110485781634294857f1461101b5781634f1ef28614610db957816352b957dd14610bab57816352d1902d14610b325781635373941014610aee5781635982ef2614610a7d5781635c975abb14610a4c5781637969a71314610a305781638456cb59146109c85781638c70e02a1461099357816391d148541461093f57816396f16c1714610850578163a217fddf14610835578163a31f48db1461063c578163a69c5c641461050a578163ad3cb1cc146105da578163afa6a1cf14610575578163b76b408a1461050a578163be2ca9d014610426578163c4d66de8146102e5578163d547741f14610298578163d9ab2c5c1461026f578163f53da7cd146101b9575063ffa1ad741461019b57600080fd5b346101b557816003193601126101b5576020905160028152f35b5080fd5b90503461026b5760c036600319011261026b576001600160401b03602435818111610267576101eb9036908401611563565b9290916101f661138b565b90606435908111610263579161025a9493916102186020989436908401611457565b9590610222611593565b9561024e8b61022f6115a9565b998c51938185928484019788378201908382015203808452018261141b565b51902093339335611c3d565b90519015158152f35b8680fd5b8480fd5b8280fd5b5050346101b557816003193601126101b557602090516000805160206121c98339815191528152f35b9190503461026b578060031936011261026b576102e191356102dc60016102bd611375565b938387526000805160206121e9833981519152602052862001546118dd565b611b8f565b5080f35b90503461026b57602036600319011261026b5761030061135a565b907ff0c57e16840df040f15088dc2f81fe391c3923bec73e23a9662efc9c229c6a0091825460ff81861c1615926001600160401b0382168015908161041e575b6001149081610414575b15908161040b575b506103fd575067ffffffffffffffff19811660011784556103949190836103de575b5061037d612124565b610385612124565b61038e816119c0565b50611910565b5061039d578280f35b805468ff00000000000000001916905551600181527fc7f505b2f371ae2175ee4913f4499e1f2633a7b5936321eed1cdaeb6115181d290602090a138808280f35b68ffffffffffffffffff19166801000000000000000117845538610374565b855163f92ee8a960e01b8152fd5b90501538610352565b303b15915061034a565b859150610340565b9190503461026b578060031936011261026b57813590610444611375565b61044c611c12565b6001600160a01b03169233841415806104de575b6104c257828552600160205260ff82862054166104b4575081845260016020528320600160ff198254161790557f85447bad2d347065c177bd751ff821e559edced77491fe96ca82c6e3de7caedc8380a380f35b9051635f7e390160e01b8152fd5b84604492519163e2517d3f60e01b835233908301526024820152fd5b508480526000805160206121e983398151915260205281852033865260205260ff828620541615610460565b5050346101b557806003193601126101b5579081906001600160a01b0361052f61135a565b168152602081815282822060243583528152919020805460019091015483519182526001600160401b038082169383019390935290921c166040820152606090f35b0390f35b8284346105d75760c03660031901126105d757602435906001600160401b0382116105d757506020926105ae61025a9236908301611563565b91906105b861138b565b916105c1611593565b926105ca6115a9565b9460643593339335611c3d565b80fd5b8383346101b557816003193601126101b557805191818301908382106001600160401b0383111761062957506105719350815260058252640352e302e360dc1b602083015251918291826113a1565b634e487b7160e01b815260418552602490fd5b8383346101b55760803660031901126101b55761065761135a565b602435916044356064356001600160401b03938482168092036102635761067c611c12565b6001600160a01b031680875260026020908152848820549195909160ff166108255785331415806107ed575b6107c35785885287825284882087895282528488205415806107ba575b610781575b8451606081018181108382111761076e577fc1118fa877c5ac1c7de2e57076d1f49b734e12010837899e0cf6b7ba54cfe1189798999a5086528481528281019184835260018783019282421684528a8d528c86528c8c8a822091528652888d2090518155019251166fffffffffffffffff000000000000000083549251881b16916fffffffffffffffffffffffffffffffff1916171790558351928352820152a380f35b634e487b7160e01b8a5260418b5260248afd5b858852888252818589205410156107aa578588528882526107a487868a206120b1565b506106ca565b845163c7877bb560e01b81528990fd5b508315156106c5565b845163e2517d3f60e01b815233818b01526000805160206121c98339815191526024820152604490fd5b506000805160206121c983398151915288526000805160206121e98339815191528252848820338952825260ff8589205416156106a8565b845163555c720360e01b81528990fd5b5050346101b557816003193601126101b55751908152602090f35b90503461026b5760e036600319011261026b576001600160401b038135818111610267576108819036908401611563565b94909260243583811161026b5761089b9036908301611563565b604492919235858111610267576108b59036908401611563565b606492919235878111610263576108cf9036908601611563565b93909260843589811161093b576108e99036908801611563565b97909660a4358b8111610937576109039036908301611563565b9b909a60c4359182116105d757509161092f60209f9c9a9896949261025a9e9c9a989694369101611563565b9c909b61161e565b8a80fd5b8880fd5b90503461026b578160031936011261026b578160209360ff92610960611375565b903582526000805160206121e983398151915286528282206001600160a01b039091168252855220549151911615158152f35b90503461026b57602036600319011261026b5781610571936109bd923581526003602052206114be565b9051918291826113a1565b5050346101b557816003193601126101b55760207f62e78cea01bee320cd4e420270b5ea74000d11b0c9f74754ebdbfc544b05a25891610a06611885565b610a0e611c12565b600080516020612209833981519152805460ff1916600117905551338152a180f35b5050346101b557816003193601126101b55760209051600a8152f35b5050346101b557816003193601126101b55760209060ff600080516020612209833981519152541690519015158152f35b5050346101b55760203660031901126101b557610a9861135a565b610aa0611885565b610aa8611c12565b6001600160a01b03168083526002602052908220805460ff191660011790557fda0c067505b27fe7df440d442ad25b9e11df605505c09b00befd268bdd63bc2d8280a280f35b5050346101b5573660031901126105d757610b0761135a565b602435801515810361026b57610b1b611885565b15610b29576102e190611910565b6102e190611ae7565b8284346105d757806003193601126105d757507f00000000000000000000000000000000000000000000000000000000000000006001600160a01b03163003610b9e57602090517f360894a13ba1a3210667c828492db98dca3e2076cc3735a920a3ca505d382bbc8152f35b5163703e46dd60e11b8152fd5b839150346101b55760208060031936011261026b576001600160401b0393823585811161026757610bdf9036908501611457565b9290610be9611885565b82518281019085838337610c0b84828881018b8382015203808452018261141b565b5190209485875260038352610c2284882054611484565b610dab5785875260038352838720978511610d985750610c428754611484565b601f8111610d55575b508596601f8511600114610ccf578491829182899a7fe41e8325c3432ae4b251ac1f09f8bd9e2292797bd1a7bfdd1865b85cf165581a999a91610cc4575b508360011b906000198560031b1c19161790555b8451958487958652850152848401378181018301879052601f01601f19168101030190a280f35b90508201358b610c89565b808752828720601f198616885b818110610d3e5750918693917fe41e8325c3432ae4b251ac1f09f8bd9e2292797bd1a7bfdd1865b85cf165581a98999a85809510610d24575b5050600183811b019055610c9d565b830135600019600386901b60f8161c191690558a80610d15565b848b01358355998501996001909201918501610cdc565b878752828720601f860160051c810191848710610d8e575b601f0160051c01905b818110610d835750610c4b565b878155600101610d76565b9091508190610d6d565b634e487b7160e01b875260419052602486fd5b8351637784569b60e01b8152fd5b9180915060031936011261026b57610dcf61135a565b9060249384356001600160401b0381116101b557366023820112156101b55780850135610dfb8161143c565b94610e088551968761141b565b81865260209182870193368a8383010111611017578186928b8693018737880101526001600160a01b037f00000000000000000000000000000000000000000000000000000000000000008116308114908115610fe9575b50610fd957610e6d611885565b81169585516352d1902d60e01b815283818a818b5afa869181610faa575b50610ea7575050505050505191634c9c8ce360e01b8352820152fd5b9088888894938c7f360894a13ba1a3210667c828492db98dca3e2076cc3735a920a3ca505d382bbc91828103610f955750853b15610f81575080546001600160a01b031916821790558451889392917fbc7cd75a20ee27fd9adebab32041f755214dbc6bffa90cc0225b39da2e5c2d3b8580a2825115610f635750506102e19582915190845af4913d15610f59573d610f4b610f428261143c565b9251928361141b565b81528581943d92013e612165565b5060609250612165565b955095505050505034610f7557505080f35b63b398979f60e01b8152fd5b8651634c9c8ce360e01b8152808501849052fd5b8751632a87526960e21b815280860191909152fd5b9091508481813d8311610fd2575b610fc2818361141b565b8101031261026357519038610e8b565b503d610fb8565b855163703e46dd60e11b81528890fd5b9050817f360894a13ba1a3210667c828492db98dca3e2076cc3735a920a3ca505d382bbc5416141538610e60565b8580fd5b90503461026b57602036600319011261026b578160209360ff923581526001855220541690519015158152f35b90503461026b578260031936011261026b57611062611885565b6000805160206122098339815191529081549060ff8216156110b2575060ff19169055513381527f5db9ee0a495bf2e6ff9c91a7834c1ba4fdd244a5e8aa4e537bd38aeae4b073aa90602090a180f35b8351638dfc202b60e01b8152fd5b90503461026b576020806003193601126111e7576110dc61135a565b6110e4611885565b6001600160a01b031680855260028252838520805460ff191690558282528385205490939092611113846115b9565b926111208351948561141b565b848452601f1961112f866115b9565b013682860137865b8581106111ba5750865b8581106111715787877fda8899880b90e12fdeb16124863be5e5465ea82eca7069167b49385fd841ec918280a280f35b60019087895288835284892061118782886115d0565b518a528352888286822082815501558789528383526111b3858a206111ac83896115d0565b5190611faa565b5001611141565b6001908789528383526111cf81868b20611f92565b90549060031b1c6111e082886115d0565b5201611137565b8380fd5b8383346101b557806003193601126101b557611205611375565b90336001600160a01b0383160361122257506102e1919235611b8f565b5163334bd91960e11b81528390fd5b9190503461026b578060031936011261026b576102e1913561125660016102bd611375565b611a60565b90503461026b57602036600319011261026b57816020936001923581526000805160206121e983398151915285522001549051908152f35b90503461026b57602036600319011261026b5760209282916001600160a01b036112bb61135a565b168252845220549051908152f35b5050346101b55760203660031901126101b55760209160ff9082906001600160a01b036112f461135a565b1681526002855220541690519015158152f35b84913461026b57602036600319011261026b573563ffffffff60e01b811680910361026b5760209250637965db0b60e01b8114908115611349575b5015158152f35b6301ffc9a760e01b14905083611342565b600435906001600160a01b038216820361137057565b600080fd5b602435906001600160a01b038216820361137057565b604435906001600160a01b038216820361137057565b6020808252825181830181905290939260005b8281106113d657505060409293506000838284010152601f8019910116010190565b8181018601518482016040015285016113b4565b60a081019081106001600160401b0382111761140557604052565b634e487b7160e01b600052604160045260246000fd5b90601f801991011681019081106001600160401b0382111761140557604052565b6001600160401b03811161140557601f01601f191660200190565b9181601f84011215611370578235916001600160401b038311611370576020838186019501011161137057565b90600182811c921680156114b4575b602083101461149e57565b634e487b7160e01b600052602260045260246000fd5b91607f1691611493565b906040519182600082546114d181611484565b908184526020946001916001811690816000146115415750600114611502575b5050506115009250038361141b565b565b600090815285812095935091905b81831061152957505061150093508201013880806114f1565b85548884018501529485019487945091830191611510565b9250505061150094925060ff191682840152151560051b8201013880806114f1565b9181601f84011215611370578235916001600160401b038311611370576020808501948460051b01011161137057565b608435906001600160401b038216820361137057565b60a4359060ff8216820361137057565b6001600160401b0381116114055760051b60200190565b80518210156115e45760209160051b010190565b634e487b7160e01b600052603260045260246000fd5b91908110156115e45760051b0190565b356001600160a01b03811681036113705790565b9c93909b969b9a929897949199959a60c05260a05260805260c0511561187357600a60c05111611861578660c05114801590611853575b8015611847575b801561183b575b801561182f575b8015611823575b6118115760005b60c051811061169257505050505050505050505050600190565b6116a0818d60c051906115fa565b35888210156115e45760059082821b8b0135601e198c360301811215611370578b01916001600160401b03833511611370578235901b36036020830113611370576116f86116f38460805160a0516115fa565b61160a565b60c0516000198101116117e9578d8d8560001960c0510181146000146117ff57505050335b611728858c8a6115fa565b3561173486888c6115fa565b35916001600160401b038316830361137057611751878a8e6115fa565b359360ff851685036113705760018801968789116117e95760ff61177d98169660208235920190611e06565b1561179757801515806117a8575b61179757600101611678565b505050505050505050505050600090565b506117bb6116f38260805160a0516115fa565b60001982018281116117e9578b6117df6116f38f9360018060a01b039485946115fa565b169116141561178b565b634e487b7160e01b600052601160045260246000fd5b61180c926116f3926115fa565b61171d565b60405163512509d360e11b8152600490fd5b508160c0511415611671565b508060c051141561166a565b508560c0511415611663565b508960c051141561165c565b5060805160c0511415611655565b60405163c253bd8960e01b8152600490fd5b604051630b1bc1e560e21b8152600490fd5b3360009081527fb7db2dd08fcb62d0c9e08c51941cae53c267786a0b75803fb7960902fc8ef97d602052604081205460ff16156118bf5750565b6044906040519063e2517d3f60e01b82523360048301526024820152fd5b806000526000805160206121e983398151915260205260406000203360005260205260ff60406000205416156118bf5750565b6001600160a01b031660008181527fca3a258cd1c05b961393016e8708aba378937b0d78f6e02cccb2fd8c4c442cc660205260408120549091906000805160206121c9833981519152906000805160206121e98339815191529060ff166119ba578184526020526040832082845260205260408320600160ff198254161790557f2f8788117e7eff1d82e926ec794901d17c78024a50270940304540a733656f0d339380a4600190565b50505090565b6001600160a01b031660008181527fb7db2dd08fcb62d0c9e08c51941cae53c267786a0b75803fb7960902fc8ef97d60205260408120549091906000805160206121e98339815191529060ff16611a5b578280526020526040822081835260205260408220600160ff1982541617905533917f2f8788117e7eff1d82e926ec794901d17c78024a50270940304540a733656f0d8180a4600190565b505090565b906000918083526000805160206121e983398151915280602052604084209260018060a01b03169283855260205260ff604085205416156000146119ba578184526020526040832082845260205260408320600160ff198254161790557f2f8788117e7eff1d82e926ec794901d17c78024a50270940304540a733656f0d339380a4600190565b6001600160a01b031660008181527fca3a258cd1c05b961393016e8708aba378937b0d78f6e02cccb2fd8c4c442cc660205260408120549091906000805160206121c9833981519152906000805160206121e98339815191529060ff16156119ba57818452602052604083208284526020526040832060ff1981541690557ff6391f5c32d9c69d2a47ea670b442974b53935d1edc7fd64eb21e047a839171b339380a4600190565b906000918083526000805160206121e983398151915280602052604084209260018060a01b03169283855260205260ff6040852054166000146119ba57818452602052604083208284526020526040832060ff1981541690557ff6391f5c32d9c69d2a47ea670b442974b53935d1edc7fd64eb21e047a839171b339380a4600190565b60ff6000805160206122098339815191525416611c2b57565b60405163d93c066560e01b8152600490fd5b90969195969493929460018060a01b038096166000948186526020946002865260409760ff8989205416611df7578787528888208189528752888820998a549c8d15611dc1576001600160401b0390816001809e0154168015159081611ded575b50611ddb57888b5260018a5260ff8c8c205416611ddb57169283151580611dd2575b611dc15760ff16600111611db1579086949392918a5193898501958652168a8401526060830152608082015260808152611cf9816113ea565b51902003611da657611d0a876115b9565b96611d178651988961141b565b8088528388019060051b82019136831161101757879695949392915b828210611d94575050509582955b611d50575b5050505050501490565b8051861015611d8f578596611d668697836115d0565b519081811015611d815784528252848484205b970195611d41565b908452825284848420611d79565b611d46565b81358152889750908401908401611d33565b505050935050505090565b5050505050505050935050505090565b505050505050505050935050505090565b50428410611cc0565b50505050505050505050935050505090565b9050421138611c9e565b50505050505050935050505090565b91969397959794929460018060a01b03809616906000958287526020956002875260409860ff8a8a205416611db157888852898920828a5288528989209a8b549d8e15611ddb576001600160401b0390816001809f0154168015159081611f88575b50611f7557898c5260018b5260ff8d8d205416611f7557169384151580611f6c575b611ddb5760ff809116911611611db1579086949392918a5193898501958652168a8401526060830152608082015260808152611ec5816113ea565b51902003611da657611ed6876115b9565b96611ee38651988961141b565b8088528388019060051b82019136831161101757879695949392915b828210611f5a575050509582955b611f1b575050505050501490565b8051861015611d8f578596611f318697836115d0565b519081811015611f4c5784528252848484205b970195611f0d565b908452825284848420611f44565b81358152889750908401908401611eff565b50428510611e8a565b5050505050505050505050935050505090565b9050421138611e68565b80548210156115e45760005260206000200190600090565b906001820190600092818452826020526040842054908115156000146120aa57600019918083018181116120965782549084820191821161208257818103612036575b50505080548015612022578201916120058383611f92565b909182549160031b1b191690555582526020526040812055600190565b634e487b7160e01b86526031600452602486fd5b61206d6120466120569386611f92565b90549060031b1c92839286611f92565b819391549060031b91821b91600019901b19161790565b90558652846020526040862055388080611fed565b634e487b7160e01b88526011600452602488fd5b634e487b7160e01b87526011600452602487fd5b5050505090565b9190600183016000908282528060205260408220541560001461211e578454946801000000000000000086101561210a57836120fa612056886001604098999a01855584611f92565b9055549382526020522055600190565b634e487b7160e01b83526041600452602483fd5b50925050565b60ff7ff0c57e16840df040f15088dc2f81fe391c3923bec73e23a9662efc9c229c6a005460401c161561215357565b604051631afcd79f60e31b8152600490fd5b9061218c575080511561217a57805190602001fd5b60405163d6bda27560e01b8152600490fd5b815115806121bf575b61219d575090565b604051639996b31560e01b81526001600160a01b039091166004820152602490fd5b50803b1561219556fe74f28e511945f0c7e6b920293543cc0af92b61e5354edca36cce70da5d12e05402dd7bc7dec4dceedda775e58dd541e08a116c6c53815c0bd028192f7b626800cd5ed15c6e187e77e9aee88184c21f4f2182ab5827cb3b7e07fbedcd63f03300a26469706673582212209fa9b742e9d0348df6ff5a46b21f8d962f5fc3f2b3761a2ae9f98b5ddeb3b2e764736f6c63430008180033",
  "linkReferences": {},
  "deployedLinkReferences": {}
}