{
  "_format": "hh-sol-artifact-1",
  "contractName": "MockV2_SessionManager",
  "sourceName": "src/mocks/MockV2.sol",
  "abi": [
    {
      "inputs": [
        {
          "internalType": "address",
          "name": "target",
          "type": "address"
        }
      ],
      "name": "AddressEmptyCode",
      "type": "error"
    },
    {
      "inputs": [],
      "name": "DailySpendLimitExceeded",
      "type": "error"
    },
    {
      "inputs": [],
      "name": "DailyTxLimitExceeded",
      "type": "error"
    },
    {
      "inputs": [],
      "name": "ECDSAInvalidSignature",
      "type": "error"
    },
    {
      "inputs": [
        {
          "internalType": "uint256",
          "name": "length",
          "type": "uint256"
        }
      ],
      "name": "ECDSAInvalidSignatureLength",
      "type": "error"
    },
    {
      "inputs": [
        {
          "internalType": "bytes32",
          "name": "s",
          "type": "bytes32"
        }
      ],
      "name": "ECDSAInvalidSignatureS",
      "type": "error"
    },
    {
      "inputs": [
        {
          "internalType": "address",
          "name": "implementation",
          "type": "address"
        }
      ],
      "name": "ERC1967InvalidImplementation",
      "type": "error"
    },
    {
      "inputs": [],
      "name": "ERC1967NonPayable",
      "type": "error"
    },
    {
      "inputs": [],
      "name": "EnforcedPause",
      "type": "error"
    },
    {
      "inputs": [],
      "name": "ExpectedPause",
      "type": "error"
    },
    {
      "inputs": [],
      "name": "ExpiryMismatch",
      "type": "error"
    },
    {
      "inputs": [],
      "name": "FailedCall",
      "type": "error"
    },
    {
      "inputs": [],
      "name": "InvalidExpiry",
      "type": "error"
    },
    {
      "inputs": [],
      "name": "InvalidInitialization",
      "type": "error"
    },
    {
      "inputs": [],
      "name": "InvalidNullifier",
      "type": "error"
    },
    {
      "inputs": [],
      "name": "InvalidProof",
      "type": "error"
    },
    {
      "inputs": [],
      "name": "InvalidSessionKey",
      "type": "error"
    },
    {
      "inputs": [],
      "name": "InvalidSessionManager",
      "type": "error"
    },
    {
      "inputs": [],
      "name": "InvalidSigner",
      "type": "error"
    },
    {
      "inputs": [],
      "name": "LimitExceeded",
      "type": "error"
    },
    {
      "inputs": [],
      "name": "MaxValueMismatch",
      "type": "error"
    },
    {
      "inputs": [],
      "name": "NotAgentWallet",
      "type": "error"
    },
    {
      "inputs": [],
      "name": "NotAuthorizedToRevoke",
      "type": "error"
    },
    {
      "inputs": [],
      "name": "NotBoundWallet",
      "type": "error"
    },
    {
      "inputs": [],
      "name": "NotInitializing",
      "type": "error"
    },
    {
      "inputs": [],
      "name": "NotWalletOwner",
      "type": "error"
    },
    {
      "inputs": [],
      "name": "NullifierAlreadyUsed",
      "type": "error"
    },
    {
      "inputs": [
        {
          "internalType": "address",
          "name": "owner",
          "type": "address"
        }
      ],
      "name": "OwnableInvalidOwner",
      "type": "error"
    },
    {
      "inputs": [
        {
          "internalType": "address",
          "name": "account",
          "type": "address"
        }
      ],
      "name": "OwnableUnauthorizedAccount",
      "type": "error"
    },
    {
      "inputs": [],
      "name": "ReentrancyGuardReentrantCall",
      "type": "error"
    },
    {
      "inputs": [],
      "name": "RevokedRootMismatch",
      "type": "error"
    },
    {
      "inputs": [],
      "name": "RootMismatch",
      "type": "error"
    },
    {
      "inputs": [],
      "name": "SessionAlreadyExists",
      "type": "error"
    },
    {
      "inputs": [],
      "name": "SessionAlreadyRevoked",
      "type": "error"
    },
    {
      "inputs": [],
      "name": "SessionExpired",
      "type": "error"
    },
    {
      "inputs": [],
      "name": "SessionIsRevoked",
      "type": "error"
    },
    {
      "inputs": [],
      "name": "SessionNotFound",
      "type": "error"
    },
    {
      "inputs": [],
      "name": "TooManySessions",
      "type": "error"
    },
    {
      "inputs": [],
      "name": "UUPSUnauthorizedCallContext",
      "type": "error"
    },
    {
      "inputs": [
        {
          "internalType": "bytes32",
          "name": "slot",
          "type": "bytes32"
        }
      ],
      "name": "UUPSUnsupportedProxiableUUID",
      "type": "error"
    },
    {
      "inputs": [],
      "name": "UnsupportedCredentialVersion",
      "type": "error"
    },
    {
      "inputs": [],
      "name": "WalletFactoryTimelockActive",
      "type": "error"
    },
    {
      "inputs": [],
      "name": "WalletFactoryTimelockNotReady",
      "type": "error"
    },
    {
      "anonymous": false,
      "inputs": [
        {
          "indexed": true,
          "internalType": "bytes32",
          "name": "sessionId",
          "type": "bytes32"
        },
        {
          "indexed": false,
          "internalType": "uint64",
          "name": "newDay",
          "type": "uint64"
        }
      ],
      "name": "DailyLimitsReset",
      "type": "event"
    },
    {
      "anonymous": false,
      "inputs": [
        {
          "indexed": false,
          "internalType": "uint64",
          "name": "version",
          "type": "uint64"
        }
      ],
      "name": "Initialized",
      "type": "event"
    },
    {
      "anonymous": false,
      "inputs": [
        {
          "indexed": true,
          "internalType": "bytes32",
          "name": "sessionId",
          "type": "bytes32"
        },
        {
          "indexed": true,
          "internalType": "address",
          "name": "wallet",
          "type": "address"
        },
        {
          "indexed": true,
          "internalType": "address",
          "name": "sessionKey",
          "type": "address"
        },
        {
          "indexed": false,
          "internalType": "uint256",
          "name": "dailySpendLimit",
          "type": "uint256"
        },
        {
          "indexed": false,
          "internalType": "uint256",
          "name": "dailyTxLimit",
          "type": "uint256"
        },
        {
          "indexed": false,
          "internalType": "uint64",
          "name": "expiry",
          "type": "uint64"
        }
      ],
      "name": "LightSessionCreated",
      "type": "event"
    },
    {
      "anonymous": false,
      "inputs": [
        {
          "indexed": true,
          "internalType": "bytes32",
          "name": "sessionId",
          "type": "bytes32"
        }
      ],
      "name": "LightSessionRevoked",
      "type": "event"
    },
    {
      "anonymous": false,
      "inputs": [
        {
          "indexed": true,
          "internalType": "bytes32",
          "name": "sessionId",
          "type": "bytes32"
        },
        {
          "indexed": false,
          "internalType": "uint256",
          "name": "value",
          "type": "uint256"
        },
        {
          "indexed": false,
          "internalType": "uint256",
          "name": "newDailySpend",
          "type": "uint256"
        }
      ],
      "name": "LightSessionUsed",
      "type": "event"
    },
    {
      "anonymous": false,
      "inputs": [
        {
          "indexed": true,
          "internalType": "address",
          "name": "previousOwner",
          "type": "address"
        },
        {
          "indexed": true,
          "internalType": "address",
          "name": "newOwner",
          "type": "address"
        }
      ],
      "name": "OwnershipTransferred",
      "type": "event"
    },
    {
      "anonymous": false,
      "inputs": [
        {
          "indexed": false,
          "internalType": "address",
          "name": "account",
          "type": "address"
        }
      ],
      "name": "Paused",
      "type": "event"
    },
    {
      "anonymous": false,
      "inputs": [
        {
          "indexed": true,
          "internalType": "bytes32",
          "name": "sessionId",
          "type": "bytes32"
        },
        {
          "indexed": true,
          "internalType": "address",
          "name": "wallet",
          "type": "address"
        },
        {
          "indexed": true,
          "internalType": "address",
          "name": "sessionKey",
          "type": "address"
        },
        {
          "indexed": false,
          "internalType": "uint64",
          "name": "expiry",
          "type": "uint64"
        },
        {
          "indexed": false,
          "internalType": "uint128",
          "name": "maxValue",
          "type": "uint128"
        },
        {
          "indexed": false,
          "internalType": "bytes32",
          "name": "nullifier",
          "type": "bytes32"
        }
      ],
      "name": "SessionCreated",
      "type": "event"
    },
    {
      "anonymous": false,
      "inputs": [
        {
          "indexed": true,
          "internalType": "bytes32",
          "name": "sessionId",
          "type": "bytes32"
        }
      ],
      "name": "SessionRevoked",
      "type": "event"
    },
    {
      "anonymous": false,
      "inputs": [
        {
          "indexed": true,
          "internalType": "bytes32",
          "name": "sessionId",
          "type": "bytes32"
        },
        {
          "indexed": false,
          "internalType": "uint256",
          "name": "value",
          "type": "uint256"
        },
        {
          "indexed": false,
          "internalType": "uint256",
          "name": "totalUsed",
          "type": "uint256"
        }
      ],
      "name": "SessionUsed",
      "type": "event"
    },
    {
      "anonymous": false,
      "inputs": [
        {
          "indexed": false,
          "internalType": "address",
          "name": "account",
          "type": "address"
        }
      ],
      "name": "Unpaused",
      "type": "event"
    },
    {
      "anonymous": false,
      "inputs": [
        {
          "indexed": true,
          "internalType": "address",
          "name": "implementation",
          "type": "address"
        }
      ],
      "name": "Upgraded",
      "type": "event"
    },
    {
      "inputs": [],
      "name": "MAX_SESSIONS_PER_WALLET",
      "outputs": [
        {
          "internalType": "uint256",
          "name": "",
          "type": "uint256"
        }
      ],
      "stateMutability": "view",
      "type": "function"
    },
    {
      "inputs": [],
      "name": "SUPPORTED_CREDENTIAL_VERSION",
      "outputs": [
        {
          "internalType": "uint256",
          "name": "",
          "type": "uint256"
        }
      ],
      "stateMutability": "view",
      "type": "function"
    },
    {
      "inputs": [],
      "name": "TIMELOCK_DELAY",
      "outputs": [
        {
          "internalType": "uint256",
          "name": "",
          "type": "uint256"
        }
      ],
      "stateMutability": "view",
      "type": "function"
    },
    {
      "inputs": [],
      "name": "UPGRADE_INTERFACE_VERSION",
      "outputs": [
        {
          "internalType": "string",
          "name": "",
          "type": "string"
        }
      ],
      "stateMutability": "view",
      "type": "function"
    },
    {
      "inputs": [],
      "name": "VERSION",
      "outputs": [
        {
          "internalType": "uint256",
          "name": "",
          "type": "uint256"
        }
      ],
      "stateMutability": "view",
      "type": "function"
    },
    {
      "inputs": [],
      "name": "acceptWalletFactory",
      "outputs": [],
      "stateMutability": "nonpayable",
      "type": "function"
    },
    {
      "inputs": [
        {
          "internalType": "bytes32",
          "name": "sessionId",
          "type": "bytes32"
        },
        {
          "internalType": "address",
          "name": "sessionKey",
          "type": "address"
        },
        {
          "internalType": "uint256",
          "name": "dailySpendLimit",
          "type": "uint256"
        },
        {
          "internalType": "uint256",
          "name": "dailyTxLimit",
          "type": "uint256"
        },
        {
          "internalType": "uint64",
          "name": "expiry",
          "type": "uint64"
        },
        {
          "internalType": "bytes",
          "name": "ownerSignature",
          "type": "bytes"
        }
      ],
      "name": "createLightweightSession",
      "outputs": [],
      "stateMutability": "nonpayable",
      "type": "function"
    },
    {
      "inputs": [
        {
          "internalType": "bytes32",
          "name": "sessionId",
          "type": "bytes32"
        },
        {
          "internalType": "address",
          "name": "wallet",
          "type": "address"
        },
        {
          "internalType": "address",
          "name": "sessionKey",
          "type": "address"
        },
        {
          "internalType": "uint128",
          "name": "maxValue",
          "type": "uint128"
        },
        {
          "internalType": "uint64",
          "name": "expiry",
          "type": "uint64"
        },
        {
          "internalType": "uint256[2]",
          "name": "a",
          "type": "uint256[2]"
        },
        {
          "internalType": "uint256[2][2]",
          "name": "b",
          "type": "uint256[2][2]"
        },
        {
          "internalType": "uint256[2]",
          "name": "c",
          "type": "uint256[2]"
        },
        {
          "internalType": "uint256[7]",
          "name": "publicSignals",
          "type": "uint256[7]"
        }
      ],
      "name": "createSession",
      "outputs": [],
      "stateMutability": "nonpayable",
      "type": "function"
    },
    {
      "inputs": [
        {
          "internalType": "bytes32",
          "name": "sessionId",
          "type": "bytes32"
        }
      ],
      "name": "getLightSession",
      "outputs": [
        {
          "internalType": "address",
          "name": "sessionWallet",
          "type": "address"
        },
        {
          "internalType": "address",
          "name": "sessionKey",
          "type": "address"
        },
        {
          "internalType": "uint256",
          "name": "dailySpendLimit",
          "type": "uint256"
        },
        {
          "internalType": "uint256",
          "name": "dailyTxLimit",
          "type": "uint256"
        },
        {
          "internalType": "uint256",
          "name": "dailySpendUsed",
          "type": "uint256"
        },
        {
          "internalType": "uint256",
          "name": "dailyTxUsed",
          "type": "uint256"
        },
        {
          "internalType": "uint64",
          "name": "expiry",
          "type": "uint64"
        },
        {
          "internalType": "bool",
          "name": "revoked",
          "type": "bool"
        }
      ],
      "stateMutability": "view",
      "type": "function"
    },
    {
      "inputs": [
        {
          "internalType": "bytes32",
          "name": "sessionId",
          "type": "bytes32"
        }
      ],
      "name": "getSessionType",
      "outputs": [
        {
          "internalType": "uint8",
          "name": "",
          "type": "uint8"
        }
      ],
      "stateMutability": "view",
      "type": "function"
    },
    {
      "inputs": [
        {
          "internalType": "address",
          "name": "wallet",
          "type": "address"
        }
      ],
      "name": "getWalletSessions",
      "outputs": [
        {
          "internalType": "bytes32[]",
          "name": "",
          "type": "bytes32[]"
        }
      ],
      "stateMutability": "view",
      "type": "function"
    },
    {
      "inputs": [
        {
          "internalType": "address",
          "name": "verifier_",
          "type": "address"
        },
        {
          "internalType": "address",
          "name": "registry_",
          "type": "address"
        },
        {
          "internalType": "address",
          "name": "walletFactory_",
          "type": "address"
        }
      ],
      "name": "initialize",
      "outputs": [],
      "stateMutability": "nonpayable",
      "type": "function"
    },
    {
      "inputs": [
        {
          "internalType": "bytes32",
          "name": "",
          "type": "bytes32"
        }
      ],
      "name": "lightSessions",
      "outputs": [
        {
          "internalType": "address",
          "name": "wallet",
          "type": "address"
        },
        {
          "internalType": "address",
          "name": "sessionKey",
          "type": "address"
        },
        {
          "internalType": "uint256",
          "name": "dailySpendLimit",
          "type": "uint256"
        },
        {
          "internalType": "uint256",
          "name": "dailyTxLimit",
          "type": "uint256"
        },
        {
          "internalType": "uint256",
          "name": "dailySpendUsed",
          "type": "uint256"
        },
        {
          "internalType": "uint256",
          "name": "dailyTxUsed",
          "type": "uint256"
        },
        {
          "internalType": "uint64",
          "name": "lastResetDay",
          "type": "uint64"
        },
        {
          "internalType": "uint64",
          "name": "expiry",
          "type": "uint64"
        },
        {
          "internalType": "bool",
          "name": "revoked",
          "type": "bool"
        }
      ],
      "stateMutability": "view",
      "type": "function"
    },
    {
      "inputs": [],
      "name": "owner",
      "outputs": [
        {
          "internalType": "address",
          "name": "",
          "type": "address"
        }
      ],
      "stateMutability": "view",
      "type": "function"
    },
    {
      "inputs": [],
      "name": "pause",
      "outputs": [],
      "stateMutability": "nonpayable",
      "type": "function"
    },
    {
      "inputs": [],
      "name": "paused",
      "outputs": [
        {
          "internalType": "bool",
          "name": "",
          "type": "bool"
        }
      ],
      "stateMutability": "view",
      "type": "function"
    },
    {
      "inputs": [],
      "name": "pendingWalletFactory",
      "outputs": [
        {
          "internalType": "address",
          "name": "",
          "type": "address"
        }
      ],
      "stateMutability": "view",
      "type": "function"
    },
    {
      "inputs": [
        {
          "internalType": "address",
          "name": "walletFactory_",
          "type": "address"
        }
      ],
      "name": "proposeWalletFactory",
      "outputs": [],
      "stateMutability": "nonpayable",
      "type": "function"
    },
    {
      "inputs": [],
      "name": "proxiableUUID",
      "outputs": [
        {
          "internalType": "bytes32",
          "name": "",
          "type": "bytes32"
        }
      ],
      "stateMutability": "view",
      "type": "function"
    },
    {
      "inputs": [
        {
          "internalType": "address",
          "name": "wallet",
          "type": "address"
        },
        {
          "internalType": "uint256",
          "name": "limit",
          "type": "uint256"
        }
      ],
      "name": "pruneExpiredSessions",
      "outputs": [],
      "stateMutability": "nonpayable",
      "type": "function"
    },
    {
      "inputs": [],
      "name": "registry",
      "outputs": [
        {
          "internalType": "contract ICredentialRegistry",
          "name": "",
          "type": "address"
        }
      ],
      "stateMutability": "view",
      "type": "function"
    },
    {
      "inputs": [],
      "name": "renounceOwnership",
      "outputs": [],
      "stateMutability": "nonpayable",
      "type": "function"
    },
    {
      "inputs": [
        {
          "internalType": "bytes32",
          "name": "sessionId",
          "type": "bytes32"
        },
        {
          "internalType": "address",
          "name": "wallet",
          "type": "address"
        }
      ],
      "name": "revokeLightweightSession",
      "outputs": [],
      "stateMutability": "nonpayable",
      "type": "function"
    },
    {
      "inputs": [
        {
          "internalType": "bytes32",
          "name": "sessionId",
          "type": "bytes32"
        },
        {
          "internalType": "address",
          "name": "wallet",
          "type": "address"
        }
      ],
      "name": "revokeSession",
      "outputs": [],
      "stateMutability": "nonpayable",
      "type": "function"
    },
    {
      "inputs": [
        {
          "internalType": "bytes32",
          "name": "",
          "type": "bytes32"
        }
      ],
      "name": "sessions",
      "outputs": [
        {
          "internalType": "address",
          "name": "wallet",
          "type": "address"
        },
        {
          "internalType": "address",
          "name": "sessionKey",
          "type": "address"
        },
        {
          "internalType": "uint256",
          "name": "valueUsed",
          "type": "uint256"
        },
        {
          "internalType": "uint256",
          "name": "maxValue",
          "type": "uint256"
        },
        {
          "internalType": "uint64",
          "name": "expiry",
          "type": "uint64"
        },
        {
          "internalType": "bool",
          "name": "revoked",
          "type": "bool"
        }
      ],
      "stateMutability": "view",
      "type": "function"
    },
    {
      "inputs": [
        {
          "internalType": "address",
          "name": "newOwner",
          "type": "address"
        }
      ],
      "name": "transferOwnership",
      "outputs": [],
      "stateMutability": "nonpayable",
      "type": "function"
    },
    {
      "inputs": [],
      "name": "unpause",
      "outputs": [],
      "stateMutability": "nonpayable",
      "type": "function"
    },
    {
      "inputs": [
        {
          "internalType": "address",
          "name": "newImplementation",
          "type": "address"
        },
        {
          "internalType": "bytes",
          "name": "data",
          "type": "bytes"
        }
      ],
      "name": "upgradeToAndCall",
      "outputs": [],
      "stateMutability": "payable",
      "type": "function"
    },
    {
      "inputs": [
        {
          "internalType": "bytes32",
          "name": "sessionId",
          "type": "bytes32"
        },
        {
          "internalType": "address",
          "name": "signer",
          "type": "address"
        },
        {
          "internalType": "uint256",
          "name": "value",
          "type": "uint256"
        }
      ],
      "name": "validateLightweightSession",
      "outputs": [
        {
          "internalType": "bool",
          "name": "",
          "type": "bool"
        }
      ],
      "stateMutability": "nonpayable",
      "type": "function"
    },
    {
      "inputs": [
        {
          "internalType": "bytes32",
          "name": "sessionId",
          "type": "bytes32"
        },
        {
          "internalType": "address",
          "name": "signer",
          "type": "address"
        },
        {
          "internalType": "uint256",
          "name": "value",
          "type": "uint256"
        }
      ],
      "name": "validateSession",
      "outputs": [
        {
          "internalType": "bool",
          "name": "",
          "type": "bool"
        }
      ],
      "stateMutability": "nonpayable",
      "type": "function"
    },
    {
      "inputs": [],
      "name": "verifier",
      "outputs": [
        {
          "internalType": "contract IVerifier",
          "name": "",
          "type": "address"
        }
      ],
      "stateMutability": "view",
      "type": "function"
    },
    {
      "inputs": [],
      "name": "walletFactory",
      "outputs": [
        {
          "internalType": "contract IAgentWalletFactory",
          "name": "",
          "type": "address"
        }
      ],
      "stateMutability": "view",
      "type": "function"
    },
    {
      "inputs": [],
      "name": "walletFactoryActivationTime",
      "outputs": [
        {
          "internalType": "uint256",
          "name": "",
          "type": "uint256"
        }
      ],
      "stateMutability": "view",
      "type": "function"
    },
    {
      "inputs": [
        {
          "internalType": "address",
          "name": "",
          "type": "address"
        },
        {
          "internalType": "uint256",
          "name": "",
          "type": "uint256"
        }
      ],
      "name": "walletSessions",
      "outputs": [
        {
          "internalType": "bytes32",
          "name": "",
          "type": "bytes32"
        }
      ],
      "stateMutability": "view",
      "type": "function"
    }
  ],
  "bytecode": "0x60a080604052346100d1576001600055306080527ff0c57e16840df040f15088dc2f81fe391c3923bec73e23a9662efc9c229c6a009081549060ff8260401c166100c257506001600160401b036002600160401b03198282160161007d575b60405161255c90816100d78239608051818181610f5801526110110152f35b6001600160401b031990911681179091556040519081527fc7f505b2f371ae2175ee4913f4499e1f2633a7b5936321eed1cdaeb6115181d290602090a138808061005e565b63f92ee8a960e01b8152600490fd5b600080fdfe6080604052600436101561001257600080fd5b6000803560e01c8063015bd12914611fa05780630ec163f314611b52578063186a275714611aa45780631b1709671461149a5780631efb10f6146114435780632a2d93801461132f5780632b7ac3f314611306578063356f644d146112745780633f4ba83a146111fc5780634f1ef28614610fc257806352d1902d14610f4557806354892a7514610ecb5780635ba1c1a914610ead5780635c975abb14610e7d578063715018a614610e125780637a44bb1c14610df45780637b10399914610dcb5780637dbd283214610d52578063841b45f214610d365780638456cb5914610cce5780638da5cb5b14610c985780638eb691b114610bfc57806399d29df914610aaf578063ad3cb1cc14610a0a578063c0c53b8b14610887578063c5c036991461085e578063c7cdfc0114610834578063d441bb83146105d4578063d6b3383c146105ab578063dae2dd251461058f578063dc35e7d414610452578063f2fde38b14610425578063f545b88b146101b15763ffa1ad741461019357600080fd5b346101ae57806003193601126101ae57602060405160028152f35b80fd5b50346101ae576101c036612120565b60065460405163bd5dee7760e01b8152336004820152602095936001600160a01b03939290919087908290602490829088165afa90811561041a5785916103ed575b50156103dc576102106122c6565b8484526002865260408420923381855416036103ca578060018501541680156103b857600685019081549260ff8460801c166103a6576001600160401b0394858560401c164211610394571603610382578288918894620151804204168092851610610335575b5050505050600482019261028c82855461214a565b9060028401548211610320576005840190815494600186019182871161030c575060030154106102fa576102e5604094837f6710bf7c8828bf28bdddb7b45da3a29d2eca474d615fe28b47075ce7bf67e3c3975561220a565b9055825191825285820152a260405160018152f35b6040516334304bd960e11b8152600490fd5b634e487b7160e01b81526011600452602490fd5b60405160016229a0d960e11b03198152600490fd5b817ff27cff30b6684ae4bbc9913e70785baafa758cdfef27e76c9773a8cd5cbf9acc948960048a01558960058a01556001600160401b031916179055604051908152a28338868180610277565b604051632057875960e21b8152600490fd5b604051630fe82d2560e11b8152600490fd5b6040516329269c5d60e11b8152600490fd5b6040516396c95f8160e01b8152600490fd5b604051630ac83de760e41b8152600490fd5b6040516249a9c760e91b8152600490fd5b61040d9150873d8911610413575b61040581836120ad565b81019061216d565b38610202565b503d6103fb565b6040513d87823e3d90fd5b50346101ae5760203660031901126101ae5761044f610442612027565b61044a61228d565b612219565b80f35b50346101ae5761046136612120565b9060018060a01b0390816006541694604051809663bd5dee7760e01b82523360048301528160246020998a935afa908115610584578291610567575b50156103dc576040906104ae6122c6565b8581526001875220913381845416036103ca57600483015460ff8160401c166103a6576001600160401b031642116103945780600184015416911603610382576002810191600361050082855461214a565b9201548211610555576001600160801b0391828111610555577f8f681f2a4f6cd078b7e4cab4ae8112ef10d6b50b1511bf4915c069cf5d3b835e9360409382169055825191825285820152a260405160018152f35b604051631930e3c960e11b8152600490fd5b61057e9150873d89116104135761040581836120ad565b3861049d565b6040513d84823e3d90fd5b50346101ae57806003193601126101ae57602060405160018152f35b50346101ae57806003193601126101ae576007546040516001600160a01b039091168152602090f35b50346101ae5760403660031901126101ae576105ee612027565b60065460405163bd5dee7760e01b815233600482015290602090829060249082906001600160a01b03165afa90811561082957839161080a575b50156103dc576001600160a01b03163381036103ca57815260036020526040812081815492600019938481019081136001166106c3575b82811215806107ff575b156107fb57610678818561207f565b90549060031b1c8390845260016020526040842060018060a01b036001820154166107cd575b508015806107af575b610775575b6106d7575b600160ff1b81146106c357840161065f565b634e487b7160e01b83526011600452602483fd5b908354858101908111610761576106f161071b918661207f565b90549060031b1c610702848761207f565b90919082549060031b91821b91600019901b1916179055565b8354801561074d5790856107479201610734818761207f565b8882549160031b1b19169055855561220a565b906106b1565b634e487b7160e01b84526031600452602484fd5b634e487b7160e01b84526011600452602484fd5b5060026020526006604084200154426001600160401b038260401c1611908115916107a1575b506106ac565b60ff915060801c163861079b565b50600260205260408420600101546001600160a01b031615156106a7565b60040154426001600160401b03821611801592506107ed575b503861069e565b60ff915060401c16386107e6565b8280f35b506024358210610669565b610823915060203d6020116104135761040581836120ad565b38610628565b6040513d85823e3d90fd5b50346101ae5760203660031901126101ae5760206108536004356121c9565b60ff60405191168152f35b50346101ae57806003193601126101ae576006546040516001600160a01b039091168152602090f35b50346101ae5760603660031901126101ae576108a1612027565b6108a961203d565b906108b2612053565b907ff0c57e16840df040f15088dc2f81fe391c3923bec73e23a9662efc9c229c6a009283549260ff8460401c1615936001600160401b03811680159081610a02575b60011490816109f8575b1590816109ef575b506109dd5767ffffffffffffffff1981166001178655846109be575b5061092b6123b2565b6109336123b2565b61093c33612219565b6109446123b2565b60018060a01b038092816001600160601b0360a01b95168560045416176004551683600554161760055516906006541617600655610980575080f35b68ff00000000000000001981541690557fc7f505b2f371ae2175ee4913f4499e1f2633a7b5936321eed1cdaeb6115181d2602060405160018152a180f35b68ffffffffffffffffff19166801000000000000000117855538610922565b60405163f92ee8a960e01b8152600490fd5b90501538610906565b303b1591506108fe565b8691506108f4565b50346101ae57806003193601126101ae57604051604081018181106001600160401b03821117610a995760405260058152602091640352e302e360dc1b602083015260405192839160208352835191826020850152815b838110610a8257505060408094508284010152601f80199101168101030190f35b808601820151878201604001528694508101610a61565b634e487b7160e01b600052604160045260246000fd5b50346101ae5760403660031901126101ae57600435610acc61203d565b610ad46122c6565b81835260026020526040832060018101546001600160a01b039081169182156103b8576006019283549260ff8460801c16610bea573314159182610b61575b5050610b4f5760ff60801b1916600160801b1790557f75603cfad1b4b830ba27b5f2a2867fc0ecde28d51b13b72816b1707b7cd4e9498280a280f35b604051632d2a14a760e21b8152600490fd5b813b159250908215610b77575b50503880610b13565b604051638da5cb5b60e01b815292506020908390600490829085165afa918215610bdf578692610bae575b50163314153880610b6e565b610bd191925060203d602011610bd8575b610bc981836120ad565b810190612185565b9038610ba2565b503d610bbf565b6040513d88823e3d90fd5b604051630b3e2fbf60e01b8152600490fd5b50346101ae5760203660031901126101ae57604061012091600435815260026020522060ff60018060a01b03918281541692600182015416600282015491600381015460048201549060066005840154930154946001600160401b0394604051988952602089015260408801526060870152608086015260a085015280821660c08501528160401c1660e084015260801c161515610100820152f35b50346101ae57806003193601126101ae576000805160206124e7833981519152546040516001600160a01b039091168152602090f35b50346101ae57806003193601126101ae57610ce761228d565b610cef6122c6565b600080516020612507833981519152600160ff198254161790557f62e78cea01bee320cd4e420270b5ea74000d11b0c9f74754ebdbfc544b05a2586020604051338152a180f35b50346101ae57806003193601126101ae57602060405160648152f35b50346101ae5760203660031901126101ae57604060c091600435815260016020522060ff60018060a01b0391828154169260018201541690600281015460046003830154920154926040519586526020860152604085015260608401526001600160401b038116608084015260401c16151560a0820152f35b50346101ae57806003193601126101ae576005546040516001600160a01b039091168152602090f35b50346101ae57806003193601126101ae576020600854604051908152f35b50346101ae57806003193601126101ae57610e2b61228d565b6000805160206124e783398151915280546001600160a01b031981169091556000906001600160a01b03167f8be0079c531659141344cd1fd0a4f28419497f9722a3daafe3b4186f6b6457e08280a380f35b50346101ae57806003193601126101ae57602060ff60008051602061250783398151915254166040519015158152f35b50346101ae57806003193601126101ae576020604051620151808152f35b50346101ae57806003193601126101ae57610ee461228d565b6007546001600160a01b038116908115610f33576008544210610f21576001600160601b0360a01b91826006541617600655166007558060085580f35b6040516331db077960e11b8152600490fd5b604051633144a04160e21b8152600490fd5b50346101ae57806003193601126101ae577f00000000000000000000000000000000000000000000000000000000000000006001600160a01b03163003610fb05760206040517f360894a13ba1a3210667c828492db98dca3e2076cc3735a920a3ca505d382bbc8152f35b60405163703e46dd60e11b8152600490fd5b5060403660031901126101ae57610fd7612027565b6024356001600160401b0381116111f857366023820112156111f8576110079036906024816004013591016120e9565b6001600160a01b037f000000000000000000000000000000000000000000000000000000000000000081163081149081156111ca575b50610fb05761104a61228d565b6040516352d1902d60e01b8152908316926020918281600481885afa869181611196575b5061108c57604051634c9c8ce360e01b815260048101869052602490fd5b9385947f360894a13ba1a3210667c828492db98dca3e2076cc3735a920a3ca505d382bbc9081810361117e5750823b156111655780546001600160a01b0319168217905560405185917fbc7cd75a20ee27fd9adebab32041f755214dbc6bffa90cc0225b39da2e5c2d3b8380a2845115611148575080848461113b96519101845af4903d1561113f573d61111f816120ce565b9061112d60405192836120ad565b81528581943d92013e612483565b5080f35b60609250612483565b935050505034611156575080f35b63b398979f60e01b8152600490fd5b604051634c9c8ce360e01b815260048101839052602490fd5b60249060405190632a87526960e21b82526004820152fd5b9091508381813d83116111c3575b6111ae81836120ad565b810103126111be5751903861106e565b600080fd5b503d6111a4565b9050817f360894a13ba1a3210667c828492db98dca3e2076cc3735a920a3ca505d382bbc541614153861103d565b8280fd5b50346101ae57806003193601126101ae5761121561228d565b600080516020612507833981519152805460ff8116156112625760ff191690557f5db9ee0a495bf2e6ff9c91a7834c1ba4fdd244a5e8aa4e537bd38aeae4b073aa6020604051338152a180f35b604051638dfc202b60e01b8152600490fd5b50346101ae5760203660031901126101ae57604061010091600435815260026020522060ff60018060a01b0391828154169260018201541690600281015460038201546004830154916006600585015494015494604051978852602088015260408701526060860152608085015260a08401526001600160401b038160401c1660c084015260801c16151560e0820152f35b50346101ae57806003193601126101ae576004546040516001600160a01b039091168152602090f35b50346101ae5760403660031901126101ae5760043561134c61203d565b6113546122c6565b8183526001602081905260408420908101546001600160a01b039081169182156103b8576004019283549260ff8460401c16610bea5733141591826113d5575b5050610b4f5768ff00000000000000001916600160401b1790557fcc0f7e7f309149dce2db74723f771f7d96cad368d91763e945dc3956c4dbfb048280a280f35b813b1592509082156113eb575b50503880611394565b604051638da5cb5b60e01b815292506020908390600490829085165afa918215610bdf578692611422575b501633141538806113e2565b61143c91925060203d602011610bd857610bc981836120ad565b9038611416565b50346101ae5760403660031901126101ae5761145d612027565b6001600160a01b03168152600360205260408120805460243592908310156101ae57602061148b848461207f565b90549060031b1c604051908152f35b50346101ae576102803660031901126101ae576114b561203d565b6114bd612053565b606435906001600160801b0382168203611aa0576114d9612069565b913660e411611a9c573661016411611a9c57366101a411611a9c573661028411611a9c576002855414611a8a57600285556115126122c6565b6001600160a01b03841633036103ca57833b156103dc5760065460405163bd5dee7760e01b81526001600160a01b038681166004830152909160209183916024918391165afa908115610bdf578691611a6b575b50156103dc576001600160a01b03821615611a59576001600160a01b0382811690851614611a5957426001600160401b0384161115611a48576004358552600160208190526040862001546001600160a01b0316611a36576004358552600260205260408520600101546001600160a01b0316611a36576001600160a01b03841685526003602052604085205460641115611a24576102643515611a125760055460405163abb2efdf60e01b81526001600160a01b0390911690602081600481855afa9081156119c35787916119e0575b506101a435036119ce57604051636b6debf760e01b8152602081600481855afa9081156119c357879161198d575b506101c4350361197b576101e4356001600160801b0383160361196957610204356001600160401b03851603611957576001600160a01b0385811661022435909116036103dc5760016102443503611945576020602491604051928380926308b71ed360e21b82526102643560048301525afa908115610bdf578691611926575b5061191457600480546040805163c894e75760e01b8152926001600160a01b039092169160a4908401378160e488604483015b600282106118fa575050506101e481602093604061016460c484013760e06101a46101048401375afa908115610bdf5786916118db575b50156118c957600435855260016020526004604086206001600160601b0360a01b60018060a01b03871681835416178255600182019060018060a01b038616908254161790556001600160801b0383166003820155866002820155016001600160401b03841668ffffffffffffffffff1982541617905560018060a01b038416855260036020526117e6600435604087206121a4565b60055485906001600160a01b0316803b156118c557819060246040518094819363057cb0f560e01b83526102643560048401525af18015610bdf5761188f575b506001600160801b03906001600160401b036040519416845216602083015261026435604083015260018060a01b03169160018060a01b0316907f4be957c3121493398af4aa5b636cc72629d5286771d6489d4244694dd10e597d606060043592a46001815580f35b6001600160401b0381969296116118b157604052936001600160801b03611826565b634e487b7160e01b82526041600452602482fd5b5080fd5b6040516309bde33960e01b8152600490fd5b6118f4915060203d6020116104135761040581836120ad565b38611750565b829350604081816001949581943701930191018492611719565b604051636569570160e11b8152600490fd5b61193f915060203d6020116104135761040581836120ad565b386116e6565b60405163ccfa3bb360e01b8152600490fd5b604051638a0fcebb60e01b8152600490fd5b6040516363f0adc160e01b8152600490fd5b604051632f075c2d60e21b8152600490fd5b90506020813d6020116119bb575b816119a8602093836120ad565b810103126119b7575138611665565b8680fd5b3d915061199b565b6040513d89823e3d90fd5b604051635ade045560e01b8152600490fd5b90506020813d602011611a0a575b816119fb602093836120ad565b810103126119b7575138611637565b3d91506119ee565b604051632ec8265960e11b8152600490fd5b604051630463d55b60e41b8152600490fd5b6040516323792a1160e11b8152600490fd5b60405162d36c8560e81b8152600490fd5b604051635f8874dd60e11b8152600490fd5b611a84915060203d6020116104135761040581836120ad565b38611566565b604051633ee5aeb560e01b8152600490fd5b8480fd5b8380fd5b50346101ae576020806003193601126118c5576001600160a01b03611ac7612027565b168252600381526040822060405192838383549182815201908193835284832090835b818110611b3e5750505084611b009103856120ad565b60405193838594850191818652518092526040850193925b828110611b2757505050500390f35b835185528695509381019392810192600101611b18565b825484529286019260019283019201611aea565b50346101ae5760c03660031901126101ae57611b6c61203d565b604435606435611b7a612069565b60a435936001600160401b038511611f9c5736602386011215611f9c578460040135906001600160401b0382116119b75736602483880101116119b757611bbf6122c6565b60065460405163bd5dee7760e01b815233600482015290602090829060249082906001600160a01b03165afa908115611f91578891611f72575b50156103dc576001600160a01b0316948515611a5957338614611a5957426001600160401b0384161115611a48576004358752600260205260408720600101546001600160a01b0316611a36576004358752600160208190526040882001546001600160a01b0316611a36576040516020810146815230604083015233606083015260043560808301528760a08301528660c08301528560e08301526001600160401b03851661010083015261010082526101208201908282106001600160401b03831117611f5e57610180908260405283519020926101408101937f19457468657265756d205369676e6564204d6573736167653a0a333200000000855261015c820152603c8352018181106001600160401b03821117611f5e57604052519020611d4092611d3792611d319136916024016120e9565b906122f1565b9092919261232d565b604051638da5cb5b60e01b815290602082600481335afa9182156119c3578792611f3d575b506001600160a01b03908116911603611f2b5760405161012081018181106001600160401b03821117611f17576040523381528460208201528360408201528260608201528560808201528560a08201526001600160401b036201518042041660c08201526001600160401b03821660e08201526101008101908682526004358752600260205260066040882060018060a01b038351166001600160601b0360a01b9081835416178255600182019060018060a01b036020860151169082541617905560408301516002820155606083015160038201556080830151600482015560a0830151600582015501916001600160401b0360c0830151166fffffffffffffffff000000000000000060e0855494015160401b169160ff60801b9051151560801b169270ffffffffffffffffffffffffffffffffff191617171790553385526003602052606460408620541015611a24576001600160401b03913386526003602052611ed9600435604088206121a4565b604051938452602084015216604082015233907fb00ed1b40c94a111be08514c42fd87e33f2474c6fe39f7d4f730f9bde0656ae7606060043592a480f35b634e487b7160e01b87526041600452602487fd5b604051633101cebf60e21b8152600490fd5b611f5791925060203d602011610bd857610bc981836120ad565b9038611d65565b634e487b7160e01b8a52604160045260248afd5b611f8b915060203d6020116104135761040581836120ad565b38611bf9565b6040513d8a823e3d90fd5b8580fd5b50346101ae5760203660031901126101ae57611fba612027565b611fc261228d565b6001600160a01b03908116908115610f3357600754908116612015576001600160601b0360a01b16176007556201518042018042116120015760085580f35b634e487b7160e01b82526011600452602482fd5b604051633b778a2d60e01b8152600490fd5b600435906001600160a01b03821682036111be57565b602435906001600160a01b03821682036111be57565b604435906001600160a01b03821682036111be57565b608435906001600160401b03821682036111be57565b80548210156120975760005260206000200190600090565b634e487b7160e01b600052603260045260246000fd5b90601f801991011681019081106001600160401b03821117610a9957604052565b6001600160401b038111610a9957601f01601f191660200190565b9291926120f5826120ce565b9161210360405193846120ad565b8294818452818301116111be578281602093846000960137010152565b60609060031901126111be57600435906024356001600160a01b03811681036111be579060443590565b9190820180921161215757565b634e487b7160e01b600052601160045260246000fd5b908160209103126111be575180151581036111be5790565b908160209103126111be57516001600160a01b03811681036111be5790565b90815491600160401b831015610a9957826107029160016121c79501815561207f565b565b600052600160205260018060a01b038060016040600020015416612204576002602052600160406000200154166121ff57600290565b600190565b50600090565b60001981146121575760010190565b6001600160a01b03908116908115612274576000805160206124e783398151915280546001600160a01b031981168417909155167f8be0079c531659141344cd1fd0a4f28419497f9722a3daafe3b4186f6b6457e0600080a3565b604051631e4fbdf760e01b815260006004820152602490fd5b6000805160206124e7833981519152546001600160a01b031633036122ae57565b60405163118cdaa760e01b8152336004820152602490fd5b60ff60008051602061250783398151915254166122df57565b60405163d93c066560e01b8152600490fd5b81519190604183036123225761231b92506020820151906060604084015193015160001a906123f3565b9192909190565b505060009160029190565b600481101561239c578061233f575050565b600181036123595760405163f645eedf60e01b8152600490fd5b6002810361237a5760405163fce698f760e01b815260048101839052602490fd5b6003146123845750565b602490604051906335e2f38360e21b82526004820152fd5b634e487b7160e01b600052602160045260246000fd5b60ff7ff0c57e16840df040f15088dc2f81fe391c3923bec73e23a9662efc9c229c6a005460401c16156123e157565b604051631afcd79f60e31b8152600490fd5b91907f7fffffffffffffffffffffffffffffff5d576e7357a4501ddfe92f46681b20a0841161247757926020929160ff608095604051948552168484015260408301526060820152600092839182805260015afa1561246b5780516001600160a01b0381161561246257918190565b50809160019190565b604051903d90823e3d90fd5b50505060009160039190565b906124aa575080511561249857805190602001fd5b60405163d6bda27560e01b8152600490fd5b815115806124dd575b6124bb575090565b604051639996b31560e01b81526001600160a01b039091166004820152602490fd5b50803b156124b356fe9016d09d72d40fdae2fd8ceac6b6234c7706214fd39c1cd1e609a0528c199300cd5ed15c6e187e77e9aee88184c21f4f2182ab5827cb3b7e07fbedcd63f03300a264697066735822122032ff73f56a0e42a4df5a15570dac1e93b00e0cf171548bbe8d493b73be522e1964736f6c63430008180033",
  "linkReferences": {},
  "deployedLinkReferences": {}
}