{
  "_format": "hh-sol-artifact-1",
  "contractName": "MockV2_CapabilityRegistry",
  "sourceName": "src/mocks/MockV2.sol",
  "abi": [
    {
      "inputs": [],
      "name": "ActionRequired",
      "type": "error"
    },
    {
      "inputs": [
        {
          "internalType": "address",
          "name": "target",
          "type": "address"
        }
      ],
      "name": "AddressEmptyCode",
      "type": "error"
    },
    {
      "inputs": [],
      "name": "AlreadyRevokedCapability",
      "type": "error"
    },
    {
      "inputs": [],
      "name": "AlreadyRevokedGrant",
      "type": "error"
    },
    {
      "inputs": [],
      "name": "CapabilityExists",
      "type": "error"
    },
    {
      "inputs": [],
      "name": "CapabilityNotFound",
      "type": "error"
    },
    {
      "inputs": [
        {
          "internalType": "address",
          "name": "implementation",
          "type": "address"
        }
      ],
      "name": "ERC1967InvalidImplementation",
      "type": "error"
    },
    {
      "inputs": [],
      "name": "ERC1967NonPayable",
      "type": "error"
    },
    {
      "inputs": [],
      "name": "EnforcedPause",
      "type": "error"
    },
    {
      "inputs": [],
      "name": "ExpectedPause",
      "type": "error"
    },
    {
      "inputs": [],
      "name": "FailedCall",
      "type": "error"
    },
    {
      "inputs": [],
      "name": "GrantNotRevocable",
      "type": "error"
    },
    {
      "inputs": [],
      "name": "InvalidInitialization",
      "type": "error"
    },
    {
      "inputs": [],
      "name": "InvalidRecipient",
      "type": "error"
    },
    {
      "inputs": [],
      "name": "InvalidRoot",
      "type": "error"
    },
    {
      "inputs": [],
      "name": "NotAuthorizedForCapability",
      "type": "error"
    },
    {
      "inputs": [],
      "name": "NotInitializing",
      "type": "error"
    },
    {
      "inputs": [
        {
          "internalType": "address",
          "name": "owner",
          "type": "address"
        }
      ],
      "name": "OwnableInvalidOwner",
      "type": "error"
    },
    {
      "inputs": [
        {
          "internalType": "address",
          "name": "account",
          "type": "address"
        }
      ],
      "name": "OwnableUnauthorizedAccount",
      "type": "error"
    },
    {
      "inputs": [],
      "name": "UUPSUnauthorizedCallContext",
      "type": "error"
    },
    {
      "inputs": [
        {
          "internalType": "bytes32",
          "name": "slot",
          "type": "bytes32"
        }
      ],
      "name": "UUPSUnsupportedProxiableUUID",
      "type": "error"
    },
    {
      "anonymous": false,
      "inputs": [
        {
          "indexed": true,
          "internalType": "bytes32",
          "name": "capabilityId",
          "type": "bytes32"
        },
        {
          "indexed": true,
          "internalType": "bytes32",
          "name": "actionHash",
          "type": "bytes32"
        },
        {
          "indexed": true,
          "internalType": "address",
          "name": "registrar",
          "type": "address"
        }
      ],
      "name": "CapabilityRegistered",
      "type": "event"
    },
    {
      "anonymous": false,
      "inputs": [
        {
          "indexed": true,
          "internalType": "bytes32",
          "name": "capabilityId",
          "type": "bytes32"
        }
      ],
      "name": "CapabilityRevoked",
      "type": "event"
    },
    {
      "anonymous": false,
      "inputs": [
        {
          "indexed": true,
          "internalType": "bytes32",
          "name": "grantLeafHash",
          "type": "bytes32"
        }
      ],
      "name": "GrantRevoked",
      "type": "event"
    },
    {
      "anonymous": false,
      "inputs": [
        {
          "indexed": true,
          "internalType": "address",
          "name": "grantor",
          "type": "address"
        },
        {
          "indexed": true,
          "internalType": "address",
          "name": "grantee",
          "type": "address"
        },
        {
          "indexed": true,
          "internalType": "bytes32",
          "name": "capabilityId",
          "type": "bytes32"
        },
        {
          "indexed": false,
          "internalType": "bytes32",
          "name": "newRoot",
          "type": "bytes32"
        }
      ],
      "name": "GrantRootUpdated",
      "type": "event"
    },
    {
      "anonymous": false,
      "inputs": [
        {
          "indexed": false,
          "internalType": "uint64",
          "name": "version",
          "type": "uint64"
        }
      ],
      "name": "Initialized",
      "type": "event"
    },
    {
      "anonymous": false,
      "inputs": [
        {
          "indexed": true,
          "internalType": "address",
          "name": "previousOwner",
          "type": "address"
        },
        {
          "indexed": true,
          "internalType": "address",
          "name": "newOwner",
          "type": "address"
        }
      ],
      "name": "OwnershipTransferred",
      "type": "event"
    },
    {
      "anonymous": false,
      "inputs": [
        {
          "indexed": false,
          "internalType": "address",
          "name": "account",
          "type": "address"
        }
      ],
      "name": "Paused",
      "type": "event"
    },
    {
      "anonymous": false,
      "inputs": [
        {
          "indexed": false,
          "internalType": "address",
          "name": "account",
          "type": "address"
        }
      ],
      "name": "Unpaused",
      "type": "event"
    },
    {
      "anonymous": false,
      "inputs": [
        {
          "indexed": true,
          "internalType": "address",
          "name": "implementation",
          "type": "address"
        }
      ],
      "name": "Upgraded",
      "type": "event"
    },
    {
      "inputs": [],
      "name": "UPGRADE_INTERFACE_VERSION",
      "outputs": [
        {
          "internalType": "string",
          "name": "",
          "type": "string"
        }
      ],
      "stateMutability": "view",
      "type": "function"
    },
    {
      "inputs": [],
      "name": "VERSION",
      "outputs": [
        {
          "internalType": "uint256",
          "name": "",
          "type": "uint256"
        }
      ],
      "stateMutability": "view",
      "type": "function"
    },
    {
      "inputs": [
        {
          "internalType": "bytes32",
          "name": "",
          "type": "bytes32"
        }
      ],
      "name": "capabilities",
      "outputs": [
        {
          "internalType": "bytes32",
          "name": "actionHash",
          "type": "bytes32"
        },
        {
          "internalType": "address",
          "name": "registrar",
          "type": "address"
        },
        {
          "internalType": "uint64",
          "name": "createdAt",
          "type": "uint64"
        },
        {
          "internalType": "uint64",
          "name": "expiresAt",
          "type": "uint64"
        },
        {
          "internalType": "bool",
          "name": "revoked",
          "type": "bool"
        }
      ],
      "stateMutability": "view",
      "type": "function"
    },
    {
      "inputs": [
        {
          "internalType": "bytes32",
          "name": "capabilityId",
          "type": "bytes32"
        }
      ],
      "name": "getCapability",
      "outputs": [
        {
          "components": [
            {
              "internalType": "bytes32",
              "name": "actionHash",
              "type": "bytes32"
            },
            {
              "internalType": "address",
              "name": "registrar",
              "type": "address"
            },
            {
              "internalType": "uint64",
              "name": "createdAt",
              "type": "uint64"
            },
            {
              "internalType": "uint64",
              "name": "expiresAt",
              "type": "uint64"
            },
            {
              "internalType": "bool",
              "name": "revoked",
              "type": "bool"
            }
          ],
          "internalType": "struct CapabilityRegistry.CapabilityDef",
          "name": "",
          "type": "tuple"
        }
      ],
      "stateMutability": "view",
      "type": "function"
    },
    {
      "inputs": [
        {
          "internalType": "uint256",
          "name": "index",
          "type": "uint256"
        }
      ],
      "name": "getCapabilityAt",
      "outputs": [
        {
          "internalType": "bytes32",
          "name": "",
          "type": "bytes32"
        }
      ],
      "stateMutability": "view",
      "type": "function"
    },
    {
      "inputs": [],
      "name": "getCapabilityCount",
      "outputs": [
        {
          "internalType": "uint256",
          "name": "",
          "type": "uint256"
        }
      ],
      "stateMutability": "view",
      "type": "function"
    },
    {
      "inputs": [
        {
          "internalType": "address",
          "name": "",
          "type": "address"
        },
        {
          "internalType": "address",
          "name": "",
          "type": "address"
        },
        {
          "internalType": "bytes32",
          "name": "",
          "type": "bytes32"
        }
      ],
      "name": "grantRoots",
      "outputs": [
        {
          "internalType": "bytes32",
          "name": "",
          "type": "bytes32"
        }
      ],
      "stateMutability": "view",
      "type": "function"
    },
    {
      "inputs": [
        {
          "internalType": "address",
          "name": "owner_",
          "type": "address"
        }
      ],
      "name": "initialize",
      "outputs": [],
      "stateMutability": "nonpayable",
      "type": "function"
    },
    {
      "inputs": [],
      "name": "owner",
      "outputs": [
        {
          "internalType": "address",
          "name": "",
          "type": "address"
        }
      ],
      "stateMutability": "view",
      "type": "function"
    },
    {
      "inputs": [],
      "name": "pause",
      "outputs": [],
      "stateMutability": "nonpayable",
      "type": "function"
    },
    {
      "inputs": [],
      "name": "paused",
      "outputs": [
        {
          "internalType": "bool",
          "name": "",
          "type": "bool"
        }
      ],
      "stateMutability": "view",
      "type": "function"
    },
    {
      "inputs": [],
      "name": "proxiableUUID",
      "outputs": [
        {
          "internalType": "bytes32",
          "name": "",
          "type": "bytes32"
        }
      ],
      "stateMutability": "view",
      "type": "function"
    },
    {
      "inputs": [
        {
          "internalType": "bytes32",
          "name": "capabilityId",
          "type": "bytes32"
        },
        {
          "internalType": "string",
          "name": "action",
          "type": "string"
        },
        {
          "internalType": "uint64",
          "name": "expiresAt",
          "type": "uint64"
        }
      ],
      "name": "registerCapability",
      "outputs": [],
      "stateMutability": "nonpayable",
      "type": "function"
    },
    {
      "inputs": [],
      "name": "renounceOwnership",
      "outputs": [],
      "stateMutability": "nonpayable",
      "type": "function"
    },
    {
      "inputs": [
        {
          "internalType": "bytes32",
          "name": "capabilityId",
          "type": "bytes32"
        }
      ],
      "name": "revokeCapability",
      "outputs": [],
      "stateMutability": "nonpayable",
      "type": "function"
    },
    {
      "inputs": [
        {
          "internalType": "bytes32",
          "name": "grantLeafHash",
          "type": "bytes32"
        },
        {
          "internalType": "bytes32",
          "name": "capabilityId",
          "type": "bytes32"
        },
        {
          "internalType": "address",
          "name": "grantor",
          "type": "address"
        },
        {
          "internalType": "address",
          "name": "grantee",
          "type": "address"
        }
      ],
      "name": "revokeGrant",
      "outputs": [],
      "stateMutability": "nonpayable",
      "type": "function"
    },
    {
      "inputs": [
        {
          "internalType": "bytes32",
          "name": "",
          "type": "bytes32"
        }
      ],
      "name": "revokedGrants",
      "outputs": [
        {
          "internalType": "bool",
          "name": "",
          "type": "bool"
        }
      ],
      "stateMutability": "view",
      "type": "function"
    },
    {
      "inputs": [
        {
          "internalType": "address",
          "name": "newOwner",
          "type": "address"
        }
      ],
      "name": "transferOwnership",
      "outputs": [],
      "stateMutability": "nonpayable",
      "type": "function"
    },
    {
      "inputs": [],
      "name": "unpause",
      "outputs": [],
      "stateMutability": "nonpayable",
      "type": "function"
    },
    {
      "inputs": [
        {
          "internalType": "address",
          "name": "grantee",
          "type": "address"
        },
        {
          "internalType": "bytes32",
          "name": "capabilityId",
          "type": "bytes32"
        },
        {
          "internalType": "bytes32",
          "name": "newRoot",
          "type": "bytes32"
        }
      ],
      "name": "updateGrantRoot",
      "outputs": [],
      "stateMutability": "nonpayable",
      "type": "function"
    },
    {
      "inputs": [
        {
          "internalType": "address",
          "name": "newImplementation",
          "type": "address"
        },
        {
          "internalType": "bytes",
          "name": "data",
          "type": "bytes"
        }
      ],
      "name": "upgradeToAndCall",
      "outputs": [],
      "stateMutability": "payable",
      "type": "function"
    },
    {
      "inputs": [
        {
          "internalType": "address",
          "name": "agent",
          "type": "address"
        },
        {
          "internalType": "bytes32",
          "name": "capabilityId",
          "type": "bytes32"
        },
        {
          "internalType": "bytes32",
          "name": "grantLeaf",
          "type": "bytes32"
        },
        {
          "internalType": "bytes32[]",
          "name": "merkleProof",
          "type": "bytes32[]"
        },
        {
          "internalType": "address",
          "name": "grantor",
          "type": "address"
        },
        {
          "internalType": "bytes32",
          "name": "constraintsHash",
          "type": "bytes32"
        },
        {
          "internalType": "uint64",
          "name": "expiresAt",
          "type": "uint64"
        }
      ],
      "name": "verifyCapability",
      "outputs": [
        {
          "internalType": "bool",
          "name": "",
          "type": "bool"
        }
      ],
      "stateMutability": "view",
      "type": "function"
    }
  ],
  "bytecode": "0x60a080604052346100cc57306080527ff0c57e16840df040f15088dc2f81fe391c3923bec73e23a9662efc9c229c6a009081549060ff8260401c166100bd57506001600160401b036002600160401b031982821601610078575b60405161150890816100d282396080518181816109370152610a160152f35b6001600160401b031990911681179091556040519081527fc7f505b2f371ae2175ee4913f4499e1f2633a7b5936321eed1cdaeb6115181d290602090a1388080610059565b63f92ee8a960e01b8152600490fd5b600080fdfe604061010081526004908136101561001657600080fd5b600091823560e01c9081632435499214610e015781632f1fd28b14610da25781633f4ba83a14610d2a5781634bea132c14610c055781634f1ef2861461099b57816352d1902d1461092257816356ab5d7a1461084b5781635c975abb1461081a5781636f4907a6146107ee578163715018a6146107845781637b23648a146106e65781638456cb591461067e5781638da5cb5b146106485781639cb7c5f414610588578163ad3cb1cc146104ea578163adf4d59e1461034f578163b036fe7e14610330578163c2ead131146102ca578163c4d66de814610192578163e6a2aaba1461016457508063f2fde38b146101345763ffa1ad741461011657600080fd5b346101305781600319360112610130576020905160028152f35b5080fd5b82346101615760203660031901126101615761015e610151611017565b6101596113b5565b611316565b80f35b80fd5b82843461016157602036600319011261016157506101846020923561109f565b91905490519160031b1c8152f35b9050346102c65760203660031901126102c6576101ad611017565b907ff0c57e16840df040f15088dc2f81fe391c3923bec73e23a9662efc9c229c6a0091825460ff81861c1615926001600160401b038216801590816102be575b60011490816102b4575b1590816102ab575b5061029d575067ffffffffffffffff198116600117845561023291908361027e575b5061022a6113ee565b6101596113ee565b61023a6113ee565b610242578280f35b805460ff60401b1916905551600181527fc7f505b2f371ae2175ee4913f4499e1f2633a7b5936321eed1cdaeb6115181d290602090a138808280f35b68ffffffffffffffffff19166801000000000000000117845538610221565b855163f92ee8a960e01b8152fd5b905015386101ff565b303b1591506101f7565b8591506101ed565b8280fd5b9050346102c65760203660031901126102c6578160a09360ff92358152806020522080549260026001830154926001600160401b039182910154938351968752600180891b0381166020880152871c1682860152821660608501521c1615156080820152f35b5050346101305781600319360112610130576020906001549051908152f35b838334610130576020366003190112610130578235908183528260205280832060018101546001600160401b038160a01c16156104da576001600160a01b0390811633141590816104be575b506104ae57600201805460ff81841c1661049e5760ff60401b1916600160401b179055818352600260205280832054600154600019919082810190811161048b576103e59061109f565b90549060031b1c806104106103f98461109f565b819391549060031b91821b91600019901b19161790565b90558552600260205282852055600154801561047857908085939201906104368261109f565b909182549160031b1b1916905560015582825260026020528120557f49605d0360d8e90064c274ba9997a3d883d637411e4a6855594c367b31679d668280a280f35b634e487b7160e01b855260318652602485fd5b634e487b7160e01b865260118752602486fd5b825163f3d4f46960e01b81528690fd5b815163093886bb60e21b81528590fd5b905060008051602061149383398151915254163314158661039b565b8251635ad384df60e11b81528690fd5b9050346102c657826003193601126102c657815190828201908282106001600160401b038311176105755750825260058152602090640352e302e360dc1b6020820152825193849260208452825192836020860152825b84811061055f57505050828201840152601f01601f19168101030190f35b8181018301518882018801528795508201610541565b634e487b7160e01b855260419052602484fd5b9050346102c65760203660031901126102c65782829160a094608084516105ae81611032565b828152826020820152828682015282606082015201523581528060205220600282516105d981611032565b825493848252600184015493600180881b0394602084019580821687526001600160401b0395869384868801948c1c16845201549660ff60806060880197868b1689520198861c1615158852845198895251166020880152511690850152511660608301525115156080820152f35b5050346101305781600319360112610130576000805160206114938339815191525490516001600160a01b039091168152602090f35b50503461013057816003193601126101305760207f62e78cea01bee320cd4e420270b5ea74000d11b0c9f74754ebdbfc544b05a258916106bc6113b5565b6106c461138a565b6000805160206114b3833981519152805460ff1916600117905551338152a180f35b8284346101615760e036600319011261016157610701611017565b90606435916001600160401b03948584116102c657366023850112156102c657830135908582116102c6573660248360051b860101116102c657608435926001600160a01b03841684036101615760c435968716870361016157509161077b939160209693602460a43594019060443590602435906110ec565b90519015158152f35b833461016157806003193601126101615761079d6113b5565b60008051602061149383398151915280546001600160a01b0319811690915581906001600160a01b03167f8be0079c531659141344cd1fd0a4f28419497f9722a3daafe3b4186f6b6457e08280a380f35b9050346102c65760203660031901126102c657816020938260ff93358252855220541690519015158152f35b50503461013057816003193601126101305760209060ff6000805160206114b3833981519152541690519015158152f35b9050346102c65760603660031901126102c657610866611017565b602435926044359161087661138a565b6001600160a01b031692831561091457848652856020526001600160401b036001838820015460a01c16156109065782156108f8575033855260036020528085208386526020528085208486526020528181862055519081527f048c28aa838588f428d938cc38ac67eb079f74de104711a2d53f041db683def760203392a480f35b905163504570e360e01b8152fd5b9051635ad384df60e11b8152fd5b9051634e46966960e11b8152fd5b828434610161578060031936011261016157507f00000000000000000000000000000000000000000000000000000000000000006001600160a01b0316300361098e57602090517f360894a13ba1a3210667c828492db98dca3e2076cc3735a920a3ca505d382bbc8152f35b5163703e46dd60e11b8152fd5b918091506003193601126102c6576109b1611017565b9060249384356001600160401b038111610130573660238201121561013057808501356109dd81611084565b946109ea85519687611063565b81865260209182870193368a8383010111610c01578186928b8693018737880101526001600160a01b037f00000000000000000000000000000000000000000000000000000000000000008116308114908115610bd3575b50610bc357610a4f6113b5565b81169585516352d1902d60e01b815283818a818b5afa869181610b90575b50610a89575050505050505191634c9c8ce360e01b8352820152fd5b9088888894938c7f360894a13ba1a3210667c828492db98dca3e2076cc3735a920a3ca505d382bbc91828103610b7b5750853b15610b67575080546001600160a01b031916821790558451889392917fbc7cd75a20ee27fd9adebab32041f755214dbc6bffa90cc0225b39da2e5c2d3b8580a2825115610b49575050610b3b9582915190845af4913d15610b3f573d610b2d610b2482611084565b92519283611063565b81528581943d92013e61142f565b5080f35b506060925061142f565b955095505050505034610b5b57505080f35b63b398979f60e01b8152fd5b8651634c9c8ce360e01b8152808501849052fd5b8751632a87526960e21b815280860191909152fd5b9091508481813d8311610bbc575b610ba88183611063565b81010312610bb857519038610a6d565b8680fd5b503d610b9e565b855163703e46dd60e11b81528890fd5b9050817f360894a13ba1a3210667c828492db98dca3e2076cc3735a920a3ca505d382bbc5416141538610a42565b8580fd5b919050346102c65760803660031901126102c6578135916001600160a01b0360243560443582811690819003610bb85760643590838216809203610d2657828852602093888552806001888b200154163314159081610d0a575b5080610d00575b610cf057875260038352848720908752825283862090865281528285205415610ce15783855281815260ff8386205416610cd257838552528220805460ff191660011790557fbc7909d45ab794ee63122077124d9ce05bea1db0768be90c77d2eddbdf1eef4f8280a280f35b50905163ef5a719160e01b8152fd5b509051632f6d57e360e11b8152fd5b8551632f6d57e360e11b81528590fd5b5080331415610c66565b9050600080516020611493833981519152541633141538610c5f565b8780fd5b9050346102c657826003193601126102c657610d446113b5565b6000805160206114b38339815191529081549060ff821615610d94575060ff19169055513381527f5db9ee0a495bf2e6ff9c91a7834c1ba4fdd244a5e8aa4e537bd38aeae4b073aa90602090a180f35b8351638dfc202b60e01b8152fd5b50503461013057606036600319011261013057610dbd611017565b6001600160a01b036024358181169290839003610dfd57916020949184931682526003855282822090825284528181206044358252845220549051908152f35b8480fd5b8383346101305760603660031901126101305782356024356001600160401b03808211610dfd5736602383011215610dfd578186013593818511610c015760248301926024863692010111610c015760443591808316809303610bb857610e6661138a565b610e6e6113b5565b8487526020928784526001918083858b20015460a01c16611007578715610ff75788906002878a610eb689895183819483830196873781018883820152038084520182611063565b519020865190610ec582611032565b81528781013381528782018442168152606083019687528860808401968088528d8152808c5220925183558783019160018060a01b039051168254916001600160401b0360a01b905160a01b169163ffffffff60e01b16171790550192511668ff0000000000000000835492511515861b169168ffffffffffffffffff1916171790558054600160401b811015610fe457610f686103f98284899401855561109f565b9055546000198101908111610fd15790610fa4929185885260028352818820555185819683830195863781018783820152038086520184611063565b3392519020907ff29a7a8b7e17110feb5338446fbfdcb1f7370015c5a13bfdf070ccbf6b5e2dfe8480a480f35b634e487b7160e01b875260118852602487fd5b634e487b7160e01b885260418952602488fd5b8351630731582160e51b81528a90fd5b83516305b8e23b60e01b81528a90fd5b600435906001600160a01b038216820361102d57565b600080fd5b60a081019081106001600160401b0382111761104d57604052565b634e487b7160e01b600052604160045260246000fd5b90601f801991011681019081106001600160401b0382111761104d57604052565b6001600160401b03811161104d57601f01601f191660200190565b6001548110156110d65760016000527fb10e2d527612073b26eecdfd717e6a320cf44b4afac2b0732d9fcbe2b7fa0cf60190600090565b634e487b7160e01b600052603260045260246000fd5b9297919096949660e052600060805260e051608051526020946080518652604060c05260c051608051209060028201549160ff8360c0511c166112fb576001600160401b03809316801515908161130c575b506112fb57600101546001600160a01b03998a16999081168a90036112fb5790829160c051519689880160a05260e05160a051528b60c0518901521698896060880152608087015216968760a086015260a0855260c0850198858a10838b11176112ba578960c0515283865160a05120036112fb57608051526003875260c051608051209060805152865260c0516080512060e05160805152865260c05160805120549687156112eb5782608051526004875260ff60c0516080512054166112eb5780151590816112e1575b506112d25784116112ba576005978460051b946112298787018a611063565b885260e09460e08501908201913683116112b4578790915b8383106112a4575050505094608051955b87518710156112995786891b8401850151908181101561128457608051528552600160c051608051205b960195611252565b90608051528552600160c0516080512061127c565b149650945050505050565b8235815291810191889101611241565b60805180fd5b634e487b7160e01b6080515260416004526024608051fd5b50509550505050505060805190565b905042113861120a565b5050509550505050505060805190565b505050509550505050505060805190565b905042113861113e565b6001600160a01b039081169081156113715760008051602061149383398151915280546001600160a01b031981168417909155167f8be0079c531659141344cd1fd0a4f28419497f9722a3daafe3b4186f6b6457e0600080a3565b604051631e4fbdf760e01b815260006004820152602490fd5b60ff6000805160206114b383398151915254166113a357565b60405163d93c066560e01b8152600490fd5b600080516020611493833981519152546001600160a01b031633036113d657565b60405163118cdaa760e01b8152336004820152602490fd5b60ff7ff0c57e16840df040f15088dc2f81fe391c3923bec73e23a9662efc9c229c6a005460401c161561141d57565b604051631afcd79f60e31b8152600490fd5b90611456575080511561144457805190602001fd5b60405163d6bda27560e01b8152600490fd5b81511580611489575b611467575090565b604051639996b31560e01b81526001600160a01b039091166004820152602490fd5b50803b1561145f56fe9016d09d72d40fdae2fd8ceac6b6234c7706214fd39c1cd1e609a0528c199300cd5ed15c6e187e77e9aee88184c21f4f2182ab5827cb3b7e07fbedcd63f03300a26469706673582212205378508a6764ac46af5b14a048eeca7bae6ff630b548063e7d15ada3ed9ef5fc64736f6c63430008180033",
  "linkReferences": {},
  "deployedLinkReferences": {}
}