{
  "_format": "hh-sol-artifact-1",
  "contractName": "MockV2_SessionManager",
  "sourceName": "src/mocks/MockV2.sol",
  "abi": [
    {
      "inputs": [
        {
          "internalType": "address",
          "name": "target",
          "type": "address"
        }
      ],
      "name": "AddressEmptyCode",
      "type": "error"
    },
    {
      "inputs": [],
      "name": "DailySpendLimitExceeded",
      "type": "error"
    },
    {
      "inputs": [],
      "name": "DailyTxLimitExceeded",
      "type": "error"
    },
    {
      "inputs": [],
      "name": "ECDSAInvalidSignature",
      "type": "error"
    },
    {
      "inputs": [
        {
          "internalType": "uint256",
          "name": "length",
          "type": "uint256"
        }
      ],
      "name": "ECDSAInvalidSignatureLength",
      "type": "error"
    },
    {
      "inputs": [
        {
          "internalType": "bytes32",
          "name": "s",
          "type": "bytes32"
        }
      ],
      "name": "ECDSAInvalidSignatureS",
      "type": "error"
    },
    {
      "inputs": [
        {
          "internalType": "address",
          "name": "implementation",
          "type": "address"
        }
      ],
      "name": "ERC1967InvalidImplementation",
      "type": "error"
    },
    {
      "inputs": [],
      "name": "ERC1967NonPayable",
      "type": "error"
    },
    {
      "inputs": [],
      "name": "EnforcedPause",
      "type": "error"
    },
    {
      "inputs": [],
      "name": "ExpectedPause",
      "type": "error"
    },
    {
      "inputs": [],
      "name": "ExpiryMismatch",
      "type": "error"
    },
    {
      "inputs": [],
      "name": "FailedCall",
      "type": "error"
    },
    {
      "inputs": [],
      "name": "InvalidExpiry",
      "type": "error"
    },
    {
      "inputs": [],
      "name": "InvalidInitialization",
      "type": "error"
    },
    {
      "inputs": [],
      "name": "InvalidProof",
      "type": "error"
    },
    {
      "inputs": [],
      "name": "InvalidSessionKey",
      "type": "error"
    },
    {
      "inputs": [],
      "name": "InvalidSessionManager",
      "type": "error"
    },
    {
      "inputs": [],
      "name": "InvalidSigner",
      "type": "error"
    },
    {
      "inputs": [],
      "name": "LimitExceeded",
      "type": "error"
    },
    {
      "inputs": [],
      "name": "MaxValueMismatch",
      "type": "error"
    },
    {
      "inputs": [],
      "name": "NotAgentWallet",
      "type": "error"
    },
    {
      "inputs": [],
      "name": "NotAuthorizedToRevoke",
      "type": "error"
    },
    {
      "inputs": [],
      "name": "NotBoundWallet",
      "type": "error"
    },
    {
      "inputs": [],
      "name": "NotInitializing",
      "type": "error"
    },
    {
      "inputs": [],
      "name": "NotWalletOwner",
      "type": "error"
    },
    {
      "inputs": [],
      "name": "NullifierAlreadyUsed",
      "type": "error"
    },
    {
      "inputs": [],
      "name": "NullifierMismatch",
      "type": "error"
    },
    {
      "inputs": [
        {
          "internalType": "address",
          "name": "owner",
          "type": "address"
        }
      ],
      "name": "OwnableInvalidOwner",
      "type": "error"
    },
    {
      "inputs": [
        {
          "internalType": "address",
          "name": "account",
          "type": "address"
        }
      ],
      "name": "OwnableUnauthorizedAccount",
      "type": "error"
    },
    {
      "inputs": [],
      "name": "ReentrancyGuardReentrantCall",
      "type": "error"
    },
    {
      "inputs": [],
      "name": "RevokedRootMismatch",
      "type": "error"
    },
    {
      "inputs": [],
      "name": "RootMismatch",
      "type": "error"
    },
    {
      "inputs": [],
      "name": "SessionAlreadyExists",
      "type": "error"
    },
    {
      "inputs": [],
      "name": "SessionAlreadyRevoked",
      "type": "error"
    },
    {
      "inputs": [],
      "name": "SessionExpired",
      "type": "error"
    },
    {
      "inputs": [],
      "name": "SessionIsRevoked",
      "type": "error"
    },
    {
      "inputs": [],
      "name": "SessionNotFound",
      "type": "error"
    },
    {
      "inputs": [],
      "name": "TooManySessions",
      "type": "error"
    },
    {
      "inputs": [],
      "name": "UUPSUnauthorizedCallContext",
      "type": "error"
    },
    {
      "inputs": [
        {
          "internalType": "bytes32",
          "name": "slot",
          "type": "bytes32"
        }
      ],
      "name": "UUPSUnsupportedProxiableUUID",
      "type": "error"
    },
    {
      "anonymous": false,
      "inputs": [
        {
          "indexed": true,
          "internalType": "bytes32",
          "name": "sessionId",
          "type": "bytes32"
        },
        {
          "indexed": false,
          "internalType": "uint64",
          "name": "newDay",
          "type": "uint64"
        }
      ],
      "name": "DailyLimitsReset",
      "type": "event"
    },
    {
      "anonymous": false,
      "inputs": [
        {
          "indexed": false,
          "internalType": "uint64",
          "name": "version",
          "type": "uint64"
        }
      ],
      "name": "Initialized",
      "type": "event"
    },
    {
      "anonymous": false,
      "inputs": [
        {
          "indexed": true,
          "internalType": "bytes32",
          "name": "sessionId",
          "type": "bytes32"
        },
        {
          "indexed": true,
          "internalType": "address",
          "name": "wallet",
          "type": "address"
        },
        {
          "indexed": true,
          "internalType": "address",
          "name": "sessionKey",
          "type": "address"
        },
        {
          "indexed": false,
          "internalType": "uint256",
          "name": "dailySpendLimit",
          "type": "uint256"
        },
        {
          "indexed": false,
          "internalType": "uint256",
          "name": "dailyTxLimit",
          "type": "uint256"
        },
        {
          "indexed": false,
          "internalType": "uint64",
          "name": "expiry",
          "type": "uint64"
        }
      ],
      "name": "LightSessionCreated",
      "type": "event"
    },
    {
      "anonymous": false,
      "inputs": [
        {
          "indexed": true,
          "internalType": "bytes32",
          "name": "sessionId",
          "type": "bytes32"
        }
      ],
      "name": "LightSessionRevoked",
      "type": "event"
    },
    {
      "anonymous": false,
      "inputs": [
        {
          "indexed": true,
          "internalType": "bytes32",
          "name": "sessionId",
          "type": "bytes32"
        },
        {
          "indexed": false,
          "internalType": "uint256",
          "name": "value",
          "type": "uint256"
        },
        {
          "indexed": false,
          "internalType": "uint256",
          "name": "newDailySpend",
          "type": "uint256"
        }
      ],
      "name": "LightSessionUsed",
      "type": "event"
    },
    {
      "anonymous": false,
      "inputs": [
        {
          "indexed": true,
          "internalType": "address",
          "name": "previousOwner",
          "type": "address"
        },
        {
          "indexed": true,
          "internalType": "address",
          "name": "newOwner",
          "type": "address"
        }
      ],
      "name": "OwnershipTransferred",
      "type": "event"
    },
    {
      "anonymous": false,
      "inputs": [
        {
          "indexed": false,
          "internalType": "address",
          "name": "account",
          "type": "address"
        }
      ],
      "name": "Paused",
      "type": "event"
    },
    {
      "anonymous": false,
      "inputs": [
        {
          "indexed": true,
          "internalType": "bytes32",
          "name": "sessionId",
          "type": "bytes32"
        },
        {
          "indexed": true,
          "internalType": "address",
          "name": "wallet",
          "type": "address"
        },
        {
          "indexed": true,
          "internalType": "address",
          "name": "sessionKey",
          "type": "address"
        },
        {
          "indexed": false,
          "internalType": "uint64",
          "name": "expiry",
          "type": "uint64"
        },
        {
          "indexed": false,
          "internalType": "uint128",
          "name": "maxValue",
          "type": "uint128"
        }
      ],
      "name": "SessionCreated",
      "type": "event"
    },
    {
      "anonymous": false,
      "inputs": [
        {
          "indexed": true,
          "internalType": "bytes32",
          "name": "sessionId",
          "type": "bytes32"
        }
      ],
      "name": "SessionRevoked",
      "type": "event"
    },
    {
      "anonymous": false,
      "inputs": [
        {
          "indexed": true,
          "internalType": "bytes32",
          "name": "sessionId",
          "type": "bytes32"
        },
        {
          "indexed": false,
          "internalType": "uint256",
          "name": "value",
          "type": "uint256"
        },
        {
          "indexed": false,
          "internalType": "uint256",
          "name": "totalUsed",
          "type": "uint256"
        }
      ],
      "name": "SessionUsed",
      "type": "event"
    },
    {
      "anonymous": false,
      "inputs": [
        {
          "indexed": false,
          "internalType": "address",
          "name": "account",
          "type": "address"
        }
      ],
      "name": "Unpaused",
      "type": "event"
    },
    {
      "anonymous": false,
      "inputs": [
        {
          "indexed": true,
          "internalType": "address",
          "name": "implementation",
          "type": "address"
        }
      ],
      "name": "Upgraded",
      "type": "event"
    },
    {
      "inputs": [],
      "name": "MAX_SESSIONS_PER_WALLET",
      "outputs": [
        {
          "internalType": "uint256",
          "name": "",
          "type": "uint256"
        }
      ],
      "stateMutability": "view",
      "type": "function"
    },
    {
      "inputs": [],
      "name": "UPGRADE_INTERFACE_VERSION",
      "outputs": [
        {
          "internalType": "string",
          "name": "",
          "type": "string"
        }
      ],
      "stateMutability": "view",
      "type": "function"
    },
    {
      "inputs": [],
      "name": "VERSION",
      "outputs": [
        {
          "internalType": "uint256",
          "name": "",
          "type": "uint256"
        }
      ],
      "stateMutability": "view",
      "type": "function"
    },
    {
      "inputs": [
        {
          "internalType": "bytes32",
          "name": "sessionId",
          "type": "bytes32"
        },
        {
          "internalType": "address",
          "name": "sessionKey",
          "type": "address"
        },
        {
          "internalType": "uint256",
          "name": "dailySpendLimit",
          "type": "uint256"
        },
        {
          "internalType": "uint256",
          "name": "dailyTxLimit",
          "type": "uint256"
        },
        {
          "internalType": "uint64",
          "name": "expiry",
          "type": "uint64"
        },
        {
          "internalType": "bytes",
          "name": "ownerSignature",
          "type": "bytes"
        }
      ],
      "name": "createLightweightSession",
      "outputs": [],
      "stateMutability": "nonpayable",
      "type": "function"
    },
    {
      "inputs": [
        {
          "internalType": "bytes32",
          "name": "sessionId",
          "type": "bytes32"
        },
        {
          "internalType": "address",
          "name": "wallet",
          "type": "address"
        },
        {
          "internalType": "address",
          "name": "sessionKey",
          "type": "address"
        },
        {
          "internalType": "uint128",
          "name": "maxValue",
          "type": "uint128"
        },
        {
          "internalType": "uint64",
          "name": "expiry",
          "type": "uint64"
        },
        {
          "internalType": "bytes32",
          "name": "nullifier",
          "type": "bytes32"
        },
        {
          "internalType": "uint256[2]",
          "name": "a",
          "type": "uint256[2]"
        },
        {
          "internalType": "uint256[2][2]",
          "name": "b",
          "type": "uint256[2][2]"
        },
        {
          "internalType": "uint256[2]",
          "name": "c",
          "type": "uint256[2]"
        },
        {
          "internalType": "uint256[6]",
          "name": "publicSignals",
          "type": "uint256[6]"
        }
      ],
      "name": "createSession",
      "outputs": [],
      "stateMutability": "nonpayable",
      "type": "function"
    },
    {
      "inputs": [
        {
          "internalType": "bytes32",
          "name": "sessionId",
          "type": "bytes32"
        }
      ],
      "name": "getLightSession",
      "outputs": [
        {
          "internalType": "address",
          "name": "sessionWallet",
          "type": "address"
        },
        {
          "internalType": "address",
          "name": "sessionKey",
          "type": "address"
        },
        {
          "internalType": "uint256",
          "name": "dailySpendLimit",
          "type": "uint256"
        },
        {
          "internalType": "uint256",
          "name": "dailyTxLimit",
          "type": "uint256"
        },
        {
          "internalType": "uint256",
          "name": "dailySpendUsed",
          "type": "uint256"
        },
        {
          "internalType": "uint256",
          "name": "dailyTxUsed",
          "type": "uint256"
        },
        {
          "internalType": "uint64",
          "name": "expiry",
          "type": "uint64"
        },
        {
          "internalType": "bool",
          "name": "revoked",
          "type": "bool"
        }
      ],
      "stateMutability": "view",
      "type": "function"
    },
    {
      "inputs": [
        {
          "internalType": "bytes32",
          "name": "sessionId",
          "type": "bytes32"
        }
      ],
      "name": "getSessionType",
      "outputs": [
        {
          "internalType": "uint8",
          "name": "",
          "type": "uint8"
        }
      ],
      "stateMutability": "view",
      "type": "function"
    },
    {
      "inputs": [
        {
          "internalType": "address",
          "name": "wallet",
          "type": "address"
        }
      ],
      "name": "getWalletSessions",
      "outputs": [
        {
          "internalType": "bytes32[]",
          "name": "",
          "type": "bytes32[]"
        }
      ],
      "stateMutability": "view",
      "type": "function"
    },
    {
      "inputs": [
        {
          "internalType": "address",
          "name": "verifier_",
          "type": "address"
        },
        {
          "internalType": "address",
          "name": "registry_",
          "type": "address"
        },
        {
          "internalType": "address",
          "name": "walletFactory_",
          "type": "address"
        }
      ],
      "name": "initialize",
      "outputs": [],
      "stateMutability": "nonpayable",
      "type": "function"
    },
    {
      "inputs": [
        {
          "internalType": "bytes32",
          "name": "",
          "type": "bytes32"
        }
      ],
      "name": "lightSessions",
      "outputs": [
        {
          "internalType": "address",
          "name": "wallet",
          "type": "address"
        },
        {
          "internalType": "address",
          "name": "sessionKey",
          "type": "address"
        },
        {
          "internalType": "uint256",
          "name": "dailySpendLimit",
          "type": "uint256"
        },
        {
          "internalType": "uint256",
          "name": "dailyTxLimit",
          "type": "uint256"
        },
        {
          "internalType": "uint256",
          "name": "dailySpendUsed",
          "type": "uint256"
        },
        {
          "internalType": "uint256",
          "name": "dailyTxUsed",
          "type": "uint256"
        },
        {
          "internalType": "uint64",
          "name": "lastResetDay",
          "type": "uint64"
        },
        {
          "internalType": "uint64",
          "name": "expiry",
          "type": "uint64"
        },
        {
          "internalType": "bool",
          "name": "revoked",
          "type": "bool"
        }
      ],
      "stateMutability": "view",
      "type": "function"
    },
    {
      "inputs": [],
      "name": "owner",
      "outputs": [
        {
          "internalType": "address",
          "name": "",
          "type": "address"
        }
      ],
      "stateMutability": "view",
      "type": "function"
    },
    {
      "inputs": [],
      "name": "pause",
      "outputs": [],
      "stateMutability": "nonpayable",
      "type": "function"
    },
    {
      "inputs": [],
      "name": "paused",
      "outputs": [
        {
          "internalType": "bool",
          "name": "",
          "type": "bool"
        }
      ],
      "stateMutability": "view",
      "type": "function"
    },
    {
      "inputs": [],
      "name": "proxiableUUID",
      "outputs": [
        {
          "internalType": "bytes32",
          "name": "",
          "type": "bytes32"
        }
      ],
      "stateMutability": "view",
      "type": "function"
    },
    {
      "inputs": [
        {
          "internalType": "address",
          "name": "wallet",
          "type": "address"
        },
        {
          "internalType": "uint256",
          "name": "limit",
          "type": "uint256"
        }
      ],
      "name": "pruneExpiredSessions",
      "outputs": [],
      "stateMutability": "nonpayable",
      "type": "function"
    },
    {
      "inputs": [],
      "name": "registry",
      "outputs": [
        {
          "internalType": "contract ICredentialRegistry",
          "name": "",
          "type": "address"
        }
      ],
      "stateMutability": "view",
      "type": "function"
    },
    {
      "inputs": [],
      "name": "renounceOwnership",
      "outputs": [],
      "stateMutability": "nonpayable",
      "type": "function"
    },
    {
      "inputs": [
        {
          "internalType": "bytes32",
          "name": "sessionId",
          "type": "bytes32"
        },
        {
          "internalType": "address",
          "name": "wallet",
          "type": "address"
        }
      ],
      "name": "revokeLightweightSession",
      "outputs": [],
      "stateMutability": "nonpayable",
      "type": "function"
    },
    {
      "inputs": [
        {
          "internalType": "bytes32",
          "name": "sessionId",
          "type": "bytes32"
        },
        {
          "internalType": "address",
          "name": "wallet",
          "type": "address"
        }
      ],
      "name": "revokeSession",
      "outputs": [],
      "stateMutability": "nonpayable",
      "type": "function"
    },
    {
      "inputs": [
        {
          "internalType": "bytes32",
          "name": "",
          "type": "bytes32"
        }
      ],
      "name": "sessions",
      "outputs": [
        {
          "internalType": "address",
          "name": "wallet",
          "type": "address"
        },
        {
          "internalType": "address",
          "name": "sessionKey",
          "type": "address"
        },
        {
          "internalType": "uint256",
          "name": "valueUsed",
          "type": "uint256"
        },
        {
          "internalType": "uint256",
          "name": "maxValue",
          "type": "uint256"
        },
        {
          "internalType": "uint64",
          "name": "expiry",
          "type": "uint64"
        },
        {
          "internalType": "bool",
          "name": "revoked",
          "type": "bool"
        }
      ],
      "stateMutability": "view",
      "type": "function"
    },
    {
      "inputs": [
        {
          "internalType": "address",
          "name": "walletFactory_",
          "type": "address"
        }
      ],
      "name": "setWalletFactory",
      "outputs": [],
      "stateMutability": "nonpayable",
      "type": "function"
    },
    {
      "inputs": [
        {
          "internalType": "address",
          "name": "newOwner",
          "type": "address"
        }
      ],
      "name": "transferOwnership",
      "outputs": [],
      "stateMutability": "nonpayable",
      "type": "function"
    },
    {
      "inputs": [],
      "name": "unpause",
      "outputs": [],
      "stateMutability": "nonpayable",
      "type": "function"
    },
    {
      "inputs": [
        {
          "internalType": "address",
          "name": "newImplementation",
          "type": "address"
        },
        {
          "internalType": "bytes",
          "name": "data",
          "type": "bytes"
        }
      ],
      "name": "upgradeToAndCall",
      "outputs": [],
      "stateMutability": "payable",
      "type": "function"
    },
    {
      "inputs": [
        {
          "internalType": "bytes32",
          "name": "sessionId",
          "type": "bytes32"
        },
        {
          "internalType": "address",
          "name": "signer",
          "type": "address"
        },
        {
          "internalType": "uint256",
          "name": "value",
          "type": "uint256"
        }
      ],
      "name": "validateLightweightSession",
      "outputs": [
        {
          "internalType": "bool",
          "name": "",
          "type": "bool"
        }
      ],
      "stateMutability": "nonpayable",
      "type": "function"
    },
    {
      "inputs": [
        {
          "internalType": "bytes32",
          "name": "sessionId",
          "type": "bytes32"
        },
        {
          "internalType": "address",
          "name": "signer",
          "type": "address"
        },
        {
          "internalType": "uint256",
          "name": "value",
          "type": "uint256"
        }
      ],
      "name": "validateSession",
      "outputs": [
        {
          "internalType": "bool",
          "name": "",
          "type": "bool"
        }
      ],
      "stateMutability": "nonpayable",
      "type": "function"
    },
    {
      "inputs": [],
      "name": "verifier",
      "outputs": [
        {
          "internalType": "contract IVerifier",
          "name": "",
          "type": "address"
        }
      ],
      "stateMutability": "view",
      "type": "function"
    },
    {
      "inputs": [],
      "name": "walletFactory",
      "outputs": [
        {
          "internalType": "contract IAgentWalletFactory",
          "name": "",
          "type": "address"
        }
      ],
      "stateMutability": "view",
      "type": "function"
    },
    {
      "inputs": [
        {
          "internalType": "address",
          "name": "",
          "type": "address"
        },
        {
          "internalType": "uint256",
          "name": "",
          "type": "uint256"
        }
      ],
      "name": "walletSessions",
      "outputs": [
        {
          "internalType": "bytes32",
          "name": "",
          "type": "bytes32"
        }
      ],
      "stateMutability": "view",
      "type": "function"
    }
  ],
  "bytecode": "0x60a080604052346100d1576001600055306080527ff0c57e16840df040f15088dc2f81fe391c3923bec73e23a9662efc9c229c6a009081549060ff8260401c166100c257506001600160401b036002600160401b03198282160161007d575b60405161238e90816100d7823960805181818161142201526114db0152f35b6001600160401b031990911681179091556040519081527fc7f505b2f371ae2175ee4913f4499e1f2633a7b5936321eed1cdaeb6115181d290602090a138808061005e565b63f92ee8a960e01b8152600490fd5b600080fdfe6080604052600436101561001257600080fd5b6000803560e01c80630ec163f314611a0d578063186a27571461195f5780631efb10f6146119085780632a2d9380146117f45780632b7ac3f3146117cb578063356f644d146117395780633f4ba83a146116c15780634f1ef2861461148c57806352d1902d1461140f5780635c975abb146113df578063715018a6146113755780637b1039991461134c5780637dbd2832146112d35780637ebf879c1461127a578063841b45f21461125e5780638456cb59146111f657806387f813b614610c4c5780638da5cb5b14610c165780638eb691b114610b7a57806399d29df914610a2d578063ad3cb1cc14610988578063c0c53b8b14610805578063c5c03699146107dc578063c7cdfc01146107b2578063d441bb8314610558578063dc35e7d41461041b578063f2fde38b146103ee578063f545b88b1461017a5763ffa1ad741461015c57600080fd5b34610177578060031936011261017757602060405160028152f35b80fd5b50346101775761018936611f52565b60065460405163bd5dee7760e01b8152336004820152602095936001600160a01b03939290919087908290602490829088165afa9081156103e35785916103b6575b50156103a5576101d96120bf565b8484526002865260408420923381855416036103935780600185015416801561038157600685019081549260ff8460801c1661036f576001600160401b0394858560401c16421161035d57160361034b5782889188946201518042041680928516106102fe575b5050505050600482019261025582855461203e565b90600284015482116102e957600584019081549460018601918287116102d5575060030154106102c3576102ae604094837f6710bf7c8828bf28bdddb7b45da3a29d2eca474d615fe28b47075ce7bf67e3c39755612019565b9055825191825285820152a260405160018152f35b6040516334304bd960e11b8152600490fd5b634e487b7160e01b81526011600452602490fd5b60405160016229a0d960e11b03198152600490fd5b817ff27cff30b6684ae4bbc9913e70785baafa758cdfef27e76c9773a8cd5cbf9acc948960048a01558960058a01556001600160401b031916179055604051908152a28338868180610240565b604051632057875960e21b8152600490fd5b604051630fe82d2560e11b8152600490fd5b6040516329269c5d60e11b8152600490fd5b6040516396c95f8160e01b8152600490fd5b604051630ac83de760e41b8152600490fd5b6040516249a9c760e91b8152600490fd5b6103d69150873d89116103dc575b6103ce8183611edf565b810190611f7c565b386101cb565b503d6103c4565b6040513d87823e3d90fd5b50346101775760203660031901126101775761041861040b611e6f565b6104136120ea565b61204b565b80f35b50346101775761042a36611f52565b9060018060a01b0390816006541694604051809663bd5dee7760e01b82523360048301528160246020998a935afa90811561054d578291610530575b50156103a5576040906104776120bf565b85815260018752209133818454160361039357600483015460ff8160401c1661036f576001600160401b0316421161035d578060018401541691160361034b57600281019160036104c982855461203e565b920154821161051e576001600160801b039182811161051e577f8f681f2a4f6cd078b7e4cab4ae8112ef10d6b50b1511bf4915c069cf5d3b835e9360409382169055825191825285820152a260405160018152f35b604051631930e3c960e11b8152600490fd5b6105479150873d89116103dc576103ce8183611edf565b38610466565b6040513d84823e3d90fd5b503461017757604036600319011261017757610572611e6f565b60065460405163bd5dee7760e01b815233600482015290602090829060249082906001600160a01b03165afa9081156107a7578391610788575b50156103a5576001600160a01b03168152600360205260408120805460001992908190848101908113600116610641575b828112158061077d575b15610779576105f68185611eb1565b90549060031b1c8390845260016020526040842060018060a01b0360018201541661074b575b5080158061072d575b6106f3575b610655575b600160ff1b81146106415784016105dd565b634e487b7160e01b83526011600452602483fd5b9083548581019081116106df5761066f6106999186611eb1565b90549060031b1c6106808487611eb1565b90919082549060031b91821b91600019901b1916179055565b835480156106cb5790856106c592016106b28187611eb1565b8882549160031b1b191690558555612019565b9061062f565b634e487b7160e01b84526031600452602484fd5b634e487b7160e01b84526011600452602484fd5b5060026020526006604084200154426001600160401b038260401c16119081159161071f575b5061062a565b60ff915060801c1638610719565b50600260205260408420600101546001600160a01b03161515610625565b60040154426001600160401b038216118015925061076b575b503861061c565b60ff915060401c1638610764565b8280f35b5060243582106105e7565b6107a1915060203d6020116103dc576103ce8183611edf565b386105ac565b6040513d85823e3d90fd5b50346101775760203660031901126101775760206107d1600435611fd8565b60ff60405191168152f35b50346101775780600319360112610177576006546040516001600160a01b039091168152602090f35b50346101775760603660031901126101775761081f611e6f565b610827611e54565b90610830611e85565b907ff0c57e16840df040f15088dc2f81fe391c3923bec73e23a9662efc9c229c6a009283549260ff8460401c1615936001600160401b03811680159081610980575b6001149081610976575b15908161096d575b5061095b5767ffffffffffffffff19811660011786558461093c575b506108a96121e4565b6108b16121e4565b6108ba3361204b565b6108c26121e4565b60018060a01b038092816001600160601b0360a01b951685600454161760045516836005541617600555169060065416176006556108fe575080f35b68ff00000000000000001981541690557fc7f505b2f371ae2175ee4913f4499e1f2633a7b5936321eed1cdaeb6115181d2602060405160018152a180f35b68ffffffffffffffffff191668010000000000000001178555386108a0565b60405163f92ee8a960e01b8152600490fd5b90501538610884565b303b15915061087c565b869150610872565b5034610177578060031936011261017757604051604081018181106001600160401b03821117610a175760405260058152602091640352e302e360dc1b602083015260405192839160208352835191826020850152815b838110610a0057505060408094508284010152601f80199101168101030190f35b8086018201518782016040015286945081016109df565b634e487b7160e01b600052604160045260246000fd5b503461017757604036600319011261017757600435610a4a611e54565b610a526120bf565b81835260026020526040832060018101546001600160a01b03908116918215610381576006019283549260ff8460801c16610b68573314159182610adf575b5050610acd5760ff60801b1916600160801b1790557f75603cfad1b4b830ba27b5f2a2867fc0ecde28d51b13b72816b1707b7cd4e9498280a280f35b604051632d2a14a760e21b8152600490fd5b813b159250908215610af5575b50503880610a91565b604051638da5cb5b60e01b815292506020908390600490829085165afa918215610b5d578692610b2c575b50163314153880610aec565b610b4f91925060203d602011610b56575b610b478183611edf565b810190611f94565b9038610b20565b503d610b3d565b6040513d88823e3d90fd5b604051630b3e2fbf60e01b8152600490fd5b503461017757602036600319011261017757604061012091600435815260026020522060ff60018060a01b03918281541692600182015416600282015491600381015460048201549060066005840154930154946001600160401b0394604051988952602089015260408801526060870152608086015260a085015280821660c08501528160401c1660e084015260801c161515610100820152f35b5034610177578060031936011261017757600080516020612319833981519152546040516001600160a01b039091168152602090f35b50346101775761028036600319011261017757610c67611e54565b610c6f611e85565b606435906001600160801b03821682036111f257610c8b611e9b565b9136610104116111ee5736610184116111ee57366101c4116111ee5736610284116111ee5760028554146111dc5760028555610cc56120bf565b60065460405163bd5dee7760e01b81526001600160a01b038681166004830152909160209183916024918391165afa908115610b5d5786916111bd575b50156103a5576001600160a01b038216156111ab57426001600160401b038416111561119a576004358552600160208190526040862001546001600160a01b0316611188576004358552600260205260408520600101546001600160a01b0316611188576101c43560a435036111765760055460405163abb2efdf60e01b81526001600160a01b0390911690602081600481855afa908115611070578791611144575b506101e4350361113257604051636b6debf760e01b8152602081600481855afa9081156110705787916110fc575b5061020435036110ea57610224356001600160801b038316036110d857610244356001600160401b038516036110c6576001600160a01b0385811661026435909116036103a5576040516308b71ed360e21b815260a4356004820152602081602481855afa9081156110705787916110a7575b5061109557600480546040805163f398789b60e01b8152926001600160a01b039092169160c4908401378161010489604483015b6002821061107b575050506101c481602093604061018460c484013760c0836101048401375afa908115611070578791611051575b501561103f578086913b1561103b57819060246040518094819363057cb0f560e01b835260a43560048401525af18015610b5d5761100c575b50600435855260016020526004604086206001600160601b0360a01b60018060a01b03871681835416178255600182019060018060a01b038616908254161790556001600160801b0383166003820155866002820155016001600160401b03841668ffffffffffffffffff1982541617905560018060a01b03841685526003602052606460408620541015610ffa576001600160a01b03841685526003602052604085206001600160801b039190610fa39060043590611fb3565b604080516001600160401b03959095168552911660208401526001600160a01b039182169390911691600435917f3fffec6a9c00757fb2534a88201e48f1abd89c6238c7da1c8efe2b269603c2f091a46001815580f35b604051630463d55b60e41b8152600490fd5b6001600160401b038196929611611027576040529338610ee8565b634e487b7160e01b82526041600452602482fd5b5080fd5b6040516309bde33960e01b8152600490fd5b61106a915060203d6020116103dc576103ce8183611edf565b38610eaf565b6040513d89823e3d90fd5b829350604081816001949581943701930191018492610e7a565b604051636569570160e11b8152600490fd5b6110c0915060203d6020116103dc576103ce8183611edf565b38610e46565b604051638a0fcebb60e01b8152600490fd5b6040516363f0adc160e01b8152600490fd5b604051632f075c2d60e21b8152600490fd5b90506020813d60201161112a575b8161111760209383611edf565b81010312611126575138610dd3565b8680fd5b3d915061110a565b604051635ade045560e01b8152600490fd5b90506020813d60201161116e575b8161115f60209383611edf565b81010312611126575138610da5565b3d9150611152565b60405163b9ab99df60e01b8152600490fd5b6040516323792a1160e11b8152600490fd5b60405162d36c8560e81b8152600490fd5b604051635f8874dd60e11b8152600490fd5b6111d6915060203d6020116103dc576103ce8183611edf565b38610d02565b604051633ee5aeb560e01b8152600490fd5b8480fd5b8380fd5b503461017757806003193601126101775761120f6120ea565b6112176120bf565b600080516020612339833981519152600160ff198254161790557f62e78cea01bee320cd4e420270b5ea74000d11b0c9f74754ebdbfc544b05a2586020604051338152a180f35b5034610177578060031936011261017757602060405160648152f35b503461017757602036600319011261017757611294611e6f565b61129c6120ea565b6001600160a01b031680156112c1576001600160601b0360a01b600654161760065580f35b604051633144a04160e21b8152600490fd5b503461017757602036600319011261017757604060c091600435815260016020522060ff60018060a01b0391828154169260018201541690600281015460046003830154920154926040519586526020860152604085015260608401526001600160401b038116608084015260401c16151560a0820152f35b50346101775780600319360112610177576005546040516001600160a01b039091168152602090f35b503461017757806003193601126101775761138e6120ea565b60008051602061231983398151915280546001600160a01b0319811690915581906001600160a01b03167f8be0079c531659141344cd1fd0a4f28419497f9722a3daafe3b4186f6b6457e08280a380f35b5034610177578060031936011261017757602060ff60008051602061233983398151915254166040519015158152f35b50346101775780600319360112610177577f00000000000000000000000000000000000000000000000000000000000000006001600160a01b0316300361147a5760206040517f360894a13ba1a3210667c828492db98dca3e2076cc3735a920a3ca505d382bbc8152f35b60405163703e46dd60e11b8152600490fd5b506040366003190112610177576114a1611e6f565b6024356001600160401b0381116116bd57366023820112156116bd576114d1903690602481600401359101611f1b565b6001600160a01b037f0000000000000000000000000000000000000000000000000000000000000000811630811490811561168f575b5061147a576115146120ea565b6040516352d1902d60e01b8152908316926020918281600481885afa869181611660575b5061155657604051634c9c8ce360e01b815260048101869052602490fd5b9385947f360894a13ba1a3210667c828492db98dca3e2076cc3735a920a3ca505d382bbc908181036116485750823b1561162f5780546001600160a01b0319168217905560405185917fbc7cd75a20ee27fd9adebab32041f755214dbc6bffa90cc0225b39da2e5c2d3b8380a2845115611612575080848461160596519101845af4903d15611609573d6115e981611f00565b906115f76040519283611edf565b81528581943d92013e6122b5565b5080f35b606092506122b5565b935050505034611620575080f35b63b398979f60e01b8152600490fd5b604051634c9c8ce360e01b815260048101839052602490fd5b60249060405190632a87526960e21b82526004820152fd5b9091508381813d8311611688575b6116788183611edf565b8101031261112657519038611538565b503d61166e565b9050817f360894a13ba1a3210667c828492db98dca3e2076cc3735a920a3ca505d382bbc5416141538611507565b8280fd5b50346101775780600319360112610177576116da6120ea565b600080516020612339833981519152805460ff8116156117275760ff191690557f5db9ee0a495bf2e6ff9c91a7834c1ba4fdd244a5e8aa4e537bd38aeae4b073aa6020604051338152a180f35b604051638dfc202b60e01b8152600490fd5b503461017757602036600319011261017757604061010091600435815260026020522060ff60018060a01b0391828154169260018201541690600281015460038201546004830154916006600585015494015494604051978852602088015260408701526060860152608085015260a08401526001600160401b038160401c1660c084015260801c16151560e0820152f35b50346101775780600319360112610177576004546040516001600160a01b039091168152602090f35b503461017757604036600319011261017757600435611811611e54565b6118196120bf565b8183526001602081905260408420908101546001600160a01b03908116918215610381576004019283549260ff8460401c16610b6857331415918261189a575b5050610acd5768ff00000000000000001916600160401b1790557fcc0f7e7f309149dce2db74723f771f7d96cad368d91763e945dc3956c4dbfb048280a280f35b813b1592509082156118b0575b50503880611859565b604051638da5cb5b60e01b815292506020908390600490829085165afa918215610b5d5786926118e7575b501633141538806118a7565b61190191925060203d602011610b5657610b478183611edf565b90386118db565b503461017757604036600319011261017757611922611e6f565b6001600160a01b03168152600360205260408120805460243592908310156101775760206119508484611eb1565b90549060031b1c604051908152f35b50346101775760208060031936011261103b576001600160a01b03611982611e6f565b168252600381526040822060405192838383549182815201908193835284832090835b8181106119f957505050846119bb910385611edf565b60405193838594850191818652518092526040850193925b8281106119e257505050500390f35b8351855286955093810193928101926001016119d3565b8254845292860192600192830192016119a5565b50346101775760c036600319011261017757611a27611e54565b604435606435611a35611e9b565b60a435936001600160401b038511611e505736602386011215611e50578460040135906001600160401b03821161112657366024838801011161112657611a7a6120bf565b60065460405163bd5dee7760e01b815233600482015290602090829060249082906001600160a01b03165afa908115611e45578891611e26575b50156103a5576001600160a01b03169485156111ab57426001600160401b038416111561119a576004358752600260205260408720600101546001600160a01b0316611188576004358752600160208190526040882001546001600160a01b0316611188576040516020810146815230604083015233606083015260043560808301528760a08301528660c08301528560e08301526001600160401b03851661010083015261010082526101208201908282106001600160401b03831117611e1257610180908260405283519020926101408101937f19457468657265756d205369676e6564204d6573736167653a0a333200000000855261015c820152603c8352018181106001600160401b03821117611e1257604052519020611bf492611beb92611be5913691602401611f1b565b90612123565b9092919261215f565b604051638da5cb5b60e01b815290602082600481335afa918215611070578792611df1575b506001600160a01b03908116911603611ddf5760405161012081018181106001600160401b03821117611dcb576040523381528460208201528360408201528260608201528560808201528560a08201526001600160401b036201518042041660c08201526001600160401b03821660e08201526101008101908682526004358752600260205260066040882060018060a01b038351166001600160601b0360a01b9081835416178255600182019060018060a01b036020860151169082541617905560408301516002820155606083015160038201556080830151600482015560a0830151600582015501916001600160401b0360c0830151166fffffffffffffffff000000000000000060e0855494015160401b169160ff60801b9051151560801b169270ffffffffffffffffffffffffffffffffff191617171790553385526003602052606460408620541015610ffa576001600160401b03913386526003602052611d8d60043560408820611fb3565b604051938452602084015216604082015233907fb00ed1b40c94a111be08514c42fd87e33f2474c6fe39f7d4f730f9bde0656ae7606060043592a480f35b634e487b7160e01b87526041600452602487fd5b604051633101cebf60e21b8152600490fd5b611e0b91925060203d602011610b5657610b478183611edf565b9038611c19565b634e487b7160e01b8a52604160045260248afd5b611e3f915060203d6020116103dc576103ce8183611edf565b38611ab4565b6040513d8a823e3d90fd5b8580fd5b602435906001600160a01b0382168203611e6a57565b600080fd5b600435906001600160a01b0382168203611e6a57565b604435906001600160a01b0382168203611e6a57565b608435906001600160401b0382168203611e6a57565b8054821015611ec95760005260206000200190600090565b634e487b7160e01b600052603260045260246000fd5b90601f801991011681019081106001600160401b03821117610a1757604052565b6001600160401b038111610a1757601f01601f191660200190565b929192611f2782611f00565b91611f356040519384611edf565b829481845281830111611e6a578281602093846000960137010152565b6060906003190112611e6a57600435906024356001600160a01b0381168103611e6a579060443590565b90816020910312611e6a57518015158103611e6a5790565b90816020910312611e6a57516001600160a01b0381168103611e6a5790565b90815491600160401b831015610a175782610680916001611fd695018155611eb1565b565b600052600160205260018060a01b0380600160406000200154166120135760026020526001604060002001541661200e57600290565b600190565b50600090565b60001981146120285760010190565b634e487b7160e01b600052601160045260246000fd5b9190820180921161202857565b6001600160a01b039081169081156120a65760008051602061231983398151915280546001600160a01b031981168417909155167f8be0079c531659141344cd1fd0a4f28419497f9722a3daafe3b4186f6b6457e0600080a3565b604051631e4fbdf760e01b815260006004820152602490fd5b60ff60008051602061233983398151915254166120d857565b60405163d93c066560e01b8152600490fd5b600080516020612319833981519152546001600160a01b0316330361210b57565b60405163118cdaa760e01b8152336004820152602490fd5b81519190604183036121545761214d92506020820151906060604084015193015160001a90612225565b9192909190565b505060009160029190565b60048110156121ce5780612171575050565b6001810361218b5760405163f645eedf60e01b8152600490fd5b600281036121ac5760405163fce698f760e01b815260048101839052602490fd5b6003146121b65750565b602490604051906335e2f38360e21b82526004820152fd5b634e487b7160e01b600052602160045260246000fd5b60ff7ff0c57e16840df040f15088dc2f81fe391c3923bec73e23a9662efc9c229c6a005460401c161561221357565b604051631afcd79f60e31b8152600490fd5b91907f7fffffffffffffffffffffffffffffff5d576e7357a4501ddfe92f46681b20a084116122a957926020929160ff608095604051948552168484015260408301526060820152600092839182805260015afa1561229d5780516001600160a01b0381161561229457918190565b50809160019190565b604051903d90823e3d90fd5b50505060009160039190565b906122dc57508051156122ca57805190602001fd5b60405163d6bda27560e01b8152600490fd5b8151158061230f575b6122ed575090565b604051639996b31560e01b81526001600160a01b039091166004820152602490fd5b50803b156122e556fe9016d09d72d40fdae2fd8ceac6b6234c7706214fd39c1cd1e609a0528c199300cd5ed15c6e187e77e9aee88184c21f4f2182ab5827cb3b7e07fbedcd63f03300a2646970667358221220c3a0d34c2377f5305ff5827531d6c9b77e25f220eb5913f692daed87430ede6164736f6c63430008180033",
  "linkReferences": {},
  "deployedLinkReferences": {}
}