{
  "_format": "hh-sol-artifact-1",
  "contractName": "MockV2_OrganizationRegistry",
  "sourceName": "src/mocks/MockV2.sol",
  "abi": [
    {
      "inputs": [
        {
          "internalType": "address",
          "name": "target",
          "type": "address"
        }
      ],
      "name": "AddressEmptyCode",
      "type": "error"
    },
    {
      "inputs": [
        {
          "internalType": "address",
          "name": "implementation",
          "type": "address"
        }
      ],
      "name": "ERC1967InvalidImplementation",
      "type": "error"
    },
    {
      "inputs": [],
      "name": "ERC1967NonPayable",
      "type": "error"
    },
    {
      "inputs": [],
      "name": "EnforcedPause",
      "type": "error"
    },
    {
      "inputs": [],
      "name": "ExpectedPause",
      "type": "error"
    },
    {
      "inputs": [],
      "name": "FailedCall",
      "type": "error"
    },
    {
      "inputs": [],
      "name": "FailedDeployment",
      "type": "error"
    },
    {
      "inputs": [
        {
          "internalType": "uint256",
          "name": "balance",
          "type": "uint256"
        },
        {
          "internalType": "uint256",
          "name": "needed",
          "type": "uint256"
        }
      ],
      "name": "InsufficientBalance",
      "type": "error"
    },
    {
      "inputs": [],
      "name": "InvalidInitialization",
      "type": "error"
    },
    {
      "inputs": [],
      "name": "InvalidName",
      "type": "error"
    },
    {
      "inputs": [],
      "name": "InvalidOwnerAddress",
      "type": "error"
    },
    {
      "inputs": [],
      "name": "NotInitializing",
      "type": "error"
    },
    {
      "inputs": [],
      "name": "OrganizationAlreadyExists",
      "type": "error"
    },
    {
      "inputs": [],
      "name": "OrganizationNotFound",
      "type": "error"
    },
    {
      "inputs": [
        {
          "internalType": "address",
          "name": "owner",
          "type": "address"
        }
      ],
      "name": "OwnableInvalidOwner",
      "type": "error"
    },
    {
      "inputs": [
        {
          "internalType": "address",
          "name": "account",
          "type": "address"
        }
      ],
      "name": "OwnableUnauthorizedAccount",
      "type": "error"
    },
    {
      "inputs": [],
      "name": "UUPSUnauthorizedCallContext",
      "type": "error"
    },
    {
      "inputs": [
        {
          "internalType": "bytes32",
          "name": "slot",
          "type": "bytes32"
        }
      ],
      "name": "UUPSUnsupportedProxiableUUID",
      "type": "error"
    },
    {
      "inputs": [],
      "name": "ZeroAddressNotAllowed",
      "type": "error"
    },
    {
      "anonymous": false,
      "inputs": [
        {
          "indexed": true,
          "internalType": "bytes32",
          "name": "organizationId",
          "type": "bytes32"
        },
        {
          "indexed": false,
          "internalType": "address",
          "name": "oldAnchor",
          "type": "address"
        },
        {
          "indexed": false,
          "internalType": "address",
          "name": "newAnchor",
          "type": "address"
        }
      ],
      "name": "CredentialAnchorUpdated",
      "type": "event"
    },
    {
      "anonymous": false,
      "inputs": [
        {
          "indexed": false,
          "internalType": "uint64",
          "name": "version",
          "type": "uint64"
        }
      ],
      "name": "Initialized",
      "type": "event"
    },
    {
      "anonymous": false,
      "inputs": [
        {
          "indexed": true,
          "internalType": "bytes32",
          "name": "organizationId",
          "type": "bytes32"
        }
      ],
      "name": "OrganizationDeactivated",
      "type": "event"
    },
    {
      "anonymous": false,
      "inputs": [
        {
          "indexed": true,
          "internalType": "bytes32",
          "name": "organizationId",
          "type": "bytes32"
        }
      ],
      "name": "OrganizationReactivated",
      "type": "event"
    },
    {
      "anonymous": false,
      "inputs": [
        {
          "indexed": true,
          "internalType": "bytes32",
          "name": "organizationId",
          "type": "bytes32"
        },
        {
          "indexed": false,
          "internalType": "string",
          "name": "name",
          "type": "string"
        },
        {
          "indexed": true,
          "internalType": "address",
          "name": "owner",
          "type": "address"
        },
        {
          "indexed": false,
          "internalType": "address",
          "name": "credentialAnchor",
          "type": "address"
        }
      ],
      "name": "OrganizationRegistered",
      "type": "event"
    },
    {
      "anonymous": false,
      "inputs": [
        {
          "indexed": true,
          "internalType": "address",
          "name": "previousOwner",
          "type": "address"
        },
        {
          "indexed": true,
          "internalType": "address",
          "name": "newOwner",
          "type": "address"
        }
      ],
      "name": "OwnershipTransferred",
      "type": "event"
    },
    {
      "anonymous": false,
      "inputs": [
        {
          "indexed": false,
          "internalType": "address",
          "name": "account",
          "type": "address"
        }
      ],
      "name": "Paused",
      "type": "event"
    },
    {
      "anonymous": false,
      "inputs": [
        {
          "indexed": false,
          "internalType": "address",
          "name": "account",
          "type": "address"
        }
      ],
      "name": "Unpaused",
      "type": "event"
    },
    {
      "anonymous": false,
      "inputs": [
        {
          "indexed": true,
          "internalType": "address",
          "name": "implementation",
          "type": "address"
        }
      ],
      "name": "Upgraded",
      "type": "event"
    },
    {
      "inputs": [],
      "name": "UPGRADE_INTERFACE_VERSION",
      "outputs": [
        {
          "internalType": "string",
          "name": "",
          "type": "string"
        }
      ],
      "stateMutability": "view",
      "type": "function"
    },
    {
      "inputs": [],
      "name": "VERSION",
      "outputs": [
        {
          "internalType": "uint256",
          "name": "",
          "type": "uint256"
        }
      ],
      "stateMutability": "view",
      "type": "function"
    },
    {
      "inputs": [],
      "name": "anchorImplementation",
      "outputs": [
        {
          "internalType": "address",
          "name": "",
          "type": "address"
        }
      ],
      "stateMutability": "view",
      "type": "function"
    },
    {
      "inputs": [
        {
          "internalType": "bytes32",
          "name": "organizationId",
          "type": "bytes32"
        }
      ],
      "name": "deactivateOrganization",
      "outputs": [],
      "stateMutability": "nonpayable",
      "type": "function"
    },
    {
      "inputs": [
        {
          "internalType": "bytes32",
          "name": "organizationId",
          "type": "bytes32"
        }
      ],
      "name": "getCredentialAnchor",
      "outputs": [
        {
          "internalType": "address",
          "name": "",
          "type": "address"
        }
      ],
      "stateMutability": "view",
      "type": "function"
    },
    {
      "inputs": [
        {
          "internalType": "bytes32",
          "name": "organizationId",
          "type": "bytes32"
        }
      ],
      "name": "getOrganization",
      "outputs": [
        {
          "components": [
            {
              "internalType": "bytes32",
              "name": "organizationId",
              "type": "bytes32"
            },
            {
              "internalType": "string",
              "name": "name",
              "type": "string"
            },
            {
              "internalType": "address",
              "name": "owner",
              "type": "address"
            },
            {
              "internalType": "address",
              "name": "credentialAnchor",
              "type": "address"
            },
            {
              "internalType": "bool",
              "name": "active",
              "type": "bool"
            },
            {
              "internalType": "uint64",
              "name": "createdAt",
              "type": "uint64"
            }
          ],
          "internalType": "struct OrganizationRegistry.Organization",
          "name": "",
          "type": "tuple"
        }
      ],
      "stateMutability": "view",
      "type": "function"
    },
    {
      "inputs": [
        {
          "internalType": "address",
          "name": "owner_",
          "type": "address"
        }
      ],
      "name": "getOwnerOrganizations",
      "outputs": [
        {
          "internalType": "bytes32[]",
          "name": "",
          "type": "bytes32[]"
        }
      ],
      "stateMutability": "view",
      "type": "function"
    },
    {
      "inputs": [
        {
          "internalType": "address",
          "name": "owner_",
          "type": "address"
        },
        {
          "internalType": "address",
          "name": "anchorImplementation_",
          "type": "address"
        }
      ],
      "name": "initialize",
      "outputs": [],
      "stateMutability": "nonpayable",
      "type": "function"
    },
    {
      "inputs": [
        {
          "internalType": "bytes32",
          "name": "organizationId",
          "type": "bytes32"
        }
      ],
      "name": "isActive",
      "outputs": [
        {
          "internalType": "bool",
          "name": "",
          "type": "bool"
        }
      ],
      "stateMutability": "view",
      "type": "function"
    },
    {
      "inputs": [
        {
          "internalType": "bytes32",
          "name": "organizationId",
          "type": "bytes32"
        }
      ],
      "name": "organizationExists",
      "outputs": [
        {
          "internalType": "bool",
          "name": "",
          "type": "bool"
        }
      ],
      "stateMutability": "view",
      "type": "function"
    },
    {
      "inputs": [],
      "name": "owner",
      "outputs": [
        {
          "internalType": "address",
          "name": "",
          "type": "address"
        }
      ],
      "stateMutability": "view",
      "type": "function"
    },
    {
      "inputs": [],
      "name": "pause",
      "outputs": [],
      "stateMutability": "nonpayable",
      "type": "function"
    },
    {
      "inputs": [],
      "name": "paused",
      "outputs": [
        {
          "internalType": "bool",
          "name": "",
          "type": "bool"
        }
      ],
      "stateMutability": "view",
      "type": "function"
    },
    {
      "inputs": [],
      "name": "proxiableUUID",
      "outputs": [
        {
          "internalType": "bytes32",
          "name": "",
          "type": "bytes32"
        }
      ],
      "stateMutability": "view",
      "type": "function"
    },
    {
      "inputs": [
        {
          "internalType": "bytes32",
          "name": "organizationId",
          "type": "bytes32"
        }
      ],
      "name": "reactivateOrganization",
      "outputs": [],
      "stateMutability": "nonpayable",
      "type": "function"
    },
    {
      "inputs": [
        {
          "internalType": "bytes32",
          "name": "organizationId",
          "type": "bytes32"
        },
        {
          "internalType": "string",
          "name": "name",
          "type": "string"
        },
        {
          "internalType": "address",
          "name": "owner_",
          "type": "address"
        }
      ],
      "name": "registerOrganization",
      "outputs": [],
      "stateMutability": "nonpayable",
      "type": "function"
    },
    {
      "inputs": [],
      "name": "renounceOwnership",
      "outputs": [],
      "stateMutability": "nonpayable",
      "type": "function"
    },
    {
      "inputs": [
        {
          "internalType": "bytes32",
          "name": "organizationId",
          "type": "bytes32"
        },
        {
          "internalType": "address",
          "name": "newAnchor",
          "type": "address"
        }
      ],
      "name": "setCredentialAnchor",
      "outputs": [],
      "stateMutability": "nonpayable",
      "type": "function"
    },
    {
      "inputs": [
        {
          "internalType": "address",
          "name": "newOwner",
          "type": "address"
        }
      ],
      "name": "transferOwnership",
      "outputs": [],
      "stateMutability": "nonpayable",
      "type": "function"
    },
    {
      "inputs": [],
      "name": "unpause",
      "outputs": [],
      "stateMutability": "nonpayable",
      "type": "function"
    },
    {
      "inputs": [
        {
          "internalType": "address",
          "name": "newImplementation",
          "type": "address"
        },
        {
          "internalType": "bytes",
          "name": "data",
          "type": "bytes"
        }
      ],
      "name": "upgradeToAndCall",
      "outputs": [],
      "stateMutability": "payable",
      "type": "function"
    }
  ],
  "bytecode": "0x60a080604052346100cc57306080527ff0c57e16840df040f15088dc2f81fe391c3923bec73e23a9662efc9c229c6a009081549060ff8260401c166100bd57506001600160401b036002600160401b031982821601610078575b60405161144290816100d282396080518181816109600152610a1a0152f35b6001600160401b031990911681179091556040519081527fc7f505b2f371ae2175ee4913f4499e1f2633a7b5936321eed1cdaeb6115181d290602090a1388080610059565b63f92ee8a960e01b8152600490fd5b600080fdfe608080604052600436101561001357600080fd5b600090813560e01c90816322b3cd4e14610f22575080632a2f326214610e9a578063387ae2df14610df25780633f4ba83a14610d7a578063485cc95514610c005780634f1ef286146109ca57806352d1902d1461094d57806354f44f50146109245780635949f5fe146108ef5780635c36901c146108bb5780635c975abb1461088b578063715018a61461082157806375122198146107ba5780638456cb59146107525780638da5cb5b1461071c5780638fb71f88146106e157806394f96d9214610663578063ad3cb1cc14610619578063c9a49cd814610153578063f2fde38b146101265763ffa1ad741461010857600080fd5b34610123578060031936011261012357602060405160028152f35b80fd5b503461012357602036600319011261012357610150610143611116565b61014b6112c4565b611229565b80f35b50346101235760603660031901126101235767ffffffffffffffff6024358181116106155736602382011215610615578181600401351161061557366024826004013583010111610615576044356001600160a01b0381168103610611576101b96112c4565b6101c16112fd565b60043584528360205282600360408620015460a81c166105ff576001600160a01b038116156105ed578160040135156105db576002546e5af43d82803e903d91602b57fd5bf360405160208101906004358252602081526102218161115e565b519020608883901c62ffffff16763d602d80600a3d3981f3363d3d373d3d3d363d7300000017875260789290921b6effffffffffffffffffffffffffffff1916176020526001600160a01b03906037600987f5169283156105c957833b156105c557604051631a4438cd60e21b815260048035908201526001600160a01b0383166024820152858160448183895af180156105ba57610592575b50604051906102c98261112c565b60043582526102e0368560040135602487016111b8565b906020830191825260018060a01b03841660408401528560608401526001608084015280421660a084015260043587528660205260408720918351835551805191821161057e5761033460018401546111ef565b601f8111610539575b50602090601f83116001146104ca5760039392918991836104bf575b505060001982851b1c1916600191821b17908201555b6040838101516002830180546001600160a01b039283166001600160a01b03199091161790556060850151939092018054608086015160a09687015167ffffffffffffffff60a81b60a89190911b1660ff60a01b91151590971b169484166001600160e81b03199091161793909317939093179091558216855260016020528420805490680100000000000000008210156104ab576001820180825582101561049757907f20ac4a6f7fbdab312f371e7b83c5e603919cb138e7a2df23dc4923df4e7e138792918652600435906020872001556040519360408552836004013560408601528360040135602485016060870137856060856004013587010152602085015260018060a01b03169260608160043594601f8019916004013501168101030190a380f35b634e487b7160e01b86526032600452602486fd5b634e487b7160e01b86526041600452602486fd5b015190503880610359565b906001840189526020892091895b601f1985168110610521575091839160019360039695601f19811610610509575b505050811b01600182015561036f565b015160001983871b60f8161c191690553880806104f9565b919260206001819286850151815501940192016104d8565b60018401895260208920601f840160051c810160208510610577575b601f830160051c8201811061056b57505061033d565b60008155600101610555565b5080610555565b634e487b7160e01b88526041600452602488fd5b8181969296116105a65760405293386102bb565b634e487b7160e01b82526041600452602482fd5b6040513d88823e3d90fd5b8480fd5b60405163b06ebf3d60e01b8152600490fd5b60405163430f13b360e01b8152600490fd5b604051633649397d60e21b8152600490fd5b6040516369c24f0b60e01b8152600490fd5b8380fd5b8280fd5b503461012357806003193601126101235761065f6040516106398161115e565b60058152640352e302e360dc1b60208201526040519182916020835260208301906110bb565b0390f35b5034610123576020366003190112610123576004356106806112c4565b600361068b8261129d565b01805460ff8160a01c166106cf5760ff60a01b1916600160a01b1790557f8f4db2185972a55559da730c90a8acded3a7af760f4458a6483635e4f6c78e5d8280a280f35b604051639551f8b360e01b8152600490fd5b50346101235760203660031901126101235767ffffffffffffffff60036040602093600435815280855220015460a81c161515604051908152f35b50346101235780600319360112610123576000805160206113cd833981519152546040516001600160a01b039091168152602090f35b503461012357806003193601126101235761076b6112c4565b6107736112fd565b6000805160206113ed833981519152600160ff198254161790557f62e78cea01bee320cd4e420270b5ea74000d11b0c9f74754ebdbfc544b05a2586020604051338152a180f35b5034610123576020366003190112610123576004356107d76112c4565b60036107e28261129d565b01805460ff8160a01c16156106cf5760ff60a01b191690557fe7f23ad0482281bdca8c9022eca0694c84d1b459193746feaabfd12f144b82218280a280f35b503461012357806003193601126101235761083a6112c4565b6000805160206113cd83398151915280546001600160a01b0319811690915581906001600160a01b03167f8be0079c531659141344cd1fd0a4f28419497f9722a3daafe3b4186f6b6457e08280a380f35b5034610123578060031936011261012357602060ff6000805160206113ed83398151915254166040519015158152f35b50346101235760203660031901126101235760ff60036040602093600435815280855220015460a01c166040519015158152f35b50346101235760203660031901126101235760209060043581528082526003604060018060a01b039220015416604051908152f35b50346101235780600319360112610123576002546040516001600160a01b039091168152602090f35b50346101235780600319360112610123577f00000000000000000000000000000000000000000000000000000000000000006001600160a01b031630036109b85760206040517f360894a13ba1a3210667c828492db98dca3e2076cc3735a920a3ca505d382bbc8152f35b60405163703e46dd60e11b8152600490fd5b506040366003190112610123576109df611116565b60243567ffffffffffffffff8111610615573660238201121561061557610a109036906024816004013591016111b8565b6001600160a01b037f00000000000000000000000000000000000000000000000000000000000000008116308114908115610bd2575b506109b857610a536112c4565b6040516352d1902d60e01b8152908316926020918281600481885afa869181610b9f575b50610a9557604051634c9c8ce360e01b815260048101869052602490fd5b9385947f360894a13ba1a3210667c828492db98dca3e2076cc3735a920a3ca505d382bbc90818103610b875750823b15610b6e5780546001600160a01b0319168217905560405185917fbc7cd75a20ee27fd9adebab32041f755214dbc6bffa90cc0225b39da2e5c2d3b8380a2845115610b515750808484610b4496519101845af4903d15610b48573d610b288161119c565b90610b36604051928361117a565b81528581943d92013e611369565b5080f35b60609250611369565b935050505034610b5f575080f35b63b398979f60e01b8152600490fd5b604051634c9c8ce360e01b815260048101839052602490fd5b60249060405190632a87526960e21b82526004820152fd5b9091508381813d8311610bcb575b610bb7818361117a565b81010312610bc757519038610a77565b8680fd5b503d610bad565b9050817f360894a13ba1a3210667c828492db98dca3e2076cc3735a920a3ca505d382bbc5416141538610a46565b503461012357604036600319011261012357610c1a611116565b610c226110fb565b907ff0c57e16840df040f15088dc2f81fe391c3923bec73e23a9662efc9c229c6a0091825460ff8160401c16159267ffffffffffffffff821680159081610d72575b6001149081610d68575b159081610d5f575b50610d4d5767ffffffffffffffff1982166001178555610ca79184610d2e575b50610c9f611328565b61014b611328565b610caf611328565b6001600160a01b03168015610d1c576bffffffffffffffffffffffff60a01b6002541617600255610cde575080f35b68ff00000000000000001981541690557fc7f505b2f371ae2175ee4913f4499e1f2633a7b5936321eed1cdaeb6115181d2602060405160018152a180f35b6040516342bcdf7f60e11b8152600490fd5b68ffffffffffffffffff19166801000000000000000117855538610c96565b60405163f92ee8a960e01b8152600490fd5b90501538610c76565b303b159150610c6e565b859150610c64565b5034610123578060031936011261012357610d936112c4565b6000805160206113ed833981519152805460ff811615610de05760ff191690557f5db9ee0a495bf2e6ff9c91a7834c1ba4fdd244a5e8aa4e537bd38aeae4b073aa6020604051338152a180f35b604051638dfc202b60e01b8152600490fd5b5034610123576020908160031936011261012357906001600160a01b03610e17611116565b16825260018082526040832092604051808486549182815201908196845285842090845b818110610e875750505081610e5191038261117a565b6040519380850191818652518092526040850195925b828110610e745785870386f35b8351875295810195928101928401610e67565b8254845292870192918601918601610e3b565b503461012357604036600319011261012357600435610eb76110fb565b610ebf6112c4565b6001600160a01b039081168015610d1c577fb64a4e5f8a39f24326087967436e949d007c756770a1aef1bf7342fb42458019916040916003610f008661129d565b0180546001600160a01b0319811683179091558351921682526020820152a280f35b823461012357602091826003193601126110b75760a081610f43849361112c565b8281526060858201528260408201528260608201528260808201520152610f6b60043561129d565b60405191610f788361112c565b815483528360018084019260405193849282825492610f96846111ef565b80875293600181169081156110925750600114611055575b50505050610fbe9250038261117a565b83830190815260018060a01b03600381600285015416936040860194855201549060608501908083168252608086019160ff8460a01c16151583528161103367ffffffffffffffff968760a08b019760a81c1687526040519a8b9a818c5251908b01525160c060408b015260e08a01906110bb565b96511660608801525116608086015251151560a0850152511660c08301520390f35b815285812095935091905b81831061107a575088945050820101610fbe888080610fae565b85548784018501529485019486945091830191611060565b9350505050610fbe94925060ff191682840152151560051b8201018692888080610fae565b5080fd5b919082519283825260005b8481106110e7575050826000602080949584010152601f8019910116010190565b6020818301810151848301820152016110c6565b602435906001600160a01b038216820361111157565b600080fd5b600435906001600160a01b038216820361111157565b60c0810190811067ffffffffffffffff82111761114857604052565b634e487b7160e01b600052604160045260246000fd5b6040810190811067ffffffffffffffff82111761114857604052565b90601f8019910116810190811067ffffffffffffffff82111761114857604052565b67ffffffffffffffff811161114857601f01601f191660200190565b9291926111c48261119c565b916111d2604051938461117a565b829481845281830111611111578281602093846000960137010152565b90600182811c9216801561121f575b602083101461120957565b634e487b7160e01b600052602260045260246000fd5b91607f16916111fe565b6001600160a01b03908116908115611284576000805160206113cd83398151915280546001600160a01b031981168417909155167f8be0079c531659141344cd1fd0a4f28419497f9722a3daafe3b4186f6b6457e0600080a3565b604051631e4fbdf760e01b815260006004820152602490fd5b600052600060205260406000209067ffffffffffffffff600383015460a81c16156106cf57565b6000805160206113cd833981519152546001600160a01b031633036112e557565b60405163118cdaa760e01b8152336004820152602490fd5b60ff6000805160206113ed833981519152541661131657565b60405163d93c066560e01b8152600490fd5b60ff7ff0c57e16840df040f15088dc2f81fe391c3923bec73e23a9662efc9c229c6a005460401c161561135757565b604051631afcd79f60e31b8152600490fd5b90611390575080511561137e57805190602001fd5b60405163d6bda27560e01b8152600490fd5b815115806113c3575b6113a1575090565b604051639996b31560e01b81526001600160a01b039091166004820152602490fd5b50803b1561139956fe9016d09d72d40fdae2fd8ceac6b6234c7706214fd39c1cd1e609a0528c199300cd5ed15c6e187e77e9aee88184c21f4f2182ab5827cb3b7e07fbedcd63f03300a2646970667358221220d46d8f59040cca9b20883427a42188f6c514107122cc04d3f1d52156929716d464736f6c63430008180033",
  "linkReferences": {},
  "deployedLinkReferences": {}
}