{
  "_format": "hh-sol-artifact-1",
  "contractName": "MockV2_OrganizationRegistry",
  "sourceName": "src/mocks/MockV2.sol",
  "abi": [
    {
      "inputs": [
        {
          "internalType": "address",
          "name": "target",
          "type": "address"
        }
      ],
      "name": "AddressEmptyCode",
      "type": "error"
    },
    {
      "inputs": [],
      "name": "AnchorTimelockActive",
      "type": "error"
    },
    {
      "inputs": [],
      "name": "AnchorTimelockNotReady",
      "type": "error"
    },
    {
      "inputs": [
        {
          "internalType": "address",
          "name": "implementation",
          "type": "address"
        }
      ],
      "name": "ERC1967InvalidImplementation",
      "type": "error"
    },
    {
      "inputs": [],
      "name": "ERC1967NonPayable",
      "type": "error"
    },
    {
      "inputs": [],
      "name": "EnforcedPause",
      "type": "error"
    },
    {
      "inputs": [],
      "name": "ExpectedPause",
      "type": "error"
    },
    {
      "inputs": [],
      "name": "FailedCall",
      "type": "error"
    },
    {
      "inputs": [],
      "name": "FailedDeployment",
      "type": "error"
    },
    {
      "inputs": [
        {
          "internalType": "uint256",
          "name": "balance",
          "type": "uint256"
        },
        {
          "internalType": "uint256",
          "name": "needed",
          "type": "uint256"
        }
      ],
      "name": "InsufficientBalance",
      "type": "error"
    },
    {
      "inputs": [],
      "name": "InvalidAnchor",
      "type": "error"
    },
    {
      "inputs": [],
      "name": "InvalidInitialization",
      "type": "error"
    },
    {
      "inputs": [],
      "name": "InvalidName",
      "type": "error"
    },
    {
      "inputs": [],
      "name": "InvalidOwnerAddress",
      "type": "error"
    },
    {
      "inputs": [],
      "name": "NotInitializing",
      "type": "error"
    },
    {
      "inputs": [],
      "name": "OrganizationAlreadyActive",
      "type": "error"
    },
    {
      "inputs": [],
      "name": "OrganizationAlreadyExists",
      "type": "error"
    },
    {
      "inputs": [],
      "name": "OrganizationAlreadyInactive",
      "type": "error"
    },
    {
      "inputs": [],
      "name": "OrganizationNotFound",
      "type": "error"
    },
    {
      "inputs": [
        {
          "internalType": "address",
          "name": "owner",
          "type": "address"
        }
      ],
      "name": "OwnableInvalidOwner",
      "type": "error"
    },
    {
      "inputs": [
        {
          "internalType": "address",
          "name": "account",
          "type": "address"
        }
      ],
      "name": "OwnableUnauthorizedAccount",
      "type": "error"
    },
    {
      "inputs": [],
      "name": "UUPSUnauthorizedCallContext",
      "type": "error"
    },
    {
      "inputs": [
        {
          "internalType": "bytes32",
          "name": "slot",
          "type": "bytes32"
        }
      ],
      "name": "UUPSUnsupportedProxiableUUID",
      "type": "error"
    },
    {
      "inputs": [],
      "name": "ZeroAddressNotAllowed",
      "type": "error"
    },
    {
      "anonymous": false,
      "inputs": [
        {
          "indexed": true,
          "internalType": "bytes32",
          "name": "organizationId",
          "type": "bytes32"
        },
        {
          "indexed": false,
          "internalType": "address",
          "name": "previousAnchor",
          "type": "address"
        },
        {
          "indexed": false,
          "internalType": "address",
          "name": "newAnchor",
          "type": "address"
        },
        {
          "indexed": false,
          "internalType": "uint256",
          "name": "activationTime",
          "type": "uint256"
        }
      ],
      "name": "CredentialAnchorProposed",
      "type": "event"
    },
    {
      "anonymous": false,
      "inputs": [
        {
          "indexed": true,
          "internalType": "bytes32",
          "name": "organizationId",
          "type": "bytes32"
        },
        {
          "indexed": false,
          "internalType": "address",
          "name": "oldAnchor",
          "type": "address"
        },
        {
          "indexed": false,
          "internalType": "address",
          "name": "newAnchor",
          "type": "address"
        }
      ],
      "name": "CredentialAnchorUpdated",
      "type": "event"
    },
    {
      "anonymous": false,
      "inputs": [
        {
          "indexed": false,
          "internalType": "uint64",
          "name": "version",
          "type": "uint64"
        }
      ],
      "name": "Initialized",
      "type": "event"
    },
    {
      "anonymous": false,
      "inputs": [
        {
          "indexed": true,
          "internalType": "bytes32",
          "name": "organizationId",
          "type": "bytes32"
        }
      ],
      "name": "OrganizationDeactivated",
      "type": "event"
    },
    {
      "anonymous": false,
      "inputs": [
        {
          "indexed": true,
          "internalType": "bytes32",
          "name": "organizationId",
          "type": "bytes32"
        }
      ],
      "name": "OrganizationReactivated",
      "type": "event"
    },
    {
      "anonymous": false,
      "inputs": [
        {
          "indexed": true,
          "internalType": "bytes32",
          "name": "organizationId",
          "type": "bytes32"
        },
        {
          "indexed": false,
          "internalType": "string",
          "name": "name",
          "type": "string"
        },
        {
          "indexed": true,
          "internalType": "address",
          "name": "owner",
          "type": "address"
        },
        {
          "indexed": false,
          "internalType": "address",
          "name": "credentialAnchor",
          "type": "address"
        }
      ],
      "name": "OrganizationRegistered",
      "type": "event"
    },
    {
      "anonymous": false,
      "inputs": [
        {
          "indexed": true,
          "internalType": "address",
          "name": "previousOwner",
          "type": "address"
        },
        {
          "indexed": true,
          "internalType": "address",
          "name": "newOwner",
          "type": "address"
        }
      ],
      "name": "OwnershipTransferred",
      "type": "event"
    },
    {
      "anonymous": false,
      "inputs": [
        {
          "indexed": false,
          "internalType": "address",
          "name": "account",
          "type": "address"
        }
      ],
      "name": "Paused",
      "type": "event"
    },
    {
      "anonymous": false,
      "inputs": [
        {
          "indexed": false,
          "internalType": "address",
          "name": "account",
          "type": "address"
        }
      ],
      "name": "Unpaused",
      "type": "event"
    },
    {
      "anonymous": false,
      "inputs": [
        {
          "indexed": true,
          "internalType": "address",
          "name": "implementation",
          "type": "address"
        }
      ],
      "name": "Upgraded",
      "type": "event"
    },
    {
      "inputs": [],
      "name": "TIMELOCK_DELAY",
      "outputs": [
        {
          "internalType": "uint256",
          "name": "",
          "type": "uint256"
        }
      ],
      "stateMutability": "view",
      "type": "function"
    },
    {
      "inputs": [],
      "name": "UPGRADE_INTERFACE_VERSION",
      "outputs": [
        {
          "internalType": "string",
          "name": "",
          "type": "string"
        }
      ],
      "stateMutability": "view",
      "type": "function"
    },
    {
      "inputs": [],
      "name": "VERSION",
      "outputs": [
        {
          "internalType": "uint256",
          "name": "",
          "type": "uint256"
        }
      ],
      "stateMutability": "view",
      "type": "function"
    },
    {
      "inputs": [
        {
          "internalType": "bytes32",
          "name": "organizationId",
          "type": "bytes32"
        }
      ],
      "name": "acceptCredentialAnchor",
      "outputs": [],
      "stateMutability": "nonpayable",
      "type": "function"
    },
    {
      "inputs": [
        {
          "internalType": "bytes32",
          "name": "",
          "type": "bytes32"
        }
      ],
      "name": "anchorActivationTime",
      "outputs": [
        {
          "internalType": "uint256",
          "name": "",
          "type": "uint256"
        }
      ],
      "stateMutability": "view",
      "type": "function"
    },
    {
      "inputs": [],
      "name": "anchorImplementation",
      "outputs": [
        {
          "internalType": "address",
          "name": "",
          "type": "address"
        }
      ],
      "stateMutability": "view",
      "type": "function"
    },
    {
      "inputs": [
        {
          "internalType": "bytes32",
          "name": "organizationId",
          "type": "bytes32"
        }
      ],
      "name": "deactivateOrganization",
      "outputs": [],
      "stateMutability": "nonpayable",
      "type": "function"
    },
    {
      "inputs": [
        {
          "internalType": "bytes32",
          "name": "organizationId",
          "type": "bytes32"
        }
      ],
      "name": "getCredentialAnchor",
      "outputs": [
        {
          "internalType": "address",
          "name": "",
          "type": "address"
        }
      ],
      "stateMutability": "view",
      "type": "function"
    },
    {
      "inputs": [
        {
          "internalType": "bytes32",
          "name": "organizationId",
          "type": "bytes32"
        }
      ],
      "name": "getOrganization",
      "outputs": [
        {
          "components": [
            {
              "internalType": "bytes32",
              "name": "organizationId",
              "type": "bytes32"
            },
            {
              "internalType": "string",
              "name": "name",
              "type": "string"
            },
            {
              "internalType": "address",
              "name": "owner",
              "type": "address"
            },
            {
              "internalType": "address",
              "name": "credentialAnchor",
              "type": "address"
            },
            {
              "internalType": "bool",
              "name": "active",
              "type": "bool"
            },
            {
              "internalType": "uint64",
              "name": "createdAt",
              "type": "uint64"
            }
          ],
          "internalType": "struct OrganizationRegistry.Organization",
          "name": "",
          "type": "tuple"
        }
      ],
      "stateMutability": "view",
      "type": "function"
    },
    {
      "inputs": [
        {
          "internalType": "address",
          "name": "owner_",
          "type": "address"
        }
      ],
      "name": "getOwnerOrganizations",
      "outputs": [
        {
          "internalType": "bytes32[]",
          "name": "",
          "type": "bytes32[]"
        }
      ],
      "stateMutability": "view",
      "type": "function"
    },
    {
      "inputs": [
        {
          "internalType": "address",
          "name": "owner_",
          "type": "address"
        },
        {
          "internalType": "address",
          "name": "anchorImplementation_",
          "type": "address"
        }
      ],
      "name": "initialize",
      "outputs": [],
      "stateMutability": "nonpayable",
      "type": "function"
    },
    {
      "inputs": [
        {
          "internalType": "bytes32",
          "name": "organizationId",
          "type": "bytes32"
        }
      ],
      "name": "isActive",
      "outputs": [
        {
          "internalType": "bool",
          "name": "",
          "type": "bool"
        }
      ],
      "stateMutability": "view",
      "type": "function"
    },
    {
      "inputs": [
        {
          "internalType": "bytes32",
          "name": "organizationId",
          "type": "bytes32"
        }
      ],
      "name": "organizationExists",
      "outputs": [
        {
          "internalType": "bool",
          "name": "",
          "type": "bool"
        }
      ],
      "stateMutability": "view",
      "type": "function"
    },
    {
      "inputs": [],
      "name": "owner",
      "outputs": [
        {
          "internalType": "address",
          "name": "",
          "type": "address"
        }
      ],
      "stateMutability": "view",
      "type": "function"
    },
    {
      "inputs": [],
      "name": "pause",
      "outputs": [],
      "stateMutability": "nonpayable",
      "type": "function"
    },
    {
      "inputs": [],
      "name": "paused",
      "outputs": [
        {
          "internalType": "bool",
          "name": "",
          "type": "bool"
        }
      ],
      "stateMutability": "view",
      "type": "function"
    },
    {
      "inputs": [
        {
          "internalType": "bytes32",
          "name": "",
          "type": "bytes32"
        }
      ],
      "name": "pendingAnchor",
      "outputs": [
        {
          "internalType": "address",
          "name": "",
          "type": "address"
        }
      ],
      "stateMutability": "view",
      "type": "function"
    },
    {
      "inputs": [
        {
          "internalType": "bytes32",
          "name": "organizationId",
          "type": "bytes32"
        },
        {
          "internalType": "address",
          "name": "newAnchor",
          "type": "address"
        }
      ],
      "name": "proposeCredentialAnchor",
      "outputs": [],
      "stateMutability": "nonpayable",
      "type": "function"
    },
    {
      "inputs": [],
      "name": "proxiableUUID",
      "outputs": [
        {
          "internalType": "bytes32",
          "name": "",
          "type": "bytes32"
        }
      ],
      "stateMutability": "view",
      "type": "function"
    },
    {
      "inputs": [
        {
          "internalType": "bytes32",
          "name": "organizationId",
          "type": "bytes32"
        }
      ],
      "name": "reactivateOrganization",
      "outputs": [],
      "stateMutability": "nonpayable",
      "type": "function"
    },
    {
      "inputs": [
        {
          "internalType": "bytes32",
          "name": "organizationId",
          "type": "bytes32"
        },
        {
          "internalType": "string",
          "name": "name",
          "type": "string"
        },
        {
          "internalType": "address",
          "name": "owner_",
          "type": "address"
        }
      ],
      "name": "registerOrganization",
      "outputs": [],
      "stateMutability": "nonpayable",
      "type": "function"
    },
    {
      "inputs": [],
      "name": "renounceOwnership",
      "outputs": [],
      "stateMutability": "nonpayable",
      "type": "function"
    },
    {
      "inputs": [
        {
          "internalType": "address",
          "name": "newOwner",
          "type": "address"
        }
      ],
      "name": "transferOwnership",
      "outputs": [],
      "stateMutability": "nonpayable",
      "type": "function"
    },
    {
      "inputs": [],
      "name": "unpause",
      "outputs": [],
      "stateMutability": "nonpayable",
      "type": "function"
    },
    {
      "inputs": [
        {
          "internalType": "address",
          "name": "newImplementation",
          "type": "address"
        },
        {
          "internalType": "bytes",
          "name": "data",
          "type": "bytes"
        }
      ],
      "name": "upgradeToAndCall",
      "outputs": [],
      "stateMutability": "payable",
      "type": "function"
    }
  ],
  "bytecode": "0x60a080604052346100cc57306080527ff0c57e16840df040f15088dc2f81fe391c3923bec73e23a9662efc9c229c6a009081549060ff8260401c166100bd57506001600160401b036002600160401b031982821601610078575b60405161166d90816100d28239608051818181610be90152610ca30152f35b6001600160401b031990911681179091556040519081527fc7f505b2f371ae2175ee4913f4499e1f2633a7b5936321eed1cdaeb6115181d290602090a1388080610059565b63f92ee8a960e01b8152600490fd5b600080fdfe608080604052600436101561001357600080fd5b600090813560e01c90816322b3cd4e1461113f5750806334c1b6fd1461110c578063387ae2df146110645780633f4ba83a14610fec578063485cc95514610e895780634f1ef28614610c5357806352d1902d14610bd657806354f44f5014610bad5780635949f5fe14610b785780635ba1c1a914610b5a5780635c36901c14610b265780635c975abb14610af6578063715018a614610a8c5780637512219814610a135780638456cb59146109ab5780638a80c856146109815780638da5cb5b1461094b5780638fb71f881461091057806391c50d96146107f657806394f96d9214610778578063ad3cb1cc1461072e578063b6afa12414610645578063c9a49cd81461017f578063f2fde38b146101525763ffa1ad741461013457600080fd5b3461014f578060031936011261014f57602060405160028152f35b80fd5b503461014f57602036600319011261014f5761017c61016f611314565b6101776114ef565b611442565b80f35b503461014f57606036600319011261014f5767ffffffffffffffff6024358181116106415736602382011215610641578181600401351161064157366024826004013583010111610641576044356001600160a01b038116810361063d576101e56114ef565b6101ed611528565b60043584528360205282600360408620015460a81c1661062b576001600160a01b0381161561061957816004013515610607576002546e5af43d82803e903d91602b57fd5bf3604051602081019060043582526020815261024d81611377565b519020608883901c62ffffff16763d602d80600a3d3981f3363d3d373d3d3d363d7300000017875260789290921b6effffffffffffffffffffffffffffff1916176020526001600160a01b03906037600987f5169283156105f557833b156105f157604051631a4438cd60e21b815260048035908201526001600160a01b0383166024820152858160448183895af180156105e6576105be575b50604051906102f582611345565b600435825261030c368560040135602487016113d1565b906020830191825260018060a01b03841660408401528560608401526001608084015280421660a08401526004358752866020526040872091835183555180519182116105aa576103606001840154611408565b601f8111610565575b50602090601f83116001146104f65760039392918991836104eb575b505060001982851b1c1916600191821b17908201555b6040838101516002830180546001600160a01b039283166001600160a01b03199091161790556060850151939092018054608086015160a09687015167ffffffffffffffff60a81b60a89190911b1660ff60a01b91151590971b169484166001600160e81b03199091161793909317939093179091558216855260016020528420805490680100000000000000008210156104d757600182018082558210156104c357907f20ac4a6f7fbdab312f371e7b83c5e603919cb138e7a2df23dc4923df4e7e138792918652600435906020872001556040519360408552836004013560408601528360040135602485016060870137856060856004013587010152602085015260018060a01b03169260608160043594601f8019916004013501168101030190a380f35b634e487b7160e01b86526032600452602486fd5b634e487b7160e01b86526041600452602486fd5b015190503880610385565b906001840189526020892091895b601f198516811061054d575091839160019360039695601f19811610610535575b505050811b01600182015561039b565b015160001983871b60f8161c19169055388080610525565b91926020600181928685015181550194019201610504565b60018401895260208920601f840160051c8101602085106105a3575b601f830160051c82018110610597575050610369565b60008155600101610581565b5080610581565b634e487b7160e01b88526041600452602488fd5b8181969296116105d25760405293386102e7565b634e487b7160e01b82526041600452602482fd5b6040513d88823e3d90fd5b8480fd5b60405163b06ebf3d60e01b8152600490fd5b60405163430f13b360e01b8152600490fd5b604051633649397d60e21b8152600490fd5b6040516369c24f0b60e01b8152600490fd5b8380fd5b8280fd5b503461014f5760208060031936011261072a57600435906106646114ef565b8183526003815260408320546001600160a01b0390811615610718578284526004825260408420544210610706577fb64a4e5f8a39f24326087967436e949d007c756770a1aef1bf7342fb424580199160409160036106c2866114b6565b01918183549387895260038352858920828154166001600160601b0360a01b908188161783558154169055600483528886812055541691845193168352820152a280f35b604051637b8fe31960e11b8152600490fd5b60405163080631d560e01b8152600490fd5b5080fd5b503461014f578060031936011261014f5761077460405161074e81611377565b60058152640352e302e360dc1b60208201526040519182916020835260208301906112d4565b0390f35b503461014f57602036600319011261014f576004356107956114ef565b60036107a0826114b6565b01805460ff8160a01c166107e45760ff60a01b1916600160a01b1790557f8f4db2185972a55559da730c90a8acded3a7af760f4458a6483635e4f6c78e5d8280a280f35b60405163266c509560e01b8152600490fd5b503461014f57604036600319011261014f5760043561081361132f565b61081b6114ef565b6001600160a01b038181169182156108fe573b156107185761083c836114b6565b5082845260209060038252806040862054166108ec578385526003825260408520836001600160601b0360a01b8254161790556201518042018042116108d857917f52492636169055795cac088e3977d8b8866fa8d66779da50fe32e5f192d321ac939160609386885260048352604088205586825260036040882001541691600482526040872054916040519384528301526040820152a280f35b634e487b7160e01b86526011600452602486fd5b60405163723a7e7760e01b8152600490fd5b6040516342bcdf7f60e11b8152600490fd5b503461014f57602036600319011261014f5767ffffffffffffffff60036040602093600435815280855220015460a81c161515604051908152f35b503461014f578060031936011261014f576000805160206115f8833981519152546040516001600160a01b039091168152602090f35b503461014f57602036600319011261014f5760406020916004358152600483522054604051908152f35b503461014f578060031936011261014f576109c46114ef565b6109cc611528565b600080516020611618833981519152600160ff198254161790557f62e78cea01bee320cd4e420270b5ea74000d11b0c9f74754ebdbfc544b05a2586020604051338152a180f35b503461014f57602036600319011261014f57600435610a306114ef565b6003610a3b826114b6565b01805460ff8160a01c1615610a7a5760ff60a01b191690557fe7f23ad0482281bdca8c9022eca0694c84d1b459193746feaabfd12f144b82218280a280f35b60405163034ca71b60e61b8152600490fd5b503461014f578060031936011261014f57610aa56114ef565b6000805160206115f883398151915280546001600160a01b0319811690915581906001600160a01b03167f8be0079c531659141344cd1fd0a4f28419497f9722a3daafe3b4186f6b6457e08280a380f35b503461014f578060031936011261014f57602060ff60008051602061161883398151915254166040519015158152f35b503461014f57602036600319011261014f5760ff60036040602093600435815280855220015460a01c166040519015158152f35b503461014f578060031936011261014f576020604051620151808152f35b503461014f57602036600319011261014f5760209060043581528082526003604060018060a01b039220015416604051908152f35b503461014f578060031936011261014f576002546040516001600160a01b039091168152602090f35b503461014f578060031936011261014f577f00000000000000000000000000000000000000000000000000000000000000006001600160a01b03163003610c415760206040517f360894a13ba1a3210667c828492db98dca3e2076cc3735a920a3ca505d382bbc8152f35b60405163703e46dd60e11b8152600490fd5b50604036600319011261014f57610c68611314565b60243567ffffffffffffffff8111610641573660238201121561064157610c999036906024816004013591016113d1565b6001600160a01b037f00000000000000000000000000000000000000000000000000000000000000008116308114908115610e5b575b50610c4157610cdc6114ef565b6040516352d1902d60e01b8152908316926020918281600481885afa869181610e28575b50610d1e57604051634c9c8ce360e01b815260048101869052602490fd5b9385947f360894a13ba1a3210667c828492db98dca3e2076cc3735a920a3ca505d382bbc90818103610e105750823b15610df75780546001600160a01b0319168217905560405185917fbc7cd75a20ee27fd9adebab32041f755214dbc6bffa90cc0225b39da2e5c2d3b8380a2845115610dda5750808484610dcd96519101845af4903d15610dd1573d610db1816113b5565b90610dbf6040519283611393565b81528581943d92013e611594565b5080f35b60609250611594565b935050505034610de8575080f35b63b398979f60e01b8152600490fd5b604051634c9c8ce360e01b815260048101839052602490fd5b60249060405190632a87526960e21b82526004820152fd5b9091508381813d8311610e54575b610e408183611393565b81010312610e5057519038610d00565b8680fd5b503d610e36565b9050817f360894a13ba1a3210667c828492db98dca3e2076cc3735a920a3ca505d382bbc5416141538610ccf565b503461014f57604036600319011261014f57610ea3611314565b610eab61132f565b907ff0c57e16840df040f15088dc2f81fe391c3923bec73e23a9662efc9c229c6a0091825460ff8160401c16159267ffffffffffffffff821680159081610fe4575b6001149081610fda575b159081610fd1575b50610fbf5767ffffffffffffffff1982166001178555610f309184610fa0575b50610f28611553565b610177611553565b610f38611553565b6001600160a01b031680156108fe576001600160601b0360a01b6002541617600255610f62575080f35b68ff00000000000000001981541690557fc7f505b2f371ae2175ee4913f4499e1f2633a7b5936321eed1cdaeb6115181d2602060405160018152a180f35b68ffffffffffffffffff19166801000000000000000117855538610f1f565b60405163f92ee8a960e01b8152600490fd5b90501538610eff565b303b159150610ef7565b859150610eed565b503461014f578060031936011261014f576110056114ef565b600080516020611618833981519152805460ff8116156110525760ff191690557f5db9ee0a495bf2e6ff9c91a7834c1ba4fdd244a5e8aa4e537bd38aeae4b073aa6020604051338152a180f35b604051638dfc202b60e01b8152600490fd5b503461014f576020908160031936011261014f57906001600160a01b03611089611314565b16825260018082526040832092604051808486549182815201908196845285842090845b8181106110f957505050816110c3910382611393565b6040519380850191818652518092526040850195925b8281106110e65785870386f35b83518752958101959281019284016110d9565b82548452928701929186019186016110ad565b503461014f57602036600319011261014f57602090600435815260038252604060018060a01b0391205416604051908152f35b823461014f576020918260031936011261072a5760a0816111608493611345565b82815260608582015282604082015282606082015282608082015201526111886004356114b6565b6040519161119583611345565b8154835283600180840192604051938492828254926111b384611408565b80875293600181169081156112af5750600114611272575b505050506111db92500382611393565b83830190815260018060a01b03600381600285015416936040860194855201549060608501908083168252608086019160ff8460a01c16151583528161125067ffffffffffffffff968760a08b019760a81c1687526040519a8b9a818c5251908b01525160c060408b015260e08a01906112d4565b96511660608801525116608086015251151560a0850152511660c08301520390f35b815285812095935091905b8183106112975750889450508201016111db8880806111cb565b8554878401850152948501948694509183019161127d565b93505050506111db94925060ff191682840152151560051b82010186928880806111cb565b919082519283825260005b848110611300575050826000602080949584010152601f8019910116010190565b6020818301810151848301820152016112df565b600435906001600160a01b038216820361132a57565b600080fd5b602435906001600160a01b038216820361132a57565b60c0810190811067ffffffffffffffff82111761136157604052565b634e487b7160e01b600052604160045260246000fd5b6040810190811067ffffffffffffffff82111761136157604052565b90601f8019910116810190811067ffffffffffffffff82111761136157604052565b67ffffffffffffffff811161136157601f01601f191660200190565b9291926113dd826113b5565b916113eb6040519384611393565b82948184528183011161132a578281602093846000960137010152565b90600182811c92168015611438575b602083101461142257565b634e487b7160e01b600052602260045260246000fd5b91607f1691611417565b6001600160a01b0390811690811561149d576000805160206115f883398151915280546001600160a01b031981168417909155167f8be0079c531659141344cd1fd0a4f28419497f9722a3daafe3b4186f6b6457e0600080a3565b604051631e4fbdf760e01b815260006004820152602490fd5b600052600060205260406000209067ffffffffffffffff600383015460a81c16156114dd57565b604051639551f8b360e01b8152600490fd5b6000805160206115f8833981519152546001600160a01b0316330361151057565b60405163118cdaa760e01b8152336004820152602490fd5b60ff600080516020611618833981519152541661154157565b60405163d93c066560e01b8152600490fd5b60ff7ff0c57e16840df040f15088dc2f81fe391c3923bec73e23a9662efc9c229c6a005460401c161561158257565b604051631afcd79f60e31b8152600490fd5b906115bb57508051156115a957805190602001fd5b60405163d6bda27560e01b8152600490fd5b815115806115ee575b6115cc575090565b604051639996b31560e01b81526001600160a01b039091166004820152602490fd5b50803b156115c456fe9016d09d72d40fdae2fd8ceac6b6234c7706214fd39c1cd1e609a0528c199300cd5ed15c6e187e77e9aee88184c21f4f2182ab5827cb3b7e07fbedcd63f03300a2646970667358221220a532ed395fcf55d9a50acfa47396737923bc3e551158a45fbc6c963119125cff64736f6c63430008180033",
  "linkReferences": {},
  "deployedLinkReferences": {}
}