{
  "_format": "hh-sol-artifact-1",
  "contractName": "DelegationManager",
  "sourceName": "src/DelegationManager.sol",
  "abi": [
    {
      "inputs": [],
      "stateMutability": "nonpayable",
      "type": "constructor"
    },
    {
      "inputs": [],
      "name": "AlreadyRevokedDelegation",
      "type": "error"
    },
    {
      "inputs": [],
      "name": "EmptyChain",
      "type": "error"
    },
    {
      "inputs": [],
      "name": "NotAuthorizedForDelegation",
      "type": "error"
    },
    {
      "anonymous": false,
      "inputs": [
        {
          "indexed": false,
          "internalType": "address",
          "name": "previousAdmin",
          "type": "address"
        },
        {
          "indexed": false,
          "internalType": "address",
          "name": "newAdmin",
          "type": "address"
        }
      ],
      "name": "AdminChanged",
      "type": "event"
    },
    {
      "anonymous": false,
      "inputs": [
        {
          "indexed": true,
          "internalType": "address",
          "name": "beacon",
          "type": "address"
        }
      ],
      "name": "BeaconUpgraded",
      "type": "event"
    },
    {
      "anonymous": false,
      "inputs": [
        {
          "indexed": true,
          "internalType": "bytes32",
          "name": "delegationLeafHash",
          "type": "bytes32"
        }
      ],
      "name": "DelegationRevoked",
      "type": "event"
    },
    {
      "anonymous": false,
      "inputs": [
        {
          "indexed": true,
          "internalType": "address",
          "name": "delegator",
          "type": "address"
        },
        {
          "indexed": false,
          "internalType": "bytes32",
          "name": "newRoot",
          "type": "bytes32"
        }
      ],
      "name": "DelegationRootUpdated",
      "type": "event"
    },
    {
      "anonymous": false,
      "inputs": [
        {
          "indexed": false,
          "internalType": "uint8",
          "name": "version",
          "type": "uint8"
        }
      ],
      "name": "Initialized",
      "type": "event"
    },
    {
      "anonymous": false,
      "inputs": [
        {
          "indexed": true,
          "internalType": "address",
          "name": "previousOwner",
          "type": "address"
        },
        {
          "indexed": true,
          "internalType": "address",
          "name": "newOwner",
          "type": "address"
        }
      ],
      "name": "OwnershipTransferred",
      "type": "event"
    },
    {
      "anonymous": false,
      "inputs": [
        {
          "indexed": false,
          "internalType": "address",
          "name": "account",
          "type": "address"
        }
      ],
      "name": "Paused",
      "type": "event"
    },
    {
      "anonymous": false,
      "inputs": [
        {
          "indexed": false,
          "internalType": "address",
          "name": "account",
          "type": "address"
        }
      ],
      "name": "Unpaused",
      "type": "event"
    },
    {
      "anonymous": false,
      "inputs": [
        {
          "indexed": true,
          "internalType": "address",
          "name": "implementation",
          "type": "address"
        }
      ],
      "name": "Upgraded",
      "type": "event"
    },
    {
      "inputs": [
        {
          "internalType": "address",
          "name": "",
          "type": "address"
        }
      ],
      "name": "delegationRoots",
      "outputs": [
        {
          "internalType": "bytes32",
          "name": "",
          "type": "bytes32"
        }
      ],
      "stateMutability": "view",
      "type": "function"
    },
    {
      "inputs": [
        {
          "internalType": "address",
          "name": "delegator",
          "type": "address"
        }
      ],
      "name": "getDelegationRoot",
      "outputs": [
        {
          "internalType": "bytes32",
          "name": "",
          "type": "bytes32"
        }
      ],
      "stateMutability": "view",
      "type": "function"
    },
    {
      "inputs": [
        {
          "internalType": "address",
          "name": "owner_",
          "type": "address"
        }
      ],
      "name": "initialize",
      "outputs": [],
      "stateMutability": "nonpayable",
      "type": "function"
    },
    {
      "inputs": [],
      "name": "owner",
      "outputs": [
        {
          "internalType": "address",
          "name": "",
          "type": "address"
        }
      ],
      "stateMutability": "view",
      "type": "function"
    },
    {
      "inputs": [],
      "name": "pause",
      "outputs": [],
      "stateMutability": "nonpayable",
      "type": "function"
    },
    {
      "inputs": [],
      "name": "paused",
      "outputs": [
        {
          "internalType": "bool",
          "name": "",
          "type": "bool"
        }
      ],
      "stateMutability": "view",
      "type": "function"
    },
    {
      "inputs": [],
      "name": "proxiableUUID",
      "outputs": [
        {
          "internalType": "bytes32",
          "name": "",
          "type": "bytes32"
        }
      ],
      "stateMutability": "view",
      "type": "function"
    },
    {
      "inputs": [],
      "name": "renounceOwnership",
      "outputs": [],
      "stateMutability": "nonpayable",
      "type": "function"
    },
    {
      "inputs": [
        {
          "internalType": "bytes32",
          "name": "delegationLeafHash",
          "type": "bytes32"
        },
        {
          "internalType": "address",
          "name": "delegator",
          "type": "address"
        }
      ],
      "name": "revokeDelegation",
      "outputs": [],
      "stateMutability": "nonpayable",
      "type": "function"
    },
    {
      "inputs": [
        {
          "internalType": "bytes32",
          "name": "",
          "type": "bytes32"
        }
      ],
      "name": "revokedDelegations",
      "outputs": [
        {
          "internalType": "bool",
          "name": "",
          "type": "bool"
        }
      ],
      "stateMutability": "view",
      "type": "function"
    },
    {
      "inputs": [
        {
          "internalType": "address",
          "name": "",
          "type": "address"
        }
      ],
      "name": "rootUpdaters",
      "outputs": [
        {
          "internalType": "bool",
          "name": "",
          "type": "bool"
        }
      ],
      "stateMutability": "view",
      "type": "function"
    },
    {
      "inputs": [
        {
          "internalType": "address",
          "name": "updater",
          "type": "address"
        },
        {
          "internalType": "bool",
          "name": "allowed",
          "type": "bool"
        }
      ],
      "name": "setRootUpdater",
      "outputs": [],
      "stateMutability": "nonpayable",
      "type": "function"
    },
    {
      "inputs": [
        {
          "internalType": "address",
          "name": "newOwner",
          "type": "address"
        }
      ],
      "name": "transferOwnership",
      "outputs": [],
      "stateMutability": "nonpayable",
      "type": "function"
    },
    {
      "inputs": [],
      "name": "unpause",
      "outputs": [],
      "stateMutability": "nonpayable",
      "type": "function"
    },
    {
      "inputs": [
        {
          "internalType": "address",
          "name": "delegator",
          "type": "address"
        },
        {
          "internalType": "bytes32",
          "name": "newRoot",
          "type": "bytes32"
        }
      ],
      "name": "updateDelegationRoot",
      "outputs": [],
      "stateMutability": "nonpayable",
      "type": "function"
    },
    {
      "inputs": [
        {
          "internalType": "address",
          "name": "newImplementation",
          "type": "address"
        }
      ],
      "name": "upgradeTo",
      "outputs": [],
      "stateMutability": "nonpayable",
      "type": "function"
    },
    {
      "inputs": [
        {
          "internalType": "address",
          "name": "newImplementation",
          "type": "address"
        },
        {
          "internalType": "bytes",
          "name": "data",
          "type": "bytes"
        }
      ],
      "name": "upgradeToAndCall",
      "outputs": [],
      "stateMutability": "payable",
      "type": "function"
    },
    {
      "inputs": [
        {
          "internalType": "bytes32",
          "name": "delegationLeaf",
          "type": "bytes32"
        },
        {
          "internalType": "bytes32[]",
          "name": "merkleProof",
          "type": "bytes32[]"
        },
        {
          "internalType": "address",
          "name": "delegator",
          "type": "address"
        },
        {
          "internalType": "bytes32",
          "name": "scopeHash",
          "type": "bytes32"
        },
        {
          "internalType": "uint64",
          "name": "expiresAt",
          "type": "uint64"
        },
        {
          "internalType": "uint8",
          "name": "maxDepth",
          "type": "uint8"
        }
      ],
      "name": "verifyDelegation",
      "outputs": [
        {
          "internalType": "bool",
          "name": "",
          "type": "bool"
        }
      ],
      "stateMutability": "view",
      "type": "function"
    },
    {
      "inputs": [
        {
          "internalType": "bytes32[]",
          "name": "delegationLeaves",
          "type": "bytes32[]"
        },
        {
          "internalType": "bytes32[][]",
          "name": "merkleProofs",
          "type": "bytes32[][]"
        },
        {
          "internalType": "address[]",
          "name": "delegators",
          "type": "address[]"
        },
        {
          "internalType": "address[]",
          "name": "delegates",
          "type": "address[]"
        },
        {
          "internalType": "bytes32[]",
          "name": "scopeHashes",
          "type": "bytes32[]"
        },
        {
          "internalType": "uint64[]",
          "name": "expiries",
          "type": "uint64[]"
        },
        {
          "internalType": "uint8[]",
          "name": "maxDepths",
          "type": "uint8[]"
        }
      ],
      "name": "verifyDelegationChain",
      "outputs": [
        {
          "internalType": "bool",
          "name": "",
          "type": "bool"
        }
      ],
      "stateMutability": "view",
      "type": "function"
    },
    {
      "inputs": [
        {
          "internalType": "bytes32",
          "name": "delegationLeaf",
          "type": "bytes32"
        },
        {
          "internalType": "bytes32[]",
          "name": "merkleProof",
          "type": "bytes32[]"
        },
        {
          "internalType": "address",
          "name": "delegator",
          "type": "address"
        },
        {
          "internalType": "string",
          "name": "action",
          "type": "string"
        },
        {
          "internalType": "uint64",
          "name": "expiresAt",
          "type": "uint64"
        },
        {
          "internalType": "uint8",
          "name": "maxDepth",
          "type": "uint8"
        }
      ],
      "name": "verifyDelegationForAction",
      "outputs": [
        {
          "internalType": "bool",
          "name": "",
          "type": "bool"
        }
      ],
      "stateMutability": "view",
      "type": "function"
    }
  ],
  "bytecode": "0x60a080604052346100dc57306080526000549060ff8260081c1661008a575060ff8082160361004f575b6040516118cb90816100e2823960805181818161081d015281816109430152610cf60152f35b60ff90811916176000557f7f26b83ff96e1f2b6a682f133852f6798a09c465da95921460cefb3847402498602060405160ff8152a138610029565b62461bcd60e51b815260206004820152602760248201527f496e697469616c697a61626c653a20636f6e747261637420697320696e697469604482015266616c697a696e6760c81b6064820152608490fd5b600080fdfe6080604081815260048036101561001557600080fd5b600092833560e01c9081631422050114610eec57508063232acf5e14610ebf5780632d9fa06f14610bc25780633659cfe614610ccf578063372b102d14610c905780633f4ba83a14610bfb5780634bf04c7314610bc25780634f1ef286146108ca57806352d1902d1461080857806353739410146107b15780635c975abb1461078d578063715018a6146107305780638456cb591461069d5780638da5cb5b1461067057806396f16c171461057e578063afa6a1cf14610519578063be2ca9d01461045f578063c4d66de81461025d578063f2fde38b146101cc5763f53da7cd146100ff57600080fd5b346101c85760c03660031901126101c8576001600160401b03906024358281116101c457610130903690830161103c565b61013b929192610f9e565b906064358581116101c057366023820112156101c057808401359586116101c05736602487830101116101c0579160209793916101b796959361017c61106c565b956101ab8b610189611082565b998c519381859260248585019801883782019083820152038084520182611000565b519020933393356113fa565b90519015158152f35b8780fd5b8480fd5b8280fd5b50346101c85760203660031901126101c8576101e6610f83565b916101ef611359565b6001600160a01b0383161561020b5783610208846113b1565b80f35b906020608492519162461bcd60e51b8352820152602660248201527f4f776e61626c653a206e6577206f776e657220697320746865207a65726f206160448201526564647265737360d01b6064820152fd5b50346101c85760203660031901126101c857610277610f83565b83549160ff8360081c161592838094610452575b801561043b575b156103e15760ff19808216600117875561030c91856103d0575b506102c660ff885460081c166102c1816116b1565b6116b1565b6102cf336113b1565b60ff875460081c16906102e1826116b1565b6102ea826116b1565b600180556102f7826116b1565b610300826116b1565b606554166065556116b1565b6001600160a01b03821633810361035f575b505050610329575080f35b60207f7f26b83ff96e1f2b6a682f133852f6798a09c465da95921460cefb38474024989161ff001984541684555160018152a180f35b610367611359565b1561037e5750610376906113b1565b38808061031e565b608490602085519162461bcd60e51b8352820152602660248201527f4f776e61626c653a206e6577206f776e657220697320746865207a65726f206160448201526564647265737360d01b6064820152fd5b61ffff1916610101178755386102ac565b845162461bcd60e51b8152602081840152602e60248201527f496e697469616c697a61626c653a20636f6e747261637420697320616c72656160448201526d191e481a5b9a5d1a585b1a5e995960921b6064820152608490fd5b50303b1580156102925750600160ff821614610292565b50600160ff82161061028b565b5090346101c857806003193601126101c8578135916001600160a01b0360243581811690819003610515573314159081610506575b506104f85782845261012e908160205260ff83862054166104ea57508284526020528220805460ff191660011790557f6eb24ce38eb0f7d1e3b4291d5543c7286f02be3daed061b0f7eb6491213deb218280a280f35b8251635f7e390160e01b8152fd5b9051634c89e43b60e01b8152fd5b905060fb541633141538610494565b8580fd5b50913461057b5760c036600319011261057b57602435906001600160401b03821161057b57506020926105526101b7923690830161103c565b919061055c610f9e565b9161056561106c565b9261056e611082565b94606435933393356113fa565b80fd5b50346101c85760e03660031901126101c8576001600160401b0381358181116101c4576105ae903690840161103c565b9490926024358381116101c8576105c8903690830161103c565b6044929192358581116101c4576105e2903690840161103c565b60649291923587811161066c576105fc903690860161103c565b93909260843589811161066857610616903690880161103c565b97909660a4358b811161066457610630903690830161103c565b9b909a60c43591821161057b57509161065c60209f9c9a989694926101b79e9c9a98969436910161103c565b9c909b61118e565b8a80fd5b8880fd5b8680fd5b50503461069957816003193601126106995760fb5490516001600160a01b039091168152602090f35b5080fd5b50346101c857826003193601126101c8576106b6611359565b6065549060ff82166106fa575060ff1916600117606555513381527f62e78cea01bee320cd4e420270b5ea74000d11b0c9f74754ebdbfc544b05a25890602090a180f35b606490602084519162461bcd60e51b8352820152601060248201526f14185d5cd8589b194e881c185d5cd95960821b6044820152fd5b833461057b578060031936011261057b57610749611359565b60fb80546001600160a01b0319811690915581906001600160a01b03167f8be0079c531659141344cd1fd0a4f28419497f9722a3daafe3b4186f6b6457e08280a380f35b50503461069957816003193601126106995760209060ff6065541690519015158152f35b5050346106995780600319360112610699576107cb610f83565b9060243591821515809303610804576107e2611359565b60018060a01b0316835261012f60205282209060ff8019835416911617905580f35b8380fd5b50823461057b578060031936011261057b57507f00000000000000000000000000000000000000000000000000000000000000006001600160a01b0316300361086257602082516000805160206118768339815191528152f35b6020608492519162461bcd60e51b8352820152603860248201527f555550535570677261646561626c653a206d757374206e6f742062652063616c60448201527f6c6564207468726f7567682064656c656761746563616c6c00000000000000006064820152fd5b5090806003193601126101c8576108df610f83565b90602435906001600160401b0382116101c457366023830112156101c4578184013561090a81611021565b61091683519182611000565b818152866020948583019336602482840101116101c8578060248893018637830101526001600160a01b037f000000000000000000000000000000000000000000000000000000000000000081169061097130831415611092565b61098e6000805160206118768339815191529282845416146110f3565b610996611359565b7f4910fdfa16fed3260ed0e7147f7cc6da11a60208b5b9406d12a635614ffd91435460ff16156109d0575050505050506102089150611711565b869293949596169085516352d1902d60e01b815287818a81865afa8a9181610b93575b50610a5257865162461bcd60e51b8152808a01899052602e60248201527f45524331393637557067726164653a206e657720696d706c656d656e7461746960448201526d6f6e206973206e6f74205555505360901b6064820152608490fd5b979192939695949703610b3e5750610a6982611711565b7fbc7cd75a20ee27fd9adebab32041f755214dbc6bffa90cc0225b39da2e5c2d3b8780a285845115801590610b36575b610aa7575b50505050505080f35b80610b2096845196610ab888610fb4565b602788527f416464726573733a206c6f772d6c6576656c2064656c65676174652063616c6c87890152660819985a5b195960ca1b868901525190845af4913d15610b2c573d610b12610b0982611021565b92519283611000565b81528681943d92013e6117a1565b50388080808085610a9e565b50606092506117a1565b506001610a99565b835162461bcd60e51b8152908101859052602960248201527f45524331393637557067726164653a20756e737570706f727465642070726f786044820152681a58589b195555525160ba1b6064820152608490fd5b9091508881813d8311610bbb575b610bab8183611000565b81010312610664575190386109f3565b503d610ba1565b5050346106995760203660031901126106995760209181906001600160a01b03610bea610f83565b16815261012d845220549051908152f35b50346101c857826003193601126101c857610c14611359565b6065549060ff821615610c56575060ff1916606555513381527f5db9ee0a495bf2e6ff9c91a7834c1ba4fdd244a5e8aa4e537bd38aeae4b073aa90602090a180f35b606490602084519162461bcd60e51b8352820152601460248201527314185d5cd8589b194e881b9bdd081c185d5cd95960621b6044820152fd5b5050346106995760203660031901126106995760209160ff9082906001600160a01b03610cbb610f83565b16815261012f855220541690519015158152f35b5090346101c85760208060031936011261080457610ceb610f83565b916001600160a01b037f00000000000000000000000000000000000000000000000000000000000000008116610d2330821415611092565b610d406000805160206118768339815191529183835416146110f3565b610d48611359565b825190848201928284106001600160401b03851117610eac578385528883527f4910fdfa16fed3260ed0e7147f7cc6da11a60208b5b9406d12a635614ffd91435460ff1615610da1575050505050506102089150611711565b869293949596169085516352d1902d60e01b815287818a81865afa8a9181610e7d575b50610e2357865162461bcd60e51b8152808a01899052602e60248201527f45524331393637557067726164653a206e657720696d706c656d656e7461746960448201526d6f6e206973206e6f74205555505360901b6064820152608490fd5b979192939695949703610b3e5750610e3a82611711565b7fbc7cd75a20ee27fd9adebab32041f755214dbc6bffa90cc0225b39da2e5c2d3b8780a285845115801590610e7657610aa75750505050505080f35b5080610a99565b9091508881813d8311610ea5575b610e958183611000565b8101031261066457519038610dc4565b503d610e8b565b634e487b7160e01b895260418852602489fd5b50346101c85760203660031901126101c8578160209360ff9235815261012e855220541690519015158152f35b92905034610804578060031936011261080457610f07610f83565b6001600160a01b03169260243592903385141580610f6c575b610f605750507feda38b4c19d200d522d6cafb61691a66a8d392081e10536a96529fe56ce5269c9160209184865261012d8352818187205551908152a280f35b634c89e43b60e01b8152fd5b5033865261012f60205260ff838720541615610f20565b600435906001600160a01b0382168203610f9957565b600080fd5b604435906001600160a01b0382168203610f9957565b606081019081106001600160401b03821117610fcf57604052565b634e487b7160e01b600052604160045260246000fd5b60c081019081106001600160401b03821117610fcf57604052565b90601f801991011681019081106001600160401b03821117610fcf57604052565b6001600160401b038111610fcf57601f01601f191660200190565b9181601f84011215610f99578235916001600160401b038311610f99576020808501948460051b010111610f9957565b608435906001600160401b0382168203610f9957565b60a4359060ff82168203610f9957565b1561109957565b60405162461bcd60e51b815260206004820152602c60248201527f46756e6374696f6e206d7573742062652063616c6c6564207468726f7567682060448201526b19195b1959d85d1958d85b1b60a21b6064820152608490fd5b156110fa57565b60405162461bcd60e51b815260206004820152602c60248201527f46756e6374696f6e206d7573742062652063616c6c6564207468726f7567682060448201526b6163746976652070726f787960a01b6064820152608490fd5b91908110156111645760051b0190565b634e487b7160e01b600052603260045260246000fd5b356001600160a01b0381168103610f995790565b9296989599939b9c909c9a949a9791978d15611347576000978e5b89106111c357505050505050505050505050505050600190565b6000198f018f811161131a578f908a8e8e92821460001461133057506111ed915033925b88611154565b35828b1015611164578f8f928c918e600593841b81013590601e1990360301811215610f99578f01918235956001600160401b0393848811610f99576020889101951b36038513610f99578f8f908f8f95828f959461125b611256836112689861126196611154565b61117a565b96611154565b3595611154565b359384168403610f99578f9661127f888c8c611154565b359560ff8088168803610f995760018a01809a1161131a576112a2991697611558565b156112c6578d8915158a8f826112da575b505090506112c65760018f9901986111a9565b505050505050505050505050505050600090565b61125692506112e893611154565b6000198a018a811161131a578d61130c6112568f9360018060a01b03948594611154565b16911614158e908a8f6112b3565b634e487b7160e01b600052601160045260246000fd5b611256826111ed9461134193611154565b926111e7565b604051630b1bc1e560e21b8152600490fd5b60fb546001600160a01b0316330361136d57565b606460405162461bcd60e51b815260206004820152602060248201527f4f776e61626c653a2063616c6c6572206973206e6f7420746865206f776e65726044820152fd5b60fb80546001600160a01b039283166001600160a01b0319821681179092559091167f8be0079c531659141344cd1fd0a4f28419497f9722a3daafe3b4186f6b6457e0600080a3565b6001600160a01b03938416600081815261012d60209081526040808320549b969a979995989197909692959192908c1561153f5785875261012e60205260ff888820541661153f576001600160401b0316908115158061154f575b61153f5760ff169160019a8360011161152e578851602081019687529416848901526060840152608083015260a080830191909152815282919061149881610fe5565b519020036115235795949392919080955b8087106114bb57505050505050501490565b909192939486976114ce82988489611154565b358082101561150157855190878201928352868201528581526114f081610fb4565b5190205b97019594939291906114a9565b908551908782019283528682015285815261151b81610fb4565b5190206114f4565b509550505050505090565b505050505050509550505050505090565b5050505050509550505050505090565b50428210611455565b91969095979394929460018060a01b038096169160009483865260209761012d602052604097888820549c8d156116975787895261012e60205260ff8a8a205416611697576001600160401b031693841515806116a8575b6116975760ff90811694939291168410611687578851602081019687529416848901526060840152608083015260a08083019190915281528291906115f481610fe5565b5190200361167d57949392919080945b808610611615575050505050501490565b909192939495600190611629888489611154565b358082101561165b578551908782019283528682015285815261164b81610fb4565b5190205b96019493929190611604565b908551908782019283528682015285815261167581610fb4565b51902061164f565b5094505050505090565b5050505050505094505050505090565b505050505050505094505050505090565b504285106115b0565b156116b857565b60405162461bcd60e51b815260206004820152602b60248201527f496e697469616c697a61626c653a20636f6e7472616374206973206e6f74206960448201526a6e697469616c697a696e6760a81b6064820152608490fd5b803b156117465760008051602061187683398151915280546001600160a01b0319166001600160a01b03909216919091179055565b60405162461bcd60e51b815260206004820152602d60248201527f455243313936373a206e657720696d706c656d656e746174696f6e206973206e60448201526c1bdd08184818dbdb9d1c9858dd609a1b6064820152608490fd5b9192901561180357508151156117b5575090565b3b156117be5790565b60405162461bcd60e51b815260206004820152601d60248201527f416464726573733a2063616c6c20746f206e6f6e2d636f6e74726163740000006044820152606490fd5b8251909150156118165750805190602001fd5b6040519062461bcd60e51b82528160208060048301528251908160248401526000935b82851061185c575050604492506000838284010152601f80199101168101030190fd5b848101820151868601604401529381019385935061183956fe360894a13ba1a3210667c828492db98dca3e2076cc3735a920a3ca505d382bbca2646970667358221220289566abac419da3f7ad219eba355217d0c8d1e531631350f5ac426d495dec9064736f6c63430008180033",
  "linkReferences": {},
  "deployedLinkReferences": {}
}