{
  "_format": "hh-sol-artifact-1",
  "contractName": "DelegationManager",
  "sourceName": "src/DelegationManager.sol",
  "abi": [
    {
      "inputs": [],
      "stateMutability": "nonpayable",
      "type": "constructor"
    },
    {
      "anonymous": false,
      "inputs": [
        {
          "indexed": true,
          "internalType": "bytes32",
          "name": "delegationLeafHash",
          "type": "bytes32"
        }
      ],
      "name": "DelegationRevoked",
      "type": "event"
    },
    {
      "anonymous": false,
      "inputs": [
        {
          "indexed": true,
          "internalType": "address",
          "name": "delegator",
          "type": "address"
        },
        {
          "indexed": false,
          "internalType": "bytes32",
          "name": "newRoot",
          "type": "bytes32"
        }
      ],
      "name": "DelegationRootUpdated",
      "type": "event"
    },
    {
      "anonymous": false,
      "inputs": [
        {
          "indexed": false,
          "internalType": "address",
          "name": "account",
          "type": "address"
        }
      ],
      "name": "Paused",
      "type": "event"
    },
    {
      "anonymous": false,
      "inputs": [
        {
          "indexed": false,
          "internalType": "address",
          "name": "account",
          "type": "address"
        }
      ],
      "name": "Unpaused",
      "type": "event"
    },
    {
      "inputs": [
        {
          "internalType": "address",
          "name": "",
          "type": "address"
        }
      ],
      "name": "delegationRoots",
      "outputs": [
        {
          "internalType": "bytes32",
          "name": "",
          "type": "bytes32"
        }
      ],
      "stateMutability": "view",
      "type": "function"
    },
    {
      "inputs": [
        {
          "internalType": "address",
          "name": "delegator",
          "type": "address"
        }
      ],
      "name": "getDelegationRoot",
      "outputs": [
        {
          "internalType": "bytes32",
          "name": "",
          "type": "bytes32"
        }
      ],
      "stateMutability": "view",
      "type": "function"
    },
    {
      "inputs": [],
      "name": "owner",
      "outputs": [
        {
          "internalType": "address",
          "name": "",
          "type": "address"
        }
      ],
      "stateMutability": "view",
      "type": "function"
    },
    {
      "inputs": [],
      "name": "pause",
      "outputs": [],
      "stateMutability": "nonpayable",
      "type": "function"
    },
    {
      "inputs": [],
      "name": "paused",
      "outputs": [
        {
          "internalType": "bool",
          "name": "",
          "type": "bool"
        }
      ],
      "stateMutability": "view",
      "type": "function"
    },
    {
      "inputs": [
        {
          "internalType": "bytes32",
          "name": "delegationLeafHash",
          "type": "bytes32"
        },
        {
          "internalType": "address",
          "name": "delegator",
          "type": "address"
        }
      ],
      "name": "revokeDelegation",
      "outputs": [],
      "stateMutability": "nonpayable",
      "type": "function"
    },
    {
      "inputs": [
        {
          "internalType": "bytes32",
          "name": "",
          "type": "bytes32"
        }
      ],
      "name": "revokedDelegations",
      "outputs": [
        {
          "internalType": "bool",
          "name": "",
          "type": "bool"
        }
      ],
      "stateMutability": "view",
      "type": "function"
    },
    {
      "inputs": [
        {
          "internalType": "address",
          "name": "",
          "type": "address"
        }
      ],
      "name": "rootUpdaters",
      "outputs": [
        {
          "internalType": "bool",
          "name": "",
          "type": "bool"
        }
      ],
      "stateMutability": "view",
      "type": "function"
    },
    {
      "inputs": [
        {
          "internalType": "address",
          "name": "updater",
          "type": "address"
        },
        {
          "internalType": "bool",
          "name": "allowed",
          "type": "bool"
        }
      ],
      "name": "setRootUpdater",
      "outputs": [],
      "stateMutability": "nonpayable",
      "type": "function"
    },
    {
      "inputs": [
        {
          "internalType": "address",
          "name": "newOwner",
          "type": "address"
        }
      ],
      "name": "transferOwnership",
      "outputs": [],
      "stateMutability": "nonpayable",
      "type": "function"
    },
    {
      "inputs": [],
      "name": "unpause",
      "outputs": [],
      "stateMutability": "nonpayable",
      "type": "function"
    },
    {
      "inputs": [
        {
          "internalType": "address",
          "name": "delegator",
          "type": "address"
        },
        {
          "internalType": "bytes32",
          "name": "newRoot",
          "type": "bytes32"
        }
      ],
      "name": "updateDelegationRoot",
      "outputs": [],
      "stateMutability": "nonpayable",
      "type": "function"
    },
    {
      "inputs": [
        {
          "internalType": "bytes32",
          "name": "delegationLeaf",
          "type": "bytes32"
        },
        {
          "internalType": "bytes32[]",
          "name": "merkleProof",
          "type": "bytes32[]"
        },
        {
          "internalType": "address",
          "name": "delegator",
          "type": "address"
        },
        {
          "internalType": "bytes32",
          "name": "scopeHash",
          "type": "bytes32"
        },
        {
          "internalType": "uint64",
          "name": "expiresAt",
          "type": "uint64"
        },
        {
          "internalType": "uint8",
          "name": "maxDepth",
          "type": "uint8"
        }
      ],
      "name": "verifyDelegation",
      "outputs": [
        {
          "internalType": "bool",
          "name": "",
          "type": "bool"
        }
      ],
      "stateMutability": "view",
      "type": "function"
    },
    {
      "inputs": [
        {
          "internalType": "bytes32[]",
          "name": "delegationLeaves",
          "type": "bytes32[]"
        },
        {
          "internalType": "bytes32[][]",
          "name": "merkleProofs",
          "type": "bytes32[][]"
        },
        {
          "internalType": "address[]",
          "name": "delegators",
          "type": "address[]"
        },
        {
          "internalType": "address[]",
          "name": "delegates",
          "type": "address[]"
        },
        {
          "internalType": "bytes32[]",
          "name": "scopeHashes",
          "type": "bytes32[]"
        },
        {
          "internalType": "uint64[]",
          "name": "expiries",
          "type": "uint64[]"
        },
        {
          "internalType": "uint8[]",
          "name": "maxDepths",
          "type": "uint8[]"
        }
      ],
      "name": "verifyDelegationChain",
      "outputs": [
        {
          "internalType": "bool",
          "name": "",
          "type": "bool"
        }
      ],
      "stateMutability": "view",
      "type": "function"
    },
    {
      "inputs": [
        {
          "internalType": "bytes32",
          "name": "delegationLeaf",
          "type": "bytes32"
        },
        {
          "internalType": "bytes32[]",
          "name": "merkleProof",
          "type": "bytes32[]"
        },
        {
          "internalType": "address",
          "name": "delegator",
          "type": "address"
        },
        {
          "internalType": "string",
          "name": "action",
          "type": "string"
        },
        {
          "internalType": "uint64",
          "name": "expiresAt",
          "type": "uint64"
        },
        {
          "internalType": "uint8",
          "name": "maxDepth",
          "type": "uint8"
        }
      ],
      "name": "verifyDelegationForAction",
      "outputs": [
        {
          "internalType": "bool",
          "name": "",
          "type": "bool"
        }
      ],
      "stateMutability": "view",
      "type": "function"
    }
  ],
  "bytecode": "0x6080806040523461003a576001600081905580546001600160a81b0319163360081b610100600160a81b0316179055610df590816100408239f35b600080fdfe6040608081526004908136101561001557600080fd5b6000803560e01c80631422050114610719578063232acf5e146106ec5780632d9fa06f146105d1578063372b102d146106af5780633f4ba83a146106095780634bf04c73146105d157806353739410146105755780635c975abb146105515780638456cb59146104ad5780638da5cb5b1461047c57806396f16c1714610388578063afa6a1cf14610326578063be2ca9d014610251578063f2fde38b146101b65763f53da7cd146100c557600080fd5b346101b35760c03660031901126101b35767ffffffffffffffff6024358181116101af576100f690369086016107d5565b6100fe6107bf565b906064358481116101ab57366023820112156101ab57808801358581116101a75736602482840101116101a757610133610806565b9561013c61081d565b97895183819460246020840197018737810182602082015203808452603f601f1991011683019183831090831117610194575091602099939161018b98979695938a5251902093339335610b18565b90519015158152f35b634e487b7160e01b815260418b52602490fd5b8680fd5b8580fd5b8280fd5b80fd5b5091346101af5760203660031901126101af576101d16107a4565b600154929091906001600160a01b036101f133600887901c83161461086a565b83161561021e575050610100600160a81b031990911660089190911b610100600160a81b03161760015580f35b906020606492519162461bcd60e51b8352820152600d60248201526c24b73b30b634b21037bbb732b960991b6044820152fd5b509190346101af57806003193601126101af578135916024356001600160a01b03818116918290036101ab57610291913314908115610315575b5061082d565b828452600360205260ff82852054166102e1575081835260036020528220805460ff191660011790557f6eb24ce38eb0f7d1e3b4291d5543c7286f02be3daed061b0f7eb6491213deb218280a280f35b6020606492519162461bcd60e51b8352820152600f60248201526e105b1c9958591e481c995d9bdad959608a1b6044820152fd5b905060015460081c1633143861028b565b50346101b35760c03660031901126101b3576024359067ffffffffffffffff82116101b3575060209261035f61018b92369083016107d5565b91906103696107bf565b91610372610806565b9261037b61081d565b9460643593339335610b18565b5091346101af5760e03660031901126101af5767ffffffffffffffff8135818111610478576103ba90369084016107d5565b9490926024358381116101af576103d490369083016107d5565b604492919235858111610478576103ee90369084016107d5565b6064929192358781116101a75761040890369086016107d5565b9390926084358981116104745761042290369088016107d5565b97909660a4358b81116104705761043c90369083016107d5565b9b909a60c4359182116101b357509161046860209f9c9a9896949261018b9e9c9a9896943691016107d5565b9c909b6108dd565b8a80fd5b8880fd5b8480fd5b5090346104a957816003193601126104a957600154905160089190911c6001600160a01b03168152602090f35b5080fd5b5091346101af57826003193601126101af57600154906104db33600884901c6001600160a01b03161461086a565b60ff821661051b57507f62e78cea01bee320cd4e420270b5ea74000d11b0c9f74754ebdbfc544b05a25891600160209260ff19161760015551338152a180f35b606490602084519162461bcd60e51b8352820152601060248201526f14185d5cd8589b194e881c185d5cd95960821b6044820152fd5b5090346104a957816003193601126104a95760209060ff6001541690519015158152f35b509190346101af57806003193601126101af576105906107a4565b91602435928315158094036104785760018060a01b03906105b98260015460081c16331461086a565b16845260205282209060ff8019835416911617905580f35b5090346104a95760203660031901126104a95760209181906001600160a01b036105f96107a4565b1681526002845220549051908152f35b5091346101af57826003193601126101af576001549061063733600884901c6001600160a01b03161461086a565b60ff821615610675575060ff1916600155513381527f5db9ee0a495bf2e6ff9c91a7834c1ba4fdd244a5e8aa4e537bd38aeae4b073aa90602090a180f35b606490602084519162461bcd60e51b8352820152601460248201527314185d5cd8589b194e881b9bdd081c185d5cd95960621b6044820152fd5b5091346101af5760203660031901126101af5760209260ff918391906001600160a01b036106db6107a4565b168252855220541690519015158152f35b5091346101af5760203660031901126101af578160209360ff923581526003855220541690519015158152f35b509190346101af57806003193601126101af5760207feda38b4c19d200d522d6cafb61691a66a8d392081e10536a96529fe56ce5269c916107586107a4565b6001600160a01b0316936024359190338614801561078f575b61077b915061082d565b84865260028352818187205551908152a280f35b50338752835261077b60ff8288205416610771565b600435906001600160a01b03821682036107ba57565b600080fd5b604435906001600160a01b03821682036107ba57565b9181601f840112156107ba5782359167ffffffffffffffff83116107ba576020808501948460051b0101116107ba57565b6084359067ffffffffffffffff821682036107ba57565b60a4359060ff821682036107ba57565b1561083457565b60405162461bcd60e51b815260206004820152600e60248201526d139bdd08185d5d1a1bdc9a5e995960921b6044820152606490fd5b1561087157565b60405162461bcd60e51b815260206004820152600a60248201526927b7363c9037bbb732b960b11b6044820152606490fd5b91908110156108b35760051b0190565b634e487b7160e01b600052603260045260246000fd5b356001600160a01b03811681036107ba5790565b9296989599939b9c909c9a949a9791978d15610a97576000978e5b891061091257505050505050505050505050505050600190565b6000198f018f8111610a6a578f908a8e8e928214600014610a80575061093c915033925b886108a3565b35828b10156108b3578f8f928c918e600593841b81013590601e19903603018112156107ba578f019182359567ffffffffffffffff938488116107ba576020889101951b360385136107ba578f8f908f8f95828f95946109ab6109a6836109b8986109b1966108a3565b6108c9565b966108a3565b35956108a3565b3593841684036107ba578f966109cf888c8c6108a3565b359560ff80881688036107ba5760018a01809a11610a6a576109f2991697610c6e565b15610a16578d8915158a8f82610a2a575b50509050610a165760018f9901986108f8565b505050505050505050505050505050600090565b6109a69250610a38936108a3565b6000198a018a8111610a6a578d610a5c6109a68f9360018060a01b039485946108a3565b16911614158e908a8f610a03565b634e487b7160e01b600052601160045260246000fd5b6109a68261093c94610a91936108a3565b92610936565b60405162461bcd60e51b815260206004820152600b60248201526a22b6b83a3c9031b430b4b760a91b6044820152606490fd5b60e0810190811067ffffffffffffffff821117610ae657604052565b634e487b7160e01b600052604160045260246000fd5b6060810190811067ffffffffffffffff821117610ae657604052565b6001600160a01b039384166000818152600260209081526040808320549b969a979995989197909692959192908c15610c5e57858752600360205260ff8888205416610c5e5767ffffffffffffffff1690428210610c5e5760ff169160019a83600111610c4d579086959493929189519460208601968888528b870152166060850152608084015260a083015260c082015260c08152610bb781610aca565b51902003610c425795949392919080955b808710610bda57505050505050501490565b90919293948697610bed829884896108a3565b3580821015610c205785519087820192835286820152858152610c0f81610afc565b5190205b9701959493929190610bc8565b9085519087820192835286820152858152610c3a81610afc565b519020610c13565b509550505050505090565b505050505050509550505050505090565b5050505050509550505050505090565b91969095979394929460018060a01b03809616916000948386526020976002602052604097888820549c8d15610dae57878952600360205260ff8a8a205416610dae5767ffffffffffffffff1693428510610dae5760ff90811694939291168410610d9e579086959493929189519460208601968888528b870152166060850152608084015260a083015260c082015260c08152610d0b81610aca565b51902003610d9457949392919080945b808610610d2c575050505050501490565b909192939495600190610d408884896108a3565b3580821015610d725785519087820192835286820152858152610d6281610afc565b5190205b96019493929190610d1b565b9085519087820192835286820152858152610d8c81610afc565b519020610d66565b5094505050505090565b5050505050505094505050505090565b50505050505050509450505050509056fea26469706673582212204f94350399eca4b1984bcd7d1844e48915aa0a51469c0f4f0b8088a1ea4031d864736f6c63430008180033",
  "linkReferences": {},
  "deployedLinkReferences": {}
}