{
  "_format": "hh-sol-artifact-1",
  "contractName": "DelegationManager",
  "sourceName": "src/DelegationManager.sol",
  "abi": [
    {
      "inputs": [],
      "stateMutability": "nonpayable",
      "type": "constructor"
    },
    {
      "anonymous": false,
      "inputs": [
        {
          "indexed": true,
          "internalType": "bytes32",
          "name": "delegationLeafHash",
          "type": "bytes32"
        }
      ],
      "name": "DelegationRevoked",
      "type": "event"
    },
    {
      "anonymous": false,
      "inputs": [
        {
          "indexed": true,
          "internalType": "address",
          "name": "delegator",
          "type": "address"
        },
        {
          "indexed": false,
          "internalType": "bytes32",
          "name": "newRoot",
          "type": "bytes32"
        }
      ],
      "name": "DelegationRootUpdated",
      "type": "event"
    },
    {
      "anonymous": false,
      "inputs": [
        {
          "indexed": false,
          "internalType": "address",
          "name": "account",
          "type": "address"
        }
      ],
      "name": "Paused",
      "type": "event"
    },
    {
      "anonymous": false,
      "inputs": [
        {
          "indexed": false,
          "internalType": "address",
          "name": "account",
          "type": "address"
        }
      ],
      "name": "Unpaused",
      "type": "event"
    },
    {
      "inputs": [
        {
          "internalType": "address",
          "name": "",
          "type": "address"
        }
      ],
      "name": "delegationRoots",
      "outputs": [
        {
          "internalType": "bytes32",
          "name": "",
          "type": "bytes32"
        }
      ],
      "stateMutability": "view",
      "type": "function"
    },
    {
      "inputs": [
        {
          "internalType": "address",
          "name": "delegator",
          "type": "address"
        }
      ],
      "name": "getDelegationRoot",
      "outputs": [
        {
          "internalType": "bytes32",
          "name": "",
          "type": "bytes32"
        }
      ],
      "stateMutability": "view",
      "type": "function"
    },
    {
      "inputs": [],
      "name": "owner",
      "outputs": [
        {
          "internalType": "address",
          "name": "",
          "type": "address"
        }
      ],
      "stateMutability": "view",
      "type": "function"
    },
    {
      "inputs": [],
      "name": "pause",
      "outputs": [],
      "stateMutability": "nonpayable",
      "type": "function"
    },
    {
      "inputs": [],
      "name": "paused",
      "outputs": [
        {
          "internalType": "bool",
          "name": "",
          "type": "bool"
        }
      ],
      "stateMutability": "view",
      "type": "function"
    },
    {
      "inputs": [
        {
          "internalType": "bytes32",
          "name": "delegationLeafHash",
          "type": "bytes32"
        },
        {
          "internalType": "address",
          "name": "delegator",
          "type": "address"
        }
      ],
      "name": "revokeDelegation",
      "outputs": [],
      "stateMutability": "nonpayable",
      "type": "function"
    },
    {
      "inputs": [
        {
          "internalType": "bytes32",
          "name": "",
          "type": "bytes32"
        }
      ],
      "name": "revokedDelegations",
      "outputs": [
        {
          "internalType": "bool",
          "name": "",
          "type": "bool"
        }
      ],
      "stateMutability": "view",
      "type": "function"
    },
    {
      "inputs": [
        {
          "internalType": "address",
          "name": "",
          "type": "address"
        }
      ],
      "name": "rootUpdaters",
      "outputs": [
        {
          "internalType": "bool",
          "name": "",
          "type": "bool"
        }
      ],
      "stateMutability": "view",
      "type": "function"
    },
    {
      "inputs": [
        {
          "internalType": "address",
          "name": "updater",
          "type": "address"
        },
        {
          "internalType": "bool",
          "name": "allowed",
          "type": "bool"
        }
      ],
      "name": "setRootUpdater",
      "outputs": [],
      "stateMutability": "nonpayable",
      "type": "function"
    },
    {
      "inputs": [],
      "name": "unpause",
      "outputs": [],
      "stateMutability": "nonpayable",
      "type": "function"
    },
    {
      "inputs": [
        {
          "internalType": "address",
          "name": "delegator",
          "type": "address"
        },
        {
          "internalType": "bytes32",
          "name": "newRoot",
          "type": "bytes32"
        }
      ],
      "name": "updateDelegationRoot",
      "outputs": [],
      "stateMutability": "nonpayable",
      "type": "function"
    },
    {
      "inputs": [
        {
          "internalType": "bytes32",
          "name": "delegationLeaf",
          "type": "bytes32"
        },
        {
          "internalType": "bytes32[]",
          "name": "merkleProof",
          "type": "bytes32[]"
        },
        {
          "internalType": "address",
          "name": "delegator",
          "type": "address"
        },
        {
          "internalType": "bytes32",
          "name": "scopeHash",
          "type": "bytes32"
        },
        {
          "internalType": "uint64",
          "name": "expiresAt",
          "type": "uint64"
        },
        {
          "internalType": "uint8",
          "name": "maxDepth",
          "type": "uint8"
        }
      ],
      "name": "verifyDelegation",
      "outputs": [
        {
          "internalType": "bool",
          "name": "",
          "type": "bool"
        }
      ],
      "stateMutability": "view",
      "type": "function"
    },
    {
      "inputs": [
        {
          "internalType": "bytes32[]",
          "name": "delegationLeaves",
          "type": "bytes32[]"
        },
        {
          "internalType": "bytes32[][]",
          "name": "merkleProofs",
          "type": "bytes32[][]"
        },
        {
          "internalType": "address[]",
          "name": "delegators",
          "type": "address[]"
        },
        {
          "internalType": "address[]",
          "name": "delegates",
          "type": "address[]"
        },
        {
          "internalType": "bytes32[]",
          "name": "scopeHashes",
          "type": "bytes32[]"
        },
        {
          "internalType": "uint64[]",
          "name": "expiries",
          "type": "uint64[]"
        },
        {
          "internalType": "uint8[]",
          "name": "maxDepths",
          "type": "uint8[]"
        }
      ],
      "name": "verifyDelegationChain",
      "outputs": [
        {
          "internalType": "bool",
          "name": "",
          "type": "bool"
        }
      ],
      "stateMutability": "view",
      "type": "function"
    },
    {
      "inputs": [
        {
          "internalType": "bytes32",
          "name": "delegationLeaf",
          "type": "bytes32"
        },
        {
          "internalType": "bytes32[]",
          "name": "merkleProof",
          "type": "bytes32[]"
        },
        {
          "internalType": "address",
          "name": "delegator",
          "type": "address"
        },
        {
          "internalType": "string",
          "name": "action",
          "type": "string"
        },
        {
          "internalType": "uint64",
          "name": "expiresAt",
          "type": "uint64"
        },
        {
          "internalType": "uint8",
          "name": "maxDepth",
          "type": "uint8"
        }
      ],
      "name": "verifyDelegationForAction",
      "outputs": [
        {
          "internalType": "bool",
          "name": "",
          "type": "bool"
        }
      ],
      "stateMutability": "view",
      "type": "function"
    }
  ],
  "bytecode": "0x6080806040523461003a576001600081905580546001600160a81b0319163360081b610100600160a81b0316179055610d4f90816100408239f35b600080fdfe6040608081526004908136101561001557600080fd5b6000803560e01c80631422050114610673578063232acf5e146106465780632d9fa06f1461052b578063372b102d146106095780633f4ba83a146105635780634bf04c731461052b57806353739410146104cf5780635c975abb146104ab5780638456cb59146104075780638da5cb5b146103d657806396f16c17146102e2578063afa6a1cf14610280578063be2ca9d0146101ab5763f53da7cd146100ba57600080fd5b346101a85760c03660031901126101a85767ffffffffffffffff6024358181116101a4576100eb903690860161072f565b6100f3610719565b906064358481116101a057366023820112156101a0578088013585811161019c57366024828401011161019c57610128610760565b95610131610777565b97895183819460246020840197018737810182602082015203808452603f601f1991011683019183831090831117610189575091602099939161018098979695938a5251902093339335610a72565b90519015158152f35b634e487b7160e01b815260418b52602490fd5b8680fd5b8580fd5b8280fd5b80fd5b509190346101a457806003193601126101a4578135916024356001600160a01b03818116918290036101a0576101eb91331490811561026f575b50610787565b828452600360205260ff828520541661023b575081835260036020528220805460ff191660011790557f6eb24ce38eb0f7d1e3b4291d5543c7286f02be3daed061b0f7eb6491213deb218280a280f35b6020606492519162461bcd60e51b8352820152600f60248201526e105b1c9958591e481c995d9bdad959608a1b6044820152fd5b905060015460081c163314386101e5565b50346101a85760c03660031901126101a8576024359067ffffffffffffffff82116101a857506020926102b9610180923690830161072f565b91906102c3610719565b916102cc610760565b926102d5610777565b9460643593339335610a72565b5091346101a45760e03660031901126101a45767ffffffffffffffff81358181116103d257610314903690840161072f565b9490926024358381116101a45761032e903690830161072f565b6044929192358581116103d257610348903690840161072f565b60649291923587811161019c57610362903690860161072f565b9390926084358981116103ce5761037c903690880161072f565b97909660a4358b81116103ca57610396903690830161072f565b9b909a60c4359182116101a85750916103c260209f9c9a989694926101809e9c9a98969436910161072f565b9c909b610837565b8a80fd5b8880fd5b8480fd5b509034610403578160031936011261040357600154905160089190911c6001600160a01b03168152602090f35b5080fd5b5091346101a457826003193601126101a4576001549061043533600884901c6001600160a01b0316146107c4565b60ff821661047557507f62e78cea01bee320cd4e420270b5ea74000d11b0c9f74754ebdbfc544b05a25891600160209260ff19161760015551338152a180f35b606490602084519162461bcd60e51b8352820152601060248201526f14185d5cd8589b194e881c185d5cd95960821b6044820152fd5b50903461040357816003193601126104035760209060ff6001541690519015158152f35b509190346101a457806003193601126101a4576104ea6106fe565b91602435928315158094036103d25760018060a01b03906105138260015460081c1633146107c4565b16845260205282209060ff8019835416911617905580f35b5090346104035760203660031901126104035760209181906001600160a01b036105536106fe565b1681526002845220549051908152f35b5091346101a457826003193601126101a4576001549061059133600884901c6001600160a01b0316146107c4565b60ff8216156105cf575060ff1916600155513381527f5db9ee0a495bf2e6ff9c91a7834c1ba4fdd244a5e8aa4e537bd38aeae4b073aa90602090a180f35b606490602084519162461bcd60e51b8352820152601460248201527314185d5cd8589b194e881b9bdd081c185d5cd95960621b6044820152fd5b5091346101a45760203660031901126101a45760209260ff918391906001600160a01b036106356106fe565b168252855220541690519015158152f35b5091346101a45760203660031901126101a4578160209360ff923581526003855220541690519015158152f35b509190346101a457806003193601126101a45760207feda38b4c19d200d522d6cafb61691a66a8d392081e10536a96529fe56ce5269c916106b26106fe565b6001600160a01b031693602435919033861480156106e9575b6106d59150610787565b84865260028352818187205551908152a280f35b5033875283526106d560ff82882054166106cb565b600435906001600160a01b038216820361071457565b600080fd5b604435906001600160a01b038216820361071457565b9181601f840112156107145782359167ffffffffffffffff8311610714576020808501948460051b01011161071457565b6084359067ffffffffffffffff8216820361071457565b60a4359060ff8216820361071457565b1561078e57565b60405162461bcd60e51b815260206004820152600e60248201526d139bdd08185d5d1a1bdc9a5e995960921b6044820152606490fd5b156107cb57565b60405162461bcd60e51b815260206004820152600a60248201526927b7363c9037bbb732b960b11b6044820152606490fd5b919081101561080d5760051b0190565b634e487b7160e01b600052603260045260246000fd5b356001600160a01b03811681036107145790565b9296989599939b9c909c9a949a9791978d156109f1576000978e5b891061086c57505050505050505050505050505050600190565b6000198f018f81116109c4578f908a8e8e9282146000146109da5750610896915033925b886107fd565b35828b101561080d578f8f928c918e600593841b81013590601e1990360301811215610714578f019182359567ffffffffffffffff93848811610714576020889101951b36038513610714578f8f908f8f95828f9594610905610900836109129861090b966107fd565b610823565b966107fd565b35956107fd565b359384168403610714578f96610929888c8c6107fd565b359560ff80881688036107145760018a01809a116109c45761094c991697610bc8565b15610970578d8915158a8f82610984575b505090506109705760018f990198610852565b505050505050505050505050505050600090565b6109009250610992936107fd565b6000198a018a81116109c4578d6109b66109008f9360018060a01b039485946107fd565b16911614158e908a8f61095d565b634e487b7160e01b600052601160045260246000fd5b61090082610896946109eb936107fd565b92610890565b60405162461bcd60e51b815260206004820152600b60248201526a22b6b83a3c9031b430b4b760a91b6044820152606490fd5b60e0810190811067ffffffffffffffff821117610a4057604052565b634e487b7160e01b600052604160045260246000fd5b6060810190811067ffffffffffffffff821117610a4057604052565b6001600160a01b039384166000818152600260209081526040808320549b969a979995989197909692959192908c15610bb857858752600360205260ff8888205416610bb85767ffffffffffffffff1690428210610bb85760ff169160019a83600111610ba7579086959493929189519460208601968888528b870152166060850152608084015260a083015260c082015260c08152610b1181610a24565b51902003610b9c5795949392919080955b808710610b3457505050505050501490565b90919293948697610b47829884896107fd565b3580821015610b7a5785519087820192835286820152858152610b6981610a56565b5190205b9701959493929190610b22565b9085519087820192835286820152858152610b9481610a56565b519020610b6d565b509550505050505090565b505050505050509550505050505090565b5050505050509550505050505090565b91969095979394929460018060a01b03809616916000948386526020976002602052604097888820549c8d15610d0857878952600360205260ff8a8a205416610d085767ffffffffffffffff1693428510610d085760ff90811694939291168410610cf8579086959493929189519460208601968888528b870152166060850152608084015260a083015260c082015260c08152610c6581610a24565b51902003610cee57949392919080945b808610610c86575050505050501490565b909192939495600190610c9a8884896107fd565b3580821015610ccc5785519087820192835286820152858152610cbc81610a56565b5190205b96019493929190610c75565b9085519087820192835286820152858152610ce681610a56565b519020610cc0565b5094505050505090565b5050505050505094505050505090565b50505050505050509450505050509056fea2646970667358221220b3e0f6903cbba460c0324ca1a2ea09079e83572a52a118d2b6f84869e444ee5164736f6c63430008180033",
  "linkReferences": {},
  "deployedLinkReferences": {}
}