{
  "_format": "hh-sol-artifact-1",
  "contractName": "DelegationManager",
  "sourceName": "src/DelegationManager.sol",
  "abi": [
    {
      "inputs": [],
      "stateMutability": "nonpayable",
      "type": "constructor"
    },
    {
      "inputs": [],
      "name": "AccessControlBadConfirmation",
      "type": "error"
    },
    {
      "inputs": [
        {
          "internalType": "address",
          "name": "account",
          "type": "address"
        },
        {
          "internalType": "bytes32",
          "name": "neededRole",
          "type": "bytes32"
        }
      ],
      "name": "AccessControlUnauthorizedAccount",
      "type": "error"
    },
    {
      "inputs": [
        {
          "internalType": "address",
          "name": "target",
          "type": "address"
        }
      ],
      "name": "AddressEmptyCode",
      "type": "error"
    },
    {
      "inputs": [],
      "name": "AlreadyRevokedDelegation",
      "type": "error"
    },
    {
      "inputs": [],
      "name": "ArrayLengthMismatch",
      "type": "error"
    },
    {
      "inputs": [],
      "name": "ChainTooLong",
      "type": "error"
    },
    {
      "inputs": [],
      "name": "DelegatorHasBeenRevoked",
      "type": "error"
    },
    {
      "inputs": [
        {
          "internalType": "address",
          "name": "implementation",
          "type": "address"
        }
      ],
      "name": "ERC1967InvalidImplementation",
      "type": "error"
    },
    {
      "inputs": [],
      "name": "ERC1967NonPayable",
      "type": "error"
    },
    {
      "inputs": [],
      "name": "EmptyChain",
      "type": "error"
    },
    {
      "inputs": [],
      "name": "EnforcedPause",
      "type": "error"
    },
    {
      "inputs": [],
      "name": "ExpectedPause",
      "type": "error"
    },
    {
      "inputs": [],
      "name": "FailedCall",
      "type": "error"
    },
    {
      "inputs": [],
      "name": "InvalidInitialization",
      "type": "error"
    },
    {
      "inputs": [],
      "name": "NotInitializing",
      "type": "error"
    },
    {
      "inputs": [],
      "name": "ScopeAlreadyRegistered",
      "type": "error"
    },
    {
      "inputs": [],
      "name": "ScopeLimitExceeded",
      "type": "error"
    },
    {
      "inputs": [],
      "name": "UUPSUnauthorizedCallContext",
      "type": "error"
    },
    {
      "inputs": [
        {
          "internalType": "bytes32",
          "name": "slot",
          "type": "bytes32"
        }
      ],
      "name": "UUPSUnsupportedProxiableUUID",
      "type": "error"
    },
    {
      "anonymous": false,
      "inputs": [
        {
          "indexed": true,
          "internalType": "bytes32",
          "name": "delegationLeafHash",
          "type": "bytes32"
        },
        {
          "indexed": true,
          "internalType": "address",
          "name": "delegator",
          "type": "address"
        }
      ],
      "name": "DelegationRevoked",
      "type": "event"
    },
    {
      "anonymous": false,
      "inputs": [
        {
          "indexed": true,
          "internalType": "address",
          "name": "delegator",
          "type": "address"
        },
        {
          "indexed": true,
          "internalType": "bytes32",
          "name": "scopeHash",
          "type": "bytes32"
        },
        {
          "indexed": false,
          "internalType": "bytes32",
          "name": "newRoot",
          "type": "bytes32"
        },
        {
          "indexed": false,
          "internalType": "uint64",
          "name": "expiresAt",
          "type": "uint64"
        }
      ],
      "name": "DelegationRootUpdated",
      "type": "event"
    },
    {
      "anonymous": false,
      "inputs": [
        {
          "indexed": true,
          "internalType": "address",
          "name": "delegator",
          "type": "address"
        }
      ],
      "name": "DelegatorReAuthorized",
      "type": "event"
    },
    {
      "anonymous": false,
      "inputs": [
        {
          "indexed": true,
          "internalType": "address",
          "name": "delegator",
          "type": "address"
        }
      ],
      "name": "DelegatorRevoked",
      "type": "event"
    },
    {
      "anonymous": false,
      "inputs": [
        {
          "indexed": false,
          "internalType": "uint64",
          "name": "version",
          "type": "uint64"
        }
      ],
      "name": "Initialized",
      "type": "event"
    },
    {
      "anonymous": false,
      "inputs": [
        {
          "indexed": false,
          "internalType": "address",
          "name": "account",
          "type": "address"
        }
      ],
      "name": "Paused",
      "type": "event"
    },
    {
      "anonymous": false,
      "inputs": [
        {
          "indexed": true,
          "internalType": "bytes32",
          "name": "role",
          "type": "bytes32"
        },
        {
          "indexed": true,
          "internalType": "bytes32",
          "name": "previousAdminRole",
          "type": "bytes32"
        },
        {
          "indexed": true,
          "internalType": "bytes32",
          "name": "newAdminRole",
          "type": "bytes32"
        }
      ],
      "name": "RoleAdminChanged",
      "type": "event"
    },
    {
      "anonymous": false,
      "inputs": [
        {
          "indexed": true,
          "internalType": "bytes32",
          "name": "role",
          "type": "bytes32"
        },
        {
          "indexed": true,
          "internalType": "address",
          "name": "account",
          "type": "address"
        },
        {
          "indexed": true,
          "internalType": "address",
          "name": "sender",
          "type": "address"
        }
      ],
      "name": "RoleGranted",
      "type": "event"
    },
    {
      "anonymous": false,
      "inputs": [
        {
          "indexed": true,
          "internalType": "bytes32",
          "name": "role",
          "type": "bytes32"
        },
        {
          "indexed": true,
          "internalType": "address",
          "name": "account",
          "type": "address"
        },
        {
          "indexed": true,
          "internalType": "address",
          "name": "sender",
          "type": "address"
        }
      ],
      "name": "RoleRevoked",
      "type": "event"
    },
    {
      "anonymous": false,
      "inputs": [
        {
          "indexed": false,
          "internalType": "string",
          "name": "action",
          "type": "string"
        },
        {
          "indexed": true,
          "internalType": "bytes32",
          "name": "scopeHash",
          "type": "bytes32"
        }
      ],
      "name": "ScopeRegistered",
      "type": "event"
    },
    {
      "anonymous": false,
      "inputs": [
        {
          "indexed": false,
          "internalType": "address",
          "name": "account",
          "type": "address"
        }
      ],
      "name": "Unpaused",
      "type": "event"
    },
    {
      "anonymous": false,
      "inputs": [
        {
          "indexed": true,
          "internalType": "address",
          "name": "implementation",
          "type": "address"
        }
      ],
      "name": "Upgraded",
      "type": "event"
    },
    {
      "inputs": [],
      "name": "DEFAULT_ADMIN_ROLE",
      "outputs": [
        {
          "internalType": "bytes32",
          "name": "",
          "type": "bytes32"
        }
      ],
      "stateMutability": "view",
      "type": "function"
    },
    {
      "inputs": [],
      "name": "MAX_DELEGATION_DEPTH",
      "outputs": [
        {
          "internalType": "uint8",
          "name": "",
          "type": "uint8"
        }
      ],
      "stateMutability": "view",
      "type": "function"
    },
    {
      "inputs": [],
      "name": "ROOT_UPDATER_ROLE",
      "outputs": [
        {
          "internalType": "bytes32",
          "name": "",
          "type": "bytes32"
        }
      ],
      "stateMutability": "view",
      "type": "function"
    },
    {
      "inputs": [],
      "name": "UPGRADE_INTERFACE_VERSION",
      "outputs": [
        {
          "internalType": "string",
          "name": "",
          "type": "string"
        }
      ],
      "stateMutability": "view",
      "type": "function"
    },
    {
      "inputs": [
        {
          "internalType": "address",
          "name": "",
          "type": "address"
        },
        {
          "internalType": "bytes32",
          "name": "",
          "type": "bytes32"
        }
      ],
      "name": "delegationRoots",
      "outputs": [
        {
          "internalType": "bytes32",
          "name": "root",
          "type": "bytes32"
        },
        {
          "internalType": "uint64",
          "name": "expiresAt",
          "type": "uint64"
        },
        {
          "internalType": "uint64",
          "name": "createdAt",
          "type": "uint64"
        }
      ],
      "stateMutability": "view",
      "type": "function"
    },
    {
      "inputs": [
        {
          "internalType": "address",
          "name": "delegator",
          "type": "address"
        }
      ],
      "name": "emergencyRevokeAll",
      "outputs": [],
      "stateMutability": "nonpayable",
      "type": "function"
    },
    {
      "inputs": [
        {
          "internalType": "address",
          "name": "delegator",
          "type": "address"
        },
        {
          "internalType": "bytes32",
          "name": "scopeHash",
          "type": "bytes32"
        }
      ],
      "name": "getDelegationRoot",
      "outputs": [
        {
          "internalType": "bytes32",
          "name": "root",
          "type": "bytes32"
        },
        {
          "internalType": "uint64",
          "name": "expiresAt",
          "type": "uint64"
        },
        {
          "internalType": "uint64",
          "name": "createdAt",
          "type": "uint64"
        }
      ],
      "stateMutability": "view",
      "type": "function"
    },
    {
      "inputs": [
        {
          "internalType": "address",
          "name": "delegator",
          "type": "address"
        }
      ],
      "name": "getDelegatorScopeCount",
      "outputs": [
        {
          "internalType": "uint256",
          "name": "",
          "type": "uint256"
        }
      ],
      "stateMutability": "view",
      "type": "function"
    },
    {
      "inputs": [
        {
          "internalType": "bytes32",
          "name": "role",
          "type": "bytes32"
        }
      ],
      "name": "getRoleAdmin",
      "outputs": [
        {
          "internalType": "bytes32",
          "name": "",
          "type": "bytes32"
        }
      ],
      "stateMutability": "view",
      "type": "function"
    },
    {
      "inputs": [
        {
          "internalType": "bytes32",
          "name": "scopeHash",
          "type": "bytes32"
        }
      ],
      "name": "getScopeAction",
      "outputs": [
        {
          "internalType": "string",
          "name": "",
          "type": "string"
        }
      ],
      "stateMutability": "view",
      "type": "function"
    },
    {
      "inputs": [
        {
          "internalType": "bytes32",
          "name": "role",
          "type": "bytes32"
        },
        {
          "internalType": "address",
          "name": "account",
          "type": "address"
        }
      ],
      "name": "grantRole",
      "outputs": [],
      "stateMutability": "nonpayable",
      "type": "function"
    },
    {
      "inputs": [
        {
          "internalType": "bytes32",
          "name": "role",
          "type": "bytes32"
        },
        {
          "internalType": "address",
          "name": "account",
          "type": "address"
        }
      ],
      "name": "hasRole",
      "outputs": [
        {
          "internalType": "bool",
          "name": "",
          "type": "bool"
        }
      ],
      "stateMutability": "view",
      "type": "function"
    },
    {
      "inputs": [
        {
          "internalType": "address",
          "name": "owner_",
          "type": "address"
        }
      ],
      "name": "initialize",
      "outputs": [],
      "stateMutability": "nonpayable",
      "type": "function"
    },
    {
      "inputs": [
        {
          "internalType": "bytes32",
          "name": "leafHash",
          "type": "bytes32"
        }
      ],
      "name": "isRevoked",
      "outputs": [
        {
          "internalType": "bool",
          "name": "",
          "type": "bool"
        }
      ],
      "stateMutability": "view",
      "type": "function"
    },
    {
      "inputs": [],
      "name": "pause",
      "outputs": [],
      "stateMutability": "nonpayable",
      "type": "function"
    },
    {
      "inputs": [],
      "name": "paused",
      "outputs": [
        {
          "internalType": "bool",
          "name": "",
          "type": "bool"
        }
      ],
      "stateMutability": "view",
      "type": "function"
    },
    {
      "inputs": [],
      "name": "proxiableUUID",
      "outputs": [
        {
          "internalType": "bytes32",
          "name": "",
          "type": "bytes32"
        }
      ],
      "stateMutability": "view",
      "type": "function"
    },
    {
      "inputs": [
        {
          "internalType": "address",
          "name": "delegator",
          "type": "address"
        }
      ],
      "name": "reAuthorizeDelegator",
      "outputs": [],
      "stateMutability": "nonpayable",
      "type": "function"
    },
    {
      "inputs": [
        {
          "internalType": "string",
          "name": "action",
          "type": "string"
        }
      ],
      "name": "registerScope",
      "outputs": [],
      "stateMutability": "nonpayable",
      "type": "function"
    },
    {
      "inputs": [
        {
          "internalType": "bytes32",
          "name": "role",
          "type": "bytes32"
        },
        {
          "internalType": "address",
          "name": "callerConfirmation",
          "type": "address"
        }
      ],
      "name": "renounceRole",
      "outputs": [],
      "stateMutability": "nonpayable",
      "type": "function"
    },
    {
      "inputs": [
        {
          "internalType": "bytes32",
          "name": "delegationLeafHash",
          "type": "bytes32"
        },
        {
          "internalType": "address",
          "name": "delegator",
          "type": "address"
        }
      ],
      "name": "revokeDelegation",
      "outputs": [],
      "stateMutability": "nonpayable",
      "type": "function"
    },
    {
      "inputs": [
        {
          "internalType": "bytes32",
          "name": "role",
          "type": "bytes32"
        },
        {
          "internalType": "address",
          "name": "account",
          "type": "address"
        }
      ],
      "name": "revokeRole",
      "outputs": [],
      "stateMutability": "nonpayable",
      "type": "function"
    },
    {
      "inputs": [
        {
          "internalType": "bytes32",
          "name": "",
          "type": "bytes32"
        }
      ],
      "name": "revokedDelegations",
      "outputs": [
        {
          "internalType": "bool",
          "name": "",
          "type": "bool"
        }
      ],
      "stateMutability": "view",
      "type": "function"
    },
    {
      "inputs": [
        {
          "internalType": "address",
          "name": "",
          "type": "address"
        }
      ],
      "name": "revokedDelegators",
      "outputs": [
        {
          "internalType": "bool",
          "name": "",
          "type": "bool"
        }
      ],
      "stateMutability": "view",
      "type": "function"
    },
    {
      "inputs": [
        {
          "internalType": "bytes32",
          "name": "",
          "type": "bytes32"
        }
      ],
      "name": "scopeActions",
      "outputs": [
        {
          "internalType": "string",
          "name": "",
          "type": "string"
        }
      ],
      "stateMutability": "view",
      "type": "function"
    },
    {
      "inputs": [
        {
          "internalType": "address",
          "name": "updater",
          "type": "address"
        },
        {
          "internalType": "bool",
          "name": "allowed",
          "type": "bool"
        }
      ],
      "name": "setRootUpdater",
      "outputs": [],
      "stateMutability": "nonpayable",
      "type": "function"
    },
    {
      "inputs": [
        {
          "internalType": "bytes4",
          "name": "interfaceId",
          "type": "bytes4"
        }
      ],
      "name": "supportsInterface",
      "outputs": [
        {
          "internalType": "bool",
          "name": "",
          "type": "bool"
        }
      ],
      "stateMutability": "view",
      "type": "function"
    },
    {
      "inputs": [],
      "name": "unpause",
      "outputs": [],
      "stateMutability": "nonpayable",
      "type": "function"
    },
    {
      "inputs": [
        {
          "internalType": "address",
          "name": "delegator",
          "type": "address"
        },
        {
          "internalType": "bytes32",
          "name": "scopeHash",
          "type": "bytes32"
        },
        {
          "internalType": "bytes32",
          "name": "newRoot",
          "type": "bytes32"
        },
        {
          "internalType": "uint64",
          "name": "expiresAt",
          "type": "uint64"
        }
      ],
      "name": "updateDelegationRoot",
      "outputs": [],
      "stateMutability": "nonpayable",
      "type": "function"
    },
    {
      "inputs": [
        {
          "internalType": "address",
          "name": "newImplementation",
          "type": "address"
        },
        {
          "internalType": "bytes",
          "name": "data",
          "type": "bytes"
        }
      ],
      "name": "upgradeToAndCall",
      "outputs": [],
      "stateMutability": "payable",
      "type": "function"
    },
    {
      "inputs": [
        {
          "internalType": "bytes32",
          "name": "delegationLeaf",
          "type": "bytes32"
        },
        {
          "internalType": "bytes32[]",
          "name": "merkleProof",
          "type": "bytes32[]"
        },
        {
          "internalType": "address",
          "name": "delegator",
          "type": "address"
        },
        {
          "internalType": "bytes32",
          "name": "scopeHash",
          "type": "bytes32"
        },
        {
          "internalType": "uint64",
          "name": "expiresAt",
          "type": "uint64"
        },
        {
          "internalType": "uint8",
          "name": "maxDepth",
          "type": "uint8"
        }
      ],
      "name": "verifyDelegation",
      "outputs": [
        {
          "internalType": "bool",
          "name": "",
          "type": "bool"
        }
      ],
      "stateMutability": "view",
      "type": "function"
    },
    {
      "inputs": [
        {
          "internalType": "bytes32[]",
          "name": "delegationLeaves",
          "type": "bytes32[]"
        },
        {
          "internalType": "bytes32[][]",
          "name": "merkleProofs",
          "type": "bytes32[][]"
        },
        {
          "internalType": "address[]",
          "name": "delegators",
          "type": "address[]"
        },
        {
          "internalType": "address[]",
          "name": "delegates",
          "type": "address[]"
        },
        {
          "internalType": "bytes32[]",
          "name": "scopeHashes",
          "type": "bytes32[]"
        },
        {
          "internalType": "uint64[]",
          "name": "expiries",
          "type": "uint64[]"
        },
        {
          "internalType": "uint8[]",
          "name": "maxDepths",
          "type": "uint8[]"
        }
      ],
      "name": "verifyDelegationChain",
      "outputs": [
        {
          "internalType": "bool",
          "name": "",
          "type": "bool"
        }
      ],
      "stateMutability": "view",
      "type": "function"
    },
    {
      "inputs": [
        {
          "internalType": "bytes32",
          "name": "delegationLeaf",
          "type": "bytes32"
        },
        {
          "internalType": "bytes32[]",
          "name": "merkleProof",
          "type": "bytes32[]"
        },
        {
          "internalType": "address",
          "name": "delegator",
          "type": "address"
        },
        {
          "internalType": "string",
          "name": "action",
          "type": "string"
        },
        {
          "internalType": "uint64",
          "name": "expiresAt",
          "type": "uint64"
        },
        {
          "internalType": "uint8",
          "name": "maxDepth",
          "type": "uint8"
        }
      ],
      "name": "verifyDelegationForAction",
      "outputs": [
        {
          "internalType": "bool",
          "name": "",
          "type": "bool"
        }
      ],
      "stateMutability": "view",
      "type": "function"
    }
  ],
  "bytecode": "0x60a080604052346100cc57306080527ff0c57e16840df040f15088dc2f81fe391c3923bec73e23a9662efc9c229c6a009081549060ff8260401c166100bd57506001600160401b036002600160401b031982821601610078575b60405161222c90816100d28239608051818181610b1a0152610e060152f35b6001600160401b031990911681179091556040519081527fc7f505b2f371ae2175ee4913f4499e1f2633a7b5936321eed1cdaeb6115181d290602090a1388080610059565b63f92ee8a960e01b8152600490fd5b600080fdfe60e0604081815260048036101561001557600080fd5b600092833560e01c90816301ffc9a7146112d4575080630f4252cc1461129657806317140090146112615780631ac924a814610967578063232acf5e14610fed578063248a9ca31461122a5780632f2ff15d1461120157806336568abe146111ba57806336e4b80a146110905780633f4ba83a146110195780634294857f14610fed5780634f1ef28614610d8c57806352b957dd14610b7e57806352d1902d14610b055780635373941014610ac15780635982ef2614610a505780635c975abb14610a1f5780637969a71314610a035780638456cb591461099b5780638c70e02a1461096757806391d148541461091457806396f16c1714610826578063a217fddf1461080b578063a31f48db14610611578063a69c5c64146104de578063ad3cb1cc146105ae578063afa6a1cf14610549578063b76b408a146104de578063be2ca9d0146103fb578063c4d66de8146102bb578063d547741f1461026f578063d9ab2c5c146102425763f53da7cd1461018e57600080fd5b3461023e5760c036600319011261023e576001600160401b0360243581811161023a576101be9036908401611531565b9290916101c9611359565b90606435908111610236579161022d9493916101eb6020989436908401611425565b95906101f5611561565b956102218b610202611577565b998c5193818592848401978837820190838201520380845201826113e9565b51902093339335611c0b565b90519015158152f35b8680fd5b8480fd5b8280fd5b50503461026b578160031936011261026b57602090516000805160206121978339815191528152f35b5080fd5b50903461023e578060031936011261023e576102b791356102b26001610293611343565b938387526000805160206121b7833981519152602052862001546118ab565b611b5d565b5080f35b503461023e57602036600319011261023e576102d5611328565b907ff0c57e16840df040f15088dc2f81fe391c3923bec73e23a9662efc9c229c6a0091825460ff81861c1615926001600160401b038216801590816103f3575b60011490816103e9575b1590816103e0575b506103d2575067ffffffffffffffff19811660011784556103699190836103b3575b506103526120f2565b61035a6120f2565b6103638161198e565b506118de565b50610372578280f35b805468ff00000000000000001916905551600181527fc7f505b2f371ae2175ee4913f4499e1f2633a7b5936321eed1cdaeb6115181d290602090a138808280f35b68ffffffffffffffffff19166801000000000000000117845538610349565b855163f92ee8a960e01b8152fd5b90501538610327565b303b15915061031f565b859150610315565b50903461023e578060031936011261023e57813590610418611343565b610420611be0565b6001600160a01b03169233841415806104b2575b61049657828552600160205260ff8286205416610488575081845260016020528320600160ff198254161790557f85447bad2d347065c177bd751ff821e559edced77491fe96ca82c6e3de7caedc8380a380f35b9051635f7e390160e01b8152fd5b84604492519163e2517d3f60e01b835233908301526024820152fd5b508480526000805160206121b783398151915260205281852033865260205260ff828620541615610434565b50503461026b578060031936011261026b579081906001600160a01b03610503611328565b168152602081815282822060243583528152919020805460019091015483519182526001600160401b038082169383019390935290921c166040820152606090f35b0390f35b5091346105ab5760c03660031901126105ab57602435906001600160401b0382116105ab575060209261058261022d9236908301611531565b919061058c611359565b91610595611561565b9261059e611577565b9460643593339335611c0b565b80fd5b5091903461026b578160031936011261026b57805191818301908382106001600160401b038311176105fe57506105459350815260058252640352e302e360dc1b6020830152519182918261136f565b634e487b7160e01b815260418552602490fd5b5091903461026b57608036600319011261026b5761062d611328565b602435916044356064356001600160401b039384821680920361023657610652611be0565b6001600160a01b031680875260026020908152848820549195909160ff166107fb5785331415806107c3575b610799578588528782528488208789528252848820541580610790575b610757575b84516060810181811083821117610744577fc1118fa877c5ac1c7de2e57076d1f49b734e12010837899e0cf6b7ba54cfe1189798999a5086528481528281019184835260018783019282421684528a8d528c86528c8c8a822091528652888d2090518155019251166fffffffffffffffff000000000000000083549251881b16916fffffffffffffffffffffffffffffffff1916171790558351928352820152a380f35b634e487b7160e01b8a5260418b5260248afd5b858852888252818589205410156107805785885288825261077a87868a2061207f565b506106a0565b845163c7877bb560e01b81528990fd5b5083151561069b565b845163e2517d3f60e01b815233818b01526000805160206121978339815191526024820152604490fd5b5060008051602061219783398151915288526000805160206121b78339815191528252848820338952825260ff85892054161561067e565b845163555c720360e01b81528990fd5b50503461026b578160031936011261026b5751908152602090f35b503461023e5760e036600319011261023e576001600160401b03813581811161023a576108569036908401611531565b94909260243583811161023e576108709036908301611531565b60449291923585811161023a5761088a9036908401611531565b606492919235878111610236576108a49036908601611531565b939092608435898111610910576108be9036908801611531565b97909660a4358b811161090c576108d89036908301611531565b9b909a60c4359182116105ab57509161090460209f9c9a9896949261022d9e9c9a989694369101611531565b9c909b6115ec565b8a80fd5b8880fd5b503461023e578160031936011261023e578160209360ff92610934611343565b903582526000805160206121b783398151915286528282206001600160a01b039091168252855220549151911615158152f35b503461023e57602036600319011261023e5781610545936109909235815260036020522061148c565b90519182918261136f565b50503461026b578160031936011261026b5760207f62e78cea01bee320cd4e420270b5ea74000d11b0c9f74754ebdbfc544b05a258916109d9611853565b6109e1611be0565b6000805160206121d7833981519152805460ff1916600117905551338152a180f35b50503461026b578160031936011261026b5760209051600a8152f35b50503461026b578160031936011261026b5760209060ff6000805160206121d7833981519152541690519015158152f35b50503461026b57602036600319011261026b57610a6b611328565b610a73611853565b610a7b611be0565b6001600160a01b03168083526002602052908220805460ff191660011790557fda0c067505b27fe7df440d442ad25b9e11df605505c09b00befd268bdd63bc2d8280a280f35b50503461026b573660031901126105ab57610ada611328565b602435801515810361023e57610aee611853565b15610afc576102b7906118de565b6102b790611ab5565b5091346105ab57806003193601126105ab57507f00000000000000000000000000000000000000000000000000000000000000006001600160a01b03163003610b7157602090517f360894a13ba1a3210667c828492db98dca3e2076cc3735a920a3ca505d382bbc8152f35b5163703e46dd60e11b8152fd5b5082903461026b5760208060031936011261023e576001600160401b0393823585811161023a57610bb29036908501611425565b9290610bbc611853565b82518281019085838337610bde84828881018b838201520380845201826113e9565b5190209485875260038352610bf584882054611452565b610d7e5785875260038352838720978511610d6b5750610c158754611452565b601f8111610d28575b508596601f8511600114610ca2578491829182899a7fe41e8325c3432ae4b251ac1f09f8bd9e2292797bd1a7bfdd1865b85cf165581a999a91610c97575b508360011b906000198560031b1c19161790555b8451958487958652850152848401378181018301879052601f01601f19168101030190a280f35b90508201358b610c5c565b808752828720601f198616885b818110610d115750918693917fe41e8325c3432ae4b251ac1f09f8bd9e2292797bd1a7bfdd1865b85cf165581a98999a85809510610cf7575b5050600183811b019055610c70565b830135600019600386901b60f8161c191690558a80610ce8565b848b01358355998501996001909201918501610caf565b878752828720601f860160051c810191848710610d61575b601f0160051c01905b818110610d565750610c1e565b878155600101610d49565b9091508190610d40565b634e487b7160e01b875260419052602486fd5b8351637784569b60e01b8152fd5b50908060031936011261023e57610da1611328565b9060249384356001600160401b03811161026b573660238201121561026b5780850135610dcd8161140a565b94610dda855196876113e9565b81865260209182870193368a8383010111610fe9578186928b8693018737880101526001600160a01b037f00000000000000000000000000000000000000000000000000000000000000008116308114908115610fbb575b50610fab57610e3f611853565b81169585516352d1902d60e01b815283818a818b5afa869181610f7c575b50610e79575050505050505191634c9c8ce360e01b8352820152fd5b9088888894938c7f360894a13ba1a3210667c828492db98dca3e2076cc3735a920a3ca505d382bbc91828103610f675750853b15610f53575080546001600160a01b031916821790558451889392917fbc7cd75a20ee27fd9adebab32041f755214dbc6bffa90cc0225b39da2e5c2d3b8580a2825115610f355750506102b79582915190845af4913d15610f2b573d610f1d610f148261140a565b925192836113e9565b81528581943d92013e612133565b5060609250612133565b955095505050505034610f4757505080f35b63b398979f60e01b8152fd5b8651634c9c8ce360e01b8152808501849052fd5b8751632a87526960e21b815280860191909152fd5b9091508481813d8311610fa4575b610f9481836113e9565b8101031261023657519038610e5d565b503d610f8a565b855163703e46dd60e11b81528890fd5b9050817f360894a13ba1a3210667c828492db98dca3e2076cc3735a920a3ca505d382bbc5416141538610e32565b8580fd5b503461023e57602036600319011261023e578160209360ff923581526001855220541690519015158152f35b503461023e578260031936011261023e57611032611853565b6000805160206121d78339815191529081549060ff821615611082575060ff19169055513381527f5db9ee0a495bf2e6ff9c91a7834c1ba4fdd244a5e8aa4e537bd38aeae4b073aa90602090a180f35b8351638dfc202b60e01b8152fd5b503461023e576020806003193601126111b6576110ab611328565b6110b3611853565b6001600160a01b031680855260028252838520805460ff1916905582825283852054909390926110e284611587565b926110ef835194856113e9565b848452601f196110fe86611587565b013682860137865b8581106111895750865b8581106111405787877fda8899880b90e12fdeb16124863be5e5465ea82eca7069167b49385fd841ec918280a280f35b600190878952888352848920611156828861159e565b518a52835288828682208281550155878952838352611182858a2061117b838961159e565b5190611f78565b5001611110565b60019087895283835261119e81868b20611f60565b90549060031b1c6111af828861159e565b5201611106565b8380fd5b5091903461026b578060031936011261026b576111d5611343565b90336001600160a01b038316036111f257506102b7919235611b5d565b5163334bd91960e11b81528390fd5b50903461023e578060031936011261023e576102b791356112256001610293611343565b611a2e565b503461023e57602036600319011261023e57816020936001923581526000805160206121b783398151915285522001549051908152f35b503461023e57602036600319011261023e5760209282916001600160a01b03611288611328565b168252845220549051908152f35b50503461026b57602036600319011261026b5760209160ff9082906001600160a01b036112c1611328565b1681526002855220541690519015158152f35b9250503461023e57602036600319011261023e573563ffffffff60e01b811680910361023e5760209250637965db0b60e01b8114908115611317575b5015158152f35b6301ffc9a760e01b14905038611310565b600435906001600160a01b038216820361133e57565b600080fd5b602435906001600160a01b038216820361133e57565b604435906001600160a01b038216820361133e57565b6020808252825181830181905290939260005b8281106113a457505060409293506000838284010152601f8019910116010190565b818101860151848201604001528501611382565b60a081019081106001600160401b038211176113d357604052565b634e487b7160e01b600052604160045260246000fd5b90601f801991011681019081106001600160401b038211176113d357604052565b6001600160401b0381116113d357601f01601f191660200190565b9181601f8401121561133e578235916001600160401b03831161133e576020838186019501011161133e57565b90600182811c92168015611482575b602083101461146c57565b634e487b7160e01b600052602260045260246000fd5b91607f1691611461565b9060405191826000825461149f81611452565b9081845260209460019160018116908160001461150f57506001146114d0575b5050506114ce925003836113e9565b565b600090815285812095935091905b8183106114f75750506114ce93508201013880806114bf565b855488840185015294850194879450918301916114de565b925050506114ce94925060ff191682840152151560051b8201013880806114bf565b9181601f8401121561133e578235916001600160401b03831161133e576020808501948460051b01011161133e57565b608435906001600160401b038216820361133e57565b60a4359060ff8216820361133e57565b6001600160401b0381116113d35760051b60200190565b80518210156115b25760209160051b010190565b634e487b7160e01b600052603260045260246000fd5b91908110156115b25760051b0190565b356001600160a01b038116810361133e5790565b9c93909b969b9a929897949199959a60c05260a05260805260c0511561184157600a60c0511161182f578660c05114801590611821575b8015611815575b8015611809575b80156117fd575b80156117f1575b6117df5760005b60c051811061166057505050505050505050505050600190565b61166e818d60c051906115c8565b35888210156115b25760059082821b8b0135601e198c36030181121561133e578b01916001600160401b0383351161133e578235901b3603602083011361133e576116c66116c18460805160a0516115c8565b6115d8565b60c0516000198101116117b7578d8d8560001960c0510181146000146117cd57505050335b6116f6858c8a6115c8565b3561170286888c6115c8565b35916001600160401b038316830361133e5761171f878a8e6115c8565b359360ff8516850361133e5760018801968789116117b75760ff61174b98169660208235920190611dd4565b156117655780151580611776575b61176557600101611646565b505050505050505050505050600090565b506117896116c18260805160a0516115c8565b60001982018281116117b7578b6117ad6116c18f9360018060a01b039485946115c8565b1691161415611759565b634e487b7160e01b600052601160045260246000fd5b6117da926116c1926115c8565b6116eb565b60405163512509d360e11b8152600490fd5b508160c051141561163f565b508060c0511415611638565b508560c0511415611631565b508960c051141561162a565b5060805160c0511415611623565b60405163c253bd8960e01b8152600490fd5b604051630b1bc1e560e21b8152600490fd5b3360009081527fb7db2dd08fcb62d0c9e08c51941cae53c267786a0b75803fb7960902fc8ef97d602052604081205460ff161561188d5750565b6044906040519063e2517d3f60e01b82523360048301526024820152fd5b806000526000805160206121b783398151915260205260406000203360005260205260ff604060002054161561188d5750565b6001600160a01b031660008181527fca3a258cd1c05b961393016e8708aba378937b0d78f6e02cccb2fd8c4c442cc66020526040812054909190600080516020612197833981519152906000805160206121b78339815191529060ff16611988578184526020526040832082845260205260408320600160ff198254161790557f2f8788117e7eff1d82e926ec794901d17c78024a50270940304540a733656f0d339380a4600190565b50505090565b6001600160a01b031660008181527fb7db2dd08fcb62d0c9e08c51941cae53c267786a0b75803fb7960902fc8ef97d60205260408120549091906000805160206121b78339815191529060ff16611a29578280526020526040822081835260205260408220600160ff1982541617905533917f2f8788117e7eff1d82e926ec794901d17c78024a50270940304540a733656f0d8180a4600190565b505090565b906000918083526000805160206121b783398151915280602052604084209260018060a01b03169283855260205260ff60408520541615600014611988578184526020526040832082845260205260408320600160ff198254161790557f2f8788117e7eff1d82e926ec794901d17c78024a50270940304540a733656f0d339380a4600190565b6001600160a01b031660008181527fca3a258cd1c05b961393016e8708aba378937b0d78f6e02cccb2fd8c4c442cc66020526040812054909190600080516020612197833981519152906000805160206121b78339815191529060ff161561198857818452602052604083208284526020526040832060ff1981541690557ff6391f5c32d9c69d2a47ea670b442974b53935d1edc7fd64eb21e047a839171b339380a4600190565b906000918083526000805160206121b783398151915280602052604084209260018060a01b03169283855260205260ff60408520541660001461198857818452602052604083208284526020526040832060ff1981541690557ff6391f5c32d9c69d2a47ea670b442974b53935d1edc7fd64eb21e047a839171b339380a4600190565b60ff6000805160206121d78339815191525416611bf957565b60405163d93c066560e01b8152600490fd5b90969195969493929460018060a01b038096166000948186526020946002865260409760ff8989205416611dc5578787528888208189528752888820998a549c8d15611d8f576001600160401b0390816001809e0154168015159081611dbb575b50611da957888b5260018a5260ff8c8c205416611da957169283151580611da0575b611d8f5760ff16600111611d7f579086949392918a5193898501958652168a8401526060830152608082015260808152611cc7816113b8565b51902003611d7457611cd887611587565b96611ce5865198896113e9565b8088528388019060051b820191368311610fe957879695949392915b828210611d62575050509582955b611d1e575b5050505050501490565b8051861015611d5d578596611d3486978361159e565b519081811015611d4f5784528252848484205b970195611d0f565b908452825284848420611d47565b611d14565b81358152889750908401908401611d01565b505050935050505090565b5050505050505050935050505090565b505050505050505050935050505090565b50428410611c8e565b50505050505050505050935050505090565b9050421138611c6c565b50505050505050935050505090565b91969397959794929460018060a01b03809616906000958287526020956002875260409860ff8a8a205416611d7f57888852898920828a5288528989209a8b549d8e15611da9576001600160401b0390816001809f0154168015159081611f56575b50611f4357898c5260018b5260ff8d8d205416611f4357169384151580611f3a575b611da95760ff809116911611611d7f579086949392918a5193898501958652168a8401526060830152608082015260808152611e93816113b8565b51902003611d7457611ea487611587565b96611eb1865198896113e9565b8088528388019060051b820191368311610fe957879695949392915b828210611f28575050509582955b611ee9575050505050501490565b8051861015611d5d578596611eff86978361159e565b519081811015611f1a5784528252848484205b970195611edb565b908452825284848420611f12565b81358152889750908401908401611ecd565b50428510611e58565b5050505050505050505050935050505090565b9050421138611e36565b80548210156115b25760005260206000200190600090565b9060018201906000928184528260205260408420549081151560001461207857600019918083018181116120645782549084820191821161205057818103612004575b50505080548015611ff057820191611fd38383611f60565b909182549160031b1b191690555582526020526040812055600190565b634e487b7160e01b86526031600452602486fd5b61203b6120146120249386611f60565b90549060031b1c92839286611f60565b819391549060031b91821b91600019901b19161790565b90558652846020526040862055388080611fbb565b634e487b7160e01b88526011600452602488fd5b634e487b7160e01b87526011600452602487fd5b5050505090565b919060018301600090828252806020526040822054156000146120ec57845494680100000000000000008610156120d857836120c8612024886001604098999a01855584611f60565b9055549382526020522055600190565b634e487b7160e01b83526041600452602483fd5b50925050565b60ff7ff0c57e16840df040f15088dc2f81fe391c3923bec73e23a9662efc9c229c6a005460401c161561212157565b604051631afcd79f60e31b8152600490fd5b9061215a575080511561214857805190602001fd5b60405163d6bda27560e01b8152600490fd5b8151158061218d575b61216b575090565b604051639996b31560e01b81526001600160a01b039091166004820152602490fd5b50803b1561216356fe74f28e511945f0c7e6b920293543cc0af92b61e5354edca36cce70da5d12e05402dd7bc7dec4dceedda775e58dd541e08a116c6c53815c0bd028192f7b626800cd5ed15c6e187e77e9aee88184c21f4f2182ab5827cb3b7e07fbedcd63f03300a26469706673582212208efd0e56e2c28e09a86349a59dd5436a64d653849fa14e6ee0330e9bab4aa0f664736f6c63430008180033",
  "linkReferences": {},
  "deployedLinkReferences": {}
}