{
  "_format": "hh-sol-artifact-1",
  "contractName": "CredentialRegistry",
  "sourceName": "src/CredentialRegistry.sol",
  "abi": [
    {
      "inputs": [],
      "stateMutability": "nonpayable",
      "type": "constructor"
    },
    {
      "anonymous": false,
      "inputs": [
        {
          "indexed": true,
          "internalType": "bytes32",
          "name": "newRoot",
          "type": "bytes32"
        }
      ],
      "name": "ActiveRootUpdated",
      "type": "event"
    },
    {
      "anonymous": false,
      "inputs": [
        {
          "indexed": true,
          "internalType": "address",
          "name": "issuer",
          "type": "address"
        },
        {
          "indexed": true,
          "internalType": "bytes32",
          "name": "commitment",
          "type": "bytes32"
        },
        {
          "indexed": false,
          "internalType": "uint64",
          "name": "expiry",
          "type": "uint64"
        }
      ],
      "name": "CredentialIssued",
      "type": "event"
    },
    {
      "anonymous": false,
      "inputs": [
        {
          "indexed": true,
          "internalType": "address",
          "name": "issuer",
          "type": "address"
        },
        {
          "indexed": true,
          "internalType": "bytes32",
          "name": "commitment",
          "type": "bytes32"
        }
      ],
      "name": "CredentialRevoked",
      "type": "event"
    },
    {
      "anonymous": false,
      "inputs": [
        {
          "indexed": true,
          "internalType": "bytes32",
          "name": "newRoot",
          "type": "bytes32"
        }
      ],
      "name": "RevokedSecretRootUpdated",
      "type": "event"
    },
    {
      "inputs": [],
      "name": "activeRoot",
      "outputs": [
        {
          "internalType": "bytes32",
          "name": "",
          "type": "bytes32"
        }
      ],
      "stateMutability": "view",
      "type": "function"
    },
    {
      "inputs": [
        {
          "internalType": "address",
          "name": "issuer",
          "type": "address"
        }
      ],
      "name": "addIssuer",
      "outputs": [],
      "stateMutability": "nonpayable",
      "type": "function"
    },
    {
      "inputs": [
        {
          "internalType": "bytes32",
          "name": "nullifier",
          "type": "bytes32"
        }
      ],
      "name": "isNullifierUsed",
      "outputs": [
        {
          "internalType": "bool",
          "name": "",
          "type": "bool"
        }
      ],
      "stateMutability": "view",
      "type": "function"
    },
    {
      "inputs": [
        {
          "internalType": "address",
          "name": "",
          "type": "address"
        }
      ],
      "name": "issuers",
      "outputs": [
        {
          "internalType": "bool",
          "name": "",
          "type": "bool"
        }
      ],
      "stateMutability": "view",
      "type": "function"
    },
    {
      "inputs": [
        {
          "internalType": "bytes32",
          "name": "nullifier",
          "type": "bytes32"
        }
      ],
      "name": "markNullifierUsed",
      "outputs": [],
      "stateMutability": "nonpayable",
      "type": "function"
    },
    {
      "inputs": [],
      "name": "owner",
      "outputs": [
        {
          "internalType": "address",
          "name": "",
          "type": "address"
        }
      ],
      "stateMutability": "view",
      "type": "function"
    },
    {
      "inputs": [
        {
          "internalType": "address",
          "name": "issuer",
          "type": "address"
        }
      ],
      "name": "removeIssuer",
      "outputs": [],
      "stateMutability": "nonpayable",
      "type": "function"
    },
    {
      "inputs": [],
      "name": "revokedSecretRoot",
      "outputs": [
        {
          "internalType": "bytes32",
          "name": "",
          "type": "bytes32"
        }
      ],
      "stateMutability": "view",
      "type": "function"
    },
    {
      "inputs": [
        {
          "internalType": "address",
          "name": "",
          "type": "address"
        }
      ],
      "name": "sessionManagers",
      "outputs": [
        {
          "internalType": "bool",
          "name": "",
          "type": "bool"
        }
      ],
      "stateMutability": "view",
      "type": "function"
    },
    {
      "inputs": [
        {
          "internalType": "address",
          "name": "sessionManager",
          "type": "address"
        },
        {
          "internalType": "bool",
          "name": "allowed",
          "type": "bool"
        }
      ],
      "name": "setSessionManager",
      "outputs": [],
      "stateMutability": "nonpayable",
      "type": "function"
    },
    {
      "inputs": [
        {
          "internalType": "bytes32",
          "name": "newRoot",
          "type": "bytes32"
        }
      ],
      "name": "updateActiveRoot",
      "outputs": [],
      "stateMutability": "nonpayable",
      "type": "function"
    },
    {
      "inputs": [
        {
          "internalType": "bytes32",
          "name": "newRoot",
          "type": "bytes32"
        }
      ],
      "name": "updateRevokedSecretRoot",
      "outputs": [],
      "stateMutability": "nonpayable",
      "type": "function"
    },
    {
      "inputs": [
        {
          "internalType": "bytes32",
          "name": "",
          "type": "bytes32"
        }
      ],
      "name": "usedNullifiers",
      "outputs": [
        {
          "internalType": "bool",
          "name": "",
          "type": "bool"
        }
      ],
      "stateMutability": "view",
      "type": "function"
    }
  ],
  "bytecode": "0x60808060405234610045576001600081815581546001600160a01b0319163390811783558152600260205260409020805460ff1916909117905561055f908161004b8239f35b600080fdfe6080604081815260048036101561001557600080fd5b600092833560e01c908163057cb0f51461038257508063206137aa1461030957806320694db01461033557806322dc7b4c1461030957806323914869146102a657806338a7543e1461026857806347bc70931461021e5780636b6debf7146101ff5780638da5cb5b146101d6578063abb2efdf146101b9578063c1c67f5f14610158578063eb9e5849146101165763f54e3a85146100b257600080fd5b346101125760203660031901126101125760ff6100dc913592338552600260205284205416610499565b6100e46104d3565b806005557e12e8d1cf1cc3bbbeeed8d45e664cae7b568efc953ca943c64e07f3f4e588598280a26001815580f35b8280fd5b5050346101545760203660031901126101545760209160ff9082906001600160a01b03610141610445565b1681526003855220541690519015158152f35b5080fd5b505034610154578060031936011261015457610172610445565b90602435918215158093036101b5576001546001600160a01b03919061019b9083163314610460565b168352600360205282209060ff8019835416911617905580f35b8380fd5b503461011257826003193601126101125760209250549051908152f35b50503461015457816003193601126101545760015490516001600160a01b039091168152602090f35b5050346101545781600319360112610154576020906005549051908152f35b50503461015457602036600319011261015457610239610445565b6001546001600160a01b0391906102539083163314610460565b16825260026020528120805460ff1916905580f35b5050346101545760203660031901126101545760209160ff9082906001600160a01b03610293610445565b1681526002855220541690519015158152f35b50903461011257602036600319011261011257816102d560ff9335938493338752600260205286205416610499565b6102dd6104d3565b557f76261461236844337b0eb16561d37bd90c48cf1b779a7122006f8df07243d4188280a26001815580f35b5034610112576020366003190112610112578160209360ff923581526006855220541690519015158152f35b50503461015457602036600319011261015457610350610445565b6001546001600160a01b03919061036a9083163314610460565b16825260026020528120805460ff1916600117905580f35b9050346101b55760209182600319360112610441578035913386526003845260ff85872054161561040b57508185526006835260ff84862054166103d757508352600690528120805460ff1916600117905580f35b835162461bcd60e51b8152908101839052600e60248201526d139d5b1b1a599a595c881d5cd95960921b6044820152606490fd5b8360649262461bcd60e51b8352820152601460248201527327b7363c9039b2b9b9b4b7b71036b0b730b3b2b960611b6044820152fd5b8480fd5b600435906001600160a01b038216820361045b57565b600080fd5b1561046757565b60405162461bcd60e51b815260206004820152600a60248201526927b7363c9037bbb732b960b11b6044820152606490fd5b156104a057565b60405162461bcd60e51b815260206004820152600b60248201526a27b7363c9034b9b9bab2b960a91b6044820152606490fd5b6002600054146104e4576002600055565b60405162461bcd60e51b815260206004820152601f60248201527f5265656e7472616e637947756172643a207265656e7472616e742063616c6c006044820152606490fdfea2646970667358221220fe229cd4141ce0a436a946ead201849e3229cd83b663de71f2b5d1f4d59ea3cc64736f6c63430008180033",
  "linkReferences": {},
  "deployedLinkReferences": {}
}