{
  "_format": "hh-sol-artifact-1",
  "contractName": "CredentialRegistry",
  "sourceName": "src/CredentialRegistry.sol",
  "abi": [
    {
      "inputs": [],
      "stateMutability": "nonpayable",
      "type": "constructor"
    },
    {
      "anonymous": false,
      "inputs": [
        {
          "indexed": true,
          "internalType": "bytes32",
          "name": "newRoot",
          "type": "bytes32"
        }
      ],
      "name": "ActiveRootUpdated",
      "type": "event"
    },
    {
      "anonymous": false,
      "inputs": [
        {
          "indexed": true,
          "internalType": "address",
          "name": "issuer",
          "type": "address"
        },
        {
          "indexed": true,
          "internalType": "bytes32",
          "name": "commitment",
          "type": "bytes32"
        },
        {
          "indexed": false,
          "internalType": "uint64",
          "name": "expiry",
          "type": "uint64"
        }
      ],
      "name": "CredentialIssued",
      "type": "event"
    },
    {
      "anonymous": false,
      "inputs": [
        {
          "indexed": true,
          "internalType": "address",
          "name": "issuer",
          "type": "address"
        },
        {
          "indexed": true,
          "internalType": "bytes32",
          "name": "commitment",
          "type": "bytes32"
        }
      ],
      "name": "CredentialRevoked",
      "type": "event"
    },
    {
      "anonymous": false,
      "inputs": [
        {
          "indexed": true,
          "internalType": "bytes32",
          "name": "newRoot",
          "type": "bytes32"
        }
      ],
      "name": "RevokedSecretRootUpdated",
      "type": "event"
    },
    {
      "inputs": [],
      "name": "activeRoot",
      "outputs": [
        {
          "internalType": "bytes32",
          "name": "",
          "type": "bytes32"
        }
      ],
      "stateMutability": "view",
      "type": "function"
    },
    {
      "inputs": [
        {
          "internalType": "address",
          "name": "issuer",
          "type": "address"
        }
      ],
      "name": "addIssuer",
      "outputs": [],
      "stateMutability": "nonpayable",
      "type": "function"
    },
    {
      "inputs": [
        {
          "internalType": "bytes32",
          "name": "nullifier",
          "type": "bytes32"
        }
      ],
      "name": "isNullifierUsed",
      "outputs": [
        {
          "internalType": "bool",
          "name": "",
          "type": "bool"
        }
      ],
      "stateMutability": "view",
      "type": "function"
    },
    {
      "inputs": [
        {
          "internalType": "address",
          "name": "",
          "type": "address"
        }
      ],
      "name": "issuers",
      "outputs": [
        {
          "internalType": "bool",
          "name": "",
          "type": "bool"
        }
      ],
      "stateMutability": "view",
      "type": "function"
    },
    {
      "inputs": [
        {
          "internalType": "bytes32",
          "name": "nullifier",
          "type": "bytes32"
        }
      ],
      "name": "markNullifierUsed",
      "outputs": [],
      "stateMutability": "nonpayable",
      "type": "function"
    },
    {
      "inputs": [],
      "name": "owner",
      "outputs": [
        {
          "internalType": "address",
          "name": "",
          "type": "address"
        }
      ],
      "stateMutability": "view",
      "type": "function"
    },
    {
      "inputs": [
        {
          "internalType": "address",
          "name": "issuer",
          "type": "address"
        }
      ],
      "name": "removeIssuer",
      "outputs": [],
      "stateMutability": "nonpayable",
      "type": "function"
    },
    {
      "inputs": [],
      "name": "revokedSecretRoot",
      "outputs": [
        {
          "internalType": "bytes32",
          "name": "",
          "type": "bytes32"
        }
      ],
      "stateMutability": "view",
      "type": "function"
    },
    {
      "inputs": [
        {
          "internalType": "address",
          "name": "",
          "type": "address"
        }
      ],
      "name": "sessionManagers",
      "outputs": [
        {
          "internalType": "bool",
          "name": "",
          "type": "bool"
        }
      ],
      "stateMutability": "view",
      "type": "function"
    },
    {
      "inputs": [
        {
          "internalType": "address",
          "name": "sessionManager",
          "type": "address"
        },
        {
          "internalType": "bool",
          "name": "allowed",
          "type": "bool"
        }
      ],
      "name": "setSessionManager",
      "outputs": [],
      "stateMutability": "nonpayable",
      "type": "function"
    },
    {
      "inputs": [
        {
          "internalType": "address",
          "name": "newOwner",
          "type": "address"
        }
      ],
      "name": "transferOwnership",
      "outputs": [],
      "stateMutability": "nonpayable",
      "type": "function"
    },
    {
      "inputs": [
        {
          "internalType": "bytes32",
          "name": "newRoot",
          "type": "bytes32"
        }
      ],
      "name": "updateActiveRoot",
      "outputs": [],
      "stateMutability": "nonpayable",
      "type": "function"
    },
    {
      "inputs": [
        {
          "internalType": "bytes32",
          "name": "newRoot",
          "type": "bytes32"
        }
      ],
      "name": "updateRevokedSecretRoot",
      "outputs": [],
      "stateMutability": "nonpayable",
      "type": "function"
    },
    {
      "inputs": [
        {
          "internalType": "bytes32",
          "name": "",
          "type": "bytes32"
        }
      ],
      "name": "usedNullifiers",
      "outputs": [
        {
          "internalType": "bool",
          "name": "",
          "type": "bool"
        }
      ],
      "stateMutability": "view",
      "type": "function"
    }
  ],
  "bytecode": "0x60808060405234610045576001600081815581546001600160a01b0319163390811783558152600260205260409020805460ff191690911790556105ed908161004b8239f35b600080fdfe6080604081815260048036101561001557600080fd5b600092833560e01c908163057cb0f51461041057508063206137aa1461039757806320694db0146103c357806322dc7b4c14610397578063239148691461033457806338a7543e146102f657806347bc7093146102ac5780636b6debf71461028d5780638da5cb5b14610264578063abb2efdf14610247578063c1c67f5f146101e6578063eb9e5849146101a4578063f2fde38b146101215763f54e3a85146100bd57600080fd5b3461011d57602036600319011261011d5760ff6100e7913592338552600260205284205416610527565b6100ef610561565b806005557e12e8d1cf1cc3bbbeeed8d45e664cae7b568efc953ca943c64e07f3f4e588598280a26001815580f35b8280fd5b503461011d57602036600319011261011d5761013b6104d3565b60015491906001600160a01b039061015633838616146104ee565b169283156101715750506001600160a01b0319161760015580f35b906020606492519162461bcd60e51b8352820152600d60248201526c24b73b30b634b21037bbb732b960991b6044820152fd5b5050346101e25760203660031901126101e25760209160ff9082906001600160a01b036101cf6104d3565b1681526003855220541690519015158152f35b5080fd5b5050346101e257806003193601126101e2576102006104d3565b9060243591821515809303610243576001546001600160a01b03919061022990831633146104ee565b168352600360205282209060ff8019835416911617905580f35b8380fd5b503461011d578260031936011261011d5760209250549051908152f35b5050346101e257816003193601126101e25760015490516001600160a01b039091168152602090f35b5050346101e257816003193601126101e2576020906005549051908152f35b5050346101e25760203660031901126101e2576102c76104d3565b6001546001600160a01b0391906102e190831633146104ee565b16825260026020528120805460ff1916905580f35b5050346101e25760203660031901126101e25760209160ff9082906001600160a01b036103216104d3565b1681526002855220541690519015158152f35b50903461011d57602036600319011261011d578161036360ff9335938493338752600260205286205416610527565b61036b610561565b557f76261461236844337b0eb16561d37bd90c48cf1b779a7122006f8df07243d4188280a26001815580f35b503461011d57602036600319011261011d578160209360ff923581526006855220541690519015158152f35b5050346101e25760203660031901126101e2576103de6104d3565b6001546001600160a01b0391906103f890831633146104ee565b16825260026020528120805460ff1916600117905580f35b90503461024357602091826003193601126104cf578035913386526003845260ff85872054161561049957508185526006835260ff848620541661046557508352600690528120805460ff1916600117905580f35b835162461bcd60e51b8152908101839052600e60248201526d139d5b1b1a599a595c881d5cd95960921b6044820152606490fd5b8360649262461bcd60e51b8352820152601460248201527327b7363c9039b2b9b9b4b7b71036b0b730b3b2b960611b6044820152fd5b8480fd5b600435906001600160a01b03821682036104e957565b600080fd5b156104f557565b60405162461bcd60e51b815260206004820152600a60248201526927b7363c9037bbb732b960b11b6044820152606490fd5b1561052e57565b60405162461bcd60e51b815260206004820152600b60248201526a27b7363c9034b9b9bab2b960a91b6044820152606490fd5b600260005414610572576002600055565b60405162461bcd60e51b815260206004820152601f60248201527f5265656e7472616e637947756172643a207265656e7472616e742063616c6c006044820152606490fdfea26469706673582212208ede5c3e4ee1614f79f30b4237416d303874a7a85f33405e1cbf5d93422316e864736f6c63430008180033",
  "linkReferences": {},
  "deployedLinkReferences": {}
}