{
  "_format": "hh-sol-artifact-1",
  "contractName": "CredentialRegistry",
  "sourceName": "src/CredentialRegistry.sol",
  "abi": [
    {
      "inputs": [],
      "stateMutability": "nonpayable",
      "type": "constructor"
    },
    {
      "anonymous": false,
      "inputs": [
        {
          "indexed": true,
          "internalType": "bytes32",
          "name": "newRoot",
          "type": "bytes32"
        }
      ],
      "name": "ActiveRootUpdated",
      "type": "event"
    },
    {
      "anonymous": false,
      "inputs": [
        {
          "indexed": true,
          "internalType": "address",
          "name": "issuer",
          "type": "address"
        },
        {
          "indexed": true,
          "internalType": "uint64",
          "name": "agentId",
          "type": "uint64"
        },
        {
          "indexed": true,
          "internalType": "bytes32",
          "name": "commitment",
          "type": "bytes32"
        },
        {
          "indexed": false,
          "internalType": "uint64",
          "name": "expiry",
          "type": "uint64"
        }
      ],
      "name": "CredentialIssued",
      "type": "event"
    },
    {
      "anonymous": false,
      "inputs": [
        {
          "indexed": true,
          "internalType": "address",
          "name": "issuer",
          "type": "address"
        },
        {
          "indexed": true,
          "internalType": "bytes32",
          "name": "secretHash",
          "type": "bytes32"
        }
      ],
      "name": "CredentialRevoked",
      "type": "event"
    },
    {
      "anonymous": false,
      "inputs": [
        {
          "indexed": true,
          "internalType": "bytes32",
          "name": "newRoot",
          "type": "bytes32"
        }
      ],
      "name": "RevokedSecretRootUpdated",
      "type": "event"
    },
    {
      "inputs": [],
      "name": "activeRoot",
      "outputs": [
        {
          "internalType": "bytes32",
          "name": "",
          "type": "bytes32"
        }
      ],
      "stateMutability": "view",
      "type": "function"
    },
    {
      "inputs": [
        {
          "internalType": "address",
          "name": "issuer",
          "type": "address"
        }
      ],
      "name": "addIssuer",
      "outputs": [],
      "stateMutability": "nonpayable",
      "type": "function"
    },
    {
      "inputs": [
        {
          "internalType": "bytes32",
          "name": "nullifier",
          "type": "bytes32"
        }
      ],
      "name": "isNullifierUsed",
      "outputs": [
        {
          "internalType": "bool",
          "name": "",
          "type": "bool"
        }
      ],
      "stateMutability": "view",
      "type": "function"
    },
    {
      "inputs": [
        {
          "internalType": "address",
          "name": "",
          "type": "address"
        }
      ],
      "name": "issuers",
      "outputs": [
        {
          "internalType": "bool",
          "name": "",
          "type": "bool"
        }
      ],
      "stateMutability": "view",
      "type": "function"
    },
    {
      "inputs": [
        {
          "internalType": "bytes32",
          "name": "nullifier",
          "type": "bytes32"
        }
      ],
      "name": "markNullifierUsed",
      "outputs": [],
      "stateMutability": "nonpayable",
      "type": "function"
    },
    {
      "inputs": [],
      "name": "owner",
      "outputs": [
        {
          "internalType": "address",
          "name": "",
          "type": "address"
        }
      ],
      "stateMutability": "view",
      "type": "function"
    },
    {
      "inputs": [
        {
          "internalType": "address",
          "name": "issuer",
          "type": "address"
        }
      ],
      "name": "removeIssuer",
      "outputs": [],
      "stateMutability": "nonpayable",
      "type": "function"
    },
    {
      "inputs": [],
      "name": "revokedSecretRoot",
      "outputs": [
        {
          "internalType": "bytes32",
          "name": "",
          "type": "bytes32"
        }
      ],
      "stateMutability": "view",
      "type": "function"
    },
    {
      "inputs": [
        {
          "internalType": "address",
          "name": "",
          "type": "address"
        }
      ],
      "name": "sessionManagers",
      "outputs": [
        {
          "internalType": "bool",
          "name": "",
          "type": "bool"
        }
      ],
      "stateMutability": "view",
      "type": "function"
    },
    {
      "inputs": [
        {
          "internalType": "address",
          "name": "sessionManager",
          "type": "address"
        },
        {
          "internalType": "bool",
          "name": "allowed",
          "type": "bool"
        }
      ],
      "name": "setSessionManager",
      "outputs": [],
      "stateMutability": "nonpayable",
      "type": "function"
    },
    {
      "inputs": [
        {
          "internalType": "bytes32",
          "name": "newRoot",
          "type": "bytes32"
        }
      ],
      "name": "updateActiveRoot",
      "outputs": [],
      "stateMutability": "nonpayable",
      "type": "function"
    },
    {
      "inputs": [
        {
          "internalType": "bytes32",
          "name": "newRoot",
          "type": "bytes32"
        }
      ],
      "name": "updateRevokedSecretRoot",
      "outputs": [],
      "stateMutability": "nonpayable",
      "type": "function"
    },
    {
      "inputs": [
        {
          "internalType": "bytes32",
          "name": "",
          "type": "bytes32"
        }
      ],
      "name": "usedNullifiers",
      "outputs": [
        {
          "internalType": "bool",
          "name": "",
          "type": "bool"
        }
      ],
      "stateMutability": "view",
      "type": "function"
    }
  ],
  "bytecode": "0x608060405234801561001057600080fd5b506001600081815581546001600160a01b0319163390811783558152600260205260409020805460ff1916909117905561064e8061004f6000396000f3fe608060405234801561001057600080fd5b50600436106100cf5760003560e01c806347bc70931161008c578063abb2efdf11610066578063abb2efdf146101e2578063c1c67f5f146101eb578063eb9e5849146101fe578063f54e3a851461022157600080fd5b806347bc70931461018d5780636b6debf7146101a05780638da5cb5b146101b757600080fd5b8063057cb0f5146100d4578063206137aa146100e957806320694db01461012157806322dc7b4c14610134578063239148691461015757806338a7543e1461016a575b600080fd5b6100e76100e2366004610561565b610234565b005b61010c6100f7366004610561565b60066020526000908152604090205460ff1681565b60405190151581526020015b60405180910390f35b6100e761012f366004610596565b6102fa565b61010c610142366004610561565b60009081526006602052604090205460ff1690565b6100e7610165366004610561565b610348565b61010c610178366004610596565b60026020526000908152604090205460ff1681565b6100e761019b366004610596565b6103da565b6101a960055481565b604051908152602001610118565b6001546101ca906001600160a01b031681565b6040516001600160a01b039091168152602001610118565b6101a960045481565b6100e76101f93660046105b8565b610425565b61010c61020c366004610596565b60036020526000908152604090205460ff1681565b6100e761022f366004610561565b61047a565b3360009081526003602052604090205460ff1661028f5760405162461bcd60e51b815260206004820152601460248201527327b7363c9039b2b9b9b4b7b71036b0b730b3b2b960611b60448201526064015b60405180910390fd5b60008181526006602052604090205460ff16156102df5760405162461bcd60e51b815260206004820152600e60248201526d139d5b1b1a599a595c881d5cd95960921b6044820152606401610286565b6000908152600660205260409020805460ff19166001179055565b6001546001600160a01b031633146103245760405162461bcd60e51b8152600401610286906105f4565b6001600160a01b03166000908152600260205260409020805460ff19166001179055565b3360009081526002602052604090205460ff166103955760405162461bcd60e51b815260206004820152600b60248201526a27b7363c9034b9b9bab2b960a91b6044820152606401610286565b61039d610508565b600481905560405181907f76261461236844337b0eb16561d37bd90c48cf1b779a7122006f8df07243d41890600090a26103d76001600055565b50565b6001546001600160a01b031633146104045760405162461bcd60e51b8152600401610286906105f4565b6001600160a01b03166000908152600260205260409020805460ff19169055565b6001546001600160a01b0316331461044f5760405162461bcd60e51b8152600401610286906105f4565b6001600160a01b03919091166000908152600360205260409020805460ff1916911515919091179055565b3360009081526002602052604090205460ff166104c75760405162461bcd60e51b815260206004820152600b60248201526a27b7363c9034b9b9bab2b960a91b6044820152606401610286565b6104cf610508565b600581905560405181907e12e8d1cf1cc3bbbeeed8d45e664cae7b568efc953ca943c64e07f3f4e5885990600090a26103d76001600055565b60026000540361055a5760405162461bcd60e51b815260206004820152601f60248201527f5265656e7472616e637947756172643a207265656e7472616e742063616c6c006044820152606401610286565b6002600055565b60006020828403121561057357600080fd5b5035919050565b80356001600160a01b038116811461059157600080fd5b919050565b6000602082840312156105a857600080fd5b6105b18261057a565b9392505050565b600080604083850312156105cb57600080fd5b6105d48361057a565b9150602083013580151581146105e957600080fd5b809150509250929050565b6020808252600a908201526927b7363c9037bbb732b960b11b60408201526060019056fea26469706673582212207b7c7a5ba6fbf834757c560fa86122a1df6e07a136360492d633b061836f23be64736f6c63430008180033",
  "linkReferences": {},
  "deployedLinkReferences": {}
}