{
  "_format": "hh-sol-artifact-1",
  "contractName": "Groth16Verifier",
  "sourceName": "src/CredentialVerifierV1.sol",
  "abi": [
    {
      "inputs": [
        {
          "internalType": "uint256[2]",
          "name": "_pA",
          "type": "uint256[2]"
        },
        {
          "internalType": "uint256[2][2]",
          "name": "_pB",
          "type": "uint256[2][2]"
        },
        {
          "internalType": "uint256[2]",
          "name": "_pC",
          "type": "uint256[2]"
        },
        {
          "internalType": "uint256[7]",
          "name": "_pubSignals",
          "type": "uint256[7]"
        }
      ],
      "name": "verifyProof",
      "outputs": [
        {
          "internalType": "bool",
          "name": "",
          "type": "bool"
        }
      ],
      "stateMutability": "view",
      "type": "function"
    }
  ],
  "bytecode": "0x6080806040523461001657610825908161001c8239f35b600080fdfe6080604052600436101561001257600080fd5b6000803560e01c63c894e7571461002857600080fd5b346103d4576101e090816003193601126103d457610045366103d7565b913660c4116103d057610057366103e9565b366101e4116103cc5760209384916104006040526101496101043561007b816103f7565b6101446101243561008b816103f7565b61013f6101443561009b816103f7565b61013a610164356100ab816103f7565b61013561018435936100bc856103f7565b6101306101a435976100cd896103f7565b61012b6101c4359b6100de8d6103f7565b7f0af86c2fe2cc47c93f4bbc329e1519edefed3828a2540fa4610cf7023098b3776080527f0de67c995f6f3c16f6aa3f070fc8633ce0a93b0e053742a99efb524f97aab01f60a05261042a565b6104b4565b61053e565b6105c7565b610651565b6106db565b610765565b7f2eb7d78e9690b7148029f284f15ee57f251fa0d8e5671e4c54ca33fe41bc871061010094838694358552857f30644e72e131a029b85045b68181585d97816a916871ca8d3c208c16d87cfd479101358103066101205260443561014052606435610160526084356101805260a4356101a0527f1c0aa967e87744ff6a1411a90b9d6e65391b1576324976a1fe717f8f41bddbfe6101c052527f29a944e34909ed002afedd777328db9a6ddfdf9bb088b578f45f83d62e8f07cb610200527f2f33974fa973d355f85bde05e26f0e7772837ab21846463b3d7cb0be3e2a4bb3610220527f268590a466550db775faf8f27ff2db172e82c8c739b6d5365652ea0d376203ef610240527f0a12514f234b26b4361624802597b70b703e85c76379018ac51bc0d59fb1ddd9610260526080516102805260a0516102a0527f198e9393920d483a7260bfb731fb5d25f1aa493335a9e71297e485b7aef312c26102c0527f1800deef121f1e76426a00665e5c4479674322d4f75edadd46debd5cd992f6ed6102e05282610300917f090689d0585ff075ec9e99ad690c3395bc4b313370b38ef355acdadcd122975b83527f12c85ea5db8c6deb4aab71808dcb408fe3d1e7690c43d37b4ce6cc0166fa7daa610320528035610340520135610360527f0bd2dcb66ef54a215e4d7588e3e3d82d19bf9222089694c0b4d98adddb171f87610380527f2f42a70d6917d33fbdca260499ad9ca07906219aeb1c2e27b42c9b1d28a3eefa6103a0527f1113181fa02de67c428d07c158f8488bd162254f65eafc01ee82f16b399f92906103c0527f0762cd75ac378de0a106e6ea0c66febb147ec6026d9e0d7cb3717a8af20d6f8c6103e0528160086107cf195a01fa9051168152f35b8280fd5b5080fd5b80fd5b906004916044116103e457565b600080fd5b9060c491610104116103e457565b7f30644e72e131a029b85045b68181585d2833e84879b9709143e1f593f0000001111561042057565b6000805260206000f35b604051907f0d2e3463406bf09ea562d34763a5f7be1d08b0a8fe1c846ee0e35815d9373efc82527f02f9e0655d2d626c242cd17584c00f289c6cc43869d87433269c48578def65516020830152604082019081526107cf196040836060816007855a01fa156104205760409260066080939284938451905260a05160608401525a01fa1561042057565b604051907f04f3dff32fa2a5b82f3dacc818f56fa64d783988b403daef28ed550b78172eac82527f263d02161d67f3102e44802aa4bbe8e3500bfc1131528b6c847122d6bd9932aa6020830152604082019081526107cf196040836060816007855a01fa156104205760409260066080939284938451905260a05160608401525a01fa1561042057565b604051907ebf709d144427fe0dc57c29f2115bdf8b69eee72a56edd232ec36d2dd814aae82527f2d2be778c0cd01cbbfe85f0f06f5368a4582cea2e5a9995e24894966bbdef3276020830152604082019081526107cf196040836060816007855a01fa156104205760409260066080939284938451905260a05160608401525a01fa1561042057565b604051907f1492b5bddcfffb20c8bc67deb41b3cf42e79e41b3986c30a128ac113c995c66182527f23f7f99c7db977548059bc38a42e1494c886879827d39ff8c3450478ad52b2d46020830152604082019081526107cf196040836060816007855a01fa156104205760409260066080939284938451905260a05160608401525a01fa1561042057565b604051907f0b3f812c733e505b3ded50096ac47439b4a92d07eccdf0604edb5da5df51480082527f2fe3d98be40773252e50769f4b3d7e28b621d5f1c21aaac34e9bfcad9075ce996020830152604082019081526107cf196040836060816007855a01fa156104205760409260066080939284938451905260a05160608401525a01fa1561042057565b604051907f04c513b527b6e95cc8b7c70f35b14ef8be4713fcc5c9e2f6937e92e7b02589e182527f1db78ce31c62f2e08dc819a35b6cd2a11ff68f4a03f76dea1c00fc38a71c812c6020830152604082019081526107cf196040836060816007855a01fa156104205760409260066080939284938451905260a05160608401525a01fa1561042057565b604051907f19e5977090df9f120756f38248cdb760f442ec0adb38e88731d5621244fc60ee82527f1a97dda149e0cce85bdf34f0f25bc1624ef33acf6cc86830ea75235e82ca7e936020830152604082019081526107cf196040836060816007855a01fa156104205760409260066080939284938451905260a05160608401525a01fa156104205756fea26469706673582212206a3b9bf71c3d0ae949b2366ab97bc95c9297c65f30894166af5336742a0318d664736f6c63430008180033",
  "linkReferences": {},
  "deployedLinkReferences": {}
}