{
  "_format": "hh-sol-artifact-1",
  "contractName": "Groth16Verifier",
  "sourceName": "src/Credentialverifier.sol",
  "abi": [
    {
      "inputs": [
        {
          "internalType": "uint256[2]",
          "name": "_pA",
          "type": "uint256[2]"
        },
        {
          "internalType": "uint256[2][2]",
          "name": "_pB",
          "type": "uint256[2][2]"
        },
        {
          "internalType": "uint256[2]",
          "name": "_pC",
          "type": "uint256[2]"
        },
        {
          "internalType": "uint256[5]",
          "name": "_pubSignals",
          "type": "uint256[5]"
        }
      ],
      "name": "verifyProof",
      "outputs": [
        {
          "internalType": "bool",
          "name": "",
          "type": "bool"
        }
      ],
      "stateMutability": "view",
      "type": "function"
    }
  ],
  "bytecode": "0x60808060405234610016576106e8908161001c8239f35b600080fdfe6080604052600436101561001257600080fd5b6000803560e01c6334baeab91461002857600080fd5b346103aa576101a090816003193601126103aa57610045366103ad565b913660c4116103a657610057366103bf565b366101a4116103a257602093849161040060405261011e6101043561007b816103cd565b6101196101243561008b816103cd565b6101146101443561009b816103cd565b61010f61016435936100ac856103cd565b61010a61018435976100bd896103cd565b7f18022ea32ca53aaeb9ba952c4e1d6d82c333773f491feb80a31ea46091ddcf7f6080527f28f1bdb000f59108ea5218607a21834007ae8a415e22183540ac6962365bb3ce60a052610400565b61048a565b610514565b61059e565b610628565b61010093828593358452847f30644e72e131a029b85045b68181585d97816a916871ca8d3c208c16d87cfd479101358103066101205260443561014052606435610160526084356101805260a43590527f1c0aa967e87744ff6a1411a90b9d6e65391b1576324976a1fe717f8f41bddbfe6101c0527f2eb7d78e9690b7148029f284f15ee57f251fa0d8e5671e4c54ca33fe41bc87106101e0527f29a944e34909ed002afedd777328db9a6ddfdf9bb088b578f45f83d62e8f07cb610200527f2f33974fa973d355f85bde05e26f0e7772837ab21846463b3d7cb0be3e2a4bb3610220527f268590a466550db775faf8f27ff2db172e82c8c739b6d5365652ea0d376203ef610240527f0a12514f234b26b4361624802597b70b703e85c76379018ac51bc0d59fb1ddd9610260526080516102805260a0516102a0527f198e9393920d483a7260bfb731fb5d25f1aa493335a9e71297e485b7aef312c26102c0527f1800deef121f1e76426a00665e5c4479674322d4f75edadd46debd5cd992f6ed6102e05282610300917f090689d0585ff075ec9e99ad690c3395bc4b313370b38ef355acdadcd122975b83527f12c85ea5db8c6deb4aab71808dcb408fe3d1e7690c43d37b4ce6cc0166fa7daa610320528035610340520135610360527f0b0176c40c73317c490cc6b3b39c1e946099a0f3874800f4b76b0d9a70e73765610380527f0ccb86bd62a75377fa4dffd11543982a824c2ff78b0afbcef4878e6da220d1e66103a0527f1de99e3545c70432e2db8338070f1cf877f606148aacdcfde38fdac5ec5aa08b6103c0527f305b8bfe03a68b9c3b85cd0b8dd1696c1d286873cabf482cf1b556985ce9dfc06103e0528160086107cf195a01fa9051168152f35b8280fd5b5080fd5b80fd5b906004916044116103ba57565b600080fd5b9060c491610104116103ba57565b7f30644e72e131a029b85045b68181585d2833e84879b9709143e1f593f000000111156103f657565b6000805260206000f35b604051907f23e0d3ed7e718c2265ca0bb59fd48b37440d9f8af798d65ce020cac6b458e9b482527f235103869ab738ab0da7a9f31232e504ed33d6ab23cc1f74977db4e6709cf08f6020830152604082019081526107cf196040836060816007855a01fa156103f65760409260066080939284938451905260a05160608401525a01fa156103f657565b604051907f0a26e4df729f73c7190df45cb5984551ef1bf41137f24df8be357736b5334eb182527f0678561b52a3a0b56e1623dd791199600092f8cb65c6dec0a451e8ba50d894556020830152604082019081526107cf196040836060816007855a01fa156103f65760409260066080939284938451905260a05160608401525a01fa156103f657565b604051907f172f1d4395b66e356caf7a7791e1f6ac58005d607e27f259c1a3f204f69640bf82527f145902d4c6cd2632504a6cf462fc8cbabb13fba1504ca4fde9e9b06374bc6be56020830152604082019081526107cf196040836060816007855a01fa156103f65760409260066080939284938451905260a05160608401525a01fa156103f657565b604051907f039181c0fa1278b4a118ca0f22bdc5feb92369e8da5d0ef90e536cb07f60b4ba82527f1af1cd1564f43fb1ce87ef5cbfcb3967966a20ddb9add6e1b57b676b010845026020830152604082019081526107cf196040836060816007855a01fa156103f65760409260066080939284938451905260a05160608401525a01fa156103f657565b604051907f089e70628968f7d06240a02e258b85b4f8ccc20c59998375fce6551f8147ad4b82527f0c8cb1b8afba3308db88a9082d7813b15bb1e62a350583f3db9d142d070751706020830152604082019081526107cf196040836060816007855a01fa156103f65760409260066080939284938451905260a05160608401525a01fa156103f65756fea264697066735822122019863c16c3d26f7192da695b77f86690302533baddec757a51ec9cfad997bd1d64736f6c63430008180033",
  "linkReferences": {},
  "deployedLinkReferences": {}
}