{
  "_format": "hh-sol-artifact-1",
  "contractName": "SessionManager",
  "sourceName": "src/SessionManager.sol",
  "abi": [
    {
      "inputs": [
        {
          "internalType": "address",
          "name": "_verifier",
          "type": "address"
        },
        {
          "internalType": "address",
          "name": "_registry",
          "type": "address"
        }
      ],
      "stateMutability": "nonpayable",
      "type": "constructor"
    },
    {
      "anonymous": false,
      "inputs": [
        {
          "indexed": true,
          "internalType": "bytes32",
          "name": "sessionId",
          "type": "bytes32"
        },
        {
          "indexed": false,
          "internalType": "uint64",
          "name": "newDay",
          "type": "uint64"
        }
      ],
      "name": "DailyLimitsReset",
      "type": "event"
    },
    {
      "anonymous": false,
      "inputs": [
        {
          "indexed": true,
          "internalType": "bytes32",
          "name": "sessionId",
          "type": "bytes32"
        },
        {
          "indexed": true,
          "internalType": "address",
          "name": "sessionKey",
          "type": "address"
        },
        {
          "indexed": false,
          "internalType": "uint256",
          "name": "dailySpendLimit",
          "type": "uint256"
        },
        {
          "indexed": false,
          "internalType": "uint256",
          "name": "dailyTxLimit",
          "type": "uint256"
        },
        {
          "indexed": false,
          "internalType": "uint64",
          "name": "expiry",
          "type": "uint64"
        }
      ],
      "name": "LightSessionCreated",
      "type": "event"
    },
    {
      "anonymous": false,
      "inputs": [
        {
          "indexed": true,
          "internalType": "bytes32",
          "name": "sessionId",
          "type": "bytes32"
        }
      ],
      "name": "LightSessionRevoked",
      "type": "event"
    },
    {
      "anonymous": false,
      "inputs": [
        {
          "indexed": true,
          "internalType": "bytes32",
          "name": "sessionId",
          "type": "bytes32"
        },
        {
          "indexed": false,
          "internalType": "uint256",
          "name": "value",
          "type": "uint256"
        },
        {
          "indexed": false,
          "internalType": "uint256",
          "name": "newDailySpend",
          "type": "uint256"
        }
      ],
      "name": "LightSessionUsed",
      "type": "event"
    },
    {
      "anonymous": false,
      "inputs": [
        {
          "indexed": true,
          "internalType": "bytes32",
          "name": "sessionId",
          "type": "bytes32"
        },
        {
          "indexed": true,
          "internalType": "address",
          "name": "sessionKey",
          "type": "address"
        },
        {
          "indexed": false,
          "internalType": "uint64",
          "name": "expiry",
          "type": "uint64"
        },
        {
          "indexed": false,
          "internalType": "uint128",
          "name": "maxValue",
          "type": "uint128"
        }
      ],
      "name": "SessionCreated",
      "type": "event"
    },
    {
      "anonymous": false,
      "inputs": [
        {
          "indexed": true,
          "internalType": "bytes32",
          "name": "sessionId",
          "type": "bytes32"
        }
      ],
      "name": "SessionRevoked",
      "type": "event"
    },
    {
      "anonymous": false,
      "inputs": [
        {
          "indexed": true,
          "internalType": "bytes32",
          "name": "sessionId",
          "type": "bytes32"
        },
        {
          "indexed": false,
          "internalType": "uint256",
          "name": "value",
          "type": "uint256"
        },
        {
          "indexed": false,
          "internalType": "uint256",
          "name": "totalUsed",
          "type": "uint256"
        }
      ],
      "name": "SessionUsed",
      "type": "event"
    },
    {
      "inputs": [
        {
          "internalType": "bytes32",
          "name": "sessionId",
          "type": "bytes32"
        },
        {
          "internalType": "address",
          "name": "sessionKey",
          "type": "address"
        },
        {
          "internalType": "uint256",
          "name": "dailySpendLimit",
          "type": "uint256"
        },
        {
          "internalType": "uint256",
          "name": "dailyTxLimit",
          "type": "uint256"
        },
        {
          "internalType": "uint64",
          "name": "expiry",
          "type": "uint64"
        },
        {
          "internalType": "bytes",
          "name": "ownerSignature",
          "type": "bytes"
        }
      ],
      "name": "createLightweightSession",
      "outputs": [],
      "stateMutability": "nonpayable",
      "type": "function"
    },
    {
      "inputs": [
        {
          "internalType": "bytes32",
          "name": "sessionId",
          "type": "bytes32"
        },
        {
          "internalType": "address",
          "name": "sessionKey",
          "type": "address"
        },
        {
          "internalType": "uint128",
          "name": "maxValue",
          "type": "uint128"
        },
        {
          "internalType": "uint64",
          "name": "expiry",
          "type": "uint64"
        },
        {
          "internalType": "bytes32",
          "name": "nullifier",
          "type": "bytes32"
        },
        {
          "internalType": "uint256[2]",
          "name": "a",
          "type": "uint256[2]"
        },
        {
          "internalType": "uint256[2][2]",
          "name": "b",
          "type": "uint256[2][2]"
        },
        {
          "internalType": "uint256[2]",
          "name": "c",
          "type": "uint256[2]"
        },
        {
          "internalType": "uint256[5]",
          "name": "publicSignals",
          "type": "uint256[5]"
        }
      ],
      "name": "createSession",
      "outputs": [],
      "stateMutability": "nonpayable",
      "type": "function"
    },
    {
      "inputs": [
        {
          "internalType": "bytes32",
          "name": "sessionId",
          "type": "bytes32"
        }
      ],
      "name": "getLightSession",
      "outputs": [
        {
          "internalType": "address",
          "name": "sessionKey",
          "type": "address"
        },
        {
          "internalType": "uint256",
          "name": "dailySpendLimit",
          "type": "uint256"
        },
        {
          "internalType": "uint256",
          "name": "dailyTxLimit",
          "type": "uint256"
        },
        {
          "internalType": "uint256",
          "name": "dailySpendUsed",
          "type": "uint256"
        },
        {
          "internalType": "uint256",
          "name": "dailyTxUsed",
          "type": "uint256"
        },
        {
          "internalType": "uint64",
          "name": "expiry",
          "type": "uint64"
        },
        {
          "internalType": "bool",
          "name": "revoked",
          "type": "bool"
        }
      ],
      "stateMutability": "view",
      "type": "function"
    },
    {
      "inputs": [
        {
          "internalType": "address",
          "name": "wallet",
          "type": "address"
        }
      ],
      "name": "getWalletSessions",
      "outputs": [
        {
          "internalType": "bytes32[]",
          "name": "",
          "type": "bytes32[]"
        }
      ],
      "stateMutability": "view",
      "type": "function"
    },
    {
      "inputs": [
        {
          "internalType": "bytes32",
          "name": "",
          "type": "bytes32"
        }
      ],
      "name": "lightSessions",
      "outputs": [
        {
          "internalType": "address",
          "name": "sessionKey",
          "type": "address"
        },
        {
          "internalType": "uint256",
          "name": "dailySpendLimit",
          "type": "uint256"
        },
        {
          "internalType": "uint256",
          "name": "dailyTxLimit",
          "type": "uint256"
        },
        {
          "internalType": "uint256",
          "name": "dailySpendUsed",
          "type": "uint256"
        },
        {
          "internalType": "uint256",
          "name": "dailyTxUsed",
          "type": "uint256"
        },
        {
          "internalType": "uint64",
          "name": "lastResetDay",
          "type": "uint64"
        },
        {
          "internalType": "uint64",
          "name": "expiry",
          "type": "uint64"
        },
        {
          "internalType": "bool",
          "name": "revoked",
          "type": "bool"
        }
      ],
      "stateMutability": "view",
      "type": "function"
    },
    {
      "inputs": [],
      "name": "registry",
      "outputs": [
        {
          "internalType": "contract ICredentialRegistry",
          "name": "",
          "type": "address"
        }
      ],
      "stateMutability": "view",
      "type": "function"
    },
    {
      "inputs": [
        {
          "internalType": "bytes32",
          "name": "sessionId",
          "type": "bytes32"
        }
      ],
      "name": "revokeLightweightSession",
      "outputs": [],
      "stateMutability": "nonpayable",
      "type": "function"
    },
    {
      "inputs": [
        {
          "internalType": "bytes32",
          "name": "sessionId",
          "type": "bytes32"
        }
      ],
      "name": "revokeSession",
      "outputs": [],
      "stateMutability": "nonpayable",
      "type": "function"
    },
    {
      "inputs": [
        {
          "internalType": "bytes32",
          "name": "",
          "type": "bytes32"
        }
      ],
      "name": "sessions",
      "outputs": [
        {
          "internalType": "address",
          "name": "sessionKey",
          "type": "address"
        },
        {
          "internalType": "uint256",
          "name": "valueUsed",
          "type": "uint256"
        },
        {
          "internalType": "uint256",
          "name": "maxValue",
          "type": "uint256"
        },
        {
          "internalType": "uint64",
          "name": "expiry",
          "type": "uint64"
        },
        {
          "internalType": "bool",
          "name": "revoked",
          "type": "bool"
        }
      ],
      "stateMutability": "view",
      "type": "function"
    },
    {
      "inputs": [
        {
          "internalType": "bytes32",
          "name": "sessionId",
          "type": "bytes32"
        },
        {
          "internalType": "address",
          "name": "signer",
          "type": "address"
        },
        {
          "internalType": "uint256",
          "name": "value",
          "type": "uint256"
        }
      ],
      "name": "validateLightweightSession",
      "outputs": [
        {
          "internalType": "bool",
          "name": "",
          "type": "bool"
        }
      ],
      "stateMutability": "nonpayable",
      "type": "function"
    },
    {
      "inputs": [
        {
          "internalType": "bytes32",
          "name": "sessionId",
          "type": "bytes32"
        },
        {
          "internalType": "address",
          "name": "signer",
          "type": "address"
        },
        {
          "internalType": "uint256",
          "name": "value",
          "type": "uint256"
        }
      ],
      "name": "validateSession",
      "outputs": [
        {
          "internalType": "bool",
          "name": "",
          "type": "bool"
        }
      ],
      "stateMutability": "nonpayable",
      "type": "function"
    },
    {
      "inputs": [],
      "name": "verifier",
      "outputs": [
        {
          "internalType": "contract IVerifier",
          "name": "",
          "type": "address"
        }
      ],
      "stateMutability": "view",
      "type": "function"
    },
    {
      "inputs": [
        {
          "internalType": "address",
          "name": "",
          "type": "address"
        },
        {
          "internalType": "uint256",
          "name": "",
          "type": "uint256"
        }
      ],
      "name": "walletSessions",
      "outputs": [
        {
          "internalType": "bytes32",
          "name": "",
          "type": "bytes32"
        }
      ],
      "stateMutability": "view",
      "type": "function"
    }
  ],
  "bytecode": "0x60803461009257601f6118b238819003918201601f19168301916001600160401b0383118484101761009757808492604094855283398101031261009257610052602061004b836100ad565b92016100ad565b6001600055600480546001600160a01b039384166001600160a01b031991821617909155600580549290931691161790556040516117f090816100c28239f35b600080fd5b634e487b7160e01b600052604160045260246000fd5b51906001600160a01b03821682036100925756fe608080604052600436101561001357600080fd5b600090813560e01c908162444f4b14610dd3575080630ec163f314610a1d578063186a27571461096f5780631efb10f6146109185780632b7ac3f3146108ef578063356f644d1461086b5780637b103999146108425780637dbd2832146107d75780638eb691b11461074a578063a7fed38514610650578063d00fdab614610504578063dc35e7d4146103825763f545b88b146100af57600080fd5b3461037f576100bd36611421565b909282815260209360028552604082209060018060a01b03808354166100e4811515611576565b6005840180549260ff8460801c16610348576001600160401b0394858560401c164211610311571682036102d3579088918462015180420416948581861610610260575b5050505050506003810161013d8482546115b6565b926001830154841161021b5760048301918254906001820194858311610207576002015485116101c257859055600019146101ae5750917f6710bf7c8828bf28bdddb7b45da3a29d2eca474d615fe28b47075ce7bf67e3c3939160409355825191825285820152a260405160018152f35b634e487b7160e01b81526011600452602490fd5b60405162461bcd60e51b8152600481018a9052601760248201527f4461696c79207478206c696d69742065786365656465640000000000000000006044820152606490fd5b634e487b7160e01b84526011600452602484fd5b60405162461bcd60e51b815260048101889052601a60248201527f4461696c79207370656e64206c696d69742065786365656465640000000000006044820152606490fd5b857ff27cff30b6684ae4bbc9913e70785baafa758cdfef27e76c9773a8cd5cbf9acc958960038a01558960048a01556001600160401b031916178092556040519184830193845260401c166040820152604081526102bd816114c5565b51902092604051908152a2388086818080610128565b60405162461bcd60e51b8152600481018a9052601660248201527524b73b30b634b21039b2b9b9b4b7b71039b4b3b732b960511b6044820152606490fd5b60405162461bcd60e51b8152600481018c9052600f60248201526e14d95cdcda5bdb88195e1c1a5c9959608a1b6044820152606490fd5b60405162461bcd60e51b8152600481018b9052600f60248201526e14d95cdcda5bdb881c995d9bdad959608a1b6044820152606490fd5b80fd5b503461037f5761039136611421565b908284526040602094600186522090600382015460ff8160401c166104d5576001600160401b0316421161049e5781546001600160a01b03908116911603610468576001810160026103e48483546115b6565b92015482116104325791817f8f681f2a4f6cd078b7e4cab4ae8112ef10d6b50b1511bf4915c069cf5d3b835e936001600160801b03604094169055825191825285820152a260405160018152f35b60405162461bcd60e51b815260048101869052600e60248201526d131a5b5a5d08195e18d95959195960921b6044820152606490fd5b60405162461bcd60e51b815260048101859052600e60248201526d24b73b30b634b21039b4b3b732b960911b6044820152606490fd5b60405162461bcd60e51b815260048101869052600f60248201526e14d95cdcda5bdb88115e1c1a5c9959608a1b6044820152606490fd5b60405162461bcd60e51b815260048101879052600760248201526614995d9bdad95960ca1b6044820152606490fd5b503461037f5760208060031936011261064c576004358083526002825260408320805491926001600160a01b0392831691600590610543841515611576565b019283549261055860ff8560801c1615611538565b33149081156105e3575b501561059f575060ff60801b1916600160801b1790557f75603cfad1b4b830ba27b5f2a2867fc0ecde28d51b13b72816b1707b7cd4e9498280a280f35b6064906040519062461bcd60e51b82526004820152601860248201527f4e6f7420617574686f72697a656420746f207265766f6b6500000000000000006044820152fd5b604051638da5cb5b60e01b815291508282600481335afa918215610641578792610612575b5016331438610562565b610633919250833d851161063a575b61062b81836114e0565b810190611519565b9038610608565b503d610621565b6040513d89823e3d90fd5b5080fd5b503461037f57602036600319011261037f5760043580825260016020526040822080546001600160a01b0316908115610713576003019081549061069a60ff8360401c1615611538565b33036106db5768ff00000000000000001916600160401b1790557fcc0f7e7f309149dce2db74723f771f7d96cad368d91763e945dc3956c4dbfb048280a280f35b60405162461bcd60e51b815260206004820152601060248201526f4f6e6c792073657373696f6e206b657960801b6044820152606490fd5b60405162461bcd60e51b815260206004820152600f60248201526e2ab735b737bbb71039b2b9b9b4b7b760891b6044820152606490fd5b503461037f57602036600319011261037f57604061010091600435815260026020522060ff60018060a01b03825416916001810154600282015491600381015460056004830154920154936001600160401b0393604051978852602088015260408701526060860152608085015280821660a08501528160401c1660c084015260801c16151560e0820152f35b503461037f57602036600319011261037f57604060a091600435815260016020522060ff600180841b03825416916001810154906003600282015491015491604051948552602085015260408401526001600160401b038116606084015260401c1615156080820152f35b503461037f578060031936011261037f576005546040516001600160a01b039091168152602090f35b503461037f57602036600319011261037f57604060e091600435815260026020522060ff60018060a01b03825416916001810154906002810154600382015490600560048401549301549360405196875260208701526040860152606085015260808401526001600160401b038160401c1660a084015260801c16151560c0820152f35b503461037f578060031936011261037f576004546040516001600160a01b039091168152602090f35b503461037f57604036600319011261037f576109326113dd565b6001600160a01b031681526003602052604081208054602435929083101561037f57602061096084846113f3565b90549060031b1c604051908152f35b503461037f5760208060031936011261064c576001600160a01b036109926113dd565b168252600381526040822060405192838383549182815201908193835284832090835b818110610a0957505050846109cb9103856114e0565b60405193838594850191818652518092526040850193925b8281106109f257505050500390f35b8351855286955093810193928101926001016109e3565b8254845292860192600192830192016109b5565b503461037f5760c036600319011261037f57600435610a3a6113c7565b90604435606435608435906001600160401b0394858316809303610dce5760a43590868211610dca5736602383011215610dca57816004013596808811610dc6573660248985010111610dc6576001600160a01b03918216978815610d8b57610aa442871161144b565b878a5260209360028552610abe8460408d20541615611488565b60405190858201928a84528b60408401528960608401528760808401528860a084015260a0835260c0830183811086821117610d115787610b6f948f92610b7797816040528251902060fc60e08401937f19457468657265756d205369676e6564204d6573736167653a0a33320000000085520152603c8152610b40816114c5565b5190209280602460405196610b5e85601f19601f86011601896114e0565b8288520183870137840101526115d9565b919091611611565b604051638da5cb5b60e01b81528481600481335afa918215610d805784918c93610d5f575b508116911603610d27576040519061010082019082821081831117610d115760058793868b968e956040528d83528183018c815260408401908b825260608501928884526040896002608089019782895260a08a019e8f8d62015180420416905260c08b019e8f5260e08b019d8e52835252209551166bffffffffffffffffffffffff60a01b865416178555516001850155516002840155516003830155516004820155019351166fffffffffffffffff00000000000000008454935160401b169160ff60801b9051151560801b169270ffffffffffffffffffffffffffffffffff191617171790553387526003815260408720805490600160401b821015610cfd5791610cd6826060969460017f6444c67754985aaf64c147c6bc7eecbe2b7b83724e5f0adb261589fe9707e3929997950181556113f3565b81549060031b9089821b91600019901b19161790556040519384528301526040820152a380f35b634e487b7160e01b89526041600452602489fd5b634e487b7160e01b600052604160045260246000fd5b60405162461bcd60e51b815260048101849052601060248201526f2737ba103bb0b63632ba1037bbb732b960811b6044820152606490fd5b82919350610d7990873d891161063a5761062b81836114e0565b9290610b9c565b6040513d8d823e3d90fd5b60405162461bcd60e51b8152602060048201526013602482015272496e76616c69642073657373696f6e206b657960681b6044820152606490fd5b8880fd5b8780fd5b600080fd5b90503461064c5761024036600319011261064c57610def6113c7565b6044356001600160801b03811681036113c357606435926001600160401b03841684036113bf573660e4116113bf5736610164116113bf57366101a4116113bf5736610244116113bf57600285541461137d5750600284556001600160a01b0382161561134a57610e6a426001600160401b0385161161144b565b600435845260016020526040842054610e8c906001600160a01b031615611488565b6101a435608435036113105760055460405163abb2efdf60e01b81526001600160a01b0390911690602081600481855afa90811561114b5786916112de575b506101c435036112a957604051636b6debf760e01b8152602081600481855afa90811561114b578691611273575b506101e4350361123657610204356001600160801b038316036111fc57610224356001600160401b038516036111c5576040516308b71ed360e21b81526084356004820152602081602481855afa90811561114b5786916111a6575b506111705760048054604080516334baeab960e01b8152926001600160a01b039092169160a4908401378160e488604483015b60028210611156575050506101a481602093604061016460c484013760a0836101048401375afa90811561114b57869161111c575b50156110e7578085913b1561064c57819060246040518094819363057cb0f560e01b835260843560048401525af180156110dc576110a6575b506001600160801b03906004358552600160205260036040862060018060a01b0385166bffffffffffffffffffffffff60a01b8254161781558383166002820155866001820155016001600160401b03851668ffffffffffffffffff198254161790556001600160401b036040519416845216602083015260018060a01b0316907f94b1ef4e34e21e2badb942118f7ae876506e3e69eac566354d868aaaabb4004d604060043592a36001815580f35b6001600160401b0381959295116110c857604052926001600160801b03610ff6565b634e487b7160e01b82526041600452602482fd5b6040513d87823e3d90fd5b60405162461bcd60e51b815260206004820152600d60248201526c24b73b30b634b210383937b7b360991b6044820152606490fd5b61113e915060203d602011611144575b61113681836114e0565b810190611501565b38610fbd565b503d61112c565b6040513d88823e3d90fd5b829350604081816001949581943701930191018492610f88565b60405162461bcd60e51b815260206004820152600e60248201526d139d5b1b1a599a595c881d5cd95960921b6044820152606490fd5b6111bf915060203d6020116111445761113681836114e0565b38610f55565b60405162461bcd60e51b815260206004820152600f60248201526e08af0e0d2e4f240dad2e6dac2e8c6d608b1b6044820152606490fd5b60405162461bcd60e51b815260206004820152601260248201527109ac2f040ecc2d8eaca40dad2e6dac2e8c6d60731b6044820152606490fd5b60405162461bcd60e51b81526020600482015260156024820152740a4caecded6cac840e4dedee840dad2e6dac2e8c6d605b1b6044820152606490fd5b90506020813d6020116112a1575b8161128e602093836114e0565b8101031261129d575138610ef9565b8580fd5b3d9150611281565b60405162461bcd60e51b815260206004820152600d60248201526c0a4dedee840dad2e6dac2e8c6d609b1b6044820152606490fd5b90506020813d602011611308575b816112f9602093836114e0565b8101031261129d575138610ecb565b3d91506112ec565b60405162461bcd60e51b815260206004820152601260248201527109cead8d8d2ccd2cae440dad2e6dac2e8c6d60731b6044820152606490fd5b60405162461bcd60e51b815260206004820152600b60248201526a496e76616c6964206b657960a81b6044820152606490fd5b62461bcd60e51b815260206004820152601f60248201527f5265656e7472616e637947756172643a207265656e7472616e742063616c6c006044820152606490fd5b8480fd5b8380fd5b602435906001600160a01b0382168203610dce57565b600435906001600160a01b0382168203610dce57565b805482101561140b5760005260206000200190600090565b634e487b7160e01b600052603260045260246000fd5b6060906003190112610dce57600435906024356001600160a01b0381168103610dce579060443590565b1561145257565b60405162461bcd60e51b815260206004820152600e60248201526d496e76616c69642065787069727960901b6044820152606490fd5b1561148f57565b60405162461bcd60e51b815260206004820152600e60248201526d53657373696f6e2065786973747360901b6044820152606490fd5b606081019081106001600160401b03821117610d1157604052565b90601f801991011681019081106001600160401b03821117610d1157604052565b90816020910312610dce57518015158103610dce5790565b90816020910312610dce57516001600160a01b0381168103610dce5790565b1561153f57565b60405162461bcd60e51b815260206004820152600f60248201526e105b1c9958591e481c995d9bdad959608a1b6044820152606490fd5b1561157d57565b60405162461bcd60e51b815260206004820152601160248201527014d95cdcda5bdb881b9bdd08199bdd5b99607a1b6044820152606490fd5b919082018092116115c357565b634e487b7160e01b600052601160045260246000fd5b90604181511460001461160757611603916020820151906060604084015193015160001a9061172b565b9091565b5050600090600290565b600581101561171557806116225750565b6001810361166f5760405162461bcd60e51b815260206004820152601860248201527f45434453413a20696e76616c6964207369676e617475726500000000000000006044820152606490fd5b600281036116bc5760405162461bcd60e51b815260206004820152601f60248201527f45434453413a20696e76616c6964207369676e6174757265206c656e677468006044820152606490fd5b6003146116c557565b60405162461bcd60e51b815260206004820152602260248201527f45434453413a20696e76616c6964207369676e6174757265202773272076616c604482015261756560f01b6064820152608490fd5b634e487b7160e01b600052602160045260246000fd5b9291907f7fffffffffffffffffffffffffffffff5d576e7357a4501ddfe92f46681b20a083116117ae5791608094939160ff602094604051948552168484015260408301526060820152600093849182805260015afa156117a15781516001600160a01b0381161561179b579190565b50600190565b50604051903d90823e3d90fd5b5050505060009060039056fea2646970667358221220a05bfd80390de4305a5c1bf9f352c88b6634749cc325f416945e7b211ec9975b64736f6c63430008180033",
  "linkReferences": {},
  "deployedLinkReferences": {}
}