{
  "_format": "hh-sol-artifact-1",
  "contractName": "SessionManager",
  "sourceName": "src/SessionManager.sol",
  "abi": [
    {
      "inputs": [],
      "stateMutability": "nonpayable",
      "type": "constructor"
    },
    {
      "inputs": [],
      "name": "DailySpendLimitExceeded",
      "type": "error"
    },
    {
      "inputs": [],
      "name": "DailyTxLimitExceeded",
      "type": "error"
    },
    {
      "inputs": [],
      "name": "ExpiryMismatch",
      "type": "error"
    },
    {
      "inputs": [],
      "name": "InvalidExpiry",
      "type": "error"
    },
    {
      "inputs": [],
      "name": "InvalidProof",
      "type": "error"
    },
    {
      "inputs": [],
      "name": "InvalidSessionKey",
      "type": "error"
    },
    {
      "inputs": [],
      "name": "InvalidSigner",
      "type": "error"
    },
    {
      "inputs": [],
      "name": "LimitExceeded",
      "type": "error"
    },
    {
      "inputs": [],
      "name": "MaxValueMismatch",
      "type": "error"
    },
    {
      "inputs": [],
      "name": "NotAuthorizedToRevoke",
      "type": "error"
    },
    {
      "inputs": [],
      "name": "NotWalletOwner",
      "type": "error"
    },
    {
      "inputs": [],
      "name": "NullifierAlreadyUsed",
      "type": "error"
    },
    {
      "inputs": [],
      "name": "NullifierMismatch",
      "type": "error"
    },
    {
      "inputs": [],
      "name": "RevokedRootMismatch",
      "type": "error"
    },
    {
      "inputs": [],
      "name": "RootMismatch",
      "type": "error"
    },
    {
      "inputs": [],
      "name": "SessionAlreadyExists",
      "type": "error"
    },
    {
      "inputs": [],
      "name": "SessionAlreadyRevoked",
      "type": "error"
    },
    {
      "inputs": [],
      "name": "SessionExpired",
      "type": "error"
    },
    {
      "inputs": [],
      "name": "SessionIsRevoked",
      "type": "error"
    },
    {
      "inputs": [],
      "name": "SessionNotFound",
      "type": "error"
    },
    {
      "anonymous": false,
      "inputs": [
        {
          "indexed": false,
          "internalType": "address",
          "name": "previousAdmin",
          "type": "address"
        },
        {
          "indexed": false,
          "internalType": "address",
          "name": "newAdmin",
          "type": "address"
        }
      ],
      "name": "AdminChanged",
      "type": "event"
    },
    {
      "anonymous": false,
      "inputs": [
        {
          "indexed": true,
          "internalType": "address",
          "name": "beacon",
          "type": "address"
        }
      ],
      "name": "BeaconUpgraded",
      "type": "event"
    },
    {
      "anonymous": false,
      "inputs": [
        {
          "indexed": true,
          "internalType": "bytes32",
          "name": "sessionId",
          "type": "bytes32"
        },
        {
          "indexed": false,
          "internalType": "uint64",
          "name": "newDay",
          "type": "uint64"
        }
      ],
      "name": "DailyLimitsReset",
      "type": "event"
    },
    {
      "anonymous": false,
      "inputs": [
        {
          "indexed": false,
          "internalType": "uint8",
          "name": "version",
          "type": "uint8"
        }
      ],
      "name": "Initialized",
      "type": "event"
    },
    {
      "anonymous": false,
      "inputs": [
        {
          "indexed": true,
          "internalType": "bytes32",
          "name": "sessionId",
          "type": "bytes32"
        },
        {
          "indexed": true,
          "internalType": "address",
          "name": "sessionKey",
          "type": "address"
        },
        {
          "indexed": false,
          "internalType": "uint256",
          "name": "dailySpendLimit",
          "type": "uint256"
        },
        {
          "indexed": false,
          "internalType": "uint256",
          "name": "dailyTxLimit",
          "type": "uint256"
        },
        {
          "indexed": false,
          "internalType": "uint64",
          "name": "expiry",
          "type": "uint64"
        }
      ],
      "name": "LightSessionCreated",
      "type": "event"
    },
    {
      "anonymous": false,
      "inputs": [
        {
          "indexed": true,
          "internalType": "bytes32",
          "name": "sessionId",
          "type": "bytes32"
        }
      ],
      "name": "LightSessionRevoked",
      "type": "event"
    },
    {
      "anonymous": false,
      "inputs": [
        {
          "indexed": true,
          "internalType": "bytes32",
          "name": "sessionId",
          "type": "bytes32"
        },
        {
          "indexed": false,
          "internalType": "uint256",
          "name": "value",
          "type": "uint256"
        },
        {
          "indexed": false,
          "internalType": "uint256",
          "name": "newDailySpend",
          "type": "uint256"
        }
      ],
      "name": "LightSessionUsed",
      "type": "event"
    },
    {
      "anonymous": false,
      "inputs": [
        {
          "indexed": true,
          "internalType": "address",
          "name": "previousOwner",
          "type": "address"
        },
        {
          "indexed": true,
          "internalType": "address",
          "name": "newOwner",
          "type": "address"
        }
      ],
      "name": "OwnershipTransferred",
      "type": "event"
    },
    {
      "anonymous": false,
      "inputs": [
        {
          "indexed": false,
          "internalType": "address",
          "name": "account",
          "type": "address"
        }
      ],
      "name": "Paused",
      "type": "event"
    },
    {
      "anonymous": false,
      "inputs": [
        {
          "indexed": true,
          "internalType": "bytes32",
          "name": "sessionId",
          "type": "bytes32"
        },
        {
          "indexed": true,
          "internalType": "address",
          "name": "sessionKey",
          "type": "address"
        },
        {
          "indexed": false,
          "internalType": "uint64",
          "name": "expiry",
          "type": "uint64"
        },
        {
          "indexed": false,
          "internalType": "uint128",
          "name": "maxValue",
          "type": "uint128"
        }
      ],
      "name": "SessionCreated",
      "type": "event"
    },
    {
      "anonymous": false,
      "inputs": [
        {
          "indexed": true,
          "internalType": "bytes32",
          "name": "sessionId",
          "type": "bytes32"
        }
      ],
      "name": "SessionRevoked",
      "type": "event"
    },
    {
      "anonymous": false,
      "inputs": [
        {
          "indexed": true,
          "internalType": "bytes32",
          "name": "sessionId",
          "type": "bytes32"
        },
        {
          "indexed": false,
          "internalType": "uint256",
          "name": "value",
          "type": "uint256"
        },
        {
          "indexed": false,
          "internalType": "uint256",
          "name": "totalUsed",
          "type": "uint256"
        }
      ],
      "name": "SessionUsed",
      "type": "event"
    },
    {
      "anonymous": false,
      "inputs": [
        {
          "indexed": false,
          "internalType": "address",
          "name": "account",
          "type": "address"
        }
      ],
      "name": "Unpaused",
      "type": "event"
    },
    {
      "anonymous": false,
      "inputs": [
        {
          "indexed": true,
          "internalType": "address",
          "name": "implementation",
          "type": "address"
        }
      ],
      "name": "Upgraded",
      "type": "event"
    },
    {
      "inputs": [
        {
          "internalType": "bytes32",
          "name": "sessionId",
          "type": "bytes32"
        },
        {
          "internalType": "address",
          "name": "sessionKey",
          "type": "address"
        },
        {
          "internalType": "uint256",
          "name": "dailySpendLimit",
          "type": "uint256"
        },
        {
          "internalType": "uint256",
          "name": "dailyTxLimit",
          "type": "uint256"
        },
        {
          "internalType": "uint64",
          "name": "expiry",
          "type": "uint64"
        },
        {
          "internalType": "bytes",
          "name": "ownerSignature",
          "type": "bytes"
        }
      ],
      "name": "createLightweightSession",
      "outputs": [],
      "stateMutability": "nonpayable",
      "type": "function"
    },
    {
      "inputs": [
        {
          "internalType": "bytes32",
          "name": "sessionId",
          "type": "bytes32"
        },
        {
          "internalType": "address",
          "name": "sessionKey",
          "type": "address"
        },
        {
          "internalType": "uint128",
          "name": "maxValue",
          "type": "uint128"
        },
        {
          "internalType": "uint64",
          "name": "expiry",
          "type": "uint64"
        },
        {
          "internalType": "bytes32",
          "name": "nullifier",
          "type": "bytes32"
        },
        {
          "internalType": "uint256[2]",
          "name": "a",
          "type": "uint256[2]"
        },
        {
          "internalType": "uint256[2][2]",
          "name": "b",
          "type": "uint256[2][2]"
        },
        {
          "internalType": "uint256[2]",
          "name": "c",
          "type": "uint256[2]"
        },
        {
          "internalType": "uint256[5]",
          "name": "publicSignals",
          "type": "uint256[5]"
        }
      ],
      "name": "createSession",
      "outputs": [],
      "stateMutability": "nonpayable",
      "type": "function"
    },
    {
      "inputs": [
        {
          "internalType": "bytes32",
          "name": "sessionId",
          "type": "bytes32"
        }
      ],
      "name": "getLightSession",
      "outputs": [
        {
          "internalType": "address",
          "name": "sessionKey",
          "type": "address"
        },
        {
          "internalType": "uint256",
          "name": "dailySpendLimit",
          "type": "uint256"
        },
        {
          "internalType": "uint256",
          "name": "dailyTxLimit",
          "type": "uint256"
        },
        {
          "internalType": "uint256",
          "name": "dailySpendUsed",
          "type": "uint256"
        },
        {
          "internalType": "uint256",
          "name": "dailyTxUsed",
          "type": "uint256"
        },
        {
          "internalType": "uint64",
          "name": "expiry",
          "type": "uint64"
        },
        {
          "internalType": "bool",
          "name": "revoked",
          "type": "bool"
        }
      ],
      "stateMutability": "view",
      "type": "function"
    },
    {
      "inputs": [
        {
          "internalType": "address",
          "name": "wallet",
          "type": "address"
        }
      ],
      "name": "getWalletSessions",
      "outputs": [
        {
          "internalType": "bytes32[]",
          "name": "",
          "type": "bytes32[]"
        }
      ],
      "stateMutability": "view",
      "type": "function"
    },
    {
      "inputs": [
        {
          "internalType": "address",
          "name": "verifier_",
          "type": "address"
        },
        {
          "internalType": "address",
          "name": "registry_",
          "type": "address"
        }
      ],
      "name": "initialize",
      "outputs": [],
      "stateMutability": "nonpayable",
      "type": "function"
    },
    {
      "inputs": [
        {
          "internalType": "bytes32",
          "name": "",
          "type": "bytes32"
        }
      ],
      "name": "lightSessions",
      "outputs": [
        {
          "internalType": "address",
          "name": "sessionKey",
          "type": "address"
        },
        {
          "internalType": "uint256",
          "name": "dailySpendLimit",
          "type": "uint256"
        },
        {
          "internalType": "uint256",
          "name": "dailyTxLimit",
          "type": "uint256"
        },
        {
          "internalType": "uint256",
          "name": "dailySpendUsed",
          "type": "uint256"
        },
        {
          "internalType": "uint256",
          "name": "dailyTxUsed",
          "type": "uint256"
        },
        {
          "internalType": "uint64",
          "name": "lastResetDay",
          "type": "uint64"
        },
        {
          "internalType": "uint64",
          "name": "expiry",
          "type": "uint64"
        },
        {
          "internalType": "bool",
          "name": "revoked",
          "type": "bool"
        }
      ],
      "stateMutability": "view",
      "type": "function"
    },
    {
      "inputs": [],
      "name": "owner",
      "outputs": [
        {
          "internalType": "address",
          "name": "",
          "type": "address"
        }
      ],
      "stateMutability": "view",
      "type": "function"
    },
    {
      "inputs": [],
      "name": "pause",
      "outputs": [],
      "stateMutability": "nonpayable",
      "type": "function"
    },
    {
      "inputs": [],
      "name": "paused",
      "outputs": [
        {
          "internalType": "bool",
          "name": "",
          "type": "bool"
        }
      ],
      "stateMutability": "view",
      "type": "function"
    },
    {
      "inputs": [],
      "name": "proxiableUUID",
      "outputs": [
        {
          "internalType": "bytes32",
          "name": "",
          "type": "bytes32"
        }
      ],
      "stateMutability": "view",
      "type": "function"
    },
    {
      "inputs": [],
      "name": "registry",
      "outputs": [
        {
          "internalType": "contract ICredentialRegistry",
          "name": "",
          "type": "address"
        }
      ],
      "stateMutability": "view",
      "type": "function"
    },
    {
      "inputs": [],
      "name": "renounceOwnership",
      "outputs": [],
      "stateMutability": "nonpayable",
      "type": "function"
    },
    {
      "inputs": [
        {
          "internalType": "bytes32",
          "name": "sessionId",
          "type": "bytes32"
        },
        {
          "internalType": "address",
          "name": "wallet",
          "type": "address"
        }
      ],
      "name": "revokeLightweightSession",
      "outputs": [],
      "stateMutability": "nonpayable",
      "type": "function"
    },
    {
      "inputs": [
        {
          "internalType": "bytes32",
          "name": "sessionId",
          "type": "bytes32"
        },
        {
          "internalType": "address",
          "name": "wallet",
          "type": "address"
        }
      ],
      "name": "revokeSession",
      "outputs": [],
      "stateMutability": "nonpayable",
      "type": "function"
    },
    {
      "inputs": [
        {
          "internalType": "bytes32",
          "name": "",
          "type": "bytes32"
        }
      ],
      "name": "sessions",
      "outputs": [
        {
          "internalType": "address",
          "name": "sessionKey",
          "type": "address"
        },
        {
          "internalType": "uint256",
          "name": "valueUsed",
          "type": "uint256"
        },
        {
          "internalType": "uint256",
          "name": "maxValue",
          "type": "uint256"
        },
        {
          "internalType": "uint64",
          "name": "expiry",
          "type": "uint64"
        },
        {
          "internalType": "bool",
          "name": "revoked",
          "type": "bool"
        }
      ],
      "stateMutability": "view",
      "type": "function"
    },
    {
      "inputs": [
        {
          "internalType": "address",
          "name": "newOwner",
          "type": "address"
        }
      ],
      "name": "transferOwnership",
      "outputs": [],
      "stateMutability": "nonpayable",
      "type": "function"
    },
    {
      "inputs": [],
      "name": "unpause",
      "outputs": [],
      "stateMutability": "nonpayable",
      "type": "function"
    },
    {
      "inputs": [
        {
          "internalType": "address",
          "name": "newImplementation",
          "type": "address"
        }
      ],
      "name": "upgradeTo",
      "outputs": [],
      "stateMutability": "nonpayable",
      "type": "function"
    },
    {
      "inputs": [
        {
          "internalType": "address",
          "name": "newImplementation",
          "type": "address"
        },
        {
          "internalType": "bytes",
          "name": "data",
          "type": "bytes"
        }
      ],
      "name": "upgradeToAndCall",
      "outputs": [],
      "stateMutability": "payable",
      "type": "function"
    },
    {
      "inputs": [
        {
          "internalType": "bytes32",
          "name": "sessionId",
          "type": "bytes32"
        },
        {
          "internalType": "address",
          "name": "signer",
          "type": "address"
        },
        {
          "internalType": "uint256",
          "name": "value",
          "type": "uint256"
        }
      ],
      "name": "validateLightweightSession",
      "outputs": [
        {
          "internalType": "bool",
          "name": "",
          "type": "bool"
        }
      ],
      "stateMutability": "nonpayable",
      "type": "function"
    },
    {
      "inputs": [
        {
          "internalType": "bytes32",
          "name": "sessionId",
          "type": "bytes32"
        },
        {
          "internalType": "address",
          "name": "signer",
          "type": "address"
        },
        {
          "internalType": "uint256",
          "name": "value",
          "type": "uint256"
        }
      ],
      "name": "validateSession",
      "outputs": [
        {
          "internalType": "bool",
          "name": "",
          "type": "bool"
        }
      ],
      "stateMutability": "nonpayable",
      "type": "function"
    },
    {
      "inputs": [],
      "name": "verifier",
      "outputs": [
        {
          "internalType": "contract IVerifier",
          "name": "",
          "type": "address"
        }
      ],
      "stateMutability": "view",
      "type": "function"
    },
    {
      "inputs": [
        {
          "internalType": "address",
          "name": "",
          "type": "address"
        },
        {
          "internalType": "uint256",
          "name": "",
          "type": "uint256"
        }
      ],
      "name": "walletSessions",
      "outputs": [
        {
          "internalType": "bytes32",
          "name": "",
          "type": "bytes32"
        }
      ],
      "stateMutability": "view",
      "type": "function"
    }
  ],
  "bytecode": "0x60a080604052346100dc57306080526000549060ff8260081c1661008a575060ff8082160361004f575b60405161222d90816100e282396080518181816107d8015281816108d80152610dcf0152f35b60ff90811916176000557f7f26b83ff96e1f2b6a682f133852f6798a09c465da95921460cefb3847402498602060405160ff8152a138610029565b62461bcd60e51b815260206004820152602760248201527f496e697469616c697a61626c653a20636f6e747261637420697320696e697469604482015266616c697a696e6760c81b6064820152608490fd5b600080fdfe608080604052600436101561001357600080fd5b600090813560e01c908162444f4b14611675575080630ec163f314611322578063186a2757146112735780631efb10f61461121c5780632a2d9380146111135780632b7ac3f3146110e9578063356f644d146110645780633659cfe614610daa5780633f4ba83a14610d15578063485cc95514610b615780634f1ef2861461088957806352d1902d146107c55780635c975abb146107a2578063715018a6146107445780637b1039991461071a5780637dbd2832146106ae5780638456cb59146106535780638da5cb5b1461062a5780638eb691b11461059c57806399d29df914610459578063dc35e7d414610391578063f2fde38b146103005763f545b88b1461011d57600080fd5b346102fd5761012b36611c07565b91929083825261012e602052604082209060018060a01b03808354169081156102eb57600584019182549160ff8360801c166102d9576001600160401b0394858460401c1642116102c75716036102b557828793620151804204168091831610610266575b50505050600381016101a3848254611d2a565b9260018301548411610251576004830191825490600182019485831161023d5760020154851161022b57859055600019146102175750917f6710bf7c8828bf28bdddb7b45da3a29d2eca474d615fe28b47075ce7bf67e3c393916040935582519182526020820152a2602060405160018152f35b634e487b7160e01b81526011600452602490fd5b6040516334304bd960e11b8152600490fd5b634e487b7160e01b84526011600452602484fd5b60405160016229a0d960e11b03198152600490fd5b7ff27cff30b6684ae4bbc9913e70785baafa758cdfef27e76c9773a8cd5cbf9acc92816020938860038901558860048901556001600160401b031916179055604051908152a283388080610190565b604051632057875960e21b8152600490fd5b604051630fe82d2560e11b8152600490fd5b6040516329269c5d60e11b8152600490fd5b6040516396c95f8160e01b8152600490fd5b80fd5b50346102fd5760203660031901126102fd5761031a611b35565b610322611d91565b6001600160a01b0381161561033d5761033a90611e49565b80f35b60405162461bcd60e51b815260206004820152602660248201527f4f776e61626c653a206e6577206f776e657220697320746865207a65726f206160448201526564647265737360d01b6064820152608490fd5b50346102fd576040906103a336611c07565b9193909284815261012d6020522091600383015460ff8160401c166102d9576001600160401b031642116102c75782546001600160a01b039081169116036102b557600182019060026103f7828454611d2a565b930154831161044757826040926001600160801b037f8f681f2a4f6cd078b7e4cab4ae8112ef10d6b50b1511bf4915c069cf5d3b835e9516905582519182526020820152a2602060405160018152f35b604051631930e3c960e11b8152600490fd5b50346102fd5760403660031901126102fd57600435610476611b1f565b81835261012e6020526040832080546001600160a01b039081169182156102eb576005019283549260ff8460801c1661058a573314159182610501575b50506104ef5760ff60801b1916600160801b1790557f75603cfad1b4b830ba27b5f2a2867fc0ecde28d51b13b72816b1707b7cd4e9498280a280f35b604051632d2a14a760e21b8152600490fd5b813b159250908215610517575b505038806104b3565b604051638da5cb5b60e01b815292506020908390600490829085165afa91821561057f57869261054e575b5016331415388061050e565b61057191925060203d602011610578575b6105698183611b94565b810190611c49565b9038610542565b503d61055f565b6040513d88823e3d90fd5b604051630b3e2fbf60e01b8152600490fd5b50346102fd5760203660031901126102fd57604061010091600435815261012e6020522060ff60018060a01b03825416916001810154600282015491600381015460056004830154920154936001600160401b0393604051978852602088015260408701526060860152608085015280821660a08501528160401c1660c084015260801c16151560e0820152f35b50346102fd57806003193601126102fd5760fb546040516001600160a01b039091168152602090f35b50346102fd57806003193601126102fd5761066c611d91565b610674611d4d565b600160ff1960655416176065557f62e78cea01bee320cd4e420270b5ea74000d11b0c9f74754ebdbfc544b05a2586020604051338152a180f35b50346102fd5760203660031901126102fd57604060a091600435815261012d6020522060ff600180841b03825416916001810154906003600282015491015491604051948552602085015260408401526001600160401b038116606084015260401c1615156080820152f35b50346102fd57806003193601126102fd57610131546040516001600160a01b039091168152602090f35b50346102fd57806003193601126102fd5761075d611d91565b60fb80546001600160a01b031981169091556000906001600160a01b03167f8be0079c531659141344cd1fd0a4f28419497f9722a3daafe3b4186f6b6457e08280a380f35b50346102fd57806003193601126102fd57602060ff606554166040519015158152f35b50346102fd57806003193601126102fd577f00000000000000000000000000000000000000000000000000000000000000006001600160a01b0316300361081e5760206040516000805160206121d88339815191528152f35b60405162461bcd60e51b815260206004820152603860248201527f555550535570677261646561626c653a206d757374206e6f742062652063616c60448201527f6c6564207468726f7567682064656c656761746563616c6c00000000000000006064820152608490fd5b5060403660031901126102fd5761089e611b35565b6024356001600160401b038111610b5d5736602382011215610b5d576108ce903690602481600401359101611bd0565b6001600160a01b037f0000000000000000000000000000000000000000000000000000000000000000811692919061090830851415611c68565b6109256000805160206121d8833981519152948286541614611cc9565b61092d611d91565b7f4910fdfa16fed3260ed0e7147f7cc6da11a60208b5b9406d12a635614ffd91435460ff161561096357505061033a9150611fe4565b8216604051936352d1902d60e01b85526020948581600481865afa60009181610b29575b506109e85760405162461bcd60e51b815260048101879052602e60248201527f45524331393637557067726164653a206e657720696d706c656d656e7461746960448201526d6f6e206973206e6f74205555505360901b6064820152608490fd5b9492939403610ad2576109fa84611fe4565b7fbc7cd75a20ee27fd9adebab32041f755214dbc6bffa90cc0225b39da2e5c2d3b600080a2815115801590610aca575b610a35575b50505080f35b610ab89260008060405194610a4986611b79565b602786527f416464726573733a206c6f772d6c6576656c2064656c65676174652063616c6c85870152660819985a5b195960ca1b60408701528481519101845af4903d15610ac1573d610a9b81611bb5565b90610aa96040519283611b94565b8152600081943d92013e612103565b50388080610a2f565b60609250612103565b506001610a2a565b60405162461bcd60e51b815260048101839052602960248201527f45524331393637557067726164653a20756e737570706f727465642070726f786044820152681a58589b195555525160ba1b6064820152608490fd5b9091508681813d8311610b56575b610b418183611b94565b81010312610b5157519038610987565b600080fd5b503d610b37565b8280fd5b50346102fd5760403660031901126102fd57610b7b611b35565b610b83611b1f565b9082549160ff8360081c161591828093610d08575b8015610cf1575b15610c955760ff1984811660011786559383610c84575b50610bd060ff865460081c16610bcb81611de9565b611de9565b610bd933611e49565b610c1b85549460ff8660081c1690610bf082611de9565b610bf982611de9565b60018055610c0682611de9565b610c0f82611de9565b60655416606555611de9565b60018060a01b036001600160601b0360a01b9181610130911683825416179055610131921690825416179055610c4f575080f35b61ff00191681557f7f26b83ff96e1f2b6a682f133852f6798a09c465da95921460cefb3847402498602060405160018152a180f35b61ffff191661010117855538610bb6565b60405162461bcd60e51b815260206004820152602e60248201527f496e697469616c697a61626c653a20636f6e747261637420697320616c72656160448201526d191e481a5b9a5d1a585b1a5e995960921b6064820152608490fd5b50303b158015610b9f5750600160ff851614610b9f565b50600160ff851610610b98565b50346102fd57806003193601126102fd57610d2e611d91565b60655460ff811615610d6e5760ff19166065557f5db9ee0a495bf2e6ff9c91a7834c1ba4fdd244a5e8aa4e537bd38aeae4b073aa6020604051338152a180f35b60405162461bcd60e51b815260206004820152601460248201527314185d5cd8589b194e881b9bdd081c185d5cd95960621b6044820152606490fd5b50346102fd5760208060031936011261106057610dc5611b35565b6001600160a01b037f00000000000000000000000000000000000000000000000000000000000000008116610dfc30821415611c68565b610e196000805160206121d8833981519152918383541614611cc9565b610e21611d91565b60405190848201928284106001600160401b0385111761104a578360405286835260ff7f4910fdfa16fed3260ed0e7147f7cc6da11a60208b5b9406d12a635614ffd91435416600014610e7c575050505061033a9150611fe4565b8492939416906040516352d1902d60e01b81528681600481865afa6000918161101b575b50610f015760405162461bcd60e51b815260048101889052602e60248201527f45524331393637557067726164653a206e657720696d706c656d656e7461746960448201526d6f6e206973206e6f74205555505360901b6064820152608490fd5b9593949503610fc457610f1382611fe4565b7fbc7cd75a20ee27fd9adebab32041f755214dbc6bffa90cc0225b39da2e5c2d3b600080a2825115801590610fbc575b610f4f575b5050505080f35b600080610fb29560405195610f6387611b79565b602787527f416464726573733a206c6f772d6c6576656c2064656c65676174652063616c6c86880152660819985a5b195960ca1b60408801525190845af4903d15610ac1573d610a9b81611bb5565b5038808080610f48565b506000610f43565b60405162461bcd60e51b815260048101849052602960248201527f45524331393637557067726164653a20756e737570706f727465642070726f786044820152681a58589b195555525160ba1b6064820152608490fd5b9091508781813d8311611043575b6110338183611b94565b81010312610b5157519038610ea0565b503d611029565b634e487b7160e01b600052604160045260246000fd5b5080fd5b50346102fd5760203660031901126102fd57604060e091600435815261012e6020522060ff60018060a01b03825416916001810154906002810154600382015490600560048401549301549360405196875260208701526040860152606085015260808401526001600160401b038160401c1660a084015260801c16151560c0820152f35b50346102fd57806003193601126102fd57610130546040516001600160a01b039091168152602090f35b50346102fd5760403660031901126102fd57600435611130611b1f565b81835261012d6020526040832080546001600160a01b039081169182156102eb576003019283549260ff8460401c1661058a5733141591826111ae575b50506104ef5768ff00000000000000001916600160401b1790557fcc0f7e7f309149dce2db74723f771f7d96cad368d91763e945dc3956c4dbfb048280a280f35b813b1592509082156111c4575b5050388061116d565b604051638da5cb5b60e01b815292506020908390600490829085165afa91821561057f5786926111fb575b501633141538806111bb565b61121591925060203d602011610578576105698183611b94565b90386111ef565b50346102fd5760403660031901126102fd57611236611b35565b6001600160a01b0316815261012f60205260408120805460243592908310156102fd5760206112658484611b4b565b90546040519160031b1c8152f35b50346102fd57602080600319360112611060576001600160a01b03611296611b35565b16825261012f81526040822060405192838383549182815201908193835284832090835b81811061130e57505050846112d0910385611b94565b60405193838594850191818652518092526040850193925b8281106112f757505050500390f35b8351855286955093810193928101926001016112e8565b8254845292860192600192830192016112ba565b50346102fd5760c03660031901126102fd5760043561133f611b1f565b90604435606435608435906001600160401b0394858316809303610b515760a4359086821161167157366023830112156116715781600401359680881161166d57366024898501011161166d57611394611d4d565b6001600160a01b0391821697881561165b574286111561164a57878a5260209361012e85528360408c20541661163857604051918583018a81528b60408501528960608501528760808501528860a085015260a0845260c08401928484108685111761104a5761146394846114559361145b966040528251902060fc60e08401937f19457468657265756d205369676e6564204d6573736167653a0a33320000000085520152603c815261144781611b79565b519020926024369201611bd0565b90611e92565b919091611eca565b604051638da5cb5b60e01b81528481600481335afa91821561162d5784918c9361160c575b5081169116036115fa57604051906101008201908282108183111761104a5760058793868b968e956040528d83528183018c815260408401908b8252606085019288845260408961012e608089019782895260a08a019e8f8d62015180420416905260c08b019e8f5260e08b019d8e52835252209551166001600160601b0360a01b865416178555516001850155516002840155516003830155516004820155019351166fffffffffffffffff00000000000000008454935160401b169160ff60801b9051151560801b169270ffffffffffffffffffffffffffffffffff1916171717905533875261012f815260408720805490600160401b8210156115e657916115bf826060969460017f6444c67754985aaf64c147c6bc7eecbe2b7b83724e5f0adb261589fe9707e392999795018155611b4b565b81549060031b9089821b91600019901b19161790556040519384528301526040820152a380f35b634e487b7160e01b89526041600452602489fd5b604051633101cebf60e21b8152600490fd5b8291935061162690873d8911610578576105698183611b94565b9290611488565b6040513d8d823e3d90fd5b6040516323792a1160e11b8152600490fd5b60405162d36c8560e81b8152600490fd5b604051635f8874dd60e11b8152600490fd5b8880fd5b8780fd5b9050346110605761024036600319011261106057611691611b1f565b6044356001600160801b0381168103611b1b57606435926001600160401b0384168403611b17573660e411611b17573661016411611b1757366101a411611b17573661024411611b1757600260015414611ad5575060026001556116f3611d4d565b6001600160a01b0382161561165b57426001600160401b038416111561164a57600435845261012d60205260408420546001600160a01b0316611638576101a43560843503611ac3576101315460405163abb2efdf60e01b81526001600160a01b0390911690602081600481855afa90811561057f578691611a91575b506101c43503611a7f57604051636b6debf760e01b8152602081600481855afa90811561057f578691611a49575b506101e43503611a3757610204356001600160801b03831603611a2557610224356001600160401b03851603611a13576040516308b71ed360e21b81526084356004820152602081602481855afa90811561057f5786916119f4575b506119e25761013054604080516334baeab960e01b8152916001600160a01b03169060a460048401378160e488604483015b600282106119c8575050506101a481602093604061016460c484013760a0836101048401375afa90811561057f578691611999575b5015611987578085913b1561106057819060246040518094819363057cb0f560e01b835260843560048401525af1801561197c57611946575b506001600160801b0390600435855261012d60205260036040862060018060a01b0385166001600160601b0360a01b8254161781558383166002820155866001820155016001600160401b03851668ffffffffffffffffff198254161790556001600160401b036040519416845216602083015260018060a01b0316907f94b1ef4e34e21e2badb942118f7ae876506e3e69eac566354d868aaaabb4004d604060043592a36001805580f35b6001600160401b03819592951161196857604052926001600160801b0361189a565b634e487b7160e01b82526041600452602482fd5b6040513d87823e3d90fd5b6040516309bde33960e01b8152600490fd5b6119bb915060203d6020116119c1575b6119b38183611b94565b810190611c31565b38611861565b503d6119a9565b82935060408181600194958194370193019101849261182c565b604051636569570160e11b8152600490fd5b611a0d915060203d6020116119c1576119b38183611b94565b386117fa565b604051638a0fcebb60e01b8152600490fd5b6040516363f0adc160e01b8152600490fd5b604051632f075c2d60e21b8152600490fd5b90506020813d602011611a77575b81611a6460209383611b94565b81010312611a7357513861179e565b8580fd5b3d9150611a57565b604051635ade045560e01b8152600490fd5b90506020813d602011611abb575b81611aac60209383611b94565b81010312611a73575138611770565b3d9150611a9f565b60405163b9ab99df60e01b8152600490fd5b62461bcd60e51b815260206004820152601f60248201527f5265656e7472616e637947756172643a207265656e7472616e742063616c6c006044820152606490fd5b8480fd5b8380fd5b602435906001600160a01b0382168203610b5157565b600435906001600160a01b0382168203610b5157565b8054821015611b635760005260206000200190600090565b634e487b7160e01b600052603260045260246000fd5b606081019081106001600160401b0382111761104a57604052565b90601f801991011681019081106001600160401b0382111761104a57604052565b6001600160401b03811161104a57601f01601f191660200190565b929192611bdc82611bb5565b91611bea6040519384611b94565b829481845281830111610b51578281602093846000960137010152565b6060906003190112610b5157600435906024356001600160a01b0381168103610b51579060443590565b90816020910312610b5157518015158103610b515790565b90816020910312610b5157516001600160a01b0381168103610b515790565b15611c6f57565b60405162461bcd60e51b815260206004820152602c60248201527f46756e6374696f6e206d7573742062652063616c6c6564207468726f7567682060448201526b19195b1959d85d1958d85b1b60a21b6064820152608490fd5b15611cd057565b60405162461bcd60e51b815260206004820152602c60248201527f46756e6374696f6e206d7573742062652063616c6c6564207468726f7567682060448201526b6163746976652070726f787960a01b6064820152608490fd5b91908201809211611d3757565b634e487b7160e01b600052601160045260246000fd5b60ff60655416611d5957565b60405162461bcd60e51b815260206004820152601060248201526f14185d5cd8589b194e881c185d5cd95960821b6044820152606490fd5b60fb546001600160a01b03163303611da557565b606460405162461bcd60e51b815260206004820152602060248201527f4f776e61626c653a2063616c6c6572206973206e6f7420746865206f776e65726044820152fd5b15611df057565b60405162461bcd60e51b815260206004820152602b60248201527f496e697469616c697a61626c653a20636f6e7472616374206973206e6f74206960448201526a6e697469616c697a696e6760a81b6064820152608490fd5b60fb80546001600160a01b039283166001600160a01b0319821681179092559091167f8be0079c531659141344cd1fd0a4f28419497f9722a3daafe3b4186f6b6457e0600080a3565b906041815114600014611ec057611ebc916020820151906060604084015193015160001a90612074565b9091565b5050600090600290565b6005811015611fce5780611edb5750565b60018103611f285760405162461bcd60e51b815260206004820152601860248201527f45434453413a20696e76616c6964207369676e617475726500000000000000006044820152606490fd5b60028103611f755760405162461bcd60e51b815260206004820152601f60248201527f45434453413a20696e76616c6964207369676e6174757265206c656e677468006044820152606490fd5b600314611f7e57565b60405162461bcd60e51b815260206004820152602260248201527f45434453413a20696e76616c6964207369676e6174757265202773272076616c604482015261756560f01b6064820152608490fd5b634e487b7160e01b600052602160045260246000fd5b803b15612019576000805160206121d883398151915280546001600160a01b0319166001600160a01b03909216919091179055565b60405162461bcd60e51b815260206004820152602d60248201527f455243313936373a206e657720696d706c656d656e746174696f6e206973206e60448201526c1bdd08184818dbdb9d1c9858dd609a1b6064820152608490fd5b9291907f7fffffffffffffffffffffffffffffff5d576e7357a4501ddfe92f46681b20a083116120f75791608094939160ff602094604051948552168484015260408301526060820152600093849182805260015afa156120ea5781516001600160a01b038116156120e4579190565b50600190565b50604051903d90823e3d90fd5b50505050600090600390565b919290156121655750815115612117575090565b3b156121205790565b60405162461bcd60e51b815260206004820152601d60248201527f416464726573733a2063616c6c20746f206e6f6e2d636f6e74726163740000006044820152606490fd5b8251909150156121785750805190602001fd5b6040519062461bcd60e51b82528160208060048301528251908160248401526000935b8285106121be575050604492506000838284010152601f80199101168101030190fd5b848101820151868601604401529381019385935061219b56fe360894a13ba1a3210667c828492db98dca3e2076cc3735a920a3ca505d382bbca2646970667358221220fb4ff9b5c43b9b1cf82d42b580e960e928da17e86c5fe3f5684d72225e8555cd64736f6c63430008180033",
  "linkReferences": {},
  "deployedLinkReferences": {}
}