{
  "_format": "hh-sol-artifact-1",
  "contractName": "SessionManager",
  "sourceName": "src/SessionManager.sol",
  "abi": [
    {
      "inputs": [],
      "stateMutability": "nonpayable",
      "type": "constructor"
    },
    {
      "inputs": [
        {
          "internalType": "address",
          "name": "target",
          "type": "address"
        }
      ],
      "name": "AddressEmptyCode",
      "type": "error"
    },
    {
      "inputs": [],
      "name": "DailySpendLimitExceeded",
      "type": "error"
    },
    {
      "inputs": [],
      "name": "DailyTxLimitExceeded",
      "type": "error"
    },
    {
      "inputs": [],
      "name": "ECDSAInvalidSignature",
      "type": "error"
    },
    {
      "inputs": [
        {
          "internalType": "uint256",
          "name": "length",
          "type": "uint256"
        }
      ],
      "name": "ECDSAInvalidSignatureLength",
      "type": "error"
    },
    {
      "inputs": [
        {
          "internalType": "bytes32",
          "name": "s",
          "type": "bytes32"
        }
      ],
      "name": "ECDSAInvalidSignatureS",
      "type": "error"
    },
    {
      "inputs": [
        {
          "internalType": "address",
          "name": "implementation",
          "type": "address"
        }
      ],
      "name": "ERC1967InvalidImplementation",
      "type": "error"
    },
    {
      "inputs": [],
      "name": "ERC1967NonPayable",
      "type": "error"
    },
    {
      "inputs": [],
      "name": "EnforcedPause",
      "type": "error"
    },
    {
      "inputs": [],
      "name": "ExpectedPause",
      "type": "error"
    },
    {
      "inputs": [],
      "name": "ExpiryMismatch",
      "type": "error"
    },
    {
      "inputs": [],
      "name": "FailedCall",
      "type": "error"
    },
    {
      "inputs": [],
      "name": "InvalidExpiry",
      "type": "error"
    },
    {
      "inputs": [],
      "name": "InvalidInitialization",
      "type": "error"
    },
    {
      "inputs": [],
      "name": "InvalidNullifier",
      "type": "error"
    },
    {
      "inputs": [],
      "name": "InvalidProof",
      "type": "error"
    },
    {
      "inputs": [],
      "name": "InvalidSessionKey",
      "type": "error"
    },
    {
      "inputs": [],
      "name": "InvalidSessionManager",
      "type": "error"
    },
    {
      "inputs": [],
      "name": "InvalidSigner",
      "type": "error"
    },
    {
      "inputs": [],
      "name": "LimitExceeded",
      "type": "error"
    },
    {
      "inputs": [],
      "name": "MaxValueMismatch",
      "type": "error"
    },
    {
      "inputs": [],
      "name": "NotAgentWallet",
      "type": "error"
    },
    {
      "inputs": [],
      "name": "NotAuthorizedToRevoke",
      "type": "error"
    },
    {
      "inputs": [],
      "name": "NotBoundWallet",
      "type": "error"
    },
    {
      "inputs": [],
      "name": "NotInitializing",
      "type": "error"
    },
    {
      "inputs": [],
      "name": "NotWalletOwner",
      "type": "error"
    },
    {
      "inputs": [],
      "name": "NullifierAlreadyUsed",
      "type": "error"
    },
    {
      "inputs": [
        {
          "internalType": "address",
          "name": "owner",
          "type": "address"
        }
      ],
      "name": "OwnableInvalidOwner",
      "type": "error"
    },
    {
      "inputs": [
        {
          "internalType": "address",
          "name": "account",
          "type": "address"
        }
      ],
      "name": "OwnableUnauthorizedAccount",
      "type": "error"
    },
    {
      "inputs": [],
      "name": "ReentrancyGuardReentrantCall",
      "type": "error"
    },
    {
      "inputs": [],
      "name": "RevokedRootMismatch",
      "type": "error"
    },
    {
      "inputs": [],
      "name": "RootMismatch",
      "type": "error"
    },
    {
      "inputs": [],
      "name": "SessionAlreadyExists",
      "type": "error"
    },
    {
      "inputs": [],
      "name": "SessionAlreadyRevoked",
      "type": "error"
    },
    {
      "inputs": [],
      "name": "SessionExpired",
      "type": "error"
    },
    {
      "inputs": [],
      "name": "SessionIsRevoked",
      "type": "error"
    },
    {
      "inputs": [],
      "name": "SessionNotFound",
      "type": "error"
    },
    {
      "inputs": [],
      "name": "TooManySessions",
      "type": "error"
    },
    {
      "inputs": [],
      "name": "UUPSUnauthorizedCallContext",
      "type": "error"
    },
    {
      "inputs": [
        {
          "internalType": "bytes32",
          "name": "slot",
          "type": "bytes32"
        }
      ],
      "name": "UUPSUnsupportedProxiableUUID",
      "type": "error"
    },
    {
      "inputs": [],
      "name": "UnsupportedCredentialVersion",
      "type": "error"
    },
    {
      "inputs": [],
      "name": "WalletFactoryTimelockActive",
      "type": "error"
    },
    {
      "inputs": [],
      "name": "WalletFactoryTimelockNotReady",
      "type": "error"
    },
    {
      "anonymous": false,
      "inputs": [
        {
          "indexed": true,
          "internalType": "bytes32",
          "name": "sessionId",
          "type": "bytes32"
        },
        {
          "indexed": false,
          "internalType": "uint64",
          "name": "newDay",
          "type": "uint64"
        }
      ],
      "name": "DailyLimitsReset",
      "type": "event"
    },
    {
      "anonymous": false,
      "inputs": [
        {
          "indexed": false,
          "internalType": "uint64",
          "name": "version",
          "type": "uint64"
        }
      ],
      "name": "Initialized",
      "type": "event"
    },
    {
      "anonymous": false,
      "inputs": [
        {
          "indexed": true,
          "internalType": "bytes32",
          "name": "sessionId",
          "type": "bytes32"
        },
        {
          "indexed": true,
          "internalType": "address",
          "name": "wallet",
          "type": "address"
        },
        {
          "indexed": true,
          "internalType": "address",
          "name": "sessionKey",
          "type": "address"
        },
        {
          "indexed": false,
          "internalType": "uint256",
          "name": "dailySpendLimit",
          "type": "uint256"
        },
        {
          "indexed": false,
          "internalType": "uint256",
          "name": "dailyTxLimit",
          "type": "uint256"
        },
        {
          "indexed": false,
          "internalType": "uint64",
          "name": "expiry",
          "type": "uint64"
        }
      ],
      "name": "LightSessionCreated",
      "type": "event"
    },
    {
      "anonymous": false,
      "inputs": [
        {
          "indexed": true,
          "internalType": "bytes32",
          "name": "sessionId",
          "type": "bytes32"
        }
      ],
      "name": "LightSessionRevoked",
      "type": "event"
    },
    {
      "anonymous": false,
      "inputs": [
        {
          "indexed": true,
          "internalType": "bytes32",
          "name": "sessionId",
          "type": "bytes32"
        },
        {
          "indexed": false,
          "internalType": "uint256",
          "name": "value",
          "type": "uint256"
        },
        {
          "indexed": false,
          "internalType": "uint256",
          "name": "newDailySpend",
          "type": "uint256"
        }
      ],
      "name": "LightSessionUsed",
      "type": "event"
    },
    {
      "anonymous": false,
      "inputs": [
        {
          "indexed": true,
          "internalType": "address",
          "name": "previousOwner",
          "type": "address"
        },
        {
          "indexed": true,
          "internalType": "address",
          "name": "newOwner",
          "type": "address"
        }
      ],
      "name": "OwnershipTransferred",
      "type": "event"
    },
    {
      "anonymous": false,
      "inputs": [
        {
          "indexed": false,
          "internalType": "address",
          "name": "account",
          "type": "address"
        }
      ],
      "name": "Paused",
      "type": "event"
    },
    {
      "anonymous": false,
      "inputs": [
        {
          "indexed": true,
          "internalType": "bytes32",
          "name": "sessionId",
          "type": "bytes32"
        },
        {
          "indexed": true,
          "internalType": "address",
          "name": "wallet",
          "type": "address"
        },
        {
          "indexed": true,
          "internalType": "address",
          "name": "sessionKey",
          "type": "address"
        },
        {
          "indexed": false,
          "internalType": "uint64",
          "name": "expiry",
          "type": "uint64"
        },
        {
          "indexed": false,
          "internalType": "uint128",
          "name": "maxValue",
          "type": "uint128"
        },
        {
          "indexed": false,
          "internalType": "bytes32",
          "name": "nullifier",
          "type": "bytes32"
        }
      ],
      "name": "SessionCreated",
      "type": "event"
    },
    {
      "anonymous": false,
      "inputs": [
        {
          "indexed": true,
          "internalType": "bytes32",
          "name": "sessionId",
          "type": "bytes32"
        }
      ],
      "name": "SessionRevoked",
      "type": "event"
    },
    {
      "anonymous": false,
      "inputs": [
        {
          "indexed": true,
          "internalType": "bytes32",
          "name": "sessionId",
          "type": "bytes32"
        },
        {
          "indexed": false,
          "internalType": "uint256",
          "name": "value",
          "type": "uint256"
        },
        {
          "indexed": false,
          "internalType": "uint256",
          "name": "totalUsed",
          "type": "uint256"
        }
      ],
      "name": "SessionUsed",
      "type": "event"
    },
    {
      "anonymous": false,
      "inputs": [
        {
          "indexed": false,
          "internalType": "address",
          "name": "account",
          "type": "address"
        }
      ],
      "name": "Unpaused",
      "type": "event"
    },
    {
      "anonymous": false,
      "inputs": [
        {
          "indexed": true,
          "internalType": "address",
          "name": "implementation",
          "type": "address"
        }
      ],
      "name": "Upgraded",
      "type": "event"
    },
    {
      "inputs": [],
      "name": "MAX_SESSIONS_PER_WALLET",
      "outputs": [
        {
          "internalType": "uint256",
          "name": "",
          "type": "uint256"
        }
      ],
      "stateMutability": "view",
      "type": "function"
    },
    {
      "inputs": [],
      "name": "SUPPORTED_CREDENTIAL_VERSION",
      "outputs": [
        {
          "internalType": "uint256",
          "name": "",
          "type": "uint256"
        }
      ],
      "stateMutability": "view",
      "type": "function"
    },
    {
      "inputs": [],
      "name": "TIMELOCK_DELAY",
      "outputs": [
        {
          "internalType": "uint256",
          "name": "",
          "type": "uint256"
        }
      ],
      "stateMutability": "view",
      "type": "function"
    },
    {
      "inputs": [],
      "name": "UPGRADE_INTERFACE_VERSION",
      "outputs": [
        {
          "internalType": "string",
          "name": "",
          "type": "string"
        }
      ],
      "stateMutability": "view",
      "type": "function"
    },
    {
      "inputs": [],
      "name": "acceptWalletFactory",
      "outputs": [],
      "stateMutability": "nonpayable",
      "type": "function"
    },
    {
      "inputs": [
        {
          "internalType": "bytes32",
          "name": "sessionId",
          "type": "bytes32"
        },
        {
          "internalType": "address",
          "name": "sessionKey",
          "type": "address"
        },
        {
          "internalType": "uint256",
          "name": "dailySpendLimit",
          "type": "uint256"
        },
        {
          "internalType": "uint256",
          "name": "dailyTxLimit",
          "type": "uint256"
        },
        {
          "internalType": "uint64",
          "name": "expiry",
          "type": "uint64"
        },
        {
          "internalType": "bytes",
          "name": "ownerSignature",
          "type": "bytes"
        }
      ],
      "name": "createLightweightSession",
      "outputs": [],
      "stateMutability": "nonpayable",
      "type": "function"
    },
    {
      "inputs": [
        {
          "internalType": "bytes32",
          "name": "sessionId",
          "type": "bytes32"
        },
        {
          "internalType": "address",
          "name": "wallet",
          "type": "address"
        },
        {
          "internalType": "address",
          "name": "sessionKey",
          "type": "address"
        },
        {
          "internalType": "uint128",
          "name": "maxValue",
          "type": "uint128"
        },
        {
          "internalType": "uint64",
          "name": "expiry",
          "type": "uint64"
        },
        {
          "internalType": "uint256[2]",
          "name": "a",
          "type": "uint256[2]"
        },
        {
          "internalType": "uint256[2][2]",
          "name": "b",
          "type": "uint256[2][2]"
        },
        {
          "internalType": "uint256[2]",
          "name": "c",
          "type": "uint256[2]"
        },
        {
          "internalType": "uint256[7]",
          "name": "publicSignals",
          "type": "uint256[7]"
        }
      ],
      "name": "createSession",
      "outputs": [],
      "stateMutability": "nonpayable",
      "type": "function"
    },
    {
      "inputs": [
        {
          "internalType": "bytes32",
          "name": "sessionId",
          "type": "bytes32"
        }
      ],
      "name": "getLightSession",
      "outputs": [
        {
          "internalType": "address",
          "name": "sessionWallet",
          "type": "address"
        },
        {
          "internalType": "address",
          "name": "sessionKey",
          "type": "address"
        },
        {
          "internalType": "uint256",
          "name": "dailySpendLimit",
          "type": "uint256"
        },
        {
          "internalType": "uint256",
          "name": "dailyTxLimit",
          "type": "uint256"
        },
        {
          "internalType": "uint256",
          "name": "dailySpendUsed",
          "type": "uint256"
        },
        {
          "internalType": "uint256",
          "name": "dailyTxUsed",
          "type": "uint256"
        },
        {
          "internalType": "uint64",
          "name": "expiry",
          "type": "uint64"
        },
        {
          "internalType": "bool",
          "name": "revoked",
          "type": "bool"
        }
      ],
      "stateMutability": "view",
      "type": "function"
    },
    {
      "inputs": [
        {
          "internalType": "bytes32",
          "name": "sessionId",
          "type": "bytes32"
        }
      ],
      "name": "getSessionType",
      "outputs": [
        {
          "internalType": "uint8",
          "name": "",
          "type": "uint8"
        }
      ],
      "stateMutability": "view",
      "type": "function"
    },
    {
      "inputs": [
        {
          "internalType": "address",
          "name": "wallet",
          "type": "address"
        }
      ],
      "name": "getWalletSessions",
      "outputs": [
        {
          "internalType": "bytes32[]",
          "name": "",
          "type": "bytes32[]"
        }
      ],
      "stateMutability": "view",
      "type": "function"
    },
    {
      "inputs": [
        {
          "internalType": "address",
          "name": "verifier_",
          "type": "address"
        },
        {
          "internalType": "address",
          "name": "registry_",
          "type": "address"
        },
        {
          "internalType": "address",
          "name": "walletFactory_",
          "type": "address"
        }
      ],
      "name": "initialize",
      "outputs": [],
      "stateMutability": "nonpayable",
      "type": "function"
    },
    {
      "inputs": [
        {
          "internalType": "bytes32",
          "name": "",
          "type": "bytes32"
        }
      ],
      "name": "lightSessions",
      "outputs": [
        {
          "internalType": "address",
          "name": "wallet",
          "type": "address"
        },
        {
          "internalType": "address",
          "name": "sessionKey",
          "type": "address"
        },
        {
          "internalType": "uint256",
          "name": "dailySpendLimit",
          "type": "uint256"
        },
        {
          "internalType": "uint256",
          "name": "dailyTxLimit",
          "type": "uint256"
        },
        {
          "internalType": "uint256",
          "name": "dailySpendUsed",
          "type": "uint256"
        },
        {
          "internalType": "uint256",
          "name": "dailyTxUsed",
          "type": "uint256"
        },
        {
          "internalType": "uint64",
          "name": "lastResetDay",
          "type": "uint64"
        },
        {
          "internalType": "uint64",
          "name": "expiry",
          "type": "uint64"
        },
        {
          "internalType": "bool",
          "name": "revoked",
          "type": "bool"
        }
      ],
      "stateMutability": "view",
      "type": "function"
    },
    {
      "inputs": [],
      "name": "owner",
      "outputs": [
        {
          "internalType": "address",
          "name": "",
          "type": "address"
        }
      ],
      "stateMutability": "view",
      "type": "function"
    },
    {
      "inputs": [],
      "name": "pause",
      "outputs": [],
      "stateMutability": "nonpayable",
      "type": "function"
    },
    {
      "inputs": [],
      "name": "paused",
      "outputs": [
        {
          "internalType": "bool",
          "name": "",
          "type": "bool"
        }
      ],
      "stateMutability": "view",
      "type": "function"
    },
    {
      "inputs": [],
      "name": "pendingWalletFactory",
      "outputs": [
        {
          "internalType": "address",
          "name": "",
          "type": "address"
        }
      ],
      "stateMutability": "view",
      "type": "function"
    },
    {
      "inputs": [
        {
          "internalType": "address",
          "name": "walletFactory_",
          "type": "address"
        }
      ],
      "name": "proposeWalletFactory",
      "outputs": [],
      "stateMutability": "nonpayable",
      "type": "function"
    },
    {
      "inputs": [],
      "name": "proxiableUUID",
      "outputs": [
        {
          "internalType": "bytes32",
          "name": "",
          "type": "bytes32"
        }
      ],
      "stateMutability": "view",
      "type": "function"
    },
    {
      "inputs": [
        {
          "internalType": "address",
          "name": "wallet",
          "type": "address"
        },
        {
          "internalType": "uint256",
          "name": "limit",
          "type": "uint256"
        }
      ],
      "name": "pruneExpiredSessions",
      "outputs": [],
      "stateMutability": "nonpayable",
      "type": "function"
    },
    {
      "inputs": [],
      "name": "registry",
      "outputs": [
        {
          "internalType": "contract ICredentialRegistry",
          "name": "",
          "type": "address"
        }
      ],
      "stateMutability": "view",
      "type": "function"
    },
    {
      "inputs": [],
      "name": "renounceOwnership",
      "outputs": [],
      "stateMutability": "nonpayable",
      "type": "function"
    },
    {
      "inputs": [
        {
          "internalType": "bytes32",
          "name": "sessionId",
          "type": "bytes32"
        },
        {
          "internalType": "address",
          "name": "wallet",
          "type": "address"
        }
      ],
      "name": "revokeLightweightSession",
      "outputs": [],
      "stateMutability": "nonpayable",
      "type": "function"
    },
    {
      "inputs": [
        {
          "internalType": "bytes32",
          "name": "sessionId",
          "type": "bytes32"
        },
        {
          "internalType": "address",
          "name": "wallet",
          "type": "address"
        }
      ],
      "name": "revokeSession",
      "outputs": [],
      "stateMutability": "nonpayable",
      "type": "function"
    },
    {
      "inputs": [
        {
          "internalType": "bytes32",
          "name": "",
          "type": "bytes32"
        }
      ],
      "name": "sessions",
      "outputs": [
        {
          "internalType": "address",
          "name": "wallet",
          "type": "address"
        },
        {
          "internalType": "address",
          "name": "sessionKey",
          "type": "address"
        },
        {
          "internalType": "uint256",
          "name": "valueUsed",
          "type": "uint256"
        },
        {
          "internalType": "uint256",
          "name": "maxValue",
          "type": "uint256"
        },
        {
          "internalType": "uint64",
          "name": "expiry",
          "type": "uint64"
        },
        {
          "internalType": "bool",
          "name": "revoked",
          "type": "bool"
        }
      ],
      "stateMutability": "view",
      "type": "function"
    },
    {
      "inputs": [
        {
          "internalType": "address",
          "name": "newOwner",
          "type": "address"
        }
      ],
      "name": "transferOwnership",
      "outputs": [],
      "stateMutability": "nonpayable",
      "type": "function"
    },
    {
      "inputs": [],
      "name": "unpause",
      "outputs": [],
      "stateMutability": "nonpayable",
      "type": "function"
    },
    {
      "inputs": [
        {
          "internalType": "address",
          "name": "newImplementation",
          "type": "address"
        },
        {
          "internalType": "bytes",
          "name": "data",
          "type": "bytes"
        }
      ],
      "name": "upgradeToAndCall",
      "outputs": [],
      "stateMutability": "payable",
      "type": "function"
    },
    {
      "inputs": [
        {
          "internalType": "bytes32",
          "name": "sessionId",
          "type": "bytes32"
        },
        {
          "internalType": "address",
          "name": "signer",
          "type": "address"
        },
        {
          "internalType": "uint256",
          "name": "value",
          "type": "uint256"
        }
      ],
      "name": "validateLightweightSession",
      "outputs": [
        {
          "internalType": "bool",
          "name": "",
          "type": "bool"
        }
      ],
      "stateMutability": "nonpayable",
      "type": "function"
    },
    {
      "inputs": [
        {
          "internalType": "bytes32",
          "name": "sessionId",
          "type": "bytes32"
        },
        {
          "internalType": "address",
          "name": "signer",
          "type": "address"
        },
        {
          "internalType": "uint256",
          "name": "value",
          "type": "uint256"
        }
      ],
      "name": "validateSession",
      "outputs": [
        {
          "internalType": "bool",
          "name": "",
          "type": "bool"
        }
      ],
      "stateMutability": "nonpayable",
      "type": "function"
    },
    {
      "inputs": [],
      "name": "verifier",
      "outputs": [
        {
          "internalType": "contract IVerifier",
          "name": "",
          "type": "address"
        }
      ],
      "stateMutability": "view",
      "type": "function"
    },
    {
      "inputs": [],
      "name": "walletFactory",
      "outputs": [
        {
          "internalType": "contract IAgentWalletFactory",
          "name": "",
          "type": "address"
        }
      ],
      "stateMutability": "view",
      "type": "function"
    },
    {
      "inputs": [],
      "name": "walletFactoryActivationTime",
      "outputs": [
        {
          "internalType": "uint256",
          "name": "",
          "type": "uint256"
        }
      ],
      "stateMutability": "view",
      "type": "function"
    },
    {
      "inputs": [
        {
          "internalType": "address",
          "name": "",
          "type": "address"
        },
        {
          "internalType": "uint256",
          "name": "",
          "type": "uint256"
        }
      ],
      "name": "walletSessions",
      "outputs": [
        {
          "internalType": "bytes32",
          "name": "",
          "type": "bytes32"
        }
      ],
      "stateMutability": "view",
      "type": "function"
    }
  ],
  "bytecode": "0x60a080604052346100d1576001600055306080527ff0c57e16840df040f15088dc2f81fe391c3923bec73e23a9662efc9c229c6a009081549060ff8260401c166100c257506001600160401b036002600160401b03198282160161007d575b60405161253590816100d78239608051818181610f310152610fea0152f35b6001600160401b031990911681179091556040519081527fc7f505b2f371ae2175ee4913f4499e1f2633a7b5936321eed1cdaeb6115181d290602090a138808061005e565b63f92ee8a960e01b8152600490fd5b600080fdfe6080604052600436101561001257600080fd5b6000803560e01c8063015bd12914611f795780630ec163f314611b2b578063186a275714611a7d5780631b170967146114735780631efb10f61461141c5780632a2d9380146113085780632b7ac3f3146112df578063356f644d1461124d5780633f4ba83a146111d55780634f1ef28614610f9b57806352d1902d14610f1e57806354892a7514610ea45780635ba1c1a914610e865780635c975abb14610e56578063715018a614610deb5780637a44bb1c14610dcd5780637b10399914610da45780637dbd283214610d2b578063841b45f214610d0f5780638456cb5914610ca75780638da5cb5b14610c715780638eb691b114610bd557806399d29df914610a88578063ad3cb1cc146109e3578063c0c53b8b14610860578063c5c0369914610837578063c7cdfc011461080d578063d441bb83146105ad578063d6b3383c14610584578063dae2dd2514610568578063dc35e7d41461042b578063f2fde38b146103fe5763f545b88b1461018857600080fd5b346103fb57610196366120f9565b60065460405163bd5dee7760e01b8152336004820152602095936001600160a01b03939290919087908290602490829088165afa9081156103f05785916103c3575b50156103b2576101e661229f565b8484526002865260408420923381855416036103a05780600185015416801561038e57600685019081549260ff8460801c1661037c576001600160401b0394858560401c16421161036a57160361035857828891889462015180420416809285161061030b575b50505050506004820192610262828554612123565b90600284015482116102f657600584019081549460018601918287116102e2575060030154106102d0576102bb604094837f6710bf7c8828bf28bdddb7b45da3a29d2eca474d615fe28b47075ce7bf67e3c397556121e3565b9055825191825285820152a260405160018152f35b6040516334304bd960e11b8152600490fd5b634e487b7160e01b81526011600452602490fd5b60405160016229a0d960e11b03198152600490fd5b817ff27cff30b6684ae4bbc9913e70785baafa758cdfef27e76c9773a8cd5cbf9acc948960048a01558960058a01556001600160401b031916179055604051908152a2833886818061024d565b604051632057875960e21b8152600490fd5b604051630fe82d2560e11b8152600490fd5b6040516329269c5d60e11b8152600490fd5b6040516396c95f8160e01b8152600490fd5b604051630ac83de760e41b8152600490fd5b6040516249a9c760e91b8152600490fd5b6103e39150873d89116103e9575b6103db8183612086565b810190612146565b386101d8565b503d6103d1565b6040513d87823e3d90fd5b80fd5b50346103fb5760203660031901126103fb5761042861041b612000565b610423612266565b6121f2565b80f35b50346103fb5761043a366120f9565b9060018060a01b0390816006541694604051809663bd5dee7760e01b82523360048301528160246020998a935afa90811561055d578291610540575b50156103b25760409061048761229f565b8581526001875220913381845416036103a057600483015460ff8160401c1661037c576001600160401b0316421161036a578060018401541691160361035857600281019160036104d9828554612123565b920154821161052e576001600160801b039182811161052e577f8f681f2a4f6cd078b7e4cab4ae8112ef10d6b50b1511bf4915c069cf5d3b835e9360409382169055825191825285820152a260405160018152f35b604051631930e3c960e11b8152600490fd5b6105579150873d89116103e9576103db8183612086565b38610476565b6040513d84823e3d90fd5b50346103fb57806003193601126103fb57602060405160018152f35b50346103fb57806003193601126103fb576007546040516001600160a01b039091168152602090f35b50346103fb5760403660031901126103fb576105c7612000565b60065460405163bd5dee7760e01b815233600482015290602090829060249082906001600160a01b03165afa9081156108025783916107e3575b50156103b2576001600160a01b03163381036103a0578152600360205260408120818154926000199384810190811360011661069c575b82811215806107d8575b156107d4576106518185612058565b90549060031b1c8390845260016020526040842060018060a01b036001820154166107a6575b50801580610788575b61074e575b6106b0575b600160ff1b811461069c578401610638565b634e487b7160e01b83526011600452602483fd5b90835485810190811161073a576106ca6106f49186612058565b90549060031b1c6106db8487612058565b90919082549060031b91821b91600019901b1916179055565b83548015610726579085610720920161070d8187612058565b8882549160031b1b1916905585556121e3565b9061068a565b634e487b7160e01b84526031600452602484fd5b634e487b7160e01b84526011600452602484fd5b5060026020526006604084200154426001600160401b038260401c16119081159161077a575b50610685565b60ff915060801c1638610774565b50600260205260408420600101546001600160a01b03161515610680565b60040154426001600160401b03821611801592506107c6575b5038610677565b60ff915060401c16386107bf565b8280f35b506024358210610642565b6107fc915060203d6020116103e9576103db8183612086565b38610601565b6040513d85823e3d90fd5b50346103fb5760203660031901126103fb57602061082c6004356121a2565b60ff60405191168152f35b50346103fb57806003193601126103fb576006546040516001600160a01b039091168152602090f35b50346103fb5760603660031901126103fb5761087a612000565b610882612016565b9061088b61202c565b907ff0c57e16840df040f15088dc2f81fe391c3923bec73e23a9662efc9c229c6a009283549260ff8460401c1615936001600160401b038116801590816109db575b60011490816109d1575b1590816109c8575b506109b65767ffffffffffffffff198116600117865584610997575b5061090461238b565b61090c61238b565b610915336121f2565b61091d61238b565b60018060a01b038092816001600160601b0360a01b95168560045416176004551683600554161760055516906006541617600655610959575080f35b68ff00000000000000001981541690557fc7f505b2f371ae2175ee4913f4499e1f2633a7b5936321eed1cdaeb6115181d2602060405160018152a180f35b68ffffffffffffffffff191668010000000000000001178555386108fb565b60405163f92ee8a960e01b8152600490fd5b905015386108df565b303b1591506108d7565b8691506108cd565b50346103fb57806003193601126103fb57604051604081018181106001600160401b03821117610a725760405260058152602091640352e302e360dc1b602083015260405192839160208352835191826020850152815b838110610a5b57505060408094508284010152601f80199101168101030190f35b808601820151878201604001528694508101610a3a565b634e487b7160e01b600052604160045260246000fd5b50346103fb5760403660031901126103fb57600435610aa5612016565b610aad61229f565b81835260026020526040832060018101546001600160a01b0390811691821561038e576006019283549260ff8460801c16610bc3573314159182610b3a575b5050610b285760ff60801b1916600160801b1790557f75603cfad1b4b830ba27b5f2a2867fc0ecde28d51b13b72816b1707b7cd4e9498280a280f35b604051632d2a14a760e21b8152600490fd5b813b159250908215610b50575b50503880610aec565b604051638da5cb5b60e01b815292506020908390600490829085165afa918215610bb8578692610b87575b50163314153880610b47565b610baa91925060203d602011610bb1575b610ba28183612086565b81019061215e565b9038610b7b565b503d610b98565b6040513d88823e3d90fd5b604051630b3e2fbf60e01b8152600490fd5b50346103fb5760203660031901126103fb57604061012091600435815260026020522060ff60018060a01b03918281541692600182015416600282015491600381015460048201549060066005840154930154946001600160401b0394604051988952602089015260408801526060870152608086015260a085015280821660c08501528160401c1660e084015260801c161515610100820152f35b50346103fb57806003193601126103fb576000805160206124c0833981519152546040516001600160a01b039091168152602090f35b50346103fb57806003193601126103fb57610cc0612266565b610cc861229f565b6000805160206124e0833981519152600160ff198254161790557f62e78cea01bee320cd4e420270b5ea74000d11b0c9f74754ebdbfc544b05a2586020604051338152a180f35b50346103fb57806003193601126103fb57602060405160648152f35b50346103fb5760203660031901126103fb57604060c091600435815260016020522060ff60018060a01b0391828154169260018201541690600281015460046003830154920154926040519586526020860152604085015260608401526001600160401b038116608084015260401c16151560a0820152f35b50346103fb57806003193601126103fb576005546040516001600160a01b039091168152602090f35b50346103fb57806003193601126103fb576020600854604051908152f35b50346103fb57806003193601126103fb57610e04612266565b6000805160206124c083398151915280546001600160a01b031981169091556000906001600160a01b03167f8be0079c531659141344cd1fd0a4f28419497f9722a3daafe3b4186f6b6457e08280a380f35b50346103fb57806003193601126103fb57602060ff6000805160206124e083398151915254166040519015158152f35b50346103fb57806003193601126103fb576020604051620151808152f35b50346103fb57806003193601126103fb57610ebd612266565b6007546001600160a01b038116908115610f0c576008544210610efa576001600160601b0360a01b91826006541617600655166007558060085580f35b6040516331db077960e11b8152600490fd5b604051633144a04160e21b8152600490fd5b50346103fb57806003193601126103fb577f00000000000000000000000000000000000000000000000000000000000000006001600160a01b03163003610f895760206040517f360894a13ba1a3210667c828492db98dca3e2076cc3735a920a3ca505d382bbc8152f35b60405163703e46dd60e11b8152600490fd5b5060403660031901126103fb57610fb0612000565b6024356001600160401b0381116111d157366023820112156111d157610fe09036906024816004013591016120c2565b6001600160a01b037f000000000000000000000000000000000000000000000000000000000000000081163081149081156111a3575b50610f8957611023612266565b6040516352d1902d60e01b8152908316926020918281600481885afa86918161116f575b5061106557604051634c9c8ce360e01b815260048101869052602490fd5b9385947f360894a13ba1a3210667c828492db98dca3e2076cc3735a920a3ca505d382bbc908181036111575750823b1561113e5780546001600160a01b0319168217905560405185917fbc7cd75a20ee27fd9adebab32041f755214dbc6bffa90cc0225b39da2e5c2d3b8380a2845115611121575080848461111496519101845af4903d15611118573d6110f8816120a7565b906111066040519283612086565b81528581943d92013e61245c565b5080f35b6060925061245c565b93505050503461112f575080f35b63b398979f60e01b8152600490fd5b604051634c9c8ce360e01b815260048101839052602490fd5b60249060405190632a87526960e21b82526004820152fd5b9091508381813d831161119c575b6111878183612086565b8101031261119757519038611047565b600080fd5b503d61117d565b9050817f360894a13ba1a3210667c828492db98dca3e2076cc3735a920a3ca505d382bbc5416141538611016565b8280fd5b50346103fb57806003193601126103fb576111ee612266565b6000805160206124e0833981519152805460ff81161561123b5760ff191690557f5db9ee0a495bf2e6ff9c91a7834c1ba4fdd244a5e8aa4e537bd38aeae4b073aa6020604051338152a180f35b604051638dfc202b60e01b8152600490fd5b50346103fb5760203660031901126103fb57604061010091600435815260026020522060ff60018060a01b0391828154169260018201541690600281015460038201546004830154916006600585015494015494604051978852602088015260408701526060860152608085015260a08401526001600160401b038160401c1660c084015260801c16151560e0820152f35b50346103fb57806003193601126103fb576004546040516001600160a01b039091168152602090f35b50346103fb5760403660031901126103fb57600435611325612016565b61132d61229f565b8183526001602081905260408420908101546001600160a01b0390811691821561038e576004019283549260ff8460401c16610bc35733141591826113ae575b5050610b285768ff00000000000000001916600160401b1790557fcc0f7e7f309149dce2db74723f771f7d96cad368d91763e945dc3956c4dbfb048280a280f35b813b1592509082156113c4575b5050388061136d565b604051638da5cb5b60e01b815292506020908390600490829085165afa918215610bb85786926113fb575b501633141538806113bb565b61141591925060203d602011610bb157610ba28183612086565b90386113ef565b50346103fb5760403660031901126103fb57611436612000565b6001600160a01b03168152600360205260408120805460243592908310156103fb5760206114648484612058565b90549060031b1c604051908152f35b50346103fb576102803660031901126103fb5761148e612016565b61149661202c565b606435906001600160801b0382168203611a79576114b2612042565b913660e411611a75573661016411611a7557366101a411611a75573661028411611a75576002855414611a6357600285556114eb61229f565b6001600160a01b03841633036103a057833b156103b25760065460405163bd5dee7760e01b81526001600160a01b038681166004830152909160209183916024918391165afa908115610bb8578691611a44575b50156103b2576001600160a01b03821615611a32576001600160a01b0382811690851614611a3257426001600160401b0384161115611a21576004358552600160208190526040862001546001600160a01b0316611a0f576004358552600260205260408520600101546001600160a01b0316611a0f576001600160a01b038416855260036020526040852054606411156119fd5761026435156119eb5760055460405163abb2efdf60e01b81526001600160a01b0390911690602081600481855afa90811561199c5787916119b9575b506101a435036119a757604051636b6debf760e01b8152602081600481855afa90811561199c578791611966575b506101c43503611954576101e4356001600160801b0383160361194257610204356001600160401b03851603611930576001600160a01b0385811661022435909116036103b2576001610244350361191e576020602491604051928380926308b71ed360e21b82526102643560048301525afa908115610bb85786916118ff575b506118ed57600480546040805163c894e75760e01b8152926001600160a01b039092169160a4908401378160e488604483015b600282106118d3575050506101e481602093604061016460c484013760e06101a46101048401375afa908115610bb85786916118b4575b50156118a257600435855260016020526004604086206001600160601b0360a01b60018060a01b03871681835416178255600182019060018060a01b038616908254161790556001600160801b0383166003820155866002820155016001600160401b03841668ffffffffffffffffff1982541617905560018060a01b038416855260036020526117bf6004356040872061217d565b60055485906001600160a01b0316803b1561189e57819060246040518094819363057cb0f560e01b83526102643560048401525af18015610bb857611868575b506001600160801b03906001600160401b036040519416845216602083015261026435604083015260018060a01b03169160018060a01b0316907f4be957c3121493398af4aa5b636cc72629d5286771d6489d4244694dd10e597d606060043592a46001815580f35b6001600160401b03819692961161188a57604052936001600160801b036117ff565b634e487b7160e01b82526041600452602482fd5b5080fd5b6040516309bde33960e01b8152600490fd5b6118cd915060203d6020116103e9576103db8183612086565b38611729565b8293506040818160019495819437019301910184926116f2565b604051636569570160e11b8152600490fd5b611918915060203d6020116103e9576103db8183612086565b386116bf565b60405163ccfa3bb360e01b8152600490fd5b604051638a0fcebb60e01b8152600490fd5b6040516363f0adc160e01b8152600490fd5b604051632f075c2d60e21b8152600490fd5b90506020813d602011611994575b8161198160209383612086565b8101031261199057513861163e565b8680fd5b3d9150611974565b6040513d89823e3d90fd5b604051635ade045560e01b8152600490fd5b90506020813d6020116119e3575b816119d460209383612086565b81010312611990575138611610565b3d91506119c7565b604051632ec8265960e11b8152600490fd5b604051630463d55b60e41b8152600490fd5b6040516323792a1160e11b8152600490fd5b60405162d36c8560e81b8152600490fd5b604051635f8874dd60e11b8152600490fd5b611a5d915060203d6020116103e9576103db8183612086565b3861153f565b604051633ee5aeb560e01b8152600490fd5b8480fd5b8380fd5b50346103fb5760208060031936011261189e576001600160a01b03611aa0612000565b168252600381526040822060405192838383549182815201908193835284832090835b818110611b175750505084611ad9910385612086565b60405193838594850191818652518092526040850193925b828110611b0057505050500390f35b835185528695509381019392810192600101611af1565b825484529286019260019283019201611ac3565b50346103fb5760c03660031901126103fb57611b45612016565b604435606435611b53612042565b60a435936001600160401b038511611f755736602386011215611f75578460040135906001600160401b03821161199057366024838801011161199057611b9861229f565b60065460405163bd5dee7760e01b815233600482015290602090829060249082906001600160a01b03165afa908115611f6a578891611f4b575b50156103b2576001600160a01b0316948515611a3257338614611a3257426001600160401b0384161115611a21576004358752600260205260408720600101546001600160a01b0316611a0f576004358752600160208190526040882001546001600160a01b0316611a0f576040516020810146815230604083015233606083015260043560808301528760a08301528660c08301528560e08301526001600160401b03851661010083015261010082526101208201908282106001600160401b03831117611f3757610180908260405283519020926101408101937f19457468657265756d205369676e6564204d6573736167653a0a333200000000855261015c820152603c8352018181106001600160401b03821117611f3757604052519020611d1992611d1092611d0a9136916024016120c2565b906122ca565b90929192612306565b604051638da5cb5b60e01b815290602082600481335afa91821561199c578792611f16575b506001600160a01b03908116911603611f045760405161012081018181106001600160401b03821117611ef0576040523381528460208201528360408201528260608201528560808201528560a08201526001600160401b036201518042041660c08201526001600160401b03821660e08201526101008101908682526004358752600260205260066040882060018060a01b038351166001600160601b0360a01b9081835416178255600182019060018060a01b036020860151169082541617905560408301516002820155606083015160038201556080830151600482015560a0830151600582015501916001600160401b0360c0830151166fffffffffffffffff000000000000000060e0855494015160401b169160ff60801b9051151560801b169270ffffffffffffffffffffffffffffffffff1916171717905533855260036020526064604086205410156119fd576001600160401b03913386526003602052611eb26004356040882061217d565b604051938452602084015216604082015233907fb00ed1b40c94a111be08514c42fd87e33f2474c6fe39f7d4f730f9bde0656ae7606060043592a480f35b634e487b7160e01b87526041600452602487fd5b604051633101cebf60e21b8152600490fd5b611f3091925060203d602011610bb157610ba28183612086565b9038611d3e565b634e487b7160e01b8a52604160045260248afd5b611f64915060203d6020116103e9576103db8183612086565b38611bd2565b6040513d8a823e3d90fd5b8580fd5b50346103fb5760203660031901126103fb57611f93612000565b611f9b612266565b6001600160a01b03908116908115610f0c57600754908116611fee576001600160601b0360a01b1617600755620151804201804211611fda5760085580f35b634e487b7160e01b82526011600452602482fd5b604051633b778a2d60e01b8152600490fd5b600435906001600160a01b038216820361119757565b602435906001600160a01b038216820361119757565b604435906001600160a01b038216820361119757565b608435906001600160401b038216820361119757565b80548210156120705760005260206000200190600090565b634e487b7160e01b600052603260045260246000fd5b90601f801991011681019081106001600160401b03821117610a7257604052565b6001600160401b038111610a7257601f01601f191660200190565b9291926120ce826120a7565b916120dc6040519384612086565b829481845281830111611197578281602093846000960137010152565b606090600319011261119757600435906024356001600160a01b0381168103611197579060443590565b9190820180921161213057565b634e487b7160e01b600052601160045260246000fd5b90816020910312611197575180151581036111975790565b9081602091031261119757516001600160a01b03811681036111975790565b90815491600160401b831015610a7257826106db9160016121a095018155612058565b565b600052600160205260018060a01b0380600160406000200154166121dd576002602052600160406000200154166121d857600290565b600190565b50600090565b60001981146121305760010190565b6001600160a01b0390811690811561224d576000805160206124c083398151915280546001600160a01b031981168417909155167f8be0079c531659141344cd1fd0a4f28419497f9722a3daafe3b4186f6b6457e0600080a3565b604051631e4fbdf760e01b815260006004820152602490fd5b6000805160206124c0833981519152546001600160a01b0316330361228757565b60405163118cdaa760e01b8152336004820152602490fd5b60ff6000805160206124e083398151915254166122b857565b60405163d93c066560e01b8152600490fd5b81519190604183036122fb576122f492506020820151906060604084015193015160001a906123cc565b9192909190565b505060009160029190565b60048110156123755780612318575050565b600181036123325760405163f645eedf60e01b8152600490fd5b600281036123535760405163fce698f760e01b815260048101839052602490fd5b60031461235d5750565b602490604051906335e2f38360e21b82526004820152fd5b634e487b7160e01b600052602160045260246000fd5b60ff7ff0c57e16840df040f15088dc2f81fe391c3923bec73e23a9662efc9c229c6a005460401c16156123ba57565b604051631afcd79f60e31b8152600490fd5b91907f7fffffffffffffffffffffffffffffff5d576e7357a4501ddfe92f46681b20a0841161245057926020929160ff608095604051948552168484015260408301526060820152600092839182805260015afa156124445780516001600160a01b0381161561243b57918190565b50809160019190565b604051903d90823e3d90fd5b50505060009160039190565b90612483575080511561247157805190602001fd5b60405163d6bda27560e01b8152600490fd5b815115806124b6575b612494575090565b604051639996b31560e01b81526001600160a01b039091166004820152602490fd5b50803b1561248c56fe9016d09d72d40fdae2fd8ceac6b6234c7706214fd39c1cd1e609a0528c199300cd5ed15c6e187e77e9aee88184c21f4f2182ab5827cb3b7e07fbedcd63f03300a26469706673582212202062ff1ec1ee05671b711f780b0d7addba2e4b1881b617960bd73a9f20c561d864736f6c63430008180033",
  "linkReferences": {},
  "deployedLinkReferences": {}
}