{
  "_format": "hh-sol-artifact-1",
  "contractName": "MockVerifier",
  "sourceName": "src/mocks/MockVerifier.sol",
  "abi": [
    {
      "anonymous": false,
      "inputs": [
        {
          "indexed": false,
          "internalType": "bool",
          "name": "result",
          "type": "bool"
        },
        {
          "indexed": false,
          "internalType": "uint256[]",
          "name": "publicSignals",
          "type": "uint256[]"
        }
      ],
      "name": "ProofVerified",
      "type": "event"
    },
    {
      "inputs": [],
      "name": "expectedResult",
      "outputs": [
        {
          "internalType": "bool",
          "name": "",
          "type": "bool"
        }
      ],
      "stateMutability": "view",
      "type": "function"
    },
    {
      "inputs": [
        {
          "internalType": "bool",
          "name": "_result",
          "type": "bool"
        }
      ],
      "name": "setResult",
      "outputs": [],
      "stateMutability": "nonpayable",
      "type": "function"
    },
    {
      "inputs": [
        {
          "internalType": "uint256[2]",
          "name": "",
          "type": "uint256[2]"
        },
        {
          "internalType": "uint256[2][2]",
          "name": "",
          "type": "uint256[2][2]"
        },
        {
          "internalType": "uint256[2]",
          "name": "",
          "type": "uint256[2]"
        },
        {
          "internalType": "uint256[5]",
          "name": "",
          "type": "uint256[5]"
        }
      ],
      "name": "verifyProof",
      "outputs": [
        {
          "internalType": "bool",
          "name": "",
          "type": "bool"
        }
      ],
      "stateMutability": "view",
      "type": "function"
    }
  ],
  "bytecode": "0x60806040526000805460ff1916600117905534801561001d57600080fd5b506101828061002d6000396000f3fe608060405234801561001057600080fd5b50600436106100415760003560e01c806334baeab914610046578063d40cae4f14610076578063f4b4dc2e14610083575b600080fd5b6100626100543660046100bd565b60005460ff16949350505050565b604051901515815260200160405180910390f35b6000546100629060ff1681565b6100a4610091366004610123565b6000805460ff1916911515919091179055565b005b80604081018310156100b757600080fd5b92915050565b6000806000806101a08086880312156100d557600080fd5b6100df87876100a6565b945060c08601878111156100f257600080fd5b60408701945061010288826100a6565b93505086818701111561011457600080fd5b50929591945092610100019150565b60006020828403121561013557600080fd5b8135801515811461014557600080fd5b939250505056fea26469706673582212206470abc828d7a547d651541d2f0979904571dc6295172be8fdbc5a2125d98aea64736f6c63430008180033",
  "linkReferences": {},
  "deployedLinkReferences": {}
}