{
  "_format": "hh-sol-artifact-1",
  "contractName": "MockVerifier",
  "sourceName": "src/mocks/MockVerifier.sol",
  "abi": [
    {
      "anonymous": false,
      "inputs": [
        {
          "indexed": false,
          "internalType": "bool",
          "name": "result",
          "type": "bool"
        },
        {
          "indexed": false,
          "internalType": "uint256[]",
          "name": "publicSignals",
          "type": "uint256[]"
        }
      ],
      "name": "ProofVerified",
      "type": "event"
    },
    {
      "inputs": [],
      "name": "expectedResult",
      "outputs": [
        {
          "internalType": "bool",
          "name": "",
          "type": "bool"
        }
      ],
      "stateMutability": "view",
      "type": "function"
    },
    {
      "inputs": [
        {
          "internalType": "bool",
          "name": "_result",
          "type": "bool"
        }
      ],
      "name": "setResult",
      "outputs": [],
      "stateMutability": "nonpayable",
      "type": "function"
    },
    {
      "inputs": [
        {
          "internalType": "uint256[2]",
          "name": "",
          "type": "uint256[2]"
        },
        {
          "internalType": "uint256[2][2]",
          "name": "",
          "type": "uint256[2][2]"
        },
        {
          "internalType": "uint256[2]",
          "name": "",
          "type": "uint256[2]"
        },
        {
          "internalType": "uint256[7]",
          "name": "",
          "type": "uint256[7]"
        }
      ],
      "name": "verifyProof",
      "outputs": [
        {
          "internalType": "bool",
          "name": "",
          "type": "bool"
        }
      ],
      "stateMutability": "view",
      "type": "function"
    }
  ],
  "bytecode": "0x6080806040523461002357600160ff19600054161760005561010290816100298239f35b600080fdfe6080806040526004361015601257600080fd5b600090813560e01c908163c894e75714608f57508063d40cae4f14606f5763f4b4dc2e14603e57600080fd5b34606c576020366003190112606c5760043580151580910360685760ff8019835416911617815580f35b5080fd5b80fd5b5034606c5780600319360112606c5760ff60209154166040519015158152f35b9050346068576101e0366003190112606857366044116068573660c4116068573661010411606857366101e41160685760ff602092541615158152f3fea26469706673582212207ade527fe9ef0ece72645ab59e5adca67b02c1af01233240da9e4f4ac503c9e064736f6c63430008180033",
  "linkReferences": {},
  "deployedLinkReferences": {}
}