{"src/CredentialRegistry.sol":{"CredentialRegistry":{"abi":[{"inputs":[],"stateMutability":"nonpayable","type":"constructor"},{"anonymous":false,"inputs":[{"indexed":true,"internalType":"bytes32","name":"newRoot","type":"bytes32"}],"name":"ActiveRootUpdated","type":"event"},{"anonymous":false,"inputs":[{"indexed":true,"internalType":"address","name":"issuer","type":"address"},{"indexed":true,"internalType":"bytes32","name":"commitment","type":"bytes32"},{"indexed":false,"internalType":"uint64","name":"expiry","type":"uint64"}],"name":"CredentialIssued","type":"event"},{"anonymous":false,"inputs":[{"indexed":true,"internalType":"address","name":"issuer","type":"address"},{"indexed":true,"internalType":"bytes32","name":"commitment","type":"bytes32"}],"name":"CredentialRevoked","type":"event"},{"anonymous":false,"inputs":[{"indexed":true,"internalType":"bytes32","name":"newRoot","type":"bytes32"}],"name":"RevokedSecretRootUpdated","type":"event"},{"inputs":[],"name":"activeRoot","outputs":[{"internalType":"bytes32","name":"","type":"bytes32"}],"stateMutability":"view","type":"function"},{"inputs":[{"internalType":"address","name":"issuer","type":"address"}],"name":"addIssuer","outputs":[],"stateMutability":"nonpayable","type":"function"},{"inputs":[{"internalType":"bytes32","name":"nullifier","type":"bytes32"}],"name":"isNullifierUsed","outputs":[{"internalType":"bool","name":"","type":"bool"}],"stateMutability":"view","type":"function"},{"inputs":[{"internalType":"address","name":"","type":"address"}],"name":"issuers","outputs":[{"internalType":"bool","name":"","type":"bool"}],"stateMutability":"view","type":"function"},{"inputs":[{"internalType":"bytes32","name":"nullifier","type":"bytes32"}],"name":"markNullifierUsed","outputs":[],"stateMutability":"nonpayable","type":"function"},{"inputs":[],"name":"owner","outputs":[{"internalType":"address","name":"","type":"address"}],"stateMutability":"view","type":"function"},{"inputs":[{"internalType":"address","name":"issuer","type":"address"}],"name":"removeIssuer","outputs":[],"stateMutability":"nonpayable","type":"function"},{"inputs":[],"name":"revokedSecretRoot","outputs":[{"internalType":"bytes32","name":"","type":"bytes32"}],"stateMutability":"view","type":"function"},{"inputs":[{"internalType":"address","name":"","type":"address"}],"name":"sessionManagers","outputs":[{"internalType":"bool","name":"","type":"bool"}],"stateMutability":"view","type":"function"},{"inputs":[{"internalType":"address","name":"sessionManager","type":"address"},{"internalType":"bool","name":"allowed","type":"bool"}],"name":"setSessionManager","outputs":[],"stateMutability":"nonpayable","type":"function"},{"inputs":[{"internalType":"bytes32","name":"newRoot","type":"bytes32"}],"name":"updateActiveRoot","outputs":[],"stateMutability":"nonpayable","type":"function"},{"inputs":[{"internalType":"bytes32","name":"newRoot","type":"bytes32"}],"name":"updateRevokedSecretRoot","outputs":[],"stateMutability":"nonpayable","type":"function"},{"inputs":[{"internalType":"bytes32","name":"","type":"bytes32"}],"name":"usedNullifiers","outputs":[{"internalType":"bool","name":"","type":"bool"}],"stateMutability":"view","type":"function"}],"evm":{"bytecode":{"linkReferences":{},"object":"60808060405234610045576001600081815581546001600160a01b0319163390811783558152600260205260409020805460ff1916909117905561055f908161004b8239f35b600080fdfe6080604081815260048036101561001557600080fd5b600092833560e01c908163057cb0f51461038257508063206137aa1461030957806320694db01461033557806322dc7b4c1461030957806323914869146102a657806338a7543e1461026857806347bc70931461021e5780636b6debf7146101ff5780638da5cb5b146101d6578063abb2efdf146101b9578063c1c67f5f14610158578063eb9e5849146101165763f54e3a85146100b257600080fd5b346101125760203660031901126101125760ff6100dc913592338552600260205284205416610499565b6100e46104d3565b806005557e12e8d1cf1cc3bbbeeed8d45e664cae7b568efc953ca943c64e07f3f4e588598280a26001815580f35b8280fd5b5050346101545760203660031901126101545760209160ff9082906001600160a01b03610141610445565b1681526003855220541690519015158152f35b5080fd5b505034610154578060031936011261015457610172610445565b90602435918215158093036101b5576001546001600160a01b03919061019b9083163314610460565b168352600360205282209060ff8019835416911617905580f35b8380fd5b503461011257826003193601126101125760209250549051908152f35b50503461015457816003193601126101545760015490516001600160a01b039091168152602090f35b5050346101545781600319360112610154576020906005549051908152f35b50503461015457602036600319011261015457610239610445565b6001546001600160a01b0391906102539083163314610460565b16825260026020528120805460ff1916905580f35b5050346101545760203660031901126101545760209160ff9082906001600160a01b03610293610445565b1681526002855220541690519015158152f35b50903461011257602036600319011261011257816102d560ff9335938493338752600260205286205416610499565b6102dd6104d3565b557f76261461236844337b0eb16561d37bd90c48cf1b779a7122006f8df07243d4188280a26001815580f35b5034610112576020366003190112610112578160209360ff923581526006855220541690519015158152f35b50503461015457602036600319011261015457610350610445565b6001546001600160a01b03919061036a9083163314610460565b16825260026020528120805460ff1916600117905580f35b9050346101b55760209182600319360112610441578035913386526003845260ff85872054161561040b57508185526006835260ff84862054166103d757508352600690528120805460ff1916600117905580f35b835162461bcd60e51b8152908101839052600e60248201526d139d5b1b1a599a595c881d5cd95960921b6044820152606490fd5b8360649262461bcd60e51b8352820152601460248201527327b7363c9039b2b9b9b4b7b71036b0b730b3b2b960611b6044820152fd5b8480fd5b600435906001600160a01b038216820361045b57565b600080fd5b1561046757565b60405162461bcd60e51b815260206004820152600a60248201526927b7363c9037bbb732b960b11b6044820152606490fd5b156104a057565b60405162461bcd60e51b815260206004820152600b60248201526a27b7363c9034b9b9bab2b960a91b6044820152606490fd5b6002600054146104e4576002600055565b60405162461bcd60e51b815260206004820152601f60248201527f5265656e7472616e637947756172643a207265656e7472616e742063616c6c006044820152606490fdfea2646970667358221220fe229cd4141ce0a436a946ead201849e3229cd83b663de71f2b5d1f4d59ea3cc64736f6c63430008180033","opcodes":"PUSH1 0x80 DUP1 PUSH1 0x40 MSTORE CALLVALUE PUSH2 0x45 JUMPI PUSH1 0x1 PUSH1 0x0 DUP2 DUP2 SSTORE DUP2 SLOAD PUSH1 0x1 PUSH1 0x1 PUSH1 0xA0 SHL SUB NOT AND CALLER SWAP1 DUP2 OR DUP4 SSTORE DUP2 MSTORE PUSH1 0x2 PUSH1 0x20 MSTORE PUSH1 0x40 SWAP1 KECCAK256 DUP1 SLOAD PUSH1 0xFF NOT AND SWAP1 SWAP2 OR SWAP1 SSTORE PUSH2 0x55F SWAP1 DUP2 PUSH2 0x4B DUP3 CODECOPY RETURN JUMPDEST PUSH1 0x0 DUP1 REVERT INVALID PUSH1 0x80 PUSH1 0x40 DUP2 DUP2 MSTORE PUSH1 0x4 DUP1 CALLDATASIZE LT ISZERO PUSH2 0x15 JUMPI PUSH1 0x0 DUP1 REVERT JUMPDEST PUSH1 0x0 SWAP3 DUP4 CALLDATALOAD PUSH1 0xE0 SHR SWAP1 DUP2 PUSH4 0x57CB0F5 EQ PUSH2 0x382 JUMPI POP DUP1 PUSH4 0x206137AA EQ PUSH2 0x309 JUMPI DUP1 PUSH4 0x20694DB0 EQ PUSH2 0x335 JUMPI DUP1 PUSH4 0x22DC7B4C EQ PUSH2 0x309 JUMPI DUP1 PUSH4 0x23914869 EQ PUSH2 0x2A6 JUMPI DUP1 PUSH4 0x38A7543E EQ PUSH2 0x268 JUMPI DUP1 PUSH4 0x47BC7093 EQ PUSH2 0x21E JUMPI DUP1 PUSH4 0x6B6DEBF7 EQ PUSH2 0x1FF JUMPI DUP1 PUSH4 0x8DA5CB5B EQ PUSH2 0x1D6 JUMPI DUP1 PUSH4 0xABB2EFDF EQ PUSH2 0x1B9 JUMPI DUP1 PUSH4 0xC1C67F5F EQ PUSH2 0x158 JUMPI DUP1 PUSH4 0xEB9E5849 EQ PUSH2 0x116 JUMPI PUSH4 0xF54E3A85 EQ PUSH2 0xB2 JUMPI PUSH1 0x0 DUP1 REVERT JUMPDEST CALLVALUE PUSH2 0x112 JUMPI PUSH1 0x20 CALLDATASIZE PUSH1 0x3 NOT ADD SLT PUSH2 0x112 JUMPI PUSH1 0xFF PUSH2 0xDC SWAP2 CALLDATALOAD SWAP3 CALLER DUP6 MSTORE PUSH1 0x2 PUSH1 0x20 MSTORE DUP5 KECCAK256 SLOAD AND PUSH2 0x499 JUMP JUMPDEST PUSH2 0xE4 PUSH2 0x4D3 JUMP JUMPDEST DUP1 PUSH1 0x5 SSTORE PUSH31 0x12E8D1CF1CC3BBBEEED8D45E664CAE7B568EFC953CA943C64E07F3F4E58859 DUP3 DUP1 LOG2 PUSH1 0x1 DUP2 SSTORE DUP1 RETURN JUMPDEST DUP3 DUP1 REVERT JUMPDEST POP POP CALLVALUE PUSH2 0x154 JUMPI PUSH1 0x20 CALLDATASIZE PUSH1 0x3 NOT ADD SLT PUSH2 0x154 JUMPI PUSH1 0x20 SWAP2 PUSH1 0xFF SWAP1 DUP3 SWAP1 PUSH1 0x1 PUSH1 0x1 PUSH1 0xA0 SHL SUB PUSH2 0x141 PUSH2 0x445 JUMP JUMPDEST AND DUP2 MSTORE PUSH1 0x3 DUP6 MSTORE KECCAK256 SLOAD AND SWAP1 MLOAD SWAP1 ISZERO ISZERO DUP2 MSTORE RETURN JUMPDEST POP DUP1 REVERT JUMPDEST POP POP CALLVALUE PUSH2 0x154 JUMPI DUP1 PUSH1 0x3 NOT CALLDATASIZE ADD SLT PUSH2 0x154 JUMPI PUSH2 0x172 PUSH2 0x445 JUMP JUMPDEST SWAP1 PUSH1 0x24 CALLDATALOAD SWAP2 DUP3 ISZERO ISZERO DUP1 SWAP4 SUB PUSH2 0x1B5 JUMPI PUSH1 0x1 SLOAD PUSH1 0x1 PUSH1 0x1 PUSH1 0xA0 SHL SUB SWAP2 SWAP1 PUSH2 0x19B SWAP1 DUP4 AND CALLER EQ PUSH2 0x460 JUMP JUMPDEST AND DUP4 MSTORE PUSH1 0x3 PUSH1 0x20 MSTORE DUP3 KECCAK256 SWAP1 PUSH1 0xFF DUP1 NOT DUP4 SLOAD AND SWAP2 AND OR SWAP1 SSTORE DUP1 RETURN JUMPDEST DUP4 DUP1 REVERT JUMPDEST POP CALLVALUE PUSH2 0x112 JUMPI DUP3 PUSH1 0x3 NOT CALLDATASIZE ADD SLT PUSH2 0x112 JUMPI PUSH1 0x20 SWAP3 POP SLOAD SWAP1 MLOAD SWAP1 DUP2 MSTORE RETURN JUMPDEST POP POP CALLVALUE PUSH2 0x154 JUMPI DUP2 PUSH1 0x3 NOT CALLDATASIZE ADD SLT PUSH2 0x154 JUMPI PUSH1 0x1 SLOAD SWAP1 MLOAD PUSH1 0x1 PUSH1 0x1 PUSH1 0xA0 SHL SUB SWAP1 SWAP2 AND DUP2 MSTORE PUSH1 0x20 SWAP1 RETURN JUMPDEST POP POP CALLVALUE PUSH2 0x154 JUMPI DUP2 PUSH1 0x3 NOT CALLDATASIZE ADD SLT PUSH2 0x154 JUMPI PUSH1 0x20 SWAP1 PUSH1 0x5 SLOAD SWAP1 MLOAD SWAP1 DUP2 MSTORE RETURN JUMPDEST POP POP CALLVALUE PUSH2 0x154 JUMPI PUSH1 0x20 CALLDATASIZE PUSH1 0x3 NOT ADD SLT PUSH2 0x154 JUMPI PUSH2 0x239 PUSH2 0x445 JUMP JUMPDEST PUSH1 0x1 SLOAD PUSH1 0x1 PUSH1 0x1 PUSH1 0xA0 SHL SUB SWAP2 SWAP1 PUSH2 0x253 SWAP1 DUP4 AND CALLER EQ PUSH2 0x460 JUMP JUMPDEST AND DUP3 MSTORE PUSH1 0x2 PUSH1 0x20 MSTORE DUP2 KECCAK256 DUP1 SLOAD PUSH1 0xFF NOT AND SWAP1 SSTORE DUP1 RETURN JUMPDEST POP POP CALLVALUE PUSH2 0x154 JUMPI PUSH1 0x20 CALLDATASIZE PUSH1 0x3 NOT ADD SLT PUSH2 0x154 JUMPI PUSH1 0x20 SWAP2 PUSH1 0xFF SWAP1 DUP3 SWAP1 PUSH1 0x1 PUSH1 0x1 PUSH1 0xA0 SHL SUB PUSH2 0x293 PUSH2 0x445 JUMP JUMPDEST AND DUP2 MSTORE PUSH1 0x2 DUP6 MSTORE KECCAK256 SLOAD AND SWAP1 MLOAD SWAP1 ISZERO ISZERO DUP2 MSTORE RETURN JUMPDEST POP SWAP1 CALLVALUE PUSH2 0x112 JUMPI PUSH1 0x20 CALLDATASIZE PUSH1 0x3 NOT ADD SLT PUSH2 0x112 JUMPI DUP2 PUSH2 0x2D5 PUSH1 0xFF SWAP4 CALLDATALOAD SWAP4 DUP5 SWAP4 CALLER DUP8 MSTORE PUSH1 0x2 PUSH1 0x20 MSTORE DUP7 KECCAK256 SLOAD AND PUSH2 0x499 JUMP JUMPDEST PUSH2 0x2DD PUSH2 0x4D3 JUMP JUMPDEST SSTORE PUSH32 0x76261461236844337B0EB16561D37BD90C48CF1B779A7122006F8DF07243D418 DUP3 DUP1 LOG2 PUSH1 0x1 DUP2 SSTORE DUP1 RETURN JUMPDEST POP CALLVALUE PUSH2 0x112 JUMPI PUSH1 0x20 CALLDATASIZE PUSH1 0x3 NOT ADD SLT PUSH2 0x112 JUMPI DUP2 PUSH1 0x20 SWAP4 PUSH1 0xFF SWAP3 CALLDATALOAD DUP2 MSTORE PUSH1 0x6 DUP6 MSTORE KECCAK256 SLOAD AND SWAP1 MLOAD SWAP1 ISZERO ISZERO DUP2 MSTORE RETURN JUMPDEST POP POP CALLVALUE PUSH2 0x154 JUMPI PUSH1 0x20 CALLDATASIZE PUSH1 0x3 NOT ADD SLT PUSH2 0x154 JUMPI PUSH2 0x350 PUSH2 0x445 JUMP JUMPDEST PUSH1 0x1 SLOAD PUSH1 0x1 PUSH1 0x1 PUSH1 0xA0 SHL SUB SWAP2 SWAP1 PUSH2 0x36A SWAP1 DUP4 AND CALLER EQ PUSH2 0x460 JUMP JUMPDEST AND DUP3 MSTORE PUSH1 0x2 PUSH1 0x20 MSTORE DUP2 KECCAK256 DUP1 SLOAD PUSH1 0xFF NOT AND PUSH1 0x1 OR SWAP1 SSTORE DUP1 RETURN JUMPDEST SWAP1 POP CALLVALUE PUSH2 0x1B5 JUMPI PUSH1 0x20 SWAP2 DUP3 PUSH1 0x3 NOT CALLDATASIZE ADD SLT PUSH2 0x441 JUMPI DUP1 CALLDATALOAD SWAP2 CALLER DUP7 MSTORE PUSH1 0x3 DUP5 MSTORE PUSH1 0xFF DUP6 DUP8 KECCAK256 SLOAD AND ISZERO PUSH2 0x40B JUMPI POP DUP2 DUP6 MSTORE PUSH1 0x6 DUP4 MSTORE PUSH1 0xFF DUP5 DUP7 KECCAK256 SLOAD AND PUSH2 0x3D7 JUMPI POP DUP4 MSTORE PUSH1 0x6 SWAP1 MSTORE DUP2 KECCAK256 DUP1 SLOAD PUSH1 0xFF NOT AND PUSH1 0x1 OR SWAP1 SSTORE DUP1 RETURN JUMPDEST DUP4 MLOAD PUSH3 0x461BCD PUSH1 0xE5 SHL DUP2 MSTORE SWAP1 DUP2 ADD DUP4 SWAP1 MSTORE PUSH1 0xE PUSH1 0x24 DUP3 ADD MSTORE PUSH14 0x139D5B1B1A599A595C881D5CD959 PUSH1 0x92 SHL PUSH1 0x44 DUP3 ADD MSTORE PUSH1 0x64 SWAP1 REVERT JUMPDEST DUP4 PUSH1 0x64 SWAP3 PUSH3 0x461BCD PUSH1 0xE5 SHL DUP4 MSTORE DUP3 ADD MSTORE PUSH1 0x14 PUSH1 0x24 DUP3 ADD MSTORE PUSH20 0x27B7363C9039B2B9B9B4B7B71036B0B730B3B2B9 PUSH1 0x61 SHL PUSH1 0x44 DUP3 ADD MSTORE REVERT JUMPDEST DUP5 DUP1 REVERT JUMPDEST PUSH1 0x4 CALLDATALOAD SWAP1 PUSH1 0x1 PUSH1 0x1 PUSH1 0xA0 SHL SUB DUP3 AND DUP3 SUB PUSH2 0x45B JUMPI JUMP JUMPDEST PUSH1 0x0 DUP1 REVERT JUMPDEST ISZERO PUSH2 0x467 JUMPI JUMP JUMPDEST PUSH1 0x40 MLOAD PUSH3 0x461BCD PUSH1 0xE5 SHL DUP2 MSTORE PUSH1 0x20 PUSH1 0x4 DUP3 ADD MSTORE PUSH1 0xA PUSH1 0x24 DUP3 ADD MSTORE PUSH10 0x27B7363C9037BBB732B9 PUSH1 0xB1 SHL PUSH1 0x44 DUP3 ADD MSTORE PUSH1 0x64 SWAP1 REVERT JUMPDEST ISZERO PUSH2 0x4A0 JUMPI JUMP JUMPDEST PUSH1 0x40 MLOAD PUSH3 0x461BCD PUSH1 0xE5 SHL DUP2 MSTORE PUSH1 0x20 PUSH1 0x4 DUP3 ADD MSTORE PUSH1 0xB PUSH1 0x24 DUP3 ADD MSTORE PUSH11 0x27B7363C9034B9B9BAB2B9 PUSH1 0xA9 SHL PUSH1 0x44 DUP3 ADD MSTORE PUSH1 0x64 SWAP1 REVERT JUMPDEST PUSH1 0x2 PUSH1 0x0 SLOAD EQ PUSH2 0x4E4 JUMPI PUSH1 0x2 PUSH1 0x0 SSTORE JUMP JUMPDEST PUSH1 0x40 MLOAD PUSH3 0x461BCD PUSH1 0xE5 SHL DUP2 MSTORE PUSH1 0x20 PUSH1 0x4 DUP3 ADD MSTORE PUSH1 0x1F PUSH1 0x24 DUP3 ADD MSTORE PUSH32 0x5265656E7472616E637947756172643A207265656E7472616E742063616C6C00 PUSH1 0x44 DUP3 ADD MSTORE PUSH1 0x64 SWAP1 REVERT INVALID LOG2 PUSH5 0x6970667358 0x22 SLT KECCAK256 INVALID 0x22 SWAP13 0xD4 EQ SHR 0xE0 LOG4 CALLDATASIZE 0xA9 CHAINID 0xEA 0xD2 ADD DUP5 SWAP15 ORIGIN 0x29 0xCD DUP4 0xB6 PUSH4 0xDE71F2B5 0xD1 DELEGATECALL 0xD5 SWAP15 LOG3 0xCC PUSH5 0x736F6C6343 STOP ADDMOD XOR STOP CALLER "},"methodIdentifiers":{"activeRoot()":"abb2efdf","addIssuer(address)":"20694db0","isNullifierUsed(bytes32)":"22dc7b4c","issuers(address)":"38a7543e","markNullifierUsed(bytes32)":"057cb0f5","owner()":"8da5cb5b","removeIssuer(address)":"47bc7093","revokedSecretRoot()":"6b6debf7","sessionManagers(address)":"eb9e5849","setSessionManager(address,bool)":"c1c67f5f","updateActiveRoot(bytes32)":"23914869","updateRevokedSecretRoot(bytes32)":"f54e3a85","usedNullifiers(bytes32)":"206137aa"}}}}}