{"src/CapabilityRegistry.sol":{"CapabilityRegistry":{"abi":[{"inputs":[],"stateMutability":"nonpayable","type":"constructor"},{"anonymous":false,"inputs":[{"indexed":true,"internalType":"bytes32","name":"capabilityId","type":"bytes32"},{"indexed":true,"internalType":"bytes32","name":"actionHash","type":"bytes32"},{"indexed":true,"internalType":"address","name":"registrar","type":"address"}],"name":"CapabilityRegistered","type":"event"},{"anonymous":false,"inputs":[{"indexed":true,"internalType":"bytes32","name":"capabilityId","type":"bytes32"}],"name":"CapabilityRevoked","type":"event"},{"anonymous":false,"inputs":[{"indexed":true,"internalType":"bytes32","name":"grantLeafHash","type":"bytes32"}],"name":"GrantRevoked","type":"event"},{"anonymous":false,"inputs":[{"indexed":true,"internalType":"address","name":"agent","type":"address"},{"indexed":false,"internalType":"bytes32","name":"newRoot","type":"bytes32"}],"name":"GrantRootUpdated","type":"event"},{"anonymous":false,"inputs":[{"indexed":false,"internalType":"address","name":"account","type":"address"}],"name":"Paused","type":"event"},{"anonymous":false,"inputs":[{"indexed":false,"internalType":"address","name":"account","type":"address"}],"name":"Unpaused","type":"event"},{"inputs":[{"internalType":"bytes32","name":"","type":"bytes32"}],"name":"capabilities","outputs":[{"internalType":"bytes32","name":"actionHash","type":"bytes32"},{"internalType":"address","name":"registrar","type":"address"},{"internalType":"uint64","name":"createdAt","type":"uint64"},{"internalType":"uint64","name":"expiresAt","type":"uint64"},{"internalType":"bool","name":"revoked","type":"bool"}],"stateMutability":"view","type":"function"},{"inputs":[{"internalType":"uint256","name":"","type":"uint256"}],"name":"capabilityList","outputs":[{"internalType":"bytes32","name":"","type":"bytes32"}],"stateMutability":"view","type":"function"},{"inputs":[{"internalType":"bytes32","name":"capabilityId","type":"bytes32"}],"name":"getCapability","outputs":[{"components":[{"internalType":"bytes32","name":"actionHash","type":"bytes32"},{"internalType":"address","name":"registrar","type":"address"},{"internalType":"uint64","name":"createdAt","type":"uint64"},{"internalType":"uint64","name":"expiresAt","type":"uint64"},{"internalType":"bool","name":"revoked","type":"bool"}],"internalType":"struct CapabilityRegistry.CapabilityDef","name":"","type":"tuple"}],"stateMutability":"view","type":"function"},{"inputs":[],"name":"getCapabilityCount","outputs":[{"internalType":"uint256","name":"","type":"uint256"}],"stateMutability":"view","type":"function"},{"inputs":[{"internalType":"address","name":"","type":"address"}],"name":"grantRoots","outputs":[{"internalType":"bytes32","name":"","type":"bytes32"}],"stateMutability":"view","type":"function"},{"inputs":[],"name":"owner","outputs":[{"internalType":"address","name":"","type":"address"}],"stateMutability":"view","type":"function"},{"inputs":[],"name":"pause","outputs":[],"stateMutability":"nonpayable","type":"function"},{"inputs":[],"name":"paused","outputs":[{"internalType":"bool","name":"","type":"bool"}],"stateMutability":"view","type":"function"},{"inputs":[{"internalType":"bytes32","name":"capabilityId","type":"bytes32"},{"internalType":"string","name":"action","type":"string"},{"internalType":"uint64","name":"expiresAt","type":"uint64"}],"name":"registerCapability","outputs":[],"stateMutability":"nonpayable","type":"function"},{"inputs":[{"internalType":"bytes32","name":"capabilityId","type":"bytes32"}],"name":"revokeCapability","outputs":[],"stateMutability":"nonpayable","type":"function"},{"inputs":[{"internalType":"bytes32","name":"grantLeafHash","type":"bytes32"},{"internalType":"bytes32","name":"capabilityId","type":"bytes32"}],"name":"revokeGrant","outputs":[],"stateMutability":"nonpayable","type":"function"},{"inputs":[{"internalType":"bytes32","name":"","type":"bytes32"}],"name":"revokedGrants","outputs":[{"internalType":"bool","name":"","type":"bool"}],"stateMutability":"view","type":"function"},{"inputs":[{"internalType":"address","name":"","type":"address"}],"name":"rootUpdaters","outputs":[{"internalType":"bool","name":"","type":"bool"}],"stateMutability":"view","type":"function"},{"inputs":[{"internalType":"address","name":"updater","type":"address"},{"internalType":"bool","name":"allowed","type":"bool"}],"name":"setRootUpdater","outputs":[],"stateMutability":"nonpayable","type":"function"},{"inputs":[],"name":"unpause","outputs":[],"stateMutability":"nonpayable","type":"function"},{"inputs":[{"internalType":"address","name":"agent","type":"address"},{"internalType":"bytes32","name":"newRoot","type":"bytes32"}],"name":"updateGrantRoot","outputs":[],"stateMutability":"nonpayable","type":"function"},{"inputs":[{"internalType":"address","name":"agent","type":"address"},{"internalType":"bytes32","name":"capabilityId","type":"bytes32"},{"internalType":"bytes32","name":"grantLeaf","type":"bytes32"},{"internalType":"bytes32[]","name":"merkleProof","type":"bytes32[]"},{"internalType":"address","name":"grantor","type":"address"},{"internalType":"bytes32","name":"constraintsHash","type":"bytes32"},{"internalType":"uint64","name":"expiresAt","type":"uint64"}],"name":"verifyCapability","outputs":[{"internalType":"bool","name":"","type":"bool"}],"stateMutability":"view","type":"function"}],"evm":{"bytecode":{"linkReferences":{},"object":"6080806040523461003a576001600081905580546001600160a81b0319163360081b610100600160a81b0316179055610d6590816100408239f35b600080fdfe6080604081815260048036101561001557600080fd5b600092833560e01c9081631656cd7e1461098a57508063243549921461073f578063372b102d146107015780633a7f6cc71461066e5780633f4ba83a146105c957806353739410146105685780635c975abb146105445780636f4907a6146105185780637b23648a146104795780638456cb591461041257806388a8baf91461038c5780638da5cb5b1461035f5780639cb7c5f41461029e578063a6e0a6ce14610263578063adf4d59e1461016b578063b036fe7e146101485763c2ead131146100de57600080fd5b34610144576020366003190112610144578160a09360ff92358152600260205220805492600260018301549267ffffffffffffffff9182910154938351968752600180891b0381166020880152871c1682860152821660608501521c1615156080820152f35b8280fd5b5050346101675781600319360112610167576020906003549051908152f35b5080fd5b5090346101445760203660031901126101445781359182845260026020528184209060018201549067ffffffffffffffff8260a01c16156102295750600160401b916002916101cf906001600160a01b039081163314908115610218575b50610a74565b01916101e260ff845480931c1615610ab1565b68ff000000000000000019161790557f49605d0360d8e90064c274ba9997a3d883d637411e4a6855594c367b31679d668280a280f35b905060015460081c163314386101c9565b606490602085519162461bcd60e51b8352820152601460248201527310d85c18589a5b1a5d1e481b9bdd08199bdd5b9960621b6044820152fd5b503461014457602036600319011261014457359160035483101561029b575061028d6020926109d9565b90549060031b1c9051908152f35b80fd5b50346101445760203660031901126101445782829160a094608084516102c381610a26565b82815282602082015282868201528260608201520152358152600260205220600282516102ef81610a26565b825493848252600184015493600180881b03946020840195808216875267ffffffffffffffff95869384868801948c1c16845201549660ff60806060880197868b1689520198861c1615158852845198895251166020880152511690850152511660608301525115156080820152f35b505034610167578160031936011261016757600154905160089190911c6001600160a01b03168152602090f35b50903461014457806003193601126101445760207fd16ef39bb9aa303cfb433f8db1c88ac040afe9393441412bf5b1f0f97d0104b7916103ca6109be565b6001600160a01b031693602435919033861480156103fe575b6103ec90610a74565b8587528352818187205551908152a280f35b50338752600684528187205460ff166103e3565b50503461016757816003193601126101675760207f62e78cea01bee320cd4e420270b5ea74000d11b0c9f74754ebdbfc544b05a2589160018054610461828060a01b038260081c163314610aef565b610469610ceb565b60ff19161760015551338152a180f35b50913461029b5760e036600319011261029b576104946109be565b906064359167ffffffffffffffff9485841161014457366023850112156101445783013590858211610144573660248360051b8601011161014457608435926001600160a01b038416840361029b5760c435968716870361029b57509161050f939160209693602460a4359401906044359060243590610b28565b90519015158152f35b5034610144576020366003190112610144578160209360ff923581526005855220541690519015158152f35b50503461016757816003193601126101675760209060ff6001541690519015158152f35b5050346101675780600319360112610167576105826109be565b90602435918215158093036105c55760018060a01b03906105ab8260015460081c163314610aef565b168352600660205282209060ff8019835416911617905580f35b8380fd5b5034610144578260031936011261014457600154906105f633600884901c6001600160a01b031614610aef565b60ff821615610634575060ff1916600155513381527f5db9ee0a495bf2e6ff9c91a7834c1ba4fdd244a5e8aa4e537bd38aeae4b073aa90602090a180f35b606490602084519162461bcd60e51b8352820152601460248201527314185d5cd8589b194e881b9bdd081c185d5cd95960621b6044820152fd5b50346101445781600319360112610144573590602435835260026020526106ad60018060a01b0380600184872001541633149081156102185750610a74565b81835260056020526106c560ff828520541615610ab1565b81835260056020528220805460ff191660011790557fbc7909d45ab794ee63122077124d9ce05bea1db0768be90c77d2eddbdf1eef4f8280a280f35b5050346101675760203660031901126101675760209160ff9082906001600160a01b0361072c6109be565b1681526006855220541690519015158152f35b50903461014457606036600319011261014457813591602480359267ffffffffffffffff9081851161098657366023860112156109865784840135918083116109825736848488010111610982576044359281841680940361097e576107a3610ceb565b87895260209660028852826001858c20015460a01c16610948578115610914578351828193888b84019401843781018981018c905203808352603f01601f19168201918383118184101761090257828b86959360029368ff0000000000000000968e99525190209a61081483610a26565b8b8352868184019233845285828601938842168552606087019c8d52608087019b838d528352522092518355600183019160018060a01b0390511682549167ffffffffffffffff60a01b905160a01b169163ffffffff60e01b16171790550194511691845493511515901b169168ffffffffffffffffff19161717905560035491600160401b8310156108f15750508060016108b392016003556109d9565b81549060031b9084821b91600019901b191617905533917ff29a7a8b7e17110feb5338446fbfdcb1f7370015c5a13bfdf070ccbf6b5e2dfe8480a480f35b634e487b7160e01b86526041905284fd5b634e487b7160e01b8b5260418852868bfd5b835162461bcd60e51b8152808801899052600f818801526e1058dd1a5bdb881c995c5d5a5c9959608a1b6044820152606490fd5b835162461bcd60e51b8152808801899052601181880152704361706162696c6974792065786973747360781b6044820152606490fd5b8880fd5b8780fd5b8680fd5b92919050346105c55760203660031901126105c557602093906001600160a01b036109b36109be565b168252845220548152f35b600435906001600160a01b03821682036109d457565b600080fd5b600354811015610a105760036000527fc2575a0e9e593c00f959f8c92f12db2869c3395a3b0502d05e2516446f71f85b0190600090565b634e487b7160e01b600052603260045260246000fd5b60a0810190811067ffffffffffffffff821117610a4257604052565b634e487b7160e01b600052604160045260246000fd5b6060810190811067ffffffffffffffff821117610a4257604052565b15610a7b57565b60405162461bcd60e51b815260206004820152600e60248201526d139bdd08185d5d1a1bdc9a5e995960921b6044820152606490fd5b15610ab857565b60405162461bcd60e51b815260206004820152600f60248201526e105b1c9958591e481c995d9bdad959608a1b6044820152606490fd5b15610af657565b60405162461bcd60e51b815260206004820152600a60248201526927b7363c9037bbb732b960b11b6044820152606490fd5b95909296949196600091848352602094600286526040948585209860028a01549a60ff8c891c16610cd15767ffffffffffffffff809c168015159081610ce1575b50610cd15760019a8b01546001600160a01b039384169391908216849003610cc057908c92918951948b86019687528a8601521694856060850152608084015216998a60a083015260a0825260c082019082821090821117610cac578652519020899003610c895782526004845282822054978815610c89578083526005976005865260ff8585205416610c9f578015159081610c95575b50610c89579695949392919081965b858810610c235750505050505050501490565b90919293949587988198831b840135808210600014610c675786519088820192835287820152868152610c5581610a58565b5190205b980196959493929190610c10565b9086519088820192835287820152868152610c8181610a58565b519020610c59565b50509550505050505090565b9050421138610c01565b5050509550505050505090565b634e487b7160e01b86526041600452602486fd5b505050505050509550505050505090565b5050505050509550505050505090565b9050421138610b69565b60ff60015416610cf757565b60405162461bcd60e51b815260206004820152601060248201526f14185d5cd8589b194e881c185d5cd95960821b6044820152606490fdfea2646970667358221220adf244c11fab914b7b183d66372d8df0f9a0530c647a0c4e812c7f1b8bc9847a64736f6c63430008180033","opcodes":"PUSH1 0x80 DUP1 PUSH1 0x40 MSTORE CALLVALUE PUSH2 0x3A JUMPI PUSH1 0x1 PUSH1 0x0 DUP2 SWAP1 SSTORE DUP1 SLOAD PUSH1 0x1 PUSH1 0x1 PUSH1 0xA8 SHL SUB NOT AND CALLER PUSH1 0x8 SHL PUSH2 0x100 PUSH1 0x1 PUSH1 0xA8 SHL SUB AND OR SWAP1 SSTORE PUSH2 0xD65 SWAP1 DUP2 PUSH2 0x40 DUP3 CODECOPY RETURN JUMPDEST PUSH1 0x0 DUP1 REVERT INVALID PUSH1 0x80 PUSH1 0x40 DUP2 DUP2 MSTORE PUSH1 0x4 DUP1 CALLDATASIZE LT ISZERO PUSH2 0x15 JUMPI PUSH1 0x0 DUP1 REVERT JUMPDEST PUSH1 0x0 SWAP3 DUP4 CALLDATALOAD PUSH1 0xE0 SHR SWAP1 DUP2 PUSH4 0x1656CD7E EQ PUSH2 0x98A JUMPI POP DUP1 PUSH4 0x24354992 EQ PUSH2 0x73F JUMPI DUP1 PUSH4 0x372B102D EQ PUSH2 0x701 JUMPI DUP1 PUSH4 0x3A7F6CC7 EQ PUSH2 0x66E JUMPI DUP1 PUSH4 0x3F4BA83A EQ PUSH2 0x5C9 JUMPI DUP1 PUSH4 0x53739410 EQ PUSH2 0x568 JUMPI DUP1 PUSH4 0x5C975ABB EQ PUSH2 0x544 JUMPI DUP1 PUSH4 0x6F4907A6 EQ PUSH2 0x518 JUMPI DUP1 PUSH4 0x7B23648A EQ PUSH2 0x479 JUMPI DUP1 PUSH4 0x8456CB59 EQ PUSH2 0x412 JUMPI DUP1 PUSH4 0x88A8BAF9 EQ PUSH2 0x38C JUMPI DUP1 PUSH4 0x8DA5CB5B EQ PUSH2 0x35F JUMPI DUP1 PUSH4 0x9CB7C5F4 EQ PUSH2 0x29E JUMPI DUP1 PUSH4 0xA6E0A6CE EQ PUSH2 0x263 JUMPI DUP1 PUSH4 0xADF4D59E EQ PUSH2 0x16B JUMPI DUP1 PUSH4 0xB036FE7E EQ PUSH2 0x148 JUMPI PUSH4 0xC2EAD131 EQ PUSH2 0xDE JUMPI PUSH1 0x0 DUP1 REVERT JUMPDEST CALLVALUE PUSH2 0x144 JUMPI PUSH1 0x20 CALLDATASIZE PUSH1 0x3 NOT ADD SLT PUSH2 0x144 JUMPI DUP2 PUSH1 0xA0 SWAP4 PUSH1 0xFF SWAP3 CALLDATALOAD DUP2 MSTORE PUSH1 0x2 PUSH1 0x20 MSTORE KECCAK256 DUP1 SLOAD SWAP3 PUSH1 0x2 PUSH1 0x1 DUP4 ADD SLOAD SWAP3 PUSH8 0xFFFFFFFFFFFFFFFF SWAP2 DUP3 SWAP2 ADD SLOAD SWAP4 DUP4 MLOAD SWAP7 DUP8 MSTORE PUSH1 0x1 DUP1 DUP10 SHL SUB DUP2 AND PUSH1 0x20 DUP9 ADD MSTORE DUP8 SHR AND DUP3 DUP7 ADD MSTORE DUP3 AND PUSH1 0x60 DUP6 ADD MSTORE SHR AND ISZERO ISZERO PUSH1 0x80 DUP3 ADD MSTORE RETURN JUMPDEST DUP3 DUP1 REVERT JUMPDEST POP POP CALLVALUE PUSH2 0x167 JUMPI DUP2 PUSH1 0x3 NOT CALLDATASIZE ADD SLT PUSH2 0x167 JUMPI PUSH1 0x20 SWAP1 PUSH1 0x3 SLOAD SWAP1 MLOAD SWAP1 DUP2 MSTORE RETURN JUMPDEST POP DUP1 REVERT JUMPDEST POP SWAP1 CALLVALUE PUSH2 0x144 JUMPI PUSH1 0x20 CALLDATASIZE PUSH1 0x3 NOT ADD SLT PUSH2 0x144 JUMPI DUP2 CALLDATALOAD SWAP2 DUP3 DUP5 MSTORE PUSH1 0x2 PUSH1 0x20 MSTORE DUP2 DUP5 KECCAK256 SWAP1 PUSH1 0x1 DUP3 ADD SLOAD SWAP1 PUSH8 0xFFFFFFFFFFFFFFFF DUP3 PUSH1 0xA0 SHR AND ISZERO PUSH2 0x229 JUMPI POP PUSH1 0x1 PUSH1 0x40 SHL SWAP2 PUSH1 0x2 SWAP2 PUSH2 0x1CF SWAP1 PUSH1 0x1 PUSH1 0x1 PUSH1 0xA0 SHL SUB SWAP1 DUP2 AND CALLER EQ SWAP1 DUP2 ISZERO PUSH2 0x218 JUMPI JUMPDEST POP PUSH2 0xA74 JUMP JUMPDEST ADD SWAP2 PUSH2 0x1E2 PUSH1 0xFF DUP5 SLOAD DUP1 SWAP4 SHR AND ISZERO PUSH2 0xAB1 JUMP JUMPDEST PUSH9 0xFF0000000000000000 NOT AND OR SWAP1 SSTORE PUSH32 0x49605D0360D8E90064C274BA9997A3D883D637411E4A6855594C367B31679D66 DUP3 DUP1 LOG2 DUP1 RETURN JUMPDEST SWAP1 POP PUSH1 0x1 SLOAD PUSH1 0x8 SHR AND CALLER EQ CODESIZE PUSH2 0x1C9 JUMP JUMPDEST PUSH1 0x64 SWAP1 PUSH1 0x20 DUP6 MLOAD SWAP2 PUSH3 0x461BCD PUSH1 0xE5 SHL DUP4 MSTORE DUP3 ADD MSTORE PUSH1 0x14 PUSH1 0x24 DUP3 ADD MSTORE PUSH20 0x10D85C18589A5B1A5D1E481B9BDD08199BDD5B99 PUSH1 0x62 SHL PUSH1 0x44 DUP3 ADD MSTORE REVERT JUMPDEST POP CALLVALUE PUSH2 0x144 JUMPI PUSH1 0x20 CALLDATASIZE PUSH1 0x3 NOT ADD SLT PUSH2 0x144 JUMPI CALLDATALOAD SWAP2 PUSH1 0x3 SLOAD DUP4 LT ISZERO PUSH2 0x29B JUMPI POP PUSH2 0x28D PUSH1 0x20 SWAP3 PUSH2 0x9D9 JUMP JUMPDEST SWAP1 SLOAD SWAP1 PUSH1 0x3 SHL SHR SWAP1 MLOAD SWAP1 DUP2 MSTORE RETURN JUMPDEST DUP1 REVERT JUMPDEST POP CALLVALUE PUSH2 0x144 JUMPI PUSH1 0x20 CALLDATASIZE PUSH1 0x3 NOT ADD SLT PUSH2 0x144 JUMPI DUP3 DUP3 SWAP2 PUSH1 0xA0 SWAP5 PUSH1 0x80 DUP5 MLOAD PUSH2 0x2C3 DUP2 PUSH2 0xA26 JUMP JUMPDEST DUP3 DUP2 MSTORE DUP3 PUSH1 0x20 DUP3 ADD MSTORE DUP3 DUP7 DUP3 ADD MSTORE DUP3 PUSH1 0x60 DUP3 ADD MSTORE ADD MSTORE CALLDATALOAD DUP2 MSTORE PUSH1 0x2 PUSH1 0x20 MSTORE KECCAK256 PUSH1 0x2 DUP3 MLOAD PUSH2 0x2EF DUP2 PUSH2 0xA26 JUMP JUMPDEST DUP3 SLOAD SWAP4 DUP5 DUP3 MSTORE PUSH1 0x1 DUP5 ADD SLOAD SWAP4 PUSH1 0x1 DUP1 DUP9 SHL SUB SWAP5 PUSH1 0x20 DUP5 ADD SWAP6 DUP1 DUP3 AND DUP8 MSTORE PUSH8 0xFFFFFFFFFFFFFFFF SWAP6 DUP7 SWAP4 DUP5 DUP7 DUP9 ADD SWAP5 DUP13 SHR AND DUP5 MSTORE ADD SLOAD SWAP7 PUSH1 0xFF PUSH1 0x80 PUSH1 0x60 DUP9 ADD SWAP8 DUP7 DUP12 AND DUP10 MSTORE ADD SWAP9 DUP7 SHR AND ISZERO ISZERO DUP9 MSTORE DUP5 MLOAD SWAP9 DUP10 MSTORE MLOAD AND PUSH1 0x20 DUP9 ADD MSTORE MLOAD AND SWAP1 DUP6 ADD MSTORE MLOAD AND PUSH1 0x60 DUP4 ADD MSTORE MLOAD ISZERO ISZERO PUSH1 0x80 DUP3 ADD MSTORE RETURN JUMPDEST POP POP CALLVALUE PUSH2 0x167 JUMPI DUP2 PUSH1 0x3 NOT CALLDATASIZE ADD SLT PUSH2 0x167 JUMPI PUSH1 0x1 SLOAD SWAP1 MLOAD PUSH1 0x8 SWAP2 SWAP1 SWAP2 SHR PUSH1 0x1 PUSH1 0x1 PUSH1 0xA0 SHL SUB AND DUP2 MSTORE PUSH1 0x20 SWAP1 RETURN JUMPDEST POP SWAP1 CALLVALUE PUSH2 0x144 JUMPI DUP1 PUSH1 0x3 NOT CALLDATASIZE ADD SLT PUSH2 0x144 JUMPI PUSH1 0x20 PUSH32 0xD16EF39BB9AA303CFB433F8DB1C88AC040AFE9393441412BF5B1F0F97D0104B7 SWAP2 PUSH2 0x3CA PUSH2 0x9BE JUMP JUMPDEST PUSH1 0x1 PUSH1 0x1 PUSH1 0xA0 SHL SUB AND SWAP4 PUSH1 0x24 CALLDATALOAD SWAP2 SWAP1 CALLER DUP7 EQ DUP1 ISZERO PUSH2 0x3FE JUMPI JUMPDEST PUSH2 0x3EC SWAP1 PUSH2 0xA74 JUMP JUMPDEST DUP6 DUP8 MSTORE DUP4 MSTORE DUP2 DUP2 DUP8 KECCAK256 SSTORE MLOAD SWAP1 DUP2 MSTORE LOG2 DUP1 RETURN JUMPDEST POP CALLER DUP8 MSTORE PUSH1 0x6 DUP5 MSTORE DUP2 DUP8 KECCAK256 SLOAD PUSH1 0xFF AND PUSH2 0x3E3 JUMP JUMPDEST POP POP CALLVALUE PUSH2 0x167 JUMPI DUP2 PUSH1 0x3 NOT CALLDATASIZE ADD SLT PUSH2 0x167 JUMPI PUSH1 0x20 PUSH32 0x62E78CEA01BEE320CD4E420270B5EA74000D11B0C9F74754EBDBFC544B05A258 SWAP2 PUSH1 0x1 DUP1 SLOAD PUSH2 0x461 DUP3 DUP1 PUSH1 0xA0 SHL SUB DUP3 PUSH1 0x8 SHR AND CALLER EQ PUSH2 0xAEF JUMP JUMPDEST PUSH2 0x469 PUSH2 0xCEB JUMP JUMPDEST PUSH1 0xFF NOT AND OR PUSH1 0x1 SSTORE MLOAD CALLER DUP2 MSTORE LOG1 DUP1 RETURN JUMPDEST POP SWAP2 CALLVALUE PUSH2 0x29B JUMPI PUSH1 0xE0 CALLDATASIZE PUSH1 0x3 NOT ADD SLT PUSH2 0x29B JUMPI PUSH2 0x494 PUSH2 0x9BE JUMP JUMPDEST SWAP1 PUSH1 0x64 CALLDATALOAD SWAP2 PUSH8 0xFFFFFFFFFFFFFFFF SWAP5 DUP6 DUP5 GT PUSH2 0x144 JUMPI CALLDATASIZE PUSH1 0x23 DUP6 ADD SLT ISZERO PUSH2 0x144 JUMPI DUP4 ADD CALLDATALOAD SWAP1 DUP6 DUP3 GT PUSH2 0x144 JUMPI CALLDATASIZE PUSH1 0x24 DUP4 PUSH1 0x5 SHL DUP7 ADD ADD GT PUSH2 0x144 JUMPI PUSH1 0x84 CALLDATALOAD SWAP3 PUSH1 0x1 PUSH1 0x1 PUSH1 0xA0 SHL SUB DUP5 AND DUP5 SUB PUSH2 0x29B JUMPI PUSH1 0xC4 CALLDATALOAD SWAP7 DUP8 AND DUP8 SUB PUSH2 0x29B JUMPI POP SWAP2 PUSH2 0x50F SWAP4 SWAP2 PUSH1 0x20 SWAP7 SWAP4 PUSH1 0x24 PUSH1 0xA4 CALLDATALOAD SWAP5 ADD SWAP1 PUSH1 0x44 CALLDATALOAD SWAP1 PUSH1 0x24 CALLDATALOAD SWAP1 PUSH2 0xB28 JUMP JUMPDEST SWAP1 MLOAD SWAP1 ISZERO ISZERO DUP2 MSTORE RETURN JUMPDEST POP CALLVALUE PUSH2 0x144 JUMPI PUSH1 0x20 CALLDATASIZE PUSH1 0x3 NOT ADD SLT PUSH2 0x144 JUMPI DUP2 PUSH1 0x20 SWAP4 PUSH1 0xFF SWAP3 CALLDATALOAD DUP2 MSTORE PUSH1 0x5 DUP6 MSTORE KECCAK256 SLOAD AND SWAP1 MLOAD SWAP1 ISZERO ISZERO DUP2 MSTORE RETURN JUMPDEST POP POP CALLVALUE PUSH2 0x167 JUMPI DUP2 PUSH1 0x3 NOT CALLDATASIZE ADD SLT PUSH2 0x167 JUMPI PUSH1 0x20 SWAP1 PUSH1 0xFF PUSH1 0x1 SLOAD AND SWAP1 MLOAD SWAP1 ISZERO ISZERO DUP2 MSTORE RETURN JUMPDEST POP POP CALLVALUE PUSH2 0x167 JUMPI DUP1 PUSH1 0x3 NOT CALLDATASIZE ADD SLT PUSH2 0x167 JUMPI PUSH2 0x582 PUSH2 0x9BE JUMP JUMPDEST SWAP1 PUSH1 0x24 CALLDATALOAD SWAP2 DUP3 ISZERO ISZERO DUP1 SWAP4 SUB PUSH2 0x5C5 JUMPI PUSH1 0x1 DUP1 PUSH1 0xA0 SHL SUB SWAP1 PUSH2 0x5AB DUP3 PUSH1 0x1 SLOAD PUSH1 0x8 SHR AND CALLER EQ PUSH2 0xAEF JUMP JUMPDEST AND DUP4 MSTORE PUSH1 0x6 PUSH1 0x20 MSTORE DUP3 KECCAK256 SWAP1 PUSH1 0xFF DUP1 NOT DUP4 SLOAD AND SWAP2 AND OR SWAP1 SSTORE DUP1 RETURN JUMPDEST DUP4 DUP1 REVERT JUMPDEST POP CALLVALUE PUSH2 0x144 JUMPI DUP3 PUSH1 0x3 NOT CALLDATASIZE ADD SLT PUSH2 0x144 JUMPI PUSH1 0x1 SLOAD SWAP1 PUSH2 0x5F6 CALLER PUSH1 0x8 DUP5 SWAP1 SHR PUSH1 0x1 PUSH1 0x1 PUSH1 0xA0 SHL SUB AND EQ PUSH2 0xAEF JUMP JUMPDEST PUSH1 0xFF DUP3 AND ISZERO PUSH2 0x634 JUMPI POP PUSH1 0xFF NOT AND PUSH1 0x1 SSTORE MLOAD CALLER DUP2 MSTORE PUSH32 0x5DB9EE0A495BF2E6FF9C91A7834C1BA4FDD244A5E8AA4E537BD38AEAE4B073AA SWAP1 PUSH1 0x20 SWAP1 LOG1 DUP1 RETURN JUMPDEST PUSH1 0x64 SWAP1 PUSH1 0x20 DUP5 MLOAD SWAP2 PUSH3 0x461BCD PUSH1 0xE5 SHL DUP4 MSTORE DUP3 ADD MSTORE PUSH1 0x14 PUSH1 0x24 DUP3 ADD MSTORE PUSH20 0x14185D5CD8589B194E881B9BDD081C185D5CD959 PUSH1 0x62 SHL PUSH1 0x44 DUP3 ADD MSTORE REVERT JUMPDEST POP CALLVALUE PUSH2 0x144 JUMPI DUP2 PUSH1 0x3 NOT CALLDATASIZE ADD SLT PUSH2 0x144 JUMPI CALLDATALOAD SWAP1 PUSH1 0x24 CALLDATALOAD DUP4 MSTORE PUSH1 0x2 PUSH1 0x20 MSTORE PUSH2 0x6AD PUSH1 0x1 DUP1 PUSH1 0xA0 SHL SUB DUP1 PUSH1 0x1 DUP5 DUP8 KECCAK256 ADD SLOAD AND CALLER EQ SWAP1 DUP2 ISZERO PUSH2 0x218 JUMPI POP PUSH2 0xA74 JUMP JUMPDEST DUP2 DUP4 MSTORE PUSH1 0x5 PUSH1 0x20 MSTORE PUSH2 0x6C5 PUSH1 0xFF DUP3 DUP6 KECCAK256 SLOAD AND ISZERO PUSH2 0xAB1 JUMP JUMPDEST DUP2 DUP4 MSTORE PUSH1 0x5 PUSH1 0x20 MSTORE DUP3 KECCAK256 DUP1 SLOAD PUSH1 0xFF NOT AND PUSH1 0x1 OR SWAP1 SSTORE PUSH32 0xBC7909D45AB794EE63122077124D9CE05BEA1DB0768BE90C77D2EDDBDF1EEF4F DUP3 DUP1 LOG2 DUP1 RETURN JUMPDEST POP POP CALLVALUE PUSH2 0x167 JUMPI PUSH1 0x20 CALLDATASIZE PUSH1 0x3 NOT ADD SLT PUSH2 0x167 JUMPI PUSH1 0x20 SWAP2 PUSH1 0xFF SWAP1 DUP3 SWAP1 PUSH1 0x1 PUSH1 0x1 PUSH1 0xA0 SHL SUB PUSH2 0x72C PUSH2 0x9BE JUMP JUMPDEST AND DUP2 MSTORE PUSH1 0x6 DUP6 MSTORE KECCAK256 SLOAD AND SWAP1 MLOAD SWAP1 ISZERO ISZERO DUP2 MSTORE RETURN JUMPDEST POP SWAP1 CALLVALUE PUSH2 0x144 JUMPI PUSH1 0x60 CALLDATASIZE PUSH1 0x3 NOT ADD SLT PUSH2 0x144 JUMPI DUP2 CALLDATALOAD SWAP2 PUSH1 0x24 DUP1 CALLDATALOAD SWAP3 PUSH8 0xFFFFFFFFFFFFFFFF SWAP1 DUP2 DUP6 GT PUSH2 0x986 JUMPI CALLDATASIZE PUSH1 0x23 DUP7 ADD SLT ISZERO PUSH2 0x986 JUMPI DUP5 DUP5 ADD CALLDATALOAD SWAP2 DUP1 DUP4 GT PUSH2 0x982 JUMPI CALLDATASIZE DUP5 DUP5 DUP9 ADD ADD GT PUSH2 0x982 JUMPI PUSH1 0x44 CALLDATALOAD SWAP3 DUP2 DUP5 AND DUP1 SWAP5 SUB PUSH2 0x97E JUMPI PUSH2 0x7A3 PUSH2 0xCEB JUMP JUMPDEST DUP8 DUP10 MSTORE PUSH1 0x20 SWAP7 PUSH1 0x2 DUP9 MSTORE DUP3 PUSH1 0x1 DUP6 DUP13 KECCAK256 ADD SLOAD PUSH1 0xA0 SHR AND PUSH2 0x948 JUMPI DUP2 ISZERO PUSH2 0x914 JUMPI DUP4 MLOAD DUP3 DUP2 SWAP4 DUP9 DUP12 DUP5 ADD SWAP5 ADD DUP5 CALLDATACOPY DUP2 ADD DUP10 DUP2 ADD DUP13 SWAP1 MSTORE SUB DUP1 DUP4 MSTORE PUSH1 0x3F ADD PUSH1 0x1F NOT AND DUP3 ADD SWAP2 DUP4 DUP4 GT DUP2 DUP5 LT OR PUSH2 0x902 JUMPI DUP3 DUP12 DUP7 SWAP6 SWAP4 PUSH1 0x2 SWAP4 PUSH9 0xFF0000000000000000 SWAP7 DUP15 SWAP10 MSTORE MLOAD SWAP1 KECCAK256 SWAP11 PUSH2 0x814 DUP4 PUSH2 0xA26 JUMP JUMPDEST DUP12 DUP4 MSTORE DUP7 DUP2 DUP5 ADD SWAP3 CALLER DUP5 MSTORE DUP6 DUP3 DUP7 ADD SWAP4 DUP9 TIMESTAMP AND DUP6 MSTORE PUSH1 0x60 DUP8 ADD SWAP13 DUP14 MSTORE PUSH1 0x80 DUP8 ADD SWAP12 DUP4 DUP14 MSTORE DUP4 MSTORE MSTORE KECCAK256 SWAP3 MLOAD DUP4 SSTORE PUSH1 0x1 DUP4 ADD SWAP2 PUSH1 0x1 DUP1 PUSH1 0xA0 SHL SUB SWAP1 MLOAD AND DUP3 SLOAD SWAP2 PUSH8 0xFFFFFFFFFFFFFFFF PUSH1 0xA0 SHL SWAP1 MLOAD PUSH1 0xA0 SHL AND SWAP2 PUSH4 0xFFFFFFFF PUSH1 0xE0 SHL AND OR OR SWAP1 SSTORE ADD SWAP5 MLOAD AND SWAP2 DUP5 SLOAD SWAP4 MLOAD ISZERO ISZERO SWAP1 SHL AND SWAP2 PUSH9 0xFFFFFFFFFFFFFFFFFF NOT AND OR OR SWAP1 SSTORE PUSH1 0x3 SLOAD SWAP2 PUSH1 0x1 PUSH1 0x40 SHL DUP4 LT ISZERO PUSH2 0x8F1 JUMPI POP POP DUP1 PUSH1 0x1 PUSH2 0x8B3 SWAP3 ADD PUSH1 0x3 SSTORE PUSH2 0x9D9 JUMP JUMPDEST DUP2 SLOAD SWAP1 PUSH1 0x3 SHL SWAP1 DUP5 DUP3 SHL SWAP2 PUSH1 0x0 NOT SWAP1 SHL NOT AND OR SWAP1 SSTORE CALLER SWAP2 PUSH32 0xF29A7A8B7E17110FEB5338446FBFDCB1F7370015C5A13BFDF070CCBF6B5E2DFE DUP5 DUP1 LOG4 DUP1 RETURN JUMPDEST PUSH4 0x4E487B71 PUSH1 0xE0 SHL DUP7 MSTORE PUSH1 0x41 SWAP1 MSTORE DUP5 REVERT JUMPDEST PUSH4 0x4E487B71 PUSH1 0xE0 SHL DUP12 MSTORE PUSH1 0x41 DUP9 MSTORE DUP7 DUP12 REVERT JUMPDEST DUP4 MLOAD PUSH3 0x461BCD PUSH1 0xE5 SHL DUP2 MSTORE DUP1 DUP9 ADD DUP10 SWAP1 MSTORE PUSH1 0xF DUP2 DUP9 ADD MSTORE PUSH15 0x1058DD1A5BDB881C995C5D5A5C9959 PUSH1 0x8A SHL PUSH1 0x44 DUP3 ADD MSTORE PUSH1 0x64 SWAP1 REVERT JUMPDEST DUP4 MLOAD PUSH3 0x461BCD PUSH1 0xE5 SHL DUP2 MSTORE DUP1 DUP9 ADD DUP10 SWAP1 MSTORE PUSH1 0x11 DUP2 DUP9 ADD MSTORE PUSH17 0x4361706162696C69747920657869737473 PUSH1 0x78 SHL PUSH1 0x44 DUP3 ADD MSTORE PUSH1 0x64 SWAP1 REVERT JUMPDEST DUP9 DUP1 REVERT JUMPDEST DUP8 DUP1 REVERT JUMPDEST DUP7 DUP1 REVERT JUMPDEST SWAP3 SWAP2 SWAP1 POP CALLVALUE PUSH2 0x5C5 JUMPI PUSH1 0x20 CALLDATASIZE PUSH1 0x3 NOT ADD SLT PUSH2 0x5C5 JUMPI PUSH1 0x20 SWAP4 SWAP1 PUSH1 0x1 PUSH1 0x1 PUSH1 0xA0 SHL SUB PUSH2 0x9B3 PUSH2 0x9BE JUMP JUMPDEST AND DUP3 MSTORE DUP5 MSTORE KECCAK256 SLOAD DUP2 MSTORE RETURN JUMPDEST PUSH1 0x4 CALLDATALOAD SWAP1 PUSH1 0x1 PUSH1 0x1 PUSH1 0xA0 SHL SUB DUP3 AND DUP3 SUB PUSH2 0x9D4 JUMPI JUMP JUMPDEST PUSH1 0x0 DUP1 REVERT JUMPDEST PUSH1 0x3 SLOAD DUP2 LT ISZERO PUSH2 0xA10 JUMPI PUSH1 0x3 PUSH1 0x0 MSTORE PUSH32 0xC2575A0E9E593C00F959F8C92F12DB2869C3395A3B0502D05E2516446F71F85B ADD SWAP1 PUSH1 0x0 SWAP1 JUMP JUMPDEST PUSH4 0x4E487B71 PUSH1 0xE0 SHL PUSH1 0x0 MSTORE PUSH1 0x32 PUSH1 0x4 MSTORE PUSH1 0x24 PUSH1 0x0 REVERT JUMPDEST PUSH1 0xA0 DUP2 ADD SWAP1 DUP2 LT PUSH8 0xFFFFFFFFFFFFFFFF DUP3 GT OR PUSH2 0xA42 JUMPI PUSH1 0x40 MSTORE JUMP JUMPDEST PUSH4 0x4E487B71 PUSH1 0xE0 SHL PUSH1 0x0 MSTORE PUSH1 0x41 PUSH1 0x4 MSTORE PUSH1 0x24 PUSH1 0x0 REVERT JUMPDEST PUSH1 0x60 DUP2 ADD SWAP1 DUP2 LT PUSH8 0xFFFFFFFFFFFFFFFF DUP3 GT OR PUSH2 0xA42 JUMPI PUSH1 0x40 MSTORE JUMP JUMPDEST ISZERO PUSH2 0xA7B JUMPI JUMP JUMPDEST PUSH1 0x40 MLOAD PUSH3 0x461BCD PUSH1 0xE5 SHL DUP2 MSTORE PUSH1 0x20 PUSH1 0x4 DUP3 ADD MSTORE PUSH1 0xE PUSH1 0x24 DUP3 ADD MSTORE PUSH14 0x139BDD08185D5D1A1BDC9A5E9959 PUSH1 0x92 SHL PUSH1 0x44 DUP3 ADD MSTORE PUSH1 0x64 SWAP1 REVERT JUMPDEST ISZERO PUSH2 0xAB8 JUMPI JUMP JUMPDEST PUSH1 0x40 MLOAD PUSH3 0x461BCD PUSH1 0xE5 SHL DUP2 MSTORE PUSH1 0x20 PUSH1 0x4 DUP3 ADD MSTORE PUSH1 0xF PUSH1 0x24 DUP3 ADD MSTORE PUSH15 0x105B1C9958591E481C995D9BDAD959 PUSH1 0x8A SHL PUSH1 0x44 DUP3 ADD MSTORE PUSH1 0x64 SWAP1 REVERT JUMPDEST ISZERO PUSH2 0xAF6 JUMPI JUMP JUMPDEST PUSH1 0x40 MLOAD PUSH3 0x461BCD PUSH1 0xE5 SHL DUP2 MSTORE PUSH1 0x20 PUSH1 0x4 DUP3 ADD MSTORE PUSH1 0xA PUSH1 0x24 DUP3 ADD MSTORE PUSH10 0x27B7363C9037BBB732B9 PUSH1 0xB1 SHL PUSH1 0x44 DUP3 ADD MSTORE PUSH1 0x64 SWAP1 REVERT JUMPDEST SWAP6 SWAP1 SWAP3 SWAP7 SWAP5 SWAP2 SWAP7 PUSH1 0x0 SWAP2 DUP5 DUP4 MSTORE PUSH1 0x20 SWAP5 PUSH1 0x2 DUP7 MSTORE PUSH1 0x40 SWAP5 DUP6 DUP6 KECCAK256 SWAP9 PUSH1 0x2 DUP11 ADD SLOAD SWAP11 PUSH1 0xFF DUP13 DUP10 SHR AND PUSH2 0xCD1 JUMPI PUSH8 0xFFFFFFFFFFFFFFFF DUP1 SWAP13 AND DUP1 ISZERO ISZERO SWAP1 DUP2 PUSH2 0xCE1 JUMPI JUMPDEST POP PUSH2 0xCD1 JUMPI PUSH1 0x1 SWAP11 DUP12 ADD SLOAD PUSH1 0x1 PUSH1 0x1 PUSH1 0xA0 SHL SUB SWAP4 DUP5 AND SWAP4 SWAP2 SWAP1 DUP3 AND DUP5 SWAP1 SUB PUSH2 0xCC0 JUMPI SWAP1 DUP13 SWAP3 SWAP2 DUP10 MLOAD SWAP5 DUP12 DUP7 ADD SWAP7 DUP8 MSTORE DUP11 DUP7 ADD MSTORE AND SWAP5 DUP6 PUSH1 0x60 DUP6 ADD MSTORE PUSH1 0x80 DUP5 ADD MSTORE AND SWAP10 DUP11 PUSH1 0xA0 DUP4 ADD MSTORE PUSH1 0xA0 DUP3 MSTORE PUSH1 0xC0 DUP3 ADD SWAP1 DUP3 DUP3 LT SWAP1 DUP3 GT OR PUSH2 0xCAC JUMPI DUP7 MSTORE MLOAD SWAP1 KECCAK256 DUP10 SWAP1 SUB PUSH2 0xC89 JUMPI DUP3 MSTORE PUSH1 0x4 DUP5 MSTORE DUP3 DUP3 KECCAK256 SLOAD SWAP8 DUP9 ISZERO PUSH2 0xC89 JUMPI DUP1 DUP4 MSTORE PUSH1 0x5 SWAP8 PUSH1 0x5 DUP7 MSTORE PUSH1 0xFF DUP6 DUP6 KECCAK256 SLOAD AND PUSH2 0xC9F JUMPI DUP1 ISZERO ISZERO SWAP1 DUP2 PUSH2 0xC95 JUMPI JUMPDEST POP PUSH2 0xC89 JUMPI SWAP7 SWAP6 SWAP5 SWAP4 SWAP3 SWAP2 SWAP1 DUP2 SWAP7 JUMPDEST DUP6 DUP9 LT PUSH2 0xC23 JUMPI POP POP POP POP POP POP POP POP EQ SWAP1 JUMP JUMPDEST SWAP1 SWAP2 SWAP3 SWAP4 SWAP5 SWAP6 DUP8 SWAP9 DUP2 SWAP9 DUP4 SHL DUP5 ADD CALLDATALOAD DUP1 DUP3 LT PUSH1 0x0 EQ PUSH2 0xC67 JUMPI DUP7 MLOAD SWAP1 DUP9 DUP3 ADD SWAP3 DUP4 MSTORE DUP8 DUP3 ADD MSTORE DUP7 DUP2 MSTORE PUSH2 0xC55 DUP2 PUSH2 0xA58 JUMP JUMPDEST MLOAD SWAP1 KECCAK256 JUMPDEST SWAP9 ADD SWAP7 SWAP6 SWAP5 SWAP4 SWAP3 SWAP2 SWAP1 PUSH2 0xC10 JUMP JUMPDEST SWAP1 DUP7 MLOAD SWAP1 DUP9 DUP3 ADD SWAP3 DUP4 MSTORE DUP8 DUP3 ADD MSTORE DUP7 DUP2 MSTORE PUSH2 0xC81 DUP2 PUSH2 0xA58 JUMP JUMPDEST MLOAD SWAP1 KECCAK256 PUSH2 0xC59 JUMP JUMPDEST POP POP SWAP6 POP POP POP POP POP POP SWAP1 JUMP JUMPDEST SWAP1 POP TIMESTAMP GT CODESIZE PUSH2 0xC01 JUMP JUMPDEST POP POP POP SWAP6 POP POP POP POP POP POP SWAP1 JUMP JUMPDEST PUSH4 0x4E487B71 PUSH1 0xE0 SHL DUP7 MSTORE PUSH1 0x41 PUSH1 0x4 MSTORE PUSH1 0x24 DUP7 REVERT JUMPDEST POP POP POP POP POP POP POP SWAP6 POP POP POP POP POP POP SWAP1 JUMP JUMPDEST POP POP POP POP POP POP SWAP6 POP POP POP POP POP POP SWAP1 JUMP JUMPDEST SWAP1 POP TIMESTAMP GT CODESIZE PUSH2 0xB69 JUMP JUMPDEST PUSH1 0xFF PUSH1 0x1 SLOAD AND PUSH2 0xCF7 JUMPI JUMP JUMPDEST PUSH1 0x40 MLOAD PUSH3 0x461BCD PUSH1 0xE5 SHL DUP2 MSTORE PUSH1 0x20 PUSH1 0x4 DUP3 ADD MSTORE PUSH1 0x10 PUSH1 0x24 DUP3 ADD MSTORE PUSH16 0x14185D5CD8589B194E881C185D5CD959 PUSH1 0x82 SHL PUSH1 0x44 DUP3 ADD MSTORE PUSH1 0x64 SWAP1 REVERT INVALID LOG2 PUSH5 0x6970667358 0x22 SLT KECCAK256 0xAD CALLCODE PREVRANDAO 0xC1 0x1F 0xAB SWAP2 0x4B PUSH28 0x183D66372D8DF0F9A0530C647A0C4E812C7F1B8BC9847A64736F6C63 NUMBER STOP ADDMOD XOR STOP CALLER "},"methodIdentifiers":{"capabilities(bytes32)":"c2ead131","capabilityList(uint256)":"a6e0a6ce","getCapability(bytes32)":"9cb7c5f4","getCapabilityCount()":"b036fe7e","grantRoots(address)":"1656cd7e","owner()":"8da5cb5b","pause()":"8456cb59","paused()":"5c975abb","registerCapability(bytes32,string,uint64)":"24354992","revokeCapability(bytes32)":"adf4d59e","revokeGrant(bytes32,bytes32)":"3a7f6cc7","revokedGrants(bytes32)":"6f4907a6","rootUpdaters(address)":"372b102d","setRootUpdater(address,bool)":"53739410","unpause()":"3f4ba83a","updateGrantRoot(address,bytes32)":"88a8baf9","verifyCapability(address,bytes32,bytes32,bytes32[],address,bytes32,uint64)":"7b23648a"}}}}}