{"src/AgentWalletFactory.sol":{"AgentWalletFactory":{"abi":[{"inputs":[{"internalType":"address","name":"_implementation","type":"address"},{"internalType":"address","name":"_sessionManager","type":"address"},{"internalType":"address","name":"_entryPoint","type":"address"}],"stateMutability":"nonpayable","type":"constructor"},{"anonymous":false,"inputs":[{"indexed":true,"internalType":"address","name":"wallet","type":"address"},{"indexed":true,"internalType":"address","name":"owner","type":"address"},{"indexed":true,"internalType":"bytes32","name":"salt","type":"bytes32"},{"indexed":false,"internalType":"address","name":"entryPoint","type":"address"}],"name":"WalletCreated","type":"event"},{"inputs":[{"internalType":"address","name":"owner","type":"address"}],"name":"createWallet","outputs":[{"internalType":"address","name":"wallet","type":"address"}],"stateMutability":"nonpayable","type":"function"},{"inputs":[{"internalType":"address","name":"owner","type":"address"},{"internalType":"bytes32","name":"salt","type":"bytes32"}],"name":"createWallet","outputs":[{"internalType":"address","name":"wallet","type":"address"}],"stateMutability":"nonpayable","type":"function"},{"inputs":[],"name":"entryPoint","outputs":[{"internalType":"address","name":"","type":"address"}],"stateMutability":"view","type":"function"},{"inputs":[{"internalType":"bytes32","name":"salt","type":"bytes32"}],"name":"getAddress","outputs":[{"internalType":"address","name":"wallet","type":"address"}],"stateMutability":"view","type":"function"},{"inputs":[],"name":"implementation","outputs":[{"internalType":"address","name":"","type":"address"}],"stateMutability":"view","type":"function"},{"inputs":[],"name":"sessionManager","outputs":[{"internalType":"address","name":"","type":"address"}],"stateMutability":"view","type":"function"},{"inputs":[],"name":"walletCount","outputs":[{"internalType":"uint256","name":"","type":"uint256"}],"stateMutability":"view","type":"function"}],"evm":{"bytecode":{"linkReferences":{},"object":"60c0346101a557601f6106f838819003918201601f191683019291906001600160401b038411838510176101aa5781606092849260409687528339810103126101a55761004b816101c0565b906100638361005c602084016101c0565b92016101c0565b916001600160a01b03918282161561016157821691821561011d578316156100d957608052600080546001600160a01b03191691909117905560a0525161052390816101d582396080518181816101da0152818161024501526102f1015260a05181818160e30152818161035001526103fc0152f35b835162461bcd60e51b815260206004820152601360248201527f496e76616c696420656e74727920706f696e74000000000000000000000000006044820152606490fd5b845162461bcd60e51b815260206004820152601760248201527f496e76616c69642073657373696f6e206d616e616765720000000000000000006044820152606490fd5b845162461bcd60e51b815260206004820152601660248201527f496e76616c696420696d706c656d656e746174696f6e000000000000000000006044820152606490fd5b600080fd5b634e487b7160e01b600052604160045260246000fd5b51906001600160a01b03821682036101a55756fe604060808152600436101561001357600080fd5b600090813560e01c806321f8a7211461022757806329b57c69146102095780635c60da1b146101c6578063b054a9e814610112578063b0d691fe146100cf578063b20ca818146100965763b7b13f791461006c57600080fd5b34610092578160031936011261009257905490516001600160a01b039091168152602090f35b5080fd5b50346100925780600319360112610092576020906100be6100b5610269565b602435906102dc565b90516001600160a01b039091168152f35b5034610092578160031936011261009257517f00000000000000000000000000000000000000000000000000000000000000006001600160a01b03168152602090f35b50346100925760203660031901126100925761012c610269565b60015482516001600160a01b03808416602083019081523383870152466060840152608080840185905283529093929160a0810167ffffffffffffffff8111828210176101b257865251902094600019821461019e575093610196916001602096016001556102dc565b915191168152f35b634e487b7160e01b81526011600452602490fd5b634e487b7160e01b88526041600452602488fd5b5034610092578160031936011261009257517f00000000000000000000000000000000000000000000000000000000000000006001600160a01b03168152602090f35b50346100925781600319360112610092576020906001549051908152f35b5034610092576020366003190112610092576020906100be306004357f0000000000000000000000000000000000000000000000000000000000000000610284565b600435906001600160a01b038216820361027f57565b600080fd5b916043916055936040519260388401526f5af43d82803e903d91602b57fd5bf3ff60248401526014830152733d602d80600a3d3981f3363d3d373d3d3d363d73825260588201526037600c8201206078820152012090565b6001600160a01b03929190831680156104b8577f00000000000000000000000000000000000000000000000000000000000000009361031c308487610284565b94853b15610378575b507f1f7761c69c1e6ed50fd7b87c3be8af863a3977e31508a30bcb6ff930731d5dac602060405192807f0000000000000000000000000000000000000000000000000000000000000000168452871692a4565b94506e5af43d82803e903d91602b57fd5bf3600095763d602d80600a3d3981f3363d3d373d3d3d363d7300000062ffffff8260881c1617875260781b17602052826037600987f594818616958615610473579582825416813b1561046f57829160648392604051958693849263c0c53b8b60e01b84528a60048501526024840152887f00000000000000000000000000000000000000000000000000000000000000001660448401525af1801561046257610434575b50610325565b67ffffffffffffffff821161044e5750604052388061042e565b634e487b7160e01b81526041600452602490fd5b50604051903d90823e3d90fd5b8280fd5b60405162461bcd60e51b815260206004820152601760248201527f455243313136373a2063726561746532206661696c65640000000000000000006044820152606490fd5b60405162461bcd60e51b815260206004820152600d60248201526c24b73b30b634b21037bbb732b960991b6044820152606490fdfea26469706673582212203fee8fdbf547a99d4955ac833ca065445776748dc03cebaa97ec77836c5c9b3864736f6c63430008180033","opcodes":"PUSH1 0xC0 CALLVALUE PUSH2 0x1A5 JUMPI PUSH1 0x1F PUSH2 0x6F8 CODESIZE DUP2 SWAP1 SUB SWAP2 DUP3 ADD PUSH1 0x1F NOT AND DUP4 ADD SWAP3 SWAP2 SWAP1 PUSH1 0x1 PUSH1 0x1 PUSH1 0x40 SHL SUB DUP5 GT DUP4 DUP6 LT OR PUSH2 0x1AA JUMPI DUP2 PUSH1 0x60 SWAP3 DUP5 SWAP3 PUSH1 0x40 SWAP7 DUP8 MSTORE DUP4 CODECOPY DUP2 ADD SUB SLT PUSH2 0x1A5 JUMPI PUSH2 0x4B DUP2 PUSH2 0x1C0 JUMP JUMPDEST SWAP1 PUSH2 0x63 DUP4 PUSH2 0x5C PUSH1 0x20 DUP5 ADD PUSH2 0x1C0 JUMP JUMPDEST SWAP3 ADD PUSH2 0x1C0 JUMP JUMPDEST SWAP2 PUSH1 0x1 PUSH1 0x1 PUSH1 0xA0 SHL SUB SWAP2 DUP3 DUP3 AND ISZERO PUSH2 0x161 JUMPI DUP3 AND SWAP2 DUP3 ISZERO PUSH2 0x11D JUMPI DUP4 AND ISZERO PUSH2 0xD9 JUMPI PUSH1 0x80 MSTORE PUSH1 0x0 DUP1 SLOAD PUSH1 0x1 PUSH1 0x1 PUSH1 0xA0 SHL SUB NOT AND SWAP2 SWAP1 SWAP2 OR SWAP1 SSTORE PUSH1 0xA0 MSTORE MLOAD PUSH2 0x523 SWAP1 DUP2 PUSH2 0x1D5 DUP3 CODECOPY PUSH1 0x80 MLOAD DUP2 DUP2 DUP2 PUSH2 0x1DA ADD MSTORE DUP2 DUP2 PUSH2 0x245 ADD MSTORE PUSH2 0x2F1 ADD MSTORE PUSH1 0xA0 MLOAD DUP2 DUP2 DUP2 PUSH1 0xE3 ADD MSTORE DUP2 DUP2 PUSH2 0x350 ADD MSTORE PUSH2 0x3FC ADD MSTORE RETURN JUMPDEST DUP4 MLOAD PUSH3 0x461BCD PUSH1 0xE5 SHL DUP2 MSTORE PUSH1 0x20 PUSH1 0x4 DUP3 ADD MSTORE PUSH1 0x13 PUSH1 0x24 DUP3 ADD MSTORE PUSH32 0x496E76616C696420656E74727920706F696E7400000000000000000000000000 PUSH1 0x44 DUP3 ADD MSTORE PUSH1 0x64 SWAP1 REVERT JUMPDEST DUP5 MLOAD PUSH3 0x461BCD PUSH1 0xE5 SHL DUP2 MSTORE PUSH1 0x20 PUSH1 0x4 DUP3 ADD MSTORE PUSH1 0x17 PUSH1 0x24 DUP3 ADD MSTORE PUSH32 0x496E76616C69642073657373696F6E206D616E61676572000000000000000000 PUSH1 0x44 DUP3 ADD MSTORE PUSH1 0x64 SWAP1 REVERT JUMPDEST DUP5 MLOAD PUSH3 0x461BCD PUSH1 0xE5 SHL DUP2 MSTORE PUSH1 0x20 PUSH1 0x4 DUP3 ADD MSTORE PUSH1 0x16 PUSH1 0x24 DUP3 ADD MSTORE PUSH32 0x496E76616C696420696D706C656D656E746174696F6E00000000000000000000 PUSH1 0x44 DUP3 ADD MSTORE PUSH1 0x64 SWAP1 REVERT JUMPDEST PUSH1 0x0 DUP1 REVERT JUMPDEST PUSH4 0x4E487B71 PUSH1 0xE0 SHL PUSH1 0x0 MSTORE PUSH1 0x41 PUSH1 0x4 MSTORE PUSH1 0x24 PUSH1 0x0 REVERT JUMPDEST MLOAD SWAP1 PUSH1 0x1 PUSH1 0x1 PUSH1 0xA0 SHL SUB DUP3 AND DUP3 SUB PUSH2 0x1A5 JUMPI JUMP INVALID PUSH1 0x40 PUSH1 0x80 DUP2 MSTORE PUSH1 0x4 CALLDATASIZE LT ISZERO PUSH2 0x13 JUMPI PUSH1 0x0 DUP1 REVERT JUMPDEST PUSH1 0x0 SWAP1 DUP2 CALLDATALOAD PUSH1 0xE0 SHR DUP1 PUSH4 0x21F8A721 EQ PUSH2 0x227 JUMPI DUP1 PUSH4 0x29B57C69 EQ PUSH2 0x209 JUMPI DUP1 PUSH4 0x5C60DA1B EQ PUSH2 0x1C6 JUMPI DUP1 PUSH4 0xB054A9E8 EQ PUSH2 0x112 JUMPI DUP1 PUSH4 0xB0D691FE EQ PUSH2 0xCF JUMPI DUP1 PUSH4 0xB20CA818 EQ PUSH2 0x96 JUMPI PUSH4 0xB7B13F79 EQ PUSH2 0x6C JUMPI PUSH1 0x0 DUP1 REVERT JUMPDEST CALLVALUE PUSH2 0x92 JUMPI DUP2 PUSH1 0x3 NOT CALLDATASIZE ADD SLT PUSH2 0x92 JUMPI SWAP1 SLOAD SWAP1 MLOAD PUSH1 0x1 PUSH1 0x1 PUSH1 0xA0 SHL SUB SWAP1 SWAP2 AND DUP2 MSTORE PUSH1 0x20 SWAP1 RETURN JUMPDEST POP DUP1 REVERT JUMPDEST POP CALLVALUE PUSH2 0x92 JUMPI DUP1 PUSH1 0x3 NOT CALLDATASIZE ADD SLT PUSH2 0x92 JUMPI PUSH1 0x20 SWAP1 PUSH2 0xBE PUSH2 0xB5 PUSH2 0x269 JUMP JUMPDEST PUSH1 0x24 CALLDATALOAD SWAP1 PUSH2 0x2DC JUMP JUMPDEST SWAP1 MLOAD PUSH1 0x1 PUSH1 0x1 PUSH1 0xA0 SHL SUB SWAP1 SWAP2 AND DUP2 MSTORE RETURN JUMPDEST POP CALLVALUE PUSH2 0x92 JUMPI DUP2 PUSH1 0x3 NOT CALLDATASIZE ADD SLT PUSH2 0x92 JUMPI MLOAD PUSH32 0x0 PUSH1 0x1 PUSH1 0x1 PUSH1 0xA0 SHL SUB AND DUP2 MSTORE PUSH1 0x20 SWAP1 RETURN JUMPDEST POP CALLVALUE PUSH2 0x92 JUMPI PUSH1 0x20 CALLDATASIZE PUSH1 0x3 NOT ADD SLT PUSH2 0x92 JUMPI PUSH2 0x12C PUSH2 0x269 JUMP JUMPDEST PUSH1 0x1 SLOAD DUP3 MLOAD PUSH1 0x1 PUSH1 0x1 PUSH1 0xA0 SHL SUB DUP1 DUP5 AND PUSH1 0x20 DUP4 ADD SWAP1 DUP2 MSTORE CALLER DUP4 DUP8 ADD MSTORE CHAINID PUSH1 0x60 DUP5 ADD MSTORE PUSH1 0x80 DUP1 DUP5 ADD DUP6 SWAP1 MSTORE DUP4 MSTORE SWAP1 SWAP4 SWAP3 SWAP2 PUSH1 0xA0 DUP2 ADD PUSH8 0xFFFFFFFFFFFFFFFF DUP2 GT DUP3 DUP3 LT OR PUSH2 0x1B2 JUMPI DUP7 MSTORE MLOAD SWAP1 KECCAK256 SWAP5 PUSH1 0x0 NOT DUP3 EQ PUSH2 0x19E JUMPI POP SWAP4 PUSH2 0x196 SWAP2 PUSH1 0x1 PUSH1 0x20 SWAP7 ADD PUSH1 0x1 SSTORE PUSH2 0x2DC JUMP JUMPDEST SWAP2 MLOAD SWAP2 AND DUP2 MSTORE RETURN JUMPDEST PUSH4 0x4E487B71 PUSH1 0xE0 SHL DUP2 MSTORE PUSH1 0x11 PUSH1 0x4 MSTORE PUSH1 0x24 SWAP1 REVERT JUMPDEST PUSH4 0x4E487B71 PUSH1 0xE0 SHL DUP9 MSTORE PUSH1 0x41 PUSH1 0x4 MSTORE PUSH1 0x24 DUP9 REVERT JUMPDEST POP CALLVALUE PUSH2 0x92 JUMPI DUP2 PUSH1 0x3 NOT CALLDATASIZE ADD SLT PUSH2 0x92 JUMPI MLOAD PUSH32 0x0 PUSH1 0x1 PUSH1 0x1 PUSH1 0xA0 SHL SUB AND DUP2 MSTORE PUSH1 0x20 SWAP1 RETURN JUMPDEST POP CALLVALUE PUSH2 0x92 JUMPI DUP2 PUSH1 0x3 NOT CALLDATASIZE ADD SLT PUSH2 0x92 JUMPI PUSH1 0x20 SWAP1 PUSH1 0x1 SLOAD SWAP1 MLOAD SWAP1 DUP2 MSTORE RETURN JUMPDEST POP CALLVALUE PUSH2 0x92 JUMPI PUSH1 0x20 CALLDATASIZE PUSH1 0x3 NOT ADD SLT PUSH2 0x92 JUMPI PUSH1 0x20 SWAP1 PUSH2 0xBE ADDRESS PUSH1 0x4 CALLDATALOAD PUSH32 0x0 PUSH2 0x284 JUMP JUMPDEST PUSH1 0x4 CALLDATALOAD SWAP1 PUSH1 0x1 PUSH1 0x1 PUSH1 0xA0 SHL SUB DUP3 AND DUP3 SUB PUSH2 0x27F JUMPI JUMP JUMPDEST PUSH1 0x0 DUP1 REVERT JUMPDEST SWAP2 PUSH1 0x43 SWAP2 PUSH1 0x55 SWAP4 PUSH1 0x40 MLOAD SWAP3 PUSH1 0x38 DUP5 ADD MSTORE PUSH16 0x5AF43D82803E903D91602B57FD5BF3FF PUSH1 0x24 DUP5 ADD MSTORE PUSH1 0x14 DUP4 ADD MSTORE PUSH20 0x3D602D80600A3D3981F3363D3D373D3D3D363D73 DUP3 MSTORE PUSH1 0x58 DUP3 ADD MSTORE PUSH1 0x37 PUSH1 0xC DUP3 ADD KECCAK256 PUSH1 0x78 DUP3 ADD MSTORE ADD KECCAK256 SWAP1 JUMP JUMPDEST PUSH1 0x1 PUSH1 0x1 PUSH1 0xA0 SHL SUB SWAP3 SWAP2 SWAP1 DUP4 AND DUP1 ISZERO PUSH2 0x4B8 JUMPI PUSH32 0x0 SWAP4 PUSH2 0x31C ADDRESS DUP5 DUP8 PUSH2 0x284 JUMP JUMPDEST SWAP5 DUP6 EXTCODESIZE ISZERO PUSH2 0x378 JUMPI JUMPDEST POP PUSH32 0x1F7761C69C1E6ED50FD7B87C3BE8AF863A3977E31508A30BCB6FF930731D5DAC PUSH1 0x20 PUSH1 0x40 MLOAD SWAP3 DUP1 PUSH32 0x0 AND DUP5 MSTORE DUP8 AND SWAP3 LOG4 JUMP JUMPDEST SWAP5 POP PUSH15 0x5AF43D82803E903D91602B57FD5BF3 PUSH1 0x0 SWAP6 PUSH23 0x3D602D80600A3D3981F3363D3D373D3D3D363D73000000 PUSH3 0xFFFFFF DUP3 PUSH1 0x88 SHR AND OR DUP8 MSTORE PUSH1 0x78 SHL OR PUSH1 0x20 MSTORE DUP3 PUSH1 0x37 PUSH1 0x9 DUP8 CREATE2 SWAP5 DUP2 DUP7 AND SWAP6 DUP7 ISZERO PUSH2 0x473 JUMPI SWAP6 DUP3 DUP3 SLOAD AND DUP2 EXTCODESIZE ISZERO PUSH2 0x46F JUMPI DUP3 SWAP2 PUSH1 0x64 DUP4 SWAP3 PUSH1 0x40 MLOAD SWAP6 DUP7 SWAP4 DUP5 SWAP3 PUSH4 0xC0C53B8B PUSH1 0xE0 SHL DUP5 MSTORE DUP11 PUSH1 0x4 DUP6 ADD MSTORE PUSH1 0x24 DUP5 ADD MSTORE DUP9 PUSH32 0x0 AND PUSH1 0x44 DUP5 ADD MSTORE GAS CALL DUP1 ISZERO PUSH2 0x462 JUMPI PUSH2 0x434 JUMPI JUMPDEST POP PUSH2 0x325 JUMP JUMPDEST PUSH8 0xFFFFFFFFFFFFFFFF DUP3 GT PUSH2 0x44E JUMPI POP PUSH1 0x40 MSTORE CODESIZE DUP1 PUSH2 0x42E JUMP JUMPDEST PUSH4 0x4E487B71 PUSH1 0xE0 SHL DUP2 MSTORE PUSH1 0x41 PUSH1 0x4 MSTORE PUSH1 0x24 SWAP1 REVERT JUMPDEST POP PUSH1 0x40 MLOAD SWAP1 RETURNDATASIZE SWAP1 DUP3 RETURNDATACOPY RETURNDATASIZE SWAP1 REVERT JUMPDEST DUP3 DUP1 REVERT JUMPDEST PUSH1 0x40 MLOAD PUSH3 0x461BCD PUSH1 0xE5 SHL DUP2 MSTORE PUSH1 0x20 PUSH1 0x4 DUP3 ADD MSTORE PUSH1 0x17 PUSH1 0x24 DUP3 ADD MSTORE PUSH32 0x455243313136373A2063726561746532206661696C6564000000000000000000 PUSH1 0x44 DUP3 ADD MSTORE PUSH1 0x64 SWAP1 REVERT JUMPDEST PUSH1 0x40 MLOAD PUSH3 0x461BCD PUSH1 0xE5 SHL DUP2 MSTORE PUSH1 0x20 PUSH1 0x4 DUP3 ADD MSTORE PUSH1 0xD PUSH1 0x24 DUP3 ADD MSTORE PUSH13 0x24B73B30B634B21037BBB732B9 PUSH1 0x99 SHL PUSH1 0x44 DUP3 ADD MSTORE PUSH1 0x64 SWAP1 REVERT INVALID LOG2 PUSH5 0x6970667358 0x22 SLT KECCAK256 EXTCODEHASH 0xEE DUP16 0xDB CREATE2 SELFBALANCE 0xA9 SWAP14 BLOBHASH SSTORE 0xAC DUP4 EXTCODECOPY LOG0 PUSH6 0x445776748DC0 EXTCODECOPY 0xEB 0xAA SWAP8 0xEC PUSH24 0x836C5C9B3864736F6C634300081800330000000000000000 "},"methodIdentifiers":{"createWallet(address)":"b054a9e8","createWallet(address,bytes32)":"b20ca818","entryPoint()":"b0d691fe","getAddress(bytes32)":"21f8a721","implementation()":"5c60da1b","sessionManager()":"b7b13f79","walletCount()":"29b57c69"}}}}}