{"src/mocks/MockVerifier.sol":{"MockVerifier":{"abi":[{"anonymous":false,"inputs":[{"indexed":false,"internalType":"bool","name":"result","type":"bool"},{"indexed":false,"internalType":"uint256[]","name":"publicSignals","type":"uint256[]"}],"name":"ProofVerified","type":"event"},{"inputs":[],"name":"expectedResult","outputs":[{"internalType":"bool","name":"","type":"bool"}],"stateMutability":"view","type":"function"},{"inputs":[{"internalType":"bool","name":"_result","type":"bool"}],"name":"setResult","outputs":[],"stateMutability":"nonpayable","type":"function"},{"inputs":[{"internalType":"uint256[2]","name":"","type":"uint256[2]"},{"internalType":"uint256[2][2]","name":"","type":"uint256[2][2]"},{"internalType":"uint256[2]","name":"","type":"uint256[2]"},{"internalType":"uint256[5]","name":"","type":"uint256[5]"}],"name":"verifyProof","outputs":[{"internalType":"bool","name":"","type":"bool"}],"stateMutability":"view","type":"function"}],"evm":{"bytecode":{"linkReferences":{},"object":"6080806040523461002357600160ff19600054161760005561010290816100298239f35b600080fdfe6080806040526004361015601257600080fd5b600090813560e01c90816334baeab914608f57508063d40cae4f14606f5763f4b4dc2e14603e57600080fd5b34606c576020366003190112606c5760043580151580910360685760ff8019835416911617815580f35b5080fd5b80fd5b5034606c5780600319360112606c5760ff60209154166040519015158152f35b9050346068576101a0366003190112606857366044116068573660c4116068573661010411606857366101a41160685760ff602092541615158152f3fea2646970667358221220e20a363d80c450c33a971a575be4157648ddd7396cdd7d53bb4277891699f96664736f6c63430008180033","opcodes":"PUSH1 0x80 DUP1 PUSH1 0x40 MSTORE CALLVALUE PUSH2 0x23 JUMPI PUSH1 0x1 PUSH1 0xFF NOT PUSH1 0x0 SLOAD AND OR PUSH1 0x0 SSTORE PUSH2 0x102 SWAP1 DUP2 PUSH2 0x29 DUP3 CODECOPY RETURN JUMPDEST PUSH1 0x0 DUP1 REVERT INVALID PUSH1 0x80 DUP1 PUSH1 0x40 MSTORE PUSH1 0x4 CALLDATASIZE LT ISZERO PUSH1 0x12 JUMPI PUSH1 0x0 DUP1 REVERT JUMPDEST PUSH1 0x0 SWAP1 DUP2 CALLDATALOAD PUSH1 0xE0 SHR SWAP1 DUP2 PUSH4 0x34BAEAB9 EQ PUSH1 0x8F JUMPI POP DUP1 PUSH4 0xD40CAE4F EQ PUSH1 0x6F JUMPI PUSH4 0xF4B4DC2E EQ PUSH1 0x3E JUMPI PUSH1 0x0 DUP1 REVERT JUMPDEST CALLVALUE PUSH1 0x6C JUMPI PUSH1 0x20 CALLDATASIZE PUSH1 0x3 NOT ADD SLT PUSH1 0x6C JUMPI PUSH1 0x4 CALLDATALOAD DUP1 ISZERO ISZERO DUP1 SWAP2 SUB PUSH1 0x68 JUMPI PUSH1 0xFF DUP1 NOT DUP4 SLOAD AND SWAP2 AND OR DUP2 SSTORE DUP1 RETURN JUMPDEST POP DUP1 REVERT JUMPDEST DUP1 REVERT JUMPDEST POP CALLVALUE PUSH1 0x6C JUMPI DUP1 PUSH1 0x3 NOT CALLDATASIZE ADD SLT PUSH1 0x6C JUMPI PUSH1 0xFF PUSH1 0x20 SWAP2 SLOAD AND PUSH1 0x40 MLOAD SWAP1 ISZERO ISZERO DUP2 MSTORE RETURN JUMPDEST SWAP1 POP CALLVALUE PUSH1 0x68 JUMPI PUSH2 0x1A0 CALLDATASIZE PUSH1 0x3 NOT ADD SLT PUSH1 0x68 JUMPI CALLDATASIZE PUSH1 0x44 GT PUSH1 0x68 JUMPI CALLDATASIZE PUSH1 0xC4 GT PUSH1 0x68 JUMPI CALLDATASIZE PUSH2 0x104 GT PUSH1 0x68 JUMPI CALLDATASIZE PUSH2 0x1A4 GT PUSH1 0x68 JUMPI PUSH1 0xFF PUSH1 0x20 SWAP3 SLOAD AND ISZERO ISZERO DUP2 MSTORE RETURN INVALID LOG2 PUSH5 0x6970667358 0x22 SLT KECCAK256 0xE2 EXP CALLDATASIZE RETURNDATASIZE DUP1 0xC4 POP 0xC3 GASPRICE SWAP8 BYTE JUMPI JUMPDEST 0xE4 ISZERO PUSH23 0x48DDD7396CDD7D53BB4277891699F96664736F6C634300 ADDMOD XOR STOP CALLER "},"methodIdentifiers":{"expectedResult()":"d40cae4f","setResult(bool)":"f4b4dc2e","verifyProof(uint256[2],uint256[2][2],uint256[2],uint256[5])":"34baeab9"}}}}}