{"src/CredentialRegistry.sol":{"CredentialRegistry":{"abi":[{"inputs":[],"stateMutability":"nonpayable","type":"constructor"},{"anonymous":false,"inputs":[{"indexed":true,"internalType":"bytes32","name":"newRoot","type":"bytes32"}],"name":"ActiveRootUpdated","type":"event"},{"anonymous":false,"inputs":[{"indexed":true,"internalType":"address","name":"issuer","type":"address"},{"indexed":true,"internalType":"bytes32","name":"commitment","type":"bytes32"},{"indexed":false,"internalType":"uint64","name":"expiry","type":"uint64"}],"name":"CredentialIssued","type":"event"},{"anonymous":false,"inputs":[{"indexed":true,"internalType":"address","name":"issuer","type":"address"},{"indexed":true,"internalType":"bytes32","name":"commitment","type":"bytes32"}],"name":"CredentialRevoked","type":"event"},{"anonymous":false,"inputs":[{"indexed":true,"internalType":"bytes32","name":"newRoot","type":"bytes32"}],"name":"RevokedSecretRootUpdated","type":"event"},{"inputs":[],"name":"activeRoot","outputs":[{"internalType":"bytes32","name":"","type":"bytes32"}],"stateMutability":"view","type":"function"},{"inputs":[{"internalType":"address","name":"issuer","type":"address"}],"name":"addIssuer","outputs":[],"stateMutability":"nonpayable","type":"function"},{"inputs":[{"internalType":"bytes32","name":"nullifier","type":"bytes32"}],"name":"isNullifierUsed","outputs":[{"internalType":"bool","name":"","type":"bool"}],"stateMutability":"view","type":"function"},{"inputs":[{"internalType":"address","name":"","type":"address"}],"name":"issuers","outputs":[{"internalType":"bool","name":"","type":"bool"}],"stateMutability":"view","type":"function"},{"inputs":[{"internalType":"bytes32","name":"nullifier","type":"bytes32"}],"name":"markNullifierUsed","outputs":[],"stateMutability":"nonpayable","type":"function"},{"inputs":[],"name":"owner","outputs":[{"internalType":"address","name":"","type":"address"}],"stateMutability":"view","type":"function"},{"inputs":[{"internalType":"address","name":"issuer","type":"address"}],"name":"removeIssuer","outputs":[],"stateMutability":"nonpayable","type":"function"},{"inputs":[],"name":"revokedSecretRoot","outputs":[{"internalType":"bytes32","name":"","type":"bytes32"}],"stateMutability":"view","type":"function"},{"inputs":[{"internalType":"address","name":"","type":"address"}],"name":"sessionManagers","outputs":[{"internalType":"bool","name":"","type":"bool"}],"stateMutability":"view","type":"function"},{"inputs":[{"internalType":"address","name":"sessionManager","type":"address"},{"internalType":"bool","name":"allowed","type":"bool"}],"name":"setSessionManager","outputs":[],"stateMutability":"nonpayable","type":"function"},{"inputs":[{"internalType":"address","name":"newOwner","type":"address"}],"name":"transferOwnership","outputs":[],"stateMutability":"nonpayable","type":"function"},{"inputs":[{"internalType":"bytes32","name":"newRoot","type":"bytes32"}],"name":"updateActiveRoot","outputs":[],"stateMutability":"nonpayable","type":"function"},{"inputs":[{"internalType":"bytes32","name":"newRoot","type":"bytes32"}],"name":"updateRevokedSecretRoot","outputs":[],"stateMutability":"nonpayable","type":"function"},{"inputs":[{"internalType":"bytes32","name":"","type":"bytes32"}],"name":"usedNullifiers","outputs":[{"internalType":"bool","name":"","type":"bool"}],"stateMutability":"view","type":"function"}],"evm":{"bytecode":{"linkReferences":{},"object":"60808060405234610045576001600081815581546001600160a01b0319163390811783558152600260205260409020805460ff191690911790556105ed908161004b8239f35b600080fdfe6080604081815260048036101561001557600080fd5b600092833560e01c908163057cb0f51461041057508063206137aa1461039757806320694db0146103c357806322dc7b4c14610397578063239148691461033457806338a7543e146102f657806347bc7093146102ac5780636b6debf71461028d5780638da5cb5b14610264578063abb2efdf14610247578063c1c67f5f146101e6578063eb9e5849146101a4578063f2fde38b146101215763f54e3a85146100bd57600080fd5b3461011d57602036600319011261011d5760ff6100e7913592338552600260205284205416610527565b6100ef610561565b806005557e12e8d1cf1cc3bbbeeed8d45e664cae7b568efc953ca943c64e07f3f4e588598280a26001815580f35b8280fd5b503461011d57602036600319011261011d5761013b6104d3565b60015491906001600160a01b039061015633838616146104ee565b169283156101715750506001600160a01b0319161760015580f35b906020606492519162461bcd60e51b8352820152600d60248201526c24b73b30b634b21037bbb732b960991b6044820152fd5b5050346101e25760203660031901126101e25760209160ff9082906001600160a01b036101cf6104d3565b1681526003855220541690519015158152f35b5080fd5b5050346101e257806003193601126101e2576102006104d3565b9060243591821515809303610243576001546001600160a01b03919061022990831633146104ee565b168352600360205282209060ff8019835416911617905580f35b8380fd5b503461011d578260031936011261011d5760209250549051908152f35b5050346101e257816003193601126101e25760015490516001600160a01b039091168152602090f35b5050346101e257816003193601126101e2576020906005549051908152f35b5050346101e25760203660031901126101e2576102c76104d3565b6001546001600160a01b0391906102e190831633146104ee565b16825260026020528120805460ff1916905580f35b5050346101e25760203660031901126101e25760209160ff9082906001600160a01b036103216104d3565b1681526002855220541690519015158152f35b50903461011d57602036600319011261011d578161036360ff9335938493338752600260205286205416610527565b61036b610561565b557f76261461236844337b0eb16561d37bd90c48cf1b779a7122006f8df07243d4188280a26001815580f35b503461011d57602036600319011261011d578160209360ff923581526006855220541690519015158152f35b5050346101e25760203660031901126101e2576103de6104d3565b6001546001600160a01b0391906103f890831633146104ee565b16825260026020528120805460ff1916600117905580f35b90503461024357602091826003193601126104cf578035913386526003845260ff85872054161561049957508185526006835260ff848620541661046557508352600690528120805460ff1916600117905580f35b835162461bcd60e51b8152908101839052600e60248201526d139d5b1b1a599a595c881d5cd95960921b6044820152606490fd5b8360649262461bcd60e51b8352820152601460248201527327b7363c9039b2b9b9b4b7b71036b0b730b3b2b960611b6044820152fd5b8480fd5b600435906001600160a01b03821682036104e957565b600080fd5b156104f557565b60405162461bcd60e51b815260206004820152600a60248201526927b7363c9037bbb732b960b11b6044820152606490fd5b1561052e57565b60405162461bcd60e51b815260206004820152600b60248201526a27b7363c9034b9b9bab2b960a91b6044820152606490fd5b600260005414610572576002600055565b60405162461bcd60e51b815260206004820152601f60248201527f5265656e7472616e637947756172643a207265656e7472616e742063616c6c006044820152606490fdfea26469706673582212208ede5c3e4ee1614f79f30b4237416d303874a7a85f33405e1cbf5d93422316e864736f6c63430008180033","opcodes":"PUSH1 0x80 DUP1 PUSH1 0x40 MSTORE CALLVALUE PUSH2 0x45 JUMPI PUSH1 0x1 PUSH1 0x0 DUP2 DUP2 SSTORE DUP2 SLOAD PUSH1 0x1 PUSH1 0x1 PUSH1 0xA0 SHL SUB NOT AND CALLER SWAP1 DUP2 OR DUP4 SSTORE DUP2 MSTORE PUSH1 0x2 PUSH1 0x20 MSTORE PUSH1 0x40 SWAP1 KECCAK256 DUP1 SLOAD PUSH1 0xFF NOT AND SWAP1 SWAP2 OR SWAP1 SSTORE PUSH2 0x5ED SWAP1 DUP2 PUSH2 0x4B DUP3 CODECOPY RETURN JUMPDEST PUSH1 0x0 DUP1 REVERT INVALID PUSH1 0x80 PUSH1 0x40 DUP2 DUP2 MSTORE PUSH1 0x4 DUP1 CALLDATASIZE LT ISZERO PUSH2 0x15 JUMPI PUSH1 0x0 DUP1 REVERT JUMPDEST PUSH1 0x0 SWAP3 DUP4 CALLDATALOAD PUSH1 0xE0 SHR SWAP1 DUP2 PUSH4 0x57CB0F5 EQ PUSH2 0x410 JUMPI POP DUP1 PUSH4 0x206137AA EQ PUSH2 0x397 JUMPI DUP1 PUSH4 0x20694DB0 EQ PUSH2 0x3C3 JUMPI DUP1 PUSH4 0x22DC7B4C EQ PUSH2 0x397 JUMPI DUP1 PUSH4 0x23914869 EQ PUSH2 0x334 JUMPI DUP1 PUSH4 0x38A7543E EQ PUSH2 0x2F6 JUMPI DUP1 PUSH4 0x47BC7093 EQ PUSH2 0x2AC JUMPI DUP1 PUSH4 0x6B6DEBF7 EQ PUSH2 0x28D JUMPI DUP1 PUSH4 0x8DA5CB5B EQ PUSH2 0x264 JUMPI DUP1 PUSH4 0xABB2EFDF EQ PUSH2 0x247 JUMPI DUP1 PUSH4 0xC1C67F5F EQ PUSH2 0x1E6 JUMPI DUP1 PUSH4 0xEB9E5849 EQ PUSH2 0x1A4 JUMPI DUP1 PUSH4 0xF2FDE38B EQ PUSH2 0x121 JUMPI PUSH4 0xF54E3A85 EQ PUSH2 0xBD JUMPI PUSH1 0x0 DUP1 REVERT JUMPDEST CALLVALUE PUSH2 0x11D JUMPI PUSH1 0x20 CALLDATASIZE PUSH1 0x3 NOT ADD SLT PUSH2 0x11D JUMPI PUSH1 0xFF PUSH2 0xE7 SWAP2 CALLDATALOAD SWAP3 CALLER DUP6 MSTORE PUSH1 0x2 PUSH1 0x20 MSTORE DUP5 KECCAK256 SLOAD AND PUSH2 0x527 JUMP JUMPDEST PUSH2 0xEF PUSH2 0x561 JUMP JUMPDEST DUP1 PUSH1 0x5 SSTORE PUSH31 0x12E8D1CF1CC3BBBEEED8D45E664CAE7B568EFC953CA943C64E07F3F4E58859 DUP3 DUP1 LOG2 PUSH1 0x1 DUP2 SSTORE DUP1 RETURN JUMPDEST DUP3 DUP1 REVERT JUMPDEST POP CALLVALUE PUSH2 0x11D JUMPI PUSH1 0x20 CALLDATASIZE PUSH1 0x3 NOT ADD SLT PUSH2 0x11D JUMPI PUSH2 0x13B PUSH2 0x4D3 JUMP JUMPDEST PUSH1 0x1 SLOAD SWAP2 SWAP1 PUSH1 0x1 PUSH1 0x1 PUSH1 0xA0 SHL SUB SWAP1 PUSH2 0x156 CALLER DUP4 DUP7 AND EQ PUSH2 0x4EE JUMP JUMPDEST AND SWAP3 DUP4 ISZERO PUSH2 0x171 JUMPI POP POP PUSH1 0x1 PUSH1 0x1 PUSH1 0xA0 SHL SUB NOT AND OR PUSH1 0x1 SSTORE DUP1 RETURN JUMPDEST SWAP1 PUSH1 0x20 PUSH1 0x64 SWAP3 MLOAD SWAP2 PUSH3 0x461BCD PUSH1 0xE5 SHL DUP4 MSTORE DUP3 ADD MSTORE PUSH1 0xD PUSH1 0x24 DUP3 ADD MSTORE PUSH13 0x24B73B30B634B21037BBB732B9 PUSH1 0x99 SHL PUSH1 0x44 DUP3 ADD MSTORE REVERT JUMPDEST POP POP CALLVALUE PUSH2 0x1E2 JUMPI PUSH1 0x20 CALLDATASIZE PUSH1 0x3 NOT ADD SLT PUSH2 0x1E2 JUMPI PUSH1 0x20 SWAP2 PUSH1 0xFF SWAP1 DUP3 SWAP1 PUSH1 0x1 PUSH1 0x1 PUSH1 0xA0 SHL SUB PUSH2 0x1CF PUSH2 0x4D3 JUMP JUMPDEST AND DUP2 MSTORE PUSH1 0x3 DUP6 MSTORE KECCAK256 SLOAD AND SWAP1 MLOAD SWAP1 ISZERO ISZERO DUP2 MSTORE RETURN JUMPDEST POP DUP1 REVERT JUMPDEST POP POP CALLVALUE PUSH2 0x1E2 JUMPI DUP1 PUSH1 0x3 NOT CALLDATASIZE ADD SLT PUSH2 0x1E2 JUMPI PUSH2 0x200 PUSH2 0x4D3 JUMP JUMPDEST SWAP1 PUSH1 0x24 CALLDATALOAD SWAP2 DUP3 ISZERO ISZERO DUP1 SWAP4 SUB PUSH2 0x243 JUMPI PUSH1 0x1 SLOAD PUSH1 0x1 PUSH1 0x1 PUSH1 0xA0 SHL SUB SWAP2 SWAP1 PUSH2 0x229 SWAP1 DUP4 AND CALLER EQ PUSH2 0x4EE JUMP JUMPDEST AND DUP4 MSTORE PUSH1 0x3 PUSH1 0x20 MSTORE DUP3 KECCAK256 SWAP1 PUSH1 0xFF DUP1 NOT DUP4 SLOAD AND SWAP2 AND OR SWAP1 SSTORE DUP1 RETURN JUMPDEST DUP4 DUP1 REVERT JUMPDEST POP CALLVALUE PUSH2 0x11D JUMPI DUP3 PUSH1 0x3 NOT CALLDATASIZE ADD SLT PUSH2 0x11D JUMPI PUSH1 0x20 SWAP3 POP SLOAD SWAP1 MLOAD SWAP1 DUP2 MSTORE RETURN JUMPDEST POP POP CALLVALUE PUSH2 0x1E2 JUMPI DUP2 PUSH1 0x3 NOT CALLDATASIZE ADD SLT PUSH2 0x1E2 JUMPI PUSH1 0x1 SLOAD SWAP1 MLOAD PUSH1 0x1 PUSH1 0x1 PUSH1 0xA0 SHL SUB SWAP1 SWAP2 AND DUP2 MSTORE PUSH1 0x20 SWAP1 RETURN JUMPDEST POP POP CALLVALUE PUSH2 0x1E2 JUMPI DUP2 PUSH1 0x3 NOT CALLDATASIZE ADD SLT PUSH2 0x1E2 JUMPI PUSH1 0x20 SWAP1 PUSH1 0x5 SLOAD SWAP1 MLOAD SWAP1 DUP2 MSTORE RETURN JUMPDEST POP POP CALLVALUE PUSH2 0x1E2 JUMPI PUSH1 0x20 CALLDATASIZE PUSH1 0x3 NOT ADD SLT PUSH2 0x1E2 JUMPI PUSH2 0x2C7 PUSH2 0x4D3 JUMP JUMPDEST PUSH1 0x1 SLOAD PUSH1 0x1 PUSH1 0x1 PUSH1 0xA0 SHL SUB SWAP2 SWAP1 PUSH2 0x2E1 SWAP1 DUP4 AND CALLER EQ PUSH2 0x4EE JUMP JUMPDEST AND DUP3 MSTORE PUSH1 0x2 PUSH1 0x20 MSTORE DUP2 KECCAK256 DUP1 SLOAD PUSH1 0xFF NOT AND SWAP1 SSTORE DUP1 RETURN JUMPDEST POP POP CALLVALUE PUSH2 0x1E2 JUMPI PUSH1 0x20 CALLDATASIZE PUSH1 0x3 NOT ADD SLT PUSH2 0x1E2 JUMPI PUSH1 0x20 SWAP2 PUSH1 0xFF SWAP1 DUP3 SWAP1 PUSH1 0x1 PUSH1 0x1 PUSH1 0xA0 SHL SUB PUSH2 0x321 PUSH2 0x4D3 JUMP JUMPDEST AND DUP2 MSTORE PUSH1 0x2 DUP6 MSTORE KECCAK256 SLOAD AND SWAP1 MLOAD SWAP1 ISZERO ISZERO DUP2 MSTORE RETURN JUMPDEST POP SWAP1 CALLVALUE PUSH2 0x11D JUMPI PUSH1 0x20 CALLDATASIZE PUSH1 0x3 NOT ADD SLT PUSH2 0x11D JUMPI DUP2 PUSH2 0x363 PUSH1 0xFF SWAP4 CALLDATALOAD SWAP4 DUP5 SWAP4 CALLER DUP8 MSTORE PUSH1 0x2 PUSH1 0x20 MSTORE DUP7 KECCAK256 SLOAD AND PUSH2 0x527 JUMP JUMPDEST PUSH2 0x36B PUSH2 0x561 JUMP JUMPDEST SSTORE PUSH32 0x76261461236844337B0EB16561D37BD90C48CF1B779A7122006F8DF07243D418 DUP3 DUP1 LOG2 PUSH1 0x1 DUP2 SSTORE DUP1 RETURN JUMPDEST POP CALLVALUE PUSH2 0x11D JUMPI PUSH1 0x20 CALLDATASIZE PUSH1 0x3 NOT ADD SLT PUSH2 0x11D JUMPI DUP2 PUSH1 0x20 SWAP4 PUSH1 0xFF SWAP3 CALLDATALOAD DUP2 MSTORE PUSH1 0x6 DUP6 MSTORE KECCAK256 SLOAD AND SWAP1 MLOAD SWAP1 ISZERO ISZERO DUP2 MSTORE RETURN JUMPDEST POP POP CALLVALUE PUSH2 0x1E2 JUMPI PUSH1 0x20 CALLDATASIZE PUSH1 0x3 NOT ADD SLT PUSH2 0x1E2 JUMPI PUSH2 0x3DE PUSH2 0x4D3 JUMP JUMPDEST PUSH1 0x1 SLOAD PUSH1 0x1 PUSH1 0x1 PUSH1 0xA0 SHL SUB SWAP2 SWAP1 PUSH2 0x3F8 SWAP1 DUP4 AND CALLER EQ PUSH2 0x4EE JUMP JUMPDEST AND DUP3 MSTORE PUSH1 0x2 PUSH1 0x20 MSTORE DUP2 KECCAK256 DUP1 SLOAD PUSH1 0xFF NOT AND PUSH1 0x1 OR SWAP1 SSTORE DUP1 RETURN JUMPDEST SWAP1 POP CALLVALUE PUSH2 0x243 JUMPI PUSH1 0x20 SWAP2 DUP3 PUSH1 0x3 NOT CALLDATASIZE ADD SLT PUSH2 0x4CF JUMPI DUP1 CALLDATALOAD SWAP2 CALLER DUP7 MSTORE PUSH1 0x3 DUP5 MSTORE PUSH1 0xFF DUP6 DUP8 KECCAK256 SLOAD AND ISZERO PUSH2 0x499 JUMPI POP DUP2 DUP6 MSTORE PUSH1 0x6 DUP4 MSTORE PUSH1 0xFF DUP5 DUP7 KECCAK256 SLOAD AND PUSH2 0x465 JUMPI POP DUP4 MSTORE PUSH1 0x6 SWAP1 MSTORE DUP2 KECCAK256 DUP1 SLOAD PUSH1 0xFF NOT AND PUSH1 0x1 OR SWAP1 SSTORE DUP1 RETURN JUMPDEST DUP4 MLOAD PUSH3 0x461BCD PUSH1 0xE5 SHL DUP2 MSTORE SWAP1 DUP2 ADD DUP4 SWAP1 MSTORE PUSH1 0xE PUSH1 0x24 DUP3 ADD MSTORE PUSH14 0x139D5B1B1A599A595C881D5CD959 PUSH1 0x92 SHL PUSH1 0x44 DUP3 ADD MSTORE PUSH1 0x64 SWAP1 REVERT JUMPDEST DUP4 PUSH1 0x64 SWAP3 PUSH3 0x461BCD PUSH1 0xE5 SHL DUP4 MSTORE DUP3 ADD MSTORE PUSH1 0x14 PUSH1 0x24 DUP3 ADD MSTORE PUSH20 0x27B7363C9039B2B9B9B4B7B71036B0B730B3B2B9 PUSH1 0x61 SHL PUSH1 0x44 DUP3 ADD MSTORE REVERT JUMPDEST DUP5 DUP1 REVERT JUMPDEST PUSH1 0x4 CALLDATALOAD SWAP1 PUSH1 0x1 PUSH1 0x1 PUSH1 0xA0 SHL SUB DUP3 AND DUP3 SUB PUSH2 0x4E9 JUMPI JUMP JUMPDEST PUSH1 0x0 DUP1 REVERT JUMPDEST ISZERO PUSH2 0x4F5 JUMPI JUMP JUMPDEST PUSH1 0x40 MLOAD PUSH3 0x461BCD PUSH1 0xE5 SHL DUP2 MSTORE PUSH1 0x20 PUSH1 0x4 DUP3 ADD MSTORE PUSH1 0xA PUSH1 0x24 DUP3 ADD MSTORE PUSH10 0x27B7363C9037BBB732B9 PUSH1 0xB1 SHL PUSH1 0x44 DUP3 ADD MSTORE PUSH1 0x64 SWAP1 REVERT JUMPDEST ISZERO PUSH2 0x52E JUMPI JUMP JUMPDEST PUSH1 0x40 MLOAD PUSH3 0x461BCD PUSH1 0xE5 SHL DUP2 MSTORE PUSH1 0x20 PUSH1 0x4 DUP3 ADD MSTORE PUSH1 0xB PUSH1 0x24 DUP3 ADD MSTORE PUSH11 0x27B7363C9034B9B9BAB2B9 PUSH1 0xA9 SHL PUSH1 0x44 DUP3 ADD MSTORE PUSH1 0x64 SWAP1 REVERT JUMPDEST PUSH1 0x2 PUSH1 0x0 SLOAD EQ PUSH2 0x572 JUMPI PUSH1 0x2 PUSH1 0x0 SSTORE JUMP JUMPDEST PUSH1 0x40 MLOAD PUSH3 0x461BCD PUSH1 0xE5 SHL DUP2 MSTORE PUSH1 0x20 PUSH1 0x4 DUP3 ADD MSTORE PUSH1 0x1F PUSH1 0x24 DUP3 ADD MSTORE PUSH32 0x5265656E7472616E637947756172643A207265656E7472616E742063616C6C00 PUSH1 0x44 DUP3 ADD MSTORE PUSH1 0x64 SWAP1 REVERT INVALID LOG2 PUSH5 0x6970667358 0x22 SLT KECCAK256 DUP15 0xDE TLOAD RETURNDATACOPY 0x4E 0xE1 PUSH2 0x4F79 RETURN SIGNEXTEND TIMESTAMP CALLDATACOPY COINBASE PUSH14 0x303874A7A85F33405E1CBF5D9342 0x23 AND 0xE8 PUSH5 0x736F6C6343 STOP ADDMOD XOR STOP CALLER "},"methodIdentifiers":{"activeRoot()":"abb2efdf","addIssuer(address)":"20694db0","isNullifierUsed(bytes32)":"22dc7b4c","issuers(address)":"38a7543e","markNullifierUsed(bytes32)":"057cb0f5","owner()":"8da5cb5b","removeIssuer(address)":"47bc7093","revokedSecretRoot()":"6b6debf7","sessionManagers(address)":"eb9e5849","setSessionManager(address,bool)":"c1c67f5f","transferOwnership(address)":"f2fde38b","updateActiveRoot(bytes32)":"23914869","updateRevokedSecretRoot(bytes32)":"f54e3a85","usedNullifiers(bytes32)":"206137aa"}}}}}