{"src/DelegationManager.sol":{"DelegationManager":{"abi":[{"inputs":[],"stateMutability":"nonpayable","type":"constructor"},{"anonymous":false,"inputs":[{"indexed":true,"internalType":"bytes32","name":"delegationLeafHash","type":"bytes32"}],"name":"DelegationRevoked","type":"event"},{"anonymous":false,"inputs":[{"indexed":true,"internalType":"address","name":"delegator","type":"address"},{"indexed":false,"internalType":"bytes32","name":"newRoot","type":"bytes32"}],"name":"DelegationRootUpdated","type":"event"},{"anonymous":false,"inputs":[{"indexed":false,"internalType":"address","name":"account","type":"address"}],"name":"Paused","type":"event"},{"anonymous":false,"inputs":[{"indexed":false,"internalType":"address","name":"account","type":"address"}],"name":"Unpaused","type":"event"},{"inputs":[{"internalType":"address","name":"","type":"address"}],"name":"delegationRoots","outputs":[{"internalType":"bytes32","name":"","type":"bytes32"}],"stateMutability":"view","type":"function"},{"inputs":[{"internalType":"address","name":"delegator","type":"address"}],"name":"getDelegationRoot","outputs":[{"internalType":"bytes32","name":"","type":"bytes32"}],"stateMutability":"view","type":"function"},{"inputs":[],"name":"owner","outputs":[{"internalType":"address","name":"","type":"address"}],"stateMutability":"view","type":"function"},{"inputs":[],"name":"pause","outputs":[],"stateMutability":"nonpayable","type":"function"},{"inputs":[],"name":"paused","outputs":[{"internalType":"bool","name":"","type":"bool"}],"stateMutability":"view","type":"function"},{"inputs":[{"internalType":"bytes32","name":"delegationLeafHash","type":"bytes32"},{"internalType":"address","name":"delegator","type":"address"}],"name":"revokeDelegation","outputs":[],"stateMutability":"nonpayable","type":"function"},{"inputs":[{"internalType":"bytes32","name":"","type":"bytes32"}],"name":"revokedDelegations","outputs":[{"internalType":"bool","name":"","type":"bool"}],"stateMutability":"view","type":"function"},{"inputs":[{"internalType":"address","name":"","type":"address"}],"name":"rootUpdaters","outputs":[{"internalType":"bool","name":"","type":"bool"}],"stateMutability":"view","type":"function"},{"inputs":[{"internalType":"address","name":"updater","type":"address"},{"internalType":"bool","name":"allowed","type":"bool"}],"name":"setRootUpdater","outputs":[],"stateMutability":"nonpayable","type":"function"},{"inputs":[{"internalType":"address","name":"newOwner","type":"address"}],"name":"transferOwnership","outputs":[],"stateMutability":"nonpayable","type":"function"},{"inputs":[],"name":"unpause","outputs":[],"stateMutability":"nonpayable","type":"function"},{"inputs":[{"internalType":"address","name":"delegator","type":"address"},{"internalType":"bytes32","name":"newRoot","type":"bytes32"}],"name":"updateDelegationRoot","outputs":[],"stateMutability":"nonpayable","type":"function"},{"inputs":[{"internalType":"bytes32","name":"delegationLeaf","type":"bytes32"},{"internalType":"bytes32[]","name":"merkleProof","type":"bytes32[]"},{"internalType":"address","name":"delegator","type":"address"},{"internalType":"bytes32","name":"scopeHash","type":"bytes32"},{"internalType":"uint64","name":"expiresAt","type":"uint64"},{"internalType":"uint8","name":"maxDepth","type":"uint8"}],"name":"verifyDelegation","outputs":[{"internalType":"bool","name":"","type":"bool"}],"stateMutability":"view","type":"function"},{"inputs":[{"internalType":"bytes32[]","name":"delegationLeaves","type":"bytes32[]"},{"internalType":"bytes32[][]","name":"merkleProofs","type":"bytes32[][]"},{"internalType":"address[]","name":"delegators","type":"address[]"},{"internalType":"address[]","name":"delegates","type":"address[]"},{"internalType":"bytes32[]","name":"scopeHashes","type":"bytes32[]"},{"internalType":"uint64[]","name":"expiries","type":"uint64[]"},{"internalType":"uint8[]","name":"maxDepths","type":"uint8[]"}],"name":"verifyDelegationChain","outputs":[{"internalType":"bool","name":"","type":"bool"}],"stateMutability":"view","type":"function"},{"inputs":[{"internalType":"bytes32","name":"delegationLeaf","type":"bytes32"},{"internalType":"bytes32[]","name":"merkleProof","type":"bytes32[]"},{"internalType":"address","name":"delegator","type":"address"},{"internalType":"string","name":"action","type":"string"},{"internalType":"uint64","name":"expiresAt","type":"uint64"},{"internalType":"uint8","name":"maxDepth","type":"uint8"}],"name":"verifyDelegationForAction","outputs":[{"internalType":"bool","name":"","type":"bool"}],"stateMutability":"view","type":"function"}],"evm":{"bytecode":{"linkReferences":{},"object":"6080806040523461003a576001600081905580546001600160a81b0319163360081b610100600160a81b0316179055610df590816100408239f35b600080fdfe6040608081526004908136101561001557600080fd5b6000803560e01c80631422050114610719578063232acf5e146106ec5780632d9fa06f146105d1578063372b102d146106af5780633f4ba83a146106095780634bf04c73146105d157806353739410146105755780635c975abb146105515780638456cb59146104ad5780638da5cb5b1461047c57806396f16c1714610388578063afa6a1cf14610326578063be2ca9d014610251578063f2fde38b146101b65763f53da7cd146100c557600080fd5b346101b35760c03660031901126101b35767ffffffffffffffff6024358181116101af576100f690369086016107d5565b6100fe6107bf565b906064358481116101ab57366023820112156101ab57808801358581116101a75736602482840101116101a757610133610806565b9561013c61081d565b97895183819460246020840197018737810182602082015203808452603f601f1991011683019183831090831117610194575091602099939161018b98979695938a5251902093339335610b18565b90519015158152f35b634e487b7160e01b815260418b52602490fd5b8680fd5b8580fd5b8280fd5b80fd5b5091346101af5760203660031901126101af576101d16107a4565b600154929091906001600160a01b036101f133600887901c83161461086a565b83161561021e575050610100600160a81b031990911660089190911b610100600160a81b03161760015580f35b906020606492519162461bcd60e51b8352820152600d60248201526c24b73b30b634b21037bbb732b960991b6044820152fd5b509190346101af57806003193601126101af578135916024356001600160a01b03818116918290036101ab57610291913314908115610315575b5061082d565b828452600360205260ff82852054166102e1575081835260036020528220805460ff191660011790557f6eb24ce38eb0f7d1e3b4291d5543c7286f02be3daed061b0f7eb6491213deb218280a280f35b6020606492519162461bcd60e51b8352820152600f60248201526e105b1c9958591e481c995d9bdad959608a1b6044820152fd5b905060015460081c1633143861028b565b50346101b35760c03660031901126101b3576024359067ffffffffffffffff82116101b3575060209261035f61018b92369083016107d5565b91906103696107bf565b91610372610806565b9261037b61081d565b9460643593339335610b18565b5091346101af5760e03660031901126101af5767ffffffffffffffff8135818111610478576103ba90369084016107d5565b9490926024358381116101af576103d490369083016107d5565b604492919235858111610478576103ee90369084016107d5565b6064929192358781116101a75761040890369086016107d5565b9390926084358981116104745761042290369088016107d5565b97909660a4358b81116104705761043c90369083016107d5565b9b909a60c4359182116101b357509161046860209f9c9a9896949261018b9e9c9a9896943691016107d5565b9c909b6108dd565b8a80fd5b8880fd5b8480fd5b5090346104a957816003193601126104a957600154905160089190911c6001600160a01b03168152602090f35b5080fd5b5091346101af57826003193601126101af57600154906104db33600884901c6001600160a01b03161461086a565b60ff821661051b57507f62e78cea01bee320cd4e420270b5ea74000d11b0c9f74754ebdbfc544b05a25891600160209260ff19161760015551338152a180f35b606490602084519162461bcd60e51b8352820152601060248201526f14185d5cd8589b194e881c185d5cd95960821b6044820152fd5b5090346104a957816003193601126104a95760209060ff6001541690519015158152f35b509190346101af57806003193601126101af576105906107a4565b91602435928315158094036104785760018060a01b03906105b98260015460081c16331461086a565b16845260205282209060ff8019835416911617905580f35b5090346104a95760203660031901126104a95760209181906001600160a01b036105f96107a4565b1681526002845220549051908152f35b5091346101af57826003193601126101af576001549061063733600884901c6001600160a01b03161461086a565b60ff821615610675575060ff1916600155513381527f5db9ee0a495bf2e6ff9c91a7834c1ba4fdd244a5e8aa4e537bd38aeae4b073aa90602090a180f35b606490602084519162461bcd60e51b8352820152601460248201527314185d5cd8589b194e881b9bdd081c185d5cd95960621b6044820152fd5b5091346101af5760203660031901126101af5760209260ff918391906001600160a01b036106db6107a4565b168252855220541690519015158152f35b5091346101af5760203660031901126101af578160209360ff923581526003855220541690519015158152f35b509190346101af57806003193601126101af5760207feda38b4c19d200d522d6cafb61691a66a8d392081e10536a96529fe56ce5269c916107586107a4565b6001600160a01b0316936024359190338614801561078f575b61077b915061082d565b84865260028352818187205551908152a280f35b50338752835261077b60ff8288205416610771565b600435906001600160a01b03821682036107ba57565b600080fd5b604435906001600160a01b03821682036107ba57565b9181601f840112156107ba5782359167ffffffffffffffff83116107ba576020808501948460051b0101116107ba57565b6084359067ffffffffffffffff821682036107ba57565b60a4359060ff821682036107ba57565b1561083457565b60405162461bcd60e51b815260206004820152600e60248201526d139bdd08185d5d1a1bdc9a5e995960921b6044820152606490fd5b1561087157565b60405162461bcd60e51b815260206004820152600a60248201526927b7363c9037bbb732b960b11b6044820152606490fd5b91908110156108b35760051b0190565b634e487b7160e01b600052603260045260246000fd5b356001600160a01b03811681036107ba5790565b9296989599939b9c909c9a949a9791978d15610a97576000978e5b891061091257505050505050505050505050505050600190565b6000198f018f8111610a6a578f908a8e8e928214600014610a80575061093c915033925b886108a3565b35828b10156108b3578f8f928c918e600593841b81013590601e19903603018112156107ba578f019182359567ffffffffffffffff938488116107ba576020889101951b360385136107ba578f8f908f8f95828f95946109ab6109a6836109b8986109b1966108a3565b6108c9565b966108a3565b35956108a3565b3593841684036107ba578f966109cf888c8c6108a3565b359560ff80881688036107ba5760018a01809a11610a6a576109f2991697610c6e565b15610a16578d8915158a8f82610a2a575b50509050610a165760018f9901986108f8565b505050505050505050505050505050600090565b6109a69250610a38936108a3565b6000198a018a8111610a6a578d610a5c6109a68f9360018060a01b039485946108a3565b16911614158e908a8f610a03565b634e487b7160e01b600052601160045260246000fd5b6109a68261093c94610a91936108a3565b92610936565b60405162461bcd60e51b815260206004820152600b60248201526a22b6b83a3c9031b430b4b760a91b6044820152606490fd5b60e0810190811067ffffffffffffffff821117610ae657604052565b634e487b7160e01b600052604160045260246000fd5b6060810190811067ffffffffffffffff821117610ae657604052565b6001600160a01b039384166000818152600260209081526040808320549b969a979995989197909692959192908c15610c5e57858752600360205260ff8888205416610c5e5767ffffffffffffffff1690428210610c5e5760ff169160019a83600111610c4d579086959493929189519460208601968888528b870152166060850152608084015260a083015260c082015260c08152610bb781610aca565b51902003610c425795949392919080955b808710610bda57505050505050501490565b90919293948697610bed829884896108a3565b3580821015610c205785519087820192835286820152858152610c0f81610afc565b5190205b9701959493929190610bc8565b9085519087820192835286820152858152610c3a81610afc565b519020610c13565b509550505050505090565b505050505050509550505050505090565b5050505050509550505050505090565b91969095979394929460018060a01b03809616916000948386526020976002602052604097888820549c8d15610dae57878952600360205260ff8a8a205416610dae5767ffffffffffffffff1693428510610dae5760ff90811694939291168410610d9e579086959493929189519460208601968888528b870152166060850152608084015260a083015260c082015260c08152610d0b81610aca565b51902003610d9457949392919080945b808610610d2c575050505050501490565b909192939495600190610d408884896108a3565b3580821015610d725785519087820192835286820152858152610d6281610afc565b5190205b96019493929190610d1b565b9085519087820192835286820152858152610d8c81610afc565b519020610d66565b5094505050505090565b5050505050505094505050505090565b50505050505050509450505050509056fea26469706673582212204f94350399eca4b1984bcd7d1844e48915aa0a51469c0f4f0b8088a1ea4031d864736f6c63430008180033","opcodes":"PUSH1 0x80 DUP1 PUSH1 0x40 MSTORE CALLVALUE PUSH2 0x3A JUMPI PUSH1 0x1 PUSH1 0x0 DUP2 SWAP1 SSTORE DUP1 SLOAD PUSH1 0x1 PUSH1 0x1 PUSH1 0xA8 SHL SUB NOT AND CALLER PUSH1 0x8 SHL PUSH2 0x100 PUSH1 0x1 PUSH1 0xA8 SHL SUB AND OR SWAP1 SSTORE PUSH2 0xDF5 SWAP1 DUP2 PUSH2 0x40 DUP3 CODECOPY RETURN JUMPDEST PUSH1 0x0 DUP1 REVERT INVALID PUSH1 0x40 PUSH1 0x80 DUP2 MSTORE PUSH1 0x4 SWAP1 DUP2 CALLDATASIZE LT ISZERO PUSH2 0x15 JUMPI PUSH1 0x0 DUP1 REVERT JUMPDEST PUSH1 0x0 DUP1 CALLDATALOAD PUSH1 0xE0 SHR DUP1 PUSH4 0x14220501 EQ PUSH2 0x719 JUMPI DUP1 PUSH4 0x232ACF5E EQ PUSH2 0x6EC JUMPI DUP1 PUSH4 0x2D9FA06F EQ PUSH2 0x5D1 JUMPI DUP1 PUSH4 0x372B102D EQ PUSH2 0x6AF JUMPI DUP1 PUSH4 0x3F4BA83A EQ PUSH2 0x609 JUMPI DUP1 PUSH4 0x4BF04C73 EQ PUSH2 0x5D1 JUMPI DUP1 PUSH4 0x53739410 EQ PUSH2 0x575 JUMPI DUP1 PUSH4 0x5C975ABB EQ PUSH2 0x551 JUMPI DUP1 PUSH4 0x8456CB59 EQ PUSH2 0x4AD JUMPI DUP1 PUSH4 0x8DA5CB5B EQ PUSH2 0x47C JUMPI DUP1 PUSH4 0x96F16C17 EQ PUSH2 0x388 JUMPI DUP1 PUSH4 0xAFA6A1CF EQ PUSH2 0x326 JUMPI DUP1 PUSH4 0xBE2CA9D0 EQ PUSH2 0x251 JUMPI DUP1 PUSH4 0xF2FDE38B EQ PUSH2 0x1B6 JUMPI PUSH4 0xF53DA7CD EQ PUSH2 0xC5 JUMPI PUSH1 0x0 DUP1 REVERT JUMPDEST CALLVALUE PUSH2 0x1B3 JUMPI PUSH1 0xC0 CALLDATASIZE PUSH1 0x3 NOT ADD SLT PUSH2 0x1B3 JUMPI PUSH8 0xFFFFFFFFFFFFFFFF PUSH1 0x24 CALLDATALOAD DUP2 DUP2 GT PUSH2 0x1AF JUMPI PUSH2 0xF6 SWAP1 CALLDATASIZE SWAP1 DUP7 ADD PUSH2 0x7D5 JUMP JUMPDEST PUSH2 0xFE PUSH2 0x7BF JUMP JUMPDEST SWAP1 PUSH1 0x64 CALLDATALOAD DUP5 DUP2 GT PUSH2 0x1AB JUMPI CALLDATASIZE PUSH1 0x23 DUP3 ADD SLT ISZERO PUSH2 0x1AB JUMPI DUP1 DUP9 ADD CALLDATALOAD DUP6 DUP2 GT PUSH2 0x1A7 JUMPI CALLDATASIZE PUSH1 0x24 DUP3 DUP5 ADD ADD GT PUSH2 0x1A7 JUMPI PUSH2 0x133 PUSH2 0x806 JUMP JUMPDEST SWAP6 PUSH2 0x13C PUSH2 0x81D JUMP JUMPDEST SWAP8 DUP10 MLOAD DUP4 DUP2 SWAP5 PUSH1 0x24 PUSH1 0x20 DUP5 ADD SWAP8 ADD DUP8 CALLDATACOPY DUP2 ADD DUP3 PUSH1 0x20 DUP3 ADD MSTORE SUB DUP1 DUP5 MSTORE PUSH1 0x3F PUSH1 0x1F NOT SWAP2 ADD AND DUP4 ADD SWAP2 DUP4 DUP4 LT SWAP1 DUP4 GT OR PUSH2 0x194 JUMPI POP SWAP2 PUSH1 0x20 SWAP10 SWAP4 SWAP2 PUSH2 0x18B SWAP9 SWAP8 SWAP7 SWAP6 SWAP4 DUP11 MSTORE MLOAD SWAP1 KECCAK256 SWAP4 CALLER SWAP4 CALLDATALOAD PUSH2 0xB18 JUMP JUMPDEST SWAP1 MLOAD SWAP1 ISZERO ISZERO DUP2 MSTORE RETURN JUMPDEST PUSH4 0x4E487B71 PUSH1 0xE0 SHL DUP2 MSTORE PUSH1 0x41 DUP12 MSTORE PUSH1 0x24 SWAP1 REVERT JUMPDEST DUP7 DUP1 REVERT JUMPDEST DUP6 DUP1 REVERT JUMPDEST DUP3 DUP1 REVERT JUMPDEST DUP1 REVERT JUMPDEST POP SWAP2 CALLVALUE PUSH2 0x1AF JUMPI PUSH1 0x20 CALLDATASIZE PUSH1 0x3 NOT ADD SLT PUSH2 0x1AF JUMPI PUSH2 0x1D1 PUSH2 0x7A4 JUMP JUMPDEST PUSH1 0x1 SLOAD SWAP3 SWAP1 SWAP2 SWAP1 PUSH1 0x1 PUSH1 0x1 PUSH1 0xA0 SHL SUB PUSH2 0x1F1 CALLER PUSH1 0x8 DUP8 SWAP1 SHR DUP4 AND EQ PUSH2 0x86A JUMP JUMPDEST DUP4 AND ISZERO PUSH2 0x21E JUMPI POP POP PUSH2 0x100 PUSH1 0x1 PUSH1 0xA8 SHL SUB NOT SWAP1 SWAP2 AND PUSH1 0x8 SWAP2 SWAP1 SWAP2 SHL PUSH2 0x100 PUSH1 0x1 PUSH1 0xA8 SHL SUB AND OR PUSH1 0x1 SSTORE DUP1 RETURN JUMPDEST SWAP1 PUSH1 0x20 PUSH1 0x64 SWAP3 MLOAD SWAP2 PUSH3 0x461BCD PUSH1 0xE5 SHL DUP4 MSTORE DUP3 ADD MSTORE PUSH1 0xD PUSH1 0x24 DUP3 ADD MSTORE PUSH13 0x24B73B30B634B21037BBB732B9 PUSH1 0x99 SHL PUSH1 0x44 DUP3 ADD MSTORE REVERT JUMPDEST POP SWAP2 SWAP1 CALLVALUE PUSH2 0x1AF JUMPI DUP1 PUSH1 0x3 NOT CALLDATASIZE ADD SLT PUSH2 0x1AF JUMPI DUP2 CALLDATALOAD SWAP2 PUSH1 0x24 CALLDATALOAD PUSH1 0x1 PUSH1 0x1 PUSH1 0xA0 SHL SUB DUP2 DUP2 AND SWAP2 DUP3 SWAP1 SUB PUSH2 0x1AB JUMPI PUSH2 0x291 SWAP2 CALLER EQ SWAP1 DUP2 ISZERO PUSH2 0x315 JUMPI JUMPDEST POP PUSH2 0x82D JUMP JUMPDEST DUP3 DUP5 MSTORE PUSH1 0x3 PUSH1 0x20 MSTORE PUSH1 0xFF DUP3 DUP6 KECCAK256 SLOAD AND PUSH2 0x2E1 JUMPI POP DUP2 DUP4 MSTORE PUSH1 0x3 PUSH1 0x20 MSTORE DUP3 KECCAK256 DUP1 SLOAD PUSH1 0xFF NOT AND PUSH1 0x1 OR SWAP1 SSTORE PUSH32 0x6EB24CE38EB0F7D1E3B4291D5543C7286F02BE3DAED061B0F7EB6491213DEB21 DUP3 DUP1 LOG2 DUP1 RETURN JUMPDEST PUSH1 0x20 PUSH1 0x64 SWAP3 MLOAD SWAP2 PUSH3 0x461BCD PUSH1 0xE5 SHL DUP4 MSTORE DUP3 ADD MSTORE PUSH1 0xF PUSH1 0x24 DUP3 ADD MSTORE PUSH15 0x105B1C9958591E481C995D9BDAD959 PUSH1 0x8A SHL PUSH1 0x44 DUP3 ADD MSTORE REVERT JUMPDEST SWAP1 POP PUSH1 0x1 SLOAD PUSH1 0x8 SHR AND CALLER EQ CODESIZE PUSH2 0x28B JUMP JUMPDEST POP CALLVALUE PUSH2 0x1B3 JUMPI PUSH1 0xC0 CALLDATASIZE PUSH1 0x3 NOT ADD SLT PUSH2 0x1B3 JUMPI PUSH1 0x24 CALLDATALOAD SWAP1 PUSH8 0xFFFFFFFFFFFFFFFF DUP3 GT PUSH2 0x1B3 JUMPI POP PUSH1 0x20 SWAP3 PUSH2 0x35F PUSH2 0x18B SWAP3 CALLDATASIZE SWAP1 DUP4 ADD PUSH2 0x7D5 JUMP JUMPDEST SWAP2 SWAP1 PUSH2 0x369 PUSH2 0x7BF JUMP JUMPDEST SWAP2 PUSH2 0x372 PUSH2 0x806 JUMP JUMPDEST SWAP3 PUSH2 0x37B PUSH2 0x81D JUMP JUMPDEST SWAP5 PUSH1 0x64 CALLDATALOAD SWAP4 CALLER SWAP4 CALLDATALOAD PUSH2 0xB18 JUMP JUMPDEST POP SWAP2 CALLVALUE PUSH2 0x1AF JUMPI PUSH1 0xE0 CALLDATASIZE PUSH1 0x3 NOT ADD SLT PUSH2 0x1AF JUMPI PUSH8 0xFFFFFFFFFFFFFFFF DUP2 CALLDATALOAD DUP2 DUP2 GT PUSH2 0x478 JUMPI PUSH2 0x3BA SWAP1 CALLDATASIZE SWAP1 DUP5 ADD PUSH2 0x7D5 JUMP JUMPDEST SWAP5 SWAP1 SWAP3 PUSH1 0x24 CALLDATALOAD DUP4 DUP2 GT PUSH2 0x1AF JUMPI PUSH2 0x3D4 SWAP1 CALLDATASIZE SWAP1 DUP4 ADD PUSH2 0x7D5 JUMP JUMPDEST PUSH1 0x44 SWAP3 SWAP2 SWAP3 CALLDATALOAD DUP6 DUP2 GT PUSH2 0x478 JUMPI PUSH2 0x3EE SWAP1 CALLDATASIZE SWAP1 DUP5 ADD PUSH2 0x7D5 JUMP JUMPDEST PUSH1 0x64 SWAP3 SWAP2 SWAP3 CALLDATALOAD DUP8 DUP2 GT PUSH2 0x1A7 JUMPI PUSH2 0x408 SWAP1 CALLDATASIZE SWAP1 DUP7 ADD PUSH2 0x7D5 JUMP JUMPDEST SWAP4 SWAP1 SWAP3 PUSH1 0x84 CALLDATALOAD DUP10 DUP2 GT PUSH2 0x474 JUMPI PUSH2 0x422 SWAP1 CALLDATASIZE SWAP1 DUP9 ADD PUSH2 0x7D5 JUMP JUMPDEST SWAP8 SWAP1 SWAP7 PUSH1 0xA4 CALLDATALOAD DUP12 DUP2 GT PUSH2 0x470 JUMPI PUSH2 0x43C SWAP1 CALLDATASIZE SWAP1 DUP4 ADD PUSH2 0x7D5 JUMP JUMPDEST SWAP12 SWAP1 SWAP11 PUSH1 0xC4 CALLDATALOAD SWAP2 DUP3 GT PUSH2 0x1B3 JUMPI POP SWAP2 PUSH2 0x468 PUSH1 0x20 SWAP16 SWAP13 SWAP11 SWAP9 SWAP7 SWAP5 SWAP3 PUSH2 0x18B SWAP15 SWAP13 SWAP11 SWAP9 SWAP7 SWAP5 CALLDATASIZE SWAP2 ADD PUSH2 0x7D5 JUMP JUMPDEST SWAP13 SWAP1 SWAP12 PUSH2 0x8DD JUMP JUMPDEST DUP11 DUP1 REVERT JUMPDEST DUP9 DUP1 REVERT JUMPDEST DUP5 DUP1 REVERT JUMPDEST POP SWAP1 CALLVALUE PUSH2 0x4A9 JUMPI DUP2 PUSH1 0x3 NOT CALLDATASIZE ADD SLT PUSH2 0x4A9 JUMPI PUSH1 0x1 SLOAD SWAP1 MLOAD PUSH1 0x8 SWAP2 SWAP1 SWAP2 SHR PUSH1 0x1 PUSH1 0x1 PUSH1 0xA0 SHL SUB AND DUP2 MSTORE PUSH1 0x20 SWAP1 RETURN JUMPDEST POP DUP1 REVERT JUMPDEST POP SWAP2 CALLVALUE PUSH2 0x1AF JUMPI DUP3 PUSH1 0x3 NOT CALLDATASIZE ADD SLT PUSH2 0x1AF JUMPI PUSH1 0x1 SLOAD SWAP1 PUSH2 0x4DB CALLER PUSH1 0x8 DUP5 SWAP1 SHR PUSH1 0x1 PUSH1 0x1 PUSH1 0xA0 SHL SUB AND EQ PUSH2 0x86A JUMP JUMPDEST PUSH1 0xFF DUP3 AND PUSH2 0x51B JUMPI POP PUSH32 0x62E78CEA01BEE320CD4E420270B5EA74000D11B0C9F74754EBDBFC544B05A258 SWAP2 PUSH1 0x1 PUSH1 0x20 SWAP3 PUSH1 0xFF NOT AND OR PUSH1 0x1 SSTORE MLOAD CALLER DUP2 MSTORE LOG1 DUP1 RETURN JUMPDEST PUSH1 0x64 SWAP1 PUSH1 0x20 DUP5 MLOAD SWAP2 PUSH3 0x461BCD PUSH1 0xE5 SHL DUP4 MSTORE DUP3 ADD MSTORE PUSH1 0x10 PUSH1 0x24 DUP3 ADD MSTORE PUSH16 0x14185D5CD8589B194E881C185D5CD959 PUSH1 0x82 SHL PUSH1 0x44 DUP3 ADD MSTORE REVERT JUMPDEST POP SWAP1 CALLVALUE PUSH2 0x4A9 JUMPI DUP2 PUSH1 0x3 NOT CALLDATASIZE ADD SLT PUSH2 0x4A9 JUMPI PUSH1 0x20 SWAP1 PUSH1 0xFF PUSH1 0x1 SLOAD AND SWAP1 MLOAD SWAP1 ISZERO ISZERO DUP2 MSTORE RETURN JUMPDEST POP SWAP2 SWAP1 CALLVALUE PUSH2 0x1AF JUMPI DUP1 PUSH1 0x3 NOT CALLDATASIZE ADD SLT PUSH2 0x1AF JUMPI PUSH2 0x590 PUSH2 0x7A4 JUMP JUMPDEST SWAP2 PUSH1 0x24 CALLDATALOAD SWAP3 DUP4 ISZERO ISZERO DUP1 SWAP5 SUB PUSH2 0x478 JUMPI PUSH1 0x1 DUP1 PUSH1 0xA0 SHL SUB SWAP1 PUSH2 0x5B9 DUP3 PUSH1 0x1 SLOAD PUSH1 0x8 SHR AND CALLER EQ PUSH2 0x86A JUMP JUMPDEST AND DUP5 MSTORE PUSH1 0x20 MSTORE DUP3 KECCAK256 SWAP1 PUSH1 0xFF DUP1 NOT DUP4 SLOAD AND SWAP2 AND OR SWAP1 SSTORE DUP1 RETURN JUMPDEST POP SWAP1 CALLVALUE PUSH2 0x4A9 JUMPI PUSH1 0x20 CALLDATASIZE PUSH1 0x3 NOT ADD SLT PUSH2 0x4A9 JUMPI PUSH1 0x20 SWAP2 DUP2 SWAP1 PUSH1 0x1 PUSH1 0x1 PUSH1 0xA0 SHL SUB PUSH2 0x5F9 PUSH2 0x7A4 JUMP JUMPDEST AND DUP2 MSTORE PUSH1 0x2 DUP5 MSTORE KECCAK256 SLOAD SWAP1 MLOAD SWAP1 DUP2 MSTORE RETURN JUMPDEST POP SWAP2 CALLVALUE PUSH2 0x1AF JUMPI DUP3 PUSH1 0x3 NOT CALLDATASIZE ADD SLT PUSH2 0x1AF JUMPI PUSH1 0x1 SLOAD SWAP1 PUSH2 0x637 CALLER PUSH1 0x8 DUP5 SWAP1 SHR PUSH1 0x1 PUSH1 0x1 PUSH1 0xA0 SHL SUB AND EQ PUSH2 0x86A JUMP JUMPDEST PUSH1 0xFF DUP3 AND ISZERO PUSH2 0x675 JUMPI POP PUSH1 0xFF NOT AND PUSH1 0x1 SSTORE MLOAD CALLER DUP2 MSTORE PUSH32 0x5DB9EE0A495BF2E6FF9C91A7834C1BA4FDD244A5E8AA4E537BD38AEAE4B073AA SWAP1 PUSH1 0x20 SWAP1 LOG1 DUP1 RETURN JUMPDEST PUSH1 0x64 SWAP1 PUSH1 0x20 DUP5 MLOAD SWAP2 PUSH3 0x461BCD PUSH1 0xE5 SHL DUP4 MSTORE DUP3 ADD MSTORE PUSH1 0x14 PUSH1 0x24 DUP3 ADD MSTORE PUSH20 0x14185D5CD8589B194E881B9BDD081C185D5CD959 PUSH1 0x62 SHL PUSH1 0x44 DUP3 ADD MSTORE REVERT JUMPDEST POP SWAP2 CALLVALUE PUSH2 0x1AF JUMPI PUSH1 0x20 CALLDATASIZE PUSH1 0x3 NOT ADD SLT PUSH2 0x1AF JUMPI PUSH1 0x20 SWAP3 PUSH1 0xFF SWAP2 DUP4 SWAP2 SWAP1 PUSH1 0x1 PUSH1 0x1 PUSH1 0xA0 SHL SUB PUSH2 0x6DB PUSH2 0x7A4 JUMP JUMPDEST AND DUP3 MSTORE DUP6 MSTORE KECCAK256 SLOAD AND SWAP1 MLOAD SWAP1 ISZERO ISZERO DUP2 MSTORE RETURN JUMPDEST POP SWAP2 CALLVALUE PUSH2 0x1AF JUMPI PUSH1 0x20 CALLDATASIZE PUSH1 0x3 NOT ADD SLT PUSH2 0x1AF JUMPI DUP2 PUSH1 0x20 SWAP4 PUSH1 0xFF SWAP3 CALLDATALOAD DUP2 MSTORE PUSH1 0x3 DUP6 MSTORE KECCAK256 SLOAD AND SWAP1 MLOAD SWAP1 ISZERO ISZERO DUP2 MSTORE RETURN JUMPDEST POP SWAP2 SWAP1 CALLVALUE PUSH2 0x1AF JUMPI DUP1 PUSH1 0x3 NOT CALLDATASIZE ADD SLT PUSH2 0x1AF JUMPI PUSH1 0x20 PUSH32 0xEDA38B4C19D200D522D6CAFB61691A66A8D392081E10536A96529FE56CE5269C SWAP2 PUSH2 0x758 PUSH2 0x7A4 JUMP JUMPDEST PUSH1 0x1 PUSH1 0x1 PUSH1 0xA0 SHL SUB AND SWAP4 PUSH1 0x24 CALLDATALOAD SWAP2 SWAP1 CALLER DUP7 EQ DUP1 ISZERO PUSH2 0x78F JUMPI JUMPDEST PUSH2 0x77B SWAP2 POP PUSH2 0x82D JUMP JUMPDEST DUP5 DUP7 MSTORE PUSH1 0x2 DUP4 MSTORE DUP2 DUP2 DUP8 KECCAK256 SSTORE MLOAD SWAP1 DUP2 MSTORE LOG2 DUP1 RETURN JUMPDEST POP CALLER DUP8 MSTORE DUP4 MSTORE PUSH2 0x77B PUSH1 0xFF DUP3 DUP9 KECCAK256 SLOAD AND PUSH2 0x771 JUMP JUMPDEST PUSH1 0x4 CALLDATALOAD SWAP1 PUSH1 0x1 PUSH1 0x1 PUSH1 0xA0 SHL SUB DUP3 AND DUP3 SUB PUSH2 0x7BA JUMPI JUMP JUMPDEST PUSH1 0x0 DUP1 REVERT JUMPDEST PUSH1 0x44 CALLDATALOAD SWAP1 PUSH1 0x1 PUSH1 0x1 PUSH1 0xA0 SHL SUB DUP3 AND DUP3 SUB PUSH2 0x7BA JUMPI JUMP JUMPDEST SWAP2 DUP2 PUSH1 0x1F DUP5 ADD SLT ISZERO PUSH2 0x7BA JUMPI DUP3 CALLDATALOAD SWAP2 PUSH8 0xFFFFFFFFFFFFFFFF DUP4 GT PUSH2 0x7BA JUMPI PUSH1 0x20 DUP1 DUP6 ADD SWAP5 DUP5 PUSH1 0x5 SHL ADD ADD GT PUSH2 0x7BA JUMPI JUMP JUMPDEST PUSH1 0x84 CALLDATALOAD SWAP1 PUSH8 0xFFFFFFFFFFFFFFFF DUP3 AND DUP3 SUB PUSH2 0x7BA JUMPI JUMP JUMPDEST PUSH1 0xA4 CALLDATALOAD SWAP1 PUSH1 0xFF DUP3 AND DUP3 SUB PUSH2 0x7BA JUMPI JUMP JUMPDEST ISZERO PUSH2 0x834 JUMPI JUMP JUMPDEST PUSH1 0x40 MLOAD PUSH3 0x461BCD PUSH1 0xE5 SHL DUP2 MSTORE PUSH1 0x20 PUSH1 0x4 DUP3 ADD MSTORE PUSH1 0xE PUSH1 0x24 DUP3 ADD MSTORE PUSH14 0x139BDD08185D5D1A1BDC9A5E9959 PUSH1 0x92 SHL PUSH1 0x44 DUP3 ADD MSTORE PUSH1 0x64 SWAP1 REVERT JUMPDEST ISZERO PUSH2 0x871 JUMPI JUMP JUMPDEST PUSH1 0x40 MLOAD PUSH3 0x461BCD PUSH1 0xE5 SHL DUP2 MSTORE PUSH1 0x20 PUSH1 0x4 DUP3 ADD MSTORE PUSH1 0xA PUSH1 0x24 DUP3 ADD MSTORE PUSH10 0x27B7363C9037BBB732B9 PUSH1 0xB1 SHL PUSH1 0x44 DUP3 ADD MSTORE PUSH1 0x64 SWAP1 REVERT JUMPDEST SWAP2 SWAP1 DUP2 LT ISZERO PUSH2 0x8B3 JUMPI PUSH1 0x5 SHL ADD SWAP1 JUMP JUMPDEST PUSH4 0x4E487B71 PUSH1 0xE0 SHL PUSH1 0x0 MSTORE PUSH1 0x32 PUSH1 0x4 MSTORE PUSH1 0x24 PUSH1 0x0 REVERT JUMPDEST CALLDATALOAD PUSH1 0x1 PUSH1 0x1 PUSH1 0xA0 SHL SUB DUP2 AND DUP2 SUB PUSH2 0x7BA JUMPI SWAP1 JUMP JUMPDEST SWAP3 SWAP7 SWAP9 SWAP6 SWAP10 SWAP4 SWAP12 SWAP13 SWAP1 SWAP13 SWAP11 SWAP5 SWAP11 SWAP8 SWAP2 SWAP8 DUP14 ISZERO PUSH2 0xA97 JUMPI PUSH1 0x0 SWAP8 DUP15 JUMPDEST DUP10 LT PUSH2 0x912 JUMPI POP POP POP POP POP POP POP POP POP POP POP POP POP POP POP PUSH1 0x1 SWAP1 JUMP JUMPDEST PUSH1 0x0 NOT DUP16 ADD DUP16 DUP2 GT PUSH2 0xA6A JUMPI DUP16 SWAP1 DUP11 DUP15 DUP15 SWAP3 DUP3 EQ PUSH1 0x0 EQ PUSH2 0xA80 JUMPI POP PUSH2 0x93C SWAP2 POP CALLER SWAP3 JUMPDEST DUP9 PUSH2 0x8A3 JUMP JUMPDEST CALLDATALOAD DUP3 DUP12 LT ISZERO PUSH2 0x8B3 JUMPI DUP16 DUP16 SWAP3 DUP13 SWAP2 DUP15 PUSH1 0x5 SWAP4 DUP5 SHL DUP2 ADD CALLDATALOAD SWAP1 PUSH1 0x1E NOT SWAP1 CALLDATASIZE SUB ADD DUP2 SLT ISZERO PUSH2 0x7BA JUMPI DUP16 ADD SWAP2 DUP3 CALLDATALOAD SWAP6 PUSH8 0xFFFFFFFFFFFFFFFF SWAP4 DUP5 DUP9 GT PUSH2 0x7BA JUMPI PUSH1 0x20 DUP9 SWAP2 ADD SWAP6 SHL CALLDATASIZE SUB DUP6 SGT PUSH2 0x7BA JUMPI DUP16 DUP16 SWAP1 DUP16 DUP16 SWAP6 DUP3 DUP16 SWAP6 SWAP5 PUSH2 0x9AB PUSH2 0x9A6 DUP4 PUSH2 0x9B8 SWAP9 PUSH2 0x9B1 SWAP7 PUSH2 0x8A3 JUMP JUMPDEST PUSH2 0x8C9 JUMP JUMPDEST SWAP7 PUSH2 0x8A3 JUMP JUMPDEST CALLDATALOAD SWAP6 PUSH2 0x8A3 JUMP JUMPDEST CALLDATALOAD SWAP4 DUP5 AND DUP5 SUB PUSH2 0x7BA JUMPI DUP16 SWAP7 PUSH2 0x9CF DUP9 DUP13 DUP13 PUSH2 0x8A3 JUMP JUMPDEST CALLDATALOAD SWAP6 PUSH1 0xFF DUP1 DUP9 AND DUP9 SUB PUSH2 0x7BA JUMPI PUSH1 0x1 DUP11 ADD DUP1 SWAP11 GT PUSH2 0xA6A JUMPI PUSH2 0x9F2 SWAP10 AND SWAP8 PUSH2 0xC6E JUMP JUMPDEST ISZERO PUSH2 0xA16 JUMPI DUP14 DUP10 ISZERO ISZERO DUP11 DUP16 DUP3 PUSH2 0xA2A JUMPI JUMPDEST POP POP SWAP1 POP PUSH2 0xA16 JUMPI PUSH1 0x1 DUP16 SWAP10 ADD SWAP9 PUSH2 0x8F8 JUMP JUMPDEST POP POP POP POP POP POP POP POP POP POP POP POP POP POP POP PUSH1 0x0 SWAP1 JUMP JUMPDEST PUSH2 0x9A6 SWAP3 POP PUSH2 0xA38 SWAP4 PUSH2 0x8A3 JUMP JUMPDEST PUSH1 0x0 NOT DUP11 ADD DUP11 DUP2 GT PUSH2 0xA6A JUMPI DUP14 PUSH2 0xA5C PUSH2 0x9A6 DUP16 SWAP4 PUSH1 0x1 DUP1 PUSH1 0xA0 SHL SUB SWAP5 DUP6 SWAP5 PUSH2 0x8A3 JUMP JUMPDEST AND SWAP2 AND EQ ISZERO DUP15 SWAP1 DUP11 DUP16 PUSH2 0xA03 JUMP JUMPDEST PUSH4 0x4E487B71 PUSH1 0xE0 SHL PUSH1 0x0 MSTORE PUSH1 0x11 PUSH1 0x4 MSTORE PUSH1 0x24 PUSH1 0x0 REVERT JUMPDEST PUSH2 0x9A6 DUP3 PUSH2 0x93C SWAP5 PUSH2 0xA91 SWAP4 PUSH2 0x8A3 JUMP JUMPDEST SWAP3 PUSH2 0x936 JUMP JUMPDEST PUSH1 0x40 MLOAD PUSH3 0x461BCD PUSH1 0xE5 SHL DUP2 MSTORE PUSH1 0x20 PUSH1 0x4 DUP3 ADD MSTORE PUSH1 0xB PUSH1 0x24 DUP3 ADD MSTORE PUSH11 0x22B6B83A3C9031B430B4B7 PUSH1 0xA9 SHL PUSH1 0x44 DUP3 ADD MSTORE PUSH1 0x64 SWAP1 REVERT JUMPDEST PUSH1 0xE0 DUP2 ADD SWAP1 DUP2 LT PUSH8 0xFFFFFFFFFFFFFFFF DUP3 GT OR PUSH2 0xAE6 JUMPI PUSH1 0x40 MSTORE JUMP JUMPDEST PUSH4 0x4E487B71 PUSH1 0xE0 SHL PUSH1 0x0 MSTORE PUSH1 0x41 PUSH1 0x4 MSTORE PUSH1 0x24 PUSH1 0x0 REVERT JUMPDEST PUSH1 0x60 DUP2 ADD SWAP1 DUP2 LT PUSH8 0xFFFFFFFFFFFFFFFF DUP3 GT OR PUSH2 0xAE6 JUMPI PUSH1 0x40 MSTORE JUMP JUMPDEST PUSH1 0x1 PUSH1 0x1 PUSH1 0xA0 SHL SUB SWAP4 DUP5 AND PUSH1 0x0 DUP2 DUP2 MSTORE PUSH1 0x2 PUSH1 0x20 SWAP1 DUP2 MSTORE PUSH1 0x40 DUP1 DUP4 KECCAK256 SLOAD SWAP12 SWAP7 SWAP11 SWAP8 SWAP10 SWAP6 SWAP9 SWAP2 SWAP8 SWAP1 SWAP7 SWAP3 SWAP6 SWAP2 SWAP3 SWAP1 DUP13 ISZERO PUSH2 0xC5E JUMPI DUP6 DUP8 MSTORE PUSH1 0x3 PUSH1 0x20 MSTORE PUSH1 0xFF DUP9 DUP9 KECCAK256 SLOAD AND PUSH2 0xC5E JUMPI PUSH8 0xFFFFFFFFFFFFFFFF AND SWAP1 TIMESTAMP DUP3 LT PUSH2 0xC5E JUMPI PUSH1 0xFF AND SWAP2 PUSH1 0x1 SWAP11 DUP4 PUSH1 0x1 GT PUSH2 0xC4D JUMPI SWAP1 DUP7 SWAP6 SWAP5 SWAP4 SWAP3 SWAP2 DUP10 MLOAD SWAP5 PUSH1 0x20 DUP7 ADD SWAP7 DUP9 DUP9 MSTORE DUP12 DUP8 ADD MSTORE AND PUSH1 0x60 DUP6 ADD MSTORE PUSH1 0x80 DUP5 ADD MSTORE PUSH1 0xA0 DUP4 ADD MSTORE PUSH1 0xC0 DUP3 ADD MSTORE PUSH1 0xC0 DUP2 MSTORE PUSH2 0xBB7 DUP2 PUSH2 0xACA JUMP JUMPDEST MLOAD SWAP1 KECCAK256 SUB PUSH2 0xC42 JUMPI SWAP6 SWAP5 SWAP4 SWAP3 SWAP2 SWAP1 DUP1 SWAP6 JUMPDEST DUP1 DUP8 LT PUSH2 0xBDA JUMPI POP POP POP POP POP POP POP EQ SWAP1 JUMP JUMPDEST SWAP1 SWAP2 SWAP3 SWAP4 SWAP5 DUP7 SWAP8 PUSH2 0xBED DUP3 SWAP9 DUP5 DUP10 PUSH2 0x8A3 JUMP JUMPDEST CALLDATALOAD DUP1 DUP3 LT ISZERO PUSH2 0xC20 JUMPI DUP6 MLOAD SWAP1 DUP8 DUP3 ADD SWAP3 DUP4 MSTORE DUP7 DUP3 ADD MSTORE DUP6 DUP2 MSTORE PUSH2 0xC0F DUP2 PUSH2 0xAFC JUMP JUMPDEST MLOAD SWAP1 KECCAK256 JUMPDEST SWAP8 ADD SWAP6 SWAP5 SWAP4 SWAP3 SWAP2 SWAP1 PUSH2 0xBC8 JUMP JUMPDEST SWAP1 DUP6 MLOAD SWAP1 DUP8 DUP3 ADD SWAP3 DUP4 MSTORE DUP7 DUP3 ADD MSTORE DUP6 DUP2 MSTORE PUSH2 0xC3A DUP2 PUSH2 0xAFC JUMP JUMPDEST MLOAD SWAP1 KECCAK256 PUSH2 0xC13 JUMP JUMPDEST POP SWAP6 POP POP POP POP POP POP SWAP1 JUMP JUMPDEST POP POP POP POP POP POP POP SWAP6 POP POP POP POP POP POP SWAP1 JUMP JUMPDEST POP POP POP POP POP POP SWAP6 POP POP POP POP POP POP SWAP1 JUMP JUMPDEST SWAP2 SWAP7 SWAP1 SWAP6 SWAP8 SWAP4 SWAP5 SWAP3 SWAP5 PUSH1 0x1 DUP1 PUSH1 0xA0 SHL SUB DUP1 SWAP7 AND SWAP2 PUSH1 0x0 SWAP5 DUP4 DUP7 MSTORE PUSH1 0x20 SWAP8 PUSH1 0x2 PUSH1 0x20 MSTORE PUSH1 0x40 SWAP8 DUP9 DUP9 KECCAK256 SLOAD SWAP13 DUP14 ISZERO PUSH2 0xDAE JUMPI DUP8 DUP10 MSTORE PUSH1 0x3 PUSH1 0x20 MSTORE PUSH1 0xFF DUP11 DUP11 KECCAK256 SLOAD AND PUSH2 0xDAE JUMPI PUSH8 0xFFFFFFFFFFFFFFFF AND SWAP4 TIMESTAMP DUP6 LT PUSH2 0xDAE JUMPI PUSH1 0xFF SWAP1 DUP2 AND SWAP5 SWAP4 SWAP3 SWAP2 AND DUP5 LT PUSH2 0xD9E JUMPI SWAP1 DUP7 SWAP6 SWAP5 SWAP4 SWAP3 SWAP2 DUP10 MLOAD SWAP5 PUSH1 0x20 DUP7 ADD SWAP7 DUP9 DUP9 MSTORE DUP12 DUP8 ADD MSTORE AND PUSH1 0x60 DUP6 ADD MSTORE PUSH1 0x80 DUP5 ADD MSTORE PUSH1 0xA0 DUP4 ADD MSTORE PUSH1 0xC0 DUP3 ADD MSTORE PUSH1 0xC0 DUP2 MSTORE PUSH2 0xD0B DUP2 PUSH2 0xACA JUMP JUMPDEST MLOAD SWAP1 KECCAK256 SUB PUSH2 0xD94 JUMPI SWAP5 SWAP4 SWAP3 SWAP2 SWAP1 DUP1 SWAP5 JUMPDEST DUP1 DUP7 LT PUSH2 0xD2C JUMPI POP POP POP POP POP POP EQ SWAP1 JUMP JUMPDEST SWAP1 SWAP2 SWAP3 SWAP4 SWAP5 SWAP6 PUSH1 0x1 SWAP1 PUSH2 0xD40 DUP9 DUP5 DUP10 PUSH2 0x8A3 JUMP JUMPDEST CALLDATALOAD DUP1 DUP3 LT ISZERO PUSH2 0xD72 JUMPI DUP6 MLOAD SWAP1 DUP8 DUP3 ADD SWAP3 DUP4 MSTORE DUP7 DUP3 ADD MSTORE DUP6 DUP2 MSTORE PUSH2 0xD62 DUP2 PUSH2 0xAFC JUMP JUMPDEST MLOAD SWAP1 KECCAK256 JUMPDEST SWAP7 ADD SWAP5 SWAP4 SWAP3 SWAP2 SWAP1 PUSH2 0xD1B JUMP JUMPDEST SWAP1 DUP6 MLOAD SWAP1 DUP8 DUP3 ADD SWAP3 DUP4 MSTORE DUP7 DUP3 ADD MSTORE DUP6 DUP2 MSTORE PUSH2 0xD8C DUP2 PUSH2 0xAFC JUMP JUMPDEST MLOAD SWAP1 KECCAK256 PUSH2 0xD66 JUMP JUMPDEST POP SWAP5 POP POP POP POP POP SWAP1 JUMP JUMPDEST POP POP POP POP POP POP POP SWAP5 POP POP POP POP POP SWAP1 JUMP JUMPDEST POP POP POP POP POP POP POP POP SWAP5 POP POP POP POP POP SWAP1 JUMP INVALID LOG2 PUSH5 0x6970667358 0x22 SLT KECCAK256 0x4F SWAP5 CALLDATALOAD SUB SWAP10 0xEC LOG4 0xB1 SWAP9 0x4B 0xCD PUSH30 0x1844E48915AA0A51469C0F4F0B8088A1EA4031D864736F6C634300081800 CALLER "},"methodIdentifiers":{"delegationRoots(address)":"4bf04c73","getDelegationRoot(address)":"2d9fa06f","owner()":"8da5cb5b","pause()":"8456cb59","paused()":"5c975abb","revokeDelegation(bytes32,address)":"be2ca9d0","revokedDelegations(bytes32)":"232acf5e","rootUpdaters(address)":"372b102d","setRootUpdater(address,bool)":"53739410","transferOwnership(address)":"f2fde38b","unpause()":"3f4ba83a","updateDelegationRoot(address,bytes32)":"14220501","verifyDelegation(bytes32,bytes32[],address,bytes32,uint64,uint8)":"afa6a1cf","verifyDelegationChain(bytes32[],bytes32[][],address[],address[],bytes32[],uint64[],uint8[])":"96f16c17","verifyDelegationForAction(bytes32,bytes32[],address,string,uint64,uint8)":"f53da7cd"}}}}}