{"src/SessionManager.sol":{"SessionManager":{"abi":[{"inputs":[{"internalType":"address","name":"_verifier","type":"address"},{"internalType":"address","name":"_registry","type":"address"}],"stateMutability":"nonpayable","type":"constructor"},{"anonymous":false,"inputs":[{"indexed":true,"internalType":"bytes32","name":"sessionId","type":"bytes32"},{"indexed":false,"internalType":"uint64","name":"newDay","type":"uint64"}],"name":"DailyLimitsReset","type":"event"},{"anonymous":false,"inputs":[{"indexed":true,"internalType":"bytes32","name":"sessionId","type":"bytes32"},{"indexed":true,"internalType":"address","name":"sessionKey","type":"address"},{"indexed":false,"internalType":"uint256","name":"dailySpendLimit","type":"uint256"},{"indexed":false,"internalType":"uint256","name":"dailyTxLimit","type":"uint256"},{"indexed":false,"internalType":"uint64","name":"expiry","type":"uint64"}],"name":"LightSessionCreated","type":"event"},{"anonymous":false,"inputs":[{"indexed":true,"internalType":"bytes32","name":"sessionId","type":"bytes32"}],"name":"LightSessionRevoked","type":"event"},{"anonymous":false,"inputs":[{"indexed":true,"internalType":"bytes32","name":"sessionId","type":"bytes32"},{"indexed":false,"internalType":"uint256","name":"value","type":"uint256"},{"indexed":false,"internalType":"uint256","name":"newDailySpend","type":"uint256"}],"name":"LightSessionUsed","type":"event"},{"anonymous":false,"inputs":[{"indexed":true,"internalType":"bytes32","name":"sessionId","type":"bytes32"},{"indexed":true,"internalType":"address","name":"sessionKey","type":"address"},{"indexed":false,"internalType":"uint64","name":"expiry","type":"uint64"},{"indexed":false,"internalType":"uint128","name":"maxValue","type":"uint128"}],"name":"SessionCreated","type":"event"},{"anonymous":false,"inputs":[{"indexed":true,"internalType":"bytes32","name":"sessionId","type":"bytes32"}],"name":"SessionRevoked","type":"event"},{"anonymous":false,"inputs":[{"indexed":true,"internalType":"bytes32","name":"sessionId","type":"bytes32"},{"indexed":false,"internalType":"uint256","name":"value","type":"uint256"},{"indexed":false,"internalType":"uint256","name":"totalUsed","type":"uint256"}],"name":"SessionUsed","type":"event"},{"inputs":[{"internalType":"bytes32","name":"sessionId","type":"bytes32"},{"internalType":"address","name":"sessionKey","type":"address"},{"internalType":"uint256","name":"dailySpendLimit","type":"uint256"},{"internalType":"uint256","name":"dailyTxLimit","type":"uint256"},{"internalType":"uint64","name":"expiry","type":"uint64"},{"internalType":"bytes","name":"ownerSignature","type":"bytes"}],"name":"createLightweightSession","outputs":[],"stateMutability":"nonpayable","type":"function"},{"inputs":[{"internalType":"bytes32","name":"sessionId","type":"bytes32"},{"internalType":"address","name":"sessionKey","type":"address"},{"internalType":"uint128","name":"maxValue","type":"uint128"},{"internalType":"uint64","name":"expiry","type":"uint64"},{"internalType":"bytes32","name":"nullifier","type":"bytes32"},{"internalType":"uint256[2]","name":"a","type":"uint256[2]"},{"internalType":"uint256[2][2]","name":"b","type":"uint256[2][2]"},{"internalType":"uint256[2]","name":"c","type":"uint256[2]"},{"internalType":"uint256[5]","name":"publicSignals","type":"uint256[5]"}],"name":"createSession","outputs":[],"stateMutability":"nonpayable","type":"function"},{"inputs":[{"internalType":"bytes32","name":"sessionId","type":"bytes32"}],"name":"getLightSession","outputs":[{"internalType":"address","name":"sessionKey","type":"address"},{"internalType":"uint256","name":"dailySpendLimit","type":"uint256"},{"internalType":"uint256","name":"dailyTxLimit","type":"uint256"},{"internalType":"uint256","name":"dailySpendUsed","type":"uint256"},{"internalType":"uint256","name":"dailyTxUsed","type":"uint256"},{"internalType":"uint64","name":"expiry","type":"uint64"},{"internalType":"bool","name":"revoked","type":"bool"}],"stateMutability":"view","type":"function"},{"inputs":[{"internalType":"address","name":"wallet","type":"address"}],"name":"getWalletSessions","outputs":[{"internalType":"bytes32[]","name":"","type":"bytes32[]"}],"stateMutability":"view","type":"function"},{"inputs":[{"internalType":"bytes32","name":"","type":"bytes32"}],"name":"lightSessions","outputs":[{"internalType":"address","name":"sessionKey","type":"address"},{"internalType":"uint256","name":"dailySpendLimit","type":"uint256"},{"internalType":"uint256","name":"dailyTxLimit","type":"uint256"},{"internalType":"uint256","name":"dailySpendUsed","type":"uint256"},{"internalType":"uint256","name":"dailyTxUsed","type":"uint256"},{"internalType":"uint64","name":"lastResetDay","type":"uint64"},{"internalType":"uint64","name":"expiry","type":"uint64"},{"internalType":"bool","name":"revoked","type":"bool"}],"stateMutability":"view","type":"function"},{"inputs":[],"name":"registry","outputs":[{"internalType":"contract ICredentialRegistry","name":"","type":"address"}],"stateMutability":"view","type":"function"},{"inputs":[{"internalType":"bytes32","name":"sessionId","type":"bytes32"}],"name":"revokeLightweightSession","outputs":[],"stateMutability":"nonpayable","type":"function"},{"inputs":[{"internalType":"bytes32","name":"sessionId","type":"bytes32"}],"name":"revokeSession","outputs":[],"stateMutability":"nonpayable","type":"function"},{"inputs":[{"internalType":"bytes32","name":"","type":"bytes32"}],"name":"sessions","outputs":[{"internalType":"address","name":"sessionKey","type":"address"},{"internalType":"uint256","name":"valueUsed","type":"uint256"},{"internalType":"uint256","name":"maxValue","type":"uint256"},{"internalType":"uint64","name":"expiry","type":"uint64"},{"internalType":"bool","name":"revoked","type":"bool"}],"stateMutability":"view","type":"function"},{"inputs":[{"internalType":"bytes32","name":"sessionId","type":"bytes32"},{"internalType":"address","name":"signer","type":"address"},{"internalType":"uint256","name":"value","type":"uint256"}],"name":"validateLightweightSession","outputs":[{"internalType":"bool","name":"","type":"bool"}],"stateMutability":"nonpayable","type":"function"},{"inputs":[{"internalType":"bytes32","name":"sessionId","type":"bytes32"},{"internalType":"address","name":"signer","type":"address"},{"internalType":"uint256","name":"value","type":"uint256"}],"name":"validateSession","outputs":[{"internalType":"bool","name":"","type":"bool"}],"stateMutability":"nonpayable","type":"function"},{"inputs":[],"name":"verifier","outputs":[{"internalType":"contract IVerifier","name":"","type":"address"}],"stateMutability":"view","type":"function"},{"inputs":[{"internalType":"address","name":"","type":"address"},{"internalType":"uint256","name":"","type":"uint256"}],"name":"walletSessions","outputs":[{"internalType":"bytes32","name":"","type":"bytes32"}],"stateMutability":"view","type":"function"}],"evm":{"bytecode":{"linkReferences":{},"object":"60803461009257601f6118b238819003918201601f19168301916001600160401b0383118484101761009757808492604094855283398101031261009257610052602061004b836100ad565b92016100ad565b6001600055600480546001600160a01b039384166001600160a01b031991821617909155600580549290931691161790556040516117f090816100c28239f35b600080fd5b634e487b7160e01b600052604160045260246000fd5b51906001600160a01b03821682036100925756fe608080604052600436101561001357600080fd5b600090813560e01c908162444f4b14610dd3575080630ec163f314610a1d578063186a27571461096f5780631efb10f6146109185780632b7ac3f3146108ef578063356f644d1461086b5780637b103999146108425780637dbd2832146107d75780638eb691b11461074a578063a7fed38514610650578063d00fdab614610504578063dc35e7d4146103825763f545b88b146100af57600080fd5b3461037f576100bd36611421565b909282815260209360028552604082209060018060a01b03808354166100e4811515611576565b6005840180549260ff8460801c16610348576001600160401b0394858560401c164211610311571682036102d3579088918462015180420416948581861610610260575b5050505050506003810161013d8482546115b6565b926001830154841161021b5760048301918254906001820194858311610207576002015485116101c257859055600019146101ae5750917f6710bf7c8828bf28bdddb7b45da3a29d2eca474d615fe28b47075ce7bf67e3c3939160409355825191825285820152a260405160018152f35b634e487b7160e01b81526011600452602490fd5b60405162461bcd60e51b8152600481018a9052601760248201527f4461696c79207478206c696d69742065786365656465640000000000000000006044820152606490fd5b634e487b7160e01b84526011600452602484fd5b60405162461bcd60e51b815260048101889052601a60248201527f4461696c79207370656e64206c696d69742065786365656465640000000000006044820152606490fd5b857ff27cff30b6684ae4bbc9913e70785baafa758cdfef27e76c9773a8cd5cbf9acc958960038a01558960048a01556001600160401b031916178092556040519184830193845260401c166040820152604081526102bd816114c5565b51902092604051908152a2388086818080610128565b60405162461bcd60e51b8152600481018a9052601660248201527524b73b30b634b21039b2b9b9b4b7b71039b4b3b732b960511b6044820152606490fd5b60405162461bcd60e51b8152600481018c9052600f60248201526e14d95cdcda5bdb88195e1c1a5c9959608a1b6044820152606490fd5b60405162461bcd60e51b8152600481018b9052600f60248201526e14d95cdcda5bdb881c995d9bdad959608a1b6044820152606490fd5b80fd5b503461037f5761039136611421565b908284526040602094600186522090600382015460ff8160401c166104d5576001600160401b0316421161049e5781546001600160a01b03908116911603610468576001810160026103e48483546115b6565b92015482116104325791817f8f681f2a4f6cd078b7e4cab4ae8112ef10d6b50b1511bf4915c069cf5d3b835e936001600160801b03604094169055825191825285820152a260405160018152f35b60405162461bcd60e51b815260048101869052600e60248201526d131a5b5a5d08195e18d95959195960921b6044820152606490fd5b60405162461bcd60e51b815260048101859052600e60248201526d24b73b30b634b21039b4b3b732b960911b6044820152606490fd5b60405162461bcd60e51b815260048101869052600f60248201526e14d95cdcda5bdb88115e1c1a5c9959608a1b6044820152606490fd5b60405162461bcd60e51b815260048101879052600760248201526614995d9bdad95960ca1b6044820152606490fd5b503461037f5760208060031936011261064c576004358083526002825260408320805491926001600160a01b0392831691600590610543841515611576565b019283549261055860ff8560801c1615611538565b33149081156105e3575b501561059f575060ff60801b1916600160801b1790557f75603cfad1b4b830ba27b5f2a2867fc0ecde28d51b13b72816b1707b7cd4e9498280a280f35b6064906040519062461bcd60e51b82526004820152601860248201527f4e6f7420617574686f72697a656420746f207265766f6b6500000000000000006044820152fd5b604051638da5cb5b60e01b815291508282600481335afa918215610641578792610612575b5016331438610562565b610633919250833d851161063a575b61062b81836114e0565b810190611519565b9038610608565b503d610621565b6040513d89823e3d90fd5b5080fd5b503461037f57602036600319011261037f5760043580825260016020526040822080546001600160a01b0316908115610713576003019081549061069a60ff8360401c1615611538565b33036106db5768ff00000000000000001916600160401b1790557fcc0f7e7f309149dce2db74723f771f7d96cad368d91763e945dc3956c4dbfb048280a280f35b60405162461bcd60e51b815260206004820152601060248201526f4f6e6c792073657373696f6e206b657960801b6044820152606490fd5b60405162461bcd60e51b815260206004820152600f60248201526e2ab735b737bbb71039b2b9b9b4b7b760891b6044820152606490fd5b503461037f57602036600319011261037f57604061010091600435815260026020522060ff60018060a01b03825416916001810154600282015491600381015460056004830154920154936001600160401b0393604051978852602088015260408701526060860152608085015280821660a08501528160401c1660c084015260801c16151560e0820152f35b503461037f57602036600319011261037f57604060a091600435815260016020522060ff600180841b03825416916001810154906003600282015491015491604051948552602085015260408401526001600160401b038116606084015260401c1615156080820152f35b503461037f578060031936011261037f576005546040516001600160a01b039091168152602090f35b503461037f57602036600319011261037f57604060e091600435815260026020522060ff60018060a01b03825416916001810154906002810154600382015490600560048401549301549360405196875260208701526040860152606085015260808401526001600160401b038160401c1660a084015260801c16151560c0820152f35b503461037f578060031936011261037f576004546040516001600160a01b039091168152602090f35b503461037f57604036600319011261037f576109326113dd565b6001600160a01b031681526003602052604081208054602435929083101561037f57602061096084846113f3565b90549060031b1c604051908152f35b503461037f5760208060031936011261064c576001600160a01b036109926113dd565b168252600381526040822060405192838383549182815201908193835284832090835b818110610a0957505050846109cb9103856114e0565b60405193838594850191818652518092526040850193925b8281106109f257505050500390f35b8351855286955093810193928101926001016109e3565b8254845292860192600192830192016109b5565b503461037f5760c036600319011261037f57600435610a3a6113c7565b90604435606435608435906001600160401b0394858316809303610dce5760a43590868211610dca5736602383011215610dca57816004013596808811610dc6573660248985010111610dc6576001600160a01b03918216978815610d8b57610aa442871161144b565b878a5260209360028552610abe8460408d20541615611488565b60405190858201928a84528b60408401528960608401528760808401528860a084015260a0835260c0830183811086821117610d115787610b6f948f92610b7797816040528251902060fc60e08401937f19457468657265756d205369676e6564204d6573736167653a0a33320000000085520152603c8152610b40816114c5565b5190209280602460405196610b5e85601f19601f86011601896114e0565b8288520183870137840101526115d9565b919091611611565b604051638da5cb5b60e01b81528481600481335afa918215610d805784918c93610d5f575b508116911603610d27576040519061010082019082821081831117610d115760058793868b968e956040528d83528183018c815260408401908b825260608501928884526040896002608089019782895260a08a019e8f8d62015180420416905260c08b019e8f5260e08b019d8e52835252209551166bffffffffffffffffffffffff60a01b865416178555516001850155516002840155516003830155516004820155019351166fffffffffffffffff00000000000000008454935160401b169160ff60801b9051151560801b169270ffffffffffffffffffffffffffffffffff191617171790553387526003815260408720805490600160401b821015610cfd5791610cd6826060969460017f6444c67754985aaf64c147c6bc7eecbe2b7b83724e5f0adb261589fe9707e3929997950181556113f3565b81549060031b9089821b91600019901b19161790556040519384528301526040820152a380f35b634e487b7160e01b89526041600452602489fd5b634e487b7160e01b600052604160045260246000fd5b60405162461bcd60e51b815260048101849052601060248201526f2737ba103bb0b63632ba1037bbb732b960811b6044820152606490fd5b82919350610d7990873d891161063a5761062b81836114e0565b9290610b9c565b6040513d8d823e3d90fd5b60405162461bcd60e51b8152602060048201526013602482015272496e76616c69642073657373696f6e206b657960681b6044820152606490fd5b8880fd5b8780fd5b600080fd5b90503461064c5761024036600319011261064c57610def6113c7565b6044356001600160801b03811681036113c357606435926001600160401b03841684036113bf573660e4116113bf5736610164116113bf57366101a4116113bf5736610244116113bf57600285541461137d5750600284556001600160a01b0382161561134a57610e6a426001600160401b0385161161144b565b600435845260016020526040842054610e8c906001600160a01b031615611488565b6101a435608435036113105760055460405163abb2efdf60e01b81526001600160a01b0390911690602081600481855afa90811561114b5786916112de575b506101c435036112a957604051636b6debf760e01b8152602081600481855afa90811561114b578691611273575b506101e4350361123657610204356001600160801b038316036111fc57610224356001600160401b038516036111c5576040516308b71ed360e21b81526084356004820152602081602481855afa90811561114b5786916111a6575b506111705760048054604080516334baeab960e01b8152926001600160a01b039092169160a4908401378160e488604483015b60028210611156575050506101a481602093604061016460c484013760a0836101048401375afa90811561114b57869161111c575b50156110e7578085913b1561064c57819060246040518094819363057cb0f560e01b835260843560048401525af180156110dc576110a6575b506001600160801b03906004358552600160205260036040862060018060a01b0385166bffffffffffffffffffffffff60a01b8254161781558383166002820155866001820155016001600160401b03851668ffffffffffffffffff198254161790556001600160401b036040519416845216602083015260018060a01b0316907f94b1ef4e34e21e2badb942118f7ae876506e3e69eac566354d868aaaabb4004d604060043592a36001815580f35b6001600160401b0381959295116110c857604052926001600160801b03610ff6565b634e487b7160e01b82526041600452602482fd5b6040513d87823e3d90fd5b60405162461bcd60e51b815260206004820152600d60248201526c24b73b30b634b210383937b7b360991b6044820152606490fd5b61113e915060203d602011611144575b61113681836114e0565b810190611501565b38610fbd565b503d61112c565b6040513d88823e3d90fd5b829350604081816001949581943701930191018492610f88565b60405162461bcd60e51b815260206004820152600e60248201526d139d5b1b1a599a595c881d5cd95960921b6044820152606490fd5b6111bf915060203d6020116111445761113681836114e0565b38610f55565b60405162461bcd60e51b815260206004820152600f60248201526e08af0e0d2e4f240dad2e6dac2e8c6d608b1b6044820152606490fd5b60405162461bcd60e51b815260206004820152601260248201527109ac2f040ecc2d8eaca40dad2e6dac2e8c6d60731b6044820152606490fd5b60405162461bcd60e51b81526020600482015260156024820152740a4caecded6cac840e4dedee840dad2e6dac2e8c6d605b1b6044820152606490fd5b90506020813d6020116112a1575b8161128e602093836114e0565b8101031261129d575138610ef9565b8580fd5b3d9150611281565b60405162461bcd60e51b815260206004820152600d60248201526c0a4dedee840dad2e6dac2e8c6d609b1b6044820152606490fd5b90506020813d602011611308575b816112f9602093836114e0565b8101031261129d575138610ecb565b3d91506112ec565b60405162461bcd60e51b815260206004820152601260248201527109cead8d8d2ccd2cae440dad2e6dac2e8c6d60731b6044820152606490fd5b60405162461bcd60e51b815260206004820152600b60248201526a496e76616c6964206b657960a81b6044820152606490fd5b62461bcd60e51b815260206004820152601f60248201527f5265656e7472616e637947756172643a207265656e7472616e742063616c6c006044820152606490fd5b8480fd5b8380fd5b602435906001600160a01b0382168203610dce57565b600435906001600160a01b0382168203610dce57565b805482101561140b5760005260206000200190600090565b634e487b7160e01b600052603260045260246000fd5b6060906003190112610dce57600435906024356001600160a01b0381168103610dce579060443590565b1561145257565b60405162461bcd60e51b815260206004820152600e60248201526d496e76616c69642065787069727960901b6044820152606490fd5b1561148f57565b60405162461bcd60e51b815260206004820152600e60248201526d53657373696f6e2065786973747360901b6044820152606490fd5b606081019081106001600160401b03821117610d1157604052565b90601f801991011681019081106001600160401b03821117610d1157604052565b90816020910312610dce57518015158103610dce5790565b90816020910312610dce57516001600160a01b0381168103610dce5790565b1561153f57565b60405162461bcd60e51b815260206004820152600f60248201526e105b1c9958591e481c995d9bdad959608a1b6044820152606490fd5b1561157d57565b60405162461bcd60e51b815260206004820152601160248201527014d95cdcda5bdb881b9bdd08199bdd5b99607a1b6044820152606490fd5b919082018092116115c357565b634e487b7160e01b600052601160045260246000fd5b90604181511460001461160757611603916020820151906060604084015193015160001a9061172b565b9091565b5050600090600290565b600581101561171557806116225750565b6001810361166f5760405162461bcd60e51b815260206004820152601860248201527f45434453413a20696e76616c6964207369676e617475726500000000000000006044820152606490fd5b600281036116bc5760405162461bcd60e51b815260206004820152601f60248201527f45434453413a20696e76616c6964207369676e6174757265206c656e677468006044820152606490fd5b6003146116c557565b60405162461bcd60e51b815260206004820152602260248201527f45434453413a20696e76616c6964207369676e6174757265202773272076616c604482015261756560f01b6064820152608490fd5b634e487b7160e01b600052602160045260246000fd5b9291907f7fffffffffffffffffffffffffffffff5d576e7357a4501ddfe92f46681b20a083116117ae5791608094939160ff602094604051948552168484015260408301526060820152600093849182805260015afa156117a15781516001600160a01b0381161561179b579190565b50600190565b50604051903d90823e3d90fd5b5050505060009060039056fea2646970667358221220a05bfd80390de4305a5c1bf9f352c88b6634749cc325f416945e7b211ec9975b64736f6c63430008180033","opcodes":"PUSH1 0x80 CALLVALUE PUSH2 0x92 JUMPI PUSH1 0x1F PUSH2 0x18B2 CODESIZE DUP2 SWAP1 SUB SWAP2 DUP3 ADD PUSH1 0x1F NOT AND DUP4 ADD SWAP2 PUSH1 0x1 PUSH1 0x1 PUSH1 0x40 SHL SUB DUP4 GT DUP5 DUP5 LT OR PUSH2 0x97 JUMPI DUP1 DUP5 SWAP3 PUSH1 0x40 SWAP5 DUP6 MSTORE DUP4 CODECOPY DUP2 ADD SUB SLT PUSH2 0x92 JUMPI PUSH2 0x52 PUSH1 0x20 PUSH2 0x4B DUP4 PUSH2 0xAD JUMP JUMPDEST SWAP3 ADD PUSH2 0xAD JUMP JUMPDEST PUSH1 0x1 PUSH1 0x0 SSTORE PUSH1 0x4 DUP1 SLOAD PUSH1 0x1 PUSH1 0x1 PUSH1 0xA0 SHL SUB SWAP4 DUP5 AND PUSH1 0x1 PUSH1 0x1 PUSH1 0xA0 SHL SUB NOT SWAP2 DUP3 AND OR SWAP1 SWAP2 SSTORE PUSH1 0x5 DUP1 SLOAD SWAP3 SWAP1 SWAP4 AND SWAP2 AND OR SWAP1 SSTORE PUSH1 0x40 MLOAD PUSH2 0x17F0 SWAP1 DUP2 PUSH2 0xC2 DUP3 CODECOPY RETURN JUMPDEST PUSH1 0x0 DUP1 REVERT JUMPDEST PUSH4 0x4E487B71 PUSH1 0xE0 SHL PUSH1 0x0 MSTORE PUSH1 0x41 PUSH1 0x4 MSTORE PUSH1 0x24 PUSH1 0x0 REVERT JUMPDEST MLOAD SWAP1 PUSH1 0x1 PUSH1 0x1 PUSH1 0xA0 SHL SUB DUP3 AND DUP3 SUB PUSH2 0x92 JUMPI JUMP INVALID PUSH1 0x80 DUP1 PUSH1 0x40 MSTORE PUSH1 0x4 CALLDATASIZE LT ISZERO PUSH2 0x13 JUMPI PUSH1 0x0 DUP1 REVERT JUMPDEST PUSH1 0x0 SWAP1 DUP2 CALLDATALOAD PUSH1 0xE0 SHR SWAP1 DUP2 PUSH3 0x444F4B EQ PUSH2 0xDD3 JUMPI POP DUP1 PUSH4 0xEC163F3 EQ PUSH2 0xA1D JUMPI DUP1 PUSH4 0x186A2757 EQ PUSH2 0x96F JUMPI DUP1 PUSH4 0x1EFB10F6 EQ PUSH2 0x918 JUMPI DUP1 PUSH4 0x2B7AC3F3 EQ PUSH2 0x8EF JUMPI DUP1 PUSH4 0x356F644D EQ PUSH2 0x86B JUMPI DUP1 PUSH4 0x7B103999 EQ PUSH2 0x842 JUMPI DUP1 PUSH4 0x7DBD2832 EQ PUSH2 0x7D7 JUMPI DUP1 PUSH4 0x8EB691B1 EQ PUSH2 0x74A JUMPI DUP1 PUSH4 0xA7FED385 EQ PUSH2 0x650 JUMPI DUP1 PUSH4 0xD00FDAB6 EQ PUSH2 0x504 JUMPI DUP1 PUSH4 0xDC35E7D4 EQ PUSH2 0x382 JUMPI PUSH4 0xF545B88B EQ PUSH2 0xAF JUMPI PUSH1 0x0 DUP1 REVERT JUMPDEST CALLVALUE PUSH2 0x37F JUMPI PUSH2 0xBD CALLDATASIZE PUSH2 0x1421 JUMP JUMPDEST SWAP1 SWAP3 DUP3 DUP2 MSTORE PUSH1 0x20 SWAP4 PUSH1 0x2 DUP6 MSTORE PUSH1 0x40 DUP3 KECCAK256 SWAP1 PUSH1 0x1 DUP1 PUSH1 0xA0 SHL SUB DUP1 DUP4 SLOAD AND PUSH2 0xE4 DUP2 ISZERO ISZERO PUSH2 0x1576 JUMP JUMPDEST PUSH1 0x5 DUP5 ADD DUP1 SLOAD SWAP3 PUSH1 0xFF DUP5 PUSH1 0x80 SHR AND PUSH2 0x348 JUMPI PUSH1 0x1 PUSH1 0x1 PUSH1 0x40 SHL SUB SWAP5 DUP6 DUP6 PUSH1 0x40 SHR AND TIMESTAMP GT PUSH2 0x311 JUMPI AND DUP3 SUB PUSH2 0x2D3 JUMPI SWAP1 DUP9 SWAP2 DUP5 PUSH3 0x15180 TIMESTAMP DIV AND SWAP5 DUP6 DUP2 DUP7 AND LT PUSH2 0x260 JUMPI JUMPDEST POP POP POP POP POP POP PUSH1 0x3 DUP2 ADD PUSH2 0x13D DUP5 DUP3 SLOAD PUSH2 0x15B6 JUMP JUMPDEST SWAP3 PUSH1 0x1 DUP4 ADD SLOAD DUP5 GT PUSH2 0x21B JUMPI PUSH1 0x4 DUP4 ADD SWAP2 DUP3 SLOAD SWAP1 PUSH1 0x1 DUP3 ADD SWAP5 DUP6 DUP4 GT PUSH2 0x207 JUMPI PUSH1 0x2 ADD SLOAD DUP6 GT PUSH2 0x1C2 JUMPI DUP6 SWAP1 SSTORE PUSH1 0x0 NOT EQ PUSH2 0x1AE JUMPI POP SWAP2 PUSH32 0x6710BF7C8828BF28BDDDB7B45DA3A29D2ECA474D615FE28B47075CE7BF67E3C3 SWAP4 SWAP2 PUSH1 0x40 SWAP4 SSTORE DUP3 MLOAD SWAP2 DUP3 MSTORE DUP6 DUP3 ADD MSTORE LOG2 PUSH1 0x40 MLOAD PUSH1 0x1 DUP2 MSTORE RETURN JUMPDEST PUSH4 0x4E487B71 PUSH1 0xE0 SHL DUP2 MSTORE PUSH1 0x11 PUSH1 0x4 MSTORE PUSH1 0x24 SWAP1 REVERT JUMPDEST PUSH1 0x40 MLOAD PUSH3 0x461BCD PUSH1 0xE5 SHL DUP2 MSTORE PUSH1 0x4 DUP2 ADD DUP11 SWAP1 MSTORE PUSH1 0x17 PUSH1 0x24 DUP3 ADD MSTORE PUSH32 0x4461696C79207478206C696D6974206578636565646564000000000000000000 PUSH1 0x44 DUP3 ADD MSTORE PUSH1 0x64 SWAP1 REVERT JUMPDEST PUSH4 0x4E487B71 PUSH1 0xE0 SHL DUP5 MSTORE PUSH1 0x11 PUSH1 0x4 MSTORE PUSH1 0x24 DUP5 REVERT JUMPDEST PUSH1 0x40 MLOAD PUSH3 0x461BCD PUSH1 0xE5 SHL DUP2 MSTORE PUSH1 0x4 DUP2 ADD DUP9 SWAP1 MSTORE PUSH1 0x1A PUSH1 0x24 DUP3 ADD MSTORE PUSH32 0x4461696C79207370656E64206C696D6974206578636565646564000000000000 PUSH1 0x44 DUP3 ADD MSTORE PUSH1 0x64 SWAP1 REVERT JUMPDEST DUP6 PUSH32 0xF27CFF30B6684AE4BBC9913E70785BAAFA758CDFEF27E76C9773A8CD5CBF9ACC SWAP6 DUP10 PUSH1 0x3 DUP11 ADD SSTORE DUP10 PUSH1 0x4 DUP11 ADD SSTORE PUSH1 0x1 PUSH1 0x1 PUSH1 0x40 SHL SUB NOT AND OR DUP1 SWAP3 SSTORE PUSH1 0x40 MLOAD SWAP2 DUP5 DUP4 ADD SWAP4 DUP5 MSTORE PUSH1 0x40 SHR AND PUSH1 0x40 DUP3 ADD MSTORE PUSH1 0x40 DUP2 MSTORE PUSH2 0x2BD DUP2 PUSH2 0x14C5 JUMP JUMPDEST MLOAD SWAP1 KECCAK256 SWAP3 PUSH1 0x40 MLOAD SWAP1 DUP2 MSTORE LOG2 CODESIZE DUP1 DUP7 DUP2 DUP1 DUP1 PUSH2 0x128 JUMP JUMPDEST PUSH1 0x40 MLOAD PUSH3 0x461BCD PUSH1 0xE5 SHL DUP2 MSTORE PUSH1 0x4 DUP2 ADD DUP11 SWAP1 MSTORE PUSH1 0x16 PUSH1 0x24 DUP3 ADD MSTORE PUSH22 0x24B73B30B634B21039B2B9B9B4B7B71039B4B3B732B9 PUSH1 0x51 SHL PUSH1 0x44 DUP3 ADD MSTORE PUSH1 0x64 SWAP1 REVERT JUMPDEST PUSH1 0x40 MLOAD PUSH3 0x461BCD PUSH1 0xE5 SHL DUP2 MSTORE PUSH1 0x4 DUP2 ADD DUP13 SWAP1 MSTORE PUSH1 0xF PUSH1 0x24 DUP3 ADD MSTORE PUSH15 0x14D95CDCDA5BDB88195E1C1A5C9959 PUSH1 0x8A SHL PUSH1 0x44 DUP3 ADD MSTORE PUSH1 0x64 SWAP1 REVERT JUMPDEST PUSH1 0x40 MLOAD PUSH3 0x461BCD PUSH1 0xE5 SHL DUP2 MSTORE PUSH1 0x4 DUP2 ADD DUP12 SWAP1 MSTORE PUSH1 0xF PUSH1 0x24 DUP3 ADD MSTORE PUSH15 0x14D95CDCDA5BDB881C995D9BDAD959 PUSH1 0x8A SHL PUSH1 0x44 DUP3 ADD MSTORE PUSH1 0x64 SWAP1 REVERT JUMPDEST DUP1 REVERT JUMPDEST POP CALLVALUE PUSH2 0x37F JUMPI PUSH2 0x391 CALLDATASIZE PUSH2 0x1421 JUMP JUMPDEST SWAP1 DUP3 DUP5 MSTORE PUSH1 0x40 PUSH1 0x20 SWAP5 PUSH1 0x1 DUP7 MSTORE KECCAK256 SWAP1 PUSH1 0x3 DUP3 ADD SLOAD PUSH1 0xFF DUP2 PUSH1 0x40 SHR AND PUSH2 0x4D5 JUMPI PUSH1 0x1 PUSH1 0x1 PUSH1 0x40 SHL SUB AND TIMESTAMP GT PUSH2 0x49E JUMPI DUP2 SLOAD PUSH1 0x1 PUSH1 0x1 PUSH1 0xA0 SHL SUB SWAP1 DUP2 AND SWAP2 AND SUB PUSH2 0x468 JUMPI PUSH1 0x1 DUP2 ADD PUSH1 0x2 PUSH2 0x3E4 DUP5 DUP4 SLOAD PUSH2 0x15B6 JUMP JUMPDEST SWAP3 ADD SLOAD DUP3 GT PUSH2 0x432 JUMPI SWAP2 DUP2 PUSH32 0x8F681F2A4F6CD078B7E4CAB4AE8112EF10D6B50B1511BF4915C069CF5D3B835E SWAP4 PUSH1 0x1 PUSH1 0x1 PUSH1 0x80 SHL SUB PUSH1 0x40 SWAP5 AND SWAP1 SSTORE DUP3 MLOAD SWAP2 DUP3 MSTORE DUP6 DUP3 ADD MSTORE LOG2 PUSH1 0x40 MLOAD PUSH1 0x1 DUP2 MSTORE RETURN JUMPDEST PUSH1 0x40 MLOAD PUSH3 0x461BCD PUSH1 0xE5 SHL DUP2 MSTORE PUSH1 0x4 DUP2 ADD DUP7 SWAP1 MSTORE PUSH1 0xE PUSH1 0x24 DUP3 ADD MSTORE PUSH14 0x131A5B5A5D08195E18D959591959 PUSH1 0x92 SHL PUSH1 0x44 DUP3 ADD MSTORE PUSH1 0x64 SWAP1 REVERT JUMPDEST PUSH1 0x40 MLOAD PUSH3 0x461BCD PUSH1 0xE5 SHL DUP2 MSTORE PUSH1 0x4 DUP2 ADD DUP6 SWAP1 MSTORE PUSH1 0xE PUSH1 0x24 DUP3 ADD MSTORE PUSH14 0x24B73B30B634B21039B4B3B732B9 PUSH1 0x91 SHL PUSH1 0x44 DUP3 ADD MSTORE PUSH1 0x64 SWAP1 REVERT JUMPDEST PUSH1 0x40 MLOAD PUSH3 0x461BCD PUSH1 0xE5 SHL DUP2 MSTORE PUSH1 0x4 DUP2 ADD DUP7 SWAP1 MSTORE PUSH1 0xF PUSH1 0x24 DUP3 ADD MSTORE PUSH15 0x14D95CDCDA5BDB88115E1C1A5C9959 PUSH1 0x8A SHL PUSH1 0x44 DUP3 ADD MSTORE PUSH1 0x64 SWAP1 REVERT JUMPDEST PUSH1 0x40 MLOAD PUSH3 0x461BCD PUSH1 0xE5 SHL DUP2 MSTORE PUSH1 0x4 DUP2 ADD DUP8 SWAP1 MSTORE PUSH1 0x7 PUSH1 0x24 DUP3 ADD MSTORE PUSH7 0x14995D9BDAD959 PUSH1 0xCA SHL PUSH1 0x44 DUP3 ADD MSTORE PUSH1 0x64 SWAP1 REVERT JUMPDEST POP CALLVALUE PUSH2 0x37F JUMPI PUSH1 0x20 DUP1 PUSH1 0x3 NOT CALLDATASIZE ADD SLT PUSH2 0x64C JUMPI PUSH1 0x4 CALLDATALOAD DUP1 DUP4 MSTORE PUSH1 0x2 DUP3 MSTORE PUSH1 0x40 DUP4 KECCAK256 DUP1 SLOAD SWAP2 SWAP3 PUSH1 0x1 PUSH1 0x1 PUSH1 0xA0 SHL SUB SWAP3 DUP4 AND SWAP2 PUSH1 0x5 SWAP1 PUSH2 0x543 DUP5 ISZERO ISZERO PUSH2 0x1576 JUMP JUMPDEST ADD SWAP3 DUP4 SLOAD SWAP3 PUSH2 0x558 PUSH1 0xFF DUP6 PUSH1 0x80 SHR AND ISZERO PUSH2 0x1538 JUMP JUMPDEST CALLER EQ SWAP1 DUP2 ISZERO PUSH2 0x5E3 JUMPI JUMPDEST POP ISZERO PUSH2 0x59F JUMPI POP PUSH1 0xFF PUSH1 0x80 SHL NOT AND PUSH1 0x1 PUSH1 0x80 SHL OR SWAP1 SSTORE PUSH32 0x75603CFAD1B4B830BA27B5F2A2867FC0ECDE28D51B13B72816B1707B7CD4E949 DUP3 DUP1 LOG2 DUP1 RETURN JUMPDEST PUSH1 0x64 SWAP1 PUSH1 0x40 MLOAD SWAP1 PUSH3 0x461BCD PUSH1 0xE5 SHL DUP3 MSTORE PUSH1 0x4 DUP3 ADD MSTORE PUSH1 0x18 PUSH1 0x24 DUP3 ADD MSTORE PUSH32 0x4E6F7420617574686F72697A656420746F207265766F6B650000000000000000 PUSH1 0x44 DUP3 ADD MSTORE REVERT JUMPDEST PUSH1 0x40 MLOAD PUSH4 0x8DA5CB5B PUSH1 0xE0 SHL DUP2 MSTORE SWAP2 POP DUP3 DUP3 PUSH1 0x4 DUP2 CALLER GAS STATICCALL SWAP2 DUP3 ISZERO PUSH2 0x641 JUMPI DUP8 SWAP3 PUSH2 0x612 JUMPI JUMPDEST POP AND CALLER EQ CODESIZE PUSH2 0x562 JUMP JUMPDEST PUSH2 0x633 SWAP2 SWAP3 POP DUP4 RETURNDATASIZE DUP6 GT PUSH2 0x63A JUMPI JUMPDEST PUSH2 0x62B DUP2 DUP4 PUSH2 0x14E0 JUMP JUMPDEST DUP2 ADD SWAP1 PUSH2 0x1519 JUMP JUMPDEST SWAP1 CODESIZE PUSH2 0x608 JUMP JUMPDEST POP RETURNDATASIZE PUSH2 0x621 JUMP JUMPDEST PUSH1 0x40 MLOAD RETURNDATASIZE DUP10 DUP3 RETURNDATACOPY RETURNDATASIZE SWAP1 REVERT JUMPDEST POP DUP1 REVERT JUMPDEST POP CALLVALUE PUSH2 0x37F JUMPI PUSH1 0x20 CALLDATASIZE PUSH1 0x3 NOT ADD SLT PUSH2 0x37F JUMPI PUSH1 0x4 CALLDATALOAD DUP1 DUP3 MSTORE PUSH1 0x1 PUSH1 0x20 MSTORE PUSH1 0x40 DUP3 KECCAK256 DUP1 SLOAD PUSH1 0x1 PUSH1 0x1 PUSH1 0xA0 SHL SUB AND SWAP1 DUP2 ISZERO PUSH2 0x713 JUMPI PUSH1 0x3 ADD SWAP1 DUP2 SLOAD SWAP1 PUSH2 0x69A PUSH1 0xFF DUP4 PUSH1 0x40 SHR AND ISZERO PUSH2 0x1538 JUMP JUMPDEST CALLER SUB PUSH2 0x6DB JUMPI PUSH9 0xFF0000000000000000 NOT AND PUSH1 0x1 PUSH1 0x40 SHL OR SWAP1 SSTORE PUSH32 0xCC0F7E7F309149DCE2DB74723F771F7D96CAD368D91763E945DC3956C4DBFB04 DUP3 DUP1 LOG2 DUP1 RETURN JUMPDEST PUSH1 0x40 MLOAD PUSH3 0x461BCD PUSH1 0xE5 SHL DUP2 MSTORE PUSH1 0x20 PUSH1 0x4 DUP3 ADD MSTORE PUSH1 0x10 PUSH1 0x24 DUP3 ADD MSTORE PUSH16 0x4F6E6C792073657373696F6E206B6579 PUSH1 0x80 SHL PUSH1 0x44 DUP3 ADD MSTORE PUSH1 0x64 SWAP1 REVERT JUMPDEST PUSH1 0x40 MLOAD PUSH3 0x461BCD PUSH1 0xE5 SHL DUP2 MSTORE PUSH1 0x20 PUSH1 0x4 DUP3 ADD MSTORE PUSH1 0xF PUSH1 0x24 DUP3 ADD MSTORE PUSH15 0x2AB735B737BBB71039B2B9B9B4B7B7 PUSH1 0x89 SHL PUSH1 0x44 DUP3 ADD MSTORE PUSH1 0x64 SWAP1 REVERT JUMPDEST POP CALLVALUE PUSH2 0x37F JUMPI PUSH1 0x20 CALLDATASIZE PUSH1 0x3 NOT ADD SLT PUSH2 0x37F JUMPI PUSH1 0x40 PUSH2 0x100 SWAP2 PUSH1 0x4 CALLDATALOAD DUP2 MSTORE PUSH1 0x2 PUSH1 0x20 MSTORE KECCAK256 PUSH1 0xFF PUSH1 0x1 DUP1 PUSH1 0xA0 SHL SUB DUP3 SLOAD AND SWAP2 PUSH1 0x1 DUP2 ADD SLOAD PUSH1 0x2 DUP3 ADD SLOAD SWAP2 PUSH1 0x3 DUP2 ADD SLOAD PUSH1 0x5 PUSH1 0x4 DUP4 ADD SLOAD SWAP3 ADD SLOAD SWAP4 PUSH1 0x1 PUSH1 0x1 PUSH1 0x40 SHL SUB SWAP4 PUSH1 0x40 MLOAD SWAP8 DUP9 MSTORE PUSH1 0x20 DUP9 ADD MSTORE PUSH1 0x40 DUP8 ADD MSTORE PUSH1 0x60 DUP7 ADD MSTORE PUSH1 0x80 DUP6 ADD MSTORE DUP1 DUP3 AND PUSH1 0xA0 DUP6 ADD MSTORE DUP2 PUSH1 0x40 SHR AND PUSH1 0xC0 DUP5 ADD MSTORE PUSH1 0x80 SHR AND ISZERO ISZERO PUSH1 0xE0 DUP3 ADD MSTORE RETURN JUMPDEST POP CALLVALUE PUSH2 0x37F JUMPI PUSH1 0x20 CALLDATASIZE PUSH1 0x3 NOT ADD SLT PUSH2 0x37F JUMPI PUSH1 0x40 PUSH1 0xA0 SWAP2 PUSH1 0x4 CALLDATALOAD DUP2 MSTORE PUSH1 0x1 PUSH1 0x20 MSTORE KECCAK256 PUSH1 0xFF PUSH1 0x1 DUP1 DUP5 SHL SUB DUP3 SLOAD AND SWAP2 PUSH1 0x1 DUP2 ADD SLOAD SWAP1 PUSH1 0x3 PUSH1 0x2 DUP3 ADD SLOAD SWAP2 ADD SLOAD SWAP2 PUSH1 0x40 MLOAD SWAP5 DUP6 MSTORE PUSH1 0x20 DUP6 ADD MSTORE PUSH1 0x40 DUP5 ADD MSTORE PUSH1 0x1 PUSH1 0x1 PUSH1 0x40 SHL SUB DUP2 AND PUSH1 0x60 DUP5 ADD MSTORE PUSH1 0x40 SHR AND ISZERO ISZERO PUSH1 0x80 DUP3 ADD MSTORE RETURN JUMPDEST POP CALLVALUE PUSH2 0x37F JUMPI DUP1 PUSH1 0x3 NOT CALLDATASIZE ADD SLT PUSH2 0x37F JUMPI PUSH1 0x5 SLOAD PUSH1 0x40 MLOAD PUSH1 0x1 PUSH1 0x1 PUSH1 0xA0 SHL SUB SWAP1 SWAP2 AND DUP2 MSTORE PUSH1 0x20 SWAP1 RETURN JUMPDEST POP CALLVALUE PUSH2 0x37F JUMPI PUSH1 0x20 CALLDATASIZE PUSH1 0x3 NOT ADD SLT PUSH2 0x37F JUMPI PUSH1 0x40 PUSH1 0xE0 SWAP2 PUSH1 0x4 CALLDATALOAD DUP2 MSTORE PUSH1 0x2 PUSH1 0x20 MSTORE KECCAK256 PUSH1 0xFF PUSH1 0x1 DUP1 PUSH1 0xA0 SHL SUB DUP3 SLOAD AND SWAP2 PUSH1 0x1 DUP2 ADD SLOAD SWAP1 PUSH1 0x2 DUP2 ADD SLOAD PUSH1 0x3 DUP3 ADD SLOAD SWAP1 PUSH1 0x5 PUSH1 0x4 DUP5 ADD SLOAD SWAP4 ADD SLOAD SWAP4 PUSH1 0x40 MLOAD SWAP7 DUP8 MSTORE PUSH1 0x20 DUP8 ADD MSTORE PUSH1 0x40 DUP7 ADD MSTORE PUSH1 0x60 DUP6 ADD MSTORE PUSH1 0x80 DUP5 ADD MSTORE PUSH1 0x1 PUSH1 0x1 PUSH1 0x40 SHL SUB DUP2 PUSH1 0x40 SHR AND PUSH1 0xA0 DUP5 ADD MSTORE PUSH1 0x80 SHR AND ISZERO ISZERO PUSH1 0xC0 DUP3 ADD MSTORE RETURN JUMPDEST POP CALLVALUE PUSH2 0x37F JUMPI DUP1 PUSH1 0x3 NOT CALLDATASIZE ADD SLT PUSH2 0x37F JUMPI PUSH1 0x4 SLOAD PUSH1 0x40 MLOAD PUSH1 0x1 PUSH1 0x1 PUSH1 0xA0 SHL SUB SWAP1 SWAP2 AND DUP2 MSTORE PUSH1 0x20 SWAP1 RETURN JUMPDEST POP CALLVALUE PUSH2 0x37F JUMPI PUSH1 0x40 CALLDATASIZE PUSH1 0x3 NOT ADD SLT PUSH2 0x37F JUMPI PUSH2 0x932 PUSH2 0x13DD JUMP JUMPDEST PUSH1 0x1 PUSH1 0x1 PUSH1 0xA0 SHL SUB AND DUP2 MSTORE PUSH1 0x3 PUSH1 0x20 MSTORE PUSH1 0x40 DUP2 KECCAK256 DUP1 SLOAD PUSH1 0x24 CALLDATALOAD SWAP3 SWAP1 DUP4 LT ISZERO PUSH2 0x37F JUMPI PUSH1 0x20 PUSH2 0x960 DUP5 DUP5 PUSH2 0x13F3 JUMP JUMPDEST SWAP1 SLOAD SWAP1 PUSH1 0x3 SHL SHR PUSH1 0x40 MLOAD SWAP1 DUP2 MSTORE RETURN JUMPDEST POP CALLVALUE PUSH2 0x37F JUMPI PUSH1 0x20 DUP1 PUSH1 0x3 NOT CALLDATASIZE ADD SLT PUSH2 0x64C JUMPI PUSH1 0x1 PUSH1 0x1 PUSH1 0xA0 SHL SUB PUSH2 0x992 PUSH2 0x13DD JUMP JUMPDEST AND DUP3 MSTORE PUSH1 0x3 DUP2 MSTORE PUSH1 0x40 DUP3 KECCAK256 PUSH1 0x40 MLOAD SWAP3 DUP4 DUP4 DUP4 SLOAD SWAP2 DUP3 DUP2 MSTORE ADD SWAP1 DUP2 SWAP4 DUP4 MSTORE DUP5 DUP4 KECCAK256 SWAP1 DUP4 JUMPDEST DUP2 DUP2 LT PUSH2 0xA09 JUMPI POP POP POP DUP5 PUSH2 0x9CB SWAP2 SUB DUP6 PUSH2 0x14E0 JUMP JUMPDEST PUSH1 0x40 MLOAD SWAP4 DUP4 DUP6 SWAP5 DUP6 ADD SWAP2 DUP2 DUP7 MSTORE MLOAD DUP1 SWAP3 MSTORE PUSH1 0x40 DUP6 ADD SWAP4 SWAP3 JUMPDEST DUP3 DUP2 LT PUSH2 0x9F2 JUMPI POP POP POP POP SUB SWAP1 RETURN JUMPDEST DUP4 MLOAD DUP6 MSTORE DUP7 SWAP6 POP SWAP4 DUP2 ADD SWAP4 SWAP3 DUP2 ADD SWAP3 PUSH1 0x1 ADD PUSH2 0x9E3 JUMP JUMPDEST DUP3 SLOAD DUP5 MSTORE SWAP3 DUP7 ADD SWAP3 PUSH1 0x1 SWAP3 DUP4 ADD SWAP3 ADD PUSH2 0x9B5 JUMP JUMPDEST POP CALLVALUE PUSH2 0x37F JUMPI PUSH1 0xC0 CALLDATASIZE PUSH1 0x3 NOT ADD SLT PUSH2 0x37F JUMPI PUSH1 0x4 CALLDATALOAD PUSH2 0xA3A PUSH2 0x13C7 JUMP JUMPDEST SWAP1 PUSH1 0x44 CALLDATALOAD PUSH1 0x64 CALLDATALOAD PUSH1 0x84 CALLDATALOAD SWAP1 PUSH1 0x1 PUSH1 0x1 PUSH1 0x40 SHL SUB SWAP5 DUP6 DUP4 AND DUP1 SWAP4 SUB PUSH2 0xDCE JUMPI PUSH1 0xA4 CALLDATALOAD SWAP1 DUP7 DUP3 GT PUSH2 0xDCA JUMPI CALLDATASIZE PUSH1 0x23 DUP4 ADD SLT ISZERO PUSH2 0xDCA JUMPI DUP2 PUSH1 0x4 ADD CALLDATALOAD SWAP7 DUP1 DUP9 GT PUSH2 0xDC6 JUMPI CALLDATASIZE PUSH1 0x24 DUP10 DUP6 ADD ADD GT PUSH2 0xDC6 JUMPI PUSH1 0x1 PUSH1 0x1 PUSH1 0xA0 SHL SUB SWAP2 DUP3 AND SWAP8 DUP9 ISZERO PUSH2 0xD8B JUMPI PUSH2 0xAA4 TIMESTAMP DUP8 GT PUSH2 0x144B JUMP JUMPDEST DUP8 DUP11 MSTORE PUSH1 0x20 SWAP4 PUSH1 0x2 DUP6 MSTORE PUSH2 0xABE DUP5 PUSH1 0x40 DUP14 KECCAK256 SLOAD AND ISZERO PUSH2 0x1488 JUMP JUMPDEST PUSH1 0x40 MLOAD SWAP1 DUP6 DUP3 ADD SWAP3 DUP11 DUP5 MSTORE DUP12 PUSH1 0x40 DUP5 ADD MSTORE DUP10 PUSH1 0x60 DUP5 ADD MSTORE DUP8 PUSH1 0x80 DUP5 ADD MSTORE DUP9 PUSH1 0xA0 DUP5 ADD MSTORE PUSH1 0xA0 DUP4 MSTORE PUSH1 0xC0 DUP4 ADD DUP4 DUP2 LT DUP7 DUP3 GT OR PUSH2 0xD11 JUMPI DUP8 PUSH2 0xB6F SWAP5 DUP16 SWAP3 PUSH2 0xB77 SWAP8 DUP2 PUSH1 0x40 MSTORE DUP3 MLOAD SWAP1 KECCAK256 PUSH1 0xFC PUSH1 0xE0 DUP5 ADD SWAP4 PUSH32 0x19457468657265756D205369676E6564204D6573736167653A0A333200000000 DUP6 MSTORE ADD MSTORE PUSH1 0x3C DUP2 MSTORE PUSH2 0xB40 DUP2 PUSH2 0x14C5 JUMP JUMPDEST MLOAD SWAP1 KECCAK256 SWAP3 DUP1 PUSH1 0x24 PUSH1 0x40 MLOAD SWAP7 PUSH2 0xB5E DUP6 PUSH1 0x1F NOT PUSH1 0x1F DUP7 ADD AND ADD DUP10 PUSH2 0x14E0 JUMP JUMPDEST DUP3 DUP9 MSTORE ADD DUP4 DUP8 ADD CALLDATACOPY DUP5 ADD ADD MSTORE PUSH2 0x15D9 JUMP JUMPDEST SWAP2 SWAP1 SWAP2 PUSH2 0x1611 JUMP JUMPDEST PUSH1 0x40 MLOAD PUSH4 0x8DA5CB5B PUSH1 0xE0 SHL DUP2 MSTORE DUP5 DUP2 PUSH1 0x4 DUP2 CALLER GAS STATICCALL SWAP2 DUP3 ISZERO PUSH2 0xD80 JUMPI DUP5 SWAP2 DUP13 SWAP4 PUSH2 0xD5F JUMPI JUMPDEST POP DUP2 AND SWAP2 AND SUB PUSH2 0xD27 JUMPI PUSH1 0x40 MLOAD SWAP1 PUSH2 0x100 DUP3 ADD SWAP1 DUP3 DUP3 LT DUP2 DUP4 GT OR PUSH2 0xD11 JUMPI PUSH1 0x5 DUP8 SWAP4 DUP7 DUP12 SWAP7 DUP15 SWAP6 PUSH1 0x40 MSTORE DUP14 DUP4 MSTORE DUP2 DUP4 ADD DUP13 DUP2 MSTORE PUSH1 0x40 DUP5 ADD SWAP1 DUP12 DUP3 MSTORE PUSH1 0x60 DUP6 ADD SWAP3 DUP9 DUP5 MSTORE PUSH1 0x40 DUP10 PUSH1 0x2 PUSH1 0x80 DUP10 ADD SWAP8 DUP3 DUP10 MSTORE PUSH1 0xA0 DUP11 ADD SWAP15 DUP16 DUP14 PUSH3 0x15180 TIMESTAMP DIV AND SWAP1 MSTORE PUSH1 0xC0 DUP12 ADD SWAP15 DUP16 MSTORE PUSH1 0xE0 DUP12 ADD SWAP14 DUP15 MSTORE DUP4 MSTORE MSTORE KECCAK256 SWAP6 MLOAD AND PUSH12 0xFFFFFFFFFFFFFFFFFFFFFFFF PUSH1 0xA0 SHL DUP7 SLOAD AND OR DUP6 SSTORE MLOAD PUSH1 0x1 DUP6 ADD SSTORE MLOAD PUSH1 0x2 DUP5 ADD SSTORE MLOAD PUSH1 0x3 DUP4 ADD SSTORE MLOAD PUSH1 0x4 DUP3 ADD SSTORE ADD SWAP4 MLOAD AND PUSH16 0xFFFFFFFFFFFFFFFF0000000000000000 DUP5 SLOAD SWAP4 MLOAD PUSH1 0x40 SHL AND SWAP2 PUSH1 0xFF PUSH1 0x80 SHL SWAP1 MLOAD ISZERO ISZERO PUSH1 0x80 SHL AND SWAP3 PUSH17 0xFFFFFFFFFFFFFFFFFFFFFFFFFFFFFFFFFF NOT AND OR OR OR SWAP1 SSTORE CALLER DUP8 MSTORE PUSH1 0x3 DUP2 MSTORE PUSH1 0x40 DUP8 KECCAK256 DUP1 SLOAD SWAP1 PUSH1 0x1 PUSH1 0x40 SHL DUP3 LT ISZERO PUSH2 0xCFD JUMPI SWAP2 PUSH2 0xCD6 DUP3 PUSH1 0x60 SWAP7 SWAP5 PUSH1 0x1 PUSH32 0x6444C67754985AAF64C147C6BC7EECBE2B7B83724E5F0ADB261589FE9707E392 SWAP10 SWAP8 SWAP6 ADD DUP2 SSTORE PUSH2 0x13F3 JUMP JUMPDEST DUP2 SLOAD SWAP1 PUSH1 0x3 SHL SWAP1 DUP10 DUP3 SHL SWAP2 PUSH1 0x0 NOT SWAP1 SHL NOT AND OR SWAP1 SSTORE PUSH1 0x40 MLOAD SWAP4 DUP5 MSTORE DUP4 ADD MSTORE PUSH1 0x40 DUP3 ADD MSTORE LOG3 DUP1 RETURN JUMPDEST PUSH4 0x4E487B71 PUSH1 0xE0 SHL DUP10 MSTORE PUSH1 0x41 PUSH1 0x4 MSTORE PUSH1 0x24 DUP10 REVERT JUMPDEST PUSH4 0x4E487B71 PUSH1 0xE0 SHL PUSH1 0x0 MSTORE PUSH1 0x41 PUSH1 0x4 MSTORE PUSH1 0x24 PUSH1 0x0 REVERT JUMPDEST PUSH1 0x40 MLOAD PUSH3 0x461BCD PUSH1 0xE5 SHL DUP2 MSTORE PUSH1 0x4 DUP2 ADD DUP5 SWAP1 MSTORE PUSH1 0x10 PUSH1 0x24 DUP3 ADD MSTORE PUSH16 0x2737BA103BB0B63632BA1037BBB732B9 PUSH1 0x81 SHL PUSH1 0x44 DUP3 ADD MSTORE PUSH1 0x64 SWAP1 REVERT JUMPDEST DUP3 SWAP2 SWAP4 POP PUSH2 0xD79 SWAP1 DUP8 RETURNDATASIZE DUP10 GT PUSH2 0x63A JUMPI PUSH2 0x62B DUP2 DUP4 PUSH2 0x14E0 JUMP JUMPDEST SWAP3 SWAP1 PUSH2 0xB9C JUMP JUMPDEST PUSH1 0x40 MLOAD RETURNDATASIZE DUP14 DUP3 RETURNDATACOPY RETURNDATASIZE SWAP1 REVERT JUMPDEST PUSH1 0x40 MLOAD PUSH3 0x461BCD PUSH1 0xE5 SHL DUP2 MSTORE PUSH1 0x20 PUSH1 0x4 DUP3 ADD MSTORE PUSH1 0x13 PUSH1 0x24 DUP3 ADD MSTORE PUSH19 0x496E76616C69642073657373696F6E206B6579 PUSH1 0x68 SHL PUSH1 0x44 DUP3 ADD MSTORE PUSH1 0x64 SWAP1 REVERT JUMPDEST DUP9 DUP1 REVERT JUMPDEST DUP8 DUP1 REVERT JUMPDEST PUSH1 0x0 DUP1 REVERT JUMPDEST SWAP1 POP CALLVALUE PUSH2 0x64C JUMPI PUSH2 0x240 CALLDATASIZE PUSH1 0x3 NOT ADD SLT PUSH2 0x64C JUMPI PUSH2 0xDEF PUSH2 0x13C7 JUMP JUMPDEST PUSH1 0x44 CALLDATALOAD PUSH1 0x1 PUSH1 0x1 PUSH1 0x80 SHL SUB DUP2 AND DUP2 SUB PUSH2 0x13C3 JUMPI PUSH1 0x64 CALLDATALOAD SWAP3 PUSH1 0x1 PUSH1 0x1 PUSH1 0x40 SHL SUB DUP5 AND DUP5 SUB PUSH2 0x13BF JUMPI CALLDATASIZE PUSH1 0xE4 GT PUSH2 0x13BF JUMPI CALLDATASIZE PUSH2 0x164 GT PUSH2 0x13BF JUMPI CALLDATASIZE PUSH2 0x1A4 GT PUSH2 0x13BF JUMPI CALLDATASIZE PUSH2 0x244 GT PUSH2 0x13BF JUMPI PUSH1 0x2 DUP6 SLOAD EQ PUSH2 0x137D JUMPI POP PUSH1 0x2 DUP5 SSTORE PUSH1 0x1 PUSH1 0x1 PUSH1 0xA0 SHL SUB DUP3 AND ISZERO PUSH2 0x134A JUMPI PUSH2 0xE6A TIMESTAMP PUSH1 0x1 PUSH1 0x1 PUSH1 0x40 SHL SUB DUP6 AND GT PUSH2 0x144B JUMP JUMPDEST PUSH1 0x4 CALLDATALOAD DUP5 MSTORE PUSH1 0x1 PUSH1 0x20 MSTORE PUSH1 0x40 DUP5 KECCAK256 SLOAD PUSH2 0xE8C SWAP1 PUSH1 0x1 PUSH1 0x1 PUSH1 0xA0 SHL SUB AND ISZERO PUSH2 0x1488 JUMP JUMPDEST PUSH2 0x1A4 CALLDATALOAD PUSH1 0x84 CALLDATALOAD SUB PUSH2 0x1310 JUMPI PUSH1 0x5 SLOAD PUSH1 0x40 MLOAD PUSH4 0xABB2EFDF PUSH1 0xE0 SHL DUP2 MSTORE PUSH1 0x1 PUSH1 0x1 PUSH1 0xA0 SHL SUB SWAP1 SWAP2 AND SWAP1 PUSH1 0x20 DUP2 PUSH1 0x4 DUP2 DUP6 GAS STATICCALL SWAP1 DUP2 ISZERO PUSH2 0x114B JUMPI DUP7 SWAP2 PUSH2 0x12DE JUMPI JUMPDEST POP PUSH2 0x1C4 CALLDATALOAD SUB PUSH2 0x12A9 JUMPI PUSH1 0x40 MLOAD PUSH4 0x6B6DEBF7 PUSH1 0xE0 SHL DUP2 MSTORE PUSH1 0x20 DUP2 PUSH1 0x4 DUP2 DUP6 GAS STATICCALL SWAP1 DUP2 ISZERO PUSH2 0x114B JUMPI DUP7 SWAP2 PUSH2 0x1273 JUMPI JUMPDEST POP PUSH2 0x1E4 CALLDATALOAD SUB PUSH2 0x1236 JUMPI PUSH2 0x204 CALLDATALOAD PUSH1 0x1 PUSH1 0x1 PUSH1 0x80 SHL SUB DUP4 AND SUB PUSH2 0x11FC JUMPI PUSH2 0x224 CALLDATALOAD PUSH1 0x1 PUSH1 0x1 PUSH1 0x40 SHL SUB DUP6 AND SUB PUSH2 0x11C5 JUMPI PUSH1 0x40 MLOAD PUSH4 0x8B71ED3 PUSH1 0xE2 SHL DUP2 MSTORE PUSH1 0x84 CALLDATALOAD PUSH1 0x4 DUP3 ADD MSTORE PUSH1 0x20 DUP2 PUSH1 0x24 DUP2 DUP6 GAS STATICCALL SWAP1 DUP2 ISZERO PUSH2 0x114B JUMPI DUP7 SWAP2 PUSH2 0x11A6 JUMPI JUMPDEST POP PUSH2 0x1170 JUMPI PUSH1 0x4 DUP1 SLOAD PUSH1 0x40 DUP1 MLOAD PUSH4 0x34BAEAB9 PUSH1 0xE0 SHL DUP2 MSTORE SWAP3 PUSH1 0x1 PUSH1 0x1 PUSH1 0xA0 SHL SUB SWAP1 SWAP3 AND SWAP2 PUSH1 0xA4 SWAP1 DUP5 ADD CALLDATACOPY DUP2 PUSH1 0xE4 DUP9 PUSH1 0x44 DUP4 ADD JUMPDEST PUSH1 0x2 DUP3 LT PUSH2 0x1156 JUMPI POP POP POP PUSH2 0x1A4 DUP2 PUSH1 0x20 SWAP4 PUSH1 0x40 PUSH2 0x164 PUSH1 0xC4 DUP5 ADD CALLDATACOPY PUSH1 0xA0 DUP4 PUSH2 0x104 DUP5 ADD CALLDATACOPY GAS STATICCALL SWAP1 DUP2 ISZERO PUSH2 0x114B JUMPI DUP7 SWAP2 PUSH2 0x111C JUMPI JUMPDEST POP ISZERO PUSH2 0x10E7 JUMPI DUP1 DUP6 SWAP2 EXTCODESIZE ISZERO PUSH2 0x64C JUMPI DUP2 SWAP1 PUSH1 0x24 PUSH1 0x40 MLOAD DUP1 SWAP5 DUP2 SWAP4 PUSH4 0x57CB0F5 PUSH1 0xE0 SHL DUP4 MSTORE PUSH1 0x84 CALLDATALOAD PUSH1 0x4 DUP5 ADD MSTORE GAS CALL DUP1 ISZERO PUSH2 0x10DC JUMPI PUSH2 0x10A6 JUMPI JUMPDEST POP PUSH1 0x1 PUSH1 0x1 PUSH1 0x80 SHL SUB SWAP1 PUSH1 0x4 CALLDATALOAD DUP6 MSTORE PUSH1 0x1 PUSH1 0x20 MSTORE PUSH1 0x3 PUSH1 0x40 DUP7 KECCAK256 PUSH1 0x1 DUP1 PUSH1 0xA0 SHL SUB DUP6 AND PUSH12 0xFFFFFFFFFFFFFFFFFFFFFFFF PUSH1 0xA0 SHL DUP3 SLOAD AND OR DUP2 SSTORE DUP4 DUP4 AND PUSH1 0x2 DUP3 ADD SSTORE DUP7 PUSH1 0x1 DUP3 ADD SSTORE ADD PUSH1 0x1 PUSH1 0x1 PUSH1 0x40 SHL SUB DUP6 AND PUSH9 0xFFFFFFFFFFFFFFFFFF NOT DUP3 SLOAD AND OR SWAP1 SSTORE PUSH1 0x1 PUSH1 0x1 PUSH1 0x40 SHL SUB PUSH1 0x40 MLOAD SWAP5 AND DUP5 MSTORE AND PUSH1 0x20 DUP4 ADD MSTORE PUSH1 0x1 DUP1 PUSH1 0xA0 SHL SUB AND SWAP1 PUSH32 0x94B1EF4E34E21E2BADB942118F7AE876506E3E69EAC566354D868AAAABB4004D PUSH1 0x40 PUSH1 0x4 CALLDATALOAD SWAP3 LOG3 PUSH1 0x1 DUP2 SSTORE DUP1 RETURN JUMPDEST PUSH1 0x1 PUSH1 0x1 PUSH1 0x40 SHL SUB DUP2 SWAP6 SWAP3 SWAP6 GT PUSH2 0x10C8 JUMPI PUSH1 0x40 MSTORE SWAP3 PUSH1 0x1 PUSH1 0x1 PUSH1 0x80 SHL SUB PUSH2 0xFF6 JUMP JUMPDEST PUSH4 0x4E487B71 PUSH1 0xE0 SHL DUP3 MSTORE PUSH1 0x41 PUSH1 0x4 MSTORE PUSH1 0x24 DUP3 REVERT JUMPDEST PUSH1 0x40 MLOAD RETURNDATASIZE DUP8 DUP3 RETURNDATACOPY RETURNDATASIZE SWAP1 REVERT JUMPDEST PUSH1 0x40 MLOAD PUSH3 0x461BCD PUSH1 0xE5 SHL DUP2 MSTORE PUSH1 0x20 PUSH1 0x4 DUP3 ADD MSTORE PUSH1 0xD PUSH1 0x24 DUP3 ADD MSTORE PUSH13 0x24B73B30B634B210383937B7B3 PUSH1 0x99 SHL PUSH1 0x44 DUP3 ADD MSTORE PUSH1 0x64 SWAP1 REVERT JUMPDEST PUSH2 0x113E SWAP2 POP PUSH1 0x20 RETURNDATASIZE PUSH1 0x20 GT PUSH2 0x1144 JUMPI JUMPDEST PUSH2 0x1136 DUP2 DUP4 PUSH2 0x14E0 JUMP JUMPDEST DUP2 ADD SWAP1 PUSH2 0x1501 JUMP JUMPDEST CODESIZE PUSH2 0xFBD JUMP JUMPDEST POP RETURNDATASIZE PUSH2 0x112C JUMP JUMPDEST PUSH1 0x40 MLOAD RETURNDATASIZE DUP9 DUP3 RETURNDATACOPY RETURNDATASIZE SWAP1 REVERT JUMPDEST DUP3 SWAP4 POP PUSH1 0x40 DUP2 DUP2 PUSH1 0x1 SWAP5 SWAP6 DUP2 SWAP5 CALLDATACOPY ADD SWAP4 ADD SWAP2 ADD DUP5 SWAP3 PUSH2 0xF88 JUMP JUMPDEST PUSH1 0x40 MLOAD PUSH3 0x461BCD PUSH1 0xE5 SHL DUP2 MSTORE PUSH1 0x20 PUSH1 0x4 DUP3 ADD MSTORE PUSH1 0xE PUSH1 0x24 DUP3 ADD MSTORE PUSH14 0x139D5B1B1A599A595C881D5CD959 PUSH1 0x92 SHL PUSH1 0x44 DUP3 ADD MSTORE PUSH1 0x64 SWAP1 REVERT JUMPDEST PUSH2 0x11BF SWAP2 POP PUSH1 0x20 RETURNDATASIZE PUSH1 0x20 GT PUSH2 0x1144 JUMPI PUSH2 0x1136 DUP2 DUP4 PUSH2 0x14E0 JUMP JUMPDEST CODESIZE PUSH2 0xF55 JUMP JUMPDEST PUSH1 0x40 MLOAD PUSH3 0x461BCD PUSH1 0xE5 SHL DUP2 MSTORE PUSH1 0x20 PUSH1 0x4 DUP3 ADD MSTORE PUSH1 0xF PUSH1 0x24 DUP3 ADD MSTORE PUSH15 0x8AF0E0D2E4F240DAD2E6DAC2E8C6D PUSH1 0x8B SHL PUSH1 0x44 DUP3 ADD MSTORE PUSH1 0x64 SWAP1 REVERT JUMPDEST PUSH1 0x40 MLOAD PUSH3 0x461BCD PUSH1 0xE5 SHL DUP2 MSTORE PUSH1 0x20 PUSH1 0x4 DUP3 ADD MSTORE PUSH1 0x12 PUSH1 0x24 DUP3 ADD MSTORE PUSH18 0x9AC2F040ECC2D8EACA40DAD2E6DAC2E8C6D PUSH1 0x73 SHL PUSH1 0x44 DUP3 ADD MSTORE PUSH1 0x64 SWAP1 REVERT JUMPDEST PUSH1 0x40 MLOAD PUSH3 0x461BCD PUSH1 0xE5 SHL DUP2 MSTORE PUSH1 0x20 PUSH1 0x4 DUP3 ADD MSTORE PUSH1 0x15 PUSH1 0x24 DUP3 ADD MSTORE PUSH21 0xA4CAECDED6CAC840E4DEDEE840DAD2E6DAC2E8C6D PUSH1 0x5B SHL PUSH1 0x44 DUP3 ADD MSTORE PUSH1 0x64 SWAP1 REVERT JUMPDEST SWAP1 POP PUSH1 0x20 DUP2 RETURNDATASIZE PUSH1 0x20 GT PUSH2 0x12A1 JUMPI JUMPDEST DUP2 PUSH2 0x128E PUSH1 0x20 SWAP4 DUP4 PUSH2 0x14E0 JUMP JUMPDEST DUP2 ADD SUB SLT PUSH2 0x129D JUMPI MLOAD CODESIZE PUSH2 0xEF9 JUMP JUMPDEST DUP6 DUP1 REVERT JUMPDEST RETURNDATASIZE SWAP2 POP PUSH2 0x1281 JUMP JUMPDEST PUSH1 0x40 MLOAD PUSH3 0x461BCD PUSH1 0xE5 SHL DUP2 MSTORE PUSH1 0x20 PUSH1 0x4 DUP3 ADD MSTORE PUSH1 0xD PUSH1 0x24 DUP3 ADD MSTORE PUSH13 0xA4DEDEE840DAD2E6DAC2E8C6D PUSH1 0x9B SHL PUSH1 0x44 DUP3 ADD MSTORE PUSH1 0x64 SWAP1 REVERT JUMPDEST SWAP1 POP PUSH1 0x20 DUP2 RETURNDATASIZE PUSH1 0x20 GT PUSH2 0x1308 JUMPI JUMPDEST DUP2 PUSH2 0x12F9 PUSH1 0x20 SWAP4 DUP4 PUSH2 0x14E0 JUMP JUMPDEST DUP2 ADD SUB SLT PUSH2 0x129D JUMPI MLOAD CODESIZE PUSH2 0xECB JUMP JUMPDEST RETURNDATASIZE SWAP2 POP PUSH2 0x12EC JUMP JUMPDEST PUSH1 0x40 MLOAD PUSH3 0x461BCD PUSH1 0xE5 SHL DUP2 MSTORE PUSH1 0x20 PUSH1 0x4 DUP3 ADD MSTORE PUSH1 0x12 PUSH1 0x24 DUP3 ADD MSTORE PUSH18 0x9CEAD8D8D2CCD2CAE440DAD2E6DAC2E8C6D PUSH1 0x73 SHL PUSH1 0x44 DUP3 ADD MSTORE PUSH1 0x64 SWAP1 REVERT JUMPDEST PUSH1 0x40 MLOAD PUSH3 0x461BCD PUSH1 0xE5 SHL DUP2 MSTORE PUSH1 0x20 PUSH1 0x4 DUP3 ADD MSTORE PUSH1 0xB PUSH1 0x24 DUP3 ADD MSTORE PUSH11 0x496E76616C6964206B6579 PUSH1 0xA8 SHL PUSH1 0x44 DUP3 ADD MSTORE PUSH1 0x64 SWAP1 REVERT JUMPDEST PUSH3 0x461BCD PUSH1 0xE5 SHL DUP2 MSTORE PUSH1 0x20 PUSH1 0x4 DUP3 ADD MSTORE PUSH1 0x1F PUSH1 0x24 DUP3 ADD MSTORE PUSH32 0x5265656E7472616E637947756172643A207265656E7472616E742063616C6C00 PUSH1 0x44 DUP3 ADD MSTORE PUSH1 0x64 SWAP1 REVERT JUMPDEST DUP5 DUP1 REVERT JUMPDEST DUP4 DUP1 REVERT JUMPDEST PUSH1 0x24 CALLDATALOAD SWAP1 PUSH1 0x1 PUSH1 0x1 PUSH1 0xA0 SHL SUB DUP3 AND DUP3 SUB PUSH2 0xDCE JUMPI JUMP JUMPDEST PUSH1 0x4 CALLDATALOAD SWAP1 PUSH1 0x1 PUSH1 0x1 PUSH1 0xA0 SHL SUB DUP3 AND DUP3 SUB PUSH2 0xDCE JUMPI JUMP JUMPDEST DUP1 SLOAD DUP3 LT ISZERO PUSH2 0x140B JUMPI PUSH1 0x0 MSTORE PUSH1 0x20 PUSH1 0x0 KECCAK256 ADD SWAP1 PUSH1 0x0 SWAP1 JUMP JUMPDEST PUSH4 0x4E487B71 PUSH1 0xE0 SHL PUSH1 0x0 MSTORE PUSH1 0x32 PUSH1 0x4 MSTORE PUSH1 0x24 PUSH1 0x0 REVERT JUMPDEST PUSH1 0x60 SWAP1 PUSH1 0x3 NOT ADD SLT PUSH2 0xDCE JUMPI PUSH1 0x4 CALLDATALOAD SWAP1 PUSH1 0x24 CALLDATALOAD PUSH1 0x1 PUSH1 0x1 PUSH1 0xA0 SHL SUB DUP2 AND DUP2 SUB PUSH2 0xDCE JUMPI SWAP1 PUSH1 0x44 CALLDATALOAD SWAP1 JUMP JUMPDEST ISZERO PUSH2 0x1452 JUMPI JUMP JUMPDEST PUSH1 0x40 MLOAD PUSH3 0x461BCD PUSH1 0xE5 SHL DUP2 MSTORE PUSH1 0x20 PUSH1 0x4 DUP3 ADD MSTORE PUSH1 0xE PUSH1 0x24 DUP3 ADD MSTORE PUSH14 0x496E76616C696420657870697279 PUSH1 0x90 SHL PUSH1 0x44 DUP3 ADD MSTORE PUSH1 0x64 SWAP1 REVERT JUMPDEST ISZERO PUSH2 0x148F JUMPI JUMP JUMPDEST PUSH1 0x40 MLOAD PUSH3 0x461BCD PUSH1 0xE5 SHL DUP2 MSTORE PUSH1 0x20 PUSH1 0x4 DUP3 ADD MSTORE PUSH1 0xE PUSH1 0x24 DUP3 ADD MSTORE PUSH14 0x53657373696F6E20657869737473 PUSH1 0x90 SHL PUSH1 0x44 DUP3 ADD MSTORE PUSH1 0x64 SWAP1 REVERT JUMPDEST PUSH1 0x60 DUP2 ADD SWAP1 DUP2 LT PUSH1 0x1 PUSH1 0x1 PUSH1 0x40 SHL SUB DUP3 GT OR PUSH2 0xD11 JUMPI PUSH1 0x40 MSTORE JUMP JUMPDEST SWAP1 PUSH1 0x1F DUP1 NOT SWAP2 ADD AND DUP2 ADD SWAP1 DUP2 LT PUSH1 0x1 PUSH1 0x1 PUSH1 0x40 SHL SUB DUP3 GT OR PUSH2 0xD11 JUMPI PUSH1 0x40 MSTORE JUMP JUMPDEST SWAP1 DUP2 PUSH1 0x20 SWAP2 SUB SLT PUSH2 0xDCE JUMPI MLOAD DUP1 ISZERO ISZERO DUP2 SUB PUSH2 0xDCE JUMPI SWAP1 JUMP JUMPDEST SWAP1 DUP2 PUSH1 0x20 SWAP2 SUB SLT PUSH2 0xDCE JUMPI MLOAD PUSH1 0x1 PUSH1 0x1 PUSH1 0xA0 SHL SUB DUP2 AND DUP2 SUB PUSH2 0xDCE JUMPI SWAP1 JUMP JUMPDEST ISZERO PUSH2 0x153F JUMPI JUMP JUMPDEST PUSH1 0x40 MLOAD PUSH3 0x461BCD PUSH1 0xE5 SHL DUP2 MSTORE PUSH1 0x20 PUSH1 0x4 DUP3 ADD MSTORE PUSH1 0xF PUSH1 0x24 DUP3 ADD MSTORE PUSH15 0x105B1C9958591E481C995D9BDAD959 PUSH1 0x8A SHL PUSH1 0x44 DUP3 ADD MSTORE PUSH1 0x64 SWAP1 REVERT JUMPDEST ISZERO PUSH2 0x157D JUMPI JUMP JUMPDEST PUSH1 0x40 MLOAD PUSH3 0x461BCD PUSH1 0xE5 SHL DUP2 MSTORE PUSH1 0x20 PUSH1 0x4 DUP3 ADD MSTORE PUSH1 0x11 PUSH1 0x24 DUP3 ADD MSTORE PUSH17 0x14D95CDCDA5BDB881B9BDD08199BDD5B99 PUSH1 0x7A SHL PUSH1 0x44 DUP3 ADD MSTORE PUSH1 0x64 SWAP1 REVERT JUMPDEST SWAP2 SWAP1 DUP3 ADD DUP1 SWAP3 GT PUSH2 0x15C3 JUMPI JUMP JUMPDEST PUSH4 0x4E487B71 PUSH1 0xE0 SHL PUSH1 0x0 MSTORE PUSH1 0x11 PUSH1 0x4 MSTORE PUSH1 0x24 PUSH1 0x0 REVERT JUMPDEST SWAP1 PUSH1 0x41 DUP2 MLOAD EQ PUSH1 0x0 EQ PUSH2 0x1607 JUMPI PUSH2 0x1603 SWAP2 PUSH1 0x20 DUP3 ADD MLOAD SWAP1 PUSH1 0x60 PUSH1 0x40 DUP5 ADD MLOAD SWAP4 ADD MLOAD PUSH1 0x0 BYTE SWAP1 PUSH2 0x172B JUMP JUMPDEST SWAP1 SWAP2 JUMP JUMPDEST POP POP PUSH1 0x0 SWAP1 PUSH1 0x2 SWAP1 JUMP JUMPDEST PUSH1 0x5 DUP2 LT ISZERO PUSH2 0x1715 JUMPI DUP1 PUSH2 0x1622 JUMPI POP JUMP JUMPDEST PUSH1 0x1 DUP2 SUB PUSH2 0x166F JUMPI PUSH1 0x40 MLOAD PUSH3 0x461BCD PUSH1 0xE5 SHL DUP2 MSTORE PUSH1 0x20 PUSH1 0x4 DUP3 ADD MSTORE PUSH1 0x18 PUSH1 0x24 DUP3 ADD MSTORE PUSH32 0x45434453413A20696E76616C6964207369676E61747572650000000000000000 PUSH1 0x44 DUP3 ADD MSTORE PUSH1 0x64 SWAP1 REVERT JUMPDEST PUSH1 0x2 DUP2 SUB PUSH2 0x16BC JUMPI PUSH1 0x40 MLOAD PUSH3 0x461BCD PUSH1 0xE5 SHL DUP2 MSTORE PUSH1 0x20 PUSH1 0x4 DUP3 ADD MSTORE PUSH1 0x1F PUSH1 0x24 DUP3 ADD MSTORE PUSH32 0x45434453413A20696E76616C6964207369676E6174757265206C656E67746800 PUSH1 0x44 DUP3 ADD MSTORE PUSH1 0x64 SWAP1 REVERT JUMPDEST PUSH1 0x3 EQ PUSH2 0x16C5 JUMPI JUMP JUMPDEST PUSH1 0x40 MLOAD PUSH3 0x461BCD PUSH1 0xE5 SHL DUP2 MSTORE PUSH1 0x20 PUSH1 0x4 DUP3 ADD MSTORE PUSH1 0x22 PUSH1 0x24 DUP3 ADD MSTORE PUSH32 0x45434453413A20696E76616C6964207369676E6174757265202773272076616C PUSH1 0x44 DUP3 ADD MSTORE PUSH2 0x7565 PUSH1 0xF0 SHL PUSH1 0x64 DUP3 ADD MSTORE PUSH1 0x84 SWAP1 REVERT JUMPDEST PUSH4 0x4E487B71 PUSH1 0xE0 SHL PUSH1 0x0 MSTORE PUSH1 0x21 PUSH1 0x4 MSTORE PUSH1 0x24 PUSH1 0x0 REVERT JUMPDEST SWAP3 SWAP2 SWAP1 PUSH32 0x7FFFFFFFFFFFFFFFFFFFFFFFFFFFFFFF5D576E7357A4501DDFE92F46681B20A0 DUP4 GT PUSH2 0x17AE JUMPI SWAP2 PUSH1 0x80 SWAP5 SWAP4 SWAP2 PUSH1 0xFF PUSH1 0x20 SWAP5 PUSH1 0x40 MLOAD SWAP5 DUP6 MSTORE AND DUP5 DUP5 ADD MSTORE PUSH1 0x40 DUP4 ADD MSTORE PUSH1 0x60 DUP3 ADD MSTORE PUSH1 0x0 SWAP4 DUP5 SWAP2 DUP3 DUP1 MSTORE PUSH1 0x1 GAS STATICCALL ISZERO PUSH2 0x17A1 JUMPI DUP2 MLOAD PUSH1 0x1 PUSH1 0x1 PUSH1 0xA0 SHL SUB DUP2 AND ISZERO PUSH2 0x179B JUMPI SWAP2 SWAP1 JUMP JUMPDEST POP PUSH1 0x1 SWAP1 JUMP JUMPDEST POP PUSH1 0x40 MLOAD SWAP1 RETURNDATASIZE SWAP1 DUP3 RETURNDATACOPY RETURNDATASIZE SWAP1 REVERT JUMPDEST POP POP POP POP PUSH1 0x0 SWAP1 PUSH1 0x3 SWAP1 JUMP INVALID LOG2 PUSH5 0x6970667358 0x22 SLT KECCAK256 LOG0 JUMPDEST REVERT DUP1 CODECOPY 0xD 0xE4 ADDRESS GAS TLOAD SHL 0xF9 RETURN MSTORE 0xC8 DUP12 PUSH7 0x34749CC325F416 SWAP5 MCOPY PUSH28 0x211EC9975B64736F6C63430008180033000000000000000000000000 "},"methodIdentifiers":{"createLightweightSession(bytes32,address,uint256,uint256,uint64,bytes)":"0ec163f3","createSession(bytes32,address,uint128,uint64,bytes32,uint256[2],uint256[2][2],uint256[2],uint256[5])":"00444f4b","getLightSession(bytes32)":"356f644d","getWalletSessions(address)":"186a2757","lightSessions(bytes32)":"8eb691b1","registry()":"7b103999","revokeLightweightSession(bytes32)":"d00fdab6","revokeSession(bytes32)":"a7fed385","sessions(bytes32)":"7dbd2832","validateLightweightSession(bytes32,address,uint256)":"f545b88b","validateSession(bytes32,address,uint256)":"dc35e7d4","verifier()":"2b7ac3f3","walletSessions(address,uint256)":"1efb10f6"}}}}}