{"src/CapabilityRegistry.sol":{"CapabilityRegistry":{"abi":[{"inputs":[],"stateMutability":"nonpayable","type":"constructor"},{"anonymous":false,"inputs":[{"indexed":true,"internalType":"bytes32","name":"capabilityId","type":"bytes32"},{"indexed":true,"internalType":"bytes32","name":"actionHash","type":"bytes32"},{"indexed":true,"internalType":"address","name":"registrar","type":"address"}],"name":"CapabilityRegistered","type":"event"},{"anonymous":false,"inputs":[{"indexed":true,"internalType":"bytes32","name":"capabilityId","type":"bytes32"}],"name":"CapabilityRevoked","type":"event"},{"anonymous":false,"inputs":[{"indexed":true,"internalType":"bytes32","name":"grantLeafHash","type":"bytes32"}],"name":"GrantRevoked","type":"event"},{"anonymous":false,"inputs":[{"indexed":true,"internalType":"address","name":"agent","type":"address"},{"indexed":false,"internalType":"bytes32","name":"newRoot","type":"bytes32"}],"name":"GrantRootUpdated","type":"event"},{"anonymous":false,"inputs":[{"indexed":false,"internalType":"address","name":"account","type":"address"}],"name":"Paused","type":"event"},{"anonymous":false,"inputs":[{"indexed":false,"internalType":"address","name":"account","type":"address"}],"name":"Unpaused","type":"event"},{"inputs":[{"internalType":"bytes32","name":"","type":"bytes32"}],"name":"capabilities","outputs":[{"internalType":"bytes32","name":"actionHash","type":"bytes32"},{"internalType":"address","name":"registrar","type":"address"},{"internalType":"uint64","name":"createdAt","type":"uint64"},{"internalType":"uint64","name":"expiresAt","type":"uint64"},{"internalType":"bool","name":"revoked","type":"bool"}],"stateMutability":"view","type":"function"},{"inputs":[{"internalType":"uint256","name":"","type":"uint256"}],"name":"capabilityList","outputs":[{"internalType":"bytes32","name":"","type":"bytes32"}],"stateMutability":"view","type":"function"},{"inputs":[{"internalType":"bytes32","name":"capabilityId","type":"bytes32"}],"name":"getCapability","outputs":[{"components":[{"internalType":"bytes32","name":"actionHash","type":"bytes32"},{"internalType":"address","name":"registrar","type":"address"},{"internalType":"uint64","name":"createdAt","type":"uint64"},{"internalType":"uint64","name":"expiresAt","type":"uint64"},{"internalType":"bool","name":"revoked","type":"bool"}],"internalType":"struct CapabilityRegistry.CapabilityDef","name":"","type":"tuple"}],"stateMutability":"view","type":"function"},{"inputs":[],"name":"getCapabilityCount","outputs":[{"internalType":"uint256","name":"","type":"uint256"}],"stateMutability":"view","type":"function"},{"inputs":[{"internalType":"address","name":"","type":"address"}],"name":"grantRoots","outputs":[{"internalType":"bytes32","name":"","type":"bytes32"}],"stateMutability":"view","type":"function"},{"inputs":[],"name":"owner","outputs":[{"internalType":"address","name":"","type":"address"}],"stateMutability":"view","type":"function"},{"inputs":[],"name":"pause","outputs":[],"stateMutability":"nonpayable","type":"function"},{"inputs":[],"name":"paused","outputs":[{"internalType":"bool","name":"","type":"bool"}],"stateMutability":"view","type":"function"},{"inputs":[{"internalType":"bytes32","name":"capabilityId","type":"bytes32"},{"internalType":"string","name":"action","type":"string"},{"internalType":"uint64","name":"expiresAt","type":"uint64"}],"name":"registerCapability","outputs":[],"stateMutability":"nonpayable","type":"function"},{"inputs":[{"internalType":"bytes32","name":"capabilityId","type":"bytes32"}],"name":"revokeCapability","outputs":[],"stateMutability":"nonpayable","type":"function"},{"inputs":[{"internalType":"bytes32","name":"grantLeafHash","type":"bytes32"},{"internalType":"bytes32","name":"capabilityId","type":"bytes32"}],"name":"revokeGrant","outputs":[],"stateMutability":"nonpayable","type":"function"},{"inputs":[{"internalType":"bytes32","name":"","type":"bytes32"}],"name":"revokedGrants","outputs":[{"internalType":"bool","name":"","type":"bool"}],"stateMutability":"view","type":"function"},{"inputs":[{"internalType":"address","name":"","type":"address"}],"name":"rootUpdaters","outputs":[{"internalType":"bool","name":"","type":"bool"}],"stateMutability":"view","type":"function"},{"inputs":[{"internalType":"address","name":"updater","type":"address"},{"internalType":"bool","name":"allowed","type":"bool"}],"name":"setRootUpdater","outputs":[],"stateMutability":"nonpayable","type":"function"},{"inputs":[{"internalType":"address","name":"newOwner","type":"address"}],"name":"transferOwnership","outputs":[],"stateMutability":"nonpayable","type":"function"},{"inputs":[],"name":"unpause","outputs":[],"stateMutability":"nonpayable","type":"function"},{"inputs":[{"internalType":"address","name":"agent","type":"address"},{"internalType":"bytes32","name":"newRoot","type":"bytes32"}],"name":"updateGrantRoot","outputs":[],"stateMutability":"nonpayable","type":"function"},{"inputs":[{"internalType":"address","name":"agent","type":"address"},{"internalType":"bytes32","name":"capabilityId","type":"bytes32"},{"internalType":"bytes32","name":"grantLeaf","type":"bytes32"},{"internalType":"bytes32[]","name":"merkleProof","type":"bytes32[]"},{"internalType":"address","name":"grantor","type":"address"},{"internalType":"bytes32","name":"constraintsHash","type":"bytes32"},{"internalType":"uint64","name":"expiresAt","type":"uint64"}],"name":"verifyCapability","outputs":[{"internalType":"bool","name":"","type":"bool"}],"stateMutability":"view","type":"function"}],"evm":{"bytecode":{"linkReferences":{},"object":"6080806040523461003a576001600081905580546001600160a81b0319163360081b610100600160a81b0316179055610e0a90816100408239f35b600080fdfe6080604081815260048036101561001557600080fd5b600092833560e01c9081631656cd7e14610a2f5750806324354992146107e4578063372b102d146107a65780633a7f6cc7146107135780633f4ba83a1461066e578063537394101461060d5780635c975abb146105e95780636f4907a6146105bd5780637b23648a1461051e5780638456cb59146104b757806388a8baf9146104315780638da5cb5b146104045780639cb7c5f414610343578063a6e0a6ce14610308578063adf4d59e14610210578063b036fe7e146101ed578063c2ead131146101865763f2fde38b146100e957600080fd5b3461018257602036600319011261018257610102610a63565b600154929091906001600160a01b0361012233600887901c831614610b94565b83161561014f575050610100600160a81b031990911660089190911b610100600160a81b03161760015580f35b906020606492519162461bcd60e51b8352820152600d60248201526c24b73b30b634b21037bbb732b960991b6044820152fd5b8280fd5b5034610182576020366003190112610182578160a09360ff92358152600260205220805492600260018301549267ffffffffffffffff9182910154938351968752600180891b0381166020880152871c1682860152821660608501521c1615156080820152f35b50503461020c578160031936011261020c576020906003549051908152f35b5080fd5b5090346101825760203660031901126101825781359182845260026020528184209060018201549067ffffffffffffffff8260a01c16156102ce5750600160401b91600291610274906001600160a01b0390811633149081156102bd575b50610b19565b019161028760ff845480931c1615610b56565b68ff000000000000000019161790557f49605d0360d8e90064c274ba9997a3d883d637411e4a6855594c367b31679d668280a280f35b905060015460081c1633143861026e565b606490602085519162461bcd60e51b8352820152601460248201527310d85c18589a5b1a5d1e481b9bdd08199bdd5b9960621b6044820152fd5b50346101825760203660031901126101825735916003548310156103405750610332602092610a7e565b90549060031b1c9051908152f35b80fd5b50346101825760203660031901126101825782829160a0946080845161036881610acb565b828152826020820152828682015282606082015201523581526002602052206002825161039481610acb565b825493848252600184015493600180881b03946020840195808216875267ffffffffffffffff95869384868801948c1c16845201549660ff60806060880197868b1689520198861c1615158852845198895251166020880152511690850152511660608301525115156080820152f35b50503461020c578160031936011261020c57600154905160089190911c6001600160a01b03168152602090f35b50903461018257806003193601126101825760207fd16ef39bb9aa303cfb433f8db1c88ac040afe9393441412bf5b1f0f97d0104b79161046f610a63565b6001600160a01b031693602435919033861480156104a3575b61049190610b19565b8587528352818187205551908152a280f35b50338752600684528187205460ff16610488565b50503461020c578160031936011261020c5760207f62e78cea01bee320cd4e420270b5ea74000d11b0c9f74754ebdbfc544b05a2589160018054610506828060a01b038260081c163314610b94565b61050e610d90565b60ff19161760015551338152a180f35b5091346103405760e036600319011261034057610539610a63565b906064359167ffffffffffffffff9485841161018257366023850112156101825783013590858211610182573660248360051b8601011161018257608435926001600160a01b03841684036103405760c43596871687036103405750916105b4939160209693602460a4359401906044359060243590610bcd565b90519015158152f35b5034610182576020366003190112610182578160209360ff923581526005855220541690519015158152f35b50503461020c578160031936011261020c5760209060ff6001541690519015158152f35b50503461020c578060031936011261020c57610627610a63565b906024359182151580930361066a5760018060a01b03906106508260015460081c163314610b94565b168352600660205282209060ff8019835416911617905580f35b8380fd5b50346101825782600319360112610182576001549061069b33600884901c6001600160a01b031614610b94565b60ff8216156106d9575060ff1916600155513381527f5db9ee0a495bf2e6ff9c91a7834c1ba4fdd244a5e8aa4e537bd38aeae4b073aa90602090a180f35b606490602084519162461bcd60e51b8352820152601460248201527314185d5cd8589b194e881b9bdd081c185d5cd95960621b6044820152fd5b503461018257816003193601126101825735906024358352600260205261075260018060a01b0380600184872001541633149081156102bd5750610b19565b818352600560205261076a60ff828520541615610b56565b81835260056020528220805460ff191660011790557fbc7909d45ab794ee63122077124d9ce05bea1db0768be90c77d2eddbdf1eef4f8280a280f35b50503461020c57602036600319011261020c5760209160ff9082906001600160a01b036107d1610a63565b1681526006855220541690519015158152f35b50903461018257606036600319011261018257813591602480359267ffffffffffffffff90818511610a2b5736602386011215610a2b578484013591808311610a275736848488010111610a275760443592818416809403610a2357610848610d90565b87895260209660028852826001858c20015460a01c166109ed5781156109b9578351828193888b84019401843781018981018c905203808352603f01601f1916820191838311818410176109a757828b86959360029368ff0000000000000000968e99525190209a6108b983610acb565b8b8352868184019233845285828601938842168552606087019c8d52608087019b838d528352522092518355600183019160018060a01b0390511682549167ffffffffffffffff60a01b905160a01b169163ffffffff60e01b16171790550194511691845493511515901b169168ffffffffffffffffff19161717905560035491600160401b8310156109965750508060016109589201600355610a7e565b81549060031b9084821b91600019901b191617905533917ff29a7a8b7e17110feb5338446fbfdcb1f7370015c5a13bfdf070ccbf6b5e2dfe8480a480f35b634e487b7160e01b86526041905284fd5b634e487b7160e01b8b5260418852868bfd5b835162461bcd60e51b8152808801899052600f818801526e1058dd1a5bdb881c995c5d5a5c9959608a1b6044820152606490fd5b835162461bcd60e51b8152808801899052601181880152704361706162696c6974792065786973747360781b6044820152606490fd5b8880fd5b8780fd5b8680fd5b929190503461066a57602036600319011261066a57602093906001600160a01b03610a58610a63565b168252845220548152f35b600435906001600160a01b0382168203610a7957565b600080fd5b600354811015610ab55760036000527fc2575a0e9e593c00f959f8c92f12db2869c3395a3b0502d05e2516446f71f85b0190600090565b634e487b7160e01b600052603260045260246000fd5b60a0810190811067ffffffffffffffff821117610ae757604052565b634e487b7160e01b600052604160045260246000fd5b6060810190811067ffffffffffffffff821117610ae757604052565b15610b2057565b60405162461bcd60e51b815260206004820152600e60248201526d139bdd08185d5d1a1bdc9a5e995960921b6044820152606490fd5b15610b5d57565b60405162461bcd60e51b815260206004820152600f60248201526e105b1c9958591e481c995d9bdad959608a1b6044820152606490fd5b15610b9b57565b60405162461bcd60e51b815260206004820152600a60248201526927b7363c9037bbb732b960b11b6044820152606490fd5b95909296949196600091848352602094600286526040948585209860028a01549a60ff8c891c16610d765767ffffffffffffffff809c168015159081610d86575b50610d765760019a8b01546001600160a01b039384169391908216849003610d6557908c92918951948b86019687528a8601521694856060850152608084015216998a60a083015260a0825260c082019082821090821117610d51578652519020899003610d2e5782526004845282822054978815610d2e578083526005976005865260ff8585205416610d44578015159081610d3a575b50610d2e579695949392919081965b858810610cc85750505050505050501490565b90919293949587988198831b840135808210600014610d0c5786519088820192835287820152868152610cfa81610afd565b5190205b980196959493929190610cb5565b9086519088820192835287820152868152610d2681610afd565b519020610cfe565b50509550505050505090565b9050421138610ca6565b5050509550505050505090565b634e487b7160e01b86526041600452602486fd5b505050505050509550505050505090565b5050505050509550505050505090565b9050421138610c0e565b60ff60015416610d9c57565b60405162461bcd60e51b815260206004820152601060248201526f14185d5cd8589b194e881c185d5cd95960821b6044820152606490fdfea2646970667358221220b56f7c618fee96f74549082aa30c0e6d0cc3144a30043bbb3d7af9b7378ecc4f64736f6c63430008180033","opcodes":"PUSH1 0x80 DUP1 PUSH1 0x40 MSTORE CALLVALUE PUSH2 0x3A JUMPI PUSH1 0x1 PUSH1 0x0 DUP2 SWAP1 SSTORE DUP1 SLOAD PUSH1 0x1 PUSH1 0x1 PUSH1 0xA8 SHL SUB NOT AND CALLER PUSH1 0x8 SHL PUSH2 0x100 PUSH1 0x1 PUSH1 0xA8 SHL SUB AND OR SWAP1 SSTORE PUSH2 0xE0A SWAP1 DUP2 PUSH2 0x40 DUP3 CODECOPY RETURN JUMPDEST PUSH1 0x0 DUP1 REVERT INVALID PUSH1 0x80 PUSH1 0x40 DUP2 DUP2 MSTORE PUSH1 0x4 DUP1 CALLDATASIZE LT ISZERO PUSH2 0x15 JUMPI PUSH1 0x0 DUP1 REVERT JUMPDEST PUSH1 0x0 SWAP3 DUP4 CALLDATALOAD PUSH1 0xE0 SHR SWAP1 DUP2 PUSH4 0x1656CD7E EQ PUSH2 0xA2F JUMPI POP DUP1 PUSH4 0x24354992 EQ PUSH2 0x7E4 JUMPI DUP1 PUSH4 0x372B102D EQ PUSH2 0x7A6 JUMPI DUP1 PUSH4 0x3A7F6CC7 EQ PUSH2 0x713 JUMPI DUP1 PUSH4 0x3F4BA83A EQ PUSH2 0x66E JUMPI DUP1 PUSH4 0x53739410 EQ PUSH2 0x60D JUMPI DUP1 PUSH4 0x5C975ABB EQ PUSH2 0x5E9 JUMPI DUP1 PUSH4 0x6F4907A6 EQ PUSH2 0x5BD JUMPI DUP1 PUSH4 0x7B23648A EQ PUSH2 0x51E JUMPI DUP1 PUSH4 0x8456CB59 EQ PUSH2 0x4B7 JUMPI DUP1 PUSH4 0x88A8BAF9 EQ PUSH2 0x431 JUMPI DUP1 PUSH4 0x8DA5CB5B EQ PUSH2 0x404 JUMPI DUP1 PUSH4 0x9CB7C5F4 EQ PUSH2 0x343 JUMPI DUP1 PUSH4 0xA6E0A6CE EQ PUSH2 0x308 JUMPI DUP1 PUSH4 0xADF4D59E EQ PUSH2 0x210 JUMPI DUP1 PUSH4 0xB036FE7E EQ PUSH2 0x1ED JUMPI DUP1 PUSH4 0xC2EAD131 EQ PUSH2 0x186 JUMPI PUSH4 0xF2FDE38B EQ PUSH2 0xE9 JUMPI PUSH1 0x0 DUP1 REVERT JUMPDEST CALLVALUE PUSH2 0x182 JUMPI PUSH1 0x20 CALLDATASIZE PUSH1 0x3 NOT ADD SLT PUSH2 0x182 JUMPI PUSH2 0x102 PUSH2 0xA63 JUMP JUMPDEST PUSH1 0x1 SLOAD SWAP3 SWAP1 SWAP2 SWAP1 PUSH1 0x1 PUSH1 0x1 PUSH1 0xA0 SHL SUB PUSH2 0x122 CALLER PUSH1 0x8 DUP8 SWAP1 SHR DUP4 AND EQ PUSH2 0xB94 JUMP JUMPDEST DUP4 AND ISZERO PUSH2 0x14F JUMPI POP POP PUSH2 0x100 PUSH1 0x1 PUSH1 0xA8 SHL SUB NOT SWAP1 SWAP2 AND PUSH1 0x8 SWAP2 SWAP1 SWAP2 SHL PUSH2 0x100 PUSH1 0x1 PUSH1 0xA8 SHL SUB AND OR PUSH1 0x1 SSTORE DUP1 RETURN JUMPDEST SWAP1 PUSH1 0x20 PUSH1 0x64 SWAP3 MLOAD SWAP2 PUSH3 0x461BCD PUSH1 0xE5 SHL DUP4 MSTORE DUP3 ADD MSTORE PUSH1 0xD PUSH1 0x24 DUP3 ADD MSTORE PUSH13 0x24B73B30B634B21037BBB732B9 PUSH1 0x99 SHL PUSH1 0x44 DUP3 ADD MSTORE REVERT JUMPDEST DUP3 DUP1 REVERT JUMPDEST POP CALLVALUE PUSH2 0x182 JUMPI PUSH1 0x20 CALLDATASIZE PUSH1 0x3 NOT ADD SLT PUSH2 0x182 JUMPI DUP2 PUSH1 0xA0 SWAP4 PUSH1 0xFF SWAP3 CALLDATALOAD DUP2 MSTORE PUSH1 0x2 PUSH1 0x20 MSTORE KECCAK256 DUP1 SLOAD SWAP3 PUSH1 0x2 PUSH1 0x1 DUP4 ADD SLOAD SWAP3 PUSH8 0xFFFFFFFFFFFFFFFF SWAP2 DUP3 SWAP2 ADD SLOAD SWAP4 DUP4 MLOAD SWAP7 DUP8 MSTORE PUSH1 0x1 DUP1 DUP10 SHL SUB DUP2 AND PUSH1 0x20 DUP9 ADD MSTORE DUP8 SHR AND DUP3 DUP7 ADD MSTORE DUP3 AND PUSH1 0x60 DUP6 ADD MSTORE SHR AND ISZERO ISZERO PUSH1 0x80 DUP3 ADD MSTORE RETURN JUMPDEST POP POP CALLVALUE PUSH2 0x20C JUMPI DUP2 PUSH1 0x3 NOT CALLDATASIZE ADD SLT PUSH2 0x20C JUMPI PUSH1 0x20 SWAP1 PUSH1 0x3 SLOAD SWAP1 MLOAD SWAP1 DUP2 MSTORE RETURN JUMPDEST POP DUP1 REVERT JUMPDEST POP SWAP1 CALLVALUE PUSH2 0x182 JUMPI PUSH1 0x20 CALLDATASIZE PUSH1 0x3 NOT ADD SLT PUSH2 0x182 JUMPI DUP2 CALLDATALOAD SWAP2 DUP3 DUP5 MSTORE PUSH1 0x2 PUSH1 0x20 MSTORE DUP2 DUP5 KECCAK256 SWAP1 PUSH1 0x1 DUP3 ADD SLOAD SWAP1 PUSH8 0xFFFFFFFFFFFFFFFF DUP3 PUSH1 0xA0 SHR AND ISZERO PUSH2 0x2CE JUMPI POP PUSH1 0x1 PUSH1 0x40 SHL SWAP2 PUSH1 0x2 SWAP2 PUSH2 0x274 SWAP1 PUSH1 0x1 PUSH1 0x1 PUSH1 0xA0 SHL SUB SWAP1 DUP2 AND CALLER EQ SWAP1 DUP2 ISZERO PUSH2 0x2BD JUMPI JUMPDEST POP PUSH2 0xB19 JUMP JUMPDEST ADD SWAP2 PUSH2 0x287 PUSH1 0xFF DUP5 SLOAD DUP1 SWAP4 SHR AND ISZERO PUSH2 0xB56 JUMP JUMPDEST PUSH9 0xFF0000000000000000 NOT AND OR SWAP1 SSTORE PUSH32 0x49605D0360D8E90064C274BA9997A3D883D637411E4A6855594C367B31679D66 DUP3 DUP1 LOG2 DUP1 RETURN JUMPDEST SWAP1 POP PUSH1 0x1 SLOAD PUSH1 0x8 SHR AND CALLER EQ CODESIZE PUSH2 0x26E JUMP JUMPDEST PUSH1 0x64 SWAP1 PUSH1 0x20 DUP6 MLOAD SWAP2 PUSH3 0x461BCD PUSH1 0xE5 SHL DUP4 MSTORE DUP3 ADD MSTORE PUSH1 0x14 PUSH1 0x24 DUP3 ADD MSTORE PUSH20 0x10D85C18589A5B1A5D1E481B9BDD08199BDD5B99 PUSH1 0x62 SHL PUSH1 0x44 DUP3 ADD MSTORE REVERT JUMPDEST POP CALLVALUE PUSH2 0x182 JUMPI PUSH1 0x20 CALLDATASIZE PUSH1 0x3 NOT ADD SLT PUSH2 0x182 JUMPI CALLDATALOAD SWAP2 PUSH1 0x3 SLOAD DUP4 LT ISZERO PUSH2 0x340 JUMPI POP PUSH2 0x332 PUSH1 0x20 SWAP3 PUSH2 0xA7E JUMP JUMPDEST SWAP1 SLOAD SWAP1 PUSH1 0x3 SHL SHR SWAP1 MLOAD SWAP1 DUP2 MSTORE RETURN JUMPDEST DUP1 REVERT JUMPDEST POP CALLVALUE PUSH2 0x182 JUMPI PUSH1 0x20 CALLDATASIZE PUSH1 0x3 NOT ADD SLT PUSH2 0x182 JUMPI DUP3 DUP3 SWAP2 PUSH1 0xA0 SWAP5 PUSH1 0x80 DUP5 MLOAD PUSH2 0x368 DUP2 PUSH2 0xACB JUMP JUMPDEST DUP3 DUP2 MSTORE DUP3 PUSH1 0x20 DUP3 ADD MSTORE DUP3 DUP7 DUP3 ADD MSTORE DUP3 PUSH1 0x60 DUP3 ADD MSTORE ADD MSTORE CALLDATALOAD DUP2 MSTORE PUSH1 0x2 PUSH1 0x20 MSTORE KECCAK256 PUSH1 0x2 DUP3 MLOAD PUSH2 0x394 DUP2 PUSH2 0xACB JUMP JUMPDEST DUP3 SLOAD SWAP4 DUP5 DUP3 MSTORE PUSH1 0x1 DUP5 ADD SLOAD SWAP4 PUSH1 0x1 DUP1 DUP9 SHL SUB SWAP5 PUSH1 0x20 DUP5 ADD SWAP6 DUP1 DUP3 AND DUP8 MSTORE PUSH8 0xFFFFFFFFFFFFFFFF SWAP6 DUP7 SWAP4 DUP5 DUP7 DUP9 ADD SWAP5 DUP13 SHR AND DUP5 MSTORE ADD SLOAD SWAP7 PUSH1 0xFF PUSH1 0x80 PUSH1 0x60 DUP9 ADD SWAP8 DUP7 DUP12 AND DUP10 MSTORE ADD SWAP9 DUP7 SHR AND ISZERO ISZERO DUP9 MSTORE DUP5 MLOAD SWAP9 DUP10 MSTORE MLOAD AND PUSH1 0x20 DUP9 ADD MSTORE MLOAD AND SWAP1 DUP6 ADD MSTORE MLOAD AND PUSH1 0x60 DUP4 ADD MSTORE MLOAD ISZERO ISZERO PUSH1 0x80 DUP3 ADD MSTORE RETURN JUMPDEST POP POP CALLVALUE PUSH2 0x20C JUMPI DUP2 PUSH1 0x3 NOT CALLDATASIZE ADD SLT PUSH2 0x20C JUMPI PUSH1 0x1 SLOAD SWAP1 MLOAD PUSH1 0x8 SWAP2 SWAP1 SWAP2 SHR PUSH1 0x1 PUSH1 0x1 PUSH1 0xA0 SHL SUB AND DUP2 MSTORE PUSH1 0x20 SWAP1 RETURN JUMPDEST POP SWAP1 CALLVALUE PUSH2 0x182 JUMPI DUP1 PUSH1 0x3 NOT CALLDATASIZE ADD SLT PUSH2 0x182 JUMPI PUSH1 0x20 PUSH32 0xD16EF39BB9AA303CFB433F8DB1C88AC040AFE9393441412BF5B1F0F97D0104B7 SWAP2 PUSH2 0x46F PUSH2 0xA63 JUMP JUMPDEST PUSH1 0x1 PUSH1 0x1 PUSH1 0xA0 SHL SUB AND SWAP4 PUSH1 0x24 CALLDATALOAD SWAP2 SWAP1 CALLER DUP7 EQ DUP1 ISZERO PUSH2 0x4A3 JUMPI JUMPDEST PUSH2 0x491 SWAP1 PUSH2 0xB19 JUMP JUMPDEST DUP6 DUP8 MSTORE DUP4 MSTORE DUP2 DUP2 DUP8 KECCAK256 SSTORE MLOAD SWAP1 DUP2 MSTORE LOG2 DUP1 RETURN JUMPDEST POP CALLER DUP8 MSTORE PUSH1 0x6 DUP5 MSTORE DUP2 DUP8 KECCAK256 SLOAD PUSH1 0xFF AND PUSH2 0x488 JUMP JUMPDEST POP POP CALLVALUE PUSH2 0x20C JUMPI DUP2 PUSH1 0x3 NOT CALLDATASIZE ADD SLT PUSH2 0x20C JUMPI PUSH1 0x20 PUSH32 0x62E78CEA01BEE320CD4E420270B5EA74000D11B0C9F74754EBDBFC544B05A258 SWAP2 PUSH1 0x1 DUP1 SLOAD PUSH2 0x506 DUP3 DUP1 PUSH1 0xA0 SHL SUB DUP3 PUSH1 0x8 SHR AND CALLER EQ PUSH2 0xB94 JUMP JUMPDEST PUSH2 0x50E PUSH2 0xD90 JUMP JUMPDEST PUSH1 0xFF NOT AND OR PUSH1 0x1 SSTORE MLOAD CALLER DUP2 MSTORE LOG1 DUP1 RETURN JUMPDEST POP SWAP2 CALLVALUE PUSH2 0x340 JUMPI PUSH1 0xE0 CALLDATASIZE PUSH1 0x3 NOT ADD SLT PUSH2 0x340 JUMPI PUSH2 0x539 PUSH2 0xA63 JUMP JUMPDEST SWAP1 PUSH1 0x64 CALLDATALOAD SWAP2 PUSH8 0xFFFFFFFFFFFFFFFF SWAP5 DUP6 DUP5 GT PUSH2 0x182 JUMPI CALLDATASIZE PUSH1 0x23 DUP6 ADD SLT ISZERO PUSH2 0x182 JUMPI DUP4 ADD CALLDATALOAD SWAP1 DUP6 DUP3 GT PUSH2 0x182 JUMPI CALLDATASIZE PUSH1 0x24 DUP4 PUSH1 0x5 SHL DUP7 ADD ADD GT PUSH2 0x182 JUMPI PUSH1 0x84 CALLDATALOAD SWAP3 PUSH1 0x1 PUSH1 0x1 PUSH1 0xA0 SHL SUB DUP5 AND DUP5 SUB PUSH2 0x340 JUMPI PUSH1 0xC4 CALLDATALOAD SWAP7 DUP8 AND DUP8 SUB PUSH2 0x340 JUMPI POP SWAP2 PUSH2 0x5B4 SWAP4 SWAP2 PUSH1 0x20 SWAP7 SWAP4 PUSH1 0x24 PUSH1 0xA4 CALLDATALOAD SWAP5 ADD SWAP1 PUSH1 0x44 CALLDATALOAD SWAP1 PUSH1 0x24 CALLDATALOAD SWAP1 PUSH2 0xBCD JUMP JUMPDEST SWAP1 MLOAD SWAP1 ISZERO ISZERO DUP2 MSTORE RETURN JUMPDEST POP CALLVALUE PUSH2 0x182 JUMPI PUSH1 0x20 CALLDATASIZE PUSH1 0x3 NOT ADD SLT PUSH2 0x182 JUMPI DUP2 PUSH1 0x20 SWAP4 PUSH1 0xFF SWAP3 CALLDATALOAD DUP2 MSTORE PUSH1 0x5 DUP6 MSTORE KECCAK256 SLOAD AND SWAP1 MLOAD SWAP1 ISZERO ISZERO DUP2 MSTORE RETURN JUMPDEST POP POP CALLVALUE PUSH2 0x20C JUMPI DUP2 PUSH1 0x3 NOT CALLDATASIZE ADD SLT PUSH2 0x20C JUMPI PUSH1 0x20 SWAP1 PUSH1 0xFF PUSH1 0x1 SLOAD AND SWAP1 MLOAD SWAP1 ISZERO ISZERO DUP2 MSTORE RETURN JUMPDEST POP POP CALLVALUE PUSH2 0x20C JUMPI DUP1 PUSH1 0x3 NOT CALLDATASIZE ADD SLT PUSH2 0x20C JUMPI PUSH2 0x627 PUSH2 0xA63 JUMP JUMPDEST SWAP1 PUSH1 0x24 CALLDATALOAD SWAP2 DUP3 ISZERO ISZERO DUP1 SWAP4 SUB PUSH2 0x66A JUMPI PUSH1 0x1 DUP1 PUSH1 0xA0 SHL SUB SWAP1 PUSH2 0x650 DUP3 PUSH1 0x1 SLOAD PUSH1 0x8 SHR AND CALLER EQ PUSH2 0xB94 JUMP JUMPDEST AND DUP4 MSTORE PUSH1 0x6 PUSH1 0x20 MSTORE DUP3 KECCAK256 SWAP1 PUSH1 0xFF DUP1 NOT DUP4 SLOAD AND SWAP2 AND OR SWAP1 SSTORE DUP1 RETURN JUMPDEST DUP4 DUP1 REVERT JUMPDEST POP CALLVALUE PUSH2 0x182 JUMPI DUP3 PUSH1 0x3 NOT CALLDATASIZE ADD SLT PUSH2 0x182 JUMPI PUSH1 0x1 SLOAD SWAP1 PUSH2 0x69B CALLER PUSH1 0x8 DUP5 SWAP1 SHR PUSH1 0x1 PUSH1 0x1 PUSH1 0xA0 SHL SUB AND EQ PUSH2 0xB94 JUMP JUMPDEST PUSH1 0xFF DUP3 AND ISZERO PUSH2 0x6D9 JUMPI POP PUSH1 0xFF NOT AND PUSH1 0x1 SSTORE MLOAD CALLER DUP2 MSTORE PUSH32 0x5DB9EE0A495BF2E6FF9C91A7834C1BA4FDD244A5E8AA4E537BD38AEAE4B073AA SWAP1 PUSH1 0x20 SWAP1 LOG1 DUP1 RETURN JUMPDEST PUSH1 0x64 SWAP1 PUSH1 0x20 DUP5 MLOAD SWAP2 PUSH3 0x461BCD PUSH1 0xE5 SHL DUP4 MSTORE DUP3 ADD MSTORE PUSH1 0x14 PUSH1 0x24 DUP3 ADD MSTORE PUSH20 0x14185D5CD8589B194E881B9BDD081C185D5CD959 PUSH1 0x62 SHL PUSH1 0x44 DUP3 ADD MSTORE REVERT JUMPDEST POP CALLVALUE PUSH2 0x182 JUMPI DUP2 PUSH1 0x3 NOT CALLDATASIZE ADD SLT PUSH2 0x182 JUMPI CALLDATALOAD SWAP1 PUSH1 0x24 CALLDATALOAD DUP4 MSTORE PUSH1 0x2 PUSH1 0x20 MSTORE PUSH2 0x752 PUSH1 0x1 DUP1 PUSH1 0xA0 SHL SUB DUP1 PUSH1 0x1 DUP5 DUP8 KECCAK256 ADD SLOAD AND CALLER EQ SWAP1 DUP2 ISZERO PUSH2 0x2BD JUMPI POP PUSH2 0xB19 JUMP JUMPDEST DUP2 DUP4 MSTORE PUSH1 0x5 PUSH1 0x20 MSTORE PUSH2 0x76A PUSH1 0xFF DUP3 DUP6 KECCAK256 SLOAD AND ISZERO PUSH2 0xB56 JUMP JUMPDEST DUP2 DUP4 MSTORE PUSH1 0x5 PUSH1 0x20 MSTORE DUP3 KECCAK256 DUP1 SLOAD PUSH1 0xFF NOT AND PUSH1 0x1 OR SWAP1 SSTORE PUSH32 0xBC7909D45AB794EE63122077124D9CE05BEA1DB0768BE90C77D2EDDBDF1EEF4F DUP3 DUP1 LOG2 DUP1 RETURN JUMPDEST POP POP CALLVALUE PUSH2 0x20C JUMPI PUSH1 0x20 CALLDATASIZE PUSH1 0x3 NOT ADD SLT PUSH2 0x20C JUMPI PUSH1 0x20 SWAP2 PUSH1 0xFF SWAP1 DUP3 SWAP1 PUSH1 0x1 PUSH1 0x1 PUSH1 0xA0 SHL SUB PUSH2 0x7D1 PUSH2 0xA63 JUMP JUMPDEST AND DUP2 MSTORE PUSH1 0x6 DUP6 MSTORE KECCAK256 SLOAD AND SWAP1 MLOAD SWAP1 ISZERO ISZERO DUP2 MSTORE RETURN JUMPDEST POP SWAP1 CALLVALUE PUSH2 0x182 JUMPI PUSH1 0x60 CALLDATASIZE PUSH1 0x3 NOT ADD SLT PUSH2 0x182 JUMPI DUP2 CALLDATALOAD SWAP2 PUSH1 0x24 DUP1 CALLDATALOAD SWAP3 PUSH8 0xFFFFFFFFFFFFFFFF SWAP1 DUP2 DUP6 GT PUSH2 0xA2B JUMPI CALLDATASIZE PUSH1 0x23 DUP7 ADD SLT ISZERO PUSH2 0xA2B JUMPI DUP5 DUP5 ADD CALLDATALOAD SWAP2 DUP1 DUP4 GT PUSH2 0xA27 JUMPI CALLDATASIZE DUP5 DUP5 DUP9 ADD ADD GT PUSH2 0xA27 JUMPI PUSH1 0x44 CALLDATALOAD SWAP3 DUP2 DUP5 AND DUP1 SWAP5 SUB PUSH2 0xA23 JUMPI PUSH2 0x848 PUSH2 0xD90 JUMP JUMPDEST DUP8 DUP10 MSTORE PUSH1 0x20 SWAP7 PUSH1 0x2 DUP9 MSTORE DUP3 PUSH1 0x1 DUP6 DUP13 KECCAK256 ADD SLOAD PUSH1 0xA0 SHR AND PUSH2 0x9ED JUMPI DUP2 ISZERO PUSH2 0x9B9 JUMPI DUP4 MLOAD DUP3 DUP2 SWAP4 DUP9 DUP12 DUP5 ADD SWAP5 ADD DUP5 CALLDATACOPY DUP2 ADD DUP10 DUP2 ADD DUP13 SWAP1 MSTORE SUB DUP1 DUP4 MSTORE PUSH1 0x3F ADD PUSH1 0x1F NOT AND DUP3 ADD SWAP2 DUP4 DUP4 GT DUP2 DUP5 LT OR PUSH2 0x9A7 JUMPI DUP3 DUP12 DUP7 SWAP6 SWAP4 PUSH1 0x2 SWAP4 PUSH9 0xFF0000000000000000 SWAP7 DUP15 SWAP10 MSTORE MLOAD SWAP1 KECCAK256 SWAP11 PUSH2 0x8B9 DUP4 PUSH2 0xACB JUMP JUMPDEST DUP12 DUP4 MSTORE DUP7 DUP2 DUP5 ADD SWAP3 CALLER DUP5 MSTORE DUP6 DUP3 DUP7 ADD SWAP4 DUP9 TIMESTAMP AND DUP6 MSTORE PUSH1 0x60 DUP8 ADD SWAP13 DUP14 MSTORE PUSH1 0x80 DUP8 ADD SWAP12 DUP4 DUP14 MSTORE DUP4 MSTORE MSTORE KECCAK256 SWAP3 MLOAD DUP4 SSTORE PUSH1 0x1 DUP4 ADD SWAP2 PUSH1 0x1 DUP1 PUSH1 0xA0 SHL SUB SWAP1 MLOAD AND DUP3 SLOAD SWAP2 PUSH8 0xFFFFFFFFFFFFFFFF PUSH1 0xA0 SHL SWAP1 MLOAD PUSH1 0xA0 SHL AND SWAP2 PUSH4 0xFFFFFFFF PUSH1 0xE0 SHL AND OR OR SWAP1 SSTORE ADD SWAP5 MLOAD AND SWAP2 DUP5 SLOAD SWAP4 MLOAD ISZERO ISZERO SWAP1 SHL AND SWAP2 PUSH9 0xFFFFFFFFFFFFFFFFFF NOT AND OR OR SWAP1 SSTORE PUSH1 0x3 SLOAD SWAP2 PUSH1 0x1 PUSH1 0x40 SHL DUP4 LT ISZERO PUSH2 0x996 JUMPI POP POP DUP1 PUSH1 0x1 PUSH2 0x958 SWAP3 ADD PUSH1 0x3 SSTORE PUSH2 0xA7E JUMP JUMPDEST DUP2 SLOAD SWAP1 PUSH1 0x3 SHL SWAP1 DUP5 DUP3 SHL SWAP2 PUSH1 0x0 NOT SWAP1 SHL NOT AND OR SWAP1 SSTORE CALLER SWAP2 PUSH32 0xF29A7A8B7E17110FEB5338446FBFDCB1F7370015C5A13BFDF070CCBF6B5E2DFE DUP5 DUP1 LOG4 DUP1 RETURN JUMPDEST PUSH4 0x4E487B71 PUSH1 0xE0 SHL DUP7 MSTORE PUSH1 0x41 SWAP1 MSTORE DUP5 REVERT JUMPDEST PUSH4 0x4E487B71 PUSH1 0xE0 SHL DUP12 MSTORE PUSH1 0x41 DUP9 MSTORE DUP7 DUP12 REVERT JUMPDEST DUP4 MLOAD PUSH3 0x461BCD PUSH1 0xE5 SHL DUP2 MSTORE DUP1 DUP9 ADD DUP10 SWAP1 MSTORE PUSH1 0xF DUP2 DUP9 ADD MSTORE PUSH15 0x1058DD1A5BDB881C995C5D5A5C9959 PUSH1 0x8A SHL PUSH1 0x44 DUP3 ADD MSTORE PUSH1 0x64 SWAP1 REVERT JUMPDEST DUP4 MLOAD PUSH3 0x461BCD PUSH1 0xE5 SHL DUP2 MSTORE DUP1 DUP9 ADD DUP10 SWAP1 MSTORE PUSH1 0x11 DUP2 DUP9 ADD MSTORE PUSH17 0x4361706162696C69747920657869737473 PUSH1 0x78 SHL PUSH1 0x44 DUP3 ADD MSTORE PUSH1 0x64 SWAP1 REVERT JUMPDEST DUP9 DUP1 REVERT JUMPDEST DUP8 DUP1 REVERT JUMPDEST DUP7 DUP1 REVERT JUMPDEST SWAP3 SWAP2 SWAP1 POP CALLVALUE PUSH2 0x66A JUMPI PUSH1 0x20 CALLDATASIZE PUSH1 0x3 NOT ADD SLT PUSH2 0x66A JUMPI PUSH1 0x20 SWAP4 SWAP1 PUSH1 0x1 PUSH1 0x1 PUSH1 0xA0 SHL SUB PUSH2 0xA58 PUSH2 0xA63 JUMP JUMPDEST AND DUP3 MSTORE DUP5 MSTORE KECCAK256 SLOAD DUP2 MSTORE RETURN JUMPDEST PUSH1 0x4 CALLDATALOAD SWAP1 PUSH1 0x1 PUSH1 0x1 PUSH1 0xA0 SHL SUB DUP3 AND DUP3 SUB PUSH2 0xA79 JUMPI JUMP JUMPDEST PUSH1 0x0 DUP1 REVERT JUMPDEST PUSH1 0x3 SLOAD DUP2 LT ISZERO PUSH2 0xAB5 JUMPI PUSH1 0x3 PUSH1 0x0 MSTORE PUSH32 0xC2575A0E9E593C00F959F8C92F12DB2869C3395A3B0502D05E2516446F71F85B ADD SWAP1 PUSH1 0x0 SWAP1 JUMP JUMPDEST PUSH4 0x4E487B71 PUSH1 0xE0 SHL PUSH1 0x0 MSTORE PUSH1 0x32 PUSH1 0x4 MSTORE PUSH1 0x24 PUSH1 0x0 REVERT JUMPDEST PUSH1 0xA0 DUP2 ADD SWAP1 DUP2 LT PUSH8 0xFFFFFFFFFFFFFFFF DUP3 GT OR PUSH2 0xAE7 JUMPI PUSH1 0x40 MSTORE JUMP JUMPDEST PUSH4 0x4E487B71 PUSH1 0xE0 SHL PUSH1 0x0 MSTORE PUSH1 0x41 PUSH1 0x4 MSTORE PUSH1 0x24 PUSH1 0x0 REVERT JUMPDEST PUSH1 0x60 DUP2 ADD SWAP1 DUP2 LT PUSH8 0xFFFFFFFFFFFFFFFF DUP3 GT OR PUSH2 0xAE7 JUMPI PUSH1 0x40 MSTORE JUMP JUMPDEST ISZERO PUSH2 0xB20 JUMPI JUMP JUMPDEST PUSH1 0x40 MLOAD PUSH3 0x461BCD PUSH1 0xE5 SHL DUP2 MSTORE PUSH1 0x20 PUSH1 0x4 DUP3 ADD MSTORE PUSH1 0xE PUSH1 0x24 DUP3 ADD MSTORE PUSH14 0x139BDD08185D5D1A1BDC9A5E9959 PUSH1 0x92 SHL PUSH1 0x44 DUP3 ADD MSTORE PUSH1 0x64 SWAP1 REVERT JUMPDEST ISZERO PUSH2 0xB5D JUMPI JUMP JUMPDEST PUSH1 0x40 MLOAD PUSH3 0x461BCD PUSH1 0xE5 SHL DUP2 MSTORE PUSH1 0x20 PUSH1 0x4 DUP3 ADD MSTORE PUSH1 0xF PUSH1 0x24 DUP3 ADD MSTORE PUSH15 0x105B1C9958591E481C995D9BDAD959 PUSH1 0x8A SHL PUSH1 0x44 DUP3 ADD MSTORE PUSH1 0x64 SWAP1 REVERT JUMPDEST ISZERO PUSH2 0xB9B JUMPI JUMP JUMPDEST PUSH1 0x40 MLOAD PUSH3 0x461BCD PUSH1 0xE5 SHL DUP2 MSTORE PUSH1 0x20 PUSH1 0x4 DUP3 ADD MSTORE PUSH1 0xA PUSH1 0x24 DUP3 ADD MSTORE PUSH10 0x27B7363C9037BBB732B9 PUSH1 0xB1 SHL PUSH1 0x44 DUP3 ADD MSTORE PUSH1 0x64 SWAP1 REVERT JUMPDEST SWAP6 SWAP1 SWAP3 SWAP7 SWAP5 SWAP2 SWAP7 PUSH1 0x0 SWAP2 DUP5 DUP4 MSTORE PUSH1 0x20 SWAP5 PUSH1 0x2 DUP7 MSTORE PUSH1 0x40 SWAP5 DUP6 DUP6 KECCAK256 SWAP9 PUSH1 0x2 DUP11 ADD SLOAD SWAP11 PUSH1 0xFF DUP13 DUP10 SHR AND PUSH2 0xD76 JUMPI PUSH8 0xFFFFFFFFFFFFFFFF DUP1 SWAP13 AND DUP1 ISZERO ISZERO SWAP1 DUP2 PUSH2 0xD86 JUMPI JUMPDEST POP PUSH2 0xD76 JUMPI PUSH1 0x1 SWAP11 DUP12 ADD SLOAD PUSH1 0x1 PUSH1 0x1 PUSH1 0xA0 SHL SUB SWAP4 DUP5 AND SWAP4 SWAP2 SWAP1 DUP3 AND DUP5 SWAP1 SUB PUSH2 0xD65 JUMPI SWAP1 DUP13 SWAP3 SWAP2 DUP10 MLOAD SWAP5 DUP12 DUP7 ADD SWAP7 DUP8 MSTORE DUP11 DUP7 ADD MSTORE AND SWAP5 DUP6 PUSH1 0x60 DUP6 ADD MSTORE PUSH1 0x80 DUP5 ADD MSTORE AND SWAP10 DUP11 PUSH1 0xA0 DUP4 ADD MSTORE PUSH1 0xA0 DUP3 MSTORE PUSH1 0xC0 DUP3 ADD SWAP1 DUP3 DUP3 LT SWAP1 DUP3 GT OR PUSH2 0xD51 JUMPI DUP7 MSTORE MLOAD SWAP1 KECCAK256 DUP10 SWAP1 SUB PUSH2 0xD2E JUMPI DUP3 MSTORE PUSH1 0x4 DUP5 MSTORE DUP3 DUP3 KECCAK256 SLOAD SWAP8 DUP9 ISZERO PUSH2 0xD2E JUMPI DUP1 DUP4 MSTORE PUSH1 0x5 SWAP8 PUSH1 0x5 DUP7 MSTORE PUSH1 0xFF DUP6 DUP6 KECCAK256 SLOAD AND PUSH2 0xD44 JUMPI DUP1 ISZERO ISZERO SWAP1 DUP2 PUSH2 0xD3A JUMPI JUMPDEST POP PUSH2 0xD2E JUMPI SWAP7 SWAP6 SWAP5 SWAP4 SWAP3 SWAP2 SWAP1 DUP2 SWAP7 JUMPDEST DUP6 DUP9 LT PUSH2 0xCC8 JUMPI POP POP POP POP POP POP POP POP EQ SWAP1 JUMP JUMPDEST SWAP1 SWAP2 SWAP3 SWAP4 SWAP5 SWAP6 DUP8 SWAP9 DUP2 SWAP9 DUP4 SHL DUP5 ADD CALLDATALOAD DUP1 DUP3 LT PUSH1 0x0 EQ PUSH2 0xD0C JUMPI DUP7 MLOAD SWAP1 DUP9 DUP3 ADD SWAP3 DUP4 MSTORE DUP8 DUP3 ADD MSTORE DUP7 DUP2 MSTORE PUSH2 0xCFA DUP2 PUSH2 0xAFD JUMP JUMPDEST MLOAD SWAP1 KECCAK256 JUMPDEST SWAP9 ADD SWAP7 SWAP6 SWAP5 SWAP4 SWAP3 SWAP2 SWAP1 PUSH2 0xCB5 JUMP JUMPDEST SWAP1 DUP7 MLOAD SWAP1 DUP9 DUP3 ADD SWAP3 DUP4 MSTORE DUP8 DUP3 ADD MSTORE DUP7 DUP2 MSTORE PUSH2 0xD26 DUP2 PUSH2 0xAFD JUMP JUMPDEST MLOAD SWAP1 KECCAK256 PUSH2 0xCFE JUMP JUMPDEST POP POP SWAP6 POP POP POP POP POP POP SWAP1 JUMP JUMPDEST SWAP1 POP TIMESTAMP GT CODESIZE PUSH2 0xCA6 JUMP JUMPDEST POP POP POP SWAP6 POP POP POP POP POP POP SWAP1 JUMP JUMPDEST PUSH4 0x4E487B71 PUSH1 0xE0 SHL DUP7 MSTORE PUSH1 0x41 PUSH1 0x4 MSTORE PUSH1 0x24 DUP7 REVERT JUMPDEST POP POP POP POP POP POP POP SWAP6 POP POP POP POP POP POP SWAP1 JUMP JUMPDEST POP POP POP POP POP POP SWAP6 POP POP POP POP POP POP SWAP1 JUMP JUMPDEST SWAP1 POP TIMESTAMP GT CODESIZE PUSH2 0xC0E JUMP JUMPDEST PUSH1 0xFF PUSH1 0x1 SLOAD AND PUSH2 0xD9C JUMPI JUMP JUMPDEST PUSH1 0x40 MLOAD PUSH3 0x461BCD PUSH1 0xE5 SHL DUP2 MSTORE PUSH1 0x20 PUSH1 0x4 DUP3 ADD MSTORE PUSH1 0x10 PUSH1 0x24 DUP3 ADD MSTORE PUSH16 0x14185D5CD8589B194E881C185D5CD959 PUSH1 0x82 SHL PUSH1 0x44 DUP3 ADD MSTORE PUSH1 0x64 SWAP1 REVERT INVALID LOG2 PUSH5 0x6970667358 0x22 SLT KECCAK256 0xB5 PUSH16 0x7C618FEE96F74549082AA30C0E6D0CC3 EQ BLOBBASEFEE ADDRESS DIV EXTCODESIZE 0xBB RETURNDATASIZE PUSH27 0xF9B7378ECC4F64736F6C6343000818003300000000000000000000 "},"methodIdentifiers":{"capabilities(bytes32)":"c2ead131","capabilityList(uint256)":"a6e0a6ce","getCapability(bytes32)":"9cb7c5f4","getCapabilityCount()":"b036fe7e","grantRoots(address)":"1656cd7e","owner()":"8da5cb5b","pause()":"8456cb59","paused()":"5c975abb","registerCapability(bytes32,string,uint64)":"24354992","revokeCapability(bytes32)":"adf4d59e","revokeGrant(bytes32,bytes32)":"3a7f6cc7","revokedGrants(bytes32)":"6f4907a6","rootUpdaters(address)":"372b102d","setRootUpdater(address,bool)":"53739410","transferOwnership(address)":"f2fde38b","unpause()":"3f4ba83a","updateGrantRoot(address,bytes32)":"88a8baf9","verifyCapability(address,bytes32,bytes32,bytes32[],address,bytes32,uint64)":"7b23648a"}}}}}