{"src/DelegationManager.sol":{"DelegationManager":{"abi":[{"inputs":[],"stateMutability":"nonpayable","type":"constructor"},{"anonymous":false,"inputs":[{"indexed":true,"internalType":"bytes32","name":"delegationLeafHash","type":"bytes32"}],"name":"DelegationRevoked","type":"event"},{"anonymous":false,"inputs":[{"indexed":true,"internalType":"address","name":"delegator","type":"address"},{"indexed":false,"internalType":"bytes32","name":"newRoot","type":"bytes32"}],"name":"DelegationRootUpdated","type":"event"},{"anonymous":false,"inputs":[{"indexed":false,"internalType":"address","name":"account","type":"address"}],"name":"Paused","type":"event"},{"anonymous":false,"inputs":[{"indexed":false,"internalType":"address","name":"account","type":"address"}],"name":"Unpaused","type":"event"},{"inputs":[{"internalType":"address","name":"","type":"address"}],"name":"delegationRoots","outputs":[{"internalType":"bytes32","name":"","type":"bytes32"}],"stateMutability":"view","type":"function"},{"inputs":[{"internalType":"address","name":"delegator","type":"address"}],"name":"getDelegationRoot","outputs":[{"internalType":"bytes32","name":"","type":"bytes32"}],"stateMutability":"view","type":"function"},{"inputs":[],"name":"owner","outputs":[{"internalType":"address","name":"","type":"address"}],"stateMutability":"view","type":"function"},{"inputs":[],"name":"pause","outputs":[],"stateMutability":"nonpayable","type":"function"},{"inputs":[],"name":"paused","outputs":[{"internalType":"bool","name":"","type":"bool"}],"stateMutability":"view","type":"function"},{"inputs":[{"internalType":"bytes32","name":"delegationLeafHash","type":"bytes32"},{"internalType":"address","name":"delegator","type":"address"}],"name":"revokeDelegation","outputs":[],"stateMutability":"nonpayable","type":"function"},{"inputs":[{"internalType":"bytes32","name":"","type":"bytes32"}],"name":"revokedDelegations","outputs":[{"internalType":"bool","name":"","type":"bool"}],"stateMutability":"view","type":"function"},{"inputs":[{"internalType":"address","name":"","type":"address"}],"name":"rootUpdaters","outputs":[{"internalType":"bool","name":"","type":"bool"}],"stateMutability":"view","type":"function"},{"inputs":[{"internalType":"address","name":"updater","type":"address"},{"internalType":"bool","name":"allowed","type":"bool"}],"name":"setRootUpdater","outputs":[],"stateMutability":"nonpayable","type":"function"},{"inputs":[],"name":"unpause","outputs":[],"stateMutability":"nonpayable","type":"function"},{"inputs":[{"internalType":"address","name":"delegator","type":"address"},{"internalType":"bytes32","name":"newRoot","type":"bytes32"}],"name":"updateDelegationRoot","outputs":[],"stateMutability":"nonpayable","type":"function"},{"inputs":[{"internalType":"bytes32","name":"delegationLeaf","type":"bytes32"},{"internalType":"bytes32[]","name":"merkleProof","type":"bytes32[]"},{"internalType":"address","name":"delegator","type":"address"},{"internalType":"bytes32","name":"scopeHash","type":"bytes32"},{"internalType":"uint64","name":"expiresAt","type":"uint64"},{"internalType":"uint8","name":"maxDepth","type":"uint8"}],"name":"verifyDelegation","outputs":[{"internalType":"bool","name":"","type":"bool"}],"stateMutability":"view","type":"function"},{"inputs":[{"internalType":"bytes32[]","name":"delegationLeaves","type":"bytes32[]"},{"internalType":"bytes32[][]","name":"merkleProofs","type":"bytes32[][]"},{"internalType":"address[]","name":"delegators","type":"address[]"},{"internalType":"address[]","name":"delegates","type":"address[]"},{"internalType":"bytes32[]","name":"scopeHashes","type":"bytes32[]"},{"internalType":"uint64[]","name":"expiries","type":"uint64[]"},{"internalType":"uint8[]","name":"maxDepths","type":"uint8[]"}],"name":"verifyDelegationChain","outputs":[{"internalType":"bool","name":"","type":"bool"}],"stateMutability":"view","type":"function"},{"inputs":[{"internalType":"bytes32","name":"delegationLeaf","type":"bytes32"},{"internalType":"bytes32[]","name":"merkleProof","type":"bytes32[]"},{"internalType":"address","name":"delegator","type":"address"},{"internalType":"string","name":"action","type":"string"},{"internalType":"uint64","name":"expiresAt","type":"uint64"},{"internalType":"uint8","name":"maxDepth","type":"uint8"}],"name":"verifyDelegationForAction","outputs":[{"internalType":"bool","name":"","type":"bool"}],"stateMutability":"view","type":"function"}],"evm":{"bytecode":{"linkReferences":{},"object":"6080806040523461003a576001600081905580546001600160a81b0319163360081b610100600160a81b0316179055610d4f90816100408239f35b600080fdfe6040608081526004908136101561001557600080fd5b6000803560e01c80631422050114610673578063232acf5e146106465780632d9fa06f1461052b578063372b102d146106095780633f4ba83a146105635780634bf04c731461052b57806353739410146104cf5780635c975abb146104ab5780638456cb59146104075780638da5cb5b146103d657806396f16c17146102e2578063afa6a1cf14610280578063be2ca9d0146101ab5763f53da7cd146100ba57600080fd5b346101a85760c03660031901126101a85767ffffffffffffffff6024358181116101a4576100eb903690860161072f565b6100f3610719565b906064358481116101a057366023820112156101a0578088013585811161019c57366024828401011161019c57610128610760565b95610131610777565b97895183819460246020840197018737810182602082015203808452603f601f1991011683019183831090831117610189575091602099939161018098979695938a5251902093339335610a72565b90519015158152f35b634e487b7160e01b815260418b52602490fd5b8680fd5b8580fd5b8280fd5b80fd5b509190346101a457806003193601126101a4578135916024356001600160a01b03818116918290036101a0576101eb91331490811561026f575b50610787565b828452600360205260ff828520541661023b575081835260036020528220805460ff191660011790557f6eb24ce38eb0f7d1e3b4291d5543c7286f02be3daed061b0f7eb6491213deb218280a280f35b6020606492519162461bcd60e51b8352820152600f60248201526e105b1c9958591e481c995d9bdad959608a1b6044820152fd5b905060015460081c163314386101e5565b50346101a85760c03660031901126101a8576024359067ffffffffffffffff82116101a857506020926102b9610180923690830161072f565b91906102c3610719565b916102cc610760565b926102d5610777565b9460643593339335610a72565b5091346101a45760e03660031901126101a45767ffffffffffffffff81358181116103d257610314903690840161072f565b9490926024358381116101a45761032e903690830161072f565b6044929192358581116103d257610348903690840161072f565b60649291923587811161019c57610362903690860161072f565b9390926084358981116103ce5761037c903690880161072f565b97909660a4358b81116103ca57610396903690830161072f565b9b909a60c4359182116101a85750916103c260209f9c9a989694926101809e9c9a98969436910161072f565b9c909b610837565b8a80fd5b8880fd5b8480fd5b509034610403578160031936011261040357600154905160089190911c6001600160a01b03168152602090f35b5080fd5b5091346101a457826003193601126101a4576001549061043533600884901c6001600160a01b0316146107c4565b60ff821661047557507f62e78cea01bee320cd4e420270b5ea74000d11b0c9f74754ebdbfc544b05a25891600160209260ff19161760015551338152a180f35b606490602084519162461bcd60e51b8352820152601060248201526f14185d5cd8589b194e881c185d5cd95960821b6044820152fd5b50903461040357816003193601126104035760209060ff6001541690519015158152f35b509190346101a457806003193601126101a4576104ea6106fe565b91602435928315158094036103d25760018060a01b03906105138260015460081c1633146107c4565b16845260205282209060ff8019835416911617905580f35b5090346104035760203660031901126104035760209181906001600160a01b036105536106fe565b1681526002845220549051908152f35b5091346101a457826003193601126101a4576001549061059133600884901c6001600160a01b0316146107c4565b60ff8216156105cf575060ff1916600155513381527f5db9ee0a495bf2e6ff9c91a7834c1ba4fdd244a5e8aa4e537bd38aeae4b073aa90602090a180f35b606490602084519162461bcd60e51b8352820152601460248201527314185d5cd8589b194e881b9bdd081c185d5cd95960621b6044820152fd5b5091346101a45760203660031901126101a45760209260ff918391906001600160a01b036106356106fe565b168252855220541690519015158152f35b5091346101a45760203660031901126101a4578160209360ff923581526003855220541690519015158152f35b509190346101a457806003193601126101a45760207feda38b4c19d200d522d6cafb61691a66a8d392081e10536a96529fe56ce5269c916106b26106fe565b6001600160a01b031693602435919033861480156106e9575b6106d59150610787565b84865260028352818187205551908152a280f35b5033875283526106d560ff82882054166106cb565b600435906001600160a01b038216820361071457565b600080fd5b604435906001600160a01b038216820361071457565b9181601f840112156107145782359167ffffffffffffffff8311610714576020808501948460051b01011161071457565b6084359067ffffffffffffffff8216820361071457565b60a4359060ff8216820361071457565b1561078e57565b60405162461bcd60e51b815260206004820152600e60248201526d139bdd08185d5d1a1bdc9a5e995960921b6044820152606490fd5b156107cb57565b60405162461bcd60e51b815260206004820152600a60248201526927b7363c9037bbb732b960b11b6044820152606490fd5b919081101561080d5760051b0190565b634e487b7160e01b600052603260045260246000fd5b356001600160a01b03811681036107145790565b9296989599939b9c909c9a949a9791978d156109f1576000978e5b891061086c57505050505050505050505050505050600190565b6000198f018f81116109c4578f908a8e8e9282146000146109da5750610896915033925b886107fd565b35828b101561080d578f8f928c918e600593841b81013590601e1990360301811215610714578f019182359567ffffffffffffffff93848811610714576020889101951b36038513610714578f8f908f8f95828f9594610905610900836109129861090b966107fd565b610823565b966107fd565b35956107fd565b359384168403610714578f96610929888c8c6107fd565b359560ff80881688036107145760018a01809a116109c45761094c991697610bc8565b15610970578d8915158a8f82610984575b505090506109705760018f990198610852565b505050505050505050505050505050600090565b6109009250610992936107fd565b6000198a018a81116109c4578d6109b66109008f9360018060a01b039485946107fd565b16911614158e908a8f61095d565b634e487b7160e01b600052601160045260246000fd5b61090082610896946109eb936107fd565b92610890565b60405162461bcd60e51b815260206004820152600b60248201526a22b6b83a3c9031b430b4b760a91b6044820152606490fd5b60e0810190811067ffffffffffffffff821117610a4057604052565b634e487b7160e01b600052604160045260246000fd5b6060810190811067ffffffffffffffff821117610a4057604052565b6001600160a01b039384166000818152600260209081526040808320549b969a979995989197909692959192908c15610bb857858752600360205260ff8888205416610bb85767ffffffffffffffff1690428210610bb85760ff169160019a83600111610ba7579086959493929189519460208601968888528b870152166060850152608084015260a083015260c082015260c08152610b1181610a24565b51902003610b9c5795949392919080955b808710610b3457505050505050501490565b90919293948697610b47829884896107fd565b3580821015610b7a5785519087820192835286820152858152610b6981610a56565b5190205b9701959493929190610b22565b9085519087820192835286820152858152610b9481610a56565b519020610b6d565b509550505050505090565b505050505050509550505050505090565b5050505050509550505050505090565b91969095979394929460018060a01b03809616916000948386526020976002602052604097888820549c8d15610d0857878952600360205260ff8a8a205416610d085767ffffffffffffffff1693428510610d085760ff90811694939291168410610cf8579086959493929189519460208601968888528b870152166060850152608084015260a083015260c082015260c08152610c6581610a24565b51902003610cee57949392919080945b808610610c86575050505050501490565b909192939495600190610c9a8884896107fd565b3580821015610ccc5785519087820192835286820152858152610cbc81610a56565b5190205b96019493929190610c75565b9085519087820192835286820152858152610ce681610a56565b519020610cc0565b5094505050505090565b5050505050505094505050505090565b50505050505050509450505050509056fea2646970667358221220b3e0f6903cbba460c0324ca1a2ea09079e83572a52a118d2b6f84869e444ee5164736f6c63430008180033","opcodes":"PUSH1 0x80 DUP1 PUSH1 0x40 MSTORE CALLVALUE PUSH2 0x3A JUMPI PUSH1 0x1 PUSH1 0x0 DUP2 SWAP1 SSTORE DUP1 SLOAD PUSH1 0x1 PUSH1 0x1 PUSH1 0xA8 SHL SUB NOT AND CALLER PUSH1 0x8 SHL PUSH2 0x100 PUSH1 0x1 PUSH1 0xA8 SHL SUB AND OR SWAP1 SSTORE PUSH2 0xD4F SWAP1 DUP2 PUSH2 0x40 DUP3 CODECOPY RETURN JUMPDEST PUSH1 0x0 DUP1 REVERT INVALID PUSH1 0x40 PUSH1 0x80 DUP2 MSTORE PUSH1 0x4 SWAP1 DUP2 CALLDATASIZE LT ISZERO PUSH2 0x15 JUMPI PUSH1 0x0 DUP1 REVERT JUMPDEST PUSH1 0x0 DUP1 CALLDATALOAD PUSH1 0xE0 SHR DUP1 PUSH4 0x14220501 EQ PUSH2 0x673 JUMPI DUP1 PUSH4 0x232ACF5E EQ PUSH2 0x646 JUMPI DUP1 PUSH4 0x2D9FA06F EQ PUSH2 0x52B JUMPI DUP1 PUSH4 0x372B102D EQ PUSH2 0x609 JUMPI DUP1 PUSH4 0x3F4BA83A EQ PUSH2 0x563 JUMPI DUP1 PUSH4 0x4BF04C73 EQ PUSH2 0x52B JUMPI DUP1 PUSH4 0x53739410 EQ PUSH2 0x4CF JUMPI DUP1 PUSH4 0x5C975ABB EQ PUSH2 0x4AB JUMPI DUP1 PUSH4 0x8456CB59 EQ PUSH2 0x407 JUMPI DUP1 PUSH4 0x8DA5CB5B EQ PUSH2 0x3D6 JUMPI DUP1 PUSH4 0x96F16C17 EQ PUSH2 0x2E2 JUMPI DUP1 PUSH4 0xAFA6A1CF EQ PUSH2 0x280 JUMPI DUP1 PUSH4 0xBE2CA9D0 EQ PUSH2 0x1AB JUMPI PUSH4 0xF53DA7CD EQ PUSH2 0xBA JUMPI PUSH1 0x0 DUP1 REVERT JUMPDEST CALLVALUE PUSH2 0x1A8 JUMPI PUSH1 0xC0 CALLDATASIZE PUSH1 0x3 NOT ADD SLT PUSH2 0x1A8 JUMPI PUSH8 0xFFFFFFFFFFFFFFFF PUSH1 0x24 CALLDATALOAD DUP2 DUP2 GT PUSH2 0x1A4 JUMPI PUSH2 0xEB SWAP1 CALLDATASIZE SWAP1 DUP7 ADD PUSH2 0x72F JUMP JUMPDEST PUSH2 0xF3 PUSH2 0x719 JUMP JUMPDEST SWAP1 PUSH1 0x64 CALLDATALOAD DUP5 DUP2 GT PUSH2 0x1A0 JUMPI CALLDATASIZE PUSH1 0x23 DUP3 ADD SLT ISZERO PUSH2 0x1A0 JUMPI DUP1 DUP9 ADD CALLDATALOAD DUP6 DUP2 GT PUSH2 0x19C JUMPI CALLDATASIZE PUSH1 0x24 DUP3 DUP5 ADD ADD GT PUSH2 0x19C JUMPI PUSH2 0x128 PUSH2 0x760 JUMP JUMPDEST SWAP6 PUSH2 0x131 PUSH2 0x777 JUMP JUMPDEST SWAP8 DUP10 MLOAD DUP4 DUP2 SWAP5 PUSH1 0x24 PUSH1 0x20 DUP5 ADD SWAP8 ADD DUP8 CALLDATACOPY DUP2 ADD DUP3 PUSH1 0x20 DUP3 ADD MSTORE SUB DUP1 DUP5 MSTORE PUSH1 0x3F PUSH1 0x1F NOT SWAP2 ADD AND DUP4 ADD SWAP2 DUP4 DUP4 LT SWAP1 DUP4 GT OR PUSH2 0x189 JUMPI POP SWAP2 PUSH1 0x20 SWAP10 SWAP4 SWAP2 PUSH2 0x180 SWAP9 SWAP8 SWAP7 SWAP6 SWAP4 DUP11 MSTORE MLOAD SWAP1 KECCAK256 SWAP4 CALLER SWAP4 CALLDATALOAD PUSH2 0xA72 JUMP JUMPDEST SWAP1 MLOAD SWAP1 ISZERO ISZERO DUP2 MSTORE RETURN JUMPDEST PUSH4 0x4E487B71 PUSH1 0xE0 SHL DUP2 MSTORE PUSH1 0x41 DUP12 MSTORE PUSH1 0x24 SWAP1 REVERT JUMPDEST DUP7 DUP1 REVERT JUMPDEST DUP6 DUP1 REVERT JUMPDEST DUP3 DUP1 REVERT JUMPDEST DUP1 REVERT JUMPDEST POP SWAP2 SWAP1 CALLVALUE PUSH2 0x1A4 JUMPI DUP1 PUSH1 0x3 NOT CALLDATASIZE ADD SLT PUSH2 0x1A4 JUMPI DUP2 CALLDATALOAD SWAP2 PUSH1 0x24 CALLDATALOAD PUSH1 0x1 PUSH1 0x1 PUSH1 0xA0 SHL SUB DUP2 DUP2 AND SWAP2 DUP3 SWAP1 SUB PUSH2 0x1A0 JUMPI PUSH2 0x1EB SWAP2 CALLER EQ SWAP1 DUP2 ISZERO PUSH2 0x26F JUMPI JUMPDEST POP PUSH2 0x787 JUMP JUMPDEST DUP3 DUP5 MSTORE PUSH1 0x3 PUSH1 0x20 MSTORE PUSH1 0xFF DUP3 DUP6 KECCAK256 SLOAD AND PUSH2 0x23B JUMPI POP DUP2 DUP4 MSTORE PUSH1 0x3 PUSH1 0x20 MSTORE DUP3 KECCAK256 DUP1 SLOAD PUSH1 0xFF NOT AND PUSH1 0x1 OR SWAP1 SSTORE PUSH32 0x6EB24CE38EB0F7D1E3B4291D5543C7286F02BE3DAED061B0F7EB6491213DEB21 DUP3 DUP1 LOG2 DUP1 RETURN JUMPDEST PUSH1 0x20 PUSH1 0x64 SWAP3 MLOAD SWAP2 PUSH3 0x461BCD PUSH1 0xE5 SHL DUP4 MSTORE DUP3 ADD MSTORE PUSH1 0xF PUSH1 0x24 DUP3 ADD MSTORE PUSH15 0x105B1C9958591E481C995D9BDAD959 PUSH1 0x8A SHL PUSH1 0x44 DUP3 ADD MSTORE REVERT JUMPDEST SWAP1 POP PUSH1 0x1 SLOAD PUSH1 0x8 SHR AND CALLER EQ CODESIZE PUSH2 0x1E5 JUMP JUMPDEST POP CALLVALUE PUSH2 0x1A8 JUMPI PUSH1 0xC0 CALLDATASIZE PUSH1 0x3 NOT ADD SLT PUSH2 0x1A8 JUMPI PUSH1 0x24 CALLDATALOAD SWAP1 PUSH8 0xFFFFFFFFFFFFFFFF DUP3 GT PUSH2 0x1A8 JUMPI POP PUSH1 0x20 SWAP3 PUSH2 0x2B9 PUSH2 0x180 SWAP3 CALLDATASIZE SWAP1 DUP4 ADD PUSH2 0x72F JUMP JUMPDEST SWAP2 SWAP1 PUSH2 0x2C3 PUSH2 0x719 JUMP JUMPDEST SWAP2 PUSH2 0x2CC PUSH2 0x760 JUMP JUMPDEST SWAP3 PUSH2 0x2D5 PUSH2 0x777 JUMP JUMPDEST SWAP5 PUSH1 0x64 CALLDATALOAD SWAP4 CALLER SWAP4 CALLDATALOAD PUSH2 0xA72 JUMP JUMPDEST POP SWAP2 CALLVALUE PUSH2 0x1A4 JUMPI PUSH1 0xE0 CALLDATASIZE PUSH1 0x3 NOT ADD SLT PUSH2 0x1A4 JUMPI PUSH8 0xFFFFFFFFFFFFFFFF DUP2 CALLDATALOAD DUP2 DUP2 GT PUSH2 0x3D2 JUMPI PUSH2 0x314 SWAP1 CALLDATASIZE SWAP1 DUP5 ADD PUSH2 0x72F JUMP JUMPDEST SWAP5 SWAP1 SWAP3 PUSH1 0x24 CALLDATALOAD DUP4 DUP2 GT PUSH2 0x1A4 JUMPI PUSH2 0x32E SWAP1 CALLDATASIZE SWAP1 DUP4 ADD PUSH2 0x72F JUMP JUMPDEST PUSH1 0x44 SWAP3 SWAP2 SWAP3 CALLDATALOAD DUP6 DUP2 GT PUSH2 0x3D2 JUMPI PUSH2 0x348 SWAP1 CALLDATASIZE SWAP1 DUP5 ADD PUSH2 0x72F JUMP JUMPDEST PUSH1 0x64 SWAP3 SWAP2 SWAP3 CALLDATALOAD DUP8 DUP2 GT PUSH2 0x19C JUMPI PUSH2 0x362 SWAP1 CALLDATASIZE SWAP1 DUP7 ADD PUSH2 0x72F JUMP JUMPDEST SWAP4 SWAP1 SWAP3 PUSH1 0x84 CALLDATALOAD DUP10 DUP2 GT PUSH2 0x3CE JUMPI PUSH2 0x37C SWAP1 CALLDATASIZE SWAP1 DUP9 ADD PUSH2 0x72F JUMP JUMPDEST SWAP8 SWAP1 SWAP7 PUSH1 0xA4 CALLDATALOAD DUP12 DUP2 GT PUSH2 0x3CA JUMPI PUSH2 0x396 SWAP1 CALLDATASIZE SWAP1 DUP4 ADD PUSH2 0x72F JUMP JUMPDEST SWAP12 SWAP1 SWAP11 PUSH1 0xC4 CALLDATALOAD SWAP2 DUP3 GT PUSH2 0x1A8 JUMPI POP SWAP2 PUSH2 0x3C2 PUSH1 0x20 SWAP16 SWAP13 SWAP11 SWAP9 SWAP7 SWAP5 SWAP3 PUSH2 0x180 SWAP15 SWAP13 SWAP11 SWAP9 SWAP7 SWAP5 CALLDATASIZE SWAP2 ADD PUSH2 0x72F JUMP JUMPDEST SWAP13 SWAP1 SWAP12 PUSH2 0x837 JUMP JUMPDEST DUP11 DUP1 REVERT JUMPDEST DUP9 DUP1 REVERT JUMPDEST DUP5 DUP1 REVERT JUMPDEST POP SWAP1 CALLVALUE PUSH2 0x403 JUMPI DUP2 PUSH1 0x3 NOT CALLDATASIZE ADD SLT PUSH2 0x403 JUMPI PUSH1 0x1 SLOAD SWAP1 MLOAD PUSH1 0x8 SWAP2 SWAP1 SWAP2 SHR PUSH1 0x1 PUSH1 0x1 PUSH1 0xA0 SHL SUB AND DUP2 MSTORE PUSH1 0x20 SWAP1 RETURN JUMPDEST POP DUP1 REVERT JUMPDEST POP SWAP2 CALLVALUE PUSH2 0x1A4 JUMPI DUP3 PUSH1 0x3 NOT CALLDATASIZE ADD SLT PUSH2 0x1A4 JUMPI PUSH1 0x1 SLOAD SWAP1 PUSH2 0x435 CALLER PUSH1 0x8 DUP5 SWAP1 SHR PUSH1 0x1 PUSH1 0x1 PUSH1 0xA0 SHL SUB AND EQ PUSH2 0x7C4 JUMP JUMPDEST PUSH1 0xFF DUP3 AND PUSH2 0x475 JUMPI POP PUSH32 0x62E78CEA01BEE320CD4E420270B5EA74000D11B0C9F74754EBDBFC544B05A258 SWAP2 PUSH1 0x1 PUSH1 0x20 SWAP3 PUSH1 0xFF NOT AND OR PUSH1 0x1 SSTORE MLOAD CALLER DUP2 MSTORE LOG1 DUP1 RETURN JUMPDEST PUSH1 0x64 SWAP1 PUSH1 0x20 DUP5 MLOAD SWAP2 PUSH3 0x461BCD PUSH1 0xE5 SHL DUP4 MSTORE DUP3 ADD MSTORE PUSH1 0x10 PUSH1 0x24 DUP3 ADD MSTORE PUSH16 0x14185D5CD8589B194E881C185D5CD959 PUSH1 0x82 SHL PUSH1 0x44 DUP3 ADD MSTORE REVERT JUMPDEST POP SWAP1 CALLVALUE PUSH2 0x403 JUMPI DUP2 PUSH1 0x3 NOT CALLDATASIZE ADD SLT PUSH2 0x403 JUMPI PUSH1 0x20 SWAP1 PUSH1 0xFF PUSH1 0x1 SLOAD AND SWAP1 MLOAD SWAP1 ISZERO ISZERO DUP2 MSTORE RETURN JUMPDEST POP SWAP2 SWAP1 CALLVALUE PUSH2 0x1A4 JUMPI DUP1 PUSH1 0x3 NOT CALLDATASIZE ADD SLT PUSH2 0x1A4 JUMPI PUSH2 0x4EA PUSH2 0x6FE JUMP JUMPDEST SWAP2 PUSH1 0x24 CALLDATALOAD SWAP3 DUP4 ISZERO ISZERO DUP1 SWAP5 SUB PUSH2 0x3D2 JUMPI PUSH1 0x1 DUP1 PUSH1 0xA0 SHL SUB SWAP1 PUSH2 0x513 DUP3 PUSH1 0x1 SLOAD PUSH1 0x8 SHR AND CALLER EQ PUSH2 0x7C4 JUMP JUMPDEST AND DUP5 MSTORE PUSH1 0x20 MSTORE DUP3 KECCAK256 SWAP1 PUSH1 0xFF DUP1 NOT DUP4 SLOAD AND SWAP2 AND OR SWAP1 SSTORE DUP1 RETURN JUMPDEST POP SWAP1 CALLVALUE PUSH2 0x403 JUMPI PUSH1 0x20 CALLDATASIZE PUSH1 0x3 NOT ADD SLT PUSH2 0x403 JUMPI PUSH1 0x20 SWAP2 DUP2 SWAP1 PUSH1 0x1 PUSH1 0x1 PUSH1 0xA0 SHL SUB PUSH2 0x553 PUSH2 0x6FE JUMP JUMPDEST AND DUP2 MSTORE PUSH1 0x2 DUP5 MSTORE KECCAK256 SLOAD SWAP1 MLOAD SWAP1 DUP2 MSTORE RETURN JUMPDEST POP SWAP2 CALLVALUE PUSH2 0x1A4 JUMPI DUP3 PUSH1 0x3 NOT CALLDATASIZE ADD SLT PUSH2 0x1A4 JUMPI PUSH1 0x1 SLOAD SWAP1 PUSH2 0x591 CALLER PUSH1 0x8 DUP5 SWAP1 SHR PUSH1 0x1 PUSH1 0x1 PUSH1 0xA0 SHL SUB AND EQ PUSH2 0x7C4 JUMP JUMPDEST PUSH1 0xFF DUP3 AND ISZERO PUSH2 0x5CF JUMPI POP PUSH1 0xFF NOT AND PUSH1 0x1 SSTORE MLOAD CALLER DUP2 MSTORE PUSH32 0x5DB9EE0A495BF2E6FF9C91A7834C1BA4FDD244A5E8AA4E537BD38AEAE4B073AA SWAP1 PUSH1 0x20 SWAP1 LOG1 DUP1 RETURN JUMPDEST PUSH1 0x64 SWAP1 PUSH1 0x20 DUP5 MLOAD SWAP2 PUSH3 0x461BCD PUSH1 0xE5 SHL DUP4 MSTORE DUP3 ADD MSTORE PUSH1 0x14 PUSH1 0x24 DUP3 ADD MSTORE PUSH20 0x14185D5CD8589B194E881B9BDD081C185D5CD959 PUSH1 0x62 SHL PUSH1 0x44 DUP3 ADD MSTORE REVERT JUMPDEST POP SWAP2 CALLVALUE PUSH2 0x1A4 JUMPI PUSH1 0x20 CALLDATASIZE PUSH1 0x3 NOT ADD SLT PUSH2 0x1A4 JUMPI PUSH1 0x20 SWAP3 PUSH1 0xFF SWAP2 DUP4 SWAP2 SWAP1 PUSH1 0x1 PUSH1 0x1 PUSH1 0xA0 SHL SUB PUSH2 0x635 PUSH2 0x6FE JUMP JUMPDEST AND DUP3 MSTORE DUP6 MSTORE KECCAK256 SLOAD AND SWAP1 MLOAD SWAP1 ISZERO ISZERO DUP2 MSTORE RETURN JUMPDEST POP SWAP2 CALLVALUE PUSH2 0x1A4 JUMPI PUSH1 0x20 CALLDATASIZE PUSH1 0x3 NOT ADD SLT PUSH2 0x1A4 JUMPI DUP2 PUSH1 0x20 SWAP4 PUSH1 0xFF SWAP3 CALLDATALOAD DUP2 MSTORE PUSH1 0x3 DUP6 MSTORE KECCAK256 SLOAD AND SWAP1 MLOAD SWAP1 ISZERO ISZERO DUP2 MSTORE RETURN JUMPDEST POP SWAP2 SWAP1 CALLVALUE PUSH2 0x1A4 JUMPI DUP1 PUSH1 0x3 NOT CALLDATASIZE ADD SLT PUSH2 0x1A4 JUMPI PUSH1 0x20 PUSH32 0xEDA38B4C19D200D522D6CAFB61691A66A8D392081E10536A96529FE56CE5269C SWAP2 PUSH2 0x6B2 PUSH2 0x6FE JUMP JUMPDEST PUSH1 0x1 PUSH1 0x1 PUSH1 0xA0 SHL SUB AND SWAP4 PUSH1 0x24 CALLDATALOAD SWAP2 SWAP1 CALLER DUP7 EQ DUP1 ISZERO PUSH2 0x6E9 JUMPI JUMPDEST PUSH2 0x6D5 SWAP2 POP PUSH2 0x787 JUMP JUMPDEST DUP5 DUP7 MSTORE PUSH1 0x2 DUP4 MSTORE DUP2 DUP2 DUP8 KECCAK256 SSTORE MLOAD SWAP1 DUP2 MSTORE LOG2 DUP1 RETURN JUMPDEST POP CALLER DUP8 MSTORE DUP4 MSTORE PUSH2 0x6D5 PUSH1 0xFF DUP3 DUP9 KECCAK256 SLOAD AND PUSH2 0x6CB JUMP JUMPDEST PUSH1 0x4 CALLDATALOAD SWAP1 PUSH1 0x1 PUSH1 0x1 PUSH1 0xA0 SHL SUB DUP3 AND DUP3 SUB PUSH2 0x714 JUMPI JUMP JUMPDEST PUSH1 0x0 DUP1 REVERT JUMPDEST PUSH1 0x44 CALLDATALOAD SWAP1 PUSH1 0x1 PUSH1 0x1 PUSH1 0xA0 SHL SUB DUP3 AND DUP3 SUB PUSH2 0x714 JUMPI JUMP JUMPDEST SWAP2 DUP2 PUSH1 0x1F DUP5 ADD SLT ISZERO PUSH2 0x714 JUMPI DUP3 CALLDATALOAD SWAP2 PUSH8 0xFFFFFFFFFFFFFFFF DUP4 GT PUSH2 0x714 JUMPI PUSH1 0x20 DUP1 DUP6 ADD SWAP5 DUP5 PUSH1 0x5 SHL ADD ADD GT PUSH2 0x714 JUMPI JUMP JUMPDEST PUSH1 0x84 CALLDATALOAD SWAP1 PUSH8 0xFFFFFFFFFFFFFFFF DUP3 AND DUP3 SUB PUSH2 0x714 JUMPI JUMP JUMPDEST PUSH1 0xA4 CALLDATALOAD SWAP1 PUSH1 0xFF DUP3 AND DUP3 SUB PUSH2 0x714 JUMPI JUMP JUMPDEST ISZERO PUSH2 0x78E JUMPI JUMP JUMPDEST PUSH1 0x40 MLOAD PUSH3 0x461BCD PUSH1 0xE5 SHL DUP2 MSTORE PUSH1 0x20 PUSH1 0x4 DUP3 ADD MSTORE PUSH1 0xE PUSH1 0x24 DUP3 ADD MSTORE PUSH14 0x139BDD08185D5D1A1BDC9A5E9959 PUSH1 0x92 SHL PUSH1 0x44 DUP3 ADD MSTORE PUSH1 0x64 SWAP1 REVERT JUMPDEST ISZERO PUSH2 0x7CB JUMPI JUMP JUMPDEST PUSH1 0x40 MLOAD PUSH3 0x461BCD PUSH1 0xE5 SHL DUP2 MSTORE PUSH1 0x20 PUSH1 0x4 DUP3 ADD MSTORE PUSH1 0xA PUSH1 0x24 DUP3 ADD MSTORE PUSH10 0x27B7363C9037BBB732B9 PUSH1 0xB1 SHL PUSH1 0x44 DUP3 ADD MSTORE PUSH1 0x64 SWAP1 REVERT JUMPDEST SWAP2 SWAP1 DUP2 LT ISZERO PUSH2 0x80D JUMPI PUSH1 0x5 SHL ADD SWAP1 JUMP JUMPDEST PUSH4 0x4E487B71 PUSH1 0xE0 SHL PUSH1 0x0 MSTORE PUSH1 0x32 PUSH1 0x4 MSTORE PUSH1 0x24 PUSH1 0x0 REVERT JUMPDEST CALLDATALOAD PUSH1 0x1 PUSH1 0x1 PUSH1 0xA0 SHL SUB DUP2 AND DUP2 SUB PUSH2 0x714 JUMPI SWAP1 JUMP JUMPDEST SWAP3 SWAP7 SWAP9 SWAP6 SWAP10 SWAP4 SWAP12 SWAP13 SWAP1 SWAP13 SWAP11 SWAP5 SWAP11 SWAP8 SWAP2 SWAP8 DUP14 ISZERO PUSH2 0x9F1 JUMPI PUSH1 0x0 SWAP8 DUP15 JUMPDEST DUP10 LT PUSH2 0x86C JUMPI POP POP POP POP POP POP POP POP POP POP POP POP POP POP POP PUSH1 0x1 SWAP1 JUMP JUMPDEST PUSH1 0x0 NOT DUP16 ADD DUP16 DUP2 GT PUSH2 0x9C4 JUMPI DUP16 SWAP1 DUP11 DUP15 DUP15 SWAP3 DUP3 EQ PUSH1 0x0 EQ PUSH2 0x9DA JUMPI POP PUSH2 0x896 SWAP2 POP CALLER SWAP3 JUMPDEST DUP9 PUSH2 0x7FD JUMP JUMPDEST CALLDATALOAD DUP3 DUP12 LT ISZERO PUSH2 0x80D JUMPI DUP16 DUP16 SWAP3 DUP13 SWAP2 DUP15 PUSH1 0x5 SWAP4 DUP5 SHL DUP2 ADD CALLDATALOAD SWAP1 PUSH1 0x1E NOT SWAP1 CALLDATASIZE SUB ADD DUP2 SLT ISZERO PUSH2 0x714 JUMPI DUP16 ADD SWAP2 DUP3 CALLDATALOAD SWAP6 PUSH8 0xFFFFFFFFFFFFFFFF SWAP4 DUP5 DUP9 GT PUSH2 0x714 JUMPI PUSH1 0x20 DUP9 SWAP2 ADD SWAP6 SHL CALLDATASIZE SUB DUP6 SGT PUSH2 0x714 JUMPI DUP16 DUP16 SWAP1 DUP16 DUP16 SWAP6 DUP3 DUP16 SWAP6 SWAP5 PUSH2 0x905 PUSH2 0x900 DUP4 PUSH2 0x912 SWAP9 PUSH2 0x90B SWAP7 PUSH2 0x7FD JUMP JUMPDEST PUSH2 0x823 JUMP JUMPDEST SWAP7 PUSH2 0x7FD JUMP JUMPDEST CALLDATALOAD SWAP6 PUSH2 0x7FD JUMP JUMPDEST CALLDATALOAD SWAP4 DUP5 AND DUP5 SUB PUSH2 0x714 JUMPI DUP16 SWAP7 PUSH2 0x929 DUP9 DUP13 DUP13 PUSH2 0x7FD JUMP JUMPDEST CALLDATALOAD SWAP6 PUSH1 0xFF DUP1 DUP9 AND DUP9 SUB PUSH2 0x714 JUMPI PUSH1 0x1 DUP11 ADD DUP1 SWAP11 GT PUSH2 0x9C4 JUMPI PUSH2 0x94C SWAP10 AND SWAP8 PUSH2 0xBC8 JUMP JUMPDEST ISZERO PUSH2 0x970 JUMPI DUP14 DUP10 ISZERO ISZERO DUP11 DUP16 DUP3 PUSH2 0x984 JUMPI JUMPDEST POP POP SWAP1 POP PUSH2 0x970 JUMPI PUSH1 0x1 DUP16 SWAP10 ADD SWAP9 PUSH2 0x852 JUMP JUMPDEST POP POP POP POP POP POP POP POP POP POP POP POP POP POP POP PUSH1 0x0 SWAP1 JUMP JUMPDEST PUSH2 0x900 SWAP3 POP PUSH2 0x992 SWAP4 PUSH2 0x7FD JUMP JUMPDEST PUSH1 0x0 NOT DUP11 ADD DUP11 DUP2 GT PUSH2 0x9C4 JUMPI DUP14 PUSH2 0x9B6 PUSH2 0x900 DUP16 SWAP4 PUSH1 0x1 DUP1 PUSH1 0xA0 SHL SUB SWAP5 DUP6 SWAP5 PUSH2 0x7FD JUMP JUMPDEST AND SWAP2 AND EQ ISZERO DUP15 SWAP1 DUP11 DUP16 PUSH2 0x95D JUMP JUMPDEST PUSH4 0x4E487B71 PUSH1 0xE0 SHL PUSH1 0x0 MSTORE PUSH1 0x11 PUSH1 0x4 MSTORE PUSH1 0x24 PUSH1 0x0 REVERT JUMPDEST PUSH2 0x900 DUP3 PUSH2 0x896 SWAP5 PUSH2 0x9EB SWAP4 PUSH2 0x7FD JUMP JUMPDEST SWAP3 PUSH2 0x890 JUMP JUMPDEST PUSH1 0x40 MLOAD PUSH3 0x461BCD PUSH1 0xE5 SHL DUP2 MSTORE PUSH1 0x20 PUSH1 0x4 DUP3 ADD MSTORE PUSH1 0xB PUSH1 0x24 DUP3 ADD MSTORE PUSH11 0x22B6B83A3C9031B430B4B7 PUSH1 0xA9 SHL PUSH1 0x44 DUP3 ADD MSTORE PUSH1 0x64 SWAP1 REVERT JUMPDEST PUSH1 0xE0 DUP2 ADD SWAP1 DUP2 LT PUSH8 0xFFFFFFFFFFFFFFFF DUP3 GT OR PUSH2 0xA40 JUMPI PUSH1 0x40 MSTORE JUMP JUMPDEST PUSH4 0x4E487B71 PUSH1 0xE0 SHL PUSH1 0x0 MSTORE PUSH1 0x41 PUSH1 0x4 MSTORE PUSH1 0x24 PUSH1 0x0 REVERT JUMPDEST PUSH1 0x60 DUP2 ADD SWAP1 DUP2 LT PUSH8 0xFFFFFFFFFFFFFFFF DUP3 GT OR PUSH2 0xA40 JUMPI PUSH1 0x40 MSTORE JUMP JUMPDEST PUSH1 0x1 PUSH1 0x1 PUSH1 0xA0 SHL SUB SWAP4 DUP5 AND PUSH1 0x0 DUP2 DUP2 MSTORE PUSH1 0x2 PUSH1 0x20 SWAP1 DUP2 MSTORE PUSH1 0x40 DUP1 DUP4 KECCAK256 SLOAD SWAP12 SWAP7 SWAP11 SWAP8 SWAP10 SWAP6 SWAP9 SWAP2 SWAP8 SWAP1 SWAP7 SWAP3 SWAP6 SWAP2 SWAP3 SWAP1 DUP13 ISZERO PUSH2 0xBB8 JUMPI DUP6 DUP8 MSTORE PUSH1 0x3 PUSH1 0x20 MSTORE PUSH1 0xFF DUP9 DUP9 KECCAK256 SLOAD AND PUSH2 0xBB8 JUMPI PUSH8 0xFFFFFFFFFFFFFFFF AND SWAP1 TIMESTAMP DUP3 LT PUSH2 0xBB8 JUMPI PUSH1 0xFF AND SWAP2 PUSH1 0x1 SWAP11 DUP4 PUSH1 0x1 GT PUSH2 0xBA7 JUMPI SWAP1 DUP7 SWAP6 SWAP5 SWAP4 SWAP3 SWAP2 DUP10 MLOAD SWAP5 PUSH1 0x20 DUP7 ADD SWAP7 DUP9 DUP9 MSTORE DUP12 DUP8 ADD MSTORE AND PUSH1 0x60 DUP6 ADD MSTORE PUSH1 0x80 DUP5 ADD MSTORE PUSH1 0xA0 DUP4 ADD MSTORE PUSH1 0xC0 DUP3 ADD MSTORE PUSH1 0xC0 DUP2 MSTORE PUSH2 0xB11 DUP2 PUSH2 0xA24 JUMP JUMPDEST MLOAD SWAP1 KECCAK256 SUB PUSH2 0xB9C JUMPI SWAP6 SWAP5 SWAP4 SWAP3 SWAP2 SWAP1 DUP1 SWAP6 JUMPDEST DUP1 DUP8 LT PUSH2 0xB34 JUMPI POP POP POP POP POP POP POP EQ SWAP1 JUMP JUMPDEST SWAP1 SWAP2 SWAP3 SWAP4 SWAP5 DUP7 SWAP8 PUSH2 0xB47 DUP3 SWAP9 DUP5 DUP10 PUSH2 0x7FD JUMP JUMPDEST CALLDATALOAD DUP1 DUP3 LT ISZERO PUSH2 0xB7A JUMPI DUP6 MLOAD SWAP1 DUP8 DUP3 ADD SWAP3 DUP4 MSTORE DUP7 DUP3 ADD MSTORE DUP6 DUP2 MSTORE PUSH2 0xB69 DUP2 PUSH2 0xA56 JUMP JUMPDEST MLOAD SWAP1 KECCAK256 JUMPDEST SWAP8 ADD SWAP6 SWAP5 SWAP4 SWAP3 SWAP2 SWAP1 PUSH2 0xB22 JUMP JUMPDEST SWAP1 DUP6 MLOAD SWAP1 DUP8 DUP3 ADD SWAP3 DUP4 MSTORE DUP7 DUP3 ADD MSTORE DUP6 DUP2 MSTORE PUSH2 0xB94 DUP2 PUSH2 0xA56 JUMP JUMPDEST MLOAD SWAP1 KECCAK256 PUSH2 0xB6D JUMP JUMPDEST POP SWAP6 POP POP POP POP POP POP SWAP1 JUMP JUMPDEST POP POP POP POP POP POP POP SWAP6 POP POP POP POP POP POP SWAP1 JUMP JUMPDEST POP POP POP POP POP POP SWAP6 POP POP POP POP POP POP SWAP1 JUMP JUMPDEST SWAP2 SWAP7 SWAP1 SWAP6 SWAP8 SWAP4 SWAP5 SWAP3 SWAP5 PUSH1 0x1 DUP1 PUSH1 0xA0 SHL SUB DUP1 SWAP7 AND SWAP2 PUSH1 0x0 SWAP5 DUP4 DUP7 MSTORE PUSH1 0x20 SWAP8 PUSH1 0x2 PUSH1 0x20 MSTORE PUSH1 0x40 SWAP8 DUP9 DUP9 KECCAK256 SLOAD SWAP13 DUP14 ISZERO PUSH2 0xD08 JUMPI DUP8 DUP10 MSTORE PUSH1 0x3 PUSH1 0x20 MSTORE PUSH1 0xFF DUP11 DUP11 KECCAK256 SLOAD AND PUSH2 0xD08 JUMPI PUSH8 0xFFFFFFFFFFFFFFFF AND SWAP4 TIMESTAMP DUP6 LT PUSH2 0xD08 JUMPI PUSH1 0xFF SWAP1 DUP2 AND SWAP5 SWAP4 SWAP3 SWAP2 AND DUP5 LT PUSH2 0xCF8 JUMPI SWAP1 DUP7 SWAP6 SWAP5 SWAP4 SWAP3 SWAP2 DUP10 MLOAD SWAP5 PUSH1 0x20 DUP7 ADD SWAP7 DUP9 DUP9 MSTORE DUP12 DUP8 ADD MSTORE AND PUSH1 0x60 DUP6 ADD MSTORE PUSH1 0x80 DUP5 ADD MSTORE PUSH1 0xA0 DUP4 ADD MSTORE PUSH1 0xC0 DUP3 ADD MSTORE PUSH1 0xC0 DUP2 MSTORE PUSH2 0xC65 DUP2 PUSH2 0xA24 JUMP JUMPDEST MLOAD SWAP1 KECCAK256 SUB PUSH2 0xCEE JUMPI SWAP5 SWAP4 SWAP3 SWAP2 SWAP1 DUP1 SWAP5 JUMPDEST DUP1 DUP7 LT PUSH2 0xC86 JUMPI POP POP POP POP POP POP EQ SWAP1 JUMP JUMPDEST SWAP1 SWAP2 SWAP3 SWAP4 SWAP5 SWAP6 PUSH1 0x1 SWAP1 PUSH2 0xC9A DUP9 DUP5 DUP10 PUSH2 0x7FD JUMP JUMPDEST CALLDATALOAD DUP1 DUP3 LT ISZERO PUSH2 0xCCC JUMPI DUP6 MLOAD SWAP1 DUP8 DUP3 ADD SWAP3 DUP4 MSTORE DUP7 DUP3 ADD MSTORE DUP6 DUP2 MSTORE PUSH2 0xCBC DUP2 PUSH2 0xA56 JUMP JUMPDEST MLOAD SWAP1 KECCAK256 JUMPDEST SWAP7 ADD SWAP5 SWAP4 SWAP3 SWAP2 SWAP1 PUSH2 0xC75 JUMP JUMPDEST SWAP1 DUP6 MLOAD SWAP1 DUP8 DUP3 ADD SWAP3 DUP4 MSTORE DUP7 DUP3 ADD MSTORE DUP6 DUP2 MSTORE PUSH2 0xCE6 DUP2 PUSH2 0xA56 JUMP JUMPDEST MLOAD SWAP1 KECCAK256 PUSH2 0xCC0 JUMP JUMPDEST POP SWAP5 POP POP POP POP POP SWAP1 JUMP JUMPDEST POP POP POP POP POP POP POP SWAP5 POP POP POP POP POP SWAP1 JUMP JUMPDEST POP POP POP POP POP POP POP POP SWAP5 POP POP POP POP POP SWAP1 JUMP INVALID LOG2 PUSH5 0x6970667358 0x22 SLT KECCAK256 0xB3 0xE0 0xF6 SWAP1 EXTCODECOPY 0xBB LOG4 PUSH1 0xC0 ORIGIN 0x4C LOG1 LOG2 0xEA MULMOD SMOD SWAP15 DUP4 JUMPI 0x2A MSTORE LOG1 XOR 0xD2 0xB6 0xF8 BASEFEE PUSH10 0xE444EE5164736F6C6343 STOP ADDMOD XOR STOP CALLER "},"methodIdentifiers":{"delegationRoots(address)":"4bf04c73","getDelegationRoot(address)":"2d9fa06f","owner()":"8da5cb5b","pause()":"8456cb59","paused()":"5c975abb","revokeDelegation(bytes32,address)":"be2ca9d0","revokedDelegations(bytes32)":"232acf5e","rootUpdaters(address)":"372b102d","setRootUpdater(address,bool)":"53739410","unpause()":"3f4ba83a","updateDelegationRoot(address,bytes32)":"14220501","verifyDelegation(bytes32,bytes32[],address,bytes32,uint64,uint8)":"afa6a1cf","verifyDelegationChain(bytes32[],bytes32[][],address[],address[],bytes32[],uint64[],uint8[])":"96f16c17","verifyDelegationForAction(bytes32,bytes32[],address,string,uint64,uint8)":"f53da7cd"}}}}}