{"src/CapabilityRegistry.sol":{"CapabilityRegistry":{"abi":[{"inputs":[],"stateMutability":"nonpayable","type":"constructor"},{"anonymous":false,"inputs":[{"indexed":true,"internalType":"bytes32","name":"capabilityId","type":"bytes32"},{"indexed":false,"internalType":"string","name":"action","type":"string"},{"indexed":true,"internalType":"address","name":"registrar","type":"address"}],"name":"CapabilityRegistered","type":"event"},{"anonymous":false,"inputs":[{"indexed":true,"internalType":"bytes32","name":"capabilityId","type":"bytes32"}],"name":"CapabilityRevoked","type":"event"},{"anonymous":false,"inputs":[{"indexed":true,"internalType":"bytes32","name":"grantLeafHash","type":"bytes32"}],"name":"GrantRevoked","type":"event"},{"anonymous":false,"inputs":[{"indexed":true,"internalType":"address","name":"agent","type":"address"},{"indexed":false,"internalType":"bytes32","name":"newRoot","type":"bytes32"}],"name":"GrantRootUpdated","type":"event"},{"anonymous":false,"inputs":[{"indexed":false,"internalType":"address","name":"account","type":"address"}],"name":"Paused","type":"event"},{"anonymous":false,"inputs":[{"indexed":false,"internalType":"address","name":"account","type":"address"}],"name":"Unpaused","type":"event"},{"inputs":[{"internalType":"bytes32","name":"","type":"bytes32"}],"name":"capabilities","outputs":[{"internalType":"string","name":"action","type":"string"},{"internalType":"address","name":"registrar","type":"address"},{"internalType":"uint64","name":"createdAt","type":"uint64"},{"internalType":"uint64","name":"expiresAt","type":"uint64"},{"internalType":"bool","name":"revoked","type":"bool"}],"stateMutability":"view","type":"function"},{"inputs":[{"internalType":"uint256","name":"","type":"uint256"}],"name":"capabilityList","outputs":[{"internalType":"bytes32","name":"","type":"bytes32"}],"stateMutability":"view","type":"function"},{"inputs":[{"internalType":"bytes32","name":"capabilityId","type":"bytes32"}],"name":"getCapability","outputs":[{"components":[{"internalType":"string","name":"action","type":"string"},{"internalType":"address","name":"registrar","type":"address"},{"internalType":"uint64","name":"createdAt","type":"uint64"},{"internalType":"uint64","name":"expiresAt","type":"uint64"},{"internalType":"bool","name":"revoked","type":"bool"}],"internalType":"struct CapabilityRegistry.CapabilityDef","name":"","type":"tuple"}],"stateMutability":"view","type":"function"},{"inputs":[],"name":"getCapabilityCount","outputs":[{"internalType":"uint256","name":"","type":"uint256"}],"stateMutability":"view","type":"function"},{"inputs":[{"internalType":"address","name":"","type":"address"}],"name":"grantRoots","outputs":[{"internalType":"bytes32","name":"","type":"bytes32"}],"stateMutability":"view","type":"function"},{"inputs":[],"name":"owner","outputs":[{"internalType":"address","name":"","type":"address"}],"stateMutability":"view","type":"function"},{"inputs":[],"name":"pause","outputs":[],"stateMutability":"nonpayable","type":"function"},{"inputs":[],"name":"paused","outputs":[{"internalType":"bool","name":"","type":"bool"}],"stateMutability":"view","type":"function"},{"inputs":[{"internalType":"bytes32","name":"capabilityId","type":"bytes32"},{"internalType":"string","name":"action","type":"string"},{"internalType":"uint64","name":"expiresAt","type":"uint64"}],"name":"registerCapability","outputs":[],"stateMutability":"nonpayable","type":"function"},{"inputs":[{"internalType":"bytes32","name":"capabilityId","type":"bytes32"}],"name":"revokeCapability","outputs":[],"stateMutability":"nonpayable","type":"function"},{"inputs":[{"internalType":"bytes32","name":"grantLeafHash","type":"bytes32"},{"internalType":"bytes32","name":"capabilityId","type":"bytes32"}],"name":"revokeGrant","outputs":[],"stateMutability":"nonpayable","type":"function"},{"inputs":[{"internalType":"bytes32","name":"","type":"bytes32"}],"name":"revokedGrants","outputs":[{"internalType":"bool","name":"","type":"bool"}],"stateMutability":"view","type":"function"},{"inputs":[{"internalType":"address","name":"","type":"address"}],"name":"rootUpdaters","outputs":[{"internalType":"bool","name":"","type":"bool"}],"stateMutability":"view","type":"function"},{"inputs":[{"internalType":"address","name":"updater","type":"address"},{"internalType":"bool","name":"allowed","type":"bool"}],"name":"setRootUpdater","outputs":[],"stateMutability":"nonpayable","type":"function"},{"inputs":[],"name":"unpause","outputs":[],"stateMutability":"nonpayable","type":"function"},{"inputs":[{"internalType":"address","name":"agent","type":"address"},{"internalType":"bytes32","name":"newRoot","type":"bytes32"}],"name":"updateGrantRoot","outputs":[],"stateMutability":"nonpayable","type":"function"},{"inputs":[{"internalType":"address","name":"agent","type":"address"},{"internalType":"bytes32","name":"capabilityId","type":"bytes32"},{"internalType":"bytes32","name":"grantLeaf","type":"bytes32"},{"internalType":"bytes32[]","name":"merkleProof","type":"bytes32[]"},{"internalType":"address","name":"grantor","type":"address"},{"internalType":"bytes32","name":"constraintsHash","type":"bytes32"},{"internalType":"uint64","name":"expiresAt","type":"uint64"}],"name":"verifyCapability","outputs":[{"internalType":"bool","name":"","type":"bool"}],"stateMutability":"view","type":"function"}],"evm":{"bytecode":{"linkReferences":{},"object":"6080806040523461003a576001600081905580546001600160a81b0319163360081b610100600160a81b031617905561105690816100408239f35b600080fdfe608080604052600436101561001357600080fd5b60003560e01c9081631656cd7e14610b5757508063243549921461079e578063372b102d1461075f5780633a7f6cc7146106b05780633f4ba83a1461060c57806353739410146105ab5780635c975abb146105885780636f4907a6146105575780637b23648a146104bf5780638456cb591461045657806388a8baf9146103cb5780638da5cb5b1461039e5780639cb7c5f4146102b3578063a6e0a6ce1461027b578063adf4d59e14610184578063b036fe7e146101665763c2ead131146100da57600080fd5b34610161576020366003190112610161576004356000526002602052610133604060002061010781610cc1565b9060ff60018201549160026001600160401b03910154908060405196879660a0885260a0880190610ba3565b9460018060a01b038116602088015260a01c1660408601528116606085015260401c16151560808301520390f35b600080fd5b34610161576000366003190112610161576020600354604051908152f35b346101615760203660031901126101615760043580600052600260205260406000206001810154906001600160401b038260a01c161561023f576002916101e0906001600160a01b03908116331490811561022e575b50610d66565b01600160401b81546101f860ff8260401c1615610da3565b68ff000000000000000019161790557f49605d0360d8e90064c274ba9997a3d883d637411e4a6855594c367b31679d66600080a2005b905060015460081c163314856101da565b60405162461bcd60e51b815260206004820152601460248201527310d85c18589a5b1a5d1e481b9bdd08199bdd5b9960621b6044820152606490fd5b3461016157602036600319011261016157600435600354811015610161576102a4602091610be3565b90549060031b1c604051908152f35b34610161576020806003193601126101615760a090600060806040516102d881610c6a565b6060815282848201528260408201528260608201520152600435600052600281526040600020906040519161030c83610c6a565b61031581610cc1565b83526002600182015492600180871b03928186019484811686526001600160401b039384928360408a01938b1c16835201549461037c6060890194848816865260ff60808b019860401c16151588526040519a8b9a828c5251918b015260c08a0190610ba3565b9651166040880152511660608601525116608084015251151560a08301520390f35b346101615760003660031901126101615760015460405160089190911c6001600160a01b03168152602090f35b34610161576040366003190112610161576103e4610b8d565b6001600160a01b03167fd16ef39bb9aa303cfb433f8db1c88ac040afe9393441412bf5b1f0f97d0104b76020602435338414801561043e575b61042690610d66565b836000526004825280604060002055604051908152a2005b5033600090815260068352604090205460ff1661041d565b34610161576000366003190112610161576001805461048333600883901c6001600160a01b031614610de1565b61048b610fdc565b60ff1916176001557f62e78cea01bee320cd4e420270b5ea74000d11b0c9f74754ebdbfc544b05a2586020604051338152a1005b346101615760e0366003190112610161576104d8610b8d565b606435906001600160401b03808311610161573660238401121561016157826004013592818411610161573660248560051b83010111610161576084356001600160a01b03811681036101615760c43592831683036101615760209461054d94602460a4359401906044359060243590610e1a565b6040519015158152f35b34610161576020366003190112610161576004356000526005602052602060ff604060002054166040519015158152f35b3461016157600036600319011261016157602060ff600154166040519015158152f35b34610161576040366003190112610161576105c4610b8d565b602435908115158092036101615760018060a01b03906105ec8260015460081c163314610de1565b16600052600660205260406000209060ff80198354169116179055600080f35b346101615760003660031901126101615760015461063833600883901c6001600160a01b031614610de1565b60ff8116156106745760ff19166001557f5db9ee0a495bf2e6ff9c91a7834c1ba4fdd244a5e8aa4e537bd38aeae4b073aa6020604051338152a1005b60405162461bcd60e51b815260206004820152601460248201527314185d5cd8589b194e881b9bdd081c185d5cd95960621b6044820152606490fd5b346101615760403660031901126101615760043560243560005260026020526106f360018060a01b038060016040600020015416331490811561074e5750610d66565b80600052600560205261070e60ff6040600020541615610da3565b8060005260056020526040600020600160ff198254161790557fbc7909d45ab794ee63122077124d9ce05bea1db0768be90c77d2eddbdf1eef4f600080a2005b905060015460081c163314836101da565b34610161576020366003190112610161576001600160a01b03610780610b8d565b166000526006602052602060ff604060002054166040519015158152f35b34610161576060366003190112610161576024356001600160401b0381116101615736602382011215610161576001600160401b03816004013511610161576024810190366024826004013583010111610161576044356001600160401b0381168091036101615761080e610fdc565b60043560005260026020526001600160401b0360016040600020015460a01c16610b1e57816004013515610ae7576040519061084982610c6a565b6040516108646004850135601f01601f191660200182610ca0565b60048401358082528560208301376000602085600401358301015282523360208301526001600160401b03421660408301526060820152600060808201526004356000526002602052604060002081518051906001600160401b038211610a15576108cf8354610c30565b601f8111610aa3575b50602090601f8311600114610a3657600293929160009183610a2b575b50508160011b916000199060031b1c19161781555b6001810160018060a01b036020850151168154906001600160401b0360a01b604087015160a01b169163ffffffff60e01b161717905501906001600160401b0360608201511668ff000000000000000060808454930151151560401b169168ffffffffffffffffff191617179055600354600160401b811015610a15578060016109979201600355610be3565b81549060031b90600435821b91600019901b19161790556040519160208352816004013560208401528160040135906040840137600060408260040135840101527f24f676cc1c225b557096be10505ed2933f4afe2349e9724a3826781e1c5d4455339260408160043594601f8019916004013501168101030190a3005b634e487b7160e01b600052604160045260246000fd5b0151905087806108f5565b908360005260206000209160005b601f1985168110610a8b575091839160019360029695601f19811610610a72575b505050811b01815561090a565b015160001960f88460031b161c19169055878080610a65565b91926020600181928685015181550194019201610a44565b836000526020600020601f840160051c810160208510610ae0575b601f830160051c82018110610ad45750506108d8565b60008155600101610abe565b5080610abe565b60405162461bcd60e51b815260206004820152600f60248201526e1058dd1a5bdb881c995c5d5a5c9959608a1b6044820152606490fd5b60405162461bcd60e51b81526020600482015260116024820152704361706162696c6974792065786973747360781b6044820152606490fd5b34610161576020366003190112610161576020906001600160a01b03610b7b610b8d565b16600052600482526040600020548152f35b600435906001600160a01b038216820361016157565b919082519283825260005b848110610bcf575050826000602080949584010152601f8019910116010190565b602081830181015184830182015201610bae565b600354811015610c1a5760036000527fc2575a0e9e593c00f959f8c92f12db2869c3395a3b0502d05e2516446f71f85b0190600090565b634e487b7160e01b600052603260045260246000fd5b90600182811c92168015610c60575b6020831014610c4a57565b634e487b7160e01b600052602260045260246000fd5b91607f1691610c3f565b60a081019081106001600160401b03821117610a1557604052565b606081019081106001600160401b03821117610a1557604052565b90601f801991011681019081106001600160401b03821117610a1557604052565b90604051918260008254610cd481610c30565b90818452602094600191600181169081600014610d445750600114610d05575b505050610d0392500383610ca0565b565b600090815285812095935091905b818310610d2c575050610d039350820101388080610cf4565b85548884018501529485019487945091830191610d13565b92505050610d0394925060ff191682840152151560051b820101388080610cf4565b15610d6d57565b60405162461bcd60e51b815260206004820152600e60248201526d139bdd08185d5d1a1bdc9a5e995960921b6044820152606490fd5b15610daa57565b60405162461bcd60e51b815260206004820152600f60248201526e105b1c9958591e481c995d9bdad959608a1b6044820152606490fd5b15610de857565b60405162461bcd60e51b815260206004820152600a60248201526927b7363c9037bbb732b960b11b6044820152606490fd5b95909296949196600091848352602094600286526040948585209860028a01549a60ff8c891c16610fc2576001600160401b03809c168015159081610fd2575b50610fc25760019a8b01546001600160a01b039384169391908216849003610fb157908c92918951948b86019687528a8601521694856060850152608084015216998a60a083015260a0825260c082019082821090821117610f9d578652519020899003610f7a5782526004845282822054978815610f7a578083526005976005865260ff8585205416610f90578015159081610f86575b50610f7a579695949392919081965b858810610f145750505050505050501490565b90919293949587988198831b840135808210600014610f585786519088820192835287820152868152610f4681610c85565b5190205b980196959493929190610f01565b9086519088820192835287820152868152610f7281610c85565b519020610f4a565b50509550505050505090565b9050421138610ef2565b5050509550505050505090565b634e487b7160e01b86526041600452602486fd5b505050505050509550505050505090565b5050505050509550505050505090565b9050421138610e5a565b60ff60015416610fe857565b60405162461bcd60e51b815260206004820152601060248201526f14185d5cd8589b194e881c185d5cd95960821b6044820152606490fdfea2646970667358221220068c233f8081d275460be31f1f839ac3ce3223f699878d18673fc21763d9145664736f6c63430008180033","opcodes":"PUSH1 0x80 DUP1 PUSH1 0x40 MSTORE CALLVALUE PUSH2 0x3A JUMPI PUSH1 0x1 PUSH1 0x0 DUP2 SWAP1 SSTORE DUP1 SLOAD PUSH1 0x1 PUSH1 0x1 PUSH1 0xA8 SHL SUB NOT AND CALLER PUSH1 0x8 SHL PUSH2 0x100 PUSH1 0x1 PUSH1 0xA8 SHL SUB AND OR SWAP1 SSTORE PUSH2 0x1056 SWAP1 DUP2 PUSH2 0x40 DUP3 CODECOPY RETURN JUMPDEST PUSH1 0x0 DUP1 REVERT INVALID PUSH1 0x80 DUP1 PUSH1 0x40 MSTORE PUSH1 0x4 CALLDATASIZE LT ISZERO PUSH2 0x13 JUMPI PUSH1 0x0 DUP1 REVERT JUMPDEST PUSH1 0x0 CALLDATALOAD PUSH1 0xE0 SHR SWAP1 DUP2 PUSH4 0x1656CD7E EQ PUSH2 0xB57 JUMPI POP DUP1 PUSH4 0x24354992 EQ PUSH2 0x79E JUMPI DUP1 PUSH4 0x372B102D EQ PUSH2 0x75F JUMPI DUP1 PUSH4 0x3A7F6CC7 EQ PUSH2 0x6B0 JUMPI DUP1 PUSH4 0x3F4BA83A EQ PUSH2 0x60C JUMPI DUP1 PUSH4 0x53739410 EQ PUSH2 0x5AB JUMPI DUP1 PUSH4 0x5C975ABB EQ PUSH2 0x588 JUMPI DUP1 PUSH4 0x6F4907A6 EQ PUSH2 0x557 JUMPI DUP1 PUSH4 0x7B23648A EQ PUSH2 0x4BF JUMPI DUP1 PUSH4 0x8456CB59 EQ PUSH2 0x456 JUMPI DUP1 PUSH4 0x88A8BAF9 EQ PUSH2 0x3CB JUMPI DUP1 PUSH4 0x8DA5CB5B EQ PUSH2 0x39E JUMPI DUP1 PUSH4 0x9CB7C5F4 EQ PUSH2 0x2B3 JUMPI DUP1 PUSH4 0xA6E0A6CE EQ PUSH2 0x27B JUMPI DUP1 PUSH4 0xADF4D59E EQ PUSH2 0x184 JUMPI DUP1 PUSH4 0xB036FE7E EQ PUSH2 0x166 JUMPI PUSH4 0xC2EAD131 EQ PUSH2 0xDA JUMPI PUSH1 0x0 DUP1 REVERT JUMPDEST CALLVALUE PUSH2 0x161 JUMPI PUSH1 0x20 CALLDATASIZE PUSH1 0x3 NOT ADD SLT PUSH2 0x161 JUMPI PUSH1 0x4 CALLDATALOAD PUSH1 0x0 MSTORE PUSH1 0x2 PUSH1 0x20 MSTORE PUSH2 0x133 PUSH1 0x40 PUSH1 0x0 KECCAK256 PUSH2 0x107 DUP2 PUSH2 0xCC1 JUMP JUMPDEST SWAP1 PUSH1 0xFF PUSH1 0x1 DUP3 ADD SLOAD SWAP2 PUSH1 0x2 PUSH1 0x1 PUSH1 0x1 PUSH1 0x40 SHL SUB SWAP2 ADD SLOAD SWAP1 DUP1 PUSH1 0x40 MLOAD SWAP7 DUP8 SWAP7 PUSH1 0xA0 DUP9 MSTORE PUSH1 0xA0 DUP9 ADD SWAP1 PUSH2 0xBA3 JUMP JUMPDEST SWAP5 PUSH1 0x1 DUP1 PUSH1 0xA0 SHL SUB DUP2 AND PUSH1 0x20 DUP9 ADD MSTORE PUSH1 0xA0 SHR AND PUSH1 0x40 DUP7 ADD MSTORE DUP2 AND PUSH1 0x60 DUP6 ADD MSTORE PUSH1 0x40 SHR AND ISZERO ISZERO PUSH1 0x80 DUP4 ADD MSTORE SUB SWAP1 RETURN JUMPDEST PUSH1 0x0 DUP1 REVERT JUMPDEST CALLVALUE PUSH2 0x161 JUMPI PUSH1 0x0 CALLDATASIZE PUSH1 0x3 NOT ADD SLT PUSH2 0x161 JUMPI PUSH1 0x20 PUSH1 0x3 SLOAD PUSH1 0x40 MLOAD SWAP1 DUP2 MSTORE RETURN JUMPDEST CALLVALUE PUSH2 0x161 JUMPI PUSH1 0x20 CALLDATASIZE PUSH1 0x3 NOT ADD SLT PUSH2 0x161 JUMPI PUSH1 0x4 CALLDATALOAD DUP1 PUSH1 0x0 MSTORE PUSH1 0x2 PUSH1 0x20 MSTORE PUSH1 0x40 PUSH1 0x0 KECCAK256 PUSH1 0x1 DUP2 ADD SLOAD SWAP1 PUSH1 0x1 PUSH1 0x1 PUSH1 0x40 SHL SUB DUP3 PUSH1 0xA0 SHR AND ISZERO PUSH2 0x23F JUMPI PUSH1 0x2 SWAP2 PUSH2 0x1E0 SWAP1 PUSH1 0x1 PUSH1 0x1 PUSH1 0xA0 SHL SUB SWAP1 DUP2 AND CALLER EQ SWAP1 DUP2 ISZERO PUSH2 0x22E JUMPI JUMPDEST POP PUSH2 0xD66 JUMP JUMPDEST ADD PUSH1 0x1 PUSH1 0x40 SHL DUP2 SLOAD PUSH2 0x1F8 PUSH1 0xFF DUP3 PUSH1 0x40 SHR AND ISZERO PUSH2 0xDA3 JUMP JUMPDEST PUSH9 0xFF0000000000000000 NOT AND OR SWAP1 SSTORE PUSH32 0x49605D0360D8E90064C274BA9997A3D883D637411E4A6855594C367B31679D66 PUSH1 0x0 DUP1 LOG2 STOP JUMPDEST SWAP1 POP PUSH1 0x1 SLOAD PUSH1 0x8 SHR AND CALLER EQ DUP6 PUSH2 0x1DA JUMP JUMPDEST PUSH1 0x40 MLOAD PUSH3 0x461BCD PUSH1 0xE5 SHL DUP2 MSTORE PUSH1 0x20 PUSH1 0x4 DUP3 ADD MSTORE PUSH1 0x14 PUSH1 0x24 DUP3 ADD MSTORE PUSH20 0x10D85C18589A5B1A5D1E481B9BDD08199BDD5B99 PUSH1 0x62 SHL PUSH1 0x44 DUP3 ADD MSTORE PUSH1 0x64 SWAP1 REVERT JUMPDEST CALLVALUE PUSH2 0x161 JUMPI PUSH1 0x20 CALLDATASIZE PUSH1 0x3 NOT ADD SLT PUSH2 0x161 JUMPI PUSH1 0x4 CALLDATALOAD PUSH1 0x3 SLOAD DUP2 LT ISZERO PUSH2 0x161 JUMPI PUSH2 0x2A4 PUSH1 0x20 SWAP2 PUSH2 0xBE3 JUMP JUMPDEST SWAP1 SLOAD SWAP1 PUSH1 0x3 SHL SHR PUSH1 0x40 MLOAD SWAP1 DUP2 MSTORE RETURN JUMPDEST CALLVALUE PUSH2 0x161 JUMPI PUSH1 0x20 DUP1 PUSH1 0x3 NOT CALLDATASIZE ADD SLT PUSH2 0x161 JUMPI PUSH1 0xA0 SWAP1 PUSH1 0x0 PUSH1 0x80 PUSH1 0x40 MLOAD PUSH2 0x2D8 DUP2 PUSH2 0xC6A JUMP JUMPDEST PUSH1 0x60 DUP2 MSTORE DUP3 DUP5 DUP3 ADD MSTORE DUP3 PUSH1 0x40 DUP3 ADD MSTORE DUP3 PUSH1 0x60 DUP3 ADD MSTORE ADD MSTORE PUSH1 0x4 CALLDATALOAD PUSH1 0x0 MSTORE PUSH1 0x2 DUP2 MSTORE PUSH1 0x40 PUSH1 0x0 KECCAK256 SWAP1 PUSH1 0x40 MLOAD SWAP2 PUSH2 0x30C DUP4 PUSH2 0xC6A JUMP JUMPDEST PUSH2 0x315 DUP2 PUSH2 0xCC1 JUMP JUMPDEST DUP4 MSTORE PUSH1 0x2 PUSH1 0x1 DUP3 ADD SLOAD SWAP3 PUSH1 0x1 DUP1 DUP8 SHL SUB SWAP3 DUP2 DUP7 ADD SWAP5 DUP5 DUP2 AND DUP7 MSTORE PUSH1 0x1 PUSH1 0x1 PUSH1 0x40 SHL SUB SWAP4 DUP5 SWAP3 DUP4 PUSH1 0x40 DUP11 ADD SWAP4 DUP12 SHR AND DUP4 MSTORE ADD SLOAD SWAP5 PUSH2 0x37C PUSH1 0x60 DUP10 ADD SWAP5 DUP5 DUP9 AND DUP7 MSTORE PUSH1 0xFF PUSH1 0x80 DUP12 ADD SWAP9 PUSH1 0x40 SHR AND ISZERO ISZERO DUP9 MSTORE PUSH1 0x40 MLOAD SWAP11 DUP12 SWAP11 DUP3 DUP13 MSTORE MLOAD SWAP2 DUP12 ADD MSTORE PUSH1 0xC0 DUP11 ADD SWAP1 PUSH2 0xBA3 JUMP JUMPDEST SWAP7 MLOAD AND PUSH1 0x40 DUP9 ADD MSTORE MLOAD AND PUSH1 0x60 DUP7 ADD MSTORE MLOAD AND PUSH1 0x80 DUP5 ADD MSTORE MLOAD ISZERO ISZERO PUSH1 0xA0 DUP4 ADD MSTORE SUB SWAP1 RETURN JUMPDEST CALLVALUE PUSH2 0x161 JUMPI PUSH1 0x0 CALLDATASIZE PUSH1 0x3 NOT ADD SLT PUSH2 0x161 JUMPI PUSH1 0x1 SLOAD PUSH1 0x40 MLOAD PUSH1 0x8 SWAP2 SWAP1 SWAP2 SHR PUSH1 0x1 PUSH1 0x1 PUSH1 0xA0 SHL SUB AND DUP2 MSTORE PUSH1 0x20 SWAP1 RETURN JUMPDEST CALLVALUE PUSH2 0x161 JUMPI PUSH1 0x40 CALLDATASIZE PUSH1 0x3 NOT ADD SLT PUSH2 0x161 JUMPI PUSH2 0x3E4 PUSH2 0xB8D JUMP JUMPDEST PUSH1 0x1 PUSH1 0x1 PUSH1 0xA0 SHL SUB AND PUSH32 0xD16EF39BB9AA303CFB433F8DB1C88AC040AFE9393441412BF5B1F0F97D0104B7 PUSH1 0x20 PUSH1 0x24 CALLDATALOAD CALLER DUP5 EQ DUP1 ISZERO PUSH2 0x43E JUMPI JUMPDEST PUSH2 0x426 SWAP1 PUSH2 0xD66 JUMP JUMPDEST DUP4 PUSH1 0x0 MSTORE PUSH1 0x4 DUP3 MSTORE DUP1 PUSH1 0x40 PUSH1 0x0 KECCAK256 SSTORE PUSH1 0x40 MLOAD SWAP1 DUP2 MSTORE LOG2 STOP JUMPDEST POP CALLER PUSH1 0x0 SWAP1 DUP2 MSTORE PUSH1 0x6 DUP4 MSTORE PUSH1 0x40 SWAP1 KECCAK256 SLOAD PUSH1 0xFF AND PUSH2 0x41D JUMP JUMPDEST CALLVALUE PUSH2 0x161 JUMPI PUSH1 0x0 CALLDATASIZE PUSH1 0x3 NOT ADD SLT PUSH2 0x161 JUMPI PUSH1 0x1 DUP1 SLOAD PUSH2 0x483 CALLER PUSH1 0x8 DUP4 SWAP1 SHR PUSH1 0x1 PUSH1 0x1 PUSH1 0xA0 SHL SUB AND EQ PUSH2 0xDE1 JUMP JUMPDEST PUSH2 0x48B PUSH2 0xFDC JUMP JUMPDEST PUSH1 0xFF NOT AND OR PUSH1 0x1 SSTORE PUSH32 0x62E78CEA01BEE320CD4E420270B5EA74000D11B0C9F74754EBDBFC544B05A258 PUSH1 0x20 PUSH1 0x40 MLOAD CALLER DUP2 MSTORE LOG1 STOP JUMPDEST CALLVALUE PUSH2 0x161 JUMPI PUSH1 0xE0 CALLDATASIZE PUSH1 0x3 NOT ADD SLT PUSH2 0x161 JUMPI PUSH2 0x4D8 PUSH2 0xB8D JUMP JUMPDEST PUSH1 0x64 CALLDATALOAD SWAP1 PUSH1 0x1 PUSH1 0x1 PUSH1 0x40 SHL SUB DUP1 DUP4 GT PUSH2 0x161 JUMPI CALLDATASIZE PUSH1 0x23 DUP5 ADD SLT ISZERO PUSH2 0x161 JUMPI DUP3 PUSH1 0x4 ADD CALLDATALOAD SWAP3 DUP2 DUP5 GT PUSH2 0x161 JUMPI CALLDATASIZE PUSH1 0x24 DUP6 PUSH1 0x5 SHL DUP4 ADD ADD GT PUSH2 0x161 JUMPI PUSH1 0x84 CALLDATALOAD PUSH1 0x1 PUSH1 0x1 PUSH1 0xA0 SHL SUB DUP2 AND DUP2 SUB PUSH2 0x161 JUMPI PUSH1 0xC4 CALLDATALOAD SWAP3 DUP4 AND DUP4 SUB PUSH2 0x161 JUMPI PUSH1 0x20 SWAP5 PUSH2 0x54D SWAP5 PUSH1 0x24 PUSH1 0xA4 CALLDATALOAD SWAP5 ADD SWAP1 PUSH1 0x44 CALLDATALOAD SWAP1 PUSH1 0x24 CALLDATALOAD SWAP1 PUSH2 0xE1A JUMP JUMPDEST PUSH1 0x40 MLOAD SWAP1 ISZERO ISZERO DUP2 MSTORE RETURN JUMPDEST CALLVALUE PUSH2 0x161 JUMPI PUSH1 0x20 CALLDATASIZE PUSH1 0x3 NOT ADD SLT PUSH2 0x161 JUMPI PUSH1 0x4 CALLDATALOAD PUSH1 0x0 MSTORE PUSH1 0x5 PUSH1 0x20 MSTORE PUSH1 0x20 PUSH1 0xFF PUSH1 0x40 PUSH1 0x0 KECCAK256 SLOAD AND PUSH1 0x40 MLOAD SWAP1 ISZERO ISZERO DUP2 MSTORE RETURN JUMPDEST CALLVALUE PUSH2 0x161 JUMPI PUSH1 0x0 CALLDATASIZE PUSH1 0x3 NOT ADD SLT PUSH2 0x161 JUMPI PUSH1 0x20 PUSH1 0xFF PUSH1 0x1 SLOAD AND PUSH1 0x40 MLOAD SWAP1 ISZERO ISZERO DUP2 MSTORE RETURN JUMPDEST CALLVALUE PUSH2 0x161 JUMPI PUSH1 0x40 CALLDATASIZE PUSH1 0x3 NOT ADD SLT PUSH2 0x161 JUMPI PUSH2 0x5C4 PUSH2 0xB8D JUMP JUMPDEST PUSH1 0x24 CALLDATALOAD SWAP1 DUP2 ISZERO ISZERO DUP1 SWAP3 SUB PUSH2 0x161 JUMPI PUSH1 0x1 DUP1 PUSH1 0xA0 SHL SUB SWAP1 PUSH2 0x5EC DUP3 PUSH1 0x1 SLOAD PUSH1 0x8 SHR AND CALLER EQ PUSH2 0xDE1 JUMP JUMPDEST AND PUSH1 0x0 MSTORE PUSH1 0x6 PUSH1 0x20 MSTORE PUSH1 0x40 PUSH1 0x0 KECCAK256 SWAP1 PUSH1 0xFF DUP1 NOT DUP4 SLOAD AND SWAP2 AND OR SWAP1 SSTORE PUSH1 0x0 DUP1 RETURN JUMPDEST CALLVALUE PUSH2 0x161 JUMPI PUSH1 0x0 CALLDATASIZE PUSH1 0x3 NOT ADD SLT PUSH2 0x161 JUMPI PUSH1 0x1 SLOAD PUSH2 0x638 CALLER PUSH1 0x8 DUP4 SWAP1 SHR PUSH1 0x1 PUSH1 0x1 PUSH1 0xA0 SHL SUB AND EQ PUSH2 0xDE1 JUMP JUMPDEST PUSH1 0xFF DUP2 AND ISZERO PUSH2 0x674 JUMPI PUSH1 0xFF NOT AND PUSH1 0x1 SSTORE PUSH32 0x5DB9EE0A495BF2E6FF9C91A7834C1BA4FDD244A5E8AA4E537BD38AEAE4B073AA PUSH1 0x20 PUSH1 0x40 MLOAD CALLER DUP2 MSTORE LOG1 STOP JUMPDEST PUSH1 0x40 MLOAD PUSH3 0x461BCD PUSH1 0xE5 SHL DUP2 MSTORE PUSH1 0x20 PUSH1 0x4 DUP3 ADD MSTORE PUSH1 0x14 PUSH1 0x24 DUP3 ADD MSTORE PUSH20 0x14185D5CD8589B194E881B9BDD081C185D5CD959 PUSH1 0x62 SHL PUSH1 0x44 DUP3 ADD MSTORE PUSH1 0x64 SWAP1 REVERT JUMPDEST CALLVALUE PUSH2 0x161 JUMPI PUSH1 0x40 CALLDATASIZE PUSH1 0x3 NOT ADD SLT PUSH2 0x161 JUMPI PUSH1 0x4 CALLDATALOAD PUSH1 0x24 CALLDATALOAD PUSH1 0x0 MSTORE PUSH1 0x2 PUSH1 0x20 MSTORE PUSH2 0x6F3 PUSH1 0x1 DUP1 PUSH1 0xA0 SHL SUB DUP1 PUSH1 0x1 PUSH1 0x40 PUSH1 0x0 KECCAK256 ADD SLOAD AND CALLER EQ SWAP1 DUP2 ISZERO PUSH2 0x74E JUMPI POP PUSH2 0xD66 JUMP JUMPDEST DUP1 PUSH1 0x0 MSTORE PUSH1 0x5 PUSH1 0x20 MSTORE PUSH2 0x70E PUSH1 0xFF PUSH1 0x40 PUSH1 0x0 KECCAK256 SLOAD AND ISZERO PUSH2 0xDA3 JUMP JUMPDEST DUP1 PUSH1 0x0 MSTORE PUSH1 0x5 PUSH1 0x20 MSTORE PUSH1 0x40 PUSH1 0x0 KECCAK256 PUSH1 0x1 PUSH1 0xFF NOT DUP3 SLOAD AND OR SWAP1 SSTORE PUSH32 0xBC7909D45AB794EE63122077124D9CE05BEA1DB0768BE90C77D2EDDBDF1EEF4F PUSH1 0x0 DUP1 LOG2 STOP JUMPDEST SWAP1 POP PUSH1 0x1 SLOAD PUSH1 0x8 SHR AND CALLER EQ DUP4 PUSH2 0x1DA JUMP JUMPDEST CALLVALUE PUSH2 0x161 JUMPI PUSH1 0x20 CALLDATASIZE PUSH1 0x3 NOT ADD SLT PUSH2 0x161 JUMPI PUSH1 0x1 PUSH1 0x1 PUSH1 0xA0 SHL SUB PUSH2 0x780 PUSH2 0xB8D JUMP JUMPDEST AND PUSH1 0x0 MSTORE PUSH1 0x6 PUSH1 0x20 MSTORE PUSH1 0x20 PUSH1 0xFF PUSH1 0x40 PUSH1 0x0 KECCAK256 SLOAD AND PUSH1 0x40 MLOAD SWAP1 ISZERO ISZERO DUP2 MSTORE RETURN JUMPDEST CALLVALUE PUSH2 0x161 JUMPI PUSH1 0x60 CALLDATASIZE PUSH1 0x3 NOT ADD SLT PUSH2 0x161 JUMPI PUSH1 0x24 CALLDATALOAD PUSH1 0x1 PUSH1 0x1 PUSH1 0x40 SHL SUB DUP2 GT PUSH2 0x161 JUMPI CALLDATASIZE PUSH1 0x23 DUP3 ADD SLT ISZERO PUSH2 0x161 JUMPI PUSH1 0x1 PUSH1 0x1 PUSH1 0x40 SHL SUB DUP2 PUSH1 0x4 ADD CALLDATALOAD GT PUSH2 0x161 JUMPI PUSH1 0x24 DUP2 ADD SWAP1 CALLDATASIZE PUSH1 0x24 DUP3 PUSH1 0x4 ADD CALLDATALOAD DUP4 ADD ADD GT PUSH2 0x161 JUMPI PUSH1 0x44 CALLDATALOAD PUSH1 0x1 PUSH1 0x1 PUSH1 0x40 SHL SUB DUP2 AND DUP1 SWAP2 SUB PUSH2 0x161 JUMPI PUSH2 0x80E PUSH2 0xFDC JUMP JUMPDEST PUSH1 0x4 CALLDATALOAD PUSH1 0x0 MSTORE PUSH1 0x2 PUSH1 0x20 MSTORE PUSH1 0x1 PUSH1 0x1 PUSH1 0x40 SHL SUB PUSH1 0x1 PUSH1 0x40 PUSH1 0x0 KECCAK256 ADD SLOAD PUSH1 0xA0 SHR AND PUSH2 0xB1E JUMPI DUP2 PUSH1 0x4 ADD CALLDATALOAD ISZERO PUSH2 0xAE7 JUMPI PUSH1 0x40 MLOAD SWAP1 PUSH2 0x849 DUP3 PUSH2 0xC6A JUMP JUMPDEST PUSH1 0x40 MLOAD PUSH2 0x864 PUSH1 0x4 DUP6 ADD CALLDATALOAD PUSH1 0x1F ADD PUSH1 0x1F NOT AND PUSH1 0x20 ADD DUP3 PUSH2 0xCA0 JUMP JUMPDEST PUSH1 0x4 DUP5 ADD CALLDATALOAD DUP1 DUP3 MSTORE DUP6 PUSH1 0x20 DUP4 ADD CALLDATACOPY PUSH1 0x0 PUSH1 0x20 DUP6 PUSH1 0x4 ADD CALLDATALOAD DUP4 ADD ADD MSTORE DUP3 MSTORE CALLER PUSH1 0x20 DUP4 ADD MSTORE PUSH1 0x1 PUSH1 0x1 PUSH1 0x40 SHL SUB TIMESTAMP AND PUSH1 0x40 DUP4 ADD MSTORE PUSH1 0x60 DUP3 ADD MSTORE PUSH1 0x0 PUSH1 0x80 DUP3 ADD MSTORE PUSH1 0x4 CALLDATALOAD PUSH1 0x0 MSTORE PUSH1 0x2 PUSH1 0x20 MSTORE PUSH1 0x40 PUSH1 0x0 KECCAK256 DUP2 MLOAD DUP1 MLOAD SWAP1 PUSH1 0x1 PUSH1 0x1 PUSH1 0x40 SHL SUB DUP3 GT PUSH2 0xA15 JUMPI PUSH2 0x8CF DUP4 SLOAD PUSH2 0xC30 JUMP JUMPDEST PUSH1 0x1F DUP2 GT PUSH2 0xAA3 JUMPI JUMPDEST POP PUSH1 0x20 SWAP1 PUSH1 0x1F DUP4 GT PUSH1 0x1 EQ PUSH2 0xA36 JUMPI PUSH1 0x2 SWAP4 SWAP3 SWAP2 PUSH1 0x0 SWAP2 DUP4 PUSH2 0xA2B JUMPI JUMPDEST POP POP DUP2 PUSH1 0x1 SHL SWAP2 PUSH1 0x0 NOT SWAP1 PUSH1 0x3 SHL SHR NOT AND OR DUP2 SSTORE JUMPDEST PUSH1 0x1 DUP2 ADD PUSH1 0x1 DUP1 PUSH1 0xA0 SHL SUB PUSH1 0x20 DUP6 ADD MLOAD AND DUP2 SLOAD SWAP1 PUSH1 0x1 PUSH1 0x1 PUSH1 0x40 SHL SUB PUSH1 0xA0 SHL PUSH1 0x40 DUP8 ADD MLOAD PUSH1 0xA0 SHL AND SWAP2 PUSH4 0xFFFFFFFF PUSH1 0xE0 SHL AND OR OR SWAP1 SSTORE ADD SWAP1 PUSH1 0x1 PUSH1 0x1 PUSH1 0x40 SHL SUB PUSH1 0x60 DUP3 ADD MLOAD AND PUSH9 0xFF0000000000000000 PUSH1 0x80 DUP5 SLOAD SWAP4 ADD MLOAD ISZERO ISZERO PUSH1 0x40 SHL AND SWAP2 PUSH9 0xFFFFFFFFFFFFFFFFFF NOT AND OR OR SWAP1 SSTORE PUSH1 0x3 SLOAD PUSH1 0x1 PUSH1 0x40 SHL DUP2 LT ISZERO PUSH2 0xA15 JUMPI DUP1 PUSH1 0x1 PUSH2 0x997 SWAP3 ADD PUSH1 0x3 SSTORE PUSH2 0xBE3 JUMP JUMPDEST DUP2 SLOAD SWAP1 PUSH1 0x3 SHL SWAP1 PUSH1 0x4 CALLDATALOAD DUP3 SHL SWAP2 PUSH1 0x0 NOT SWAP1 SHL NOT AND OR SWAP1 SSTORE PUSH1 0x40 MLOAD SWAP2 PUSH1 0x20 DUP4 MSTORE DUP2 PUSH1 0x4 ADD CALLDATALOAD PUSH1 0x20 DUP5 ADD MSTORE DUP2 PUSH1 0x4 ADD CALLDATALOAD SWAP1 PUSH1 0x40 DUP5 ADD CALLDATACOPY PUSH1 0x0 PUSH1 0x40 DUP3 PUSH1 0x4 ADD CALLDATALOAD DUP5 ADD ADD MSTORE PUSH32 0x24F676CC1C225B557096BE10505ED2933F4AFE2349E9724A3826781E1C5D4455 CALLER SWAP3 PUSH1 0x40 DUP2 PUSH1 0x4 CALLDATALOAD SWAP5 PUSH1 0x1F DUP1 NOT SWAP2 PUSH1 0x4 ADD CALLDATALOAD ADD AND DUP2 ADD SUB ADD SWAP1 LOG3 STOP JUMPDEST PUSH4 0x4E487B71 PUSH1 0xE0 SHL PUSH1 0x0 MSTORE PUSH1 0x41 PUSH1 0x4 MSTORE PUSH1 0x24 PUSH1 0x0 REVERT JUMPDEST ADD MLOAD SWAP1 POP DUP8 DUP1 PUSH2 0x8F5 JUMP JUMPDEST SWAP1 DUP4 PUSH1 0x0 MSTORE PUSH1 0x20 PUSH1 0x0 KECCAK256 SWAP2 PUSH1 0x0 JUMPDEST PUSH1 0x1F NOT DUP6 AND DUP2 LT PUSH2 0xA8B JUMPI POP SWAP2 DUP4 SWAP2 PUSH1 0x1 SWAP4 PUSH1 0x2 SWAP7 SWAP6 PUSH1 0x1F NOT DUP2 AND LT PUSH2 0xA72 JUMPI JUMPDEST POP POP POP DUP2 SHL ADD DUP2 SSTORE PUSH2 0x90A JUMP JUMPDEST ADD MLOAD PUSH1 0x0 NOT PUSH1 0xF8 DUP5 PUSH1 0x3 SHL AND SHR NOT AND SWAP1 SSTORE DUP8 DUP1 DUP1 PUSH2 0xA65 JUMP JUMPDEST SWAP2 SWAP3 PUSH1 0x20 PUSH1 0x1 DUP2 SWAP3 DUP7 DUP6 ADD MLOAD DUP2 SSTORE ADD SWAP5 ADD SWAP3 ADD PUSH2 0xA44 JUMP JUMPDEST DUP4 PUSH1 0x0 MSTORE PUSH1 0x20 PUSH1 0x0 KECCAK256 PUSH1 0x1F DUP5 ADD PUSH1 0x5 SHR DUP2 ADD PUSH1 0x20 DUP6 LT PUSH2 0xAE0 JUMPI JUMPDEST PUSH1 0x1F DUP4 ADD PUSH1 0x5 SHR DUP3 ADD DUP2 LT PUSH2 0xAD4 JUMPI POP POP PUSH2 0x8D8 JUMP JUMPDEST PUSH1 0x0 DUP2 SSTORE PUSH1 0x1 ADD PUSH2 0xABE JUMP JUMPDEST POP DUP1 PUSH2 0xABE JUMP JUMPDEST PUSH1 0x40 MLOAD PUSH3 0x461BCD PUSH1 0xE5 SHL DUP2 MSTORE PUSH1 0x20 PUSH1 0x4 DUP3 ADD MSTORE PUSH1 0xF PUSH1 0x24 DUP3 ADD MSTORE PUSH15 0x1058DD1A5BDB881C995C5D5A5C9959 PUSH1 0x8A SHL PUSH1 0x44 DUP3 ADD MSTORE PUSH1 0x64 SWAP1 REVERT JUMPDEST PUSH1 0x40 MLOAD PUSH3 0x461BCD PUSH1 0xE5 SHL DUP2 MSTORE PUSH1 0x20 PUSH1 0x4 DUP3 ADD MSTORE PUSH1 0x11 PUSH1 0x24 DUP3 ADD MSTORE PUSH17 0x4361706162696C69747920657869737473 PUSH1 0x78 SHL PUSH1 0x44 DUP3 ADD MSTORE PUSH1 0x64 SWAP1 REVERT JUMPDEST CALLVALUE PUSH2 0x161 JUMPI PUSH1 0x20 CALLDATASIZE PUSH1 0x3 NOT ADD SLT PUSH2 0x161 JUMPI PUSH1 0x20 SWAP1 PUSH1 0x1 PUSH1 0x1 PUSH1 0xA0 SHL SUB PUSH2 0xB7B PUSH2 0xB8D JUMP JUMPDEST AND PUSH1 0x0 MSTORE PUSH1 0x4 DUP3 MSTORE PUSH1 0x40 PUSH1 0x0 KECCAK256 SLOAD DUP2 MSTORE RETURN JUMPDEST PUSH1 0x4 CALLDATALOAD SWAP1 PUSH1 0x1 PUSH1 0x1 PUSH1 0xA0 SHL SUB DUP3 AND DUP3 SUB PUSH2 0x161 JUMPI JUMP JUMPDEST SWAP2 SWAP1 DUP3 MLOAD SWAP3 DUP4 DUP3 MSTORE PUSH1 0x0 JUMPDEST DUP5 DUP2 LT PUSH2 0xBCF JUMPI POP POP DUP3 PUSH1 0x0 PUSH1 0x20 DUP1 SWAP5 SWAP6 DUP5 ADD ADD MSTORE PUSH1 0x1F DUP1 NOT SWAP2 ADD AND ADD ADD SWAP1 JUMP JUMPDEST PUSH1 0x20 DUP2 DUP4 ADD DUP2 ADD MLOAD DUP5 DUP4 ADD DUP3 ADD MSTORE ADD PUSH2 0xBAE JUMP JUMPDEST PUSH1 0x3 SLOAD DUP2 LT ISZERO PUSH2 0xC1A JUMPI PUSH1 0x3 PUSH1 0x0 MSTORE PUSH32 0xC2575A0E9E593C00F959F8C92F12DB2869C3395A3B0502D05E2516446F71F85B ADD SWAP1 PUSH1 0x0 SWAP1 JUMP JUMPDEST PUSH4 0x4E487B71 PUSH1 0xE0 SHL PUSH1 0x0 MSTORE PUSH1 0x32 PUSH1 0x4 MSTORE PUSH1 0x24 PUSH1 0x0 REVERT JUMPDEST SWAP1 PUSH1 0x1 DUP3 DUP2 SHR SWAP3 AND DUP1 ISZERO PUSH2 0xC60 JUMPI JUMPDEST PUSH1 0x20 DUP4 LT EQ PUSH2 0xC4A JUMPI JUMP JUMPDEST PUSH4 0x4E487B71 PUSH1 0xE0 SHL PUSH1 0x0 MSTORE PUSH1 0x22 PUSH1 0x4 MSTORE PUSH1 0x24 PUSH1 0x0 REVERT JUMPDEST SWAP2 PUSH1 0x7F AND SWAP2 PUSH2 0xC3F JUMP JUMPDEST PUSH1 0xA0 DUP2 ADD SWAP1 DUP2 LT PUSH1 0x1 PUSH1 0x1 PUSH1 0x40 SHL SUB DUP3 GT OR PUSH2 0xA15 JUMPI PUSH1 0x40 MSTORE JUMP JUMPDEST PUSH1 0x60 DUP2 ADD SWAP1 DUP2 LT PUSH1 0x1 PUSH1 0x1 PUSH1 0x40 SHL SUB DUP3 GT OR PUSH2 0xA15 JUMPI PUSH1 0x40 MSTORE JUMP JUMPDEST SWAP1 PUSH1 0x1F DUP1 NOT SWAP2 ADD AND DUP2 ADD SWAP1 DUP2 LT PUSH1 0x1 PUSH1 0x1 PUSH1 0x40 SHL SUB DUP3 GT OR PUSH2 0xA15 JUMPI PUSH1 0x40 MSTORE JUMP JUMPDEST SWAP1 PUSH1 0x40 MLOAD SWAP2 DUP3 PUSH1 0x0 DUP3 SLOAD PUSH2 0xCD4 DUP2 PUSH2 0xC30 JUMP JUMPDEST SWAP1 DUP2 DUP5 MSTORE PUSH1 0x20 SWAP5 PUSH1 0x1 SWAP2 PUSH1 0x1 DUP2 AND SWAP1 DUP2 PUSH1 0x0 EQ PUSH2 0xD44 JUMPI POP PUSH1 0x1 EQ PUSH2 0xD05 JUMPI JUMPDEST POP POP POP PUSH2 0xD03 SWAP3 POP SUB DUP4 PUSH2 0xCA0 JUMP JUMPDEST JUMP JUMPDEST PUSH1 0x0 SWAP1 DUP2 MSTORE DUP6 DUP2 KECCAK256 SWAP6 SWAP4 POP SWAP2 SWAP1 JUMPDEST DUP2 DUP4 LT PUSH2 0xD2C JUMPI POP POP PUSH2 0xD03 SWAP4 POP DUP3 ADD ADD CODESIZE DUP1 DUP1 PUSH2 0xCF4 JUMP JUMPDEST DUP6 SLOAD DUP9 DUP5 ADD DUP6 ADD MSTORE SWAP5 DUP6 ADD SWAP5 DUP8 SWAP5 POP SWAP2 DUP4 ADD SWAP2 PUSH2 0xD13 JUMP JUMPDEST SWAP3 POP POP POP PUSH2 0xD03 SWAP5 SWAP3 POP PUSH1 0xFF NOT AND DUP3 DUP5 ADD MSTORE ISZERO ISZERO PUSH1 0x5 SHL DUP3 ADD ADD CODESIZE DUP1 DUP1 PUSH2 0xCF4 JUMP JUMPDEST ISZERO PUSH2 0xD6D JUMPI JUMP JUMPDEST PUSH1 0x40 MLOAD PUSH3 0x461BCD PUSH1 0xE5 SHL DUP2 MSTORE PUSH1 0x20 PUSH1 0x4 DUP3 ADD MSTORE PUSH1 0xE PUSH1 0x24 DUP3 ADD MSTORE PUSH14 0x139BDD08185D5D1A1BDC9A5E9959 PUSH1 0x92 SHL PUSH1 0x44 DUP3 ADD MSTORE PUSH1 0x64 SWAP1 REVERT JUMPDEST ISZERO PUSH2 0xDAA JUMPI JUMP JUMPDEST PUSH1 0x40 MLOAD PUSH3 0x461BCD PUSH1 0xE5 SHL DUP2 MSTORE PUSH1 0x20 PUSH1 0x4 DUP3 ADD MSTORE PUSH1 0xF PUSH1 0x24 DUP3 ADD MSTORE PUSH15 0x105B1C9958591E481C995D9BDAD959 PUSH1 0x8A SHL PUSH1 0x44 DUP3 ADD MSTORE PUSH1 0x64 SWAP1 REVERT JUMPDEST ISZERO PUSH2 0xDE8 JUMPI JUMP JUMPDEST PUSH1 0x40 MLOAD PUSH3 0x461BCD PUSH1 0xE5 SHL DUP2 MSTORE PUSH1 0x20 PUSH1 0x4 DUP3 ADD MSTORE PUSH1 0xA PUSH1 0x24 DUP3 ADD MSTORE PUSH10 0x27B7363C9037BBB732B9 PUSH1 0xB1 SHL PUSH1 0x44 DUP3 ADD MSTORE PUSH1 0x64 SWAP1 REVERT JUMPDEST SWAP6 SWAP1 SWAP3 SWAP7 SWAP5 SWAP2 SWAP7 PUSH1 0x0 SWAP2 DUP5 DUP4 MSTORE PUSH1 0x20 SWAP5 PUSH1 0x2 DUP7 MSTORE PUSH1 0x40 SWAP5 DUP6 DUP6 KECCAK256 SWAP9 PUSH1 0x2 DUP11 ADD SLOAD SWAP11 PUSH1 0xFF DUP13 DUP10 SHR AND PUSH2 0xFC2 JUMPI PUSH1 0x1 PUSH1 0x1 PUSH1 0x40 SHL SUB DUP1 SWAP13 AND DUP1 ISZERO ISZERO SWAP1 DUP2 PUSH2 0xFD2 JUMPI JUMPDEST POP PUSH2 0xFC2 JUMPI PUSH1 0x1 SWAP11 DUP12 ADD SLOAD PUSH1 0x1 PUSH1 0x1 PUSH1 0xA0 SHL SUB SWAP4 DUP5 AND SWAP4 SWAP2 SWAP1 DUP3 AND DUP5 SWAP1 SUB PUSH2 0xFB1 JUMPI SWAP1 DUP13 SWAP3 SWAP2 DUP10 MLOAD SWAP5 DUP12 DUP7 ADD SWAP7 DUP8 MSTORE DUP11 DUP7 ADD MSTORE AND SWAP5 DUP6 PUSH1 0x60 DUP6 ADD MSTORE PUSH1 0x80 DUP5 ADD MSTORE AND SWAP10 DUP11 PUSH1 0xA0 DUP4 ADD MSTORE PUSH1 0xA0 DUP3 MSTORE PUSH1 0xC0 DUP3 ADD SWAP1 DUP3 DUP3 LT SWAP1 DUP3 GT OR PUSH2 0xF9D JUMPI DUP7 MSTORE MLOAD SWAP1 KECCAK256 DUP10 SWAP1 SUB PUSH2 0xF7A JUMPI DUP3 MSTORE PUSH1 0x4 DUP5 MSTORE DUP3 DUP3 KECCAK256 SLOAD SWAP8 DUP9 ISZERO PUSH2 0xF7A JUMPI DUP1 DUP4 MSTORE PUSH1 0x5 SWAP8 PUSH1 0x5 DUP7 MSTORE PUSH1 0xFF DUP6 DUP6 KECCAK256 SLOAD AND PUSH2 0xF90 JUMPI DUP1 ISZERO ISZERO SWAP1 DUP2 PUSH2 0xF86 JUMPI JUMPDEST POP PUSH2 0xF7A JUMPI SWAP7 SWAP6 SWAP5 SWAP4 SWAP3 SWAP2 SWAP1 DUP2 SWAP7 JUMPDEST DUP6 DUP9 LT PUSH2 0xF14 JUMPI POP POP POP POP POP POP POP POP EQ SWAP1 JUMP JUMPDEST SWAP1 SWAP2 SWAP3 SWAP4 SWAP5 SWAP6 DUP8 SWAP9 DUP2 SWAP9 DUP4 SHL DUP5 ADD CALLDATALOAD DUP1 DUP3 LT PUSH1 0x0 EQ PUSH2 0xF58 JUMPI DUP7 MLOAD SWAP1 DUP9 DUP3 ADD SWAP3 DUP4 MSTORE DUP8 DUP3 ADD MSTORE DUP7 DUP2 MSTORE PUSH2 0xF46 DUP2 PUSH2 0xC85 JUMP JUMPDEST MLOAD SWAP1 KECCAK256 JUMPDEST SWAP9 ADD SWAP7 SWAP6 SWAP5 SWAP4 SWAP3 SWAP2 SWAP1 PUSH2 0xF01 JUMP JUMPDEST SWAP1 DUP7 MLOAD SWAP1 DUP9 DUP3 ADD SWAP3 DUP4 MSTORE DUP8 DUP3 ADD MSTORE DUP7 DUP2 MSTORE PUSH2 0xF72 DUP2 PUSH2 0xC85 JUMP JUMPDEST MLOAD SWAP1 KECCAK256 PUSH2 0xF4A JUMP JUMPDEST POP POP SWAP6 POP POP POP POP POP POP SWAP1 JUMP JUMPDEST SWAP1 POP TIMESTAMP GT CODESIZE PUSH2 0xEF2 JUMP JUMPDEST POP POP POP SWAP6 POP POP POP POP POP POP SWAP1 JUMP JUMPDEST PUSH4 0x4E487B71 PUSH1 0xE0 SHL DUP7 MSTORE PUSH1 0x41 PUSH1 0x4 MSTORE PUSH1 0x24 DUP7 REVERT JUMPDEST POP POP POP POP POP POP POP SWAP6 POP POP POP POP POP POP SWAP1 JUMP JUMPDEST POP POP POP POP POP POP SWAP6 POP POP POP POP POP POP SWAP1 JUMP JUMPDEST SWAP1 POP TIMESTAMP GT CODESIZE PUSH2 0xE5A JUMP JUMPDEST PUSH1 0xFF PUSH1 0x1 SLOAD AND PUSH2 0xFE8 JUMPI JUMP JUMPDEST PUSH1 0x40 MLOAD PUSH3 0x461BCD PUSH1 0xE5 SHL DUP2 MSTORE PUSH1 0x20 PUSH1 0x4 DUP3 ADD MSTORE PUSH1 0x10 PUSH1 0x24 DUP3 ADD MSTORE PUSH16 0x14185D5CD8589B194E881C185D5CD959 PUSH1 0x82 SHL PUSH1 0x44 DUP3 ADD MSTORE PUSH1 0x64 SWAP1 REVERT INVALID LOG2 PUSH5 0x6970667358 0x22 SLT KECCAK256 MOD DUP13 0x23 EXTCODEHASH DUP1 DUP2 0xD2 PUSH22 0x460BE31F1F839AC3CE3223F699878D18673FC21763D9 EQ JUMP PUSH5 0x736F6C6343 STOP ADDMOD XOR STOP CALLER "},"methodIdentifiers":{"capabilities(bytes32)":"c2ead131","capabilityList(uint256)":"a6e0a6ce","getCapability(bytes32)":"9cb7c5f4","getCapabilityCount()":"b036fe7e","grantRoots(address)":"1656cd7e","owner()":"8da5cb5b","pause()":"8456cb59","paused()":"5c975abb","registerCapability(bytes32,string,uint64)":"24354992","revokeCapability(bytes32)":"adf4d59e","revokeGrant(bytes32,bytes32)":"3a7f6cc7","revokedGrants(bytes32)":"6f4907a6","rootUpdaters(address)":"372b102d","setRootUpdater(address,bool)":"53739410","unpause()":"3f4ba83a","updateGrantRoot(address,bytes32)":"88a8baf9","verifyCapability(address,bytes32,bytes32,bytes32[],address,bytes32,uint64)":"7b23648a"}}}}}