{"src/Credentialverifier.sol":{"Groth16Verifier":{"abi":[{"inputs":[{"internalType":"uint256[2]","name":"_pA","type":"uint256[2]"},{"internalType":"uint256[2][2]","name":"_pB","type":"uint256[2][2]"},{"internalType":"uint256[2]","name":"_pC","type":"uint256[2]"},{"internalType":"uint256[5]","name":"_pubSignals","type":"uint256[5]"}],"name":"verifyProof","outputs":[{"internalType":"bool","name":"","type":"bool"}],"stateMutability":"view","type":"function"}],"evm":{"bytecode":{"linkReferences":{},"object":"60808060405234610016576106e8908161001c8239f35b600080fdfe6080604052600436101561001257600080fd5b6000803560e01c6334baeab91461002857600080fd5b346103aa576101a090816003193601126103aa57610045366103ad565b913660c4116103a657610057366103bf565b366101a4116103a257602093849161040060405261011e6101043561007b816103cd565b6101196101243561008b816103cd565b6101146101443561009b816103cd565b61010f61016435936100ac856103cd565b61010a61018435976100bd896103cd565b7f18022ea32ca53aaeb9ba952c4e1d6d82c333773f491feb80a31ea46091ddcf7f6080527f28f1bdb000f59108ea5218607a21834007ae8a415e22183540ac6962365bb3ce60a052610400565b61048a565b610514565b61059e565b610628565b61010093828593358452847f30644e72e131a029b85045b68181585d97816a916871ca8d3c208c16d87cfd479101358103066101205260443561014052606435610160526084356101805260a43590527f1c0aa967e87744ff6a1411a90b9d6e65391b1576324976a1fe717f8f41bddbfe6101c0527f2eb7d78e9690b7148029f284f15ee57f251fa0d8e5671e4c54ca33fe41bc87106101e0527f29a944e34909ed002afedd777328db9a6ddfdf9bb088b578f45f83d62e8f07cb610200527f2f33974fa973d355f85bde05e26f0e7772837ab21846463b3d7cb0be3e2a4bb3610220527f268590a466550db775faf8f27ff2db172e82c8c739b6d5365652ea0d376203ef610240527f0a12514f234b26b4361624802597b70b703e85c76379018ac51bc0d59fb1ddd9610260526080516102805260a0516102a0527f198e9393920d483a7260bfb731fb5d25f1aa493335a9e71297e485b7aef312c26102c0527f1800deef121f1e76426a00665e5c4479674322d4f75edadd46debd5cd992f6ed6102e05282610300917f090689d0585ff075ec9e99ad690c3395bc4b313370b38ef355acdadcd122975b83527f12c85ea5db8c6deb4aab71808dcb408fe3d1e7690c43d37b4ce6cc0166fa7daa610320528035610340520135610360527f0b0176c40c73317c490cc6b3b39c1e946099a0f3874800f4b76b0d9a70e73765610380527f0ccb86bd62a75377fa4dffd11543982a824c2ff78b0afbcef4878e6da220d1e66103a0527f1de99e3545c70432e2db8338070f1cf877f606148aacdcfde38fdac5ec5aa08b6103c0527f305b8bfe03a68b9c3b85cd0b8dd1696c1d286873cabf482cf1b556985ce9dfc06103e0528160086107cf195a01fa9051168152f35b8280fd5b5080fd5b80fd5b906004916044116103ba57565b600080fd5b9060c491610104116103ba57565b7f30644e72e131a029b85045b68181585d2833e84879b9709143e1f593f000000111156103f657565b6000805260206000f35b604051907f23e0d3ed7e718c2265ca0bb59fd48b37440d9f8af798d65ce020cac6b458e9b482527f235103869ab738ab0da7a9f31232e504ed33d6ab23cc1f74977db4e6709cf08f6020830152604082019081526107cf196040836060816007855a01fa156103f65760409260066080939284938451905260a05160608401525a01fa156103f657565b604051907f0a26e4df729f73c7190df45cb5984551ef1bf41137f24df8be357736b5334eb182527f0678561b52a3a0b56e1623dd791199600092f8cb65c6dec0a451e8ba50d894556020830152604082019081526107cf196040836060816007855a01fa156103f65760409260066080939284938451905260a05160608401525a01fa156103f657565b604051907f172f1d4395b66e356caf7a7791e1f6ac58005d607e27f259c1a3f204f69640bf82527f145902d4c6cd2632504a6cf462fc8cbabb13fba1504ca4fde9e9b06374bc6be56020830152604082019081526107cf196040836060816007855a01fa156103f65760409260066080939284938451905260a05160608401525a01fa156103f657565b604051907f039181c0fa1278b4a118ca0f22bdc5feb92369e8da5d0ef90e536cb07f60b4ba82527f1af1cd1564f43fb1ce87ef5cbfcb3967966a20ddb9add6e1b57b676b010845026020830152604082019081526107cf196040836060816007855a01fa156103f65760409260066080939284938451905260a05160608401525a01fa156103f657565b604051907f089e70628968f7d06240a02e258b85b4f8ccc20c59998375fce6551f8147ad4b82527f0c8cb1b8afba3308db88a9082d7813b15bb1e62a350583f3db9d142d070751706020830152604082019081526107cf196040836060816007855a01fa156103f65760409260066080939284938451905260a05160608401525a01fa156103f65756fea264697066735822122019863c16c3d26f7192da695b77f86690302533baddec757a51ec9cfad997bd1d64736f6c63430008180033","opcodes":"PUSH1 0x80 DUP1 PUSH1 0x40 MSTORE CALLVALUE PUSH2 0x16 JUMPI PUSH2 0x6E8 SWAP1 DUP2 PUSH2 0x1C DUP3 CODECOPY RETURN JUMPDEST PUSH1 0x0 DUP1 REVERT INVALID PUSH1 0x80 PUSH1 0x40 MSTORE PUSH1 0x4 CALLDATASIZE LT ISZERO PUSH2 0x12 JUMPI PUSH1 0x0 DUP1 REVERT JUMPDEST PUSH1 0x0 DUP1 CALLDATALOAD PUSH1 0xE0 SHR PUSH4 0x34BAEAB9 EQ PUSH2 0x28 JUMPI PUSH1 0x0 DUP1 REVERT JUMPDEST CALLVALUE PUSH2 0x3AA JUMPI PUSH2 0x1A0 SWAP1 DUP2 PUSH1 0x3 NOT CALLDATASIZE ADD SLT PUSH2 0x3AA JUMPI PUSH2 0x45 CALLDATASIZE PUSH2 0x3AD JUMP JUMPDEST SWAP2 CALLDATASIZE PUSH1 0xC4 GT PUSH2 0x3A6 JUMPI PUSH2 0x57 CALLDATASIZE PUSH2 0x3BF JUMP JUMPDEST CALLDATASIZE PUSH2 0x1A4 GT PUSH2 0x3A2 JUMPI PUSH1 0x20 SWAP4 DUP5 SWAP2 PUSH2 0x400 PUSH1 0x40 MSTORE PUSH2 0x11E PUSH2 0x104 CALLDATALOAD PUSH2 0x7B DUP2 PUSH2 0x3CD JUMP JUMPDEST PUSH2 0x119 PUSH2 0x124 CALLDATALOAD PUSH2 0x8B DUP2 PUSH2 0x3CD JUMP JUMPDEST PUSH2 0x114 PUSH2 0x144 CALLDATALOAD PUSH2 0x9B DUP2 PUSH2 0x3CD JUMP JUMPDEST PUSH2 0x10F PUSH2 0x164 CALLDATALOAD SWAP4 PUSH2 0xAC DUP6 PUSH2 0x3CD JUMP JUMPDEST PUSH2 0x10A PUSH2 0x184 CALLDATALOAD SWAP8 PUSH2 0xBD DUP10 PUSH2 0x3CD JUMP JUMPDEST PUSH32 0x18022EA32CA53AAEB9BA952C4E1D6D82C333773F491FEB80A31EA46091DDCF7F PUSH1 0x80 MSTORE PUSH32 0x28F1BDB000F59108EA5218607A21834007AE8A415E22183540AC6962365BB3CE PUSH1 0xA0 MSTORE PUSH2 0x400 JUMP JUMPDEST PUSH2 0x48A JUMP JUMPDEST PUSH2 0x514 JUMP JUMPDEST PUSH2 0x59E JUMP JUMPDEST PUSH2 0x628 JUMP JUMPDEST PUSH2 0x100 SWAP4 DUP3 DUP6 SWAP4 CALLDATALOAD DUP5 MSTORE DUP5 PUSH32 0x30644E72E131A029B85045B68181585D97816A916871CA8D3C208C16D87CFD47 SWAP2 ADD CALLDATALOAD DUP2 SUB MOD PUSH2 0x120 MSTORE PUSH1 0x44 CALLDATALOAD PUSH2 0x140 MSTORE PUSH1 0x64 CALLDATALOAD PUSH2 0x160 MSTORE PUSH1 0x84 CALLDATALOAD PUSH2 0x180 MSTORE PUSH1 0xA4 CALLDATALOAD SWAP1 MSTORE PUSH32 0x1C0AA967E87744FF6A1411A90B9D6E65391B1576324976A1FE717F8F41BDDBFE PUSH2 0x1C0 MSTORE PUSH32 0x2EB7D78E9690B7148029F284F15EE57F251FA0D8E5671E4C54CA33FE41BC8710 PUSH2 0x1E0 MSTORE PUSH32 0x29A944E34909ED002AFEDD777328DB9A6DDFDF9BB088B578F45F83D62E8F07CB PUSH2 0x200 MSTORE PUSH32 0x2F33974FA973D355F85BDE05E26F0E7772837AB21846463B3D7CB0BE3E2A4BB3 PUSH2 0x220 MSTORE PUSH32 0x268590A466550DB775FAF8F27FF2DB172E82C8C739B6D5365652EA0D376203EF PUSH2 0x240 MSTORE PUSH32 0xA12514F234B26B4361624802597B70B703E85C76379018AC51BC0D59FB1DDD9 PUSH2 0x260 MSTORE PUSH1 0x80 MLOAD PUSH2 0x280 MSTORE PUSH1 0xA0 MLOAD PUSH2 0x2A0 MSTORE PUSH32 0x198E9393920D483A7260BFB731FB5D25F1AA493335A9E71297E485B7AEF312C2 PUSH2 0x2C0 MSTORE PUSH32 0x1800DEEF121F1E76426A00665E5C4479674322D4F75EDADD46DEBD5CD992F6ED PUSH2 0x2E0 MSTORE DUP3 PUSH2 0x300 SWAP2 PUSH32 0x90689D0585FF075EC9E99AD690C3395BC4B313370B38EF355ACDADCD122975B DUP4 MSTORE PUSH32 0x12C85EA5DB8C6DEB4AAB71808DCB408FE3D1E7690C43D37B4CE6CC0166FA7DAA PUSH2 0x320 MSTORE DUP1 CALLDATALOAD PUSH2 0x340 MSTORE ADD CALLDATALOAD PUSH2 0x360 MSTORE PUSH32 0xB0176C40C73317C490CC6B3B39C1E946099A0F3874800F4B76B0D9A70E73765 PUSH2 0x380 MSTORE PUSH32 0xCCB86BD62A75377FA4DFFD11543982A824C2FF78B0AFBCEF4878E6DA220D1E6 PUSH2 0x3A0 MSTORE PUSH32 0x1DE99E3545C70432E2DB8338070F1CF877F606148AACDCFDE38FDAC5EC5AA08B PUSH2 0x3C0 MSTORE PUSH32 0x305B8BFE03A68B9C3B85CD0B8DD1696C1D286873CABF482CF1B556985CE9DFC0 PUSH2 0x3E0 MSTORE DUP2 PUSH1 0x8 PUSH2 0x7CF NOT GAS ADD STATICCALL SWAP1 MLOAD AND DUP2 MSTORE RETURN JUMPDEST DUP3 DUP1 REVERT JUMPDEST POP DUP1 REVERT JUMPDEST DUP1 REVERT JUMPDEST SWAP1 PUSH1 0x4 SWAP2 PUSH1 0x44 GT PUSH2 0x3BA JUMPI JUMP JUMPDEST PUSH1 0x0 DUP1 REVERT JUMPDEST SWAP1 PUSH1 0xC4 SWAP2 PUSH2 0x104 GT PUSH2 0x3BA JUMPI JUMP JUMPDEST PUSH32 0x30644E72E131A029B85045B68181585D2833E84879B9709143E1F593F0000001 GT ISZERO PUSH2 0x3F6 JUMPI JUMP JUMPDEST PUSH1 0x0 DUP1 MSTORE PUSH1 0x20 PUSH1 0x0 RETURN JUMPDEST PUSH1 0x40 MLOAD SWAP1 PUSH32 0x23E0D3ED7E718C2265CA0BB59FD48B37440D9F8AF798D65CE020CAC6B458E9B4 DUP3 MSTORE PUSH32 0x235103869AB738AB0DA7A9F31232E504ED33D6AB23CC1F74977DB4E6709CF08F PUSH1 0x20 DUP4 ADD MSTORE PUSH1 0x40 DUP3 ADD SWAP1 DUP2 MSTORE PUSH2 0x7CF NOT PUSH1 0x40 DUP4 PUSH1 0x60 DUP2 PUSH1 0x7 DUP6 GAS ADD STATICCALL ISZERO PUSH2 0x3F6 JUMPI PUSH1 0x40 SWAP3 PUSH1 0x6 PUSH1 0x80 SWAP4 SWAP3 DUP5 SWAP4 DUP5 MLOAD SWAP1 MSTORE PUSH1 0xA0 MLOAD PUSH1 0x60 DUP5 ADD MSTORE GAS ADD STATICCALL ISZERO PUSH2 0x3F6 JUMPI JUMP JUMPDEST PUSH1 0x40 MLOAD SWAP1 PUSH32 0xA26E4DF729F73C7190DF45CB5984551EF1BF41137F24DF8BE357736B5334EB1 DUP3 MSTORE PUSH32 0x678561B52A3A0B56E1623DD791199600092F8CB65C6DEC0A451E8BA50D89455 PUSH1 0x20 DUP4 ADD MSTORE PUSH1 0x40 DUP3 ADD SWAP1 DUP2 MSTORE PUSH2 0x7CF NOT PUSH1 0x40 DUP4 PUSH1 0x60 DUP2 PUSH1 0x7 DUP6 GAS ADD STATICCALL ISZERO PUSH2 0x3F6 JUMPI PUSH1 0x40 SWAP3 PUSH1 0x6 PUSH1 0x80 SWAP4 SWAP3 DUP5 SWAP4 DUP5 MLOAD SWAP1 MSTORE PUSH1 0xA0 MLOAD PUSH1 0x60 DUP5 ADD MSTORE GAS ADD STATICCALL ISZERO PUSH2 0x3F6 JUMPI JUMP JUMPDEST PUSH1 0x40 MLOAD SWAP1 PUSH32 0x172F1D4395B66E356CAF7A7791E1F6AC58005D607E27F259C1A3F204F69640BF DUP3 MSTORE PUSH32 0x145902D4C6CD2632504A6CF462FC8CBABB13FBA1504CA4FDE9E9B06374BC6BE5 PUSH1 0x20 DUP4 ADD MSTORE PUSH1 0x40 DUP3 ADD SWAP1 DUP2 MSTORE PUSH2 0x7CF NOT PUSH1 0x40 DUP4 PUSH1 0x60 DUP2 PUSH1 0x7 DUP6 GAS ADD STATICCALL ISZERO PUSH2 0x3F6 JUMPI PUSH1 0x40 SWAP3 PUSH1 0x6 PUSH1 0x80 SWAP4 SWAP3 DUP5 SWAP4 DUP5 MLOAD SWAP1 MSTORE PUSH1 0xA0 MLOAD PUSH1 0x60 DUP5 ADD MSTORE GAS ADD STATICCALL ISZERO PUSH2 0x3F6 JUMPI JUMP JUMPDEST PUSH1 0x40 MLOAD SWAP1 PUSH32 0x39181C0FA1278B4A118CA0F22BDC5FEB92369E8DA5D0EF90E536CB07F60B4BA DUP3 MSTORE PUSH32 0x1AF1CD1564F43FB1CE87EF5CBFCB3967966A20DDB9ADD6E1B57B676B01084502 PUSH1 0x20 DUP4 ADD MSTORE PUSH1 0x40 DUP3 ADD SWAP1 DUP2 MSTORE PUSH2 0x7CF NOT PUSH1 0x40 DUP4 PUSH1 0x60 DUP2 PUSH1 0x7 DUP6 GAS ADD STATICCALL ISZERO PUSH2 0x3F6 JUMPI PUSH1 0x40 SWAP3 PUSH1 0x6 PUSH1 0x80 SWAP4 SWAP3 DUP5 SWAP4 DUP5 MLOAD SWAP1 MSTORE PUSH1 0xA0 MLOAD PUSH1 0x60 DUP5 ADD MSTORE GAS ADD STATICCALL ISZERO PUSH2 0x3F6 JUMPI JUMP JUMPDEST PUSH1 0x40 MLOAD SWAP1 PUSH32 0x89E70628968F7D06240A02E258B85B4F8CCC20C59998375FCE6551F8147AD4B DUP3 MSTORE PUSH32 0xC8CB1B8AFBA3308DB88A9082D7813B15BB1E62A350583F3DB9D142D07075170 PUSH1 0x20 DUP4 ADD MSTORE PUSH1 0x40 DUP3 ADD SWAP1 DUP2 MSTORE PUSH2 0x7CF NOT PUSH1 0x40 DUP4 PUSH1 0x60 DUP2 PUSH1 0x7 DUP6 GAS ADD STATICCALL ISZERO PUSH2 0x3F6 JUMPI PUSH1 0x40 SWAP3 PUSH1 0x6 PUSH1 0x80 SWAP4 SWAP3 DUP5 SWAP4 DUP5 MLOAD SWAP1 MSTORE PUSH1 0xA0 MLOAD PUSH1 0x60 DUP5 ADD MSTORE GAS ADD STATICCALL ISZERO PUSH2 0x3F6 JUMPI JUMP INVALID LOG2 PUSH5 0x6970667358 0x22 SLT KECCAK256 NOT DUP7 EXTCODECOPY AND 0xC3 0xD2 PUSH16 0x7192DA695B77F86690302533BADDEC75 PUSH27 0x51EC9CFAD997BD1D64736F6C634300081800330000000000000000 "},"methodIdentifiers":{"verifyProof(uint256[2],uint256[2][2],uint256[2],uint256[5])":"34baeab9"}}}}}