{"src/AgentWallet.sol":{"AgentWallet":{"abi":[{"inputs":[],"stateMutability":"nonpayable","type":"constructor"},{"anonymous":false,"inputs":[{"indexed":true,"internalType":"address","name":"caller","type":"address"},{"indexed":false,"internalType":"uint256","name":"callCount","type":"uint256"},{"indexed":false,"internalType":"uint256","name":"totalValue","type":"uint256"}],"name":"BatchExecutionPerformed","type":"event"},{"anonymous":false,"inputs":[{"indexed":false,"internalType":"uint256","name":"amount","type":"uint256"},{"indexed":false,"internalType":"uint256","name":"newBalance","type":"uint256"}],"name":"EntryPointDepositAdded","type":"event"},{"anonymous":false,"inputs":[{"indexed":true,"internalType":"address","name":"recipient","type":"address"},{"indexed":false,"internalType":"uint256","name":"amount","type":"uint256"}],"name":"EntryPointWithdrawal","type":"event"},{"anonymous":false,"inputs":[{"indexed":true,"internalType":"address","name":"caller","type":"address"},{"indexed":true,"internalType":"address","name":"target","type":"address"},{"indexed":false,"internalType":"uint256","name":"value","type":"uint256"},{"indexed":false,"internalType":"bytes","name":"data","type":"bytes"}],"name":"ExecutionPerformed","type":"event"},{"anonymous":false,"inputs":[{"indexed":true,"internalType":"address","name":"oldOwner","type":"address"},{"indexed":true,"internalType":"address","name":"newOwner","type":"address"}],"name":"OwnerChanged","type":"event"},{"anonymous":false,"inputs":[{"indexed":true,"internalType":"bytes32","name":"userOpHash","type":"bytes32"},{"indexed":true,"internalType":"address","name":"signer","type":"address"},{"indexed":true,"internalType":"bytes32","name":"sessionId","type":"bytes32"},{"indexed":false,"internalType":"uint256","name":"value","type":"uint256"}],"name":"UserOperationValidated","type":"event"},{"anonymous":false,"inputs":[{"indexed":true,"internalType":"address","name":"owner","type":"address"},{"indexed":true,"internalType":"address","name":"sessionManager","type":"address"},{"indexed":true,"internalType":"address","name":"entryPoint","type":"address"}],"name":"WalletInitialized","type":"event"},{"anonymous":false,"inputs":[{"indexed":true,"internalType":"address","name":"party","type":"address"},{"indexed":false,"internalType":"bool","name":"status","type":"bool"}],"name":"WhiteListUpdated","type":"event"},{"inputs":[],"name":"addDeposit","outputs":[],"stateMutability":"payable","type":"function"},{"inputs":[{"internalType":"address","name":"newOwner","type":"address"}],"name":"changeOwner","outputs":[],"stateMutability":"nonpayable","type":"function"},{"inputs":[],"name":"checkBalance","outputs":[{"internalType":"uint128","name":"","type":"uint128"}],"stateMutability":"view","type":"function"},{"inputs":[],"name":"entryPoint","outputs":[{"internalType":"address","name":"","type":"address"}],"stateMutability":"view","type":"function"},{"inputs":[{"internalType":"address","name":"target","type":"address"},{"internalType":"uint256","name":"value","type":"uint256"},{"internalType":"bytes","name":"data","type":"bytes"}],"name":"execute","outputs":[],"stateMutability":"nonpayable","type":"function"},{"inputs":[{"internalType":"address[]","name":"targets","type":"address[]"},{"internalType":"uint256[]","name":"values","type":"uint256[]"},{"internalType":"bytes[]","name":"data","type":"bytes[]"}],"name":"executeBatch","outputs":[],"stateMutability":"nonpayable","type":"function"},{"inputs":[],"name":"getDeposit","outputs":[{"internalType":"uint256","name":"","type":"uint256"}],"stateMutability":"view","type":"function"},{"inputs":[{"internalType":"address","name":"_owner","type":"address"},{"internalType":"address","name":"_sessionManager","type":"address"},{"internalType":"address","name":"_entryPoint","type":"address"}],"name":"initialize","outputs":[],"stateMutability":"nonpayable","type":"function"},{"inputs":[],"name":"owner","outputs":[{"internalType":"address","name":"","type":"address"}],"stateMutability":"view","type":"function"},{"inputs":[],"name":"sessionManager","outputs":[{"internalType":"address","name":"","type":"address"}],"stateMutability":"view","type":"function"},{"inputs":[{"internalType":"address","name":"party","type":"address"},{"internalType":"bool","name":"status","type":"bool"}],"name":"setWhiteListedParty","outputs":[],"stateMutability":"nonpayable","type":"function"},{"inputs":[{"internalType":"address[]","name":"parties","type":"address[]"},{"internalType":"bool[]","name":"statuses","type":"bool[]"}],"name":"setWhiteListedPartyBatch","outputs":[],"stateMutability":"nonpayable","type":"function"},{"inputs":[{"components":[{"internalType":"address","name":"sender","type":"address"},{"internalType":"uint256","name":"nonce","type":"uint256"},{"internalType":"bytes","name":"initCode","type":"bytes"},{"internalType":"bytes","name":"callData","type":"bytes"},{"internalType":"bytes32","name":"accountGasLimits","type":"bytes32"},{"internalType":"uint256","name":"preVerificationGas","type":"uint256"},{"internalType":"bytes32","name":"gasFees","type":"bytes32"},{"internalType":"bytes","name":"paymasterAndData","type":"bytes"},{"internalType":"bytes","name":"signature","type":"bytes"}],"internalType":"struct PackedUserOperation","name":"userOp","type":"tuple"},{"internalType":"bytes32","name":"userOpHash","type":"bytes32"},{"internalType":"uint256","name":"missingAccountFunds","type":"uint256"}],"name":"validateUserOp","outputs":[{"internalType":"uint256","name":"validationData","type":"uint256"}],"stateMutability":"nonpayable","type":"function"},{"inputs":[{"internalType":"address","name":"","type":"address"}],"name":"whiteListedParties","outputs":[{"internalType":"bool","name":"","type":"bool"}],"stateMutability":"view","type":"function"},{"inputs":[{"internalType":"address payable","name":"recipient","type":"address"},{"internalType":"uint256","name":"amount","type":"uint256"}],"name":"withdrawDepositTo","outputs":[],"stateMutability":"nonpayable","type":"function"},{"stateMutability":"payable","type":"receive"}],"evm":{"bytecode":{"linkReferences":{},"object":"60808060405234610028576001600055600160ff19600554161760055561194a908161002e8239f35b600080fdfe608080604052600436101561001d575b50361561001b57600080fd5b005b600090813560e01c90816319822f7c14610bfe5750806347e1da2a146109ef5780634a58db19146108db5780634d44560d146107cc5780638da5cb5b146107a35780639f5e3ecc14610639578063a6f9dae1146105b3578063b0d691fe1461058a578063b61d27f61461041c578063b7b13f79146103f3578063b8434685146103b4578063c0c53b8b14610237578063c399ec881461019d578063c71daccb1461016f5763f9c56aa60361000f573461016c57604036600319011261016c576100e4610d64565b6024359081151590818303610168577fb1288e9f7bae3599e10819d5553febea48e11a6f8f585b32c8abad397dd2627e9161015e60209260018060a01b039061013282600154163314610faa565b61014060ff60055416610d8e565b169485875260048452604087209060ff801983541691151516179055565b604051908152a280f35b8380fd5b80fd5b503461016c578060031936011261016c5760206fffffffffffffffffffffffffffffffff4716604051908152f35b503461016c578060031936011261016c576003546040516370a0823160e01b81523060048201529190602090839060249082906001600160a01b03165afa90811561022b57906101f3575b602090604051908152f35b506020813d602011610223575b8161020d60209383610df5565b8101031261021e57602090516101e8565b600080fd5b3d9150610200565b604051903d90823e3d90fd5b503461016c57606036600319011261016c57610251610d64565b6001600160a01b0390602435828116919082900361021e576044359280841680940361021e576005549160ff8316610379571690610290821515610fef565b82156103345783156102f957600190846bffffffffffffffffffffffff60a01b848185541617845585816002541617600255600354161760035560ff1916176005557f31f30195006760f9b61e7325457ca7acacfbdd7734b88a22545e264b62357fde8480a480f35b60405162461bcd60e51b8152602060048201526013602482015272125b9d985b1a5908195b9d1c9e481c1bda5b9d606a1b6044820152606490fd5b60405162461bcd60e51b815260206004820152601760248201527f496e76616c69642073657373696f6e206d616e616765720000000000000000006044820152606490fd5b60405162461bcd60e51b8152602060048201526013602482015272105b1c9958591e481a5b9a5d1a585b1a5e9959606a1b6044820152606490fd5b503461016c57602036600319011261016c5760209060ff906040906001600160a01b036103df610d64565b168152600484522054166040519015158152f35b503461016c578060031936011261016c576002546040516001600160a01b039091168152602090f35b503461016c57606036600319011261016c57610436610d64565b6001600160401b03604435602435828211610586573660238301121561058657816004013592831161058657602482019160248436920101116105865761047b61137a565b61048960ff60055416610d8e565b848060018060a01b03806001541633148015610579575b6104a990610e61565b86169586825260046020526104c460ff604084205416610f16565b60405186868237848188810185815203925af16104df610e31565b501561054157827f466a2206798e055438a5c0ffd88fa284dbeb2bd07c385e998a1909b2e1ac36609260405192835260406020840152816040840152606083013784606084830101526060813394601f80199101168101030190a36001815580f35b60405162461bcd60e51b815260206004820152601060248201526f115e1958dd5d1a5bdb8819985a5b195960821b6044820152606490fd5b50600354811633146104a0565b8480fd5b503461016c578060031936011261016c576003546040516001600160a01b039091168152602090f35b503461016c57602036600319011261016c576105cd610d64565b600154906001600160a01b03808316916105e8338414610faa565b6105f660ff60055416610d8e565b168092610604821515610fef565b6001600160a01b031916176001557fb532073b38c83145e3e5135377a08bf9aab55bc0fd7c1179cd4fb995d2a5159c8380a380f35b503461016c57604036600319011261016c576001600160401b039060043582811161079f5761066c903690600401610d34565b9260243590811161079b57610685903690600401610d34565b919060018060a01b036001936106a082600154163314610faa565b6106ae60ff60055416610d8e565b80870361075e57855b8781106106c2578680f35b806106d76106d288938588610edc565b610fe2565b846106eb6106e6848d8b610edc565b610f02565b16895261070d6020916004835260408b209060ff801983541691151516179055565b7fb1288e9f7bae3599e10819d5553febea48e11a6f8f585b32c8abad397dd2627e61073c6106e6848d8b610edc565b918661074c6106d286898c610edc565b9360405194151585521692a2016106b7565b60405162461bcd60e51b8152602060048201526015602482015274082e4e4c2f240d8cadccee8d040dad2e6dac2e8c6d605b1b6044820152606490fd5b8280fd5b5080fd5b503461016c578060031936011261016c576001546040516001600160a01b039091168152602090f35b503461016c57604036600319011261016c576107e6610d64565b60243560018060a01b03809261080182600154163314610faa565b61080f60ff60055416610d8e565b169182156108a257839060035416803b1561079f5781809160446040518094819363040b850f60e31b83528960048401528860248401525af1801561089757610883575b505060207fcae8414aeb02c2a7a7089c22ed61def4882bf260298b39ff6ba047ef80a2f37991604051908152a280f35b61088c90610dcc565b61079b578238610853565b6040513d84823e3d90fd5b60405162461bcd60e51b8152602060048201526011602482015270125b9d985b1a59081c9958da5c1a595b9d607a1b6044820152606490fd5b508060031936011261016c576108f560ff60055416610d8e565b6003546001600160a01b0390811682813b1561016c5760405163b760faf960e01b8152306004820152918290602490829034905af180156109e4576109cd575b50602060249160035416604051928380926370a0823160e01b82523060048301525afa90811561089757829161099a575b5060407f4936e4683983dc3b8afb17c6844af8a193b8bdc330595d260421c7e84ebf683e918151903482526020820152a180f35b90506020813d6020116109c5575b816109b560209383610df5565b8101031261021e57516040610966565b3d91506109a8565b602491926109dc602092610dcc565b929150610935565b6040513d85823e3d90fd5b503461016c57606036600319011261016c576001600160401b0360043581811161079b57610a21903690600401610d34565b919060243582811161058657610a3b903690600401610d34565b92604435908111610bfa57610a54903690600401610d34565b90610a5d61137a565b610a6b60ff60055416610d8e565b6001546001600160a01b031633148015610be6575b610a8990610e61565b84861480610bdd575b610aa190959493929195610e9e565b869487945b878610610ae85788888860405191825260208201527f36551ad729f069397fd12c263eba2bdbdb0e999953df151620e1ec9edd8f2aaf60403392a26001815580f35b909192939495610b319060018060a01b03610b076106e68a8c8b610edc565b168a526004602052610b1f60ff60408c205416610f16565b610b2a888488610edc565b3590610f55565b95610b406106e6828a89610edc565b610b4b828488610edc565b3585831015610bc9578a918291610b678560051b880188610f78565b9190826040519384928337810185815203925af1610b83610e31565b5015610b96576001019493929190610aa6565b60405162461bcd60e51b815260206004820152600b60248201526a10d85b1b0819985a5b195960aa1b6044820152606490fd5b634e487b7160e01b8b52603260045260248bfd5b50848214610a92565b506003546001600160a01b03163314610a80565b8580fd5b823461016c5760031960603682011261079f57600435906001600160401b03821161079b5761012090823603011261079f5760035460243593604435926001600160a01b039290919083163303610d00575084610c6b91610c6360ff60055416610d8e565b600401611098565b959192909380610cae575b5060207f3beba097c09c235465df7c6857b74b6435ffb77e2cb08a8f714156c35da603739181976040519586521693a4604051908152f35b8580808093335af1610cbe610e31565b5015610cca5786610c76565b60405162461bcd60e51b815260206004820152600e60248201526d119d5b991a5b99c819985a5b195960921b6044820152606490fd5b62461bcd60e51b815260206004820152600f60248201526e139bdd08195b9d1c9e481c1bda5b9d608a1b6044820152606490fd5b9181601f8401121561021e578235916001600160401b03831161021e576020808501948460051b01011161021e57565b600435906001600160a01b038216820361021e57565b35906001600160a01b038216820361021e57565b15610d9557565b60405162461bcd60e51b815260206004820152600f60248201526e139bdd081a5b9a5d1a585b1a5e9959608a1b6044820152606490fd5b6001600160401b038111610ddf57604052565b634e487b7160e01b600052604160045260246000fd5b90601f801991011681019081106001600160401b03821117610ddf57604052565b6001600160401b038111610ddf57601f01601f191660200190565b3d15610e5c573d90610e4282610e16565b91610e506040519384610df5565b82523d6000602084013e565b606090565b15610e6857565b60405162461bcd60e51b815260206004820152600e60248201526d139bdd08185d5d1a1bdc9a5e995960921b6044820152606490fd5b15610ea557565b60405162461bcd60e51b815260206004820152600f60248201526e098cadccee8d040dad2e6dac2e8c6d608b1b6044820152606490fd5b9190811015610eec5760051b0190565b634e487b7160e01b600052603260045260246000fd5b356001600160a01b038116810361021e5790565b15610f1d57565b60405162461bcd60e51b815260206004820152601060248201526f139bdd081dda1a5d19481b1a5cdd195960821b6044820152606490fd5b91908201809211610f6257565b634e487b7160e01b600052601160045260246000fd5b903590601e198136030182121561021e57018035906001600160401b03821161021e5760200191813603831361021e57565b15610fb157565b60405162461bcd60e51b81526020600482015260096024820152682737ba1037bbb732b960b91b6044820152606490fd5b35801515810361021e5790565b15610ff657565b60405162461bcd60e51b815260206004820152600d60248201526c24b73b30b634b21037bbb732b960991b6044820152606490fd5b92919261103782610e16565b916110456040519384610df5565b82948184528183011161021e578281602093846000960137010152565b9080601f8301121561021e5781602061107d9335910161102b565b90565b9081602091031261021e5751801515810361021e5790565b906110af6110a96060840184610f78565b90611433565b926000917f19457468657265756d205369676e6564204d6573736167653a0a3332000000008352601c52603c82209261010081019060416110f08383610f78565b9050146112ed579061110191610f78565b810192604090818386031261016c5782359460209384810135906001600160401b0382116101685761114b93926111439261113c9201611062565b8798611733565b92909261176b565b600254835163f545b88b60e01b8152600481018890526001600160a01b038481166024830152604482018b9052939786928b928a918590829060649082908a908c165af18691816112ce575b5061126d5750600254875163370d79f560e21b815260048101939093526001600160a01b0391909116602483015260448201929092529293839160649183918791165af19182156112625791611235575b50156111f2575050565b60649250519062461bcd60e51b82526004820152601960248201527f53657373696f6e2076616c69646174696f6e206661696c6564000000000000006044820152fd5b6112559150833d851161125b575b61124d8183610df5565b810190611080565b386111e8565b503d611243565b8351903d90823e3d90fd5b955050505050501561127d575050565b60849250519062461bcd60e51b82526004820152602560248201527f4c696768747765696768742073657373696f6e2076616c69646174696f6e2066604482015264185a5b195960da1b6064820152fd5b6112e6919250863d881161125b5761124d8183610df5565b9038611197565b9361130c6113056113129361131a9798959698610f78565b369161102b565b90611733565b93909361176b565b6001546001600160a01b039081169084160361133557929190565b60405162461bcd60e51b815260206004820152601760248201527f496e76616c6964206f776e6572207369676e61747572650000000000000000006044820152606490fd5b60026000541461138b576002600055565b60405162461bcd60e51b815260206004820152601f60248201527f5265656e7472616e637947756172643a207265656e7472616e742063616c6c006044820152606490fd5b9160608383031261021e576113e483610d7a565b9260208101359260408201356001600160401b03811161021e5761107d9201611062565b6001600160401b038111610ddf5760051b60200190565b8051821015610eec5760209160051b010190565b60009060006004938481106116fc5782356001600160e01b031916635b0e93fb60e11b81146116b2576323f0ed1560e11b146114a45760405162461bcd60e51b81526020818701526014602482015273556e737570706f727465642063616c6c4461746160601b6044820152606490fd5b80859394951161079f578301916060848403600319011261079f576001600160401b038482013581811161016857850193806023860112156101685782850135916024906114f184611408565b926040976115026040519586610df5565b858552602095848787019160051b8301019183831161167a5785889101915b83831061169a57505050508289013582811161167e578901988160238b01121561167e57868a0135996115538b611408565b9a6115616040519c8d610df5565b808c5285888d019160051b830101918483116116965786899101915b83831061168657505050506044810135908382116116825701928160238501121561167e57868401359281876115b286611408565b6115bf6040519182610df5565b868152019460051b8601019483861161167a57828101945b86861061165157505050505050506115f28151875114610e9e565b83965b81518810156116465760019061163e906001600160a01b036116178b8661141f565b5116875285855261162d60ff8989205416610f16565b6116378a8a61141f565b5190610f55565b9701966115f5565b965050505050505090565b853583811161167657899161166b87878594870101611062565b8152019501946115d7565b8b80fd5b8980fd5b8780fd5b8880fd5b823581529181019189910161157d565b8a80fd5b81906116a584610d7a565b8152019101908790611521565b50809193508492941161079b5761107d92826116e460409360ff95880197016116db81896113d0565b509890506113d0565b50506001600160a01b03168252602052205416610f16565b60405162461bcd60e51b8152602081870152601060248201526f496e76616c69642063616c6c4461746160801b6044820152606490fd5b9060418151146000146117615761175d916020820151906060604084015193015160001a90611885565b9091565b5050600090600290565b600581101561186f578061177c5750565b600181036117c95760405162461bcd60e51b815260206004820152601860248201527f45434453413a20696e76616c6964207369676e617475726500000000000000006044820152606490fd5b600281036118165760405162461bcd60e51b815260206004820152601f60248201527f45434453413a20696e76616c6964207369676e6174757265206c656e677468006044820152606490fd5b60031461181f57565b60405162461bcd60e51b815260206004820152602260248201527f45434453413a20696e76616c6964207369676e6174757265202773272076616c604482015261756560f01b6064820152608490fd5b634e487b7160e01b600052602160045260246000fd5b9291907f7fffffffffffffffffffffffffffffff5d576e7357a4501ddfe92f46681b20a083116119085791608094939160ff602094604051948552168484015260408301526060820152600093849182805260015afa156118fb5781516001600160a01b038116156118f5579190565b50600190565b50604051903d90823e3d90fd5b5050505060009060039056fea2646970667358221220a92ee8e04e8541653d83be6ecb96789d893c1857eb6571ba5e3f0f5152271ba064736f6c63430008180033","opcodes":"PUSH1 0x80 DUP1 PUSH1 0x40 MSTORE CALLVALUE PUSH2 0x28 JUMPI PUSH1 0x1 PUSH1 0x0 SSTORE PUSH1 0x1 PUSH1 0xFF NOT PUSH1 0x5 SLOAD AND OR PUSH1 0x5 SSTORE PUSH2 0x194A SWAP1 DUP2 PUSH2 0x2E DUP3 CODECOPY RETURN JUMPDEST PUSH1 0x0 DUP1 REVERT INVALID PUSH1 0x80 DUP1 PUSH1 0x40 MSTORE PUSH1 0x4 CALLDATASIZE LT ISZERO PUSH2 0x1D JUMPI JUMPDEST POP CALLDATASIZE ISZERO PUSH2 0x1B JUMPI PUSH1 0x0 DUP1 REVERT JUMPDEST STOP JUMPDEST PUSH1 0x0 SWAP1 DUP2 CALLDATALOAD PUSH1 0xE0 SHR SWAP1 DUP2 PUSH4 0x19822F7C EQ PUSH2 0xBFE JUMPI POP DUP1 PUSH4 0x47E1DA2A EQ PUSH2 0x9EF JUMPI DUP1 PUSH4 0x4A58DB19 EQ PUSH2 0x8DB JUMPI DUP1 PUSH4 0x4D44560D EQ PUSH2 0x7CC JUMPI DUP1 PUSH4 0x8DA5CB5B EQ PUSH2 0x7A3 JUMPI DUP1 PUSH4 0x9F5E3ECC EQ PUSH2 0x639 JUMPI DUP1 PUSH4 0xA6F9DAE1 EQ PUSH2 0x5B3 JUMPI DUP1 PUSH4 0xB0D691FE EQ PUSH2 0x58A JUMPI DUP1 PUSH4 0xB61D27F6 EQ PUSH2 0x41C JUMPI DUP1 PUSH4 0xB7B13F79 EQ PUSH2 0x3F3 JUMPI DUP1 PUSH4 0xB8434685 EQ PUSH2 0x3B4 JUMPI DUP1 PUSH4 0xC0C53B8B EQ PUSH2 0x237 JUMPI DUP1 PUSH4 0xC399EC88 EQ PUSH2 0x19D JUMPI DUP1 PUSH4 0xC71DACCB EQ PUSH2 0x16F JUMPI PUSH4 0xF9C56AA6 SUB PUSH2 0xF JUMPI CALLVALUE PUSH2 0x16C JUMPI PUSH1 0x40 CALLDATASIZE PUSH1 0x3 NOT ADD SLT PUSH2 0x16C JUMPI PUSH2 0xE4 PUSH2 0xD64 JUMP JUMPDEST PUSH1 0x24 CALLDATALOAD SWAP1 DUP2 ISZERO ISZERO SWAP1 DUP2 DUP4 SUB PUSH2 0x168 JUMPI PUSH32 0xB1288E9F7BAE3599E10819D5553FEBEA48E11A6F8F585B32C8ABAD397DD2627E SWAP2 PUSH2 0x15E PUSH1 0x20 SWAP3 PUSH1 0x1 DUP1 PUSH1 0xA0 SHL SUB SWAP1 PUSH2 0x132 DUP3 PUSH1 0x1 SLOAD AND CALLER EQ PUSH2 0xFAA JUMP JUMPDEST PUSH2 0x140 PUSH1 0xFF PUSH1 0x5 SLOAD AND PUSH2 0xD8E JUMP JUMPDEST AND SWAP5 DUP6 DUP8 MSTORE PUSH1 0x4 DUP5 MSTORE PUSH1 0x40 DUP8 KECCAK256 SWAP1 PUSH1 0xFF DUP1 NOT DUP4 SLOAD AND SWAP2 ISZERO ISZERO AND OR SWAP1 SSTORE JUMP JUMPDEST PUSH1 0x40 MLOAD SWAP1 DUP2 MSTORE LOG2 DUP1 RETURN JUMPDEST DUP4 DUP1 REVERT JUMPDEST DUP1 REVERT JUMPDEST POP CALLVALUE PUSH2 0x16C JUMPI DUP1 PUSH1 0x3 NOT CALLDATASIZE ADD SLT PUSH2 0x16C JUMPI PUSH1 0x20 PUSH16 0xFFFFFFFFFFFFFFFFFFFFFFFFFFFFFFFF SELFBALANCE AND PUSH1 0x40 MLOAD SWAP1 DUP2 MSTORE RETURN JUMPDEST POP CALLVALUE PUSH2 0x16C JUMPI DUP1 PUSH1 0x3 NOT CALLDATASIZE ADD SLT PUSH2 0x16C JUMPI PUSH1 0x3 SLOAD PUSH1 0x40 MLOAD PUSH4 0x70A08231 PUSH1 0xE0 SHL DUP2 MSTORE ADDRESS PUSH1 0x4 DUP3 ADD MSTORE SWAP2 SWAP1 PUSH1 0x20 SWAP1 DUP4 SWAP1 PUSH1 0x24 SWAP1 DUP3 SWAP1 PUSH1 0x1 PUSH1 0x1 PUSH1 0xA0 SHL SUB AND GAS STATICCALL SWAP1 DUP2 ISZERO PUSH2 0x22B JUMPI SWAP1 PUSH2 0x1F3 JUMPI JUMPDEST PUSH1 0x20 SWAP1 PUSH1 0x40 MLOAD SWAP1 DUP2 MSTORE RETURN JUMPDEST POP PUSH1 0x20 DUP2 RETURNDATASIZE PUSH1 0x20 GT PUSH2 0x223 JUMPI JUMPDEST DUP2 PUSH2 0x20D PUSH1 0x20 SWAP4 DUP4 PUSH2 0xDF5 JUMP JUMPDEST DUP2 ADD SUB SLT PUSH2 0x21E JUMPI PUSH1 0x20 SWAP1 MLOAD PUSH2 0x1E8 JUMP JUMPDEST PUSH1 0x0 DUP1 REVERT JUMPDEST RETURNDATASIZE SWAP2 POP PUSH2 0x200 JUMP JUMPDEST PUSH1 0x40 MLOAD SWAP1 RETURNDATASIZE SWAP1 DUP3 RETURNDATACOPY RETURNDATASIZE SWAP1 REVERT JUMPDEST POP CALLVALUE PUSH2 0x16C JUMPI PUSH1 0x60 CALLDATASIZE PUSH1 0x3 NOT ADD SLT PUSH2 0x16C JUMPI PUSH2 0x251 PUSH2 0xD64 JUMP JUMPDEST PUSH1 0x1 PUSH1 0x1 PUSH1 0xA0 SHL SUB SWAP1 PUSH1 0x24 CALLDATALOAD DUP3 DUP2 AND SWAP2 SWAP1 DUP3 SWAP1 SUB PUSH2 0x21E JUMPI PUSH1 0x44 CALLDATALOAD SWAP3 DUP1 DUP5 AND DUP1 SWAP5 SUB PUSH2 0x21E JUMPI PUSH1 0x5 SLOAD SWAP2 PUSH1 0xFF DUP4 AND PUSH2 0x379 JUMPI AND SWAP1 PUSH2 0x290 DUP3 ISZERO ISZERO PUSH2 0xFEF JUMP JUMPDEST DUP3 ISZERO PUSH2 0x334 JUMPI DUP4 ISZERO PUSH2 0x2F9 JUMPI PUSH1 0x1 SWAP1 DUP5 PUSH12 0xFFFFFFFFFFFFFFFFFFFFFFFF PUSH1 0xA0 SHL DUP5 DUP2 DUP6 SLOAD AND OR DUP5 SSTORE DUP6 DUP2 PUSH1 0x2 SLOAD AND OR PUSH1 0x2 SSTORE PUSH1 0x3 SLOAD AND OR PUSH1 0x3 SSTORE PUSH1 0xFF NOT AND OR PUSH1 0x5 SSTORE PUSH32 0x31F30195006760F9B61E7325457CA7ACACFBDD7734B88A22545E264B62357FDE DUP5 DUP1 LOG4 DUP1 RETURN JUMPDEST PUSH1 0x40 MLOAD PUSH3 0x461BCD PUSH1 0xE5 SHL DUP2 MSTORE PUSH1 0x20 PUSH1 0x4 DUP3 ADD MSTORE PUSH1 0x13 PUSH1 0x24 DUP3 ADD MSTORE PUSH19 0x125B9D985B1A5908195B9D1C9E481C1BDA5B9D PUSH1 0x6A SHL PUSH1 0x44 DUP3 ADD MSTORE PUSH1 0x64 SWAP1 REVERT JUMPDEST PUSH1 0x40 MLOAD PUSH3 0x461BCD PUSH1 0xE5 SHL DUP2 MSTORE PUSH1 0x20 PUSH1 0x4 DUP3 ADD MSTORE PUSH1 0x17 PUSH1 0x24 DUP3 ADD MSTORE PUSH32 0x496E76616C69642073657373696F6E206D616E61676572000000000000000000 PUSH1 0x44 DUP3 ADD MSTORE PUSH1 0x64 SWAP1 REVERT JUMPDEST PUSH1 0x40 MLOAD PUSH3 0x461BCD PUSH1 0xE5 SHL DUP2 MSTORE PUSH1 0x20 PUSH1 0x4 DUP3 ADD MSTORE PUSH1 0x13 PUSH1 0x24 DUP3 ADD MSTORE PUSH19 0x105B1C9958591E481A5B9A5D1A585B1A5E9959 PUSH1 0x6A SHL PUSH1 0x44 DUP3 ADD MSTORE PUSH1 0x64 SWAP1 REVERT JUMPDEST POP CALLVALUE PUSH2 0x16C JUMPI PUSH1 0x20 CALLDATASIZE PUSH1 0x3 NOT ADD SLT PUSH2 0x16C JUMPI PUSH1 0x20 SWAP1 PUSH1 0xFF SWAP1 PUSH1 0x40 SWAP1 PUSH1 0x1 PUSH1 0x1 PUSH1 0xA0 SHL SUB PUSH2 0x3DF PUSH2 0xD64 JUMP JUMPDEST AND DUP2 MSTORE PUSH1 0x4 DUP5 MSTORE KECCAK256 SLOAD AND PUSH1 0x40 MLOAD SWAP1 ISZERO ISZERO DUP2 MSTORE RETURN JUMPDEST POP CALLVALUE PUSH2 0x16C JUMPI DUP1 PUSH1 0x3 NOT CALLDATASIZE ADD SLT PUSH2 0x16C JUMPI PUSH1 0x2 SLOAD PUSH1 0x40 MLOAD PUSH1 0x1 PUSH1 0x1 PUSH1 0xA0 SHL SUB SWAP1 SWAP2 AND DUP2 MSTORE PUSH1 0x20 SWAP1 RETURN JUMPDEST POP CALLVALUE PUSH2 0x16C JUMPI PUSH1 0x60 CALLDATASIZE PUSH1 0x3 NOT ADD SLT PUSH2 0x16C JUMPI PUSH2 0x436 PUSH2 0xD64 JUMP JUMPDEST PUSH1 0x1 PUSH1 0x1 PUSH1 0x40 SHL SUB PUSH1 0x44 CALLDATALOAD PUSH1 0x24 CALLDATALOAD DUP3 DUP3 GT PUSH2 0x586 JUMPI CALLDATASIZE PUSH1 0x23 DUP4 ADD SLT ISZERO PUSH2 0x586 JUMPI DUP2 PUSH1 0x4 ADD CALLDATALOAD SWAP3 DUP4 GT PUSH2 0x586 JUMPI PUSH1 0x24 DUP3 ADD SWAP2 PUSH1 0x24 DUP5 CALLDATASIZE SWAP3 ADD ADD GT PUSH2 0x586 JUMPI PUSH2 0x47B PUSH2 0x137A JUMP JUMPDEST PUSH2 0x489 PUSH1 0xFF PUSH1 0x5 SLOAD AND PUSH2 0xD8E JUMP JUMPDEST DUP5 DUP1 PUSH1 0x1 DUP1 PUSH1 0xA0 SHL SUB DUP1 PUSH1 0x1 SLOAD AND CALLER EQ DUP1 ISZERO PUSH2 0x579 JUMPI JUMPDEST PUSH2 0x4A9 SWAP1 PUSH2 0xE61 JUMP JUMPDEST DUP7 AND SWAP6 DUP7 DUP3 MSTORE PUSH1 0x4 PUSH1 0x20 MSTORE PUSH2 0x4C4 PUSH1 0xFF PUSH1 0x40 DUP5 KECCAK256 SLOAD AND PUSH2 0xF16 JUMP JUMPDEST PUSH1 0x40 MLOAD DUP7 DUP7 DUP3 CALLDATACOPY DUP5 DUP2 DUP9 DUP2 ADD DUP6 DUP2 MSTORE SUB SWAP3 GAS CALL PUSH2 0x4DF PUSH2 0xE31 JUMP JUMPDEST POP ISZERO PUSH2 0x541 JUMPI DUP3 PUSH32 0x466A2206798E055438A5C0FFD88FA284DBEB2BD07C385E998A1909B2E1AC3660 SWAP3 PUSH1 0x40 MLOAD SWAP3 DUP4 MSTORE PUSH1 0x40 PUSH1 0x20 DUP5 ADD MSTORE DUP2 PUSH1 0x40 DUP5 ADD MSTORE PUSH1 0x60 DUP4 ADD CALLDATACOPY DUP5 PUSH1 0x60 DUP5 DUP4 ADD ADD MSTORE PUSH1 0x60 DUP2 CALLER SWAP5 PUSH1 0x1F DUP1 NOT SWAP2 ADD AND DUP2 ADD SUB ADD SWAP1 LOG3 PUSH1 0x1 DUP2 SSTORE DUP1 RETURN JUMPDEST PUSH1 0x40 MLOAD PUSH3 0x461BCD PUSH1 0xE5 SHL DUP2 MSTORE PUSH1 0x20 PUSH1 0x4 DUP3 ADD MSTORE PUSH1 0x10 PUSH1 0x24 DUP3 ADD MSTORE PUSH16 0x115E1958DD5D1A5BDB8819985A5B1959 PUSH1 0x82 SHL PUSH1 0x44 DUP3 ADD MSTORE PUSH1 0x64 SWAP1 REVERT JUMPDEST POP PUSH1 0x3 SLOAD DUP2 AND CALLER EQ PUSH2 0x4A0 JUMP JUMPDEST DUP5 DUP1 REVERT JUMPDEST POP CALLVALUE PUSH2 0x16C JUMPI DUP1 PUSH1 0x3 NOT CALLDATASIZE ADD SLT PUSH2 0x16C JUMPI PUSH1 0x3 SLOAD PUSH1 0x40 MLOAD PUSH1 0x1 PUSH1 0x1 PUSH1 0xA0 SHL SUB SWAP1 SWAP2 AND DUP2 MSTORE PUSH1 0x20 SWAP1 RETURN JUMPDEST POP CALLVALUE PUSH2 0x16C JUMPI PUSH1 0x20 CALLDATASIZE PUSH1 0x3 NOT ADD SLT PUSH2 0x16C JUMPI PUSH2 0x5CD PUSH2 0xD64 JUMP JUMPDEST PUSH1 0x1 SLOAD SWAP1 PUSH1 0x1 PUSH1 0x1 PUSH1 0xA0 SHL SUB DUP1 DUP4 AND SWAP2 PUSH2 0x5E8 CALLER DUP5 EQ PUSH2 0xFAA JUMP JUMPDEST PUSH2 0x5F6 PUSH1 0xFF PUSH1 0x5 SLOAD AND PUSH2 0xD8E JUMP JUMPDEST AND DUP1 SWAP3 PUSH2 0x604 DUP3 ISZERO ISZERO PUSH2 0xFEF JUMP JUMPDEST PUSH1 0x1 PUSH1 0x1 PUSH1 0xA0 SHL SUB NOT AND OR PUSH1 0x1 SSTORE PUSH32 0xB532073B38C83145E3E5135377A08BF9AAB55BC0FD7C1179CD4FB995D2A5159C DUP4 DUP1 LOG3 DUP1 RETURN JUMPDEST POP CALLVALUE PUSH2 0x16C JUMPI PUSH1 0x40 CALLDATASIZE PUSH1 0x3 NOT ADD SLT PUSH2 0x16C JUMPI PUSH1 0x1 PUSH1 0x1 PUSH1 0x40 SHL SUB SWAP1 PUSH1 0x4 CALLDATALOAD DUP3 DUP2 GT PUSH2 0x79F JUMPI PUSH2 0x66C SWAP1 CALLDATASIZE SWAP1 PUSH1 0x4 ADD PUSH2 0xD34 JUMP JUMPDEST SWAP3 PUSH1 0x24 CALLDATALOAD SWAP1 DUP2 GT PUSH2 0x79B JUMPI PUSH2 0x685 SWAP1 CALLDATASIZE SWAP1 PUSH1 0x4 ADD PUSH2 0xD34 JUMP JUMPDEST SWAP2 SWAP1 PUSH1 0x1 DUP1 PUSH1 0xA0 SHL SUB PUSH1 0x1 SWAP4 PUSH2 0x6A0 DUP3 PUSH1 0x1 SLOAD AND CALLER EQ PUSH2 0xFAA JUMP JUMPDEST PUSH2 0x6AE PUSH1 0xFF PUSH1 0x5 SLOAD AND PUSH2 0xD8E JUMP JUMPDEST DUP1 DUP8 SUB PUSH2 0x75E JUMPI DUP6 JUMPDEST DUP8 DUP2 LT PUSH2 0x6C2 JUMPI DUP7 DUP1 RETURN JUMPDEST DUP1 PUSH2 0x6D7 PUSH2 0x6D2 DUP9 SWAP4 DUP6 DUP9 PUSH2 0xEDC JUMP JUMPDEST PUSH2 0xFE2 JUMP JUMPDEST DUP5 PUSH2 0x6EB PUSH2 0x6E6 DUP5 DUP14 DUP12 PUSH2 0xEDC JUMP JUMPDEST PUSH2 0xF02 JUMP JUMPDEST AND DUP10 MSTORE PUSH2 0x70D PUSH1 0x20 SWAP2 PUSH1 0x4 DUP4 MSTORE PUSH1 0x40 DUP12 KECCAK256 SWAP1 PUSH1 0xFF DUP1 NOT DUP4 SLOAD AND SWAP2 ISZERO ISZERO AND OR SWAP1 SSTORE JUMP JUMPDEST PUSH32 0xB1288E9F7BAE3599E10819D5553FEBEA48E11A6F8F585B32C8ABAD397DD2627E PUSH2 0x73C PUSH2 0x6E6 DUP5 DUP14 DUP12 PUSH2 0xEDC JUMP JUMPDEST SWAP2 DUP7 PUSH2 0x74C PUSH2 0x6D2 DUP7 DUP10 DUP13 PUSH2 0xEDC JUMP JUMPDEST SWAP4 PUSH1 0x40 MLOAD SWAP5 ISZERO ISZERO DUP6 MSTORE AND SWAP3 LOG2 ADD PUSH2 0x6B7 JUMP JUMPDEST PUSH1 0x40 MLOAD PUSH3 0x461BCD PUSH1 0xE5 SHL DUP2 MSTORE PUSH1 0x20 PUSH1 0x4 DUP3 ADD MSTORE PUSH1 0x15 PUSH1 0x24 DUP3 ADD MSTORE PUSH21 0x82E4E4C2F240D8CADCCEE8D040DAD2E6DAC2E8C6D PUSH1 0x5B SHL PUSH1 0x44 DUP3 ADD MSTORE PUSH1 0x64 SWAP1 REVERT JUMPDEST DUP3 DUP1 REVERT JUMPDEST POP DUP1 REVERT JUMPDEST POP CALLVALUE PUSH2 0x16C JUMPI DUP1 PUSH1 0x3 NOT CALLDATASIZE ADD SLT PUSH2 0x16C JUMPI PUSH1 0x1 SLOAD PUSH1 0x40 MLOAD PUSH1 0x1 PUSH1 0x1 PUSH1 0xA0 SHL SUB SWAP1 SWAP2 AND DUP2 MSTORE PUSH1 0x20 SWAP1 RETURN JUMPDEST POP CALLVALUE PUSH2 0x16C JUMPI PUSH1 0x40 CALLDATASIZE PUSH1 0x3 NOT ADD SLT PUSH2 0x16C JUMPI PUSH2 0x7E6 PUSH2 0xD64 JUMP JUMPDEST PUSH1 0x24 CALLDATALOAD PUSH1 0x1 DUP1 PUSH1 0xA0 SHL SUB DUP1 SWAP3 PUSH2 0x801 DUP3 PUSH1 0x1 SLOAD AND CALLER EQ PUSH2 0xFAA JUMP JUMPDEST PUSH2 0x80F PUSH1 0xFF PUSH1 0x5 SLOAD AND PUSH2 0xD8E JUMP JUMPDEST AND SWAP2 DUP3 ISZERO PUSH2 0x8A2 JUMPI DUP4 SWAP1 PUSH1 0x3 SLOAD AND DUP1 EXTCODESIZE ISZERO PUSH2 0x79F JUMPI DUP2 DUP1 SWAP2 PUSH1 0x44 PUSH1 0x40 MLOAD DUP1 SWAP5 DUP2 SWAP4 PUSH4 0x40B850F PUSH1 0xE3 SHL DUP4 MSTORE DUP10 PUSH1 0x4 DUP5 ADD MSTORE DUP9 PUSH1 0x24 DUP5 ADD MSTORE GAS CALL DUP1 ISZERO PUSH2 0x897 JUMPI PUSH2 0x883 JUMPI JUMPDEST POP POP PUSH1 0x20 PUSH32 0xCAE8414AEB02C2A7A7089C22ED61DEF4882BF260298B39FF6BA047EF80A2F379 SWAP2 PUSH1 0x40 MLOAD SWAP1 DUP2 MSTORE LOG2 DUP1 RETURN JUMPDEST PUSH2 0x88C SWAP1 PUSH2 0xDCC JUMP JUMPDEST PUSH2 0x79B JUMPI DUP3 CODESIZE PUSH2 0x853 JUMP JUMPDEST PUSH1 0x40 MLOAD RETURNDATASIZE DUP5 DUP3 RETURNDATACOPY RETURNDATASIZE SWAP1 REVERT JUMPDEST PUSH1 0x40 MLOAD PUSH3 0x461BCD PUSH1 0xE5 SHL DUP2 MSTORE PUSH1 0x20 PUSH1 0x4 DUP3 ADD MSTORE PUSH1 0x11 PUSH1 0x24 DUP3 ADD MSTORE PUSH17 0x125B9D985B1A59081C9958DA5C1A595B9D PUSH1 0x7A SHL PUSH1 0x44 DUP3 ADD MSTORE PUSH1 0x64 SWAP1 REVERT JUMPDEST POP DUP1 PUSH1 0x3 NOT CALLDATASIZE ADD SLT PUSH2 0x16C JUMPI PUSH2 0x8F5 PUSH1 0xFF PUSH1 0x5 SLOAD AND PUSH2 0xD8E JUMP JUMPDEST PUSH1 0x3 SLOAD PUSH1 0x1 PUSH1 0x1 PUSH1 0xA0 SHL SUB SWAP1 DUP2 AND DUP3 DUP2 EXTCODESIZE ISZERO PUSH2 0x16C JUMPI PUSH1 0x40 MLOAD PUSH4 0xB760FAF9 PUSH1 0xE0 SHL DUP2 MSTORE ADDRESS PUSH1 0x4 DUP3 ADD MSTORE SWAP2 DUP3 SWAP1 PUSH1 0x24 SWAP1 DUP3 SWAP1 CALLVALUE SWAP1 GAS CALL DUP1 ISZERO PUSH2 0x9E4 JUMPI PUSH2 0x9CD JUMPI JUMPDEST POP PUSH1 0x20 PUSH1 0x24 SWAP2 PUSH1 0x3 SLOAD AND PUSH1 0x40 MLOAD SWAP3 DUP4 DUP1 SWAP3 PUSH4 0x70A08231 PUSH1 0xE0 SHL DUP3 MSTORE ADDRESS PUSH1 0x4 DUP4 ADD MSTORE GAS STATICCALL SWAP1 DUP2 ISZERO PUSH2 0x897 JUMPI DUP3 SWAP2 PUSH2 0x99A JUMPI JUMPDEST POP PUSH1 0x40 PUSH32 0x4936E4683983DC3B8AFB17C6844AF8A193B8BDC330595D260421C7E84EBF683E SWAP2 DUP2 MLOAD SWAP1 CALLVALUE DUP3 MSTORE PUSH1 0x20 DUP3 ADD MSTORE LOG1 DUP1 RETURN JUMPDEST SWAP1 POP PUSH1 0x20 DUP2 RETURNDATASIZE PUSH1 0x20 GT PUSH2 0x9C5 JUMPI JUMPDEST DUP2 PUSH2 0x9B5 PUSH1 0x20 SWAP4 DUP4 PUSH2 0xDF5 JUMP JUMPDEST DUP2 ADD SUB SLT PUSH2 0x21E JUMPI MLOAD PUSH1 0x40 PUSH2 0x966 JUMP JUMPDEST RETURNDATASIZE SWAP2 POP PUSH2 0x9A8 JUMP JUMPDEST PUSH1 0x24 SWAP2 SWAP3 PUSH2 0x9DC PUSH1 0x20 SWAP3 PUSH2 0xDCC JUMP JUMPDEST SWAP3 SWAP2 POP PUSH2 0x935 JUMP JUMPDEST PUSH1 0x40 MLOAD RETURNDATASIZE DUP6 DUP3 RETURNDATACOPY RETURNDATASIZE SWAP1 REVERT JUMPDEST POP CALLVALUE PUSH2 0x16C JUMPI PUSH1 0x60 CALLDATASIZE PUSH1 0x3 NOT ADD SLT PUSH2 0x16C JUMPI PUSH1 0x1 PUSH1 0x1 PUSH1 0x40 SHL SUB PUSH1 0x4 CALLDATALOAD DUP2 DUP2 GT PUSH2 0x79B JUMPI PUSH2 0xA21 SWAP1 CALLDATASIZE SWAP1 PUSH1 0x4 ADD PUSH2 0xD34 JUMP JUMPDEST SWAP2 SWAP1 PUSH1 0x24 CALLDATALOAD DUP3 DUP2 GT PUSH2 0x586 JUMPI PUSH2 0xA3B SWAP1 CALLDATASIZE SWAP1 PUSH1 0x4 ADD PUSH2 0xD34 JUMP JUMPDEST SWAP3 PUSH1 0x44 CALLDATALOAD SWAP1 DUP2 GT PUSH2 0xBFA JUMPI PUSH2 0xA54 SWAP1 CALLDATASIZE SWAP1 PUSH1 0x4 ADD PUSH2 0xD34 JUMP JUMPDEST SWAP1 PUSH2 0xA5D PUSH2 0x137A JUMP JUMPDEST PUSH2 0xA6B PUSH1 0xFF PUSH1 0x5 SLOAD AND PUSH2 0xD8E JUMP JUMPDEST PUSH1 0x1 SLOAD PUSH1 0x1 PUSH1 0x1 PUSH1 0xA0 SHL SUB AND CALLER EQ DUP1 ISZERO PUSH2 0xBE6 JUMPI JUMPDEST PUSH2 0xA89 SWAP1 PUSH2 0xE61 JUMP JUMPDEST DUP5 DUP7 EQ DUP1 PUSH2 0xBDD JUMPI JUMPDEST PUSH2 0xAA1 SWAP1 SWAP6 SWAP5 SWAP4 SWAP3 SWAP2 SWAP6 PUSH2 0xE9E JUMP JUMPDEST DUP7 SWAP5 DUP8 SWAP5 JUMPDEST DUP8 DUP7 LT PUSH2 0xAE8 JUMPI DUP9 DUP9 DUP9 PUSH1 0x40 MLOAD SWAP2 DUP3 MSTORE PUSH1 0x20 DUP3 ADD MSTORE PUSH32 0x36551AD729F069397FD12C263EBA2BDBDB0E999953DF151620E1EC9EDD8F2AAF PUSH1 0x40 CALLER SWAP3 LOG2 PUSH1 0x1 DUP2 SSTORE DUP1 RETURN JUMPDEST SWAP1 SWAP2 SWAP3 SWAP4 SWAP5 SWAP6 PUSH2 0xB31 SWAP1 PUSH1 0x1 DUP1 PUSH1 0xA0 SHL SUB PUSH2 0xB07 PUSH2 0x6E6 DUP11 DUP13 DUP12 PUSH2 0xEDC JUMP JUMPDEST AND DUP11 MSTORE PUSH1 0x4 PUSH1 0x20 MSTORE PUSH2 0xB1F PUSH1 0xFF PUSH1 0x40 DUP13 KECCAK256 SLOAD AND PUSH2 0xF16 JUMP JUMPDEST PUSH2 0xB2A DUP9 DUP5 DUP9 PUSH2 0xEDC JUMP JUMPDEST CALLDATALOAD SWAP1 PUSH2 0xF55 JUMP JUMPDEST SWAP6 PUSH2 0xB40 PUSH2 0x6E6 DUP3 DUP11 DUP10 PUSH2 0xEDC JUMP JUMPDEST PUSH2 0xB4B DUP3 DUP5 DUP9 PUSH2 0xEDC JUMP JUMPDEST CALLDATALOAD DUP6 DUP4 LT ISZERO PUSH2 0xBC9 JUMPI DUP11 SWAP2 DUP3 SWAP2 PUSH2 0xB67 DUP6 PUSH1 0x5 SHL DUP9 ADD DUP9 PUSH2 0xF78 JUMP JUMPDEST SWAP2 SWAP1 DUP3 PUSH1 0x40 MLOAD SWAP4 DUP5 SWAP3 DUP4 CALLDATACOPY DUP2 ADD DUP6 DUP2 MSTORE SUB SWAP3 GAS CALL PUSH2 0xB83 PUSH2 0xE31 JUMP JUMPDEST POP ISZERO PUSH2 0xB96 JUMPI PUSH1 0x1 ADD SWAP5 SWAP4 SWAP3 SWAP2 SWAP1 PUSH2 0xAA6 JUMP JUMPDEST PUSH1 0x40 MLOAD PUSH3 0x461BCD PUSH1 0xE5 SHL DUP2 MSTORE PUSH1 0x20 PUSH1 0x4 DUP3 ADD MSTORE PUSH1 0xB PUSH1 0x24 DUP3 ADD MSTORE PUSH11 0x10D85B1B0819985A5B1959 PUSH1 0xAA SHL PUSH1 0x44 DUP3 ADD MSTORE PUSH1 0x64 SWAP1 REVERT JUMPDEST PUSH4 0x4E487B71 PUSH1 0xE0 SHL DUP12 MSTORE PUSH1 0x32 PUSH1 0x4 MSTORE PUSH1 0x24 DUP12 REVERT JUMPDEST POP DUP5 DUP3 EQ PUSH2 0xA92 JUMP JUMPDEST POP PUSH1 0x3 SLOAD PUSH1 0x1 PUSH1 0x1 PUSH1 0xA0 SHL SUB AND CALLER EQ PUSH2 0xA80 JUMP JUMPDEST DUP6 DUP1 REVERT JUMPDEST DUP3 CALLVALUE PUSH2 0x16C JUMPI PUSH1 0x3 NOT PUSH1 0x60 CALLDATASIZE DUP3 ADD SLT PUSH2 0x79F JUMPI PUSH1 0x4 CALLDATALOAD SWAP1 PUSH1 0x1 PUSH1 0x1 PUSH1 0x40 SHL SUB DUP3 GT PUSH2 0x79B JUMPI PUSH2 0x120 SWAP1 DUP3 CALLDATASIZE SUB ADD SLT PUSH2 0x79F JUMPI PUSH1 0x3 SLOAD PUSH1 0x24 CALLDATALOAD SWAP4 PUSH1 0x44 CALLDATALOAD SWAP3 PUSH1 0x1 PUSH1 0x1 PUSH1 0xA0 SHL SUB SWAP3 SWAP1 SWAP2 SWAP1 DUP4 AND CALLER SUB PUSH2 0xD00 JUMPI POP DUP5 PUSH2 0xC6B SWAP2 PUSH2 0xC63 PUSH1 0xFF PUSH1 0x5 SLOAD AND PUSH2 0xD8E JUMP JUMPDEST PUSH1 0x4 ADD PUSH2 0x1098 JUMP JUMPDEST SWAP6 SWAP2 SWAP3 SWAP1 SWAP4 DUP1 PUSH2 0xCAE JUMPI JUMPDEST POP PUSH1 0x20 PUSH32 0x3BEBA097C09C235465DF7C6857B74B6435FFB77E2CB08A8F714156C35DA60373 SWAP2 DUP2 SWAP8 PUSH1 0x40 MLOAD SWAP6 DUP7 MSTORE AND SWAP4 LOG4 PUSH1 0x40 MLOAD SWAP1 DUP2 MSTORE RETURN JUMPDEST DUP6 DUP1 DUP1 DUP1 SWAP4 CALLER GAS CALL PUSH2 0xCBE PUSH2 0xE31 JUMP JUMPDEST POP ISZERO PUSH2 0xCCA JUMPI DUP7 PUSH2 0xC76 JUMP JUMPDEST PUSH1 0x40 MLOAD PUSH3 0x461BCD PUSH1 0xE5 SHL DUP2 MSTORE PUSH1 0x20 PUSH1 0x4 DUP3 ADD MSTORE PUSH1 0xE PUSH1 0x24 DUP3 ADD MSTORE PUSH14 0x119D5B991A5B99C819985A5B1959 PUSH1 0x92 SHL PUSH1 0x44 DUP3 ADD MSTORE PUSH1 0x64 SWAP1 REVERT JUMPDEST PUSH3 0x461BCD PUSH1 0xE5 SHL DUP2 MSTORE PUSH1 0x20 PUSH1 0x4 DUP3 ADD MSTORE PUSH1 0xF PUSH1 0x24 DUP3 ADD MSTORE PUSH15 0x139BDD08195B9D1C9E481C1BDA5B9D PUSH1 0x8A SHL PUSH1 0x44 DUP3 ADD MSTORE PUSH1 0x64 SWAP1 REVERT JUMPDEST SWAP2 DUP2 PUSH1 0x1F DUP5 ADD SLT ISZERO PUSH2 0x21E JUMPI DUP3 CALLDATALOAD SWAP2 PUSH1 0x1 PUSH1 0x1 PUSH1 0x40 SHL SUB DUP4 GT PUSH2 0x21E JUMPI PUSH1 0x20 DUP1 DUP6 ADD SWAP5 DUP5 PUSH1 0x5 SHL ADD ADD GT PUSH2 0x21E JUMPI JUMP JUMPDEST PUSH1 0x4 CALLDATALOAD SWAP1 PUSH1 0x1 PUSH1 0x1 PUSH1 0xA0 SHL SUB DUP3 AND DUP3 SUB PUSH2 0x21E JUMPI JUMP JUMPDEST CALLDATALOAD SWAP1 PUSH1 0x1 PUSH1 0x1 PUSH1 0xA0 SHL SUB DUP3 AND DUP3 SUB PUSH2 0x21E JUMPI JUMP JUMPDEST ISZERO PUSH2 0xD95 JUMPI JUMP JUMPDEST PUSH1 0x40 MLOAD PUSH3 0x461BCD PUSH1 0xE5 SHL DUP2 MSTORE PUSH1 0x20 PUSH1 0x4 DUP3 ADD MSTORE PUSH1 0xF PUSH1 0x24 DUP3 ADD MSTORE PUSH15 0x139BDD081A5B9A5D1A585B1A5E9959 PUSH1 0x8A SHL PUSH1 0x44 DUP3 ADD MSTORE PUSH1 0x64 SWAP1 REVERT JUMPDEST PUSH1 0x1 PUSH1 0x1 PUSH1 0x40 SHL SUB DUP2 GT PUSH2 0xDDF JUMPI PUSH1 0x40 MSTORE JUMP JUMPDEST PUSH4 0x4E487B71 PUSH1 0xE0 SHL PUSH1 0x0 MSTORE PUSH1 0x41 PUSH1 0x4 MSTORE PUSH1 0x24 PUSH1 0x0 REVERT JUMPDEST SWAP1 PUSH1 0x1F DUP1 NOT SWAP2 ADD AND DUP2 ADD SWAP1 DUP2 LT PUSH1 0x1 PUSH1 0x1 PUSH1 0x40 SHL SUB DUP3 GT OR PUSH2 0xDDF JUMPI PUSH1 0x40 MSTORE JUMP JUMPDEST PUSH1 0x1 PUSH1 0x1 PUSH1 0x40 SHL SUB DUP2 GT PUSH2 0xDDF JUMPI PUSH1 0x1F ADD PUSH1 0x1F NOT AND PUSH1 0x20 ADD SWAP1 JUMP JUMPDEST RETURNDATASIZE ISZERO PUSH2 0xE5C JUMPI RETURNDATASIZE SWAP1 PUSH2 0xE42 DUP3 PUSH2 0xE16 JUMP JUMPDEST SWAP2 PUSH2 0xE50 PUSH1 0x40 MLOAD SWAP4 DUP5 PUSH2 0xDF5 JUMP JUMPDEST DUP3 MSTORE RETURNDATASIZE PUSH1 0x0 PUSH1 0x20 DUP5 ADD RETURNDATACOPY JUMP JUMPDEST PUSH1 0x60 SWAP1 JUMP JUMPDEST ISZERO PUSH2 0xE68 JUMPI JUMP JUMPDEST PUSH1 0x40 MLOAD PUSH3 0x461BCD PUSH1 0xE5 SHL DUP2 MSTORE PUSH1 0x20 PUSH1 0x4 DUP3 ADD MSTORE PUSH1 0xE PUSH1 0x24 DUP3 ADD MSTORE PUSH14 0x139BDD08185D5D1A1BDC9A5E9959 PUSH1 0x92 SHL PUSH1 0x44 DUP3 ADD MSTORE PUSH1 0x64 SWAP1 REVERT JUMPDEST ISZERO PUSH2 0xEA5 JUMPI JUMP JUMPDEST PUSH1 0x40 MLOAD PUSH3 0x461BCD PUSH1 0xE5 SHL DUP2 MSTORE PUSH1 0x20 PUSH1 0x4 DUP3 ADD MSTORE PUSH1 0xF PUSH1 0x24 DUP3 ADD MSTORE PUSH15 0x98CADCCEE8D040DAD2E6DAC2E8C6D PUSH1 0x8B SHL PUSH1 0x44 DUP3 ADD MSTORE PUSH1 0x64 SWAP1 REVERT JUMPDEST SWAP2 SWAP1 DUP2 LT ISZERO PUSH2 0xEEC JUMPI PUSH1 0x5 SHL ADD SWAP1 JUMP JUMPDEST PUSH4 0x4E487B71 PUSH1 0xE0 SHL PUSH1 0x0 MSTORE PUSH1 0x32 PUSH1 0x4 MSTORE PUSH1 0x24 PUSH1 0x0 REVERT JUMPDEST CALLDATALOAD PUSH1 0x1 PUSH1 0x1 PUSH1 0xA0 SHL SUB DUP2 AND DUP2 SUB PUSH2 0x21E JUMPI SWAP1 JUMP JUMPDEST ISZERO PUSH2 0xF1D JUMPI JUMP JUMPDEST PUSH1 0x40 MLOAD PUSH3 0x461BCD PUSH1 0xE5 SHL DUP2 MSTORE PUSH1 0x20 PUSH1 0x4 DUP3 ADD MSTORE PUSH1 0x10 PUSH1 0x24 DUP3 ADD MSTORE PUSH16 0x139BDD081DDA1A5D19481B1A5CDD1959 PUSH1 0x82 SHL PUSH1 0x44 DUP3 ADD MSTORE PUSH1 0x64 SWAP1 REVERT JUMPDEST SWAP2 SWAP1 DUP3 ADD DUP1 SWAP3 GT PUSH2 0xF62 JUMPI JUMP JUMPDEST PUSH4 0x4E487B71 PUSH1 0xE0 SHL PUSH1 0x0 MSTORE PUSH1 0x11 PUSH1 0x4 MSTORE PUSH1 0x24 PUSH1 0x0 REVERT JUMPDEST SWAP1 CALLDATALOAD SWAP1 PUSH1 0x1E NOT DUP2 CALLDATASIZE SUB ADD DUP3 SLT ISZERO PUSH2 0x21E JUMPI ADD DUP1 CALLDATALOAD SWAP1 PUSH1 0x1 PUSH1 0x1 PUSH1 0x40 SHL SUB DUP3 GT PUSH2 0x21E JUMPI PUSH1 0x20 ADD SWAP2 DUP2 CALLDATASIZE SUB DUP4 SGT PUSH2 0x21E JUMPI JUMP JUMPDEST ISZERO PUSH2 0xFB1 JUMPI JUMP JUMPDEST PUSH1 0x40 MLOAD PUSH3 0x461BCD PUSH1 0xE5 SHL DUP2 MSTORE PUSH1 0x20 PUSH1 0x4 DUP3 ADD MSTORE PUSH1 0x9 PUSH1 0x24 DUP3 ADD MSTORE PUSH9 0x2737BA1037BBB732B9 PUSH1 0xB9 SHL PUSH1 0x44 DUP3 ADD MSTORE PUSH1 0x64 SWAP1 REVERT JUMPDEST CALLDATALOAD DUP1 ISZERO ISZERO DUP2 SUB PUSH2 0x21E JUMPI SWAP1 JUMP JUMPDEST ISZERO PUSH2 0xFF6 JUMPI JUMP JUMPDEST PUSH1 0x40 MLOAD PUSH3 0x461BCD PUSH1 0xE5 SHL DUP2 MSTORE PUSH1 0x20 PUSH1 0x4 DUP3 ADD MSTORE PUSH1 0xD PUSH1 0x24 DUP3 ADD MSTORE PUSH13 0x24B73B30B634B21037BBB732B9 PUSH1 0x99 SHL PUSH1 0x44 DUP3 ADD MSTORE PUSH1 0x64 SWAP1 REVERT JUMPDEST SWAP3 SWAP2 SWAP3 PUSH2 0x1037 DUP3 PUSH2 0xE16 JUMP JUMPDEST SWAP2 PUSH2 0x1045 PUSH1 0x40 MLOAD SWAP4 DUP5 PUSH2 0xDF5 JUMP JUMPDEST DUP3 SWAP5 DUP2 DUP5 MSTORE DUP2 DUP4 ADD GT PUSH2 0x21E JUMPI DUP3 DUP2 PUSH1 0x20 SWAP4 DUP5 PUSH1 0x0 SWAP7 ADD CALLDATACOPY ADD ADD MSTORE JUMP JUMPDEST SWAP1 DUP1 PUSH1 0x1F DUP4 ADD SLT ISZERO PUSH2 0x21E JUMPI DUP2 PUSH1 0x20 PUSH2 0x107D SWAP4 CALLDATALOAD SWAP2 ADD PUSH2 0x102B JUMP JUMPDEST SWAP1 JUMP JUMPDEST SWAP1 DUP2 PUSH1 0x20 SWAP2 SUB SLT PUSH2 0x21E JUMPI MLOAD DUP1 ISZERO ISZERO DUP2 SUB PUSH2 0x21E JUMPI SWAP1 JUMP JUMPDEST SWAP1 PUSH2 0x10AF PUSH2 0x10A9 PUSH1 0x60 DUP5 ADD DUP5 PUSH2 0xF78 JUMP JUMPDEST SWAP1 PUSH2 0x1433 JUMP JUMPDEST SWAP3 PUSH1 0x0 SWAP2 PUSH32 0x19457468657265756D205369676E6564204D6573736167653A0A333200000000 DUP4 MSTORE PUSH1 0x1C MSTORE PUSH1 0x3C DUP3 KECCAK256 SWAP3 PUSH2 0x100 DUP2 ADD SWAP1 PUSH1 0x41 PUSH2 0x10F0 DUP4 DUP4 PUSH2 0xF78 JUMP JUMPDEST SWAP1 POP EQ PUSH2 0x12ED JUMPI SWAP1 PUSH2 0x1101 SWAP2 PUSH2 0xF78 JUMP JUMPDEST DUP2 ADD SWAP3 PUSH1 0x40 SWAP1 DUP2 DUP4 DUP7 SUB SLT PUSH2 0x16C JUMPI DUP3 CALLDATALOAD SWAP5 PUSH1 0x20 SWAP4 DUP5 DUP2 ADD CALLDATALOAD SWAP1 PUSH1 0x1 PUSH1 0x1 PUSH1 0x40 SHL SUB DUP3 GT PUSH2 0x168 JUMPI PUSH2 0x114B SWAP4 SWAP3 PUSH2 0x1143 SWAP3 PUSH2 0x113C SWAP3 ADD PUSH2 0x1062 JUMP JUMPDEST DUP8 SWAP9 PUSH2 0x1733 JUMP JUMPDEST SWAP3 SWAP1 SWAP3 PUSH2 0x176B JUMP JUMPDEST PUSH1 0x2 SLOAD DUP4 MLOAD PUSH4 0xF545B88B PUSH1 0xE0 SHL DUP2 MSTORE PUSH1 0x4 DUP2 ADD DUP9 SWAP1 MSTORE PUSH1 0x1 PUSH1 0x1 PUSH1 0xA0 SHL SUB DUP5 DUP2 AND PUSH1 0x24 DUP4 ADD MSTORE PUSH1 0x44 DUP3 ADD DUP12 SWAP1 MSTORE SWAP4 SWAP8 DUP7 SWAP3 DUP12 SWAP3 DUP11 SWAP2 DUP6 SWAP1 DUP3 SWAP1 PUSH1 0x64 SWAP1 DUP3 SWAP1 DUP11 SWAP1 DUP13 AND GAS CALL DUP7 SWAP2 DUP2 PUSH2 0x12CE JUMPI JUMPDEST POP PUSH2 0x126D JUMPI POP PUSH1 0x2 SLOAD DUP8 MLOAD PUSH4 0x370D79F5 PUSH1 0xE2 SHL DUP2 MSTORE PUSH1 0x4 DUP2 ADD SWAP4 SWAP1 SWAP4 MSTORE PUSH1 0x1 PUSH1 0x1 PUSH1 0xA0 SHL SUB SWAP2 SWAP1 SWAP2 AND PUSH1 0x24 DUP4 ADD MSTORE PUSH1 0x44 DUP3 ADD SWAP3 SWAP1 SWAP3 MSTORE SWAP3 SWAP4 DUP4 SWAP2 PUSH1 0x64 SWAP2 DUP4 SWAP2 DUP8 SWAP2 AND GAS CALL SWAP2 DUP3 ISZERO PUSH2 0x1262 JUMPI SWAP2 PUSH2 0x1235 JUMPI JUMPDEST POP ISZERO PUSH2 0x11F2 JUMPI POP POP JUMP JUMPDEST PUSH1 0x64 SWAP3 POP MLOAD SWAP1 PUSH3 0x461BCD PUSH1 0xE5 SHL DUP3 MSTORE PUSH1 0x4 DUP3 ADD MSTORE PUSH1 0x19 PUSH1 0x24 DUP3 ADD MSTORE PUSH32 0x53657373696F6E2076616C69646174696F6E206661696C656400000000000000 PUSH1 0x44 DUP3 ADD MSTORE REVERT JUMPDEST PUSH2 0x1255 SWAP2 POP DUP4 RETURNDATASIZE DUP6 GT PUSH2 0x125B JUMPI JUMPDEST PUSH2 0x124D DUP2 DUP4 PUSH2 0xDF5 JUMP JUMPDEST DUP2 ADD SWAP1 PUSH2 0x1080 JUMP JUMPDEST CODESIZE PUSH2 0x11E8 JUMP JUMPDEST POP RETURNDATASIZE PUSH2 0x1243 JUMP JUMPDEST DUP4 MLOAD SWAP1 RETURNDATASIZE SWAP1 DUP3 RETURNDATACOPY RETURNDATASIZE SWAP1 REVERT JUMPDEST SWAP6 POP POP POP POP POP POP ISZERO PUSH2 0x127D JUMPI POP POP JUMP JUMPDEST PUSH1 0x84 SWAP3 POP MLOAD SWAP1 PUSH3 0x461BCD PUSH1 0xE5 SHL DUP3 MSTORE PUSH1 0x4 DUP3 ADD MSTORE PUSH1 0x25 PUSH1 0x24 DUP3 ADD MSTORE PUSH32 0x4C696768747765696768742073657373696F6E2076616C69646174696F6E2066 PUSH1 0x44 DUP3 ADD MSTORE PUSH5 0x185A5B1959 PUSH1 0xDA SHL PUSH1 0x64 DUP3 ADD MSTORE REVERT JUMPDEST PUSH2 0x12E6 SWAP2 SWAP3 POP DUP7 RETURNDATASIZE DUP9 GT PUSH2 0x125B JUMPI PUSH2 0x124D DUP2 DUP4 PUSH2 0xDF5 JUMP JUMPDEST SWAP1 CODESIZE PUSH2 0x1197 JUMP JUMPDEST SWAP4 PUSH2 0x130C PUSH2 0x1305 PUSH2 0x1312 SWAP4 PUSH2 0x131A SWAP8 SWAP9 SWAP6 SWAP7 SWAP9 PUSH2 0xF78 JUMP JUMPDEST CALLDATASIZE SWAP2 PUSH2 0x102B JUMP JUMPDEST SWAP1 PUSH2 0x1733 JUMP JUMPDEST SWAP4 SWAP1 SWAP4 PUSH2 0x176B JUMP JUMPDEST PUSH1 0x1 SLOAD PUSH1 0x1 PUSH1 0x1 PUSH1 0xA0 SHL SUB SWAP1 DUP2 AND SWAP1 DUP5 AND SUB PUSH2 0x1335 JUMPI SWAP3 SWAP2 SWAP1 JUMP JUMPDEST PUSH1 0x40 MLOAD PUSH3 0x461BCD PUSH1 0xE5 SHL DUP2 MSTORE PUSH1 0x20 PUSH1 0x4 DUP3 ADD MSTORE PUSH1 0x17 PUSH1 0x24 DUP3 ADD MSTORE PUSH32 0x496E76616C6964206F776E6572207369676E6174757265000000000000000000 PUSH1 0x44 DUP3 ADD MSTORE PUSH1 0x64 SWAP1 REVERT JUMPDEST PUSH1 0x2 PUSH1 0x0 SLOAD EQ PUSH2 0x138B JUMPI PUSH1 0x2 PUSH1 0x0 SSTORE JUMP JUMPDEST PUSH1 0x40 MLOAD PUSH3 0x461BCD PUSH1 0xE5 SHL DUP2 MSTORE PUSH1 0x20 PUSH1 0x4 DUP3 ADD MSTORE PUSH1 0x1F PUSH1 0x24 DUP3 ADD MSTORE PUSH32 0x5265656E7472616E637947756172643A207265656E7472616E742063616C6C00 PUSH1 0x44 DUP3 ADD MSTORE PUSH1 0x64 SWAP1 REVERT JUMPDEST SWAP2 PUSH1 0x60 DUP4 DUP4 SUB SLT PUSH2 0x21E JUMPI PUSH2 0x13E4 DUP4 PUSH2 0xD7A JUMP JUMPDEST SWAP3 PUSH1 0x20 DUP2 ADD CALLDATALOAD SWAP3 PUSH1 0x40 DUP3 ADD CALLDATALOAD PUSH1 0x1 PUSH1 0x1 PUSH1 0x40 SHL SUB DUP2 GT PUSH2 0x21E JUMPI PUSH2 0x107D SWAP3 ADD PUSH2 0x1062 JUMP JUMPDEST PUSH1 0x1 PUSH1 0x1 PUSH1 0x40 SHL SUB DUP2 GT PUSH2 0xDDF JUMPI PUSH1 0x5 SHL PUSH1 0x20 ADD SWAP1 JUMP JUMPDEST DUP1 MLOAD DUP3 LT ISZERO PUSH2 0xEEC JUMPI PUSH1 0x20 SWAP2 PUSH1 0x5 SHL ADD ADD SWAP1 JUMP JUMPDEST PUSH1 0x0 SWAP1 PUSH1 0x0 PUSH1 0x4 SWAP4 DUP5 DUP2 LT PUSH2 0x16FC JUMPI DUP3 CALLDATALOAD PUSH1 0x1 PUSH1 0x1 PUSH1 0xE0 SHL SUB NOT AND PUSH4 0x5B0E93FB PUSH1 0xE1 SHL DUP2 EQ PUSH2 0x16B2 JUMPI PUSH4 0x23F0ED15 PUSH1 0xE1 SHL EQ PUSH2 0x14A4 JUMPI PUSH1 0x40 MLOAD PUSH3 0x461BCD PUSH1 0xE5 SHL DUP2 MSTORE PUSH1 0x20 DUP2 DUP8 ADD MSTORE PUSH1 0x14 PUSH1 0x24 DUP3 ADD MSTORE PUSH20 0x556E737570706F727465642063616C6C44617461 PUSH1 0x60 SHL PUSH1 0x44 DUP3 ADD MSTORE PUSH1 0x64 SWAP1 REVERT JUMPDEST DUP1 DUP6 SWAP4 SWAP5 SWAP6 GT PUSH2 0x79F JUMPI DUP4 ADD SWAP2 PUSH1 0x60 DUP5 DUP5 SUB PUSH1 0x3 NOT ADD SLT PUSH2 0x79F JUMPI PUSH1 0x1 PUSH1 0x1 PUSH1 0x40 SHL SUB DUP5 DUP3 ADD CALLDATALOAD DUP2 DUP2 GT PUSH2 0x168 JUMPI DUP6 ADD SWAP4 DUP1 PUSH1 0x23 DUP7 ADD SLT ISZERO PUSH2 0x168 JUMPI DUP3 DUP6 ADD CALLDATALOAD SWAP2 PUSH1 0x24 SWAP1 PUSH2 0x14F1 DUP5 PUSH2 0x1408 JUMP JUMPDEST SWAP3 PUSH1 0x40 SWAP8 PUSH2 0x1502 PUSH1 0x40 MLOAD SWAP6 DUP7 PUSH2 0xDF5 JUMP JUMPDEST DUP6 DUP6 MSTORE PUSH1 0x20 SWAP6 DUP5 DUP8 DUP8 ADD SWAP2 PUSH1 0x5 SHL DUP4 ADD ADD SWAP2 DUP4 DUP4 GT PUSH2 0x167A JUMPI DUP6 DUP9 SWAP2 ADD SWAP2 JUMPDEST DUP4 DUP4 LT PUSH2 0x169A JUMPI POP POP POP POP DUP3 DUP10 ADD CALLDATALOAD DUP3 DUP2 GT PUSH2 0x167E JUMPI DUP10 ADD SWAP9 DUP2 PUSH1 0x23 DUP12 ADD SLT ISZERO PUSH2 0x167E JUMPI DUP7 DUP11 ADD CALLDATALOAD SWAP10 PUSH2 0x1553 DUP12 PUSH2 0x1408 JUMP JUMPDEST SWAP11 PUSH2 0x1561 PUSH1 0x40 MLOAD SWAP13 DUP14 PUSH2 0xDF5 JUMP JUMPDEST DUP1 DUP13 MSTORE DUP6 DUP9 DUP14 ADD SWAP2 PUSH1 0x5 SHL DUP4 ADD ADD SWAP2 DUP5 DUP4 GT PUSH2 0x1696 JUMPI DUP7 DUP10 SWAP2 ADD SWAP2 JUMPDEST DUP4 DUP4 LT PUSH2 0x1686 JUMPI POP POP POP POP PUSH1 0x44 DUP2 ADD CALLDATALOAD SWAP1 DUP4 DUP3 GT PUSH2 0x1682 JUMPI ADD SWAP3 DUP2 PUSH1 0x23 DUP6 ADD SLT ISZERO PUSH2 0x167E JUMPI DUP7 DUP5 ADD CALLDATALOAD SWAP3 DUP2 DUP8 PUSH2 0x15B2 DUP7 PUSH2 0x1408 JUMP JUMPDEST PUSH2 0x15BF PUSH1 0x40 MLOAD SWAP2 DUP3 PUSH2 0xDF5 JUMP JUMPDEST DUP7 DUP2 MSTORE ADD SWAP5 PUSH1 0x5 SHL DUP7 ADD ADD SWAP5 DUP4 DUP7 GT PUSH2 0x167A JUMPI DUP3 DUP2 ADD SWAP5 JUMPDEST DUP7 DUP7 LT PUSH2 0x1651 JUMPI POP POP POP POP POP POP POP PUSH2 0x15F2 DUP2 MLOAD DUP8 MLOAD EQ PUSH2 0xE9E JUMP JUMPDEST DUP4 SWAP7 JUMPDEST DUP2 MLOAD DUP9 LT ISZERO PUSH2 0x1646 JUMPI PUSH1 0x1 SWAP1 PUSH2 0x163E SWAP1 PUSH1 0x1 PUSH1 0x1 PUSH1 0xA0 SHL SUB PUSH2 0x1617 DUP12 DUP7 PUSH2 0x141F JUMP JUMPDEST MLOAD AND DUP8 MSTORE DUP6 DUP6 MSTORE PUSH2 0x162D PUSH1 0xFF DUP10 DUP10 KECCAK256 SLOAD AND PUSH2 0xF16 JUMP JUMPDEST PUSH2 0x1637 DUP11 DUP11 PUSH2 0x141F JUMP JUMPDEST MLOAD SWAP1 PUSH2 0xF55 JUMP JUMPDEST SWAP8 ADD SWAP7 PUSH2 0x15F5 JUMP JUMPDEST SWAP7 POP POP POP POP POP POP POP SWAP1 JUMP JUMPDEST DUP6 CALLDATALOAD DUP4 DUP2 GT PUSH2 0x1676 JUMPI DUP10 SWAP2 PUSH2 0x166B DUP8 DUP8 DUP6 SWAP5 DUP8 ADD ADD PUSH2 0x1062 JUMP JUMPDEST DUP2 MSTORE ADD SWAP6 ADD SWAP5 PUSH2 0x15D7 JUMP JUMPDEST DUP12 DUP1 REVERT JUMPDEST DUP10 DUP1 REVERT JUMPDEST DUP8 DUP1 REVERT JUMPDEST DUP9 DUP1 REVERT JUMPDEST DUP3 CALLDATALOAD DUP2 MSTORE SWAP2 DUP2 ADD SWAP2 DUP10 SWAP2 ADD PUSH2 0x157D JUMP JUMPDEST DUP11 DUP1 REVERT JUMPDEST DUP2 SWAP1 PUSH2 0x16A5 DUP5 PUSH2 0xD7A JUMP JUMPDEST DUP2 MSTORE ADD SWAP2 ADD SWAP1 DUP8 SWAP1 PUSH2 0x1521 JUMP JUMPDEST POP DUP1 SWAP2 SWAP4 POP DUP5 SWAP3 SWAP5 GT PUSH2 0x79B JUMPI PUSH2 0x107D SWAP3 DUP3 PUSH2 0x16E4 PUSH1 0x40 SWAP4 PUSH1 0xFF SWAP6 DUP9 ADD SWAP8 ADD PUSH2 0x16DB DUP2 DUP10 PUSH2 0x13D0 JUMP JUMPDEST POP SWAP9 SWAP1 POP PUSH2 0x13D0 JUMP JUMPDEST POP POP PUSH1 0x1 PUSH1 0x1 PUSH1 0xA0 SHL SUB AND DUP3 MSTORE PUSH1 0x20 MSTORE KECCAK256 SLOAD AND PUSH2 0xF16 JUMP JUMPDEST PUSH1 0x40 MLOAD PUSH3 0x461BCD PUSH1 0xE5 SHL DUP2 MSTORE PUSH1 0x20 DUP2 DUP8 ADD MSTORE PUSH1 0x10 PUSH1 0x24 DUP3 ADD MSTORE PUSH16 0x496E76616C69642063616C6C44617461 PUSH1 0x80 SHL PUSH1 0x44 DUP3 ADD MSTORE PUSH1 0x64 SWAP1 REVERT JUMPDEST SWAP1 PUSH1 0x41 DUP2 MLOAD EQ PUSH1 0x0 EQ PUSH2 0x1761 JUMPI PUSH2 0x175D SWAP2 PUSH1 0x20 DUP3 ADD MLOAD SWAP1 PUSH1 0x60 PUSH1 0x40 DUP5 ADD MLOAD SWAP4 ADD MLOAD PUSH1 0x0 BYTE SWAP1 PUSH2 0x1885 JUMP JUMPDEST SWAP1 SWAP2 JUMP JUMPDEST POP POP PUSH1 0x0 SWAP1 PUSH1 0x2 SWAP1 JUMP JUMPDEST PUSH1 0x5 DUP2 LT ISZERO PUSH2 0x186F JUMPI DUP1 PUSH2 0x177C JUMPI POP JUMP JUMPDEST PUSH1 0x1 DUP2 SUB PUSH2 0x17C9 JUMPI PUSH1 0x40 MLOAD PUSH3 0x461BCD PUSH1 0xE5 SHL DUP2 MSTORE PUSH1 0x20 PUSH1 0x4 DUP3 ADD MSTORE PUSH1 0x18 PUSH1 0x24 DUP3 ADD MSTORE PUSH32 0x45434453413A20696E76616C6964207369676E61747572650000000000000000 PUSH1 0x44 DUP3 ADD MSTORE PUSH1 0x64 SWAP1 REVERT JUMPDEST PUSH1 0x2 DUP2 SUB PUSH2 0x1816 JUMPI PUSH1 0x40 MLOAD PUSH3 0x461BCD PUSH1 0xE5 SHL DUP2 MSTORE PUSH1 0x20 PUSH1 0x4 DUP3 ADD MSTORE PUSH1 0x1F PUSH1 0x24 DUP3 ADD MSTORE PUSH32 0x45434453413A20696E76616C6964207369676E6174757265206C656E67746800 PUSH1 0x44 DUP3 ADD MSTORE PUSH1 0x64 SWAP1 REVERT JUMPDEST PUSH1 0x3 EQ PUSH2 0x181F JUMPI JUMP JUMPDEST PUSH1 0x40 MLOAD PUSH3 0x461BCD PUSH1 0xE5 SHL DUP2 MSTORE PUSH1 0x20 PUSH1 0x4 DUP3 ADD MSTORE PUSH1 0x22 PUSH1 0x24 DUP3 ADD MSTORE PUSH32 0x45434453413A20696E76616C6964207369676E6174757265202773272076616C PUSH1 0x44 DUP3 ADD MSTORE PUSH2 0x7565 PUSH1 0xF0 SHL PUSH1 0x64 DUP3 ADD MSTORE PUSH1 0x84 SWAP1 REVERT JUMPDEST PUSH4 0x4E487B71 PUSH1 0xE0 SHL PUSH1 0x0 MSTORE PUSH1 0x21 PUSH1 0x4 MSTORE PUSH1 0x24 PUSH1 0x0 REVERT JUMPDEST SWAP3 SWAP2 SWAP1 PUSH32 0x7FFFFFFFFFFFFFFFFFFFFFFFFFFFFFFF5D576E7357A4501DDFE92F46681B20A0 DUP4 GT PUSH2 0x1908 JUMPI SWAP2 PUSH1 0x80 SWAP5 SWAP4 SWAP2 PUSH1 0xFF PUSH1 0x20 SWAP5 PUSH1 0x40 MLOAD SWAP5 DUP6 MSTORE AND DUP5 DUP5 ADD MSTORE PUSH1 0x40 DUP4 ADD MSTORE PUSH1 0x60 DUP3 ADD MSTORE PUSH1 0x0 SWAP4 DUP5 SWAP2 DUP3 DUP1 MSTORE PUSH1 0x1 GAS STATICCALL ISZERO PUSH2 0x18FB JUMPI DUP2 MLOAD PUSH1 0x1 PUSH1 0x1 PUSH1 0xA0 SHL SUB DUP2 AND ISZERO PUSH2 0x18F5 JUMPI SWAP2 SWAP1 JUMP JUMPDEST POP PUSH1 0x1 SWAP1 JUMP JUMPDEST POP PUSH1 0x40 MLOAD SWAP1 RETURNDATASIZE SWAP1 DUP3 RETURNDATACOPY RETURNDATASIZE SWAP1 REVERT JUMPDEST POP POP POP POP PUSH1 0x0 SWAP1 PUSH1 0x3 SWAP1 JUMP INVALID LOG2 PUSH5 0x6970667358 0x22 SLT KECCAK256 0xA9 0x2E 0xE8 0xE0 0x4E DUP6 COINBASE PUSH6 0x3D83BE6ECB96 PUSH25 0x9D893C1857EB6571BA5E3F0F5152271BA064736F6C63430008 XOR STOP CALLER "},"methodIdentifiers":{"addDeposit()":"4a58db19","changeOwner(address)":"a6f9dae1","checkBalance()":"c71daccb","entryPoint()":"b0d691fe","execute(address,uint256,bytes)":"b61d27f6","executeBatch(address[],uint256[],bytes[])":"47e1da2a","getDeposit()":"c399ec88","initialize(address,address,address)":"c0c53b8b","owner()":"8da5cb5b","sessionManager()":"b7b13f79","setWhiteListedParty(address,bool)":"f9c56aa6","setWhiteListedPartyBatch(address[],bool[])":"9f5e3ecc","validateUserOp((address,uint256,bytes,bytes,bytes32,uint256,bytes32,bytes,bytes),bytes32,uint256)":"19822f7c","whiteListedParties(address)":"b8434685","withdrawDepositTo(address,uint256)":"4d44560d"}}}}}