{"src/AgentWalletFactory.sol":{"AgentWalletFactory":{"abi":[{"inputs":[],"stateMutability":"nonpayable","type":"constructor"},{"inputs":[{"internalType":"address","name":"target","type":"address"}],"name":"AddressEmptyCode","type":"error"},{"inputs":[{"internalType":"address","name":"implementation","type":"address"}],"name":"ERC1967InvalidImplementation","type":"error"},{"inputs":[],"name":"ERC1967NonPayable","type":"error"},{"inputs":[],"name":"FailedCall","type":"error"},{"inputs":[],"name":"FailedDeployment","type":"error"},{"inputs":[{"internalType":"uint256","name":"balance","type":"uint256"},{"internalType":"uint256","name":"needed","type":"uint256"}],"name":"InsufficientBalance","type":"error"},{"inputs":[],"name":"InvalidEntryPointError","type":"error"},{"inputs":[],"name":"InvalidImplementationError","type":"error"},{"inputs":[],"name":"InvalidInitialization","type":"error"},{"inputs":[],"name":"InvalidOwnerError","type":"error"},{"inputs":[],"name":"InvalidSessionManagerError","type":"error"},{"inputs":[],"name":"NotInitializing","type":"error"},{"inputs":[{"internalType":"address","name":"owner","type":"address"}],"name":"OwnableInvalidOwner","type":"error"},{"inputs":[{"internalType":"address","name":"account","type":"address"}],"name":"OwnableUnauthorizedAccount","type":"error"},{"inputs":[],"name":"TimelockActiveError","type":"error"},{"inputs":[],"name":"TimelockNotReadyError","type":"error"},{"inputs":[],"name":"UUPSUnauthorizedCallContext","type":"error"},{"inputs":[{"internalType":"bytes32","name":"slot","type":"bytes32"}],"name":"UUPSUnsupportedProxiableUUID","type":"error"},{"inputs":[],"name":"WalletAlreadyExistsWithDifferentOwner","type":"error"},{"anonymous":false,"inputs":[{"indexed":true,"internalType":"address","name":"previous","type":"address"},{"indexed":true,"internalType":"address","name":"next","type":"address"},{"indexed":false,"internalType":"uint256","name":"activationTime","type":"uint256"}],"name":"EntryPointProposed","type":"event"},{"anonymous":false,"inputs":[{"indexed":true,"internalType":"address","name":"oldEP","type":"address"},{"indexed":true,"internalType":"address","name":"newEP","type":"address"}],"name":"EntryPointUpdated","type":"event"},{"anonymous":false,"inputs":[{"indexed":true,"internalType":"address","name":"previous","type":"address"},{"indexed":true,"internalType":"address","name":"next","type":"address"},{"indexed":false,"internalType":"uint256","name":"activationTime","type":"uint256"}],"name":"ImplementationProposed","type":"event"},{"anonymous":false,"inputs":[{"indexed":true,"internalType":"address","name":"oldImpl","type":"address"},{"indexed":true,"internalType":"address","name":"newImpl","type":"address"}],"name":"ImplementationUpdated","type":"event"},{"anonymous":false,"inputs":[{"indexed":false,"internalType":"uint64","name":"version","type":"uint64"}],"name":"Initialized","type":"event"},{"anonymous":false,"inputs":[{"indexed":true,"internalType":"address","name":"previousOwner","type":"address"},{"indexed":true,"internalType":"address","name":"newOwner","type":"address"}],"name":"OwnershipTransferred","type":"event"},{"anonymous":false,"inputs":[{"indexed":true,"internalType":"address","name":"previous","type":"address"},{"indexed":true,"internalType":"address","name":"next","type":"address"},{"indexed":false,"internalType":"uint256","name":"activationTime","type":"uint256"}],"name":"SessionManagerProposed","type":"event"},{"anonymous":false,"inputs":[{"indexed":true,"internalType":"address","name":"oldSM","type":"address"},{"indexed":true,"internalType":"address","name":"newSM","type":"address"}],"name":"SessionManagerUpdated","type":"event"},{"anonymous":false,"inputs":[{"indexed":true,"internalType":"address","name":"implementation","type":"address"}],"name":"Upgraded","type":"event"},{"anonymous":false,"inputs":[{"indexed":true,"internalType":"address","name":"wallet","type":"address"},{"indexed":true,"internalType":"address","name":"owner","type":"address"},{"indexed":true,"internalType":"bytes32","name":"salt","type":"bytes32"},{"indexed":false,"internalType":"address","name":"entryPoint","type":"address"}],"name":"WalletCreated","type":"event"},{"inputs":[],"name":"TIMELOCK_DELAY","outputs":[{"internalType":"uint256","name":"","type":"uint256"}],"stateMutability":"view","type":"function"},{"inputs":[],"name":"UPGRADE_INTERFACE_VERSION","outputs":[{"internalType":"string","name":"","type":"string"}],"stateMutability":"view","type":"function"},{"inputs":[],"name":"acceptEntryPoint","outputs":[],"stateMutability":"nonpayable","type":"function"},{"inputs":[],"name":"acceptImplementation","outputs":[],"stateMutability":"nonpayable","type":"function"},{"inputs":[],"name":"acceptSessionManager","outputs":[],"stateMutability":"nonpayable","type":"function"},{"inputs":[{"internalType":"address","name":"","type":"address"}],"name":"agentWallets","outputs":[{"internalType":"bool","name":"","type":"bool"}],"stateMutability":"view","type":"function"},{"inputs":[{"internalType":"address","name":"owner","type":"address"}],"name":"createWallet","outputs":[{"internalType":"address","name":"wallet","type":"address"}],"stateMutability":"nonpayable","type":"function"},{"inputs":[{"internalType":"address","name":"owner","type":"address"},{"internalType":"bytes32","name":"salt","type":"bytes32"}],"name":"createWallet","outputs":[{"internalType":"address","name":"wallet","type":"address"}],"stateMutability":"nonpayable","type":"function"},{"inputs":[],"name":"entryPoint","outputs":[{"internalType":"address","name":"","type":"address"}],"stateMutability":"view","type":"function"},{"inputs":[],"name":"entryPointActivationTime","outputs":[{"internalType":"uint256","name":"","type":"uint256"}],"stateMutability":"view","type":"function"},{"inputs":[{"internalType":"bytes32","name":"salt","type":"bytes32"}],"name":"getAddress","outputs":[{"internalType":"address","name":"wallet","type":"address"}],"stateMutability":"view","type":"function"},{"inputs":[],"name":"implementation","outputs":[{"internalType":"address","name":"","type":"address"}],"stateMutability":"view","type":"function"},{"inputs":[],"name":"implementationActivationTime","outputs":[{"internalType":"uint256","name":"","type":"uint256"}],"stateMutability":"view","type":"function"},{"inputs":[{"internalType":"address","name":"implementation_","type":"address"},{"internalType":"address","name":"sessionManager_","type":"address"},{"internalType":"address","name":"entryPoint_","type":"address"}],"name":"initialize","outputs":[],"stateMutability":"nonpayable","type":"function"},{"inputs":[{"internalType":"address","name":"wallet","type":"address"}],"name":"isAgentWallet","outputs":[{"internalType":"bool","name":"","type":"bool"}],"stateMutability":"view","type":"function"},{"inputs":[],"name":"owner","outputs":[{"internalType":"address","name":"","type":"address"}],"stateMutability":"view","type":"function"},{"inputs":[],"name":"pendingEntryPoint","outputs":[{"internalType":"address","name":"","type":"address"}],"stateMutability":"view","type":"function"},{"inputs":[],"name":"pendingImplementation","outputs":[{"internalType":"address","name":"","type":"address"}],"stateMutability":"view","type":"function"},{"inputs":[],"name":"pendingSessionManager","outputs":[{"internalType":"address","name":"","type":"address"}],"stateMutability":"view","type":"function"},{"inputs":[{"internalType":"address","name":"newEntryPoint","type":"address"}],"name":"proposeEntryPoint","outputs":[],"stateMutability":"nonpayable","type":"function"},{"inputs":[{"internalType":"address","name":"newImplementation","type":"address"}],"name":"proposeImplementation","outputs":[],"stateMutability":"nonpayable","type":"function"},{"inputs":[{"internalType":"address","name":"newSessionManager","type":"address"}],"name":"proposeSessionManager","outputs":[],"stateMutability":"nonpayable","type":"function"},{"inputs":[],"name":"proxiableUUID","outputs":[{"internalType":"bytes32","name":"","type":"bytes32"}],"stateMutability":"view","type":"function"},{"inputs":[],"name":"renounceOwnership","outputs":[],"stateMutability":"nonpayable","type":"function"},{"inputs":[],"name":"sessionManager","outputs":[{"internalType":"address","name":"","type":"address"}],"stateMutability":"view","type":"function"},{"inputs":[],"name":"sessionManagerActivationTime","outputs":[{"internalType":"uint256","name":"","type":"uint256"}],"stateMutability":"view","type":"function"},{"inputs":[{"internalType":"address","name":"newOwner","type":"address"}],"name":"transferOwnership","outputs":[],"stateMutability":"nonpayable","type":"function"},{"inputs":[{"internalType":"address","name":"newImplementation","type":"address"},{"internalType":"bytes","name":"data","type":"bytes"}],"name":"upgradeToAndCall","outputs":[],"stateMutability":"payable","type":"function"},{"inputs":[],"name":"walletCount","outputs":[{"internalType":"uint256","name":"","type":"uint256"}],"stateMutability":"view","type":"function"}],"evm":{"bytecode":{"linkReferences":{},"object":"60a080604052346100cc57306080527ff0c57e16840df040f15088dc2f81fe391c3923bec73e23a9662efc9c229c6a009081549060ff8260401c166100bd57506001600160401b036002600160401b031982821601610078575b6040516112bb90816100d2823960805181818161081501526108f40152f35b6001600160401b031990911681179091556040519081527fc7f505b2f371ae2175ee4913f4499e1f2633a7b5936321eed1cdaeb6115181d290602090a1388080610059565b63f92ee8a960e01b8152600490fd5b600080fdfe60406080815260048036101561001457600080fd5b600091823560e01c91826303230ca614610d6d57826307c40b3c14610d4457826312ca68a114610cb257826315ba56e514610c225782631dab21a714610bf957826321f8a72114610bc757826329b57c6914610ba8578263309cc95714610b04578263396f7b2314610adb5782634f1ef2861461087957826352d1902d146108005782635ba1c1a9146107e25782635c60da1b146107ba578263715018a6146107505782638da5cb5b1461071a5782638fc1cebd1461067a5782639dd18c15146105b5578263ad3cb1cc14610515578263b054a9e814610488578263b0d691fe1461045f578263b20ca81814610425578263b7b13f79146103fc578263bd5dee77146101b4578263c0c53b8b14610234578263c96f03e014610215578263daa09d49146101f6578263dfc8387a146101b457508163ec4c915714610191575063f2fde38b1461016257600080fd5b3461018e57602036600319011261018e5761018b61017e610e10565b610186610ef3565b610e7f565b80f35b80fd5b9050346101b057816003193601126101b0576020906008549051908152f35b5080fd5b909150346101f25760203660031901126101f25760209260ff918391906001600160a01b036101e1610e10565b168252855220541690519015158152f35b8280fd5b8382346101b057816003193601126101b0576020906006549051908152f35b8382346101b057816003193601126101b057602090600a549051908152f35b909150346101f25760603660031901126101f257610250610e10565b6001600160a01b039160243583811691908290036103f857604435918483168093036103f4577ff0c57e16840df040f15088dc2f81fe391c3923bec73e23a9662efc9c229c6a009485549460ff86891c16159567ffffffffffffffff8116801590816103ec575b60011490816103e2575b1590816103d9575b506103c95767ffffffffffffffff1981166001178855866103aa575b506102ee6111c1565b6102f66111c1565b6102ff33610e7f565b1691821561039c57811561038f57831561038157506001600160601b0360a01b91828854161787558160025416176002556001541617600155610340578280f35b805468ff00000000000000001916905551600181527fc7f505b2f371ae2175ee4913f4499e1f2633a7b5936321eed1cdaeb6115181d290602090a138808280f35b86516392377dd560e01b8152fd5b865162d9b42560e01b8152fd5b865163c2b9e5e960e01b8152fd5b68ffffffffffffffffff191668010000000000000001178755386102e5565b885163f92ee8a960e01b81528590fd5b905015386102c9565b303b1591506102c1565b8891506102b7565b8680fd5b8580fd5b8382346101b057816003193601126101b05760025490516001600160a01b039091168152602090f35b8382346101b057806003193601126101b05760209061044e610445610e10565b60243590610f8e565b90516001600160a01b039091168152f35b8382346101b057816003193601126101b05760015490516001600160a01b039091168152602090f35b90833461018e57602036600319011261018e576104a3610e10565b60035483516001600160a01b0383811660208301908152468388015260608084019490945292825293608082019067ffffffffffffffff82118383101761050257602087876104fa88888888865251902090610f8e565b915191168152f35b634e487b7160e01b815260418852602490fd5b909150346101f257826003193601126101f2578151908282019082821067ffffffffffffffff8311176105a25750825260058152602090640352e302e360dc1b6020820152825193849260208452825192836020860152825b84811061058c57505050828201840152601f01601f19168101030190f35b818101830151888201880152879550820161056e565b634e487b7160e01b855260419052602484fd5b9150346101f25760203660031901126101f2576105d0610e10565b916105d9610ef3565b6001600160a01b0392831692831561066b5760055481811661065c576001600160a01b031916841760055542620151808101929083106106495750816020917f55300e43272f2c3f5a6121f0ca3ba28bdd53b97b45ea6857743053f6ff858a81936006558654169351908152a380f35b634e487b7160e01b865260119052602485fd5b8351622d0f5f60e01b81528390fd5b50905163c2b9e5e960e01b8152fd5b909150346101f257826003193601126101f257610695610ef3565b6009546001600160a01b0380821693909290841561070d57600a544210610700575050600154906001600160601b0360a01b9084828416176001551660095583600a55167f9efc8bb238b1965522b3e784290f41e0229e21a34f499fd2f71b64463283a4168380a380f35b51639e3d304d60e01b8152fd5b516392377dd560e01b8152fd5b8382346101b057816003193601126101b0576000805160206112668339815191525490516001600160a01b039091168152602090f35b833461018e578060031936011261018e57610769610ef3565b60008051602061126683398151915280546001600160a01b0319811690915581906001600160a01b03167f8be0079c531659141344cd1fd0a4f28419497f9722a3daafe3b4186f6b6457e08280a380f35b8382346101b057816003193601126101b057905490516001600160a01b039091168152602090f35b8382346101b057816003193601126101b05760209051620151808152f35b90833461018e578060031936011261018e57507f00000000000000000000000000000000000000000000000000000000000000006001600160a01b0316300361086c57602090517f360894a13ba1a3210667c828492db98dca3e2076cc3735a920a3ca505d382bbc8152f35b5163703e46dd60e11b8152fd5b9150806003193601126101f25761088e610e10565b90602493843567ffffffffffffffff81116101b057366023820112156101b057808501356108bb81610e63565b946108c885519687610e2b565b81865260209182870193368a83830101116103f8578186928b8693018737880101526001600160a01b037f00000000000000000000000000000000000000000000000000000000000000008116308114908115610aad575b50610a9d5761092d610ef3565b81169585516352d1902d60e01b815283818a818b5afa869181610a6e575b50610967575050505050505191634c9c8ce360e01b8352820152fd5b9088888894938c7f360894a13ba1a3210667c828492db98dca3e2076cc3735a920a3ca505d382bbc91828103610a595750853b15610a45575080546001600160a01b031916821790558451889392917fbc7cd75a20ee27fd9adebab32041f755214dbc6bffa90cc0225b39da2e5c2d3b8580a2825115610a27575050610a199582915190845af4913d15610a1d573d610a0b610a0282610e63565b92519283610e2b565b81528581943d92013e611202565b5080f35b5060609250611202565b955095505050505034610a3957505080f35b63b398979f60e01b8152fd5b8651634c9c8ce360e01b8152808501849052fd5b8751632a87526960e21b815280860191909152fd5b9091508481813d8311610a96575b610a868183610e2b565b810103126103f45751903861094b565b503d610a7c565b855163703e46dd60e11b81528890fd5b9050817f360894a13ba1a3210667c828492db98dca3e2076cc3735a920a3ca505d382bbc5416141538610920565b8382346101b057816003193601126101b05760055490516001600160a01b039091168152602090f35b9150346101f25760203660031901126101f257610b1f610e10565b91610b28610ef3565b6001600160a01b03928316928315610b995760095481811661065c576001600160a01b031916841760095542620151808101929083106106495750816020917f82f58bce0ef526ec4e76de79042b60f5542ca08dbe0ef18bfa95d8c32fcbb71093600a55600154169351908152a380f35b5090516392377dd560e01b8152fd5b8382346101b057816003193601126101b0576020906003549051908152f35b909150346101f25760203660031901126101f25791546020926001600160a01b03916104fa9130919035908416610f2c565b8382346101b057816003193601126101b05760075490516001600160a01b039091168152602090f35b909150346101f257826003193601126101f257610c3d610ef3565b6005546001600160a01b03808216939092908415610ca557600654421061070057505083546001600160a01b0319808216851786559091166005556006849055167faa3f731066a578e5f39b4215468d826cdd15373cbc0dfc9cb9bdc649718ef7da8380a380f35b5163c2b9e5e960e01b8152fd5b909150346101f257826003193601126101f257610ccd610ef3565b6007546001600160a01b03808216939092908415610d38576008544210610700575050600254906001600160601b0360a01b9084828416176002551660075583600855167fa69f501b2fc95540d8bea22fcfa85d00f48f611c00a457d08f00f7754c9063cb8380a380f35b5162d9b42560e01b8152fd5b8382346101b057816003193601126101b05760095490516001600160a01b039091168152602090f35b9150346101f25760203660031901126101f257610d88610e10565b91610d91610ef3565b6001600160a01b03928316928315610e025760075481811661065c576001600160a01b031916841760075542620151808101929083106106495750816020917fe57f3914c462c93d70e218904ab70d6c345073c4deceb8c18c4955b3f67f874893600855600254169351908152a380f35b50905162d9b42560e01b8152fd5b600435906001600160a01b0382168203610e2657565b600080fd5b90601f8019910116810190811067ffffffffffffffff821117610e4d57604052565b634e487b7160e01b600052604160045260246000fd5b67ffffffffffffffff8111610e4d57601f01601f191660200190565b6001600160a01b03908116908115610eda5760008051602061126683398151915280546001600160a01b031981168417909155167f8be0079c531659141344cd1fd0a4f28419497f9722a3daafe3b4186f6b6457e0600080a3565b604051631e4fbdf760e01b815260006004820152602490fd5b600080516020611266833981519152546001600160a01b03163303610f1457565b60405163118cdaa760e01b8152336004820152602490fd5b60405160388101939093526f5af43d82803e903d91602b57fd5bf3ff60248401526014830152733d602d80600a3d3981f3363d3d373d3d3d363d73825260588201526037600c820120607882015260556043909101206001600160a01b031690565b60009291906001600160a01b039081169081156111af578454610fb43085848416610f2c565b803b61111a5750608881901c62ffffff16763d602d80600a3d3981f3363d3d373d3d3d363d7300000017865260781b6effffffffffffffffffffffffffffff19166e5af43d82803e903d91602b57fd5bf317602052826037600987f590808216918215611108579581600254168260015416843b156101f2576040519163c0c53b8b60e01b835286600484015260248301526044820152818160648183885af180156110fd576110d1575b50828152600460205260408120805460ff191660011790556003549060001982146110bd57507f1f7761c69c1e6ed50fd7b87c3be8af863a3977e31508a30bcb6ff930731d5dac9160016020920160035560015416604051908152a4565b634e487b7160e01b81526011600452602490fd5b67ffffffffffffffff81116110e9576040523861105f565b634e487b7160e01b82526041600452602482fd5b6040513d84823e3d90fd5b60405163b06ebf3d60e01b8152600490fd5b95919293505060405190638da5cb5b60e01b8252602082600481868a165afa9182156111a2578192611163575b5050160361115157565b6040516363ba06b360e11b8152600490fd5b9091506020813d60201161119a575b8161117f60209383610e2b565b810103126101b0575190828216820361018e57503880611147565b3d9150611172565b50604051903d90823e3d90fd5b60405163062ef65960e21b8152600490fd5b60ff7ff0c57e16840df040f15088dc2f81fe391c3923bec73e23a9662efc9c229c6a005460401c16156111f057565b604051631afcd79f60e31b8152600490fd5b90611229575080511561121757805190602001fd5b60405163d6bda27560e01b8152600490fd5b8151158061125c575b61123a575090565b604051639996b31560e01b81526001600160a01b039091166004820152602490fd5b50803b1561123256fe9016d09d72d40fdae2fd8ceac6b6234c7706214fd39c1cd1e609a0528c199300a26469706673582212206f39918efc77a3787b36c3798d4a30c6048be91d5ecd9376fc722604cf41025664736f6c63430008180033","opcodes":"PUSH1 0xA0 DUP1 PUSH1 0x40 MSTORE CALLVALUE PUSH2 0xCC JUMPI ADDRESS PUSH1 0x80 MSTORE PUSH32 0xF0C57E16840DF040F15088DC2F81FE391C3923BEC73E23A9662EFC9C229C6A00 SWAP1 DUP2 SLOAD SWAP1 PUSH1 0xFF DUP3 PUSH1 0x40 SHR AND PUSH2 0xBD JUMPI POP PUSH1 0x1 PUSH1 0x1 PUSH1 0x40 SHL SUB PUSH1 0x2 PUSH1 0x1 PUSH1 0x40 SHL SUB NOT DUP3 DUP3 AND ADD PUSH2 0x78 JUMPI JUMPDEST PUSH1 0x40 MLOAD PUSH2 0x12BB SWAP1 DUP2 PUSH2 0xD2 DUP3 CODECOPY PUSH1 0x80 MLOAD DUP2 DUP2 DUP2 PUSH2 0x815 ADD MSTORE PUSH2 0x8F4 ADD MSTORE RETURN JUMPDEST PUSH1 0x1 PUSH1 0x1 PUSH1 0x40 SHL SUB NOT SWAP1 SWAP2 AND DUP2 OR SWAP1 SWAP2 SSTORE PUSH1 0x40 MLOAD SWAP1 DUP2 MSTORE PUSH32 0xC7F505B2F371AE2175EE4913F4499E1F2633A7B5936321EED1CDAEB6115181D2 SWAP1 PUSH1 0x20 SWAP1 LOG1 CODESIZE DUP1 DUP1 PUSH2 0x59 JUMP JUMPDEST PUSH4 0xF92EE8A9 PUSH1 0xE0 SHL DUP2 MSTORE PUSH1 0x4 SWAP1 REVERT JUMPDEST PUSH1 0x0 DUP1 REVERT INVALID PUSH1 0x40 PUSH1 0x80 DUP2 MSTORE PUSH1 0x4 DUP1 CALLDATASIZE LT ISZERO PUSH2 0x14 JUMPI PUSH1 0x0 DUP1 REVERT JUMPDEST PUSH1 0x0 SWAP2 DUP3 CALLDATALOAD PUSH1 0xE0 SHR SWAP2 DUP3 PUSH4 0x3230CA6 EQ PUSH2 0xD6D JUMPI DUP3 PUSH4 0x7C40B3C EQ PUSH2 0xD44 JUMPI DUP3 PUSH4 0x12CA68A1 EQ PUSH2 0xCB2 JUMPI DUP3 PUSH4 0x15BA56E5 EQ PUSH2 0xC22 JUMPI DUP3 PUSH4 0x1DAB21A7 EQ PUSH2 0xBF9 JUMPI DUP3 PUSH4 0x21F8A721 EQ PUSH2 0xBC7 JUMPI DUP3 PUSH4 0x29B57C69 EQ PUSH2 0xBA8 JUMPI DUP3 PUSH4 0x309CC957 EQ PUSH2 0xB04 JUMPI DUP3 PUSH4 0x396F7B23 EQ PUSH2 0xADB JUMPI DUP3 PUSH4 0x4F1EF286 EQ PUSH2 0x879 JUMPI DUP3 PUSH4 0x52D1902D EQ PUSH2 0x800 JUMPI DUP3 PUSH4 0x5BA1C1A9 EQ PUSH2 0x7E2 JUMPI DUP3 PUSH4 0x5C60DA1B EQ PUSH2 0x7BA JUMPI DUP3 PUSH4 0x715018A6 EQ PUSH2 0x750 JUMPI DUP3 PUSH4 0x8DA5CB5B EQ PUSH2 0x71A JUMPI DUP3 PUSH4 0x8FC1CEBD EQ PUSH2 0x67A JUMPI DUP3 PUSH4 0x9DD18C15 EQ PUSH2 0x5B5 JUMPI DUP3 PUSH4 0xAD3CB1CC EQ PUSH2 0x515 JUMPI DUP3 PUSH4 0xB054A9E8 EQ PUSH2 0x488 JUMPI DUP3 PUSH4 0xB0D691FE EQ PUSH2 0x45F JUMPI DUP3 PUSH4 0xB20CA818 EQ PUSH2 0x425 JUMPI DUP3 PUSH4 0xB7B13F79 EQ PUSH2 0x3FC JUMPI DUP3 PUSH4 0xBD5DEE77 EQ PUSH2 0x1B4 JUMPI DUP3 PUSH4 0xC0C53B8B EQ PUSH2 0x234 JUMPI DUP3 PUSH4 0xC96F03E0 EQ PUSH2 0x215 JUMPI DUP3 PUSH4 0xDAA09D49 EQ PUSH2 0x1F6 JUMPI DUP3 PUSH4 0xDFC8387A EQ PUSH2 0x1B4 JUMPI POP DUP2 PUSH4 0xEC4C9157 EQ PUSH2 0x191 JUMPI POP PUSH4 0xF2FDE38B EQ PUSH2 0x162 JUMPI PUSH1 0x0 DUP1 REVERT JUMPDEST CALLVALUE PUSH2 0x18E JUMPI PUSH1 0x20 CALLDATASIZE PUSH1 0x3 NOT ADD SLT PUSH2 0x18E JUMPI PUSH2 0x18B PUSH2 0x17E PUSH2 0xE10 JUMP JUMPDEST PUSH2 0x186 PUSH2 0xEF3 JUMP JUMPDEST PUSH2 0xE7F JUMP JUMPDEST DUP1 RETURN JUMPDEST DUP1 REVERT JUMPDEST SWAP1 POP CALLVALUE PUSH2 0x1B0 JUMPI DUP2 PUSH1 0x3 NOT CALLDATASIZE ADD SLT PUSH2 0x1B0 JUMPI PUSH1 0x20 SWAP1 PUSH1 0x8 SLOAD SWAP1 MLOAD SWAP1 DUP2 MSTORE RETURN JUMPDEST POP DUP1 REVERT JUMPDEST SWAP1 SWAP2 POP CALLVALUE PUSH2 0x1F2 JUMPI PUSH1 0x20 CALLDATASIZE PUSH1 0x3 NOT ADD SLT PUSH2 0x1F2 JUMPI PUSH1 0x20 SWAP3 PUSH1 0xFF SWAP2 DUP4 SWAP2 SWAP1 PUSH1 0x1 PUSH1 0x1 PUSH1 0xA0 SHL SUB PUSH2 0x1E1 PUSH2 0xE10 JUMP JUMPDEST AND DUP3 MSTORE DUP6 MSTORE KECCAK256 SLOAD AND SWAP1 MLOAD SWAP1 ISZERO ISZERO DUP2 MSTORE RETURN JUMPDEST DUP3 DUP1 REVERT JUMPDEST DUP4 DUP3 CALLVALUE PUSH2 0x1B0 JUMPI DUP2 PUSH1 0x3 NOT CALLDATASIZE ADD SLT PUSH2 0x1B0 JUMPI PUSH1 0x20 SWAP1 PUSH1 0x6 SLOAD SWAP1 MLOAD SWAP1 DUP2 MSTORE RETURN JUMPDEST DUP4 DUP3 CALLVALUE PUSH2 0x1B0 JUMPI DUP2 PUSH1 0x3 NOT CALLDATASIZE ADD SLT PUSH2 0x1B0 JUMPI PUSH1 0x20 SWAP1 PUSH1 0xA SLOAD SWAP1 MLOAD SWAP1 DUP2 MSTORE RETURN JUMPDEST SWAP1 SWAP2 POP CALLVALUE PUSH2 0x1F2 JUMPI PUSH1 0x60 CALLDATASIZE PUSH1 0x3 NOT ADD SLT PUSH2 0x1F2 JUMPI PUSH2 0x250 PUSH2 0xE10 JUMP JUMPDEST PUSH1 0x1 PUSH1 0x1 PUSH1 0xA0 SHL SUB SWAP2 PUSH1 0x24 CALLDATALOAD DUP4 DUP2 AND SWAP2 SWAP1 DUP3 SWAP1 SUB PUSH2 0x3F8 JUMPI PUSH1 0x44 CALLDATALOAD SWAP2 DUP5 DUP4 AND DUP1 SWAP4 SUB PUSH2 0x3F4 JUMPI PUSH32 0xF0C57E16840DF040F15088DC2F81FE391C3923BEC73E23A9662EFC9C229C6A00 SWAP5 DUP6 SLOAD SWAP5 PUSH1 0xFF DUP7 DUP10 SHR AND ISZERO SWAP6 PUSH8 0xFFFFFFFFFFFFFFFF DUP2 AND DUP1 ISZERO SWAP1 DUP2 PUSH2 0x3EC JUMPI JUMPDEST PUSH1 0x1 EQ SWAP1 DUP2 PUSH2 0x3E2 JUMPI JUMPDEST ISZERO SWAP1 DUP2 PUSH2 0x3D9 JUMPI JUMPDEST POP PUSH2 0x3C9 JUMPI PUSH8 0xFFFFFFFFFFFFFFFF NOT DUP2 AND PUSH1 0x1 OR DUP9 SSTORE DUP7 PUSH2 0x3AA JUMPI JUMPDEST POP PUSH2 0x2EE PUSH2 0x11C1 JUMP JUMPDEST PUSH2 0x2F6 PUSH2 0x11C1 JUMP JUMPDEST PUSH2 0x2FF CALLER PUSH2 0xE7F JUMP JUMPDEST AND SWAP2 DUP3 ISZERO PUSH2 0x39C JUMPI DUP2 ISZERO PUSH2 0x38F JUMPI DUP4 ISZERO PUSH2 0x381 JUMPI POP PUSH1 0x1 PUSH1 0x1 PUSH1 0x60 SHL SUB PUSH1 0xA0 SHL SWAP2 DUP3 DUP9 SLOAD AND OR DUP8 SSTORE DUP2 PUSH1 0x2 SLOAD AND OR PUSH1 0x2 SSTORE PUSH1 0x1 SLOAD AND OR PUSH1 0x1 SSTORE PUSH2 0x340 JUMPI DUP3 DUP1 RETURN JUMPDEST DUP1 SLOAD PUSH9 0xFF0000000000000000 NOT AND SWAP1 SSTORE MLOAD PUSH1 0x1 DUP2 MSTORE PUSH32 0xC7F505B2F371AE2175EE4913F4499E1F2633A7B5936321EED1CDAEB6115181D2 SWAP1 PUSH1 0x20 SWAP1 LOG1 CODESIZE DUP1 DUP3 DUP1 RETURN JUMPDEST DUP7 MLOAD PUSH4 0x92377DD5 PUSH1 0xE0 SHL DUP2 MSTORE REVERT JUMPDEST DUP7 MLOAD PUSH3 0xD9B425 PUSH1 0xE0 SHL DUP2 MSTORE REVERT JUMPDEST DUP7 MLOAD PUSH4 0xC2B9E5E9 PUSH1 0xE0 SHL DUP2 MSTORE REVERT JUMPDEST PUSH9 0xFFFFFFFFFFFFFFFFFF NOT AND PUSH9 0x10000000000000001 OR DUP8 SSTORE CODESIZE PUSH2 0x2E5 JUMP JUMPDEST DUP9 MLOAD PUSH4 0xF92EE8A9 PUSH1 0xE0 SHL DUP2 MSTORE DUP6 SWAP1 REVERT JUMPDEST SWAP1 POP ISZERO CODESIZE PUSH2 0x2C9 JUMP JUMPDEST ADDRESS EXTCODESIZE ISZERO SWAP2 POP PUSH2 0x2C1 JUMP JUMPDEST DUP9 SWAP2 POP PUSH2 0x2B7 JUMP JUMPDEST DUP7 DUP1 REVERT JUMPDEST DUP6 DUP1 REVERT JUMPDEST DUP4 DUP3 CALLVALUE PUSH2 0x1B0 JUMPI DUP2 PUSH1 0x3 NOT CALLDATASIZE ADD SLT PUSH2 0x1B0 JUMPI PUSH1 0x2 SLOAD SWAP1 MLOAD PUSH1 0x1 PUSH1 0x1 PUSH1 0xA0 SHL SUB SWAP1 SWAP2 AND DUP2 MSTORE PUSH1 0x20 SWAP1 RETURN JUMPDEST DUP4 DUP3 CALLVALUE PUSH2 0x1B0 JUMPI DUP1 PUSH1 0x3 NOT CALLDATASIZE ADD SLT PUSH2 0x1B0 JUMPI PUSH1 0x20 SWAP1 PUSH2 0x44E PUSH2 0x445 PUSH2 0xE10 JUMP JUMPDEST PUSH1 0x24 CALLDATALOAD SWAP1 PUSH2 0xF8E JUMP JUMPDEST SWAP1 MLOAD PUSH1 0x1 PUSH1 0x1 PUSH1 0xA0 SHL SUB SWAP1 SWAP2 AND DUP2 MSTORE RETURN JUMPDEST DUP4 DUP3 CALLVALUE PUSH2 0x1B0 JUMPI DUP2 PUSH1 0x3 NOT CALLDATASIZE ADD SLT PUSH2 0x1B0 JUMPI PUSH1 0x1 SLOAD SWAP1 MLOAD PUSH1 0x1 PUSH1 0x1 PUSH1 0xA0 SHL SUB SWAP1 SWAP2 AND DUP2 MSTORE PUSH1 0x20 SWAP1 RETURN JUMPDEST SWAP1 DUP4 CALLVALUE PUSH2 0x18E JUMPI PUSH1 0x20 CALLDATASIZE PUSH1 0x3 NOT ADD SLT PUSH2 0x18E JUMPI PUSH2 0x4A3 PUSH2 0xE10 JUMP JUMPDEST PUSH1 0x3 SLOAD DUP4 MLOAD PUSH1 0x1 PUSH1 0x1 PUSH1 0xA0 SHL SUB DUP4 DUP2 AND PUSH1 0x20 DUP4 ADD SWAP1 DUP2 MSTORE CHAINID DUP4 DUP9 ADD MSTORE PUSH1 0x60 DUP1 DUP5 ADD SWAP5 SWAP1 SWAP5 MSTORE SWAP3 DUP3 MSTORE SWAP4 PUSH1 0x80 DUP3 ADD SWAP1 PUSH8 0xFFFFFFFFFFFFFFFF DUP3 GT DUP4 DUP4 LT OR PUSH2 0x502 JUMPI PUSH1 0x20 DUP8 DUP8 PUSH2 0x4FA DUP9 DUP9 DUP9 DUP9 DUP7 MSTORE MLOAD SWAP1 KECCAK256 SWAP1 PUSH2 0xF8E JUMP JUMPDEST SWAP2 MLOAD SWAP2 AND DUP2 MSTORE RETURN JUMPDEST PUSH4 0x4E487B71 PUSH1 0xE0 SHL DUP2 MSTORE PUSH1 0x41 DUP9 MSTORE PUSH1 0x24 SWAP1 REVERT JUMPDEST SWAP1 SWAP2 POP CALLVALUE PUSH2 0x1F2 JUMPI DUP3 PUSH1 0x3 NOT CALLDATASIZE ADD SLT PUSH2 0x1F2 JUMPI DUP2 MLOAD SWAP1 DUP3 DUP3 ADD SWAP1 DUP3 DUP3 LT PUSH8 0xFFFFFFFFFFFFFFFF DUP4 GT OR PUSH2 0x5A2 JUMPI POP DUP3 MSTORE PUSH1 0x5 DUP2 MSTORE PUSH1 0x20 SWAP1 PUSH5 0x352E302E3 PUSH1 0xDC SHL PUSH1 0x20 DUP3 ADD MSTORE DUP3 MLOAD SWAP4 DUP5 SWAP3 PUSH1 0x20 DUP5 MSTORE DUP3 MLOAD SWAP3 DUP4 PUSH1 0x20 DUP7 ADD MSTORE DUP3 JUMPDEST DUP5 DUP2 LT PUSH2 0x58C JUMPI POP POP POP DUP3 DUP3 ADD DUP5 ADD MSTORE PUSH1 0x1F ADD PUSH1 0x1F NOT AND DUP2 ADD SUB ADD SWAP1 RETURN JUMPDEST DUP2 DUP2 ADD DUP4 ADD MLOAD DUP9 DUP3 ADD DUP9 ADD MSTORE DUP8 SWAP6 POP DUP3 ADD PUSH2 0x56E JUMP JUMPDEST PUSH4 0x4E487B71 PUSH1 0xE0 SHL DUP6 MSTORE PUSH1 0x41 SWAP1 MSTORE PUSH1 0x24 DUP5 REVERT JUMPDEST SWAP2 POP CALLVALUE PUSH2 0x1F2 JUMPI PUSH1 0x20 CALLDATASIZE PUSH1 0x3 NOT ADD SLT PUSH2 0x1F2 JUMPI PUSH2 0x5D0 PUSH2 0xE10 JUMP JUMPDEST SWAP2 PUSH2 0x5D9 PUSH2 0xEF3 JUMP JUMPDEST PUSH1 0x1 PUSH1 0x1 PUSH1 0xA0 SHL SUB SWAP3 DUP4 AND SWAP3 DUP4 ISZERO PUSH2 0x66B JUMPI PUSH1 0x5 SLOAD DUP2 DUP2 AND PUSH2 0x65C JUMPI PUSH1 0x1 PUSH1 0x1 PUSH1 0xA0 SHL SUB NOT AND DUP5 OR PUSH1 0x5 SSTORE TIMESTAMP PUSH3 0x15180 DUP2 ADD SWAP3 SWAP1 DUP4 LT PUSH2 0x649 JUMPI POP DUP2 PUSH1 0x20 SWAP2 PUSH32 0x55300E43272F2C3F5A6121F0CA3BA28BDD53B97B45EA6857743053F6FF858A81 SWAP4 PUSH1 0x6 SSTORE DUP7 SLOAD AND SWAP4 MLOAD SWAP1 DUP2 MSTORE LOG3 DUP1 RETURN JUMPDEST PUSH4 0x4E487B71 PUSH1 0xE0 SHL DUP7 MSTORE PUSH1 0x11 SWAP1 MSTORE PUSH1 0x24 DUP6 REVERT JUMPDEST DUP4 MLOAD PUSH3 0x2D0F5F PUSH1 0xE0 SHL DUP2 MSTORE DUP4 SWAP1 REVERT JUMPDEST POP SWAP1 MLOAD PUSH4 0xC2B9E5E9 PUSH1 0xE0 SHL DUP2 MSTORE REVERT JUMPDEST SWAP1 SWAP2 POP CALLVALUE PUSH2 0x1F2 JUMPI DUP3 PUSH1 0x3 NOT CALLDATASIZE ADD SLT PUSH2 0x1F2 JUMPI PUSH2 0x695 PUSH2 0xEF3 JUMP JUMPDEST PUSH1 0x9 SLOAD PUSH1 0x1 PUSH1 0x1 PUSH1 0xA0 SHL SUB DUP1 DUP3 AND SWAP4 SWAP1 SWAP3 SWAP1 DUP5 ISZERO PUSH2 0x70D JUMPI PUSH1 0xA SLOAD TIMESTAMP LT PUSH2 0x700 JUMPI POP POP PUSH1 0x1 SLOAD SWAP1 PUSH1 0x1 PUSH1 0x1 PUSH1 0x60 SHL SUB PUSH1 0xA0 SHL SWAP1 DUP5 DUP3 DUP5 AND OR PUSH1 0x1 SSTORE AND PUSH1 0x9 SSTORE DUP4 PUSH1 0xA SSTORE AND PUSH32 0x9EFC8BB238B1965522B3E784290F41E0229E21A34F499FD2F71B64463283A416 DUP4 DUP1 LOG3 DUP1 RETURN JUMPDEST MLOAD PUSH4 0x9E3D304D PUSH1 0xE0 SHL DUP2 MSTORE REVERT JUMPDEST MLOAD PUSH4 0x92377DD5 PUSH1 0xE0 SHL DUP2 MSTORE REVERT JUMPDEST DUP4 DUP3 CALLVALUE PUSH2 0x1B0 JUMPI DUP2 PUSH1 0x3 NOT CALLDATASIZE ADD SLT PUSH2 0x1B0 JUMPI PUSH1 0x0 DUP1 MLOAD PUSH1 0x20 PUSH2 0x1266 DUP4 CODECOPY DUP2 MLOAD SWAP2 MSTORE SLOAD SWAP1 MLOAD PUSH1 0x1 PUSH1 0x1 PUSH1 0xA0 SHL SUB SWAP1 SWAP2 AND DUP2 MSTORE PUSH1 0x20 SWAP1 RETURN JUMPDEST DUP4 CALLVALUE PUSH2 0x18E JUMPI DUP1 PUSH1 0x3 NOT CALLDATASIZE ADD SLT PUSH2 0x18E JUMPI PUSH2 0x769 PUSH2 0xEF3 JUMP JUMPDEST PUSH1 0x0 DUP1 MLOAD PUSH1 0x20 PUSH2 0x1266 DUP4 CODECOPY DUP2 MLOAD SWAP2 MSTORE DUP1 SLOAD PUSH1 0x1 PUSH1 0x1 PUSH1 0xA0 SHL SUB NOT DUP2 AND SWAP1 SWAP2 SSTORE DUP2 SWAP1 PUSH1 0x1 PUSH1 0x1 PUSH1 0xA0 SHL SUB AND PUSH32 0x8BE0079C531659141344CD1FD0A4F28419497F9722A3DAAFE3B4186F6B6457E0 DUP3 DUP1 LOG3 DUP1 RETURN JUMPDEST DUP4 DUP3 CALLVALUE PUSH2 0x1B0 JUMPI DUP2 PUSH1 0x3 NOT CALLDATASIZE ADD SLT PUSH2 0x1B0 JUMPI SWAP1 SLOAD SWAP1 MLOAD PUSH1 0x1 PUSH1 0x1 PUSH1 0xA0 SHL SUB SWAP1 SWAP2 AND DUP2 MSTORE PUSH1 0x20 SWAP1 RETURN JUMPDEST DUP4 DUP3 CALLVALUE PUSH2 0x1B0 JUMPI DUP2 PUSH1 0x3 NOT CALLDATASIZE ADD SLT PUSH2 0x1B0 JUMPI PUSH1 0x20 SWAP1 MLOAD PUSH3 0x15180 DUP2 MSTORE RETURN JUMPDEST SWAP1 DUP4 CALLVALUE PUSH2 0x18E JUMPI DUP1 PUSH1 0x3 NOT CALLDATASIZE ADD SLT PUSH2 0x18E JUMPI POP PUSH32 0x0 PUSH1 0x1 PUSH1 0x1 PUSH1 0xA0 SHL SUB AND ADDRESS SUB PUSH2 0x86C JUMPI PUSH1 0x20 SWAP1 MLOAD PUSH32 0x360894A13BA1A3210667C828492DB98DCA3E2076CC3735A920A3CA505D382BBC DUP2 MSTORE RETURN JUMPDEST MLOAD PUSH4 0x703E46DD PUSH1 0xE1 SHL DUP2 MSTORE REVERT JUMPDEST SWAP2 POP DUP1 PUSH1 0x3 NOT CALLDATASIZE ADD SLT PUSH2 0x1F2 JUMPI PUSH2 0x88E PUSH2 0xE10 JUMP JUMPDEST SWAP1 PUSH1 0x24 SWAP4 DUP5 CALLDATALOAD PUSH8 0xFFFFFFFFFFFFFFFF DUP2 GT PUSH2 0x1B0 JUMPI CALLDATASIZE PUSH1 0x23 DUP3 ADD SLT ISZERO PUSH2 0x1B0 JUMPI DUP1 DUP6 ADD CALLDATALOAD PUSH2 0x8BB DUP2 PUSH2 0xE63 JUMP JUMPDEST SWAP5 PUSH2 0x8C8 DUP6 MLOAD SWAP7 DUP8 PUSH2 0xE2B JUMP JUMPDEST DUP2 DUP7 MSTORE PUSH1 0x20 SWAP2 DUP3 DUP8 ADD SWAP4 CALLDATASIZE DUP11 DUP4 DUP4 ADD ADD GT PUSH2 0x3F8 JUMPI DUP2 DUP7 SWAP3 DUP12 DUP7 SWAP4 ADD DUP8 CALLDATACOPY DUP9 ADD ADD MSTORE PUSH1 0x1 PUSH1 0x1 PUSH1 0xA0 SHL SUB PUSH32 0x0 DUP2 AND ADDRESS DUP2 EQ SWAP1 DUP2 ISZERO PUSH2 0xAAD JUMPI JUMPDEST POP PUSH2 0xA9D JUMPI PUSH2 0x92D PUSH2 0xEF3 JUMP JUMPDEST DUP2 AND SWAP6 DUP6 MLOAD PUSH4 0x52D1902D PUSH1 0xE0 SHL DUP2 MSTORE DUP4 DUP2 DUP11 DUP2 DUP12 GAS STATICCALL DUP7 SWAP2 DUP2 PUSH2 0xA6E JUMPI JUMPDEST POP PUSH2 0x967 JUMPI POP POP POP POP POP POP MLOAD SWAP2 PUSH4 0x4C9C8CE3 PUSH1 0xE0 SHL DUP4 MSTORE DUP3 ADD MSTORE REVERT JUMPDEST SWAP1 DUP9 DUP9 DUP9 SWAP5 SWAP4 DUP13 PUSH32 0x360894A13BA1A3210667C828492DB98DCA3E2076CC3735A920A3CA505D382BBC SWAP2 DUP3 DUP2 SUB PUSH2 0xA59 JUMPI POP DUP6 EXTCODESIZE ISZERO PUSH2 0xA45 JUMPI POP DUP1 SLOAD PUSH1 0x1 PUSH1 0x1 PUSH1 0xA0 SHL SUB NOT AND DUP3 OR SWAP1 SSTORE DUP5 MLOAD DUP9 SWAP4 SWAP3 SWAP2 PUSH32 0xBC7CD75A20EE27FD9ADEBAB32041F755214DBC6BFFA90CC0225B39DA2E5C2D3B DUP6 DUP1 LOG2 DUP3 MLOAD ISZERO PUSH2 0xA27 JUMPI POP POP PUSH2 0xA19 SWAP6 DUP3 SWAP2 MLOAD SWAP1 DUP5 GAS DELEGATECALL SWAP2 RETURNDATASIZE ISZERO PUSH2 0xA1D JUMPI RETURNDATASIZE PUSH2 0xA0B PUSH2 0xA02 DUP3 PUSH2 0xE63 JUMP JUMPDEST SWAP3 MLOAD SWAP3 DUP4 PUSH2 0xE2B JUMP JUMPDEST DUP2 MSTORE DUP6 DUP2 SWAP5 RETURNDATASIZE SWAP3 ADD RETURNDATACOPY PUSH2 0x1202 JUMP JUMPDEST POP DUP1 RETURN JUMPDEST POP PUSH1 0x60 SWAP3 POP PUSH2 0x1202 JUMP JUMPDEST SWAP6 POP SWAP6 POP POP POP POP POP CALLVALUE PUSH2 0xA39 JUMPI POP POP DUP1 RETURN JUMPDEST PUSH4 0xB398979F PUSH1 0xE0 SHL DUP2 MSTORE REVERT JUMPDEST DUP7 MLOAD PUSH4 0x4C9C8CE3 PUSH1 0xE0 SHL DUP2 MSTORE DUP1 DUP6 ADD DUP5 SWAP1 MSTORE REVERT JUMPDEST DUP8 MLOAD PUSH4 0x2A875269 PUSH1 0xE2 SHL DUP2 MSTORE DUP1 DUP7 ADD SWAP2 SWAP1 SWAP2 MSTORE REVERT JUMPDEST SWAP1 SWAP2 POP DUP5 DUP2 DUP2 RETURNDATASIZE DUP4 GT PUSH2 0xA96 JUMPI JUMPDEST PUSH2 0xA86 DUP2 DUP4 PUSH2 0xE2B JUMP JUMPDEST DUP2 ADD SUB SLT PUSH2 0x3F4 JUMPI MLOAD SWAP1 CODESIZE PUSH2 0x94B JUMP JUMPDEST POP RETURNDATASIZE PUSH2 0xA7C JUMP JUMPDEST DUP6 MLOAD PUSH4 0x703E46DD PUSH1 0xE1 SHL DUP2 MSTORE DUP9 SWAP1 REVERT JUMPDEST SWAP1 POP DUP2 PUSH32 0x360894A13BA1A3210667C828492DB98DCA3E2076CC3735A920A3CA505D382BBC SLOAD AND EQ ISZERO CODESIZE PUSH2 0x920 JUMP JUMPDEST DUP4 DUP3 CALLVALUE PUSH2 0x1B0 JUMPI DUP2 PUSH1 0x3 NOT CALLDATASIZE ADD SLT PUSH2 0x1B0 JUMPI PUSH1 0x5 SLOAD SWAP1 MLOAD PUSH1 0x1 PUSH1 0x1 PUSH1 0xA0 SHL SUB SWAP1 SWAP2 AND DUP2 MSTORE PUSH1 0x20 SWAP1 RETURN JUMPDEST SWAP2 POP CALLVALUE PUSH2 0x1F2 JUMPI PUSH1 0x20 CALLDATASIZE PUSH1 0x3 NOT ADD SLT PUSH2 0x1F2 JUMPI PUSH2 0xB1F PUSH2 0xE10 JUMP JUMPDEST SWAP2 PUSH2 0xB28 PUSH2 0xEF3 JUMP JUMPDEST PUSH1 0x1 PUSH1 0x1 PUSH1 0xA0 SHL SUB SWAP3 DUP4 AND SWAP3 DUP4 ISZERO PUSH2 0xB99 JUMPI PUSH1 0x9 SLOAD DUP2 DUP2 AND PUSH2 0x65C JUMPI PUSH1 0x1 PUSH1 0x1 PUSH1 0xA0 SHL SUB NOT AND DUP5 OR PUSH1 0x9 SSTORE TIMESTAMP PUSH3 0x15180 DUP2 ADD SWAP3 SWAP1 DUP4 LT PUSH2 0x649 JUMPI POP DUP2 PUSH1 0x20 SWAP2 PUSH32 0x82F58BCE0EF526EC4E76DE79042B60F5542CA08DBE0EF18BFA95D8C32FCBB710 SWAP4 PUSH1 0xA SSTORE PUSH1 0x1 SLOAD AND SWAP4 MLOAD SWAP1 DUP2 MSTORE LOG3 DUP1 RETURN JUMPDEST POP SWAP1 MLOAD PUSH4 0x92377DD5 PUSH1 0xE0 SHL DUP2 MSTORE REVERT JUMPDEST DUP4 DUP3 CALLVALUE PUSH2 0x1B0 JUMPI DUP2 PUSH1 0x3 NOT CALLDATASIZE ADD SLT PUSH2 0x1B0 JUMPI PUSH1 0x20 SWAP1 PUSH1 0x3 SLOAD SWAP1 MLOAD SWAP1 DUP2 MSTORE RETURN JUMPDEST SWAP1 SWAP2 POP CALLVALUE PUSH2 0x1F2 JUMPI PUSH1 0x20 CALLDATASIZE PUSH1 0x3 NOT ADD SLT PUSH2 0x1F2 JUMPI SWAP2 SLOAD PUSH1 0x20 SWAP3 PUSH1 0x1 PUSH1 0x1 PUSH1 0xA0 SHL SUB SWAP2 PUSH2 0x4FA SWAP2 ADDRESS SWAP2 SWAP1 CALLDATALOAD SWAP1 DUP5 AND PUSH2 0xF2C JUMP JUMPDEST DUP4 DUP3 CALLVALUE PUSH2 0x1B0 JUMPI DUP2 PUSH1 0x3 NOT CALLDATASIZE ADD SLT PUSH2 0x1B0 JUMPI PUSH1 0x7 SLOAD SWAP1 MLOAD PUSH1 0x1 PUSH1 0x1 PUSH1 0xA0 SHL SUB SWAP1 SWAP2 AND DUP2 MSTORE PUSH1 0x20 SWAP1 RETURN JUMPDEST SWAP1 SWAP2 POP CALLVALUE PUSH2 0x1F2 JUMPI DUP3 PUSH1 0x3 NOT CALLDATASIZE ADD SLT PUSH2 0x1F2 JUMPI PUSH2 0xC3D PUSH2 0xEF3 JUMP JUMPDEST PUSH1 0x5 SLOAD PUSH1 0x1 PUSH1 0x1 PUSH1 0xA0 SHL SUB DUP1 DUP3 AND SWAP4 SWAP1 SWAP3 SWAP1 DUP5 ISZERO PUSH2 0xCA5 JUMPI PUSH1 0x6 SLOAD TIMESTAMP LT PUSH2 0x700 JUMPI POP POP DUP4 SLOAD PUSH1 0x1 PUSH1 0x1 PUSH1 0xA0 SHL SUB NOT DUP1 DUP3 AND DUP6 OR DUP7 SSTORE SWAP1 SWAP2 AND PUSH1 0x5 SSTORE PUSH1 0x6 DUP5 SWAP1 SSTORE AND PUSH32 0xAA3F731066A578E5F39B4215468D826CDD15373CBC0DFC9CB9BDC649718EF7DA DUP4 DUP1 LOG3 DUP1 RETURN JUMPDEST MLOAD PUSH4 0xC2B9E5E9 PUSH1 0xE0 SHL DUP2 MSTORE REVERT JUMPDEST SWAP1 SWAP2 POP CALLVALUE PUSH2 0x1F2 JUMPI DUP3 PUSH1 0x3 NOT CALLDATASIZE ADD SLT PUSH2 0x1F2 JUMPI PUSH2 0xCCD PUSH2 0xEF3 JUMP JUMPDEST PUSH1 0x7 SLOAD PUSH1 0x1 PUSH1 0x1 PUSH1 0xA0 SHL SUB DUP1 DUP3 AND SWAP4 SWAP1 SWAP3 SWAP1 DUP5 ISZERO PUSH2 0xD38 JUMPI PUSH1 0x8 SLOAD TIMESTAMP LT PUSH2 0x700 JUMPI POP POP PUSH1 0x2 SLOAD SWAP1 PUSH1 0x1 PUSH1 0x1 PUSH1 0x60 SHL SUB PUSH1 0xA0 SHL SWAP1 DUP5 DUP3 DUP5 AND OR PUSH1 0x2 SSTORE AND PUSH1 0x7 SSTORE DUP4 PUSH1 0x8 SSTORE AND PUSH32 0xA69F501B2FC95540D8BEA22FCFA85D00F48F611C00A457D08F00F7754C9063CB DUP4 DUP1 LOG3 DUP1 RETURN JUMPDEST MLOAD PUSH3 0xD9B425 PUSH1 0xE0 SHL DUP2 MSTORE REVERT JUMPDEST DUP4 DUP3 CALLVALUE PUSH2 0x1B0 JUMPI DUP2 PUSH1 0x3 NOT CALLDATASIZE ADD SLT PUSH2 0x1B0 JUMPI PUSH1 0x9 SLOAD SWAP1 MLOAD PUSH1 0x1 PUSH1 0x1 PUSH1 0xA0 SHL SUB SWAP1 SWAP2 AND DUP2 MSTORE PUSH1 0x20 SWAP1 RETURN JUMPDEST SWAP2 POP CALLVALUE PUSH2 0x1F2 JUMPI PUSH1 0x20 CALLDATASIZE PUSH1 0x3 NOT ADD SLT PUSH2 0x1F2 JUMPI PUSH2 0xD88 PUSH2 0xE10 JUMP JUMPDEST SWAP2 PUSH2 0xD91 PUSH2 0xEF3 JUMP JUMPDEST PUSH1 0x1 PUSH1 0x1 PUSH1 0xA0 SHL SUB SWAP3 DUP4 AND SWAP3 DUP4 ISZERO PUSH2 0xE02 JUMPI PUSH1 0x7 SLOAD DUP2 DUP2 AND PUSH2 0x65C JUMPI PUSH1 0x1 PUSH1 0x1 PUSH1 0xA0 SHL SUB NOT AND DUP5 OR PUSH1 0x7 SSTORE TIMESTAMP PUSH3 0x15180 DUP2 ADD SWAP3 SWAP1 DUP4 LT PUSH2 0x649 JUMPI POP DUP2 PUSH1 0x20 SWAP2 PUSH32 0xE57F3914C462C93D70E218904AB70D6C345073C4DECEB8C18C4955B3F67F8748 SWAP4 PUSH1 0x8 SSTORE PUSH1 0x2 SLOAD AND SWAP4 MLOAD SWAP1 DUP2 MSTORE LOG3 DUP1 RETURN JUMPDEST POP SWAP1 MLOAD PUSH3 0xD9B425 PUSH1 0xE0 SHL DUP2 MSTORE REVERT JUMPDEST PUSH1 0x4 CALLDATALOAD SWAP1 PUSH1 0x1 PUSH1 0x1 PUSH1 0xA0 SHL SUB DUP3 AND DUP3 SUB PUSH2 0xE26 JUMPI JUMP JUMPDEST PUSH1 0x0 DUP1 REVERT JUMPDEST SWAP1 PUSH1 0x1F DUP1 NOT SWAP2 ADD AND DUP2 ADD SWAP1 DUP2 LT PUSH8 0xFFFFFFFFFFFFFFFF DUP3 GT OR PUSH2 0xE4D JUMPI PUSH1 0x40 MSTORE JUMP JUMPDEST PUSH4 0x4E487B71 PUSH1 0xE0 SHL PUSH1 0x0 MSTORE PUSH1 0x41 PUSH1 0x4 MSTORE PUSH1 0x24 PUSH1 0x0 REVERT JUMPDEST PUSH8 0xFFFFFFFFFFFFFFFF DUP2 GT PUSH2 0xE4D JUMPI PUSH1 0x1F ADD PUSH1 0x1F NOT AND PUSH1 0x20 ADD SWAP1 JUMP JUMPDEST PUSH1 0x1 PUSH1 0x1 PUSH1 0xA0 SHL SUB SWAP1 DUP2 AND SWAP1 DUP2 ISZERO PUSH2 0xEDA JUMPI PUSH1 0x0 DUP1 MLOAD PUSH1 0x20 PUSH2 0x1266 DUP4 CODECOPY DUP2 MLOAD SWAP2 MSTORE DUP1 SLOAD PUSH1 0x1 PUSH1 0x1 PUSH1 0xA0 SHL SUB NOT DUP2 AND DUP5 OR SWAP1 SWAP2 SSTORE AND PUSH32 0x8BE0079C531659141344CD1FD0A4F28419497F9722A3DAAFE3B4186F6B6457E0 PUSH1 0x0 DUP1 LOG3 JUMP JUMPDEST PUSH1 0x40 MLOAD PUSH4 0x1E4FBDF7 PUSH1 0xE0 SHL DUP2 MSTORE PUSH1 0x0 PUSH1 0x4 DUP3 ADD MSTORE PUSH1 0x24 SWAP1 REVERT JUMPDEST PUSH1 0x0 DUP1 MLOAD PUSH1 0x20 PUSH2 0x1266 DUP4 CODECOPY DUP2 MLOAD SWAP2 MSTORE SLOAD PUSH1 0x1 PUSH1 0x1 PUSH1 0xA0 SHL SUB AND CALLER SUB PUSH2 0xF14 JUMPI JUMP JUMPDEST PUSH1 0x40 MLOAD PUSH4 0x118CDAA7 PUSH1 0xE0 SHL DUP2 MSTORE CALLER PUSH1 0x4 DUP3 ADD MSTORE PUSH1 0x24 SWAP1 REVERT JUMPDEST PUSH1 0x40 MLOAD PUSH1 0x38 DUP2 ADD SWAP4 SWAP1 SWAP4 MSTORE PUSH16 0x5AF43D82803E903D91602B57FD5BF3FF PUSH1 0x24 DUP5 ADD MSTORE PUSH1 0x14 DUP4 ADD MSTORE PUSH20 0x3D602D80600A3D3981F3363D3D373D3D3D363D73 DUP3 MSTORE PUSH1 0x58 DUP3 ADD MSTORE PUSH1 0x37 PUSH1 0xC DUP3 ADD KECCAK256 PUSH1 0x78 DUP3 ADD MSTORE PUSH1 0x55 PUSH1 0x43 SWAP1 SWAP2 ADD KECCAK256 PUSH1 0x1 PUSH1 0x1 PUSH1 0xA0 SHL SUB AND SWAP1 JUMP JUMPDEST PUSH1 0x0 SWAP3 SWAP2 SWAP1 PUSH1 0x1 PUSH1 0x1 PUSH1 0xA0 SHL SUB SWAP1 DUP2 AND SWAP1 DUP2 ISZERO PUSH2 0x11AF JUMPI DUP5 SLOAD PUSH2 0xFB4 ADDRESS DUP6 DUP5 DUP5 AND PUSH2 0xF2C JUMP JUMPDEST DUP1 EXTCODESIZE PUSH2 0x111A JUMPI POP PUSH1 0x88 DUP2 SWAP1 SHR PUSH3 0xFFFFFF AND PUSH23 0x3D602D80600A3D3981F3363D3D373D3D3D363D73000000 OR DUP7 MSTORE PUSH1 0x78 SHL PUSH15 0xFFFFFFFFFFFFFFFFFFFFFFFFFFFFFF NOT AND PUSH15 0x5AF43D82803E903D91602B57FD5BF3 OR PUSH1 0x20 MSTORE DUP3 PUSH1 0x37 PUSH1 0x9 DUP8 CREATE2 SWAP1 DUP1 DUP3 AND SWAP2 DUP3 ISZERO PUSH2 0x1108 JUMPI SWAP6 DUP2 PUSH1 0x2 SLOAD AND DUP3 PUSH1 0x1 SLOAD AND DUP5 EXTCODESIZE ISZERO PUSH2 0x1F2 JUMPI PUSH1 0x40 MLOAD SWAP2 PUSH4 0xC0C53B8B PUSH1 0xE0 SHL DUP4 MSTORE DUP7 PUSH1 0x4 DUP5 ADD MSTORE PUSH1 0x24 DUP4 ADD MSTORE PUSH1 0x44 DUP3 ADD MSTORE DUP2 DUP2 PUSH1 0x64 DUP2 DUP4 DUP9 GAS CALL DUP1 ISZERO PUSH2 0x10FD JUMPI PUSH2 0x10D1 JUMPI JUMPDEST POP DUP3 DUP2 MSTORE PUSH1 0x4 PUSH1 0x20 MSTORE PUSH1 0x40 DUP2 KECCAK256 DUP1 SLOAD PUSH1 0xFF NOT AND PUSH1 0x1 OR SWAP1 SSTORE PUSH1 0x3 SLOAD SWAP1 PUSH1 0x0 NOT DUP3 EQ PUSH2 0x10BD JUMPI POP PUSH32 0x1F7761C69C1E6ED50FD7B87C3BE8AF863A3977E31508A30BCB6FF930731D5DAC SWAP2 PUSH1 0x1 PUSH1 0x20 SWAP3 ADD PUSH1 0x3 SSTORE PUSH1 0x1 SLOAD AND PUSH1 0x40 MLOAD SWAP1 DUP2 MSTORE LOG4 JUMP JUMPDEST PUSH4 0x4E487B71 PUSH1 0xE0 SHL DUP2 MSTORE PUSH1 0x11 PUSH1 0x4 MSTORE PUSH1 0x24 SWAP1 REVERT JUMPDEST PUSH8 0xFFFFFFFFFFFFFFFF DUP2 GT PUSH2 0x10E9 JUMPI PUSH1 0x40 MSTORE CODESIZE PUSH2 0x105F JUMP JUMPDEST PUSH4 0x4E487B71 PUSH1 0xE0 SHL DUP3 MSTORE PUSH1 0x41 PUSH1 0x4 MSTORE PUSH1 0x24 DUP3 REVERT JUMPDEST PUSH1 0x40 MLOAD RETURNDATASIZE DUP5 DUP3 RETURNDATACOPY RETURNDATASIZE SWAP1 REVERT JUMPDEST PUSH1 0x40 MLOAD PUSH4 0xB06EBF3D PUSH1 0xE0 SHL DUP2 MSTORE PUSH1 0x4 SWAP1 REVERT JUMPDEST SWAP6 SWAP2 SWAP3 SWAP4 POP POP PUSH1 0x40 MLOAD SWAP1 PUSH4 0x8DA5CB5B PUSH1 0xE0 SHL DUP3 MSTORE PUSH1 0x20 DUP3 PUSH1 0x4 DUP2 DUP7 DUP11 AND GAS STATICCALL SWAP2 DUP3 ISZERO PUSH2 0x11A2 JUMPI DUP2 SWAP3 PUSH2 0x1163 JUMPI JUMPDEST POP POP AND SUB PUSH2 0x1151 JUMPI JUMP JUMPDEST PUSH1 0x40 MLOAD PUSH4 0x63BA06B3 PUSH1 0xE1 SHL DUP2 MSTORE PUSH1 0x4 SWAP1 REVERT JUMPDEST SWAP1 SWAP2 POP PUSH1 0x20 DUP2 RETURNDATASIZE PUSH1 0x20 GT PUSH2 0x119A JUMPI JUMPDEST DUP2 PUSH2 0x117F PUSH1 0x20 SWAP4 DUP4 PUSH2 0xE2B JUMP JUMPDEST DUP2 ADD SUB SLT PUSH2 0x1B0 JUMPI MLOAD SWAP1 DUP3 DUP3 AND DUP3 SUB PUSH2 0x18E JUMPI POP CODESIZE DUP1 PUSH2 0x1147 JUMP JUMPDEST RETURNDATASIZE SWAP2 POP PUSH2 0x1172 JUMP JUMPDEST POP PUSH1 0x40 MLOAD SWAP1 RETURNDATASIZE SWAP1 DUP3 RETURNDATACOPY RETURNDATASIZE SWAP1 REVERT JUMPDEST PUSH1 0x40 MLOAD PUSH4 0x62EF659 PUSH1 0xE2 SHL DUP2 MSTORE PUSH1 0x4 SWAP1 REVERT JUMPDEST PUSH1 0xFF PUSH32 0xF0C57E16840DF040F15088DC2F81FE391C3923BEC73E23A9662EFC9C229C6A00 SLOAD PUSH1 0x40 SHR AND ISZERO PUSH2 0x11F0 JUMPI JUMP JUMPDEST PUSH1 0x40 MLOAD PUSH4 0x1AFCD79F PUSH1 0xE3 SHL DUP2 MSTORE PUSH1 0x4 SWAP1 REVERT JUMPDEST SWAP1 PUSH2 0x1229 JUMPI POP DUP1 MLOAD ISZERO PUSH2 0x1217 JUMPI DUP1 MLOAD SWAP1 PUSH1 0x20 ADD REVERT JUMPDEST PUSH1 0x40 MLOAD PUSH4 0xD6BDA275 PUSH1 0xE0 SHL DUP2 MSTORE PUSH1 0x4 SWAP1 REVERT JUMPDEST DUP2 MLOAD ISZERO DUP1 PUSH2 0x125C JUMPI JUMPDEST PUSH2 0x123A JUMPI POP SWAP1 JUMP JUMPDEST PUSH1 0x40 MLOAD PUSH4 0x9996B315 PUSH1 0xE0 SHL DUP2 MSTORE PUSH1 0x1 PUSH1 0x1 PUSH1 0xA0 SHL SUB SWAP1 SWAP2 AND PUSH1 0x4 DUP3 ADD MSTORE PUSH1 0x24 SWAP1 REVERT JUMPDEST POP DUP1 EXTCODESIZE ISZERO PUSH2 0x1232 JUMP INVALID SWAP1 AND 0xD0 SWAP14 PUSH19 0xD40FDAE2FD8CEAC6B6234C7706214FD39C1CD1 0xE6 MULMOD LOG0 MSTORE DUP13 NOT SWAP4 STOP LOG2 PUSH5 0x6970667358 0x22 SLT KECCAK256 PUSH16 0x39918EFC77A3787B36C3798D4A30C604 DUP12 0xE9 SAR MCOPY 0xCD SWAP4 PUSH23 0xFC722604CF41025664736F6C6343000818003300000000 "},"methodIdentifiers":{"TIMELOCK_DELAY()":"5ba1c1a9","UPGRADE_INTERFACE_VERSION()":"ad3cb1cc","acceptEntryPoint()":"8fc1cebd","acceptImplementation()":"15ba56e5","acceptSessionManager()":"12ca68a1","agentWallets(address)":"dfc8387a","createWallet(address)":"b054a9e8","createWallet(address,bytes32)":"b20ca818","entryPoint()":"b0d691fe","entryPointActivationTime()":"c96f03e0","getAddress(bytes32)":"21f8a721","implementation()":"5c60da1b","implementationActivationTime()":"daa09d49","initialize(address,address,address)":"c0c53b8b","isAgentWallet(address)":"bd5dee77","owner()":"8da5cb5b","pendingEntryPoint()":"07c40b3c","pendingImplementation()":"396f7b23","pendingSessionManager()":"1dab21a7","proposeEntryPoint(address)":"309cc957","proposeImplementation(address)":"9dd18c15","proposeSessionManager(address)":"03230ca6","proxiableUUID()":"52d1902d","renounceOwnership()":"715018a6","sessionManager()":"b7b13f79","sessionManagerActivationTime()":"ec4c9157","transferOwnership(address)":"f2fde38b","upgradeToAndCall(address,bytes)":"4f1ef286","walletCount()":"29b57c69"}}}}}