{"src/AgentWallet.sol":{"AgentWallet":{"abi":[{"inputs":[],"stateMutability":"nonpayable","type":"constructor"},{"inputs":[],"name":"AlreadyInitializedError","type":"error"},{"inputs":[],"name":"CallFailedError","type":"error"},{"inputs":[],"name":"ECDSAInvalidSignature","type":"error"},{"inputs":[{"internalType":"uint256","name":"length","type":"uint256"}],"name":"ECDSAInvalidSignatureLength","type":"error"},{"inputs":[{"internalType":"bytes32","name":"s","type":"bytes32"}],"name":"ECDSAInvalidSignatureS","type":"error"},{"inputs":[],"name":"ExecutionFailedError","type":"error"},{"inputs":[],"name":"FundingFailedError","type":"error"},{"inputs":[],"name":"InvalidEntryPointError","type":"error"},{"inputs":[],"name":"InvalidOwnerError","type":"error"},{"inputs":[],"name":"InvalidOwnerSignatureError","type":"error"},{"inputs":[],"name":"InvalidRecipientError","type":"error"},{"inputs":[],"name":"InvalidSessionManagerError","type":"error"},{"inputs":[],"name":"LengthMismatchError","type":"error"},{"inputs":[],"name":"LightweightSessionValidationFailedError","type":"error"},{"inputs":[],"name":"NotAuthorizedError","type":"error"},{"inputs":[],"name":"NotEntryPointError","type":"error"},{"inputs":[],"name":"NotInitializedError","type":"error"},{"inputs":[],"name":"NotOwnerError","type":"error"},{"inputs":[],"name":"OwnershipTransferPendingError","type":"error"},{"inputs":[],"name":"ReentrancyGuardReentrantCall","type":"error"},{"inputs":[],"name":"SelectorNotWhitelistedError","type":"error"},{"inputs":[],"name":"SessionValidationFailedError","type":"error"},{"inputs":[],"name":"UnsupportedCallDataError","type":"error"},{"anonymous":false,"inputs":[{"indexed":true,"internalType":"address","name":"caller","type":"address"},{"indexed":false,"internalType":"uint256","name":"callCount","type":"uint256"},{"indexed":false,"internalType":"uint256","name":"totalValue","type":"uint256"}],"name":"BatchExecutionPerformed","type":"event"},{"anonymous":false,"inputs":[{"indexed":false,"internalType":"uint256","name":"amount","type":"uint256"},{"indexed":false,"internalType":"uint256","name":"newBalance","type":"uint256"}],"name":"EntryPointDepositAdded","type":"event"},{"anonymous":false,"inputs":[{"indexed":true,"internalType":"address","name":"recipient","type":"address"},{"indexed":false,"internalType":"uint256","name":"amount","type":"uint256"}],"name":"EntryPointWithdrawal","type":"event"},{"anonymous":false,"inputs":[{"indexed":true,"internalType":"address","name":"caller","type":"address"},{"indexed":true,"internalType":"address","name":"target","type":"address"},{"indexed":false,"internalType":"uint256","name":"value","type":"uint256"},{"indexed":false,"internalType":"bytes32","name":"dataHash","type":"bytes32"}],"name":"ExecutionPerformed","type":"event"},{"anonymous":false,"inputs":[{"indexed":true,"internalType":"address","name":"oldOwner","type":"address"},{"indexed":true,"internalType":"address","name":"newOwner","type":"address"}],"name":"OwnerChanged","type":"event"},{"anonymous":false,"inputs":[{"indexed":true,"internalType":"address","name":"previousOwner","type":"address"},{"indexed":true,"internalType":"address","name":"newOwner","type":"address"}],"name":"OwnershipTransferStarted","type":"event"},{"anonymous":false,"inputs":[{"indexed":true,"internalType":"bytes32","name":"userOpHash","type":"bytes32"},{"indexed":true,"internalType":"address","name":"signer","type":"address"},{"indexed":true,"internalType":"bytes32","name":"sessionId","type":"bytes32"},{"indexed":false,"internalType":"uint256","name":"value","type":"uint256"}],"name":"UserOperationValidated","type":"event"},{"anonymous":false,"inputs":[{"indexed":true,"internalType":"address","name":"owner","type":"address"},{"indexed":true,"internalType":"address","name":"sessionManager","type":"address"},{"indexed":true,"internalType":"address","name":"entryPoint","type":"address"}],"name":"WalletInitialized","type":"event"},{"anonymous":false,"inputs":[{"indexed":true,"internalType":"address","name":"party","type":"address"},{"indexed":false,"internalType":"bool","name":"status","type":"bool"}],"name":"WhiteListUpdated","type":"event"},{"inputs":[],"name":"acceptOwnership","outputs":[],"stateMutability":"nonpayable","type":"function"},{"inputs":[],"name":"addDeposit","outputs":[],"stateMutability":"payable","type":"function"},{"inputs":[{"internalType":"address","name":"newOwner","type":"address"}],"name":"changeOwner","outputs":[],"stateMutability":"nonpayable","type":"function"},{"inputs":[],"name":"checkBalance","outputs":[{"internalType":"uint256","name":"","type":"uint256"}],"stateMutability":"view","type":"function"},{"inputs":[],"name":"entryPoint","outputs":[{"internalType":"address","name":"","type":"address"}],"stateMutability":"view","type":"function"},{"inputs":[{"internalType":"address","name":"target","type":"address"},{"internalType":"uint256","name":"value","type":"uint256"},{"internalType":"bytes","name":"data","type":"bytes"}],"name":"execute","outputs":[],"stateMutability":"nonpayable","type":"function"},{"inputs":[{"internalType":"address[]","name":"targets","type":"address[]"},{"internalType":"uint256[]","name":"values","type":"uint256[]"},{"internalType":"bytes[]","name":"data","type":"bytes[]"}],"name":"executeBatch","outputs":[],"stateMutability":"nonpayable","type":"function"},{"inputs":[],"name":"getDeposit","outputs":[{"internalType":"uint256","name":"","type":"uint256"}],"stateMutability":"view","type":"function"},{"inputs":[{"internalType":"address","name":"_owner","type":"address"},{"internalType":"address","name":"_sessionManager","type":"address"},{"internalType":"address","name":"_entryPoint","type":"address"}],"name":"initialize","outputs":[],"stateMutability":"nonpayable","type":"function"},{"inputs":[],"name":"owner","outputs":[{"internalType":"address","name":"","type":"address"}],"stateMutability":"view","type":"function"},{"inputs":[],"name":"pendingOwner","outputs":[{"internalType":"address","name":"","type":"address"}],"stateMutability":"view","type":"function"},{"inputs":[],"name":"sessionManager","outputs":[{"internalType":"address","name":"","type":"address"}],"stateMutability":"view","type":"function"},{"inputs":[{"internalType":"address","name":"_entryPoint","type":"address"}],"name":"setEntryPoint","outputs":[],"stateMutability":"nonpayable","type":"function"},{"inputs":[{"internalType":"address","name":"_sessionManager","type":"address"}],"name":"setSessionManager","outputs":[],"stateMutability":"nonpayable","type":"function"},{"inputs":[{"internalType":"address","name":"party","type":"address"},{"internalType":"bool","name":"status","type":"bool"}],"name":"setWhiteListedParty","outputs":[],"stateMutability":"nonpayable","type":"function"},{"inputs":[{"internalType":"address[]","name":"parties","type":"address[]"},{"internalType":"bool[]","name":"statuses","type":"bool[]"}],"name":"setWhiteListedPartyBatch","outputs":[],"stateMutability":"nonpayable","type":"function"},{"inputs":[{"components":[{"internalType":"address","name":"sender","type":"address"},{"internalType":"uint256","name":"nonce","type":"uint256"},{"internalType":"bytes","name":"initCode","type":"bytes"},{"internalType":"bytes","name":"callData","type":"bytes"},{"internalType":"bytes32","name":"accountGasLimits","type":"bytes32"},{"internalType":"uint256","name":"preVerificationGas","type":"uint256"},{"internalType":"bytes32","name":"gasFees","type":"bytes32"},{"internalType":"bytes","name":"paymasterAndData","type":"bytes"},{"internalType":"bytes","name":"signature","type":"bytes"}],"internalType":"struct PackedUserOperation","name":"userOp","type":"tuple"},{"internalType":"bytes32","name":"userOpHash","type":"bytes32"},{"internalType":"uint256","name":"missingAccountFunds","type":"uint256"}],"name":"validateUserOp","outputs":[{"internalType":"uint256","name":"validationData","type":"uint256"}],"stateMutability":"nonpayable","type":"function"},{"inputs":[{"internalType":"address","name":"","type":"address"}],"name":"whiteListedParties","outputs":[{"internalType":"bool","name":"","type":"bool"}],"stateMutability":"view","type":"function"},{"inputs":[{"internalType":"address payable","name":"recipient","type":"address"},{"internalType":"uint256","name":"amount","type":"uint256"}],"name":"withdrawDepositTo","outputs":[],"stateMutability":"nonpayable","type":"function"},{"stateMutability":"payable","type":"receive"}],"evm":{"bytecode":{"linkReferences":{},"object":"60808060405234610028576001600055600160ff1960065416176006556116e9908161002e8239f35b600080fdfe608080604052600436101561001d575b50361561001b57600080fd5b005b600090813560e01c90816319822f7c14610c965750806347e1da2a14610aa45780634a58db19146109935780634d44560d146108be578063584465f214610867578063674f0abd1461081057806379ba5097146107995780638da5cb5b146107705780639f5e3ecc14610628578063a6f9dae114610590578063b0d691fe14610567578063b61d27f614610414578063b7b13f79146103eb578063b8434685146103ac578063c0c53b8b146102ad578063c399ec8814610217578063c71daccb146101fb578063e30c3978146101d25763f9c56aa60361000f57346101cf5760403660031901126101cf57610110610db0565b60243590811515908183036101cb576001546001600160a01b039190821633036101b95760ff60065416156101a75716918215610195577fb1288e9f7bae3599e10819d5553febea48e11a6f8f585b32c8abad397dd2627e9161018b60209285875260058452604087209060ff801983541691151516179055565b604051908152a280f35b604051637192f5b760e11b8152600490fd5b604051638fc8bd5960e01b8152600490fd5b6040516374a2152760e01b8152600490fd5b8380fd5b80fd5b50346101cf57806003193601126101cf576002546040516001600160a01b039091168152602090f35b50346101cf57806003193601126101cf57602047604051908152f35b50346101cf57806003193601126101cf57602490602060018060a01b0360045416604051938480926370a0823160e01b82523060048301525afa9081156102a15790610269575b602090604051908152f35b506020813d602011610299575b8161028360209383610e03565b81010312610294576020905161025e565b600080fd5b3d9150610276565b604051903d90823e3d90fd5b50346101cf5760603660031901126101cf576102c7610db0565b6001600160a01b039060243582811691908290036102945760443592808416809403610294576006549160ff831661039a571690811561038857821561037757831561036557600190846001600160601b0360a01b848185541617845585816003541617600355600454161760045560ff1916176006557f31f30195006760f9b61e7325457ca7acacfbdd7734b88a22545e264b62357fde8480a480f35b6040516392377dd560e01b8152600490fd5b60405162d9b42560e01b8152600490fd5b60405163062ef65960e21b8152600490fd5b604051630173063360e51b8152600490fd5b50346101cf5760203660031901126101cf5760209060ff906040906001600160a01b036103d7610db0565b168152600584522054166040519015158152f35b50346101cf57806003193601126101cf576003546040516001600160a01b039091168152602090f35b50346101cf5760603660031901126101cf5761042e610db0565b6024356001600160401b036044358181116105635736602382011215610563578060040135918211610563576024810190602483369201011161056357610473611268565b60ff60065416156101a7576001546001600160a01b0390811633141580610555575b61054357841693848652600560205260ff604087205416156105315785809160405185858237868187810185815203925af16104cf610e3f565b501561051f576104e0913691610f0b565b6020815191012060405191825260208201527f0e33d84651ce1cd4dc3f8e0dda3367f25aac071e622cf520436716bba196be5360403392a36001815580f35b6040516319a5546560e21b8152600490fd5b60405163b99820a560e01b8152600490fd5b6040516379b798cf60e11b8152600490fd5b508060045416331415610495565b8480fd5b50346101cf57806003193601126101cf576004546040516001600160a01b039091168152602090f35b50346101cf5760203660031901126101cf576105aa610db0565b6001546001600160a01b039190821690338290036101b95760ff60065416156101a757821691821561038857600254908116610616576001600160a01b03191682176002557f38d16b8cac22d99fc7c124b9cd0de2d3fa1faef420bfe791d8c362d765e227008380a380f35b604051632bb652d360e21b8152600490fd5b50346101cf5760403660031901126101cf576001600160401b0360043581811161076c5761065a903690600401610d80565b916024359081116101cb57610673903690600401610d80565b6001805490946001600160a01b0391821633036101b95760ff60065416156101a75782810361075a57865b8181106106a9578780f35b826106bd6106b883858a610e6f565b610e95565b161561019557806106d86106d389938789610e6f565b610efe565b846106e76106b884878c610e6f565b168a526107096020916005835260408c209060ff801983541691151516179055565b7fb1288e9f7bae3599e10819d5553febea48e11a6f8f585b32c8abad397dd2627e6107386106b884878c610e6f565b91866107486106d3868b8d610e6f565b9360405194151585521692a20161069e565b604051637736a16d60e01b8152600490fd5b8280fd5b50346101cf57806003193601126101cf576001546040516001600160a01b039091168152602090f35b50346101cf57806003193601126101cf5760ff60065416156101a7576002546001600160a01b038082163381900361054357600154926001600160601b0360a01b9182851617600155166002553391167fb532073b38c83145e3e5135377a08bf9aab55bc0fd7c1179cd4fb995d2a5159c8380a380f35b50346101cf5760203660031901126101cf5761082a610db0565b6001546001600160a01b039190821633036101b95760ff60065416156101a757168015610377576001600160601b0360a01b600354161760035580f35b50346101cf5760203660031901126101cf57610881610db0565b6001546001600160a01b039190821633036101b95760ff60065416156101a757168015610365576001600160601b0360a01b600454161760045580f35b50346101cf5760403660031901126101cf576108d8610db0565b6001546001600160a01b039160243591831633036101b95760ff60065416156101a757821691821561019557839060045416803b1561098f5781809160446040518094819363040b850f60e31b83528960048401528860248401525af1801561098457610970575b505060207fcae8414aeb02c2a7a7089c22ed61def4882bf260298b39ff6ba047ef80a2f37991604051908152a280f35b61097990610dda565b61076c578238610940565b6040513d84823e3d90fd5b5080fd5b50806003193601126101cf5760ff60065416156101a7576004546001600160a01b0390811682813b156101cf5760405163b760faf960e01b8152306004820152918290602490829034905af18015610a9957610a82575b50602060249160045416604051928380926370a0823160e01b82523060048301525afa908115610984578291610a4f575b5060407f4936e4683983dc3b8afb17c6844af8a193b8bdc330595d260421c7e84ebf683e918151903482526020820152a180f35b90506020813d602011610a7a575b81610a6a60209383610e03565b8101031261029457516040610a1b565b3d9150610a5d565b60249192610a91602092610dda565b9291506109ea565b6040513d85823e3d90fd5b50346101cf5760603660031901126101cf576001600160401b0360043581811161076c57610ad6903690600401610d80565b91602490602435818111610c9257610af2903690600401610d80565b91604435908111610c8e57610b0b903690600401610d80565b90610b14611268565b60ff60065416156101a75760019460018060a01b036001541633141580610c79575b61054357871561075a57848814801590610c6f575b61075a57959493929190889689965b898810610b9c578a8a8a60405191825260208201527f36551ad729f069397fd12c263eba2bdbdb0e999953df151620e1ec9edd8f2aaf60403392a26001815580f35b909192939495969760018060a01b03610bb96106b88b8d86610e6f565b168b52600560205260ff60408c2054161561053157610be490610bdd8a8989610e6f565b3590610ea9565b97610bf36106b8828c85610e6f565b610bfe828989610e6f565b3586831015610c5c578c918291610c1a8560051b890189610ecc565b9190826040519384928337810185815203925af1610c36610e3f565b5015610c4a57870196959493929190610b5a565b60405163ec98ced760e01b8152600490fd5b634e487b7160e01b8d526032600452848dfd5b5082851415610b4b565b506004546001600160a01b0316331415610b36565b8680fd5b8580fd5b82346101cf5760031960603682011261098f57600435906001600160401b03821161076c5761012090823603011261098f5760045460243593604435926001600160a01b039290919083163303610d71575060ff60065416156101a75784610d0091600401610f78565b959192909380610d43575b5060207f3beba097c09c235465df7c6857b74b6435ffb77e2cb08a8f714156c35da603739181976040519586521693a4604051908152f35b8580808093335af1610d53610e3f565b5015610d5f5786610d0b565b60405163323e69dd60e11b8152600490fd5b63f02946ad60e01b8152600490fd5b9181601f84011215610294578235916001600160401b038311610294576020808501948460051b01011161029457565b600435906001600160a01b038216820361029457565b35906001600160a01b038216820361029457565b6001600160401b038111610ded57604052565b634e487b7160e01b600052604160045260246000fd5b90601f801991011681019081106001600160401b03821117610ded57604052565b6001600160401b038111610ded57601f01601f191660200190565b3d15610e6a573d90610e5082610e24565b91610e5e6040519384610e03565b82523d6000602084013e565b606090565b9190811015610e7f5760051b0190565b634e487b7160e01b600052603260045260246000fd5b356001600160a01b03811681036102945790565b91908201809211610eb657565b634e487b7160e01b600052601160045260246000fd5b903590601e198136030182121561029457018035906001600160401b0382116102945760200191813603831361029457565b3580151581036102945790565b929192610f1782610e24565b91610f256040519384610e03565b829481845281830111610294578281602093846000960137010152565b9080601f8301121561029457816020610f5d93359101610f0b565b90565b90816020910312610294575180151581036102945790565b919091610f91610f8b6060830183610ecc565b906112b6565b916000937f19457468657265756d205369676e6564204d6573736167653a0a3332000000008552601c52603c8420916101008101906041610fd28383610ecc565b90501461120f5790610fe391610ecc565b81019460409081838803126101cf5782359260209081810135906001600160401b0382116101cb5761102f9798996110269261101f9201610f42565b859861156e565b909791976115aa565b600354835163c7cdfc0160e01b8152600480820187905295889290916001600160a01b03918216908581602481855afa90811561120557908d96959493929188916111bf575b5060ff1660018103611122575050600354875163f545b88b60e01b81528981019384526001600160a01b0394909416602084015260408301959095529193839285928390036060019183918891165af192831561111757926110ea575b5050156110dd575050565b5163b02726e560e01b8152fd5b6111099250803d10611110575b6111018183610e03565b810190610f60565b38806110d2565b503d6110f7565b8451903d90823e3d90fd5b915092939450156000146111af57855163370d79f560e21b81528088019182526001600160a01b039093166020820152604081018b90529192918291849182908790829060600103925af19283156111175792611192575b505015611185575050565b5163e00e6a2560e01b8152fd5b6111a89250803d10611110576111018183610e03565b388061117a565b855163e00e6a2560e01b81528790fd5b8680985081939495969792503d83116111fe575b6111dd8183610e03565b81010312610c8e575160ff81168103610c8e578c95949392919060ff611075565b503d6111d3565b88513d89823e3d90fd5b9261122c6112256112329361123b979596610ecc565b3691610f0b565b9061156e565b909491946115aa565b6001546001600160a01b039081169084160361125657929190565b6040516391fad51160e01b8152600490fd5b600260005414611279576002600055565b604051633ee5aeb560e01b8152600490fd5b6001600160401b038111610ded5760051b60200190565b8051821015610e7f5760209160051b010190565b9091600091600060049480861161098f5782356001600160e01b031916635b0e93fb60e11b811461151e576323f0ed1560e11b146112ff57604051630141e84160e01b81528690fd5b82939495920190606060031985840301126101cf576001600160401b038484013581811161076c5785018360238201121561076c57848101359160246113448461128b565b9160409661135488519485610e03565b8584526020948585018460059860051b830101918383116114e65785889101915b8383106115065750505050828a01358281116114ea578a01998160238c0112156114ea57898b01359a6113a78c61128b565b9b85888c519e8f906113b99082610e03565b838152019160051b830101918483116115025786899101915b8383106114f257505050506044810135908382116114ee570192816023850112156114ea57898401359281876114078661128b565b6114138d519182610e03565b868152019460051b860101948386116114e657828101945b8686106114bd575050505050505080518751036114ad5783985b81518a10156114a2576001600160a01b036114608b846112a2565b5116855283835260ff8686205416156114925761148a6001916114838c8b6112a2565b5190610ea9565b990198611445565b855163b99820a560e01b81528790fd5b985050505050505050565b8451637736a16d60e01b81528690fd5b85358381116114e25789916114d787878594870101610f42565b81520195019461142b565b8b80fd5b8980fd5b8780fd5b8880fd5b82358152918101918991016113d2565b8a80fd5b819061151184610dc6565b8152019101908790611375565b50929491935091830191606084840360031901126101cf57611541828501610dc6565b506044840135906001600160401b0382116101cf5750916115689184936024950101610f42565b50013590565b815191906041830361159f5761159892506020820151906060604084015193015160001a9061162f565b9192909190565b505060009160029190565b600481101561161957806115bc575050565b600181036115d65760405163f645eedf60e01b8152600490fd5b600281036115f75760405163fce698f760e01b815260048101839052602490fd5b6003146116015750565b602490604051906335e2f38360e21b82526004820152fd5b634e487b7160e01b600052602160045260246000fd5b91907f7fffffffffffffffffffffffffffffff5d576e7357a4501ddfe92f46681b20a084116116a757926020929160ff608095604051948552168484015260408301526060820152600092839182805260015afa156102a15780516001600160a01b0381161561169e57918190565b50809160019190565b5050506000916003919056fea26469706673582212207edc0e113a1f7dc4626e2de6cab866e31d74f9bb9f49ff2856e370878e0022a364736f6c63430008180033","opcodes":"PUSH1 0x80 DUP1 PUSH1 0x40 MSTORE CALLVALUE PUSH2 0x28 JUMPI PUSH1 0x1 PUSH1 0x0 SSTORE PUSH1 0x1 PUSH1 0xFF NOT PUSH1 0x6 SLOAD AND OR PUSH1 0x6 SSTORE PUSH2 0x16E9 SWAP1 DUP2 PUSH2 0x2E DUP3 CODECOPY RETURN JUMPDEST PUSH1 0x0 DUP1 REVERT INVALID PUSH1 0x80 DUP1 PUSH1 0x40 MSTORE PUSH1 0x4 CALLDATASIZE LT ISZERO PUSH2 0x1D JUMPI JUMPDEST POP CALLDATASIZE ISZERO PUSH2 0x1B JUMPI PUSH1 0x0 DUP1 REVERT JUMPDEST STOP JUMPDEST PUSH1 0x0 SWAP1 DUP2 CALLDATALOAD PUSH1 0xE0 SHR SWAP1 DUP2 PUSH4 0x19822F7C EQ PUSH2 0xC96 JUMPI POP DUP1 PUSH4 0x47E1DA2A EQ PUSH2 0xAA4 JUMPI DUP1 PUSH4 0x4A58DB19 EQ PUSH2 0x993 JUMPI DUP1 PUSH4 0x4D44560D EQ PUSH2 0x8BE JUMPI DUP1 PUSH4 0x584465F2 EQ PUSH2 0x867 JUMPI DUP1 PUSH4 0x674F0ABD EQ PUSH2 0x810 JUMPI DUP1 PUSH4 0x79BA5097 EQ PUSH2 0x799 JUMPI DUP1 PUSH4 0x8DA5CB5B EQ PUSH2 0x770 JUMPI DUP1 PUSH4 0x9F5E3ECC EQ PUSH2 0x628 JUMPI DUP1 PUSH4 0xA6F9DAE1 EQ PUSH2 0x590 JUMPI DUP1 PUSH4 0xB0D691FE EQ PUSH2 0x567 JUMPI DUP1 PUSH4 0xB61D27F6 EQ PUSH2 0x414 JUMPI DUP1 PUSH4 0xB7B13F79 EQ PUSH2 0x3EB JUMPI DUP1 PUSH4 0xB8434685 EQ PUSH2 0x3AC JUMPI DUP1 PUSH4 0xC0C53B8B EQ PUSH2 0x2AD JUMPI DUP1 PUSH4 0xC399EC88 EQ PUSH2 0x217 JUMPI DUP1 PUSH4 0xC71DACCB EQ PUSH2 0x1FB JUMPI DUP1 PUSH4 0xE30C3978 EQ PUSH2 0x1D2 JUMPI PUSH4 0xF9C56AA6 SUB PUSH2 0xF JUMPI CALLVALUE PUSH2 0x1CF JUMPI PUSH1 0x40 CALLDATASIZE PUSH1 0x3 NOT ADD SLT PUSH2 0x1CF JUMPI PUSH2 0x110 PUSH2 0xDB0 JUMP JUMPDEST PUSH1 0x24 CALLDATALOAD SWAP1 DUP2 ISZERO ISZERO SWAP1 DUP2 DUP4 SUB PUSH2 0x1CB JUMPI PUSH1 0x1 SLOAD PUSH1 0x1 PUSH1 0x1 PUSH1 0xA0 SHL SUB SWAP2 SWAP1 DUP3 AND CALLER SUB PUSH2 0x1B9 JUMPI PUSH1 0xFF PUSH1 0x6 SLOAD AND ISZERO PUSH2 0x1A7 JUMPI AND SWAP2 DUP3 ISZERO PUSH2 0x195 JUMPI PUSH32 0xB1288E9F7BAE3599E10819D5553FEBEA48E11A6F8F585B32C8ABAD397DD2627E SWAP2 PUSH2 0x18B PUSH1 0x20 SWAP3 DUP6 DUP8 MSTORE PUSH1 0x5 DUP5 MSTORE PUSH1 0x40 DUP8 KECCAK256 SWAP1 PUSH1 0xFF DUP1 NOT DUP4 SLOAD AND SWAP2 ISZERO ISZERO AND OR SWAP1 SSTORE JUMP JUMPDEST PUSH1 0x40 MLOAD SWAP1 DUP2 MSTORE LOG2 DUP1 RETURN JUMPDEST PUSH1 0x40 MLOAD PUSH4 0x7192F5B7 PUSH1 0xE1 SHL DUP2 MSTORE PUSH1 0x4 SWAP1 REVERT JUMPDEST PUSH1 0x40 MLOAD PUSH4 0x8FC8BD59 PUSH1 0xE0 SHL DUP2 MSTORE PUSH1 0x4 SWAP1 REVERT JUMPDEST PUSH1 0x40 MLOAD PUSH4 0x74A21527 PUSH1 0xE0 SHL DUP2 MSTORE PUSH1 0x4 SWAP1 REVERT JUMPDEST DUP4 DUP1 REVERT JUMPDEST DUP1 REVERT JUMPDEST POP CALLVALUE PUSH2 0x1CF JUMPI DUP1 PUSH1 0x3 NOT CALLDATASIZE ADD SLT PUSH2 0x1CF JUMPI PUSH1 0x2 SLOAD PUSH1 0x40 MLOAD PUSH1 0x1 PUSH1 0x1 PUSH1 0xA0 SHL SUB SWAP1 SWAP2 AND DUP2 MSTORE PUSH1 0x20 SWAP1 RETURN JUMPDEST POP CALLVALUE PUSH2 0x1CF JUMPI DUP1 PUSH1 0x3 NOT CALLDATASIZE ADD SLT PUSH2 0x1CF JUMPI PUSH1 0x20 SELFBALANCE PUSH1 0x40 MLOAD SWAP1 DUP2 MSTORE RETURN JUMPDEST POP CALLVALUE PUSH2 0x1CF JUMPI DUP1 PUSH1 0x3 NOT CALLDATASIZE ADD SLT PUSH2 0x1CF JUMPI PUSH1 0x24 SWAP1 PUSH1 0x20 PUSH1 0x1 DUP1 PUSH1 0xA0 SHL SUB PUSH1 0x4 SLOAD AND PUSH1 0x40 MLOAD SWAP4 DUP5 DUP1 SWAP3 PUSH4 0x70A08231 PUSH1 0xE0 SHL DUP3 MSTORE ADDRESS PUSH1 0x4 DUP4 ADD MSTORE GAS STATICCALL SWAP1 DUP2 ISZERO PUSH2 0x2A1 JUMPI SWAP1 PUSH2 0x269 JUMPI JUMPDEST PUSH1 0x20 SWAP1 PUSH1 0x40 MLOAD SWAP1 DUP2 MSTORE RETURN JUMPDEST POP PUSH1 0x20 DUP2 RETURNDATASIZE PUSH1 0x20 GT PUSH2 0x299 JUMPI JUMPDEST DUP2 PUSH2 0x283 PUSH1 0x20 SWAP4 DUP4 PUSH2 0xE03 JUMP JUMPDEST DUP2 ADD SUB SLT PUSH2 0x294 JUMPI PUSH1 0x20 SWAP1 MLOAD PUSH2 0x25E JUMP JUMPDEST PUSH1 0x0 DUP1 REVERT JUMPDEST RETURNDATASIZE SWAP2 POP PUSH2 0x276 JUMP JUMPDEST PUSH1 0x40 MLOAD SWAP1 RETURNDATASIZE SWAP1 DUP3 RETURNDATACOPY RETURNDATASIZE SWAP1 REVERT JUMPDEST POP CALLVALUE PUSH2 0x1CF JUMPI PUSH1 0x60 CALLDATASIZE PUSH1 0x3 NOT ADD SLT PUSH2 0x1CF JUMPI PUSH2 0x2C7 PUSH2 0xDB0 JUMP JUMPDEST PUSH1 0x1 PUSH1 0x1 PUSH1 0xA0 SHL SUB SWAP1 PUSH1 0x24 CALLDATALOAD DUP3 DUP2 AND SWAP2 SWAP1 DUP3 SWAP1 SUB PUSH2 0x294 JUMPI PUSH1 0x44 CALLDATALOAD SWAP3 DUP1 DUP5 AND DUP1 SWAP5 SUB PUSH2 0x294 JUMPI PUSH1 0x6 SLOAD SWAP2 PUSH1 0xFF DUP4 AND PUSH2 0x39A JUMPI AND SWAP1 DUP2 ISZERO PUSH2 0x388 JUMPI DUP3 ISZERO PUSH2 0x377 JUMPI DUP4 ISZERO PUSH2 0x365 JUMPI PUSH1 0x1 SWAP1 DUP5 PUSH1 0x1 PUSH1 0x1 PUSH1 0x60 SHL SUB PUSH1 0xA0 SHL DUP5 DUP2 DUP6 SLOAD AND OR DUP5 SSTORE DUP6 DUP2 PUSH1 0x3 SLOAD AND OR PUSH1 0x3 SSTORE PUSH1 0x4 SLOAD AND OR PUSH1 0x4 SSTORE PUSH1 0xFF NOT AND OR PUSH1 0x6 SSTORE PUSH32 0x31F30195006760F9B61E7325457CA7ACACFBDD7734B88A22545E264B62357FDE DUP5 DUP1 LOG4 DUP1 RETURN JUMPDEST PUSH1 0x40 MLOAD PUSH4 0x92377DD5 PUSH1 0xE0 SHL DUP2 MSTORE PUSH1 0x4 SWAP1 REVERT JUMPDEST PUSH1 0x40 MLOAD PUSH3 0xD9B425 PUSH1 0xE0 SHL DUP2 MSTORE PUSH1 0x4 SWAP1 REVERT JUMPDEST PUSH1 0x40 MLOAD PUSH4 0x62EF659 PUSH1 0xE2 SHL DUP2 MSTORE PUSH1 0x4 SWAP1 REVERT JUMPDEST PUSH1 0x40 MLOAD PUSH4 0x1730633 PUSH1 0xE5 SHL DUP2 MSTORE PUSH1 0x4 SWAP1 REVERT JUMPDEST POP CALLVALUE PUSH2 0x1CF JUMPI PUSH1 0x20 CALLDATASIZE PUSH1 0x3 NOT ADD SLT PUSH2 0x1CF JUMPI PUSH1 0x20 SWAP1 PUSH1 0xFF SWAP1 PUSH1 0x40 SWAP1 PUSH1 0x1 PUSH1 0x1 PUSH1 0xA0 SHL SUB PUSH2 0x3D7 PUSH2 0xDB0 JUMP JUMPDEST AND DUP2 MSTORE PUSH1 0x5 DUP5 MSTORE KECCAK256 SLOAD AND PUSH1 0x40 MLOAD SWAP1 ISZERO ISZERO DUP2 MSTORE RETURN JUMPDEST POP CALLVALUE PUSH2 0x1CF JUMPI DUP1 PUSH1 0x3 NOT CALLDATASIZE ADD SLT PUSH2 0x1CF JUMPI PUSH1 0x3 SLOAD PUSH1 0x40 MLOAD PUSH1 0x1 PUSH1 0x1 PUSH1 0xA0 SHL SUB SWAP1 SWAP2 AND DUP2 MSTORE PUSH1 0x20 SWAP1 RETURN JUMPDEST POP CALLVALUE PUSH2 0x1CF JUMPI PUSH1 0x60 CALLDATASIZE PUSH1 0x3 NOT ADD SLT PUSH2 0x1CF JUMPI PUSH2 0x42E PUSH2 0xDB0 JUMP JUMPDEST PUSH1 0x24 CALLDATALOAD PUSH1 0x1 PUSH1 0x1 PUSH1 0x40 SHL SUB PUSH1 0x44 CALLDATALOAD DUP2 DUP2 GT PUSH2 0x563 JUMPI CALLDATASIZE PUSH1 0x23 DUP3 ADD SLT ISZERO PUSH2 0x563 JUMPI DUP1 PUSH1 0x4 ADD CALLDATALOAD SWAP2 DUP3 GT PUSH2 0x563 JUMPI PUSH1 0x24 DUP2 ADD SWAP1 PUSH1 0x24 DUP4 CALLDATASIZE SWAP3 ADD ADD GT PUSH2 0x563 JUMPI PUSH2 0x473 PUSH2 0x1268 JUMP JUMPDEST PUSH1 0xFF PUSH1 0x6 SLOAD AND ISZERO PUSH2 0x1A7 JUMPI PUSH1 0x1 SLOAD PUSH1 0x1 PUSH1 0x1 PUSH1 0xA0 SHL SUB SWAP1 DUP2 AND CALLER EQ ISZERO DUP1 PUSH2 0x555 JUMPI JUMPDEST PUSH2 0x543 JUMPI DUP5 AND SWAP4 DUP5 DUP7 MSTORE PUSH1 0x5 PUSH1 0x20 MSTORE PUSH1 0xFF PUSH1 0x40 DUP8 KECCAK256 SLOAD AND ISZERO PUSH2 0x531 JUMPI DUP6 DUP1 SWAP2 PUSH1 0x40 MLOAD DUP6 DUP6 DUP3 CALLDATACOPY DUP7 DUP2 DUP8 DUP2 ADD DUP6 DUP2 MSTORE SUB SWAP3 GAS CALL PUSH2 0x4CF PUSH2 0xE3F JUMP JUMPDEST POP ISZERO PUSH2 0x51F JUMPI PUSH2 0x4E0 SWAP2 CALLDATASIZE SWAP2 PUSH2 0xF0B JUMP JUMPDEST PUSH1 0x20 DUP2 MLOAD SWAP2 ADD KECCAK256 PUSH1 0x40 MLOAD SWAP2 DUP3 MSTORE PUSH1 0x20 DUP3 ADD MSTORE PUSH32 0xE33D84651CE1CD4DC3F8E0DDA3367F25AAC071E622CF520436716BBA196BE53 PUSH1 0x40 CALLER SWAP3 LOG3 PUSH1 0x1 DUP2 SSTORE DUP1 RETURN JUMPDEST PUSH1 0x40 MLOAD PUSH4 0x19A55465 PUSH1 0xE2 SHL DUP2 MSTORE PUSH1 0x4 SWAP1 REVERT JUMPDEST PUSH1 0x40 MLOAD PUSH4 0xB99820A5 PUSH1 0xE0 SHL DUP2 MSTORE PUSH1 0x4 SWAP1 REVERT JUMPDEST PUSH1 0x40 MLOAD PUSH4 0x79B798CF PUSH1 0xE1 SHL DUP2 MSTORE PUSH1 0x4 SWAP1 REVERT JUMPDEST POP DUP1 PUSH1 0x4 SLOAD AND CALLER EQ ISZERO PUSH2 0x495 JUMP JUMPDEST DUP5 DUP1 REVERT JUMPDEST POP CALLVALUE PUSH2 0x1CF JUMPI DUP1 PUSH1 0x3 NOT CALLDATASIZE ADD SLT PUSH2 0x1CF JUMPI PUSH1 0x4 SLOAD PUSH1 0x40 MLOAD PUSH1 0x1 PUSH1 0x1 PUSH1 0xA0 SHL SUB SWAP1 SWAP2 AND DUP2 MSTORE PUSH1 0x20 SWAP1 RETURN JUMPDEST POP CALLVALUE PUSH2 0x1CF JUMPI PUSH1 0x20 CALLDATASIZE PUSH1 0x3 NOT ADD SLT PUSH2 0x1CF JUMPI PUSH2 0x5AA PUSH2 0xDB0 JUMP JUMPDEST PUSH1 0x1 SLOAD PUSH1 0x1 PUSH1 0x1 PUSH1 0xA0 SHL SUB SWAP2 SWAP1 DUP3 AND SWAP1 CALLER DUP3 SWAP1 SUB PUSH2 0x1B9 JUMPI PUSH1 0xFF PUSH1 0x6 SLOAD AND ISZERO PUSH2 0x1A7 JUMPI DUP3 AND SWAP2 DUP3 ISZERO PUSH2 0x388 JUMPI PUSH1 0x2 SLOAD SWAP1 DUP2 AND PUSH2 0x616 JUMPI PUSH1 0x1 PUSH1 0x1 PUSH1 0xA0 SHL SUB NOT AND DUP3 OR PUSH1 0x2 SSTORE PUSH32 0x38D16B8CAC22D99FC7C124B9CD0DE2D3FA1FAEF420BFE791D8C362D765E22700 DUP4 DUP1 LOG3 DUP1 RETURN JUMPDEST PUSH1 0x40 MLOAD PUSH4 0x2BB652D3 PUSH1 0xE2 SHL DUP2 MSTORE PUSH1 0x4 SWAP1 REVERT JUMPDEST POP CALLVALUE PUSH2 0x1CF JUMPI PUSH1 0x40 CALLDATASIZE PUSH1 0x3 NOT ADD SLT PUSH2 0x1CF JUMPI PUSH1 0x1 PUSH1 0x1 PUSH1 0x40 SHL SUB PUSH1 0x4 CALLDATALOAD DUP2 DUP2 GT PUSH2 0x76C JUMPI PUSH2 0x65A SWAP1 CALLDATASIZE SWAP1 PUSH1 0x4 ADD PUSH2 0xD80 JUMP JUMPDEST SWAP2 PUSH1 0x24 CALLDATALOAD SWAP1 DUP2 GT PUSH2 0x1CB JUMPI PUSH2 0x673 SWAP1 CALLDATASIZE SWAP1 PUSH1 0x4 ADD PUSH2 0xD80 JUMP JUMPDEST PUSH1 0x1 DUP1 SLOAD SWAP1 SWAP5 PUSH1 0x1 PUSH1 0x1 PUSH1 0xA0 SHL SUB SWAP2 DUP3 AND CALLER SUB PUSH2 0x1B9 JUMPI PUSH1 0xFF PUSH1 0x6 SLOAD AND ISZERO PUSH2 0x1A7 JUMPI DUP3 DUP2 SUB PUSH2 0x75A JUMPI DUP7 JUMPDEST DUP2 DUP2 LT PUSH2 0x6A9 JUMPI DUP8 DUP1 RETURN JUMPDEST DUP3 PUSH2 0x6BD PUSH2 0x6B8 DUP4 DUP6 DUP11 PUSH2 0xE6F JUMP JUMPDEST PUSH2 0xE95 JUMP JUMPDEST AND ISZERO PUSH2 0x195 JUMPI DUP1 PUSH2 0x6D8 PUSH2 0x6D3 DUP10 SWAP4 DUP8 DUP10 PUSH2 0xE6F JUMP JUMPDEST PUSH2 0xEFE JUMP JUMPDEST DUP5 PUSH2 0x6E7 PUSH2 0x6B8 DUP5 DUP8 DUP13 PUSH2 0xE6F JUMP JUMPDEST AND DUP11 MSTORE PUSH2 0x709 PUSH1 0x20 SWAP2 PUSH1 0x5 DUP4 MSTORE PUSH1 0x40 DUP13 KECCAK256 SWAP1 PUSH1 0xFF DUP1 NOT DUP4 SLOAD AND SWAP2 ISZERO ISZERO AND OR SWAP1 SSTORE JUMP JUMPDEST PUSH32 0xB1288E9F7BAE3599E10819D5553FEBEA48E11A6F8F585B32C8ABAD397DD2627E PUSH2 0x738 PUSH2 0x6B8 DUP5 DUP8 DUP13 PUSH2 0xE6F JUMP JUMPDEST SWAP2 DUP7 PUSH2 0x748 PUSH2 0x6D3 DUP7 DUP12 DUP14 PUSH2 0xE6F JUMP JUMPDEST SWAP4 PUSH1 0x40 MLOAD SWAP5 ISZERO ISZERO DUP6 MSTORE AND SWAP3 LOG2 ADD PUSH2 0x69E JUMP JUMPDEST PUSH1 0x40 MLOAD PUSH4 0x7736A16D PUSH1 0xE0 SHL DUP2 MSTORE PUSH1 0x4 SWAP1 REVERT JUMPDEST DUP3 DUP1 REVERT JUMPDEST POP CALLVALUE PUSH2 0x1CF JUMPI DUP1 PUSH1 0x3 NOT CALLDATASIZE ADD SLT PUSH2 0x1CF JUMPI PUSH1 0x1 SLOAD PUSH1 0x40 MLOAD PUSH1 0x1 PUSH1 0x1 PUSH1 0xA0 SHL SUB SWAP1 SWAP2 AND DUP2 MSTORE PUSH1 0x20 SWAP1 RETURN JUMPDEST POP CALLVALUE PUSH2 0x1CF JUMPI DUP1 PUSH1 0x3 NOT CALLDATASIZE ADD SLT PUSH2 0x1CF JUMPI PUSH1 0xFF PUSH1 0x6 SLOAD AND ISZERO PUSH2 0x1A7 JUMPI PUSH1 0x2 SLOAD PUSH1 0x1 PUSH1 0x1 PUSH1 0xA0 SHL SUB DUP1 DUP3 AND CALLER DUP2 SWAP1 SUB PUSH2 0x543 JUMPI PUSH1 0x1 SLOAD SWAP3 PUSH1 0x1 PUSH1 0x1 PUSH1 0x60 SHL SUB PUSH1 0xA0 SHL SWAP2 DUP3 DUP6 AND OR PUSH1 0x1 SSTORE AND PUSH1 0x2 SSTORE CALLER SWAP2 AND PUSH32 0xB532073B38C83145E3E5135377A08BF9AAB55BC0FD7C1179CD4FB995D2A5159C DUP4 DUP1 LOG3 DUP1 RETURN JUMPDEST POP CALLVALUE PUSH2 0x1CF JUMPI PUSH1 0x20 CALLDATASIZE PUSH1 0x3 NOT ADD SLT PUSH2 0x1CF JUMPI PUSH2 0x82A PUSH2 0xDB0 JUMP JUMPDEST PUSH1 0x1 SLOAD PUSH1 0x1 PUSH1 0x1 PUSH1 0xA0 SHL SUB SWAP2 SWAP1 DUP3 AND CALLER SUB PUSH2 0x1B9 JUMPI PUSH1 0xFF PUSH1 0x6 SLOAD AND ISZERO PUSH2 0x1A7 JUMPI AND DUP1 ISZERO PUSH2 0x377 JUMPI PUSH1 0x1 PUSH1 0x1 PUSH1 0x60 SHL SUB PUSH1 0xA0 SHL PUSH1 0x3 SLOAD AND OR PUSH1 0x3 SSTORE DUP1 RETURN JUMPDEST POP CALLVALUE PUSH2 0x1CF JUMPI PUSH1 0x20 CALLDATASIZE PUSH1 0x3 NOT ADD SLT PUSH2 0x1CF JUMPI PUSH2 0x881 PUSH2 0xDB0 JUMP JUMPDEST PUSH1 0x1 SLOAD PUSH1 0x1 PUSH1 0x1 PUSH1 0xA0 SHL SUB SWAP2 SWAP1 DUP3 AND CALLER SUB PUSH2 0x1B9 JUMPI PUSH1 0xFF PUSH1 0x6 SLOAD AND ISZERO PUSH2 0x1A7 JUMPI AND DUP1 ISZERO PUSH2 0x365 JUMPI PUSH1 0x1 PUSH1 0x1 PUSH1 0x60 SHL SUB PUSH1 0xA0 SHL PUSH1 0x4 SLOAD AND OR PUSH1 0x4 SSTORE DUP1 RETURN JUMPDEST POP CALLVALUE PUSH2 0x1CF JUMPI PUSH1 0x40 CALLDATASIZE PUSH1 0x3 NOT ADD SLT PUSH2 0x1CF JUMPI PUSH2 0x8D8 PUSH2 0xDB0 JUMP JUMPDEST PUSH1 0x1 SLOAD PUSH1 0x1 PUSH1 0x1 PUSH1 0xA0 SHL SUB SWAP2 PUSH1 0x24 CALLDATALOAD SWAP2 DUP4 AND CALLER SUB PUSH2 0x1B9 JUMPI PUSH1 0xFF PUSH1 0x6 SLOAD AND ISZERO PUSH2 0x1A7 JUMPI DUP3 AND SWAP2 DUP3 ISZERO PUSH2 0x195 JUMPI DUP4 SWAP1 PUSH1 0x4 SLOAD AND DUP1 EXTCODESIZE ISZERO PUSH2 0x98F JUMPI DUP2 DUP1 SWAP2 PUSH1 0x44 PUSH1 0x40 MLOAD DUP1 SWAP5 DUP2 SWAP4 PUSH4 0x40B850F PUSH1 0xE3 SHL DUP4 MSTORE DUP10 PUSH1 0x4 DUP5 ADD MSTORE DUP9 PUSH1 0x24 DUP5 ADD MSTORE GAS CALL DUP1 ISZERO PUSH2 0x984 JUMPI PUSH2 0x970 JUMPI JUMPDEST POP POP PUSH1 0x20 PUSH32 0xCAE8414AEB02C2A7A7089C22ED61DEF4882BF260298B39FF6BA047EF80A2F379 SWAP2 PUSH1 0x40 MLOAD SWAP1 DUP2 MSTORE LOG2 DUP1 RETURN JUMPDEST PUSH2 0x979 SWAP1 PUSH2 0xDDA JUMP JUMPDEST PUSH2 0x76C JUMPI DUP3 CODESIZE PUSH2 0x940 JUMP JUMPDEST PUSH1 0x40 MLOAD RETURNDATASIZE DUP5 DUP3 RETURNDATACOPY RETURNDATASIZE SWAP1 REVERT JUMPDEST POP DUP1 REVERT JUMPDEST POP DUP1 PUSH1 0x3 NOT CALLDATASIZE ADD SLT PUSH2 0x1CF JUMPI PUSH1 0xFF PUSH1 0x6 SLOAD AND ISZERO PUSH2 0x1A7 JUMPI PUSH1 0x4 SLOAD PUSH1 0x1 PUSH1 0x1 PUSH1 0xA0 SHL SUB SWAP1 DUP2 AND DUP3 DUP2 EXTCODESIZE ISZERO PUSH2 0x1CF JUMPI PUSH1 0x40 MLOAD PUSH4 0xB760FAF9 PUSH1 0xE0 SHL DUP2 MSTORE ADDRESS PUSH1 0x4 DUP3 ADD MSTORE SWAP2 DUP3 SWAP1 PUSH1 0x24 SWAP1 DUP3 SWAP1 CALLVALUE SWAP1 GAS CALL DUP1 ISZERO PUSH2 0xA99 JUMPI PUSH2 0xA82 JUMPI JUMPDEST POP PUSH1 0x20 PUSH1 0x24 SWAP2 PUSH1 0x4 SLOAD AND PUSH1 0x40 MLOAD SWAP3 DUP4 DUP1 SWAP3 PUSH4 0x70A08231 PUSH1 0xE0 SHL DUP3 MSTORE ADDRESS PUSH1 0x4 DUP4 ADD MSTORE GAS STATICCALL SWAP1 DUP2 ISZERO PUSH2 0x984 JUMPI DUP3 SWAP2 PUSH2 0xA4F JUMPI JUMPDEST POP PUSH1 0x40 PUSH32 0x4936E4683983DC3B8AFB17C6844AF8A193B8BDC330595D260421C7E84EBF683E SWAP2 DUP2 MLOAD SWAP1 CALLVALUE DUP3 MSTORE PUSH1 0x20 DUP3 ADD MSTORE LOG1 DUP1 RETURN JUMPDEST SWAP1 POP PUSH1 0x20 DUP2 RETURNDATASIZE PUSH1 0x20 GT PUSH2 0xA7A JUMPI JUMPDEST DUP2 PUSH2 0xA6A PUSH1 0x20 SWAP4 DUP4 PUSH2 0xE03 JUMP JUMPDEST DUP2 ADD SUB SLT PUSH2 0x294 JUMPI MLOAD PUSH1 0x40 PUSH2 0xA1B JUMP JUMPDEST RETURNDATASIZE SWAP2 POP PUSH2 0xA5D JUMP JUMPDEST PUSH1 0x24 SWAP2 SWAP3 PUSH2 0xA91 PUSH1 0x20 SWAP3 PUSH2 0xDDA JUMP JUMPDEST SWAP3 SWAP2 POP PUSH2 0x9EA JUMP JUMPDEST PUSH1 0x40 MLOAD RETURNDATASIZE DUP6 DUP3 RETURNDATACOPY RETURNDATASIZE SWAP1 REVERT JUMPDEST POP CALLVALUE PUSH2 0x1CF JUMPI PUSH1 0x60 CALLDATASIZE PUSH1 0x3 NOT ADD SLT PUSH2 0x1CF JUMPI PUSH1 0x1 PUSH1 0x1 PUSH1 0x40 SHL SUB PUSH1 0x4 CALLDATALOAD DUP2 DUP2 GT PUSH2 0x76C JUMPI PUSH2 0xAD6 SWAP1 CALLDATASIZE SWAP1 PUSH1 0x4 ADD PUSH2 0xD80 JUMP JUMPDEST SWAP2 PUSH1 0x24 SWAP1 PUSH1 0x24 CALLDATALOAD DUP2 DUP2 GT PUSH2 0xC92 JUMPI PUSH2 0xAF2 SWAP1 CALLDATASIZE SWAP1 PUSH1 0x4 ADD PUSH2 0xD80 JUMP JUMPDEST SWAP2 PUSH1 0x44 CALLDATALOAD SWAP1 DUP2 GT PUSH2 0xC8E JUMPI PUSH2 0xB0B SWAP1 CALLDATASIZE SWAP1 PUSH1 0x4 ADD PUSH2 0xD80 JUMP JUMPDEST SWAP1 PUSH2 0xB14 PUSH2 0x1268 JUMP JUMPDEST PUSH1 0xFF PUSH1 0x6 SLOAD AND ISZERO PUSH2 0x1A7 JUMPI PUSH1 0x1 SWAP5 PUSH1 0x1 DUP1 PUSH1 0xA0 SHL SUB PUSH1 0x1 SLOAD AND CALLER EQ ISZERO DUP1 PUSH2 0xC79 JUMPI JUMPDEST PUSH2 0x543 JUMPI DUP8 ISZERO PUSH2 0x75A JUMPI DUP5 DUP9 EQ DUP1 ISZERO SWAP1 PUSH2 0xC6F JUMPI JUMPDEST PUSH2 0x75A JUMPI SWAP6 SWAP5 SWAP4 SWAP3 SWAP2 SWAP1 DUP9 SWAP7 DUP10 SWAP7 JUMPDEST DUP10 DUP9 LT PUSH2 0xB9C JUMPI DUP11 DUP11 DUP11 PUSH1 0x40 MLOAD SWAP2 DUP3 MSTORE PUSH1 0x20 DUP3 ADD MSTORE PUSH32 0x36551AD729F069397FD12C263EBA2BDBDB0E999953DF151620E1EC9EDD8F2AAF PUSH1 0x40 CALLER SWAP3 LOG2 PUSH1 0x1 DUP2 SSTORE DUP1 RETURN JUMPDEST SWAP1 SWAP2 SWAP3 SWAP4 SWAP5 SWAP6 SWAP7 SWAP8 PUSH1 0x1 DUP1 PUSH1 0xA0 SHL SUB PUSH2 0xBB9 PUSH2 0x6B8 DUP12 DUP14 DUP7 PUSH2 0xE6F JUMP JUMPDEST AND DUP12 MSTORE PUSH1 0x5 PUSH1 0x20 MSTORE PUSH1 0xFF PUSH1 0x40 DUP13 KECCAK256 SLOAD AND ISZERO PUSH2 0x531 JUMPI PUSH2 0xBE4 SWAP1 PUSH2 0xBDD DUP11 DUP10 DUP10 PUSH2 0xE6F JUMP JUMPDEST CALLDATALOAD SWAP1 PUSH2 0xEA9 JUMP JUMPDEST SWAP8 PUSH2 0xBF3 PUSH2 0x6B8 DUP3 DUP13 DUP6 PUSH2 0xE6F JUMP JUMPDEST PUSH2 0xBFE DUP3 DUP10 DUP10 PUSH2 0xE6F JUMP JUMPDEST CALLDATALOAD DUP7 DUP4 LT ISZERO PUSH2 0xC5C JUMPI DUP13 SWAP2 DUP3 SWAP2 PUSH2 0xC1A DUP6 PUSH1 0x5 SHL DUP10 ADD DUP10 PUSH2 0xECC JUMP JUMPDEST SWAP2 SWAP1 DUP3 PUSH1 0x40 MLOAD SWAP4 DUP5 SWAP3 DUP4 CALLDATACOPY DUP2 ADD DUP6 DUP2 MSTORE SUB SWAP3 GAS CALL PUSH2 0xC36 PUSH2 0xE3F JUMP JUMPDEST POP ISZERO PUSH2 0xC4A JUMPI DUP8 ADD SWAP7 SWAP6 SWAP5 SWAP4 SWAP3 SWAP2 SWAP1 PUSH2 0xB5A JUMP JUMPDEST PUSH1 0x40 MLOAD PUSH4 0xEC98CED7 PUSH1 0xE0 SHL DUP2 MSTORE PUSH1 0x4 SWAP1 REVERT JUMPDEST PUSH4 0x4E487B71 PUSH1 0xE0 SHL DUP14 MSTORE PUSH1 0x32 PUSH1 0x4 MSTORE DUP5 DUP14 REVERT JUMPDEST POP DUP3 DUP6 EQ ISZERO PUSH2 0xB4B JUMP JUMPDEST POP PUSH1 0x4 SLOAD PUSH1 0x1 PUSH1 0x1 PUSH1 0xA0 SHL SUB AND CALLER EQ ISZERO PUSH2 0xB36 JUMP JUMPDEST DUP7 DUP1 REVERT JUMPDEST DUP6 DUP1 REVERT JUMPDEST DUP3 CALLVALUE PUSH2 0x1CF JUMPI PUSH1 0x3 NOT PUSH1 0x60 CALLDATASIZE DUP3 ADD SLT PUSH2 0x98F JUMPI PUSH1 0x4 CALLDATALOAD SWAP1 PUSH1 0x1 PUSH1 0x1 PUSH1 0x40 SHL SUB DUP3 GT PUSH2 0x76C JUMPI PUSH2 0x120 SWAP1 DUP3 CALLDATASIZE SUB ADD SLT PUSH2 0x98F JUMPI PUSH1 0x4 SLOAD PUSH1 0x24 CALLDATALOAD SWAP4 PUSH1 0x44 CALLDATALOAD SWAP3 PUSH1 0x1 PUSH1 0x1 PUSH1 0xA0 SHL SUB SWAP3 SWAP1 SWAP2 SWAP1 DUP4 AND CALLER SUB PUSH2 0xD71 JUMPI POP PUSH1 0xFF PUSH1 0x6 SLOAD AND ISZERO PUSH2 0x1A7 JUMPI DUP5 PUSH2 0xD00 SWAP2 PUSH1 0x4 ADD PUSH2 0xF78 JUMP JUMPDEST SWAP6 SWAP2 SWAP3 SWAP1 SWAP4 DUP1 PUSH2 0xD43 JUMPI JUMPDEST POP PUSH1 0x20 PUSH32 0x3BEBA097C09C235465DF7C6857B74B6435FFB77E2CB08A8F714156C35DA60373 SWAP2 DUP2 SWAP8 PUSH1 0x40 MLOAD SWAP6 DUP7 MSTORE AND SWAP4 LOG4 PUSH1 0x40 MLOAD SWAP1 DUP2 MSTORE RETURN JUMPDEST DUP6 DUP1 DUP1 DUP1 SWAP4 CALLER GAS CALL PUSH2 0xD53 PUSH2 0xE3F JUMP JUMPDEST POP ISZERO PUSH2 0xD5F JUMPI DUP7 PUSH2 0xD0B JUMP JUMPDEST PUSH1 0x40 MLOAD PUSH4 0x323E69DD PUSH1 0xE1 SHL DUP2 MSTORE PUSH1 0x4 SWAP1 REVERT JUMPDEST PUSH4 0xF02946AD PUSH1 0xE0 SHL DUP2 MSTORE PUSH1 0x4 SWAP1 REVERT JUMPDEST SWAP2 DUP2 PUSH1 0x1F DUP5 ADD SLT ISZERO PUSH2 0x294 JUMPI DUP3 CALLDATALOAD SWAP2 PUSH1 0x1 PUSH1 0x1 PUSH1 0x40 SHL SUB DUP4 GT PUSH2 0x294 JUMPI PUSH1 0x20 DUP1 DUP6 ADD SWAP5 DUP5 PUSH1 0x5 SHL ADD ADD GT PUSH2 0x294 JUMPI JUMP JUMPDEST PUSH1 0x4 CALLDATALOAD SWAP1 PUSH1 0x1 PUSH1 0x1 PUSH1 0xA0 SHL SUB DUP3 AND DUP3 SUB PUSH2 0x294 JUMPI JUMP JUMPDEST CALLDATALOAD SWAP1 PUSH1 0x1 PUSH1 0x1 PUSH1 0xA0 SHL SUB DUP3 AND DUP3 SUB PUSH2 0x294 JUMPI JUMP JUMPDEST PUSH1 0x1 PUSH1 0x1 PUSH1 0x40 SHL SUB DUP2 GT PUSH2 0xDED JUMPI PUSH1 0x40 MSTORE JUMP JUMPDEST PUSH4 0x4E487B71 PUSH1 0xE0 SHL PUSH1 0x0 MSTORE PUSH1 0x41 PUSH1 0x4 MSTORE PUSH1 0x24 PUSH1 0x0 REVERT JUMPDEST SWAP1 PUSH1 0x1F DUP1 NOT SWAP2 ADD AND DUP2 ADD SWAP1 DUP2 LT PUSH1 0x1 PUSH1 0x1 PUSH1 0x40 SHL SUB DUP3 GT OR PUSH2 0xDED JUMPI PUSH1 0x40 MSTORE JUMP JUMPDEST PUSH1 0x1 PUSH1 0x1 PUSH1 0x40 SHL SUB DUP2 GT PUSH2 0xDED JUMPI PUSH1 0x1F ADD PUSH1 0x1F NOT AND PUSH1 0x20 ADD SWAP1 JUMP JUMPDEST RETURNDATASIZE ISZERO PUSH2 0xE6A JUMPI RETURNDATASIZE SWAP1 PUSH2 0xE50 DUP3 PUSH2 0xE24 JUMP JUMPDEST SWAP2 PUSH2 0xE5E PUSH1 0x40 MLOAD SWAP4 DUP5 PUSH2 0xE03 JUMP JUMPDEST DUP3 MSTORE RETURNDATASIZE PUSH1 0x0 PUSH1 0x20 DUP5 ADD RETURNDATACOPY JUMP JUMPDEST PUSH1 0x60 SWAP1 JUMP JUMPDEST SWAP2 SWAP1 DUP2 LT ISZERO PUSH2 0xE7F JUMPI PUSH1 0x5 SHL ADD SWAP1 JUMP JUMPDEST PUSH4 0x4E487B71 PUSH1 0xE0 SHL PUSH1 0x0 MSTORE PUSH1 0x32 PUSH1 0x4 MSTORE PUSH1 0x24 PUSH1 0x0 REVERT JUMPDEST CALLDATALOAD PUSH1 0x1 PUSH1 0x1 PUSH1 0xA0 SHL SUB DUP2 AND DUP2 SUB PUSH2 0x294 JUMPI SWAP1 JUMP JUMPDEST SWAP2 SWAP1 DUP3 ADD DUP1 SWAP3 GT PUSH2 0xEB6 JUMPI JUMP JUMPDEST PUSH4 0x4E487B71 PUSH1 0xE0 SHL PUSH1 0x0 MSTORE PUSH1 0x11 PUSH1 0x4 MSTORE PUSH1 0x24 PUSH1 0x0 REVERT JUMPDEST SWAP1 CALLDATALOAD SWAP1 PUSH1 0x1E NOT DUP2 CALLDATASIZE SUB ADD DUP3 SLT ISZERO PUSH2 0x294 JUMPI ADD DUP1 CALLDATALOAD SWAP1 PUSH1 0x1 PUSH1 0x1 PUSH1 0x40 SHL SUB DUP3 GT PUSH2 0x294 JUMPI PUSH1 0x20 ADD SWAP2 DUP2 CALLDATASIZE SUB DUP4 SGT PUSH2 0x294 JUMPI JUMP JUMPDEST CALLDATALOAD DUP1 ISZERO ISZERO DUP2 SUB PUSH2 0x294 JUMPI SWAP1 JUMP JUMPDEST SWAP3 SWAP2 SWAP3 PUSH2 0xF17 DUP3 PUSH2 0xE24 JUMP JUMPDEST SWAP2 PUSH2 0xF25 PUSH1 0x40 MLOAD SWAP4 DUP5 PUSH2 0xE03 JUMP JUMPDEST DUP3 SWAP5 DUP2 DUP5 MSTORE DUP2 DUP4 ADD GT PUSH2 0x294 JUMPI DUP3 DUP2 PUSH1 0x20 SWAP4 DUP5 PUSH1 0x0 SWAP7 ADD CALLDATACOPY ADD ADD MSTORE JUMP JUMPDEST SWAP1 DUP1 PUSH1 0x1F DUP4 ADD SLT ISZERO PUSH2 0x294 JUMPI DUP2 PUSH1 0x20 PUSH2 0xF5D SWAP4 CALLDATALOAD SWAP2 ADD PUSH2 0xF0B JUMP JUMPDEST SWAP1 JUMP JUMPDEST SWAP1 DUP2 PUSH1 0x20 SWAP2 SUB SLT PUSH2 0x294 JUMPI MLOAD DUP1 ISZERO ISZERO DUP2 SUB PUSH2 0x294 JUMPI SWAP1 JUMP JUMPDEST SWAP2 SWAP1 SWAP2 PUSH2 0xF91 PUSH2 0xF8B PUSH1 0x60 DUP4 ADD DUP4 PUSH2 0xECC JUMP JUMPDEST SWAP1 PUSH2 0x12B6 JUMP JUMPDEST SWAP2 PUSH1 0x0 SWAP4 PUSH32 0x19457468657265756D205369676E6564204D6573736167653A0A333200000000 DUP6 MSTORE PUSH1 0x1C MSTORE PUSH1 0x3C DUP5 KECCAK256 SWAP2 PUSH2 0x100 DUP2 ADD SWAP1 PUSH1 0x41 PUSH2 0xFD2 DUP4 DUP4 PUSH2 0xECC JUMP JUMPDEST SWAP1 POP EQ PUSH2 0x120F JUMPI SWAP1 PUSH2 0xFE3 SWAP2 PUSH2 0xECC JUMP JUMPDEST DUP2 ADD SWAP5 PUSH1 0x40 SWAP1 DUP2 DUP4 DUP9 SUB SLT PUSH2 0x1CF JUMPI DUP3 CALLDATALOAD SWAP3 PUSH1 0x20 SWAP1 DUP2 DUP2 ADD CALLDATALOAD SWAP1 PUSH1 0x1 PUSH1 0x1 PUSH1 0x40 SHL SUB DUP3 GT PUSH2 0x1CB JUMPI PUSH2 0x102F SWAP8 SWAP9 SWAP10 PUSH2 0x1026 SWAP3 PUSH2 0x101F SWAP3 ADD PUSH2 0xF42 JUMP JUMPDEST DUP6 SWAP9 PUSH2 0x156E JUMP JUMPDEST SWAP1 SWAP8 SWAP2 SWAP8 PUSH2 0x15AA JUMP JUMPDEST PUSH1 0x3 SLOAD DUP4 MLOAD PUSH4 0xC7CDFC01 PUSH1 0xE0 SHL DUP2 MSTORE PUSH1 0x4 DUP1 DUP3 ADD DUP8 SWAP1 MSTORE SWAP6 DUP9 SWAP3 SWAP1 SWAP2 PUSH1 0x1 PUSH1 0x1 PUSH1 0xA0 SHL SUB SWAP2 DUP3 AND SWAP1 DUP6 DUP2 PUSH1 0x24 DUP2 DUP6 GAS STATICCALL SWAP1 DUP2 ISZERO PUSH2 0x1205 JUMPI SWAP1 DUP14 SWAP7 SWAP6 SWAP5 SWAP4 SWAP3 SWAP2 DUP9 SWAP2 PUSH2 0x11BF JUMPI JUMPDEST POP PUSH1 0xFF AND PUSH1 0x1 DUP2 SUB PUSH2 0x1122 JUMPI POP POP PUSH1 0x3 SLOAD DUP8 MLOAD PUSH4 0xF545B88B PUSH1 0xE0 SHL DUP2 MSTORE DUP10 DUP2 ADD SWAP4 DUP5 MSTORE PUSH1 0x1 PUSH1 0x1 PUSH1 0xA0 SHL SUB SWAP5 SWAP1 SWAP5 AND PUSH1 0x20 DUP5 ADD MSTORE PUSH1 0x40 DUP4 ADD SWAP6 SWAP1 SWAP6 MSTORE SWAP2 SWAP4 DUP4 SWAP3 DUP6 SWAP3 DUP4 SWAP1 SUB PUSH1 0x60 ADD SWAP2 DUP4 SWAP2 DUP9 SWAP2 AND GAS CALL SWAP3 DUP4 ISZERO PUSH2 0x1117 JUMPI SWAP3 PUSH2 0x10EA JUMPI JUMPDEST POP POP ISZERO PUSH2 0x10DD JUMPI POP POP JUMP JUMPDEST MLOAD PUSH4 0xB02726E5 PUSH1 0xE0 SHL DUP2 MSTORE REVERT JUMPDEST PUSH2 0x1109 SWAP3 POP DUP1 RETURNDATASIZE LT PUSH2 0x1110 JUMPI JUMPDEST PUSH2 0x1101 DUP2 DUP4 PUSH2 0xE03 JUMP JUMPDEST DUP2 ADD SWAP1 PUSH2 0xF60 JUMP JUMPDEST CODESIZE DUP1 PUSH2 0x10D2 JUMP JUMPDEST POP RETURNDATASIZE PUSH2 0x10F7 JUMP JUMPDEST DUP5 MLOAD SWAP1 RETURNDATASIZE SWAP1 DUP3 RETURNDATACOPY RETURNDATASIZE SWAP1 REVERT JUMPDEST SWAP2 POP SWAP3 SWAP4 SWAP5 POP ISZERO PUSH1 0x0 EQ PUSH2 0x11AF JUMPI DUP6 MLOAD PUSH4 0x370D79F5 PUSH1 0xE2 SHL DUP2 MSTORE DUP1 DUP9 ADD SWAP2 DUP3 MSTORE PUSH1 0x1 PUSH1 0x1 PUSH1 0xA0 SHL SUB SWAP1 SWAP4 AND PUSH1 0x20 DUP3 ADD MSTORE PUSH1 0x40 DUP2 ADD DUP12 SWAP1 MSTORE SWAP2 SWAP3 SWAP2 DUP3 SWAP2 DUP5 SWAP2 DUP3 SWAP1 DUP8 SWAP1 DUP3 SWAP1 PUSH1 0x60 ADD SUB SWAP3 GAS CALL SWAP3 DUP4 ISZERO PUSH2 0x1117 JUMPI SWAP3 PUSH2 0x1192 JUMPI JUMPDEST POP POP ISZERO PUSH2 0x1185 JUMPI POP POP JUMP JUMPDEST MLOAD PUSH4 0xE00E6A25 PUSH1 0xE0 SHL DUP2 MSTORE REVERT JUMPDEST PUSH2 0x11A8 SWAP3 POP DUP1 RETURNDATASIZE LT PUSH2 0x1110 JUMPI PUSH2 0x1101 DUP2 DUP4 PUSH2 0xE03 JUMP JUMPDEST CODESIZE DUP1 PUSH2 0x117A JUMP JUMPDEST DUP6 MLOAD PUSH4 0xE00E6A25 PUSH1 0xE0 SHL DUP2 MSTORE DUP8 SWAP1 REVERT JUMPDEST DUP7 DUP1 SWAP9 POP DUP2 SWAP4 SWAP5 SWAP6 SWAP7 SWAP8 SWAP3 POP RETURNDATASIZE DUP4 GT PUSH2 0x11FE JUMPI JUMPDEST PUSH2 0x11DD DUP2 DUP4 PUSH2 0xE03 JUMP JUMPDEST DUP2 ADD SUB SLT PUSH2 0xC8E JUMPI MLOAD PUSH1 0xFF DUP2 AND DUP2 SUB PUSH2 0xC8E JUMPI DUP13 SWAP6 SWAP5 SWAP4 SWAP3 SWAP2 SWAP1 PUSH1 0xFF PUSH2 0x1075 JUMP JUMPDEST POP RETURNDATASIZE PUSH2 0x11D3 JUMP JUMPDEST DUP9 MLOAD RETURNDATASIZE DUP10 DUP3 RETURNDATACOPY RETURNDATASIZE SWAP1 REVERT JUMPDEST SWAP3 PUSH2 0x122C PUSH2 0x1225 PUSH2 0x1232 SWAP4 PUSH2 0x123B SWAP8 SWAP6 SWAP7 PUSH2 0xECC JUMP JUMPDEST CALLDATASIZE SWAP2 PUSH2 0xF0B JUMP JUMPDEST SWAP1 PUSH2 0x156E JUMP JUMPDEST SWAP1 SWAP5 SWAP2 SWAP5 PUSH2 0x15AA JUMP JUMPDEST PUSH1 0x1 SLOAD PUSH1 0x1 PUSH1 0x1 PUSH1 0xA0 SHL SUB SWAP1 DUP2 AND SWAP1 DUP5 AND SUB PUSH2 0x1256 JUMPI SWAP3 SWAP2 SWAP1 JUMP JUMPDEST PUSH1 0x40 MLOAD PUSH4 0x91FAD511 PUSH1 0xE0 SHL DUP2 MSTORE PUSH1 0x4 SWAP1 REVERT JUMPDEST PUSH1 0x2 PUSH1 0x0 SLOAD EQ PUSH2 0x1279 JUMPI PUSH1 0x2 PUSH1 0x0 SSTORE JUMP JUMPDEST PUSH1 0x40 MLOAD PUSH4 0x3EE5AEB5 PUSH1 0xE0 SHL DUP2 MSTORE PUSH1 0x4 SWAP1 REVERT JUMPDEST PUSH1 0x1 PUSH1 0x1 PUSH1 0x40 SHL SUB DUP2 GT PUSH2 0xDED JUMPI PUSH1 0x5 SHL PUSH1 0x20 ADD SWAP1 JUMP JUMPDEST DUP1 MLOAD DUP3 LT ISZERO PUSH2 0xE7F JUMPI PUSH1 0x20 SWAP2 PUSH1 0x5 SHL ADD ADD SWAP1 JUMP JUMPDEST SWAP1 SWAP2 PUSH1 0x0 SWAP2 PUSH1 0x0 PUSH1 0x4 SWAP5 DUP1 DUP7 GT PUSH2 0x98F JUMPI DUP3 CALLDATALOAD PUSH1 0x1 PUSH1 0x1 PUSH1 0xE0 SHL SUB NOT AND PUSH4 0x5B0E93FB PUSH1 0xE1 SHL DUP2 EQ PUSH2 0x151E JUMPI PUSH4 0x23F0ED15 PUSH1 0xE1 SHL EQ PUSH2 0x12FF JUMPI PUSH1 0x40 MLOAD PUSH4 0x141E841 PUSH1 0xE0 SHL DUP2 MSTORE DUP7 SWAP1 REVERT JUMPDEST DUP3 SWAP4 SWAP5 SWAP6 SWAP3 ADD SWAP1 PUSH1 0x60 PUSH1 0x3 NOT DUP6 DUP5 SUB ADD SLT PUSH2 0x1CF JUMPI PUSH1 0x1 PUSH1 0x1 PUSH1 0x40 SHL SUB DUP5 DUP5 ADD CALLDATALOAD DUP2 DUP2 GT PUSH2 0x76C JUMPI DUP6 ADD DUP4 PUSH1 0x23 DUP3 ADD SLT ISZERO PUSH2 0x76C JUMPI DUP5 DUP2 ADD CALLDATALOAD SWAP2 PUSH1 0x24 PUSH2 0x1344 DUP5 PUSH2 0x128B JUMP JUMPDEST SWAP2 PUSH1 0x40 SWAP7 PUSH2 0x1354 DUP9 MLOAD SWAP5 DUP6 PUSH2 0xE03 JUMP JUMPDEST DUP6 DUP5 MSTORE PUSH1 0x20 SWAP5 DUP6 DUP6 ADD DUP5 PUSH1 0x5 SWAP9 PUSH1 0x5 SHL DUP4 ADD ADD SWAP2 DUP4 DUP4 GT PUSH2 0x14E6 JUMPI DUP6 DUP9 SWAP2 ADD SWAP2 JUMPDEST DUP4 DUP4 LT PUSH2 0x1506 JUMPI POP POP POP POP DUP3 DUP11 ADD CALLDATALOAD DUP3 DUP2 GT PUSH2 0x14EA JUMPI DUP11 ADD SWAP10 DUP2 PUSH1 0x23 DUP13 ADD SLT ISZERO PUSH2 0x14EA JUMPI DUP10 DUP12 ADD CALLDATALOAD SWAP11 PUSH2 0x13A7 DUP13 PUSH2 0x128B JUMP JUMPDEST SWAP12 DUP6 DUP9 DUP13 MLOAD SWAP15 DUP16 SWAP1 PUSH2 0x13B9 SWAP1 DUP3 PUSH2 0xE03 JUMP JUMPDEST DUP4 DUP2 MSTORE ADD SWAP2 PUSH1 0x5 SHL DUP4 ADD ADD SWAP2 DUP5 DUP4 GT PUSH2 0x1502 JUMPI DUP7 DUP10 SWAP2 ADD SWAP2 JUMPDEST DUP4 DUP4 LT PUSH2 0x14F2 JUMPI POP POP POP POP PUSH1 0x44 DUP2 ADD CALLDATALOAD SWAP1 DUP4 DUP3 GT PUSH2 0x14EE JUMPI ADD SWAP3 DUP2 PUSH1 0x23 DUP6 ADD SLT ISZERO PUSH2 0x14EA JUMPI DUP10 DUP5 ADD CALLDATALOAD SWAP3 DUP2 DUP8 PUSH2 0x1407 DUP7 PUSH2 0x128B JUMP JUMPDEST PUSH2 0x1413 DUP14 MLOAD SWAP2 DUP3 PUSH2 0xE03 JUMP JUMPDEST DUP7 DUP2 MSTORE ADD SWAP5 PUSH1 0x5 SHL DUP7 ADD ADD SWAP5 DUP4 DUP7 GT PUSH2 0x14E6 JUMPI DUP3 DUP2 ADD SWAP5 JUMPDEST DUP7 DUP7 LT PUSH2 0x14BD JUMPI POP POP POP POP POP POP POP DUP1 MLOAD DUP8 MLOAD SUB PUSH2 0x14AD JUMPI DUP4 SWAP9 JUMPDEST DUP2 MLOAD DUP11 LT ISZERO PUSH2 0x14A2 JUMPI PUSH1 0x1 PUSH1 0x1 PUSH1 0xA0 SHL SUB PUSH2 0x1460 DUP12 DUP5 PUSH2 0x12A2 JUMP JUMPDEST MLOAD AND DUP6 MSTORE DUP4 DUP4 MSTORE PUSH1 0xFF DUP7 DUP7 KECCAK256 SLOAD AND ISZERO PUSH2 0x1492 JUMPI PUSH2 0x148A PUSH1 0x1 SWAP2 PUSH2 0x1483 DUP13 DUP12 PUSH2 0x12A2 JUMP JUMPDEST MLOAD SWAP1 PUSH2 0xEA9 JUMP JUMPDEST SWAP10 ADD SWAP9 PUSH2 0x1445 JUMP JUMPDEST DUP6 MLOAD PUSH4 0xB99820A5 PUSH1 0xE0 SHL DUP2 MSTORE DUP8 SWAP1 REVERT JUMPDEST SWAP9 POP POP POP POP POP POP POP POP JUMP JUMPDEST DUP5 MLOAD PUSH4 0x7736A16D PUSH1 0xE0 SHL DUP2 MSTORE DUP7 SWAP1 REVERT JUMPDEST DUP6 CALLDATALOAD DUP4 DUP2 GT PUSH2 0x14E2 JUMPI DUP10 SWAP2 PUSH2 0x14D7 DUP8 DUP8 DUP6 SWAP5 DUP8 ADD ADD PUSH2 0xF42 JUMP JUMPDEST DUP2 MSTORE ADD SWAP6 ADD SWAP5 PUSH2 0x142B JUMP JUMPDEST DUP12 DUP1 REVERT JUMPDEST DUP10 DUP1 REVERT JUMPDEST DUP8 DUP1 REVERT JUMPDEST DUP9 DUP1 REVERT JUMPDEST DUP3 CALLDATALOAD DUP2 MSTORE SWAP2 DUP2 ADD SWAP2 DUP10 SWAP2 ADD PUSH2 0x13D2 JUMP JUMPDEST DUP11 DUP1 REVERT JUMPDEST DUP2 SWAP1 PUSH2 0x1511 DUP5 PUSH2 0xDC6 JUMP JUMPDEST DUP2 MSTORE ADD SWAP2 ADD SWAP1 DUP8 SWAP1 PUSH2 0x1375 JUMP JUMPDEST POP SWAP3 SWAP5 SWAP2 SWAP4 POP SWAP2 DUP4 ADD SWAP2 PUSH1 0x60 DUP5 DUP5 SUB PUSH1 0x3 NOT ADD SLT PUSH2 0x1CF JUMPI PUSH2 0x1541 DUP3 DUP6 ADD PUSH2 0xDC6 JUMP JUMPDEST POP PUSH1 0x44 DUP5 ADD CALLDATALOAD SWAP1 PUSH1 0x1 PUSH1 0x1 PUSH1 0x40 SHL SUB DUP3 GT PUSH2 0x1CF JUMPI POP SWAP2 PUSH2 0x1568 SWAP2 DUP5 SWAP4 PUSH1 0x24 SWAP6 ADD ADD PUSH2 0xF42 JUMP JUMPDEST POP ADD CALLDATALOAD SWAP1 JUMP JUMPDEST DUP2 MLOAD SWAP2 SWAP1 PUSH1 0x41 DUP4 SUB PUSH2 0x159F JUMPI PUSH2 0x1598 SWAP3 POP PUSH1 0x20 DUP3 ADD MLOAD SWAP1 PUSH1 0x60 PUSH1 0x40 DUP5 ADD MLOAD SWAP4 ADD MLOAD PUSH1 0x0 BYTE SWAP1 PUSH2 0x162F JUMP JUMPDEST SWAP2 SWAP3 SWAP1 SWAP2 SWAP1 JUMP JUMPDEST POP POP PUSH1 0x0 SWAP2 PUSH1 0x2 SWAP2 SWAP1 JUMP JUMPDEST PUSH1 0x4 DUP2 LT ISZERO PUSH2 0x1619 JUMPI DUP1 PUSH2 0x15BC JUMPI POP POP JUMP JUMPDEST PUSH1 0x1 DUP2 SUB PUSH2 0x15D6 JUMPI PUSH1 0x40 MLOAD PUSH4 0xF645EEDF PUSH1 0xE0 SHL DUP2 MSTORE PUSH1 0x4 SWAP1 REVERT JUMPDEST PUSH1 0x2 DUP2 SUB PUSH2 0x15F7 JUMPI PUSH1 0x40 MLOAD PUSH4 0xFCE698F7 PUSH1 0xE0 SHL DUP2 MSTORE PUSH1 0x4 DUP2 ADD DUP4 SWAP1 MSTORE PUSH1 0x24 SWAP1 REVERT JUMPDEST PUSH1 0x3 EQ PUSH2 0x1601 JUMPI POP JUMP JUMPDEST PUSH1 0x24 SWAP1 PUSH1 0x40 MLOAD SWAP1 PUSH4 0x35E2F383 PUSH1 0xE2 SHL DUP3 MSTORE PUSH1 0x4 DUP3 ADD MSTORE REVERT JUMPDEST PUSH4 0x4E487B71 PUSH1 0xE0 SHL PUSH1 0x0 MSTORE PUSH1 0x21 PUSH1 0x4 MSTORE PUSH1 0x24 PUSH1 0x0 REVERT JUMPDEST SWAP2 SWAP1 PUSH32 0x7FFFFFFFFFFFFFFFFFFFFFFFFFFFFFFF5D576E7357A4501DDFE92F46681B20A0 DUP5 GT PUSH2 0x16A7 JUMPI SWAP3 PUSH1 0x20 SWAP3 SWAP2 PUSH1 0xFF PUSH1 0x80 SWAP6 PUSH1 0x40 MLOAD SWAP5 DUP6 MSTORE AND DUP5 DUP5 ADD MSTORE PUSH1 0x40 DUP4 ADD MSTORE PUSH1 0x60 DUP3 ADD MSTORE PUSH1 0x0 SWAP3 DUP4 SWAP2 DUP3 DUP1 MSTORE PUSH1 0x1 GAS STATICCALL ISZERO PUSH2 0x2A1 JUMPI DUP1 MLOAD PUSH1 0x1 PUSH1 0x1 PUSH1 0xA0 SHL SUB DUP2 AND ISZERO PUSH2 0x169E JUMPI SWAP2 DUP2 SWAP1 JUMP JUMPDEST POP DUP1 SWAP2 PUSH1 0x1 SWAP2 SWAP1 JUMP JUMPDEST POP POP POP PUSH1 0x0 SWAP2 PUSH1 0x3 SWAP2 SWAP1 JUMP INVALID LOG2 PUSH5 0x6970667358 0x22 SLT KECCAK256 PUSH31 0xDC0E113A1F7DC4626E2DE6CAB866E31D74F9BB9F49FF2856E370878E0022A3 PUSH5 0x736F6C6343 STOP ADDMOD XOR STOP CALLER "},"methodIdentifiers":{"acceptOwnership()":"79ba5097","addDeposit()":"4a58db19","changeOwner(address)":"a6f9dae1","checkBalance()":"c71daccb","entryPoint()":"b0d691fe","execute(address,uint256,bytes)":"b61d27f6","executeBatch(address[],uint256[],bytes[])":"47e1da2a","getDeposit()":"c399ec88","initialize(address,address,address)":"c0c53b8b","owner()":"8da5cb5b","pendingOwner()":"e30c3978","sessionManager()":"b7b13f79","setEntryPoint(address)":"584465f2","setSessionManager(address)":"674f0abd","setWhiteListedParty(address,bool)":"f9c56aa6","setWhiteListedPartyBatch(address[],bool[])":"9f5e3ecc","validateUserOp((address,uint256,bytes,bytes,bytes32,uint256,bytes32,bytes,bytes),bytes32,uint256)":"19822f7c","whiteListedParties(address)":"b8434685","withdrawDepositTo(address,uint256)":"4d44560d"}}}}}