{"src/AgentWallet.sol":{"AgentWallet":{"abi":[{"inputs":[],"stateMutability":"nonpayable","type":"constructor"},{"inputs":[],"name":"AlreadyInitializedError","type":"error"},{"inputs":[],"name":"BatchTooLargeError","type":"error"},{"inputs":[],"name":"CallFailedError","type":"error"},{"inputs":[],"name":"ECDSAInvalidSignature","type":"error"},{"inputs":[{"internalType":"uint256","name":"length","type":"uint256"}],"name":"ECDSAInvalidSignatureLength","type":"error"},{"inputs":[{"internalType":"bytes32","name":"s","type":"bytes32"}],"name":"ECDSAInvalidSignatureS","type":"error"},{"inputs":[],"name":"ExecutionFailedError","type":"error"},{"inputs":[],"name":"FundingFailedError","type":"error"},{"inputs":[],"name":"InvalidEntryPointError","type":"error"},{"inputs":[],"name":"InvalidOwnerError","type":"error"},{"inputs":[],"name":"InvalidOwnerSignatureError","type":"error"},{"inputs":[],"name":"InvalidRecipientError","type":"error"},{"inputs":[],"name":"InvalidSessionManagerError","type":"error"},{"inputs":[],"name":"LengthMismatchError","type":"error"},{"inputs":[],"name":"LightweightSessionValidationFailedError","type":"error"},{"inputs":[],"name":"NotAuthorizedError","type":"error"},{"inputs":[],"name":"NotEntryPointError","type":"error"},{"inputs":[],"name":"NotInitializedError","type":"error"},{"inputs":[],"name":"NotOwnerError","type":"error"},{"inputs":[],"name":"OwnershipTransferPendingError","type":"error"},{"inputs":[],"name":"ReentrancyGuardReentrantCall","type":"error"},{"inputs":[],"name":"SelectorNotWhitelistedError","type":"error"},{"inputs":[],"name":"SessionValidationFailedError","type":"error"},{"inputs":[],"name":"TimelockActiveError","type":"error"},{"inputs":[],"name":"TimelockNotReadyError","type":"error"},{"inputs":[],"name":"UnsupportedCallDataError","type":"error"},{"anonymous":false,"inputs":[{"indexed":true,"internalType":"address","name":"caller","type":"address"},{"indexed":false,"internalType":"uint256","name":"callCount","type":"uint256"},{"indexed":false,"internalType":"uint256","name":"totalValue","type":"uint256"}],"name":"BatchExecutionPerformed","type":"event"},{"anonymous":false,"inputs":[{"indexed":false,"internalType":"uint256","name":"amount","type":"uint256"},{"indexed":false,"internalType":"uint256","name":"newBalance","type":"uint256"}],"name":"EntryPointDepositAdded","type":"event"},{"anonymous":false,"inputs":[{"indexed":true,"internalType":"address","name":"previousEntryPoint","type":"address"},{"indexed":true,"internalType":"address","name":"newEntryPoint","type":"address"},{"indexed":false,"internalType":"uint256","name":"activationTime","type":"uint256"}],"name":"EntryPointProposed","type":"event"},{"anonymous":false,"inputs":[{"indexed":true,"internalType":"address","name":"oldEntryPoint","type":"address"},{"indexed":true,"internalType":"address","name":"newEntryPoint","type":"address"}],"name":"EntryPointUpdated","type":"event"},{"anonymous":false,"inputs":[{"indexed":true,"internalType":"address","name":"recipient","type":"address"},{"indexed":false,"internalType":"uint256","name":"amount","type":"uint256"}],"name":"EntryPointWithdrawal","type":"event"},{"anonymous":false,"inputs":[{"indexed":true,"internalType":"address","name":"caller","type":"address"},{"indexed":true,"internalType":"address","name":"target","type":"address"},{"indexed":false,"internalType":"uint256","name":"value","type":"uint256"},{"indexed":false,"internalType":"bytes32","name":"dataHash","type":"bytes32"}],"name":"ExecutionPerformed","type":"event"},{"anonymous":false,"inputs":[{"indexed":true,"internalType":"address","name":"oldOwner","type":"address"},{"indexed":true,"internalType":"address","name":"newOwner","type":"address"}],"name":"OwnerChanged","type":"event"},{"anonymous":false,"inputs":[{"indexed":true,"internalType":"address","name":"previousOwner","type":"address"},{"indexed":true,"internalType":"address","name":"newOwner","type":"address"}],"name":"OwnershipTransferStarted","type":"event"},{"anonymous":false,"inputs":[{"indexed":true,"internalType":"address","name":"previousSessionManager","type":"address"},{"indexed":true,"internalType":"address","name":"newSessionManager","type":"address"},{"indexed":false,"internalType":"uint256","name":"activationTime","type":"uint256"}],"name":"SessionManagerProposed","type":"event"},{"anonymous":false,"inputs":[{"indexed":true,"internalType":"address","name":"oldSessionManager","type":"address"},{"indexed":true,"internalType":"address","name":"newSessionManager","type":"address"}],"name":"SessionManagerUpdated","type":"event"},{"anonymous":false,"inputs":[{"indexed":true,"internalType":"bytes32","name":"userOpHash","type":"bytes32"},{"indexed":true,"internalType":"address","name":"signer","type":"address"},{"indexed":true,"internalType":"bytes32","name":"sessionId","type":"bytes32"},{"indexed":false,"internalType":"uint256","name":"value","type":"uint256"}],"name":"UserOperationValidated","type":"event"},{"anonymous":false,"inputs":[{"indexed":true,"internalType":"address","name":"owner","type":"address"},{"indexed":true,"internalType":"address","name":"sessionManager","type":"address"},{"indexed":true,"internalType":"address","name":"entryPoint","type":"address"}],"name":"WalletInitialized","type":"event"},{"anonymous":false,"inputs":[{"indexed":true,"internalType":"address","name":"party","type":"address"},{"indexed":false,"internalType":"uint256","name":"count","type":"uint256"}],"name":"WhiteListBatchUpdated","type":"event"},{"anonymous":false,"inputs":[{"indexed":true,"internalType":"address","name":"party","type":"address"},{"indexed":true,"internalType":"bytes4","name":"selector","type":"bytes4"},{"indexed":false,"internalType":"bool","name":"status","type":"bool"}],"name":"WhiteListUpdated","type":"event"},{"inputs":[],"name":"MAX_BATCH_SIZE","outputs":[{"internalType":"uint256","name":"","type":"uint256"}],"stateMutability":"view","type":"function"},{"inputs":[],"name":"TIMELOCK_DELAY","outputs":[{"internalType":"uint256","name":"","type":"uint256"}],"stateMutability":"view","type":"function"},{"inputs":[],"name":"acceptEntryPoint","outputs":[],"stateMutability":"nonpayable","type":"function"},{"inputs":[],"name":"acceptOwnership","outputs":[],"stateMutability":"nonpayable","type":"function"},{"inputs":[],"name":"acceptSessionManager","outputs":[],"stateMutability":"nonpayable","type":"function"},{"inputs":[],"name":"addDeposit","outputs":[],"stateMutability":"payable","type":"function"},{"inputs":[{"internalType":"address","name":"newOwner","type":"address"}],"name":"changeOwner","outputs":[],"stateMutability":"nonpayable","type":"function"},{"inputs":[],"name":"checkBalance","outputs":[{"internalType":"uint256","name":"","type":"uint256"}],"stateMutability":"view","type":"function"},{"inputs":[],"name":"entryPoint","outputs":[{"internalType":"address","name":"","type":"address"}],"stateMutability":"view","type":"function"},{"inputs":[],"name":"entryPointActivationTime","outputs":[{"internalType":"uint256","name":"","type":"uint256"}],"stateMutability":"view","type":"function"},{"inputs":[{"internalType":"address","name":"target","type":"address"},{"internalType":"uint256","name":"value","type":"uint256"},{"internalType":"bytes","name":"data","type":"bytes"}],"name":"execute","outputs":[],"stateMutability":"nonpayable","type":"function"},{"inputs":[{"internalType":"address[]","name":"targets","type":"address[]"},{"internalType":"uint256[]","name":"values","type":"uint256[]"},{"internalType":"bytes[]","name":"data","type":"bytes[]"}],"name":"executeBatch","outputs":[],"stateMutability":"nonpayable","type":"function"},{"inputs":[],"name":"getDeposit","outputs":[{"internalType":"uint256","name":"","type":"uint256"}],"stateMutability":"view","type":"function"},{"inputs":[{"internalType":"address","name":"_owner","type":"address"},{"internalType":"address","name":"_sessionManager","type":"address"},{"internalType":"address","name":"_entryPoint","type":"address"}],"name":"initialize","outputs":[],"stateMutability":"nonpayable","type":"function"},{"inputs":[{"internalType":"address","name":"party","type":"address"},{"internalType":"bytes4","name":"selector","type":"bytes4"}],"name":"isWhiteListed","outputs":[{"internalType":"bool","name":"","type":"bool"}],"stateMutability":"view","type":"function"},{"inputs":[],"name":"owner","outputs":[{"internalType":"address","name":"","type":"address"}],"stateMutability":"view","type":"function"},{"inputs":[],"name":"pendingEntryPoint","outputs":[{"internalType":"address","name":"","type":"address"}],"stateMutability":"view","type":"function"},{"inputs":[],"name":"pendingOwner","outputs":[{"internalType":"address","name":"","type":"address"}],"stateMutability":"view","type":"function"},{"inputs":[],"name":"pendingSessionManager","outputs":[{"internalType":"address","name":"","type":"address"}],"stateMutability":"view","type":"function"},{"inputs":[{"internalType":"address","name":"_entryPoint","type":"address"}],"name":"proposeEntryPoint","outputs":[],"stateMutability":"nonpayable","type":"function"},{"inputs":[{"internalType":"address","name":"_sessionManager","type":"address"}],"name":"proposeSessionManager","outputs":[],"stateMutability":"nonpayable","type":"function"},{"inputs":[],"name":"sessionManager","outputs":[{"internalType":"address","name":"","type":"address"}],"stateMutability":"view","type":"function"},{"inputs":[],"name":"sessionManagerActivationTime","outputs":[{"internalType":"uint256","name":"","type":"uint256"}],"stateMutability":"view","type":"function"},{"inputs":[{"internalType":"address","name":"party","type":"address"},{"internalType":"bytes4","name":"selector","type":"bytes4"},{"internalType":"bool","name":"status","type":"bool"}],"name":"setWhiteListedSelector","outputs":[],"stateMutability":"nonpayable","type":"function"},{"inputs":[{"internalType":"address","name":"party","type":"address"},{"internalType":"bytes4[]","name":"selectors","type":"bytes4[]"},{"internalType":"bool[]","name":"statuses","type":"bool[]"}],"name":"setWhiteListedSelectorBatch","outputs":[],"stateMutability":"nonpayable","type":"function"},{"inputs":[{"internalType":"address","name":"","type":"address"},{"internalType":"address","name":"","type":"address"},{"internalType":"address","name":"","type":"address"},{"internalType":"uint256","name":"","type":"uint256"},{"internalType":"bytes","name":"","type":"bytes"},{"internalType":"bytes","name":"","type":"bytes"}],"name":"tokensReceived","outputs":[],"stateMutability":"nonpayable","type":"function"},{"inputs":[{"components":[{"internalType":"address","name":"sender","type":"address"},{"internalType":"uint256","name":"nonce","type":"uint256"},{"internalType":"bytes","name":"initCode","type":"bytes"},{"internalType":"bytes","name":"callData","type":"bytes"},{"internalType":"bytes32","name":"accountGasLimits","type":"bytes32"},{"internalType":"uint256","name":"preVerificationGas","type":"uint256"},{"internalType":"bytes32","name":"gasFees","type":"bytes32"},{"internalType":"bytes","name":"paymasterAndData","type":"bytes"},{"internalType":"bytes","name":"signature","type":"bytes"}],"internalType":"struct PackedUserOperation","name":"userOp","type":"tuple"},{"internalType":"bytes32","name":"userOpHash","type":"bytes32"},{"internalType":"uint256","name":"missingAccountFunds","type":"uint256"}],"name":"validateUserOp","outputs":[{"internalType":"uint256","name":"validationData","type":"uint256"}],"stateMutability":"nonpayable","type":"function"},{"inputs":[{"internalType":"address","name":"","type":"address"},{"internalType":"bytes4","name":"","type":"bytes4"}],"name":"whiteListedSelectors","outputs":[{"internalType":"bool","name":"","type":"bool"}],"stateMutability":"view","type":"function"},{"inputs":[{"internalType":"address payable","name":"recipient","type":"address"},{"internalType":"uint256","name":"amount","type":"uint256"}],"name":"withdrawDepositTo","outputs":[],"stateMutability":"nonpayable","type":"function"},{"stateMutability":"payable","type":"receive"}],"evm":{"bytecode":{"linkReferences":{},"object":"60808060405234610028576001600055600160ff19600a541617600a55611d93908161002e8239f35b600080fdfe6080604081815260049182361015610022575b505050361561002057600080fd5b005b600092833560e01c91826223de291461134d57826303230ca61461128c5750816305c41908146111a457816307c40b3c1461117b57816312ca68a1146110c057816319822f7c14610fcf5781631dab21a714610fa65781631f45349f14610e40578163309cc95714610d6c5781633e2c85f3146106ae57816347e1da2a14610af15781634a58db19146109b15781634d44560d146108b25781635ba1c1a91461089457816379ba5097146107fc5781638da5cb5b146107d35781638fc1cebd14610706578163a1eab253146106ae578163a6f9dae1146105ec578163b0d691fe146105c4578163b61d27f61461044d578163b7b13f7914610424578163c0c53b8b146102a5578163c399ec881461020c57508063c71daccb146101f2578063c96f03e0146101d4578063cfdbf254146101b9578063e30c3978146101915763ec4c9157146101705780610012565b3461018d578160031936011261018d576020906007549051908152f35b5080fd5b503461018d578160031936011261018d5760025490516001600160a01b039091168152602090f35b503461018d578160031936011261018d576020905160148152f35b503461018d578160031936011261018d576020906009549051908152f35b503461018d578160031936011261018d5751478152602090f35b83833461018d578160031936011261018d57825481516370a0823160e01b81523094810194909452602090849060249082906001600160a01b03165afa91821561029a5791610260575b6020925051908152f35b90506020823d602011610292575b8161027b60209383611555565b8101031261028d576020915190610256565b600080fd5b3d915061026e565b9051903d90823e3d90fd5b91905034610420576060366003190112610420576102c16113b8565b906102ca6113ce565b906102d36113e4565b9260ff600a5416610410576001600160a01b039081169283156104005781169384156103f157169384156103e357908591856001600160601b0360a01b8581600154161760015586816003541617600355825416178155731820a4b7618bd7140785a44af1a4f87c3332006c803b156103df57606484939284935194859384926329965a1d60e01b845230908401527fb281fc8c12954d22544db45de3159a39272895b169a852b314f9cc762e44c53b60248401523060448401525af16103cb575b5050600160ff19600a541617600a557f31f30195006760f9b61e7325457ca7acacfbdd7734b88a22545e264b62357fde8480a480f35b6103d49061152c565b6103df578338610395565b8380fd5b90516392377dd560e01b8152fd5b825162d9b42560e01b81528690fd5b825163062ef65960e21b81528690fd5b8151630173063360e51b81528590fd5b8280fd5b50503461018d578160031936011261018d5760035490516001600160a01b039091168152602090f35b905034610420576060366003190112610420576104686113b8565b91602435916044356001600160401b0381116105c05761048b903690830161140e565b9091610495611873565b60ff600a5416156105b2576001546001600160a01b0396908716331415806105a5575b6105965781831061058f5782821161058b5783356001600160e01b031916965b81169687895260056020528589209063ffffffff60e01b16895260205260ff85892054161561057c57878091865185878237888187810185815203925af161051e611591565b501561056e57507f0e33d84651ce1cd4dc3f8e0dda3367f25aac071e622cf520436716bba196be5392916105539136916115c1565b60208151910120815193845260208401523392a36001815580f35b83516319a5546560e21b8152fd5b50835163b99820a560e01b8152fd5b8780fd5b87966104d8565b5083516379b798cf60e11b8152fd5b50868254163314156104b8565b8351638fc8bd5960e01b8152fd5b8580fd5b9050346104205782600319360112610420575490516001600160a01b03909116815260209150f35b905034610420576020366003190112610420576106076113b8565b6001546001600160a01b039081169290913384900361069f5760ff600a541615610690578216938415610683576002549283166106765750506001600160a01b03191682176002557f38d16b8cac22d99fc7c124b9cd0de2d3fa1faef420bfe791d8c362d765e227008380a380f35b51632bb652d360e21b8152fd5b5163062ef65960e21b8152fd5b508351638fc8bd5960e01b8152fd5b5083516374a2152760e01b8152fd5b50503461018d578060031936011261018d5760ff816020936106ce6113b8565b6106d661143b565b6001600160a01b039091168252600586528282206001600160e01b03199091168252855220549151911615158152f35b919050346104205782600319360112610420576001546001600160a01b039190821633036107c45760ff600a5416156107b557600854928284169182156107a857600954421061079b575080546001600160a01b03198082168417909255931660085560098490558383161791167f9efc8bb238b1965522b3e784290f41e0229e21a34f499fd2f71b64463283a4168380a380f35b51639e3d304d60e01b8152fd5b516392377dd560e01b8152fd5b51638fc8bd5960e01b81529050fd5b516374a2152760e01b81529050fd5b50503461018d578160031936011261018d5760015490516001600160a01b039091168152602090f35b90503461042057826003193601126104205760ff600a54161561088657600254916001600160a01b03918284169133839003610879575050600154926001600160601b0360a01b9182851617600155166002553391167fb532073b38c83145e3e5135377a08bf9aab55bc0fd7c1179cd4fb995d2a5159c8380a380f35b516379b798cf60e11b8152fd5b9051638fc8bd5960e01b8152fd5b50503461018d578160031936011261018d5760209051620151808152f35b9050346104205781600319360112610420576108cc6113b8565b6001546001600160a01b03936024359390929091851633036109a25760ff600a5416156109935784169384156109845790859181541690813b15610420578560448492838751958694859363040b850f60e31b85528401528960248401525af1801561097a57610966575b50507fcae8414aeb02c2a7a7089c22ed61def4882bf260298b39ff6ba047ef80a2f3799160209151908152a280f35b61096f9061152c565b6103df578338610937565b83513d84823e3d90fd5b509051637192f5b760e11b8152fd5b509051638fc8bd5960e01b8152fd5b5090516374a2152760e01b8152fd5b919050826003193601126104205760ff600a541615610ae45781546001600160a01b0390811684813b15610ae157835163b760faf960e01b81523086820152918290602490829034905af18015610ad757610ac3575b506020908354169260248351809581936370a0823160e01b835230908301525afa8015610ab9578390610a67575b7f4936e4683983dc3b8afb17c6844af8a193b8bdc330595d260421c7e84ebf683e92508151903482526020820152a180f35b506020823d602011610ab1575b81610a8160209383611555565b8101031261028d577f4936e4683983dc3b8afb17c6844af8a193b8bdc330595d260421c7e84ebf683e9151610a35565b3d9150610a74565b81513d85823e3d90fd5b93610ad06020929561152c565b9390610a07565b83513d87823e3d90fd5b80fd5b51638fc8bd5960e01b8152fd5b83833461018d57606036600319011261018d576001600160401b039083358281116103df57610b239036908601611452565b9290946024358281116105c057610b3d9036908301611452565b919092604435908111610d6857610b579036908301611452565b9390610b61611873565b60ff9460ff600a541615610d585760018054909a6001600160a01b039691871633141580610d4b575b610d3b578915610d2157818a14801590610d31575b610d215760148a11610d1157999a8b9a90978b5b8b8110610bf4578c8c8f8d7f36551ad729f069397fd12c263eba2bdbdb0e999953df151620e1ec9edd8f2aaf91815193845260208401523392a26001815580f35b8b89828f9c9f9e9d9c8b610c09838b8d6114fd565b90501015600014610d0357509050610c23915086886114fd565b8911610cff57356001600160e01b03191689610c49610c44848f5b886114a5565b611518565b168d52600560209081528b8e206001600160e01b03199092168e5252898c2054821615610cef578b808c9d9e9f610c44849d9e9d610c97610c9e93610c90838f8d906114a5565b3590611482565b9e886114a5565b8d610caa85898d6114a5565b35610cb6868b8d6114fd565b8093519384928337810185815203925af1610ccf611591565b5015610cdf578d019c989c610bb3565b8a5163ec98ced760e01b81528890fd5b895163b99820a560e01b81528890fd5b8c80fd5b610c4991610c449194610c3e565b8851631d6abe8d60e01b81528690fd5b8851637736a16d60e01b81528690fd5b5082821415610b9f565b88516379b798cf60e11b81528690fd5b5086865416331415610b8a565b8651638fc8bd5960e01b81528490fd5b8680fd5b9190503461042057602036600319011261042057610d886113b8565b6001546001600160a01b03939190841633036109a25760ff600a541615610993578316928315610e3157600854818116610e22576001600160a01b03191684176008554262015180810192908310610e0f57916020917f82f58bce0ef526ec4e76de79042b60f5542ca08dbe0ef18bfa95d8c32fcbb710938260095554169351908152a380f35b634e487b7160e01b865260119052602485fd5b8351622d0f5f60e01b81528390fd5b5090516392377dd560e01b8152fd5b9190503461042057606036600319011261042057610e5c6113b8565b6001600160401b0391906024358381116105c057610e7d9036908601611452565b93604435908111610d6857610e959036908701611452565b6001805490949293926001600160a01b039182163303610f965760ff600a541615610f865716968715610f7857818703610f6a5750875b868110610f025788887f414c342353f05726910e03f51e178b30701f919619e07cc05fb7383d7fcedd2360208a8a51908152a280f35b610f0d8183866114a5565b35908115158203610f6657888a528960209260058452888220610f31848c896114a5565b359463ffffffff60e01b86168096036103df578995610f60945252888c209060ff801983541691151516179055565b01610ecc565b8980fd5b8551637736a16d60e01b8152fd5b8551637192f5b760e11b8152fd5b8651638fc8bd5960e01b81528990fd5b86516374a2152760e01b81528990fd5b50503461018d578160031936011261018d5760065490516001600160a01b039091168152602090f35b83833461018d5760031992606036850112610420578035936001600160401b0385116103df576101209085360301126104205780546001600160a01b039460443592916024359190871633036110b05760ff600a5416156110a05781611036918401611643565b9193909480611076575b5050602080977f3beba097c09c235465df7c6857b74b6435ffb77e2cb08a8f714156c35da603739287519586521693a451908152f35b8780808093335af1611086611591565b50156110925780611040565b855163323e69dd60e11b8152fd5b8451638fc8bd5960e01b81528390fd5b845163f02946ad60e01b81528390fd5b9050346104205782600319360112610420576001546001600160a01b0391908216330361116d5760ff600a54161561115f576006549082821693841561115357600754421061079b575050600354906001600160601b0360a01b9084828416176003551660065583600755167fa69f501b2fc95540d8bea22fcfa85d00f48f611c00a457d08f00f7754c9063cb8380a380f35b5162d9b42560e01b8152fd5b8251638fc8bd5960e01b8152fd5b82516374a2152760e01b8152fd5b50503461018d578160031936011261018d5760085490516001600160a01b039091168152602090f35b905034610420576060366003190112610420576111bf6113b8565b6111c761143b565b9260443580151592838203610d68576001546001600160a01b0391908216330361127c5760ff600a54161561126c571693841561125e5750916020916112567fb5091879dad74fc467385a5d3ca976bbdf8e754a848b0f231c50d9d0924173da94868952600585528289209763ffffffff60e01b1697888a5285528289209060ff801983541691151516179055565b51908152a380f35b8251637192f5b760e11b8152fd5b8351638fc8bd5960e01b81528690fd5b83516374a2152760e01b81528690fd5b929150346103df5760203660031901126103df576112a86113b8565b6001546001600160a01b0394908516330361133f575060ff600a54161561099357831692831561133157600654818116610e22576001600160a01b03191684176006554262015180810192908310610e0f5750816020917fe57f3914c462c93d70e218904ab70d6c345073c4deceb8c18c4955b3f67f874893600755600354169351908152a380f35b50905162d9b42560e01b8152fd5b6374a2152760e01b81529050fd5b84823461018d5760c036600319011261018d576113686113b8565b506113716113ce565b5061137a6113e4565b506001600160401b03906084358281116103df5761139b903690830161140e565b505060a435918211610420576113b39136910161140e565b505080f35b600435906001600160a01b038216820361028d57565b602435906001600160a01b038216820361028d57565b604435906001600160a01b038216820361028d57565b35906001600160a01b038216820361028d57565b9181601f8401121561028d578235916001600160401b03831161028d576020838186019501011161028d57565b602435906001600160e01b03198216820361028d57565b9181601f8401121561028d578235916001600160401b03831161028d576020808501948460051b01011161028d57565b9190820180921161148f57565b634e487b7160e01b600052601160045260246000fd5b91908110156114b55760051b0190565b634e487b7160e01b600052603260045260246000fd5b903590601e198136030182121561028d57018035906001600160401b03821161028d5760200191813603831361028d57565b908210156114b5576115149160051b8101906114cb565b9091565b356001600160a01b038116810361028d5790565b6001600160401b03811161153f57604052565b634e487b7160e01b600052604160045260246000fd5b90601f801991011681019081106001600160401b0382111761153f57604052565b6001600160401b03811161153f57601f01601f191660200190565b3d156115bc573d906115a282611576565b916115b06040519384611555565b82523d6000602084013e565b606090565b9291926115cd82611576565b916115db6040519384611555565b82948184528183011161028d578281602093846000960137010152565b9080601f8301121561028d57816020611613933591016115c1565b90565b91909160408184031261028d5780359260208201356001600160401b03811161028d5761161392016115f8565b9161166461165d61165760608601866114cb565b906118ad565b9284611b3c565b9160018060a01b039384600154168585161461186a5761168c816101006116949301906114cb565b810190611616565b5093806003541660409081519063c7cdfc0160e01b825260049388858401526020928381602481865afa90811561185f57918791859360009161181f575b5060ff16600181036117805750600354865163f545b88b60e01b81528881018d81526001600160a01b038d166020820152604081019490945294508492839003606001918391600091165af191821561177557600092611748575b50501561173b575050929190565b5163b02726e560e01b8152fd5b6117679250803d1061176e575b61175f8183611555565b810190611bf4565b388061172d565b503d611755565b83513d6000823e3d90fd5b925050501560001461181057825163370d79f560e21b81528481018981526001600160a01b038916602082015260408101879052909183918391908290600090829060600103925af1918215611775576000926117f3575b5050156117e6575050929190565b5163e00e6a2560e01b8152fd5b6118099250803d1061176e5761175f8183611555565b38806117d8565b50505163e00e6a2560e01b8152fd5b848193959294503d8311611858575b6118388183611555565b8101031261018d57519060ff82168203610ae157508391879160ff6116d2565b503d61182e565b85513d6000823e3d90fd5b50925060009190565b600260005414611884576002600055565b604051633ee5aeb560e01b8152600490fd5b6001600160401b03811161153f5760051b60200190565b90916000916000916004948086116103df5782356001600160e01b031916635b0e93fb60e11b8114611aed576323f0ed1560e11b146118f757604051630141e84160e01b81528690fd5b93949293820160608382036003190112611ae9576001600160401b03948385013586811161018d578401948260238701121561018d57808601359360249361193e86611896565b9861194c6040519a8b611555565b868a52602098898b018760059960051b8301019184831161058b57888c9101915b838310611ad15750505050858801358181116105c0578801978260238a0112156105c057848901359861199f8a611896565b996119ad6040519b8c611555565b808b52888c8c019160051b83010191858311611acd57898d9101915b838310611abd5750505050604481013590828211610d68570191806023840112156105c0578483013591878b6119fe85611896565b611a0b6040519182611555565b858152019360051b8501019382851161058b57888101935b858510611a98575050505050508751865103611a885782985b88518a1015611a7c5786518a1015611a6a57611a62600191898c891b8a01015190611482565b990198611a3c565b5050634e487b7160e01b825260329052fd5b98509650505050505050565b50604051637736a16d60e01b8152fd5b8435838111610f66578d91611ab2868d85948701016115f8565b815201940193611a23565b82358152918101918d91016119c9565b8880fd5b8190611adc846113fa565b8152019101908b9061196d565b8480fd5b50909491935083019160608484036003190112610ae157611b0f8285016113fa565b506044840135906001600160401b038211610ae1575091611b3691849360249501016115f8565b50013590565b907f19457468657265756d205369676e6564204d6573736167653a0a333200000000600052601c52603c600020906101008101906041611b7c83836114cb565b905014611ba85791611b9761168c611b9f93611613956114cb565b919050611c0c565b90929192611c48565b91611bc3611bbc611b9f93611bc9956114cb565b36916115c1565b90611c0c565b6001546001600160a01b0390811690821603611be25790565b6040516391fad51160e01b8152600490fd5b9081602091031261028d5751801515810361028d5790565b8151919060418303611c3d57611c3692506020820151906060604084015193015160001a90611ccd565b9192909190565b505060009160029190565b6004811015611cb75780611c5a575050565b60018103611c745760405163f645eedf60e01b8152600490fd5b60028103611c955760405163fce698f760e01b815260048101839052602490fd5b600314611c9f5750565b602490604051906335e2f38360e21b82526004820152fd5b634e487b7160e01b600052602160045260246000fd5b91907f7fffffffffffffffffffffffffffffff5d576e7357a4501ddfe92f46681b20a08411611d5157926020929160ff608095604051948552168484015260408301526060820152600092839182805260015afa15611d455780516001600160a01b03811615611d3c57918190565b50809160019190565b604051903d90823e3d90fd5b5050506000916003919056fea26469706673582212208a72cc0ae5b337329f930f6c149e55d01070d0dbf8a2e13ac4e885befdaddd3b64736f6c63430008180033","opcodes":"PUSH1 0x80 DUP1 PUSH1 0x40 MSTORE CALLVALUE PUSH2 0x28 JUMPI PUSH1 0x1 PUSH1 0x0 SSTORE PUSH1 0x1 PUSH1 0xFF NOT PUSH1 0xA SLOAD AND OR PUSH1 0xA SSTORE PUSH2 0x1D93 SWAP1 DUP2 PUSH2 0x2E DUP3 CODECOPY RETURN JUMPDEST PUSH1 0x0 DUP1 REVERT INVALID PUSH1 0x80 PUSH1 0x40 DUP2 DUP2 MSTORE PUSH1 0x4 SWAP2 DUP3 CALLDATASIZE LT ISZERO PUSH2 0x22 JUMPI JUMPDEST POP POP POP CALLDATASIZE ISZERO PUSH2 0x20 JUMPI PUSH1 0x0 DUP1 REVERT JUMPDEST STOP JUMPDEST PUSH1 0x0 SWAP3 DUP4 CALLDATALOAD PUSH1 0xE0 SHR SWAP2 DUP3 PUSH3 0x23DE29 EQ PUSH2 0x134D JUMPI DUP3 PUSH4 0x3230CA6 EQ PUSH2 0x128C JUMPI POP DUP2 PUSH4 0x5C41908 EQ PUSH2 0x11A4 JUMPI DUP2 PUSH4 0x7C40B3C EQ PUSH2 0x117B JUMPI DUP2 PUSH4 0x12CA68A1 EQ PUSH2 0x10C0 JUMPI DUP2 PUSH4 0x19822F7C EQ PUSH2 0xFCF JUMPI DUP2 PUSH4 0x1DAB21A7 EQ PUSH2 0xFA6 JUMPI DUP2 PUSH4 0x1F45349F EQ PUSH2 0xE40 JUMPI DUP2 PUSH4 0x309CC957 EQ PUSH2 0xD6C JUMPI DUP2 PUSH4 0x3E2C85F3 EQ PUSH2 0x6AE JUMPI DUP2 PUSH4 0x47E1DA2A EQ PUSH2 0xAF1 JUMPI DUP2 PUSH4 0x4A58DB19 EQ PUSH2 0x9B1 JUMPI DUP2 PUSH4 0x4D44560D EQ PUSH2 0x8B2 JUMPI DUP2 PUSH4 0x5BA1C1A9 EQ PUSH2 0x894 JUMPI DUP2 PUSH4 0x79BA5097 EQ PUSH2 0x7FC JUMPI DUP2 PUSH4 0x8DA5CB5B EQ PUSH2 0x7D3 JUMPI DUP2 PUSH4 0x8FC1CEBD EQ PUSH2 0x706 JUMPI DUP2 PUSH4 0xA1EAB253 EQ PUSH2 0x6AE JUMPI DUP2 PUSH4 0xA6F9DAE1 EQ PUSH2 0x5EC JUMPI DUP2 PUSH4 0xB0D691FE EQ PUSH2 0x5C4 JUMPI DUP2 PUSH4 0xB61D27F6 EQ PUSH2 0x44D JUMPI DUP2 PUSH4 0xB7B13F79 EQ PUSH2 0x424 JUMPI DUP2 PUSH4 0xC0C53B8B EQ PUSH2 0x2A5 JUMPI DUP2 PUSH4 0xC399EC88 EQ PUSH2 0x20C JUMPI POP DUP1 PUSH4 0xC71DACCB EQ PUSH2 0x1F2 JUMPI DUP1 PUSH4 0xC96F03E0 EQ PUSH2 0x1D4 JUMPI DUP1 PUSH4 0xCFDBF254 EQ PUSH2 0x1B9 JUMPI DUP1 PUSH4 0xE30C3978 EQ PUSH2 0x191 JUMPI PUSH4 0xEC4C9157 EQ PUSH2 0x170 JUMPI DUP1 PUSH2 0x12 JUMP JUMPDEST CALLVALUE PUSH2 0x18D JUMPI DUP2 PUSH1 0x3 NOT CALLDATASIZE ADD SLT PUSH2 0x18D JUMPI PUSH1 0x20 SWAP1 PUSH1 0x7 SLOAD SWAP1 MLOAD SWAP1 DUP2 MSTORE RETURN JUMPDEST POP DUP1 REVERT JUMPDEST POP CALLVALUE PUSH2 0x18D JUMPI DUP2 PUSH1 0x3 NOT CALLDATASIZE ADD SLT PUSH2 0x18D JUMPI PUSH1 0x2 SLOAD SWAP1 MLOAD PUSH1 0x1 PUSH1 0x1 PUSH1 0xA0 SHL SUB SWAP1 SWAP2 AND DUP2 MSTORE PUSH1 0x20 SWAP1 RETURN JUMPDEST POP CALLVALUE PUSH2 0x18D JUMPI DUP2 PUSH1 0x3 NOT CALLDATASIZE ADD SLT PUSH2 0x18D JUMPI PUSH1 0x20 SWAP1 MLOAD PUSH1 0x14 DUP2 MSTORE RETURN JUMPDEST POP CALLVALUE PUSH2 0x18D JUMPI DUP2 PUSH1 0x3 NOT CALLDATASIZE ADD SLT PUSH2 0x18D JUMPI PUSH1 0x20 SWAP1 PUSH1 0x9 SLOAD SWAP1 MLOAD SWAP1 DUP2 MSTORE RETURN JUMPDEST POP CALLVALUE PUSH2 0x18D JUMPI DUP2 PUSH1 0x3 NOT CALLDATASIZE ADD SLT PUSH2 0x18D JUMPI MLOAD SELFBALANCE DUP2 MSTORE PUSH1 0x20 SWAP1 RETURN JUMPDEST DUP4 DUP4 CALLVALUE PUSH2 0x18D JUMPI DUP2 PUSH1 0x3 NOT CALLDATASIZE ADD SLT PUSH2 0x18D JUMPI DUP3 SLOAD DUP2 MLOAD PUSH4 0x70A08231 PUSH1 0xE0 SHL DUP2 MSTORE ADDRESS SWAP5 DUP2 ADD SWAP5 SWAP1 SWAP5 MSTORE PUSH1 0x20 SWAP1 DUP5 SWAP1 PUSH1 0x24 SWAP1 DUP3 SWAP1 PUSH1 0x1 PUSH1 0x1 PUSH1 0xA0 SHL SUB AND GAS STATICCALL SWAP2 DUP3 ISZERO PUSH2 0x29A JUMPI SWAP2 PUSH2 0x260 JUMPI JUMPDEST PUSH1 0x20 SWAP3 POP MLOAD SWAP1 DUP2 MSTORE RETURN JUMPDEST SWAP1 POP PUSH1 0x20 DUP3 RETURNDATASIZE PUSH1 0x20 GT PUSH2 0x292 JUMPI JUMPDEST DUP2 PUSH2 0x27B PUSH1 0x20 SWAP4 DUP4 PUSH2 0x1555 JUMP JUMPDEST DUP2 ADD SUB SLT PUSH2 0x28D JUMPI PUSH1 0x20 SWAP2 MLOAD SWAP1 PUSH2 0x256 JUMP JUMPDEST PUSH1 0x0 DUP1 REVERT JUMPDEST RETURNDATASIZE SWAP2 POP PUSH2 0x26E JUMP JUMPDEST SWAP1 MLOAD SWAP1 RETURNDATASIZE SWAP1 DUP3 RETURNDATACOPY RETURNDATASIZE SWAP1 REVERT JUMPDEST SWAP2 SWAP1 POP CALLVALUE PUSH2 0x420 JUMPI PUSH1 0x60 CALLDATASIZE PUSH1 0x3 NOT ADD SLT PUSH2 0x420 JUMPI PUSH2 0x2C1 PUSH2 0x13B8 JUMP JUMPDEST SWAP1 PUSH2 0x2CA PUSH2 0x13CE JUMP JUMPDEST SWAP1 PUSH2 0x2D3 PUSH2 0x13E4 JUMP JUMPDEST SWAP3 PUSH1 0xFF PUSH1 0xA SLOAD AND PUSH2 0x410 JUMPI PUSH1 0x1 PUSH1 0x1 PUSH1 0xA0 SHL SUB SWAP1 DUP2 AND SWAP3 DUP4 ISZERO PUSH2 0x400 JUMPI DUP2 AND SWAP4 DUP5 ISZERO PUSH2 0x3F1 JUMPI AND SWAP4 DUP5 ISZERO PUSH2 0x3E3 JUMPI SWAP1 DUP6 SWAP2 DUP6 PUSH1 0x1 PUSH1 0x1 PUSH1 0x60 SHL SUB PUSH1 0xA0 SHL DUP6 DUP2 PUSH1 0x1 SLOAD AND OR PUSH1 0x1 SSTORE DUP7 DUP2 PUSH1 0x3 SLOAD AND OR PUSH1 0x3 SSTORE DUP3 SLOAD AND OR DUP2 SSTORE PUSH20 0x1820A4B7618BD7140785A44AF1A4F87C3332006C DUP1 EXTCODESIZE ISZERO PUSH2 0x3DF JUMPI PUSH1 0x64 DUP5 SWAP4 SWAP3 DUP5 SWAP4 MLOAD SWAP5 DUP6 SWAP4 DUP5 SWAP3 PUSH4 0x29965A1D PUSH1 0xE0 SHL DUP5 MSTORE ADDRESS SWAP1 DUP5 ADD MSTORE PUSH32 0xB281FC8C12954D22544DB45DE3159A39272895B169A852B314F9CC762E44C53B PUSH1 0x24 DUP5 ADD MSTORE ADDRESS PUSH1 0x44 DUP5 ADD MSTORE GAS CALL PUSH2 0x3CB JUMPI JUMPDEST POP POP PUSH1 0x1 PUSH1 0xFF NOT PUSH1 0xA SLOAD AND OR PUSH1 0xA SSTORE PUSH32 0x31F30195006760F9B61E7325457CA7ACACFBDD7734B88A22545E264B62357FDE DUP5 DUP1 LOG4 DUP1 RETURN JUMPDEST PUSH2 0x3D4 SWAP1 PUSH2 0x152C JUMP JUMPDEST PUSH2 0x3DF JUMPI DUP4 CODESIZE PUSH2 0x395 JUMP JUMPDEST DUP4 DUP1 REVERT JUMPDEST SWAP1 MLOAD PUSH4 0x92377DD5 PUSH1 0xE0 SHL DUP2 MSTORE REVERT JUMPDEST DUP3 MLOAD PUSH3 0xD9B425 PUSH1 0xE0 SHL DUP2 MSTORE DUP7 SWAP1 REVERT JUMPDEST DUP3 MLOAD PUSH4 0x62EF659 PUSH1 0xE2 SHL DUP2 MSTORE DUP7 SWAP1 REVERT JUMPDEST DUP2 MLOAD PUSH4 0x1730633 PUSH1 0xE5 SHL DUP2 MSTORE DUP6 SWAP1 REVERT JUMPDEST DUP3 DUP1 REVERT JUMPDEST POP POP CALLVALUE PUSH2 0x18D JUMPI DUP2 PUSH1 0x3 NOT CALLDATASIZE ADD SLT PUSH2 0x18D JUMPI PUSH1 0x3 SLOAD SWAP1 MLOAD PUSH1 0x1 PUSH1 0x1 PUSH1 0xA0 SHL SUB SWAP1 SWAP2 AND DUP2 MSTORE PUSH1 0x20 SWAP1 RETURN JUMPDEST SWAP1 POP CALLVALUE PUSH2 0x420 JUMPI PUSH1 0x60 CALLDATASIZE PUSH1 0x3 NOT ADD SLT PUSH2 0x420 JUMPI PUSH2 0x468 PUSH2 0x13B8 JUMP JUMPDEST SWAP2 PUSH1 0x24 CALLDATALOAD SWAP2 PUSH1 0x44 CALLDATALOAD PUSH1 0x1 PUSH1 0x1 PUSH1 0x40 SHL SUB DUP2 GT PUSH2 0x5C0 JUMPI PUSH2 0x48B SWAP1 CALLDATASIZE SWAP1 DUP4 ADD PUSH2 0x140E JUMP JUMPDEST SWAP1 SWAP2 PUSH2 0x495 PUSH2 0x1873 JUMP JUMPDEST PUSH1 0xFF PUSH1 0xA SLOAD AND ISZERO PUSH2 0x5B2 JUMPI PUSH1 0x1 SLOAD PUSH1 0x1 PUSH1 0x1 PUSH1 0xA0 SHL SUB SWAP7 SWAP1 DUP8 AND CALLER EQ ISZERO DUP1 PUSH2 0x5A5 JUMPI JUMPDEST PUSH2 0x596 JUMPI DUP2 DUP4 LT PUSH2 0x58F JUMPI DUP3 DUP3 GT PUSH2 0x58B JUMPI DUP4 CALLDATALOAD PUSH1 0x1 PUSH1 0x1 PUSH1 0xE0 SHL SUB NOT AND SWAP7 JUMPDEST DUP2 AND SWAP7 DUP8 DUP10 MSTORE PUSH1 0x5 PUSH1 0x20 MSTORE DUP6 DUP10 KECCAK256 SWAP1 PUSH4 0xFFFFFFFF PUSH1 0xE0 SHL AND DUP10 MSTORE PUSH1 0x20 MSTORE PUSH1 0xFF DUP6 DUP10 KECCAK256 SLOAD AND ISZERO PUSH2 0x57C JUMPI DUP8 DUP1 SWAP2 DUP7 MLOAD DUP6 DUP8 DUP3 CALLDATACOPY DUP9 DUP2 DUP8 DUP2 ADD DUP6 DUP2 MSTORE SUB SWAP3 GAS CALL PUSH2 0x51E PUSH2 0x1591 JUMP JUMPDEST POP ISZERO PUSH2 0x56E JUMPI POP PUSH32 0xE33D84651CE1CD4DC3F8E0DDA3367F25AAC071E622CF520436716BBA196BE53 SWAP3 SWAP2 PUSH2 0x553 SWAP2 CALLDATASIZE SWAP2 PUSH2 0x15C1 JUMP JUMPDEST PUSH1 0x20 DUP2 MLOAD SWAP2 ADD KECCAK256 DUP2 MLOAD SWAP4 DUP5 MSTORE PUSH1 0x20 DUP5 ADD MSTORE CALLER SWAP3 LOG3 PUSH1 0x1 DUP2 SSTORE DUP1 RETURN JUMPDEST DUP4 MLOAD PUSH4 0x19A55465 PUSH1 0xE2 SHL DUP2 MSTORE REVERT JUMPDEST POP DUP4 MLOAD PUSH4 0xB99820A5 PUSH1 0xE0 SHL DUP2 MSTORE REVERT JUMPDEST DUP8 DUP1 REVERT JUMPDEST DUP8 SWAP7 PUSH2 0x4D8 JUMP JUMPDEST POP DUP4 MLOAD PUSH4 0x79B798CF PUSH1 0xE1 SHL DUP2 MSTORE REVERT JUMPDEST POP DUP7 DUP3 SLOAD AND CALLER EQ ISZERO PUSH2 0x4B8 JUMP JUMPDEST DUP4 MLOAD PUSH4 0x8FC8BD59 PUSH1 0xE0 SHL DUP2 MSTORE REVERT JUMPDEST DUP6 DUP1 REVERT JUMPDEST SWAP1 POP CALLVALUE PUSH2 0x420 JUMPI DUP3 PUSH1 0x3 NOT CALLDATASIZE ADD SLT PUSH2 0x420 JUMPI SLOAD SWAP1 MLOAD PUSH1 0x1 PUSH1 0x1 PUSH1 0xA0 SHL SUB SWAP1 SWAP2 AND DUP2 MSTORE PUSH1 0x20 SWAP2 POP RETURN JUMPDEST SWAP1 POP CALLVALUE PUSH2 0x420 JUMPI PUSH1 0x20 CALLDATASIZE PUSH1 0x3 NOT ADD SLT PUSH2 0x420 JUMPI PUSH2 0x607 PUSH2 0x13B8 JUMP JUMPDEST PUSH1 0x1 SLOAD PUSH1 0x1 PUSH1 0x1 PUSH1 0xA0 SHL SUB SWAP1 DUP2 AND SWAP3 SWAP1 SWAP2 CALLER DUP5 SWAP1 SUB PUSH2 0x69F JUMPI PUSH1 0xFF PUSH1 0xA SLOAD AND ISZERO PUSH2 0x690 JUMPI DUP3 AND SWAP4 DUP5 ISZERO PUSH2 0x683 JUMPI PUSH1 0x2 SLOAD SWAP3 DUP4 AND PUSH2 0x676 JUMPI POP POP PUSH1 0x1 PUSH1 0x1 PUSH1 0xA0 SHL SUB NOT AND DUP3 OR PUSH1 0x2 SSTORE PUSH32 0x38D16B8CAC22D99FC7C124B9CD0DE2D3FA1FAEF420BFE791D8C362D765E22700 DUP4 DUP1 LOG3 DUP1 RETURN JUMPDEST MLOAD PUSH4 0x2BB652D3 PUSH1 0xE2 SHL DUP2 MSTORE REVERT JUMPDEST MLOAD PUSH4 0x62EF659 PUSH1 0xE2 SHL DUP2 MSTORE REVERT JUMPDEST POP DUP4 MLOAD PUSH4 0x8FC8BD59 PUSH1 0xE0 SHL DUP2 MSTORE REVERT JUMPDEST POP DUP4 MLOAD PUSH4 0x74A21527 PUSH1 0xE0 SHL DUP2 MSTORE REVERT JUMPDEST POP POP CALLVALUE PUSH2 0x18D JUMPI DUP1 PUSH1 0x3 NOT CALLDATASIZE ADD SLT PUSH2 0x18D JUMPI PUSH1 0xFF DUP2 PUSH1 0x20 SWAP4 PUSH2 0x6CE PUSH2 0x13B8 JUMP JUMPDEST PUSH2 0x6D6 PUSH2 0x143B JUMP JUMPDEST PUSH1 0x1 PUSH1 0x1 PUSH1 0xA0 SHL SUB SWAP1 SWAP2 AND DUP3 MSTORE PUSH1 0x5 DUP7 MSTORE DUP3 DUP3 KECCAK256 PUSH1 0x1 PUSH1 0x1 PUSH1 0xE0 SHL SUB NOT SWAP1 SWAP2 AND DUP3 MSTORE DUP6 MSTORE KECCAK256 SLOAD SWAP2 MLOAD SWAP2 AND ISZERO ISZERO DUP2 MSTORE RETURN JUMPDEST SWAP2 SWAP1 POP CALLVALUE PUSH2 0x420 JUMPI DUP3 PUSH1 0x3 NOT CALLDATASIZE ADD SLT PUSH2 0x420 JUMPI PUSH1 0x1 SLOAD PUSH1 0x1 PUSH1 0x1 PUSH1 0xA0 SHL SUB SWAP2 SWAP1 DUP3 AND CALLER SUB PUSH2 0x7C4 JUMPI PUSH1 0xFF PUSH1 0xA SLOAD AND ISZERO PUSH2 0x7B5 JUMPI PUSH1 0x8 SLOAD SWAP3 DUP3 DUP5 AND SWAP2 DUP3 ISZERO PUSH2 0x7A8 JUMPI PUSH1 0x9 SLOAD TIMESTAMP LT PUSH2 0x79B JUMPI POP DUP1 SLOAD PUSH1 0x1 PUSH1 0x1 PUSH1 0xA0 SHL SUB NOT DUP1 DUP3 AND DUP5 OR SWAP1 SWAP3 SSTORE SWAP4 AND PUSH1 0x8 SSTORE PUSH1 0x9 DUP5 SWAP1 SSTORE DUP4 DUP4 AND OR SWAP2 AND PUSH32 0x9EFC8BB238B1965522B3E784290F41E0229E21A34F499FD2F71B64463283A416 DUP4 DUP1 LOG3 DUP1 RETURN JUMPDEST MLOAD PUSH4 0x9E3D304D PUSH1 0xE0 SHL DUP2 MSTORE REVERT JUMPDEST MLOAD PUSH4 0x92377DD5 PUSH1 0xE0 SHL DUP2 MSTORE REVERT JUMPDEST MLOAD PUSH4 0x8FC8BD59 PUSH1 0xE0 SHL DUP2 MSTORE SWAP1 POP REVERT JUMPDEST MLOAD PUSH4 0x74A21527 PUSH1 0xE0 SHL DUP2 MSTORE SWAP1 POP REVERT JUMPDEST POP POP CALLVALUE PUSH2 0x18D JUMPI DUP2 PUSH1 0x3 NOT CALLDATASIZE ADD SLT PUSH2 0x18D JUMPI PUSH1 0x1 SLOAD SWAP1 MLOAD PUSH1 0x1 PUSH1 0x1 PUSH1 0xA0 SHL SUB SWAP1 SWAP2 AND DUP2 MSTORE PUSH1 0x20 SWAP1 RETURN JUMPDEST SWAP1 POP CALLVALUE PUSH2 0x420 JUMPI DUP3 PUSH1 0x3 NOT CALLDATASIZE ADD SLT PUSH2 0x420 JUMPI PUSH1 0xFF PUSH1 0xA SLOAD AND ISZERO PUSH2 0x886 JUMPI PUSH1 0x2 SLOAD SWAP2 PUSH1 0x1 PUSH1 0x1 PUSH1 0xA0 SHL SUB SWAP2 DUP3 DUP5 AND SWAP2 CALLER DUP4 SWAP1 SUB PUSH2 0x879 JUMPI POP POP PUSH1 0x1 SLOAD SWAP3 PUSH1 0x1 PUSH1 0x1 PUSH1 0x60 SHL SUB PUSH1 0xA0 SHL SWAP2 DUP3 DUP6 AND OR PUSH1 0x1 SSTORE AND PUSH1 0x2 SSTORE CALLER SWAP2 AND PUSH32 0xB532073B38C83145E3E5135377A08BF9AAB55BC0FD7C1179CD4FB995D2A5159C DUP4 DUP1 LOG3 DUP1 RETURN JUMPDEST MLOAD PUSH4 0x79B798CF PUSH1 0xE1 SHL DUP2 MSTORE REVERT JUMPDEST SWAP1 MLOAD PUSH4 0x8FC8BD59 PUSH1 0xE0 SHL DUP2 MSTORE REVERT JUMPDEST POP POP CALLVALUE PUSH2 0x18D JUMPI DUP2 PUSH1 0x3 NOT CALLDATASIZE ADD SLT PUSH2 0x18D JUMPI PUSH1 0x20 SWAP1 MLOAD PUSH3 0x15180 DUP2 MSTORE RETURN JUMPDEST SWAP1 POP CALLVALUE PUSH2 0x420 JUMPI DUP2 PUSH1 0x3 NOT CALLDATASIZE ADD SLT PUSH2 0x420 JUMPI PUSH2 0x8CC PUSH2 0x13B8 JUMP JUMPDEST PUSH1 0x1 SLOAD PUSH1 0x1 PUSH1 0x1 PUSH1 0xA0 SHL SUB SWAP4 PUSH1 0x24 CALLDATALOAD SWAP4 SWAP1 SWAP3 SWAP1 SWAP2 DUP6 AND CALLER SUB PUSH2 0x9A2 JUMPI PUSH1 0xFF PUSH1 0xA SLOAD AND ISZERO PUSH2 0x993 JUMPI DUP5 AND SWAP4 DUP5 ISZERO PUSH2 0x984 JUMPI SWAP1 DUP6 SWAP2 DUP2 SLOAD AND SWAP1 DUP2 EXTCODESIZE ISZERO PUSH2 0x420 JUMPI DUP6 PUSH1 0x44 DUP5 SWAP3 DUP4 DUP8 MLOAD SWAP6 DUP7 SWAP5 DUP6 SWAP4 PUSH4 0x40B850F PUSH1 0xE3 SHL DUP6 MSTORE DUP5 ADD MSTORE DUP10 PUSH1 0x24 DUP5 ADD MSTORE GAS CALL DUP1 ISZERO PUSH2 0x97A JUMPI PUSH2 0x966 JUMPI JUMPDEST POP POP PUSH32 0xCAE8414AEB02C2A7A7089C22ED61DEF4882BF260298B39FF6BA047EF80A2F379 SWAP2 PUSH1 0x20 SWAP2 MLOAD SWAP1 DUP2 MSTORE LOG2 DUP1 RETURN JUMPDEST PUSH2 0x96F SWAP1 PUSH2 0x152C JUMP JUMPDEST PUSH2 0x3DF JUMPI DUP4 CODESIZE PUSH2 0x937 JUMP JUMPDEST DUP4 MLOAD RETURNDATASIZE DUP5 DUP3 RETURNDATACOPY RETURNDATASIZE SWAP1 REVERT JUMPDEST POP SWAP1 MLOAD PUSH4 0x7192F5B7 PUSH1 0xE1 SHL DUP2 MSTORE REVERT JUMPDEST POP SWAP1 MLOAD PUSH4 0x8FC8BD59 PUSH1 0xE0 SHL DUP2 MSTORE REVERT JUMPDEST POP SWAP1 MLOAD PUSH4 0x74A21527 PUSH1 0xE0 SHL DUP2 MSTORE REVERT JUMPDEST SWAP2 SWAP1 POP DUP3 PUSH1 0x3 NOT CALLDATASIZE ADD SLT PUSH2 0x420 JUMPI PUSH1 0xFF PUSH1 0xA SLOAD AND ISZERO PUSH2 0xAE4 JUMPI DUP2 SLOAD PUSH1 0x1 PUSH1 0x1 PUSH1 0xA0 SHL SUB SWAP1 DUP2 AND DUP5 DUP2 EXTCODESIZE ISZERO PUSH2 0xAE1 JUMPI DUP4 MLOAD PUSH4 0xB760FAF9 PUSH1 0xE0 SHL DUP2 MSTORE ADDRESS DUP7 DUP3 ADD MSTORE SWAP2 DUP3 SWAP1 PUSH1 0x24 SWAP1 DUP3 SWAP1 CALLVALUE SWAP1 GAS CALL DUP1 ISZERO PUSH2 0xAD7 JUMPI PUSH2 0xAC3 JUMPI JUMPDEST POP PUSH1 0x20 SWAP1 DUP4 SLOAD AND SWAP3 PUSH1 0x24 DUP4 MLOAD DUP1 SWAP6 DUP2 SWAP4 PUSH4 0x70A08231 PUSH1 0xE0 SHL DUP4 MSTORE ADDRESS SWAP1 DUP4 ADD MSTORE GAS STATICCALL DUP1 ISZERO PUSH2 0xAB9 JUMPI DUP4 SWAP1 PUSH2 0xA67 JUMPI JUMPDEST PUSH32 0x4936E4683983DC3B8AFB17C6844AF8A193B8BDC330595D260421C7E84EBF683E SWAP3 POP DUP2 MLOAD SWAP1 CALLVALUE DUP3 MSTORE PUSH1 0x20 DUP3 ADD MSTORE LOG1 DUP1 RETURN JUMPDEST POP PUSH1 0x20 DUP3 RETURNDATASIZE PUSH1 0x20 GT PUSH2 0xAB1 JUMPI JUMPDEST DUP2 PUSH2 0xA81 PUSH1 0x20 SWAP4 DUP4 PUSH2 0x1555 JUMP JUMPDEST DUP2 ADD SUB SLT PUSH2 0x28D JUMPI PUSH32 0x4936E4683983DC3B8AFB17C6844AF8A193B8BDC330595D260421C7E84EBF683E SWAP2 MLOAD PUSH2 0xA35 JUMP JUMPDEST RETURNDATASIZE SWAP2 POP PUSH2 0xA74 JUMP JUMPDEST DUP2 MLOAD RETURNDATASIZE DUP6 DUP3 RETURNDATACOPY RETURNDATASIZE SWAP1 REVERT JUMPDEST SWAP4 PUSH2 0xAD0 PUSH1 0x20 SWAP3 SWAP6 PUSH2 0x152C JUMP JUMPDEST SWAP4 SWAP1 PUSH2 0xA07 JUMP JUMPDEST DUP4 MLOAD RETURNDATASIZE DUP8 DUP3 RETURNDATACOPY RETURNDATASIZE SWAP1 REVERT JUMPDEST DUP1 REVERT JUMPDEST MLOAD PUSH4 0x8FC8BD59 PUSH1 0xE0 SHL DUP2 MSTORE REVERT JUMPDEST DUP4 DUP4 CALLVALUE PUSH2 0x18D JUMPI PUSH1 0x60 CALLDATASIZE PUSH1 0x3 NOT ADD SLT PUSH2 0x18D JUMPI PUSH1 0x1 PUSH1 0x1 PUSH1 0x40 SHL SUB SWAP1 DUP4 CALLDATALOAD DUP3 DUP2 GT PUSH2 0x3DF JUMPI PUSH2 0xB23 SWAP1 CALLDATASIZE SWAP1 DUP7 ADD PUSH2 0x1452 JUMP JUMPDEST SWAP3 SWAP1 SWAP5 PUSH1 0x24 CALLDATALOAD DUP3 DUP2 GT PUSH2 0x5C0 JUMPI PUSH2 0xB3D SWAP1 CALLDATASIZE SWAP1 DUP4 ADD PUSH2 0x1452 JUMP JUMPDEST SWAP2 SWAP1 SWAP3 PUSH1 0x44 CALLDATALOAD SWAP1 DUP2 GT PUSH2 0xD68 JUMPI PUSH2 0xB57 SWAP1 CALLDATASIZE SWAP1 DUP4 ADD PUSH2 0x1452 JUMP JUMPDEST SWAP4 SWAP1 PUSH2 0xB61 PUSH2 0x1873 JUMP JUMPDEST PUSH1 0xFF SWAP5 PUSH1 0xFF PUSH1 0xA SLOAD AND ISZERO PUSH2 0xD58 JUMPI PUSH1 0x1 DUP1 SLOAD SWAP1 SWAP11 PUSH1 0x1 PUSH1 0x1 PUSH1 0xA0 SHL SUB SWAP7 SWAP2 DUP8 AND CALLER EQ ISZERO DUP1 PUSH2 0xD4B JUMPI JUMPDEST PUSH2 0xD3B JUMPI DUP10 ISZERO PUSH2 0xD21 JUMPI DUP2 DUP11 EQ DUP1 ISZERO SWAP1 PUSH2 0xD31 JUMPI JUMPDEST PUSH2 0xD21 JUMPI PUSH1 0x14 DUP11 GT PUSH2 0xD11 JUMPI SWAP10 SWAP11 DUP12 SWAP11 SWAP1 SWAP8 DUP12 JUMPDEST DUP12 DUP2 LT PUSH2 0xBF4 JUMPI DUP13 DUP13 DUP16 DUP14 PUSH32 0x36551AD729F069397FD12C263EBA2BDBDB0E999953DF151620E1EC9EDD8F2AAF SWAP2 DUP2 MLOAD SWAP4 DUP5 MSTORE PUSH1 0x20 DUP5 ADD MSTORE CALLER SWAP3 LOG2 PUSH1 0x1 DUP2 SSTORE DUP1 RETURN JUMPDEST DUP12 DUP10 DUP3 DUP16 SWAP13 SWAP16 SWAP15 SWAP14 SWAP13 DUP12 PUSH2 0xC09 DUP4 DUP12 DUP14 PUSH2 0x14FD JUMP JUMPDEST SWAP1 POP LT ISZERO PUSH1 0x0 EQ PUSH2 0xD03 JUMPI POP SWAP1 POP PUSH2 0xC23 SWAP2 POP DUP7 DUP9 PUSH2 0x14FD JUMP JUMPDEST DUP10 GT PUSH2 0xCFF JUMPI CALLDATALOAD PUSH1 0x1 PUSH1 0x1 PUSH1 0xE0 SHL SUB NOT AND DUP10 PUSH2 0xC49 PUSH2 0xC44 DUP5 DUP16 JUMPDEST DUP9 PUSH2 0x14A5 JUMP JUMPDEST PUSH2 0x1518 JUMP JUMPDEST AND DUP14 MSTORE PUSH1 0x5 PUSH1 0x20 SWAP1 DUP2 MSTORE DUP12 DUP15 KECCAK256 PUSH1 0x1 PUSH1 0x1 PUSH1 0xE0 SHL SUB NOT SWAP1 SWAP3 AND DUP15 MSTORE MSTORE DUP10 DUP13 KECCAK256 SLOAD DUP3 AND ISZERO PUSH2 0xCEF JUMPI DUP12 DUP1 DUP13 SWAP14 SWAP15 SWAP16 PUSH2 0xC44 DUP5 SWAP14 SWAP15 SWAP14 PUSH2 0xC97 PUSH2 0xC9E SWAP4 PUSH2 0xC90 DUP4 DUP16 DUP14 SWAP1 PUSH2 0x14A5 JUMP JUMPDEST CALLDATALOAD SWAP1 PUSH2 0x1482 JUMP JUMPDEST SWAP15 DUP9 PUSH2 0x14A5 JUMP JUMPDEST DUP14 PUSH2 0xCAA DUP6 DUP10 DUP14 PUSH2 0x14A5 JUMP JUMPDEST CALLDATALOAD PUSH2 0xCB6 DUP7 DUP12 DUP14 PUSH2 0x14FD JUMP JUMPDEST DUP1 SWAP4 MLOAD SWAP4 DUP5 SWAP3 DUP4 CALLDATACOPY DUP2 ADD DUP6 DUP2 MSTORE SUB SWAP3 GAS CALL PUSH2 0xCCF PUSH2 0x1591 JUMP JUMPDEST POP ISZERO PUSH2 0xCDF JUMPI DUP14 ADD SWAP13 SWAP9 SWAP13 PUSH2 0xBB3 JUMP JUMPDEST DUP11 MLOAD PUSH4 0xEC98CED7 PUSH1 0xE0 SHL DUP2 MSTORE DUP9 SWAP1 REVERT JUMPDEST DUP10 MLOAD PUSH4 0xB99820A5 PUSH1 0xE0 SHL DUP2 MSTORE DUP9 SWAP1 REVERT JUMPDEST DUP13 DUP1 REVERT JUMPDEST PUSH2 0xC49 SWAP2 PUSH2 0xC44 SWAP2 SWAP5 PUSH2 0xC3E JUMP JUMPDEST DUP9 MLOAD PUSH4 0x1D6ABE8D PUSH1 0xE0 SHL DUP2 MSTORE DUP7 SWAP1 REVERT JUMPDEST DUP9 MLOAD PUSH4 0x7736A16D PUSH1 0xE0 SHL DUP2 MSTORE DUP7 SWAP1 REVERT JUMPDEST POP DUP3 DUP3 EQ ISZERO PUSH2 0xB9F JUMP JUMPDEST DUP9 MLOAD PUSH4 0x79B798CF PUSH1 0xE1 SHL DUP2 MSTORE DUP7 SWAP1 REVERT JUMPDEST POP DUP7 DUP7 SLOAD AND CALLER EQ ISZERO PUSH2 0xB8A JUMP JUMPDEST DUP7 MLOAD PUSH4 0x8FC8BD59 PUSH1 0xE0 SHL DUP2 MSTORE DUP5 SWAP1 REVERT JUMPDEST DUP7 DUP1 REVERT JUMPDEST SWAP2 SWAP1 POP CALLVALUE PUSH2 0x420 JUMPI PUSH1 0x20 CALLDATASIZE PUSH1 0x3 NOT ADD SLT PUSH2 0x420 JUMPI PUSH2 0xD88 PUSH2 0x13B8 JUMP JUMPDEST PUSH1 0x1 SLOAD PUSH1 0x1 PUSH1 0x1 PUSH1 0xA0 SHL SUB SWAP4 SWAP2 SWAP1 DUP5 AND CALLER SUB PUSH2 0x9A2 JUMPI PUSH1 0xFF PUSH1 0xA SLOAD AND ISZERO PUSH2 0x993 JUMPI DUP4 AND SWAP3 DUP4 ISZERO PUSH2 0xE31 JUMPI PUSH1 0x8 SLOAD DUP2 DUP2 AND PUSH2 0xE22 JUMPI PUSH1 0x1 PUSH1 0x1 PUSH1 0xA0 SHL SUB NOT AND DUP5 OR PUSH1 0x8 SSTORE TIMESTAMP PUSH3 0x15180 DUP2 ADD SWAP3 SWAP1 DUP4 LT PUSH2 0xE0F JUMPI SWAP2 PUSH1 0x20 SWAP2 PUSH32 0x82F58BCE0EF526EC4E76DE79042B60F5542CA08DBE0EF18BFA95D8C32FCBB710 SWAP4 DUP3 PUSH1 0x9 SSTORE SLOAD AND SWAP4 MLOAD SWAP1 DUP2 MSTORE LOG3 DUP1 RETURN JUMPDEST PUSH4 0x4E487B71 PUSH1 0xE0 SHL DUP7 MSTORE PUSH1 0x11 SWAP1 MSTORE PUSH1 0x24 DUP6 REVERT JUMPDEST DUP4 MLOAD PUSH3 0x2D0F5F PUSH1 0xE0 SHL DUP2 MSTORE DUP4 SWAP1 REVERT JUMPDEST POP SWAP1 MLOAD PUSH4 0x92377DD5 PUSH1 0xE0 SHL DUP2 MSTORE REVERT JUMPDEST SWAP2 SWAP1 POP CALLVALUE PUSH2 0x420 JUMPI PUSH1 0x60 CALLDATASIZE PUSH1 0x3 NOT ADD SLT PUSH2 0x420 JUMPI PUSH2 0xE5C PUSH2 0x13B8 JUMP JUMPDEST PUSH1 0x1 PUSH1 0x1 PUSH1 0x40 SHL SUB SWAP2 SWAP1 PUSH1 0x24 CALLDATALOAD DUP4 DUP2 GT PUSH2 0x5C0 JUMPI PUSH2 0xE7D SWAP1 CALLDATASIZE SWAP1 DUP7 ADD PUSH2 0x1452 JUMP JUMPDEST SWAP4 PUSH1 0x44 CALLDATALOAD SWAP1 DUP2 GT PUSH2 0xD68 JUMPI PUSH2 0xE95 SWAP1 CALLDATASIZE SWAP1 DUP8 ADD PUSH2 0x1452 JUMP JUMPDEST PUSH1 0x1 DUP1 SLOAD SWAP1 SWAP5 SWAP3 SWAP4 SWAP3 PUSH1 0x1 PUSH1 0x1 PUSH1 0xA0 SHL SUB SWAP2 DUP3 AND CALLER SUB PUSH2 0xF96 JUMPI PUSH1 0xFF PUSH1 0xA SLOAD AND ISZERO PUSH2 0xF86 JUMPI AND SWAP7 DUP8 ISZERO PUSH2 0xF78 JUMPI DUP2 DUP8 SUB PUSH2 0xF6A JUMPI POP DUP8 JUMPDEST DUP7 DUP2 LT PUSH2 0xF02 JUMPI DUP9 DUP9 PUSH32 0x414C342353F05726910E03F51E178B30701F919619E07CC05FB7383D7FCEDD23 PUSH1 0x20 DUP11 DUP11 MLOAD SWAP1 DUP2 MSTORE LOG2 DUP1 RETURN JUMPDEST PUSH2 0xF0D DUP2 DUP4 DUP7 PUSH2 0x14A5 JUMP JUMPDEST CALLDATALOAD SWAP1 DUP2 ISZERO ISZERO DUP3 SUB PUSH2 0xF66 JUMPI DUP9 DUP11 MSTORE DUP10 PUSH1 0x20 SWAP3 PUSH1 0x5 DUP5 MSTORE DUP9 DUP3 KECCAK256 PUSH2 0xF31 DUP5 DUP13 DUP10 PUSH2 0x14A5 JUMP JUMPDEST CALLDATALOAD SWAP5 PUSH4 0xFFFFFFFF PUSH1 0xE0 SHL DUP7 AND DUP1 SWAP7 SUB PUSH2 0x3DF JUMPI DUP10 SWAP6 PUSH2 0xF60 SWAP5 MSTORE MSTORE DUP9 DUP13 KECCAK256 SWAP1 PUSH1 0xFF DUP1 NOT DUP4 SLOAD AND SWAP2 ISZERO ISZERO AND OR SWAP1 SSTORE JUMP JUMPDEST ADD PUSH2 0xECC JUMP JUMPDEST DUP10 DUP1 REVERT JUMPDEST DUP6 MLOAD PUSH4 0x7736A16D PUSH1 0xE0 SHL DUP2 MSTORE REVERT JUMPDEST DUP6 MLOAD PUSH4 0x7192F5B7 PUSH1 0xE1 SHL DUP2 MSTORE REVERT JUMPDEST DUP7 MLOAD PUSH4 0x8FC8BD59 PUSH1 0xE0 SHL DUP2 MSTORE DUP10 SWAP1 REVERT JUMPDEST DUP7 MLOAD PUSH4 0x74A21527 PUSH1 0xE0 SHL DUP2 MSTORE DUP10 SWAP1 REVERT JUMPDEST POP POP CALLVALUE PUSH2 0x18D JUMPI DUP2 PUSH1 0x3 NOT CALLDATASIZE ADD SLT PUSH2 0x18D JUMPI PUSH1 0x6 SLOAD SWAP1 MLOAD PUSH1 0x1 PUSH1 0x1 PUSH1 0xA0 SHL SUB SWAP1 SWAP2 AND DUP2 MSTORE PUSH1 0x20 SWAP1 RETURN JUMPDEST DUP4 DUP4 CALLVALUE PUSH2 0x18D JUMPI PUSH1 0x3 NOT SWAP3 PUSH1 0x60 CALLDATASIZE DUP6 ADD SLT PUSH2 0x420 JUMPI DUP1 CALLDATALOAD SWAP4 PUSH1 0x1 PUSH1 0x1 PUSH1 0x40 SHL SUB DUP6 GT PUSH2 0x3DF JUMPI PUSH2 0x120 SWAP1 DUP6 CALLDATASIZE SUB ADD SLT PUSH2 0x420 JUMPI DUP1 SLOAD PUSH1 0x1 PUSH1 0x1 PUSH1 0xA0 SHL SUB SWAP5 PUSH1 0x44 CALLDATALOAD SWAP3 SWAP2 PUSH1 0x24 CALLDATALOAD SWAP2 SWAP1 DUP8 AND CALLER SUB PUSH2 0x10B0 JUMPI PUSH1 0xFF PUSH1 0xA SLOAD AND ISZERO PUSH2 0x10A0 JUMPI DUP2 PUSH2 0x1036 SWAP2 DUP5 ADD PUSH2 0x1643 JUMP JUMPDEST SWAP2 SWAP4 SWAP1 SWAP5 DUP1 PUSH2 0x1076 JUMPI JUMPDEST POP POP PUSH1 0x20 DUP1 SWAP8 PUSH32 0x3BEBA097C09C235465DF7C6857B74B6435FFB77E2CB08A8F714156C35DA60373 SWAP3 DUP8 MLOAD SWAP6 DUP7 MSTORE AND SWAP4 LOG4 MLOAD SWAP1 DUP2 MSTORE RETURN JUMPDEST DUP8 DUP1 DUP1 DUP1 SWAP4 CALLER GAS CALL PUSH2 0x1086 PUSH2 0x1591 JUMP JUMPDEST POP ISZERO PUSH2 0x1092 JUMPI DUP1 PUSH2 0x1040 JUMP JUMPDEST DUP6 MLOAD PUSH4 0x323E69DD PUSH1 0xE1 SHL DUP2 MSTORE REVERT JUMPDEST DUP5 MLOAD PUSH4 0x8FC8BD59 PUSH1 0xE0 SHL DUP2 MSTORE DUP4 SWAP1 REVERT JUMPDEST DUP5 MLOAD PUSH4 0xF02946AD PUSH1 0xE0 SHL DUP2 MSTORE DUP4 SWAP1 REVERT JUMPDEST SWAP1 POP CALLVALUE PUSH2 0x420 JUMPI DUP3 PUSH1 0x3 NOT CALLDATASIZE ADD SLT PUSH2 0x420 JUMPI PUSH1 0x1 SLOAD PUSH1 0x1 PUSH1 0x1 PUSH1 0xA0 SHL SUB SWAP2 SWAP1 DUP3 AND CALLER SUB PUSH2 0x116D JUMPI PUSH1 0xFF PUSH1 0xA SLOAD AND ISZERO PUSH2 0x115F JUMPI PUSH1 0x6 SLOAD SWAP1 DUP3 DUP3 AND SWAP4 DUP5 ISZERO PUSH2 0x1153 JUMPI PUSH1 0x7 SLOAD TIMESTAMP LT PUSH2 0x79B JUMPI POP POP PUSH1 0x3 SLOAD SWAP1 PUSH1 0x1 PUSH1 0x1 PUSH1 0x60 SHL SUB PUSH1 0xA0 SHL SWAP1 DUP5 DUP3 DUP5 AND OR PUSH1 0x3 SSTORE AND PUSH1 0x6 SSTORE DUP4 PUSH1 0x7 SSTORE AND PUSH32 0xA69F501B2FC95540D8BEA22FCFA85D00F48F611C00A457D08F00F7754C9063CB DUP4 DUP1 LOG3 DUP1 RETURN JUMPDEST MLOAD PUSH3 0xD9B425 PUSH1 0xE0 SHL DUP2 MSTORE REVERT JUMPDEST DUP3 MLOAD PUSH4 0x8FC8BD59 PUSH1 0xE0 SHL DUP2 MSTORE REVERT JUMPDEST DUP3 MLOAD PUSH4 0x74A21527 PUSH1 0xE0 SHL DUP2 MSTORE REVERT JUMPDEST POP POP CALLVALUE PUSH2 0x18D JUMPI DUP2 PUSH1 0x3 NOT CALLDATASIZE ADD SLT PUSH2 0x18D JUMPI PUSH1 0x8 SLOAD SWAP1 MLOAD PUSH1 0x1 PUSH1 0x1 PUSH1 0xA0 SHL SUB SWAP1 SWAP2 AND DUP2 MSTORE PUSH1 0x20 SWAP1 RETURN JUMPDEST SWAP1 POP CALLVALUE PUSH2 0x420 JUMPI PUSH1 0x60 CALLDATASIZE PUSH1 0x3 NOT ADD SLT PUSH2 0x420 JUMPI PUSH2 0x11BF PUSH2 0x13B8 JUMP JUMPDEST PUSH2 0x11C7 PUSH2 0x143B JUMP JUMPDEST SWAP3 PUSH1 0x44 CALLDATALOAD DUP1 ISZERO ISZERO SWAP3 DUP4 DUP3 SUB PUSH2 0xD68 JUMPI PUSH1 0x1 SLOAD PUSH1 0x1 PUSH1 0x1 PUSH1 0xA0 SHL SUB SWAP2 SWAP1 DUP3 AND CALLER SUB PUSH2 0x127C JUMPI PUSH1 0xFF PUSH1 0xA SLOAD AND ISZERO PUSH2 0x126C JUMPI AND SWAP4 DUP5 ISZERO PUSH2 0x125E JUMPI POP SWAP2 PUSH1 0x20 SWAP2 PUSH2 0x1256 PUSH32 0xB5091879DAD74FC467385A5D3CA976BBDF8E754A848B0F231C50D9D0924173DA SWAP5 DUP7 DUP10 MSTORE PUSH1 0x5 DUP6 MSTORE DUP3 DUP10 KECCAK256 SWAP8 PUSH4 0xFFFFFFFF PUSH1 0xE0 SHL AND SWAP8 DUP9 DUP11 MSTORE DUP6 MSTORE DUP3 DUP10 KECCAK256 SWAP1 PUSH1 0xFF DUP1 NOT DUP4 SLOAD AND SWAP2 ISZERO ISZERO AND OR SWAP1 SSTORE JUMP JUMPDEST MLOAD SWAP1 DUP2 MSTORE LOG3 DUP1 RETURN JUMPDEST DUP3 MLOAD PUSH4 0x7192F5B7 PUSH1 0xE1 SHL DUP2 MSTORE REVERT JUMPDEST DUP4 MLOAD PUSH4 0x8FC8BD59 PUSH1 0xE0 SHL DUP2 MSTORE DUP7 SWAP1 REVERT JUMPDEST DUP4 MLOAD PUSH4 0x74A21527 PUSH1 0xE0 SHL DUP2 MSTORE DUP7 SWAP1 REVERT JUMPDEST SWAP3 SWAP2 POP CALLVALUE PUSH2 0x3DF JUMPI PUSH1 0x20 CALLDATASIZE PUSH1 0x3 NOT ADD SLT PUSH2 0x3DF JUMPI PUSH2 0x12A8 PUSH2 0x13B8 JUMP JUMPDEST PUSH1 0x1 SLOAD PUSH1 0x1 PUSH1 0x1 PUSH1 0xA0 SHL SUB SWAP5 SWAP1 DUP6 AND CALLER SUB PUSH2 0x133F JUMPI POP PUSH1 0xFF PUSH1 0xA SLOAD AND ISZERO PUSH2 0x993 JUMPI DUP4 AND SWAP3 DUP4 ISZERO PUSH2 0x1331 JUMPI PUSH1 0x6 SLOAD DUP2 DUP2 AND PUSH2 0xE22 JUMPI PUSH1 0x1 PUSH1 0x1 PUSH1 0xA0 SHL SUB NOT AND DUP5 OR PUSH1 0x6 SSTORE TIMESTAMP PUSH3 0x15180 DUP2 ADD SWAP3 SWAP1 DUP4 LT PUSH2 0xE0F JUMPI POP DUP2 PUSH1 0x20 SWAP2 PUSH32 0xE57F3914C462C93D70E218904AB70D6C345073C4DECEB8C18C4955B3F67F8748 SWAP4 PUSH1 0x7 SSTORE PUSH1 0x3 SLOAD AND SWAP4 MLOAD SWAP1 DUP2 MSTORE LOG3 DUP1 RETURN JUMPDEST POP SWAP1 MLOAD PUSH3 0xD9B425 PUSH1 0xE0 SHL DUP2 MSTORE REVERT JUMPDEST PUSH4 0x74A21527 PUSH1 0xE0 SHL DUP2 MSTORE SWAP1 POP REVERT JUMPDEST DUP5 DUP3 CALLVALUE PUSH2 0x18D JUMPI PUSH1 0xC0 CALLDATASIZE PUSH1 0x3 NOT ADD SLT PUSH2 0x18D JUMPI PUSH2 0x1368 PUSH2 0x13B8 JUMP JUMPDEST POP PUSH2 0x1371 PUSH2 0x13CE JUMP JUMPDEST POP PUSH2 0x137A PUSH2 0x13E4 JUMP JUMPDEST POP PUSH1 0x1 PUSH1 0x1 PUSH1 0x40 SHL SUB SWAP1 PUSH1 0x84 CALLDATALOAD DUP3 DUP2 GT PUSH2 0x3DF JUMPI PUSH2 0x139B SWAP1 CALLDATASIZE SWAP1 DUP4 ADD PUSH2 0x140E JUMP JUMPDEST POP POP PUSH1 0xA4 CALLDATALOAD SWAP2 DUP3 GT PUSH2 0x420 JUMPI PUSH2 0x13B3 SWAP2 CALLDATASIZE SWAP2 ADD PUSH2 0x140E JUMP JUMPDEST POP POP DUP1 RETURN JUMPDEST PUSH1 0x4 CALLDATALOAD SWAP1 PUSH1 0x1 PUSH1 0x1 PUSH1 0xA0 SHL SUB DUP3 AND DUP3 SUB PUSH2 0x28D JUMPI JUMP JUMPDEST PUSH1 0x24 CALLDATALOAD SWAP1 PUSH1 0x1 PUSH1 0x1 PUSH1 0xA0 SHL SUB DUP3 AND DUP3 SUB PUSH2 0x28D JUMPI JUMP JUMPDEST PUSH1 0x44 CALLDATALOAD SWAP1 PUSH1 0x1 PUSH1 0x1 PUSH1 0xA0 SHL SUB DUP3 AND DUP3 SUB PUSH2 0x28D JUMPI JUMP JUMPDEST CALLDATALOAD SWAP1 PUSH1 0x1 PUSH1 0x1 PUSH1 0xA0 SHL SUB DUP3 AND DUP3 SUB PUSH2 0x28D JUMPI JUMP JUMPDEST SWAP2 DUP2 PUSH1 0x1F DUP5 ADD SLT ISZERO PUSH2 0x28D JUMPI DUP3 CALLDATALOAD SWAP2 PUSH1 0x1 PUSH1 0x1 PUSH1 0x40 SHL SUB DUP4 GT PUSH2 0x28D JUMPI PUSH1 0x20 DUP4 DUP2 DUP7 ADD SWAP6 ADD ADD GT PUSH2 0x28D JUMPI JUMP JUMPDEST PUSH1 0x24 CALLDATALOAD SWAP1 PUSH1 0x1 PUSH1 0x1 PUSH1 0xE0 SHL SUB NOT DUP3 AND DUP3 SUB PUSH2 0x28D JUMPI JUMP JUMPDEST SWAP2 DUP2 PUSH1 0x1F DUP5 ADD SLT ISZERO PUSH2 0x28D JUMPI DUP3 CALLDATALOAD SWAP2 PUSH1 0x1 PUSH1 0x1 PUSH1 0x40 SHL SUB DUP4 GT PUSH2 0x28D JUMPI PUSH1 0x20 DUP1 DUP6 ADD SWAP5 DUP5 PUSH1 0x5 SHL ADD ADD GT PUSH2 0x28D JUMPI JUMP JUMPDEST SWAP2 SWAP1 DUP3 ADD DUP1 SWAP3 GT PUSH2 0x148F JUMPI JUMP JUMPDEST PUSH4 0x4E487B71 PUSH1 0xE0 SHL PUSH1 0x0 MSTORE PUSH1 0x11 PUSH1 0x4 MSTORE PUSH1 0x24 PUSH1 0x0 REVERT JUMPDEST SWAP2 SWAP1 DUP2 LT ISZERO PUSH2 0x14B5 JUMPI PUSH1 0x5 SHL ADD SWAP1 JUMP JUMPDEST PUSH4 0x4E487B71 PUSH1 0xE0 SHL PUSH1 0x0 MSTORE PUSH1 0x32 PUSH1 0x4 MSTORE PUSH1 0x24 PUSH1 0x0 REVERT JUMPDEST SWAP1 CALLDATALOAD SWAP1 PUSH1 0x1E NOT DUP2 CALLDATASIZE SUB ADD DUP3 SLT ISZERO PUSH2 0x28D JUMPI ADD DUP1 CALLDATALOAD SWAP1 PUSH1 0x1 PUSH1 0x1 PUSH1 0x40 SHL SUB DUP3 GT PUSH2 0x28D JUMPI PUSH1 0x20 ADD SWAP2 DUP2 CALLDATASIZE SUB DUP4 SGT PUSH2 0x28D JUMPI JUMP JUMPDEST SWAP1 DUP3 LT ISZERO PUSH2 0x14B5 JUMPI PUSH2 0x1514 SWAP2 PUSH1 0x5 SHL DUP2 ADD SWAP1 PUSH2 0x14CB JUMP JUMPDEST SWAP1 SWAP2 JUMP JUMPDEST CALLDATALOAD PUSH1 0x1 PUSH1 0x1 PUSH1 0xA0 SHL SUB DUP2 AND DUP2 SUB PUSH2 0x28D JUMPI SWAP1 JUMP JUMPDEST PUSH1 0x1 PUSH1 0x1 PUSH1 0x40 SHL SUB DUP2 GT PUSH2 0x153F JUMPI PUSH1 0x40 MSTORE JUMP JUMPDEST PUSH4 0x4E487B71 PUSH1 0xE0 SHL PUSH1 0x0 MSTORE PUSH1 0x41 PUSH1 0x4 MSTORE PUSH1 0x24 PUSH1 0x0 REVERT JUMPDEST SWAP1 PUSH1 0x1F DUP1 NOT SWAP2 ADD AND DUP2 ADD SWAP1 DUP2 LT PUSH1 0x1 PUSH1 0x1 PUSH1 0x40 SHL SUB DUP3 GT OR PUSH2 0x153F JUMPI PUSH1 0x40 MSTORE JUMP JUMPDEST PUSH1 0x1 PUSH1 0x1 PUSH1 0x40 SHL SUB DUP2 GT PUSH2 0x153F JUMPI PUSH1 0x1F ADD PUSH1 0x1F NOT AND PUSH1 0x20 ADD SWAP1 JUMP JUMPDEST RETURNDATASIZE ISZERO PUSH2 0x15BC JUMPI RETURNDATASIZE SWAP1 PUSH2 0x15A2 DUP3 PUSH2 0x1576 JUMP JUMPDEST SWAP2 PUSH2 0x15B0 PUSH1 0x40 MLOAD SWAP4 DUP5 PUSH2 0x1555 JUMP JUMPDEST DUP3 MSTORE RETURNDATASIZE PUSH1 0x0 PUSH1 0x20 DUP5 ADD RETURNDATACOPY JUMP JUMPDEST PUSH1 0x60 SWAP1 JUMP JUMPDEST SWAP3 SWAP2 SWAP3 PUSH2 0x15CD DUP3 PUSH2 0x1576 JUMP JUMPDEST SWAP2 PUSH2 0x15DB PUSH1 0x40 MLOAD SWAP4 DUP5 PUSH2 0x1555 JUMP JUMPDEST DUP3 SWAP5 DUP2 DUP5 MSTORE DUP2 DUP4 ADD GT PUSH2 0x28D JUMPI DUP3 DUP2 PUSH1 0x20 SWAP4 DUP5 PUSH1 0x0 SWAP7 ADD CALLDATACOPY ADD ADD MSTORE JUMP JUMPDEST SWAP1 DUP1 PUSH1 0x1F DUP4 ADD SLT ISZERO PUSH2 0x28D JUMPI DUP2 PUSH1 0x20 PUSH2 0x1613 SWAP4 CALLDATALOAD SWAP2 ADD PUSH2 0x15C1 JUMP JUMPDEST SWAP1 JUMP JUMPDEST SWAP2 SWAP1 SWAP2 PUSH1 0x40 DUP2 DUP5 SUB SLT PUSH2 0x28D JUMPI DUP1 CALLDATALOAD SWAP3 PUSH1 0x20 DUP3 ADD CALLDATALOAD PUSH1 0x1 PUSH1 0x1 PUSH1 0x40 SHL SUB DUP2 GT PUSH2 0x28D JUMPI PUSH2 0x1613 SWAP3 ADD PUSH2 0x15F8 JUMP JUMPDEST SWAP2 PUSH2 0x1664 PUSH2 0x165D PUSH2 0x1657 PUSH1 0x60 DUP7 ADD DUP7 PUSH2 0x14CB JUMP JUMPDEST SWAP1 PUSH2 0x18AD JUMP JUMPDEST SWAP3 DUP5 PUSH2 0x1B3C JUMP JUMPDEST SWAP2 PUSH1 0x1 DUP1 PUSH1 0xA0 SHL SUB SWAP4 DUP5 PUSH1 0x1 SLOAD AND DUP6 DUP6 AND EQ PUSH2 0x186A JUMPI PUSH2 0x168C DUP2 PUSH2 0x100 PUSH2 0x1694 SWAP4 ADD SWAP1 PUSH2 0x14CB JUMP JUMPDEST DUP2 ADD SWAP1 PUSH2 0x1616 JUMP JUMPDEST POP SWAP4 DUP1 PUSH1 0x3 SLOAD AND PUSH1 0x40 SWAP1 DUP2 MLOAD SWAP1 PUSH4 0xC7CDFC01 PUSH1 0xE0 SHL DUP3 MSTORE PUSH1 0x4 SWAP4 DUP9 DUP6 DUP5 ADD MSTORE PUSH1 0x20 SWAP3 DUP4 DUP2 PUSH1 0x24 DUP2 DUP7 GAS STATICCALL SWAP1 DUP2 ISZERO PUSH2 0x185F JUMPI SWAP2 DUP8 SWAP2 DUP6 SWAP4 PUSH1 0x0 SWAP2 PUSH2 0x181F JUMPI JUMPDEST POP PUSH1 0xFF AND PUSH1 0x1 DUP2 SUB PUSH2 0x1780 JUMPI POP PUSH1 0x3 SLOAD DUP7 MLOAD PUSH4 0xF545B88B PUSH1 0xE0 SHL DUP2 MSTORE DUP9 DUP2 ADD DUP14 DUP2 MSTORE PUSH1 0x1 PUSH1 0x1 PUSH1 0xA0 SHL SUB DUP14 AND PUSH1 0x20 DUP3 ADD MSTORE PUSH1 0x40 DUP2 ADD SWAP5 SWAP1 SWAP5 MSTORE SWAP5 POP DUP5 SWAP3 DUP4 SWAP1 SUB PUSH1 0x60 ADD SWAP2 DUP4 SWAP2 PUSH1 0x0 SWAP2 AND GAS CALL SWAP2 DUP3 ISZERO PUSH2 0x1775 JUMPI PUSH1 0x0 SWAP3 PUSH2 0x1748 JUMPI JUMPDEST POP POP ISZERO PUSH2 0x173B JUMPI POP POP SWAP3 SWAP2 SWAP1 JUMP JUMPDEST MLOAD PUSH4 0xB02726E5 PUSH1 0xE0 SHL DUP2 MSTORE REVERT JUMPDEST PUSH2 0x1767 SWAP3 POP DUP1 RETURNDATASIZE LT PUSH2 0x176E JUMPI JUMPDEST PUSH2 0x175F DUP2 DUP4 PUSH2 0x1555 JUMP JUMPDEST DUP2 ADD SWAP1 PUSH2 0x1BF4 JUMP JUMPDEST CODESIZE DUP1 PUSH2 0x172D JUMP JUMPDEST POP RETURNDATASIZE PUSH2 0x1755 JUMP JUMPDEST DUP4 MLOAD RETURNDATASIZE PUSH1 0x0 DUP3 RETURNDATACOPY RETURNDATASIZE SWAP1 REVERT JUMPDEST SWAP3 POP POP POP ISZERO PUSH1 0x0 EQ PUSH2 0x1810 JUMPI DUP3 MLOAD PUSH4 0x370D79F5 PUSH1 0xE2 SHL DUP2 MSTORE DUP5 DUP2 ADD DUP10 DUP2 MSTORE PUSH1 0x1 PUSH1 0x1 PUSH1 0xA0 SHL SUB DUP10 AND PUSH1 0x20 DUP3 ADD MSTORE PUSH1 0x40 DUP2 ADD DUP8 SWAP1 MSTORE SWAP1 SWAP2 DUP4 SWAP2 DUP4 SWAP2 SWAP1 DUP3 SWAP1 PUSH1 0x0 SWAP1 DUP3 SWAP1 PUSH1 0x60 ADD SUB SWAP3 GAS CALL SWAP2 DUP3 ISZERO PUSH2 0x1775 JUMPI PUSH1 0x0 SWAP3 PUSH2 0x17F3 JUMPI JUMPDEST POP POP ISZERO PUSH2 0x17E6 JUMPI POP POP SWAP3 SWAP2 SWAP1 JUMP JUMPDEST MLOAD PUSH4 0xE00E6A25 PUSH1 0xE0 SHL DUP2 MSTORE REVERT JUMPDEST PUSH2 0x1809 SWAP3 POP DUP1 RETURNDATASIZE LT PUSH2 0x176E JUMPI PUSH2 0x175F DUP2 DUP4 PUSH2 0x1555 JUMP JUMPDEST CODESIZE DUP1 PUSH2 0x17D8 JUMP JUMPDEST POP POP MLOAD PUSH4 0xE00E6A25 PUSH1 0xE0 SHL DUP2 MSTORE REVERT JUMPDEST DUP5 DUP2 SWAP4 SWAP6 SWAP3 SWAP5 POP RETURNDATASIZE DUP4 GT PUSH2 0x1858 JUMPI JUMPDEST PUSH2 0x1838 DUP2 DUP4 PUSH2 0x1555 JUMP JUMPDEST DUP2 ADD SUB SLT PUSH2 0x18D JUMPI MLOAD SWAP1 PUSH1 0xFF DUP3 AND DUP3 SUB PUSH2 0xAE1 JUMPI POP DUP4 SWAP2 DUP8 SWAP2 PUSH1 0xFF PUSH2 0x16D2 JUMP JUMPDEST POP RETURNDATASIZE PUSH2 0x182E JUMP JUMPDEST DUP6 MLOAD RETURNDATASIZE PUSH1 0x0 DUP3 RETURNDATACOPY RETURNDATASIZE SWAP1 REVERT JUMPDEST POP SWAP3 POP PUSH1 0x0 SWAP2 SWAP1 JUMP JUMPDEST PUSH1 0x2 PUSH1 0x0 SLOAD EQ PUSH2 0x1884 JUMPI PUSH1 0x2 PUSH1 0x0 SSTORE JUMP JUMPDEST PUSH1 0x40 MLOAD PUSH4 0x3EE5AEB5 PUSH1 0xE0 SHL DUP2 MSTORE PUSH1 0x4 SWAP1 REVERT JUMPDEST PUSH1 0x1 PUSH1 0x1 PUSH1 0x40 SHL SUB DUP2 GT PUSH2 0x153F JUMPI PUSH1 0x5 SHL PUSH1 0x20 ADD SWAP1 JUMP JUMPDEST SWAP1 SWAP2 PUSH1 0x0 SWAP2 PUSH1 0x0 SWAP2 PUSH1 0x4 SWAP5 DUP1 DUP7 GT PUSH2 0x3DF JUMPI DUP3 CALLDATALOAD PUSH1 0x1 PUSH1 0x1 PUSH1 0xE0 SHL SUB NOT AND PUSH4 0x5B0E93FB PUSH1 0xE1 SHL DUP2 EQ PUSH2 0x1AED JUMPI PUSH4 0x23F0ED15 PUSH1 0xE1 SHL EQ PUSH2 0x18F7 JUMPI PUSH1 0x40 MLOAD PUSH4 0x141E841 PUSH1 0xE0 SHL DUP2 MSTORE DUP7 SWAP1 REVERT JUMPDEST SWAP4 SWAP5 SWAP3 SWAP4 DUP3 ADD PUSH1 0x60 DUP4 DUP3 SUB PUSH1 0x3 NOT ADD SLT PUSH2 0x1AE9 JUMPI PUSH1 0x1 PUSH1 0x1 PUSH1 0x40 SHL SUB SWAP5 DUP4 DUP6 ADD CALLDATALOAD DUP7 DUP2 GT PUSH2 0x18D JUMPI DUP5 ADD SWAP5 DUP3 PUSH1 0x23 DUP8 ADD SLT ISZERO PUSH2 0x18D JUMPI DUP1 DUP7 ADD CALLDATALOAD SWAP4 PUSH1 0x24 SWAP4 PUSH2 0x193E DUP7 PUSH2 0x1896 JUMP JUMPDEST SWAP9 PUSH2 0x194C PUSH1 0x40 MLOAD SWAP11 DUP12 PUSH2 0x1555 JUMP JUMPDEST DUP7 DUP11 MSTORE PUSH1 0x20 SWAP9 DUP10 DUP12 ADD DUP8 PUSH1 0x5 SWAP10 PUSH1 0x5 SHL DUP4 ADD ADD SWAP2 DUP5 DUP4 GT PUSH2 0x58B JUMPI DUP9 DUP13 SWAP2 ADD SWAP2 JUMPDEST DUP4 DUP4 LT PUSH2 0x1AD1 JUMPI POP POP POP POP DUP6 DUP9 ADD CALLDATALOAD DUP2 DUP2 GT PUSH2 0x5C0 JUMPI DUP9 ADD SWAP8 DUP3 PUSH1 0x23 DUP11 ADD SLT ISZERO PUSH2 0x5C0 JUMPI DUP5 DUP10 ADD CALLDATALOAD SWAP9 PUSH2 0x199F DUP11 PUSH2 0x1896 JUMP JUMPDEST SWAP10 PUSH2 0x19AD PUSH1 0x40 MLOAD SWAP12 DUP13 PUSH2 0x1555 JUMP JUMPDEST DUP1 DUP12 MSTORE DUP9 DUP13 DUP13 ADD SWAP2 PUSH1 0x5 SHL DUP4 ADD ADD SWAP2 DUP6 DUP4 GT PUSH2 0x1ACD JUMPI DUP10 DUP14 SWAP2 ADD SWAP2 JUMPDEST DUP4 DUP4 LT PUSH2 0x1ABD JUMPI POP POP POP POP PUSH1 0x44 DUP2 ADD CALLDATALOAD SWAP1 DUP3 DUP3 GT PUSH2 0xD68 JUMPI ADD SWAP2 DUP1 PUSH1 0x23 DUP5 ADD SLT ISZERO PUSH2 0x5C0 JUMPI DUP5 DUP4 ADD CALLDATALOAD SWAP2 DUP8 DUP12 PUSH2 0x19FE DUP6 PUSH2 0x1896 JUMP JUMPDEST PUSH2 0x1A0B PUSH1 0x40 MLOAD SWAP2 DUP3 PUSH2 0x1555 JUMP JUMPDEST DUP6 DUP2 MSTORE ADD SWAP4 PUSH1 0x5 SHL DUP6 ADD ADD SWAP4 DUP3 DUP6 GT PUSH2 0x58B JUMPI DUP9 DUP2 ADD SWAP4 JUMPDEST DUP6 DUP6 LT PUSH2 0x1A98 JUMPI POP POP POP POP POP POP DUP8 MLOAD DUP7 MLOAD SUB PUSH2 0x1A88 JUMPI DUP3 SWAP9 JUMPDEST DUP9 MLOAD DUP11 LT ISZERO PUSH2 0x1A7C JUMPI DUP7 MLOAD DUP11 LT ISZERO PUSH2 0x1A6A JUMPI PUSH2 0x1A62 PUSH1 0x1 SWAP2 DUP10 DUP13 DUP10 SHL DUP11 ADD ADD MLOAD SWAP1 PUSH2 0x1482 JUMP JUMPDEST SWAP10 ADD SWAP9 PUSH2 0x1A3C JUMP JUMPDEST POP POP PUSH4 0x4E487B71 PUSH1 0xE0 SHL DUP3 MSTORE PUSH1 0x32 SWAP1 MSTORE REVERT JUMPDEST SWAP9 POP SWAP7 POP POP POP POP POP POP POP JUMP JUMPDEST POP PUSH1 0x40 MLOAD PUSH4 0x7736A16D PUSH1 0xE0 SHL DUP2 MSTORE REVERT JUMPDEST DUP5 CALLDATALOAD DUP4 DUP2 GT PUSH2 0xF66 JUMPI DUP14 SWAP2 PUSH2 0x1AB2 DUP7 DUP14 DUP6 SWAP5 DUP8 ADD ADD PUSH2 0x15F8 JUMP JUMPDEST DUP2 MSTORE ADD SWAP5 ADD SWAP4 PUSH2 0x1A23 JUMP JUMPDEST DUP3 CALLDATALOAD DUP2 MSTORE SWAP2 DUP2 ADD SWAP2 DUP14 SWAP2 ADD PUSH2 0x19C9 JUMP JUMPDEST DUP9 DUP1 REVERT JUMPDEST DUP2 SWAP1 PUSH2 0x1ADC DUP5 PUSH2 0x13FA JUMP JUMPDEST DUP2 MSTORE ADD SWAP2 ADD SWAP1 DUP12 SWAP1 PUSH2 0x196D JUMP JUMPDEST DUP5 DUP1 REVERT JUMPDEST POP SWAP1 SWAP5 SWAP2 SWAP4 POP DUP4 ADD SWAP2 PUSH1 0x60 DUP5 DUP5 SUB PUSH1 0x3 NOT ADD SLT PUSH2 0xAE1 JUMPI PUSH2 0x1B0F DUP3 DUP6 ADD PUSH2 0x13FA JUMP JUMPDEST POP PUSH1 0x44 DUP5 ADD CALLDATALOAD SWAP1 PUSH1 0x1 PUSH1 0x1 PUSH1 0x40 SHL SUB DUP3 GT PUSH2 0xAE1 JUMPI POP SWAP2 PUSH2 0x1B36 SWAP2 DUP5 SWAP4 PUSH1 0x24 SWAP6 ADD ADD PUSH2 0x15F8 JUMP JUMPDEST POP ADD CALLDATALOAD SWAP1 JUMP JUMPDEST SWAP1 PUSH32 0x19457468657265756D205369676E6564204D6573736167653A0A333200000000 PUSH1 0x0 MSTORE PUSH1 0x1C MSTORE PUSH1 0x3C PUSH1 0x0 KECCAK256 SWAP1 PUSH2 0x100 DUP2 ADD SWAP1 PUSH1 0x41 PUSH2 0x1B7C DUP4 DUP4 PUSH2 0x14CB JUMP JUMPDEST SWAP1 POP EQ PUSH2 0x1BA8 JUMPI SWAP2 PUSH2 0x1B97 PUSH2 0x168C PUSH2 0x1B9F SWAP4 PUSH2 0x1613 SWAP6 PUSH2 0x14CB JUMP JUMPDEST SWAP2 SWAP1 POP PUSH2 0x1C0C JUMP JUMPDEST SWAP1 SWAP3 SWAP2 SWAP3 PUSH2 0x1C48 JUMP JUMPDEST SWAP2 PUSH2 0x1BC3 PUSH2 0x1BBC PUSH2 0x1B9F SWAP4 PUSH2 0x1BC9 SWAP6 PUSH2 0x14CB JUMP JUMPDEST CALLDATASIZE SWAP2 PUSH2 0x15C1 JUMP JUMPDEST SWAP1 PUSH2 0x1C0C JUMP JUMPDEST PUSH1 0x1 SLOAD PUSH1 0x1 PUSH1 0x1 PUSH1 0xA0 SHL SUB SWAP1 DUP2 AND SWAP1 DUP3 AND SUB PUSH2 0x1BE2 JUMPI SWAP1 JUMP JUMPDEST PUSH1 0x40 MLOAD PUSH4 0x91FAD511 PUSH1 0xE0 SHL DUP2 MSTORE PUSH1 0x4 SWAP1 REVERT JUMPDEST SWAP1 DUP2 PUSH1 0x20 SWAP2 SUB SLT PUSH2 0x28D JUMPI MLOAD DUP1 ISZERO ISZERO DUP2 SUB PUSH2 0x28D JUMPI SWAP1 JUMP JUMPDEST DUP2 MLOAD SWAP2 SWAP1 PUSH1 0x41 DUP4 SUB PUSH2 0x1C3D JUMPI PUSH2 0x1C36 SWAP3 POP PUSH1 0x20 DUP3 ADD MLOAD SWAP1 PUSH1 0x60 PUSH1 0x40 DUP5 ADD MLOAD SWAP4 ADD MLOAD PUSH1 0x0 BYTE SWAP1 PUSH2 0x1CCD JUMP JUMPDEST SWAP2 SWAP3 SWAP1 SWAP2 SWAP1 JUMP JUMPDEST POP POP PUSH1 0x0 SWAP2 PUSH1 0x2 SWAP2 SWAP1 JUMP JUMPDEST PUSH1 0x4 DUP2 LT ISZERO PUSH2 0x1CB7 JUMPI DUP1 PUSH2 0x1C5A JUMPI POP POP JUMP JUMPDEST PUSH1 0x1 DUP2 SUB PUSH2 0x1C74 JUMPI PUSH1 0x40 MLOAD PUSH4 0xF645EEDF PUSH1 0xE0 SHL DUP2 MSTORE PUSH1 0x4 SWAP1 REVERT JUMPDEST PUSH1 0x2 DUP2 SUB PUSH2 0x1C95 JUMPI PUSH1 0x40 MLOAD PUSH4 0xFCE698F7 PUSH1 0xE0 SHL DUP2 MSTORE PUSH1 0x4 DUP2 ADD DUP4 SWAP1 MSTORE PUSH1 0x24 SWAP1 REVERT JUMPDEST PUSH1 0x3 EQ PUSH2 0x1C9F JUMPI POP JUMP JUMPDEST PUSH1 0x24 SWAP1 PUSH1 0x40 MLOAD SWAP1 PUSH4 0x35E2F383 PUSH1 0xE2 SHL DUP3 MSTORE PUSH1 0x4 DUP3 ADD MSTORE REVERT JUMPDEST PUSH4 0x4E487B71 PUSH1 0xE0 SHL PUSH1 0x0 MSTORE PUSH1 0x21 PUSH1 0x4 MSTORE PUSH1 0x24 PUSH1 0x0 REVERT JUMPDEST SWAP2 SWAP1 PUSH32 0x7FFFFFFFFFFFFFFFFFFFFFFFFFFFFFFF5D576E7357A4501DDFE92F46681B20A0 DUP5 GT PUSH2 0x1D51 JUMPI SWAP3 PUSH1 0x20 SWAP3 SWAP2 PUSH1 0xFF PUSH1 0x80 SWAP6 PUSH1 0x40 MLOAD SWAP5 DUP6 MSTORE AND DUP5 DUP5 ADD MSTORE PUSH1 0x40 DUP4 ADD MSTORE PUSH1 0x60 DUP3 ADD MSTORE PUSH1 0x0 SWAP3 DUP4 SWAP2 DUP3 DUP1 MSTORE PUSH1 0x1 GAS STATICCALL ISZERO PUSH2 0x1D45 JUMPI DUP1 MLOAD PUSH1 0x1 PUSH1 0x1 PUSH1 0xA0 SHL SUB DUP2 AND ISZERO PUSH2 0x1D3C JUMPI SWAP2 DUP2 SWAP1 JUMP JUMPDEST POP DUP1 SWAP2 PUSH1 0x1 SWAP2 SWAP1 JUMP JUMPDEST PUSH1 0x40 MLOAD SWAP1 RETURNDATASIZE SWAP1 DUP3 RETURNDATACOPY RETURNDATASIZE SWAP1 REVERT JUMPDEST POP POP POP PUSH1 0x0 SWAP2 PUSH1 0x3 SWAP2 SWAP1 JUMP INVALID LOG2 PUSH5 0x6970667358 0x22 SLT KECCAK256 DUP11 PUSH19 0xCC0AE5B337329F930F6C149E55D01070D0DBF8 LOG2 0xE1 GASPRICE 0xC4 0xE8 DUP6 0xBE REVERT 0xAD 0xDD EXTCODESIZE PUSH5 0x736F6C6343 STOP ADDMOD XOR STOP CALLER "},"methodIdentifiers":{"MAX_BATCH_SIZE()":"cfdbf254","TIMELOCK_DELAY()":"5ba1c1a9","acceptEntryPoint()":"8fc1cebd","acceptOwnership()":"79ba5097","acceptSessionManager()":"12ca68a1","addDeposit()":"4a58db19","changeOwner(address)":"a6f9dae1","checkBalance()":"c71daccb","entryPoint()":"b0d691fe","entryPointActivationTime()":"c96f03e0","execute(address,uint256,bytes)":"b61d27f6","executeBatch(address[],uint256[],bytes[])":"47e1da2a","getDeposit()":"c399ec88","initialize(address,address,address)":"c0c53b8b","isWhiteListed(address,bytes4)":"a1eab253","owner()":"8da5cb5b","pendingEntryPoint()":"07c40b3c","pendingOwner()":"e30c3978","pendingSessionManager()":"1dab21a7","proposeEntryPoint(address)":"309cc957","proposeSessionManager(address)":"03230ca6","sessionManager()":"b7b13f79","sessionManagerActivationTime()":"ec4c9157","setWhiteListedSelector(address,bytes4,bool)":"05c41908","setWhiteListedSelectorBatch(address,bytes4[],bool[])":"1f45349f","tokensReceived(address,address,address,uint256,bytes,bytes)":"0023de29","validateUserOp((address,uint256,bytes,bytes,bytes32,uint256,bytes32,bytes,bytes),bytes32,uint256)":"19822f7c","whiteListedSelectors(address,bytes4)":"3e2c85f3","withdrawDepositTo(address,uint256)":"4d44560d"}}}}}