{"src/CapabilityRegistry.sol":{"CapabilityRegistry":{"abi":[{"inputs":[],"stateMutability":"nonpayable","type":"constructor"},{"inputs":[],"name":"ActionRequired","type":"error"},{"inputs":[],"name":"AlreadyRevokedCapability","type":"error"},{"inputs":[],"name":"CapabilityExists","type":"error"},{"inputs":[],"name":"CapabilityNotFound","type":"error"},{"inputs":[],"name":"NotARootUpdater","type":"error"},{"inputs":[],"name":"NotAuthorizedForCapability","type":"error"},{"anonymous":false,"inputs":[{"indexed":false,"internalType":"address","name":"previousAdmin","type":"address"},{"indexed":false,"internalType":"address","name":"newAdmin","type":"address"}],"name":"AdminChanged","type":"event"},{"anonymous":false,"inputs":[{"indexed":true,"internalType":"address","name":"beacon","type":"address"}],"name":"BeaconUpgraded","type":"event"},{"anonymous":false,"inputs":[{"indexed":true,"internalType":"bytes32","name":"capabilityId","type":"bytes32"},{"indexed":true,"internalType":"bytes32","name":"actionHash","type":"bytes32"},{"indexed":true,"internalType":"address","name":"registrar","type":"address"}],"name":"CapabilityRegistered","type":"event"},{"anonymous":false,"inputs":[{"indexed":true,"internalType":"bytes32","name":"capabilityId","type":"bytes32"}],"name":"CapabilityRevoked","type":"event"},{"anonymous":false,"inputs":[{"indexed":true,"internalType":"bytes32","name":"grantLeafHash","type":"bytes32"}],"name":"GrantRevoked","type":"event"},{"anonymous":false,"inputs":[{"indexed":true,"internalType":"address","name":"agent","type":"address"},{"indexed":false,"internalType":"bytes32","name":"newRoot","type":"bytes32"}],"name":"GrantRootUpdated","type":"event"},{"anonymous":false,"inputs":[{"indexed":false,"internalType":"uint8","name":"version","type":"uint8"}],"name":"Initialized","type":"event"},{"anonymous":false,"inputs":[{"indexed":true,"internalType":"address","name":"previousOwner","type":"address"},{"indexed":true,"internalType":"address","name":"newOwner","type":"address"}],"name":"OwnershipTransferred","type":"event"},{"anonymous":false,"inputs":[{"indexed":false,"internalType":"address","name":"account","type":"address"}],"name":"Paused","type":"event"},{"anonymous":false,"inputs":[{"indexed":false,"internalType":"address","name":"account","type":"address"}],"name":"Unpaused","type":"event"},{"anonymous":false,"inputs":[{"indexed":true,"internalType":"address","name":"implementation","type":"address"}],"name":"Upgraded","type":"event"},{"inputs":[{"internalType":"bytes32","name":"","type":"bytes32"}],"name":"capabilities","outputs":[{"internalType":"bytes32","name":"actionHash","type":"bytes32"},{"internalType":"address","name":"registrar","type":"address"},{"internalType":"uint64","name":"createdAt","type":"uint64"},{"internalType":"uint64","name":"expiresAt","type":"uint64"},{"internalType":"bool","name":"revoked","type":"bool"}],"stateMutability":"view","type":"function"},{"inputs":[{"internalType":"uint256","name":"","type":"uint256"}],"name":"capabilityList","outputs":[{"internalType":"bytes32","name":"","type":"bytes32"}],"stateMutability":"view","type":"function"},{"inputs":[{"internalType":"bytes32","name":"capabilityId","type":"bytes32"}],"name":"getCapability","outputs":[{"components":[{"internalType":"bytes32","name":"actionHash","type":"bytes32"},{"internalType":"address","name":"registrar","type":"address"},{"internalType":"uint64","name":"createdAt","type":"uint64"},{"internalType":"uint64","name":"expiresAt","type":"uint64"},{"internalType":"bool","name":"revoked","type":"bool"}],"internalType":"struct CapabilityRegistry.CapabilityDef","name":"","type":"tuple"}],"stateMutability":"view","type":"function"},{"inputs":[],"name":"getCapabilityCount","outputs":[{"internalType":"uint256","name":"","type":"uint256"}],"stateMutability":"view","type":"function"},{"inputs":[{"internalType":"address","name":"","type":"address"}],"name":"grantRoots","outputs":[{"internalType":"bytes32","name":"","type":"bytes32"}],"stateMutability":"view","type":"function"},{"inputs":[{"internalType":"address","name":"owner_","type":"address"}],"name":"initialize","outputs":[],"stateMutability":"nonpayable","type":"function"},{"inputs":[],"name":"owner","outputs":[{"internalType":"address","name":"","type":"address"}],"stateMutability":"view","type":"function"},{"inputs":[],"name":"pause","outputs":[],"stateMutability":"nonpayable","type":"function"},{"inputs":[],"name":"paused","outputs":[{"internalType":"bool","name":"","type":"bool"}],"stateMutability":"view","type":"function"},{"inputs":[],"name":"proxiableUUID","outputs":[{"internalType":"bytes32","name":"","type":"bytes32"}],"stateMutability":"view","type":"function"},{"inputs":[{"internalType":"bytes32","name":"capabilityId","type":"bytes32"},{"internalType":"string","name":"action","type":"string"},{"internalType":"uint64","name":"expiresAt","type":"uint64"}],"name":"registerCapability","outputs":[],"stateMutability":"nonpayable","type":"function"},{"inputs":[],"name":"renounceOwnership","outputs":[],"stateMutability":"nonpayable","type":"function"},{"inputs":[{"internalType":"bytes32","name":"capabilityId","type":"bytes32"}],"name":"revokeCapability","outputs":[],"stateMutability":"nonpayable","type":"function"},{"inputs":[{"internalType":"bytes32","name":"grantLeafHash","type":"bytes32"},{"internalType":"bytes32","name":"capabilityId","type":"bytes32"}],"name":"revokeGrant","outputs":[],"stateMutability":"nonpayable","type":"function"},{"inputs":[{"internalType":"bytes32","name":"","type":"bytes32"}],"name":"revokedGrants","outputs":[{"internalType":"bool","name":"","type":"bool"}],"stateMutability":"view","type":"function"},{"inputs":[{"internalType":"address","name":"","type":"address"}],"name":"rootUpdaters","outputs":[{"internalType":"bool","name":"","type":"bool"}],"stateMutability":"view","type":"function"},{"inputs":[{"internalType":"address","name":"updater","type":"address"},{"internalType":"bool","name":"allowed","type":"bool"}],"name":"setRootUpdater","outputs":[],"stateMutability":"nonpayable","type":"function"},{"inputs":[{"internalType":"address","name":"newOwner","type":"address"}],"name":"transferOwnership","outputs":[],"stateMutability":"nonpayable","type":"function"},{"inputs":[],"name":"unpause","outputs":[],"stateMutability":"nonpayable","type":"function"},{"inputs":[{"internalType":"address","name":"agent","type":"address"},{"internalType":"bytes32","name":"newRoot","type":"bytes32"}],"name":"updateGrantRoot","outputs":[],"stateMutability":"nonpayable","type":"function"},{"inputs":[{"internalType":"address","name":"newImplementation","type":"address"}],"name":"upgradeTo","outputs":[],"stateMutability":"nonpayable","type":"function"},{"inputs":[{"internalType":"address","name":"newImplementation","type":"address"},{"internalType":"bytes","name":"data","type":"bytes"}],"name":"upgradeToAndCall","outputs":[],"stateMutability":"payable","type":"function"},{"inputs":[{"internalType":"address","name":"agent","type":"address"},{"internalType":"bytes32","name":"capabilityId","type":"bytes32"},{"internalType":"bytes32","name":"grantLeaf","type":"bytes32"},{"internalType":"bytes32[]","name":"merkleProof","type":"bytes32[]"},{"internalType":"address","name":"grantor","type":"address"},{"internalType":"bytes32","name":"constraintsHash","type":"bytes32"},{"internalType":"uint64","name":"expiresAt","type":"uint64"}],"name":"verifyCapability","outputs":[{"internalType":"bool","name":"","type":"bool"}],"stateMutability":"view","type":"function"}],"evm":{"bytecode":{"linkReferences":{},"object":"60a080604052346100dc57306080526000549060ff8260081c1661008a575060ff8082160361004f575b6040516118a790816100e282396080518181816108ea01528181610a100152610e500152f35b60ff90811916176000557f7f26b83ff96e1f2b6a682f133852f6798a09c465da95921460cefb3847402498602060405160ff8152a138610029565b62461bcd60e51b815260206004820152602760248201527f496e697469616c697a61626c653a20636f6e747261637420697320696e697469604482015266616c697a696e6760c81b6064820152608490fd5b600080fdfe6080604081815260048036101561001557600080fd5b600092833560e01c9081631656cd7e146112045750806324354992146110195780633659cfe614610e29578063372b102d14610dea5780633a7f6cc714610d2c5780633f4ba83a14610c975780634f1ef2861461099757806352d1902d146108d5578063537394101461087e5780635c975abb1461085a5780636f4907a61461082d578063715018a6146107d05780637b23648a146107325780638456cb59146106d757806388a8baf9146106405780638da5cb5b146106175780639cb7c5f414610556578063a6e0a6ce1461051a578063adf4d59e14610441578063b036fe7e1461041d578063c2ead131146103b6578063c4d66de8146101b45763f2fde38b1461012057600080fd5b346101b05760203660031901126101b057610139611239565b916101426115ec565b6001600160a01b0383161561015e578361015b84611644565b80f35b906020608492519162461bcd60e51b8352820152602660248201527f4f776e61626c653a206e6577206f776e657220697320746865207a65726f206160448201526564647265737360d01b6064820152fd5b8280fd5b50346101b05760203660031901126101b0576101ce611239565b83549160ff8360081c1615928380946103a9575b8015610392575b156103385760ff1980821660011787556102639185610327575b5061021d60ff885460081c166102188161168d565b61168d565b61022633611644565b60ff875460081c16906102388261168d565b6102418261168d565b6001805561024e8261168d565b6102578261168d565b6065541660655561168d565b6001600160a01b0382163381036102b6575b505050610280575080f35b60207f7f26b83ff96e1f2b6a682f133852f6798a09c465da95921460cefb38474024989161ff001984541684555160018152a180f35b6102be6115ec565b156102d557506102cd90611644565b388080610275565b608490602085519162461bcd60e51b8352820152602660248201527f4f776e61626c653a206e6577206f776e657220697320746865207a65726f206160448201526564647265737360d01b6064820152fd5b61ffff191661010117875538610203565b845162461bcd60e51b8152602081840152602e60248201527f496e697469616c697a61626c653a20636f6e747261637420697320616c72656160448201526d191e481a5b9a5d1a585b1a5e995960921b6064820152608490fd5b50303b1580156101e95750600160ff8216146101e9565b50600160ff8216106101e2565b50346101b05760203660031901126101b0578160a09360ff9235815261012d6020522080549260026001830154926001600160401b039182910154938351968752600180891b0381166020880152871c1682860152821660608501521c1615156080820152f35b50503461043d578160031936011261043d5760209061012e549051908152f35b5080fd5b50346101b05760203660031901126101b05780359182845261012d60205280842060018101546001600160401b038160a01c161561050b576001600160a01b0390811633141590816104fc575b506104ee576002019182549160ff83821c166104e157505068ff00000000000000001916600160401b1790557f49605d0360d8e90064c274ba9997a3d883d637411e4a6855594c367b31679d668280a280f35b5163f3d4f46960e01b8152fd5b505163093886bb60e21b8152fd5b905060fb54163314153861048e565b505051635ad384df60e11b8152fd5b50346101b05760203660031901126101b057359161012e5483101561055357506105456020926112dc565b91905490519160031b1c8152f35b80fd5b50346101b05760203660031901126101b05782829160a0946080845161057b81611254565b8281528260208201528286820152826060820152015235815261012d60205220600282516105a881611254565b825493848252600184015493600180881b0394602084019580821687526001600160401b0395869384868801948c1c16845201549660ff60806060880197868b1689520198861c1615158852845198895251166020880152511690850152511660608301525115156080820152f35b50503461043d578160031936011261043d5760fb5490516001600160a01b039091168152602090f35b5090346101b057806003193601126101b05761065a611239565b6001600160a01b031691602435919033841415806106c0575b6106b257507fd16ef39bb9aa303cfb433f8db1c88ac040afe9393441412bf5b1f0f97d0104b79160209184865261012f8352818187205551908152a280f35b905163074abf8160e21b8152fd5b5033855261013160205260ff828620541615610673565b50503461043d578160031936011261043d5760207f62e78cea01bee320cd4e420270b5ea74000d11b0c9f74754ebdbfc544b05a258916107156115ec565b61071d6115a8565b600160ff19606554161760655551338152a180f35b5091346105535760e03660031901126105535761074d611239565b90606435916001600160401b03948584116101b057366023850112156101b057830135908582116101b0573660248360051b860101116101b057608435926001600160a01b03841684036105535760c43596871687036105535750916107c7939160209693602460a43594019060443590602435906113eb565b90519015158152f35b83346105535780600319360112610553576107e96115ec565b60fb80546001600160a01b0319811690915581906001600160a01b03167f8be0079c531659141344cd1fd0a4f28419497f9722a3daafe3b4186f6b6457e08280a380f35b50346101b05760203660031901126101b0578160209360ff92358152610130855220541690519015158152f35b50503461043d578160031936011261043d5760209060ff6065541690519015158152f35b50503461043d578060031936011261043d57610898611239565b90602435918215158093036108d1576108af6115ec565b60018060a01b0316835261013160205282209060ff8019835416911617905580f35b8380fd5b508234610553578060031936011261055357507f00000000000000000000000000000000000000000000000000000000000000006001600160a01b0316300361092f57602082516000805160206118528339815191528152f35b6020608492519162461bcd60e51b8352820152603860248201527f555550535570677261646561626c653a206d757374206e6f742062652063616c60448201527f6c6564207468726f7567682064656c656761746563616c6c00000000000000006064820152fd5b5090806003193601126101b0576109ac611239565b90602435906001600160401b038211610c935736602383011215610c9357818401356109d7816112c1565b6109e3835191826112a0565b818152866020948583019336602482840101116101b0578060248893018637830101526001600160a01b037f0000000000000000000000000000000000000000000000000000000000000000811690610a3e30831415611329565b610a5b60008051602061185283398151915292828454161461138a565b610a636115ec565b7f4910fdfa16fed3260ed0e7147f7cc6da11a60208b5b9406d12a635614ffd91435460ff1615610a9d5750505050505061015b91506116ed565b869293949596169085516352d1902d60e01b815287818a81865afa8a9181610c60575b50610b1f57865162461bcd60e51b8152808a01899052602e60248201527f45524331393637557067726164653a206e657720696d706c656d656e7461746960448201526d6f6e206973206e6f74205555505360901b6064820152608490fd5b979192939695949703610c0b5750610b36826116ed565b7fbc7cd75a20ee27fd9adebab32041f755214dbc6bffa90cc0225b39da2e5c2d3b8780a285845115801590610c03575b610b74575b50505050505080f35b80610bed96845196610b8588611285565b602788527f416464726573733a206c6f772d6c6576656c2064656c65676174652063616c6c87890152660819985a5b195960ca1b868901525190845af4913d15610bf9573d610bdf610bd6826112c1565b925192836112a0565b81528681943d92013e61177d565b50388080808085610b6b565b506060925061177d565b506001610b66565b835162461bcd60e51b8152908101859052602960248201527f45524331393637557067726164653a20756e737570706f727465642070726f786044820152681a58589b195555525160ba1b6064820152608490fd5b9091508881813d8311610c8c575b610c7881836112a0565b81010312610c8857519038610ac0565b8a80fd5b503d610c6e565b8480fd5b50346101b057826003193601126101b057610cb06115ec565b6065549060ff821615610cf2575060ff1916606555513381527f5db9ee0a495bf2e6ff9c91a7834c1ba4fdd244a5e8aa4e537bd38aeae4b073aa90602090a180f35b606490602084519162461bcd60e51b8352820152601460248201527314185d5cd8589b194e881b9bdd081c185d5cd95960621b6044820152fd5b5090346101b057806003193601126101b057602435835261012d6020528083206001015482359290336001600160a01b0391821614159081610ddb575b50610dcd57828452610130908160205260ff8386205416610dbf57508284526020528220805460ff191660011790557fbc7909d45ab794ee63122077124d9ce05bea1db0768be90c77d2eddbdf1eef4f8280a280f35b825163f3d4f46960e01b8152fd5b905163093886bb60e21b8152fd5b905060fb541633141538610d69565b50503461043d57602036600319011261043d5760209160ff9082906001600160a01b03610e15611239565b168152610131855220541690519015158152f35b5090346101b0576020806003193601126108d157610e45611239565b916001600160a01b037f00000000000000000000000000000000000000000000000000000000000000008116610e7d30821415611329565b610e9a60008051602061185283398151915291838354161461138a565b610ea26115ec565b825190848201928284106001600160401b03851117611006578385528883527f4910fdfa16fed3260ed0e7147f7cc6da11a60208b5b9406d12a635614ffd91435460ff1615610efb5750505050505061015b91506116ed565b869293949596169085516352d1902d60e01b815287818a81865afa8a9181610fd7575b50610f7d57865162461bcd60e51b8152808a01899052602e60248201527f45524331393637557067726164653a206e657720696d706c656d656e7461746960448201526d6f6e206973206e6f74205555505360901b6064820152608490fd5b979192939695949703610c0b5750610f94826116ed565b7fbc7cd75a20ee27fd9adebab32041f755214dbc6bffa90cc0225b39da2e5c2d3b8780a285845115801590610fd057610b745750505050505080f35b5080610b66565b9091508881813d8311610fff575b610fef81836112a0565b81010312610c8857519038610f1e565b503d610fe5565b634e487b7160e01b895260418852602489fd5b5091903461043d57606036600319011261043d57823590602435906001600160401b0390818311610c935736602384011215610c9357828601359180831161120057366024848601011161120057604435928184168094036111fc5761107d6115a8565b6110856115ec565b85875261012d94602091868352836001868b20015460a01c166111ec5780156111dc57828594926002926110de68ff0000000000000000968d995183819460248484019701873781018b838201520380845201826112a0565b519020978551916110ee83611254565b89835280830191338352878401918642168352606085019a8b528c608086019a808c525252868c2092518355600183019160018060a01b039051168254916001600160401b0360a01b905160a01b169163ffffffff60e01b16171790550194511691845493511515901b169168ffffffffffffffffff19161717905561012e805490600160401b8210156111c95760018201905561118b906112dc565b81549060031b9084821b91600019901b191617905533917ff29a7a8b7e17110feb5338446fbfdcb1f7370015c5a13bfdf070ccbf6b5e2dfe8480a480f35b634e487b7160e01b855260418652602485fd5b8451630731582160e51b81528a90fd5b84516305b8e23b60e01b81528a90fd5b8680fd5b8580fd5b849084346101b05760203660031901126101b0576020926001600160a01b0361122b611239565b16815261012f845220548152f35b600435906001600160a01b038216820361124f57565b600080fd5b60a081019081106001600160401b0382111761126f57604052565b634e487b7160e01b600052604160045260246000fd5b606081019081106001600160401b0382111761126f57604052565b90601f801991011681019081106001600160401b0382111761126f57604052565b6001600160401b03811161126f57601f01601f191660200190565b61012e8054821015611313576000527fbdaadd9f750d0166045bf387a364eadd28ba243e04512a47282aa5147a68e37f0190600090565b634e487b7160e01b600052603260045260246000fd5b1561133057565b60405162461bcd60e51b815260206004820152602c60248201527f46756e6374696f6e206d7573742062652063616c6c6564207468726f7567682060448201526b19195b1959d85d1958d85b1b60a21b6064820152608490fd5b1561139157565b60405162461bcd60e51b815260206004820152602c60248201527f46756e6374696f6e206d7573742062652063616c6c6564207468726f7567682060448201526b6163746976652070726f787960a01b6064820152608490fd5b9694919590929560009184835260209461012d86526040948585209860028a01549b60ff8d891c1661158e576001600160401b03809d16801515908161159e575b5061158e5760019a8b01546001600160a01b03938416939190821684900361157d57908d92918951948b86019687528a86015216948560608501526080840152169a8b60a083015260a0825260c08201908282109082111761156957865251902082900361155d57825261012f84528282205497881561155d57818352610130855260ff848420541661155d578015159081611553575b506115485795949392919080955b8487106114e357505050505050501490565b90919293948697819760051b830135808210600014611526578551908782019283528682015285815261151581611285565b5190205b97019594939291906114d1565b908551908782019283528682015285815261154081611285565b519020611519565b509550505050505090565b90504211386114c3565b50509550505050505090565b634e487b7160e01b86526041600452602486fd5b505050505050509550505050505090565b5050505050509550505050505090565b905042113861142c565b60ff606554166115b457565b60405162461bcd60e51b815260206004820152601060248201526f14185d5cd8589b194e881c185d5cd95960821b6044820152606490fd5b60fb546001600160a01b0316330361160057565b606460405162461bcd60e51b815260206004820152602060248201527f4f776e61626c653a2063616c6c6572206973206e6f7420746865206f776e65726044820152fd5b60fb80546001600160a01b039283166001600160a01b0319821681179092559091167f8be0079c531659141344cd1fd0a4f28419497f9722a3daafe3b4186f6b6457e0600080a3565b1561169457565b60405162461bcd60e51b815260206004820152602b60248201527f496e697469616c697a61626c653a20636f6e7472616374206973206e6f74206960448201526a6e697469616c697a696e6760a81b6064820152608490fd5b803b156117225760008051602061185283398151915280546001600160a01b0319166001600160a01b03909216919091179055565b60405162461bcd60e51b815260206004820152602d60248201527f455243313936373a206e657720696d706c656d656e746174696f6e206973206e60448201526c1bdd08184818dbdb9d1c9858dd609a1b6064820152608490fd5b919290156117df5750815115611791575090565b3b1561179a5790565b60405162461bcd60e51b815260206004820152601d60248201527f416464726573733a2063616c6c20746f206e6f6e2d636f6e74726163740000006044820152606490fd5b8251909150156117f25750805190602001fd5b6040519062461bcd60e51b82528160208060048301528251908160248401526000935b828510611838575050604492506000838284010152601f80199101168101030190fd5b848101820151868601604401529381019385935061181556fe360894a13ba1a3210667c828492db98dca3e2076cc3735a920a3ca505d382bbca2646970667358221220fa2be82c9b40f91f4f6d3efabfe06c672a5eb46a4d6fccee49c469180278624864736f6c63430008180033","opcodes":"PUSH1 0xA0 DUP1 PUSH1 0x40 MSTORE CALLVALUE PUSH2 0xDC JUMPI ADDRESS PUSH1 0x80 MSTORE PUSH1 0x0 SLOAD SWAP1 PUSH1 0xFF DUP3 PUSH1 0x8 SHR AND PUSH2 0x8A JUMPI POP PUSH1 0xFF DUP1 DUP3 AND SUB PUSH2 0x4F JUMPI JUMPDEST PUSH1 0x40 MLOAD PUSH2 0x18A7 SWAP1 DUP2 PUSH2 0xE2 DUP3 CODECOPY PUSH1 0x80 MLOAD DUP2 DUP2 DUP2 PUSH2 0x8EA ADD MSTORE DUP2 DUP2 PUSH2 0xA10 ADD MSTORE PUSH2 0xE50 ADD MSTORE RETURN JUMPDEST PUSH1 0xFF SWAP1 DUP2 NOT AND OR PUSH1 0x0 SSTORE PUSH32 0x7F26B83FF96E1F2B6A682F133852F6798A09C465DA95921460CEFB3847402498 PUSH1 0x20 PUSH1 0x40 MLOAD PUSH1 0xFF DUP2 MSTORE LOG1 CODESIZE PUSH2 0x29 JUMP JUMPDEST PUSH3 0x461BCD PUSH1 0xE5 SHL DUP2 MSTORE PUSH1 0x20 PUSH1 0x4 DUP3 ADD MSTORE PUSH1 0x27 PUSH1 0x24 DUP3 ADD MSTORE PUSH32 0x496E697469616C697A61626C653A20636F6E747261637420697320696E697469 PUSH1 0x44 DUP3 ADD MSTORE PUSH7 0x616C697A696E67 PUSH1 0xC8 SHL PUSH1 0x64 DUP3 ADD MSTORE PUSH1 0x84 SWAP1 REVERT JUMPDEST PUSH1 0x0 DUP1 REVERT INVALID PUSH1 0x80 PUSH1 0x40 DUP2 DUP2 MSTORE PUSH1 0x4 DUP1 CALLDATASIZE LT ISZERO PUSH2 0x15 JUMPI PUSH1 0x0 DUP1 REVERT JUMPDEST PUSH1 0x0 SWAP3 DUP4 CALLDATALOAD PUSH1 0xE0 SHR SWAP1 DUP2 PUSH4 0x1656CD7E EQ PUSH2 0x1204 JUMPI POP DUP1 PUSH4 0x24354992 EQ PUSH2 0x1019 JUMPI DUP1 PUSH4 0x3659CFE6 EQ PUSH2 0xE29 JUMPI DUP1 PUSH4 0x372B102D EQ PUSH2 0xDEA JUMPI DUP1 PUSH4 0x3A7F6CC7 EQ PUSH2 0xD2C JUMPI DUP1 PUSH4 0x3F4BA83A EQ PUSH2 0xC97 JUMPI DUP1 PUSH4 0x4F1EF286 EQ PUSH2 0x997 JUMPI DUP1 PUSH4 0x52D1902D EQ PUSH2 0x8D5 JUMPI DUP1 PUSH4 0x53739410 EQ PUSH2 0x87E JUMPI DUP1 PUSH4 0x5C975ABB EQ PUSH2 0x85A JUMPI DUP1 PUSH4 0x6F4907A6 EQ PUSH2 0x82D JUMPI DUP1 PUSH4 0x715018A6 EQ PUSH2 0x7D0 JUMPI DUP1 PUSH4 0x7B23648A EQ PUSH2 0x732 JUMPI DUP1 PUSH4 0x8456CB59 EQ PUSH2 0x6D7 JUMPI DUP1 PUSH4 0x88A8BAF9 EQ PUSH2 0x640 JUMPI DUP1 PUSH4 0x8DA5CB5B EQ PUSH2 0x617 JUMPI DUP1 PUSH4 0x9CB7C5F4 EQ PUSH2 0x556 JUMPI DUP1 PUSH4 0xA6E0A6CE EQ PUSH2 0x51A JUMPI DUP1 PUSH4 0xADF4D59E EQ PUSH2 0x441 JUMPI DUP1 PUSH4 0xB036FE7E EQ PUSH2 0x41D JUMPI DUP1 PUSH4 0xC2EAD131 EQ PUSH2 0x3B6 JUMPI DUP1 PUSH4 0xC4D66DE8 EQ PUSH2 0x1B4 JUMPI PUSH4 0xF2FDE38B EQ PUSH2 0x120 JUMPI PUSH1 0x0 DUP1 REVERT JUMPDEST CALLVALUE PUSH2 0x1B0 JUMPI PUSH1 0x20 CALLDATASIZE PUSH1 0x3 NOT ADD SLT PUSH2 0x1B0 JUMPI PUSH2 0x139 PUSH2 0x1239 JUMP JUMPDEST SWAP2 PUSH2 0x142 PUSH2 0x15EC JUMP JUMPDEST PUSH1 0x1 PUSH1 0x1 PUSH1 0xA0 SHL SUB DUP4 AND ISZERO PUSH2 0x15E JUMPI DUP4 PUSH2 0x15B DUP5 PUSH2 0x1644 JUMP JUMPDEST DUP1 RETURN JUMPDEST SWAP1 PUSH1 0x20 PUSH1 0x84 SWAP3 MLOAD SWAP2 PUSH3 0x461BCD PUSH1 0xE5 SHL DUP4 MSTORE DUP3 ADD MSTORE PUSH1 0x26 PUSH1 0x24 DUP3 ADD MSTORE PUSH32 0x4F776E61626C653A206E6577206F776E657220697320746865207A65726F2061 PUSH1 0x44 DUP3 ADD MSTORE PUSH6 0x646472657373 PUSH1 0xD0 SHL PUSH1 0x64 DUP3 ADD MSTORE REVERT JUMPDEST DUP3 DUP1 REVERT JUMPDEST POP CALLVALUE PUSH2 0x1B0 JUMPI PUSH1 0x20 CALLDATASIZE PUSH1 0x3 NOT ADD SLT PUSH2 0x1B0 JUMPI PUSH2 0x1CE PUSH2 0x1239 JUMP JUMPDEST DUP4 SLOAD SWAP2 PUSH1 0xFF DUP4 PUSH1 0x8 SHR AND ISZERO SWAP3 DUP4 DUP1 SWAP5 PUSH2 0x3A9 JUMPI JUMPDEST DUP1 ISZERO PUSH2 0x392 JUMPI JUMPDEST ISZERO PUSH2 0x338 JUMPI PUSH1 0xFF NOT DUP1 DUP3 AND PUSH1 0x1 OR DUP8 SSTORE PUSH2 0x263 SWAP2 DUP6 PUSH2 0x327 JUMPI JUMPDEST POP PUSH2 0x21D PUSH1 0xFF DUP9 SLOAD PUSH1 0x8 SHR AND PUSH2 0x218 DUP2 PUSH2 0x168D JUMP JUMPDEST PUSH2 0x168D JUMP JUMPDEST PUSH2 0x226 CALLER PUSH2 0x1644 JUMP JUMPDEST PUSH1 0xFF DUP8 SLOAD PUSH1 0x8 SHR AND SWAP1 PUSH2 0x238 DUP3 PUSH2 0x168D JUMP JUMPDEST PUSH2 0x241 DUP3 PUSH2 0x168D JUMP JUMPDEST PUSH1 0x1 DUP1 SSTORE PUSH2 0x24E DUP3 PUSH2 0x168D JUMP JUMPDEST PUSH2 0x257 DUP3 PUSH2 0x168D JUMP JUMPDEST PUSH1 0x65 SLOAD AND PUSH1 0x65 SSTORE PUSH2 0x168D JUMP JUMPDEST PUSH1 0x1 PUSH1 0x1 PUSH1 0xA0 SHL SUB DUP3 AND CALLER DUP2 SUB PUSH2 0x2B6 JUMPI JUMPDEST POP POP POP PUSH2 0x280 JUMPI POP DUP1 RETURN JUMPDEST PUSH1 0x20 PUSH32 0x7F26B83FF96E1F2B6A682F133852F6798A09C465DA95921460CEFB3847402498 SWAP2 PUSH2 0xFF00 NOT DUP5 SLOAD AND DUP5 SSTORE MLOAD PUSH1 0x1 DUP2 MSTORE LOG1 DUP1 RETURN JUMPDEST PUSH2 0x2BE PUSH2 0x15EC JUMP JUMPDEST ISZERO PUSH2 0x2D5 JUMPI POP PUSH2 0x2CD SWAP1 PUSH2 0x1644 JUMP JUMPDEST CODESIZE DUP1 DUP1 PUSH2 0x275 JUMP JUMPDEST PUSH1 0x84 SWAP1 PUSH1 0x20 DUP6 MLOAD SWAP2 PUSH3 0x461BCD PUSH1 0xE5 SHL DUP4 MSTORE DUP3 ADD MSTORE PUSH1 0x26 PUSH1 0x24 DUP3 ADD MSTORE PUSH32 0x4F776E61626C653A206E6577206F776E657220697320746865207A65726F2061 PUSH1 0x44 DUP3 ADD MSTORE PUSH6 0x646472657373 PUSH1 0xD0 SHL PUSH1 0x64 DUP3 ADD MSTORE REVERT JUMPDEST PUSH2 0xFFFF NOT AND PUSH2 0x101 OR DUP8 SSTORE CODESIZE PUSH2 0x203 JUMP JUMPDEST DUP5 MLOAD PUSH3 0x461BCD PUSH1 0xE5 SHL DUP2 MSTORE PUSH1 0x20 DUP2 DUP5 ADD MSTORE PUSH1 0x2E PUSH1 0x24 DUP3 ADD MSTORE PUSH32 0x496E697469616C697A61626C653A20636F6E747261637420697320616C726561 PUSH1 0x44 DUP3 ADD MSTORE PUSH14 0x191E481A5B9A5D1A585B1A5E9959 PUSH1 0x92 SHL PUSH1 0x64 DUP3 ADD MSTORE PUSH1 0x84 SWAP1 REVERT JUMPDEST POP ADDRESS EXTCODESIZE ISZERO DUP1 ISZERO PUSH2 0x1E9 JUMPI POP PUSH1 0x1 PUSH1 0xFF DUP3 AND EQ PUSH2 0x1E9 JUMP JUMPDEST POP PUSH1 0x1 PUSH1 0xFF DUP3 AND LT PUSH2 0x1E2 JUMP JUMPDEST POP CALLVALUE PUSH2 0x1B0 JUMPI PUSH1 0x20 CALLDATASIZE PUSH1 0x3 NOT ADD SLT PUSH2 0x1B0 JUMPI DUP2 PUSH1 0xA0 SWAP4 PUSH1 0xFF SWAP3 CALLDATALOAD DUP2 MSTORE PUSH2 0x12D PUSH1 0x20 MSTORE KECCAK256 DUP1 SLOAD SWAP3 PUSH1 0x2 PUSH1 0x1 DUP4 ADD SLOAD SWAP3 PUSH1 0x1 PUSH1 0x1 PUSH1 0x40 SHL SUB SWAP2 DUP3 SWAP2 ADD SLOAD SWAP4 DUP4 MLOAD SWAP7 DUP8 MSTORE PUSH1 0x1 DUP1 DUP10 SHL SUB DUP2 AND PUSH1 0x20 DUP9 ADD MSTORE DUP8 SHR AND DUP3 DUP7 ADD MSTORE DUP3 AND PUSH1 0x60 DUP6 ADD MSTORE SHR AND ISZERO ISZERO PUSH1 0x80 DUP3 ADD MSTORE RETURN JUMPDEST POP POP CALLVALUE PUSH2 0x43D JUMPI DUP2 PUSH1 0x3 NOT CALLDATASIZE ADD SLT PUSH2 0x43D JUMPI PUSH1 0x20 SWAP1 PUSH2 0x12E SLOAD SWAP1 MLOAD SWAP1 DUP2 MSTORE RETURN JUMPDEST POP DUP1 REVERT JUMPDEST POP CALLVALUE PUSH2 0x1B0 JUMPI PUSH1 0x20 CALLDATASIZE PUSH1 0x3 NOT ADD SLT PUSH2 0x1B0 JUMPI DUP1 CALLDATALOAD SWAP2 DUP3 DUP5 MSTORE PUSH2 0x12D PUSH1 0x20 MSTORE DUP1 DUP5 KECCAK256 PUSH1 0x1 DUP2 ADD SLOAD PUSH1 0x1 PUSH1 0x1 PUSH1 0x40 SHL SUB DUP2 PUSH1 0xA0 SHR AND ISZERO PUSH2 0x50B JUMPI PUSH1 0x1 PUSH1 0x1 PUSH1 0xA0 SHL SUB SWAP1 DUP2 AND CALLER EQ ISZERO SWAP1 DUP2 PUSH2 0x4FC JUMPI JUMPDEST POP PUSH2 0x4EE JUMPI PUSH1 0x2 ADD SWAP2 DUP3 SLOAD SWAP2 PUSH1 0xFF DUP4 DUP3 SHR AND PUSH2 0x4E1 JUMPI POP POP PUSH9 0xFF0000000000000000 NOT AND PUSH1 0x1 PUSH1 0x40 SHL OR SWAP1 SSTORE PUSH32 0x49605D0360D8E90064C274BA9997A3D883D637411E4A6855594C367B31679D66 DUP3 DUP1 LOG2 DUP1 RETURN JUMPDEST MLOAD PUSH4 0xF3D4F469 PUSH1 0xE0 SHL DUP2 MSTORE REVERT JUMPDEST POP MLOAD PUSH4 0x93886BB PUSH1 0xE2 SHL DUP2 MSTORE REVERT JUMPDEST SWAP1 POP PUSH1 0xFB SLOAD AND CALLER EQ ISZERO CODESIZE PUSH2 0x48E JUMP JUMPDEST POP POP MLOAD PUSH4 0x5AD384DF PUSH1 0xE1 SHL DUP2 MSTORE REVERT JUMPDEST POP CALLVALUE PUSH2 0x1B0 JUMPI PUSH1 0x20 CALLDATASIZE PUSH1 0x3 NOT ADD SLT PUSH2 0x1B0 JUMPI CALLDATALOAD SWAP2 PUSH2 0x12E SLOAD DUP4 LT ISZERO PUSH2 0x553 JUMPI POP PUSH2 0x545 PUSH1 0x20 SWAP3 PUSH2 0x12DC JUMP JUMPDEST SWAP2 SWAP1 SLOAD SWAP1 MLOAD SWAP2 PUSH1 0x3 SHL SHR DUP2 MSTORE RETURN JUMPDEST DUP1 REVERT JUMPDEST POP CALLVALUE PUSH2 0x1B0 JUMPI PUSH1 0x20 CALLDATASIZE PUSH1 0x3 NOT ADD SLT PUSH2 0x1B0 JUMPI DUP3 DUP3 SWAP2 PUSH1 0xA0 SWAP5 PUSH1 0x80 DUP5 MLOAD PUSH2 0x57B DUP2 PUSH2 0x1254 JUMP JUMPDEST DUP3 DUP2 MSTORE DUP3 PUSH1 0x20 DUP3 ADD MSTORE DUP3 DUP7 DUP3 ADD MSTORE DUP3 PUSH1 0x60 DUP3 ADD MSTORE ADD MSTORE CALLDATALOAD DUP2 MSTORE PUSH2 0x12D PUSH1 0x20 MSTORE KECCAK256 PUSH1 0x2 DUP3 MLOAD PUSH2 0x5A8 DUP2 PUSH2 0x1254 JUMP JUMPDEST DUP3 SLOAD SWAP4 DUP5 DUP3 MSTORE PUSH1 0x1 DUP5 ADD SLOAD SWAP4 PUSH1 0x1 DUP1 DUP9 SHL SUB SWAP5 PUSH1 0x20 DUP5 ADD SWAP6 DUP1 DUP3 AND DUP8 MSTORE PUSH1 0x1 PUSH1 0x1 PUSH1 0x40 SHL SUB SWAP6 DUP7 SWAP4 DUP5 DUP7 DUP9 ADD SWAP5 DUP13 SHR AND DUP5 MSTORE ADD SLOAD SWAP7 PUSH1 0xFF PUSH1 0x80 PUSH1 0x60 DUP9 ADD SWAP8 DUP7 DUP12 AND DUP10 MSTORE ADD SWAP9 DUP7 SHR AND ISZERO ISZERO DUP9 MSTORE DUP5 MLOAD SWAP9 DUP10 MSTORE MLOAD AND PUSH1 0x20 DUP9 ADD MSTORE MLOAD AND SWAP1 DUP6 ADD MSTORE MLOAD AND PUSH1 0x60 DUP4 ADD MSTORE MLOAD ISZERO ISZERO PUSH1 0x80 DUP3 ADD MSTORE RETURN JUMPDEST POP POP CALLVALUE PUSH2 0x43D JUMPI DUP2 PUSH1 0x3 NOT CALLDATASIZE ADD SLT PUSH2 0x43D JUMPI PUSH1 0xFB SLOAD SWAP1 MLOAD PUSH1 0x1 PUSH1 0x1 PUSH1 0xA0 SHL SUB SWAP1 SWAP2 AND DUP2 MSTORE PUSH1 0x20 SWAP1 RETURN JUMPDEST POP SWAP1 CALLVALUE PUSH2 0x1B0 JUMPI DUP1 PUSH1 0x3 NOT CALLDATASIZE ADD SLT PUSH2 0x1B0 JUMPI PUSH2 0x65A PUSH2 0x1239 JUMP JUMPDEST PUSH1 0x1 PUSH1 0x1 PUSH1 0xA0 SHL SUB AND SWAP2 PUSH1 0x24 CALLDATALOAD SWAP2 SWAP1 CALLER DUP5 EQ ISZERO DUP1 PUSH2 0x6C0 JUMPI JUMPDEST PUSH2 0x6B2 JUMPI POP PUSH32 0xD16EF39BB9AA303CFB433F8DB1C88AC040AFE9393441412BF5B1F0F97D0104B7 SWAP2 PUSH1 0x20 SWAP2 DUP5 DUP7 MSTORE PUSH2 0x12F DUP4 MSTORE DUP2 DUP2 DUP8 KECCAK256 SSTORE MLOAD SWAP1 DUP2 MSTORE LOG2 DUP1 RETURN JUMPDEST SWAP1 MLOAD PUSH4 0x74ABF81 PUSH1 0xE2 SHL DUP2 MSTORE REVERT JUMPDEST POP CALLER DUP6 MSTORE PUSH2 0x131 PUSH1 0x20 MSTORE PUSH1 0xFF DUP3 DUP7 KECCAK256 SLOAD AND ISZERO PUSH2 0x673 JUMP JUMPDEST POP POP CALLVALUE PUSH2 0x43D JUMPI DUP2 PUSH1 0x3 NOT CALLDATASIZE ADD SLT PUSH2 0x43D JUMPI PUSH1 0x20 PUSH32 0x62E78CEA01BEE320CD4E420270B5EA74000D11B0C9F74754EBDBFC544B05A258 SWAP2 PUSH2 0x715 PUSH2 0x15EC JUMP JUMPDEST PUSH2 0x71D PUSH2 0x15A8 JUMP JUMPDEST PUSH1 0x1 PUSH1 0xFF NOT PUSH1 0x65 SLOAD AND OR PUSH1 0x65 SSTORE MLOAD CALLER DUP2 MSTORE LOG1 DUP1 RETURN JUMPDEST POP SWAP2 CALLVALUE PUSH2 0x553 JUMPI PUSH1 0xE0 CALLDATASIZE PUSH1 0x3 NOT ADD SLT PUSH2 0x553 JUMPI PUSH2 0x74D PUSH2 0x1239 JUMP JUMPDEST SWAP1 PUSH1 0x64 CALLDATALOAD SWAP2 PUSH1 0x1 PUSH1 0x1 PUSH1 0x40 SHL SUB SWAP5 DUP6 DUP5 GT PUSH2 0x1B0 JUMPI CALLDATASIZE PUSH1 0x23 DUP6 ADD SLT ISZERO PUSH2 0x1B0 JUMPI DUP4 ADD CALLDATALOAD SWAP1 DUP6 DUP3 GT PUSH2 0x1B0 JUMPI CALLDATASIZE PUSH1 0x24 DUP4 PUSH1 0x5 SHL DUP7 ADD ADD GT PUSH2 0x1B0 JUMPI PUSH1 0x84 CALLDATALOAD SWAP3 PUSH1 0x1 PUSH1 0x1 PUSH1 0xA0 SHL SUB DUP5 AND DUP5 SUB PUSH2 0x553 JUMPI PUSH1 0xC4 CALLDATALOAD SWAP7 DUP8 AND DUP8 SUB PUSH2 0x553 JUMPI POP SWAP2 PUSH2 0x7C7 SWAP4 SWAP2 PUSH1 0x20 SWAP7 SWAP4 PUSH1 0x24 PUSH1 0xA4 CALLDATALOAD SWAP5 ADD SWAP1 PUSH1 0x44 CALLDATALOAD SWAP1 PUSH1 0x24 CALLDATALOAD SWAP1 PUSH2 0x13EB JUMP JUMPDEST SWAP1 MLOAD SWAP1 ISZERO ISZERO DUP2 MSTORE RETURN JUMPDEST DUP4 CALLVALUE PUSH2 0x553 JUMPI DUP1 PUSH1 0x3 NOT CALLDATASIZE ADD SLT PUSH2 0x553 JUMPI PUSH2 0x7E9 PUSH2 0x15EC JUMP JUMPDEST PUSH1 0xFB DUP1 SLOAD PUSH1 0x1 PUSH1 0x1 PUSH1 0xA0 SHL SUB NOT DUP2 AND SWAP1 SWAP2 SSTORE DUP2 SWAP1 PUSH1 0x1 PUSH1 0x1 PUSH1 0xA0 SHL SUB AND PUSH32 0x8BE0079C531659141344CD1FD0A4F28419497F9722A3DAAFE3B4186F6B6457E0 DUP3 DUP1 LOG3 DUP1 RETURN JUMPDEST POP CALLVALUE PUSH2 0x1B0 JUMPI PUSH1 0x20 CALLDATASIZE PUSH1 0x3 NOT ADD SLT PUSH2 0x1B0 JUMPI DUP2 PUSH1 0x20 SWAP4 PUSH1 0xFF SWAP3 CALLDATALOAD DUP2 MSTORE PUSH2 0x130 DUP6 MSTORE KECCAK256 SLOAD AND SWAP1 MLOAD SWAP1 ISZERO ISZERO DUP2 MSTORE RETURN JUMPDEST POP POP CALLVALUE PUSH2 0x43D JUMPI DUP2 PUSH1 0x3 NOT CALLDATASIZE ADD SLT PUSH2 0x43D JUMPI PUSH1 0x20 SWAP1 PUSH1 0xFF PUSH1 0x65 SLOAD AND SWAP1 MLOAD SWAP1 ISZERO ISZERO DUP2 MSTORE RETURN JUMPDEST POP POP CALLVALUE PUSH2 0x43D JUMPI DUP1 PUSH1 0x3 NOT CALLDATASIZE ADD SLT PUSH2 0x43D JUMPI PUSH2 0x898 PUSH2 0x1239 JUMP JUMPDEST SWAP1 PUSH1 0x24 CALLDATALOAD SWAP2 DUP3 ISZERO ISZERO DUP1 SWAP4 SUB PUSH2 0x8D1 JUMPI PUSH2 0x8AF PUSH2 0x15EC JUMP JUMPDEST PUSH1 0x1 DUP1 PUSH1 0xA0 SHL SUB AND DUP4 MSTORE PUSH2 0x131 PUSH1 0x20 MSTORE DUP3 KECCAK256 SWAP1 PUSH1 0xFF DUP1 NOT DUP4 SLOAD AND SWAP2 AND OR SWAP1 SSTORE DUP1 RETURN JUMPDEST DUP4 DUP1 REVERT JUMPDEST POP DUP3 CALLVALUE PUSH2 0x553 JUMPI DUP1 PUSH1 0x3 NOT CALLDATASIZE ADD SLT PUSH2 0x553 JUMPI POP PUSH32 0x0 PUSH1 0x1 PUSH1 0x1 PUSH1 0xA0 SHL SUB AND ADDRESS SUB PUSH2 0x92F JUMPI PUSH1 0x20 DUP3 MLOAD PUSH1 0x0 DUP1 MLOAD PUSH1 0x20 PUSH2 0x1852 DUP4 CODECOPY DUP2 MLOAD SWAP2 MSTORE DUP2 MSTORE RETURN JUMPDEST PUSH1 0x20 PUSH1 0x84 SWAP3 MLOAD SWAP2 PUSH3 0x461BCD PUSH1 0xE5 SHL DUP4 MSTORE DUP3 ADD MSTORE PUSH1 0x38 PUSH1 0x24 DUP3 ADD MSTORE PUSH32 0x555550535570677261646561626C653A206D757374206E6F742062652063616C PUSH1 0x44 DUP3 ADD MSTORE PUSH32 0x6C6564207468726F7567682064656C656761746563616C6C0000000000000000 PUSH1 0x64 DUP3 ADD MSTORE REVERT JUMPDEST POP SWAP1 DUP1 PUSH1 0x3 NOT CALLDATASIZE ADD SLT PUSH2 0x1B0 JUMPI PUSH2 0x9AC PUSH2 0x1239 JUMP JUMPDEST SWAP1 PUSH1 0x24 CALLDATALOAD SWAP1 PUSH1 0x1 PUSH1 0x1 PUSH1 0x40 SHL SUB DUP3 GT PUSH2 0xC93 JUMPI CALLDATASIZE PUSH1 0x23 DUP4 ADD SLT ISZERO PUSH2 0xC93 JUMPI DUP2 DUP5 ADD CALLDATALOAD PUSH2 0x9D7 DUP2 PUSH2 0x12C1 JUMP JUMPDEST PUSH2 0x9E3 DUP4 MLOAD SWAP2 DUP3 PUSH2 0x12A0 JUMP JUMPDEST DUP2 DUP2 MSTORE DUP7 PUSH1 0x20 SWAP5 DUP6 DUP4 ADD SWAP4 CALLDATASIZE PUSH1 0x24 DUP3 DUP5 ADD ADD GT PUSH2 0x1B0 JUMPI DUP1 PUSH1 0x24 DUP9 SWAP4 ADD DUP7 CALLDATACOPY DUP4 ADD ADD MSTORE PUSH1 0x1 PUSH1 0x1 PUSH1 0xA0 SHL SUB PUSH32 0x0 DUP2 AND SWAP1 PUSH2 0xA3E ADDRESS DUP4 EQ ISZERO PUSH2 0x1329 JUMP JUMPDEST PUSH2 0xA5B PUSH1 0x0 DUP1 MLOAD PUSH1 0x20 PUSH2 0x1852 DUP4 CODECOPY DUP2 MLOAD SWAP2 MSTORE SWAP3 DUP3 DUP5 SLOAD AND EQ PUSH2 0x138A JUMP JUMPDEST PUSH2 0xA63 PUSH2 0x15EC JUMP JUMPDEST PUSH32 0x4910FDFA16FED3260ED0E7147F7CC6DA11A60208B5B9406D12A635614FFD9143 SLOAD PUSH1 0xFF AND ISZERO PUSH2 0xA9D JUMPI POP POP POP POP POP POP PUSH2 0x15B SWAP2 POP PUSH2 0x16ED JUMP JUMPDEST DUP7 SWAP3 SWAP4 SWAP5 SWAP6 SWAP7 AND SWAP1 DUP6 MLOAD PUSH4 0x52D1902D PUSH1 0xE0 SHL DUP2 MSTORE DUP8 DUP2 DUP11 DUP2 DUP7 GAS STATICCALL DUP11 SWAP2 DUP2 PUSH2 0xC60 JUMPI JUMPDEST POP PUSH2 0xB1F JUMPI DUP7 MLOAD PUSH3 0x461BCD PUSH1 0xE5 SHL DUP2 MSTORE DUP1 DUP11 ADD DUP10 SWAP1 MSTORE PUSH1 0x2E PUSH1 0x24 DUP3 ADD MSTORE PUSH32 0x45524331393637557067726164653A206E657720696D706C656D656E74617469 PUSH1 0x44 DUP3 ADD MSTORE PUSH14 0x6F6E206973206E6F742055555053 PUSH1 0x90 SHL PUSH1 0x64 DUP3 ADD MSTORE PUSH1 0x84 SWAP1 REVERT JUMPDEST SWAP8 SWAP2 SWAP3 SWAP4 SWAP7 SWAP6 SWAP5 SWAP8 SUB PUSH2 0xC0B JUMPI POP PUSH2 0xB36 DUP3 PUSH2 0x16ED JUMP JUMPDEST PUSH32 0xBC7CD75A20EE27FD9ADEBAB32041F755214DBC6BFFA90CC0225B39DA2E5C2D3B DUP8 DUP1 LOG2 DUP6 DUP5 MLOAD ISZERO DUP1 ISZERO SWAP1 PUSH2 0xC03 JUMPI JUMPDEST PUSH2 0xB74 JUMPI JUMPDEST POP POP POP POP POP POP DUP1 RETURN JUMPDEST DUP1 PUSH2 0xBED SWAP7 DUP5 MLOAD SWAP7 PUSH2 0xB85 DUP9 PUSH2 0x1285 JUMP JUMPDEST PUSH1 0x27 DUP9 MSTORE PUSH32 0x416464726573733A206C6F772D6C6576656C2064656C65676174652063616C6C DUP8 DUP10 ADD MSTORE PUSH7 0x819985A5B1959 PUSH1 0xCA SHL DUP7 DUP10 ADD MSTORE MLOAD SWAP1 DUP5 GAS DELEGATECALL SWAP2 RETURNDATASIZE ISZERO PUSH2 0xBF9 JUMPI RETURNDATASIZE PUSH2 0xBDF PUSH2 0xBD6 DUP3 PUSH2 0x12C1 JUMP JUMPDEST SWAP3 MLOAD SWAP3 DUP4 PUSH2 0x12A0 JUMP JUMPDEST DUP2 MSTORE DUP7 DUP2 SWAP5 RETURNDATASIZE SWAP3 ADD RETURNDATACOPY PUSH2 0x177D JUMP JUMPDEST POP CODESIZE DUP1 DUP1 DUP1 DUP1 DUP6 PUSH2 0xB6B JUMP JUMPDEST POP PUSH1 0x60 SWAP3 POP PUSH2 0x177D JUMP JUMPDEST POP PUSH1 0x1 PUSH2 0xB66 JUMP JUMPDEST DUP4 MLOAD PUSH3 0x461BCD PUSH1 0xE5 SHL DUP2 MSTORE SWAP1 DUP2 ADD DUP6 SWAP1 MSTORE PUSH1 0x29 PUSH1 0x24 DUP3 ADD MSTORE PUSH32 0x45524331393637557067726164653A20756E737570706F727465642070726F78 PUSH1 0x44 DUP3 ADD MSTORE PUSH9 0x1A58589B1955555251 PUSH1 0xBA SHL PUSH1 0x64 DUP3 ADD MSTORE PUSH1 0x84 SWAP1 REVERT JUMPDEST SWAP1 SWAP2 POP DUP9 DUP2 DUP2 RETURNDATASIZE DUP4 GT PUSH2 0xC8C JUMPI JUMPDEST PUSH2 0xC78 DUP2 DUP4 PUSH2 0x12A0 JUMP JUMPDEST DUP2 ADD SUB SLT PUSH2 0xC88 JUMPI MLOAD SWAP1 CODESIZE PUSH2 0xAC0 JUMP JUMPDEST DUP11 DUP1 REVERT JUMPDEST POP RETURNDATASIZE PUSH2 0xC6E JUMP JUMPDEST DUP5 DUP1 REVERT JUMPDEST POP CALLVALUE PUSH2 0x1B0 JUMPI DUP3 PUSH1 0x3 NOT CALLDATASIZE ADD SLT PUSH2 0x1B0 JUMPI PUSH2 0xCB0 PUSH2 0x15EC JUMP JUMPDEST PUSH1 0x65 SLOAD SWAP1 PUSH1 0xFF DUP3 AND ISZERO PUSH2 0xCF2 JUMPI POP PUSH1 0xFF NOT AND PUSH1 0x65 SSTORE MLOAD CALLER DUP2 MSTORE PUSH32 0x5DB9EE0A495BF2E6FF9C91A7834C1BA4FDD244A5E8AA4E537BD38AEAE4B073AA SWAP1 PUSH1 0x20 SWAP1 LOG1 DUP1 RETURN JUMPDEST PUSH1 0x64 SWAP1 PUSH1 0x20 DUP5 MLOAD SWAP2 PUSH3 0x461BCD PUSH1 0xE5 SHL DUP4 MSTORE DUP3 ADD MSTORE PUSH1 0x14 PUSH1 0x24 DUP3 ADD MSTORE PUSH20 0x14185D5CD8589B194E881B9BDD081C185D5CD959 PUSH1 0x62 SHL PUSH1 0x44 DUP3 ADD MSTORE REVERT JUMPDEST POP SWAP1 CALLVALUE PUSH2 0x1B0 JUMPI DUP1 PUSH1 0x3 NOT CALLDATASIZE ADD SLT PUSH2 0x1B0 JUMPI PUSH1 0x24 CALLDATALOAD DUP4 MSTORE PUSH2 0x12D PUSH1 0x20 MSTORE DUP1 DUP4 KECCAK256 PUSH1 0x1 ADD SLOAD DUP3 CALLDATALOAD SWAP3 SWAP1 CALLER PUSH1 0x1 PUSH1 0x1 PUSH1 0xA0 SHL SUB SWAP2 DUP3 AND EQ ISZERO SWAP1 DUP2 PUSH2 0xDDB JUMPI JUMPDEST POP PUSH2 0xDCD JUMPI DUP3 DUP5 MSTORE PUSH2 0x130 SWAP1 DUP2 PUSH1 0x20 MSTORE PUSH1 0xFF DUP4 DUP7 KECCAK256 SLOAD AND PUSH2 0xDBF JUMPI POP DUP3 DUP5 MSTORE PUSH1 0x20 MSTORE DUP3 KECCAK256 DUP1 SLOAD PUSH1 0xFF NOT AND PUSH1 0x1 OR SWAP1 SSTORE PUSH32 0xBC7909D45AB794EE63122077124D9CE05BEA1DB0768BE90C77D2EDDBDF1EEF4F DUP3 DUP1 LOG2 DUP1 RETURN JUMPDEST DUP3 MLOAD PUSH4 0xF3D4F469 PUSH1 0xE0 SHL DUP2 MSTORE REVERT JUMPDEST SWAP1 MLOAD PUSH4 0x93886BB PUSH1 0xE2 SHL DUP2 MSTORE REVERT JUMPDEST SWAP1 POP PUSH1 0xFB SLOAD AND CALLER EQ ISZERO CODESIZE PUSH2 0xD69 JUMP JUMPDEST POP POP CALLVALUE PUSH2 0x43D JUMPI PUSH1 0x20 CALLDATASIZE PUSH1 0x3 NOT ADD SLT PUSH2 0x43D JUMPI PUSH1 0x20 SWAP2 PUSH1 0xFF SWAP1 DUP3 SWAP1 PUSH1 0x1 PUSH1 0x1 PUSH1 0xA0 SHL SUB PUSH2 0xE15 PUSH2 0x1239 JUMP JUMPDEST AND DUP2 MSTORE PUSH2 0x131 DUP6 MSTORE KECCAK256 SLOAD AND SWAP1 MLOAD SWAP1 ISZERO ISZERO DUP2 MSTORE RETURN JUMPDEST POP SWAP1 CALLVALUE PUSH2 0x1B0 JUMPI PUSH1 0x20 DUP1 PUSH1 0x3 NOT CALLDATASIZE ADD SLT PUSH2 0x8D1 JUMPI PUSH2 0xE45 PUSH2 0x1239 JUMP JUMPDEST SWAP2 PUSH1 0x1 PUSH1 0x1 PUSH1 0xA0 SHL SUB PUSH32 0x0 DUP2 AND PUSH2 0xE7D ADDRESS DUP3 EQ ISZERO PUSH2 0x1329 JUMP JUMPDEST PUSH2 0xE9A PUSH1 0x0 DUP1 MLOAD PUSH1 0x20 PUSH2 0x1852 DUP4 CODECOPY DUP2 MLOAD SWAP2 MSTORE SWAP2 DUP4 DUP4 SLOAD AND EQ PUSH2 0x138A JUMP JUMPDEST PUSH2 0xEA2 PUSH2 0x15EC JUMP JUMPDEST DUP3 MLOAD SWAP1 DUP5 DUP3 ADD SWAP3 DUP3 DUP5 LT PUSH1 0x1 PUSH1 0x1 PUSH1 0x40 SHL SUB DUP6 GT OR PUSH2 0x1006 JUMPI DUP4 DUP6 MSTORE DUP9 DUP4 MSTORE PUSH32 0x4910FDFA16FED3260ED0E7147F7CC6DA11A60208B5B9406D12A635614FFD9143 SLOAD PUSH1 0xFF AND ISZERO PUSH2 0xEFB JUMPI POP POP POP POP POP POP PUSH2 0x15B SWAP2 POP PUSH2 0x16ED JUMP JUMPDEST DUP7 SWAP3 SWAP4 SWAP5 SWAP6 SWAP7 AND SWAP1 DUP6 MLOAD PUSH4 0x52D1902D PUSH1 0xE0 SHL DUP2 MSTORE DUP8 DUP2 DUP11 DUP2 DUP7 GAS STATICCALL DUP11 SWAP2 DUP2 PUSH2 0xFD7 JUMPI JUMPDEST POP PUSH2 0xF7D JUMPI DUP7 MLOAD PUSH3 0x461BCD PUSH1 0xE5 SHL DUP2 MSTORE DUP1 DUP11 ADD DUP10 SWAP1 MSTORE PUSH1 0x2E PUSH1 0x24 DUP3 ADD MSTORE PUSH32 0x45524331393637557067726164653A206E657720696D706C656D656E74617469 PUSH1 0x44 DUP3 ADD MSTORE PUSH14 0x6F6E206973206E6F742055555053 PUSH1 0x90 SHL PUSH1 0x64 DUP3 ADD MSTORE PUSH1 0x84 SWAP1 REVERT JUMPDEST SWAP8 SWAP2 SWAP3 SWAP4 SWAP7 SWAP6 SWAP5 SWAP8 SUB PUSH2 0xC0B JUMPI POP PUSH2 0xF94 DUP3 PUSH2 0x16ED JUMP JUMPDEST PUSH32 0xBC7CD75A20EE27FD9ADEBAB32041F755214DBC6BFFA90CC0225B39DA2E5C2D3B DUP8 DUP1 LOG2 DUP6 DUP5 MLOAD ISZERO DUP1 ISZERO SWAP1 PUSH2 0xFD0 JUMPI PUSH2 0xB74 JUMPI POP POP POP POP POP POP DUP1 RETURN JUMPDEST POP DUP1 PUSH2 0xB66 JUMP JUMPDEST SWAP1 SWAP2 POP DUP9 DUP2 DUP2 RETURNDATASIZE DUP4 GT PUSH2 0xFFF JUMPI JUMPDEST PUSH2 0xFEF DUP2 DUP4 PUSH2 0x12A0 JUMP JUMPDEST DUP2 ADD SUB SLT PUSH2 0xC88 JUMPI MLOAD SWAP1 CODESIZE PUSH2 0xF1E JUMP JUMPDEST POP RETURNDATASIZE PUSH2 0xFE5 JUMP JUMPDEST PUSH4 0x4E487B71 PUSH1 0xE0 SHL DUP10 MSTORE PUSH1 0x41 DUP9 MSTORE PUSH1 0x24 DUP10 REVERT JUMPDEST POP SWAP2 SWAP1 CALLVALUE PUSH2 0x43D JUMPI PUSH1 0x60 CALLDATASIZE PUSH1 0x3 NOT ADD SLT PUSH2 0x43D JUMPI DUP3 CALLDATALOAD SWAP1 PUSH1 0x24 CALLDATALOAD SWAP1 PUSH1 0x1 PUSH1 0x1 PUSH1 0x40 SHL SUB SWAP1 DUP2 DUP4 GT PUSH2 0xC93 JUMPI CALLDATASIZE PUSH1 0x23 DUP5 ADD SLT ISZERO PUSH2 0xC93 JUMPI DUP3 DUP7 ADD CALLDATALOAD SWAP2 DUP1 DUP4 GT PUSH2 0x1200 JUMPI CALLDATASIZE PUSH1 0x24 DUP5 DUP7 ADD ADD GT PUSH2 0x1200 JUMPI PUSH1 0x44 CALLDATALOAD SWAP3 DUP2 DUP5 AND DUP1 SWAP5 SUB PUSH2 0x11FC JUMPI PUSH2 0x107D PUSH2 0x15A8 JUMP JUMPDEST PUSH2 0x1085 PUSH2 0x15EC JUMP JUMPDEST DUP6 DUP8 MSTORE PUSH2 0x12D SWAP5 PUSH1 0x20 SWAP2 DUP7 DUP4 MSTORE DUP4 PUSH1 0x1 DUP7 DUP12 KECCAK256 ADD SLOAD PUSH1 0xA0 SHR AND PUSH2 0x11EC JUMPI DUP1 ISZERO PUSH2 0x11DC JUMPI DUP3 DUP6 SWAP5 SWAP3 PUSH1 0x2 SWAP3 PUSH2 0x10DE PUSH9 0xFF0000000000000000 SWAP7 DUP14 SWAP10 MLOAD DUP4 DUP2 SWAP5 PUSH1 0x24 DUP5 DUP5 ADD SWAP8 ADD DUP8 CALLDATACOPY DUP2 ADD DUP12 DUP4 DUP3 ADD MSTORE SUB DUP1 DUP5 MSTORE ADD DUP3 PUSH2 0x12A0 JUMP JUMPDEST MLOAD SWAP1 KECCAK256 SWAP8 DUP6 MLOAD SWAP2 PUSH2 0x10EE DUP4 PUSH2 0x1254 JUMP JUMPDEST DUP10 DUP4 MSTORE DUP1 DUP4 ADD SWAP2 CALLER DUP4 MSTORE DUP8 DUP5 ADD SWAP2 DUP7 TIMESTAMP AND DUP4 MSTORE PUSH1 0x60 DUP6 ADD SWAP11 DUP12 MSTORE DUP13 PUSH1 0x80 DUP7 ADD SWAP11 DUP1 DUP13 MSTORE MSTORE MSTORE DUP7 DUP13 KECCAK256 SWAP3 MLOAD DUP4 SSTORE PUSH1 0x1 DUP4 ADD SWAP2 PUSH1 0x1 DUP1 PUSH1 0xA0 SHL SUB SWAP1 MLOAD AND DUP3 SLOAD SWAP2 PUSH1 0x1 PUSH1 0x1 PUSH1 0x40 SHL SUB PUSH1 0xA0 SHL SWAP1 MLOAD PUSH1 0xA0 SHL AND SWAP2 PUSH4 0xFFFFFFFF PUSH1 0xE0 SHL AND OR OR SWAP1 SSTORE ADD SWAP5 MLOAD AND SWAP2 DUP5 SLOAD SWAP4 MLOAD ISZERO ISZERO SWAP1 SHL AND SWAP2 PUSH9 0xFFFFFFFFFFFFFFFFFF NOT AND OR OR SWAP1 SSTORE PUSH2 0x12E DUP1 SLOAD SWAP1 PUSH1 0x1 PUSH1 0x40 SHL DUP3 LT ISZERO PUSH2 0x11C9 JUMPI PUSH1 0x1 DUP3 ADD SWAP1 SSTORE PUSH2 0x118B SWAP1 PUSH2 0x12DC JUMP JUMPDEST DUP2 SLOAD SWAP1 PUSH1 0x3 SHL SWAP1 DUP5 DUP3 SHL SWAP2 PUSH1 0x0 NOT SWAP1 SHL NOT AND OR SWAP1 SSTORE CALLER SWAP2 PUSH32 0xF29A7A8B7E17110FEB5338446FBFDCB1F7370015C5A13BFDF070CCBF6B5E2DFE DUP5 DUP1 LOG4 DUP1 RETURN JUMPDEST PUSH4 0x4E487B71 PUSH1 0xE0 SHL DUP6 MSTORE PUSH1 0x41 DUP7 MSTORE PUSH1 0x24 DUP6 REVERT JUMPDEST DUP5 MLOAD PUSH4 0x7315821 PUSH1 0xE5 SHL DUP2 MSTORE DUP11 SWAP1 REVERT JUMPDEST DUP5 MLOAD PUSH4 0x5B8E23B PUSH1 0xE0 SHL DUP2 MSTORE DUP11 SWAP1 REVERT JUMPDEST DUP7 DUP1 REVERT JUMPDEST DUP6 DUP1 REVERT JUMPDEST DUP5 SWAP1 DUP5 CALLVALUE PUSH2 0x1B0 JUMPI PUSH1 0x20 CALLDATASIZE PUSH1 0x3 NOT ADD SLT PUSH2 0x1B0 JUMPI PUSH1 0x20 SWAP3 PUSH1 0x1 PUSH1 0x1 PUSH1 0xA0 SHL SUB PUSH2 0x122B PUSH2 0x1239 JUMP JUMPDEST AND DUP2 MSTORE PUSH2 0x12F DUP5 MSTORE KECCAK256 SLOAD DUP2 MSTORE RETURN JUMPDEST PUSH1 0x4 CALLDATALOAD SWAP1 PUSH1 0x1 PUSH1 0x1 PUSH1 0xA0 SHL SUB DUP3 AND DUP3 SUB PUSH2 0x124F JUMPI JUMP JUMPDEST PUSH1 0x0 DUP1 REVERT JUMPDEST PUSH1 0xA0 DUP2 ADD SWAP1 DUP2 LT PUSH1 0x1 PUSH1 0x1 PUSH1 0x40 SHL SUB DUP3 GT OR PUSH2 0x126F JUMPI PUSH1 0x40 MSTORE JUMP JUMPDEST PUSH4 0x4E487B71 PUSH1 0xE0 SHL PUSH1 0x0 MSTORE PUSH1 0x41 PUSH1 0x4 MSTORE PUSH1 0x24 PUSH1 0x0 REVERT JUMPDEST PUSH1 0x60 DUP2 ADD SWAP1 DUP2 LT PUSH1 0x1 PUSH1 0x1 PUSH1 0x40 SHL SUB DUP3 GT OR PUSH2 0x126F JUMPI PUSH1 0x40 MSTORE JUMP JUMPDEST SWAP1 PUSH1 0x1F DUP1 NOT SWAP2 ADD AND DUP2 ADD SWAP1 DUP2 LT PUSH1 0x1 PUSH1 0x1 PUSH1 0x40 SHL SUB DUP3 GT OR PUSH2 0x126F JUMPI PUSH1 0x40 MSTORE JUMP JUMPDEST PUSH1 0x1 PUSH1 0x1 PUSH1 0x40 SHL SUB DUP2 GT PUSH2 0x126F JUMPI PUSH1 0x1F ADD PUSH1 0x1F NOT AND PUSH1 0x20 ADD SWAP1 JUMP JUMPDEST PUSH2 0x12E DUP1 SLOAD DUP3 LT ISZERO PUSH2 0x1313 JUMPI PUSH1 0x0 MSTORE PUSH32 0xBDAADD9F750D0166045BF387A364EADD28BA243E04512A47282AA5147A68E37F ADD SWAP1 PUSH1 0x0 SWAP1 JUMP JUMPDEST PUSH4 0x4E487B71 PUSH1 0xE0 SHL PUSH1 0x0 MSTORE PUSH1 0x32 PUSH1 0x4 MSTORE PUSH1 0x24 PUSH1 0x0 REVERT JUMPDEST ISZERO PUSH2 0x1330 JUMPI JUMP JUMPDEST PUSH1 0x40 MLOAD PUSH3 0x461BCD PUSH1 0xE5 SHL DUP2 MSTORE PUSH1 0x20 PUSH1 0x4 DUP3 ADD MSTORE PUSH1 0x2C PUSH1 0x24 DUP3 ADD MSTORE PUSH32 0x46756E6374696F6E206D7573742062652063616C6C6564207468726F75676820 PUSH1 0x44 DUP3 ADD MSTORE PUSH12 0x19195B1959D85D1958D85B1B PUSH1 0xA2 SHL PUSH1 0x64 DUP3 ADD MSTORE PUSH1 0x84 SWAP1 REVERT JUMPDEST ISZERO PUSH2 0x1391 JUMPI JUMP JUMPDEST PUSH1 0x40 MLOAD PUSH3 0x461BCD PUSH1 0xE5 SHL DUP2 MSTORE PUSH1 0x20 PUSH1 0x4 DUP3 ADD MSTORE PUSH1 0x2C PUSH1 0x24 DUP3 ADD MSTORE PUSH32 0x46756E6374696F6E206D7573742062652063616C6C6564207468726F75676820 PUSH1 0x44 DUP3 ADD MSTORE PUSH12 0x6163746976652070726F7879 PUSH1 0xA0 SHL PUSH1 0x64 DUP3 ADD MSTORE PUSH1 0x84 SWAP1 REVERT JUMPDEST SWAP7 SWAP5 SWAP2 SWAP6 SWAP1 SWAP3 SWAP6 PUSH1 0x0 SWAP2 DUP5 DUP4 MSTORE PUSH1 0x20 SWAP5 PUSH2 0x12D DUP7 MSTORE PUSH1 0x40 SWAP5 DUP6 DUP6 KECCAK256 SWAP9 PUSH1 0x2 DUP11 ADD SLOAD SWAP12 PUSH1 0xFF DUP14 DUP10 SHR AND PUSH2 0x158E JUMPI PUSH1 0x1 PUSH1 0x1 PUSH1 0x40 SHL SUB DUP1 SWAP14 AND DUP1 ISZERO ISZERO SWAP1 DUP2 PUSH2 0x159E JUMPI JUMPDEST POP PUSH2 0x158E JUMPI PUSH1 0x1 SWAP11 DUP12 ADD SLOAD PUSH1 0x1 PUSH1 0x1 PUSH1 0xA0 SHL SUB SWAP4 DUP5 AND SWAP4 SWAP2 SWAP1 DUP3 AND DUP5 SWAP1 SUB PUSH2 0x157D JUMPI SWAP1 DUP14 SWAP3 SWAP2 DUP10 MLOAD SWAP5 DUP12 DUP7 ADD SWAP7 DUP8 MSTORE DUP11 DUP7 ADD MSTORE AND SWAP5 DUP6 PUSH1 0x60 DUP6 ADD MSTORE PUSH1 0x80 DUP5 ADD MSTORE AND SWAP11 DUP12 PUSH1 0xA0 DUP4 ADD MSTORE PUSH1 0xA0 DUP3 MSTORE PUSH1 0xC0 DUP3 ADD SWAP1 DUP3 DUP3 LT SWAP1 DUP3 GT OR PUSH2 0x1569 JUMPI DUP7 MSTORE MLOAD SWAP1 KECCAK256 DUP3 SWAP1 SUB PUSH2 0x155D JUMPI DUP3 MSTORE PUSH2 0x12F DUP5 MSTORE DUP3 DUP3 KECCAK256 SLOAD SWAP8 DUP9 ISZERO PUSH2 0x155D JUMPI DUP2 DUP4 MSTORE PUSH2 0x130 DUP6 MSTORE PUSH1 0xFF DUP5 DUP5 KECCAK256 SLOAD AND PUSH2 0x155D JUMPI DUP1 ISZERO ISZERO SWAP1 DUP2 PUSH2 0x1553 JUMPI JUMPDEST POP PUSH2 0x1548 JUMPI SWAP6 SWAP5 SWAP4 SWAP3 SWAP2 SWAP1 DUP1 SWAP6 JUMPDEST DUP5 DUP8 LT PUSH2 0x14E3 JUMPI POP POP POP POP POP POP POP EQ SWAP1 JUMP JUMPDEST SWAP1 SWAP2 SWAP3 SWAP4 SWAP5 DUP7 SWAP8 DUP2 SWAP8 PUSH1 0x5 SHL DUP4 ADD CALLDATALOAD DUP1 DUP3 LT PUSH1 0x0 EQ PUSH2 0x1526 JUMPI DUP6 MLOAD SWAP1 DUP8 DUP3 ADD SWAP3 DUP4 MSTORE DUP7 DUP3 ADD MSTORE DUP6 DUP2 MSTORE PUSH2 0x1515 DUP2 PUSH2 0x1285 JUMP JUMPDEST MLOAD SWAP1 KECCAK256 JUMPDEST SWAP8 ADD SWAP6 SWAP5 SWAP4 SWAP3 SWAP2 SWAP1 PUSH2 0x14D1 JUMP JUMPDEST SWAP1 DUP6 MLOAD SWAP1 DUP8 DUP3 ADD SWAP3 DUP4 MSTORE DUP7 DUP3 ADD MSTORE DUP6 DUP2 MSTORE PUSH2 0x1540 DUP2 PUSH2 0x1285 JUMP JUMPDEST MLOAD SWAP1 KECCAK256 PUSH2 0x1519 JUMP JUMPDEST POP SWAP6 POP POP POP POP POP POP SWAP1 JUMP JUMPDEST SWAP1 POP TIMESTAMP GT CODESIZE PUSH2 0x14C3 JUMP JUMPDEST POP POP SWAP6 POP POP POP POP POP POP SWAP1 JUMP JUMPDEST PUSH4 0x4E487B71 PUSH1 0xE0 SHL DUP7 MSTORE PUSH1 0x41 PUSH1 0x4 MSTORE PUSH1 0x24 DUP7 REVERT JUMPDEST POP POP POP POP POP POP POP SWAP6 POP POP POP POP POP POP SWAP1 JUMP JUMPDEST POP POP POP POP POP POP SWAP6 POP POP POP POP POP POP SWAP1 JUMP JUMPDEST SWAP1 POP TIMESTAMP GT CODESIZE PUSH2 0x142C JUMP JUMPDEST PUSH1 0xFF PUSH1 0x65 SLOAD AND PUSH2 0x15B4 JUMPI JUMP JUMPDEST PUSH1 0x40 MLOAD PUSH3 0x461BCD PUSH1 0xE5 SHL DUP2 MSTORE PUSH1 0x20 PUSH1 0x4 DUP3 ADD MSTORE PUSH1 0x10 PUSH1 0x24 DUP3 ADD MSTORE PUSH16 0x14185D5CD8589B194E881C185D5CD959 PUSH1 0x82 SHL PUSH1 0x44 DUP3 ADD MSTORE PUSH1 0x64 SWAP1 REVERT JUMPDEST PUSH1 0xFB SLOAD PUSH1 0x1 PUSH1 0x1 PUSH1 0xA0 SHL SUB AND CALLER SUB PUSH2 0x1600 JUMPI JUMP JUMPDEST PUSH1 0x64 PUSH1 0x40 MLOAD PUSH3 0x461BCD PUSH1 0xE5 SHL DUP2 MSTORE PUSH1 0x20 PUSH1 0x4 DUP3 ADD MSTORE PUSH1 0x20 PUSH1 0x24 DUP3 ADD MSTORE PUSH32 0x4F776E61626C653A2063616C6C6572206973206E6F7420746865206F776E6572 PUSH1 0x44 DUP3 ADD MSTORE REVERT JUMPDEST PUSH1 0xFB DUP1 SLOAD PUSH1 0x1 PUSH1 0x1 PUSH1 0xA0 SHL SUB SWAP3 DUP4 AND PUSH1 0x1 PUSH1 0x1 PUSH1 0xA0 SHL SUB NOT DUP3 AND DUP2 OR SWAP1 SWAP3 SSTORE SWAP1 SWAP2 AND PUSH32 0x8BE0079C531659141344CD1FD0A4F28419497F9722A3DAAFE3B4186F6B6457E0 PUSH1 0x0 DUP1 LOG3 JUMP JUMPDEST ISZERO PUSH2 0x1694 JUMPI JUMP JUMPDEST PUSH1 0x40 MLOAD PUSH3 0x461BCD PUSH1 0xE5 SHL DUP2 MSTORE PUSH1 0x20 PUSH1 0x4 DUP3 ADD MSTORE PUSH1 0x2B PUSH1 0x24 DUP3 ADD MSTORE PUSH32 0x496E697469616C697A61626C653A20636F6E7472616374206973206E6F742069 PUSH1 0x44 DUP3 ADD MSTORE PUSH11 0x6E697469616C697A696E67 PUSH1 0xA8 SHL PUSH1 0x64 DUP3 ADD MSTORE PUSH1 0x84 SWAP1 REVERT JUMPDEST DUP1 EXTCODESIZE ISZERO PUSH2 0x1722 JUMPI PUSH1 0x0 DUP1 MLOAD PUSH1 0x20 PUSH2 0x1852 DUP4 CODECOPY DUP2 MLOAD SWAP2 MSTORE DUP1 SLOAD PUSH1 0x1 PUSH1 0x1 PUSH1 0xA0 SHL SUB NOT AND PUSH1 0x1 PUSH1 0x1 PUSH1 0xA0 SHL SUB SWAP1 SWAP3 AND SWAP2 SWAP1 SWAP2 OR SWAP1 SSTORE JUMP JUMPDEST PUSH1 0x40 MLOAD PUSH3 0x461BCD PUSH1 0xE5 SHL DUP2 MSTORE PUSH1 0x20 PUSH1 0x4 DUP3 ADD MSTORE PUSH1 0x2D PUSH1 0x24 DUP3 ADD MSTORE PUSH32 0x455243313936373A206E657720696D706C656D656E746174696F6E206973206E PUSH1 0x44 DUP3 ADD MSTORE PUSH13 0x1BDD08184818DBDB9D1C9858DD PUSH1 0x9A SHL PUSH1 0x64 DUP3 ADD MSTORE PUSH1 0x84 SWAP1 REVERT JUMPDEST SWAP2 SWAP3 SWAP1 ISZERO PUSH2 0x17DF JUMPI POP DUP2 MLOAD ISZERO PUSH2 0x1791 JUMPI POP SWAP1 JUMP JUMPDEST EXTCODESIZE ISZERO PUSH2 0x179A JUMPI SWAP1 JUMP JUMPDEST PUSH1 0x40 MLOAD PUSH3 0x461BCD PUSH1 0xE5 SHL DUP2 MSTORE PUSH1 0x20 PUSH1 0x4 DUP3 ADD MSTORE PUSH1 0x1D PUSH1 0x24 DUP3 ADD MSTORE PUSH32 0x416464726573733A2063616C6C20746F206E6F6E2D636F6E7472616374000000 PUSH1 0x44 DUP3 ADD MSTORE PUSH1 0x64 SWAP1 REVERT JUMPDEST DUP3 MLOAD SWAP1 SWAP2 POP ISZERO PUSH2 0x17F2 JUMPI POP DUP1 MLOAD SWAP1 PUSH1 0x20 ADD REVERT JUMPDEST PUSH1 0x40 MLOAD SWAP1 PUSH3 0x461BCD PUSH1 0xE5 SHL DUP3 MSTORE DUP2 PUSH1 0x20 DUP1 PUSH1 0x4 DUP4 ADD MSTORE DUP3 MLOAD SWAP1 DUP2 PUSH1 0x24 DUP5 ADD MSTORE PUSH1 0x0 SWAP4 JUMPDEST DUP3 DUP6 LT PUSH2 0x1838 JUMPI POP POP PUSH1 0x44 SWAP3 POP PUSH1 0x0 DUP4 DUP3 DUP5 ADD ADD MSTORE PUSH1 0x1F DUP1 NOT SWAP2 ADD AND DUP2 ADD SUB ADD SWAP1 REVERT JUMPDEST DUP5 DUP2 ADD DUP3 ADD MLOAD DUP7 DUP7 ADD PUSH1 0x44 ADD MSTORE SWAP4 DUP2 ADD SWAP4 DUP6 SWAP4 POP PUSH2 0x1815 JUMP INVALID CALLDATASIZE ADDMOD SWAP5 LOG1 EXTCODESIZE LOG1 LOG3 0x21 MOD PUSH8 0xC828492DB98DCA3E KECCAK256 PUSH23 0xCC3735A920A3CA505D382BBCA2646970667358221220FA 0x2B 0xE8 0x2C SWAP12 BLOCKHASH 0xF9 0x1F 0x4F PUSH14 0x3EFABFE06C672A5EB46A4D6FCCEE BLOBHASH 0xC4 PUSH10 0x180278624864736F6C63 NUMBER STOP ADDMOD XOR STOP CALLER "},"methodIdentifiers":{"capabilities(bytes32)":"c2ead131","capabilityList(uint256)":"a6e0a6ce","getCapability(bytes32)":"9cb7c5f4","getCapabilityCount()":"b036fe7e","grantRoots(address)":"1656cd7e","initialize(address)":"c4d66de8","owner()":"8da5cb5b","pause()":"8456cb59","paused()":"5c975abb","proxiableUUID()":"52d1902d","registerCapability(bytes32,string,uint64)":"24354992","renounceOwnership()":"715018a6","revokeCapability(bytes32)":"adf4d59e","revokeGrant(bytes32,bytes32)":"3a7f6cc7","revokedGrants(bytes32)":"6f4907a6","rootUpdaters(address)":"372b102d","setRootUpdater(address,bool)":"53739410","transferOwnership(address)":"f2fde38b","unpause()":"3f4ba83a","updateGrantRoot(address,bytes32)":"88a8baf9","upgradeTo(address)":"3659cfe6","upgradeToAndCall(address,bytes)":"4f1ef286","verifyCapability(address,bytes32,bytes32,bytes32[],address,bytes32,uint64)":"7b23648a"}}}}}