{"src/DelegationManager.sol":{"DelegationManager":{"abi":[{"inputs":[],"stateMutability":"nonpayable","type":"constructor"},{"inputs":[],"name":"AlreadyRevokedDelegation","type":"error"},{"inputs":[],"name":"EmptyChain","type":"error"},{"inputs":[],"name":"NotAuthorizedForDelegation","type":"error"},{"anonymous":false,"inputs":[{"indexed":false,"internalType":"address","name":"previousAdmin","type":"address"},{"indexed":false,"internalType":"address","name":"newAdmin","type":"address"}],"name":"AdminChanged","type":"event"},{"anonymous":false,"inputs":[{"indexed":true,"internalType":"address","name":"beacon","type":"address"}],"name":"BeaconUpgraded","type":"event"},{"anonymous":false,"inputs":[{"indexed":true,"internalType":"bytes32","name":"delegationLeafHash","type":"bytes32"}],"name":"DelegationRevoked","type":"event"},{"anonymous":false,"inputs":[{"indexed":true,"internalType":"address","name":"delegator","type":"address"},{"indexed":false,"internalType":"bytes32","name":"newRoot","type":"bytes32"}],"name":"DelegationRootUpdated","type":"event"},{"anonymous":false,"inputs":[{"indexed":false,"internalType":"uint8","name":"version","type":"uint8"}],"name":"Initialized","type":"event"},{"anonymous":false,"inputs":[{"indexed":true,"internalType":"address","name":"previousOwner","type":"address"},{"indexed":true,"internalType":"address","name":"newOwner","type":"address"}],"name":"OwnershipTransferred","type":"event"},{"anonymous":false,"inputs":[{"indexed":false,"internalType":"address","name":"account","type":"address"}],"name":"Paused","type":"event"},{"anonymous":false,"inputs":[{"indexed":false,"internalType":"address","name":"account","type":"address"}],"name":"Unpaused","type":"event"},{"anonymous":false,"inputs":[{"indexed":true,"internalType":"address","name":"implementation","type":"address"}],"name":"Upgraded","type":"event"},{"inputs":[{"internalType":"address","name":"","type":"address"}],"name":"delegationRoots","outputs":[{"internalType":"bytes32","name":"","type":"bytes32"}],"stateMutability":"view","type":"function"},{"inputs":[{"internalType":"address","name":"delegator","type":"address"}],"name":"getDelegationRoot","outputs":[{"internalType":"bytes32","name":"","type":"bytes32"}],"stateMutability":"view","type":"function"},{"inputs":[{"internalType":"address","name":"owner_","type":"address"}],"name":"initialize","outputs":[],"stateMutability":"nonpayable","type":"function"},{"inputs":[],"name":"owner","outputs":[{"internalType":"address","name":"","type":"address"}],"stateMutability":"view","type":"function"},{"inputs":[],"name":"pause","outputs":[],"stateMutability":"nonpayable","type":"function"},{"inputs":[],"name":"paused","outputs":[{"internalType":"bool","name":"","type":"bool"}],"stateMutability":"view","type":"function"},{"inputs":[],"name":"proxiableUUID","outputs":[{"internalType":"bytes32","name":"","type":"bytes32"}],"stateMutability":"view","type":"function"},{"inputs":[],"name":"renounceOwnership","outputs":[],"stateMutability":"nonpayable","type":"function"},{"inputs":[{"internalType":"bytes32","name":"delegationLeafHash","type":"bytes32"},{"internalType":"address","name":"delegator","type":"address"}],"name":"revokeDelegation","outputs":[],"stateMutability":"nonpayable","type":"function"},{"inputs":[{"internalType":"bytes32","name":"","type":"bytes32"}],"name":"revokedDelegations","outputs":[{"internalType":"bool","name":"","type":"bool"}],"stateMutability":"view","type":"function"},{"inputs":[{"internalType":"address","name":"","type":"address"}],"name":"rootUpdaters","outputs":[{"internalType":"bool","name":"","type":"bool"}],"stateMutability":"view","type":"function"},{"inputs":[{"internalType":"address","name":"updater","type":"address"},{"internalType":"bool","name":"allowed","type":"bool"}],"name":"setRootUpdater","outputs":[],"stateMutability":"nonpayable","type":"function"},{"inputs":[{"internalType":"address","name":"newOwner","type":"address"}],"name":"transferOwnership","outputs":[],"stateMutability":"nonpayable","type":"function"},{"inputs":[],"name":"unpause","outputs":[],"stateMutability":"nonpayable","type":"function"},{"inputs":[{"internalType":"address","name":"delegator","type":"address"},{"internalType":"bytes32","name":"newRoot","type":"bytes32"}],"name":"updateDelegationRoot","outputs":[],"stateMutability":"nonpayable","type":"function"},{"inputs":[{"internalType":"address","name":"newImplementation","type":"address"}],"name":"upgradeTo","outputs":[],"stateMutability":"nonpayable","type":"function"},{"inputs":[{"internalType":"address","name":"newImplementation","type":"address"},{"internalType":"bytes","name":"data","type":"bytes"}],"name":"upgradeToAndCall","outputs":[],"stateMutability":"payable","type":"function"},{"inputs":[{"internalType":"bytes32","name":"delegationLeaf","type":"bytes32"},{"internalType":"bytes32[]","name":"merkleProof","type":"bytes32[]"},{"internalType":"address","name":"delegator","type":"address"},{"internalType":"bytes32","name":"scopeHash","type":"bytes32"},{"internalType":"uint64","name":"expiresAt","type":"uint64"},{"internalType":"uint8","name":"maxDepth","type":"uint8"}],"name":"verifyDelegation","outputs":[{"internalType":"bool","name":"","type":"bool"}],"stateMutability":"view","type":"function"},{"inputs":[{"internalType":"bytes32[]","name":"delegationLeaves","type":"bytes32[]"},{"internalType":"bytes32[][]","name":"merkleProofs","type":"bytes32[][]"},{"internalType":"address[]","name":"delegators","type":"address[]"},{"internalType":"address[]","name":"delegates","type":"address[]"},{"internalType":"bytes32[]","name":"scopeHashes","type":"bytes32[]"},{"internalType":"uint64[]","name":"expiries","type":"uint64[]"},{"internalType":"uint8[]","name":"maxDepths","type":"uint8[]"}],"name":"verifyDelegationChain","outputs":[{"internalType":"bool","name":"","type":"bool"}],"stateMutability":"view","type":"function"},{"inputs":[{"internalType":"bytes32","name":"delegationLeaf","type":"bytes32"},{"internalType":"bytes32[]","name":"merkleProof","type":"bytes32[]"},{"internalType":"address","name":"delegator","type":"address"},{"internalType":"string","name":"action","type":"string"},{"internalType":"uint64","name":"expiresAt","type":"uint64"},{"internalType":"uint8","name":"maxDepth","type":"uint8"}],"name":"verifyDelegationForAction","outputs":[{"internalType":"bool","name":"","type":"bool"}],"stateMutability":"view","type":"function"}],"evm":{"bytecode":{"linkReferences":{},"object":"60a080604052346100dc57306080526000549060ff8260081c1661008a575060ff8082160361004f575b6040516118cb90816100e2823960805181818161081d015281816109430152610cf60152f35b60ff90811916176000557f7f26b83ff96e1f2b6a682f133852f6798a09c465da95921460cefb3847402498602060405160ff8152a138610029565b62461bcd60e51b815260206004820152602760248201527f496e697469616c697a61626c653a20636f6e747261637420697320696e697469604482015266616c697a696e6760c81b6064820152608490fd5b600080fdfe6080604081815260048036101561001557600080fd5b600092833560e01c9081631422050114610eec57508063232acf5e14610ebf5780632d9fa06f14610bc25780633659cfe614610ccf578063372b102d14610c905780633f4ba83a14610bfb5780634bf04c7314610bc25780634f1ef286146108ca57806352d1902d1461080857806353739410146107b15780635c975abb1461078d578063715018a6146107305780638456cb591461069d5780638da5cb5b1461067057806396f16c171461057e578063afa6a1cf14610519578063be2ca9d01461045f578063c4d66de81461025d578063f2fde38b146101cc5763f53da7cd146100ff57600080fd5b346101c85760c03660031901126101c8576001600160401b03906024358281116101c457610130903690830161103c565b61013b929192610f9e565b906064358581116101c057366023820112156101c057808401359586116101c05736602487830101116101c0579160209793916101b796959361017c61106c565b956101ab8b610189611082565b998c519381859260248585019801883782019083820152038084520182611000565b519020933393356113fa565b90519015158152f35b8780fd5b8480fd5b8280fd5b50346101c85760203660031901126101c8576101e6610f83565b916101ef611359565b6001600160a01b0383161561020b5783610208846113b1565b80f35b906020608492519162461bcd60e51b8352820152602660248201527f4f776e61626c653a206e6577206f776e657220697320746865207a65726f206160448201526564647265737360d01b6064820152fd5b50346101c85760203660031901126101c857610277610f83565b83549160ff8360081c161592838094610452575b801561043b575b156103e15760ff19808216600117875561030c91856103d0575b506102c660ff885460081c166102c1816116b1565b6116b1565b6102cf336113b1565b60ff875460081c16906102e1826116b1565b6102ea826116b1565b600180556102f7826116b1565b610300826116b1565b606554166065556116b1565b6001600160a01b03821633810361035f575b505050610329575080f35b60207f7f26b83ff96e1f2b6a682f133852f6798a09c465da95921460cefb38474024989161ff001984541684555160018152a180f35b610367611359565b1561037e5750610376906113b1565b38808061031e565b608490602085519162461bcd60e51b8352820152602660248201527f4f776e61626c653a206e6577206f776e657220697320746865207a65726f206160448201526564647265737360d01b6064820152fd5b61ffff1916610101178755386102ac565b845162461bcd60e51b8152602081840152602e60248201527f496e697469616c697a61626c653a20636f6e747261637420697320616c72656160448201526d191e481a5b9a5d1a585b1a5e995960921b6064820152608490fd5b50303b1580156102925750600160ff821614610292565b50600160ff82161061028b565b5090346101c857806003193601126101c8578135916001600160a01b0360243581811690819003610515573314159081610506575b506104f85782845261012e908160205260ff83862054166104ea57508284526020528220805460ff191660011790557f6eb24ce38eb0f7d1e3b4291d5543c7286f02be3daed061b0f7eb6491213deb218280a280f35b8251635f7e390160e01b8152fd5b9051634c89e43b60e01b8152fd5b905060fb541633141538610494565b8580fd5b50913461057b5760c036600319011261057b57602435906001600160401b03821161057b57506020926105526101b7923690830161103c565b919061055c610f9e565b9161056561106c565b9261056e611082565b94606435933393356113fa565b80fd5b50346101c85760e03660031901126101c8576001600160401b0381358181116101c4576105ae903690840161103c565b9490926024358381116101c8576105c8903690830161103c565b6044929192358581116101c4576105e2903690840161103c565b60649291923587811161066c576105fc903690860161103c565b93909260843589811161066857610616903690880161103c565b97909660a4358b811161066457610630903690830161103c565b9b909a60c43591821161057b57509161065c60209f9c9a989694926101b79e9c9a98969436910161103c565b9c909b61118e565b8a80fd5b8880fd5b8680fd5b50503461069957816003193601126106995760fb5490516001600160a01b039091168152602090f35b5080fd5b50346101c857826003193601126101c8576106b6611359565b6065549060ff82166106fa575060ff1916600117606555513381527f62e78cea01bee320cd4e420270b5ea74000d11b0c9f74754ebdbfc544b05a25890602090a180f35b606490602084519162461bcd60e51b8352820152601060248201526f14185d5cd8589b194e881c185d5cd95960821b6044820152fd5b833461057b578060031936011261057b57610749611359565b60fb80546001600160a01b0319811690915581906001600160a01b03167f8be0079c531659141344cd1fd0a4f28419497f9722a3daafe3b4186f6b6457e08280a380f35b50503461069957816003193601126106995760209060ff6065541690519015158152f35b5050346106995780600319360112610699576107cb610f83565b9060243591821515809303610804576107e2611359565b60018060a01b0316835261012f60205282209060ff8019835416911617905580f35b8380fd5b50823461057b578060031936011261057b57507f00000000000000000000000000000000000000000000000000000000000000006001600160a01b0316300361086257602082516000805160206118768339815191528152f35b6020608492519162461bcd60e51b8352820152603860248201527f555550535570677261646561626c653a206d757374206e6f742062652063616c60448201527f6c6564207468726f7567682064656c656761746563616c6c00000000000000006064820152fd5b5090806003193601126101c8576108df610f83565b90602435906001600160401b0382116101c457366023830112156101c4578184013561090a81611021565b61091683519182611000565b818152866020948583019336602482840101116101c8578060248893018637830101526001600160a01b037f000000000000000000000000000000000000000000000000000000000000000081169061097130831415611092565b61098e6000805160206118768339815191529282845416146110f3565b610996611359565b7f4910fdfa16fed3260ed0e7147f7cc6da11a60208b5b9406d12a635614ffd91435460ff16156109d0575050505050506102089150611711565b869293949596169085516352d1902d60e01b815287818a81865afa8a9181610b93575b50610a5257865162461bcd60e51b8152808a01899052602e60248201527f45524331393637557067726164653a206e657720696d706c656d656e7461746960448201526d6f6e206973206e6f74205555505360901b6064820152608490fd5b979192939695949703610b3e5750610a6982611711565b7fbc7cd75a20ee27fd9adebab32041f755214dbc6bffa90cc0225b39da2e5c2d3b8780a285845115801590610b36575b610aa7575b50505050505080f35b80610b2096845196610ab888610fb4565b602788527f416464726573733a206c6f772d6c6576656c2064656c65676174652063616c6c87890152660819985a5b195960ca1b868901525190845af4913d15610b2c573d610b12610b0982611021565b92519283611000565b81528681943d92013e6117a1565b50388080808085610a9e565b50606092506117a1565b506001610a99565b835162461bcd60e51b8152908101859052602960248201527f45524331393637557067726164653a20756e737570706f727465642070726f786044820152681a58589b195555525160ba1b6064820152608490fd5b9091508881813d8311610bbb575b610bab8183611000565b81010312610664575190386109f3565b503d610ba1565b5050346106995760203660031901126106995760209181906001600160a01b03610bea610f83565b16815261012d845220549051908152f35b50346101c857826003193601126101c857610c14611359565b6065549060ff821615610c56575060ff1916606555513381527f5db9ee0a495bf2e6ff9c91a7834c1ba4fdd244a5e8aa4e537bd38aeae4b073aa90602090a180f35b606490602084519162461bcd60e51b8352820152601460248201527314185d5cd8589b194e881b9bdd081c185d5cd95960621b6044820152fd5b5050346106995760203660031901126106995760209160ff9082906001600160a01b03610cbb610f83565b16815261012f855220541690519015158152f35b5090346101c85760208060031936011261080457610ceb610f83565b916001600160a01b037f00000000000000000000000000000000000000000000000000000000000000008116610d2330821415611092565b610d406000805160206118768339815191529183835416146110f3565b610d48611359565b825190848201928284106001600160401b03851117610eac578385528883527f4910fdfa16fed3260ed0e7147f7cc6da11a60208b5b9406d12a635614ffd91435460ff1615610da1575050505050506102089150611711565b869293949596169085516352d1902d60e01b815287818a81865afa8a9181610e7d575b50610e2357865162461bcd60e51b8152808a01899052602e60248201527f45524331393637557067726164653a206e657720696d706c656d656e7461746960448201526d6f6e206973206e6f74205555505360901b6064820152608490fd5b979192939695949703610b3e5750610e3a82611711565b7fbc7cd75a20ee27fd9adebab32041f755214dbc6bffa90cc0225b39da2e5c2d3b8780a285845115801590610e7657610aa75750505050505080f35b5080610a99565b9091508881813d8311610ea5575b610e958183611000565b8101031261066457519038610dc4565b503d610e8b565b634e487b7160e01b895260418852602489fd5b50346101c85760203660031901126101c8578160209360ff9235815261012e855220541690519015158152f35b92905034610804578060031936011261080457610f07610f83565b6001600160a01b03169260243592903385141580610f6c575b610f605750507feda38b4c19d200d522d6cafb61691a66a8d392081e10536a96529fe56ce5269c9160209184865261012d8352818187205551908152a280f35b634c89e43b60e01b8152fd5b5033865261012f60205260ff838720541615610f20565b600435906001600160a01b0382168203610f9957565b600080fd5b604435906001600160a01b0382168203610f9957565b606081019081106001600160401b03821117610fcf57604052565b634e487b7160e01b600052604160045260246000fd5b60c081019081106001600160401b03821117610fcf57604052565b90601f801991011681019081106001600160401b03821117610fcf57604052565b6001600160401b038111610fcf57601f01601f191660200190565b9181601f84011215610f99578235916001600160401b038311610f99576020808501948460051b010111610f9957565b608435906001600160401b0382168203610f9957565b60a4359060ff82168203610f9957565b1561109957565b60405162461bcd60e51b815260206004820152602c60248201527f46756e6374696f6e206d7573742062652063616c6c6564207468726f7567682060448201526b19195b1959d85d1958d85b1b60a21b6064820152608490fd5b156110fa57565b60405162461bcd60e51b815260206004820152602c60248201527f46756e6374696f6e206d7573742062652063616c6c6564207468726f7567682060448201526b6163746976652070726f787960a01b6064820152608490fd5b91908110156111645760051b0190565b634e487b7160e01b600052603260045260246000fd5b356001600160a01b0381168103610f995790565b9296989599939b9c909c9a949a9791978d15611347576000978e5b89106111c357505050505050505050505050505050600190565b6000198f018f811161131a578f908a8e8e92821460001461133057506111ed915033925b88611154565b35828b1015611164578f8f928c918e600593841b81013590601e1990360301811215610f99578f01918235956001600160401b0393848811610f99576020889101951b36038513610f99578f8f908f8f95828f959461125b611256836112689861126196611154565b61117a565b96611154565b3595611154565b359384168403610f99578f9661127f888c8c611154565b359560ff8088168803610f995760018a01809a1161131a576112a2991697611558565b156112c6578d8915158a8f826112da575b505090506112c65760018f9901986111a9565b505050505050505050505050505050600090565b61125692506112e893611154565b6000198a018a811161131a578d61130c6112568f9360018060a01b03948594611154565b16911614158e908a8f6112b3565b634e487b7160e01b600052601160045260246000fd5b611256826111ed9461134193611154565b926111e7565b604051630b1bc1e560e21b8152600490fd5b60fb546001600160a01b0316330361136d57565b606460405162461bcd60e51b815260206004820152602060248201527f4f776e61626c653a2063616c6c6572206973206e6f7420746865206f776e65726044820152fd5b60fb80546001600160a01b039283166001600160a01b0319821681179092559091167f8be0079c531659141344cd1fd0a4f28419497f9722a3daafe3b4186f6b6457e0600080a3565b6001600160a01b03938416600081815261012d60209081526040808320549b969a979995989197909692959192908c1561153f5785875261012e60205260ff888820541661153f576001600160401b0316908115158061154f575b61153f5760ff169160019a8360011161152e578851602081019687529416848901526060840152608083015260a080830191909152815282919061149881610fe5565b519020036115235795949392919080955b8087106114bb57505050505050501490565b909192939486976114ce82988489611154565b358082101561150157855190878201928352868201528581526114f081610fb4565b5190205b97019594939291906114a9565b908551908782019283528682015285815261151b81610fb4565b5190206114f4565b509550505050505090565b505050505050509550505050505090565b5050505050509550505050505090565b50428210611455565b91969095979394929460018060a01b038096169160009483865260209761012d602052604097888820549c8d156116975787895261012e60205260ff8a8a205416611697576001600160401b031693841515806116a8575b6116975760ff90811694939291168410611687578851602081019687529416848901526060840152608083015260a08083019190915281528291906115f481610fe5565b5190200361167d57949392919080945b808610611615575050505050501490565b909192939495600190611629888489611154565b358082101561165b578551908782019283528682015285815261164b81610fb4565b5190205b96019493929190611604565b908551908782019283528682015285815261167581610fb4565b51902061164f565b5094505050505090565b5050505050505094505050505090565b505050505050505094505050505090565b504285106115b0565b156116b857565b60405162461bcd60e51b815260206004820152602b60248201527f496e697469616c697a61626c653a20636f6e7472616374206973206e6f74206960448201526a6e697469616c697a696e6760a81b6064820152608490fd5b803b156117465760008051602061187683398151915280546001600160a01b0319166001600160a01b03909216919091179055565b60405162461bcd60e51b815260206004820152602d60248201527f455243313936373a206e657720696d706c656d656e746174696f6e206973206e60448201526c1bdd08184818dbdb9d1c9858dd609a1b6064820152608490fd5b9192901561180357508151156117b5575090565b3b156117be5790565b60405162461bcd60e51b815260206004820152601d60248201527f416464726573733a2063616c6c20746f206e6f6e2d636f6e74726163740000006044820152606490fd5b8251909150156118165750805190602001fd5b6040519062461bcd60e51b82528160208060048301528251908160248401526000935b82851061185c575050604492506000838284010152601f80199101168101030190fd5b848101820151868601604401529381019385935061183956fe360894a13ba1a3210667c828492db98dca3e2076cc3735a920a3ca505d382bbca2646970667358221220289566abac419da3f7ad219eba355217d0c8d1e531631350f5ac426d495dec9064736f6c63430008180033","opcodes":"PUSH1 0xA0 DUP1 PUSH1 0x40 MSTORE CALLVALUE PUSH2 0xDC JUMPI ADDRESS PUSH1 0x80 MSTORE PUSH1 0x0 SLOAD SWAP1 PUSH1 0xFF DUP3 PUSH1 0x8 SHR AND PUSH2 0x8A JUMPI POP PUSH1 0xFF DUP1 DUP3 AND SUB PUSH2 0x4F JUMPI JUMPDEST PUSH1 0x40 MLOAD PUSH2 0x18CB SWAP1 DUP2 PUSH2 0xE2 DUP3 CODECOPY PUSH1 0x80 MLOAD DUP2 DUP2 DUP2 PUSH2 0x81D ADD MSTORE DUP2 DUP2 PUSH2 0x943 ADD MSTORE PUSH2 0xCF6 ADD MSTORE RETURN JUMPDEST PUSH1 0xFF SWAP1 DUP2 NOT AND OR PUSH1 0x0 SSTORE PUSH32 0x7F26B83FF96E1F2B6A682F133852F6798A09C465DA95921460CEFB3847402498 PUSH1 0x20 PUSH1 0x40 MLOAD PUSH1 0xFF DUP2 MSTORE LOG1 CODESIZE PUSH2 0x29 JUMP JUMPDEST PUSH3 0x461BCD PUSH1 0xE5 SHL DUP2 MSTORE PUSH1 0x20 PUSH1 0x4 DUP3 ADD MSTORE PUSH1 0x27 PUSH1 0x24 DUP3 ADD MSTORE PUSH32 0x496E697469616C697A61626C653A20636F6E747261637420697320696E697469 PUSH1 0x44 DUP3 ADD MSTORE PUSH7 0x616C697A696E67 PUSH1 0xC8 SHL PUSH1 0x64 DUP3 ADD MSTORE PUSH1 0x84 SWAP1 REVERT JUMPDEST PUSH1 0x0 DUP1 REVERT INVALID PUSH1 0x80 PUSH1 0x40 DUP2 DUP2 MSTORE PUSH1 0x4 DUP1 CALLDATASIZE LT ISZERO PUSH2 0x15 JUMPI PUSH1 0x0 DUP1 REVERT JUMPDEST PUSH1 0x0 SWAP3 DUP4 CALLDATALOAD PUSH1 0xE0 SHR SWAP1 DUP2 PUSH4 0x14220501 EQ PUSH2 0xEEC JUMPI POP DUP1 PUSH4 0x232ACF5E EQ PUSH2 0xEBF JUMPI DUP1 PUSH4 0x2D9FA06F EQ PUSH2 0xBC2 JUMPI DUP1 PUSH4 0x3659CFE6 EQ PUSH2 0xCCF JUMPI DUP1 PUSH4 0x372B102D EQ PUSH2 0xC90 JUMPI DUP1 PUSH4 0x3F4BA83A EQ PUSH2 0xBFB JUMPI DUP1 PUSH4 0x4BF04C73 EQ PUSH2 0xBC2 JUMPI DUP1 PUSH4 0x4F1EF286 EQ PUSH2 0x8CA JUMPI DUP1 PUSH4 0x52D1902D EQ PUSH2 0x808 JUMPI DUP1 PUSH4 0x53739410 EQ PUSH2 0x7B1 JUMPI DUP1 PUSH4 0x5C975ABB EQ PUSH2 0x78D JUMPI DUP1 PUSH4 0x715018A6 EQ PUSH2 0x730 JUMPI DUP1 PUSH4 0x8456CB59 EQ PUSH2 0x69D JUMPI DUP1 PUSH4 0x8DA5CB5B EQ PUSH2 0x670 JUMPI DUP1 PUSH4 0x96F16C17 EQ PUSH2 0x57E JUMPI DUP1 PUSH4 0xAFA6A1CF EQ PUSH2 0x519 JUMPI DUP1 PUSH4 0xBE2CA9D0 EQ PUSH2 0x45F JUMPI DUP1 PUSH4 0xC4D66DE8 EQ PUSH2 0x25D JUMPI DUP1 PUSH4 0xF2FDE38B EQ PUSH2 0x1CC JUMPI PUSH4 0xF53DA7CD EQ PUSH2 0xFF JUMPI PUSH1 0x0 DUP1 REVERT JUMPDEST CALLVALUE PUSH2 0x1C8 JUMPI PUSH1 0xC0 CALLDATASIZE PUSH1 0x3 NOT ADD SLT PUSH2 0x1C8 JUMPI PUSH1 0x1 PUSH1 0x1 PUSH1 0x40 SHL SUB SWAP1 PUSH1 0x24 CALLDATALOAD DUP3 DUP2 GT PUSH2 0x1C4 JUMPI PUSH2 0x130 SWAP1 CALLDATASIZE SWAP1 DUP4 ADD PUSH2 0x103C JUMP JUMPDEST PUSH2 0x13B SWAP3 SWAP2 SWAP3 PUSH2 0xF9E JUMP JUMPDEST SWAP1 PUSH1 0x64 CALLDATALOAD DUP6 DUP2 GT PUSH2 0x1C0 JUMPI CALLDATASIZE PUSH1 0x23 DUP3 ADD SLT ISZERO PUSH2 0x1C0 JUMPI DUP1 DUP5 ADD CALLDATALOAD SWAP6 DUP7 GT PUSH2 0x1C0 JUMPI CALLDATASIZE PUSH1 0x24 DUP8 DUP4 ADD ADD GT PUSH2 0x1C0 JUMPI SWAP2 PUSH1 0x20 SWAP8 SWAP4 SWAP2 PUSH2 0x1B7 SWAP7 SWAP6 SWAP4 PUSH2 0x17C PUSH2 0x106C JUMP JUMPDEST SWAP6 PUSH2 0x1AB DUP12 PUSH2 0x189 PUSH2 0x1082 JUMP JUMPDEST SWAP10 DUP13 MLOAD SWAP4 DUP2 DUP6 SWAP3 PUSH1 0x24 DUP6 DUP6 ADD SWAP9 ADD DUP9 CALLDATACOPY DUP3 ADD SWAP1 DUP4 DUP3 ADD MSTORE SUB DUP1 DUP5 MSTORE ADD DUP3 PUSH2 0x1000 JUMP JUMPDEST MLOAD SWAP1 KECCAK256 SWAP4 CALLER SWAP4 CALLDATALOAD PUSH2 0x13FA JUMP JUMPDEST SWAP1 MLOAD SWAP1 ISZERO ISZERO DUP2 MSTORE RETURN JUMPDEST DUP8 DUP1 REVERT JUMPDEST DUP5 DUP1 REVERT JUMPDEST DUP3 DUP1 REVERT JUMPDEST POP CALLVALUE PUSH2 0x1C8 JUMPI PUSH1 0x20 CALLDATASIZE PUSH1 0x3 NOT ADD SLT PUSH2 0x1C8 JUMPI PUSH2 0x1E6 PUSH2 0xF83 JUMP JUMPDEST SWAP2 PUSH2 0x1EF PUSH2 0x1359 JUMP JUMPDEST PUSH1 0x1 PUSH1 0x1 PUSH1 0xA0 SHL SUB DUP4 AND ISZERO PUSH2 0x20B JUMPI DUP4 PUSH2 0x208 DUP5 PUSH2 0x13B1 JUMP JUMPDEST DUP1 RETURN JUMPDEST SWAP1 PUSH1 0x20 PUSH1 0x84 SWAP3 MLOAD SWAP2 PUSH3 0x461BCD PUSH1 0xE5 SHL DUP4 MSTORE DUP3 ADD MSTORE PUSH1 0x26 PUSH1 0x24 DUP3 ADD MSTORE PUSH32 0x4F776E61626C653A206E6577206F776E657220697320746865207A65726F2061 PUSH1 0x44 DUP3 ADD MSTORE PUSH6 0x646472657373 PUSH1 0xD0 SHL PUSH1 0x64 DUP3 ADD MSTORE REVERT JUMPDEST POP CALLVALUE PUSH2 0x1C8 JUMPI PUSH1 0x20 CALLDATASIZE PUSH1 0x3 NOT ADD SLT PUSH2 0x1C8 JUMPI PUSH2 0x277 PUSH2 0xF83 JUMP JUMPDEST DUP4 SLOAD SWAP2 PUSH1 0xFF DUP4 PUSH1 0x8 SHR AND ISZERO SWAP3 DUP4 DUP1 SWAP5 PUSH2 0x452 JUMPI JUMPDEST DUP1 ISZERO PUSH2 0x43B JUMPI JUMPDEST ISZERO PUSH2 0x3E1 JUMPI PUSH1 0xFF NOT DUP1 DUP3 AND PUSH1 0x1 OR DUP8 SSTORE PUSH2 0x30C SWAP2 DUP6 PUSH2 0x3D0 JUMPI JUMPDEST POP PUSH2 0x2C6 PUSH1 0xFF DUP9 SLOAD PUSH1 0x8 SHR AND PUSH2 0x2C1 DUP2 PUSH2 0x16B1 JUMP JUMPDEST PUSH2 0x16B1 JUMP JUMPDEST PUSH2 0x2CF CALLER PUSH2 0x13B1 JUMP JUMPDEST PUSH1 0xFF DUP8 SLOAD PUSH1 0x8 SHR AND SWAP1 PUSH2 0x2E1 DUP3 PUSH2 0x16B1 JUMP JUMPDEST PUSH2 0x2EA DUP3 PUSH2 0x16B1 JUMP JUMPDEST PUSH1 0x1 DUP1 SSTORE PUSH2 0x2F7 DUP3 PUSH2 0x16B1 JUMP JUMPDEST PUSH2 0x300 DUP3 PUSH2 0x16B1 JUMP JUMPDEST PUSH1 0x65 SLOAD AND PUSH1 0x65 SSTORE PUSH2 0x16B1 JUMP JUMPDEST PUSH1 0x1 PUSH1 0x1 PUSH1 0xA0 SHL SUB DUP3 AND CALLER DUP2 SUB PUSH2 0x35F JUMPI JUMPDEST POP POP POP PUSH2 0x329 JUMPI POP DUP1 RETURN JUMPDEST PUSH1 0x20 PUSH32 0x7F26B83FF96E1F2B6A682F133852F6798A09C465DA95921460CEFB3847402498 SWAP2 PUSH2 0xFF00 NOT DUP5 SLOAD AND DUP5 SSTORE MLOAD PUSH1 0x1 DUP2 MSTORE LOG1 DUP1 RETURN JUMPDEST PUSH2 0x367 PUSH2 0x1359 JUMP JUMPDEST ISZERO PUSH2 0x37E JUMPI POP PUSH2 0x376 SWAP1 PUSH2 0x13B1 JUMP JUMPDEST CODESIZE DUP1 DUP1 PUSH2 0x31E JUMP JUMPDEST PUSH1 0x84 SWAP1 PUSH1 0x20 DUP6 MLOAD SWAP2 PUSH3 0x461BCD PUSH1 0xE5 SHL DUP4 MSTORE DUP3 ADD MSTORE PUSH1 0x26 PUSH1 0x24 DUP3 ADD MSTORE PUSH32 0x4F776E61626C653A206E6577206F776E657220697320746865207A65726F2061 PUSH1 0x44 DUP3 ADD MSTORE PUSH6 0x646472657373 PUSH1 0xD0 SHL PUSH1 0x64 DUP3 ADD MSTORE REVERT JUMPDEST PUSH2 0xFFFF NOT AND PUSH2 0x101 OR DUP8 SSTORE CODESIZE PUSH2 0x2AC JUMP JUMPDEST DUP5 MLOAD PUSH3 0x461BCD PUSH1 0xE5 SHL DUP2 MSTORE PUSH1 0x20 DUP2 DUP5 ADD MSTORE PUSH1 0x2E PUSH1 0x24 DUP3 ADD MSTORE PUSH32 0x496E697469616C697A61626C653A20636F6E747261637420697320616C726561 PUSH1 0x44 DUP3 ADD MSTORE PUSH14 0x191E481A5B9A5D1A585B1A5E9959 PUSH1 0x92 SHL PUSH1 0x64 DUP3 ADD MSTORE PUSH1 0x84 SWAP1 REVERT JUMPDEST POP ADDRESS EXTCODESIZE ISZERO DUP1 ISZERO PUSH2 0x292 JUMPI POP PUSH1 0x1 PUSH1 0xFF DUP3 AND EQ PUSH2 0x292 JUMP JUMPDEST POP PUSH1 0x1 PUSH1 0xFF DUP3 AND LT PUSH2 0x28B JUMP JUMPDEST POP SWAP1 CALLVALUE PUSH2 0x1C8 JUMPI DUP1 PUSH1 0x3 NOT CALLDATASIZE ADD SLT PUSH2 0x1C8 JUMPI DUP2 CALLDATALOAD SWAP2 PUSH1 0x1 PUSH1 0x1 PUSH1 0xA0 SHL SUB PUSH1 0x24 CALLDATALOAD DUP2 DUP2 AND SWAP1 DUP2 SWAP1 SUB PUSH2 0x515 JUMPI CALLER EQ ISZERO SWAP1 DUP2 PUSH2 0x506 JUMPI JUMPDEST POP PUSH2 0x4F8 JUMPI DUP3 DUP5 MSTORE PUSH2 0x12E SWAP1 DUP2 PUSH1 0x20 MSTORE PUSH1 0xFF DUP4 DUP7 KECCAK256 SLOAD AND PUSH2 0x4EA JUMPI POP DUP3 DUP5 MSTORE PUSH1 0x20 MSTORE DUP3 KECCAK256 DUP1 SLOAD PUSH1 0xFF NOT AND PUSH1 0x1 OR SWAP1 SSTORE PUSH32 0x6EB24CE38EB0F7D1E3B4291D5543C7286F02BE3DAED061B0F7EB6491213DEB21 DUP3 DUP1 LOG2 DUP1 RETURN JUMPDEST DUP3 MLOAD PUSH4 0x5F7E3901 PUSH1 0xE0 SHL DUP2 MSTORE REVERT JUMPDEST SWAP1 MLOAD PUSH4 0x4C89E43B PUSH1 0xE0 SHL DUP2 MSTORE REVERT JUMPDEST SWAP1 POP PUSH1 0xFB SLOAD AND CALLER EQ ISZERO CODESIZE PUSH2 0x494 JUMP JUMPDEST DUP6 DUP1 REVERT JUMPDEST POP SWAP2 CALLVALUE PUSH2 0x57B JUMPI PUSH1 0xC0 CALLDATASIZE PUSH1 0x3 NOT ADD SLT PUSH2 0x57B JUMPI PUSH1 0x24 CALLDATALOAD SWAP1 PUSH1 0x1 PUSH1 0x1 PUSH1 0x40 SHL SUB DUP3 GT PUSH2 0x57B JUMPI POP PUSH1 0x20 SWAP3 PUSH2 0x552 PUSH2 0x1B7 SWAP3 CALLDATASIZE SWAP1 DUP4 ADD PUSH2 0x103C JUMP JUMPDEST SWAP2 SWAP1 PUSH2 0x55C PUSH2 0xF9E JUMP JUMPDEST SWAP2 PUSH2 0x565 PUSH2 0x106C JUMP JUMPDEST SWAP3 PUSH2 0x56E PUSH2 0x1082 JUMP JUMPDEST SWAP5 PUSH1 0x64 CALLDATALOAD SWAP4 CALLER SWAP4 CALLDATALOAD PUSH2 0x13FA JUMP JUMPDEST DUP1 REVERT JUMPDEST POP CALLVALUE PUSH2 0x1C8 JUMPI PUSH1 0xE0 CALLDATASIZE PUSH1 0x3 NOT ADD SLT PUSH2 0x1C8 JUMPI PUSH1 0x1 PUSH1 0x1 PUSH1 0x40 SHL SUB DUP2 CALLDATALOAD DUP2 DUP2 GT PUSH2 0x1C4 JUMPI PUSH2 0x5AE SWAP1 CALLDATASIZE SWAP1 DUP5 ADD PUSH2 0x103C JUMP JUMPDEST SWAP5 SWAP1 SWAP3 PUSH1 0x24 CALLDATALOAD DUP4 DUP2 GT PUSH2 0x1C8 JUMPI PUSH2 0x5C8 SWAP1 CALLDATASIZE SWAP1 DUP4 ADD PUSH2 0x103C JUMP JUMPDEST PUSH1 0x44 SWAP3 SWAP2 SWAP3 CALLDATALOAD DUP6 DUP2 GT PUSH2 0x1C4 JUMPI PUSH2 0x5E2 SWAP1 CALLDATASIZE SWAP1 DUP5 ADD PUSH2 0x103C JUMP JUMPDEST PUSH1 0x64 SWAP3 SWAP2 SWAP3 CALLDATALOAD DUP8 DUP2 GT PUSH2 0x66C JUMPI PUSH2 0x5FC SWAP1 CALLDATASIZE SWAP1 DUP7 ADD PUSH2 0x103C JUMP JUMPDEST SWAP4 SWAP1 SWAP3 PUSH1 0x84 CALLDATALOAD DUP10 DUP2 GT PUSH2 0x668 JUMPI PUSH2 0x616 SWAP1 CALLDATASIZE SWAP1 DUP9 ADD PUSH2 0x103C JUMP JUMPDEST SWAP8 SWAP1 SWAP7 PUSH1 0xA4 CALLDATALOAD DUP12 DUP2 GT PUSH2 0x664 JUMPI PUSH2 0x630 SWAP1 CALLDATASIZE SWAP1 DUP4 ADD PUSH2 0x103C JUMP JUMPDEST SWAP12 SWAP1 SWAP11 PUSH1 0xC4 CALLDATALOAD SWAP2 DUP3 GT PUSH2 0x57B JUMPI POP SWAP2 PUSH2 0x65C PUSH1 0x20 SWAP16 SWAP13 SWAP11 SWAP9 SWAP7 SWAP5 SWAP3 PUSH2 0x1B7 SWAP15 SWAP13 SWAP11 SWAP9 SWAP7 SWAP5 CALLDATASIZE SWAP2 ADD PUSH2 0x103C JUMP JUMPDEST SWAP13 SWAP1 SWAP12 PUSH2 0x118E JUMP JUMPDEST DUP11 DUP1 REVERT JUMPDEST DUP9 DUP1 REVERT JUMPDEST DUP7 DUP1 REVERT JUMPDEST POP POP CALLVALUE PUSH2 0x699 JUMPI DUP2 PUSH1 0x3 NOT CALLDATASIZE ADD SLT PUSH2 0x699 JUMPI PUSH1 0xFB SLOAD SWAP1 MLOAD PUSH1 0x1 PUSH1 0x1 PUSH1 0xA0 SHL SUB SWAP1 SWAP2 AND DUP2 MSTORE PUSH1 0x20 SWAP1 RETURN JUMPDEST POP DUP1 REVERT JUMPDEST POP CALLVALUE PUSH2 0x1C8 JUMPI DUP3 PUSH1 0x3 NOT CALLDATASIZE ADD SLT PUSH2 0x1C8 JUMPI PUSH2 0x6B6 PUSH2 0x1359 JUMP JUMPDEST PUSH1 0x65 SLOAD SWAP1 PUSH1 0xFF DUP3 AND PUSH2 0x6FA JUMPI POP PUSH1 0xFF NOT AND PUSH1 0x1 OR PUSH1 0x65 SSTORE MLOAD CALLER DUP2 MSTORE PUSH32 0x62E78CEA01BEE320CD4E420270B5EA74000D11B0C9F74754EBDBFC544B05A258 SWAP1 PUSH1 0x20 SWAP1 LOG1 DUP1 RETURN JUMPDEST PUSH1 0x64 SWAP1 PUSH1 0x20 DUP5 MLOAD SWAP2 PUSH3 0x461BCD PUSH1 0xE5 SHL DUP4 MSTORE DUP3 ADD MSTORE PUSH1 0x10 PUSH1 0x24 DUP3 ADD MSTORE PUSH16 0x14185D5CD8589B194E881C185D5CD959 PUSH1 0x82 SHL PUSH1 0x44 DUP3 ADD MSTORE REVERT JUMPDEST DUP4 CALLVALUE PUSH2 0x57B JUMPI DUP1 PUSH1 0x3 NOT CALLDATASIZE ADD SLT PUSH2 0x57B JUMPI PUSH2 0x749 PUSH2 0x1359 JUMP JUMPDEST PUSH1 0xFB DUP1 SLOAD PUSH1 0x1 PUSH1 0x1 PUSH1 0xA0 SHL SUB NOT DUP2 AND SWAP1 SWAP2 SSTORE DUP2 SWAP1 PUSH1 0x1 PUSH1 0x1 PUSH1 0xA0 SHL SUB AND PUSH32 0x8BE0079C531659141344CD1FD0A4F28419497F9722A3DAAFE3B4186F6B6457E0 DUP3 DUP1 LOG3 DUP1 RETURN JUMPDEST POP POP CALLVALUE PUSH2 0x699 JUMPI DUP2 PUSH1 0x3 NOT CALLDATASIZE ADD SLT PUSH2 0x699 JUMPI PUSH1 0x20 SWAP1 PUSH1 0xFF PUSH1 0x65 SLOAD AND SWAP1 MLOAD SWAP1 ISZERO ISZERO DUP2 MSTORE RETURN JUMPDEST POP POP CALLVALUE PUSH2 0x699 JUMPI DUP1 PUSH1 0x3 NOT CALLDATASIZE ADD SLT PUSH2 0x699 JUMPI PUSH2 0x7CB PUSH2 0xF83 JUMP JUMPDEST SWAP1 PUSH1 0x24 CALLDATALOAD SWAP2 DUP3 ISZERO ISZERO DUP1 SWAP4 SUB PUSH2 0x804 JUMPI PUSH2 0x7E2 PUSH2 0x1359 JUMP JUMPDEST PUSH1 0x1 DUP1 PUSH1 0xA0 SHL SUB AND DUP4 MSTORE PUSH2 0x12F PUSH1 0x20 MSTORE DUP3 KECCAK256 SWAP1 PUSH1 0xFF DUP1 NOT DUP4 SLOAD AND SWAP2 AND OR SWAP1 SSTORE DUP1 RETURN JUMPDEST DUP4 DUP1 REVERT JUMPDEST POP DUP3 CALLVALUE PUSH2 0x57B JUMPI DUP1 PUSH1 0x3 NOT CALLDATASIZE ADD SLT PUSH2 0x57B JUMPI POP PUSH32 0x0 PUSH1 0x1 PUSH1 0x1 PUSH1 0xA0 SHL SUB AND ADDRESS SUB PUSH2 0x862 JUMPI PUSH1 0x20 DUP3 MLOAD PUSH1 0x0 DUP1 MLOAD PUSH1 0x20 PUSH2 0x1876 DUP4 CODECOPY DUP2 MLOAD SWAP2 MSTORE DUP2 MSTORE RETURN JUMPDEST PUSH1 0x20 PUSH1 0x84 SWAP3 MLOAD SWAP2 PUSH3 0x461BCD PUSH1 0xE5 SHL DUP4 MSTORE DUP3 ADD MSTORE PUSH1 0x38 PUSH1 0x24 DUP3 ADD MSTORE PUSH32 0x555550535570677261646561626C653A206D757374206E6F742062652063616C PUSH1 0x44 DUP3 ADD MSTORE PUSH32 0x6C6564207468726F7567682064656C656761746563616C6C0000000000000000 PUSH1 0x64 DUP3 ADD MSTORE REVERT JUMPDEST POP SWAP1 DUP1 PUSH1 0x3 NOT CALLDATASIZE ADD SLT PUSH2 0x1C8 JUMPI PUSH2 0x8DF PUSH2 0xF83 JUMP JUMPDEST SWAP1 PUSH1 0x24 CALLDATALOAD SWAP1 PUSH1 0x1 PUSH1 0x1 PUSH1 0x40 SHL SUB DUP3 GT PUSH2 0x1C4 JUMPI CALLDATASIZE PUSH1 0x23 DUP4 ADD SLT ISZERO PUSH2 0x1C4 JUMPI DUP2 DUP5 ADD CALLDATALOAD PUSH2 0x90A DUP2 PUSH2 0x1021 JUMP JUMPDEST PUSH2 0x916 DUP4 MLOAD SWAP2 DUP3 PUSH2 0x1000 JUMP JUMPDEST DUP2 DUP2 MSTORE DUP7 PUSH1 0x20 SWAP5 DUP6 DUP4 ADD SWAP4 CALLDATASIZE PUSH1 0x24 DUP3 DUP5 ADD ADD GT PUSH2 0x1C8 JUMPI DUP1 PUSH1 0x24 DUP9 SWAP4 ADD DUP7 CALLDATACOPY DUP4 ADD ADD MSTORE PUSH1 0x1 PUSH1 0x1 PUSH1 0xA0 SHL SUB PUSH32 0x0 DUP2 AND SWAP1 PUSH2 0x971 ADDRESS DUP4 EQ ISZERO PUSH2 0x1092 JUMP JUMPDEST PUSH2 0x98E PUSH1 0x0 DUP1 MLOAD PUSH1 0x20 PUSH2 0x1876 DUP4 CODECOPY DUP2 MLOAD SWAP2 MSTORE SWAP3 DUP3 DUP5 SLOAD AND EQ PUSH2 0x10F3 JUMP JUMPDEST PUSH2 0x996 PUSH2 0x1359 JUMP JUMPDEST PUSH32 0x4910FDFA16FED3260ED0E7147F7CC6DA11A60208B5B9406D12A635614FFD9143 SLOAD PUSH1 0xFF AND ISZERO PUSH2 0x9D0 JUMPI POP POP POP POP POP POP PUSH2 0x208 SWAP2 POP PUSH2 0x1711 JUMP JUMPDEST DUP7 SWAP3 SWAP4 SWAP5 SWAP6 SWAP7 AND SWAP1 DUP6 MLOAD PUSH4 0x52D1902D PUSH1 0xE0 SHL DUP2 MSTORE DUP8 DUP2 DUP11 DUP2 DUP7 GAS STATICCALL DUP11 SWAP2 DUP2 PUSH2 0xB93 JUMPI JUMPDEST POP PUSH2 0xA52 JUMPI DUP7 MLOAD PUSH3 0x461BCD PUSH1 0xE5 SHL DUP2 MSTORE DUP1 DUP11 ADD DUP10 SWAP1 MSTORE PUSH1 0x2E PUSH1 0x24 DUP3 ADD MSTORE PUSH32 0x45524331393637557067726164653A206E657720696D706C656D656E74617469 PUSH1 0x44 DUP3 ADD MSTORE PUSH14 0x6F6E206973206E6F742055555053 PUSH1 0x90 SHL PUSH1 0x64 DUP3 ADD MSTORE PUSH1 0x84 SWAP1 REVERT JUMPDEST SWAP8 SWAP2 SWAP3 SWAP4 SWAP7 SWAP6 SWAP5 SWAP8 SUB PUSH2 0xB3E JUMPI POP PUSH2 0xA69 DUP3 PUSH2 0x1711 JUMP JUMPDEST PUSH32 0xBC7CD75A20EE27FD9ADEBAB32041F755214DBC6BFFA90CC0225B39DA2E5C2D3B DUP8 DUP1 LOG2 DUP6 DUP5 MLOAD ISZERO DUP1 ISZERO SWAP1 PUSH2 0xB36 JUMPI JUMPDEST PUSH2 0xAA7 JUMPI JUMPDEST POP POP POP POP POP POP DUP1 RETURN JUMPDEST DUP1 PUSH2 0xB20 SWAP7 DUP5 MLOAD SWAP7 PUSH2 0xAB8 DUP9 PUSH2 0xFB4 JUMP JUMPDEST PUSH1 0x27 DUP9 MSTORE PUSH32 0x416464726573733A206C6F772D6C6576656C2064656C65676174652063616C6C DUP8 DUP10 ADD MSTORE PUSH7 0x819985A5B1959 PUSH1 0xCA SHL DUP7 DUP10 ADD MSTORE MLOAD SWAP1 DUP5 GAS DELEGATECALL SWAP2 RETURNDATASIZE ISZERO PUSH2 0xB2C JUMPI RETURNDATASIZE PUSH2 0xB12 PUSH2 0xB09 DUP3 PUSH2 0x1021 JUMP JUMPDEST SWAP3 MLOAD SWAP3 DUP4 PUSH2 0x1000 JUMP JUMPDEST DUP2 MSTORE DUP7 DUP2 SWAP5 RETURNDATASIZE SWAP3 ADD RETURNDATACOPY PUSH2 0x17A1 JUMP JUMPDEST POP CODESIZE DUP1 DUP1 DUP1 DUP1 DUP6 PUSH2 0xA9E JUMP JUMPDEST POP PUSH1 0x60 SWAP3 POP PUSH2 0x17A1 JUMP JUMPDEST POP PUSH1 0x1 PUSH2 0xA99 JUMP JUMPDEST DUP4 MLOAD PUSH3 0x461BCD PUSH1 0xE5 SHL DUP2 MSTORE SWAP1 DUP2 ADD DUP6 SWAP1 MSTORE PUSH1 0x29 PUSH1 0x24 DUP3 ADD MSTORE PUSH32 0x45524331393637557067726164653A20756E737570706F727465642070726F78 PUSH1 0x44 DUP3 ADD MSTORE PUSH9 0x1A58589B1955555251 PUSH1 0xBA SHL PUSH1 0x64 DUP3 ADD MSTORE PUSH1 0x84 SWAP1 REVERT JUMPDEST SWAP1 SWAP2 POP DUP9 DUP2 DUP2 RETURNDATASIZE DUP4 GT PUSH2 0xBBB JUMPI JUMPDEST PUSH2 0xBAB DUP2 DUP4 PUSH2 0x1000 JUMP JUMPDEST DUP2 ADD SUB SLT PUSH2 0x664 JUMPI MLOAD SWAP1 CODESIZE PUSH2 0x9F3 JUMP JUMPDEST POP RETURNDATASIZE PUSH2 0xBA1 JUMP JUMPDEST POP POP CALLVALUE PUSH2 0x699 JUMPI PUSH1 0x20 CALLDATASIZE PUSH1 0x3 NOT ADD SLT PUSH2 0x699 JUMPI PUSH1 0x20 SWAP2 DUP2 SWAP1 PUSH1 0x1 PUSH1 0x1 PUSH1 0xA0 SHL SUB PUSH2 0xBEA PUSH2 0xF83 JUMP JUMPDEST AND DUP2 MSTORE PUSH2 0x12D DUP5 MSTORE KECCAK256 SLOAD SWAP1 MLOAD SWAP1 DUP2 MSTORE RETURN JUMPDEST POP CALLVALUE PUSH2 0x1C8 JUMPI DUP3 PUSH1 0x3 NOT CALLDATASIZE ADD SLT PUSH2 0x1C8 JUMPI PUSH2 0xC14 PUSH2 0x1359 JUMP JUMPDEST PUSH1 0x65 SLOAD SWAP1 PUSH1 0xFF DUP3 AND ISZERO PUSH2 0xC56 JUMPI POP PUSH1 0xFF NOT AND PUSH1 0x65 SSTORE MLOAD CALLER DUP2 MSTORE PUSH32 0x5DB9EE0A495BF2E6FF9C91A7834C1BA4FDD244A5E8AA4E537BD38AEAE4B073AA SWAP1 PUSH1 0x20 SWAP1 LOG1 DUP1 RETURN JUMPDEST PUSH1 0x64 SWAP1 PUSH1 0x20 DUP5 MLOAD SWAP2 PUSH3 0x461BCD PUSH1 0xE5 SHL DUP4 MSTORE DUP3 ADD MSTORE PUSH1 0x14 PUSH1 0x24 DUP3 ADD MSTORE PUSH20 0x14185D5CD8589B194E881B9BDD081C185D5CD959 PUSH1 0x62 SHL PUSH1 0x44 DUP3 ADD MSTORE REVERT JUMPDEST POP POP CALLVALUE PUSH2 0x699 JUMPI PUSH1 0x20 CALLDATASIZE PUSH1 0x3 NOT ADD SLT PUSH2 0x699 JUMPI PUSH1 0x20 SWAP2 PUSH1 0xFF SWAP1 DUP3 SWAP1 PUSH1 0x1 PUSH1 0x1 PUSH1 0xA0 SHL SUB PUSH2 0xCBB PUSH2 0xF83 JUMP JUMPDEST AND DUP2 MSTORE PUSH2 0x12F DUP6 MSTORE KECCAK256 SLOAD AND SWAP1 MLOAD SWAP1 ISZERO ISZERO DUP2 MSTORE RETURN JUMPDEST POP SWAP1 CALLVALUE PUSH2 0x1C8 JUMPI PUSH1 0x20 DUP1 PUSH1 0x3 NOT CALLDATASIZE ADD SLT PUSH2 0x804 JUMPI PUSH2 0xCEB PUSH2 0xF83 JUMP JUMPDEST SWAP2 PUSH1 0x1 PUSH1 0x1 PUSH1 0xA0 SHL SUB PUSH32 0x0 DUP2 AND PUSH2 0xD23 ADDRESS DUP3 EQ ISZERO PUSH2 0x1092 JUMP JUMPDEST PUSH2 0xD40 PUSH1 0x0 DUP1 MLOAD PUSH1 0x20 PUSH2 0x1876 DUP4 CODECOPY DUP2 MLOAD SWAP2 MSTORE SWAP2 DUP4 DUP4 SLOAD AND EQ PUSH2 0x10F3 JUMP JUMPDEST PUSH2 0xD48 PUSH2 0x1359 JUMP JUMPDEST DUP3 MLOAD SWAP1 DUP5 DUP3 ADD SWAP3 DUP3 DUP5 LT PUSH1 0x1 PUSH1 0x1 PUSH1 0x40 SHL SUB DUP6 GT OR PUSH2 0xEAC JUMPI DUP4 DUP6 MSTORE DUP9 DUP4 MSTORE PUSH32 0x4910FDFA16FED3260ED0E7147F7CC6DA11A60208B5B9406D12A635614FFD9143 SLOAD PUSH1 0xFF AND ISZERO PUSH2 0xDA1 JUMPI POP POP POP POP POP POP PUSH2 0x208 SWAP2 POP PUSH2 0x1711 JUMP JUMPDEST DUP7 SWAP3 SWAP4 SWAP5 SWAP6 SWAP7 AND SWAP1 DUP6 MLOAD PUSH4 0x52D1902D PUSH1 0xE0 SHL DUP2 MSTORE DUP8 DUP2 DUP11 DUP2 DUP7 GAS STATICCALL DUP11 SWAP2 DUP2 PUSH2 0xE7D JUMPI JUMPDEST POP PUSH2 0xE23 JUMPI DUP7 MLOAD PUSH3 0x461BCD PUSH1 0xE5 SHL DUP2 MSTORE DUP1 DUP11 ADD DUP10 SWAP1 MSTORE PUSH1 0x2E PUSH1 0x24 DUP3 ADD MSTORE PUSH32 0x45524331393637557067726164653A206E657720696D706C656D656E74617469 PUSH1 0x44 DUP3 ADD MSTORE PUSH14 0x6F6E206973206E6F742055555053 PUSH1 0x90 SHL PUSH1 0x64 DUP3 ADD MSTORE PUSH1 0x84 SWAP1 REVERT JUMPDEST SWAP8 SWAP2 SWAP3 SWAP4 SWAP7 SWAP6 SWAP5 SWAP8 SUB PUSH2 0xB3E JUMPI POP PUSH2 0xE3A DUP3 PUSH2 0x1711 JUMP JUMPDEST PUSH32 0xBC7CD75A20EE27FD9ADEBAB32041F755214DBC6BFFA90CC0225B39DA2E5C2D3B DUP8 DUP1 LOG2 DUP6 DUP5 MLOAD ISZERO DUP1 ISZERO SWAP1 PUSH2 0xE76 JUMPI PUSH2 0xAA7 JUMPI POP POP POP POP POP POP DUP1 RETURN JUMPDEST POP DUP1 PUSH2 0xA99 JUMP JUMPDEST SWAP1 SWAP2 POP DUP9 DUP2 DUP2 RETURNDATASIZE DUP4 GT PUSH2 0xEA5 JUMPI JUMPDEST PUSH2 0xE95 DUP2 DUP4 PUSH2 0x1000 JUMP JUMPDEST DUP2 ADD SUB SLT PUSH2 0x664 JUMPI MLOAD SWAP1 CODESIZE PUSH2 0xDC4 JUMP JUMPDEST POP RETURNDATASIZE PUSH2 0xE8B JUMP JUMPDEST PUSH4 0x4E487B71 PUSH1 0xE0 SHL DUP10 MSTORE PUSH1 0x41 DUP9 MSTORE PUSH1 0x24 DUP10 REVERT JUMPDEST POP CALLVALUE PUSH2 0x1C8 JUMPI PUSH1 0x20 CALLDATASIZE PUSH1 0x3 NOT ADD SLT PUSH2 0x1C8 JUMPI DUP2 PUSH1 0x20 SWAP4 PUSH1 0xFF SWAP3 CALLDATALOAD DUP2 MSTORE PUSH2 0x12E DUP6 MSTORE KECCAK256 SLOAD AND SWAP1 MLOAD SWAP1 ISZERO ISZERO DUP2 MSTORE RETURN JUMPDEST SWAP3 SWAP1 POP CALLVALUE PUSH2 0x804 JUMPI DUP1 PUSH1 0x3 NOT CALLDATASIZE ADD SLT PUSH2 0x804 JUMPI PUSH2 0xF07 PUSH2 0xF83 JUMP JUMPDEST PUSH1 0x1 PUSH1 0x1 PUSH1 0xA0 SHL SUB AND SWAP3 PUSH1 0x24 CALLDATALOAD SWAP3 SWAP1 CALLER DUP6 EQ ISZERO DUP1 PUSH2 0xF6C JUMPI JUMPDEST PUSH2 0xF60 JUMPI POP POP PUSH32 0xEDA38B4C19D200D522D6CAFB61691A66A8D392081E10536A96529FE56CE5269C SWAP2 PUSH1 0x20 SWAP2 DUP5 DUP7 MSTORE PUSH2 0x12D DUP4 MSTORE DUP2 DUP2 DUP8 KECCAK256 SSTORE MLOAD SWAP1 DUP2 MSTORE LOG2 DUP1 RETURN JUMPDEST PUSH4 0x4C89E43B PUSH1 0xE0 SHL DUP2 MSTORE REVERT JUMPDEST POP CALLER DUP7 MSTORE PUSH2 0x12F PUSH1 0x20 MSTORE PUSH1 0xFF DUP4 DUP8 KECCAK256 SLOAD AND ISZERO PUSH2 0xF20 JUMP JUMPDEST PUSH1 0x4 CALLDATALOAD SWAP1 PUSH1 0x1 PUSH1 0x1 PUSH1 0xA0 SHL SUB DUP3 AND DUP3 SUB PUSH2 0xF99 JUMPI JUMP JUMPDEST PUSH1 0x0 DUP1 REVERT JUMPDEST PUSH1 0x44 CALLDATALOAD SWAP1 PUSH1 0x1 PUSH1 0x1 PUSH1 0xA0 SHL SUB DUP3 AND DUP3 SUB PUSH2 0xF99 JUMPI JUMP JUMPDEST PUSH1 0x60 DUP2 ADD SWAP1 DUP2 LT PUSH1 0x1 PUSH1 0x1 PUSH1 0x40 SHL SUB DUP3 GT OR PUSH2 0xFCF JUMPI PUSH1 0x40 MSTORE JUMP JUMPDEST PUSH4 0x4E487B71 PUSH1 0xE0 SHL PUSH1 0x0 MSTORE PUSH1 0x41 PUSH1 0x4 MSTORE PUSH1 0x24 PUSH1 0x0 REVERT JUMPDEST PUSH1 0xC0 DUP2 ADD SWAP1 DUP2 LT PUSH1 0x1 PUSH1 0x1 PUSH1 0x40 SHL SUB DUP3 GT OR PUSH2 0xFCF JUMPI PUSH1 0x40 MSTORE JUMP JUMPDEST SWAP1 PUSH1 0x1F DUP1 NOT SWAP2 ADD AND DUP2 ADD SWAP1 DUP2 LT PUSH1 0x1 PUSH1 0x1 PUSH1 0x40 SHL SUB DUP3 GT OR PUSH2 0xFCF JUMPI PUSH1 0x40 MSTORE JUMP JUMPDEST PUSH1 0x1 PUSH1 0x1 PUSH1 0x40 SHL SUB DUP2 GT PUSH2 0xFCF JUMPI PUSH1 0x1F ADD PUSH1 0x1F NOT AND PUSH1 0x20 ADD SWAP1 JUMP JUMPDEST SWAP2 DUP2 PUSH1 0x1F DUP5 ADD SLT ISZERO PUSH2 0xF99 JUMPI DUP3 CALLDATALOAD SWAP2 PUSH1 0x1 PUSH1 0x1 PUSH1 0x40 SHL SUB DUP4 GT PUSH2 0xF99 JUMPI PUSH1 0x20 DUP1 DUP6 ADD SWAP5 DUP5 PUSH1 0x5 SHL ADD ADD GT PUSH2 0xF99 JUMPI JUMP JUMPDEST PUSH1 0x84 CALLDATALOAD SWAP1 PUSH1 0x1 PUSH1 0x1 PUSH1 0x40 SHL SUB DUP3 AND DUP3 SUB PUSH2 0xF99 JUMPI JUMP JUMPDEST PUSH1 0xA4 CALLDATALOAD SWAP1 PUSH1 0xFF DUP3 AND DUP3 SUB PUSH2 0xF99 JUMPI JUMP JUMPDEST ISZERO PUSH2 0x1099 JUMPI JUMP JUMPDEST PUSH1 0x40 MLOAD PUSH3 0x461BCD PUSH1 0xE5 SHL DUP2 MSTORE PUSH1 0x20 PUSH1 0x4 DUP3 ADD MSTORE PUSH1 0x2C PUSH1 0x24 DUP3 ADD MSTORE PUSH32 0x46756E6374696F6E206D7573742062652063616C6C6564207468726F75676820 PUSH1 0x44 DUP3 ADD MSTORE PUSH12 0x19195B1959D85D1958D85B1B PUSH1 0xA2 SHL PUSH1 0x64 DUP3 ADD MSTORE PUSH1 0x84 SWAP1 REVERT JUMPDEST ISZERO PUSH2 0x10FA JUMPI JUMP JUMPDEST PUSH1 0x40 MLOAD PUSH3 0x461BCD PUSH1 0xE5 SHL DUP2 MSTORE PUSH1 0x20 PUSH1 0x4 DUP3 ADD MSTORE PUSH1 0x2C PUSH1 0x24 DUP3 ADD MSTORE PUSH32 0x46756E6374696F6E206D7573742062652063616C6C6564207468726F75676820 PUSH1 0x44 DUP3 ADD MSTORE PUSH12 0x6163746976652070726F7879 PUSH1 0xA0 SHL PUSH1 0x64 DUP3 ADD MSTORE PUSH1 0x84 SWAP1 REVERT JUMPDEST SWAP2 SWAP1 DUP2 LT ISZERO PUSH2 0x1164 JUMPI PUSH1 0x5 SHL ADD SWAP1 JUMP JUMPDEST PUSH4 0x4E487B71 PUSH1 0xE0 SHL PUSH1 0x0 MSTORE PUSH1 0x32 PUSH1 0x4 MSTORE PUSH1 0x24 PUSH1 0x0 REVERT JUMPDEST CALLDATALOAD PUSH1 0x1 PUSH1 0x1 PUSH1 0xA0 SHL SUB DUP2 AND DUP2 SUB PUSH2 0xF99 JUMPI SWAP1 JUMP JUMPDEST SWAP3 SWAP7 SWAP9 SWAP6 SWAP10 SWAP4 SWAP12 SWAP13 SWAP1 SWAP13 SWAP11 SWAP5 SWAP11 SWAP8 SWAP2 SWAP8 DUP14 ISZERO PUSH2 0x1347 JUMPI PUSH1 0x0 SWAP8 DUP15 JUMPDEST DUP10 LT PUSH2 0x11C3 JUMPI POP POP POP POP POP POP POP POP POP POP POP POP POP POP POP PUSH1 0x1 SWAP1 JUMP JUMPDEST PUSH1 0x0 NOT DUP16 ADD DUP16 DUP2 GT PUSH2 0x131A JUMPI DUP16 SWAP1 DUP11 DUP15 DUP15 SWAP3 DUP3 EQ PUSH1 0x0 EQ PUSH2 0x1330 JUMPI POP PUSH2 0x11ED SWAP2 POP CALLER SWAP3 JUMPDEST DUP9 PUSH2 0x1154 JUMP JUMPDEST CALLDATALOAD DUP3 DUP12 LT ISZERO PUSH2 0x1164 JUMPI DUP16 DUP16 SWAP3 DUP13 SWAP2 DUP15 PUSH1 0x5 SWAP4 DUP5 SHL DUP2 ADD CALLDATALOAD SWAP1 PUSH1 0x1E NOT SWAP1 CALLDATASIZE SUB ADD DUP2 SLT ISZERO PUSH2 0xF99 JUMPI DUP16 ADD SWAP2 DUP3 CALLDATALOAD SWAP6 PUSH1 0x1 PUSH1 0x1 PUSH1 0x40 SHL SUB SWAP4 DUP5 DUP9 GT PUSH2 0xF99 JUMPI PUSH1 0x20 DUP9 SWAP2 ADD SWAP6 SHL CALLDATASIZE SUB DUP6 SGT PUSH2 0xF99 JUMPI DUP16 DUP16 SWAP1 DUP16 DUP16 SWAP6 DUP3 DUP16 SWAP6 SWAP5 PUSH2 0x125B PUSH2 0x1256 DUP4 PUSH2 0x1268 SWAP9 PUSH2 0x1261 SWAP7 PUSH2 0x1154 JUMP JUMPDEST PUSH2 0x117A JUMP JUMPDEST SWAP7 PUSH2 0x1154 JUMP JUMPDEST CALLDATALOAD SWAP6 PUSH2 0x1154 JUMP JUMPDEST CALLDATALOAD SWAP4 DUP5 AND DUP5 SUB PUSH2 0xF99 JUMPI DUP16 SWAP7 PUSH2 0x127F DUP9 DUP13 DUP13 PUSH2 0x1154 JUMP JUMPDEST CALLDATALOAD SWAP6 PUSH1 0xFF DUP1 DUP9 AND DUP9 SUB PUSH2 0xF99 JUMPI PUSH1 0x1 DUP11 ADD DUP1 SWAP11 GT PUSH2 0x131A JUMPI PUSH2 0x12A2 SWAP10 AND SWAP8 PUSH2 0x1558 JUMP JUMPDEST ISZERO PUSH2 0x12C6 JUMPI DUP14 DUP10 ISZERO ISZERO DUP11 DUP16 DUP3 PUSH2 0x12DA JUMPI JUMPDEST POP POP SWAP1 POP PUSH2 0x12C6 JUMPI PUSH1 0x1 DUP16 SWAP10 ADD SWAP9 PUSH2 0x11A9 JUMP JUMPDEST POP POP POP POP POP POP POP POP POP POP POP POP POP POP POP PUSH1 0x0 SWAP1 JUMP JUMPDEST PUSH2 0x1256 SWAP3 POP PUSH2 0x12E8 SWAP4 PUSH2 0x1154 JUMP JUMPDEST PUSH1 0x0 NOT DUP11 ADD DUP11 DUP2 GT PUSH2 0x131A JUMPI DUP14 PUSH2 0x130C PUSH2 0x1256 DUP16 SWAP4 PUSH1 0x1 DUP1 PUSH1 0xA0 SHL SUB SWAP5 DUP6 SWAP5 PUSH2 0x1154 JUMP JUMPDEST AND SWAP2 AND EQ ISZERO DUP15 SWAP1 DUP11 DUP16 PUSH2 0x12B3 JUMP JUMPDEST PUSH4 0x4E487B71 PUSH1 0xE0 SHL PUSH1 0x0 MSTORE PUSH1 0x11 PUSH1 0x4 MSTORE PUSH1 0x24 PUSH1 0x0 REVERT JUMPDEST PUSH2 0x1256 DUP3 PUSH2 0x11ED SWAP5 PUSH2 0x1341 SWAP4 PUSH2 0x1154 JUMP JUMPDEST SWAP3 PUSH2 0x11E7 JUMP JUMPDEST PUSH1 0x40 MLOAD PUSH4 0xB1BC1E5 PUSH1 0xE2 SHL DUP2 MSTORE PUSH1 0x4 SWAP1 REVERT JUMPDEST PUSH1 0xFB SLOAD PUSH1 0x1 PUSH1 0x1 PUSH1 0xA0 SHL SUB AND CALLER SUB PUSH2 0x136D JUMPI JUMP JUMPDEST PUSH1 0x64 PUSH1 0x40 MLOAD PUSH3 0x461BCD PUSH1 0xE5 SHL DUP2 MSTORE PUSH1 0x20 PUSH1 0x4 DUP3 ADD MSTORE PUSH1 0x20 PUSH1 0x24 DUP3 ADD MSTORE PUSH32 0x4F776E61626C653A2063616C6C6572206973206E6F7420746865206F776E6572 PUSH1 0x44 DUP3 ADD MSTORE REVERT JUMPDEST PUSH1 0xFB DUP1 SLOAD PUSH1 0x1 PUSH1 0x1 PUSH1 0xA0 SHL SUB SWAP3 DUP4 AND PUSH1 0x1 PUSH1 0x1 PUSH1 0xA0 SHL SUB NOT DUP3 AND DUP2 OR SWAP1 SWAP3 SSTORE SWAP1 SWAP2 AND PUSH32 0x8BE0079C531659141344CD1FD0A4F28419497F9722A3DAAFE3B4186F6B6457E0 PUSH1 0x0 DUP1 LOG3 JUMP JUMPDEST PUSH1 0x1 PUSH1 0x1 PUSH1 0xA0 SHL SUB SWAP4 DUP5 AND PUSH1 0x0 DUP2 DUP2 MSTORE PUSH2 0x12D PUSH1 0x20 SWAP1 DUP2 MSTORE PUSH1 0x40 DUP1 DUP4 KECCAK256 SLOAD SWAP12 SWAP7 SWAP11 SWAP8 SWAP10 SWAP6 SWAP9 SWAP2 SWAP8 SWAP1 SWAP7 SWAP3 SWAP6 SWAP2 SWAP3 SWAP1 DUP13 ISZERO PUSH2 0x153F JUMPI DUP6 DUP8 MSTORE PUSH2 0x12E PUSH1 0x20 MSTORE PUSH1 0xFF DUP9 DUP9 KECCAK256 SLOAD AND PUSH2 0x153F JUMPI PUSH1 0x1 PUSH1 0x1 PUSH1 0x40 SHL SUB AND SWAP1 DUP2 ISZERO ISZERO DUP1 PUSH2 0x154F JUMPI JUMPDEST PUSH2 0x153F JUMPI PUSH1 0xFF AND SWAP2 PUSH1 0x1 SWAP11 DUP4 PUSH1 0x1 GT PUSH2 0x152E JUMPI DUP9 MLOAD PUSH1 0x20 DUP2 ADD SWAP7 DUP8 MSTORE SWAP5 AND DUP5 DUP10 ADD MSTORE PUSH1 0x60 DUP5 ADD MSTORE PUSH1 0x80 DUP4 ADD MSTORE PUSH1 0xA0 DUP1 DUP4 ADD SWAP2 SWAP1 SWAP2 MSTORE DUP2 MSTORE DUP3 SWAP2 SWAP1 PUSH2 0x1498 DUP2 PUSH2 0xFE5 JUMP JUMPDEST MLOAD SWAP1 KECCAK256 SUB PUSH2 0x1523 JUMPI SWAP6 SWAP5 SWAP4 SWAP3 SWAP2 SWAP1 DUP1 SWAP6 JUMPDEST DUP1 DUP8 LT PUSH2 0x14BB JUMPI POP POP POP POP POP POP POP EQ SWAP1 JUMP JUMPDEST SWAP1 SWAP2 SWAP3 SWAP4 SWAP5 DUP7 SWAP8 PUSH2 0x14CE DUP3 SWAP9 DUP5 DUP10 PUSH2 0x1154 JUMP JUMPDEST CALLDATALOAD DUP1 DUP3 LT ISZERO PUSH2 0x1501 JUMPI DUP6 MLOAD SWAP1 DUP8 DUP3 ADD SWAP3 DUP4 MSTORE DUP7 DUP3 ADD MSTORE DUP6 DUP2 MSTORE PUSH2 0x14F0 DUP2 PUSH2 0xFB4 JUMP JUMPDEST MLOAD SWAP1 KECCAK256 JUMPDEST SWAP8 ADD SWAP6 SWAP5 SWAP4 SWAP3 SWAP2 SWAP1 PUSH2 0x14A9 JUMP JUMPDEST SWAP1 DUP6 MLOAD SWAP1 DUP8 DUP3 ADD SWAP3 DUP4 MSTORE DUP7 DUP3 ADD MSTORE DUP6 DUP2 MSTORE PUSH2 0x151B DUP2 PUSH2 0xFB4 JUMP JUMPDEST MLOAD SWAP1 KECCAK256 PUSH2 0x14F4 JUMP JUMPDEST POP SWAP6 POP POP POP POP POP POP SWAP1 JUMP JUMPDEST POP POP POP POP POP POP POP SWAP6 POP POP POP POP POP POP SWAP1 JUMP JUMPDEST POP POP POP POP POP POP SWAP6 POP POP POP POP POP POP SWAP1 JUMP JUMPDEST POP TIMESTAMP DUP3 LT PUSH2 0x1455 JUMP JUMPDEST SWAP2 SWAP7 SWAP1 SWAP6 SWAP8 SWAP4 SWAP5 SWAP3 SWAP5 PUSH1 0x1 DUP1 PUSH1 0xA0 SHL SUB DUP1 SWAP7 AND SWAP2 PUSH1 0x0 SWAP5 DUP4 DUP7 MSTORE PUSH1 0x20 SWAP8 PUSH2 0x12D PUSH1 0x20 MSTORE PUSH1 0x40 SWAP8 DUP9 DUP9 KECCAK256 SLOAD SWAP13 DUP14 ISZERO PUSH2 0x1697 JUMPI DUP8 DUP10 MSTORE PUSH2 0x12E PUSH1 0x20 MSTORE PUSH1 0xFF DUP11 DUP11 KECCAK256 SLOAD AND PUSH2 0x1697 JUMPI PUSH1 0x1 PUSH1 0x1 PUSH1 0x40 SHL SUB AND SWAP4 DUP5 ISZERO ISZERO DUP1 PUSH2 0x16A8 JUMPI JUMPDEST PUSH2 0x1697 JUMPI PUSH1 0xFF SWAP1 DUP2 AND SWAP5 SWAP4 SWAP3 SWAP2 AND DUP5 LT PUSH2 0x1687 JUMPI DUP9 MLOAD PUSH1 0x20 DUP2 ADD SWAP7 DUP8 MSTORE SWAP5 AND DUP5 DUP10 ADD MSTORE PUSH1 0x60 DUP5 ADD MSTORE PUSH1 0x80 DUP4 ADD MSTORE PUSH1 0xA0 DUP1 DUP4 ADD SWAP2 SWAP1 SWAP2 MSTORE DUP2 MSTORE DUP3 SWAP2 SWAP1 PUSH2 0x15F4 DUP2 PUSH2 0xFE5 JUMP JUMPDEST MLOAD SWAP1 KECCAK256 SUB PUSH2 0x167D JUMPI SWAP5 SWAP4 SWAP3 SWAP2 SWAP1 DUP1 SWAP5 JUMPDEST DUP1 DUP7 LT PUSH2 0x1615 JUMPI POP POP POP POP POP POP EQ SWAP1 JUMP JUMPDEST SWAP1 SWAP2 SWAP3 SWAP4 SWAP5 SWAP6 PUSH1 0x1 SWAP1 PUSH2 0x1629 DUP9 DUP5 DUP10 PUSH2 0x1154 JUMP JUMPDEST CALLDATALOAD DUP1 DUP3 LT ISZERO PUSH2 0x165B JUMPI DUP6 MLOAD SWAP1 DUP8 DUP3 ADD SWAP3 DUP4 MSTORE DUP7 DUP3 ADD MSTORE DUP6 DUP2 MSTORE PUSH2 0x164B DUP2 PUSH2 0xFB4 JUMP JUMPDEST MLOAD SWAP1 KECCAK256 JUMPDEST SWAP7 ADD SWAP5 SWAP4 SWAP3 SWAP2 SWAP1 PUSH2 0x1604 JUMP JUMPDEST SWAP1 DUP6 MLOAD SWAP1 DUP8 DUP3 ADD SWAP3 DUP4 MSTORE DUP7 DUP3 ADD MSTORE DUP6 DUP2 MSTORE PUSH2 0x1675 DUP2 PUSH2 0xFB4 JUMP JUMPDEST MLOAD SWAP1 KECCAK256 PUSH2 0x164F JUMP JUMPDEST POP SWAP5 POP POP POP POP POP SWAP1 JUMP JUMPDEST POP POP POP POP POP POP POP SWAP5 POP POP POP POP POP SWAP1 JUMP JUMPDEST POP POP POP POP POP POP POP POP SWAP5 POP POP POP POP POP SWAP1 JUMP JUMPDEST POP TIMESTAMP DUP6 LT PUSH2 0x15B0 JUMP JUMPDEST ISZERO PUSH2 0x16B8 JUMPI JUMP JUMPDEST PUSH1 0x40 MLOAD PUSH3 0x461BCD PUSH1 0xE5 SHL DUP2 MSTORE PUSH1 0x20 PUSH1 0x4 DUP3 ADD MSTORE PUSH1 0x2B PUSH1 0x24 DUP3 ADD MSTORE PUSH32 0x496E697469616C697A61626C653A20636F6E7472616374206973206E6F742069 PUSH1 0x44 DUP3 ADD MSTORE PUSH11 0x6E697469616C697A696E67 PUSH1 0xA8 SHL PUSH1 0x64 DUP3 ADD MSTORE PUSH1 0x84 SWAP1 REVERT JUMPDEST DUP1 EXTCODESIZE ISZERO PUSH2 0x1746 JUMPI PUSH1 0x0 DUP1 MLOAD PUSH1 0x20 PUSH2 0x1876 DUP4 CODECOPY DUP2 MLOAD SWAP2 MSTORE DUP1 SLOAD PUSH1 0x1 PUSH1 0x1 PUSH1 0xA0 SHL SUB NOT AND PUSH1 0x1 PUSH1 0x1 PUSH1 0xA0 SHL SUB SWAP1 SWAP3 AND SWAP2 SWAP1 SWAP2 OR SWAP1 SSTORE JUMP JUMPDEST PUSH1 0x40 MLOAD PUSH3 0x461BCD PUSH1 0xE5 SHL DUP2 MSTORE PUSH1 0x20 PUSH1 0x4 DUP3 ADD MSTORE PUSH1 0x2D PUSH1 0x24 DUP3 ADD MSTORE PUSH32 0x455243313936373A206E657720696D706C656D656E746174696F6E206973206E PUSH1 0x44 DUP3 ADD MSTORE PUSH13 0x1BDD08184818DBDB9D1C9858DD PUSH1 0x9A SHL PUSH1 0x64 DUP3 ADD MSTORE PUSH1 0x84 SWAP1 REVERT JUMPDEST SWAP2 SWAP3 SWAP1 ISZERO PUSH2 0x1803 JUMPI POP DUP2 MLOAD ISZERO PUSH2 0x17B5 JUMPI POP SWAP1 JUMP JUMPDEST EXTCODESIZE ISZERO PUSH2 0x17BE JUMPI SWAP1 JUMP JUMPDEST PUSH1 0x40 MLOAD PUSH3 0x461BCD PUSH1 0xE5 SHL DUP2 MSTORE PUSH1 0x20 PUSH1 0x4 DUP3 ADD MSTORE PUSH1 0x1D PUSH1 0x24 DUP3 ADD MSTORE PUSH32 0x416464726573733A2063616C6C20746F206E6F6E2D636F6E7472616374000000 PUSH1 0x44 DUP3 ADD MSTORE PUSH1 0x64 SWAP1 REVERT JUMPDEST DUP3 MLOAD SWAP1 SWAP2 POP ISZERO PUSH2 0x1816 JUMPI POP DUP1 MLOAD SWAP1 PUSH1 0x20 ADD REVERT JUMPDEST PUSH1 0x40 MLOAD SWAP1 PUSH3 0x461BCD PUSH1 0xE5 SHL DUP3 MSTORE DUP2 PUSH1 0x20 DUP1 PUSH1 0x4 DUP4 ADD MSTORE DUP3 MLOAD SWAP1 DUP2 PUSH1 0x24 DUP5 ADD MSTORE PUSH1 0x0 SWAP4 JUMPDEST DUP3 DUP6 LT PUSH2 0x185C JUMPI POP POP PUSH1 0x44 SWAP3 POP PUSH1 0x0 DUP4 DUP3 DUP5 ADD ADD MSTORE PUSH1 0x1F DUP1 NOT SWAP2 ADD AND DUP2 ADD SUB ADD SWAP1 REVERT JUMPDEST DUP5 DUP2 ADD DUP3 ADD MLOAD DUP7 DUP7 ADD PUSH1 0x44 ADD MSTORE SWAP4 DUP2 ADD SWAP4 DUP6 SWAP4 POP PUSH2 0x1839 JUMP INVALID CALLDATASIZE ADDMOD SWAP5 LOG1 EXTCODESIZE LOG1 LOG3 0x21 MOD PUSH8 0xC828492DB98DCA3E KECCAK256 PUSH23 0xCC3735A920A3CA505D382BBCA264697066735822122028 SWAP6 PUSH7 0xABAC419DA3F7AD 0x21 SWAP15 0xBA CALLDATALOAD MSTORE OR 0xD0 0xC8 0xD1 0xE5 BALANCE PUSH4 0x1350F5AC TIMESTAMP PUSH14 0x495DEC9064736F6C634300081800 CALLER "},"methodIdentifiers":{"delegationRoots(address)":"4bf04c73","getDelegationRoot(address)":"2d9fa06f","initialize(address)":"c4d66de8","owner()":"8da5cb5b","pause()":"8456cb59","paused()":"5c975abb","proxiableUUID()":"52d1902d","renounceOwnership()":"715018a6","revokeDelegation(bytes32,address)":"be2ca9d0","revokedDelegations(bytes32)":"232acf5e","rootUpdaters(address)":"372b102d","setRootUpdater(address,bool)":"53739410","transferOwnership(address)":"f2fde38b","unpause()":"3f4ba83a","updateDelegationRoot(address,bytes32)":"14220501","upgradeTo(address)":"3659cfe6","upgradeToAndCall(address,bytes)":"4f1ef286","verifyDelegation(bytes32,bytes32[],address,bytes32,uint64,uint8)":"afa6a1cf","verifyDelegationChain(bytes32[],bytes32[][],address[],address[],bytes32[],uint64[],uint8[])":"96f16c17","verifyDelegationForAction(bytes32,bytes32[],address,string,uint64,uint8)":"f53da7cd"}}}}}