{"src/CredentialRegistry.sol":{"CredentialRegistry":{"abi":[{"inputs":[],"stateMutability":"nonpayable","type":"constructor"},{"inputs":[],"name":"NullifierUsed","type":"error"},{"inputs":[],"name":"OnlyIssuer","type":"error"},{"inputs":[],"name":"OnlySessionManager","type":"error"},{"anonymous":false,"inputs":[{"indexed":true,"internalType":"bytes32","name":"newRoot","type":"bytes32"}],"name":"ActiveRootUpdated","type":"event"},{"anonymous":false,"inputs":[{"indexed":false,"internalType":"address","name":"previousAdmin","type":"address"},{"indexed":false,"internalType":"address","name":"newAdmin","type":"address"}],"name":"AdminChanged","type":"event"},{"anonymous":false,"inputs":[{"indexed":true,"internalType":"address","name":"beacon","type":"address"}],"name":"BeaconUpgraded","type":"event"},{"anonymous":false,"inputs":[{"indexed":true,"internalType":"address","name":"issuer","type":"address"},{"indexed":true,"internalType":"bytes32","name":"commitment","type":"bytes32"},{"indexed":false,"internalType":"uint64","name":"expiry","type":"uint64"}],"name":"CredentialIssued","type":"event"},{"anonymous":false,"inputs":[{"indexed":true,"internalType":"address","name":"issuer","type":"address"},{"indexed":true,"internalType":"bytes32","name":"commitment","type":"bytes32"}],"name":"CredentialRevoked","type":"event"},{"anonymous":false,"inputs":[{"indexed":false,"internalType":"uint8","name":"version","type":"uint8"}],"name":"Initialized","type":"event"},{"anonymous":false,"inputs":[{"indexed":true,"internalType":"address","name":"previousOwner","type":"address"},{"indexed":true,"internalType":"address","name":"newOwner","type":"address"}],"name":"OwnershipTransferred","type":"event"},{"anonymous":false,"inputs":[{"indexed":false,"internalType":"address","name":"account","type":"address"}],"name":"Paused","type":"event"},{"anonymous":false,"inputs":[{"indexed":true,"internalType":"bytes32","name":"newRoot","type":"bytes32"}],"name":"RevokedSecretRootUpdated","type":"event"},{"anonymous":false,"inputs":[{"indexed":false,"internalType":"address","name":"account","type":"address"}],"name":"Unpaused","type":"event"},{"anonymous":false,"inputs":[{"indexed":true,"internalType":"address","name":"implementation","type":"address"}],"name":"Upgraded","type":"event"},{"inputs":[],"name":"activeRoot","outputs":[{"internalType":"bytes32","name":"","type":"bytes32"}],"stateMutability":"view","type":"function"},{"inputs":[{"internalType":"address","name":"issuer","type":"address"}],"name":"addIssuer","outputs":[],"stateMutability":"nonpayable","type":"function"},{"inputs":[{"internalType":"address","name":"owner_","type":"address"}],"name":"initialize","outputs":[],"stateMutability":"nonpayable","type":"function"},{"inputs":[{"internalType":"bytes32","name":"nullifier","type":"bytes32"}],"name":"isNullifierUsed","outputs":[{"internalType":"bool","name":"","type":"bool"}],"stateMutability":"view","type":"function"},{"inputs":[{"internalType":"address","name":"","type":"address"}],"name":"issuers","outputs":[{"internalType":"bool","name":"","type":"bool"}],"stateMutability":"view","type":"function"},{"inputs":[{"internalType":"bytes32","name":"nullifier","type":"bytes32"}],"name":"markNullifierUsed","outputs":[],"stateMutability":"nonpayable","type":"function"},{"inputs":[],"name":"owner","outputs":[{"internalType":"address","name":"","type":"address"}],"stateMutability":"view","type":"function"},{"inputs":[],"name":"pause","outputs":[],"stateMutability":"nonpayable","type":"function"},{"inputs":[],"name":"paused","outputs":[{"internalType":"bool","name":"","type":"bool"}],"stateMutability":"view","type":"function"},{"inputs":[],"name":"proxiableUUID","outputs":[{"internalType":"bytes32","name":"","type":"bytes32"}],"stateMutability":"view","type":"function"},{"inputs":[{"internalType":"address","name":"issuer","type":"address"}],"name":"removeIssuer","outputs":[],"stateMutability":"nonpayable","type":"function"},{"inputs":[],"name":"renounceOwnership","outputs":[],"stateMutability":"nonpayable","type":"function"},{"inputs":[],"name":"revokedSecretRoot","outputs":[{"internalType":"bytes32","name":"","type":"bytes32"}],"stateMutability":"view","type":"function"},{"inputs":[{"internalType":"address","name":"","type":"address"}],"name":"sessionManagers","outputs":[{"internalType":"bool","name":"","type":"bool"}],"stateMutability":"view","type":"function"},{"inputs":[{"internalType":"address","name":"sessionManager","type":"address"},{"internalType":"bool","name":"allowed","type":"bool"}],"name":"setSessionManager","outputs":[],"stateMutability":"nonpayable","type":"function"},{"inputs":[{"internalType":"address","name":"newOwner","type":"address"}],"name":"transferOwnership","outputs":[],"stateMutability":"nonpayable","type":"function"},{"inputs":[],"name":"unpause","outputs":[],"stateMutability":"nonpayable","type":"function"},{"inputs":[{"internalType":"bytes32","name":"newRoot","type":"bytes32"}],"name":"updateActiveRoot","outputs":[],"stateMutability":"nonpayable","type":"function"},{"inputs":[{"internalType":"bytes32","name":"newRoot","type":"bytes32"}],"name":"updateRevokedSecretRoot","outputs":[],"stateMutability":"nonpayable","type":"function"},{"inputs":[{"internalType":"address","name":"newImplementation","type":"address"}],"name":"upgradeTo","outputs":[],"stateMutability":"nonpayable","type":"function"},{"inputs":[{"internalType":"address","name":"newImplementation","type":"address"},{"internalType":"bytes","name":"data","type":"bytes"}],"name":"upgradeToAndCall","outputs":[],"stateMutability":"payable","type":"function"},{"inputs":[{"internalType":"bytes32","name":"","type":"bytes32"}],"name":"usedNullifiers","outputs":[{"internalType":"bool","name":"","type":"bool"}],"stateMutability":"view","type":"function"}],"evm":{"bytecode":{"linkReferences":{},"object":"60a080604052346100dc57306080526000549060ff8260081c1661008a575060ff8082160361004f575b6040516112d690816100e2823960805181818161062f015281816107560152610b190152f35b60ff90811916176000557f7f26b83ff96e1f2b6a682f133852f6798a09c465da95921460cefb3847402498602060405160ff8152a138610029565b62461bcd60e51b815260206004820152602760248201527f496e697469616c697a61626c653a20636f6e747261637420697320696e697469604482015266616c697a696e6760c81b6064820152608490fd5b600080fdfe6080604081815260048036101561001557600080fd5b600092833560e01c908163057cb0f514610dc057508063206137aa14610d4f57806320694db014610d7c57806322dc7b4c14610d4f5780632391486914610ce35780633659cfe614610af257806338a7543e14610ab35780633f4ba83a14610a1e57806347bc7093146109dd5780634f1ef286146106dc57806352d1902d1461061a5780635c975abb146105f65780636b6debf7146105d6578063715018a6146105765780638456cb591461051b5780638da5cb5b146104f2578063abb2efdf146104d2578063c1c67f5f1461047b578063c4d66de814610264578063eb9e584914610221578063f2fde38b146101905763f54e3a851461011557600080fd5b3461018c57602036600319011261018c5780359133845261012d60205260ff81852054161561017f575050610148610fd9565b61015061101d565b80610130557e12e8d1cf1cc3bbbeeed8d45e664cae7b568efc953ca943c64e07f3f4e588598280a26001805580f35b516355b51ef160e01b8152fd5b8280fd5b503461018c57602036600319011261018c576101aa610e34565b916101b3610f81565b6001600160a01b038316156101cf57836101cc84611073565b80f35b906020608492519162461bcd60e51b8352820152602660248201527f4f776e61626c653a206e6577206f776e657220697320746865207a65726f206160448201526564647265737360d01b6064820152fd5b5050346102605760203660031901126102605760209160ff9082906001600160a01b0361024c610e34565b16815261012e855220541690519015158152f35b5080fd5b503461018c57602036600319011261018c5761027e610e34565b83549060ff8260081c16159283809461046e575b8015610457575b156103fd5760ff19838116600117875592846103ec575b506102ca60ff875460081c166102c5816110bc565b6110bc565b6102d333611073565b61031360ff875460081c166102e7816110bc565b6102f0816110bc565b600180556102fd816110bc565b610306816110bc565b84606554166065556110bc565b6001600160a01b03821633810361037b575b50505033845261012d602052600183852091825416179055610345575080f35b60207f7f26b83ff96e1f2b6a682f133852f6798a09c465da95921460cefb38474024989161ff001984541684555160018152a180f35b610383610f81565b1561039a575061039290611073565b388080610325565b608490602086519162461bcd60e51b8352820152602660248201527f4f776e61626c653a206e6577206f776e657220697320746865207a65726f206160448201526564647265737360d01b6064820152fd5b61ffff1916610101178655386102b0565b608490602086519162461bcd60e51b8352820152602e60248201527f496e697469616c697a61626c653a20636f6e747261637420697320616c72656160448201526d191e481a5b9a5d1a585b1a5e995960921b6064820152fd5b50303b1580156102995750600160ff841614610299565b50600160ff841610610292565b505034610260578060031936011261026057610495610e34565b90602435918215158093036104ce576104ac610f81565b60018060a01b0316835261012e60205282209060ff8019835416911617905580f35b8380fd5b50503461026057816003193601126102605760209061012f549051908152f35b50503461026057816003193601126102605760fb5490516001600160a01b039091168152602090f35b50503461026057816003193601126102605760207f62e78cea01bee320cd4e420270b5ea74000d11b0c9f74754ebdbfc544b05a25891610559610f81565b610561610fd9565b600160ff19606554161760655551338152a180f35b83346105d357806003193601126105d35761058f610f81565b60fb80546001600160a01b0319811690915581906001600160a01b03167f8be0079c531659141344cd1fd0a4f28419497f9722a3daafe3b4186f6b6457e08280a380f35b80fd5b505034610260578160031936011261026057602090610130549051908152f35b50503461026057816003193601126102605760209060ff6065541690519015158152f35b5082346105d357806003193601126105d357507f00000000000000000000000000000000000000000000000000000000000000006001600160a01b0316300361067457602082516000805160206112818339815191528152f35b6020608492519162461bcd60e51b8352820152603860248201527f555550535570677261646561626c653a206d757374206e6f742062652063616c60448201527f6c6564207468726f7567682064656c656761746563616c6c00000000000000006064820152fd5b50908060031936011261018c576106f1610e34565b906024359067ffffffffffffffff82116109d957366023830112156109d9578184013561071d81610ea3565b61072983519182610e81565b8181528660209485830193366024828401011161018c578060248893018637830101526001600160a01b037f000000000000000000000000000000000000000000000000000000000000000081169061078430831415610ebf565b6107a1600080516020611281833981519152928284541614610f20565b6107a9610f81565b7f4910fdfa16fed3260ed0e7147f7cc6da11a60208b5b9406d12a635614ffd91435460ff16156107e3575050505050506101cc915061111c565b869293949596169085516352d1902d60e01b815287818a81865afa8a91816109a6575b5061086557865162461bcd60e51b8152808a01899052602e60248201527f45524331393637557067726164653a206e657720696d706c656d656e7461746960448201526d6f6e206973206e6f74205555505360901b6064820152608490fd5b979192939695949703610951575061087c8261111c565b7fbc7cd75a20ee27fd9adebab32041f755214dbc6bffa90cc0225b39da2e5c2d3b8780a285845115801590610949575b6108ba575b50505050505080f35b80610933968451966108cb88610e4f565b602788527f416464726573733a206c6f772d6c6576656c2064656c65676174652063616c6c87890152660819985a5b195960ca1b868901525190845af4913d1561093f573d61092561091c82610ea3565b92519283610e81565b81528681943d92013e6111ac565b503880808080856108b1565b50606092506111ac565b5060016108ac565b835162461bcd60e51b8152908101859052602960248201527f45524331393637557067726164653a20756e737570706f727465642070726f786044820152681a58589b195555525160ba1b6064820152608490fd5b9091508881813d83116109d2575b6109be8183610e81565b810103126109ce57519038610806565b8a80fd5b503d6109b4565b8480fd5b505034610260576020366003190112610260576109f8610e34565b610a00610f81565b6001600160a01b0316825261012d6020528120805460ff1916905580f35b503461018c578260031936011261018c57610a37610f81565b6065549060ff821615610a79575060ff1916606555513381527f5db9ee0a495bf2e6ff9c91a7834c1ba4fdd244a5e8aa4e537bd38aeae4b073aa90602090a180f35b606490602084519162461bcd60e51b8352820152601460248201527314185d5cd8589b194e881b9bdd081c185d5cd95960621b6044820152fd5b5050346102605760203660031901126102605760209160ff9082906001600160a01b03610ade610e34565b16815261012d855220541690519015158152f35b50903461018c576020806003193601126104ce57610b0e610e34565b916001600160a01b037f00000000000000000000000000000000000000000000000000000000000000008116610b4630821415610ebf565b610b63600080516020611281833981519152918383541614610f20565b610b6b610f81565b8251908482019282841067ffffffffffffffff851117610cd0578385528883527f4910fdfa16fed3260ed0e7147f7cc6da11a60208b5b9406d12a635614ffd91435460ff1615610bc5575050505050506101cc915061111c565b869293949596169085516352d1902d60e01b815287818a81865afa8a9181610ca1575b50610c4757865162461bcd60e51b8152808a01899052602e60248201527f45524331393637557067726164653a206e657720696d706c656d656e7461746960448201526d6f6e206973206e6f74205555505360901b6064820152608490fd5b9791929396959497036109515750610c5e8261111c565b7fbc7cd75a20ee27fd9adebab32041f755214dbc6bffa90cc0225b39da2e5c2d3b8780a285845115801590610c9a576108ba5750505050505080f35b50806108ac565b9091508881813d8311610cc9575b610cb98183610e81565b810103126109ce57519038610be8565b503d610caf565b634e487b7160e01b895260418852602489fd5b503461018c57602036600319011261018c5780359133845261012d60205260ff81852054161561017f575050610d17610fd9565b610d1f61101d565b8061012f557f76261461236844337b0eb16561d37bd90c48cf1b779a7122006f8df07243d4188280a26001805580f35b503461018c57602036600319011261018c578160209360ff92358152610131855220541690519015158152f35b50503461026057602036600319011261026057610d97610e34565b610d9f610f81565b6001600160a01b0316825261012d6020528120805460ff1916600117905580f35b9050346104ce5760203660031901126104ce5781359033855261012e60205260ff848620541615610e265750808452610131918260205260ff8486205416610e18575083526020528120805460ff1916600117905580f35b8351639281498560e01b8152fd5b63b86cb9f160e01b81529050fd5b600435906001600160a01b0382168203610e4a57565b600080fd5b6060810190811067ffffffffffffffff821117610e6b57604052565b634e487b7160e01b600052604160045260246000fd5b90601f8019910116810190811067ffffffffffffffff821117610e6b57604052565b67ffffffffffffffff8111610e6b57601f01601f191660200190565b15610ec657565b60405162461bcd60e51b815260206004820152602c60248201527f46756e6374696f6e206d7573742062652063616c6c6564207468726f7567682060448201526b19195b1959d85d1958d85b1b60a21b6064820152608490fd5b15610f2757565b60405162461bcd60e51b815260206004820152602c60248201527f46756e6374696f6e206d7573742062652063616c6c6564207468726f7567682060448201526b6163746976652070726f787960a01b6064820152608490fd5b60fb546001600160a01b03163303610f9557565b606460405162461bcd60e51b815260206004820152602060248201527f4f776e61626c653a2063616c6c6572206973206e6f7420746865206f776e65726044820152fd5b60ff60655416610fe557565b60405162461bcd60e51b815260206004820152601060248201526f14185d5cd8589b194e881c185d5cd95960821b6044820152606490fd5b60026001541461102e576002600155565b60405162461bcd60e51b815260206004820152601f60248201527f5265656e7472616e637947756172643a207265656e7472616e742063616c6c006044820152606490fd5b60fb80546001600160a01b039283166001600160a01b0319821681179092559091167f8be0079c531659141344cd1fd0a4f28419497f9722a3daafe3b4186f6b6457e0600080a3565b156110c357565b60405162461bcd60e51b815260206004820152602b60248201527f496e697469616c697a61626c653a20636f6e7472616374206973206e6f74206960448201526a6e697469616c697a696e6760a81b6064820152608490fd5b803b156111515760008051602061128183398151915280546001600160a01b0319166001600160a01b03909216919091179055565b60405162461bcd60e51b815260206004820152602d60248201527f455243313936373a206e657720696d706c656d656e746174696f6e206973206e60448201526c1bdd08184818dbdb9d1c9858dd609a1b6064820152608490fd5b9192901561120e57508151156111c0575090565b3b156111c95790565b60405162461bcd60e51b815260206004820152601d60248201527f416464726573733a2063616c6c20746f206e6f6e2d636f6e74726163740000006044820152606490fd5b8251909150156112215750805190602001fd5b6040519062461bcd60e51b82528160208060048301528251908160248401526000935b828510611267575050604492506000838284010152601f80199101168101030190fd5b848101820151868601604401529381019385935061124456fe360894a13ba1a3210667c828492db98dca3e2076cc3735a920a3ca505d382bbca2646970667358221220bc333099ef21e52cc0ba4a576ab89498cd708027e4380e81215f45dd9cbd05fe64736f6c63430008180033","opcodes":"PUSH1 0xA0 DUP1 PUSH1 0x40 MSTORE CALLVALUE PUSH2 0xDC JUMPI ADDRESS PUSH1 0x80 MSTORE PUSH1 0x0 SLOAD SWAP1 PUSH1 0xFF DUP3 PUSH1 0x8 SHR AND PUSH2 0x8A JUMPI POP PUSH1 0xFF DUP1 DUP3 AND SUB PUSH2 0x4F JUMPI JUMPDEST PUSH1 0x40 MLOAD PUSH2 0x12D6 SWAP1 DUP2 PUSH2 0xE2 DUP3 CODECOPY PUSH1 0x80 MLOAD DUP2 DUP2 DUP2 PUSH2 0x62F ADD MSTORE DUP2 DUP2 PUSH2 0x756 ADD MSTORE PUSH2 0xB19 ADD MSTORE RETURN JUMPDEST PUSH1 0xFF SWAP1 DUP2 NOT AND OR PUSH1 0x0 SSTORE PUSH32 0x7F26B83FF96E1F2B6A682F133852F6798A09C465DA95921460CEFB3847402498 PUSH1 0x20 PUSH1 0x40 MLOAD PUSH1 0xFF DUP2 MSTORE LOG1 CODESIZE PUSH2 0x29 JUMP JUMPDEST PUSH3 0x461BCD PUSH1 0xE5 SHL DUP2 MSTORE PUSH1 0x20 PUSH1 0x4 DUP3 ADD MSTORE PUSH1 0x27 PUSH1 0x24 DUP3 ADD MSTORE PUSH32 0x496E697469616C697A61626C653A20636F6E747261637420697320696E697469 PUSH1 0x44 DUP3 ADD MSTORE PUSH7 0x616C697A696E67 PUSH1 0xC8 SHL PUSH1 0x64 DUP3 ADD MSTORE PUSH1 0x84 SWAP1 REVERT JUMPDEST PUSH1 0x0 DUP1 REVERT INVALID PUSH1 0x80 PUSH1 0x40 DUP2 DUP2 MSTORE PUSH1 0x4 DUP1 CALLDATASIZE LT ISZERO PUSH2 0x15 JUMPI PUSH1 0x0 DUP1 REVERT JUMPDEST PUSH1 0x0 SWAP3 DUP4 CALLDATALOAD PUSH1 0xE0 SHR SWAP1 DUP2 PUSH4 0x57CB0F5 EQ PUSH2 0xDC0 JUMPI POP DUP1 PUSH4 0x206137AA EQ PUSH2 0xD4F JUMPI DUP1 PUSH4 0x20694DB0 EQ PUSH2 0xD7C JUMPI DUP1 PUSH4 0x22DC7B4C EQ PUSH2 0xD4F JUMPI DUP1 PUSH4 0x23914869 EQ PUSH2 0xCE3 JUMPI DUP1 PUSH4 0x3659CFE6 EQ PUSH2 0xAF2 JUMPI DUP1 PUSH4 0x38A7543E EQ PUSH2 0xAB3 JUMPI DUP1 PUSH4 0x3F4BA83A EQ PUSH2 0xA1E JUMPI DUP1 PUSH4 0x47BC7093 EQ PUSH2 0x9DD JUMPI DUP1 PUSH4 0x4F1EF286 EQ PUSH2 0x6DC JUMPI DUP1 PUSH4 0x52D1902D EQ PUSH2 0x61A JUMPI DUP1 PUSH4 0x5C975ABB EQ PUSH2 0x5F6 JUMPI DUP1 PUSH4 0x6B6DEBF7 EQ PUSH2 0x5D6 JUMPI DUP1 PUSH4 0x715018A6 EQ PUSH2 0x576 JUMPI DUP1 PUSH4 0x8456CB59 EQ PUSH2 0x51B JUMPI DUP1 PUSH4 0x8DA5CB5B EQ PUSH2 0x4F2 JUMPI DUP1 PUSH4 0xABB2EFDF EQ PUSH2 0x4D2 JUMPI DUP1 PUSH4 0xC1C67F5F EQ PUSH2 0x47B JUMPI DUP1 PUSH4 0xC4D66DE8 EQ PUSH2 0x264 JUMPI DUP1 PUSH4 0xEB9E5849 EQ PUSH2 0x221 JUMPI DUP1 PUSH4 0xF2FDE38B EQ PUSH2 0x190 JUMPI PUSH4 0xF54E3A85 EQ PUSH2 0x115 JUMPI PUSH1 0x0 DUP1 REVERT JUMPDEST CALLVALUE PUSH2 0x18C JUMPI PUSH1 0x20 CALLDATASIZE PUSH1 0x3 NOT ADD SLT PUSH2 0x18C JUMPI DUP1 CALLDATALOAD SWAP2 CALLER DUP5 MSTORE PUSH2 0x12D PUSH1 0x20 MSTORE PUSH1 0xFF DUP2 DUP6 KECCAK256 SLOAD AND ISZERO PUSH2 0x17F JUMPI POP POP PUSH2 0x148 PUSH2 0xFD9 JUMP JUMPDEST PUSH2 0x150 PUSH2 0x101D JUMP JUMPDEST DUP1 PUSH2 0x130 SSTORE PUSH31 0x12E8D1CF1CC3BBBEEED8D45E664CAE7B568EFC953CA943C64E07F3F4E58859 DUP3 DUP1 LOG2 PUSH1 0x1 DUP1 SSTORE DUP1 RETURN JUMPDEST MLOAD PUSH4 0x55B51EF1 PUSH1 0xE0 SHL DUP2 MSTORE REVERT JUMPDEST DUP3 DUP1 REVERT JUMPDEST POP CALLVALUE PUSH2 0x18C JUMPI PUSH1 0x20 CALLDATASIZE PUSH1 0x3 NOT ADD SLT PUSH2 0x18C JUMPI PUSH2 0x1AA PUSH2 0xE34 JUMP JUMPDEST SWAP2 PUSH2 0x1B3 PUSH2 0xF81 JUMP JUMPDEST PUSH1 0x1 PUSH1 0x1 PUSH1 0xA0 SHL SUB DUP4 AND ISZERO PUSH2 0x1CF JUMPI DUP4 PUSH2 0x1CC DUP5 PUSH2 0x1073 JUMP JUMPDEST DUP1 RETURN JUMPDEST SWAP1 PUSH1 0x20 PUSH1 0x84 SWAP3 MLOAD SWAP2 PUSH3 0x461BCD PUSH1 0xE5 SHL DUP4 MSTORE DUP3 ADD MSTORE PUSH1 0x26 PUSH1 0x24 DUP3 ADD MSTORE PUSH32 0x4F776E61626C653A206E6577206F776E657220697320746865207A65726F2061 PUSH1 0x44 DUP3 ADD MSTORE PUSH6 0x646472657373 PUSH1 0xD0 SHL PUSH1 0x64 DUP3 ADD MSTORE REVERT JUMPDEST POP POP CALLVALUE PUSH2 0x260 JUMPI PUSH1 0x20 CALLDATASIZE PUSH1 0x3 NOT ADD SLT PUSH2 0x260 JUMPI PUSH1 0x20 SWAP2 PUSH1 0xFF SWAP1 DUP3 SWAP1 PUSH1 0x1 PUSH1 0x1 PUSH1 0xA0 SHL SUB PUSH2 0x24C PUSH2 0xE34 JUMP JUMPDEST AND DUP2 MSTORE PUSH2 0x12E DUP6 MSTORE KECCAK256 SLOAD AND SWAP1 MLOAD SWAP1 ISZERO ISZERO DUP2 MSTORE RETURN JUMPDEST POP DUP1 REVERT JUMPDEST POP CALLVALUE PUSH2 0x18C JUMPI PUSH1 0x20 CALLDATASIZE PUSH1 0x3 NOT ADD SLT PUSH2 0x18C JUMPI PUSH2 0x27E PUSH2 0xE34 JUMP JUMPDEST DUP4 SLOAD SWAP1 PUSH1 0xFF DUP3 PUSH1 0x8 SHR AND ISZERO SWAP3 DUP4 DUP1 SWAP5 PUSH2 0x46E JUMPI JUMPDEST DUP1 ISZERO PUSH2 0x457 JUMPI JUMPDEST ISZERO PUSH2 0x3FD JUMPI PUSH1 0xFF NOT DUP4 DUP2 AND PUSH1 0x1 OR DUP8 SSTORE SWAP3 DUP5 PUSH2 0x3EC JUMPI JUMPDEST POP PUSH2 0x2CA PUSH1 0xFF DUP8 SLOAD PUSH1 0x8 SHR AND PUSH2 0x2C5 DUP2 PUSH2 0x10BC JUMP JUMPDEST PUSH2 0x10BC JUMP JUMPDEST PUSH2 0x2D3 CALLER PUSH2 0x1073 JUMP JUMPDEST PUSH2 0x313 PUSH1 0xFF DUP8 SLOAD PUSH1 0x8 SHR AND PUSH2 0x2E7 DUP2 PUSH2 0x10BC JUMP JUMPDEST PUSH2 0x2F0 DUP2 PUSH2 0x10BC JUMP JUMPDEST PUSH1 0x1 DUP1 SSTORE PUSH2 0x2FD DUP2 PUSH2 0x10BC JUMP JUMPDEST PUSH2 0x306 DUP2 PUSH2 0x10BC JUMP JUMPDEST DUP5 PUSH1 0x65 SLOAD AND PUSH1 0x65 SSTORE PUSH2 0x10BC JUMP JUMPDEST PUSH1 0x1 PUSH1 0x1 PUSH1 0xA0 SHL SUB DUP3 AND CALLER DUP2 SUB PUSH2 0x37B JUMPI JUMPDEST POP POP POP CALLER DUP5 MSTORE PUSH2 0x12D PUSH1 0x20 MSTORE PUSH1 0x1 DUP4 DUP6 KECCAK256 SWAP2 DUP3 SLOAD AND OR SWAP1 SSTORE PUSH2 0x345 JUMPI POP DUP1 RETURN JUMPDEST PUSH1 0x20 PUSH32 0x7F26B83FF96E1F2B6A682F133852F6798A09C465DA95921460CEFB3847402498 SWAP2 PUSH2 0xFF00 NOT DUP5 SLOAD AND DUP5 SSTORE MLOAD PUSH1 0x1 DUP2 MSTORE LOG1 DUP1 RETURN JUMPDEST PUSH2 0x383 PUSH2 0xF81 JUMP JUMPDEST ISZERO PUSH2 0x39A JUMPI POP PUSH2 0x392 SWAP1 PUSH2 0x1073 JUMP JUMPDEST CODESIZE DUP1 DUP1 PUSH2 0x325 JUMP JUMPDEST PUSH1 0x84 SWAP1 PUSH1 0x20 DUP7 MLOAD SWAP2 PUSH3 0x461BCD PUSH1 0xE5 SHL DUP4 MSTORE DUP3 ADD MSTORE PUSH1 0x26 PUSH1 0x24 DUP3 ADD MSTORE PUSH32 0x4F776E61626C653A206E6577206F776E657220697320746865207A65726F2061 PUSH1 0x44 DUP3 ADD MSTORE PUSH6 0x646472657373 PUSH1 0xD0 SHL PUSH1 0x64 DUP3 ADD MSTORE REVERT JUMPDEST PUSH2 0xFFFF NOT AND PUSH2 0x101 OR DUP7 SSTORE CODESIZE PUSH2 0x2B0 JUMP JUMPDEST PUSH1 0x84 SWAP1 PUSH1 0x20 DUP7 MLOAD SWAP2 PUSH3 0x461BCD PUSH1 0xE5 SHL DUP4 MSTORE DUP3 ADD MSTORE PUSH1 0x2E PUSH1 0x24 DUP3 ADD MSTORE PUSH32 0x496E697469616C697A61626C653A20636F6E747261637420697320616C726561 PUSH1 0x44 DUP3 ADD MSTORE PUSH14 0x191E481A5B9A5D1A585B1A5E9959 PUSH1 0x92 SHL PUSH1 0x64 DUP3 ADD MSTORE REVERT JUMPDEST POP ADDRESS EXTCODESIZE ISZERO DUP1 ISZERO PUSH2 0x299 JUMPI POP PUSH1 0x1 PUSH1 0xFF DUP5 AND EQ PUSH2 0x299 JUMP JUMPDEST POP PUSH1 0x1 PUSH1 0xFF DUP5 AND LT PUSH2 0x292 JUMP JUMPDEST POP POP CALLVALUE PUSH2 0x260 JUMPI DUP1 PUSH1 0x3 NOT CALLDATASIZE ADD SLT PUSH2 0x260 JUMPI PUSH2 0x495 PUSH2 0xE34 JUMP JUMPDEST SWAP1 PUSH1 0x24 CALLDATALOAD SWAP2 DUP3 ISZERO ISZERO DUP1 SWAP4 SUB PUSH2 0x4CE JUMPI PUSH2 0x4AC PUSH2 0xF81 JUMP JUMPDEST PUSH1 0x1 DUP1 PUSH1 0xA0 SHL SUB AND DUP4 MSTORE PUSH2 0x12E PUSH1 0x20 MSTORE DUP3 KECCAK256 SWAP1 PUSH1 0xFF DUP1 NOT DUP4 SLOAD AND SWAP2 AND OR SWAP1 SSTORE DUP1 RETURN JUMPDEST DUP4 DUP1 REVERT JUMPDEST POP POP CALLVALUE PUSH2 0x260 JUMPI DUP2 PUSH1 0x3 NOT CALLDATASIZE ADD SLT PUSH2 0x260 JUMPI PUSH1 0x20 SWAP1 PUSH2 0x12F SLOAD SWAP1 MLOAD SWAP1 DUP2 MSTORE RETURN JUMPDEST POP POP CALLVALUE PUSH2 0x260 JUMPI DUP2 PUSH1 0x3 NOT CALLDATASIZE ADD SLT PUSH2 0x260 JUMPI PUSH1 0xFB SLOAD SWAP1 MLOAD PUSH1 0x1 PUSH1 0x1 PUSH1 0xA0 SHL SUB SWAP1 SWAP2 AND DUP2 MSTORE PUSH1 0x20 SWAP1 RETURN JUMPDEST POP POP CALLVALUE PUSH2 0x260 JUMPI DUP2 PUSH1 0x3 NOT CALLDATASIZE ADD SLT PUSH2 0x260 JUMPI PUSH1 0x20 PUSH32 0x62E78CEA01BEE320CD4E420270B5EA74000D11B0C9F74754EBDBFC544B05A258 SWAP2 PUSH2 0x559 PUSH2 0xF81 JUMP JUMPDEST PUSH2 0x561 PUSH2 0xFD9 JUMP JUMPDEST PUSH1 0x1 PUSH1 0xFF NOT PUSH1 0x65 SLOAD AND OR PUSH1 0x65 SSTORE MLOAD CALLER DUP2 MSTORE LOG1 DUP1 RETURN JUMPDEST DUP4 CALLVALUE PUSH2 0x5D3 JUMPI DUP1 PUSH1 0x3 NOT CALLDATASIZE ADD SLT PUSH2 0x5D3 JUMPI PUSH2 0x58F PUSH2 0xF81 JUMP JUMPDEST PUSH1 0xFB DUP1 SLOAD PUSH1 0x1 PUSH1 0x1 PUSH1 0xA0 SHL SUB NOT DUP2 AND SWAP1 SWAP2 SSTORE DUP2 SWAP1 PUSH1 0x1 PUSH1 0x1 PUSH1 0xA0 SHL SUB AND PUSH32 0x8BE0079C531659141344CD1FD0A4F28419497F9722A3DAAFE3B4186F6B6457E0 DUP3 DUP1 LOG3 DUP1 RETURN JUMPDEST DUP1 REVERT JUMPDEST POP POP CALLVALUE PUSH2 0x260 JUMPI DUP2 PUSH1 0x3 NOT CALLDATASIZE ADD SLT PUSH2 0x260 JUMPI PUSH1 0x20 SWAP1 PUSH2 0x130 SLOAD SWAP1 MLOAD SWAP1 DUP2 MSTORE RETURN JUMPDEST POP POP CALLVALUE PUSH2 0x260 JUMPI DUP2 PUSH1 0x3 NOT CALLDATASIZE ADD SLT PUSH2 0x260 JUMPI PUSH1 0x20 SWAP1 PUSH1 0xFF PUSH1 0x65 SLOAD AND SWAP1 MLOAD SWAP1 ISZERO ISZERO DUP2 MSTORE RETURN JUMPDEST POP DUP3 CALLVALUE PUSH2 0x5D3 JUMPI DUP1 PUSH1 0x3 NOT CALLDATASIZE ADD SLT PUSH2 0x5D3 JUMPI POP PUSH32 0x0 PUSH1 0x1 PUSH1 0x1 PUSH1 0xA0 SHL SUB AND ADDRESS SUB PUSH2 0x674 JUMPI PUSH1 0x20 DUP3 MLOAD PUSH1 0x0 DUP1 MLOAD PUSH1 0x20 PUSH2 0x1281 DUP4 CODECOPY DUP2 MLOAD SWAP2 MSTORE DUP2 MSTORE RETURN JUMPDEST PUSH1 0x20 PUSH1 0x84 SWAP3 MLOAD SWAP2 PUSH3 0x461BCD PUSH1 0xE5 SHL DUP4 MSTORE DUP3 ADD MSTORE PUSH1 0x38 PUSH1 0x24 DUP3 ADD MSTORE PUSH32 0x555550535570677261646561626C653A206D757374206E6F742062652063616C PUSH1 0x44 DUP3 ADD MSTORE PUSH32 0x6C6564207468726F7567682064656C656761746563616C6C0000000000000000 PUSH1 0x64 DUP3 ADD MSTORE REVERT JUMPDEST POP SWAP1 DUP1 PUSH1 0x3 NOT CALLDATASIZE ADD SLT PUSH2 0x18C JUMPI PUSH2 0x6F1 PUSH2 0xE34 JUMP JUMPDEST SWAP1 PUSH1 0x24 CALLDATALOAD SWAP1 PUSH8 0xFFFFFFFFFFFFFFFF DUP3 GT PUSH2 0x9D9 JUMPI CALLDATASIZE PUSH1 0x23 DUP4 ADD SLT ISZERO PUSH2 0x9D9 JUMPI DUP2 DUP5 ADD CALLDATALOAD PUSH2 0x71D DUP2 PUSH2 0xEA3 JUMP JUMPDEST PUSH2 0x729 DUP4 MLOAD SWAP2 DUP3 PUSH2 0xE81 JUMP JUMPDEST DUP2 DUP2 MSTORE DUP7 PUSH1 0x20 SWAP5 DUP6 DUP4 ADD SWAP4 CALLDATASIZE PUSH1 0x24 DUP3 DUP5 ADD ADD GT PUSH2 0x18C JUMPI DUP1 PUSH1 0x24 DUP9 SWAP4 ADD DUP7 CALLDATACOPY DUP4 ADD ADD MSTORE PUSH1 0x1 PUSH1 0x1 PUSH1 0xA0 SHL SUB PUSH32 0x0 DUP2 AND SWAP1 PUSH2 0x784 ADDRESS DUP4 EQ ISZERO PUSH2 0xEBF JUMP JUMPDEST PUSH2 0x7A1 PUSH1 0x0 DUP1 MLOAD PUSH1 0x20 PUSH2 0x1281 DUP4 CODECOPY DUP2 MLOAD SWAP2 MSTORE SWAP3 DUP3 DUP5 SLOAD AND EQ PUSH2 0xF20 JUMP JUMPDEST PUSH2 0x7A9 PUSH2 0xF81 JUMP JUMPDEST PUSH32 0x4910FDFA16FED3260ED0E7147F7CC6DA11A60208B5B9406D12A635614FFD9143 SLOAD PUSH1 0xFF AND ISZERO PUSH2 0x7E3 JUMPI POP POP POP POP POP POP PUSH2 0x1CC SWAP2 POP PUSH2 0x111C JUMP JUMPDEST DUP7 SWAP3 SWAP4 SWAP5 SWAP6 SWAP7 AND SWAP1 DUP6 MLOAD PUSH4 0x52D1902D PUSH1 0xE0 SHL DUP2 MSTORE DUP8 DUP2 DUP11 DUP2 DUP7 GAS STATICCALL DUP11 SWAP2 DUP2 PUSH2 0x9A6 JUMPI JUMPDEST POP PUSH2 0x865 JUMPI DUP7 MLOAD PUSH3 0x461BCD PUSH1 0xE5 SHL DUP2 MSTORE DUP1 DUP11 ADD DUP10 SWAP1 MSTORE PUSH1 0x2E PUSH1 0x24 DUP3 ADD MSTORE PUSH32 0x45524331393637557067726164653A206E657720696D706C656D656E74617469 PUSH1 0x44 DUP3 ADD MSTORE PUSH14 0x6F6E206973206E6F742055555053 PUSH1 0x90 SHL PUSH1 0x64 DUP3 ADD MSTORE PUSH1 0x84 SWAP1 REVERT JUMPDEST SWAP8 SWAP2 SWAP3 SWAP4 SWAP7 SWAP6 SWAP5 SWAP8 SUB PUSH2 0x951 JUMPI POP PUSH2 0x87C DUP3 PUSH2 0x111C JUMP JUMPDEST PUSH32 0xBC7CD75A20EE27FD9ADEBAB32041F755214DBC6BFFA90CC0225B39DA2E5C2D3B DUP8 DUP1 LOG2 DUP6 DUP5 MLOAD ISZERO DUP1 ISZERO SWAP1 PUSH2 0x949 JUMPI JUMPDEST PUSH2 0x8BA JUMPI JUMPDEST POP POP POP POP POP POP DUP1 RETURN JUMPDEST DUP1 PUSH2 0x933 SWAP7 DUP5 MLOAD SWAP7 PUSH2 0x8CB DUP9 PUSH2 0xE4F JUMP JUMPDEST PUSH1 0x27 DUP9 MSTORE PUSH32 0x416464726573733A206C6F772D6C6576656C2064656C65676174652063616C6C DUP8 DUP10 ADD MSTORE PUSH7 0x819985A5B1959 PUSH1 0xCA SHL DUP7 DUP10 ADD MSTORE MLOAD SWAP1 DUP5 GAS DELEGATECALL SWAP2 RETURNDATASIZE ISZERO PUSH2 0x93F JUMPI RETURNDATASIZE PUSH2 0x925 PUSH2 0x91C DUP3 PUSH2 0xEA3 JUMP JUMPDEST SWAP3 MLOAD SWAP3 DUP4 PUSH2 0xE81 JUMP JUMPDEST DUP2 MSTORE DUP7 DUP2 SWAP5 RETURNDATASIZE SWAP3 ADD RETURNDATACOPY PUSH2 0x11AC JUMP JUMPDEST POP CODESIZE DUP1 DUP1 DUP1 DUP1 DUP6 PUSH2 0x8B1 JUMP JUMPDEST POP PUSH1 0x60 SWAP3 POP PUSH2 0x11AC JUMP JUMPDEST POP PUSH1 0x1 PUSH2 0x8AC JUMP JUMPDEST DUP4 MLOAD PUSH3 0x461BCD PUSH1 0xE5 SHL DUP2 MSTORE SWAP1 DUP2 ADD DUP6 SWAP1 MSTORE PUSH1 0x29 PUSH1 0x24 DUP3 ADD MSTORE PUSH32 0x45524331393637557067726164653A20756E737570706F727465642070726F78 PUSH1 0x44 DUP3 ADD MSTORE PUSH9 0x1A58589B1955555251 PUSH1 0xBA SHL PUSH1 0x64 DUP3 ADD MSTORE PUSH1 0x84 SWAP1 REVERT JUMPDEST SWAP1 SWAP2 POP DUP9 DUP2 DUP2 RETURNDATASIZE DUP4 GT PUSH2 0x9D2 JUMPI JUMPDEST PUSH2 0x9BE DUP2 DUP4 PUSH2 0xE81 JUMP JUMPDEST DUP2 ADD SUB SLT PUSH2 0x9CE JUMPI MLOAD SWAP1 CODESIZE PUSH2 0x806 JUMP JUMPDEST DUP11 DUP1 REVERT JUMPDEST POP RETURNDATASIZE PUSH2 0x9B4 JUMP JUMPDEST DUP5 DUP1 REVERT JUMPDEST POP POP CALLVALUE PUSH2 0x260 JUMPI PUSH1 0x20 CALLDATASIZE PUSH1 0x3 NOT ADD SLT PUSH2 0x260 JUMPI PUSH2 0x9F8 PUSH2 0xE34 JUMP JUMPDEST PUSH2 0xA00 PUSH2 0xF81 JUMP JUMPDEST PUSH1 0x1 PUSH1 0x1 PUSH1 0xA0 SHL SUB AND DUP3 MSTORE PUSH2 0x12D PUSH1 0x20 MSTORE DUP2 KECCAK256 DUP1 SLOAD PUSH1 0xFF NOT AND SWAP1 SSTORE DUP1 RETURN JUMPDEST POP CALLVALUE PUSH2 0x18C JUMPI DUP3 PUSH1 0x3 NOT CALLDATASIZE ADD SLT PUSH2 0x18C JUMPI PUSH2 0xA37 PUSH2 0xF81 JUMP JUMPDEST PUSH1 0x65 SLOAD SWAP1 PUSH1 0xFF DUP3 AND ISZERO PUSH2 0xA79 JUMPI POP PUSH1 0xFF NOT AND PUSH1 0x65 SSTORE MLOAD CALLER DUP2 MSTORE PUSH32 0x5DB9EE0A495BF2E6FF9C91A7834C1BA4FDD244A5E8AA4E537BD38AEAE4B073AA SWAP1 PUSH1 0x20 SWAP1 LOG1 DUP1 RETURN JUMPDEST PUSH1 0x64 SWAP1 PUSH1 0x20 DUP5 MLOAD SWAP2 PUSH3 0x461BCD PUSH1 0xE5 SHL DUP4 MSTORE DUP3 ADD MSTORE PUSH1 0x14 PUSH1 0x24 DUP3 ADD MSTORE PUSH20 0x14185D5CD8589B194E881B9BDD081C185D5CD959 PUSH1 0x62 SHL PUSH1 0x44 DUP3 ADD MSTORE REVERT JUMPDEST POP POP CALLVALUE PUSH2 0x260 JUMPI PUSH1 0x20 CALLDATASIZE PUSH1 0x3 NOT ADD SLT PUSH2 0x260 JUMPI PUSH1 0x20 SWAP2 PUSH1 0xFF SWAP1 DUP3 SWAP1 PUSH1 0x1 PUSH1 0x1 PUSH1 0xA0 SHL SUB PUSH2 0xADE PUSH2 0xE34 JUMP JUMPDEST AND DUP2 MSTORE PUSH2 0x12D DUP6 MSTORE KECCAK256 SLOAD AND SWAP1 MLOAD SWAP1 ISZERO ISZERO DUP2 MSTORE RETURN JUMPDEST POP SWAP1 CALLVALUE PUSH2 0x18C JUMPI PUSH1 0x20 DUP1 PUSH1 0x3 NOT CALLDATASIZE ADD SLT PUSH2 0x4CE JUMPI PUSH2 0xB0E PUSH2 0xE34 JUMP JUMPDEST SWAP2 PUSH1 0x1 PUSH1 0x1 PUSH1 0xA0 SHL SUB PUSH32 0x0 DUP2 AND PUSH2 0xB46 ADDRESS DUP3 EQ ISZERO PUSH2 0xEBF JUMP JUMPDEST PUSH2 0xB63 PUSH1 0x0 DUP1 MLOAD PUSH1 0x20 PUSH2 0x1281 DUP4 CODECOPY DUP2 MLOAD SWAP2 MSTORE SWAP2 DUP4 DUP4 SLOAD AND EQ PUSH2 0xF20 JUMP JUMPDEST PUSH2 0xB6B PUSH2 0xF81 JUMP JUMPDEST DUP3 MLOAD SWAP1 DUP5 DUP3 ADD SWAP3 DUP3 DUP5 LT PUSH8 0xFFFFFFFFFFFFFFFF DUP6 GT OR PUSH2 0xCD0 JUMPI DUP4 DUP6 MSTORE DUP9 DUP4 MSTORE PUSH32 0x4910FDFA16FED3260ED0E7147F7CC6DA11A60208B5B9406D12A635614FFD9143 SLOAD PUSH1 0xFF AND ISZERO PUSH2 0xBC5 JUMPI POP POP POP POP POP POP PUSH2 0x1CC SWAP2 POP PUSH2 0x111C JUMP JUMPDEST DUP7 SWAP3 SWAP4 SWAP5 SWAP6 SWAP7 AND SWAP1 DUP6 MLOAD PUSH4 0x52D1902D PUSH1 0xE0 SHL DUP2 MSTORE DUP8 DUP2 DUP11 DUP2 DUP7 GAS STATICCALL DUP11 SWAP2 DUP2 PUSH2 0xCA1 JUMPI JUMPDEST POP PUSH2 0xC47 JUMPI DUP7 MLOAD PUSH3 0x461BCD PUSH1 0xE5 SHL DUP2 MSTORE DUP1 DUP11 ADD DUP10 SWAP1 MSTORE PUSH1 0x2E PUSH1 0x24 DUP3 ADD MSTORE PUSH32 0x45524331393637557067726164653A206E657720696D706C656D656E74617469 PUSH1 0x44 DUP3 ADD MSTORE PUSH14 0x6F6E206973206E6F742055555053 PUSH1 0x90 SHL PUSH1 0x64 DUP3 ADD MSTORE PUSH1 0x84 SWAP1 REVERT JUMPDEST SWAP8 SWAP2 SWAP3 SWAP4 SWAP7 SWAP6 SWAP5 SWAP8 SUB PUSH2 0x951 JUMPI POP PUSH2 0xC5E DUP3 PUSH2 0x111C JUMP JUMPDEST PUSH32 0xBC7CD75A20EE27FD9ADEBAB32041F755214DBC6BFFA90CC0225B39DA2E5C2D3B DUP8 DUP1 LOG2 DUP6 DUP5 MLOAD ISZERO DUP1 ISZERO SWAP1 PUSH2 0xC9A JUMPI PUSH2 0x8BA JUMPI POP POP POP POP POP POP DUP1 RETURN JUMPDEST POP DUP1 PUSH2 0x8AC JUMP JUMPDEST SWAP1 SWAP2 POP DUP9 DUP2 DUP2 RETURNDATASIZE DUP4 GT PUSH2 0xCC9 JUMPI JUMPDEST PUSH2 0xCB9 DUP2 DUP4 PUSH2 0xE81 JUMP JUMPDEST DUP2 ADD SUB SLT PUSH2 0x9CE JUMPI MLOAD SWAP1 CODESIZE PUSH2 0xBE8 JUMP JUMPDEST POP RETURNDATASIZE PUSH2 0xCAF JUMP JUMPDEST PUSH4 0x4E487B71 PUSH1 0xE0 SHL DUP10 MSTORE PUSH1 0x41 DUP9 MSTORE PUSH1 0x24 DUP10 REVERT JUMPDEST POP CALLVALUE PUSH2 0x18C JUMPI PUSH1 0x20 CALLDATASIZE PUSH1 0x3 NOT ADD SLT PUSH2 0x18C JUMPI DUP1 CALLDATALOAD SWAP2 CALLER DUP5 MSTORE PUSH2 0x12D PUSH1 0x20 MSTORE PUSH1 0xFF DUP2 DUP6 KECCAK256 SLOAD AND ISZERO PUSH2 0x17F JUMPI POP POP PUSH2 0xD17 PUSH2 0xFD9 JUMP JUMPDEST PUSH2 0xD1F PUSH2 0x101D JUMP JUMPDEST DUP1 PUSH2 0x12F SSTORE PUSH32 0x76261461236844337B0EB16561D37BD90C48CF1B779A7122006F8DF07243D418 DUP3 DUP1 LOG2 PUSH1 0x1 DUP1 SSTORE DUP1 RETURN JUMPDEST POP CALLVALUE PUSH2 0x18C JUMPI PUSH1 0x20 CALLDATASIZE PUSH1 0x3 NOT ADD SLT PUSH2 0x18C JUMPI DUP2 PUSH1 0x20 SWAP4 PUSH1 0xFF SWAP3 CALLDATALOAD DUP2 MSTORE PUSH2 0x131 DUP6 MSTORE KECCAK256 SLOAD AND SWAP1 MLOAD SWAP1 ISZERO ISZERO DUP2 MSTORE RETURN JUMPDEST POP POP CALLVALUE PUSH2 0x260 JUMPI PUSH1 0x20 CALLDATASIZE PUSH1 0x3 NOT ADD SLT PUSH2 0x260 JUMPI PUSH2 0xD97 PUSH2 0xE34 JUMP JUMPDEST PUSH2 0xD9F PUSH2 0xF81 JUMP JUMPDEST PUSH1 0x1 PUSH1 0x1 PUSH1 0xA0 SHL SUB AND DUP3 MSTORE PUSH2 0x12D PUSH1 0x20 MSTORE DUP2 KECCAK256 DUP1 SLOAD PUSH1 0xFF NOT AND PUSH1 0x1 OR SWAP1 SSTORE DUP1 RETURN JUMPDEST SWAP1 POP CALLVALUE PUSH2 0x4CE JUMPI PUSH1 0x20 CALLDATASIZE PUSH1 0x3 NOT ADD SLT PUSH2 0x4CE JUMPI DUP2 CALLDATALOAD SWAP1 CALLER DUP6 MSTORE PUSH2 0x12E PUSH1 0x20 MSTORE PUSH1 0xFF DUP5 DUP7 KECCAK256 SLOAD AND ISZERO PUSH2 0xE26 JUMPI POP DUP1 DUP5 MSTORE PUSH2 0x131 SWAP2 DUP3 PUSH1 0x20 MSTORE PUSH1 0xFF DUP5 DUP7 KECCAK256 SLOAD AND PUSH2 0xE18 JUMPI POP DUP4 MSTORE PUSH1 0x20 MSTORE DUP2 KECCAK256 DUP1 SLOAD PUSH1 0xFF NOT AND PUSH1 0x1 OR SWAP1 SSTORE DUP1 RETURN JUMPDEST DUP4 MLOAD PUSH4 0x92814985 PUSH1 0xE0 SHL DUP2 MSTORE REVERT JUMPDEST PUSH4 0xB86CB9F1 PUSH1 0xE0 SHL DUP2 MSTORE SWAP1 POP REVERT JUMPDEST PUSH1 0x4 CALLDATALOAD SWAP1 PUSH1 0x1 PUSH1 0x1 PUSH1 0xA0 SHL SUB DUP3 AND DUP3 SUB PUSH2 0xE4A JUMPI JUMP JUMPDEST PUSH1 0x0 DUP1 REVERT JUMPDEST PUSH1 0x60 DUP2 ADD SWAP1 DUP2 LT PUSH8 0xFFFFFFFFFFFFFFFF DUP3 GT OR PUSH2 0xE6B JUMPI PUSH1 0x40 MSTORE JUMP JUMPDEST PUSH4 0x4E487B71 PUSH1 0xE0 SHL PUSH1 0x0 MSTORE PUSH1 0x41 PUSH1 0x4 MSTORE PUSH1 0x24 PUSH1 0x0 REVERT JUMPDEST SWAP1 PUSH1 0x1F DUP1 NOT SWAP2 ADD AND DUP2 ADD SWAP1 DUP2 LT PUSH8 0xFFFFFFFFFFFFFFFF DUP3 GT OR PUSH2 0xE6B JUMPI PUSH1 0x40 MSTORE JUMP JUMPDEST PUSH8 0xFFFFFFFFFFFFFFFF DUP2 GT PUSH2 0xE6B JUMPI PUSH1 0x1F ADD PUSH1 0x1F NOT AND PUSH1 0x20 ADD SWAP1 JUMP JUMPDEST ISZERO PUSH2 0xEC6 JUMPI JUMP JUMPDEST PUSH1 0x40 MLOAD PUSH3 0x461BCD PUSH1 0xE5 SHL DUP2 MSTORE PUSH1 0x20 PUSH1 0x4 DUP3 ADD MSTORE PUSH1 0x2C PUSH1 0x24 DUP3 ADD MSTORE PUSH32 0x46756E6374696F6E206D7573742062652063616C6C6564207468726F75676820 PUSH1 0x44 DUP3 ADD MSTORE PUSH12 0x19195B1959D85D1958D85B1B PUSH1 0xA2 SHL PUSH1 0x64 DUP3 ADD MSTORE PUSH1 0x84 SWAP1 REVERT JUMPDEST ISZERO PUSH2 0xF27 JUMPI JUMP JUMPDEST PUSH1 0x40 MLOAD PUSH3 0x461BCD PUSH1 0xE5 SHL DUP2 MSTORE PUSH1 0x20 PUSH1 0x4 DUP3 ADD MSTORE PUSH1 0x2C PUSH1 0x24 DUP3 ADD MSTORE PUSH32 0x46756E6374696F6E206D7573742062652063616C6C6564207468726F75676820 PUSH1 0x44 DUP3 ADD MSTORE PUSH12 0x6163746976652070726F7879 PUSH1 0xA0 SHL PUSH1 0x64 DUP3 ADD MSTORE PUSH1 0x84 SWAP1 REVERT JUMPDEST PUSH1 0xFB SLOAD PUSH1 0x1 PUSH1 0x1 PUSH1 0xA0 SHL SUB AND CALLER SUB PUSH2 0xF95 JUMPI JUMP JUMPDEST PUSH1 0x64 PUSH1 0x40 MLOAD PUSH3 0x461BCD PUSH1 0xE5 SHL DUP2 MSTORE PUSH1 0x20 PUSH1 0x4 DUP3 ADD MSTORE PUSH1 0x20 PUSH1 0x24 DUP3 ADD MSTORE PUSH32 0x4F776E61626C653A2063616C6C6572206973206E6F7420746865206F776E6572 PUSH1 0x44 DUP3 ADD MSTORE REVERT JUMPDEST PUSH1 0xFF PUSH1 0x65 SLOAD AND PUSH2 0xFE5 JUMPI JUMP JUMPDEST PUSH1 0x40 MLOAD PUSH3 0x461BCD PUSH1 0xE5 SHL DUP2 MSTORE PUSH1 0x20 PUSH1 0x4 DUP3 ADD MSTORE PUSH1 0x10 PUSH1 0x24 DUP3 ADD MSTORE PUSH16 0x14185D5CD8589B194E881C185D5CD959 PUSH1 0x82 SHL PUSH1 0x44 DUP3 ADD MSTORE PUSH1 0x64 SWAP1 REVERT JUMPDEST PUSH1 0x2 PUSH1 0x1 SLOAD EQ PUSH2 0x102E JUMPI PUSH1 0x2 PUSH1 0x1 SSTORE JUMP JUMPDEST PUSH1 0x40 MLOAD PUSH3 0x461BCD PUSH1 0xE5 SHL DUP2 MSTORE PUSH1 0x20 PUSH1 0x4 DUP3 ADD MSTORE PUSH1 0x1F PUSH1 0x24 DUP3 ADD MSTORE PUSH32 0x5265656E7472616E637947756172643A207265656E7472616E742063616C6C00 PUSH1 0x44 DUP3 ADD MSTORE PUSH1 0x64 SWAP1 REVERT JUMPDEST PUSH1 0xFB DUP1 SLOAD PUSH1 0x1 PUSH1 0x1 PUSH1 0xA0 SHL SUB SWAP3 DUP4 AND PUSH1 0x1 PUSH1 0x1 PUSH1 0xA0 SHL SUB NOT DUP3 AND DUP2 OR SWAP1 SWAP3 SSTORE SWAP1 SWAP2 AND PUSH32 0x8BE0079C531659141344CD1FD0A4F28419497F9722A3DAAFE3B4186F6B6457E0 PUSH1 0x0 DUP1 LOG3 JUMP JUMPDEST ISZERO PUSH2 0x10C3 JUMPI JUMP JUMPDEST PUSH1 0x40 MLOAD PUSH3 0x461BCD PUSH1 0xE5 SHL DUP2 MSTORE PUSH1 0x20 PUSH1 0x4 DUP3 ADD MSTORE PUSH1 0x2B PUSH1 0x24 DUP3 ADD MSTORE PUSH32 0x496E697469616C697A61626C653A20636F6E7472616374206973206E6F742069 PUSH1 0x44 DUP3 ADD MSTORE PUSH11 0x6E697469616C697A696E67 PUSH1 0xA8 SHL PUSH1 0x64 DUP3 ADD MSTORE PUSH1 0x84 SWAP1 REVERT JUMPDEST DUP1 EXTCODESIZE ISZERO PUSH2 0x1151 JUMPI PUSH1 0x0 DUP1 MLOAD PUSH1 0x20 PUSH2 0x1281 DUP4 CODECOPY DUP2 MLOAD SWAP2 MSTORE DUP1 SLOAD PUSH1 0x1 PUSH1 0x1 PUSH1 0xA0 SHL SUB NOT AND PUSH1 0x1 PUSH1 0x1 PUSH1 0xA0 SHL SUB SWAP1 SWAP3 AND SWAP2 SWAP1 SWAP2 OR SWAP1 SSTORE JUMP JUMPDEST PUSH1 0x40 MLOAD PUSH3 0x461BCD PUSH1 0xE5 SHL DUP2 MSTORE PUSH1 0x20 PUSH1 0x4 DUP3 ADD MSTORE PUSH1 0x2D PUSH1 0x24 DUP3 ADD MSTORE PUSH32 0x455243313936373A206E657720696D706C656D656E746174696F6E206973206E PUSH1 0x44 DUP3 ADD MSTORE PUSH13 0x1BDD08184818DBDB9D1C9858DD PUSH1 0x9A SHL PUSH1 0x64 DUP3 ADD MSTORE PUSH1 0x84 SWAP1 REVERT JUMPDEST SWAP2 SWAP3 SWAP1 ISZERO PUSH2 0x120E JUMPI POP DUP2 MLOAD ISZERO PUSH2 0x11C0 JUMPI POP SWAP1 JUMP JUMPDEST EXTCODESIZE ISZERO PUSH2 0x11C9 JUMPI SWAP1 JUMP JUMPDEST PUSH1 0x40 MLOAD PUSH3 0x461BCD PUSH1 0xE5 SHL DUP2 MSTORE PUSH1 0x20 PUSH1 0x4 DUP3 ADD MSTORE PUSH1 0x1D PUSH1 0x24 DUP3 ADD MSTORE PUSH32 0x416464726573733A2063616C6C20746F206E6F6E2D636F6E7472616374000000 PUSH1 0x44 DUP3 ADD MSTORE PUSH1 0x64 SWAP1 REVERT JUMPDEST DUP3 MLOAD SWAP1 SWAP2 POP ISZERO PUSH2 0x1221 JUMPI POP DUP1 MLOAD SWAP1 PUSH1 0x20 ADD REVERT JUMPDEST PUSH1 0x40 MLOAD SWAP1 PUSH3 0x461BCD PUSH1 0xE5 SHL DUP3 MSTORE DUP2 PUSH1 0x20 DUP1 PUSH1 0x4 DUP4 ADD MSTORE DUP3 MLOAD SWAP1 DUP2 PUSH1 0x24 DUP5 ADD MSTORE PUSH1 0x0 SWAP4 JUMPDEST DUP3 DUP6 LT PUSH2 0x1267 JUMPI POP POP PUSH1 0x44 SWAP3 POP PUSH1 0x0 DUP4 DUP3 DUP5 ADD ADD MSTORE PUSH1 0x1F DUP1 NOT SWAP2 ADD AND DUP2 ADD SUB ADD SWAP1 REVERT JUMPDEST DUP5 DUP2 ADD DUP3 ADD MLOAD DUP7 DUP7 ADD PUSH1 0x44 ADD MSTORE SWAP4 DUP2 ADD SWAP4 DUP6 SWAP4 POP PUSH2 0x1244 JUMP INVALID CALLDATASIZE ADDMOD SWAP5 LOG1 EXTCODESIZE LOG1 LOG3 0x21 MOD PUSH8 0xC828492DB98DCA3E KECCAK256 PUSH23 0xCC3735A920A3CA505D382BBCA2646970667358221220BC CALLER ADDRESS SWAP10 0xEF 0x21 0xE5 0x2C 0xC0 0xBA BLOBBASEFEE JUMPI PUSH11 0xB89498CD708027E4380E81 0x21 PUSH0 GASLIMIT 0xDD SWAP13 0xBD SDIV INVALID PUSH5 0x736F6C6343 STOP ADDMOD XOR STOP CALLER "},"methodIdentifiers":{"activeRoot()":"abb2efdf","addIssuer(address)":"20694db0","initialize(address)":"c4d66de8","isNullifierUsed(bytes32)":"22dc7b4c","issuers(address)":"38a7543e","markNullifierUsed(bytes32)":"057cb0f5","owner()":"8da5cb5b","pause()":"8456cb59","paused()":"5c975abb","proxiableUUID()":"52d1902d","removeIssuer(address)":"47bc7093","renounceOwnership()":"715018a6","revokedSecretRoot()":"6b6debf7","sessionManagers(address)":"eb9e5849","setSessionManager(address,bool)":"c1c67f5f","transferOwnership(address)":"f2fde38b","unpause()":"3f4ba83a","updateActiveRoot(bytes32)":"23914869","updateRevokedSecretRoot(bytes32)":"f54e3a85","upgradeTo(address)":"3659cfe6","upgradeToAndCall(address,bytes)":"4f1ef286","usedNullifiers(bytes32)":"206137aa"}}}}}