{"src/mocks/MockVerifier.sol":{"MockVerifier":{"abi":[{"anonymous":false,"inputs":[{"indexed":false,"internalType":"bool","name":"result","type":"bool"},{"indexed":false,"internalType":"uint256[]","name":"publicSignals","type":"uint256[]"}],"name":"ProofVerified","type":"event"},{"inputs":[],"name":"expectedResult","outputs":[{"internalType":"bool","name":"","type":"bool"}],"stateMutability":"view","type":"function"},{"inputs":[{"internalType":"bool","name":"_result","type":"bool"}],"name":"setResult","outputs":[],"stateMutability":"nonpayable","type":"function"},{"inputs":[{"internalType":"uint256[2]","name":"","type":"uint256[2]"},{"internalType":"uint256[2][2]","name":"","type":"uint256[2][2]"},{"internalType":"uint256[2]","name":"","type":"uint256[2]"},{"internalType":"uint256[5]","name":"","type":"uint256[5]"}],"name":"verifyProof","outputs":[{"internalType":"bool","name":"","type":"bool"}],"stateMutability":"view","type":"function"}],"evm":{"bytecode":{"linkReferences":{},"object":"60806040526000805460ff1916600117905534801561001d57600080fd5b506101828061002d6000396000f3fe608060405234801561001057600080fd5b50600436106100415760003560e01c806334baeab914610046578063d40cae4f14610076578063f4b4dc2e14610083575b600080fd5b6100626100543660046100bd565b60005460ff16949350505050565b604051901515815260200160405180910390f35b6000546100629060ff1681565b6100a4610091366004610123565b6000805460ff1916911515919091179055565b005b80604081018310156100b757600080fd5b92915050565b6000806000806101a08086880312156100d557600080fd5b6100df87876100a6565b945060c08601878111156100f257600080fd5b60408701945061010288826100a6565b93505086818701111561011457600080fd5b50929591945092610100019150565b60006020828403121561013557600080fd5b8135801515811461014557600080fd5b939250505056fea26469706673582212206470abc828d7a547d651541d2f0979904571dc6295172be8fdbc5a2125d98aea64736f6c63430008180033","opcodes":"PUSH1 0x80 PUSH1 0x40 MSTORE PUSH1 0x0 DUP1 SLOAD PUSH1 0xFF NOT AND PUSH1 0x1 OR SWAP1 SSTORE CALLVALUE DUP1 ISZERO PUSH2 0x1D JUMPI PUSH1 0x0 DUP1 REVERT JUMPDEST POP PUSH2 0x182 DUP1 PUSH2 0x2D PUSH1 0x0 CODECOPY PUSH1 0x0 RETURN INVALID PUSH1 0x80 PUSH1 0x40 MSTORE CALLVALUE DUP1 ISZERO PUSH2 0x10 JUMPI PUSH1 0x0 DUP1 REVERT JUMPDEST POP PUSH1 0x4 CALLDATASIZE LT PUSH2 0x41 JUMPI PUSH1 0x0 CALLDATALOAD PUSH1 0xE0 SHR DUP1 PUSH4 0x34BAEAB9 EQ PUSH2 0x46 JUMPI DUP1 PUSH4 0xD40CAE4F EQ PUSH2 0x76 JUMPI DUP1 PUSH4 0xF4B4DC2E EQ PUSH2 0x83 JUMPI JUMPDEST PUSH1 0x0 DUP1 REVERT JUMPDEST PUSH2 0x62 PUSH2 0x54 CALLDATASIZE PUSH1 0x4 PUSH2 0xBD JUMP JUMPDEST PUSH1 0x0 SLOAD PUSH1 0xFF AND SWAP5 SWAP4 POP POP POP POP JUMP JUMPDEST PUSH1 0x40 MLOAD SWAP1 ISZERO ISZERO DUP2 MSTORE PUSH1 0x20 ADD PUSH1 0x40 MLOAD DUP1 SWAP2 SUB SWAP1 RETURN JUMPDEST PUSH1 0x0 SLOAD PUSH2 0x62 SWAP1 PUSH1 0xFF AND DUP2 JUMP JUMPDEST PUSH2 0xA4 PUSH2 0x91 CALLDATASIZE PUSH1 0x4 PUSH2 0x123 JUMP JUMPDEST PUSH1 0x0 DUP1 SLOAD PUSH1 0xFF NOT AND SWAP2 ISZERO ISZERO SWAP2 SWAP1 SWAP2 OR SWAP1 SSTORE JUMP JUMPDEST STOP JUMPDEST DUP1 PUSH1 0x40 DUP2 ADD DUP4 LT ISZERO PUSH2 0xB7 JUMPI PUSH1 0x0 DUP1 REVERT JUMPDEST SWAP3 SWAP2 POP POP JUMP JUMPDEST PUSH1 0x0 DUP1 PUSH1 0x0 DUP1 PUSH2 0x1A0 DUP1 DUP7 DUP9 SUB SLT ISZERO PUSH2 0xD5 JUMPI PUSH1 0x0 DUP1 REVERT JUMPDEST PUSH2 0xDF DUP8 DUP8 PUSH2 0xA6 JUMP JUMPDEST SWAP5 POP PUSH1 0xC0 DUP7 ADD DUP8 DUP2 GT ISZERO PUSH2 0xF2 JUMPI PUSH1 0x0 DUP1 REVERT JUMPDEST PUSH1 0x40 DUP8 ADD SWAP5 POP PUSH2 0x102 DUP9 DUP3 PUSH2 0xA6 JUMP JUMPDEST SWAP4 POP POP DUP7 DUP2 DUP8 ADD GT ISZERO PUSH2 0x114 JUMPI PUSH1 0x0 DUP1 REVERT JUMPDEST POP SWAP3 SWAP6 SWAP2 SWAP5 POP SWAP3 PUSH2 0x100 ADD SWAP2 POP JUMP JUMPDEST PUSH1 0x0 PUSH1 0x20 DUP3 DUP5 SUB SLT ISZERO PUSH2 0x135 JUMPI PUSH1 0x0 DUP1 REVERT JUMPDEST DUP2 CALLDATALOAD DUP1 ISZERO ISZERO DUP2 EQ PUSH2 0x145 JUMPI PUSH1 0x0 DUP1 REVERT JUMPDEST SWAP4 SWAP3 POP POP POP JUMP INVALID LOG2 PUSH5 0x6970667358 0x22 SLT KECCAK256 PUSH5 0x70ABC828D7 0xA5 SELFBALANCE 0xD6 MLOAD SLOAD SAR 0x2F MULMOD PUSH26 0x904571DC6295172BE8FDBC5A2125D98AEA64736F6C6343000818 STOP CALLER "},"methodIdentifiers":{"expectedResult()":"d40cae4f","setResult(bool)":"f4b4dc2e","verifyProof(uint256[2],uint256[2][2],uint256[2],uint256[5])":"34baeab9"}}}}}