{"src/DelegationManager.sol":{"DelegationManager":{"abi":[{"inputs":[],"stateMutability":"nonpayable","type":"constructor"},{"inputs":[],"name":"AlreadyRevokedDelegation","type":"error"},{"inputs":[],"name":"EmptyChain","type":"error"},{"inputs":[],"name":"NotAuthorizedForDelegation","type":"error"},{"anonymous":false,"inputs":[{"indexed":false,"internalType":"address","name":"previousAdmin","type":"address"},{"indexed":false,"internalType":"address","name":"newAdmin","type":"address"}],"name":"AdminChanged","type":"event"},{"anonymous":false,"inputs":[{"indexed":true,"internalType":"address","name":"beacon","type":"address"}],"name":"BeaconUpgraded","type":"event"},{"anonymous":false,"inputs":[{"indexed":true,"internalType":"bytes32","name":"delegationLeafHash","type":"bytes32"}],"name":"DelegationRevoked","type":"event"},{"anonymous":false,"inputs":[{"indexed":true,"internalType":"address","name":"delegator","type":"address"},{"indexed":false,"internalType":"bytes32","name":"newRoot","type":"bytes32"}],"name":"DelegationRootUpdated","type":"event"},{"anonymous":false,"inputs":[{"indexed":false,"internalType":"uint8","name":"version","type":"uint8"}],"name":"Initialized","type":"event"},{"anonymous":false,"inputs":[{"indexed":true,"internalType":"address","name":"previousOwner","type":"address"},{"indexed":true,"internalType":"address","name":"newOwner","type":"address"}],"name":"OwnershipTransferred","type":"event"},{"anonymous":false,"inputs":[{"indexed":false,"internalType":"address","name":"account","type":"address"}],"name":"Paused","type":"event"},{"anonymous":false,"inputs":[{"indexed":false,"internalType":"address","name":"account","type":"address"}],"name":"Unpaused","type":"event"},{"anonymous":false,"inputs":[{"indexed":true,"internalType":"address","name":"implementation","type":"address"}],"name":"Upgraded","type":"event"},{"inputs":[{"internalType":"address","name":"","type":"address"}],"name":"delegationRoots","outputs":[{"internalType":"bytes32","name":"","type":"bytes32"}],"stateMutability":"view","type":"function"},{"inputs":[{"internalType":"address","name":"delegator","type":"address"}],"name":"getDelegationRoot","outputs":[{"internalType":"bytes32","name":"","type":"bytes32"}],"stateMutability":"view","type":"function"},{"inputs":[{"internalType":"address","name":"owner_","type":"address"}],"name":"initialize","outputs":[],"stateMutability":"nonpayable","type":"function"},{"inputs":[],"name":"owner","outputs":[{"internalType":"address","name":"","type":"address"}],"stateMutability":"view","type":"function"},{"inputs":[],"name":"pause","outputs":[],"stateMutability":"nonpayable","type":"function"},{"inputs":[],"name":"paused","outputs":[{"internalType":"bool","name":"","type":"bool"}],"stateMutability":"view","type":"function"},{"inputs":[],"name":"proxiableUUID","outputs":[{"internalType":"bytes32","name":"","type":"bytes32"}],"stateMutability":"view","type":"function"},{"inputs":[],"name":"renounceOwnership","outputs":[],"stateMutability":"nonpayable","type":"function"},{"inputs":[{"internalType":"bytes32","name":"delegationLeafHash","type":"bytes32"},{"internalType":"address","name":"delegator","type":"address"}],"name":"revokeDelegation","outputs":[],"stateMutability":"nonpayable","type":"function"},{"inputs":[{"internalType":"bytes32","name":"","type":"bytes32"}],"name":"revokedDelegations","outputs":[{"internalType":"bool","name":"","type":"bool"}],"stateMutability":"view","type":"function"},{"inputs":[{"internalType":"address","name":"","type":"address"}],"name":"rootUpdaters","outputs":[{"internalType":"bool","name":"","type":"bool"}],"stateMutability":"view","type":"function"},{"inputs":[{"internalType":"address","name":"updater","type":"address"},{"internalType":"bool","name":"allowed","type":"bool"}],"name":"setRootUpdater","outputs":[],"stateMutability":"nonpayable","type":"function"},{"inputs":[{"internalType":"address","name":"newOwner","type":"address"}],"name":"transferOwnership","outputs":[],"stateMutability":"nonpayable","type":"function"},{"inputs":[],"name":"unpause","outputs":[],"stateMutability":"nonpayable","type":"function"},{"inputs":[{"internalType":"address","name":"delegator","type":"address"},{"internalType":"bytes32","name":"newRoot","type":"bytes32"}],"name":"updateDelegationRoot","outputs":[],"stateMutability":"nonpayable","type":"function"},{"inputs":[{"internalType":"address","name":"newImplementation","type":"address"}],"name":"upgradeTo","outputs":[],"stateMutability":"nonpayable","type":"function"},{"inputs":[{"internalType":"address","name":"newImplementation","type":"address"},{"internalType":"bytes","name":"data","type":"bytes"}],"name":"upgradeToAndCall","outputs":[],"stateMutability":"payable","type":"function"},{"inputs":[{"internalType":"bytes32","name":"delegationLeaf","type":"bytes32"},{"internalType":"bytes32[]","name":"merkleProof","type":"bytes32[]"},{"internalType":"address","name":"delegator","type":"address"},{"internalType":"bytes32","name":"scopeHash","type":"bytes32"},{"internalType":"uint64","name":"expiresAt","type":"uint64"},{"internalType":"uint8","name":"maxDepth","type":"uint8"}],"name":"verifyDelegation","outputs":[{"internalType":"bool","name":"","type":"bool"}],"stateMutability":"view","type":"function"},{"inputs":[{"internalType":"bytes32[]","name":"delegationLeaves","type":"bytes32[]"},{"internalType":"bytes32[][]","name":"merkleProofs","type":"bytes32[][]"},{"internalType":"address[]","name":"delegators","type":"address[]"},{"internalType":"address[]","name":"delegates","type":"address[]"},{"internalType":"bytes32[]","name":"scopeHashes","type":"bytes32[]"},{"internalType":"uint64[]","name":"expiries","type":"uint64[]"},{"internalType":"uint8[]","name":"maxDepths","type":"uint8[]"}],"name":"verifyDelegationChain","outputs":[{"internalType":"bool","name":"","type":"bool"}],"stateMutability":"view","type":"function"},{"inputs":[{"internalType":"bytes32","name":"delegationLeaf","type":"bytes32"},{"internalType":"bytes32[]","name":"merkleProof","type":"bytes32[]"},{"internalType":"address","name":"delegator","type":"address"},{"internalType":"string","name":"action","type":"string"},{"internalType":"uint64","name":"expiresAt","type":"uint64"},{"internalType":"uint8","name":"maxDepth","type":"uint8"}],"name":"verifyDelegationForAction","outputs":[{"internalType":"bool","name":"","type":"bool"}],"stateMutability":"view","type":"function"}],"evm":{"bytecode":{"linkReferences":{},"object":"60a080604052346100dc57306080526000549060ff8260081c1661008a575060ff8082160361004f575b60405161184b90816100e2823960805181818161079d015281816108c30152610c760152f35b60ff90811916176000557f7f26b83ff96e1f2b6a682f133852f6798a09c465da95921460cefb3847402498602060405160ff8152a138610029565b62461bcd60e51b815260206004820152602760248201527f496e697469616c697a61626c653a20636f6e747261637420697320696e697469604482015266616c697a696e6760c81b6064820152608490fd5b600080fdfe6080604081815260048036101561001557600080fd5b600092833560e01c9081631422050114610e6c57508063232acf5e14610e3f5780632d9fa06f14610b425780633659cfe614610c4f578063372b102d14610c105780633f4ba83a14610b7b5780634bf04c7314610b425780634f1ef2861461084a57806352d1902d1461078857806353739410146107315780635c975abb1461070d578063715018a6146106b05780638456cb591461061d5780638da5cb5b146105f057806396f16c17146104fe578063afa6a1cf14610499578063be2ca9d0146103df578063c4d66de81461025d578063f2fde38b146101cc5763f53da7cd146100ff57600080fd5b346101c85760c03660031901126101c8576001600160401b03906024358281116101c4576101309036908301610fbc565b61013b929192610f1e565b906064358581116101c057366023820112156101c057808401359586116101c05736602487830101116101c0579160209793916101b796959361017c610fec565b956101ab8b610189611002565b998c519381859260248585019801883782019083820152038084520182610f80565b5190209333933561137a565b90519015158152f35b8780fd5b8480fd5b8280fd5b50346101c85760203660031901126101c8576101e6610f03565b916101ef6112d9565b6001600160a01b0383161561020b578361020884611331565b80f35b906020608492519162461bcd60e51b8352820152602660248201527f4f776e61626c653a206e6577206f776e657220697320746865207a65726f206160448201526564647265737360d01b6064820152fd5b50346101c85760203660031901126101c857610277610f03565b5082549060ff8260081c1615908180926103d2575b80156103bb575b15610361575060ff1982811660011785559181610350575b506102c560ff855460081c166102c081611631565b611631565b6102ce33611331565b61031084549260ff8460081c16906102e582611631565b6102ee82611631565b600180556102fb82611631565b61030482611631565b60655416606555611631565b610318578280f35b61ff001916825551600181527f7f26b83ff96e1f2b6a682f133852f6798a09c465da95921460cefb384740249890602090a138808280f35b61ffff1916610101178455386102ab565b608490602085519162461bcd60e51b8352820152602e60248201527f496e697469616c697a61626c653a20636f6e747261637420697320616c72656160448201526d191e481a5b9a5d1a585b1a5e995960921b6064820152fd5b50303b1580156102935750600160ff841614610293565b50600160ff84161061028c565b5090346101c857806003193601126101c8578135916001600160a01b0360243581811690819003610495573314159081610486575b506104785782845261012e908160205260ff838620541661046a57508284526020528220805460ff191660011790557f6eb24ce38eb0f7d1e3b4291d5543c7286f02be3daed061b0f7eb6491213deb218280a280f35b8251635f7e390160e01b8152fd5b9051634c89e43b60e01b8152fd5b905060fb541633141538610414565b8580fd5b5091346104fb5760c03660031901126104fb57602435906001600160401b0382116104fb57506020926104d26101b79236908301610fbc565b91906104dc610f1e565b916104e5610fec565b926104ee611002565b946064359333933561137a565b80fd5b50346101c85760e03660031901126101c8576001600160401b0381358181116101c45761052e9036908401610fbc565b9490926024358381116101c8576105489036908301610fbc565b6044929192358581116101c4576105629036908401610fbc565b6064929192358781116105ec5761057c9036908601610fbc565b9390926084358981116105e8576105969036908801610fbc565b97909660a4358b81116105e4576105b09036908301610fbc565b9b909a60c4359182116104fb5750916105dc60209f9c9a989694926101b79e9c9a989694369101610fbc565b9c909b61110e565b8a80fd5b8880fd5b8680fd5b50503461061957816003193601126106195760fb5490516001600160a01b039091168152602090f35b5080fd5b50346101c857826003193601126101c8576106366112d9565b6065549060ff821661067a575060ff1916600117606555513381527f62e78cea01bee320cd4e420270b5ea74000d11b0c9f74754ebdbfc544b05a25890602090a180f35b606490602084519162461bcd60e51b8352820152601060248201526f14185d5cd8589b194e881c185d5cd95960821b6044820152fd5b83346104fb57806003193601126104fb576106c96112d9565b60fb80546001600160a01b0319811690915581906001600160a01b03167f8be0079c531659141344cd1fd0a4f28419497f9722a3daafe3b4186f6b6457e08280a380f35b50503461061957816003193601126106195760209060ff6065541690519015158152f35b50503461061957806003193601126106195761074b610f03565b9060243591821515809303610784576107626112d9565b60018060a01b0316835261012f60205282209060ff8019835416911617905580f35b8380fd5b5082346104fb57806003193601126104fb57507f00000000000000000000000000000000000000000000000000000000000000006001600160a01b031630036107e257602082516000805160206117f68339815191528152f35b6020608492519162461bcd60e51b8352820152603860248201527f555550535570677261646561626c653a206d757374206e6f742062652063616c60448201527f6c6564207468726f7567682064656c656761746563616c6c00000000000000006064820152fd5b5090806003193601126101c85761085f610f03565b90602435906001600160401b0382116101c457366023830112156101c4578184013561088a81610fa1565b61089683519182610f80565b818152866020948583019336602482840101116101c8578060248893018637830101526001600160a01b037f00000000000000000000000000000000000000000000000000000000000000008116906108f130831415611012565b61090e6000805160206117f6833981519152928284541614611073565b6109166112d9565b7f4910fdfa16fed3260ed0e7147f7cc6da11a60208b5b9406d12a635614ffd91435460ff1615610950575050505050506102089150611691565b869293949596169085516352d1902d60e01b815287818a81865afa8a9181610b13575b506109d257865162461bcd60e51b8152808a01899052602e60248201527f45524331393637557067726164653a206e657720696d706c656d656e7461746960448201526d6f6e206973206e6f74205555505360901b6064820152608490fd5b979192939695949703610abe57506109e982611691565b7fbc7cd75a20ee27fd9adebab32041f755214dbc6bffa90cc0225b39da2e5c2d3b8780a285845115801590610ab6575b610a27575b50505050505080f35b80610aa096845196610a3888610f34565b602788527f416464726573733a206c6f772d6c6576656c2064656c65676174652063616c6c87890152660819985a5b195960ca1b868901525190845af4913d15610aac573d610a92610a8982610fa1565b92519283610f80565b81528681943d92013e611721565b50388080808085610a1e565b5060609250611721565b506001610a19565b835162461bcd60e51b8152908101859052602960248201527f45524331393637557067726164653a20756e737570706f727465642070726f786044820152681a58589b195555525160ba1b6064820152608490fd5b9091508881813d8311610b3b575b610b2b8183610f80565b810103126105e457519038610973565b503d610b21565b5050346106195760203660031901126106195760209181906001600160a01b03610b6a610f03565b16815261012d845220549051908152f35b50346101c857826003193601126101c857610b946112d9565b6065549060ff821615610bd6575060ff1916606555513381527f5db9ee0a495bf2e6ff9c91a7834c1ba4fdd244a5e8aa4e537bd38aeae4b073aa90602090a180f35b606490602084519162461bcd60e51b8352820152601460248201527314185d5cd8589b194e881b9bdd081c185d5cd95960621b6044820152fd5b5050346106195760203660031901126106195760209160ff9082906001600160a01b03610c3b610f03565b16815261012f855220541690519015158152f35b5090346101c85760208060031936011261078457610c6b610f03565b916001600160a01b037f00000000000000000000000000000000000000000000000000000000000000008116610ca330821415611012565b610cc06000805160206117f6833981519152918383541614611073565b610cc86112d9565b825190848201928284106001600160401b03851117610e2c578385528883527f4910fdfa16fed3260ed0e7147f7cc6da11a60208b5b9406d12a635614ffd91435460ff1615610d21575050505050506102089150611691565b869293949596169085516352d1902d60e01b815287818a81865afa8a9181610dfd575b50610da357865162461bcd60e51b8152808a01899052602e60248201527f45524331393637557067726164653a206e657720696d706c656d656e7461746960448201526d6f6e206973206e6f74205555505360901b6064820152608490fd5b979192939695949703610abe5750610dba82611691565b7fbc7cd75a20ee27fd9adebab32041f755214dbc6bffa90cc0225b39da2e5c2d3b8780a285845115801590610df657610a275750505050505080f35b5080610a19565b9091508881813d8311610e25575b610e158183610f80565b810103126105e457519038610d44565b503d610e0b565b634e487b7160e01b895260418852602489fd5b50346101c85760203660031901126101c8578160209360ff9235815261012e855220541690519015158152f35b92905034610784578060031936011261078457610e87610f03565b6001600160a01b03169260243592903385141580610eec575b610ee05750507feda38b4c19d200d522d6cafb61691a66a8d392081e10536a96529fe56ce5269c9160209184865261012d8352818187205551908152a280f35b634c89e43b60e01b8152fd5b5033865261012f60205260ff838720541615610ea0565b600435906001600160a01b0382168203610f1957565b600080fd5b604435906001600160a01b0382168203610f1957565b606081019081106001600160401b03821117610f4f57604052565b634e487b7160e01b600052604160045260246000fd5b60c081019081106001600160401b03821117610f4f57604052565b90601f801991011681019081106001600160401b03821117610f4f57604052565b6001600160401b038111610f4f57601f01601f191660200190565b9181601f84011215610f19578235916001600160401b038311610f19576020808501948460051b010111610f1957565b608435906001600160401b0382168203610f1957565b60a4359060ff82168203610f1957565b1561101957565b60405162461bcd60e51b815260206004820152602c60248201527f46756e6374696f6e206d7573742062652063616c6c6564207468726f7567682060448201526b19195b1959d85d1958d85b1b60a21b6064820152608490fd5b1561107a57565b60405162461bcd60e51b815260206004820152602c60248201527f46756e6374696f6e206d7573742062652063616c6c6564207468726f7567682060448201526b6163746976652070726f787960a01b6064820152608490fd5b91908110156110e45760051b0190565b634e487b7160e01b600052603260045260246000fd5b356001600160a01b0381168103610f195790565b9296989599939b9c909c9a949a9791978d156112c7576000978e5b891061114357505050505050505050505050505050600190565b6000198f018f811161129a578f908a8e8e9282146000146112b0575061116d915033925b886110d4565b35828b10156110e4578f8f928c918e600593841b81013590601e1990360301811215610f19578f01918235956001600160401b0393848811610f19576020889101951b36038513610f19578f8f908f8f95828f95946111db6111d6836111e8986111e1966110d4565b6110fa565b966110d4565b35956110d4565b359384168403610f19578f966111ff888c8c6110d4565b359560ff8088168803610f195760018a01809a1161129a576112229916976114d8565b15611246578d8915158a8f8261125a575b505090506112465760018f990198611129565b505050505050505050505050505050600090565b6111d69250611268936110d4565b6000198a018a811161129a578d61128c6111d68f9360018060a01b039485946110d4565b16911614158e908a8f611233565b634e487b7160e01b600052601160045260246000fd5b6111d68261116d946112c1936110d4565b92611167565b604051630b1bc1e560e21b8152600490fd5b60fb546001600160a01b031633036112ed57565b606460405162461bcd60e51b815260206004820152602060248201527f4f776e61626c653a2063616c6c6572206973206e6f7420746865206f776e65726044820152fd5b60fb80546001600160a01b039283166001600160a01b0319821681179092559091167f8be0079c531659141344cd1fd0a4f28419497f9722a3daafe3b4186f6b6457e0600080a3565b6001600160a01b03938416600081815261012d60209081526040808320549b969a979995989197909692959192908c156114bf5785875261012e60205260ff88882054166114bf576001600160401b031690811515806114cf575b6114bf5760ff169160019a836001116114ae578851602081019687529416848901526060840152608083015260a080830191909152815282919061141881610f65565b519020036114a35795949392919080955b80871061143b57505050505050501490565b9091929394869761144e829884896110d4565b3580821015611481578551908782019283528682015285815261147081610f34565b5190205b9701959493929190611429565b908551908782019283528682015285815261149b81610f34565b519020611474565b509550505050505090565b505050505050509550505050505090565b5050505050509550505050505090565b504282106113d5565b91969095979394929460018060a01b038096169160009483865260209761012d602052604097888820549c8d156116175787895261012e60205260ff8a8a205416611617576001600160401b03169384151580611628575b6116175760ff90811694939291168410611607578851602081019687529416848901526060840152608083015260a080830191909152815282919061157481610f65565b519020036115fd57949392919080945b808610611595575050505050501490565b9091929394956001906115a98884896110d4565b35808210156115db57855190878201928352868201528581526115cb81610f34565b5190205b96019493929190611584565b90855190878201928352868201528581526115f581610f34565b5190206115cf565b5094505050505090565b5050505050505094505050505090565b505050505050505094505050505090565b50428510611530565b1561163857565b60405162461bcd60e51b815260206004820152602b60248201527f496e697469616c697a61626c653a20636f6e7472616374206973206e6f74206960448201526a6e697469616c697a696e6760a81b6064820152608490fd5b803b156116c6576000805160206117f683398151915280546001600160a01b0319166001600160a01b03909216919091179055565b60405162461bcd60e51b815260206004820152602d60248201527f455243313936373a206e657720696d706c656d656e746174696f6e206973206e60448201526c1bdd08184818dbdb9d1c9858dd609a1b6064820152608490fd5b919290156117835750815115611735575090565b3b1561173e5790565b60405162461bcd60e51b815260206004820152601d60248201527f416464726573733a2063616c6c20746f206e6f6e2d636f6e74726163740000006044820152606490fd5b8251909150156117965750805190602001fd5b6040519062461bcd60e51b82528160208060048301528251908160248401526000935b8285106117dc575050604492506000838284010152601f80199101168101030190fd5b84810182015186860160440152938101938593506117b956fe360894a13ba1a3210667c828492db98dca3e2076cc3735a920a3ca505d382bbca2646970667358221220e1805e4df38aadf7ff2429e7ff75ac725127e25405ec10754975065fdbc003d264736f6c63430008180033","opcodes":"PUSH1 0xA0 DUP1 PUSH1 0x40 MSTORE CALLVALUE PUSH2 0xDC JUMPI ADDRESS PUSH1 0x80 MSTORE PUSH1 0x0 SLOAD SWAP1 PUSH1 0xFF DUP3 PUSH1 0x8 SHR AND PUSH2 0x8A JUMPI POP PUSH1 0xFF DUP1 DUP3 AND SUB PUSH2 0x4F JUMPI JUMPDEST PUSH1 0x40 MLOAD PUSH2 0x184B SWAP1 DUP2 PUSH2 0xE2 DUP3 CODECOPY PUSH1 0x80 MLOAD DUP2 DUP2 DUP2 PUSH2 0x79D ADD MSTORE DUP2 DUP2 PUSH2 0x8C3 ADD MSTORE PUSH2 0xC76 ADD MSTORE RETURN JUMPDEST PUSH1 0xFF SWAP1 DUP2 NOT AND OR PUSH1 0x0 SSTORE PUSH32 0x7F26B83FF96E1F2B6A682F133852F6798A09C465DA95921460CEFB3847402498 PUSH1 0x20 PUSH1 0x40 MLOAD PUSH1 0xFF DUP2 MSTORE LOG1 CODESIZE PUSH2 0x29 JUMP JUMPDEST PUSH3 0x461BCD PUSH1 0xE5 SHL DUP2 MSTORE PUSH1 0x20 PUSH1 0x4 DUP3 ADD MSTORE PUSH1 0x27 PUSH1 0x24 DUP3 ADD MSTORE PUSH32 0x496E697469616C697A61626C653A20636F6E747261637420697320696E697469 PUSH1 0x44 DUP3 ADD MSTORE PUSH7 0x616C697A696E67 PUSH1 0xC8 SHL PUSH1 0x64 DUP3 ADD MSTORE PUSH1 0x84 SWAP1 REVERT JUMPDEST PUSH1 0x0 DUP1 REVERT INVALID PUSH1 0x80 PUSH1 0x40 DUP2 DUP2 MSTORE PUSH1 0x4 DUP1 CALLDATASIZE LT ISZERO PUSH2 0x15 JUMPI PUSH1 0x0 DUP1 REVERT JUMPDEST PUSH1 0x0 SWAP3 DUP4 CALLDATALOAD PUSH1 0xE0 SHR SWAP1 DUP2 PUSH4 0x14220501 EQ PUSH2 0xE6C JUMPI POP DUP1 PUSH4 0x232ACF5E EQ PUSH2 0xE3F JUMPI DUP1 PUSH4 0x2D9FA06F EQ PUSH2 0xB42 JUMPI DUP1 PUSH4 0x3659CFE6 EQ PUSH2 0xC4F JUMPI DUP1 PUSH4 0x372B102D EQ PUSH2 0xC10 JUMPI DUP1 PUSH4 0x3F4BA83A EQ PUSH2 0xB7B JUMPI DUP1 PUSH4 0x4BF04C73 EQ PUSH2 0xB42 JUMPI DUP1 PUSH4 0x4F1EF286 EQ PUSH2 0x84A JUMPI DUP1 PUSH4 0x52D1902D EQ PUSH2 0x788 JUMPI DUP1 PUSH4 0x53739410 EQ PUSH2 0x731 JUMPI DUP1 PUSH4 0x5C975ABB EQ PUSH2 0x70D JUMPI DUP1 PUSH4 0x715018A6 EQ PUSH2 0x6B0 JUMPI DUP1 PUSH4 0x8456CB59 EQ PUSH2 0x61D JUMPI DUP1 PUSH4 0x8DA5CB5B EQ PUSH2 0x5F0 JUMPI DUP1 PUSH4 0x96F16C17 EQ PUSH2 0x4FE JUMPI DUP1 PUSH4 0xAFA6A1CF EQ PUSH2 0x499 JUMPI DUP1 PUSH4 0xBE2CA9D0 EQ PUSH2 0x3DF JUMPI DUP1 PUSH4 0xC4D66DE8 EQ PUSH2 0x25D JUMPI DUP1 PUSH4 0xF2FDE38B EQ PUSH2 0x1CC JUMPI PUSH4 0xF53DA7CD EQ PUSH2 0xFF JUMPI PUSH1 0x0 DUP1 REVERT JUMPDEST CALLVALUE PUSH2 0x1C8 JUMPI PUSH1 0xC0 CALLDATASIZE PUSH1 0x3 NOT ADD SLT PUSH2 0x1C8 JUMPI PUSH1 0x1 PUSH1 0x1 PUSH1 0x40 SHL SUB SWAP1 PUSH1 0x24 CALLDATALOAD DUP3 DUP2 GT PUSH2 0x1C4 JUMPI PUSH2 0x130 SWAP1 CALLDATASIZE SWAP1 DUP4 ADD PUSH2 0xFBC JUMP JUMPDEST PUSH2 0x13B SWAP3 SWAP2 SWAP3 PUSH2 0xF1E JUMP JUMPDEST SWAP1 PUSH1 0x64 CALLDATALOAD DUP6 DUP2 GT PUSH2 0x1C0 JUMPI CALLDATASIZE PUSH1 0x23 DUP3 ADD SLT ISZERO PUSH2 0x1C0 JUMPI DUP1 DUP5 ADD CALLDATALOAD SWAP6 DUP7 GT PUSH2 0x1C0 JUMPI CALLDATASIZE PUSH1 0x24 DUP8 DUP4 ADD ADD GT PUSH2 0x1C0 JUMPI SWAP2 PUSH1 0x20 SWAP8 SWAP4 SWAP2 PUSH2 0x1B7 SWAP7 SWAP6 SWAP4 PUSH2 0x17C PUSH2 0xFEC JUMP JUMPDEST SWAP6 PUSH2 0x1AB DUP12 PUSH2 0x189 PUSH2 0x1002 JUMP JUMPDEST SWAP10 DUP13 MLOAD SWAP4 DUP2 DUP6 SWAP3 PUSH1 0x24 DUP6 DUP6 ADD SWAP9 ADD DUP9 CALLDATACOPY DUP3 ADD SWAP1 DUP4 DUP3 ADD MSTORE SUB DUP1 DUP5 MSTORE ADD DUP3 PUSH2 0xF80 JUMP JUMPDEST MLOAD SWAP1 KECCAK256 SWAP4 CALLER SWAP4 CALLDATALOAD PUSH2 0x137A JUMP JUMPDEST SWAP1 MLOAD SWAP1 ISZERO ISZERO DUP2 MSTORE RETURN JUMPDEST DUP8 DUP1 REVERT JUMPDEST DUP5 DUP1 REVERT JUMPDEST DUP3 DUP1 REVERT JUMPDEST POP CALLVALUE PUSH2 0x1C8 JUMPI PUSH1 0x20 CALLDATASIZE PUSH1 0x3 NOT ADD SLT PUSH2 0x1C8 JUMPI PUSH2 0x1E6 PUSH2 0xF03 JUMP JUMPDEST SWAP2 PUSH2 0x1EF PUSH2 0x12D9 JUMP JUMPDEST PUSH1 0x1 PUSH1 0x1 PUSH1 0xA0 SHL SUB DUP4 AND ISZERO PUSH2 0x20B JUMPI DUP4 PUSH2 0x208 DUP5 PUSH2 0x1331 JUMP JUMPDEST DUP1 RETURN JUMPDEST SWAP1 PUSH1 0x20 PUSH1 0x84 SWAP3 MLOAD SWAP2 PUSH3 0x461BCD PUSH1 0xE5 SHL DUP4 MSTORE DUP3 ADD MSTORE PUSH1 0x26 PUSH1 0x24 DUP3 ADD MSTORE PUSH32 0x4F776E61626C653A206E6577206F776E657220697320746865207A65726F2061 PUSH1 0x44 DUP3 ADD MSTORE PUSH6 0x646472657373 PUSH1 0xD0 SHL PUSH1 0x64 DUP3 ADD MSTORE REVERT JUMPDEST POP CALLVALUE PUSH2 0x1C8 JUMPI PUSH1 0x20 CALLDATASIZE PUSH1 0x3 NOT ADD SLT PUSH2 0x1C8 JUMPI PUSH2 0x277 PUSH2 0xF03 JUMP JUMPDEST POP DUP3 SLOAD SWAP1 PUSH1 0xFF DUP3 PUSH1 0x8 SHR AND ISZERO SWAP1 DUP2 DUP1 SWAP3 PUSH2 0x3D2 JUMPI JUMPDEST DUP1 ISZERO PUSH2 0x3BB JUMPI JUMPDEST ISZERO PUSH2 0x361 JUMPI POP PUSH1 0xFF NOT DUP3 DUP2 AND PUSH1 0x1 OR DUP6 SSTORE SWAP2 DUP2 PUSH2 0x350 JUMPI JUMPDEST POP PUSH2 0x2C5 PUSH1 0xFF DUP6 SLOAD PUSH1 0x8 SHR AND PUSH2 0x2C0 DUP2 PUSH2 0x1631 JUMP JUMPDEST PUSH2 0x1631 JUMP JUMPDEST PUSH2 0x2CE CALLER PUSH2 0x1331 JUMP JUMPDEST PUSH2 0x310 DUP5 SLOAD SWAP3 PUSH1 0xFF DUP5 PUSH1 0x8 SHR AND SWAP1 PUSH2 0x2E5 DUP3 PUSH2 0x1631 JUMP JUMPDEST PUSH2 0x2EE DUP3 PUSH2 0x1631 JUMP JUMPDEST PUSH1 0x1 DUP1 SSTORE PUSH2 0x2FB DUP3 PUSH2 0x1631 JUMP JUMPDEST PUSH2 0x304 DUP3 PUSH2 0x1631 JUMP JUMPDEST PUSH1 0x65 SLOAD AND PUSH1 0x65 SSTORE PUSH2 0x1631 JUMP JUMPDEST PUSH2 0x318 JUMPI DUP3 DUP1 RETURN JUMPDEST PUSH2 0xFF00 NOT AND DUP3 SSTORE MLOAD PUSH1 0x1 DUP2 MSTORE PUSH32 0x7F26B83FF96E1F2B6A682F133852F6798A09C465DA95921460CEFB3847402498 SWAP1 PUSH1 0x20 SWAP1 LOG1 CODESIZE DUP1 DUP3 DUP1 RETURN JUMPDEST PUSH2 0xFFFF NOT AND PUSH2 0x101 OR DUP5 SSTORE CODESIZE PUSH2 0x2AB JUMP JUMPDEST PUSH1 0x84 SWAP1 PUSH1 0x20 DUP6 MLOAD SWAP2 PUSH3 0x461BCD PUSH1 0xE5 SHL DUP4 MSTORE DUP3 ADD MSTORE PUSH1 0x2E PUSH1 0x24 DUP3 ADD MSTORE PUSH32 0x496E697469616C697A61626C653A20636F6E747261637420697320616C726561 PUSH1 0x44 DUP3 ADD MSTORE PUSH14 0x191E481A5B9A5D1A585B1A5E9959 PUSH1 0x92 SHL PUSH1 0x64 DUP3 ADD MSTORE REVERT JUMPDEST POP ADDRESS EXTCODESIZE ISZERO DUP1 ISZERO PUSH2 0x293 JUMPI POP PUSH1 0x1 PUSH1 0xFF DUP5 AND EQ PUSH2 0x293 JUMP JUMPDEST POP PUSH1 0x1 PUSH1 0xFF DUP5 AND LT PUSH2 0x28C JUMP JUMPDEST POP SWAP1 CALLVALUE PUSH2 0x1C8 JUMPI DUP1 PUSH1 0x3 NOT CALLDATASIZE ADD SLT PUSH2 0x1C8 JUMPI DUP2 CALLDATALOAD SWAP2 PUSH1 0x1 PUSH1 0x1 PUSH1 0xA0 SHL SUB PUSH1 0x24 CALLDATALOAD DUP2 DUP2 AND SWAP1 DUP2 SWAP1 SUB PUSH2 0x495 JUMPI CALLER EQ ISZERO SWAP1 DUP2 PUSH2 0x486 JUMPI JUMPDEST POP PUSH2 0x478 JUMPI DUP3 DUP5 MSTORE PUSH2 0x12E SWAP1 DUP2 PUSH1 0x20 MSTORE PUSH1 0xFF DUP4 DUP7 KECCAK256 SLOAD AND PUSH2 0x46A JUMPI POP DUP3 DUP5 MSTORE PUSH1 0x20 MSTORE DUP3 KECCAK256 DUP1 SLOAD PUSH1 0xFF NOT AND PUSH1 0x1 OR SWAP1 SSTORE PUSH32 0x6EB24CE38EB0F7D1E3B4291D5543C7286F02BE3DAED061B0F7EB6491213DEB21 DUP3 DUP1 LOG2 DUP1 RETURN JUMPDEST DUP3 MLOAD PUSH4 0x5F7E3901 PUSH1 0xE0 SHL DUP2 MSTORE REVERT JUMPDEST SWAP1 MLOAD PUSH4 0x4C89E43B PUSH1 0xE0 SHL DUP2 MSTORE REVERT JUMPDEST SWAP1 POP PUSH1 0xFB SLOAD AND CALLER EQ ISZERO CODESIZE PUSH2 0x414 JUMP JUMPDEST DUP6 DUP1 REVERT JUMPDEST POP SWAP2 CALLVALUE PUSH2 0x4FB JUMPI PUSH1 0xC0 CALLDATASIZE PUSH1 0x3 NOT ADD SLT PUSH2 0x4FB JUMPI PUSH1 0x24 CALLDATALOAD SWAP1 PUSH1 0x1 PUSH1 0x1 PUSH1 0x40 SHL SUB DUP3 GT PUSH2 0x4FB JUMPI POP PUSH1 0x20 SWAP3 PUSH2 0x4D2 PUSH2 0x1B7 SWAP3 CALLDATASIZE SWAP1 DUP4 ADD PUSH2 0xFBC JUMP JUMPDEST SWAP2 SWAP1 PUSH2 0x4DC PUSH2 0xF1E JUMP JUMPDEST SWAP2 PUSH2 0x4E5 PUSH2 0xFEC JUMP JUMPDEST SWAP3 PUSH2 0x4EE PUSH2 0x1002 JUMP JUMPDEST SWAP5 PUSH1 0x64 CALLDATALOAD SWAP4 CALLER SWAP4 CALLDATALOAD PUSH2 0x137A JUMP JUMPDEST DUP1 REVERT JUMPDEST POP CALLVALUE PUSH2 0x1C8 JUMPI PUSH1 0xE0 CALLDATASIZE PUSH1 0x3 NOT ADD SLT PUSH2 0x1C8 JUMPI PUSH1 0x1 PUSH1 0x1 PUSH1 0x40 SHL SUB DUP2 CALLDATALOAD DUP2 DUP2 GT PUSH2 0x1C4 JUMPI PUSH2 0x52E SWAP1 CALLDATASIZE SWAP1 DUP5 ADD PUSH2 0xFBC JUMP JUMPDEST SWAP5 SWAP1 SWAP3 PUSH1 0x24 CALLDATALOAD DUP4 DUP2 GT PUSH2 0x1C8 JUMPI PUSH2 0x548 SWAP1 CALLDATASIZE SWAP1 DUP4 ADD PUSH2 0xFBC JUMP JUMPDEST PUSH1 0x44 SWAP3 SWAP2 SWAP3 CALLDATALOAD DUP6 DUP2 GT PUSH2 0x1C4 JUMPI PUSH2 0x562 SWAP1 CALLDATASIZE SWAP1 DUP5 ADD PUSH2 0xFBC JUMP JUMPDEST PUSH1 0x64 SWAP3 SWAP2 SWAP3 CALLDATALOAD DUP8 DUP2 GT PUSH2 0x5EC JUMPI PUSH2 0x57C SWAP1 CALLDATASIZE SWAP1 DUP7 ADD PUSH2 0xFBC JUMP JUMPDEST SWAP4 SWAP1 SWAP3 PUSH1 0x84 CALLDATALOAD DUP10 DUP2 GT PUSH2 0x5E8 JUMPI PUSH2 0x596 SWAP1 CALLDATASIZE SWAP1 DUP9 ADD PUSH2 0xFBC JUMP JUMPDEST SWAP8 SWAP1 SWAP7 PUSH1 0xA4 CALLDATALOAD DUP12 DUP2 GT PUSH2 0x5E4 JUMPI PUSH2 0x5B0 SWAP1 CALLDATASIZE SWAP1 DUP4 ADD PUSH2 0xFBC JUMP JUMPDEST SWAP12 SWAP1 SWAP11 PUSH1 0xC4 CALLDATALOAD SWAP2 DUP3 GT PUSH2 0x4FB JUMPI POP SWAP2 PUSH2 0x5DC PUSH1 0x20 SWAP16 SWAP13 SWAP11 SWAP9 SWAP7 SWAP5 SWAP3 PUSH2 0x1B7 SWAP15 SWAP13 SWAP11 SWAP9 SWAP7 SWAP5 CALLDATASIZE SWAP2 ADD PUSH2 0xFBC JUMP JUMPDEST SWAP13 SWAP1 SWAP12 PUSH2 0x110E JUMP JUMPDEST DUP11 DUP1 REVERT JUMPDEST DUP9 DUP1 REVERT JUMPDEST DUP7 DUP1 REVERT JUMPDEST POP POP CALLVALUE PUSH2 0x619 JUMPI DUP2 PUSH1 0x3 NOT CALLDATASIZE ADD SLT PUSH2 0x619 JUMPI PUSH1 0xFB SLOAD SWAP1 MLOAD PUSH1 0x1 PUSH1 0x1 PUSH1 0xA0 SHL SUB SWAP1 SWAP2 AND DUP2 MSTORE PUSH1 0x20 SWAP1 RETURN JUMPDEST POP DUP1 REVERT JUMPDEST POP CALLVALUE PUSH2 0x1C8 JUMPI DUP3 PUSH1 0x3 NOT CALLDATASIZE ADD SLT PUSH2 0x1C8 JUMPI PUSH2 0x636 PUSH2 0x12D9 JUMP JUMPDEST PUSH1 0x65 SLOAD SWAP1 PUSH1 0xFF DUP3 AND PUSH2 0x67A JUMPI POP PUSH1 0xFF NOT AND PUSH1 0x1 OR PUSH1 0x65 SSTORE MLOAD CALLER DUP2 MSTORE PUSH32 0x62E78CEA01BEE320CD4E420270B5EA74000D11B0C9F74754EBDBFC544B05A258 SWAP1 PUSH1 0x20 SWAP1 LOG1 DUP1 RETURN JUMPDEST PUSH1 0x64 SWAP1 PUSH1 0x20 DUP5 MLOAD SWAP2 PUSH3 0x461BCD PUSH1 0xE5 SHL DUP4 MSTORE DUP3 ADD MSTORE PUSH1 0x10 PUSH1 0x24 DUP3 ADD MSTORE PUSH16 0x14185D5CD8589B194E881C185D5CD959 PUSH1 0x82 SHL PUSH1 0x44 DUP3 ADD MSTORE REVERT JUMPDEST DUP4 CALLVALUE PUSH2 0x4FB JUMPI DUP1 PUSH1 0x3 NOT CALLDATASIZE ADD SLT PUSH2 0x4FB JUMPI PUSH2 0x6C9 PUSH2 0x12D9 JUMP JUMPDEST PUSH1 0xFB DUP1 SLOAD PUSH1 0x1 PUSH1 0x1 PUSH1 0xA0 SHL SUB NOT DUP2 AND SWAP1 SWAP2 SSTORE DUP2 SWAP1 PUSH1 0x1 PUSH1 0x1 PUSH1 0xA0 SHL SUB AND PUSH32 0x8BE0079C531659141344CD1FD0A4F28419497F9722A3DAAFE3B4186F6B6457E0 DUP3 DUP1 LOG3 DUP1 RETURN JUMPDEST POP POP CALLVALUE PUSH2 0x619 JUMPI DUP2 PUSH1 0x3 NOT CALLDATASIZE ADD SLT PUSH2 0x619 JUMPI PUSH1 0x20 SWAP1 PUSH1 0xFF PUSH1 0x65 SLOAD AND SWAP1 MLOAD SWAP1 ISZERO ISZERO DUP2 MSTORE RETURN JUMPDEST POP POP CALLVALUE PUSH2 0x619 JUMPI DUP1 PUSH1 0x3 NOT CALLDATASIZE ADD SLT PUSH2 0x619 JUMPI PUSH2 0x74B PUSH2 0xF03 JUMP JUMPDEST SWAP1 PUSH1 0x24 CALLDATALOAD SWAP2 DUP3 ISZERO ISZERO DUP1 SWAP4 SUB PUSH2 0x784 JUMPI PUSH2 0x762 PUSH2 0x12D9 JUMP JUMPDEST PUSH1 0x1 DUP1 PUSH1 0xA0 SHL SUB AND DUP4 MSTORE PUSH2 0x12F PUSH1 0x20 MSTORE DUP3 KECCAK256 SWAP1 PUSH1 0xFF DUP1 NOT DUP4 SLOAD AND SWAP2 AND OR SWAP1 SSTORE DUP1 RETURN JUMPDEST DUP4 DUP1 REVERT JUMPDEST POP DUP3 CALLVALUE PUSH2 0x4FB JUMPI DUP1 PUSH1 0x3 NOT CALLDATASIZE ADD SLT PUSH2 0x4FB JUMPI POP PUSH32 0x0 PUSH1 0x1 PUSH1 0x1 PUSH1 0xA0 SHL SUB AND ADDRESS SUB PUSH2 0x7E2 JUMPI PUSH1 0x20 DUP3 MLOAD PUSH1 0x0 DUP1 MLOAD PUSH1 0x20 PUSH2 0x17F6 DUP4 CODECOPY DUP2 MLOAD SWAP2 MSTORE DUP2 MSTORE RETURN JUMPDEST PUSH1 0x20 PUSH1 0x84 SWAP3 MLOAD SWAP2 PUSH3 0x461BCD PUSH1 0xE5 SHL DUP4 MSTORE DUP3 ADD MSTORE PUSH1 0x38 PUSH1 0x24 DUP3 ADD MSTORE PUSH32 0x555550535570677261646561626C653A206D757374206E6F742062652063616C PUSH1 0x44 DUP3 ADD MSTORE PUSH32 0x6C6564207468726F7567682064656C656761746563616C6C0000000000000000 PUSH1 0x64 DUP3 ADD MSTORE REVERT JUMPDEST POP SWAP1 DUP1 PUSH1 0x3 NOT CALLDATASIZE ADD SLT PUSH2 0x1C8 JUMPI PUSH2 0x85F PUSH2 0xF03 JUMP JUMPDEST SWAP1 PUSH1 0x24 CALLDATALOAD SWAP1 PUSH1 0x1 PUSH1 0x1 PUSH1 0x40 SHL SUB DUP3 GT PUSH2 0x1C4 JUMPI CALLDATASIZE PUSH1 0x23 DUP4 ADD SLT ISZERO PUSH2 0x1C4 JUMPI DUP2 DUP5 ADD CALLDATALOAD PUSH2 0x88A DUP2 PUSH2 0xFA1 JUMP JUMPDEST PUSH2 0x896 DUP4 MLOAD SWAP2 DUP3 PUSH2 0xF80 JUMP JUMPDEST DUP2 DUP2 MSTORE DUP7 PUSH1 0x20 SWAP5 DUP6 DUP4 ADD SWAP4 CALLDATASIZE PUSH1 0x24 DUP3 DUP5 ADD ADD GT PUSH2 0x1C8 JUMPI DUP1 PUSH1 0x24 DUP9 SWAP4 ADD DUP7 CALLDATACOPY DUP4 ADD ADD MSTORE PUSH1 0x1 PUSH1 0x1 PUSH1 0xA0 SHL SUB PUSH32 0x0 DUP2 AND SWAP1 PUSH2 0x8F1 ADDRESS DUP4 EQ ISZERO PUSH2 0x1012 JUMP JUMPDEST PUSH2 0x90E PUSH1 0x0 DUP1 MLOAD PUSH1 0x20 PUSH2 0x17F6 DUP4 CODECOPY DUP2 MLOAD SWAP2 MSTORE SWAP3 DUP3 DUP5 SLOAD AND EQ PUSH2 0x1073 JUMP JUMPDEST PUSH2 0x916 PUSH2 0x12D9 JUMP JUMPDEST PUSH32 0x4910FDFA16FED3260ED0E7147F7CC6DA11A60208B5B9406D12A635614FFD9143 SLOAD PUSH1 0xFF AND ISZERO PUSH2 0x950 JUMPI POP POP POP POP POP POP PUSH2 0x208 SWAP2 POP PUSH2 0x1691 JUMP JUMPDEST DUP7 SWAP3 SWAP4 SWAP5 SWAP6 SWAP7 AND SWAP1 DUP6 MLOAD PUSH4 0x52D1902D PUSH1 0xE0 SHL DUP2 MSTORE DUP8 DUP2 DUP11 DUP2 DUP7 GAS STATICCALL DUP11 SWAP2 DUP2 PUSH2 0xB13 JUMPI JUMPDEST POP PUSH2 0x9D2 JUMPI DUP7 MLOAD PUSH3 0x461BCD PUSH1 0xE5 SHL DUP2 MSTORE DUP1 DUP11 ADD DUP10 SWAP1 MSTORE PUSH1 0x2E PUSH1 0x24 DUP3 ADD MSTORE PUSH32 0x45524331393637557067726164653A206E657720696D706C656D656E74617469 PUSH1 0x44 DUP3 ADD MSTORE PUSH14 0x6F6E206973206E6F742055555053 PUSH1 0x90 SHL PUSH1 0x64 DUP3 ADD MSTORE PUSH1 0x84 SWAP1 REVERT JUMPDEST SWAP8 SWAP2 SWAP3 SWAP4 SWAP7 SWAP6 SWAP5 SWAP8 SUB PUSH2 0xABE JUMPI POP PUSH2 0x9E9 DUP3 PUSH2 0x1691 JUMP JUMPDEST PUSH32 0xBC7CD75A20EE27FD9ADEBAB32041F755214DBC6BFFA90CC0225B39DA2E5C2D3B DUP8 DUP1 LOG2 DUP6 DUP5 MLOAD ISZERO DUP1 ISZERO SWAP1 PUSH2 0xAB6 JUMPI JUMPDEST PUSH2 0xA27 JUMPI JUMPDEST POP POP POP POP POP POP DUP1 RETURN JUMPDEST DUP1 PUSH2 0xAA0 SWAP7 DUP5 MLOAD SWAP7 PUSH2 0xA38 DUP9 PUSH2 0xF34 JUMP JUMPDEST PUSH1 0x27 DUP9 MSTORE PUSH32 0x416464726573733A206C6F772D6C6576656C2064656C65676174652063616C6C DUP8 DUP10 ADD MSTORE PUSH7 0x819985A5B1959 PUSH1 0xCA SHL DUP7 DUP10 ADD MSTORE MLOAD SWAP1 DUP5 GAS DELEGATECALL SWAP2 RETURNDATASIZE ISZERO PUSH2 0xAAC JUMPI RETURNDATASIZE PUSH2 0xA92 PUSH2 0xA89 DUP3 PUSH2 0xFA1 JUMP JUMPDEST SWAP3 MLOAD SWAP3 DUP4 PUSH2 0xF80 JUMP JUMPDEST DUP2 MSTORE DUP7 DUP2 SWAP5 RETURNDATASIZE SWAP3 ADD RETURNDATACOPY PUSH2 0x1721 JUMP JUMPDEST POP CODESIZE DUP1 DUP1 DUP1 DUP1 DUP6 PUSH2 0xA1E JUMP JUMPDEST POP PUSH1 0x60 SWAP3 POP PUSH2 0x1721 JUMP JUMPDEST POP PUSH1 0x1 PUSH2 0xA19 JUMP JUMPDEST DUP4 MLOAD PUSH3 0x461BCD PUSH1 0xE5 SHL DUP2 MSTORE SWAP1 DUP2 ADD DUP6 SWAP1 MSTORE PUSH1 0x29 PUSH1 0x24 DUP3 ADD MSTORE PUSH32 0x45524331393637557067726164653A20756E737570706F727465642070726F78 PUSH1 0x44 DUP3 ADD MSTORE PUSH9 0x1A58589B1955555251 PUSH1 0xBA SHL PUSH1 0x64 DUP3 ADD MSTORE PUSH1 0x84 SWAP1 REVERT JUMPDEST SWAP1 SWAP2 POP DUP9 DUP2 DUP2 RETURNDATASIZE DUP4 GT PUSH2 0xB3B JUMPI JUMPDEST PUSH2 0xB2B DUP2 DUP4 PUSH2 0xF80 JUMP JUMPDEST DUP2 ADD SUB SLT PUSH2 0x5E4 JUMPI MLOAD SWAP1 CODESIZE PUSH2 0x973 JUMP JUMPDEST POP RETURNDATASIZE PUSH2 0xB21 JUMP JUMPDEST POP POP CALLVALUE PUSH2 0x619 JUMPI PUSH1 0x20 CALLDATASIZE PUSH1 0x3 NOT ADD SLT PUSH2 0x619 JUMPI PUSH1 0x20 SWAP2 DUP2 SWAP1 PUSH1 0x1 PUSH1 0x1 PUSH1 0xA0 SHL SUB PUSH2 0xB6A PUSH2 0xF03 JUMP JUMPDEST AND DUP2 MSTORE PUSH2 0x12D DUP5 MSTORE KECCAK256 SLOAD SWAP1 MLOAD SWAP1 DUP2 MSTORE RETURN JUMPDEST POP CALLVALUE PUSH2 0x1C8 JUMPI DUP3 PUSH1 0x3 NOT CALLDATASIZE ADD SLT PUSH2 0x1C8 JUMPI PUSH2 0xB94 PUSH2 0x12D9 JUMP JUMPDEST PUSH1 0x65 SLOAD SWAP1 PUSH1 0xFF DUP3 AND ISZERO PUSH2 0xBD6 JUMPI POP PUSH1 0xFF NOT AND PUSH1 0x65 SSTORE MLOAD CALLER DUP2 MSTORE PUSH32 0x5DB9EE0A495BF2E6FF9C91A7834C1BA4FDD244A5E8AA4E537BD38AEAE4B073AA SWAP1 PUSH1 0x20 SWAP1 LOG1 DUP1 RETURN JUMPDEST PUSH1 0x64 SWAP1 PUSH1 0x20 DUP5 MLOAD SWAP2 PUSH3 0x461BCD PUSH1 0xE5 SHL DUP4 MSTORE DUP3 ADD MSTORE PUSH1 0x14 PUSH1 0x24 DUP3 ADD MSTORE PUSH20 0x14185D5CD8589B194E881B9BDD081C185D5CD959 PUSH1 0x62 SHL PUSH1 0x44 DUP3 ADD MSTORE REVERT JUMPDEST POP POP CALLVALUE PUSH2 0x619 JUMPI PUSH1 0x20 CALLDATASIZE PUSH1 0x3 NOT ADD SLT PUSH2 0x619 JUMPI PUSH1 0x20 SWAP2 PUSH1 0xFF SWAP1 DUP3 SWAP1 PUSH1 0x1 PUSH1 0x1 PUSH1 0xA0 SHL SUB PUSH2 0xC3B PUSH2 0xF03 JUMP JUMPDEST AND DUP2 MSTORE PUSH2 0x12F DUP6 MSTORE KECCAK256 SLOAD AND SWAP1 MLOAD SWAP1 ISZERO ISZERO DUP2 MSTORE RETURN JUMPDEST POP SWAP1 CALLVALUE PUSH2 0x1C8 JUMPI PUSH1 0x20 DUP1 PUSH1 0x3 NOT CALLDATASIZE ADD SLT PUSH2 0x784 JUMPI PUSH2 0xC6B PUSH2 0xF03 JUMP JUMPDEST SWAP2 PUSH1 0x1 PUSH1 0x1 PUSH1 0xA0 SHL SUB PUSH32 0x0 DUP2 AND PUSH2 0xCA3 ADDRESS DUP3 EQ ISZERO PUSH2 0x1012 JUMP JUMPDEST PUSH2 0xCC0 PUSH1 0x0 DUP1 MLOAD PUSH1 0x20 PUSH2 0x17F6 DUP4 CODECOPY DUP2 MLOAD SWAP2 MSTORE SWAP2 DUP4 DUP4 SLOAD AND EQ PUSH2 0x1073 JUMP JUMPDEST PUSH2 0xCC8 PUSH2 0x12D9 JUMP JUMPDEST DUP3 MLOAD SWAP1 DUP5 DUP3 ADD SWAP3 DUP3 DUP5 LT PUSH1 0x1 PUSH1 0x1 PUSH1 0x40 SHL SUB DUP6 GT OR PUSH2 0xE2C JUMPI DUP4 DUP6 MSTORE DUP9 DUP4 MSTORE PUSH32 0x4910FDFA16FED3260ED0E7147F7CC6DA11A60208B5B9406D12A635614FFD9143 SLOAD PUSH1 0xFF AND ISZERO PUSH2 0xD21 JUMPI POP POP POP POP POP POP PUSH2 0x208 SWAP2 POP PUSH2 0x1691 JUMP JUMPDEST DUP7 SWAP3 SWAP4 SWAP5 SWAP6 SWAP7 AND SWAP1 DUP6 MLOAD PUSH4 0x52D1902D PUSH1 0xE0 SHL DUP2 MSTORE DUP8 DUP2 DUP11 DUP2 DUP7 GAS STATICCALL DUP11 SWAP2 DUP2 PUSH2 0xDFD JUMPI JUMPDEST POP PUSH2 0xDA3 JUMPI DUP7 MLOAD PUSH3 0x461BCD PUSH1 0xE5 SHL DUP2 MSTORE DUP1 DUP11 ADD DUP10 SWAP1 MSTORE PUSH1 0x2E PUSH1 0x24 DUP3 ADD MSTORE PUSH32 0x45524331393637557067726164653A206E657720696D706C656D656E74617469 PUSH1 0x44 DUP3 ADD MSTORE PUSH14 0x6F6E206973206E6F742055555053 PUSH1 0x90 SHL PUSH1 0x64 DUP3 ADD MSTORE PUSH1 0x84 SWAP1 REVERT JUMPDEST SWAP8 SWAP2 SWAP3 SWAP4 SWAP7 SWAP6 SWAP5 SWAP8 SUB PUSH2 0xABE JUMPI POP PUSH2 0xDBA DUP3 PUSH2 0x1691 JUMP JUMPDEST PUSH32 0xBC7CD75A20EE27FD9ADEBAB32041F755214DBC6BFFA90CC0225B39DA2E5C2D3B DUP8 DUP1 LOG2 DUP6 DUP5 MLOAD ISZERO DUP1 ISZERO SWAP1 PUSH2 0xDF6 JUMPI PUSH2 0xA27 JUMPI POP POP POP POP POP POP DUP1 RETURN JUMPDEST POP DUP1 PUSH2 0xA19 JUMP JUMPDEST SWAP1 SWAP2 POP DUP9 DUP2 DUP2 RETURNDATASIZE DUP4 GT PUSH2 0xE25 JUMPI JUMPDEST PUSH2 0xE15 DUP2 DUP4 PUSH2 0xF80 JUMP JUMPDEST DUP2 ADD SUB SLT PUSH2 0x5E4 JUMPI MLOAD SWAP1 CODESIZE PUSH2 0xD44 JUMP JUMPDEST POP RETURNDATASIZE PUSH2 0xE0B JUMP JUMPDEST PUSH4 0x4E487B71 PUSH1 0xE0 SHL DUP10 MSTORE PUSH1 0x41 DUP9 MSTORE PUSH1 0x24 DUP10 REVERT JUMPDEST POP CALLVALUE PUSH2 0x1C8 JUMPI PUSH1 0x20 CALLDATASIZE PUSH1 0x3 NOT ADD SLT PUSH2 0x1C8 JUMPI DUP2 PUSH1 0x20 SWAP4 PUSH1 0xFF SWAP3 CALLDATALOAD DUP2 MSTORE PUSH2 0x12E DUP6 MSTORE KECCAK256 SLOAD AND SWAP1 MLOAD SWAP1 ISZERO ISZERO DUP2 MSTORE RETURN JUMPDEST SWAP3 SWAP1 POP CALLVALUE PUSH2 0x784 JUMPI DUP1 PUSH1 0x3 NOT CALLDATASIZE ADD SLT PUSH2 0x784 JUMPI PUSH2 0xE87 PUSH2 0xF03 JUMP JUMPDEST PUSH1 0x1 PUSH1 0x1 PUSH1 0xA0 SHL SUB AND SWAP3 PUSH1 0x24 CALLDATALOAD SWAP3 SWAP1 CALLER DUP6 EQ ISZERO DUP1 PUSH2 0xEEC JUMPI JUMPDEST PUSH2 0xEE0 JUMPI POP POP PUSH32 0xEDA38B4C19D200D522D6CAFB61691A66A8D392081E10536A96529FE56CE5269C SWAP2 PUSH1 0x20 SWAP2 DUP5 DUP7 MSTORE PUSH2 0x12D DUP4 MSTORE DUP2 DUP2 DUP8 KECCAK256 SSTORE MLOAD SWAP1 DUP2 MSTORE LOG2 DUP1 RETURN JUMPDEST PUSH4 0x4C89E43B PUSH1 0xE0 SHL DUP2 MSTORE REVERT JUMPDEST POP CALLER DUP7 MSTORE PUSH2 0x12F PUSH1 0x20 MSTORE PUSH1 0xFF DUP4 DUP8 KECCAK256 SLOAD AND ISZERO PUSH2 0xEA0 JUMP JUMPDEST PUSH1 0x4 CALLDATALOAD SWAP1 PUSH1 0x1 PUSH1 0x1 PUSH1 0xA0 SHL SUB DUP3 AND DUP3 SUB PUSH2 0xF19 JUMPI JUMP JUMPDEST PUSH1 0x0 DUP1 REVERT JUMPDEST PUSH1 0x44 CALLDATALOAD SWAP1 PUSH1 0x1 PUSH1 0x1 PUSH1 0xA0 SHL SUB DUP3 AND DUP3 SUB PUSH2 0xF19 JUMPI JUMP JUMPDEST PUSH1 0x60 DUP2 ADD SWAP1 DUP2 LT PUSH1 0x1 PUSH1 0x1 PUSH1 0x40 SHL SUB DUP3 GT OR PUSH2 0xF4F JUMPI PUSH1 0x40 MSTORE JUMP JUMPDEST PUSH4 0x4E487B71 PUSH1 0xE0 SHL PUSH1 0x0 MSTORE PUSH1 0x41 PUSH1 0x4 MSTORE PUSH1 0x24 PUSH1 0x0 REVERT JUMPDEST PUSH1 0xC0 DUP2 ADD SWAP1 DUP2 LT PUSH1 0x1 PUSH1 0x1 PUSH1 0x40 SHL SUB DUP3 GT OR PUSH2 0xF4F JUMPI PUSH1 0x40 MSTORE JUMP JUMPDEST SWAP1 PUSH1 0x1F DUP1 NOT SWAP2 ADD AND DUP2 ADD SWAP1 DUP2 LT PUSH1 0x1 PUSH1 0x1 PUSH1 0x40 SHL SUB DUP3 GT OR PUSH2 0xF4F JUMPI PUSH1 0x40 MSTORE JUMP JUMPDEST PUSH1 0x1 PUSH1 0x1 PUSH1 0x40 SHL SUB DUP2 GT PUSH2 0xF4F JUMPI PUSH1 0x1F ADD PUSH1 0x1F NOT AND PUSH1 0x20 ADD SWAP1 JUMP JUMPDEST SWAP2 DUP2 PUSH1 0x1F DUP5 ADD SLT ISZERO PUSH2 0xF19 JUMPI DUP3 CALLDATALOAD SWAP2 PUSH1 0x1 PUSH1 0x1 PUSH1 0x40 SHL SUB DUP4 GT PUSH2 0xF19 JUMPI PUSH1 0x20 DUP1 DUP6 ADD SWAP5 DUP5 PUSH1 0x5 SHL ADD ADD GT PUSH2 0xF19 JUMPI JUMP JUMPDEST PUSH1 0x84 CALLDATALOAD SWAP1 PUSH1 0x1 PUSH1 0x1 PUSH1 0x40 SHL SUB DUP3 AND DUP3 SUB PUSH2 0xF19 JUMPI JUMP JUMPDEST PUSH1 0xA4 CALLDATALOAD SWAP1 PUSH1 0xFF DUP3 AND DUP3 SUB PUSH2 0xF19 JUMPI JUMP JUMPDEST ISZERO PUSH2 0x1019 JUMPI JUMP JUMPDEST PUSH1 0x40 MLOAD PUSH3 0x461BCD PUSH1 0xE5 SHL DUP2 MSTORE PUSH1 0x20 PUSH1 0x4 DUP3 ADD MSTORE PUSH1 0x2C PUSH1 0x24 DUP3 ADD MSTORE PUSH32 0x46756E6374696F6E206D7573742062652063616C6C6564207468726F75676820 PUSH1 0x44 DUP3 ADD MSTORE PUSH12 0x19195B1959D85D1958D85B1B PUSH1 0xA2 SHL PUSH1 0x64 DUP3 ADD MSTORE PUSH1 0x84 SWAP1 REVERT JUMPDEST ISZERO PUSH2 0x107A JUMPI JUMP JUMPDEST PUSH1 0x40 MLOAD PUSH3 0x461BCD PUSH1 0xE5 SHL DUP2 MSTORE PUSH1 0x20 PUSH1 0x4 DUP3 ADD MSTORE PUSH1 0x2C PUSH1 0x24 DUP3 ADD MSTORE PUSH32 0x46756E6374696F6E206D7573742062652063616C6C6564207468726F75676820 PUSH1 0x44 DUP3 ADD MSTORE PUSH12 0x6163746976652070726F7879 PUSH1 0xA0 SHL PUSH1 0x64 DUP3 ADD MSTORE PUSH1 0x84 SWAP1 REVERT JUMPDEST SWAP2 SWAP1 DUP2 LT ISZERO PUSH2 0x10E4 JUMPI PUSH1 0x5 SHL ADD SWAP1 JUMP JUMPDEST PUSH4 0x4E487B71 PUSH1 0xE0 SHL PUSH1 0x0 MSTORE PUSH1 0x32 PUSH1 0x4 MSTORE PUSH1 0x24 PUSH1 0x0 REVERT JUMPDEST CALLDATALOAD PUSH1 0x1 PUSH1 0x1 PUSH1 0xA0 SHL SUB DUP2 AND DUP2 SUB PUSH2 0xF19 JUMPI SWAP1 JUMP JUMPDEST SWAP3 SWAP7 SWAP9 SWAP6 SWAP10 SWAP4 SWAP12 SWAP13 SWAP1 SWAP13 SWAP11 SWAP5 SWAP11 SWAP8 SWAP2 SWAP8 DUP14 ISZERO PUSH2 0x12C7 JUMPI PUSH1 0x0 SWAP8 DUP15 JUMPDEST DUP10 LT PUSH2 0x1143 JUMPI POP POP POP POP POP POP POP POP POP POP POP POP POP POP POP PUSH1 0x1 SWAP1 JUMP JUMPDEST PUSH1 0x0 NOT DUP16 ADD DUP16 DUP2 GT PUSH2 0x129A JUMPI DUP16 SWAP1 DUP11 DUP15 DUP15 SWAP3 DUP3 EQ PUSH1 0x0 EQ PUSH2 0x12B0 JUMPI POP PUSH2 0x116D SWAP2 POP CALLER SWAP3 JUMPDEST DUP9 PUSH2 0x10D4 JUMP JUMPDEST CALLDATALOAD DUP3 DUP12 LT ISZERO PUSH2 0x10E4 JUMPI DUP16 DUP16 SWAP3 DUP13 SWAP2 DUP15 PUSH1 0x5 SWAP4 DUP5 SHL DUP2 ADD CALLDATALOAD SWAP1 PUSH1 0x1E NOT SWAP1 CALLDATASIZE SUB ADD DUP2 SLT ISZERO PUSH2 0xF19 JUMPI DUP16 ADD SWAP2 DUP3 CALLDATALOAD SWAP6 PUSH1 0x1 PUSH1 0x1 PUSH1 0x40 SHL SUB SWAP4 DUP5 DUP9 GT PUSH2 0xF19 JUMPI PUSH1 0x20 DUP9 SWAP2 ADD SWAP6 SHL CALLDATASIZE SUB DUP6 SGT PUSH2 0xF19 JUMPI DUP16 DUP16 SWAP1 DUP16 DUP16 SWAP6 DUP3 DUP16 SWAP6 SWAP5 PUSH2 0x11DB PUSH2 0x11D6 DUP4 PUSH2 0x11E8 SWAP9 PUSH2 0x11E1 SWAP7 PUSH2 0x10D4 JUMP JUMPDEST PUSH2 0x10FA JUMP JUMPDEST SWAP7 PUSH2 0x10D4 JUMP JUMPDEST CALLDATALOAD SWAP6 PUSH2 0x10D4 JUMP JUMPDEST CALLDATALOAD SWAP4 DUP5 AND DUP5 SUB PUSH2 0xF19 JUMPI DUP16 SWAP7 PUSH2 0x11FF DUP9 DUP13 DUP13 PUSH2 0x10D4 JUMP JUMPDEST CALLDATALOAD SWAP6 PUSH1 0xFF DUP1 DUP9 AND DUP9 SUB PUSH2 0xF19 JUMPI PUSH1 0x1 DUP11 ADD DUP1 SWAP11 GT PUSH2 0x129A JUMPI PUSH2 0x1222 SWAP10 AND SWAP8 PUSH2 0x14D8 JUMP JUMPDEST ISZERO PUSH2 0x1246 JUMPI DUP14 DUP10 ISZERO ISZERO DUP11 DUP16 DUP3 PUSH2 0x125A JUMPI JUMPDEST POP POP SWAP1 POP PUSH2 0x1246 JUMPI PUSH1 0x1 DUP16 SWAP10 ADD SWAP9 PUSH2 0x1129 JUMP JUMPDEST POP POP POP POP POP POP POP POP POP POP POP POP POP POP POP PUSH1 0x0 SWAP1 JUMP JUMPDEST PUSH2 0x11D6 SWAP3 POP PUSH2 0x1268 SWAP4 PUSH2 0x10D4 JUMP JUMPDEST PUSH1 0x0 NOT DUP11 ADD DUP11 DUP2 GT PUSH2 0x129A JUMPI DUP14 PUSH2 0x128C PUSH2 0x11D6 DUP16 SWAP4 PUSH1 0x1 DUP1 PUSH1 0xA0 SHL SUB SWAP5 DUP6 SWAP5 PUSH2 0x10D4 JUMP JUMPDEST AND SWAP2 AND EQ ISZERO DUP15 SWAP1 DUP11 DUP16 PUSH2 0x1233 JUMP JUMPDEST PUSH4 0x4E487B71 PUSH1 0xE0 SHL PUSH1 0x0 MSTORE PUSH1 0x11 PUSH1 0x4 MSTORE PUSH1 0x24 PUSH1 0x0 REVERT JUMPDEST PUSH2 0x11D6 DUP3 PUSH2 0x116D SWAP5 PUSH2 0x12C1 SWAP4 PUSH2 0x10D4 JUMP JUMPDEST SWAP3 PUSH2 0x1167 JUMP JUMPDEST PUSH1 0x40 MLOAD PUSH4 0xB1BC1E5 PUSH1 0xE2 SHL DUP2 MSTORE PUSH1 0x4 SWAP1 REVERT JUMPDEST PUSH1 0xFB SLOAD PUSH1 0x1 PUSH1 0x1 PUSH1 0xA0 SHL SUB AND CALLER SUB PUSH2 0x12ED JUMPI JUMP JUMPDEST PUSH1 0x64 PUSH1 0x40 MLOAD PUSH3 0x461BCD PUSH1 0xE5 SHL DUP2 MSTORE PUSH1 0x20 PUSH1 0x4 DUP3 ADD MSTORE PUSH1 0x20 PUSH1 0x24 DUP3 ADD MSTORE PUSH32 0x4F776E61626C653A2063616C6C6572206973206E6F7420746865206F776E6572 PUSH1 0x44 DUP3 ADD MSTORE REVERT JUMPDEST PUSH1 0xFB DUP1 SLOAD PUSH1 0x1 PUSH1 0x1 PUSH1 0xA0 SHL SUB SWAP3 DUP4 AND PUSH1 0x1 PUSH1 0x1 PUSH1 0xA0 SHL SUB NOT DUP3 AND DUP2 OR SWAP1 SWAP3 SSTORE SWAP1 SWAP2 AND PUSH32 0x8BE0079C531659141344CD1FD0A4F28419497F9722A3DAAFE3B4186F6B6457E0 PUSH1 0x0 DUP1 LOG3 JUMP JUMPDEST PUSH1 0x1 PUSH1 0x1 PUSH1 0xA0 SHL SUB SWAP4 DUP5 AND PUSH1 0x0 DUP2 DUP2 MSTORE PUSH2 0x12D PUSH1 0x20 SWAP1 DUP2 MSTORE PUSH1 0x40 DUP1 DUP4 KECCAK256 SLOAD SWAP12 SWAP7 SWAP11 SWAP8 SWAP10 SWAP6 SWAP9 SWAP2 SWAP8 SWAP1 SWAP7 SWAP3 SWAP6 SWAP2 SWAP3 SWAP1 DUP13 ISZERO PUSH2 0x14BF JUMPI DUP6 DUP8 MSTORE PUSH2 0x12E PUSH1 0x20 MSTORE PUSH1 0xFF DUP9 DUP9 KECCAK256 SLOAD AND PUSH2 0x14BF JUMPI PUSH1 0x1 PUSH1 0x1 PUSH1 0x40 SHL SUB AND SWAP1 DUP2 ISZERO ISZERO DUP1 PUSH2 0x14CF JUMPI JUMPDEST PUSH2 0x14BF JUMPI PUSH1 0xFF AND SWAP2 PUSH1 0x1 SWAP11 DUP4 PUSH1 0x1 GT PUSH2 0x14AE JUMPI DUP9 MLOAD PUSH1 0x20 DUP2 ADD SWAP7 DUP8 MSTORE SWAP5 AND DUP5 DUP10 ADD MSTORE PUSH1 0x60 DUP5 ADD MSTORE PUSH1 0x80 DUP4 ADD MSTORE PUSH1 0xA0 DUP1 DUP4 ADD SWAP2 SWAP1 SWAP2 MSTORE DUP2 MSTORE DUP3 SWAP2 SWAP1 PUSH2 0x1418 DUP2 PUSH2 0xF65 JUMP JUMPDEST MLOAD SWAP1 KECCAK256 SUB PUSH2 0x14A3 JUMPI SWAP6 SWAP5 SWAP4 SWAP3 SWAP2 SWAP1 DUP1 SWAP6 JUMPDEST DUP1 DUP8 LT PUSH2 0x143B JUMPI POP POP POP POP POP POP POP EQ SWAP1 JUMP JUMPDEST SWAP1 SWAP2 SWAP3 SWAP4 SWAP5 DUP7 SWAP8 PUSH2 0x144E DUP3 SWAP9 DUP5 DUP10 PUSH2 0x10D4 JUMP JUMPDEST CALLDATALOAD DUP1 DUP3 LT ISZERO PUSH2 0x1481 JUMPI DUP6 MLOAD SWAP1 DUP8 DUP3 ADD SWAP3 DUP4 MSTORE DUP7 DUP3 ADD MSTORE DUP6 DUP2 MSTORE PUSH2 0x1470 DUP2 PUSH2 0xF34 JUMP JUMPDEST MLOAD SWAP1 KECCAK256 JUMPDEST SWAP8 ADD SWAP6 SWAP5 SWAP4 SWAP3 SWAP2 SWAP1 PUSH2 0x1429 JUMP JUMPDEST SWAP1 DUP6 MLOAD SWAP1 DUP8 DUP3 ADD SWAP3 DUP4 MSTORE DUP7 DUP3 ADD MSTORE DUP6 DUP2 MSTORE PUSH2 0x149B DUP2 PUSH2 0xF34 JUMP JUMPDEST MLOAD SWAP1 KECCAK256 PUSH2 0x1474 JUMP JUMPDEST POP SWAP6 POP POP POP POP POP POP SWAP1 JUMP JUMPDEST POP POP POP POP POP POP POP SWAP6 POP POP POP POP POP POP SWAP1 JUMP JUMPDEST POP POP POP POP POP POP SWAP6 POP POP POP POP POP POP SWAP1 JUMP JUMPDEST POP TIMESTAMP DUP3 LT PUSH2 0x13D5 JUMP JUMPDEST SWAP2 SWAP7 SWAP1 SWAP6 SWAP8 SWAP4 SWAP5 SWAP3 SWAP5 PUSH1 0x1 DUP1 PUSH1 0xA0 SHL SUB DUP1 SWAP7 AND SWAP2 PUSH1 0x0 SWAP5 DUP4 DUP7 MSTORE PUSH1 0x20 SWAP8 PUSH2 0x12D PUSH1 0x20 MSTORE PUSH1 0x40 SWAP8 DUP9 DUP9 KECCAK256 SLOAD SWAP13 DUP14 ISZERO PUSH2 0x1617 JUMPI DUP8 DUP10 MSTORE PUSH2 0x12E PUSH1 0x20 MSTORE PUSH1 0xFF DUP11 DUP11 KECCAK256 SLOAD AND PUSH2 0x1617 JUMPI PUSH1 0x1 PUSH1 0x1 PUSH1 0x40 SHL SUB AND SWAP4 DUP5 ISZERO ISZERO DUP1 PUSH2 0x1628 JUMPI JUMPDEST PUSH2 0x1617 JUMPI PUSH1 0xFF SWAP1 DUP2 AND SWAP5 SWAP4 SWAP3 SWAP2 AND DUP5 LT PUSH2 0x1607 JUMPI DUP9 MLOAD PUSH1 0x20 DUP2 ADD SWAP7 DUP8 MSTORE SWAP5 AND DUP5 DUP10 ADD MSTORE PUSH1 0x60 DUP5 ADD MSTORE PUSH1 0x80 DUP4 ADD MSTORE PUSH1 0xA0 DUP1 DUP4 ADD SWAP2 SWAP1 SWAP2 MSTORE DUP2 MSTORE DUP3 SWAP2 SWAP1 PUSH2 0x1574 DUP2 PUSH2 0xF65 JUMP JUMPDEST MLOAD SWAP1 KECCAK256 SUB PUSH2 0x15FD JUMPI SWAP5 SWAP4 SWAP3 SWAP2 SWAP1 DUP1 SWAP5 JUMPDEST DUP1 DUP7 LT PUSH2 0x1595 JUMPI POP POP POP POP POP POP EQ SWAP1 JUMP JUMPDEST SWAP1 SWAP2 SWAP3 SWAP4 SWAP5 SWAP6 PUSH1 0x1 SWAP1 PUSH2 0x15A9 DUP9 DUP5 DUP10 PUSH2 0x10D4 JUMP JUMPDEST CALLDATALOAD DUP1 DUP3 LT ISZERO PUSH2 0x15DB JUMPI DUP6 MLOAD SWAP1 DUP8 DUP3 ADD SWAP3 DUP4 MSTORE DUP7 DUP3 ADD MSTORE DUP6 DUP2 MSTORE PUSH2 0x15CB DUP2 PUSH2 0xF34 JUMP JUMPDEST MLOAD SWAP1 KECCAK256 JUMPDEST SWAP7 ADD SWAP5 SWAP4 SWAP3 SWAP2 SWAP1 PUSH2 0x1584 JUMP JUMPDEST SWAP1 DUP6 MLOAD SWAP1 DUP8 DUP3 ADD SWAP3 DUP4 MSTORE DUP7 DUP3 ADD MSTORE DUP6 DUP2 MSTORE PUSH2 0x15F5 DUP2 PUSH2 0xF34 JUMP JUMPDEST MLOAD SWAP1 KECCAK256 PUSH2 0x15CF JUMP JUMPDEST POP SWAP5 POP POP POP POP POP SWAP1 JUMP JUMPDEST POP POP POP POP POP POP POP SWAP5 POP POP POP POP POP SWAP1 JUMP JUMPDEST POP POP POP POP POP POP POP POP SWAP5 POP POP POP POP POP SWAP1 JUMP JUMPDEST POP TIMESTAMP DUP6 LT PUSH2 0x1530 JUMP JUMPDEST ISZERO PUSH2 0x1638 JUMPI JUMP JUMPDEST PUSH1 0x40 MLOAD PUSH3 0x461BCD PUSH1 0xE5 SHL DUP2 MSTORE PUSH1 0x20 PUSH1 0x4 DUP3 ADD MSTORE PUSH1 0x2B PUSH1 0x24 DUP3 ADD MSTORE PUSH32 0x496E697469616C697A61626C653A20636F6E7472616374206973206E6F742069 PUSH1 0x44 DUP3 ADD MSTORE PUSH11 0x6E697469616C697A696E67 PUSH1 0xA8 SHL PUSH1 0x64 DUP3 ADD MSTORE PUSH1 0x84 SWAP1 REVERT JUMPDEST DUP1 EXTCODESIZE ISZERO PUSH2 0x16C6 JUMPI PUSH1 0x0 DUP1 MLOAD PUSH1 0x20 PUSH2 0x17F6 DUP4 CODECOPY DUP2 MLOAD SWAP2 MSTORE DUP1 SLOAD PUSH1 0x1 PUSH1 0x1 PUSH1 0xA0 SHL SUB NOT AND PUSH1 0x1 PUSH1 0x1 PUSH1 0xA0 SHL SUB SWAP1 SWAP3 AND SWAP2 SWAP1 SWAP2 OR SWAP1 SSTORE JUMP JUMPDEST PUSH1 0x40 MLOAD PUSH3 0x461BCD PUSH1 0xE5 SHL DUP2 MSTORE PUSH1 0x20 PUSH1 0x4 DUP3 ADD MSTORE PUSH1 0x2D PUSH1 0x24 DUP3 ADD MSTORE PUSH32 0x455243313936373A206E657720696D706C656D656E746174696F6E206973206E PUSH1 0x44 DUP3 ADD MSTORE PUSH13 0x1BDD08184818DBDB9D1C9858DD PUSH1 0x9A SHL PUSH1 0x64 DUP3 ADD MSTORE PUSH1 0x84 SWAP1 REVERT JUMPDEST SWAP2 SWAP3 SWAP1 ISZERO PUSH2 0x1783 JUMPI POP DUP2 MLOAD ISZERO PUSH2 0x1735 JUMPI POP SWAP1 JUMP JUMPDEST EXTCODESIZE ISZERO PUSH2 0x173E JUMPI SWAP1 JUMP JUMPDEST PUSH1 0x40 MLOAD PUSH3 0x461BCD PUSH1 0xE5 SHL DUP2 MSTORE PUSH1 0x20 PUSH1 0x4 DUP3 ADD MSTORE PUSH1 0x1D PUSH1 0x24 DUP3 ADD MSTORE PUSH32 0x416464726573733A2063616C6C20746F206E6F6E2D636F6E7472616374000000 PUSH1 0x44 DUP3 ADD MSTORE PUSH1 0x64 SWAP1 REVERT JUMPDEST DUP3 MLOAD SWAP1 SWAP2 POP ISZERO PUSH2 0x1796 JUMPI POP DUP1 MLOAD SWAP1 PUSH1 0x20 ADD REVERT JUMPDEST PUSH1 0x40 MLOAD SWAP1 PUSH3 0x461BCD PUSH1 0xE5 SHL DUP3 MSTORE DUP2 PUSH1 0x20 DUP1 PUSH1 0x4 DUP4 ADD MSTORE DUP3 MLOAD SWAP1 DUP2 PUSH1 0x24 DUP5 ADD MSTORE PUSH1 0x0 SWAP4 JUMPDEST DUP3 DUP6 LT PUSH2 0x17DC JUMPI POP POP PUSH1 0x44 SWAP3 POP PUSH1 0x0 DUP4 DUP3 DUP5 ADD ADD MSTORE PUSH1 0x1F DUP1 NOT SWAP2 ADD AND DUP2 ADD SUB ADD SWAP1 REVERT JUMPDEST DUP5 DUP2 ADD DUP3 ADD MLOAD DUP7 DUP7 ADD PUSH1 0x44 ADD MSTORE SWAP4 DUP2 ADD SWAP4 DUP6 SWAP4 POP PUSH2 0x17B9 JUMP INVALID CALLDATASIZE ADDMOD SWAP5 LOG1 EXTCODESIZE LOG1 LOG3 0x21 MOD PUSH8 0xC828492DB98DCA3E KECCAK256 PUSH23 0xCC3735A920A3CA505D382BBCA2646970667358221220E1 DUP1 MCOPY 0x4D RETURN DUP11 0xAD 0xF7 SELFDESTRUCT 0x24 0x29 0xE7 SELFDESTRUCT PUSH22 0xAC725127E25405EC10754975065FDBC003D264736F6C PUSH4 0x43000818 STOP CALLER "},"methodIdentifiers":{"delegationRoots(address)":"4bf04c73","getDelegationRoot(address)":"2d9fa06f","initialize(address)":"c4d66de8","owner()":"8da5cb5b","pause()":"8456cb59","paused()":"5c975abb","proxiableUUID()":"52d1902d","renounceOwnership()":"715018a6","revokeDelegation(bytes32,address)":"be2ca9d0","revokedDelegations(bytes32)":"232acf5e","rootUpdaters(address)":"372b102d","setRootUpdater(address,bool)":"53739410","transferOwnership(address)":"f2fde38b","unpause()":"3f4ba83a","updateDelegationRoot(address,bytes32)":"14220501","upgradeTo(address)":"3659cfe6","upgradeToAndCall(address,bytes)":"4f1ef286","verifyDelegation(bytes32,bytes32[],address,bytes32,uint64,uint8)":"afa6a1cf","verifyDelegationChain(bytes32[],bytes32[][],address[],address[],bytes32[],uint64[],uint8[])":"96f16c17","verifyDelegationForAction(bytes32,bytes32[],address,string,uint64,uint8)":"f53da7cd"}}}}}