{"src/AgentWallet.sol":{"AgentWallet":{"abi":[{"inputs":[],"stateMutability":"nonpayable","type":"constructor"},{"inputs":[],"name":"AlreadyInitializedError","type":"error"},{"inputs":[],"name":"CallFailedError","type":"error"},{"inputs":[],"name":"ExecutionFailedError","type":"error"},{"inputs":[],"name":"FundingFailedError","type":"error"},{"inputs":[],"name":"InvalidCallDataError","type":"error"},{"inputs":[],"name":"InvalidEntryPointError","type":"error"},{"inputs":[],"name":"InvalidOwnerError","type":"error"},{"inputs":[],"name":"InvalidOwnerSignatureError","type":"error"},{"inputs":[],"name":"InvalidRecipientError","type":"error"},{"inputs":[],"name":"InvalidSessionManagerError","type":"error"},{"inputs":[],"name":"LengthMismatchError","type":"error"},{"inputs":[],"name":"LightweightSessionValidationFailedError","type":"error"},{"inputs":[],"name":"NotAuthorizedError","type":"error"},{"inputs":[],"name":"NotEntryPointError","type":"error"},{"inputs":[],"name":"NotOwnerError","type":"error"},{"inputs":[],"name":"NotWhiteListedError","type":"error"},{"inputs":[],"name":"SessionValidationFailedError","type":"error"},{"inputs":[],"name":"UnsupportedCallDataError","type":"error"},{"anonymous":false,"inputs":[{"indexed":true,"internalType":"address","name":"caller","type":"address"},{"indexed":false,"internalType":"uint256","name":"callCount","type":"uint256"},{"indexed":false,"internalType":"uint256","name":"totalValue","type":"uint256"}],"name":"BatchExecutionPerformed","type":"event"},{"anonymous":false,"inputs":[{"indexed":false,"internalType":"uint256","name":"amount","type":"uint256"},{"indexed":false,"internalType":"uint256","name":"newBalance","type":"uint256"}],"name":"EntryPointDepositAdded","type":"event"},{"anonymous":false,"inputs":[{"indexed":true,"internalType":"address","name":"recipient","type":"address"},{"indexed":false,"internalType":"uint256","name":"amount","type":"uint256"}],"name":"EntryPointWithdrawal","type":"event"},{"anonymous":false,"inputs":[{"indexed":true,"internalType":"address","name":"caller","type":"address"},{"indexed":true,"internalType":"address","name":"target","type":"address"},{"indexed":false,"internalType":"uint256","name":"value","type":"uint256"},{"indexed":false,"internalType":"bytes32","name":"dataHash","type":"bytes32"}],"name":"ExecutionPerformed","type":"event"},{"anonymous":false,"inputs":[{"indexed":true,"internalType":"address","name":"oldOwner","type":"address"},{"indexed":true,"internalType":"address","name":"newOwner","type":"address"}],"name":"OwnerChanged","type":"event"},{"anonymous":false,"inputs":[{"indexed":true,"internalType":"address","name":"previousOwner","type":"address"},{"indexed":true,"internalType":"address","name":"newOwner","type":"address"}],"name":"OwnershipTransferStarted","type":"event"},{"anonymous":false,"inputs":[{"indexed":true,"internalType":"bytes32","name":"userOpHash","type":"bytes32"},{"indexed":true,"internalType":"address","name":"signer","type":"address"},{"indexed":true,"internalType":"bytes32","name":"sessionId","type":"bytes32"},{"indexed":false,"internalType":"uint256","name":"value","type":"uint256"}],"name":"UserOperationValidated","type":"event"},{"anonymous":false,"inputs":[{"indexed":true,"internalType":"address","name":"owner","type":"address"},{"indexed":true,"internalType":"address","name":"sessionManager","type":"address"},{"indexed":true,"internalType":"address","name":"entryPoint","type":"address"}],"name":"WalletInitialized","type":"event"},{"anonymous":false,"inputs":[{"indexed":true,"internalType":"address","name":"party","type":"address"},{"indexed":false,"internalType":"bool","name":"status","type":"bool"}],"name":"WhiteListUpdated","type":"event"},{"inputs":[],"name":"acceptOwnership","outputs":[],"stateMutability":"nonpayable","type":"function"},{"inputs":[],"name":"addDeposit","outputs":[],"stateMutability":"payable","type":"function"},{"inputs":[{"internalType":"address","name":"newOwner","type":"address"}],"name":"changeOwner","outputs":[],"stateMutability":"nonpayable","type":"function"},{"inputs":[],"name":"checkBalance","outputs":[{"internalType":"uint256","name":"","type":"uint256"}],"stateMutability":"view","type":"function"},{"inputs":[],"name":"entryPoint","outputs":[{"internalType":"address","name":"","type":"address"}],"stateMutability":"view","type":"function"},{"inputs":[{"internalType":"address","name":"target","type":"address"},{"internalType":"uint256","name":"value","type":"uint256"},{"internalType":"bytes","name":"data","type":"bytes"}],"name":"execute","outputs":[],"stateMutability":"nonpayable","type":"function"},{"inputs":[{"internalType":"address[]","name":"targets","type":"address[]"},{"internalType":"uint256[]","name":"values","type":"uint256[]"},{"internalType":"bytes[]","name":"data","type":"bytes[]"}],"name":"executeBatch","outputs":[],"stateMutability":"nonpayable","type":"function"},{"inputs":[],"name":"getDeposit","outputs":[{"internalType":"uint256","name":"","type":"uint256"}],"stateMutability":"view","type":"function"},{"inputs":[{"internalType":"address","name":"_owner","type":"address"},{"internalType":"address","name":"_sessionManager","type":"address"},{"internalType":"address","name":"_entryPoint","type":"address"}],"name":"initialize","outputs":[],"stateMutability":"nonpayable","type":"function"},{"inputs":[],"name":"owner","outputs":[{"internalType":"address","name":"","type":"address"}],"stateMutability":"view","type":"function"},{"inputs":[],"name":"pendingOwner","outputs":[{"internalType":"address","name":"","type":"address"}],"stateMutability":"view","type":"function"},{"inputs":[],"name":"sessionManager","outputs":[{"internalType":"address","name":"","type":"address"}],"stateMutability":"view","type":"function"},{"inputs":[{"internalType":"address","name":"party","type":"address"},{"internalType":"bool","name":"status","type":"bool"}],"name":"setWhiteListedParty","outputs":[],"stateMutability":"nonpayable","type":"function"},{"inputs":[{"internalType":"address[]","name":"parties","type":"address[]"},{"internalType":"bool[]","name":"statuses","type":"bool[]"}],"name":"setWhiteListedPartyBatch","outputs":[],"stateMutability":"nonpayable","type":"function"},{"inputs":[{"components":[{"internalType":"address","name":"sender","type":"address"},{"internalType":"uint256","name":"nonce","type":"uint256"},{"internalType":"bytes","name":"initCode","type":"bytes"},{"internalType":"bytes","name":"callData","type":"bytes"},{"internalType":"bytes32","name":"accountGasLimits","type":"bytes32"},{"internalType":"uint256","name":"preVerificationGas","type":"uint256"},{"internalType":"bytes32","name":"gasFees","type":"bytes32"},{"internalType":"bytes","name":"paymasterAndData","type":"bytes"},{"internalType":"bytes","name":"signature","type":"bytes"}],"internalType":"struct PackedUserOperation","name":"userOp","type":"tuple"},{"internalType":"bytes32","name":"userOpHash","type":"bytes32"},{"internalType":"uint256","name":"missingAccountFunds","type":"uint256"}],"name":"validateUserOp","outputs":[{"internalType":"uint256","name":"validationData","type":"uint256"}],"stateMutability":"nonpayable","type":"function"},{"inputs":[{"internalType":"address","name":"","type":"address"}],"name":"whiteListedParties","outputs":[{"internalType":"bool","name":"","type":"bool"}],"stateMutability":"view","type":"function"},{"inputs":[{"internalType":"address payable","name":"recipient","type":"address"},{"internalType":"uint256","name":"amount","type":"uint256"}],"name":"withdrawDepositTo","outputs":[],"stateMutability":"nonpayable","type":"function"},{"stateMutability":"payable","type":"receive"}],"evm":{"bytecode":{"linkReferences":{},"object":"60808060405234610028576001600055600160ff196006541617600655611896908161002e8239f35b600080fdfe6080604052600436101561001b575b361561001957600080fd5b005b60003560e01c806319822f7c1461012b57806347e1da2a146101265780634a58db19146101215780634d44560d1461011c57806379ba5097146101175780638da5cb5b146101125780639f5e3ecc1461010d578063a6f9dae114610108578063b0d691fe14610103578063b61d27f6146100fe578063b7b13f79146100f9578063b8434685146100f4578063c0c53b8b146100ef578063c399ec88146100ea578063c71daccb146100e5578063e30c3978146100e05763f9c56aa60361000e57610cac565b610c79565b610c5d565b610bed565b610aca565b610a88565b610a5f565b6109fa565b6109d1565b61092d565b6107ea565b6107c1565b610725565b6105fc565b61048c565b610259565b34610224576003196060368201126102245760048035916001600160401b0383116102245761012090833603011261022457805460443592602435916001600160a01b039190821633036102135760ff60065416156102025782610190918501611059565b91949095806101d6575b50507f3beba097c09c235465df7c6857b74b6435ffb77e2cb08a8f714156c35da60373916020916040519586521693a460405160008152602090f35b600080808093335af16101e7610db4565b50156101f3578061019a565b60405163323e69dd60e11b8152fd5b604051630173063360e51b81528490fd5b60405163f02946ad60e01b81528490fd5b600080fd5b9181601f84011215610224578235916001600160401b038311610224576020808501948460051b01011161022457565b34610224576060366003190112610224576001600160401b03600480358281116102245761028a9036908301610229565b9290602435828111610224576102a39036908501610229565b939092604435908111610224576102bd9036908301610229565b936102c6611297565b60ff60065416156104705760018054909590336001600160a01b0391821614159081610462575b5061045157868814801590610447575b610436579594939291906000966000965b898089106103545760408051918252602082018b905233917f36551ad729f069397fd12c263eba2bdbdb0e999953df151620e1ec9edd8f2aaf9190a26100196001600055565b61039a6103936103796103748c61039e958c9d9e9f9798999a9b9c610dfa565b610e0f565b6001600160a01b0316600090815260056020526040902090565b5460ff1690565b1590565b610425576103b8906103b18a8487610dfa565b3590610e1c565b976103c7610374828c8a610dfa565b6000806103d5848689610dfa565b35926103e285888b610e71565b90946040956103f5875180948193610e8c565b03925af1610401610db4565b5015610416575087019695949392919061030e565b5163ec98ced760e01b81528690fd5b604051633e2d764560e01b81528690fd5b604051637736a16d60e01b81528490fd5b50808714156102fd565b6040516379b798cf60e11b81528490fd5b9050845416331415386102ed565b604051630173063360e51b81528390fd5b600091031261022457565b6000806003193601126105e85760ff60065416156105d6576004546104c7906104bb906001600160a01b031681565b6001600160a01b031690565b803b156105d25760405163b760faf960e01b81523060048201529082908290602490829034905af180156105b4576105b9575b50600454610512906104bb906001600160a01b031681565b6040516370a0823160e01b815230600482015290602090829060249082905afa9081156105b4577f4936e4683983dc3b8afb17c6844af8a193b8bdc330595d260421c7e84ebf683e9161057f918491610585575b5060408051348152602081019290925290918291820190565b0390a180f35b6105a7915060203d6020116105ad575b61059f8183610d78565b810190610ea6565b38610566565b503d610595565b610e9a565b806105c66105cc92610d60565b80610481565b386104fa565b5080fd5b604051630173063360e51b8152600490fd5b80fd5b6001600160a01b0381160361022457565b346102245760408060031936011261022457600480359161061c836105eb565b600154602435906001600160a01b0390811633036107165760ff60065416156107075784169384156106f857835461065e906104bb906001600160a01b031681565b93843b1561022457835163040b850f60e31b81526001600160a01b0390921690820190815260208101839052909360009185919082908490829060400103925af19182156105b4577fcae8414aeb02c2a7a7089c22ed61def4882bf260298b39ff6ba047ef80a2f379936106e0936106e5575b50519081529081906020820190565b0390a2005b806105c66106f292610d60565b386106d1565b505051637192f5b760e11b8152fd5b505051630173063360e51b8152fd5b5050516374a2152760e01b8152fd5b34610224576000806003193601126105e85760ff60065416156105d6576002546001600160a01b0390811690338290036107af57600154916001600160601b0360a01b8316176001556107856001600160601b0360a01b60025416600255565b3391167fb532073b38c83145e3e5135377a08bf9aab55bc0fd7c1179cd4fb995d2a5159c8380a380f35b6040516379b798cf60e11b8152600490fd5b34610224576000366003190112610224576001546040516001600160a01b039091168152602090f35b3461022457604080600319360112610224576004906001600160401b039082358281116102245761081e9036908501610229565b92602435908111610224576108369036908601610229565b939060018060a01b03916001968360015416330361091e5760ff600654161561090f57868203610900575060005b81811061086d57005b806108a961087d8a938a87610dfa565b3561088781610ca2565b61089861037961037485888c610dfa565b9060ff801983541691151516179055565b6108b7610374828589610dfa565b7fb1288e9f7bae3599e10819d5553febea48e11a6f8f585b32c8abad397dd2627e866108ec6108e7858d8a610dfa565b610eb5565b8a519015158152921691602090a201610864565b604051637736a16d60e01b8152fd5b604051630173063360e51b8152fd5b6040516374a2152760e01b8152fd5b346102245760203660031901126102245760043561094a816105eb565b6001546001600160a01b0390811691338390036109bf5760ff60065416156105d657169081156109ad57600280546001600160a01b031916831790557f38d16b8cac22d99fc7c124b9cd0de2d3fa1faef420bfe791d8c362d765e22700600080a3005b60405163062ef65960e21b8152600490fd5b6040516374a2152760e01b8152600490fd5b34610224576000366003190112610224576004546040516001600160a01b039091168152602090f35b3461022457606036600319011261022457600435610a17816105eb565b604435906001600160401b0390818311610224573660238401121561022457826004013591821161022457366024838501011161022457602461001993019060243590610ebf565b34610224576000366003190112610224576003546040516001600160a01b039091168152602090f35b3461022457602036600319011261022457600435610aa5816105eb565b60018060a01b03166000526005602052602060ff604060002054166040519015158152f35b3461022457606036600319011261022457600435610ae7816105eb565b602435610af3816105eb565b604435610aff816105eb565b60065460ff166105d6576001600160a01b03918383169182156109ad57838216938415610bdc578116948515610bca57610b9192610b57610b749260018060a01b03166001600160601b0360a01b6001541617600155565b60018060a01b03166001600160601b0360a01b6003541617600355565b60018060a01b03166001600160601b0360a01b6004541617600455565b610ba3600160ff196006541617600655565b7f31f30195006760f9b61e7325457ca7acacfbdd7734b88a22545e264b62357fde600080a4005b6040516392377dd560e01b8152600490fd5b60405162d9b42560e01b8152600490fd5b34610224576000366003190112610224576024602060018060a01b0360045416604051928380926370a0823160e01b82523060048301525afa80156105b457602091600091610c40575b50604051908152f35b610c579150823d84116105ad5761059f8183610d78565b38610c37565b3461022457600036600319011261022457602047604051908152f35b34610224576000366003190112610224576002546040516001600160a01b039091168152602090f35b8015150361022457565b3461022457604036600319011261022457600435610cc9816105eb565b60243590610cd682610ca2565b6001546001600160a01b039190821633036109bf5760ff60065416156105d6577fb1288e9f7bae3599e10819d5553febea48e11a6f8f585b32c8abad397dd2627e9160209116928360005260058252610d3f8160406000209060ff801983541691151516179055565b6040519015158152a2005b634e487b7160e01b600052604160045260246000fd5b6001600160401b038111610d7357604052565b610d4a565b90601f801991011681019081106001600160401b03821117610d7357604052565b6001600160401b038111610d7357601f01601f191660200190565b3d15610ddf573d90610dc582610d99565b91610dd36040519384610d78565b82523d6000602084013e565b606090565b634e487b7160e01b600052603260045260246000fd5b9190811015610e0a5760051b0190565b610de4565b35610e19816105eb565b90565b91908201809211610e2957565b634e487b7160e01b600052601160045260246000fd5b903590601e198136030182121561022457018035906001600160401b0382116102245760200191813603831361022457565b90821015610e0a57610e889160051b810190610e3f565b9091565b908092918237016000815290565b6040513d6000823e3d90fd5b90816020910312610224575190565b35610e1981610ca2565b92919091610ecb611297565b60ff60065416156105d6576001546001600160a01b039190821633141580610fb7575b6107af576001600160a01b0385166000908152600560205260409020610f179061039a90610393565b610fa55760008060405180610f2d818689610e8c565b039087895af1610f3b610db4565b5015610f93577f0e33d84651ce1cd4dc3f8e0dda3367f25aac071e622cf520436716bba196be5392610f6e913691610fc5565b805160209182012060408051958652918501529316923392a3610f916001600055565b565b6040516319a5546560e21b8152600490fd5b604051633e2d764560e01b8152600490fd5b508160045416331415610eee565b929192610fd182610d99565b91610fdf6040519384610d78565b829481845281830111610224578281602093846000960137010152565b9080601f8301121561022457816020610e1993359101610fc5565b9190916040818403126102245780359260208201356001600160401b03811161022457610e199201610ffc565b908160209103126102245751610e1981610ca2565b90916110a461107461106e6060850185610e3f565b90611504565b937f19457468657265756d205369676e6564204d6573736167653a0a333200000000600052601c52603c60002090565b9161010081019060416110b78383610e3f565b905014611237576110cf6110e093926110d792610e3f565b810190611017565b81939194611607565b91846110f96104bb6104bb60035460018060a01b031690565b60405163f545b88b60e01b8152600481018490526001600160a01b038616602482015260448101839052602093918490829060649082906000905af160009181611218575b506111fb57506111a09183918660006111646104bb6104bb60035460018060a01b031690565b60405163370d79f560e21b815260048101949094526001600160a01b039092166024840152604483019390935290938492839182906064820190565b03925af19182156105b4576000926111ce575b5050156111bc57565b60405163e00e6a2560e01b8152600490fd5b6111ed9250803d106111f4575b6111e58183610d78565b810190611044565b38806111b3565b503d6111db565b925050501561120657565b60405163b02726e560e01b8152600490fd5b611230919250853d87116111f4576111e58183610d78565b903861113e565b61124a6112579395949261125192610e3f565b3691610fc5565b90611607565b60015490919061126f906001600160a01b03166104bb565b6001600160a01b03831603611285579160009190565b6040516391fad51160e01b8152600490fd5b6002600054146112a8576002600055565b60405162461bcd60e51b815260206004820152601f60248201527f5265656e7472616e637947756172643a207265656e7472616e742063616c6c006044820152606490fd5b909291928360041161022457831161022457600401916003190190565b91606083830312610224578235611320816105eb565b9260208101359260408201356001600160401b03811161022457610e199201610ffc565b6001600160401b038111610d735760051b60200190565b9080601f8301121561022457602090823561137581611344565b936113836040519586610d78565b81855260208086019260051b82010192831161022457602001905b8282106113ac575050505090565b8135815290830190830161139e565b81601f82011215610224578035916020916113d584611344565b936113e36040519586610d78565b808552838086019160051b8301019280841161022457848301915b84831061140e5750505050505090565b82356001600160401b03811161022457869161142f84848094890101610ffc565b8152019201916113fe565b9091606082840312610224576001600160401b039180358381116102245781019380601f8601121561022457602094803561147481611344565b916114826040519384610d78565b818352878084019260051b820101918483116102245788809201905b8382106114d757505050509482013584811161022457816114c091840161135b565b93604083013590811161022457610e1992016113bb565b82809183356114e5816105eb565b81520191019061149e565b8051821015610e0a5760209160051b010190565b60009291906001600160e01b031961151c838361161c565b16635b0e93fb60e11b81146115d6576323f0ed1560e11b1461154a57604051630141e84160e01b8152600490fd5b8161156092611558926112ed565b81019061143a565b509080518251036115c4576000935b81518510156115be5761159b61039a61039361037961158e89876114f0565b516001600160a01b031690565b610fa5576115b66001916115af87866114f0565b5190610e1c565b94019361156f565b93505050565b604051637736a16d60e01b8152600490fd5b5091925061160181806115f86115f082610e1996886112ed565b81019061130a565b509590506112ed565b9061163a565b610e19916116149161166a565b9190916116be565b90600411611628573590565b60405163fd1da3df60e01b8152600490fd5b6116469181019061130a565b50506001600160a01b031660009081526005602052604090205460ff1615610fa557565b90604181511460001461169457610e88916020820151906060604084015193015160001a906117de565b5050600090600290565b600511156116a857565b634e487b7160e01b600052602160045260246000fd5b6116c78161169e565b806116cf5750565b6116d88161169e565b600181036117255760405162461bcd60e51b815260206004820152601860248201527f45434453413a20696e76616c6964207369676e617475726500000000000000006044820152606490fd5b61172e8161169e565b6002810361177b5760405162461bcd60e51b815260206004820152601f60248201527f45434453413a20696e76616c6964207369676e6174757265206c656e677468006044820152606490fd5b8061178760039261169e565b1461178e57565b60405162461bcd60e51b815260206004820152602260248201527f45434453413a20696e76616c6964207369676e6174757265202773272076616c604482015261756560f01b6064820152608490fd5b9291907f7fffffffffffffffffffffffffffffff5d576e7357a4501ddfe92f46681b20a083116118545791608094939160ff602094604051948552168484015260408301526060820152600093849182805260015afa156105b45781516001600160a01b0381161561184e579190565b50600190565b5050505060009060039056fea2646970667358221220330051b1681aade00b31be0d25eae4cb6497fbe1e4a2c6f581b4747343be9e0864736f6c63430008180033","opcodes":"PUSH1 0x80 DUP1 PUSH1 0x40 MSTORE CALLVALUE PUSH2 0x28 JUMPI PUSH1 0x1 PUSH1 0x0 SSTORE PUSH1 0x1 PUSH1 0xFF NOT PUSH1 0x6 SLOAD AND OR PUSH1 0x6 SSTORE PUSH2 0x1896 SWAP1 DUP2 PUSH2 0x2E DUP3 CODECOPY RETURN JUMPDEST PUSH1 0x0 DUP1 REVERT INVALID PUSH1 0x80 PUSH1 0x40 MSTORE PUSH1 0x4 CALLDATASIZE LT ISZERO PUSH2 0x1B JUMPI JUMPDEST CALLDATASIZE ISZERO PUSH2 0x19 JUMPI PUSH1 0x0 DUP1 REVERT JUMPDEST STOP JUMPDEST PUSH1 0x0 CALLDATALOAD PUSH1 0xE0 SHR DUP1 PUSH4 0x19822F7C EQ PUSH2 0x12B JUMPI DUP1 PUSH4 0x47E1DA2A EQ PUSH2 0x126 JUMPI DUP1 PUSH4 0x4A58DB19 EQ PUSH2 0x121 JUMPI DUP1 PUSH4 0x4D44560D EQ PUSH2 0x11C JUMPI DUP1 PUSH4 0x79BA5097 EQ PUSH2 0x117 JUMPI DUP1 PUSH4 0x8DA5CB5B EQ PUSH2 0x112 JUMPI DUP1 PUSH4 0x9F5E3ECC EQ PUSH2 0x10D JUMPI DUP1 PUSH4 0xA6F9DAE1 EQ PUSH2 0x108 JUMPI DUP1 PUSH4 0xB0D691FE EQ PUSH2 0x103 JUMPI DUP1 PUSH4 0xB61D27F6 EQ PUSH2 0xFE JUMPI DUP1 PUSH4 0xB7B13F79 EQ PUSH2 0xF9 JUMPI DUP1 PUSH4 0xB8434685 EQ PUSH2 0xF4 JUMPI DUP1 PUSH4 0xC0C53B8B EQ PUSH2 0xEF JUMPI DUP1 PUSH4 0xC399EC88 EQ PUSH2 0xEA JUMPI DUP1 PUSH4 0xC71DACCB EQ PUSH2 0xE5 JUMPI DUP1 PUSH4 0xE30C3978 EQ PUSH2 0xE0 JUMPI PUSH4 0xF9C56AA6 SUB PUSH2 0xE JUMPI PUSH2 0xCAC JUMP JUMPDEST PUSH2 0xC79 JUMP JUMPDEST PUSH2 0xC5D JUMP JUMPDEST PUSH2 0xBED JUMP JUMPDEST PUSH2 0xACA JUMP JUMPDEST PUSH2 0xA88 JUMP JUMPDEST PUSH2 0xA5F JUMP JUMPDEST PUSH2 0x9FA JUMP JUMPDEST PUSH2 0x9D1 JUMP JUMPDEST PUSH2 0x92D JUMP JUMPDEST PUSH2 0x7EA JUMP JUMPDEST PUSH2 0x7C1 JUMP JUMPDEST PUSH2 0x725 JUMP JUMPDEST PUSH2 0x5FC JUMP JUMPDEST PUSH2 0x48C JUMP JUMPDEST PUSH2 0x259 JUMP JUMPDEST CALLVALUE PUSH2 0x224 JUMPI PUSH1 0x3 NOT PUSH1 0x60 CALLDATASIZE DUP3 ADD SLT PUSH2 0x224 JUMPI PUSH1 0x4 DUP1 CALLDATALOAD SWAP2 PUSH1 0x1 PUSH1 0x1 PUSH1 0x40 SHL SUB DUP4 GT PUSH2 0x224 JUMPI PUSH2 0x120 SWAP1 DUP4 CALLDATASIZE SUB ADD SLT PUSH2 0x224 JUMPI DUP1 SLOAD PUSH1 0x44 CALLDATALOAD SWAP3 PUSH1 0x24 CALLDATALOAD SWAP2 PUSH1 0x1 PUSH1 0x1 PUSH1 0xA0 SHL SUB SWAP2 SWAP1 DUP3 AND CALLER SUB PUSH2 0x213 JUMPI PUSH1 0xFF PUSH1 0x6 SLOAD AND ISZERO PUSH2 0x202 JUMPI DUP3 PUSH2 0x190 SWAP2 DUP6 ADD PUSH2 0x1059 JUMP JUMPDEST SWAP2 SWAP5 SWAP1 SWAP6 DUP1 PUSH2 0x1D6 JUMPI JUMPDEST POP POP PUSH32 0x3BEBA097C09C235465DF7C6857B74B6435FFB77E2CB08A8F714156C35DA60373 SWAP2 PUSH1 0x20 SWAP2 PUSH1 0x40 MLOAD SWAP6 DUP7 MSTORE AND SWAP4 LOG4 PUSH1 0x40 MLOAD PUSH1 0x0 DUP2 MSTORE PUSH1 0x20 SWAP1 RETURN JUMPDEST PUSH1 0x0 DUP1 DUP1 DUP1 SWAP4 CALLER GAS CALL PUSH2 0x1E7 PUSH2 0xDB4 JUMP JUMPDEST POP ISZERO PUSH2 0x1F3 JUMPI DUP1 PUSH2 0x19A JUMP JUMPDEST PUSH1 0x40 MLOAD PUSH4 0x323E69DD PUSH1 0xE1 SHL DUP2 MSTORE REVERT JUMPDEST PUSH1 0x40 MLOAD PUSH4 0x1730633 PUSH1 0xE5 SHL DUP2 MSTORE DUP5 SWAP1 REVERT JUMPDEST PUSH1 0x40 MLOAD PUSH4 0xF02946AD PUSH1 0xE0 SHL DUP2 MSTORE DUP5 SWAP1 REVERT JUMPDEST PUSH1 0x0 DUP1 REVERT JUMPDEST SWAP2 DUP2 PUSH1 0x1F DUP5 ADD SLT ISZERO PUSH2 0x224 JUMPI DUP3 CALLDATALOAD SWAP2 PUSH1 0x1 PUSH1 0x1 PUSH1 0x40 SHL SUB DUP4 GT PUSH2 0x224 JUMPI PUSH1 0x20 DUP1 DUP6 ADD SWAP5 DUP5 PUSH1 0x5 SHL ADD ADD GT PUSH2 0x224 JUMPI JUMP JUMPDEST CALLVALUE PUSH2 0x224 JUMPI PUSH1 0x60 CALLDATASIZE PUSH1 0x3 NOT ADD SLT PUSH2 0x224 JUMPI PUSH1 0x1 PUSH1 0x1 PUSH1 0x40 SHL SUB PUSH1 0x4 DUP1 CALLDATALOAD DUP3 DUP2 GT PUSH2 0x224 JUMPI PUSH2 0x28A SWAP1 CALLDATASIZE SWAP1 DUP4 ADD PUSH2 0x229 JUMP JUMPDEST SWAP3 SWAP1 PUSH1 0x24 CALLDATALOAD DUP3 DUP2 GT PUSH2 0x224 JUMPI PUSH2 0x2A3 SWAP1 CALLDATASIZE SWAP1 DUP6 ADD PUSH2 0x229 JUMP JUMPDEST SWAP4 SWAP1 SWAP3 PUSH1 0x44 CALLDATALOAD SWAP1 DUP2 GT PUSH2 0x224 JUMPI PUSH2 0x2BD SWAP1 CALLDATASIZE SWAP1 DUP4 ADD PUSH2 0x229 JUMP JUMPDEST SWAP4 PUSH2 0x2C6 PUSH2 0x1297 JUMP JUMPDEST PUSH1 0xFF PUSH1 0x6 SLOAD AND ISZERO PUSH2 0x470 JUMPI PUSH1 0x1 DUP1 SLOAD SWAP1 SWAP6 SWAP1 CALLER PUSH1 0x1 PUSH1 0x1 PUSH1 0xA0 SHL SUB SWAP2 DUP3 AND EQ ISZERO SWAP1 DUP2 PUSH2 0x462 JUMPI JUMPDEST POP PUSH2 0x451 JUMPI DUP7 DUP9 EQ DUP1 ISZERO SWAP1 PUSH2 0x447 JUMPI JUMPDEST PUSH2 0x436 JUMPI SWAP6 SWAP5 SWAP4 SWAP3 SWAP2 SWAP1 PUSH1 0x0 SWAP7 PUSH1 0x0 SWAP7 JUMPDEST DUP10 DUP1 DUP10 LT PUSH2 0x354 JUMPI PUSH1 0x40 DUP1 MLOAD SWAP2 DUP3 MSTORE PUSH1 0x20 DUP3 ADD DUP12 SWAP1 MSTORE CALLER SWAP2 PUSH32 0x36551AD729F069397FD12C263EBA2BDBDB0E999953DF151620E1EC9EDD8F2AAF SWAP2 SWAP1 LOG2 PUSH2 0x19 PUSH1 0x1 PUSH1 0x0 SSTORE JUMP JUMPDEST PUSH2 0x39A PUSH2 0x393 PUSH2 0x379 PUSH2 0x374 DUP13 PUSH2 0x39E SWAP6 DUP13 SWAP14 SWAP15 SWAP16 SWAP8 SWAP9 SWAP10 SWAP11 SWAP12 SWAP13 PUSH2 0xDFA JUMP JUMPDEST PUSH2 0xE0F JUMP JUMPDEST PUSH1 0x1 PUSH1 0x1 PUSH1 0xA0 SHL SUB AND PUSH1 0x0 SWAP1 DUP2 MSTORE PUSH1 0x5 PUSH1 0x20 MSTORE PUSH1 0x40 SWAP1 KECCAK256 SWAP1 JUMP JUMPDEST SLOAD PUSH1 0xFF AND SWAP1 JUMP JUMPDEST ISZERO SWAP1 JUMP JUMPDEST PUSH2 0x425 JUMPI PUSH2 0x3B8 SWAP1 PUSH2 0x3B1 DUP11 DUP5 DUP8 PUSH2 0xDFA JUMP JUMPDEST CALLDATALOAD SWAP1 PUSH2 0xE1C JUMP JUMPDEST SWAP8 PUSH2 0x3C7 PUSH2 0x374 DUP3 DUP13 DUP11 PUSH2 0xDFA JUMP JUMPDEST PUSH1 0x0 DUP1 PUSH2 0x3D5 DUP5 DUP7 DUP10 PUSH2 0xDFA JUMP JUMPDEST CALLDATALOAD SWAP3 PUSH2 0x3E2 DUP6 DUP9 DUP12 PUSH2 0xE71 JUMP JUMPDEST SWAP1 SWAP5 PUSH1 0x40 SWAP6 PUSH2 0x3F5 DUP8 MLOAD DUP1 SWAP5 DUP2 SWAP4 PUSH2 0xE8C JUMP JUMPDEST SUB SWAP3 GAS CALL PUSH2 0x401 PUSH2 0xDB4 JUMP JUMPDEST POP ISZERO PUSH2 0x416 JUMPI POP DUP8 ADD SWAP7 SWAP6 SWAP5 SWAP4 SWAP3 SWAP2 SWAP1 PUSH2 0x30E JUMP JUMPDEST MLOAD PUSH4 0xEC98CED7 PUSH1 0xE0 SHL DUP2 MSTORE DUP7 SWAP1 REVERT JUMPDEST PUSH1 0x40 MLOAD PUSH4 0x3E2D7645 PUSH1 0xE0 SHL DUP2 MSTORE DUP7 SWAP1 REVERT JUMPDEST PUSH1 0x40 MLOAD PUSH4 0x7736A16D PUSH1 0xE0 SHL DUP2 MSTORE DUP5 SWAP1 REVERT JUMPDEST POP DUP1 DUP8 EQ ISZERO PUSH2 0x2FD JUMP JUMPDEST PUSH1 0x40 MLOAD PUSH4 0x79B798CF PUSH1 0xE1 SHL DUP2 MSTORE DUP5 SWAP1 REVERT JUMPDEST SWAP1 POP DUP5 SLOAD AND CALLER EQ ISZERO CODESIZE PUSH2 0x2ED JUMP JUMPDEST PUSH1 0x40 MLOAD PUSH4 0x1730633 PUSH1 0xE5 SHL DUP2 MSTORE DUP4 SWAP1 REVERT JUMPDEST PUSH1 0x0 SWAP2 SUB SLT PUSH2 0x224 JUMPI JUMP JUMPDEST PUSH1 0x0 DUP1 PUSH1 0x3 NOT CALLDATASIZE ADD SLT PUSH2 0x5E8 JUMPI PUSH1 0xFF PUSH1 0x6 SLOAD AND ISZERO PUSH2 0x5D6 JUMPI PUSH1 0x4 SLOAD PUSH2 0x4C7 SWAP1 PUSH2 0x4BB SWAP1 PUSH1 0x1 PUSH1 0x1 PUSH1 0xA0 SHL SUB AND DUP2 JUMP JUMPDEST PUSH1 0x1 PUSH1 0x1 PUSH1 0xA0 SHL SUB AND SWAP1 JUMP JUMPDEST DUP1 EXTCODESIZE ISZERO PUSH2 0x5D2 JUMPI PUSH1 0x40 MLOAD PUSH4 0xB760FAF9 PUSH1 0xE0 SHL DUP2 MSTORE ADDRESS PUSH1 0x4 DUP3 ADD MSTORE SWAP1 DUP3 SWAP1 DUP3 SWAP1 PUSH1 0x24 SWAP1 DUP3 SWAP1 CALLVALUE SWAP1 GAS CALL DUP1 ISZERO PUSH2 0x5B4 JUMPI PUSH2 0x5B9 JUMPI JUMPDEST POP PUSH1 0x4 SLOAD PUSH2 0x512 SWAP1 PUSH2 0x4BB SWAP1 PUSH1 0x1 PUSH1 0x1 PUSH1 0xA0 SHL SUB AND DUP2 JUMP JUMPDEST PUSH1 0x40 MLOAD PUSH4 0x70A08231 PUSH1 0xE0 SHL DUP2 MSTORE ADDRESS PUSH1 0x4 DUP3 ADD MSTORE SWAP1 PUSH1 0x20 SWAP1 DUP3 SWAP1 PUSH1 0x24 SWAP1 DUP3 SWAP1 GAS STATICCALL SWAP1 DUP2 ISZERO PUSH2 0x5B4 JUMPI PUSH32 0x4936E4683983DC3B8AFB17C6844AF8A193B8BDC330595D260421C7E84EBF683E SWAP2 PUSH2 0x57F SWAP2 DUP5 SWAP2 PUSH2 0x585 JUMPI JUMPDEST POP PUSH1 0x40 DUP1 MLOAD CALLVALUE DUP2 MSTORE PUSH1 0x20 DUP2 ADD SWAP3 SWAP1 SWAP3 MSTORE SWAP1 SWAP2 DUP3 SWAP2 DUP3 ADD SWAP1 JUMP JUMPDEST SUB SWAP1 LOG1 DUP1 RETURN JUMPDEST PUSH2 0x5A7 SWAP2 POP PUSH1 0x20 RETURNDATASIZE PUSH1 0x20 GT PUSH2 0x5AD JUMPI JUMPDEST PUSH2 0x59F DUP2 DUP4 PUSH2 0xD78 JUMP JUMPDEST DUP2 ADD SWAP1 PUSH2 0xEA6 JUMP JUMPDEST CODESIZE PUSH2 0x566 JUMP JUMPDEST POP RETURNDATASIZE PUSH2 0x595 JUMP JUMPDEST PUSH2 0xE9A JUMP JUMPDEST DUP1 PUSH2 0x5C6 PUSH2 0x5CC SWAP3 PUSH2 0xD60 JUMP JUMPDEST DUP1 PUSH2 0x481 JUMP JUMPDEST CODESIZE PUSH2 0x4FA JUMP JUMPDEST POP DUP1 REVERT JUMPDEST PUSH1 0x40 MLOAD PUSH4 0x1730633 PUSH1 0xE5 SHL DUP2 MSTORE PUSH1 0x4 SWAP1 REVERT JUMPDEST DUP1 REVERT JUMPDEST PUSH1 0x1 PUSH1 0x1 PUSH1 0xA0 SHL SUB DUP2 AND SUB PUSH2 0x224 JUMPI JUMP JUMPDEST CALLVALUE PUSH2 0x224 JUMPI PUSH1 0x40 DUP1 PUSH1 0x3 NOT CALLDATASIZE ADD SLT PUSH2 0x224 JUMPI PUSH1 0x4 DUP1 CALLDATALOAD SWAP2 PUSH2 0x61C DUP4 PUSH2 0x5EB JUMP JUMPDEST PUSH1 0x1 SLOAD PUSH1 0x24 CALLDATALOAD SWAP1 PUSH1 0x1 PUSH1 0x1 PUSH1 0xA0 SHL SUB SWAP1 DUP2 AND CALLER SUB PUSH2 0x716 JUMPI PUSH1 0xFF PUSH1 0x6 SLOAD AND ISZERO PUSH2 0x707 JUMPI DUP5 AND SWAP4 DUP5 ISZERO PUSH2 0x6F8 JUMPI DUP4 SLOAD PUSH2 0x65E SWAP1 PUSH2 0x4BB SWAP1 PUSH1 0x1 PUSH1 0x1 PUSH1 0xA0 SHL SUB AND DUP2 JUMP JUMPDEST SWAP4 DUP5 EXTCODESIZE ISZERO PUSH2 0x224 JUMPI DUP4 MLOAD PUSH4 0x40B850F PUSH1 0xE3 SHL DUP2 MSTORE PUSH1 0x1 PUSH1 0x1 PUSH1 0xA0 SHL SUB SWAP1 SWAP3 AND SWAP1 DUP3 ADD SWAP1 DUP2 MSTORE PUSH1 0x20 DUP2 ADD DUP4 SWAP1 MSTORE SWAP1 SWAP4 PUSH1 0x0 SWAP2 DUP6 SWAP2 SWAP1 DUP3 SWAP1 DUP5 SWAP1 DUP3 SWAP1 PUSH1 0x40 ADD SUB SWAP3 GAS CALL SWAP2 DUP3 ISZERO PUSH2 0x5B4 JUMPI PUSH32 0xCAE8414AEB02C2A7A7089C22ED61DEF4882BF260298B39FF6BA047EF80A2F379 SWAP4 PUSH2 0x6E0 SWAP4 PUSH2 0x6E5 JUMPI JUMPDEST POP MLOAD SWAP1 DUP2 MSTORE SWAP1 DUP2 SWAP1 PUSH1 0x20 DUP3 ADD SWAP1 JUMP JUMPDEST SUB SWAP1 LOG2 STOP JUMPDEST DUP1 PUSH2 0x5C6 PUSH2 0x6F2 SWAP3 PUSH2 0xD60 JUMP JUMPDEST CODESIZE PUSH2 0x6D1 JUMP JUMPDEST POP POP MLOAD PUSH4 0x7192F5B7 PUSH1 0xE1 SHL DUP2 MSTORE REVERT JUMPDEST POP POP MLOAD PUSH4 0x1730633 PUSH1 0xE5 SHL DUP2 MSTORE REVERT JUMPDEST POP POP MLOAD PUSH4 0x74A21527 PUSH1 0xE0 SHL DUP2 MSTORE REVERT JUMPDEST CALLVALUE PUSH2 0x224 JUMPI PUSH1 0x0 DUP1 PUSH1 0x3 NOT CALLDATASIZE ADD SLT PUSH2 0x5E8 JUMPI PUSH1 0xFF PUSH1 0x6 SLOAD AND ISZERO PUSH2 0x5D6 JUMPI PUSH1 0x2 SLOAD PUSH1 0x1 PUSH1 0x1 PUSH1 0xA0 SHL SUB SWAP1 DUP2 AND SWAP1 CALLER DUP3 SWAP1 SUB PUSH2 0x7AF JUMPI PUSH1 0x1 SLOAD SWAP2 PUSH1 0x1 PUSH1 0x1 PUSH1 0x60 SHL SUB PUSH1 0xA0 SHL DUP4 AND OR PUSH1 0x1 SSTORE PUSH2 0x785 PUSH1 0x1 PUSH1 0x1 PUSH1 0x60 SHL SUB PUSH1 0xA0 SHL PUSH1 0x2 SLOAD AND PUSH1 0x2 SSTORE JUMP JUMPDEST CALLER SWAP2 AND PUSH32 0xB532073B38C83145E3E5135377A08BF9AAB55BC0FD7C1179CD4FB995D2A5159C DUP4 DUP1 LOG3 DUP1 RETURN JUMPDEST PUSH1 0x40 MLOAD PUSH4 0x79B798CF PUSH1 0xE1 SHL DUP2 MSTORE PUSH1 0x4 SWAP1 REVERT JUMPDEST CALLVALUE PUSH2 0x224 JUMPI PUSH1 0x0 CALLDATASIZE PUSH1 0x3 NOT ADD SLT PUSH2 0x224 JUMPI PUSH1 0x1 SLOAD PUSH1 0x40 MLOAD PUSH1 0x1 PUSH1 0x1 PUSH1 0xA0 SHL SUB SWAP1 SWAP2 AND DUP2 MSTORE PUSH1 0x20 SWAP1 RETURN JUMPDEST CALLVALUE PUSH2 0x224 JUMPI PUSH1 0x40 DUP1 PUSH1 0x3 NOT CALLDATASIZE ADD SLT PUSH2 0x224 JUMPI PUSH1 0x4 SWAP1 PUSH1 0x1 PUSH1 0x1 PUSH1 0x40 SHL SUB SWAP1 DUP3 CALLDATALOAD DUP3 DUP2 GT PUSH2 0x224 JUMPI PUSH2 0x81E SWAP1 CALLDATASIZE SWAP1 DUP6 ADD PUSH2 0x229 JUMP JUMPDEST SWAP3 PUSH1 0x24 CALLDATALOAD SWAP1 DUP2 GT PUSH2 0x224 JUMPI PUSH2 0x836 SWAP1 CALLDATASIZE SWAP1 DUP7 ADD PUSH2 0x229 JUMP JUMPDEST SWAP4 SWAP1 PUSH1 0x1 DUP1 PUSH1 0xA0 SHL SUB SWAP2 PUSH1 0x1 SWAP7 DUP4 PUSH1 0x1 SLOAD AND CALLER SUB PUSH2 0x91E JUMPI PUSH1 0xFF PUSH1 0x6 SLOAD AND ISZERO PUSH2 0x90F JUMPI DUP7 DUP3 SUB PUSH2 0x900 JUMPI POP PUSH1 0x0 JUMPDEST DUP2 DUP2 LT PUSH2 0x86D JUMPI STOP JUMPDEST DUP1 PUSH2 0x8A9 PUSH2 0x87D DUP11 SWAP4 DUP11 DUP8 PUSH2 0xDFA JUMP JUMPDEST CALLDATALOAD PUSH2 0x887 DUP2 PUSH2 0xCA2 JUMP JUMPDEST PUSH2 0x898 PUSH2 0x379 PUSH2 0x374 DUP6 DUP9 DUP13 PUSH2 0xDFA JUMP JUMPDEST SWAP1 PUSH1 0xFF DUP1 NOT DUP4 SLOAD AND SWAP2 ISZERO ISZERO AND OR SWAP1 SSTORE JUMP JUMPDEST PUSH2 0x8B7 PUSH2 0x374 DUP3 DUP6 DUP10 PUSH2 0xDFA JUMP JUMPDEST PUSH32 0xB1288E9F7BAE3599E10819D5553FEBEA48E11A6F8F585B32C8ABAD397DD2627E DUP7 PUSH2 0x8EC PUSH2 0x8E7 DUP6 DUP14 DUP11 PUSH2 0xDFA JUMP JUMPDEST PUSH2 0xEB5 JUMP JUMPDEST DUP11 MLOAD SWAP1 ISZERO ISZERO DUP2 MSTORE SWAP3 AND SWAP2 PUSH1 0x20 SWAP1 LOG2 ADD PUSH2 0x864 JUMP JUMPDEST PUSH1 0x40 MLOAD PUSH4 0x7736A16D PUSH1 0xE0 SHL DUP2 MSTORE REVERT JUMPDEST PUSH1 0x40 MLOAD PUSH4 0x1730633 PUSH1 0xE5 SHL DUP2 MSTORE REVERT JUMPDEST PUSH1 0x40 MLOAD PUSH4 0x74A21527 PUSH1 0xE0 SHL DUP2 MSTORE REVERT JUMPDEST CALLVALUE PUSH2 0x224 JUMPI PUSH1 0x20 CALLDATASIZE PUSH1 0x3 NOT ADD SLT PUSH2 0x224 JUMPI PUSH1 0x4 CALLDATALOAD PUSH2 0x94A DUP2 PUSH2 0x5EB JUMP JUMPDEST PUSH1 0x1 SLOAD PUSH1 0x1 PUSH1 0x1 PUSH1 0xA0 SHL SUB SWAP1 DUP2 AND SWAP2 CALLER DUP4 SWAP1 SUB PUSH2 0x9BF JUMPI PUSH1 0xFF PUSH1 0x6 SLOAD AND ISZERO PUSH2 0x5D6 JUMPI AND SWAP1 DUP2 ISZERO PUSH2 0x9AD JUMPI PUSH1 0x2 DUP1 SLOAD PUSH1 0x1 PUSH1 0x1 PUSH1 0xA0 SHL SUB NOT AND DUP4 OR SWAP1 SSTORE PUSH32 0x38D16B8CAC22D99FC7C124B9CD0DE2D3FA1FAEF420BFE791D8C362D765E22700 PUSH1 0x0 DUP1 LOG3 STOP JUMPDEST PUSH1 0x40 MLOAD PUSH4 0x62EF659 PUSH1 0xE2 SHL DUP2 MSTORE PUSH1 0x4 SWAP1 REVERT JUMPDEST PUSH1 0x40 MLOAD PUSH4 0x74A21527 PUSH1 0xE0 SHL DUP2 MSTORE PUSH1 0x4 SWAP1 REVERT JUMPDEST CALLVALUE PUSH2 0x224 JUMPI PUSH1 0x0 CALLDATASIZE PUSH1 0x3 NOT ADD SLT PUSH2 0x224 JUMPI PUSH1 0x4 SLOAD PUSH1 0x40 MLOAD PUSH1 0x1 PUSH1 0x1 PUSH1 0xA0 SHL SUB SWAP1 SWAP2 AND DUP2 MSTORE PUSH1 0x20 SWAP1 RETURN JUMPDEST CALLVALUE PUSH2 0x224 JUMPI PUSH1 0x60 CALLDATASIZE PUSH1 0x3 NOT ADD SLT PUSH2 0x224 JUMPI PUSH1 0x4 CALLDATALOAD PUSH2 0xA17 DUP2 PUSH2 0x5EB JUMP JUMPDEST PUSH1 0x44 CALLDATALOAD SWAP1 PUSH1 0x1 PUSH1 0x1 PUSH1 0x40 SHL SUB SWAP1 DUP2 DUP4 GT PUSH2 0x224 JUMPI CALLDATASIZE PUSH1 0x23 DUP5 ADD SLT ISZERO PUSH2 0x224 JUMPI DUP3 PUSH1 0x4 ADD CALLDATALOAD SWAP2 DUP3 GT PUSH2 0x224 JUMPI CALLDATASIZE PUSH1 0x24 DUP4 DUP6 ADD ADD GT PUSH2 0x224 JUMPI PUSH1 0x24 PUSH2 0x19 SWAP4 ADD SWAP1 PUSH1 0x24 CALLDATALOAD SWAP1 PUSH2 0xEBF JUMP JUMPDEST CALLVALUE PUSH2 0x224 JUMPI PUSH1 0x0 CALLDATASIZE PUSH1 0x3 NOT ADD SLT PUSH2 0x224 JUMPI PUSH1 0x3 SLOAD PUSH1 0x40 MLOAD PUSH1 0x1 PUSH1 0x1 PUSH1 0xA0 SHL SUB SWAP1 SWAP2 AND DUP2 MSTORE PUSH1 0x20 SWAP1 RETURN JUMPDEST CALLVALUE PUSH2 0x224 JUMPI PUSH1 0x20 CALLDATASIZE PUSH1 0x3 NOT ADD SLT PUSH2 0x224 JUMPI PUSH1 0x4 CALLDATALOAD PUSH2 0xAA5 DUP2 PUSH2 0x5EB JUMP JUMPDEST PUSH1 0x1 DUP1 PUSH1 0xA0 SHL SUB AND PUSH1 0x0 MSTORE PUSH1 0x5 PUSH1 0x20 MSTORE PUSH1 0x20 PUSH1 0xFF PUSH1 0x40 PUSH1 0x0 KECCAK256 SLOAD AND PUSH1 0x40 MLOAD SWAP1 ISZERO ISZERO DUP2 MSTORE RETURN JUMPDEST CALLVALUE PUSH2 0x224 JUMPI PUSH1 0x60 CALLDATASIZE PUSH1 0x3 NOT ADD SLT PUSH2 0x224 JUMPI PUSH1 0x4 CALLDATALOAD PUSH2 0xAE7 DUP2 PUSH2 0x5EB JUMP JUMPDEST PUSH1 0x24 CALLDATALOAD PUSH2 0xAF3 DUP2 PUSH2 0x5EB JUMP JUMPDEST PUSH1 0x44 CALLDATALOAD PUSH2 0xAFF DUP2 PUSH2 0x5EB JUMP JUMPDEST PUSH1 0x6 SLOAD PUSH1 0xFF AND PUSH2 0x5D6 JUMPI PUSH1 0x1 PUSH1 0x1 PUSH1 0xA0 SHL SUB SWAP2 DUP4 DUP4 AND SWAP2 DUP3 ISZERO PUSH2 0x9AD JUMPI DUP4 DUP3 AND SWAP4 DUP5 ISZERO PUSH2 0xBDC JUMPI DUP2 AND SWAP5 DUP6 ISZERO PUSH2 0xBCA JUMPI PUSH2 0xB91 SWAP3 PUSH2 0xB57 PUSH2 0xB74 SWAP3 PUSH1 0x1 DUP1 PUSH1 0xA0 SHL SUB AND PUSH1 0x1 PUSH1 0x1 PUSH1 0x60 SHL SUB PUSH1 0xA0 SHL PUSH1 0x1 SLOAD AND OR PUSH1 0x1 SSTORE JUMP JUMPDEST PUSH1 0x1 DUP1 PUSH1 0xA0 SHL SUB AND PUSH1 0x1 PUSH1 0x1 PUSH1 0x60 SHL SUB PUSH1 0xA0 SHL PUSH1 0x3 SLOAD AND OR PUSH1 0x3 SSTORE JUMP JUMPDEST PUSH1 0x1 DUP1 PUSH1 0xA0 SHL SUB AND PUSH1 0x1 PUSH1 0x1 PUSH1 0x60 SHL SUB PUSH1 0xA0 SHL PUSH1 0x4 SLOAD AND OR PUSH1 0x4 SSTORE JUMP JUMPDEST PUSH2 0xBA3 PUSH1 0x1 PUSH1 0xFF NOT PUSH1 0x6 SLOAD AND OR PUSH1 0x6 SSTORE JUMP JUMPDEST PUSH32 0x31F30195006760F9B61E7325457CA7ACACFBDD7734B88A22545E264B62357FDE PUSH1 0x0 DUP1 LOG4 STOP JUMPDEST PUSH1 0x40 MLOAD PUSH4 0x92377DD5 PUSH1 0xE0 SHL DUP2 MSTORE PUSH1 0x4 SWAP1 REVERT JUMPDEST PUSH1 0x40 MLOAD PUSH3 0xD9B425 PUSH1 0xE0 SHL DUP2 MSTORE PUSH1 0x4 SWAP1 REVERT JUMPDEST CALLVALUE PUSH2 0x224 JUMPI PUSH1 0x0 CALLDATASIZE PUSH1 0x3 NOT ADD SLT PUSH2 0x224 JUMPI PUSH1 0x24 PUSH1 0x20 PUSH1 0x1 DUP1 PUSH1 0xA0 SHL SUB PUSH1 0x4 SLOAD AND PUSH1 0x40 MLOAD SWAP3 DUP4 DUP1 SWAP3 PUSH4 0x70A08231 PUSH1 0xE0 SHL DUP3 MSTORE ADDRESS PUSH1 0x4 DUP4 ADD MSTORE GAS STATICCALL DUP1 ISZERO PUSH2 0x5B4 JUMPI PUSH1 0x20 SWAP2 PUSH1 0x0 SWAP2 PUSH2 0xC40 JUMPI JUMPDEST POP PUSH1 0x40 MLOAD SWAP1 DUP2 MSTORE RETURN JUMPDEST PUSH2 0xC57 SWAP2 POP DUP3 RETURNDATASIZE DUP5 GT PUSH2 0x5AD JUMPI PUSH2 0x59F DUP2 DUP4 PUSH2 0xD78 JUMP JUMPDEST CODESIZE PUSH2 0xC37 JUMP JUMPDEST CALLVALUE PUSH2 0x224 JUMPI PUSH1 0x0 CALLDATASIZE PUSH1 0x3 NOT ADD SLT PUSH2 0x224 JUMPI PUSH1 0x20 SELFBALANCE PUSH1 0x40 MLOAD SWAP1 DUP2 MSTORE RETURN JUMPDEST CALLVALUE PUSH2 0x224 JUMPI PUSH1 0x0 CALLDATASIZE PUSH1 0x3 NOT ADD SLT PUSH2 0x224 JUMPI PUSH1 0x2 SLOAD PUSH1 0x40 MLOAD PUSH1 0x1 PUSH1 0x1 PUSH1 0xA0 SHL SUB SWAP1 SWAP2 AND DUP2 MSTORE PUSH1 0x20 SWAP1 RETURN JUMPDEST DUP1 ISZERO ISZERO SUB PUSH2 0x224 JUMPI JUMP JUMPDEST CALLVALUE PUSH2 0x224 JUMPI PUSH1 0x40 CALLDATASIZE PUSH1 0x3 NOT ADD SLT PUSH2 0x224 JUMPI PUSH1 0x4 CALLDATALOAD PUSH2 0xCC9 DUP2 PUSH2 0x5EB JUMP JUMPDEST PUSH1 0x24 CALLDATALOAD SWAP1 PUSH2 0xCD6 DUP3 PUSH2 0xCA2 JUMP JUMPDEST PUSH1 0x1 SLOAD PUSH1 0x1 PUSH1 0x1 PUSH1 0xA0 SHL SUB SWAP2 SWAP1 DUP3 AND CALLER SUB PUSH2 0x9BF JUMPI PUSH1 0xFF PUSH1 0x6 SLOAD AND ISZERO PUSH2 0x5D6 JUMPI PUSH32 0xB1288E9F7BAE3599E10819D5553FEBEA48E11A6F8F585B32C8ABAD397DD2627E SWAP2 PUSH1 0x20 SWAP2 AND SWAP3 DUP4 PUSH1 0x0 MSTORE PUSH1 0x5 DUP3 MSTORE PUSH2 0xD3F DUP2 PUSH1 0x40 PUSH1 0x0 KECCAK256 SWAP1 PUSH1 0xFF DUP1 NOT DUP4 SLOAD AND SWAP2 ISZERO ISZERO AND OR SWAP1 SSTORE JUMP JUMPDEST PUSH1 0x40 MLOAD SWAP1 ISZERO ISZERO DUP2 MSTORE LOG2 STOP JUMPDEST PUSH4 0x4E487B71 PUSH1 0xE0 SHL PUSH1 0x0 MSTORE PUSH1 0x41 PUSH1 0x4 MSTORE PUSH1 0x24 PUSH1 0x0 REVERT JUMPDEST PUSH1 0x1 PUSH1 0x1 PUSH1 0x40 SHL SUB DUP2 GT PUSH2 0xD73 JUMPI PUSH1 0x40 MSTORE JUMP JUMPDEST PUSH2 0xD4A JUMP JUMPDEST SWAP1 PUSH1 0x1F DUP1 NOT SWAP2 ADD AND DUP2 ADD SWAP1 DUP2 LT PUSH1 0x1 PUSH1 0x1 PUSH1 0x40 SHL SUB DUP3 GT OR PUSH2 0xD73 JUMPI PUSH1 0x40 MSTORE JUMP JUMPDEST PUSH1 0x1 PUSH1 0x1 PUSH1 0x40 SHL SUB DUP2 GT PUSH2 0xD73 JUMPI PUSH1 0x1F ADD PUSH1 0x1F NOT AND PUSH1 0x20 ADD SWAP1 JUMP JUMPDEST RETURNDATASIZE ISZERO PUSH2 0xDDF JUMPI RETURNDATASIZE SWAP1 PUSH2 0xDC5 DUP3 PUSH2 0xD99 JUMP JUMPDEST SWAP2 PUSH2 0xDD3 PUSH1 0x40 MLOAD SWAP4 DUP5 PUSH2 0xD78 JUMP JUMPDEST DUP3 MSTORE RETURNDATASIZE PUSH1 0x0 PUSH1 0x20 DUP5 ADD RETURNDATACOPY JUMP JUMPDEST PUSH1 0x60 SWAP1 JUMP JUMPDEST PUSH4 0x4E487B71 PUSH1 0xE0 SHL PUSH1 0x0 MSTORE PUSH1 0x32 PUSH1 0x4 MSTORE PUSH1 0x24 PUSH1 0x0 REVERT JUMPDEST SWAP2 SWAP1 DUP2 LT ISZERO PUSH2 0xE0A JUMPI PUSH1 0x5 SHL ADD SWAP1 JUMP JUMPDEST PUSH2 0xDE4 JUMP JUMPDEST CALLDATALOAD PUSH2 0xE19 DUP2 PUSH2 0x5EB JUMP JUMPDEST SWAP1 JUMP JUMPDEST SWAP2 SWAP1 DUP3 ADD DUP1 SWAP3 GT PUSH2 0xE29 JUMPI JUMP JUMPDEST PUSH4 0x4E487B71 PUSH1 0xE0 SHL PUSH1 0x0 MSTORE PUSH1 0x11 PUSH1 0x4 MSTORE PUSH1 0x24 PUSH1 0x0 REVERT JUMPDEST SWAP1 CALLDATALOAD SWAP1 PUSH1 0x1E NOT DUP2 CALLDATASIZE SUB ADD DUP3 SLT ISZERO PUSH2 0x224 JUMPI ADD DUP1 CALLDATALOAD SWAP1 PUSH1 0x1 PUSH1 0x1 PUSH1 0x40 SHL SUB DUP3 GT PUSH2 0x224 JUMPI PUSH1 0x20 ADD SWAP2 DUP2 CALLDATASIZE SUB DUP4 SGT PUSH2 0x224 JUMPI JUMP JUMPDEST SWAP1 DUP3 LT ISZERO PUSH2 0xE0A JUMPI PUSH2 0xE88 SWAP2 PUSH1 0x5 SHL DUP2 ADD SWAP1 PUSH2 0xE3F JUMP JUMPDEST SWAP1 SWAP2 JUMP JUMPDEST SWAP1 DUP1 SWAP3 SWAP2 DUP3 CALLDATACOPY ADD PUSH1 0x0 DUP2 MSTORE SWAP1 JUMP JUMPDEST PUSH1 0x40 MLOAD RETURNDATASIZE PUSH1 0x0 DUP3 RETURNDATACOPY RETURNDATASIZE SWAP1 REVERT JUMPDEST SWAP1 DUP2 PUSH1 0x20 SWAP2 SUB SLT PUSH2 0x224 JUMPI MLOAD SWAP1 JUMP JUMPDEST CALLDATALOAD PUSH2 0xE19 DUP2 PUSH2 0xCA2 JUMP JUMPDEST SWAP3 SWAP2 SWAP1 SWAP2 PUSH2 0xECB PUSH2 0x1297 JUMP JUMPDEST PUSH1 0xFF PUSH1 0x6 SLOAD AND ISZERO PUSH2 0x5D6 JUMPI PUSH1 0x1 SLOAD PUSH1 0x1 PUSH1 0x1 PUSH1 0xA0 SHL SUB SWAP2 SWAP1 DUP3 AND CALLER EQ ISZERO DUP1 PUSH2 0xFB7 JUMPI JUMPDEST PUSH2 0x7AF JUMPI PUSH1 0x1 PUSH1 0x1 PUSH1 0xA0 SHL SUB DUP6 AND PUSH1 0x0 SWAP1 DUP2 MSTORE PUSH1 0x5 PUSH1 0x20 MSTORE PUSH1 0x40 SWAP1 KECCAK256 PUSH2 0xF17 SWAP1 PUSH2 0x39A SWAP1 PUSH2 0x393 JUMP JUMPDEST PUSH2 0xFA5 JUMPI PUSH1 0x0 DUP1 PUSH1 0x40 MLOAD DUP1 PUSH2 0xF2D DUP2 DUP7 DUP10 PUSH2 0xE8C JUMP JUMPDEST SUB SWAP1 DUP8 DUP10 GAS CALL PUSH2 0xF3B PUSH2 0xDB4 JUMP JUMPDEST POP ISZERO PUSH2 0xF93 JUMPI PUSH32 0xE33D84651CE1CD4DC3F8E0DDA3367F25AAC071E622CF520436716BBA196BE53 SWAP3 PUSH2 0xF6E SWAP2 CALLDATASIZE SWAP2 PUSH2 0xFC5 JUMP JUMPDEST DUP1 MLOAD PUSH1 0x20 SWAP2 DUP3 ADD KECCAK256 PUSH1 0x40 DUP1 MLOAD SWAP6 DUP7 MSTORE SWAP2 DUP6 ADD MSTORE SWAP4 AND SWAP3 CALLER SWAP3 LOG3 PUSH2 0xF91 PUSH1 0x1 PUSH1 0x0 SSTORE JUMP JUMPDEST JUMP JUMPDEST PUSH1 0x40 MLOAD PUSH4 0x19A55465 PUSH1 0xE2 SHL DUP2 MSTORE PUSH1 0x4 SWAP1 REVERT JUMPDEST PUSH1 0x40 MLOAD PUSH4 0x3E2D7645 PUSH1 0xE0 SHL DUP2 MSTORE PUSH1 0x4 SWAP1 REVERT JUMPDEST POP DUP2 PUSH1 0x4 SLOAD AND CALLER EQ ISZERO PUSH2 0xEEE JUMP JUMPDEST SWAP3 SWAP2 SWAP3 PUSH2 0xFD1 DUP3 PUSH2 0xD99 JUMP JUMPDEST SWAP2 PUSH2 0xFDF PUSH1 0x40 MLOAD SWAP4 DUP5 PUSH2 0xD78 JUMP JUMPDEST DUP3 SWAP5 DUP2 DUP5 MSTORE DUP2 DUP4 ADD GT PUSH2 0x224 JUMPI DUP3 DUP2 PUSH1 0x20 SWAP4 DUP5 PUSH1 0x0 SWAP7 ADD CALLDATACOPY ADD ADD MSTORE JUMP JUMPDEST SWAP1 DUP1 PUSH1 0x1F DUP4 ADD SLT ISZERO PUSH2 0x224 JUMPI DUP2 PUSH1 0x20 PUSH2 0xE19 SWAP4 CALLDATALOAD SWAP2 ADD PUSH2 0xFC5 JUMP JUMPDEST SWAP2 SWAP1 SWAP2 PUSH1 0x40 DUP2 DUP5 SUB SLT PUSH2 0x224 JUMPI DUP1 CALLDATALOAD SWAP3 PUSH1 0x20 DUP3 ADD CALLDATALOAD PUSH1 0x1 PUSH1 0x1 PUSH1 0x40 SHL SUB DUP2 GT PUSH2 0x224 JUMPI PUSH2 0xE19 SWAP3 ADD PUSH2 0xFFC JUMP JUMPDEST SWAP1 DUP2 PUSH1 0x20 SWAP2 SUB SLT PUSH2 0x224 JUMPI MLOAD PUSH2 0xE19 DUP2 PUSH2 0xCA2 JUMP JUMPDEST SWAP1 SWAP2 PUSH2 0x10A4 PUSH2 0x1074 PUSH2 0x106E PUSH1 0x60 DUP6 ADD DUP6 PUSH2 0xE3F JUMP JUMPDEST SWAP1 PUSH2 0x1504 JUMP JUMPDEST SWAP4 PUSH32 0x19457468657265756D205369676E6564204D6573736167653A0A333200000000 PUSH1 0x0 MSTORE PUSH1 0x1C MSTORE PUSH1 0x3C PUSH1 0x0 KECCAK256 SWAP1 JUMP JUMPDEST SWAP2 PUSH2 0x100 DUP2 ADD SWAP1 PUSH1 0x41 PUSH2 0x10B7 DUP4 DUP4 PUSH2 0xE3F JUMP JUMPDEST SWAP1 POP EQ PUSH2 0x1237 JUMPI PUSH2 0x10CF PUSH2 0x10E0 SWAP4 SWAP3 PUSH2 0x10D7 SWAP3 PUSH2 0xE3F JUMP JUMPDEST DUP2 ADD SWAP1 PUSH2 0x1017 JUMP JUMPDEST DUP2 SWAP4 SWAP2 SWAP5 PUSH2 0x1607 JUMP JUMPDEST SWAP2 DUP5 PUSH2 0x10F9 PUSH2 0x4BB PUSH2 0x4BB PUSH1 0x3 SLOAD PUSH1 0x1 DUP1 PUSH1 0xA0 SHL SUB AND SWAP1 JUMP JUMPDEST PUSH1 0x40 MLOAD PUSH4 0xF545B88B PUSH1 0xE0 SHL DUP2 MSTORE PUSH1 0x4 DUP2 ADD DUP5 SWAP1 MSTORE PUSH1 0x1 PUSH1 0x1 PUSH1 0xA0 SHL SUB DUP7 AND PUSH1 0x24 DUP3 ADD MSTORE PUSH1 0x44 DUP2 ADD DUP4 SWAP1 MSTORE PUSH1 0x20 SWAP4 SWAP2 DUP5 SWAP1 DUP3 SWAP1 PUSH1 0x64 SWAP1 DUP3 SWAP1 PUSH1 0x0 SWAP1 GAS CALL PUSH1 0x0 SWAP2 DUP2 PUSH2 0x1218 JUMPI JUMPDEST POP PUSH2 0x11FB JUMPI POP PUSH2 0x11A0 SWAP2 DUP4 SWAP2 DUP7 PUSH1 0x0 PUSH2 0x1164 PUSH2 0x4BB PUSH2 0x4BB PUSH1 0x3 SLOAD PUSH1 0x1 DUP1 PUSH1 0xA0 SHL SUB AND SWAP1 JUMP JUMPDEST PUSH1 0x40 MLOAD PUSH4 0x370D79F5 PUSH1 0xE2 SHL DUP2 MSTORE PUSH1 0x4 DUP2 ADD SWAP5 SWAP1 SWAP5 MSTORE PUSH1 0x1 PUSH1 0x1 PUSH1 0xA0 SHL SUB SWAP1 SWAP3 AND PUSH1 0x24 DUP5 ADD MSTORE PUSH1 0x44 DUP4 ADD SWAP4 SWAP1 SWAP4 MSTORE SWAP1 SWAP4 DUP5 SWAP3 DUP4 SWAP2 DUP3 SWAP1 PUSH1 0x64 DUP3 ADD SWAP1 JUMP JUMPDEST SUB SWAP3 GAS CALL SWAP2 DUP3 ISZERO PUSH2 0x5B4 JUMPI PUSH1 0x0 SWAP3 PUSH2 0x11CE JUMPI JUMPDEST POP POP ISZERO PUSH2 0x11BC JUMPI JUMP JUMPDEST PUSH1 0x40 MLOAD PUSH4 0xE00E6A25 PUSH1 0xE0 SHL DUP2 MSTORE PUSH1 0x4 SWAP1 REVERT JUMPDEST PUSH2 0x11ED SWAP3 POP DUP1 RETURNDATASIZE LT PUSH2 0x11F4 JUMPI JUMPDEST PUSH2 0x11E5 DUP2 DUP4 PUSH2 0xD78 JUMP JUMPDEST DUP2 ADD SWAP1 PUSH2 0x1044 JUMP JUMPDEST CODESIZE DUP1 PUSH2 0x11B3 JUMP JUMPDEST POP RETURNDATASIZE PUSH2 0x11DB JUMP JUMPDEST SWAP3 POP POP POP ISZERO PUSH2 0x1206 JUMPI JUMP JUMPDEST PUSH1 0x40 MLOAD PUSH4 0xB02726E5 PUSH1 0xE0 SHL DUP2 MSTORE PUSH1 0x4 SWAP1 REVERT JUMPDEST PUSH2 0x1230 SWAP2 SWAP3 POP DUP6 RETURNDATASIZE DUP8 GT PUSH2 0x11F4 JUMPI PUSH2 0x11E5 DUP2 DUP4 PUSH2 0xD78 JUMP JUMPDEST SWAP1 CODESIZE PUSH2 0x113E JUMP JUMPDEST PUSH2 0x124A PUSH2 0x1257 SWAP4 SWAP6 SWAP5 SWAP3 PUSH2 0x1251 SWAP3 PUSH2 0xE3F JUMP JUMPDEST CALLDATASIZE SWAP2 PUSH2 0xFC5 JUMP JUMPDEST SWAP1 PUSH2 0x1607 JUMP JUMPDEST PUSH1 0x1 SLOAD SWAP1 SWAP2 SWAP1 PUSH2 0x126F SWAP1 PUSH1 0x1 PUSH1 0x1 PUSH1 0xA0 SHL SUB AND PUSH2 0x4BB JUMP JUMPDEST PUSH1 0x1 PUSH1 0x1 PUSH1 0xA0 SHL SUB DUP4 AND SUB PUSH2 0x1285 JUMPI SWAP2 PUSH1 0x0 SWAP2 SWAP1 JUMP JUMPDEST PUSH1 0x40 MLOAD PUSH4 0x91FAD511 PUSH1 0xE0 SHL DUP2 MSTORE PUSH1 0x4 SWAP1 REVERT JUMPDEST PUSH1 0x2 PUSH1 0x0 SLOAD EQ PUSH2 0x12A8 JUMPI PUSH1 0x2 PUSH1 0x0 SSTORE JUMP JUMPDEST PUSH1 0x40 MLOAD PUSH3 0x461BCD PUSH1 0xE5 SHL DUP2 MSTORE PUSH1 0x20 PUSH1 0x4 DUP3 ADD MSTORE PUSH1 0x1F PUSH1 0x24 DUP3 ADD MSTORE PUSH32 0x5265656E7472616E637947756172643A207265656E7472616E742063616C6C00 PUSH1 0x44 DUP3 ADD MSTORE PUSH1 0x64 SWAP1 REVERT JUMPDEST SWAP1 SWAP3 SWAP2 SWAP3 DUP4 PUSH1 0x4 GT PUSH2 0x224 JUMPI DUP4 GT PUSH2 0x224 JUMPI PUSH1 0x4 ADD SWAP2 PUSH1 0x3 NOT ADD SWAP1 JUMP JUMPDEST SWAP2 PUSH1 0x60 DUP4 DUP4 SUB SLT PUSH2 0x224 JUMPI DUP3 CALLDATALOAD PUSH2 0x1320 DUP2 PUSH2 0x5EB JUMP JUMPDEST SWAP3 PUSH1 0x20 DUP2 ADD CALLDATALOAD SWAP3 PUSH1 0x40 DUP3 ADD CALLDATALOAD PUSH1 0x1 PUSH1 0x1 PUSH1 0x40 SHL SUB DUP2 GT PUSH2 0x224 JUMPI PUSH2 0xE19 SWAP3 ADD PUSH2 0xFFC JUMP JUMPDEST PUSH1 0x1 PUSH1 0x1 PUSH1 0x40 SHL SUB DUP2 GT PUSH2 0xD73 JUMPI PUSH1 0x5 SHL PUSH1 0x20 ADD SWAP1 JUMP JUMPDEST SWAP1 DUP1 PUSH1 0x1F DUP4 ADD SLT ISZERO PUSH2 0x224 JUMPI PUSH1 0x20 SWAP1 DUP3 CALLDATALOAD PUSH2 0x1375 DUP2 PUSH2 0x1344 JUMP JUMPDEST SWAP4 PUSH2 0x1383 PUSH1 0x40 MLOAD SWAP6 DUP7 PUSH2 0xD78 JUMP JUMPDEST DUP2 DUP6 MSTORE PUSH1 0x20 DUP1 DUP7 ADD SWAP3 PUSH1 0x5 SHL DUP3 ADD ADD SWAP3 DUP4 GT PUSH2 0x224 JUMPI PUSH1 0x20 ADD SWAP1 JUMPDEST DUP3 DUP3 LT PUSH2 0x13AC JUMPI POP POP POP POP SWAP1 JUMP JUMPDEST DUP2 CALLDATALOAD DUP2 MSTORE SWAP1 DUP4 ADD SWAP1 DUP4 ADD PUSH2 0x139E JUMP JUMPDEST DUP2 PUSH1 0x1F DUP3 ADD SLT ISZERO PUSH2 0x224 JUMPI DUP1 CALLDATALOAD SWAP2 PUSH1 0x20 SWAP2 PUSH2 0x13D5 DUP5 PUSH2 0x1344 JUMP JUMPDEST SWAP4 PUSH2 0x13E3 PUSH1 0x40 MLOAD SWAP6 DUP7 PUSH2 0xD78 JUMP JUMPDEST DUP1 DUP6 MSTORE DUP4 DUP1 DUP7 ADD SWAP2 PUSH1 0x5 SHL DUP4 ADD ADD SWAP3 DUP1 DUP5 GT PUSH2 0x224 JUMPI DUP5 DUP4 ADD SWAP2 JUMPDEST DUP5 DUP4 LT PUSH2 0x140E JUMPI POP POP POP POP POP POP SWAP1 JUMP JUMPDEST DUP3 CALLDATALOAD PUSH1 0x1 PUSH1 0x1 PUSH1 0x40 SHL SUB DUP2 GT PUSH2 0x224 JUMPI DUP7 SWAP2 PUSH2 0x142F DUP5 DUP5 DUP1 SWAP5 DUP10 ADD ADD PUSH2 0xFFC JUMP JUMPDEST DUP2 MSTORE ADD SWAP3 ADD SWAP2 PUSH2 0x13FE JUMP JUMPDEST SWAP1 SWAP2 PUSH1 0x60 DUP3 DUP5 SUB SLT PUSH2 0x224 JUMPI PUSH1 0x1 PUSH1 0x1 PUSH1 0x40 SHL SUB SWAP2 DUP1 CALLDATALOAD DUP4 DUP2 GT PUSH2 0x224 JUMPI DUP2 ADD SWAP4 DUP1 PUSH1 0x1F DUP7 ADD SLT ISZERO PUSH2 0x224 JUMPI PUSH1 0x20 SWAP5 DUP1 CALLDATALOAD PUSH2 0x1474 DUP2 PUSH2 0x1344 JUMP JUMPDEST SWAP2 PUSH2 0x1482 PUSH1 0x40 MLOAD SWAP4 DUP5 PUSH2 0xD78 JUMP JUMPDEST DUP2 DUP4 MSTORE DUP8 DUP1 DUP5 ADD SWAP3 PUSH1 0x5 SHL DUP3 ADD ADD SWAP2 DUP5 DUP4 GT PUSH2 0x224 JUMPI DUP9 DUP1 SWAP3 ADD SWAP1 JUMPDEST DUP4 DUP3 LT PUSH2 0x14D7 JUMPI POP POP POP POP SWAP5 DUP3 ADD CALLDATALOAD DUP5 DUP2 GT PUSH2 0x224 JUMPI DUP2 PUSH2 0x14C0 SWAP2 DUP5 ADD PUSH2 0x135B JUMP JUMPDEST SWAP4 PUSH1 0x40 DUP4 ADD CALLDATALOAD SWAP1 DUP2 GT PUSH2 0x224 JUMPI PUSH2 0xE19 SWAP3 ADD PUSH2 0x13BB JUMP JUMPDEST DUP3 DUP1 SWAP2 DUP4 CALLDATALOAD PUSH2 0x14E5 DUP2 PUSH2 0x5EB JUMP JUMPDEST DUP2 MSTORE ADD SWAP2 ADD SWAP1 PUSH2 0x149E JUMP JUMPDEST DUP1 MLOAD DUP3 LT ISZERO PUSH2 0xE0A JUMPI PUSH1 0x20 SWAP2 PUSH1 0x5 SHL ADD ADD SWAP1 JUMP JUMPDEST PUSH1 0x0 SWAP3 SWAP2 SWAP1 PUSH1 0x1 PUSH1 0x1 PUSH1 0xE0 SHL SUB NOT PUSH2 0x151C DUP4 DUP4 PUSH2 0x161C JUMP JUMPDEST AND PUSH4 0x5B0E93FB PUSH1 0xE1 SHL DUP2 EQ PUSH2 0x15D6 JUMPI PUSH4 0x23F0ED15 PUSH1 0xE1 SHL EQ PUSH2 0x154A JUMPI PUSH1 0x40 MLOAD PUSH4 0x141E841 PUSH1 0xE0 SHL DUP2 MSTORE PUSH1 0x4 SWAP1 REVERT JUMPDEST DUP2 PUSH2 0x1560 SWAP3 PUSH2 0x1558 SWAP3 PUSH2 0x12ED JUMP JUMPDEST DUP2 ADD SWAP1 PUSH2 0x143A JUMP JUMPDEST POP SWAP1 DUP1 MLOAD DUP3 MLOAD SUB PUSH2 0x15C4 JUMPI PUSH1 0x0 SWAP4 JUMPDEST DUP2 MLOAD DUP6 LT ISZERO PUSH2 0x15BE JUMPI PUSH2 0x159B PUSH2 0x39A PUSH2 0x393 PUSH2 0x379 PUSH2 0x158E DUP10 DUP8 PUSH2 0x14F0 JUMP JUMPDEST MLOAD PUSH1 0x1 PUSH1 0x1 PUSH1 0xA0 SHL SUB AND SWAP1 JUMP JUMPDEST PUSH2 0xFA5 JUMPI PUSH2 0x15B6 PUSH1 0x1 SWAP2 PUSH2 0x15AF DUP8 DUP7 PUSH2 0x14F0 JUMP JUMPDEST MLOAD SWAP1 PUSH2 0xE1C JUMP JUMPDEST SWAP5 ADD SWAP4 PUSH2 0x156F JUMP JUMPDEST SWAP4 POP POP POP JUMP JUMPDEST PUSH1 0x40 MLOAD PUSH4 0x7736A16D PUSH1 0xE0 SHL DUP2 MSTORE PUSH1 0x4 SWAP1 REVERT JUMPDEST POP SWAP2 SWAP3 POP PUSH2 0x1601 DUP2 DUP1 PUSH2 0x15F8 PUSH2 0x15F0 DUP3 PUSH2 0xE19 SWAP7 DUP9 PUSH2 0x12ED JUMP JUMPDEST DUP2 ADD SWAP1 PUSH2 0x130A JUMP JUMPDEST POP SWAP6 SWAP1 POP PUSH2 0x12ED JUMP JUMPDEST SWAP1 PUSH2 0x163A JUMP JUMPDEST PUSH2 0xE19 SWAP2 PUSH2 0x1614 SWAP2 PUSH2 0x166A JUMP JUMPDEST SWAP2 SWAP1 SWAP2 PUSH2 0x16BE JUMP JUMPDEST SWAP1 PUSH1 0x4 GT PUSH2 0x1628 JUMPI CALLDATALOAD SWAP1 JUMP JUMPDEST PUSH1 0x40 MLOAD PUSH4 0xFD1DA3DF PUSH1 0xE0 SHL DUP2 MSTORE PUSH1 0x4 SWAP1 REVERT JUMPDEST PUSH2 0x1646 SWAP2 DUP2 ADD SWAP1 PUSH2 0x130A JUMP JUMPDEST POP POP PUSH1 0x1 PUSH1 0x1 PUSH1 0xA0 SHL SUB AND PUSH1 0x0 SWAP1 DUP2 MSTORE PUSH1 0x5 PUSH1 0x20 MSTORE PUSH1 0x40 SWAP1 KECCAK256 SLOAD PUSH1 0xFF AND ISZERO PUSH2 0xFA5 JUMPI JUMP JUMPDEST SWAP1 PUSH1 0x41 DUP2 MLOAD EQ PUSH1 0x0 EQ PUSH2 0x1694 JUMPI PUSH2 0xE88 SWAP2 PUSH1 0x20 DUP3 ADD MLOAD SWAP1 PUSH1 0x60 PUSH1 0x40 DUP5 ADD MLOAD SWAP4 ADD MLOAD PUSH1 0x0 BYTE SWAP1 PUSH2 0x17DE JUMP JUMPDEST POP POP PUSH1 0x0 SWAP1 PUSH1 0x2 SWAP1 JUMP JUMPDEST PUSH1 0x5 GT ISZERO PUSH2 0x16A8 JUMPI JUMP JUMPDEST PUSH4 0x4E487B71 PUSH1 0xE0 SHL PUSH1 0x0 MSTORE PUSH1 0x21 PUSH1 0x4 MSTORE PUSH1 0x24 PUSH1 0x0 REVERT JUMPDEST PUSH2 0x16C7 DUP2 PUSH2 0x169E JUMP JUMPDEST DUP1 PUSH2 0x16CF JUMPI POP JUMP JUMPDEST PUSH2 0x16D8 DUP2 PUSH2 0x169E JUMP JUMPDEST PUSH1 0x1 DUP2 SUB PUSH2 0x1725 JUMPI PUSH1 0x40 MLOAD PUSH3 0x461BCD PUSH1 0xE5 SHL DUP2 MSTORE PUSH1 0x20 PUSH1 0x4 DUP3 ADD MSTORE PUSH1 0x18 PUSH1 0x24 DUP3 ADD MSTORE PUSH32 0x45434453413A20696E76616C6964207369676E61747572650000000000000000 PUSH1 0x44 DUP3 ADD MSTORE PUSH1 0x64 SWAP1 REVERT JUMPDEST PUSH2 0x172E DUP2 PUSH2 0x169E JUMP JUMPDEST PUSH1 0x2 DUP2 SUB PUSH2 0x177B JUMPI PUSH1 0x40 MLOAD PUSH3 0x461BCD PUSH1 0xE5 SHL DUP2 MSTORE PUSH1 0x20 PUSH1 0x4 DUP3 ADD MSTORE PUSH1 0x1F PUSH1 0x24 DUP3 ADD MSTORE PUSH32 0x45434453413A20696E76616C6964207369676E6174757265206C656E67746800 PUSH1 0x44 DUP3 ADD MSTORE PUSH1 0x64 SWAP1 REVERT JUMPDEST DUP1 PUSH2 0x1787 PUSH1 0x3 SWAP3 PUSH2 0x169E JUMP JUMPDEST EQ PUSH2 0x178E JUMPI JUMP JUMPDEST PUSH1 0x40 MLOAD PUSH3 0x461BCD PUSH1 0xE5 SHL DUP2 MSTORE PUSH1 0x20 PUSH1 0x4 DUP3 ADD MSTORE PUSH1 0x22 PUSH1 0x24 DUP3 ADD MSTORE PUSH32 0x45434453413A20696E76616C6964207369676E6174757265202773272076616C PUSH1 0x44 DUP3 ADD MSTORE PUSH2 0x7565 PUSH1 0xF0 SHL PUSH1 0x64 DUP3 ADD MSTORE PUSH1 0x84 SWAP1 REVERT JUMPDEST SWAP3 SWAP2 SWAP1 PUSH32 0x7FFFFFFFFFFFFFFFFFFFFFFFFFFFFFFF5D576E7357A4501DDFE92F46681B20A0 DUP4 GT PUSH2 0x1854 JUMPI SWAP2 PUSH1 0x80 SWAP5 SWAP4 SWAP2 PUSH1 0xFF PUSH1 0x20 SWAP5 PUSH1 0x40 MLOAD SWAP5 DUP6 MSTORE AND DUP5 DUP5 ADD MSTORE PUSH1 0x40 DUP4 ADD MSTORE PUSH1 0x60 DUP3 ADD MSTORE PUSH1 0x0 SWAP4 DUP5 SWAP2 DUP3 DUP1 MSTORE PUSH1 0x1 GAS STATICCALL ISZERO PUSH2 0x5B4 JUMPI DUP2 MLOAD PUSH1 0x1 PUSH1 0x1 PUSH1 0xA0 SHL SUB DUP2 AND ISZERO PUSH2 0x184E JUMPI SWAP2 SWAP1 JUMP JUMPDEST POP PUSH1 0x1 SWAP1 JUMP JUMPDEST POP POP POP POP PUSH1 0x0 SWAP1 PUSH1 0x3 SWAP1 JUMP INVALID LOG2 PUSH5 0x6970667358 0x22 SLT KECCAK256 CALLER STOP MLOAD 0xB1 PUSH9 0x1AADE00B31BE0D25EA 0xE4 0xCB PUSH5 0x97FBE1E4A2 0xC6 CREATE2 DUP2 0xB4 PUSH21 0x7343BE9E0864736F6C634300081800330000000000 "},"methodIdentifiers":{"acceptOwnership()":"79ba5097","addDeposit()":"4a58db19","changeOwner(address)":"a6f9dae1","checkBalance()":"c71daccb","entryPoint()":"b0d691fe","execute(address,uint256,bytes)":"b61d27f6","executeBatch(address[],uint256[],bytes[])":"47e1da2a","getDeposit()":"c399ec88","initialize(address,address,address)":"c0c53b8b","owner()":"8da5cb5b","pendingOwner()":"e30c3978","sessionManager()":"b7b13f79","setWhiteListedParty(address,bool)":"f9c56aa6","setWhiteListedPartyBatch(address[],bool[])":"9f5e3ecc","validateUserOp((address,uint256,bytes,bytes,bytes32,uint256,bytes32,bytes,bytes),bytes32,uint256)":"19822f7c","whiteListedParties(address)":"b8434685","withdrawDepositTo(address,uint256)":"4d44560d"}}}}}