{"src/SessionManager.sol":{"SessionManager":{"abi":[{"inputs":[],"stateMutability":"nonpayable","type":"constructor"},{"inputs":[],"name":"DailySpendLimitExceeded","type":"error"},{"inputs":[],"name":"DailyTxLimitExceeded","type":"error"},{"inputs":[],"name":"ExpiryMismatch","type":"error"},{"inputs":[],"name":"InvalidExpiry","type":"error"},{"inputs":[],"name":"InvalidProof","type":"error"},{"inputs":[],"name":"InvalidSessionKey","type":"error"},{"inputs":[],"name":"InvalidSigner","type":"error"},{"inputs":[],"name":"LimitExceeded","type":"error"},{"inputs":[],"name":"MaxValueMismatch","type":"error"},{"inputs":[],"name":"NotAuthorizedToRevoke","type":"error"},{"inputs":[],"name":"NotWalletOwner","type":"error"},{"inputs":[],"name":"NullifierAlreadyUsed","type":"error"},{"inputs":[],"name":"NullifierMismatch","type":"error"},{"inputs":[],"name":"RevokedRootMismatch","type":"error"},{"inputs":[],"name":"RootMismatch","type":"error"},{"inputs":[],"name":"SessionAlreadyExists","type":"error"},{"inputs":[],"name":"SessionAlreadyRevoked","type":"error"},{"inputs":[],"name":"SessionExpired","type":"error"},{"inputs":[],"name":"SessionIsRevoked","type":"error"},{"inputs":[],"name":"SessionNotFound","type":"error"},{"anonymous":false,"inputs":[{"indexed":false,"internalType":"address","name":"previousAdmin","type":"address"},{"indexed":false,"internalType":"address","name":"newAdmin","type":"address"}],"name":"AdminChanged","type":"event"},{"anonymous":false,"inputs":[{"indexed":true,"internalType":"address","name":"beacon","type":"address"}],"name":"BeaconUpgraded","type":"event"},{"anonymous":false,"inputs":[{"indexed":true,"internalType":"bytes32","name":"sessionId","type":"bytes32"},{"indexed":false,"internalType":"uint64","name":"newDay","type":"uint64"}],"name":"DailyLimitsReset","type":"event"},{"anonymous":false,"inputs":[{"indexed":false,"internalType":"uint8","name":"version","type":"uint8"}],"name":"Initialized","type":"event"},{"anonymous":false,"inputs":[{"indexed":true,"internalType":"bytes32","name":"sessionId","type":"bytes32"},{"indexed":true,"internalType":"address","name":"sessionKey","type":"address"},{"indexed":false,"internalType":"uint256","name":"dailySpendLimit","type":"uint256"},{"indexed":false,"internalType":"uint256","name":"dailyTxLimit","type":"uint256"},{"indexed":false,"internalType":"uint64","name":"expiry","type":"uint64"}],"name":"LightSessionCreated","type":"event"},{"anonymous":false,"inputs":[{"indexed":true,"internalType":"bytes32","name":"sessionId","type":"bytes32"}],"name":"LightSessionRevoked","type":"event"},{"anonymous":false,"inputs":[{"indexed":true,"internalType":"bytes32","name":"sessionId","type":"bytes32"},{"indexed":false,"internalType":"uint256","name":"value","type":"uint256"},{"indexed":false,"internalType":"uint256","name":"newDailySpend","type":"uint256"}],"name":"LightSessionUsed","type":"event"},{"anonymous":false,"inputs":[{"indexed":true,"internalType":"address","name":"previousOwner","type":"address"},{"indexed":true,"internalType":"address","name":"newOwner","type":"address"}],"name":"OwnershipTransferred","type":"event"},{"anonymous":false,"inputs":[{"indexed":false,"internalType":"address","name":"account","type":"address"}],"name":"Paused","type":"event"},{"anonymous":false,"inputs":[{"indexed":true,"internalType":"bytes32","name":"sessionId","type":"bytes32"},{"indexed":true,"internalType":"address","name":"sessionKey","type":"address"},{"indexed":false,"internalType":"uint64","name":"expiry","type":"uint64"},{"indexed":false,"internalType":"uint128","name":"maxValue","type":"uint128"}],"name":"SessionCreated","type":"event"},{"anonymous":false,"inputs":[{"indexed":true,"internalType":"bytes32","name":"sessionId","type":"bytes32"}],"name":"SessionRevoked","type":"event"},{"anonymous":false,"inputs":[{"indexed":true,"internalType":"bytes32","name":"sessionId","type":"bytes32"},{"indexed":false,"internalType":"uint256","name":"value","type":"uint256"},{"indexed":false,"internalType":"uint256","name":"totalUsed","type":"uint256"}],"name":"SessionUsed","type":"event"},{"anonymous":false,"inputs":[{"indexed":false,"internalType":"address","name":"account","type":"address"}],"name":"Unpaused","type":"event"},{"anonymous":false,"inputs":[{"indexed":true,"internalType":"address","name":"implementation","type":"address"}],"name":"Upgraded","type":"event"},{"inputs":[{"internalType":"bytes32","name":"sessionId","type":"bytes32"},{"internalType":"address","name":"sessionKey","type":"address"},{"internalType":"uint256","name":"dailySpendLimit","type":"uint256"},{"internalType":"uint256","name":"dailyTxLimit","type":"uint256"},{"internalType":"uint64","name":"expiry","type":"uint64"},{"internalType":"bytes","name":"ownerSignature","type":"bytes"}],"name":"createLightweightSession","outputs":[],"stateMutability":"nonpayable","type":"function"},{"inputs":[{"internalType":"bytes32","name":"sessionId","type":"bytes32"},{"internalType":"address","name":"sessionKey","type":"address"},{"internalType":"uint128","name":"maxValue","type":"uint128"},{"internalType":"uint64","name":"expiry","type":"uint64"},{"internalType":"bytes32","name":"nullifier","type":"bytes32"},{"internalType":"uint256[2]","name":"a","type":"uint256[2]"},{"internalType":"uint256[2][2]","name":"b","type":"uint256[2][2]"},{"internalType":"uint256[2]","name":"c","type":"uint256[2]"},{"internalType":"uint256[5]","name":"publicSignals","type":"uint256[5]"}],"name":"createSession","outputs":[],"stateMutability":"nonpayable","type":"function"},{"inputs":[{"internalType":"bytes32","name":"sessionId","type":"bytes32"}],"name":"getLightSession","outputs":[{"internalType":"address","name":"sessionKey","type":"address"},{"internalType":"uint256","name":"dailySpendLimit","type":"uint256"},{"internalType":"uint256","name":"dailyTxLimit","type":"uint256"},{"internalType":"uint256","name":"dailySpendUsed","type":"uint256"},{"internalType":"uint256","name":"dailyTxUsed","type":"uint256"},{"internalType":"uint64","name":"expiry","type":"uint64"},{"internalType":"bool","name":"revoked","type":"bool"}],"stateMutability":"view","type":"function"},{"inputs":[{"internalType":"address","name":"wallet","type":"address"}],"name":"getWalletSessions","outputs":[{"internalType":"bytes32[]","name":"","type":"bytes32[]"}],"stateMutability":"view","type":"function"},{"inputs":[{"internalType":"address","name":"verifier_","type":"address"},{"internalType":"address","name":"registry_","type":"address"},{"internalType":"address","name":"owner_","type":"address"}],"name":"initialize","outputs":[],"stateMutability":"nonpayable","type":"function"},{"inputs":[{"internalType":"bytes32","name":"","type":"bytes32"}],"name":"lightSessions","outputs":[{"internalType":"address","name":"sessionKey","type":"address"},{"internalType":"uint256","name":"dailySpendLimit","type":"uint256"},{"internalType":"uint256","name":"dailyTxLimit","type":"uint256"},{"internalType":"uint256","name":"dailySpendUsed","type":"uint256"},{"internalType":"uint256","name":"dailyTxUsed","type":"uint256"},{"internalType":"uint64","name":"lastResetDay","type":"uint64"},{"internalType":"uint64","name":"expiry","type":"uint64"},{"internalType":"bool","name":"revoked","type":"bool"}],"stateMutability":"view","type":"function"},{"inputs":[],"name":"owner","outputs":[{"internalType":"address","name":"","type":"address"}],"stateMutability":"view","type":"function"},{"inputs":[],"name":"pause","outputs":[],"stateMutability":"nonpayable","type":"function"},{"inputs":[],"name":"paused","outputs":[{"internalType":"bool","name":"","type":"bool"}],"stateMutability":"view","type":"function"},{"inputs":[],"name":"proxiableUUID","outputs":[{"internalType":"bytes32","name":"","type":"bytes32"}],"stateMutability":"view","type":"function"},{"inputs":[],"name":"registry","outputs":[{"internalType":"contract ICredentialRegistry","name":"","type":"address"}],"stateMutability":"view","type":"function"},{"inputs":[],"name":"renounceOwnership","outputs":[],"stateMutability":"nonpayable","type":"function"},{"inputs":[{"internalType":"bytes32","name":"sessionId","type":"bytes32"},{"internalType":"address","name":"wallet","type":"address"}],"name":"revokeLightweightSession","outputs":[],"stateMutability":"nonpayable","type":"function"},{"inputs":[{"internalType":"bytes32","name":"sessionId","type":"bytes32"},{"internalType":"address","name":"wallet","type":"address"}],"name":"revokeSession","outputs":[],"stateMutability":"nonpayable","type":"function"},{"inputs":[{"internalType":"bytes32","name":"","type":"bytes32"}],"name":"sessions","outputs":[{"internalType":"address","name":"sessionKey","type":"address"},{"internalType":"uint256","name":"valueUsed","type":"uint256"},{"internalType":"uint256","name":"maxValue","type":"uint256"},{"internalType":"uint64","name":"expiry","type":"uint64"},{"internalType":"bool","name":"revoked","type":"bool"}],"stateMutability":"view","type":"function"},{"inputs":[{"internalType":"address","name":"newOwner","type":"address"}],"name":"transferOwnership","outputs":[],"stateMutability":"nonpayable","type":"function"},{"inputs":[],"name":"unpause","outputs":[],"stateMutability":"nonpayable","type":"function"},{"inputs":[{"internalType":"address","name":"newImplementation","type":"address"}],"name":"upgradeTo","outputs":[],"stateMutability":"nonpayable","type":"function"},{"inputs":[{"internalType":"address","name":"newImplementation","type":"address"},{"internalType":"bytes","name":"data","type":"bytes"}],"name":"upgradeToAndCall","outputs":[],"stateMutability":"payable","type":"function"},{"inputs":[{"internalType":"bytes32","name":"sessionId","type":"bytes32"},{"internalType":"address","name":"signer","type":"address"},{"internalType":"uint256","name":"value","type":"uint256"}],"name":"validateLightweightSession","outputs":[{"internalType":"bool","name":"","type":"bool"}],"stateMutability":"nonpayable","type":"function"},{"inputs":[{"internalType":"bytes32","name":"sessionId","type":"bytes32"},{"internalType":"address","name":"signer","type":"address"},{"internalType":"uint256","name":"value","type":"uint256"}],"name":"validateSession","outputs":[{"internalType":"bool","name":"","type":"bool"}],"stateMutability":"nonpayable","type":"function"},{"inputs":[],"name":"verifier","outputs":[{"internalType":"contract IVerifier","name":"","type":"address"}],"stateMutability":"view","type":"function"},{"inputs":[{"internalType":"address","name":"","type":"address"},{"internalType":"uint256","name":"","type":"uint256"}],"name":"walletSessions","outputs":[{"internalType":"bytes32","name":"","type":"bytes32"}],"stateMutability":"view","type":"function"}],"evm":{"bytecode":{"linkReferences":{},"object":"60a080604052346100dc57306080526000549060ff8260081c1661008a575060ff8082160361004f575b60405161223990816100e2823960805181818161099d01528181610a9d0152610ddb0152f35b60ff90811916176000557f7f26b83ff96e1f2b6a682f133852f6798a09c465da95921460cefb3847402498602060405160ff8152a138610029565b62461bcd60e51b815260206004820152602760248201527f496e697469616c697a61626c653a20636f6e747261637420697320696e697469604482015266616c697a696e6760c81b6064820152608490fd5b600080fdfe608080604052600436101561001357600080fd5b600090813560e01c908162444f4b14611681575080630ec163f31461132e578063186a27571461127f5780631efb10f6146112285780632a2d93801461111f5780632b7ac3f3146110f5578063356f644d146110705780633659cfe614610db65780633f4ba83a14610d215780634f1ef28614610a4e57806352d1902d1461098a5780635c975abb14610967578063715018a6146109095780637b103999146108df5780637dbd2832146108735780638456cb59146108185780638da5cb5b146107ef5780638eb691b11461076157806399d29df91461061e578063c0c53b8b14610459578063dc35e7d414610391578063f2fde38b146103005763f545b88b1461011d57600080fd5b346102fd5761012b36611c13565b91929083825261012e602052604082209060018060a01b03808354169081156102eb57600584019182549160ff8360801c166102d9576001600160401b0394858460401c1642116102c75716036102b557828793620151804204168091831610610266575b50505050600381016101a3848254611d36565b9260018301548411610251576004830191825490600182019485831161023d5760020154851161022b57859055600019146102175750917f6710bf7c8828bf28bdddb7b45da3a29d2eca474d615fe28b47075ce7bf67e3c393916040935582519182526020820152a2602060405160018152f35b634e487b7160e01b81526011600452602490fd5b6040516334304bd960e11b8152600490fd5b634e487b7160e01b84526011600452602484fd5b60405160016229a0d960e11b03198152600490fd5b7ff27cff30b6684ae4bbc9913e70785baafa758cdfef27e76c9773a8cd5cbf9acc92816020938860038901558860048901556001600160401b031916179055604051908152a283388080610190565b604051632057875960e21b8152600490fd5b604051630fe82d2560e11b8152600490fd5b6040516329269c5d60e11b8152600490fd5b6040516396c95f8160e01b8152600490fd5b80fd5b50346102fd5760203660031901126102fd5761031a611b41565b610322611d9d565b6001600160a01b0381161561033d5761033a90611df5565b80f35b60405162461bcd60e51b815260206004820152602660248201527f4f776e61626c653a206e6577206f776e657220697320746865207a65726f206160448201526564647265737360d01b6064820152608490fd5b50346102fd576040906103a336611c13565b9193909284815261012d6020522091600383015460ff8160401c166102d9576001600160401b031642116102c75782546001600160a01b039081169116036102b557600182019060026103f7828454611d36565b930154831161044757826040926001600160801b037f8f681f2a4f6cd078b7e4cab4ae8112ef10d6b50b1511bf4915c069cf5d3b835e9516905582519182526020820152a2602060405160018152f35b604051631930e3c960e11b8152600490fd5b50346102fd5760603660031901126102fd57610473611b41565b61047b611b2b565b6001600160a01b0390604435828116036106195783549260ff8460081c16159283809461060c575b80156105f5575b156105995760ff1985811660011787559484610588575b506104db60ff875460081c166104d681611e3e565b611e3e565b6104e433611df5565b61052686549560ff8760081c16906104fb82611e3e565b61050482611e3e565b6001805561051182611e3e565b61051a82611e3e565b60655416606555611e3e565b6001600160601b0360a01b9181610130911683825416179055610131921690825416179055610553575080f35b61ff00191681557f7f26b83ff96e1f2b6a682f133852f6798a09c465da95921460cefb3847402498602060405160018152a180f35b61ffff1916610101178655386104c1565b60405162461bcd60e51b815260206004820152602e60248201527f496e697469616c697a61626c653a20636f6e747261637420697320616c72656160448201526d191e481a5b9a5d1a585b1a5e995960921b6064820152608490fd5b50303b1580156104aa5750600160ff8616146104aa565b50600160ff8616106104a3565b600080fd5b50346102fd5760403660031901126102fd5760043561063b611b2b565b81835261012e6020526040832080546001600160a01b039081169182156102eb576005019283549260ff8460801c1661074f5733141591826106c6575b50506106b45760ff60801b1916600160801b1790557f75603cfad1b4b830ba27b5f2a2867fc0ecde28d51b13b72816b1707b7cd4e9498280a280f35b604051632d2a14a760e21b8152600490fd5b813b1592509082156106dc575b50503880610678565b604051638da5cb5b60e01b815292506020908390600490829085165afa918215610744578692610713575b501633141538806106d3565b61073691925060203d60201161073d575b61072e8183611ba0565b810190611c55565b9038610707565b503d610724565b6040513d88823e3d90fd5b604051630b3e2fbf60e01b8152600490fd5b50346102fd5760203660031901126102fd57604061010091600435815261012e6020522060ff60018060a01b03825416916001810154600282015491600381015460056004830154920154936001600160401b0393604051978852602088015260408701526060860152608085015280821660a08501528160401c1660c084015260801c16151560e0820152f35b50346102fd57806003193601126102fd5760fb546040516001600160a01b039091168152602090f35b50346102fd57806003193601126102fd57610831611d9d565b610839611d59565b600160ff1960655416176065557f62e78cea01bee320cd4e420270b5ea74000d11b0c9f74754ebdbfc544b05a2586020604051338152a180f35b50346102fd5760203660031901126102fd57604060a091600435815261012d6020522060ff600180841b03825416916001810154906003600282015491015491604051948552602085015260408401526001600160401b038116606084015260401c1615156080820152f35b50346102fd57806003193601126102fd57610131546040516001600160a01b039091168152602090f35b50346102fd57806003193601126102fd57610922611d9d565b60fb80546001600160a01b031981169091556000906001600160a01b03167f8be0079c531659141344cd1fd0a4f28419497f9722a3daafe3b4186f6b6457e08280a380f35b50346102fd57806003193601126102fd57602060ff606554166040519015158152f35b50346102fd57806003193601126102fd577f00000000000000000000000000000000000000000000000000000000000000006001600160a01b031630036109e35760206040516000805160206121e48339815191528152f35b60405162461bcd60e51b815260206004820152603860248201527f555550535570677261646561626c653a206d757374206e6f742062652063616c60448201527f6c6564207468726f7567682064656c656761746563616c6c00000000000000006064820152608490fd5b5060403660031901126102fd57610a63611b41565b6024356001600160401b038111610d1d5736602382011215610d1d57610a93903690602481600401359101611bdc565b6001600160a01b037f00000000000000000000000000000000000000000000000000000000000000008116929190610acd30851415611c74565b610aea6000805160206121e4833981519152948286541614611cd5565b610af2611d9d565b7f4910fdfa16fed3260ed0e7147f7cc6da11a60208b5b9406d12a635614ffd91435460ff1615610b2857505061033a9150611ff0565b8216604051936352d1902d60e01b85526020948581600481865afa60009181610cee575b50610bad5760405162461bcd60e51b815260048101879052602e60248201527f45524331393637557067726164653a206e657720696d706c656d656e7461746960448201526d6f6e206973206e6f74205555505360901b6064820152608490fd5b9492939403610c9757610bbf84611ff0565b7fbc7cd75a20ee27fd9adebab32041f755214dbc6bffa90cc0225b39da2e5c2d3b600080a2815115801590610c8f575b610bfa575b50505080f35b610c7d9260008060405194610c0e86611b85565b602786527f416464726573733a206c6f772d6c6576656c2064656c65676174652063616c6c85870152660819985a5b195960ca1b60408701528481519101845af4903d15610c86573d610c6081611bc1565b90610c6e6040519283611ba0565b8152600081943d92013e61210f565b50388080610bf4565b6060925061210f565b506001610bef565b60405162461bcd60e51b815260048101839052602960248201527f45524331393637557067726164653a20756e737570706f727465642070726f786044820152681a58589b195555525160ba1b6064820152608490fd5b9091508681813d8311610d16575b610d068183611ba0565b8101031261061957519038610b4c565b503d610cfc565b8280fd5b50346102fd57806003193601126102fd57610d3a611d9d565b60655460ff811615610d7a5760ff19166065557f5db9ee0a495bf2e6ff9c91a7834c1ba4fdd244a5e8aa4e537bd38aeae4b073aa6020604051338152a180f35b60405162461bcd60e51b815260206004820152601460248201527314185d5cd8589b194e881b9bdd081c185d5cd95960621b6044820152606490fd5b50346102fd5760208060031936011261106c57610dd1611b41565b6001600160a01b037f00000000000000000000000000000000000000000000000000000000000000008116610e0830821415611c74565b610e256000805160206121e4833981519152918383541614611cd5565b610e2d611d9d565b60405190848201928284106001600160401b03851117611056578360405286835260ff7f4910fdfa16fed3260ed0e7147f7cc6da11a60208b5b9406d12a635614ffd91435416600014610e88575050505061033a9150611ff0565b8492939416906040516352d1902d60e01b81528681600481865afa60009181611027575b50610f0d5760405162461bcd60e51b815260048101889052602e60248201527f45524331393637557067726164653a206e657720696d706c656d656e7461746960448201526d6f6e206973206e6f74205555505360901b6064820152608490fd5b9593949503610fd057610f1f82611ff0565b7fbc7cd75a20ee27fd9adebab32041f755214dbc6bffa90cc0225b39da2e5c2d3b600080a2825115801590610fc8575b610f5b575b5050505080f35b600080610fbe9560405195610f6f87611b85565b602787527f416464726573733a206c6f772d6c6576656c2064656c65676174652063616c6c86880152660819985a5b195960ca1b60408801525190845af4903d15610c86573d610c6081611bc1565b5038808080610f54565b506000610f4f565b60405162461bcd60e51b815260048101849052602960248201527f45524331393637557067726164653a20756e737570706f727465642070726f786044820152681a58589b195555525160ba1b6064820152608490fd5b9091508781813d831161104f575b61103f8183611ba0565b8101031261061957519038610eac565b503d611035565b634e487b7160e01b600052604160045260246000fd5b5080fd5b50346102fd5760203660031901126102fd57604060e091600435815261012e6020522060ff60018060a01b03825416916001810154906002810154600382015490600560048401549301549360405196875260208701526040860152606085015260808401526001600160401b038160401c1660a084015260801c16151560c0820152f35b50346102fd57806003193601126102fd57610130546040516001600160a01b039091168152602090f35b50346102fd5760403660031901126102fd5760043561113c611b2b565b81835261012d6020526040832080546001600160a01b039081169182156102eb576003019283549260ff8460401c1661074f5733141591826111ba575b50506106b45768ff00000000000000001916600160401b1790557fcc0f7e7f309149dce2db74723f771f7d96cad368d91763e945dc3956c4dbfb048280a280f35b813b1592509082156111d0575b50503880611179565b604051638da5cb5b60e01b815292506020908390600490829085165afa918215610744578692611207575b501633141538806111c7565b61122191925060203d60201161073d5761072e8183611ba0565b90386111fb565b50346102fd5760403660031901126102fd57611242611b41565b6001600160a01b0316815261012f60205260408120805460243592908310156102fd5760206112718484611b57565b90546040519160031b1c8152f35b50346102fd5760208060031936011261106c576001600160a01b036112a2611b41565b16825261012f81526040822060405192838383549182815201908193835284832090835b81811061131a57505050846112dc910385611ba0565b60405193838594850191818652518092526040850193925b82811061130357505050500390f35b8351855286955093810193928101926001016112f4565b8254845292860192600192830192016112c6565b50346102fd5760c03660031901126102fd5760043561134b611b2b565b90604435606435608435906001600160401b03948583168093036106195760a4359086821161167d573660238301121561167d57816004013596808811611679573660248985010111611679576113a0611d59565b6001600160a01b03918216978815611667574286111561165657878a5260209361012e85528360408c20541661164457604051918583018a81528b60408501528960608501528760808501528860a085015260a0845260c0840192848410868511176110565761146f948461146193611467966040528251902060fc60e08401937f19457468657265756d205369676e6564204d6573736167653a0a33320000000085520152603c815261145381611b85565b519020926024369201611bdc565b90611e9e565b919091611ed6565b604051638da5cb5b60e01b81528481600481335afa9182156116395784918c93611618575b5081169116036116065760405190610100820190828210818311176110565760058793868b968e956040528d83528183018c815260408401908b8252606085019288845260408961012e608089019782895260a08a019e8f8d62015180420416905260c08b019e8f5260e08b019d8e52835252209551166001600160601b0360a01b865416178555516001850155516002840155516003830155516004820155019351166fffffffffffffffff00000000000000008454935160401b169160ff60801b9051151560801b169270ffffffffffffffffffffffffffffffffff1916171717905533875261012f815260408720805490600160401b8210156115f257916115cb826060969460017f6444c67754985aaf64c147c6bc7eecbe2b7b83724e5f0adb261589fe9707e392999795018155611b57565b81549060031b9089821b91600019901b19161790556040519384528301526040820152a380f35b634e487b7160e01b89526041600452602489fd5b604051633101cebf60e21b8152600490fd5b8291935061163290873d891161073d5761072e8183611ba0565b9290611494565b6040513d8d823e3d90fd5b6040516323792a1160e11b8152600490fd5b60405162d36c8560e81b8152600490fd5b604051635f8874dd60e11b8152600490fd5b8880fd5b8780fd5b90503461106c5761024036600319011261106c5761169d611b2b565b6044356001600160801b0381168103611b2757606435926001600160401b0384168403611b23573660e411611b23573661016411611b2357366101a411611b23573661024411611b2357600260015414611ae1575060026001556116ff611d59565b6001600160a01b0382161561166757426001600160401b038416111561165657600435845261012d60205260408420546001600160a01b0316611644576101a43560843503611acf576101315460405163abb2efdf60e01b81526001600160a01b0390911690602081600481855afa908115610744578691611a9d575b506101c43503611a8b57604051636b6debf760e01b8152602081600481855afa908115610744578691611a55575b506101e43503611a4357610204356001600160801b03831603611a3157610224356001600160401b03851603611a1f576040516308b71ed360e21b81526084356004820152602081602481855afa908115610744578691611a00575b506119ee5761013054604080516334baeab960e01b8152916001600160a01b03169060a460048401378160e488604483015b600282106119d4575050506101a481602093604061016460c484013760a0836101048401375afa9081156107445786916119a5575b5015611993578085913b1561106c57819060246040518094819363057cb0f560e01b835260843560048401525af1801561198857611952575b506001600160801b0390600435855261012d60205260036040862060018060a01b0385166001600160601b0360a01b8254161781558383166002820155866001820155016001600160401b03851668ffffffffffffffffff198254161790556001600160401b036040519416845216602083015260018060a01b0316907f94b1ef4e34e21e2badb942118f7ae876506e3e69eac566354d868aaaabb4004d604060043592a36001805580f35b6001600160401b03819592951161197457604052926001600160801b036118a6565b634e487b7160e01b82526041600452602482fd5b6040513d87823e3d90fd5b6040516309bde33960e01b8152600490fd5b6119c7915060203d6020116119cd575b6119bf8183611ba0565b810190611c3d565b3861186d565b503d6119b5565b829350604081816001949581943701930191018492611838565b604051636569570160e11b8152600490fd5b611a19915060203d6020116119cd576119bf8183611ba0565b38611806565b604051638a0fcebb60e01b8152600490fd5b6040516363f0adc160e01b8152600490fd5b604051632f075c2d60e21b8152600490fd5b90506020813d602011611a83575b81611a7060209383611ba0565b81010312611a7f5751386117aa565b8580fd5b3d9150611a63565b604051635ade045560e01b8152600490fd5b90506020813d602011611ac7575b81611ab860209383611ba0565b81010312611a7f57513861177c565b3d9150611aab565b60405163b9ab99df60e01b8152600490fd5b62461bcd60e51b815260206004820152601f60248201527f5265656e7472616e637947756172643a207265656e7472616e742063616c6c006044820152606490fd5b8480fd5b8380fd5b602435906001600160a01b038216820361061957565b600435906001600160a01b038216820361061957565b8054821015611b6f5760005260206000200190600090565b634e487b7160e01b600052603260045260246000fd5b606081019081106001600160401b0382111761105657604052565b90601f801991011681019081106001600160401b0382111761105657604052565b6001600160401b03811161105657601f01601f191660200190565b929192611be882611bc1565b91611bf66040519384611ba0565b829481845281830111610619578281602093846000960137010152565b606090600319011261061957600435906024356001600160a01b0381168103610619579060443590565b90816020910312610619575180151581036106195790565b9081602091031261061957516001600160a01b03811681036106195790565b15611c7b57565b60405162461bcd60e51b815260206004820152602c60248201527f46756e6374696f6e206d7573742062652063616c6c6564207468726f7567682060448201526b19195b1959d85d1958d85b1b60a21b6064820152608490fd5b15611cdc57565b60405162461bcd60e51b815260206004820152602c60248201527f46756e6374696f6e206d7573742062652063616c6c6564207468726f7567682060448201526b6163746976652070726f787960a01b6064820152608490fd5b91908201809211611d4357565b634e487b7160e01b600052601160045260246000fd5b60ff60655416611d6557565b60405162461bcd60e51b815260206004820152601060248201526f14185d5cd8589b194e881c185d5cd95960821b6044820152606490fd5b60fb546001600160a01b03163303611db157565b606460405162461bcd60e51b815260206004820152602060248201527f4f776e61626c653a2063616c6c6572206973206e6f7420746865206f776e65726044820152fd5b60fb80546001600160a01b039283166001600160a01b0319821681179092559091167f8be0079c531659141344cd1fd0a4f28419497f9722a3daafe3b4186f6b6457e0600080a3565b15611e4557565b60405162461bcd60e51b815260206004820152602b60248201527f496e697469616c697a61626c653a20636f6e7472616374206973206e6f74206960448201526a6e697469616c697a696e6760a81b6064820152608490fd5b906041815114600014611ecc57611ec8916020820151906060604084015193015160001a90612080565b9091565b5050600090600290565b6005811015611fda5780611ee75750565b60018103611f345760405162461bcd60e51b815260206004820152601860248201527f45434453413a20696e76616c6964207369676e617475726500000000000000006044820152606490fd5b60028103611f815760405162461bcd60e51b815260206004820152601f60248201527f45434453413a20696e76616c6964207369676e6174757265206c656e677468006044820152606490fd5b600314611f8a57565b60405162461bcd60e51b815260206004820152602260248201527f45434453413a20696e76616c6964207369676e6174757265202773272076616c604482015261756560f01b6064820152608490fd5b634e487b7160e01b600052602160045260246000fd5b803b15612025576000805160206121e483398151915280546001600160a01b0319166001600160a01b03909216919091179055565b60405162461bcd60e51b815260206004820152602d60248201527f455243313936373a206e657720696d706c656d656e746174696f6e206973206e60448201526c1bdd08184818dbdb9d1c9858dd609a1b6064820152608490fd5b9291907f7fffffffffffffffffffffffffffffff5d576e7357a4501ddfe92f46681b20a083116121035791608094939160ff602094604051948552168484015260408301526060820152600093849182805260015afa156120f65781516001600160a01b038116156120f0579190565b50600190565b50604051903d90823e3d90fd5b50505050600090600390565b919290156121715750815115612123575090565b3b1561212c5790565b60405162461bcd60e51b815260206004820152601d60248201527f416464726573733a2063616c6c20746f206e6f6e2d636f6e74726163740000006044820152606490fd5b8251909150156121845750805190602001fd5b6040519062461bcd60e51b82528160208060048301528251908160248401526000935b8285106121ca575050604492506000838284010152601f80199101168101030190fd5b84810182015186860160440152938101938593506121a756fe360894a13ba1a3210667c828492db98dca3e2076cc3735a920a3ca505d382bbca2646970667358221220b0c960212fafe75a813d8a518e868495ded3a3e17da2be137f4963080b0532f064736f6c63430008180033","opcodes":"PUSH1 0xA0 DUP1 PUSH1 0x40 MSTORE CALLVALUE PUSH2 0xDC JUMPI ADDRESS PUSH1 0x80 MSTORE PUSH1 0x0 SLOAD SWAP1 PUSH1 0xFF DUP3 PUSH1 0x8 SHR AND PUSH2 0x8A JUMPI POP PUSH1 0xFF DUP1 DUP3 AND SUB PUSH2 0x4F JUMPI JUMPDEST PUSH1 0x40 MLOAD PUSH2 0x2239 SWAP1 DUP2 PUSH2 0xE2 DUP3 CODECOPY PUSH1 0x80 MLOAD DUP2 DUP2 DUP2 PUSH2 0x99D ADD MSTORE DUP2 DUP2 PUSH2 0xA9D ADD MSTORE PUSH2 0xDDB ADD MSTORE RETURN JUMPDEST PUSH1 0xFF SWAP1 DUP2 NOT AND OR PUSH1 0x0 SSTORE PUSH32 0x7F26B83FF96E1F2B6A682F133852F6798A09C465DA95921460CEFB3847402498 PUSH1 0x20 PUSH1 0x40 MLOAD PUSH1 0xFF DUP2 MSTORE LOG1 CODESIZE PUSH2 0x29 JUMP JUMPDEST PUSH3 0x461BCD PUSH1 0xE5 SHL DUP2 MSTORE PUSH1 0x20 PUSH1 0x4 DUP3 ADD MSTORE PUSH1 0x27 PUSH1 0x24 DUP3 ADD MSTORE PUSH32 0x496E697469616C697A61626C653A20636F6E747261637420697320696E697469 PUSH1 0x44 DUP3 ADD MSTORE PUSH7 0x616C697A696E67 PUSH1 0xC8 SHL PUSH1 0x64 DUP3 ADD MSTORE PUSH1 0x84 SWAP1 REVERT JUMPDEST PUSH1 0x0 DUP1 REVERT INVALID PUSH1 0x80 DUP1 PUSH1 0x40 MSTORE PUSH1 0x4 CALLDATASIZE LT ISZERO PUSH2 0x13 JUMPI PUSH1 0x0 DUP1 REVERT JUMPDEST PUSH1 0x0 SWAP1 DUP2 CALLDATALOAD PUSH1 0xE0 SHR SWAP1 DUP2 PUSH3 0x444F4B EQ PUSH2 0x1681 JUMPI POP DUP1 PUSH4 0xEC163F3 EQ PUSH2 0x132E JUMPI DUP1 PUSH4 0x186A2757 EQ PUSH2 0x127F JUMPI DUP1 PUSH4 0x1EFB10F6 EQ PUSH2 0x1228 JUMPI DUP1 PUSH4 0x2A2D9380 EQ PUSH2 0x111F JUMPI DUP1 PUSH4 0x2B7AC3F3 EQ PUSH2 0x10F5 JUMPI DUP1 PUSH4 0x356F644D EQ PUSH2 0x1070 JUMPI DUP1 PUSH4 0x3659CFE6 EQ PUSH2 0xDB6 JUMPI DUP1 PUSH4 0x3F4BA83A EQ PUSH2 0xD21 JUMPI DUP1 PUSH4 0x4F1EF286 EQ PUSH2 0xA4E JUMPI DUP1 PUSH4 0x52D1902D EQ PUSH2 0x98A JUMPI DUP1 PUSH4 0x5C975ABB EQ PUSH2 0x967 JUMPI DUP1 PUSH4 0x715018A6 EQ PUSH2 0x909 JUMPI DUP1 PUSH4 0x7B103999 EQ PUSH2 0x8DF JUMPI DUP1 PUSH4 0x7DBD2832 EQ PUSH2 0x873 JUMPI DUP1 PUSH4 0x8456CB59 EQ PUSH2 0x818 JUMPI DUP1 PUSH4 0x8DA5CB5B EQ PUSH2 0x7EF JUMPI DUP1 PUSH4 0x8EB691B1 EQ PUSH2 0x761 JUMPI DUP1 PUSH4 0x99D29DF9 EQ PUSH2 0x61E JUMPI DUP1 PUSH4 0xC0C53B8B EQ PUSH2 0x459 JUMPI DUP1 PUSH4 0xDC35E7D4 EQ PUSH2 0x391 JUMPI DUP1 PUSH4 0xF2FDE38B EQ PUSH2 0x300 JUMPI PUSH4 0xF545B88B EQ PUSH2 0x11D JUMPI PUSH1 0x0 DUP1 REVERT JUMPDEST CALLVALUE PUSH2 0x2FD JUMPI PUSH2 0x12B CALLDATASIZE PUSH2 0x1C13 JUMP JUMPDEST SWAP2 SWAP3 SWAP1 DUP4 DUP3 MSTORE PUSH2 0x12E PUSH1 0x20 MSTORE PUSH1 0x40 DUP3 KECCAK256 SWAP1 PUSH1 0x1 DUP1 PUSH1 0xA0 SHL SUB DUP1 DUP4 SLOAD AND SWAP1 DUP2 ISZERO PUSH2 0x2EB JUMPI PUSH1 0x5 DUP5 ADD SWAP2 DUP3 SLOAD SWAP2 PUSH1 0xFF DUP4 PUSH1 0x80 SHR AND PUSH2 0x2D9 JUMPI PUSH1 0x1 PUSH1 0x1 PUSH1 0x40 SHL SUB SWAP5 DUP6 DUP5 PUSH1 0x40 SHR AND TIMESTAMP GT PUSH2 0x2C7 JUMPI AND SUB PUSH2 0x2B5 JUMPI DUP3 DUP8 SWAP4 PUSH3 0x15180 TIMESTAMP DIV AND DUP1 SWAP2 DUP4 AND LT PUSH2 0x266 JUMPI JUMPDEST POP POP POP POP PUSH1 0x3 DUP2 ADD PUSH2 0x1A3 DUP5 DUP3 SLOAD PUSH2 0x1D36 JUMP JUMPDEST SWAP3 PUSH1 0x1 DUP4 ADD SLOAD DUP5 GT PUSH2 0x251 JUMPI PUSH1 0x4 DUP4 ADD SWAP2 DUP3 SLOAD SWAP1 PUSH1 0x1 DUP3 ADD SWAP5 DUP6 DUP4 GT PUSH2 0x23D JUMPI PUSH1 0x2 ADD SLOAD DUP6 GT PUSH2 0x22B JUMPI DUP6 SWAP1 SSTORE PUSH1 0x0 NOT EQ PUSH2 0x217 JUMPI POP SWAP2 PUSH32 0x6710BF7C8828BF28BDDDB7B45DA3A29D2ECA474D615FE28B47075CE7BF67E3C3 SWAP4 SWAP2 PUSH1 0x40 SWAP4 SSTORE DUP3 MLOAD SWAP2 DUP3 MSTORE PUSH1 0x20 DUP3 ADD MSTORE LOG2 PUSH1 0x20 PUSH1 0x40 MLOAD PUSH1 0x1 DUP2 MSTORE RETURN JUMPDEST PUSH4 0x4E487B71 PUSH1 0xE0 SHL DUP2 MSTORE PUSH1 0x11 PUSH1 0x4 MSTORE PUSH1 0x24 SWAP1 REVERT JUMPDEST PUSH1 0x40 MLOAD PUSH4 0x34304BD9 PUSH1 0xE1 SHL DUP2 MSTORE PUSH1 0x4 SWAP1 REVERT JUMPDEST PUSH4 0x4E487B71 PUSH1 0xE0 SHL DUP5 MSTORE PUSH1 0x11 PUSH1 0x4 MSTORE PUSH1 0x24 DUP5 REVERT JUMPDEST PUSH1 0x40 MLOAD PUSH1 0x1 PUSH3 0x29A0D9 PUSH1 0xE1 SHL SUB NOT DUP2 MSTORE PUSH1 0x4 SWAP1 REVERT JUMPDEST PUSH32 0xF27CFF30B6684AE4BBC9913E70785BAAFA758CDFEF27E76C9773A8CD5CBF9ACC SWAP3 DUP2 PUSH1 0x20 SWAP4 DUP9 PUSH1 0x3 DUP10 ADD SSTORE DUP9 PUSH1 0x4 DUP10 ADD SSTORE PUSH1 0x1 PUSH1 0x1 PUSH1 0x40 SHL SUB NOT AND OR SWAP1 SSTORE PUSH1 0x40 MLOAD SWAP1 DUP2 MSTORE LOG2 DUP4 CODESIZE DUP1 DUP1 PUSH2 0x190 JUMP JUMPDEST PUSH1 0x40 MLOAD PUSH4 0x20578759 PUSH1 0xE2 SHL DUP2 MSTORE PUSH1 0x4 SWAP1 REVERT JUMPDEST PUSH1 0x40 MLOAD PUSH4 0xFE82D25 PUSH1 0xE1 SHL DUP2 MSTORE PUSH1 0x4 SWAP1 REVERT JUMPDEST PUSH1 0x40 MLOAD PUSH4 0x29269C5D PUSH1 0xE1 SHL DUP2 MSTORE PUSH1 0x4 SWAP1 REVERT JUMPDEST PUSH1 0x40 MLOAD PUSH4 0x96C95F81 PUSH1 0xE0 SHL DUP2 MSTORE PUSH1 0x4 SWAP1 REVERT JUMPDEST DUP1 REVERT JUMPDEST POP CALLVALUE PUSH2 0x2FD JUMPI PUSH1 0x20 CALLDATASIZE PUSH1 0x3 NOT ADD SLT PUSH2 0x2FD JUMPI PUSH2 0x31A PUSH2 0x1B41 JUMP JUMPDEST PUSH2 0x322 PUSH2 0x1D9D JUMP JUMPDEST PUSH1 0x1 PUSH1 0x1 PUSH1 0xA0 SHL SUB DUP2 AND ISZERO PUSH2 0x33D JUMPI PUSH2 0x33A SWAP1 PUSH2 0x1DF5 JUMP JUMPDEST DUP1 RETURN JUMPDEST PUSH1 0x40 MLOAD PUSH3 0x461BCD PUSH1 0xE5 SHL DUP2 MSTORE PUSH1 0x20 PUSH1 0x4 DUP3 ADD MSTORE PUSH1 0x26 PUSH1 0x24 DUP3 ADD MSTORE PUSH32 0x4F776E61626C653A206E6577206F776E657220697320746865207A65726F2061 PUSH1 0x44 DUP3 ADD MSTORE PUSH6 0x646472657373 PUSH1 0xD0 SHL PUSH1 0x64 DUP3 ADD MSTORE PUSH1 0x84 SWAP1 REVERT JUMPDEST POP CALLVALUE PUSH2 0x2FD JUMPI PUSH1 0x40 SWAP1 PUSH2 0x3A3 CALLDATASIZE PUSH2 0x1C13 JUMP JUMPDEST SWAP2 SWAP4 SWAP1 SWAP3 DUP5 DUP2 MSTORE PUSH2 0x12D PUSH1 0x20 MSTORE KECCAK256 SWAP2 PUSH1 0x3 DUP4 ADD SLOAD PUSH1 0xFF DUP2 PUSH1 0x40 SHR AND PUSH2 0x2D9 JUMPI PUSH1 0x1 PUSH1 0x1 PUSH1 0x40 SHL SUB AND TIMESTAMP GT PUSH2 0x2C7 JUMPI DUP3 SLOAD PUSH1 0x1 PUSH1 0x1 PUSH1 0xA0 SHL SUB SWAP1 DUP2 AND SWAP2 AND SUB PUSH2 0x2B5 JUMPI PUSH1 0x1 DUP3 ADD SWAP1 PUSH1 0x2 PUSH2 0x3F7 DUP3 DUP5 SLOAD PUSH2 0x1D36 JUMP JUMPDEST SWAP4 ADD SLOAD DUP4 GT PUSH2 0x447 JUMPI DUP3 PUSH1 0x40 SWAP3 PUSH1 0x1 PUSH1 0x1 PUSH1 0x80 SHL SUB PUSH32 0x8F681F2A4F6CD078B7E4CAB4AE8112EF10D6B50B1511BF4915C069CF5D3B835E SWAP6 AND SWAP1 SSTORE DUP3 MLOAD SWAP2 DUP3 MSTORE PUSH1 0x20 DUP3 ADD MSTORE LOG2 PUSH1 0x20 PUSH1 0x40 MLOAD PUSH1 0x1 DUP2 MSTORE RETURN JUMPDEST PUSH1 0x40 MLOAD PUSH4 0x1930E3C9 PUSH1 0xE1 SHL DUP2 MSTORE PUSH1 0x4 SWAP1 REVERT JUMPDEST POP CALLVALUE PUSH2 0x2FD JUMPI PUSH1 0x60 CALLDATASIZE PUSH1 0x3 NOT ADD SLT PUSH2 0x2FD JUMPI PUSH2 0x473 PUSH2 0x1B41 JUMP JUMPDEST PUSH2 0x47B PUSH2 0x1B2B JUMP JUMPDEST PUSH1 0x1 PUSH1 0x1 PUSH1 0xA0 SHL SUB SWAP1 PUSH1 0x44 CALLDATALOAD DUP3 DUP2 AND SUB PUSH2 0x619 JUMPI DUP4 SLOAD SWAP3 PUSH1 0xFF DUP5 PUSH1 0x8 SHR AND ISZERO SWAP3 DUP4 DUP1 SWAP5 PUSH2 0x60C JUMPI JUMPDEST DUP1 ISZERO PUSH2 0x5F5 JUMPI JUMPDEST ISZERO PUSH2 0x599 JUMPI PUSH1 0xFF NOT DUP6 DUP2 AND PUSH1 0x1 OR DUP8 SSTORE SWAP5 DUP5 PUSH2 0x588 JUMPI JUMPDEST POP PUSH2 0x4DB PUSH1 0xFF DUP8 SLOAD PUSH1 0x8 SHR AND PUSH2 0x4D6 DUP2 PUSH2 0x1E3E JUMP JUMPDEST PUSH2 0x1E3E JUMP JUMPDEST PUSH2 0x4E4 CALLER PUSH2 0x1DF5 JUMP JUMPDEST PUSH2 0x526 DUP7 SLOAD SWAP6 PUSH1 0xFF DUP8 PUSH1 0x8 SHR AND SWAP1 PUSH2 0x4FB DUP3 PUSH2 0x1E3E JUMP JUMPDEST PUSH2 0x504 DUP3 PUSH2 0x1E3E JUMP JUMPDEST PUSH1 0x1 DUP1 SSTORE PUSH2 0x511 DUP3 PUSH2 0x1E3E JUMP JUMPDEST PUSH2 0x51A DUP3 PUSH2 0x1E3E JUMP JUMPDEST PUSH1 0x65 SLOAD AND PUSH1 0x65 SSTORE PUSH2 0x1E3E JUMP JUMPDEST PUSH1 0x1 PUSH1 0x1 PUSH1 0x60 SHL SUB PUSH1 0xA0 SHL SWAP2 DUP2 PUSH2 0x130 SWAP2 AND DUP4 DUP3 SLOAD AND OR SWAP1 SSTORE PUSH2 0x131 SWAP3 AND SWAP1 DUP3 SLOAD AND OR SWAP1 SSTORE PUSH2 0x553 JUMPI POP DUP1 RETURN JUMPDEST PUSH2 0xFF00 NOT AND DUP2 SSTORE PUSH32 0x7F26B83FF96E1F2B6A682F133852F6798A09C465DA95921460CEFB3847402498 PUSH1 0x20 PUSH1 0x40 MLOAD PUSH1 0x1 DUP2 MSTORE LOG1 DUP1 RETURN JUMPDEST PUSH2 0xFFFF NOT AND PUSH2 0x101 OR DUP7 SSTORE CODESIZE PUSH2 0x4C1 JUMP JUMPDEST PUSH1 0x40 MLOAD PUSH3 0x461BCD PUSH1 0xE5 SHL DUP2 MSTORE PUSH1 0x20 PUSH1 0x4 DUP3 ADD MSTORE PUSH1 0x2E PUSH1 0x24 DUP3 ADD MSTORE PUSH32 0x496E697469616C697A61626C653A20636F6E747261637420697320616C726561 PUSH1 0x44 DUP3 ADD MSTORE PUSH14 0x191E481A5B9A5D1A585B1A5E9959 PUSH1 0x92 SHL PUSH1 0x64 DUP3 ADD MSTORE PUSH1 0x84 SWAP1 REVERT JUMPDEST POP ADDRESS EXTCODESIZE ISZERO DUP1 ISZERO PUSH2 0x4AA JUMPI POP PUSH1 0x1 PUSH1 0xFF DUP7 AND EQ PUSH2 0x4AA JUMP JUMPDEST POP PUSH1 0x1 PUSH1 0xFF DUP7 AND LT PUSH2 0x4A3 JUMP JUMPDEST PUSH1 0x0 DUP1 REVERT JUMPDEST POP CALLVALUE PUSH2 0x2FD JUMPI PUSH1 0x40 CALLDATASIZE PUSH1 0x3 NOT ADD SLT PUSH2 0x2FD JUMPI PUSH1 0x4 CALLDATALOAD PUSH2 0x63B PUSH2 0x1B2B JUMP JUMPDEST DUP2 DUP4 MSTORE PUSH2 0x12E PUSH1 0x20 MSTORE PUSH1 0x40 DUP4 KECCAK256 DUP1 SLOAD PUSH1 0x1 PUSH1 0x1 PUSH1 0xA0 SHL SUB SWAP1 DUP2 AND SWAP2 DUP3 ISZERO PUSH2 0x2EB JUMPI PUSH1 0x5 ADD SWAP3 DUP4 SLOAD SWAP3 PUSH1 0xFF DUP5 PUSH1 0x80 SHR AND PUSH2 0x74F JUMPI CALLER EQ ISZERO SWAP2 DUP3 PUSH2 0x6C6 JUMPI JUMPDEST POP POP PUSH2 0x6B4 JUMPI PUSH1 0xFF PUSH1 0x80 SHL NOT AND PUSH1 0x1 PUSH1 0x80 SHL OR SWAP1 SSTORE PUSH32 0x75603CFAD1B4B830BA27B5F2A2867FC0ECDE28D51B13B72816B1707B7CD4E949 DUP3 DUP1 LOG2 DUP1 RETURN JUMPDEST PUSH1 0x40 MLOAD PUSH4 0x2D2A14A7 PUSH1 0xE2 SHL DUP2 MSTORE PUSH1 0x4 SWAP1 REVERT JUMPDEST DUP2 EXTCODESIZE ISZERO SWAP3 POP SWAP1 DUP3 ISZERO PUSH2 0x6DC JUMPI JUMPDEST POP POP CODESIZE DUP1 PUSH2 0x678 JUMP JUMPDEST PUSH1 0x40 MLOAD PUSH4 0x8DA5CB5B PUSH1 0xE0 SHL DUP2 MSTORE SWAP3 POP PUSH1 0x20 SWAP1 DUP4 SWAP1 PUSH1 0x4 SWAP1 DUP3 SWAP1 DUP6 AND GAS STATICCALL SWAP2 DUP3 ISZERO PUSH2 0x744 JUMPI DUP7 SWAP3 PUSH2 0x713 JUMPI JUMPDEST POP AND CALLER EQ ISZERO CODESIZE DUP1 PUSH2 0x6D3 JUMP JUMPDEST PUSH2 0x736 SWAP2 SWAP3 POP PUSH1 0x20 RETURNDATASIZE PUSH1 0x20 GT PUSH2 0x73D JUMPI JUMPDEST PUSH2 0x72E DUP2 DUP4 PUSH2 0x1BA0 JUMP JUMPDEST DUP2 ADD SWAP1 PUSH2 0x1C55 JUMP JUMPDEST SWAP1 CODESIZE PUSH2 0x707 JUMP JUMPDEST POP RETURNDATASIZE PUSH2 0x724 JUMP JUMPDEST PUSH1 0x40 MLOAD RETURNDATASIZE DUP9 DUP3 RETURNDATACOPY RETURNDATASIZE SWAP1 REVERT JUMPDEST PUSH1 0x40 MLOAD PUSH4 0xB3E2FBF PUSH1 0xE0 SHL DUP2 MSTORE PUSH1 0x4 SWAP1 REVERT JUMPDEST POP CALLVALUE PUSH2 0x2FD JUMPI PUSH1 0x20 CALLDATASIZE PUSH1 0x3 NOT ADD SLT PUSH2 0x2FD JUMPI PUSH1 0x40 PUSH2 0x100 SWAP2 PUSH1 0x4 CALLDATALOAD DUP2 MSTORE PUSH2 0x12E PUSH1 0x20 MSTORE KECCAK256 PUSH1 0xFF PUSH1 0x1 DUP1 PUSH1 0xA0 SHL SUB DUP3 SLOAD AND SWAP2 PUSH1 0x1 DUP2 ADD SLOAD PUSH1 0x2 DUP3 ADD SLOAD SWAP2 PUSH1 0x3 DUP2 ADD SLOAD PUSH1 0x5 PUSH1 0x4 DUP4 ADD SLOAD SWAP3 ADD SLOAD SWAP4 PUSH1 0x1 PUSH1 0x1 PUSH1 0x40 SHL SUB SWAP4 PUSH1 0x40 MLOAD SWAP8 DUP9 MSTORE PUSH1 0x20 DUP9 ADD MSTORE PUSH1 0x40 DUP8 ADD MSTORE PUSH1 0x60 DUP7 ADD MSTORE PUSH1 0x80 DUP6 ADD MSTORE DUP1 DUP3 AND PUSH1 0xA0 DUP6 ADD MSTORE DUP2 PUSH1 0x40 SHR AND PUSH1 0xC0 DUP5 ADD MSTORE PUSH1 0x80 SHR AND ISZERO ISZERO PUSH1 0xE0 DUP3 ADD MSTORE RETURN JUMPDEST POP CALLVALUE PUSH2 0x2FD JUMPI DUP1 PUSH1 0x3 NOT CALLDATASIZE ADD SLT PUSH2 0x2FD JUMPI PUSH1 0xFB SLOAD PUSH1 0x40 MLOAD PUSH1 0x1 PUSH1 0x1 PUSH1 0xA0 SHL SUB SWAP1 SWAP2 AND DUP2 MSTORE PUSH1 0x20 SWAP1 RETURN JUMPDEST POP CALLVALUE PUSH2 0x2FD JUMPI DUP1 PUSH1 0x3 NOT CALLDATASIZE ADD SLT PUSH2 0x2FD JUMPI PUSH2 0x831 PUSH2 0x1D9D JUMP JUMPDEST PUSH2 0x839 PUSH2 0x1D59 JUMP JUMPDEST PUSH1 0x1 PUSH1 0xFF NOT PUSH1 0x65 SLOAD AND OR PUSH1 0x65 SSTORE PUSH32 0x62E78CEA01BEE320CD4E420270B5EA74000D11B0C9F74754EBDBFC544B05A258 PUSH1 0x20 PUSH1 0x40 MLOAD CALLER DUP2 MSTORE LOG1 DUP1 RETURN JUMPDEST POP CALLVALUE PUSH2 0x2FD JUMPI PUSH1 0x20 CALLDATASIZE PUSH1 0x3 NOT ADD SLT PUSH2 0x2FD JUMPI PUSH1 0x40 PUSH1 0xA0 SWAP2 PUSH1 0x4 CALLDATALOAD DUP2 MSTORE PUSH2 0x12D PUSH1 0x20 MSTORE KECCAK256 PUSH1 0xFF PUSH1 0x1 DUP1 DUP5 SHL SUB DUP3 SLOAD AND SWAP2 PUSH1 0x1 DUP2 ADD SLOAD SWAP1 PUSH1 0x3 PUSH1 0x2 DUP3 ADD SLOAD SWAP2 ADD SLOAD SWAP2 PUSH1 0x40 MLOAD SWAP5 DUP6 MSTORE PUSH1 0x20 DUP6 ADD MSTORE PUSH1 0x40 DUP5 ADD MSTORE PUSH1 0x1 PUSH1 0x1 PUSH1 0x40 SHL SUB DUP2 AND PUSH1 0x60 DUP5 ADD MSTORE PUSH1 0x40 SHR AND ISZERO ISZERO PUSH1 0x80 DUP3 ADD MSTORE RETURN JUMPDEST POP CALLVALUE PUSH2 0x2FD JUMPI DUP1 PUSH1 0x3 NOT CALLDATASIZE ADD SLT PUSH2 0x2FD JUMPI PUSH2 0x131 SLOAD PUSH1 0x40 MLOAD PUSH1 0x1 PUSH1 0x1 PUSH1 0xA0 SHL SUB SWAP1 SWAP2 AND DUP2 MSTORE PUSH1 0x20 SWAP1 RETURN JUMPDEST POP CALLVALUE PUSH2 0x2FD JUMPI DUP1 PUSH1 0x3 NOT CALLDATASIZE ADD SLT PUSH2 0x2FD JUMPI PUSH2 0x922 PUSH2 0x1D9D JUMP JUMPDEST PUSH1 0xFB DUP1 SLOAD PUSH1 0x1 PUSH1 0x1 PUSH1 0xA0 SHL SUB NOT DUP2 AND SWAP1 SWAP2 SSTORE PUSH1 0x0 SWAP1 PUSH1 0x1 PUSH1 0x1 PUSH1 0xA0 SHL SUB AND PUSH32 0x8BE0079C531659141344CD1FD0A4F28419497F9722A3DAAFE3B4186F6B6457E0 DUP3 DUP1 LOG3 DUP1 RETURN JUMPDEST POP CALLVALUE PUSH2 0x2FD JUMPI DUP1 PUSH1 0x3 NOT CALLDATASIZE ADD SLT PUSH2 0x2FD JUMPI PUSH1 0x20 PUSH1 0xFF PUSH1 0x65 SLOAD AND PUSH1 0x40 MLOAD SWAP1 ISZERO ISZERO DUP2 MSTORE RETURN JUMPDEST POP CALLVALUE PUSH2 0x2FD JUMPI DUP1 PUSH1 0x3 NOT CALLDATASIZE ADD SLT PUSH2 0x2FD JUMPI PUSH32 0x0 PUSH1 0x1 PUSH1 0x1 PUSH1 0xA0 SHL SUB AND ADDRESS SUB PUSH2 0x9E3 JUMPI PUSH1 0x20 PUSH1 0x40 MLOAD PUSH1 0x0 DUP1 MLOAD PUSH1 0x20 PUSH2 0x21E4 DUP4 CODECOPY DUP2 MLOAD SWAP2 MSTORE DUP2 MSTORE RETURN JUMPDEST PUSH1 0x40 MLOAD PUSH3 0x461BCD PUSH1 0xE5 SHL DUP2 MSTORE PUSH1 0x20 PUSH1 0x4 DUP3 ADD MSTORE PUSH1 0x38 PUSH1 0x24 DUP3 ADD MSTORE PUSH32 0x555550535570677261646561626C653A206D757374206E6F742062652063616C PUSH1 0x44 DUP3 ADD MSTORE PUSH32 0x6C6564207468726F7567682064656C656761746563616C6C0000000000000000 PUSH1 0x64 DUP3 ADD MSTORE PUSH1 0x84 SWAP1 REVERT JUMPDEST POP PUSH1 0x40 CALLDATASIZE PUSH1 0x3 NOT ADD SLT PUSH2 0x2FD JUMPI PUSH2 0xA63 PUSH2 0x1B41 JUMP JUMPDEST PUSH1 0x24 CALLDATALOAD PUSH1 0x1 PUSH1 0x1 PUSH1 0x40 SHL SUB DUP2 GT PUSH2 0xD1D JUMPI CALLDATASIZE PUSH1 0x23 DUP3 ADD SLT ISZERO PUSH2 0xD1D JUMPI PUSH2 0xA93 SWAP1 CALLDATASIZE SWAP1 PUSH1 0x24 DUP2 PUSH1 0x4 ADD CALLDATALOAD SWAP2 ADD PUSH2 0x1BDC JUMP JUMPDEST PUSH1 0x1 PUSH1 0x1 PUSH1 0xA0 SHL SUB PUSH32 0x0 DUP2 AND SWAP3 SWAP2 SWAP1 PUSH2 0xACD ADDRESS DUP6 EQ ISZERO PUSH2 0x1C74 JUMP JUMPDEST PUSH2 0xAEA PUSH1 0x0 DUP1 MLOAD PUSH1 0x20 PUSH2 0x21E4 DUP4 CODECOPY DUP2 MLOAD SWAP2 MSTORE SWAP5 DUP3 DUP7 SLOAD AND EQ PUSH2 0x1CD5 JUMP JUMPDEST PUSH2 0xAF2 PUSH2 0x1D9D JUMP JUMPDEST PUSH32 0x4910FDFA16FED3260ED0E7147F7CC6DA11A60208B5B9406D12A635614FFD9143 SLOAD PUSH1 0xFF AND ISZERO PUSH2 0xB28 JUMPI POP POP PUSH2 0x33A SWAP2 POP PUSH2 0x1FF0 JUMP JUMPDEST DUP3 AND PUSH1 0x40 MLOAD SWAP4 PUSH4 0x52D1902D PUSH1 0xE0 SHL DUP6 MSTORE PUSH1 0x20 SWAP5 DUP6 DUP2 PUSH1 0x4 DUP2 DUP7 GAS STATICCALL PUSH1 0x0 SWAP2 DUP2 PUSH2 0xCEE JUMPI JUMPDEST POP PUSH2 0xBAD JUMPI PUSH1 0x40 MLOAD PUSH3 0x461BCD PUSH1 0xE5 SHL DUP2 MSTORE PUSH1 0x4 DUP2 ADD DUP8 SWAP1 MSTORE PUSH1 0x2E PUSH1 0x24 DUP3 ADD MSTORE PUSH32 0x45524331393637557067726164653A206E657720696D706C656D656E74617469 PUSH1 0x44 DUP3 ADD MSTORE PUSH14 0x6F6E206973206E6F742055555053 PUSH1 0x90 SHL PUSH1 0x64 DUP3 ADD MSTORE PUSH1 0x84 SWAP1 REVERT JUMPDEST SWAP5 SWAP3 SWAP4 SWAP5 SUB PUSH2 0xC97 JUMPI PUSH2 0xBBF DUP5 PUSH2 0x1FF0 JUMP JUMPDEST PUSH32 0xBC7CD75A20EE27FD9ADEBAB32041F755214DBC6BFFA90CC0225B39DA2E5C2D3B PUSH1 0x0 DUP1 LOG2 DUP2 MLOAD ISZERO DUP1 ISZERO SWAP1 PUSH2 0xC8F JUMPI JUMPDEST PUSH2 0xBFA JUMPI JUMPDEST POP POP POP DUP1 RETURN JUMPDEST PUSH2 0xC7D SWAP3 PUSH1 0x0 DUP1 PUSH1 0x40 MLOAD SWAP5 PUSH2 0xC0E DUP7 PUSH2 0x1B85 JUMP JUMPDEST PUSH1 0x27 DUP7 MSTORE PUSH32 0x416464726573733A206C6F772D6C6576656C2064656C65676174652063616C6C DUP6 DUP8 ADD MSTORE PUSH7 0x819985A5B1959 PUSH1 0xCA SHL PUSH1 0x40 DUP8 ADD MSTORE DUP5 DUP2 MLOAD SWAP2 ADD DUP5 GAS DELEGATECALL SWAP1 RETURNDATASIZE ISZERO PUSH2 0xC86 JUMPI RETURNDATASIZE PUSH2 0xC60 DUP2 PUSH2 0x1BC1 JUMP JUMPDEST SWAP1 PUSH2 0xC6E PUSH1 0x40 MLOAD SWAP3 DUP4 PUSH2 0x1BA0 JUMP JUMPDEST DUP2 MSTORE PUSH1 0x0 DUP2 SWAP5 RETURNDATASIZE SWAP3 ADD RETURNDATACOPY PUSH2 0x210F JUMP JUMPDEST POP CODESIZE DUP1 DUP1 PUSH2 0xBF4 JUMP JUMPDEST PUSH1 0x60 SWAP3 POP PUSH2 0x210F JUMP JUMPDEST POP PUSH1 0x1 PUSH2 0xBEF JUMP JUMPDEST PUSH1 0x40 MLOAD PUSH3 0x461BCD PUSH1 0xE5 SHL DUP2 MSTORE PUSH1 0x4 DUP2 ADD DUP4 SWAP1 MSTORE PUSH1 0x29 PUSH1 0x24 DUP3 ADD MSTORE PUSH32 0x45524331393637557067726164653A20756E737570706F727465642070726F78 PUSH1 0x44 DUP3 ADD MSTORE PUSH9 0x1A58589B1955555251 PUSH1 0xBA SHL PUSH1 0x64 DUP3 ADD MSTORE PUSH1 0x84 SWAP1 REVERT JUMPDEST SWAP1 SWAP2 POP DUP7 DUP2 DUP2 RETURNDATASIZE DUP4 GT PUSH2 0xD16 JUMPI JUMPDEST PUSH2 0xD06 DUP2 DUP4 PUSH2 0x1BA0 JUMP JUMPDEST DUP2 ADD SUB SLT PUSH2 0x619 JUMPI MLOAD SWAP1 CODESIZE PUSH2 0xB4C JUMP JUMPDEST POP RETURNDATASIZE PUSH2 0xCFC JUMP JUMPDEST DUP3 DUP1 REVERT JUMPDEST POP CALLVALUE PUSH2 0x2FD JUMPI DUP1 PUSH1 0x3 NOT CALLDATASIZE ADD SLT PUSH2 0x2FD JUMPI PUSH2 0xD3A PUSH2 0x1D9D JUMP JUMPDEST PUSH1 0x65 SLOAD PUSH1 0xFF DUP2 AND ISZERO PUSH2 0xD7A JUMPI PUSH1 0xFF NOT AND PUSH1 0x65 SSTORE PUSH32 0x5DB9EE0A495BF2E6FF9C91A7834C1BA4FDD244A5E8AA4E537BD38AEAE4B073AA PUSH1 0x20 PUSH1 0x40 MLOAD CALLER DUP2 MSTORE LOG1 DUP1 RETURN JUMPDEST PUSH1 0x40 MLOAD PUSH3 0x461BCD PUSH1 0xE5 SHL DUP2 MSTORE PUSH1 0x20 PUSH1 0x4 DUP3 ADD MSTORE PUSH1 0x14 PUSH1 0x24 DUP3 ADD MSTORE PUSH20 0x14185D5CD8589B194E881B9BDD081C185D5CD959 PUSH1 0x62 SHL PUSH1 0x44 DUP3 ADD MSTORE PUSH1 0x64 SWAP1 REVERT JUMPDEST POP CALLVALUE PUSH2 0x2FD JUMPI PUSH1 0x20 DUP1 PUSH1 0x3 NOT CALLDATASIZE ADD SLT PUSH2 0x106C JUMPI PUSH2 0xDD1 PUSH2 0x1B41 JUMP JUMPDEST PUSH1 0x1 PUSH1 0x1 PUSH1 0xA0 SHL SUB PUSH32 0x0 DUP2 AND PUSH2 0xE08 ADDRESS DUP3 EQ ISZERO PUSH2 0x1C74 JUMP JUMPDEST PUSH2 0xE25 PUSH1 0x0 DUP1 MLOAD PUSH1 0x20 PUSH2 0x21E4 DUP4 CODECOPY DUP2 MLOAD SWAP2 MSTORE SWAP2 DUP4 DUP4 SLOAD AND EQ PUSH2 0x1CD5 JUMP JUMPDEST PUSH2 0xE2D PUSH2 0x1D9D JUMP JUMPDEST PUSH1 0x40 MLOAD SWAP1 DUP5 DUP3 ADD SWAP3 DUP3 DUP5 LT PUSH1 0x1 PUSH1 0x1 PUSH1 0x40 SHL SUB DUP6 GT OR PUSH2 0x1056 JUMPI DUP4 PUSH1 0x40 MSTORE DUP7 DUP4 MSTORE PUSH1 0xFF PUSH32 0x4910FDFA16FED3260ED0E7147F7CC6DA11A60208B5B9406D12A635614FFD9143 SLOAD AND PUSH1 0x0 EQ PUSH2 0xE88 JUMPI POP POP POP POP PUSH2 0x33A SWAP2 POP PUSH2 0x1FF0 JUMP JUMPDEST DUP5 SWAP3 SWAP4 SWAP5 AND SWAP1 PUSH1 0x40 MLOAD PUSH4 0x52D1902D PUSH1 0xE0 SHL DUP2 MSTORE DUP7 DUP2 PUSH1 0x4 DUP2 DUP7 GAS STATICCALL PUSH1 0x0 SWAP2 DUP2 PUSH2 0x1027 JUMPI JUMPDEST POP PUSH2 0xF0D JUMPI PUSH1 0x40 MLOAD PUSH3 0x461BCD PUSH1 0xE5 SHL DUP2 MSTORE PUSH1 0x4 DUP2 ADD DUP9 SWAP1 MSTORE PUSH1 0x2E PUSH1 0x24 DUP3 ADD MSTORE PUSH32 0x45524331393637557067726164653A206E657720696D706C656D656E74617469 PUSH1 0x44 DUP3 ADD MSTORE PUSH14 0x6F6E206973206E6F742055555053 PUSH1 0x90 SHL PUSH1 0x64 DUP3 ADD MSTORE PUSH1 0x84 SWAP1 REVERT JUMPDEST SWAP6 SWAP4 SWAP5 SWAP6 SUB PUSH2 0xFD0 JUMPI PUSH2 0xF1F DUP3 PUSH2 0x1FF0 JUMP JUMPDEST PUSH32 0xBC7CD75A20EE27FD9ADEBAB32041F755214DBC6BFFA90CC0225B39DA2E5C2D3B PUSH1 0x0 DUP1 LOG2 DUP3 MLOAD ISZERO DUP1 ISZERO SWAP1 PUSH2 0xFC8 JUMPI JUMPDEST PUSH2 0xF5B JUMPI JUMPDEST POP POP POP POP DUP1 RETURN JUMPDEST PUSH1 0x0 DUP1 PUSH2 0xFBE SWAP6 PUSH1 0x40 MLOAD SWAP6 PUSH2 0xF6F DUP8 PUSH2 0x1B85 JUMP JUMPDEST PUSH1 0x27 DUP8 MSTORE PUSH32 0x416464726573733A206C6F772D6C6576656C2064656C65676174652063616C6C DUP7 DUP9 ADD MSTORE PUSH7 0x819985A5B1959 PUSH1 0xCA SHL PUSH1 0x40 DUP9 ADD MSTORE MLOAD SWAP1 DUP5 GAS DELEGATECALL SWAP1 RETURNDATASIZE ISZERO PUSH2 0xC86 JUMPI RETURNDATASIZE PUSH2 0xC60 DUP2 PUSH2 0x1BC1 JUMP JUMPDEST POP CODESIZE DUP1 DUP1 DUP1 PUSH2 0xF54 JUMP JUMPDEST POP PUSH1 0x0 PUSH2 0xF4F JUMP JUMPDEST PUSH1 0x40 MLOAD PUSH3 0x461BCD PUSH1 0xE5 SHL DUP2 MSTORE PUSH1 0x4 DUP2 ADD DUP5 SWAP1 MSTORE PUSH1 0x29 PUSH1 0x24 DUP3 ADD MSTORE PUSH32 0x45524331393637557067726164653A20756E737570706F727465642070726F78 PUSH1 0x44 DUP3 ADD MSTORE PUSH9 0x1A58589B1955555251 PUSH1 0xBA SHL PUSH1 0x64 DUP3 ADD MSTORE PUSH1 0x84 SWAP1 REVERT JUMPDEST SWAP1 SWAP2 POP DUP8 DUP2 DUP2 RETURNDATASIZE DUP4 GT PUSH2 0x104F JUMPI JUMPDEST PUSH2 0x103F DUP2 DUP4 PUSH2 0x1BA0 JUMP JUMPDEST DUP2 ADD SUB SLT PUSH2 0x619 JUMPI MLOAD SWAP1 CODESIZE PUSH2 0xEAC JUMP JUMPDEST POP RETURNDATASIZE PUSH2 0x1035 JUMP JUMPDEST PUSH4 0x4E487B71 PUSH1 0xE0 SHL PUSH1 0x0 MSTORE PUSH1 0x41 PUSH1 0x4 MSTORE PUSH1 0x24 PUSH1 0x0 REVERT JUMPDEST POP DUP1 REVERT JUMPDEST POP CALLVALUE PUSH2 0x2FD JUMPI PUSH1 0x20 CALLDATASIZE PUSH1 0x3 NOT ADD SLT PUSH2 0x2FD JUMPI PUSH1 0x40 PUSH1 0xE0 SWAP2 PUSH1 0x4 CALLDATALOAD DUP2 MSTORE PUSH2 0x12E PUSH1 0x20 MSTORE KECCAK256 PUSH1 0xFF PUSH1 0x1 DUP1 PUSH1 0xA0 SHL SUB DUP3 SLOAD AND SWAP2 PUSH1 0x1 DUP2 ADD SLOAD SWAP1 PUSH1 0x2 DUP2 ADD SLOAD PUSH1 0x3 DUP3 ADD SLOAD SWAP1 PUSH1 0x5 PUSH1 0x4 DUP5 ADD SLOAD SWAP4 ADD SLOAD SWAP4 PUSH1 0x40 MLOAD SWAP7 DUP8 MSTORE PUSH1 0x20 DUP8 ADD MSTORE PUSH1 0x40 DUP7 ADD MSTORE PUSH1 0x60 DUP6 ADD MSTORE PUSH1 0x80 DUP5 ADD MSTORE PUSH1 0x1 PUSH1 0x1 PUSH1 0x40 SHL SUB DUP2 PUSH1 0x40 SHR AND PUSH1 0xA0 DUP5 ADD MSTORE PUSH1 0x80 SHR AND ISZERO ISZERO PUSH1 0xC0 DUP3 ADD MSTORE RETURN JUMPDEST POP CALLVALUE PUSH2 0x2FD JUMPI DUP1 PUSH1 0x3 NOT CALLDATASIZE ADD SLT PUSH2 0x2FD JUMPI PUSH2 0x130 SLOAD PUSH1 0x40 MLOAD PUSH1 0x1 PUSH1 0x1 PUSH1 0xA0 SHL SUB SWAP1 SWAP2 AND DUP2 MSTORE PUSH1 0x20 SWAP1 RETURN JUMPDEST POP CALLVALUE PUSH2 0x2FD JUMPI PUSH1 0x40 CALLDATASIZE PUSH1 0x3 NOT ADD SLT PUSH2 0x2FD JUMPI PUSH1 0x4 CALLDATALOAD PUSH2 0x113C PUSH2 0x1B2B JUMP JUMPDEST DUP2 DUP4 MSTORE PUSH2 0x12D PUSH1 0x20 MSTORE PUSH1 0x40 DUP4 KECCAK256 DUP1 SLOAD PUSH1 0x1 PUSH1 0x1 PUSH1 0xA0 SHL SUB SWAP1 DUP2 AND SWAP2 DUP3 ISZERO PUSH2 0x2EB JUMPI PUSH1 0x3 ADD SWAP3 DUP4 SLOAD SWAP3 PUSH1 0xFF DUP5 PUSH1 0x40 SHR AND PUSH2 0x74F JUMPI CALLER EQ ISZERO SWAP2 DUP3 PUSH2 0x11BA JUMPI JUMPDEST POP POP PUSH2 0x6B4 JUMPI PUSH9 0xFF0000000000000000 NOT AND PUSH1 0x1 PUSH1 0x40 SHL OR SWAP1 SSTORE PUSH32 0xCC0F7E7F309149DCE2DB74723F771F7D96CAD368D91763E945DC3956C4DBFB04 DUP3 DUP1 LOG2 DUP1 RETURN JUMPDEST DUP2 EXTCODESIZE ISZERO SWAP3 POP SWAP1 DUP3 ISZERO PUSH2 0x11D0 JUMPI JUMPDEST POP POP CODESIZE DUP1 PUSH2 0x1179 JUMP JUMPDEST PUSH1 0x40 MLOAD PUSH4 0x8DA5CB5B PUSH1 0xE0 SHL DUP2 MSTORE SWAP3 POP PUSH1 0x20 SWAP1 DUP4 SWAP1 PUSH1 0x4 SWAP1 DUP3 SWAP1 DUP6 AND GAS STATICCALL SWAP2 DUP3 ISZERO PUSH2 0x744 JUMPI DUP7 SWAP3 PUSH2 0x1207 JUMPI JUMPDEST POP AND CALLER EQ ISZERO CODESIZE DUP1 PUSH2 0x11C7 JUMP JUMPDEST PUSH2 0x1221 SWAP2 SWAP3 POP PUSH1 0x20 RETURNDATASIZE PUSH1 0x20 GT PUSH2 0x73D JUMPI PUSH2 0x72E DUP2 DUP4 PUSH2 0x1BA0 JUMP JUMPDEST SWAP1 CODESIZE PUSH2 0x11FB JUMP JUMPDEST POP CALLVALUE PUSH2 0x2FD JUMPI PUSH1 0x40 CALLDATASIZE PUSH1 0x3 NOT ADD SLT PUSH2 0x2FD JUMPI PUSH2 0x1242 PUSH2 0x1B41 JUMP JUMPDEST PUSH1 0x1 PUSH1 0x1 PUSH1 0xA0 SHL SUB AND DUP2 MSTORE PUSH2 0x12F PUSH1 0x20 MSTORE PUSH1 0x40 DUP2 KECCAK256 DUP1 SLOAD PUSH1 0x24 CALLDATALOAD SWAP3 SWAP1 DUP4 LT ISZERO PUSH2 0x2FD JUMPI PUSH1 0x20 PUSH2 0x1271 DUP5 DUP5 PUSH2 0x1B57 JUMP JUMPDEST SWAP1 SLOAD PUSH1 0x40 MLOAD SWAP2 PUSH1 0x3 SHL SHR DUP2 MSTORE RETURN JUMPDEST POP CALLVALUE PUSH2 0x2FD JUMPI PUSH1 0x20 DUP1 PUSH1 0x3 NOT CALLDATASIZE ADD SLT PUSH2 0x106C JUMPI PUSH1 0x1 PUSH1 0x1 PUSH1 0xA0 SHL SUB PUSH2 0x12A2 PUSH2 0x1B41 JUMP JUMPDEST AND DUP3 MSTORE PUSH2 0x12F DUP2 MSTORE PUSH1 0x40 DUP3 KECCAK256 PUSH1 0x40 MLOAD SWAP3 DUP4 DUP4 DUP4 SLOAD SWAP2 DUP3 DUP2 MSTORE ADD SWAP1 DUP2 SWAP4 DUP4 MSTORE DUP5 DUP4 KECCAK256 SWAP1 DUP4 JUMPDEST DUP2 DUP2 LT PUSH2 0x131A JUMPI POP POP POP DUP5 PUSH2 0x12DC SWAP2 SUB DUP6 PUSH2 0x1BA0 JUMP JUMPDEST PUSH1 0x40 MLOAD SWAP4 DUP4 DUP6 SWAP5 DUP6 ADD SWAP2 DUP2 DUP7 MSTORE MLOAD DUP1 SWAP3 MSTORE PUSH1 0x40 DUP6 ADD SWAP4 SWAP3 JUMPDEST DUP3 DUP2 LT PUSH2 0x1303 JUMPI POP POP POP POP SUB SWAP1 RETURN JUMPDEST DUP4 MLOAD DUP6 MSTORE DUP7 SWAP6 POP SWAP4 DUP2 ADD SWAP4 SWAP3 DUP2 ADD SWAP3 PUSH1 0x1 ADD PUSH2 0x12F4 JUMP JUMPDEST DUP3 SLOAD DUP5 MSTORE SWAP3 DUP7 ADD SWAP3 PUSH1 0x1 SWAP3 DUP4 ADD SWAP3 ADD PUSH2 0x12C6 JUMP JUMPDEST POP CALLVALUE PUSH2 0x2FD JUMPI PUSH1 0xC0 CALLDATASIZE PUSH1 0x3 NOT ADD SLT PUSH2 0x2FD JUMPI PUSH1 0x4 CALLDATALOAD PUSH2 0x134B PUSH2 0x1B2B JUMP JUMPDEST SWAP1 PUSH1 0x44 CALLDATALOAD PUSH1 0x64 CALLDATALOAD PUSH1 0x84 CALLDATALOAD SWAP1 PUSH1 0x1 PUSH1 0x1 PUSH1 0x40 SHL SUB SWAP5 DUP6 DUP4 AND DUP1 SWAP4 SUB PUSH2 0x619 JUMPI PUSH1 0xA4 CALLDATALOAD SWAP1 DUP7 DUP3 GT PUSH2 0x167D JUMPI CALLDATASIZE PUSH1 0x23 DUP4 ADD SLT ISZERO PUSH2 0x167D JUMPI DUP2 PUSH1 0x4 ADD CALLDATALOAD SWAP7 DUP1 DUP9 GT PUSH2 0x1679 JUMPI CALLDATASIZE PUSH1 0x24 DUP10 DUP6 ADD ADD GT PUSH2 0x1679 JUMPI PUSH2 0x13A0 PUSH2 0x1D59 JUMP JUMPDEST PUSH1 0x1 PUSH1 0x1 PUSH1 0xA0 SHL SUB SWAP2 DUP3 AND SWAP8 DUP9 ISZERO PUSH2 0x1667 JUMPI TIMESTAMP DUP7 GT ISZERO PUSH2 0x1656 JUMPI DUP8 DUP11 MSTORE PUSH1 0x20 SWAP4 PUSH2 0x12E DUP6 MSTORE DUP4 PUSH1 0x40 DUP13 KECCAK256 SLOAD AND PUSH2 0x1644 JUMPI PUSH1 0x40 MLOAD SWAP2 DUP6 DUP4 ADD DUP11 DUP2 MSTORE DUP12 PUSH1 0x40 DUP6 ADD MSTORE DUP10 PUSH1 0x60 DUP6 ADD MSTORE DUP8 PUSH1 0x80 DUP6 ADD MSTORE DUP9 PUSH1 0xA0 DUP6 ADD MSTORE PUSH1 0xA0 DUP5 MSTORE PUSH1 0xC0 DUP5 ADD SWAP3 DUP5 DUP5 LT DUP7 DUP6 GT OR PUSH2 0x1056 JUMPI PUSH2 0x146F SWAP5 DUP5 PUSH2 0x1461 SWAP4 PUSH2 0x1467 SWAP7 PUSH1 0x40 MSTORE DUP3 MLOAD SWAP1 KECCAK256 PUSH1 0xFC PUSH1 0xE0 DUP5 ADD SWAP4 PUSH32 0x19457468657265756D205369676E6564204D6573736167653A0A333200000000 DUP6 MSTORE ADD MSTORE PUSH1 0x3C DUP2 MSTORE PUSH2 0x1453 DUP2 PUSH2 0x1B85 JUMP JUMPDEST MLOAD SWAP1 KECCAK256 SWAP3 PUSH1 0x24 CALLDATASIZE SWAP3 ADD PUSH2 0x1BDC JUMP JUMPDEST SWAP1 PUSH2 0x1E9E JUMP JUMPDEST SWAP2 SWAP1 SWAP2 PUSH2 0x1ED6 JUMP JUMPDEST PUSH1 0x40 MLOAD PUSH4 0x8DA5CB5B PUSH1 0xE0 SHL DUP2 MSTORE DUP5 DUP2 PUSH1 0x4 DUP2 CALLER GAS STATICCALL SWAP2 DUP3 ISZERO PUSH2 0x1639 JUMPI DUP5 SWAP2 DUP13 SWAP4 PUSH2 0x1618 JUMPI JUMPDEST POP DUP2 AND SWAP2 AND SUB PUSH2 0x1606 JUMPI PUSH1 0x40 MLOAD SWAP1 PUSH2 0x100 DUP3 ADD SWAP1 DUP3 DUP3 LT DUP2 DUP4 GT OR PUSH2 0x1056 JUMPI PUSH1 0x5 DUP8 SWAP4 DUP7 DUP12 SWAP7 DUP15 SWAP6 PUSH1 0x40 MSTORE DUP14 DUP4 MSTORE DUP2 DUP4 ADD DUP13 DUP2 MSTORE PUSH1 0x40 DUP5 ADD SWAP1 DUP12 DUP3 MSTORE PUSH1 0x60 DUP6 ADD SWAP3 DUP9 DUP5 MSTORE PUSH1 0x40 DUP10 PUSH2 0x12E PUSH1 0x80 DUP10 ADD SWAP8 DUP3 DUP10 MSTORE PUSH1 0xA0 DUP11 ADD SWAP15 DUP16 DUP14 PUSH3 0x15180 TIMESTAMP DIV AND SWAP1 MSTORE PUSH1 0xC0 DUP12 ADD SWAP15 DUP16 MSTORE PUSH1 0xE0 DUP12 ADD SWAP14 DUP15 MSTORE DUP4 MSTORE MSTORE KECCAK256 SWAP6 MLOAD AND PUSH1 0x1 PUSH1 0x1 PUSH1 0x60 SHL SUB PUSH1 0xA0 SHL DUP7 SLOAD AND OR DUP6 SSTORE MLOAD PUSH1 0x1 DUP6 ADD SSTORE MLOAD PUSH1 0x2 DUP5 ADD SSTORE MLOAD PUSH1 0x3 DUP4 ADD SSTORE MLOAD PUSH1 0x4 DUP3 ADD SSTORE ADD SWAP4 MLOAD AND PUSH16 0xFFFFFFFFFFFFFFFF0000000000000000 DUP5 SLOAD SWAP4 MLOAD PUSH1 0x40 SHL AND SWAP2 PUSH1 0xFF PUSH1 0x80 SHL SWAP1 MLOAD ISZERO ISZERO PUSH1 0x80 SHL AND SWAP3 PUSH17 0xFFFFFFFFFFFFFFFFFFFFFFFFFFFFFFFFFF NOT AND OR OR OR SWAP1 SSTORE CALLER DUP8 MSTORE PUSH2 0x12F DUP2 MSTORE PUSH1 0x40 DUP8 KECCAK256 DUP1 SLOAD SWAP1 PUSH1 0x1 PUSH1 0x40 SHL DUP3 LT ISZERO PUSH2 0x15F2 JUMPI SWAP2 PUSH2 0x15CB DUP3 PUSH1 0x60 SWAP7 SWAP5 PUSH1 0x1 PUSH32 0x6444C67754985AAF64C147C6BC7EECBE2B7B83724E5F0ADB261589FE9707E392 SWAP10 SWAP8 SWAP6 ADD DUP2 SSTORE PUSH2 0x1B57 JUMP JUMPDEST DUP2 SLOAD SWAP1 PUSH1 0x3 SHL SWAP1 DUP10 DUP3 SHL SWAP2 PUSH1 0x0 NOT SWAP1 SHL NOT AND OR SWAP1 SSTORE PUSH1 0x40 MLOAD SWAP4 DUP5 MSTORE DUP4 ADD MSTORE PUSH1 0x40 DUP3 ADD MSTORE LOG3 DUP1 RETURN JUMPDEST PUSH4 0x4E487B71 PUSH1 0xE0 SHL DUP10 MSTORE PUSH1 0x41 PUSH1 0x4 MSTORE PUSH1 0x24 DUP10 REVERT JUMPDEST PUSH1 0x40 MLOAD PUSH4 0x3101CEBF PUSH1 0xE2 SHL DUP2 MSTORE PUSH1 0x4 SWAP1 REVERT JUMPDEST DUP3 SWAP2 SWAP4 POP PUSH2 0x1632 SWAP1 DUP8 RETURNDATASIZE DUP10 GT PUSH2 0x73D JUMPI PUSH2 0x72E DUP2 DUP4 PUSH2 0x1BA0 JUMP JUMPDEST SWAP3 SWAP1 PUSH2 0x1494 JUMP JUMPDEST PUSH1 0x40 MLOAD RETURNDATASIZE DUP14 DUP3 RETURNDATACOPY RETURNDATASIZE SWAP1 REVERT JUMPDEST PUSH1 0x40 MLOAD PUSH4 0x23792A11 PUSH1 0xE1 SHL DUP2 MSTORE PUSH1 0x4 SWAP1 REVERT JUMPDEST PUSH1 0x40 MLOAD PUSH3 0xD36C85 PUSH1 0xE8 SHL DUP2 MSTORE PUSH1 0x4 SWAP1 REVERT JUMPDEST PUSH1 0x40 MLOAD PUSH4 0x5F8874DD PUSH1 0xE1 SHL DUP2 MSTORE PUSH1 0x4 SWAP1 REVERT JUMPDEST DUP9 DUP1 REVERT JUMPDEST DUP8 DUP1 REVERT JUMPDEST SWAP1 POP CALLVALUE PUSH2 0x106C JUMPI PUSH2 0x240 CALLDATASIZE PUSH1 0x3 NOT ADD SLT PUSH2 0x106C JUMPI PUSH2 0x169D PUSH2 0x1B2B JUMP JUMPDEST PUSH1 0x44 CALLDATALOAD PUSH1 0x1 PUSH1 0x1 PUSH1 0x80 SHL SUB DUP2 AND DUP2 SUB PUSH2 0x1B27 JUMPI PUSH1 0x64 CALLDATALOAD SWAP3 PUSH1 0x1 PUSH1 0x1 PUSH1 0x40 SHL SUB DUP5 AND DUP5 SUB PUSH2 0x1B23 JUMPI CALLDATASIZE PUSH1 0xE4 GT PUSH2 0x1B23 JUMPI CALLDATASIZE PUSH2 0x164 GT PUSH2 0x1B23 JUMPI CALLDATASIZE PUSH2 0x1A4 GT PUSH2 0x1B23 JUMPI CALLDATASIZE PUSH2 0x244 GT PUSH2 0x1B23 JUMPI PUSH1 0x2 PUSH1 0x1 SLOAD EQ PUSH2 0x1AE1 JUMPI POP PUSH1 0x2 PUSH1 0x1 SSTORE PUSH2 0x16FF PUSH2 0x1D59 JUMP JUMPDEST PUSH1 0x1 PUSH1 0x1 PUSH1 0xA0 SHL SUB DUP3 AND ISZERO PUSH2 0x1667 JUMPI TIMESTAMP PUSH1 0x1 PUSH1 0x1 PUSH1 0x40 SHL SUB DUP5 AND GT ISZERO PUSH2 0x1656 JUMPI PUSH1 0x4 CALLDATALOAD DUP5 MSTORE PUSH2 0x12D PUSH1 0x20 MSTORE PUSH1 0x40 DUP5 KECCAK256 SLOAD PUSH1 0x1 PUSH1 0x1 PUSH1 0xA0 SHL SUB AND PUSH2 0x1644 JUMPI PUSH2 0x1A4 CALLDATALOAD PUSH1 0x84 CALLDATALOAD SUB PUSH2 0x1ACF JUMPI PUSH2 0x131 SLOAD PUSH1 0x40 MLOAD PUSH4 0xABB2EFDF PUSH1 0xE0 SHL DUP2 MSTORE PUSH1 0x1 PUSH1 0x1 PUSH1 0xA0 SHL SUB SWAP1 SWAP2 AND SWAP1 PUSH1 0x20 DUP2 PUSH1 0x4 DUP2 DUP6 GAS STATICCALL SWAP1 DUP2 ISZERO PUSH2 0x744 JUMPI DUP7 SWAP2 PUSH2 0x1A9D JUMPI JUMPDEST POP PUSH2 0x1C4 CALLDATALOAD SUB PUSH2 0x1A8B JUMPI PUSH1 0x40 MLOAD PUSH4 0x6B6DEBF7 PUSH1 0xE0 SHL DUP2 MSTORE PUSH1 0x20 DUP2 PUSH1 0x4 DUP2 DUP6 GAS STATICCALL SWAP1 DUP2 ISZERO PUSH2 0x744 JUMPI DUP7 SWAP2 PUSH2 0x1A55 JUMPI JUMPDEST POP PUSH2 0x1E4 CALLDATALOAD SUB PUSH2 0x1A43 JUMPI PUSH2 0x204 CALLDATALOAD PUSH1 0x1 PUSH1 0x1 PUSH1 0x80 SHL SUB DUP4 AND SUB PUSH2 0x1A31 JUMPI PUSH2 0x224 CALLDATALOAD PUSH1 0x1 PUSH1 0x1 PUSH1 0x40 SHL SUB DUP6 AND SUB PUSH2 0x1A1F JUMPI PUSH1 0x40 MLOAD PUSH4 0x8B71ED3 PUSH1 0xE2 SHL DUP2 MSTORE PUSH1 0x84 CALLDATALOAD PUSH1 0x4 DUP3 ADD MSTORE PUSH1 0x20 DUP2 PUSH1 0x24 DUP2 DUP6 GAS STATICCALL SWAP1 DUP2 ISZERO PUSH2 0x744 JUMPI DUP7 SWAP2 PUSH2 0x1A00 JUMPI JUMPDEST POP PUSH2 0x19EE JUMPI PUSH2 0x130 SLOAD PUSH1 0x40 DUP1 MLOAD PUSH4 0x34BAEAB9 PUSH1 0xE0 SHL DUP2 MSTORE SWAP2 PUSH1 0x1 PUSH1 0x1 PUSH1 0xA0 SHL SUB AND SWAP1 PUSH1 0xA4 PUSH1 0x4 DUP5 ADD CALLDATACOPY DUP2 PUSH1 0xE4 DUP9 PUSH1 0x44 DUP4 ADD JUMPDEST PUSH1 0x2 DUP3 LT PUSH2 0x19D4 JUMPI POP POP POP PUSH2 0x1A4 DUP2 PUSH1 0x20 SWAP4 PUSH1 0x40 PUSH2 0x164 PUSH1 0xC4 DUP5 ADD CALLDATACOPY PUSH1 0xA0 DUP4 PUSH2 0x104 DUP5 ADD CALLDATACOPY GAS STATICCALL SWAP1 DUP2 ISZERO PUSH2 0x744 JUMPI DUP7 SWAP2 PUSH2 0x19A5 JUMPI JUMPDEST POP ISZERO PUSH2 0x1993 JUMPI DUP1 DUP6 SWAP2 EXTCODESIZE ISZERO PUSH2 0x106C JUMPI DUP2 SWAP1 PUSH1 0x24 PUSH1 0x40 MLOAD DUP1 SWAP5 DUP2 SWAP4 PUSH4 0x57CB0F5 PUSH1 0xE0 SHL DUP4 MSTORE PUSH1 0x84 CALLDATALOAD PUSH1 0x4 DUP5 ADD MSTORE GAS CALL DUP1 ISZERO PUSH2 0x1988 JUMPI PUSH2 0x1952 JUMPI JUMPDEST POP PUSH1 0x1 PUSH1 0x1 PUSH1 0x80 SHL SUB SWAP1 PUSH1 0x4 CALLDATALOAD DUP6 MSTORE PUSH2 0x12D PUSH1 0x20 MSTORE PUSH1 0x3 PUSH1 0x40 DUP7 KECCAK256 PUSH1 0x1 DUP1 PUSH1 0xA0 SHL SUB DUP6 AND PUSH1 0x1 PUSH1 0x1 PUSH1 0x60 SHL SUB PUSH1 0xA0 SHL DUP3 SLOAD AND OR DUP2 SSTORE DUP4 DUP4 AND PUSH1 0x2 DUP3 ADD SSTORE DUP7 PUSH1 0x1 DUP3 ADD SSTORE ADD PUSH1 0x1 PUSH1 0x1 PUSH1 0x40 SHL SUB DUP6 AND PUSH9 0xFFFFFFFFFFFFFFFFFF NOT DUP3 SLOAD AND OR SWAP1 SSTORE PUSH1 0x1 PUSH1 0x1 PUSH1 0x40 SHL SUB PUSH1 0x40 MLOAD SWAP5 AND DUP5 MSTORE AND PUSH1 0x20 DUP4 ADD MSTORE PUSH1 0x1 DUP1 PUSH1 0xA0 SHL SUB AND SWAP1 PUSH32 0x94B1EF4E34E21E2BADB942118F7AE876506E3E69EAC566354D868AAAABB4004D PUSH1 0x40 PUSH1 0x4 CALLDATALOAD SWAP3 LOG3 PUSH1 0x1 DUP1 SSTORE DUP1 RETURN JUMPDEST PUSH1 0x1 PUSH1 0x1 PUSH1 0x40 SHL SUB DUP2 SWAP6 SWAP3 SWAP6 GT PUSH2 0x1974 JUMPI PUSH1 0x40 MSTORE SWAP3 PUSH1 0x1 PUSH1 0x1 PUSH1 0x80 SHL SUB PUSH2 0x18A6 JUMP JUMPDEST PUSH4 0x4E487B71 PUSH1 0xE0 SHL DUP3 MSTORE PUSH1 0x41 PUSH1 0x4 MSTORE PUSH1 0x24 DUP3 REVERT JUMPDEST PUSH1 0x40 MLOAD RETURNDATASIZE DUP8 DUP3 RETURNDATACOPY RETURNDATASIZE SWAP1 REVERT JUMPDEST PUSH1 0x40 MLOAD PUSH4 0x9BDE339 PUSH1 0xE0 SHL DUP2 MSTORE PUSH1 0x4 SWAP1 REVERT JUMPDEST PUSH2 0x19C7 SWAP2 POP PUSH1 0x20 RETURNDATASIZE PUSH1 0x20 GT PUSH2 0x19CD JUMPI JUMPDEST PUSH2 0x19BF DUP2 DUP4 PUSH2 0x1BA0 JUMP JUMPDEST DUP2 ADD SWAP1 PUSH2 0x1C3D JUMP JUMPDEST CODESIZE PUSH2 0x186D JUMP JUMPDEST POP RETURNDATASIZE PUSH2 0x19B5 JUMP JUMPDEST DUP3 SWAP4 POP PUSH1 0x40 DUP2 DUP2 PUSH1 0x1 SWAP5 SWAP6 DUP2 SWAP5 CALLDATACOPY ADD SWAP4 ADD SWAP2 ADD DUP5 SWAP3 PUSH2 0x1838 JUMP JUMPDEST PUSH1 0x40 MLOAD PUSH4 0x65695701 PUSH1 0xE1 SHL DUP2 MSTORE PUSH1 0x4 SWAP1 REVERT JUMPDEST PUSH2 0x1A19 SWAP2 POP PUSH1 0x20 RETURNDATASIZE PUSH1 0x20 GT PUSH2 0x19CD JUMPI PUSH2 0x19BF DUP2 DUP4 PUSH2 0x1BA0 JUMP JUMPDEST CODESIZE PUSH2 0x1806 JUMP JUMPDEST PUSH1 0x40 MLOAD PUSH4 0x8A0FCEBB PUSH1 0xE0 SHL DUP2 MSTORE PUSH1 0x4 SWAP1 REVERT JUMPDEST PUSH1 0x40 MLOAD PUSH4 0x63F0ADC1 PUSH1 0xE0 SHL DUP2 MSTORE PUSH1 0x4 SWAP1 REVERT JUMPDEST PUSH1 0x40 MLOAD PUSH4 0x2F075C2D PUSH1 0xE2 SHL DUP2 MSTORE PUSH1 0x4 SWAP1 REVERT JUMPDEST SWAP1 POP PUSH1 0x20 DUP2 RETURNDATASIZE PUSH1 0x20 GT PUSH2 0x1A83 JUMPI JUMPDEST DUP2 PUSH2 0x1A70 PUSH1 0x20 SWAP4 DUP4 PUSH2 0x1BA0 JUMP JUMPDEST DUP2 ADD SUB SLT PUSH2 0x1A7F JUMPI MLOAD CODESIZE PUSH2 0x17AA JUMP JUMPDEST DUP6 DUP1 REVERT JUMPDEST RETURNDATASIZE SWAP2 POP PUSH2 0x1A63 JUMP JUMPDEST PUSH1 0x40 MLOAD PUSH4 0x5ADE0455 PUSH1 0xE0 SHL DUP2 MSTORE PUSH1 0x4 SWAP1 REVERT JUMPDEST SWAP1 POP PUSH1 0x20 DUP2 RETURNDATASIZE PUSH1 0x20 GT PUSH2 0x1AC7 JUMPI JUMPDEST DUP2 PUSH2 0x1AB8 PUSH1 0x20 SWAP4 DUP4 PUSH2 0x1BA0 JUMP JUMPDEST DUP2 ADD SUB SLT PUSH2 0x1A7F JUMPI MLOAD CODESIZE PUSH2 0x177C JUMP JUMPDEST RETURNDATASIZE SWAP2 POP PUSH2 0x1AAB JUMP JUMPDEST PUSH1 0x40 MLOAD PUSH4 0xB9AB99DF PUSH1 0xE0 SHL DUP2 MSTORE PUSH1 0x4 SWAP1 REVERT JUMPDEST PUSH3 0x461BCD PUSH1 0xE5 SHL DUP2 MSTORE PUSH1 0x20 PUSH1 0x4 DUP3 ADD MSTORE PUSH1 0x1F PUSH1 0x24 DUP3 ADD MSTORE PUSH32 0x5265656E7472616E637947756172643A207265656E7472616E742063616C6C00 PUSH1 0x44 DUP3 ADD MSTORE PUSH1 0x64 SWAP1 REVERT JUMPDEST DUP5 DUP1 REVERT JUMPDEST DUP4 DUP1 REVERT JUMPDEST PUSH1 0x24 CALLDATALOAD SWAP1 PUSH1 0x1 PUSH1 0x1 PUSH1 0xA0 SHL SUB DUP3 AND DUP3 SUB PUSH2 0x619 JUMPI JUMP JUMPDEST PUSH1 0x4 CALLDATALOAD SWAP1 PUSH1 0x1 PUSH1 0x1 PUSH1 0xA0 SHL SUB DUP3 AND DUP3 SUB PUSH2 0x619 JUMPI JUMP JUMPDEST DUP1 SLOAD DUP3 LT ISZERO PUSH2 0x1B6F JUMPI PUSH1 0x0 MSTORE PUSH1 0x20 PUSH1 0x0 KECCAK256 ADD SWAP1 PUSH1 0x0 SWAP1 JUMP JUMPDEST PUSH4 0x4E487B71 PUSH1 0xE0 SHL PUSH1 0x0 MSTORE PUSH1 0x32 PUSH1 0x4 MSTORE PUSH1 0x24 PUSH1 0x0 REVERT JUMPDEST PUSH1 0x60 DUP2 ADD SWAP1 DUP2 LT PUSH1 0x1 PUSH1 0x1 PUSH1 0x40 SHL SUB DUP3 GT OR PUSH2 0x1056 JUMPI PUSH1 0x40 MSTORE JUMP JUMPDEST SWAP1 PUSH1 0x1F DUP1 NOT SWAP2 ADD AND DUP2 ADD SWAP1 DUP2 LT PUSH1 0x1 PUSH1 0x1 PUSH1 0x40 SHL SUB DUP3 GT OR PUSH2 0x1056 JUMPI PUSH1 0x40 MSTORE JUMP JUMPDEST PUSH1 0x1 PUSH1 0x1 PUSH1 0x40 SHL SUB DUP2 GT PUSH2 0x1056 JUMPI PUSH1 0x1F ADD PUSH1 0x1F NOT AND PUSH1 0x20 ADD SWAP1 JUMP JUMPDEST SWAP3 SWAP2 SWAP3 PUSH2 0x1BE8 DUP3 PUSH2 0x1BC1 JUMP JUMPDEST SWAP2 PUSH2 0x1BF6 PUSH1 0x40 MLOAD SWAP4 DUP5 PUSH2 0x1BA0 JUMP JUMPDEST DUP3 SWAP5 DUP2 DUP5 MSTORE DUP2 DUP4 ADD GT PUSH2 0x619 JUMPI DUP3 DUP2 PUSH1 0x20 SWAP4 DUP5 PUSH1 0x0 SWAP7 ADD CALLDATACOPY ADD ADD MSTORE JUMP JUMPDEST PUSH1 0x60 SWAP1 PUSH1 0x3 NOT ADD SLT PUSH2 0x619 JUMPI PUSH1 0x4 CALLDATALOAD SWAP1 PUSH1 0x24 CALLDATALOAD PUSH1 0x1 PUSH1 0x1 PUSH1 0xA0 SHL SUB DUP2 AND DUP2 SUB PUSH2 0x619 JUMPI SWAP1 PUSH1 0x44 CALLDATALOAD SWAP1 JUMP JUMPDEST SWAP1 DUP2 PUSH1 0x20 SWAP2 SUB SLT PUSH2 0x619 JUMPI MLOAD DUP1 ISZERO ISZERO DUP2 SUB PUSH2 0x619 JUMPI SWAP1 JUMP JUMPDEST SWAP1 DUP2 PUSH1 0x20 SWAP2 SUB SLT PUSH2 0x619 JUMPI MLOAD PUSH1 0x1 PUSH1 0x1 PUSH1 0xA0 SHL SUB DUP2 AND DUP2 SUB PUSH2 0x619 JUMPI SWAP1 JUMP JUMPDEST ISZERO PUSH2 0x1C7B JUMPI JUMP JUMPDEST PUSH1 0x40 MLOAD PUSH3 0x461BCD PUSH1 0xE5 SHL DUP2 MSTORE PUSH1 0x20 PUSH1 0x4 DUP3 ADD MSTORE PUSH1 0x2C PUSH1 0x24 DUP3 ADD MSTORE PUSH32 0x46756E6374696F6E206D7573742062652063616C6C6564207468726F75676820 PUSH1 0x44 DUP3 ADD MSTORE PUSH12 0x19195B1959D85D1958D85B1B PUSH1 0xA2 SHL PUSH1 0x64 DUP3 ADD MSTORE PUSH1 0x84 SWAP1 REVERT JUMPDEST ISZERO PUSH2 0x1CDC JUMPI JUMP JUMPDEST PUSH1 0x40 MLOAD PUSH3 0x461BCD PUSH1 0xE5 SHL DUP2 MSTORE PUSH1 0x20 PUSH1 0x4 DUP3 ADD MSTORE PUSH1 0x2C PUSH1 0x24 DUP3 ADD MSTORE PUSH32 0x46756E6374696F6E206D7573742062652063616C6C6564207468726F75676820 PUSH1 0x44 DUP3 ADD MSTORE PUSH12 0x6163746976652070726F7879 PUSH1 0xA0 SHL PUSH1 0x64 DUP3 ADD MSTORE PUSH1 0x84 SWAP1 REVERT JUMPDEST SWAP2 SWAP1 DUP3 ADD DUP1 SWAP3 GT PUSH2 0x1D43 JUMPI JUMP JUMPDEST PUSH4 0x4E487B71 PUSH1 0xE0 SHL PUSH1 0x0 MSTORE PUSH1 0x11 PUSH1 0x4 MSTORE PUSH1 0x24 PUSH1 0x0 REVERT JUMPDEST PUSH1 0xFF PUSH1 0x65 SLOAD AND PUSH2 0x1D65 JUMPI JUMP JUMPDEST PUSH1 0x40 MLOAD PUSH3 0x461BCD PUSH1 0xE5 SHL DUP2 MSTORE PUSH1 0x20 PUSH1 0x4 DUP3 ADD MSTORE PUSH1 0x10 PUSH1 0x24 DUP3 ADD MSTORE PUSH16 0x14185D5CD8589B194E881C185D5CD959 PUSH1 0x82 SHL PUSH1 0x44 DUP3 ADD MSTORE PUSH1 0x64 SWAP1 REVERT JUMPDEST PUSH1 0xFB SLOAD PUSH1 0x1 PUSH1 0x1 PUSH1 0xA0 SHL SUB AND CALLER SUB PUSH2 0x1DB1 JUMPI JUMP JUMPDEST PUSH1 0x64 PUSH1 0x40 MLOAD PUSH3 0x461BCD PUSH1 0xE5 SHL DUP2 MSTORE PUSH1 0x20 PUSH1 0x4 DUP3 ADD MSTORE PUSH1 0x20 PUSH1 0x24 DUP3 ADD MSTORE PUSH32 0x4F776E61626C653A2063616C6C6572206973206E6F7420746865206F776E6572 PUSH1 0x44 DUP3 ADD MSTORE REVERT JUMPDEST PUSH1 0xFB DUP1 SLOAD PUSH1 0x1 PUSH1 0x1 PUSH1 0xA0 SHL SUB SWAP3 DUP4 AND PUSH1 0x1 PUSH1 0x1 PUSH1 0xA0 SHL SUB NOT DUP3 AND DUP2 OR SWAP1 SWAP3 SSTORE SWAP1 SWAP2 AND PUSH32 0x8BE0079C531659141344CD1FD0A4F28419497F9722A3DAAFE3B4186F6B6457E0 PUSH1 0x0 DUP1 LOG3 JUMP JUMPDEST ISZERO PUSH2 0x1E45 JUMPI JUMP JUMPDEST PUSH1 0x40 MLOAD PUSH3 0x461BCD PUSH1 0xE5 SHL DUP2 MSTORE PUSH1 0x20 PUSH1 0x4 DUP3 ADD MSTORE PUSH1 0x2B PUSH1 0x24 DUP3 ADD MSTORE PUSH32 0x496E697469616C697A61626C653A20636F6E7472616374206973206E6F742069 PUSH1 0x44 DUP3 ADD MSTORE PUSH11 0x6E697469616C697A696E67 PUSH1 0xA8 SHL PUSH1 0x64 DUP3 ADD MSTORE PUSH1 0x84 SWAP1 REVERT JUMPDEST SWAP1 PUSH1 0x41 DUP2 MLOAD EQ PUSH1 0x0 EQ PUSH2 0x1ECC JUMPI PUSH2 0x1EC8 SWAP2 PUSH1 0x20 DUP3 ADD MLOAD SWAP1 PUSH1 0x60 PUSH1 0x40 DUP5 ADD MLOAD SWAP4 ADD MLOAD PUSH1 0x0 BYTE SWAP1 PUSH2 0x2080 JUMP JUMPDEST SWAP1 SWAP2 JUMP JUMPDEST POP POP PUSH1 0x0 SWAP1 PUSH1 0x2 SWAP1 JUMP JUMPDEST PUSH1 0x5 DUP2 LT ISZERO PUSH2 0x1FDA JUMPI DUP1 PUSH2 0x1EE7 JUMPI POP JUMP JUMPDEST PUSH1 0x1 DUP2 SUB PUSH2 0x1F34 JUMPI PUSH1 0x40 MLOAD PUSH3 0x461BCD PUSH1 0xE5 SHL DUP2 MSTORE PUSH1 0x20 PUSH1 0x4 DUP3 ADD MSTORE PUSH1 0x18 PUSH1 0x24 DUP3 ADD MSTORE PUSH32 0x45434453413A20696E76616C6964207369676E61747572650000000000000000 PUSH1 0x44 DUP3 ADD MSTORE PUSH1 0x64 SWAP1 REVERT JUMPDEST PUSH1 0x2 DUP2 SUB PUSH2 0x1F81 JUMPI PUSH1 0x40 MLOAD PUSH3 0x461BCD PUSH1 0xE5 SHL DUP2 MSTORE PUSH1 0x20 PUSH1 0x4 DUP3 ADD MSTORE PUSH1 0x1F PUSH1 0x24 DUP3 ADD MSTORE PUSH32 0x45434453413A20696E76616C6964207369676E6174757265206C656E67746800 PUSH1 0x44 DUP3 ADD MSTORE PUSH1 0x64 SWAP1 REVERT JUMPDEST PUSH1 0x3 EQ PUSH2 0x1F8A JUMPI JUMP JUMPDEST PUSH1 0x40 MLOAD PUSH3 0x461BCD PUSH1 0xE5 SHL DUP2 MSTORE PUSH1 0x20 PUSH1 0x4 DUP3 ADD MSTORE PUSH1 0x22 PUSH1 0x24 DUP3 ADD MSTORE PUSH32 0x45434453413A20696E76616C6964207369676E6174757265202773272076616C PUSH1 0x44 DUP3 ADD MSTORE PUSH2 0x7565 PUSH1 0xF0 SHL PUSH1 0x64 DUP3 ADD MSTORE PUSH1 0x84 SWAP1 REVERT JUMPDEST PUSH4 0x4E487B71 PUSH1 0xE0 SHL PUSH1 0x0 MSTORE PUSH1 0x21 PUSH1 0x4 MSTORE PUSH1 0x24 PUSH1 0x0 REVERT JUMPDEST DUP1 EXTCODESIZE ISZERO PUSH2 0x2025 JUMPI PUSH1 0x0 DUP1 MLOAD PUSH1 0x20 PUSH2 0x21E4 DUP4 CODECOPY DUP2 MLOAD SWAP2 MSTORE DUP1 SLOAD PUSH1 0x1 PUSH1 0x1 PUSH1 0xA0 SHL SUB NOT AND PUSH1 0x1 PUSH1 0x1 PUSH1 0xA0 SHL SUB SWAP1 SWAP3 AND SWAP2 SWAP1 SWAP2 OR SWAP1 SSTORE JUMP JUMPDEST PUSH1 0x40 MLOAD PUSH3 0x461BCD PUSH1 0xE5 SHL DUP2 MSTORE PUSH1 0x20 PUSH1 0x4 DUP3 ADD MSTORE PUSH1 0x2D PUSH1 0x24 DUP3 ADD MSTORE PUSH32 0x455243313936373A206E657720696D706C656D656E746174696F6E206973206E PUSH1 0x44 DUP3 ADD MSTORE PUSH13 0x1BDD08184818DBDB9D1C9858DD PUSH1 0x9A SHL PUSH1 0x64 DUP3 ADD MSTORE PUSH1 0x84 SWAP1 REVERT JUMPDEST SWAP3 SWAP2 SWAP1 PUSH32 0x7FFFFFFFFFFFFFFFFFFFFFFFFFFFFFFF5D576E7357A4501DDFE92F46681B20A0 DUP4 GT PUSH2 0x2103 JUMPI SWAP2 PUSH1 0x80 SWAP5 SWAP4 SWAP2 PUSH1 0xFF PUSH1 0x20 SWAP5 PUSH1 0x40 MLOAD SWAP5 DUP6 MSTORE AND DUP5 DUP5 ADD MSTORE PUSH1 0x40 DUP4 ADD MSTORE PUSH1 0x60 DUP3 ADD MSTORE PUSH1 0x0 SWAP4 DUP5 SWAP2 DUP3 DUP1 MSTORE PUSH1 0x1 GAS STATICCALL ISZERO PUSH2 0x20F6 JUMPI DUP2 MLOAD PUSH1 0x1 PUSH1 0x1 PUSH1 0xA0 SHL SUB DUP2 AND ISZERO PUSH2 0x20F0 JUMPI SWAP2 SWAP1 JUMP JUMPDEST POP PUSH1 0x1 SWAP1 JUMP JUMPDEST POP PUSH1 0x40 MLOAD SWAP1 RETURNDATASIZE SWAP1 DUP3 RETURNDATACOPY RETURNDATASIZE SWAP1 REVERT JUMPDEST POP POP POP POP PUSH1 0x0 SWAP1 PUSH1 0x3 SWAP1 JUMP JUMPDEST SWAP2 SWAP3 SWAP1 ISZERO PUSH2 0x2171 JUMPI POP DUP2 MLOAD ISZERO PUSH2 0x2123 JUMPI POP SWAP1 JUMP JUMPDEST EXTCODESIZE ISZERO PUSH2 0x212C JUMPI SWAP1 JUMP JUMPDEST PUSH1 0x40 MLOAD PUSH3 0x461BCD PUSH1 0xE5 SHL DUP2 MSTORE PUSH1 0x20 PUSH1 0x4 DUP3 ADD MSTORE PUSH1 0x1D PUSH1 0x24 DUP3 ADD MSTORE PUSH32 0x416464726573733A2063616C6C20746F206E6F6E2D636F6E7472616374000000 PUSH1 0x44 DUP3 ADD MSTORE PUSH1 0x64 SWAP1 REVERT JUMPDEST DUP3 MLOAD SWAP1 SWAP2 POP ISZERO PUSH2 0x2184 JUMPI POP DUP1 MLOAD SWAP1 PUSH1 0x20 ADD REVERT JUMPDEST PUSH1 0x40 MLOAD SWAP1 PUSH3 0x461BCD PUSH1 0xE5 SHL DUP3 MSTORE DUP2 PUSH1 0x20 DUP1 PUSH1 0x4 DUP4 ADD MSTORE DUP3 MLOAD SWAP1 DUP2 PUSH1 0x24 DUP5 ADD MSTORE PUSH1 0x0 SWAP4 JUMPDEST DUP3 DUP6 LT PUSH2 0x21CA JUMPI POP POP PUSH1 0x44 SWAP3 POP PUSH1 0x0 DUP4 DUP3 DUP5 ADD ADD MSTORE PUSH1 0x1F DUP1 NOT SWAP2 ADD AND DUP2 ADD SUB ADD SWAP1 REVERT JUMPDEST DUP5 DUP2 ADD DUP3 ADD MLOAD DUP7 DUP7 ADD PUSH1 0x44 ADD MSTORE SWAP4 DUP2 ADD SWAP4 DUP6 SWAP4 POP PUSH2 0x21A7 JUMP INVALID CALLDATASIZE ADDMOD SWAP5 LOG1 EXTCODESIZE LOG1 LOG3 0x21 MOD PUSH8 0xC828492DB98DCA3E KECCAK256 PUSH23 0xCC3735A920A3CA505D382BBCA2646970667358221220B0 0xC9 PUSH1 0x21 0x2F 0xAF 0xE7 GAS DUP2 RETURNDATASIZE DUP11 MLOAD DUP15 DUP7 DUP5 SWAP6 0xDE 0xD3 LOG3 0xE1 PUSH30 0xA2BE137F4963080B0532F064736F6C634300081800330000000000000000 "},"methodIdentifiers":{"createLightweightSession(bytes32,address,uint256,uint256,uint64,bytes)":"0ec163f3","createSession(bytes32,address,uint128,uint64,bytes32,uint256[2],uint256[2][2],uint256[2],uint256[5])":"00444f4b","getLightSession(bytes32)":"356f644d","getWalletSessions(address)":"186a2757","initialize(address,address,address)":"c0c53b8b","lightSessions(bytes32)":"8eb691b1","owner()":"8da5cb5b","pause()":"8456cb59","paused()":"5c975abb","proxiableUUID()":"52d1902d","registry()":"7b103999","renounceOwnership()":"715018a6","revokeLightweightSession(bytes32,address)":"99d29df9","revokeSession(bytes32,address)":"2a2d9380","sessions(bytes32)":"7dbd2832","transferOwnership(address)":"f2fde38b","unpause()":"3f4ba83a","upgradeTo(address)":"3659cfe6","upgradeToAndCall(address,bytes)":"4f1ef286","validateLightweightSession(bytes32,address,uint256)":"f545b88b","validateSession(bytes32,address,uint256)":"dc35e7d4","verifier()":"2b7ac3f3","walletSessions(address,uint256)":"1efb10f6"}}}}}