{"src/AgentWalletFactory.sol":{"AgentWalletFactory":{"abi":[{"inputs":[],"stateMutability":"nonpayable","type":"constructor"},{"inputs":[],"name":"InvalidEntryPointError","type":"error"},{"inputs":[],"name":"InvalidImplementationError","type":"error"},{"inputs":[],"name":"InvalidOwnerError","type":"error"},{"inputs":[],"name":"InvalidSessionManagerError","type":"error"},{"anonymous":false,"inputs":[{"indexed":false,"internalType":"address","name":"previousAdmin","type":"address"},{"indexed":false,"internalType":"address","name":"newAdmin","type":"address"}],"name":"AdminChanged","type":"event"},{"anonymous":false,"inputs":[{"indexed":true,"internalType":"address","name":"beacon","type":"address"}],"name":"BeaconUpgraded","type":"event"},{"anonymous":false,"inputs":[{"indexed":false,"internalType":"uint8","name":"version","type":"uint8"}],"name":"Initialized","type":"event"},{"anonymous":false,"inputs":[{"indexed":true,"internalType":"address","name":"previousOwner","type":"address"},{"indexed":true,"internalType":"address","name":"newOwner","type":"address"}],"name":"OwnershipTransferred","type":"event"},{"anonymous":false,"inputs":[{"indexed":true,"internalType":"address","name":"implementation","type":"address"}],"name":"Upgraded","type":"event"},{"anonymous":false,"inputs":[{"indexed":true,"internalType":"address","name":"wallet","type":"address"},{"indexed":true,"internalType":"address","name":"owner","type":"address"},{"indexed":true,"internalType":"bytes32","name":"salt","type":"bytes32"},{"indexed":false,"internalType":"address","name":"entryPoint","type":"address"}],"name":"WalletCreated","type":"event"},{"inputs":[{"internalType":"address","name":"owner","type":"address"}],"name":"createWallet","outputs":[{"internalType":"address","name":"wallet","type":"address"}],"stateMutability":"nonpayable","type":"function"},{"inputs":[{"internalType":"address","name":"owner","type":"address"},{"internalType":"bytes32","name":"salt","type":"bytes32"}],"name":"createWallet","outputs":[{"internalType":"address","name":"wallet","type":"address"}],"stateMutability":"nonpayable","type":"function"},{"inputs":[],"name":"entryPoint","outputs":[{"internalType":"address","name":"","type":"address"}],"stateMutability":"view","type":"function"},{"inputs":[{"internalType":"bytes32","name":"salt","type":"bytes32"}],"name":"getAddress","outputs":[{"internalType":"address","name":"wallet","type":"address"}],"stateMutability":"view","type":"function"},{"inputs":[],"name":"implementation","outputs":[{"internalType":"address","name":"","type":"address"}],"stateMutability":"view","type":"function"},{"inputs":[{"internalType":"address","name":"implementation_","type":"address"},{"internalType":"address","name":"sessionManager_","type":"address"},{"internalType":"address","name":"entryPoint_","type":"address"},{"internalType":"address","name":"owner_","type":"address"}],"name":"initialize","outputs":[],"stateMutability":"nonpayable","type":"function"},{"inputs":[],"name":"owner","outputs":[{"internalType":"address","name":"","type":"address"}],"stateMutability":"view","type":"function"},{"inputs":[],"name":"proxiableUUID","outputs":[{"internalType":"bytes32","name":"","type":"bytes32"}],"stateMutability":"view","type":"function"},{"inputs":[],"name":"renounceOwnership","outputs":[],"stateMutability":"nonpayable","type":"function"},{"inputs":[],"name":"sessionManager","outputs":[{"internalType":"address","name":"","type":"address"}],"stateMutability":"view","type":"function"},{"inputs":[{"internalType":"address","name":"newEntryPoint","type":"address"}],"name":"setEntryPoint","outputs":[],"stateMutability":"nonpayable","type":"function"},{"inputs":[{"internalType":"address","name":"newImplementation","type":"address"}],"name":"setImplementation","outputs":[],"stateMutability":"nonpayable","type":"function"},{"inputs":[{"internalType":"address","name":"newSessionManager","type":"address"}],"name":"setSessionManager","outputs":[],"stateMutability":"nonpayable","type":"function"},{"inputs":[{"internalType":"address","name":"newOwner","type":"address"}],"name":"transferOwnership","outputs":[],"stateMutability":"nonpayable","type":"function"},{"inputs":[{"internalType":"address","name":"newImplementation","type":"address"}],"name":"upgradeTo","outputs":[],"stateMutability":"nonpayable","type":"function"},{"inputs":[{"internalType":"address","name":"newImplementation","type":"address"},{"internalType":"bytes","name":"data","type":"bytes"}],"name":"upgradeToAndCall","outputs":[],"stateMutability":"payable","type":"function"},{"inputs":[],"name":"walletCount","outputs":[{"internalType":"uint256","name":"","type":"uint256"}],"stateMutability":"view","type":"function"}],"evm":{"bytecode":{"linkReferences":{},"object":"60a080604052346100dc57306080526000549060ff8260081c1661008a575060ff8082160361004f575b60405161126690816100e2823960805181818161066c015281816107930152610a410152f35b60ff90811916176000557f7f26b83ff96e1f2b6a682f133852f6798a09c465da95921460cefb3847402498602060405160ff8152a138610029565b62461bcd60e51b815260206004820152602760248201527f496e697469616c697a61626c653a20636f6e747261637420697320696e697469604482015266616c697a696e6760c81b6064820152608490fd5b600080fdfe6040608081526004908136101561001557600080fd5b600091823560e01c806321f8a72114610c2e57806329b57c6914610c0f5780633659cfe614610a1a5780634f1ef2861461071957806352d1902d14610657578063584465f2146106005780635c60da1b146105d7578063674f0abd14610581578063715018a6146105245780638da5cb5b146104fb578063b054a9e814610443578063b0d691fe1461041a578063b20ca818146103e0578063b7b13f79146103b3578063d784d4261461035c578063f2fde38b146102cb5763f8c8765e146100dc57600080fd5b346102c75760803660031901126102c7576100f5610c5f565b906001600160a01b039060243582811691908290036102c357604435918383168093036102bf57606435848116036102bf5786549360ff8560081c1615948580966102b2575b801561029b575b156102415760ff198116600117895585610230575b5061017160ff895460081c1661016c8161104c565b61104c565b61017a33610e5c565b87549561018c60ff8860081c1661104c565b1691821561022257811561021557831561020757506001600160601b0360a01b918260c954161760c9558160cb54161760cb5560ca54161760ca556101cf578280f35b61ff001916825551600181527f7f26b83ff96e1f2b6a682f133852f6798a09c465da95921460cefb384740249890602090a138808280f35b86516392377dd560e01b8152fd5b865162d9b42560e01b8152fd5b865163c2b9e5e960e01b8152fd5b61ffff191661010117885538610157565b875162461bcd60e51b8152602081860152602e60248201527f496e697469616c697a61626c653a20636f6e747261637420697320616c72656160448201526d191e481a5b9a5d1a585b1a5e995960921b6064820152608490fd5b50303b1580156101425750600160ff821614610142565b50600160ff82161061013b565b8680fd5b8580fd5b8280fd5b50346102c75760203660031901126102c7576102e5610c5f565b916102ee610e04565b6001600160a01b0383161561030a578361030784610e5c565b80f35b906020608492519162461bcd60e51b8352820152602660248201527f4f776e61626c653a206e6577206f776e657220697320746865207a65726f206160448201526564647265737360d01b6064820152fd5b50346102c75760203660031901126102c757610376610c5f565b61037e610e04565b6001600160a01b03169182156103a65750506001600160601b0360a01b60c954161760c95580f35b5163c2b9e5e960e01b8152fd5b5050346103dc57816003193601126103dc5760cb5490516001600160a01b039091168152602090f35b5080fd5b5050346103dc57806003193601126103dc57602090610409610400610c5f565b60243590610ea5565b90516001600160a01b039091168152f35b5050346103dc57816003193601126103dc5760ca5490516001600160a01b039091168152602090f35b5091346104f85760203660031901126104f85761045e610c5f565b60cc5483516001600160a01b0380841660208301908152338388015246606084015260808084018590528352909493929160a0810167ffffffffffffffff8111828210176104e55787525190209260001982146104d257602086866104ca87876001880160cc55610ea5565b915191168152f35b634e487b7160e01b815260118752602490fd5b634e487b7160e01b865260418952602486fd5b80fd5b5050346103dc57816003193601126103dc5760975490516001600160a01b039091168152602090f35b83346104f857806003193601126104f85761053d610e04565b609780546001600160a01b0319811690915581906001600160a01b03167f8be0079c531659141344cd1fd0a4f28419497f9722a3daafe3b4186f6b6457e08280a380f35b50346102c75760203660031901126102c75761059b610c5f565b6105a3610e04565b6001600160a01b03169182156105cb5750506001600160601b0360a01b60cb54161760cb5580f35b5162d9b42560e01b8152fd5b5050346103dc57816003193601126103dc5760c95490516001600160a01b039091168152602090f35b50346102c75760203660031901126102c75761061a610c5f565b610622610e04565b6001600160a01b031691821561064a5750506001600160601b0360a01b60ca54161760ca5580f35b516392377dd560e01b8152fd5b5082346104f857806003193601126104f857507f00000000000000000000000000000000000000000000000000000000000000006001600160a01b031630036106b157602082516000805160206112118339815191528152f35b6020608492519162461bcd60e51b8352820152603860248201527f555550535570677261646561626c653a206d757374206e6f742062652063616c60448201527f6c6564207468726f7567682064656c656761746563616c6c00000000000000006064820152fd5b5090806003193601126102c75761072e610c5f565b906024359067ffffffffffffffff8211610a165736602383011215610a16578184013561075a81610cce565b61076683519182610cac565b818152866020948583019336602482840101116102c7578060248893018637830101526001600160a01b037f00000000000000000000000000000000000000000000000000000000000000008116906107c130831415610cea565b6107de600080516020611211833981519152928284541614610d4b565b6107e6610e04565b7f4910fdfa16fed3260ed0e7147f7cc6da11a60208b5b9406d12a635614ffd91435460ff16156108205750505050505061030791506110ac565b869293949596169085516352d1902d60e01b815287818a81865afa8a91816109e3575b506108a257865162461bcd60e51b8152808a01899052602e60248201527f45524331393637557067726164653a206e657720696d706c656d656e7461746960448201526d6f6e206973206e6f74205555505360901b6064820152608490fd5b97919293969594970361098e57506108b9826110ac565b7fbc7cd75a20ee27fd9adebab32041f755214dbc6bffa90cc0225b39da2e5c2d3b8780a285845115801590610986575b6108f7575b50505050505080f35b806109709684519661090888610c7a565b602788527f416464726573733a206c6f772d6c6576656c2064656c65676174652063616c6c87890152660819985a5b195960ca1b868901525190845af4913d1561097c573d61096261095982610cce565b92519283610cac565b81528681943d92013e61113c565b503880808080856108ee565b506060925061113c565b5060016108e9565b835162461bcd60e51b8152908101859052602960248201527f45524331393637557067726164653a20756e737570706f727465642070726f786044820152681a58589b195555525160ba1b6064820152608490fd5b9091508881813d8311610a0f575b6109fb8183610cac565b81010312610a0b57519038610843565b8a80fd5b503d6109f1565b8480fd5b5090346102c757602080600319360112610c0b57610a36610c5f565b916001600160a01b037f00000000000000000000000000000000000000000000000000000000000000008116610a6e30821415610cea565b610a8b600080516020611211833981519152918383541614610d4b565b610a93610e04565b8251908482019282841067ffffffffffffffff851117610bf8578385528883527f4910fdfa16fed3260ed0e7147f7cc6da11a60208b5b9406d12a635614ffd91435460ff1615610aed5750505050505061030791506110ac565b869293949596169085516352d1902d60e01b815287818a81865afa8a9181610bc9575b50610b6f57865162461bcd60e51b8152808a01899052602e60248201527f45524331393637557067726164653a206e657720696d706c656d656e7461746960448201526d6f6e206973206e6f74205555505360901b6064820152608490fd5b97919293969594970361098e5750610b86826110ac565b7fbc7cd75a20ee27fd9adebab32041f755214dbc6bffa90cc0225b39da2e5c2d3b8780a285845115801590610bc2576108f75750505050505080f35b50806108e9565b9091508881813d8311610bf1575b610be18183610cac565b81010312610a0b57519038610b10565b503d610bd7565b634e487b7160e01b895260418852602489fd5b8380fd5b5050346103dc57816003193601126103dc5760209060cc549051908152f35b50346102c75760203660031901126102c75760c954602093506001600160a01b03916104ca91309135908416610dac565b600435906001600160a01b0382168203610c7557565b600080fd5b6060810190811067ffffffffffffffff821117610c9657604052565b634e487b7160e01b600052604160045260246000fd5b90601f8019910116810190811067ffffffffffffffff821117610c9657604052565b67ffffffffffffffff8111610c9657601f01601f191660200190565b15610cf157565b60405162461bcd60e51b815260206004820152602c60248201527f46756e6374696f6e206d7573742062652063616c6c6564207468726f7567682060448201526b19195b1959d85d1958d85b1b60a21b6064820152608490fd5b15610d5257565b60405162461bcd60e51b815260206004820152602c60248201527f46756e6374696f6e206d7573742062652063616c6c6564207468726f7567682060448201526b6163746976652070726f787960a01b6064820152608490fd5b916043916055936040519260388401526f5af43d82803e903d91602b57fd5bf3ff60248401526014830152733d602d80600a3d3981f3363d3d373d3d3d363d73825260588201526037600c8201206078820152012090565b6097546001600160a01b03163303610e1857565b606460405162461bcd60e51b815260206004820152602060248201527f4f776e61626c653a2063616c6c6572206973206e6f7420746865206f776e65726044820152fd5b609780546001600160a01b039283166001600160a01b0319821681179092559091167f8be0079c531659141344cd1fd0a4f28419497f9722a3daafe3b4186f6b6457e0600080a3565b6001600160a01b039291908316801561103a5760c95493610ec93084838816610dac565b94853b15610f08575b507f1f7761c69c1e6ed50fd7b87c3be8af863a3977e31508a30bcb6ff930731d5dac60208260ca541692604051938452871692a4565b94506e5af43d82803e903d91602b57fd5bf3600095763d602d80600a3d3981f3363d3d373d3d3d363d7300000062ffffff8260881c161787526effffffffffffffffffffffffffffff199060781b1617602052826037600987f5818116908115610ff557958260cb54168360ca541690833b156102c757906064839283604051968794859363c0c53b8b60e01b85528b6004860152602485015260448401525af18015610fe857610fba575b50610ed2565b67ffffffffffffffff8211610fd457506040523880610fb4565b634e487b7160e01b81526041600452602490fd5b50604051903d90823e3d90fd5b60405162461bcd60e51b815260206004820152601760248201527f455243313136373a2063726561746532206661696c65640000000000000000006044820152606490fd5b60405163062ef65960e21b8152600490fd5b1561105357565b60405162461bcd60e51b815260206004820152602b60248201527f496e697469616c697a61626c653a20636f6e7472616374206973206e6f74206960448201526a6e697469616c697a696e6760a81b6064820152608490fd5b803b156110e15760008051602061121183398151915280546001600160a01b0319166001600160a01b03909216919091179055565b60405162461bcd60e51b815260206004820152602d60248201527f455243313936373a206e657720696d706c656d656e746174696f6e206973206e60448201526c1bdd08184818dbdb9d1c9858dd609a1b6064820152608490fd5b9192901561119e5750815115611150575090565b3b156111595790565b60405162461bcd60e51b815260206004820152601d60248201527f416464726573733a2063616c6c20746f206e6f6e2d636f6e74726163740000006044820152606490fd5b8251909150156111b15750805190602001fd5b6040519062461bcd60e51b82528160208060048301528251908160248401526000935b8285106111f7575050604492506000838284010152601f80199101168101030190fd5b84810182015186860160440152938101938593506111d456fe360894a13ba1a3210667c828492db98dca3e2076cc3735a920a3ca505d382bbca26469706673582212205202d3d4259175325695e05e03a44ab09ea9a2d53e45fd7fb3f7aa258e09bdc364736f6c63430008180033","opcodes":"PUSH1 0xA0 DUP1 PUSH1 0x40 MSTORE CALLVALUE PUSH2 0xDC JUMPI ADDRESS PUSH1 0x80 MSTORE PUSH1 0x0 SLOAD SWAP1 PUSH1 0xFF DUP3 PUSH1 0x8 SHR AND PUSH2 0x8A JUMPI POP PUSH1 0xFF DUP1 DUP3 AND SUB PUSH2 0x4F JUMPI JUMPDEST PUSH1 0x40 MLOAD PUSH2 0x1266 SWAP1 DUP2 PUSH2 0xE2 DUP3 CODECOPY PUSH1 0x80 MLOAD DUP2 DUP2 DUP2 PUSH2 0x66C ADD MSTORE DUP2 DUP2 PUSH2 0x793 ADD MSTORE PUSH2 0xA41 ADD MSTORE RETURN JUMPDEST PUSH1 0xFF SWAP1 DUP2 NOT AND OR PUSH1 0x0 SSTORE PUSH32 0x7F26B83FF96E1F2B6A682F133852F6798A09C465DA95921460CEFB3847402498 PUSH1 0x20 PUSH1 0x40 MLOAD PUSH1 0xFF DUP2 MSTORE LOG1 CODESIZE PUSH2 0x29 JUMP JUMPDEST PUSH3 0x461BCD PUSH1 0xE5 SHL DUP2 MSTORE PUSH1 0x20 PUSH1 0x4 DUP3 ADD MSTORE PUSH1 0x27 PUSH1 0x24 DUP3 ADD MSTORE PUSH32 0x496E697469616C697A61626C653A20636F6E747261637420697320696E697469 PUSH1 0x44 DUP3 ADD MSTORE PUSH7 0x616C697A696E67 PUSH1 0xC8 SHL PUSH1 0x64 DUP3 ADD MSTORE PUSH1 0x84 SWAP1 REVERT JUMPDEST PUSH1 0x0 DUP1 REVERT INVALID PUSH1 0x40 PUSH1 0x80 DUP2 MSTORE PUSH1 0x4 SWAP1 DUP2 CALLDATASIZE LT ISZERO PUSH2 0x15 JUMPI PUSH1 0x0 DUP1 REVERT JUMPDEST PUSH1 0x0 SWAP2 DUP3 CALLDATALOAD PUSH1 0xE0 SHR DUP1 PUSH4 0x21F8A721 EQ PUSH2 0xC2E JUMPI DUP1 PUSH4 0x29B57C69 EQ PUSH2 0xC0F JUMPI DUP1 PUSH4 0x3659CFE6 EQ PUSH2 0xA1A JUMPI DUP1 PUSH4 0x4F1EF286 EQ PUSH2 0x719 JUMPI DUP1 PUSH4 0x52D1902D EQ PUSH2 0x657 JUMPI DUP1 PUSH4 0x584465F2 EQ PUSH2 0x600 JUMPI DUP1 PUSH4 0x5C60DA1B EQ PUSH2 0x5D7 JUMPI DUP1 PUSH4 0x674F0ABD EQ PUSH2 0x581 JUMPI DUP1 PUSH4 0x715018A6 EQ PUSH2 0x524 JUMPI DUP1 PUSH4 0x8DA5CB5B EQ PUSH2 0x4FB JUMPI DUP1 PUSH4 0xB054A9E8 EQ PUSH2 0x443 JUMPI DUP1 PUSH4 0xB0D691FE EQ PUSH2 0x41A JUMPI DUP1 PUSH4 0xB20CA818 EQ PUSH2 0x3E0 JUMPI DUP1 PUSH4 0xB7B13F79 EQ PUSH2 0x3B3 JUMPI DUP1 PUSH4 0xD784D426 EQ PUSH2 0x35C JUMPI DUP1 PUSH4 0xF2FDE38B EQ PUSH2 0x2CB JUMPI PUSH4 0xF8C8765E EQ PUSH2 0xDC JUMPI PUSH1 0x0 DUP1 REVERT JUMPDEST CALLVALUE PUSH2 0x2C7 JUMPI PUSH1 0x80 CALLDATASIZE PUSH1 0x3 NOT ADD SLT PUSH2 0x2C7 JUMPI PUSH2 0xF5 PUSH2 0xC5F JUMP JUMPDEST SWAP1 PUSH1 0x1 PUSH1 0x1 PUSH1 0xA0 SHL SUB SWAP1 PUSH1 0x24 CALLDATALOAD DUP3 DUP2 AND SWAP2 SWAP1 DUP3 SWAP1 SUB PUSH2 0x2C3 JUMPI PUSH1 0x44 CALLDATALOAD SWAP2 DUP4 DUP4 AND DUP1 SWAP4 SUB PUSH2 0x2BF JUMPI PUSH1 0x64 CALLDATALOAD DUP5 DUP2 AND SUB PUSH2 0x2BF JUMPI DUP7 SLOAD SWAP4 PUSH1 0xFF DUP6 PUSH1 0x8 SHR AND ISZERO SWAP5 DUP6 DUP1 SWAP7 PUSH2 0x2B2 JUMPI JUMPDEST DUP1 ISZERO PUSH2 0x29B JUMPI JUMPDEST ISZERO PUSH2 0x241 JUMPI PUSH1 0xFF NOT DUP2 AND PUSH1 0x1 OR DUP10 SSTORE DUP6 PUSH2 0x230 JUMPI JUMPDEST POP PUSH2 0x171 PUSH1 0xFF DUP10 SLOAD PUSH1 0x8 SHR AND PUSH2 0x16C DUP2 PUSH2 0x104C JUMP JUMPDEST PUSH2 0x104C JUMP JUMPDEST PUSH2 0x17A CALLER PUSH2 0xE5C JUMP JUMPDEST DUP8 SLOAD SWAP6 PUSH2 0x18C PUSH1 0xFF DUP9 PUSH1 0x8 SHR AND PUSH2 0x104C JUMP JUMPDEST AND SWAP2 DUP3 ISZERO PUSH2 0x222 JUMPI DUP2 ISZERO PUSH2 0x215 JUMPI DUP4 ISZERO PUSH2 0x207 JUMPI POP PUSH1 0x1 PUSH1 0x1 PUSH1 0x60 SHL SUB PUSH1 0xA0 SHL SWAP2 DUP3 PUSH1 0xC9 SLOAD AND OR PUSH1 0xC9 SSTORE DUP2 PUSH1 0xCB SLOAD AND OR PUSH1 0xCB SSTORE PUSH1 0xCA SLOAD AND OR PUSH1 0xCA SSTORE PUSH2 0x1CF JUMPI DUP3 DUP1 RETURN JUMPDEST PUSH2 0xFF00 NOT AND DUP3 SSTORE MLOAD PUSH1 0x1 DUP2 MSTORE PUSH32 0x7F26B83FF96E1F2B6A682F133852F6798A09C465DA95921460CEFB3847402498 SWAP1 PUSH1 0x20 SWAP1 LOG1 CODESIZE DUP1 DUP3 DUP1 RETURN JUMPDEST DUP7 MLOAD PUSH4 0x92377DD5 PUSH1 0xE0 SHL DUP2 MSTORE REVERT JUMPDEST DUP7 MLOAD PUSH3 0xD9B425 PUSH1 0xE0 SHL DUP2 MSTORE REVERT JUMPDEST DUP7 MLOAD PUSH4 0xC2B9E5E9 PUSH1 0xE0 SHL DUP2 MSTORE REVERT JUMPDEST PUSH2 0xFFFF NOT AND PUSH2 0x101 OR DUP9 SSTORE CODESIZE PUSH2 0x157 JUMP JUMPDEST DUP8 MLOAD PUSH3 0x461BCD PUSH1 0xE5 SHL DUP2 MSTORE PUSH1 0x20 DUP2 DUP7 ADD MSTORE PUSH1 0x2E PUSH1 0x24 DUP3 ADD MSTORE PUSH32 0x496E697469616C697A61626C653A20636F6E747261637420697320616C726561 PUSH1 0x44 DUP3 ADD MSTORE PUSH14 0x191E481A5B9A5D1A585B1A5E9959 PUSH1 0x92 SHL PUSH1 0x64 DUP3 ADD MSTORE PUSH1 0x84 SWAP1 REVERT JUMPDEST POP ADDRESS EXTCODESIZE ISZERO DUP1 ISZERO PUSH2 0x142 JUMPI POP PUSH1 0x1 PUSH1 0xFF DUP3 AND EQ PUSH2 0x142 JUMP JUMPDEST POP PUSH1 0x1 PUSH1 0xFF DUP3 AND LT PUSH2 0x13B JUMP JUMPDEST DUP7 DUP1 REVERT JUMPDEST DUP6 DUP1 REVERT JUMPDEST DUP3 DUP1 REVERT JUMPDEST POP CALLVALUE PUSH2 0x2C7 JUMPI PUSH1 0x20 CALLDATASIZE PUSH1 0x3 NOT ADD SLT PUSH2 0x2C7 JUMPI PUSH2 0x2E5 PUSH2 0xC5F JUMP JUMPDEST SWAP2 PUSH2 0x2EE PUSH2 0xE04 JUMP JUMPDEST PUSH1 0x1 PUSH1 0x1 PUSH1 0xA0 SHL SUB DUP4 AND ISZERO PUSH2 0x30A JUMPI DUP4 PUSH2 0x307 DUP5 PUSH2 0xE5C JUMP JUMPDEST DUP1 RETURN JUMPDEST SWAP1 PUSH1 0x20 PUSH1 0x84 SWAP3 MLOAD SWAP2 PUSH3 0x461BCD PUSH1 0xE5 SHL DUP4 MSTORE DUP3 ADD MSTORE PUSH1 0x26 PUSH1 0x24 DUP3 ADD MSTORE PUSH32 0x4F776E61626C653A206E6577206F776E657220697320746865207A65726F2061 PUSH1 0x44 DUP3 ADD MSTORE PUSH6 0x646472657373 PUSH1 0xD0 SHL PUSH1 0x64 DUP3 ADD MSTORE REVERT JUMPDEST POP CALLVALUE PUSH2 0x2C7 JUMPI PUSH1 0x20 CALLDATASIZE PUSH1 0x3 NOT ADD SLT PUSH2 0x2C7 JUMPI PUSH2 0x376 PUSH2 0xC5F JUMP JUMPDEST PUSH2 0x37E PUSH2 0xE04 JUMP JUMPDEST PUSH1 0x1 PUSH1 0x1 PUSH1 0xA0 SHL SUB AND SWAP2 DUP3 ISZERO PUSH2 0x3A6 JUMPI POP POP PUSH1 0x1 PUSH1 0x1 PUSH1 0x60 SHL SUB PUSH1 0xA0 SHL PUSH1 0xC9 SLOAD AND OR PUSH1 0xC9 SSTORE DUP1 RETURN JUMPDEST MLOAD PUSH4 0xC2B9E5E9 PUSH1 0xE0 SHL DUP2 MSTORE REVERT JUMPDEST POP POP CALLVALUE PUSH2 0x3DC JUMPI DUP2 PUSH1 0x3 NOT CALLDATASIZE ADD SLT PUSH2 0x3DC JUMPI PUSH1 0xCB SLOAD SWAP1 MLOAD PUSH1 0x1 PUSH1 0x1 PUSH1 0xA0 SHL SUB SWAP1 SWAP2 AND DUP2 MSTORE PUSH1 0x20 SWAP1 RETURN JUMPDEST POP DUP1 REVERT JUMPDEST POP POP CALLVALUE PUSH2 0x3DC JUMPI DUP1 PUSH1 0x3 NOT CALLDATASIZE ADD SLT PUSH2 0x3DC JUMPI PUSH1 0x20 SWAP1 PUSH2 0x409 PUSH2 0x400 PUSH2 0xC5F JUMP JUMPDEST PUSH1 0x24 CALLDATALOAD SWAP1 PUSH2 0xEA5 JUMP JUMPDEST SWAP1 MLOAD PUSH1 0x1 PUSH1 0x1 PUSH1 0xA0 SHL SUB SWAP1 SWAP2 AND DUP2 MSTORE RETURN JUMPDEST POP POP CALLVALUE PUSH2 0x3DC JUMPI DUP2 PUSH1 0x3 NOT CALLDATASIZE ADD SLT PUSH2 0x3DC JUMPI PUSH1 0xCA SLOAD SWAP1 MLOAD PUSH1 0x1 PUSH1 0x1 PUSH1 0xA0 SHL SUB SWAP1 SWAP2 AND DUP2 MSTORE PUSH1 0x20 SWAP1 RETURN JUMPDEST POP SWAP2 CALLVALUE PUSH2 0x4F8 JUMPI PUSH1 0x20 CALLDATASIZE PUSH1 0x3 NOT ADD SLT PUSH2 0x4F8 JUMPI PUSH2 0x45E PUSH2 0xC5F JUMP JUMPDEST PUSH1 0xCC SLOAD DUP4 MLOAD PUSH1 0x1 PUSH1 0x1 PUSH1 0xA0 SHL SUB DUP1 DUP5 AND PUSH1 0x20 DUP4 ADD SWAP1 DUP2 MSTORE CALLER DUP4 DUP9 ADD MSTORE CHAINID PUSH1 0x60 DUP5 ADD MSTORE PUSH1 0x80 DUP1 DUP5 ADD DUP6 SWAP1 MSTORE DUP4 MSTORE SWAP1 SWAP5 SWAP4 SWAP3 SWAP2 PUSH1 0xA0 DUP2 ADD PUSH8 0xFFFFFFFFFFFFFFFF DUP2 GT DUP3 DUP3 LT OR PUSH2 0x4E5 JUMPI DUP8 MSTORE MLOAD SWAP1 KECCAK256 SWAP3 PUSH1 0x0 NOT DUP3 EQ PUSH2 0x4D2 JUMPI PUSH1 0x20 DUP7 DUP7 PUSH2 0x4CA DUP8 DUP8 PUSH1 0x1 DUP9 ADD PUSH1 0xCC SSTORE PUSH2 0xEA5 JUMP JUMPDEST SWAP2 MLOAD SWAP2 AND DUP2 MSTORE RETURN JUMPDEST PUSH4 0x4E487B71 PUSH1 0xE0 SHL DUP2 MSTORE PUSH1 0x11 DUP8 MSTORE PUSH1 0x24 SWAP1 REVERT JUMPDEST PUSH4 0x4E487B71 PUSH1 0xE0 SHL DUP7 MSTORE PUSH1 0x41 DUP10 MSTORE PUSH1 0x24 DUP7 REVERT JUMPDEST DUP1 REVERT JUMPDEST POP POP CALLVALUE PUSH2 0x3DC JUMPI DUP2 PUSH1 0x3 NOT CALLDATASIZE ADD SLT PUSH2 0x3DC JUMPI PUSH1 0x97 SLOAD SWAP1 MLOAD PUSH1 0x1 PUSH1 0x1 PUSH1 0xA0 SHL SUB SWAP1 SWAP2 AND DUP2 MSTORE PUSH1 0x20 SWAP1 RETURN JUMPDEST DUP4 CALLVALUE PUSH2 0x4F8 JUMPI DUP1 PUSH1 0x3 NOT CALLDATASIZE ADD SLT PUSH2 0x4F8 JUMPI PUSH2 0x53D PUSH2 0xE04 JUMP JUMPDEST PUSH1 0x97 DUP1 SLOAD PUSH1 0x1 PUSH1 0x1 PUSH1 0xA0 SHL SUB NOT DUP2 AND SWAP1 SWAP2 SSTORE DUP2 SWAP1 PUSH1 0x1 PUSH1 0x1 PUSH1 0xA0 SHL SUB AND PUSH32 0x8BE0079C531659141344CD1FD0A4F28419497F9722A3DAAFE3B4186F6B6457E0 DUP3 DUP1 LOG3 DUP1 RETURN JUMPDEST POP CALLVALUE PUSH2 0x2C7 JUMPI PUSH1 0x20 CALLDATASIZE PUSH1 0x3 NOT ADD SLT PUSH2 0x2C7 JUMPI PUSH2 0x59B PUSH2 0xC5F JUMP JUMPDEST PUSH2 0x5A3 PUSH2 0xE04 JUMP JUMPDEST PUSH1 0x1 PUSH1 0x1 PUSH1 0xA0 SHL SUB AND SWAP2 DUP3 ISZERO PUSH2 0x5CB JUMPI POP POP PUSH1 0x1 PUSH1 0x1 PUSH1 0x60 SHL SUB PUSH1 0xA0 SHL PUSH1 0xCB SLOAD AND OR PUSH1 0xCB SSTORE DUP1 RETURN JUMPDEST MLOAD PUSH3 0xD9B425 PUSH1 0xE0 SHL DUP2 MSTORE REVERT JUMPDEST POP POP CALLVALUE PUSH2 0x3DC JUMPI DUP2 PUSH1 0x3 NOT CALLDATASIZE ADD SLT PUSH2 0x3DC JUMPI PUSH1 0xC9 SLOAD SWAP1 MLOAD PUSH1 0x1 PUSH1 0x1 PUSH1 0xA0 SHL SUB SWAP1 SWAP2 AND DUP2 MSTORE PUSH1 0x20 SWAP1 RETURN JUMPDEST POP CALLVALUE PUSH2 0x2C7 JUMPI PUSH1 0x20 CALLDATASIZE PUSH1 0x3 NOT ADD SLT PUSH2 0x2C7 JUMPI PUSH2 0x61A PUSH2 0xC5F JUMP JUMPDEST PUSH2 0x622 PUSH2 0xE04 JUMP JUMPDEST PUSH1 0x1 PUSH1 0x1 PUSH1 0xA0 SHL SUB AND SWAP2 DUP3 ISZERO PUSH2 0x64A JUMPI POP POP PUSH1 0x1 PUSH1 0x1 PUSH1 0x60 SHL SUB PUSH1 0xA0 SHL PUSH1 0xCA SLOAD AND OR PUSH1 0xCA SSTORE DUP1 RETURN JUMPDEST MLOAD PUSH4 0x92377DD5 PUSH1 0xE0 SHL DUP2 MSTORE REVERT JUMPDEST POP DUP3 CALLVALUE PUSH2 0x4F8 JUMPI DUP1 PUSH1 0x3 NOT CALLDATASIZE ADD SLT PUSH2 0x4F8 JUMPI POP PUSH32 0x0 PUSH1 0x1 PUSH1 0x1 PUSH1 0xA0 SHL SUB AND ADDRESS SUB PUSH2 0x6B1 JUMPI PUSH1 0x20 DUP3 MLOAD PUSH1 0x0 DUP1 MLOAD PUSH1 0x20 PUSH2 0x1211 DUP4 CODECOPY DUP2 MLOAD SWAP2 MSTORE DUP2 MSTORE RETURN JUMPDEST PUSH1 0x20 PUSH1 0x84 SWAP3 MLOAD SWAP2 PUSH3 0x461BCD PUSH1 0xE5 SHL DUP4 MSTORE DUP3 ADD MSTORE PUSH1 0x38 PUSH1 0x24 DUP3 ADD MSTORE PUSH32 0x555550535570677261646561626C653A206D757374206E6F742062652063616C PUSH1 0x44 DUP3 ADD MSTORE PUSH32 0x6C6564207468726F7567682064656C656761746563616C6C0000000000000000 PUSH1 0x64 DUP3 ADD MSTORE REVERT JUMPDEST POP SWAP1 DUP1 PUSH1 0x3 NOT CALLDATASIZE ADD SLT PUSH2 0x2C7 JUMPI PUSH2 0x72E PUSH2 0xC5F JUMP JUMPDEST SWAP1 PUSH1 0x24 CALLDATALOAD SWAP1 PUSH8 0xFFFFFFFFFFFFFFFF DUP3 GT PUSH2 0xA16 JUMPI CALLDATASIZE PUSH1 0x23 DUP4 ADD SLT ISZERO PUSH2 0xA16 JUMPI DUP2 DUP5 ADD CALLDATALOAD PUSH2 0x75A DUP2 PUSH2 0xCCE JUMP JUMPDEST PUSH2 0x766 DUP4 MLOAD SWAP2 DUP3 PUSH2 0xCAC JUMP JUMPDEST DUP2 DUP2 MSTORE DUP7 PUSH1 0x20 SWAP5 DUP6 DUP4 ADD SWAP4 CALLDATASIZE PUSH1 0x24 DUP3 DUP5 ADD ADD GT PUSH2 0x2C7 JUMPI DUP1 PUSH1 0x24 DUP9 SWAP4 ADD DUP7 CALLDATACOPY DUP4 ADD ADD MSTORE PUSH1 0x1 PUSH1 0x1 PUSH1 0xA0 SHL SUB PUSH32 0x0 DUP2 AND SWAP1 PUSH2 0x7C1 ADDRESS DUP4 EQ ISZERO PUSH2 0xCEA JUMP JUMPDEST PUSH2 0x7DE PUSH1 0x0 DUP1 MLOAD PUSH1 0x20 PUSH2 0x1211 DUP4 CODECOPY DUP2 MLOAD SWAP2 MSTORE SWAP3 DUP3 DUP5 SLOAD AND EQ PUSH2 0xD4B JUMP JUMPDEST PUSH2 0x7E6 PUSH2 0xE04 JUMP JUMPDEST PUSH32 0x4910FDFA16FED3260ED0E7147F7CC6DA11A60208B5B9406D12A635614FFD9143 SLOAD PUSH1 0xFF AND ISZERO PUSH2 0x820 JUMPI POP POP POP POP POP POP PUSH2 0x307 SWAP2 POP PUSH2 0x10AC JUMP JUMPDEST DUP7 SWAP3 SWAP4 SWAP5 SWAP6 SWAP7 AND SWAP1 DUP6 MLOAD PUSH4 0x52D1902D PUSH1 0xE0 SHL DUP2 MSTORE DUP8 DUP2 DUP11 DUP2 DUP7 GAS STATICCALL DUP11 SWAP2 DUP2 PUSH2 0x9E3 JUMPI JUMPDEST POP PUSH2 0x8A2 JUMPI DUP7 MLOAD PUSH3 0x461BCD PUSH1 0xE5 SHL DUP2 MSTORE DUP1 DUP11 ADD DUP10 SWAP1 MSTORE PUSH1 0x2E PUSH1 0x24 DUP3 ADD MSTORE PUSH32 0x45524331393637557067726164653A206E657720696D706C656D656E74617469 PUSH1 0x44 DUP3 ADD MSTORE PUSH14 0x6F6E206973206E6F742055555053 PUSH1 0x90 SHL PUSH1 0x64 DUP3 ADD MSTORE PUSH1 0x84 SWAP1 REVERT JUMPDEST SWAP8 SWAP2 SWAP3 SWAP4 SWAP7 SWAP6 SWAP5 SWAP8 SUB PUSH2 0x98E JUMPI POP PUSH2 0x8B9 DUP3 PUSH2 0x10AC JUMP JUMPDEST PUSH32 0xBC7CD75A20EE27FD9ADEBAB32041F755214DBC6BFFA90CC0225B39DA2E5C2D3B DUP8 DUP1 LOG2 DUP6 DUP5 MLOAD ISZERO DUP1 ISZERO SWAP1 PUSH2 0x986 JUMPI JUMPDEST PUSH2 0x8F7 JUMPI JUMPDEST POP POP POP POP POP POP DUP1 RETURN JUMPDEST DUP1 PUSH2 0x970 SWAP7 DUP5 MLOAD SWAP7 PUSH2 0x908 DUP9 PUSH2 0xC7A JUMP JUMPDEST PUSH1 0x27 DUP9 MSTORE PUSH32 0x416464726573733A206C6F772D6C6576656C2064656C65676174652063616C6C DUP8 DUP10 ADD MSTORE PUSH7 0x819985A5B1959 PUSH1 0xCA SHL DUP7 DUP10 ADD MSTORE MLOAD SWAP1 DUP5 GAS DELEGATECALL SWAP2 RETURNDATASIZE ISZERO PUSH2 0x97C JUMPI RETURNDATASIZE PUSH2 0x962 PUSH2 0x959 DUP3 PUSH2 0xCCE JUMP JUMPDEST SWAP3 MLOAD SWAP3 DUP4 PUSH2 0xCAC JUMP JUMPDEST DUP2 MSTORE DUP7 DUP2 SWAP5 RETURNDATASIZE SWAP3 ADD RETURNDATACOPY PUSH2 0x113C JUMP JUMPDEST POP CODESIZE DUP1 DUP1 DUP1 DUP1 DUP6 PUSH2 0x8EE JUMP JUMPDEST POP PUSH1 0x60 SWAP3 POP PUSH2 0x113C JUMP JUMPDEST POP PUSH1 0x1 PUSH2 0x8E9 JUMP JUMPDEST DUP4 MLOAD PUSH3 0x461BCD PUSH1 0xE5 SHL DUP2 MSTORE SWAP1 DUP2 ADD DUP6 SWAP1 MSTORE PUSH1 0x29 PUSH1 0x24 DUP3 ADD MSTORE PUSH32 0x45524331393637557067726164653A20756E737570706F727465642070726F78 PUSH1 0x44 DUP3 ADD MSTORE PUSH9 0x1A58589B1955555251 PUSH1 0xBA SHL PUSH1 0x64 DUP3 ADD MSTORE PUSH1 0x84 SWAP1 REVERT JUMPDEST SWAP1 SWAP2 POP DUP9 DUP2 DUP2 RETURNDATASIZE DUP4 GT PUSH2 0xA0F JUMPI JUMPDEST PUSH2 0x9FB DUP2 DUP4 PUSH2 0xCAC JUMP JUMPDEST DUP2 ADD SUB SLT PUSH2 0xA0B JUMPI MLOAD SWAP1 CODESIZE PUSH2 0x843 JUMP JUMPDEST DUP11 DUP1 REVERT JUMPDEST POP RETURNDATASIZE PUSH2 0x9F1 JUMP JUMPDEST DUP5 DUP1 REVERT JUMPDEST POP SWAP1 CALLVALUE PUSH2 0x2C7 JUMPI PUSH1 0x20 DUP1 PUSH1 0x3 NOT CALLDATASIZE ADD SLT PUSH2 0xC0B JUMPI PUSH2 0xA36 PUSH2 0xC5F JUMP JUMPDEST SWAP2 PUSH1 0x1 PUSH1 0x1 PUSH1 0xA0 SHL SUB PUSH32 0x0 DUP2 AND PUSH2 0xA6E ADDRESS DUP3 EQ ISZERO PUSH2 0xCEA JUMP JUMPDEST PUSH2 0xA8B PUSH1 0x0 DUP1 MLOAD PUSH1 0x20 PUSH2 0x1211 DUP4 CODECOPY DUP2 MLOAD SWAP2 MSTORE SWAP2 DUP4 DUP4 SLOAD AND EQ PUSH2 0xD4B JUMP JUMPDEST PUSH2 0xA93 PUSH2 0xE04 JUMP JUMPDEST DUP3 MLOAD SWAP1 DUP5 DUP3 ADD SWAP3 DUP3 DUP5 LT PUSH8 0xFFFFFFFFFFFFFFFF DUP6 GT OR PUSH2 0xBF8 JUMPI DUP4 DUP6 MSTORE DUP9 DUP4 MSTORE PUSH32 0x4910FDFA16FED3260ED0E7147F7CC6DA11A60208B5B9406D12A635614FFD9143 SLOAD PUSH1 0xFF AND ISZERO PUSH2 0xAED JUMPI POP POP POP POP POP POP PUSH2 0x307 SWAP2 POP PUSH2 0x10AC JUMP JUMPDEST DUP7 SWAP3 SWAP4 SWAP5 SWAP6 SWAP7 AND SWAP1 DUP6 MLOAD PUSH4 0x52D1902D PUSH1 0xE0 SHL DUP2 MSTORE DUP8 DUP2 DUP11 DUP2 DUP7 GAS STATICCALL DUP11 SWAP2 DUP2 PUSH2 0xBC9 JUMPI JUMPDEST POP PUSH2 0xB6F JUMPI DUP7 MLOAD PUSH3 0x461BCD PUSH1 0xE5 SHL DUP2 MSTORE DUP1 DUP11 ADD DUP10 SWAP1 MSTORE PUSH1 0x2E PUSH1 0x24 DUP3 ADD MSTORE PUSH32 0x45524331393637557067726164653A206E657720696D706C656D656E74617469 PUSH1 0x44 DUP3 ADD MSTORE PUSH14 0x6F6E206973206E6F742055555053 PUSH1 0x90 SHL PUSH1 0x64 DUP3 ADD MSTORE PUSH1 0x84 SWAP1 REVERT JUMPDEST SWAP8 SWAP2 SWAP3 SWAP4 SWAP7 SWAP6 SWAP5 SWAP8 SUB PUSH2 0x98E JUMPI POP PUSH2 0xB86 DUP3 PUSH2 0x10AC JUMP JUMPDEST PUSH32 0xBC7CD75A20EE27FD9ADEBAB32041F755214DBC6BFFA90CC0225B39DA2E5C2D3B DUP8 DUP1 LOG2 DUP6 DUP5 MLOAD ISZERO DUP1 ISZERO SWAP1 PUSH2 0xBC2 JUMPI PUSH2 0x8F7 JUMPI POP POP POP POP POP POP DUP1 RETURN JUMPDEST POP DUP1 PUSH2 0x8E9 JUMP JUMPDEST SWAP1 SWAP2 POP DUP9 DUP2 DUP2 RETURNDATASIZE DUP4 GT PUSH2 0xBF1 JUMPI JUMPDEST PUSH2 0xBE1 DUP2 DUP4 PUSH2 0xCAC JUMP JUMPDEST DUP2 ADD SUB SLT PUSH2 0xA0B JUMPI MLOAD SWAP1 CODESIZE PUSH2 0xB10 JUMP JUMPDEST POP RETURNDATASIZE PUSH2 0xBD7 JUMP JUMPDEST PUSH4 0x4E487B71 PUSH1 0xE0 SHL DUP10 MSTORE PUSH1 0x41 DUP9 MSTORE PUSH1 0x24 DUP10 REVERT JUMPDEST DUP4 DUP1 REVERT JUMPDEST POP POP CALLVALUE PUSH2 0x3DC JUMPI DUP2 PUSH1 0x3 NOT CALLDATASIZE ADD SLT PUSH2 0x3DC JUMPI PUSH1 0x20 SWAP1 PUSH1 0xCC SLOAD SWAP1 MLOAD SWAP1 DUP2 MSTORE RETURN JUMPDEST POP CALLVALUE PUSH2 0x2C7 JUMPI PUSH1 0x20 CALLDATASIZE PUSH1 0x3 NOT ADD SLT PUSH2 0x2C7 JUMPI PUSH1 0xC9 SLOAD PUSH1 0x20 SWAP4 POP PUSH1 0x1 PUSH1 0x1 PUSH1 0xA0 SHL SUB SWAP2 PUSH2 0x4CA SWAP2 ADDRESS SWAP2 CALLDATALOAD SWAP1 DUP5 AND PUSH2 0xDAC JUMP JUMPDEST PUSH1 0x4 CALLDATALOAD SWAP1 PUSH1 0x1 PUSH1 0x1 PUSH1 0xA0 SHL SUB DUP3 AND DUP3 SUB PUSH2 0xC75 JUMPI JUMP JUMPDEST PUSH1 0x0 DUP1 REVERT JUMPDEST PUSH1 0x60 DUP2 ADD SWAP1 DUP2 LT PUSH8 0xFFFFFFFFFFFFFFFF DUP3 GT OR PUSH2 0xC96 JUMPI PUSH1 0x40 MSTORE JUMP JUMPDEST PUSH4 0x4E487B71 PUSH1 0xE0 SHL PUSH1 0x0 MSTORE PUSH1 0x41 PUSH1 0x4 MSTORE PUSH1 0x24 PUSH1 0x0 REVERT JUMPDEST SWAP1 PUSH1 0x1F DUP1 NOT SWAP2 ADD AND DUP2 ADD SWAP1 DUP2 LT PUSH8 0xFFFFFFFFFFFFFFFF DUP3 GT OR PUSH2 0xC96 JUMPI PUSH1 0x40 MSTORE JUMP JUMPDEST PUSH8 0xFFFFFFFFFFFFFFFF DUP2 GT PUSH2 0xC96 JUMPI PUSH1 0x1F ADD PUSH1 0x1F NOT AND PUSH1 0x20 ADD SWAP1 JUMP JUMPDEST ISZERO PUSH2 0xCF1 JUMPI JUMP JUMPDEST PUSH1 0x40 MLOAD PUSH3 0x461BCD PUSH1 0xE5 SHL DUP2 MSTORE PUSH1 0x20 PUSH1 0x4 DUP3 ADD MSTORE PUSH1 0x2C PUSH1 0x24 DUP3 ADD MSTORE PUSH32 0x46756E6374696F6E206D7573742062652063616C6C6564207468726F75676820 PUSH1 0x44 DUP3 ADD MSTORE PUSH12 0x19195B1959D85D1958D85B1B PUSH1 0xA2 SHL PUSH1 0x64 DUP3 ADD MSTORE PUSH1 0x84 SWAP1 REVERT JUMPDEST ISZERO PUSH2 0xD52 JUMPI JUMP JUMPDEST PUSH1 0x40 MLOAD PUSH3 0x461BCD PUSH1 0xE5 SHL DUP2 MSTORE PUSH1 0x20 PUSH1 0x4 DUP3 ADD MSTORE PUSH1 0x2C PUSH1 0x24 DUP3 ADD MSTORE PUSH32 0x46756E6374696F6E206D7573742062652063616C6C6564207468726F75676820 PUSH1 0x44 DUP3 ADD MSTORE PUSH12 0x6163746976652070726F7879 PUSH1 0xA0 SHL PUSH1 0x64 DUP3 ADD MSTORE PUSH1 0x84 SWAP1 REVERT JUMPDEST SWAP2 PUSH1 0x43 SWAP2 PUSH1 0x55 SWAP4 PUSH1 0x40 MLOAD SWAP3 PUSH1 0x38 DUP5 ADD MSTORE PUSH16 0x5AF43D82803E903D91602B57FD5BF3FF PUSH1 0x24 DUP5 ADD MSTORE PUSH1 0x14 DUP4 ADD MSTORE PUSH20 0x3D602D80600A3D3981F3363D3D373D3D3D363D73 DUP3 MSTORE PUSH1 0x58 DUP3 ADD MSTORE PUSH1 0x37 PUSH1 0xC DUP3 ADD KECCAK256 PUSH1 0x78 DUP3 ADD MSTORE ADD KECCAK256 SWAP1 JUMP JUMPDEST PUSH1 0x97 SLOAD PUSH1 0x1 PUSH1 0x1 PUSH1 0xA0 SHL SUB AND CALLER SUB PUSH2 0xE18 JUMPI JUMP JUMPDEST PUSH1 0x64 PUSH1 0x40 MLOAD PUSH3 0x461BCD PUSH1 0xE5 SHL DUP2 MSTORE PUSH1 0x20 PUSH1 0x4 DUP3 ADD MSTORE PUSH1 0x20 PUSH1 0x24 DUP3 ADD MSTORE PUSH32 0x4F776E61626C653A2063616C6C6572206973206E6F7420746865206F776E6572 PUSH1 0x44 DUP3 ADD MSTORE REVERT JUMPDEST PUSH1 0x97 DUP1 SLOAD PUSH1 0x1 PUSH1 0x1 PUSH1 0xA0 SHL SUB SWAP3 DUP4 AND PUSH1 0x1 PUSH1 0x1 PUSH1 0xA0 SHL SUB NOT DUP3 AND DUP2 OR SWAP1 SWAP3 SSTORE SWAP1 SWAP2 AND PUSH32 0x8BE0079C531659141344CD1FD0A4F28419497F9722A3DAAFE3B4186F6B6457E0 PUSH1 0x0 DUP1 LOG3 JUMP JUMPDEST PUSH1 0x1 PUSH1 0x1 PUSH1 0xA0 SHL SUB SWAP3 SWAP2 SWAP1 DUP4 AND DUP1 ISZERO PUSH2 0x103A JUMPI PUSH1 0xC9 SLOAD SWAP4 PUSH2 0xEC9 ADDRESS DUP5 DUP4 DUP9 AND PUSH2 0xDAC JUMP JUMPDEST SWAP5 DUP6 EXTCODESIZE ISZERO PUSH2 0xF08 JUMPI JUMPDEST POP PUSH32 0x1F7761C69C1E6ED50FD7B87C3BE8AF863A3977E31508A30BCB6FF930731D5DAC PUSH1 0x20 DUP3 PUSH1 0xCA SLOAD AND SWAP3 PUSH1 0x40 MLOAD SWAP4 DUP5 MSTORE DUP8 AND SWAP3 LOG4 JUMP JUMPDEST SWAP5 POP PUSH15 0x5AF43D82803E903D91602B57FD5BF3 PUSH1 0x0 SWAP6 PUSH23 0x3D602D80600A3D3981F3363D3D373D3D3D363D73000000 PUSH3 0xFFFFFF DUP3 PUSH1 0x88 SHR AND OR DUP8 MSTORE PUSH15 0xFFFFFFFFFFFFFFFFFFFFFFFFFFFFFF NOT SWAP1 PUSH1 0x78 SHL AND OR PUSH1 0x20 MSTORE DUP3 PUSH1 0x37 PUSH1 0x9 DUP8 CREATE2 DUP2 DUP2 AND SWAP1 DUP2 ISZERO PUSH2 0xFF5 JUMPI SWAP6 DUP3 PUSH1 0xCB SLOAD AND DUP4 PUSH1 0xCA SLOAD AND SWAP1 DUP4 EXTCODESIZE ISZERO PUSH2 0x2C7 JUMPI SWAP1 PUSH1 0x64 DUP4 SWAP3 DUP4 PUSH1 0x40 MLOAD SWAP7 DUP8 SWAP5 DUP6 SWAP4 PUSH4 0xC0C53B8B PUSH1 0xE0 SHL DUP6 MSTORE DUP12 PUSH1 0x4 DUP7 ADD MSTORE PUSH1 0x24 DUP6 ADD MSTORE PUSH1 0x44 DUP5 ADD MSTORE GAS CALL DUP1 ISZERO PUSH2 0xFE8 JUMPI PUSH2 0xFBA JUMPI JUMPDEST POP PUSH2 0xED2 JUMP JUMPDEST PUSH8 0xFFFFFFFFFFFFFFFF DUP3 GT PUSH2 0xFD4 JUMPI POP PUSH1 0x40 MSTORE CODESIZE DUP1 PUSH2 0xFB4 JUMP JUMPDEST PUSH4 0x4E487B71 PUSH1 0xE0 SHL DUP2 MSTORE PUSH1 0x41 PUSH1 0x4 MSTORE PUSH1 0x24 SWAP1 REVERT JUMPDEST POP PUSH1 0x40 MLOAD SWAP1 RETURNDATASIZE SWAP1 DUP3 RETURNDATACOPY RETURNDATASIZE SWAP1 REVERT JUMPDEST PUSH1 0x40 MLOAD PUSH3 0x461BCD PUSH1 0xE5 SHL DUP2 MSTORE PUSH1 0x20 PUSH1 0x4 DUP3 ADD MSTORE PUSH1 0x17 PUSH1 0x24 DUP3 ADD MSTORE PUSH32 0x455243313136373A2063726561746532206661696C6564000000000000000000 PUSH1 0x44 DUP3 ADD MSTORE PUSH1 0x64 SWAP1 REVERT JUMPDEST PUSH1 0x40 MLOAD PUSH4 0x62EF659 PUSH1 0xE2 SHL DUP2 MSTORE PUSH1 0x4 SWAP1 REVERT JUMPDEST ISZERO PUSH2 0x1053 JUMPI JUMP JUMPDEST PUSH1 0x40 MLOAD PUSH3 0x461BCD PUSH1 0xE5 SHL DUP2 MSTORE PUSH1 0x20 PUSH1 0x4 DUP3 ADD MSTORE PUSH1 0x2B PUSH1 0x24 DUP3 ADD MSTORE PUSH32 0x496E697469616C697A61626C653A20636F6E7472616374206973206E6F742069 PUSH1 0x44 DUP3 ADD MSTORE PUSH11 0x6E697469616C697A696E67 PUSH1 0xA8 SHL PUSH1 0x64 DUP3 ADD MSTORE PUSH1 0x84 SWAP1 REVERT JUMPDEST DUP1 EXTCODESIZE ISZERO PUSH2 0x10E1 JUMPI PUSH1 0x0 DUP1 MLOAD PUSH1 0x20 PUSH2 0x1211 DUP4 CODECOPY DUP2 MLOAD SWAP2 MSTORE DUP1 SLOAD PUSH1 0x1 PUSH1 0x1 PUSH1 0xA0 SHL SUB NOT AND PUSH1 0x1 PUSH1 0x1 PUSH1 0xA0 SHL SUB SWAP1 SWAP3 AND SWAP2 SWAP1 SWAP2 OR SWAP1 SSTORE JUMP JUMPDEST PUSH1 0x40 MLOAD PUSH3 0x461BCD PUSH1 0xE5 SHL DUP2 MSTORE PUSH1 0x20 PUSH1 0x4 DUP3 ADD MSTORE PUSH1 0x2D PUSH1 0x24 DUP3 ADD MSTORE PUSH32 0x455243313936373A206E657720696D706C656D656E746174696F6E206973206E PUSH1 0x44 DUP3 ADD MSTORE PUSH13 0x1BDD08184818DBDB9D1C9858DD PUSH1 0x9A SHL PUSH1 0x64 DUP3 ADD MSTORE PUSH1 0x84 SWAP1 REVERT JUMPDEST SWAP2 SWAP3 SWAP1 ISZERO PUSH2 0x119E JUMPI POP DUP2 MLOAD ISZERO PUSH2 0x1150 JUMPI POP SWAP1 JUMP JUMPDEST EXTCODESIZE ISZERO PUSH2 0x1159 JUMPI SWAP1 JUMP JUMPDEST PUSH1 0x40 MLOAD PUSH3 0x461BCD PUSH1 0xE5 SHL DUP2 MSTORE PUSH1 0x20 PUSH1 0x4 DUP3 ADD MSTORE PUSH1 0x1D PUSH1 0x24 DUP3 ADD MSTORE PUSH32 0x416464726573733A2063616C6C20746F206E6F6E2D636F6E7472616374000000 PUSH1 0x44 DUP3 ADD MSTORE PUSH1 0x64 SWAP1 REVERT JUMPDEST DUP3 MLOAD SWAP1 SWAP2 POP ISZERO PUSH2 0x11B1 JUMPI POP DUP1 MLOAD SWAP1 PUSH1 0x20 ADD REVERT JUMPDEST PUSH1 0x40 MLOAD SWAP1 PUSH3 0x461BCD PUSH1 0xE5 SHL DUP3 MSTORE DUP2 PUSH1 0x20 DUP1 PUSH1 0x4 DUP4 ADD MSTORE DUP3 MLOAD SWAP1 DUP2 PUSH1 0x24 DUP5 ADD MSTORE PUSH1 0x0 SWAP4 JUMPDEST DUP3 DUP6 LT PUSH2 0x11F7 JUMPI POP POP PUSH1 0x44 SWAP3 POP PUSH1 0x0 DUP4 DUP3 DUP5 ADD ADD MSTORE PUSH1 0x1F DUP1 NOT SWAP2 ADD AND DUP2 ADD SUB ADD SWAP1 REVERT JUMPDEST DUP5 DUP2 ADD DUP3 ADD MLOAD DUP7 DUP7 ADD PUSH1 0x44 ADD MSTORE SWAP4 DUP2 ADD SWAP4 DUP6 SWAP4 POP PUSH2 0x11D4 JUMP INVALID CALLDATASIZE ADDMOD SWAP5 LOG1 EXTCODESIZE LOG1 LOG3 0x21 MOD PUSH8 0xC828492DB98DCA3E KECCAK256 PUSH23 0xCC3735A920A3CA505D382BBCA264697066735822122052 MUL 0xD3 0xD4 0x25 SWAP2 PUSH22 0x325695E05E03A44AB09EA9A2D53E45FD7FB3F7AA258E MULMOD 0xBD 0xC3 PUSH5 0x736F6C6343 STOP ADDMOD XOR STOP CALLER "},"methodIdentifiers":{"createWallet(address)":"b054a9e8","createWallet(address,bytes32)":"b20ca818","entryPoint()":"b0d691fe","getAddress(bytes32)":"21f8a721","implementation()":"5c60da1b","initialize(address,address,address,address)":"f8c8765e","owner()":"8da5cb5b","proxiableUUID()":"52d1902d","renounceOwnership()":"715018a6","sessionManager()":"b7b13f79","setEntryPoint(address)":"584465f2","setImplementation(address)":"d784d426","setSessionManager(address)":"674f0abd","transferOwnership(address)":"f2fde38b","upgradeTo(address)":"3659cfe6","upgradeToAndCall(address,bytes)":"4f1ef286","walletCount()":"29b57c69"}}}}}