{
  "_format": "hh-sol-artifact-1",
  "contractName": "OrganizationCredentialAnchor",
  "sourceName": "src/OrganizationCredentialAnchor.sol",
  "abi": [
    {
      "inputs": [],
      "stateMutability": "nonpayable",
      "type": "constructor"
    },
    {
      "inputs": [
        {
          "internalType": "address",
          "name": "target",
          "type": "address"
        }
      ],
      "name": "AddressEmptyCode",
      "type": "error"
    },
    {
      "inputs": [
        {
          "internalType": "address",
          "name": "implementation",
          "type": "address"
        }
      ],
      "name": "ERC1967InvalidImplementation",
      "type": "error"
    },
    {
      "inputs": [],
      "name": "ERC1967NonPayable",
      "type": "error"
    },
    {
      "inputs": [],
      "name": "EnforcedPause",
      "type": "error"
    },
    {
      "inputs": [],
      "name": "ExpectedPause",
      "type": "error"
    },
    {
      "inputs": [],
      "name": "FailedCall",
      "type": "error"
    },
    {
      "inputs": [],
      "name": "InvalidInitialization",
      "type": "error"
    },
    {
      "inputs": [],
      "name": "InvalidOrganizationId",
      "type": "error"
    },
    {
      "inputs": [],
      "name": "NotInitializing",
      "type": "error"
    },
    {
      "inputs": [
        {
          "internalType": "address",
          "name": "owner",
          "type": "address"
        }
      ],
      "name": "OwnableInvalidOwner",
      "type": "error"
    },
    {
      "inputs": [
        {
          "internalType": "address",
          "name": "account",
          "type": "address"
        }
      ],
      "name": "OwnableUnauthorizedAccount",
      "type": "error"
    },
    {
      "inputs": [],
      "name": "RootAlreadyCurrent",
      "type": "error"
    },
    {
      "inputs": [],
      "name": "UUPSUnauthorizedCallContext",
      "type": "error"
    },
    {
      "inputs": [
        {
          "internalType": "bytes32",
          "name": "slot",
          "type": "bytes32"
        }
      ],
      "name": "UUPSUnsupportedProxiableUUID",
      "type": "error"
    },
    {
      "anonymous": false,
      "inputs": [
        {
          "indexed": true,
          "internalType": "bytes32",
          "name": "organizationId",
          "type": "bytes32"
        },
        {
          "indexed": false,
          "internalType": "uint64",
          "name": "newEpoch",
          "type": "uint64"
        }
      ],
      "name": "EpochIncremented",
      "type": "event"
    },
    {
      "anonymous": false,
      "inputs": [
        {
          "indexed": false,
          "internalType": "uint64",
          "name": "version",
          "type": "uint64"
        }
      ],
      "name": "Initialized",
      "type": "event"
    },
    {
      "anonymous": false,
      "inputs": [
        {
          "indexed": true,
          "internalType": "bytes32",
          "name": "organizationId",
          "type": "bytes32"
        },
        {
          "indexed": false,
          "internalType": "bytes32",
          "name": "newMetadataHash",
          "type": "bytes32"
        }
      ],
      "name": "MetadataHashUpdated",
      "type": "event"
    },
    {
      "anonymous": false,
      "inputs": [
        {
          "indexed": true,
          "internalType": "address",
          "name": "previousOwner",
          "type": "address"
        },
        {
          "indexed": true,
          "internalType": "address",
          "name": "newOwner",
          "type": "address"
        }
      ],
      "name": "OwnershipTransferred",
      "type": "event"
    },
    {
      "anonymous": false,
      "inputs": [
        {
          "indexed": false,
          "internalType": "address",
          "name": "account",
          "type": "address"
        }
      ],
      "name": "Paused",
      "type": "event"
    },
    {
      "anonymous": false,
      "inputs": [
        {
          "indexed": true,
          "internalType": "bytes32",
          "name": "organizationId",
          "type": "bytes32"
        },
        {
          "indexed": false,
          "internalType": "bytes32",
          "name": "oldRoot",
          "type": "bytes32"
        },
        {
          "indexed": false,
          "internalType": "bytes32",
          "name": "newRoot",
          "type": "bytes32"
        }
      ],
      "name": "RevokedRootUpdated",
      "type": "event"
    },
    {
      "anonymous": false,
      "inputs": [
        {
          "indexed": true,
          "internalType": "bytes32",
          "name": "organizationId",
          "type": "bytes32"
        },
        {
          "indexed": false,
          "internalType": "bytes32",
          "name": "oldRoot",
          "type": "bytes32"
        },
        {
          "indexed": false,
          "internalType": "bytes32",
          "name": "newRoot",
          "type": "bytes32"
        }
      ],
      "name": "RootUpdated",
      "type": "event"
    },
    {
      "anonymous": false,
      "inputs": [
        {
          "indexed": false,
          "internalType": "address",
          "name": "account",
          "type": "address"
        }
      ],
      "name": "Unpaused",
      "type": "event"
    },
    {
      "anonymous": false,
      "inputs": [
        {
          "indexed": true,
          "internalType": "address",
          "name": "implementation",
          "type": "address"
        }
      ],
      "name": "Upgraded",
      "type": "event"
    },
    {
      "anonymous": false,
      "inputs": [
        {
          "indexed": true,
          "internalType": "bytes32",
          "name": "organizationId",
          "type": "bytes32"
        },
        {
          "indexed": false,
          "internalType": "enum OrganizationCredentialAnchor.Visibility",
          "name": "newVisibility",
          "type": "uint8"
        }
      ],
      "name": "VisibilityChanged",
      "type": "event"
    },
    {
      "inputs": [],
      "name": "UPGRADE_INTERFACE_VERSION",
      "outputs": [
        {
          "internalType": "string",
          "name": "",
          "type": "string"
        }
      ],
      "stateMutability": "view",
      "type": "function"
    },
    {
      "inputs": [],
      "name": "currentEpoch",
      "outputs": [
        {
          "internalType": "uint64",
          "name": "",
          "type": "uint64"
        }
      ],
      "stateMutability": "view",
      "type": "function"
    },
    {
      "inputs": [],
      "name": "currentRoot",
      "outputs": [
        {
          "internalType": "bytes32",
          "name": "",
          "type": "bytes32"
        }
      ],
      "stateMutability": "view",
      "type": "function"
    },
    {
      "inputs": [],
      "name": "getRoots",
      "outputs": [
        {
          "internalType": "bytes32",
          "name": "",
          "type": "bytes32"
        },
        {
          "internalType": "bytes32",
          "name": "",
          "type": "bytes32"
        }
      ],
      "stateMutability": "view",
      "type": "function"
    },
    {
      "inputs": [],
      "name": "incrementEpoch",
      "outputs": [],
      "stateMutability": "nonpayable",
      "type": "function"
    },
    {
      "inputs": [
        {
          "internalType": "bytes32",
          "name": "organizationId_",
          "type": "bytes32"
        },
        {
          "internalType": "address",
          "name": "owner_",
          "type": "address"
        }
      ],
      "name": "initialize",
      "outputs": [],
      "stateMutability": "nonpayable",
      "type": "function"
    },
    {
      "inputs": [],
      "name": "metadataHash",
      "outputs": [
        {
          "internalType": "bytes32",
          "name": "",
          "type": "bytes32"
        }
      ],
      "stateMutability": "view",
      "type": "function"
    },
    {
      "inputs": [],
      "name": "organizationId",
      "outputs": [
        {
          "internalType": "bytes32",
          "name": "",
          "type": "bytes32"
        }
      ],
      "stateMutability": "view",
      "type": "function"
    },
    {
      "inputs": [],
      "name": "owner",
      "outputs": [
        {
          "internalType": "address",
          "name": "",
          "type": "address"
        }
      ],
      "stateMutability": "view",
      "type": "function"
    },
    {
      "inputs": [],
      "name": "pause",
      "outputs": [],
      "stateMutability": "nonpayable",
      "type": "function"
    },
    {
      "inputs": [],
      "name": "paused",
      "outputs": [
        {
          "internalType": "bool",
          "name": "",
          "type": "bool"
        }
      ],
      "stateMutability": "view",
      "type": "function"
    },
    {
      "inputs": [],
      "name": "proxiableUUID",
      "outputs": [
        {
          "internalType": "bytes32",
          "name": "",
          "type": "bytes32"
        }
      ],
      "stateMutability": "view",
      "type": "function"
    },
    {
      "inputs": [],
      "name": "renounceOwnership",
      "outputs": [],
      "stateMutability": "nonpayable",
      "type": "function"
    },
    {
      "inputs": [],
      "name": "revokedRoot",
      "outputs": [
        {
          "internalType": "bytes32",
          "name": "",
          "type": "bytes32"
        }
      ],
      "stateMutability": "view",
      "type": "function"
    },
    {
      "inputs": [
        {
          "internalType": "bytes32",
          "name": "metadataHash_",
          "type": "bytes32"
        }
      ],
      "name": "setMetadataHash",
      "outputs": [],
      "stateMutability": "nonpayable",
      "type": "function"
    },
    {
      "inputs": [
        {
          "internalType": "enum OrganizationCredentialAnchor.Visibility",
          "name": "visibility_",
          "type": "uint8"
        }
      ],
      "name": "setVisibility",
      "outputs": [],
      "stateMutability": "nonpayable",
      "type": "function"
    },
    {
      "inputs": [
        {
          "internalType": "address",
          "name": "newOwner",
          "type": "address"
        }
      ],
      "name": "transferOwnership",
      "outputs": [],
      "stateMutability": "nonpayable",
      "type": "function"
    },
    {
      "inputs": [],
      "name": "unpause",
      "outputs": [],
      "stateMutability": "nonpayable",
      "type": "function"
    },
    {
      "inputs": [
        {
          "internalType": "bytes32",
          "name": "newRoot",
          "type": "bytes32"
        }
      ],
      "name": "updateRevokedRoot",
      "outputs": [],
      "stateMutability": "nonpayable",
      "type": "function"
    },
    {
      "inputs": [
        {
          "internalType": "bytes32",
          "name": "newRoot",
          "type": "bytes32"
        }
      ],
      "name": "updateRoot",
      "outputs": [],
      "stateMutability": "nonpayable",
      "type": "function"
    },
    {
      "inputs": [
        {
          "internalType": "address",
          "name": "newImplementation",
          "type": "address"
        },
        {
          "internalType": "bytes",
          "name": "data",
          "type": "bytes"
        }
      ],
      "name": "upgradeToAndCall",
      "outputs": [],
      "stateMutability": "payable",
      "type": "function"
    },
    {
      "inputs": [],
      "name": "visibility",
      "outputs": [
        {
          "internalType": "enum OrganizationCredentialAnchor.Visibility",
          "name": "",
          "type": "uint8"
        }
      ],
      "stateMutability": "view",
      "type": "function"
    }
  ],
  "bytecode": "0x60a080604052346100cc57306080527ff0c57e16840df040f15088dc2f81fe391c3923bec73e23a9662efc9c229c6a009081549060ff8260401c166100bd57506001600160401b036002600160401b031982821601610078575b604051610d8490816100d282396080518181816106ea01526107ca0152f35b6001600160401b031990911681179091556040519081527fc7f505b2f371ae2175ee4913f4499e1f2633a7b5936321eed1cdaeb6115181d290602090a1388080610059565b63f92ee8a960e01b8152600490fd5b600080fdfe6040608081526004908136101561001557600080fd5b600091823560e01c90816321ff997014610a8157816329adec1414610a5657816335a5e06d14610a315781633f4ba83a146109b95781634f1ef2861461074e57816352d1902d146106d55781635c975abb146106a45781636910e33414610542578163715018a6146104d857816376671808146104af57816378a47738146104505781638456cb59146103e85781638da5cb5b146103b257816390578c8114610363578163958efd7a146102ce578163aa024e8b14610262578163ad3cb1cc146101c3578163c471dc3a146101a6578163c5a1d7f01461018457508063c979769814610166578063f2fde38b146101365763fdab463d1461011557600080fd5b346101325781600319360112610132576020906001549051908152f35b5080fd5b823461016357602036600319011261016357610160610153610b23565b61015b610c06565b610b92565b80f35b80fd5b50346101325781600319360112610132576020906002549051908152f35b9050346101a257826003193601126101a25760209250549051908152f35b8280fd5b505034610132578160031936011261013257602091549051908152f35b9050346101a257826003193601126101a2578151908282019082821067ffffffffffffffff83111761024f5750825260058152602090640352e302e360dc1b6020820152825193849260208452825192836020860152825b84811061023957505050828201840152601f01601f19168101030190f35b818101830151888201880152879550820161021b565b634e487b7160e01b855260419052602484fd5b9050346101a25760203660031901126101a2573560028110156101a2576102c87f4bc61a9fe85381b7a3f2c259ddb69cffea398e9e78863236a6533be88323a82c916102ac610c06565b60ff196005541660ff8216176005558454935191829182610afa565b0390a280f35b9050346101a257826003193601126101a2576102e8610c06565b6102f0610c3f565b6003549067ffffffffffffffff908183169082821461035057509160209160017f25cf4cda9c7aa4e31ab35b6038aa6dec34de967df7dc4d544cdbce54604341ae940116809167ffffffffffffffff19161760035584549351908152a280f35b634e487b7160e01b865260119052602485fd5b9050346101a25760203660031901126101a2576020817fc3903fb41bffac2f47a22d266292613db3a9820a70e0e8225b602337b9ec9e89923580916103a6610c06565b5584549351908152a280f35b505034610132578160031936011261013257600080516020610d0f8339815191525490516001600160a01b039091168152602090f35b50503461013257816003193601126101325760207f62e78cea01bee320cd4e420270b5ea74000d11b0c9f74754ebdbfc544b05a25891610426610c06565b61042e610c3f565b600080516020610d2f833981519152805460ff1916600117905551338152a180f35b9050346101a25760203660031901126101a2577f9c6d85fe3758a88c3ed318dc5562ea0bd2e21ef0a289d639e5da475dbfa734f490359161048f610c06565b610497610c3f565b6002548360025584549382519182526020820152a280f35b50503461013257816003193601126101325760209067ffffffffffffffff600354169051908152f35b83346101635780600319360112610163576104f1610c06565b600080516020610d0f83398151915280546001600160a01b0319811690915581906001600160a01b03167f8be0079c531659141344cd1fd0a4f28419497f9722a3daafe3b4186f6b6457e08280a380f35b9050346101a257816003193601126101a25760243581356001600160a01b03821682036106a0577ff0c57e16840df040f15088dc2f81fe391c3923bec73e23a9662efc9c229c6a009283549260ff84871c16159367ffffffffffffffff811680159081610698575b600114908161068e575b159081610685575b506106755767ffffffffffffffff19811660011786556105ee919085610656575b506105e6610c6a565b61015b610c6a565b6105f6610c6a565b811561064857508455610607578280f35b805468ff00000000000000001916905551600181527fc7f505b2f371ae2175ee4913f4499e1f2633a7b5936321eed1cdaeb6115181d290602090a138808280f35b84516312485c8960e11b8152fd5b68ffffffffffffffffff191668010000000000000001178655386105dd565b865163f92ee8a960e01b81528390fd5b905015386105bc565b303b1591506105b4565b8691506105aa565b8480fd5b50503461013257816003193601126101325760209060ff600080516020610d2f833981519152541690519015158152f35b828434610163578060031936011261016357507f00000000000000000000000000000000000000000000000000000000000000006001600160a01b0316300361074157602090517f360894a13ba1a3210667c828492db98dca3e2076cc3735a920a3ca505d382bbc8152f35b5163703e46dd60e11b8152fd5b918091506003193601126101a257610764610b23565b90602493843567ffffffffffffffff81116101325736602382011215610132578085013561079181610b76565b9461079e85519687610b3e565b81865260209182870193368a83830101116109b5578186928b8693018737880101526001600160a01b037f00000000000000000000000000000000000000000000000000000000000000008116308114908115610987575b5061097757610803610c06565b81169585516352d1902d60e01b815283818a818b5afa869181610944575b5061083d575050505050505191634c9c8ce360e01b8352820152fd5b9088888894938c7f360894a13ba1a3210667c828492db98dca3e2076cc3735a920a3ca505d382bbc9182810361092f5750853b1561091b575080546001600160a01b031916821790558451889392917fbc7cd75a20ee27fd9adebab32041f755214dbc6bffa90cc0225b39da2e5c2d3b8580a28251156108fd5750506108ef9582915190845af4913d156108f3573d6108e16108d882610b76565b92519283610b3e565b81528581943d92013e610cab565b5080f35b5060609250610cab565b95509550505050503461090f57505080f35b63b398979f60e01b8152fd5b8651634c9c8ce360e01b8152808501849052fd5b8751632a87526960e21b815280860191909152fd5b9091508481813d8311610970575b61095c8183610b3e565b8101031261096c57519038610821565b8680fd5b503d610952565b855163703e46dd60e11b81528890fd5b9050817f360894a13ba1a3210667c828492db98dca3e2076cc3735a920a3ca505d382bbc54161415386107f6565b8580fd5b9050346101a257826003193601126101a2576109d3610c06565b600080516020610d2f8339815191529081549060ff821615610a23575060ff19169055513381527f5db9ee0a495bf2e6ff9c91a7834c1ba4fdd244a5e8aa4e537bd38aeae4b073aa90602090a180f35b8351638dfc202b60e01b8152fd5b8284346101635780600319360112610163575060015460025482519182526020820152f35b505034610132578160031936011261013257610a7d9060ff60055416905191829182610afa565b0390f35b919050346101a25760203660031901126101a257813591610aa0610c06565b610aa8610c3f565b60015490818414610aec5750907f18bab1ace8e5759bc0eb57ac9b14b1f5f42506bd787d27e2a5e7085dcf0eacaf918360015584549382519182526020820152a280f35b825163149f650b60e11b8152fd5b919060208301926002821015610b0d5752565b634e487b7160e01b600052602160045260246000fd5b600435906001600160a01b0382168203610b3957565b600080fd5b90601f8019910116810190811067ffffffffffffffff821117610b6057604052565b634e487b7160e01b600052604160045260246000fd5b67ffffffffffffffff8111610b6057601f01601f191660200190565b6001600160a01b03908116908115610bed57600080516020610d0f83398151915280546001600160a01b031981168417909155167f8be0079c531659141344cd1fd0a4f28419497f9722a3daafe3b4186f6b6457e0600080a3565b604051631e4fbdf760e01b815260006004820152602490fd5b600080516020610d0f833981519152546001600160a01b03163303610c2757565b60405163118cdaa760e01b8152336004820152602490fd5b60ff600080516020610d2f8339815191525416610c5857565b60405163d93c066560e01b8152600490fd5b60ff7ff0c57e16840df040f15088dc2f81fe391c3923bec73e23a9662efc9c229c6a005460401c1615610c9957565b604051631afcd79f60e31b8152600490fd5b90610cd25750805115610cc057805190602001fd5b60405163d6bda27560e01b8152600490fd5b81511580610d05575b610ce3575090565b604051639996b31560e01b81526001600160a01b039091166004820152602490fd5b50803b15610cdb56fe9016d09d72d40fdae2fd8ceac6b6234c7706214fd39c1cd1e609a0528c199300cd5ed15c6e187e77e9aee88184c21f4f2182ab5827cb3b7e07fbedcd63f03300a26469706673582212202d25b65c691628bcdec694b15487cd9ed08309de14dc3de42df9e95bb06f059864736f6c63430008180033",
  "linkReferences": {},
  "deployedLinkReferences": {}
}