{
  "_format": "hh-sol-artifact-1",
  "contractName": "CapabilityRegistry",
  "sourceName": "src/CapabilityRegistry.sol",
  "abi": [
    {
      "inputs": [],
      "stateMutability": "nonpayable",
      "type": "constructor"
    },
    {
      "inputs": [],
      "name": "ActionRequired",
      "type": "error"
    },
    {
      "inputs": [],
      "name": "AlreadyRevokedCapability",
      "type": "error"
    },
    {
      "inputs": [],
      "name": "CapabilityExists",
      "type": "error"
    },
    {
      "inputs": [],
      "name": "CapabilityNotFound",
      "type": "error"
    },
    {
      "inputs": [],
      "name": "NotARootUpdater",
      "type": "error"
    },
    {
      "inputs": [],
      "name": "NotAuthorizedForCapability",
      "type": "error"
    },
    {
      "anonymous": false,
      "inputs": [
        {
          "indexed": false,
          "internalType": "address",
          "name": "previousAdmin",
          "type": "address"
        },
        {
          "indexed": false,
          "internalType": "address",
          "name": "newAdmin",
          "type": "address"
        }
      ],
      "name": "AdminChanged",
      "type": "event"
    },
    {
      "anonymous": false,
      "inputs": [
        {
          "indexed": true,
          "internalType": "address",
          "name": "beacon",
          "type": "address"
        }
      ],
      "name": "BeaconUpgraded",
      "type": "event"
    },
    {
      "anonymous": false,
      "inputs": [
        {
          "indexed": true,
          "internalType": "bytes32",
          "name": "capabilityId",
          "type": "bytes32"
        },
        {
          "indexed": true,
          "internalType": "bytes32",
          "name": "actionHash",
          "type": "bytes32"
        },
        {
          "indexed": true,
          "internalType": "address",
          "name": "registrar",
          "type": "address"
        }
      ],
      "name": "CapabilityRegistered",
      "type": "event"
    },
    {
      "anonymous": false,
      "inputs": [
        {
          "indexed": true,
          "internalType": "bytes32",
          "name": "capabilityId",
          "type": "bytes32"
        }
      ],
      "name": "CapabilityRevoked",
      "type": "event"
    },
    {
      "anonymous": false,
      "inputs": [
        {
          "indexed": true,
          "internalType": "bytes32",
          "name": "grantLeafHash",
          "type": "bytes32"
        }
      ],
      "name": "GrantRevoked",
      "type": "event"
    },
    {
      "anonymous": false,
      "inputs": [
        {
          "indexed": true,
          "internalType": "address",
          "name": "agent",
          "type": "address"
        },
        {
          "indexed": false,
          "internalType": "bytes32",
          "name": "newRoot",
          "type": "bytes32"
        }
      ],
      "name": "GrantRootUpdated",
      "type": "event"
    },
    {
      "anonymous": false,
      "inputs": [
        {
          "indexed": false,
          "internalType": "uint8",
          "name": "version",
          "type": "uint8"
        }
      ],
      "name": "Initialized",
      "type": "event"
    },
    {
      "anonymous": false,
      "inputs": [
        {
          "indexed": true,
          "internalType": "address",
          "name": "previousOwner",
          "type": "address"
        },
        {
          "indexed": true,
          "internalType": "address",
          "name": "newOwner",
          "type": "address"
        }
      ],
      "name": "OwnershipTransferred",
      "type": "event"
    },
    {
      "anonymous": false,
      "inputs": [
        {
          "indexed": false,
          "internalType": "address",
          "name": "account",
          "type": "address"
        }
      ],
      "name": "Paused",
      "type": "event"
    },
    {
      "anonymous": false,
      "inputs": [
        {
          "indexed": false,
          "internalType": "address",
          "name": "account",
          "type": "address"
        }
      ],
      "name": "Unpaused",
      "type": "event"
    },
    {
      "anonymous": false,
      "inputs": [
        {
          "indexed": true,
          "internalType": "address",
          "name": "implementation",
          "type": "address"
        }
      ],
      "name": "Upgraded",
      "type": "event"
    },
    {
      "inputs": [
        {
          "internalType": "bytes32",
          "name": "",
          "type": "bytes32"
        }
      ],
      "name": "capabilities",
      "outputs": [
        {
          "internalType": "bytes32",
          "name": "actionHash",
          "type": "bytes32"
        },
        {
          "internalType": "address",
          "name": "registrar",
          "type": "address"
        },
        {
          "internalType": "uint64",
          "name": "createdAt",
          "type": "uint64"
        },
        {
          "internalType": "uint64",
          "name": "expiresAt",
          "type": "uint64"
        },
        {
          "internalType": "bool",
          "name": "revoked",
          "type": "bool"
        }
      ],
      "stateMutability": "view",
      "type": "function"
    },
    {
      "inputs": [
        {
          "internalType": "uint256",
          "name": "",
          "type": "uint256"
        }
      ],
      "name": "capabilityList",
      "outputs": [
        {
          "internalType": "bytes32",
          "name": "",
          "type": "bytes32"
        }
      ],
      "stateMutability": "view",
      "type": "function"
    },
    {
      "inputs": [
        {
          "internalType": "bytes32",
          "name": "capabilityId",
          "type": "bytes32"
        }
      ],
      "name": "getCapability",
      "outputs": [
        {
          "components": [
            {
              "internalType": "bytes32",
              "name": "actionHash",
              "type": "bytes32"
            },
            {
              "internalType": "address",
              "name": "registrar",
              "type": "address"
            },
            {
              "internalType": "uint64",
              "name": "createdAt",
              "type": "uint64"
            },
            {
              "internalType": "uint64",
              "name": "expiresAt",
              "type": "uint64"
            },
            {
              "internalType": "bool",
              "name": "revoked",
              "type": "bool"
            }
          ],
          "internalType": "struct CapabilityRegistry.CapabilityDef",
          "name": "",
          "type": "tuple"
        }
      ],
      "stateMutability": "view",
      "type": "function"
    },
    {
      "inputs": [],
      "name": "getCapabilityCount",
      "outputs": [
        {
          "internalType": "uint256",
          "name": "",
          "type": "uint256"
        }
      ],
      "stateMutability": "view",
      "type": "function"
    },
    {
      "inputs": [
        {
          "internalType": "address",
          "name": "",
          "type": "address"
        }
      ],
      "name": "grantRoots",
      "outputs": [
        {
          "internalType": "bytes32",
          "name": "",
          "type": "bytes32"
        }
      ],
      "stateMutability": "view",
      "type": "function"
    },
    {
      "inputs": [
        {
          "internalType": "address",
          "name": "owner_",
          "type": "address"
        }
      ],
      "name": "initialize",
      "outputs": [],
      "stateMutability": "nonpayable",
      "type": "function"
    },
    {
      "inputs": [],
      "name": "owner",
      "outputs": [
        {
          "internalType": "address",
          "name": "",
          "type": "address"
        }
      ],
      "stateMutability": "view",
      "type": "function"
    },
    {
      "inputs": [],
      "name": "pause",
      "outputs": [],
      "stateMutability": "nonpayable",
      "type": "function"
    },
    {
      "inputs": [],
      "name": "paused",
      "outputs": [
        {
          "internalType": "bool",
          "name": "",
          "type": "bool"
        }
      ],
      "stateMutability": "view",
      "type": "function"
    },
    {
      "inputs": [],
      "name": "proxiableUUID",
      "outputs": [
        {
          "internalType": "bytes32",
          "name": "",
          "type": "bytes32"
        }
      ],
      "stateMutability": "view",
      "type": "function"
    },
    {
      "inputs": [
        {
          "internalType": "bytes32",
          "name": "capabilityId",
          "type": "bytes32"
        },
        {
          "internalType": "string",
          "name": "action",
          "type": "string"
        },
        {
          "internalType": "uint64",
          "name": "expiresAt",
          "type": "uint64"
        }
      ],
      "name": "registerCapability",
      "outputs": [],
      "stateMutability": "nonpayable",
      "type": "function"
    },
    {
      "inputs": [],
      "name": "renounceOwnership",
      "outputs": [],
      "stateMutability": "nonpayable",
      "type": "function"
    },
    {
      "inputs": [
        {
          "internalType": "bytes32",
          "name": "capabilityId",
          "type": "bytes32"
        }
      ],
      "name": "revokeCapability",
      "outputs": [],
      "stateMutability": "nonpayable",
      "type": "function"
    },
    {
      "inputs": [
        {
          "internalType": "bytes32",
          "name": "grantLeafHash",
          "type": "bytes32"
        },
        {
          "internalType": "bytes32",
          "name": "capabilityId",
          "type": "bytes32"
        }
      ],
      "name": "revokeGrant",
      "outputs": [],
      "stateMutability": "nonpayable",
      "type": "function"
    },
    {
      "inputs": [
        {
          "internalType": "bytes32",
          "name": "",
          "type": "bytes32"
        }
      ],
      "name": "revokedGrants",
      "outputs": [
        {
          "internalType": "bool",
          "name": "",
          "type": "bool"
        }
      ],
      "stateMutability": "view",
      "type": "function"
    },
    {
      "inputs": [
        {
          "internalType": "address",
          "name": "",
          "type": "address"
        }
      ],
      "name": "rootUpdaters",
      "outputs": [
        {
          "internalType": "bool",
          "name": "",
          "type": "bool"
        }
      ],
      "stateMutability": "view",
      "type": "function"
    },
    {
      "inputs": [
        {
          "internalType": "address",
          "name": "updater",
          "type": "address"
        },
        {
          "internalType": "bool",
          "name": "allowed",
          "type": "bool"
        }
      ],
      "name": "setRootUpdater",
      "outputs": [],
      "stateMutability": "nonpayable",
      "type": "function"
    },
    {
      "inputs": [
        {
          "internalType": "address",
          "name": "newOwner",
          "type": "address"
        }
      ],
      "name": "transferOwnership",
      "outputs": [],
      "stateMutability": "nonpayable",
      "type": "function"
    },
    {
      "inputs": [],
      "name": "unpause",
      "outputs": [],
      "stateMutability": "nonpayable",
      "type": "function"
    },
    {
      "inputs": [
        {
          "internalType": "address",
          "name": "agent",
          "type": "address"
        },
        {
          "internalType": "bytes32",
          "name": "newRoot",
          "type": "bytes32"
        }
      ],
      "name": "updateGrantRoot",
      "outputs": [],
      "stateMutability": "nonpayable",
      "type": "function"
    },
    {
      "inputs": [
        {
          "internalType": "address",
          "name": "newImplementation",
          "type": "address"
        }
      ],
      "name": "upgradeTo",
      "outputs": [],
      "stateMutability": "nonpayable",
      "type": "function"
    },
    {
      "inputs": [
        {
          "internalType": "address",
          "name": "newImplementation",
          "type": "address"
        },
        {
          "internalType": "bytes",
          "name": "data",
          "type": "bytes"
        }
      ],
      "name": "upgradeToAndCall",
      "outputs": [],
      "stateMutability": "payable",
      "type": "function"
    },
    {
      "inputs": [
        {
          "internalType": "address",
          "name": "agent",
          "type": "address"
        },
        {
          "internalType": "bytes32",
          "name": "capabilityId",
          "type": "bytes32"
        },
        {
          "internalType": "bytes32",
          "name": "grantLeaf",
          "type": "bytes32"
        },
        {
          "internalType": "bytes32[]",
          "name": "merkleProof",
          "type": "bytes32[]"
        },
        {
          "internalType": "address",
          "name": "grantor",
          "type": "address"
        },
        {
          "internalType": "bytes32",
          "name": "constraintsHash",
          "type": "bytes32"
        },
        {
          "internalType": "uint64",
          "name": "expiresAt",
          "type": "uint64"
        }
      ],
      "name": "verifyCapability",
      "outputs": [
        {
          "internalType": "bool",
          "name": "",
          "type": "bool"
        }
      ],
      "stateMutability": "view",
      "type": "function"
    }
  ],
  "bytecode": "0x60a080604052346100dc57306080526000549060ff8260081c1661008a575060ff8082160361004f575b6040516118a790816100e282396080518181816108ea01528181610a100152610e500152f35b60ff90811916176000557f7f26b83ff96e1f2b6a682f133852f6798a09c465da95921460cefb3847402498602060405160ff8152a138610029565b62461bcd60e51b815260206004820152602760248201527f496e697469616c697a61626c653a20636f6e747261637420697320696e697469604482015266616c697a696e6760c81b6064820152608490fd5b600080fdfe6080604081815260048036101561001557600080fd5b600092833560e01c9081631656cd7e146112045750806324354992146110195780633659cfe614610e29578063372b102d14610dea5780633a7f6cc714610d2c5780633f4ba83a14610c975780634f1ef2861461099757806352d1902d146108d5578063537394101461087e5780635c975abb1461085a5780636f4907a61461082d578063715018a6146107d05780637b23648a146107325780638456cb59146106d757806388a8baf9146106405780638da5cb5b146106175780639cb7c5f414610556578063a6e0a6ce1461051a578063adf4d59e14610441578063b036fe7e1461041d578063c2ead131146103b6578063c4d66de8146101b45763f2fde38b1461012057600080fd5b346101b05760203660031901126101b057610139611239565b916101426115ec565b6001600160a01b0383161561015e578361015b84611644565b80f35b906020608492519162461bcd60e51b8352820152602660248201527f4f776e61626c653a206e6577206f776e657220697320746865207a65726f206160448201526564647265737360d01b6064820152fd5b8280fd5b50346101b05760203660031901126101b0576101ce611239565b83549160ff8360081c1615928380946103a9575b8015610392575b156103385760ff1980821660011787556102639185610327575b5061021d60ff885460081c166102188161168d565b61168d565b61022633611644565b60ff875460081c16906102388261168d565b6102418261168d565b6001805561024e8261168d565b6102578261168d565b6065541660655561168d565b6001600160a01b0382163381036102b6575b505050610280575080f35b60207f7f26b83ff96e1f2b6a682f133852f6798a09c465da95921460cefb38474024989161ff001984541684555160018152a180f35b6102be6115ec565b156102d557506102cd90611644565b388080610275565b608490602085519162461bcd60e51b8352820152602660248201527f4f776e61626c653a206e6577206f776e657220697320746865207a65726f206160448201526564647265737360d01b6064820152fd5b61ffff191661010117875538610203565b845162461bcd60e51b8152602081840152602e60248201527f496e697469616c697a61626c653a20636f6e747261637420697320616c72656160448201526d191e481a5b9a5d1a585b1a5e995960921b6064820152608490fd5b50303b1580156101e95750600160ff8216146101e9565b50600160ff8216106101e2565b50346101b05760203660031901126101b0578160a09360ff9235815261012d6020522080549260026001830154926001600160401b039182910154938351968752600180891b0381166020880152871c1682860152821660608501521c1615156080820152f35b50503461043d578160031936011261043d5760209061012e549051908152f35b5080fd5b50346101b05760203660031901126101b05780359182845261012d60205280842060018101546001600160401b038160a01c161561050b576001600160a01b0390811633141590816104fc575b506104ee576002019182549160ff83821c166104e157505068ff00000000000000001916600160401b1790557f49605d0360d8e90064c274ba9997a3d883d637411e4a6855594c367b31679d668280a280f35b5163f3d4f46960e01b8152fd5b505163093886bb60e21b8152fd5b905060fb54163314153861048e565b505051635ad384df60e11b8152fd5b50346101b05760203660031901126101b057359161012e5483101561055357506105456020926112dc565b91905490519160031b1c8152f35b80fd5b50346101b05760203660031901126101b05782829160a0946080845161057b81611254565b8281528260208201528286820152826060820152015235815261012d60205220600282516105a881611254565b825493848252600184015493600180881b0394602084019580821687526001600160401b0395869384868801948c1c16845201549660ff60806060880197868b1689520198861c1615158852845198895251166020880152511690850152511660608301525115156080820152f35b50503461043d578160031936011261043d5760fb5490516001600160a01b039091168152602090f35b5090346101b057806003193601126101b05761065a611239565b6001600160a01b031691602435919033841415806106c0575b6106b257507fd16ef39bb9aa303cfb433f8db1c88ac040afe9393441412bf5b1f0f97d0104b79160209184865261012f8352818187205551908152a280f35b905163074abf8160e21b8152fd5b5033855261013160205260ff828620541615610673565b50503461043d578160031936011261043d5760207f62e78cea01bee320cd4e420270b5ea74000d11b0c9f74754ebdbfc544b05a258916107156115ec565b61071d6115a8565b600160ff19606554161760655551338152a180f35b5091346105535760e03660031901126105535761074d611239565b90606435916001600160401b03948584116101b057366023850112156101b057830135908582116101b0573660248360051b860101116101b057608435926001600160a01b03841684036105535760c43596871687036105535750916107c7939160209693602460a43594019060443590602435906113eb565b90519015158152f35b83346105535780600319360112610553576107e96115ec565b60fb80546001600160a01b0319811690915581906001600160a01b03167f8be0079c531659141344cd1fd0a4f28419497f9722a3daafe3b4186f6b6457e08280a380f35b50346101b05760203660031901126101b0578160209360ff92358152610130855220541690519015158152f35b50503461043d578160031936011261043d5760209060ff6065541690519015158152f35b50503461043d578060031936011261043d57610898611239565b90602435918215158093036108d1576108af6115ec565b60018060a01b0316835261013160205282209060ff8019835416911617905580f35b8380fd5b508234610553578060031936011261055357507f00000000000000000000000000000000000000000000000000000000000000006001600160a01b0316300361092f57602082516000805160206118528339815191528152f35b6020608492519162461bcd60e51b8352820152603860248201527f555550535570677261646561626c653a206d757374206e6f742062652063616c60448201527f6c6564207468726f7567682064656c656761746563616c6c00000000000000006064820152fd5b5090806003193601126101b0576109ac611239565b90602435906001600160401b038211610c935736602383011215610c9357818401356109d7816112c1565b6109e3835191826112a0565b818152866020948583019336602482840101116101b0578060248893018637830101526001600160a01b037f0000000000000000000000000000000000000000000000000000000000000000811690610a3e30831415611329565b610a5b60008051602061185283398151915292828454161461138a565b610a636115ec565b7f4910fdfa16fed3260ed0e7147f7cc6da11a60208b5b9406d12a635614ffd91435460ff1615610a9d5750505050505061015b91506116ed565b869293949596169085516352d1902d60e01b815287818a81865afa8a9181610c60575b50610b1f57865162461bcd60e51b8152808a01899052602e60248201527f45524331393637557067726164653a206e657720696d706c656d656e7461746960448201526d6f6e206973206e6f74205555505360901b6064820152608490fd5b979192939695949703610c0b5750610b36826116ed565b7fbc7cd75a20ee27fd9adebab32041f755214dbc6bffa90cc0225b39da2e5c2d3b8780a285845115801590610c03575b610b74575b50505050505080f35b80610bed96845196610b8588611285565b602788527f416464726573733a206c6f772d6c6576656c2064656c65676174652063616c6c87890152660819985a5b195960ca1b868901525190845af4913d15610bf9573d610bdf610bd6826112c1565b925192836112a0565b81528681943d92013e61177d565b50388080808085610b6b565b506060925061177d565b506001610b66565b835162461bcd60e51b8152908101859052602960248201527f45524331393637557067726164653a20756e737570706f727465642070726f786044820152681a58589b195555525160ba1b6064820152608490fd5b9091508881813d8311610c8c575b610c7881836112a0565b81010312610c8857519038610ac0565b8a80fd5b503d610c6e565b8480fd5b50346101b057826003193601126101b057610cb06115ec565b6065549060ff821615610cf2575060ff1916606555513381527f5db9ee0a495bf2e6ff9c91a7834c1ba4fdd244a5e8aa4e537bd38aeae4b073aa90602090a180f35b606490602084519162461bcd60e51b8352820152601460248201527314185d5cd8589b194e881b9bdd081c185d5cd95960621b6044820152fd5b5090346101b057806003193601126101b057602435835261012d6020528083206001015482359290336001600160a01b0391821614159081610ddb575b50610dcd57828452610130908160205260ff8386205416610dbf57508284526020528220805460ff191660011790557fbc7909d45ab794ee63122077124d9ce05bea1db0768be90c77d2eddbdf1eef4f8280a280f35b825163f3d4f46960e01b8152fd5b905163093886bb60e21b8152fd5b905060fb541633141538610d69565b50503461043d57602036600319011261043d5760209160ff9082906001600160a01b03610e15611239565b168152610131855220541690519015158152f35b5090346101b0576020806003193601126108d157610e45611239565b916001600160a01b037f00000000000000000000000000000000000000000000000000000000000000008116610e7d30821415611329565b610e9a60008051602061185283398151915291838354161461138a565b610ea26115ec565b825190848201928284106001600160401b03851117611006578385528883527f4910fdfa16fed3260ed0e7147f7cc6da11a60208b5b9406d12a635614ffd91435460ff1615610efb5750505050505061015b91506116ed565b869293949596169085516352d1902d60e01b815287818a81865afa8a9181610fd7575b50610f7d57865162461bcd60e51b8152808a01899052602e60248201527f45524331393637557067726164653a206e657720696d706c656d656e7461746960448201526d6f6e206973206e6f74205555505360901b6064820152608490fd5b979192939695949703610c0b5750610f94826116ed565b7fbc7cd75a20ee27fd9adebab32041f755214dbc6bffa90cc0225b39da2e5c2d3b8780a285845115801590610fd057610b745750505050505080f35b5080610b66565b9091508881813d8311610fff575b610fef81836112a0565b81010312610c8857519038610f1e565b503d610fe5565b634e487b7160e01b895260418852602489fd5b5091903461043d57606036600319011261043d57823590602435906001600160401b0390818311610c935736602384011215610c9357828601359180831161120057366024848601011161120057604435928184168094036111fc5761107d6115a8565b6110856115ec565b85875261012d94602091868352836001868b20015460a01c166111ec5780156111dc57828594926002926110de68ff0000000000000000968d995183819460248484019701873781018b838201520380845201826112a0565b519020978551916110ee83611254565b89835280830191338352878401918642168352606085019a8b528c608086019a808c525252868c2092518355600183019160018060a01b039051168254916001600160401b0360a01b905160a01b169163ffffffff60e01b16171790550194511691845493511515901b169168ffffffffffffffffff19161717905561012e805490600160401b8210156111c95760018201905561118b906112dc565b81549060031b9084821b91600019901b191617905533917ff29a7a8b7e17110feb5338446fbfdcb1f7370015c5a13bfdf070ccbf6b5e2dfe8480a480f35b634e487b7160e01b855260418652602485fd5b8451630731582160e51b81528a90fd5b84516305b8e23b60e01b81528a90fd5b8680fd5b8580fd5b849084346101b05760203660031901126101b0576020926001600160a01b0361122b611239565b16815261012f845220548152f35b600435906001600160a01b038216820361124f57565b600080fd5b60a081019081106001600160401b0382111761126f57604052565b634e487b7160e01b600052604160045260246000fd5b606081019081106001600160401b0382111761126f57604052565b90601f801991011681019081106001600160401b0382111761126f57604052565b6001600160401b03811161126f57601f01601f191660200190565b61012e8054821015611313576000527fbdaadd9f750d0166045bf387a364eadd28ba243e04512a47282aa5147a68e37f0190600090565b634e487b7160e01b600052603260045260246000fd5b1561133057565b60405162461bcd60e51b815260206004820152602c60248201527f46756e6374696f6e206d7573742062652063616c6c6564207468726f7567682060448201526b19195b1959d85d1958d85b1b60a21b6064820152608490fd5b1561139157565b60405162461bcd60e51b815260206004820152602c60248201527f46756e6374696f6e206d7573742062652063616c6c6564207468726f7567682060448201526b6163746976652070726f787960a01b6064820152608490fd5b9694919590929560009184835260209461012d86526040948585209860028a01549b60ff8d891c1661158e576001600160401b03809d16801515908161159e575b5061158e5760019a8b01546001600160a01b03938416939190821684900361157d57908d92918951948b86019687528a86015216948560608501526080840152169a8b60a083015260a0825260c08201908282109082111761156957865251902082900361155d57825261012f84528282205497881561155d57818352610130855260ff848420541661155d578015159081611553575b506115485795949392919080955b8487106114e357505050505050501490565b90919293948697819760051b830135808210600014611526578551908782019283528682015285815261151581611285565b5190205b97019594939291906114d1565b908551908782019283528682015285815261154081611285565b519020611519565b509550505050505090565b90504211386114c3565b50509550505050505090565b634e487b7160e01b86526041600452602486fd5b505050505050509550505050505090565b5050505050509550505050505090565b905042113861142c565b60ff606554166115b457565b60405162461bcd60e51b815260206004820152601060248201526f14185d5cd8589b194e881c185d5cd95960821b6044820152606490fd5b60fb546001600160a01b0316330361160057565b606460405162461bcd60e51b815260206004820152602060248201527f4f776e61626c653a2063616c6c6572206973206e6f7420746865206f776e65726044820152fd5b60fb80546001600160a01b039283166001600160a01b0319821681179092559091167f8be0079c531659141344cd1fd0a4f28419497f9722a3daafe3b4186f6b6457e0600080a3565b1561169457565b60405162461bcd60e51b815260206004820152602b60248201527f496e697469616c697a61626c653a20636f6e7472616374206973206e6f74206960448201526a6e697469616c697a696e6760a81b6064820152608490fd5b803b156117225760008051602061185283398151915280546001600160a01b0319166001600160a01b03909216919091179055565b60405162461bcd60e51b815260206004820152602d60248201527f455243313936373a206e657720696d706c656d656e746174696f6e206973206e60448201526c1bdd08184818dbdb9d1c9858dd609a1b6064820152608490fd5b919290156117df5750815115611791575090565b3b1561179a5790565b60405162461bcd60e51b815260206004820152601d60248201527f416464726573733a2063616c6c20746f206e6f6e2d636f6e74726163740000006044820152606490fd5b8251909150156117f25750805190602001fd5b6040519062461bcd60e51b82528160208060048301528251908160248401526000935b828510611838575050604492506000838284010152601f80199101168101030190fd5b848101820151868601604401529381019385935061181556fe360894a13ba1a3210667c828492db98dca3e2076cc3735a920a3ca505d382bbca2646970667358221220fa2be82c9b40f91f4f6d3efabfe06c672a5eb46a4d6fccee49c469180278624864736f6c63430008180033",
  "linkReferences": {},
  "deployedLinkReferences": {}
}