{
  "_format": "hh-sol-artifact-1",
  "contractName": "CapabilityRegistry",
  "sourceName": "src/CapabilityRegistry.sol",
  "abi": [
    {
      "inputs": [],
      "stateMutability": "nonpayable",
      "type": "constructor"
    },
    {
      "anonymous": false,
      "inputs": [
        {
          "indexed": true,
          "internalType": "bytes32",
          "name": "capabilityId",
          "type": "bytes32"
        },
        {
          "indexed": true,
          "internalType": "bytes32",
          "name": "actionHash",
          "type": "bytes32"
        },
        {
          "indexed": true,
          "internalType": "address",
          "name": "registrar",
          "type": "address"
        }
      ],
      "name": "CapabilityRegistered",
      "type": "event"
    },
    {
      "anonymous": false,
      "inputs": [
        {
          "indexed": true,
          "internalType": "bytes32",
          "name": "capabilityId",
          "type": "bytes32"
        }
      ],
      "name": "CapabilityRevoked",
      "type": "event"
    },
    {
      "anonymous": false,
      "inputs": [
        {
          "indexed": true,
          "internalType": "bytes32",
          "name": "grantLeafHash",
          "type": "bytes32"
        }
      ],
      "name": "GrantRevoked",
      "type": "event"
    },
    {
      "anonymous": false,
      "inputs": [
        {
          "indexed": true,
          "internalType": "address",
          "name": "agent",
          "type": "address"
        },
        {
          "indexed": false,
          "internalType": "bytes32",
          "name": "newRoot",
          "type": "bytes32"
        }
      ],
      "name": "GrantRootUpdated",
      "type": "event"
    },
    {
      "anonymous": false,
      "inputs": [
        {
          "indexed": false,
          "internalType": "address",
          "name": "account",
          "type": "address"
        }
      ],
      "name": "Paused",
      "type": "event"
    },
    {
      "anonymous": false,
      "inputs": [
        {
          "indexed": false,
          "internalType": "address",
          "name": "account",
          "type": "address"
        }
      ],
      "name": "Unpaused",
      "type": "event"
    },
    {
      "inputs": [
        {
          "internalType": "bytes32",
          "name": "",
          "type": "bytes32"
        }
      ],
      "name": "capabilities",
      "outputs": [
        {
          "internalType": "bytes32",
          "name": "actionHash",
          "type": "bytes32"
        },
        {
          "internalType": "address",
          "name": "registrar",
          "type": "address"
        },
        {
          "internalType": "uint64",
          "name": "createdAt",
          "type": "uint64"
        },
        {
          "internalType": "uint64",
          "name": "expiresAt",
          "type": "uint64"
        },
        {
          "internalType": "bool",
          "name": "revoked",
          "type": "bool"
        }
      ],
      "stateMutability": "view",
      "type": "function"
    },
    {
      "inputs": [
        {
          "internalType": "uint256",
          "name": "",
          "type": "uint256"
        }
      ],
      "name": "capabilityList",
      "outputs": [
        {
          "internalType": "bytes32",
          "name": "",
          "type": "bytes32"
        }
      ],
      "stateMutability": "view",
      "type": "function"
    },
    {
      "inputs": [
        {
          "internalType": "bytes32",
          "name": "capabilityId",
          "type": "bytes32"
        }
      ],
      "name": "getCapability",
      "outputs": [
        {
          "components": [
            {
              "internalType": "bytes32",
              "name": "actionHash",
              "type": "bytes32"
            },
            {
              "internalType": "address",
              "name": "registrar",
              "type": "address"
            },
            {
              "internalType": "uint64",
              "name": "createdAt",
              "type": "uint64"
            },
            {
              "internalType": "uint64",
              "name": "expiresAt",
              "type": "uint64"
            },
            {
              "internalType": "bool",
              "name": "revoked",
              "type": "bool"
            }
          ],
          "internalType": "struct CapabilityRegistry.CapabilityDef",
          "name": "",
          "type": "tuple"
        }
      ],
      "stateMutability": "view",
      "type": "function"
    },
    {
      "inputs": [],
      "name": "getCapabilityCount",
      "outputs": [
        {
          "internalType": "uint256",
          "name": "",
          "type": "uint256"
        }
      ],
      "stateMutability": "view",
      "type": "function"
    },
    {
      "inputs": [
        {
          "internalType": "address",
          "name": "",
          "type": "address"
        }
      ],
      "name": "grantRoots",
      "outputs": [
        {
          "internalType": "bytes32",
          "name": "",
          "type": "bytes32"
        }
      ],
      "stateMutability": "view",
      "type": "function"
    },
    {
      "inputs": [],
      "name": "owner",
      "outputs": [
        {
          "internalType": "address",
          "name": "",
          "type": "address"
        }
      ],
      "stateMutability": "view",
      "type": "function"
    },
    {
      "inputs": [],
      "name": "pause",
      "outputs": [],
      "stateMutability": "nonpayable",
      "type": "function"
    },
    {
      "inputs": [],
      "name": "paused",
      "outputs": [
        {
          "internalType": "bool",
          "name": "",
          "type": "bool"
        }
      ],
      "stateMutability": "view",
      "type": "function"
    },
    {
      "inputs": [
        {
          "internalType": "bytes32",
          "name": "capabilityId",
          "type": "bytes32"
        },
        {
          "internalType": "string",
          "name": "action",
          "type": "string"
        },
        {
          "internalType": "uint64",
          "name": "expiresAt",
          "type": "uint64"
        }
      ],
      "name": "registerCapability",
      "outputs": [],
      "stateMutability": "nonpayable",
      "type": "function"
    },
    {
      "inputs": [
        {
          "internalType": "bytes32",
          "name": "capabilityId",
          "type": "bytes32"
        }
      ],
      "name": "revokeCapability",
      "outputs": [],
      "stateMutability": "nonpayable",
      "type": "function"
    },
    {
      "inputs": [
        {
          "internalType": "bytes32",
          "name": "grantLeafHash",
          "type": "bytes32"
        },
        {
          "internalType": "bytes32",
          "name": "capabilityId",
          "type": "bytes32"
        }
      ],
      "name": "revokeGrant",
      "outputs": [],
      "stateMutability": "nonpayable",
      "type": "function"
    },
    {
      "inputs": [
        {
          "internalType": "bytes32",
          "name": "",
          "type": "bytes32"
        }
      ],
      "name": "revokedGrants",
      "outputs": [
        {
          "internalType": "bool",
          "name": "",
          "type": "bool"
        }
      ],
      "stateMutability": "view",
      "type": "function"
    },
    {
      "inputs": [
        {
          "internalType": "address",
          "name": "",
          "type": "address"
        }
      ],
      "name": "rootUpdaters",
      "outputs": [
        {
          "internalType": "bool",
          "name": "",
          "type": "bool"
        }
      ],
      "stateMutability": "view",
      "type": "function"
    },
    {
      "inputs": [
        {
          "internalType": "address",
          "name": "updater",
          "type": "address"
        },
        {
          "internalType": "bool",
          "name": "allowed",
          "type": "bool"
        }
      ],
      "name": "setRootUpdater",
      "outputs": [],
      "stateMutability": "nonpayable",
      "type": "function"
    },
    {
      "inputs": [],
      "name": "unpause",
      "outputs": [],
      "stateMutability": "nonpayable",
      "type": "function"
    },
    {
      "inputs": [
        {
          "internalType": "address",
          "name": "agent",
          "type": "address"
        },
        {
          "internalType": "bytes32",
          "name": "newRoot",
          "type": "bytes32"
        }
      ],
      "name": "updateGrantRoot",
      "outputs": [],
      "stateMutability": "nonpayable",
      "type": "function"
    },
    {
      "inputs": [
        {
          "internalType": "address",
          "name": "agent",
          "type": "address"
        },
        {
          "internalType": "bytes32",
          "name": "capabilityId",
          "type": "bytes32"
        },
        {
          "internalType": "bytes32",
          "name": "grantLeaf",
          "type": "bytes32"
        },
        {
          "internalType": "bytes32[]",
          "name": "merkleProof",
          "type": "bytes32[]"
        },
        {
          "internalType": "address",
          "name": "grantor",
          "type": "address"
        },
        {
          "internalType": "bytes32",
          "name": "constraintsHash",
          "type": "bytes32"
        },
        {
          "internalType": "uint64",
          "name": "expiresAt",
          "type": "uint64"
        }
      ],
      "name": "verifyCapability",
      "outputs": [
        {
          "internalType": "bool",
          "name": "",
          "type": "bool"
        }
      ],
      "stateMutability": "view",
      "type": "function"
    }
  ],
  "bytecode": "0x6080806040523461003a576001600081905580546001600160a81b0319163360081b610100600160a81b0316179055610d6590816100408239f35b600080fdfe6080604081815260048036101561001557600080fd5b600092833560e01c9081631656cd7e1461098a57508063243549921461073f578063372b102d146107015780633a7f6cc71461066e5780633f4ba83a146105c957806353739410146105685780635c975abb146105445780636f4907a6146105185780637b23648a146104795780638456cb591461041257806388a8baf91461038c5780638da5cb5b1461035f5780639cb7c5f41461029e578063a6e0a6ce14610263578063adf4d59e1461016b578063b036fe7e146101485763c2ead131146100de57600080fd5b34610144576020366003190112610144578160a09360ff92358152600260205220805492600260018301549267ffffffffffffffff9182910154938351968752600180891b0381166020880152871c1682860152821660608501521c1615156080820152f35b8280fd5b5050346101675781600319360112610167576020906003549051908152f35b5080fd5b5090346101445760203660031901126101445781359182845260026020528184209060018201549067ffffffffffffffff8260a01c16156102295750600160401b916002916101cf906001600160a01b039081163314908115610218575b50610a74565b01916101e260ff845480931c1615610ab1565b68ff000000000000000019161790557f49605d0360d8e90064c274ba9997a3d883d637411e4a6855594c367b31679d668280a280f35b905060015460081c163314386101c9565b606490602085519162461bcd60e51b8352820152601460248201527310d85c18589a5b1a5d1e481b9bdd08199bdd5b9960621b6044820152fd5b503461014457602036600319011261014457359160035483101561029b575061028d6020926109d9565b90549060031b1c9051908152f35b80fd5b50346101445760203660031901126101445782829160a094608084516102c381610a26565b82815282602082015282868201528260608201520152358152600260205220600282516102ef81610a26565b825493848252600184015493600180881b03946020840195808216875267ffffffffffffffff95869384868801948c1c16845201549660ff60806060880197868b1689520198861c1615158852845198895251166020880152511690850152511660608301525115156080820152f35b505034610167578160031936011261016757600154905160089190911c6001600160a01b03168152602090f35b50903461014457806003193601126101445760207fd16ef39bb9aa303cfb433f8db1c88ac040afe9393441412bf5b1f0f97d0104b7916103ca6109be565b6001600160a01b031693602435919033861480156103fe575b6103ec90610a74565b8587528352818187205551908152a280f35b50338752600684528187205460ff166103e3565b50503461016757816003193601126101675760207f62e78cea01bee320cd4e420270b5ea74000d11b0c9f74754ebdbfc544b05a2589160018054610461828060a01b038260081c163314610aef565b610469610ceb565b60ff19161760015551338152a180f35b50913461029b5760e036600319011261029b576104946109be565b906064359167ffffffffffffffff9485841161014457366023850112156101445783013590858211610144573660248360051b8601011161014457608435926001600160a01b038416840361029b5760c435968716870361029b57509161050f939160209693602460a4359401906044359060243590610b28565b90519015158152f35b5034610144576020366003190112610144578160209360ff923581526005855220541690519015158152f35b50503461016757816003193601126101675760209060ff6001541690519015158152f35b5050346101675780600319360112610167576105826109be565b90602435918215158093036105c55760018060a01b03906105ab8260015460081c163314610aef565b168352600660205282209060ff8019835416911617905580f35b8380fd5b5034610144578260031936011261014457600154906105f633600884901c6001600160a01b031614610aef565b60ff821615610634575060ff1916600155513381527f5db9ee0a495bf2e6ff9c91a7834c1ba4fdd244a5e8aa4e537bd38aeae4b073aa90602090a180f35b606490602084519162461bcd60e51b8352820152601460248201527314185d5cd8589b194e881b9bdd081c185d5cd95960621b6044820152fd5b50346101445781600319360112610144573590602435835260026020526106ad60018060a01b0380600184872001541633149081156102185750610a74565b81835260056020526106c560ff828520541615610ab1565b81835260056020528220805460ff191660011790557fbc7909d45ab794ee63122077124d9ce05bea1db0768be90c77d2eddbdf1eef4f8280a280f35b5050346101675760203660031901126101675760209160ff9082906001600160a01b0361072c6109be565b1681526006855220541690519015158152f35b50903461014457606036600319011261014457813591602480359267ffffffffffffffff9081851161098657366023860112156109865784840135918083116109825736848488010111610982576044359281841680940361097e576107a3610ceb565b87895260209660028852826001858c20015460a01c16610948578115610914578351828193888b84019401843781018981018c905203808352603f01601f19168201918383118184101761090257828b86959360029368ff0000000000000000968e99525190209a61081483610a26565b8b8352868184019233845285828601938842168552606087019c8d52608087019b838d528352522092518355600183019160018060a01b0390511682549167ffffffffffffffff60a01b905160a01b169163ffffffff60e01b16171790550194511691845493511515901b169168ffffffffffffffffff19161717905560035491600160401b8310156108f15750508060016108b392016003556109d9565b81549060031b9084821b91600019901b191617905533917ff29a7a8b7e17110feb5338446fbfdcb1f7370015c5a13bfdf070ccbf6b5e2dfe8480a480f35b634e487b7160e01b86526041905284fd5b634e487b7160e01b8b5260418852868bfd5b835162461bcd60e51b8152808801899052600f818801526e1058dd1a5bdb881c995c5d5a5c9959608a1b6044820152606490fd5b835162461bcd60e51b8152808801899052601181880152704361706162696c6974792065786973747360781b6044820152606490fd5b8880fd5b8780fd5b8680fd5b92919050346105c55760203660031901126105c557602093906001600160a01b036109b36109be565b168252845220548152f35b600435906001600160a01b03821682036109d457565b600080fd5b600354811015610a105760036000527fc2575a0e9e593c00f959f8c92f12db2869c3395a3b0502d05e2516446f71f85b0190600090565b634e487b7160e01b600052603260045260246000fd5b60a0810190811067ffffffffffffffff821117610a4257604052565b634e487b7160e01b600052604160045260246000fd5b6060810190811067ffffffffffffffff821117610a4257604052565b15610a7b57565b60405162461bcd60e51b815260206004820152600e60248201526d139bdd08185d5d1a1bdc9a5e995960921b6044820152606490fd5b15610ab857565b60405162461bcd60e51b815260206004820152600f60248201526e105b1c9958591e481c995d9bdad959608a1b6044820152606490fd5b15610af657565b60405162461bcd60e51b815260206004820152600a60248201526927b7363c9037bbb732b960b11b6044820152606490fd5b95909296949196600091848352602094600286526040948585209860028a01549a60ff8c891c16610cd15767ffffffffffffffff809c168015159081610ce1575b50610cd15760019a8b01546001600160a01b039384169391908216849003610cc057908c92918951948b86019687528a8601521694856060850152608084015216998a60a083015260a0825260c082019082821090821117610cac578652519020899003610c895782526004845282822054978815610c89578083526005976005865260ff8585205416610c9f578015159081610c95575b50610c89579695949392919081965b858810610c235750505050505050501490565b90919293949587988198831b840135808210600014610c675786519088820192835287820152868152610c5581610a58565b5190205b980196959493929190610c10565b9086519088820192835287820152868152610c8181610a58565b519020610c59565b50509550505050505090565b9050421138610c01565b5050509550505050505090565b634e487b7160e01b86526041600452602486fd5b505050505050509550505050505090565b5050505050509550505050505090565b9050421138610b69565b60ff60015416610cf757565b60405162461bcd60e51b815260206004820152601060248201526f14185d5cd8589b194e881c185d5cd95960821b6044820152606490fdfea2646970667358221220adf244c11fab914b7b183d66372d8df0f9a0530c647a0c4e812c7f1b8bc9847a64736f6c63430008180033",
  "linkReferences": {},
  "deployedLinkReferences": {}
}