{
  "_format": "hh-sol-artifact-1",
  "contractName": "CapabilityRegistry",
  "sourceName": "src/CapabilityRegistry.sol",
  "abi": [
    {
      "inputs": [],
      "stateMutability": "nonpayable",
      "type": "constructor"
    },
    {
      "anonymous": false,
      "inputs": [
        {
          "indexed": true,
          "internalType": "bytes32",
          "name": "capabilityId",
          "type": "bytes32"
        },
        {
          "indexed": false,
          "internalType": "string",
          "name": "action",
          "type": "string"
        },
        {
          "indexed": true,
          "internalType": "address",
          "name": "registrar",
          "type": "address"
        }
      ],
      "name": "CapabilityRegistered",
      "type": "event"
    },
    {
      "anonymous": false,
      "inputs": [
        {
          "indexed": true,
          "internalType": "bytes32",
          "name": "capabilityId",
          "type": "bytes32"
        }
      ],
      "name": "CapabilityRevoked",
      "type": "event"
    },
    {
      "anonymous": false,
      "inputs": [
        {
          "indexed": true,
          "internalType": "bytes32",
          "name": "grantLeafHash",
          "type": "bytes32"
        }
      ],
      "name": "GrantRevoked",
      "type": "event"
    },
    {
      "anonymous": false,
      "inputs": [
        {
          "indexed": true,
          "internalType": "address",
          "name": "agent",
          "type": "address"
        },
        {
          "indexed": false,
          "internalType": "bytes32",
          "name": "newRoot",
          "type": "bytes32"
        }
      ],
      "name": "GrantRootUpdated",
      "type": "event"
    },
    {
      "anonymous": false,
      "inputs": [
        {
          "indexed": false,
          "internalType": "address",
          "name": "account",
          "type": "address"
        }
      ],
      "name": "Paused",
      "type": "event"
    },
    {
      "anonymous": false,
      "inputs": [
        {
          "indexed": false,
          "internalType": "address",
          "name": "account",
          "type": "address"
        }
      ],
      "name": "Unpaused",
      "type": "event"
    },
    {
      "inputs": [
        {
          "internalType": "bytes32",
          "name": "",
          "type": "bytes32"
        }
      ],
      "name": "capabilities",
      "outputs": [
        {
          "internalType": "string",
          "name": "action",
          "type": "string"
        },
        {
          "internalType": "address",
          "name": "registrar",
          "type": "address"
        },
        {
          "internalType": "uint64",
          "name": "createdAt",
          "type": "uint64"
        },
        {
          "internalType": "uint64",
          "name": "expiresAt",
          "type": "uint64"
        },
        {
          "internalType": "bool",
          "name": "revoked",
          "type": "bool"
        }
      ],
      "stateMutability": "view",
      "type": "function"
    },
    {
      "inputs": [
        {
          "internalType": "uint256",
          "name": "",
          "type": "uint256"
        }
      ],
      "name": "capabilityList",
      "outputs": [
        {
          "internalType": "bytes32",
          "name": "",
          "type": "bytes32"
        }
      ],
      "stateMutability": "view",
      "type": "function"
    },
    {
      "inputs": [
        {
          "internalType": "bytes32",
          "name": "capabilityId",
          "type": "bytes32"
        }
      ],
      "name": "getCapability",
      "outputs": [
        {
          "components": [
            {
              "internalType": "string",
              "name": "action",
              "type": "string"
            },
            {
              "internalType": "address",
              "name": "registrar",
              "type": "address"
            },
            {
              "internalType": "uint64",
              "name": "createdAt",
              "type": "uint64"
            },
            {
              "internalType": "uint64",
              "name": "expiresAt",
              "type": "uint64"
            },
            {
              "internalType": "bool",
              "name": "revoked",
              "type": "bool"
            }
          ],
          "internalType": "struct CapabilityRegistry.CapabilityDef",
          "name": "",
          "type": "tuple"
        }
      ],
      "stateMutability": "view",
      "type": "function"
    },
    {
      "inputs": [],
      "name": "getCapabilityCount",
      "outputs": [
        {
          "internalType": "uint256",
          "name": "",
          "type": "uint256"
        }
      ],
      "stateMutability": "view",
      "type": "function"
    },
    {
      "inputs": [
        {
          "internalType": "address",
          "name": "",
          "type": "address"
        }
      ],
      "name": "grantRoots",
      "outputs": [
        {
          "internalType": "bytes32",
          "name": "",
          "type": "bytes32"
        }
      ],
      "stateMutability": "view",
      "type": "function"
    },
    {
      "inputs": [],
      "name": "owner",
      "outputs": [
        {
          "internalType": "address",
          "name": "",
          "type": "address"
        }
      ],
      "stateMutability": "view",
      "type": "function"
    },
    {
      "inputs": [],
      "name": "pause",
      "outputs": [],
      "stateMutability": "nonpayable",
      "type": "function"
    },
    {
      "inputs": [],
      "name": "paused",
      "outputs": [
        {
          "internalType": "bool",
          "name": "",
          "type": "bool"
        }
      ],
      "stateMutability": "view",
      "type": "function"
    },
    {
      "inputs": [
        {
          "internalType": "bytes32",
          "name": "capabilityId",
          "type": "bytes32"
        },
        {
          "internalType": "string",
          "name": "action",
          "type": "string"
        },
        {
          "internalType": "uint64",
          "name": "expiresAt",
          "type": "uint64"
        }
      ],
      "name": "registerCapability",
      "outputs": [],
      "stateMutability": "nonpayable",
      "type": "function"
    },
    {
      "inputs": [
        {
          "internalType": "bytes32",
          "name": "capabilityId",
          "type": "bytes32"
        }
      ],
      "name": "revokeCapability",
      "outputs": [],
      "stateMutability": "nonpayable",
      "type": "function"
    },
    {
      "inputs": [
        {
          "internalType": "bytes32",
          "name": "grantLeafHash",
          "type": "bytes32"
        },
        {
          "internalType": "bytes32",
          "name": "capabilityId",
          "type": "bytes32"
        }
      ],
      "name": "revokeGrant",
      "outputs": [],
      "stateMutability": "nonpayable",
      "type": "function"
    },
    {
      "inputs": [
        {
          "internalType": "bytes32",
          "name": "",
          "type": "bytes32"
        }
      ],
      "name": "revokedGrants",
      "outputs": [
        {
          "internalType": "bool",
          "name": "",
          "type": "bool"
        }
      ],
      "stateMutability": "view",
      "type": "function"
    },
    {
      "inputs": [
        {
          "internalType": "address",
          "name": "",
          "type": "address"
        }
      ],
      "name": "rootUpdaters",
      "outputs": [
        {
          "internalType": "bool",
          "name": "",
          "type": "bool"
        }
      ],
      "stateMutability": "view",
      "type": "function"
    },
    {
      "inputs": [
        {
          "internalType": "address",
          "name": "updater",
          "type": "address"
        },
        {
          "internalType": "bool",
          "name": "allowed",
          "type": "bool"
        }
      ],
      "name": "setRootUpdater",
      "outputs": [],
      "stateMutability": "nonpayable",
      "type": "function"
    },
    {
      "inputs": [],
      "name": "unpause",
      "outputs": [],
      "stateMutability": "nonpayable",
      "type": "function"
    },
    {
      "inputs": [
        {
          "internalType": "address",
          "name": "agent",
          "type": "address"
        },
        {
          "internalType": "bytes32",
          "name": "newRoot",
          "type": "bytes32"
        }
      ],
      "name": "updateGrantRoot",
      "outputs": [],
      "stateMutability": "nonpayable",
      "type": "function"
    },
    {
      "inputs": [
        {
          "internalType": "address",
          "name": "agent",
          "type": "address"
        },
        {
          "internalType": "bytes32",
          "name": "capabilityId",
          "type": "bytes32"
        },
        {
          "internalType": "bytes32",
          "name": "grantLeaf",
          "type": "bytes32"
        },
        {
          "internalType": "bytes32[]",
          "name": "merkleProof",
          "type": "bytes32[]"
        },
        {
          "internalType": "address",
          "name": "grantor",
          "type": "address"
        },
        {
          "internalType": "bytes32",
          "name": "constraintsHash",
          "type": "bytes32"
        },
        {
          "internalType": "uint64",
          "name": "expiresAt",
          "type": "uint64"
        }
      ],
      "name": "verifyCapability",
      "outputs": [
        {
          "internalType": "bool",
          "name": "",
          "type": "bool"
        }
      ],
      "stateMutability": "view",
      "type": "function"
    }
  ],
  "bytecode": "0x6080806040523461003a576001600081905580546001600160a81b0319163360081b610100600160a81b031617905561105690816100408239f35b600080fdfe608080604052600436101561001357600080fd5b60003560e01c9081631656cd7e14610b5757508063243549921461079e578063372b102d1461075f5780633a7f6cc7146106b05780633f4ba83a1461060c57806353739410146105ab5780635c975abb146105885780636f4907a6146105575780637b23648a146104bf5780638456cb591461045657806388a8baf9146103cb5780638da5cb5b1461039e5780639cb7c5f4146102b3578063a6e0a6ce1461027b578063adf4d59e14610184578063b036fe7e146101665763c2ead131146100da57600080fd5b34610161576020366003190112610161576004356000526002602052610133604060002061010781610cc1565b9060ff60018201549160026001600160401b03910154908060405196879660a0885260a0880190610ba3565b9460018060a01b038116602088015260a01c1660408601528116606085015260401c16151560808301520390f35b600080fd5b34610161576000366003190112610161576020600354604051908152f35b346101615760203660031901126101615760043580600052600260205260406000206001810154906001600160401b038260a01c161561023f576002916101e0906001600160a01b03908116331490811561022e575b50610d66565b01600160401b81546101f860ff8260401c1615610da3565b68ff000000000000000019161790557f49605d0360d8e90064c274ba9997a3d883d637411e4a6855594c367b31679d66600080a2005b905060015460081c163314856101da565b60405162461bcd60e51b815260206004820152601460248201527310d85c18589a5b1a5d1e481b9bdd08199bdd5b9960621b6044820152606490fd5b3461016157602036600319011261016157600435600354811015610161576102a4602091610be3565b90549060031b1c604051908152f35b34610161576020806003193601126101615760a090600060806040516102d881610c6a565b6060815282848201528260408201528260608201520152600435600052600281526040600020906040519161030c83610c6a565b61031581610cc1565b83526002600182015492600180871b03928186019484811686526001600160401b039384928360408a01938b1c16835201549461037c6060890194848816865260ff60808b019860401c16151588526040519a8b9a828c5251918b015260c08a0190610ba3565b9651166040880152511660608601525116608084015251151560a08301520390f35b346101615760003660031901126101615760015460405160089190911c6001600160a01b03168152602090f35b34610161576040366003190112610161576103e4610b8d565b6001600160a01b03167fd16ef39bb9aa303cfb433f8db1c88ac040afe9393441412bf5b1f0f97d0104b76020602435338414801561043e575b61042690610d66565b836000526004825280604060002055604051908152a2005b5033600090815260068352604090205460ff1661041d565b34610161576000366003190112610161576001805461048333600883901c6001600160a01b031614610de1565b61048b610fdc565b60ff1916176001557f62e78cea01bee320cd4e420270b5ea74000d11b0c9f74754ebdbfc544b05a2586020604051338152a1005b346101615760e0366003190112610161576104d8610b8d565b606435906001600160401b03808311610161573660238401121561016157826004013592818411610161573660248560051b83010111610161576084356001600160a01b03811681036101615760c43592831683036101615760209461054d94602460a4359401906044359060243590610e1a565b6040519015158152f35b34610161576020366003190112610161576004356000526005602052602060ff604060002054166040519015158152f35b3461016157600036600319011261016157602060ff600154166040519015158152f35b34610161576040366003190112610161576105c4610b8d565b602435908115158092036101615760018060a01b03906105ec8260015460081c163314610de1565b16600052600660205260406000209060ff80198354169116179055600080f35b346101615760003660031901126101615760015461063833600883901c6001600160a01b031614610de1565b60ff8116156106745760ff19166001557f5db9ee0a495bf2e6ff9c91a7834c1ba4fdd244a5e8aa4e537bd38aeae4b073aa6020604051338152a1005b60405162461bcd60e51b815260206004820152601460248201527314185d5cd8589b194e881b9bdd081c185d5cd95960621b6044820152606490fd5b346101615760403660031901126101615760043560243560005260026020526106f360018060a01b038060016040600020015416331490811561074e5750610d66565b80600052600560205261070e60ff6040600020541615610da3565b8060005260056020526040600020600160ff198254161790557fbc7909d45ab794ee63122077124d9ce05bea1db0768be90c77d2eddbdf1eef4f600080a2005b905060015460081c163314836101da565b34610161576020366003190112610161576001600160a01b03610780610b8d565b166000526006602052602060ff604060002054166040519015158152f35b34610161576060366003190112610161576024356001600160401b0381116101615736602382011215610161576001600160401b03816004013511610161576024810190366024826004013583010111610161576044356001600160401b0381168091036101615761080e610fdc565b60043560005260026020526001600160401b0360016040600020015460a01c16610b1e57816004013515610ae7576040519061084982610c6a565b6040516108646004850135601f01601f191660200182610ca0565b60048401358082528560208301376000602085600401358301015282523360208301526001600160401b03421660408301526060820152600060808201526004356000526002602052604060002081518051906001600160401b038211610a15576108cf8354610c30565b601f8111610aa3575b50602090601f8311600114610a3657600293929160009183610a2b575b50508160011b916000199060031b1c19161781555b6001810160018060a01b036020850151168154906001600160401b0360a01b604087015160a01b169163ffffffff60e01b161717905501906001600160401b0360608201511668ff000000000000000060808454930151151560401b169168ffffffffffffffffff191617179055600354600160401b811015610a15578060016109979201600355610be3565b81549060031b90600435821b91600019901b19161790556040519160208352816004013560208401528160040135906040840137600060408260040135840101527f24f676cc1c225b557096be10505ed2933f4afe2349e9724a3826781e1c5d4455339260408160043594601f8019916004013501168101030190a3005b634e487b7160e01b600052604160045260246000fd5b0151905087806108f5565b908360005260206000209160005b601f1985168110610a8b575091839160019360029695601f19811610610a72575b505050811b01815561090a565b015160001960f88460031b161c19169055878080610a65565b91926020600181928685015181550194019201610a44565b836000526020600020601f840160051c810160208510610ae0575b601f830160051c82018110610ad45750506108d8565b60008155600101610abe565b5080610abe565b60405162461bcd60e51b815260206004820152600f60248201526e1058dd1a5bdb881c995c5d5a5c9959608a1b6044820152606490fd5b60405162461bcd60e51b81526020600482015260116024820152704361706162696c6974792065786973747360781b6044820152606490fd5b34610161576020366003190112610161576020906001600160a01b03610b7b610b8d565b16600052600482526040600020548152f35b600435906001600160a01b038216820361016157565b919082519283825260005b848110610bcf575050826000602080949584010152601f8019910116010190565b602081830181015184830182015201610bae565b600354811015610c1a5760036000527fc2575a0e9e593c00f959f8c92f12db2869c3395a3b0502d05e2516446f71f85b0190600090565b634e487b7160e01b600052603260045260246000fd5b90600182811c92168015610c60575b6020831014610c4a57565b634e487b7160e01b600052602260045260246000fd5b91607f1691610c3f565b60a081019081106001600160401b03821117610a1557604052565b606081019081106001600160401b03821117610a1557604052565b90601f801991011681019081106001600160401b03821117610a1557604052565b90604051918260008254610cd481610c30565b90818452602094600191600181169081600014610d445750600114610d05575b505050610d0392500383610ca0565b565b600090815285812095935091905b818310610d2c575050610d039350820101388080610cf4565b85548884018501529485019487945091830191610d13565b92505050610d0394925060ff191682840152151560051b820101388080610cf4565b15610d6d57565b60405162461bcd60e51b815260206004820152600e60248201526d139bdd08185d5d1a1bdc9a5e995960921b6044820152606490fd5b15610daa57565b60405162461bcd60e51b815260206004820152600f60248201526e105b1c9958591e481c995d9bdad959608a1b6044820152606490fd5b15610de857565b60405162461bcd60e51b815260206004820152600a60248201526927b7363c9037bbb732b960b11b6044820152606490fd5b95909296949196600091848352602094600286526040948585209860028a01549a60ff8c891c16610fc2576001600160401b03809c168015159081610fd2575b50610fc25760019a8b01546001600160a01b039384169391908216849003610fb157908c92918951948b86019687528a8601521694856060850152608084015216998a60a083015260a0825260c082019082821090821117610f9d578652519020899003610f7a5782526004845282822054978815610f7a578083526005976005865260ff8585205416610f90578015159081610f86575b50610f7a579695949392919081965b858810610f145750505050505050501490565b90919293949587988198831b840135808210600014610f585786519088820192835287820152868152610f4681610c85565b5190205b980196959493929190610f01565b9086519088820192835287820152868152610f7281610c85565b519020610f4a565b50509550505050505090565b9050421138610ef2565b5050509550505050505090565b634e487b7160e01b86526041600452602486fd5b505050505050509550505050505090565b5050505050509550505050505090565b9050421138610e5a565b60ff60015416610fe857565b60405162461bcd60e51b815260206004820152601060248201526f14185d5cd8589b194e881c185d5cd95960821b6044820152606490fdfea2646970667358221220068c233f8081d275460be31f1f839ac3ce3223f699878d18673fc21763d9145664736f6c63430008180033",
  "linkReferences": {},
  "deployedLinkReferences": {}
}