{
  "_format": "hh-sol-artifact-1",
  "contractName": "CapabilityRegistry",
  "sourceName": "src/CapabilityRegistry.sol",
  "abi": [
    {
      "inputs": [],
      "stateMutability": "nonpayable",
      "type": "constructor"
    },
    {
      "anonymous": false,
      "inputs": [
        {
          "indexed": true,
          "internalType": "bytes32",
          "name": "capabilityId",
          "type": "bytes32"
        },
        {
          "indexed": true,
          "internalType": "bytes32",
          "name": "actionHash",
          "type": "bytes32"
        },
        {
          "indexed": true,
          "internalType": "address",
          "name": "registrar",
          "type": "address"
        }
      ],
      "name": "CapabilityRegistered",
      "type": "event"
    },
    {
      "anonymous": false,
      "inputs": [
        {
          "indexed": true,
          "internalType": "bytes32",
          "name": "capabilityId",
          "type": "bytes32"
        }
      ],
      "name": "CapabilityRevoked",
      "type": "event"
    },
    {
      "anonymous": false,
      "inputs": [
        {
          "indexed": true,
          "internalType": "bytes32",
          "name": "grantLeafHash",
          "type": "bytes32"
        }
      ],
      "name": "GrantRevoked",
      "type": "event"
    },
    {
      "anonymous": false,
      "inputs": [
        {
          "indexed": true,
          "internalType": "address",
          "name": "agent",
          "type": "address"
        },
        {
          "indexed": false,
          "internalType": "bytes32",
          "name": "newRoot",
          "type": "bytes32"
        }
      ],
      "name": "GrantRootUpdated",
      "type": "event"
    },
    {
      "anonymous": false,
      "inputs": [
        {
          "indexed": false,
          "internalType": "address",
          "name": "account",
          "type": "address"
        }
      ],
      "name": "Paused",
      "type": "event"
    },
    {
      "anonymous": false,
      "inputs": [
        {
          "indexed": false,
          "internalType": "address",
          "name": "account",
          "type": "address"
        }
      ],
      "name": "Unpaused",
      "type": "event"
    },
    {
      "inputs": [
        {
          "internalType": "bytes32",
          "name": "",
          "type": "bytes32"
        }
      ],
      "name": "capabilities",
      "outputs": [
        {
          "internalType": "bytes32",
          "name": "actionHash",
          "type": "bytes32"
        },
        {
          "internalType": "address",
          "name": "registrar",
          "type": "address"
        },
        {
          "internalType": "uint64",
          "name": "createdAt",
          "type": "uint64"
        },
        {
          "internalType": "uint64",
          "name": "expiresAt",
          "type": "uint64"
        },
        {
          "internalType": "bool",
          "name": "revoked",
          "type": "bool"
        }
      ],
      "stateMutability": "view",
      "type": "function"
    },
    {
      "inputs": [
        {
          "internalType": "uint256",
          "name": "",
          "type": "uint256"
        }
      ],
      "name": "capabilityList",
      "outputs": [
        {
          "internalType": "bytes32",
          "name": "",
          "type": "bytes32"
        }
      ],
      "stateMutability": "view",
      "type": "function"
    },
    {
      "inputs": [
        {
          "internalType": "bytes32",
          "name": "capabilityId",
          "type": "bytes32"
        }
      ],
      "name": "getCapability",
      "outputs": [
        {
          "components": [
            {
              "internalType": "bytes32",
              "name": "actionHash",
              "type": "bytes32"
            },
            {
              "internalType": "address",
              "name": "registrar",
              "type": "address"
            },
            {
              "internalType": "uint64",
              "name": "createdAt",
              "type": "uint64"
            },
            {
              "internalType": "uint64",
              "name": "expiresAt",
              "type": "uint64"
            },
            {
              "internalType": "bool",
              "name": "revoked",
              "type": "bool"
            }
          ],
          "internalType": "struct CapabilityRegistry.CapabilityDef",
          "name": "",
          "type": "tuple"
        }
      ],
      "stateMutability": "view",
      "type": "function"
    },
    {
      "inputs": [],
      "name": "getCapabilityCount",
      "outputs": [
        {
          "internalType": "uint256",
          "name": "",
          "type": "uint256"
        }
      ],
      "stateMutability": "view",
      "type": "function"
    },
    {
      "inputs": [
        {
          "internalType": "address",
          "name": "",
          "type": "address"
        }
      ],
      "name": "grantRoots",
      "outputs": [
        {
          "internalType": "bytes32",
          "name": "",
          "type": "bytes32"
        }
      ],
      "stateMutability": "view",
      "type": "function"
    },
    {
      "inputs": [],
      "name": "owner",
      "outputs": [
        {
          "internalType": "address",
          "name": "",
          "type": "address"
        }
      ],
      "stateMutability": "view",
      "type": "function"
    },
    {
      "inputs": [],
      "name": "pause",
      "outputs": [],
      "stateMutability": "nonpayable",
      "type": "function"
    },
    {
      "inputs": [],
      "name": "paused",
      "outputs": [
        {
          "internalType": "bool",
          "name": "",
          "type": "bool"
        }
      ],
      "stateMutability": "view",
      "type": "function"
    },
    {
      "inputs": [
        {
          "internalType": "bytes32",
          "name": "capabilityId",
          "type": "bytes32"
        },
        {
          "internalType": "string",
          "name": "action",
          "type": "string"
        },
        {
          "internalType": "uint64",
          "name": "expiresAt",
          "type": "uint64"
        }
      ],
      "name": "registerCapability",
      "outputs": [],
      "stateMutability": "nonpayable",
      "type": "function"
    },
    {
      "inputs": [
        {
          "internalType": "bytes32",
          "name": "capabilityId",
          "type": "bytes32"
        }
      ],
      "name": "revokeCapability",
      "outputs": [],
      "stateMutability": "nonpayable",
      "type": "function"
    },
    {
      "inputs": [
        {
          "internalType": "bytes32",
          "name": "grantLeafHash",
          "type": "bytes32"
        },
        {
          "internalType": "bytes32",
          "name": "capabilityId",
          "type": "bytes32"
        }
      ],
      "name": "revokeGrant",
      "outputs": [],
      "stateMutability": "nonpayable",
      "type": "function"
    },
    {
      "inputs": [
        {
          "internalType": "bytes32",
          "name": "",
          "type": "bytes32"
        }
      ],
      "name": "revokedGrants",
      "outputs": [
        {
          "internalType": "bool",
          "name": "",
          "type": "bool"
        }
      ],
      "stateMutability": "view",
      "type": "function"
    },
    {
      "inputs": [
        {
          "internalType": "address",
          "name": "",
          "type": "address"
        }
      ],
      "name": "rootUpdaters",
      "outputs": [
        {
          "internalType": "bool",
          "name": "",
          "type": "bool"
        }
      ],
      "stateMutability": "view",
      "type": "function"
    },
    {
      "inputs": [
        {
          "internalType": "address",
          "name": "updater",
          "type": "address"
        },
        {
          "internalType": "bool",
          "name": "allowed",
          "type": "bool"
        }
      ],
      "name": "setRootUpdater",
      "outputs": [],
      "stateMutability": "nonpayable",
      "type": "function"
    },
    {
      "inputs": [
        {
          "internalType": "address",
          "name": "newOwner",
          "type": "address"
        }
      ],
      "name": "transferOwnership",
      "outputs": [],
      "stateMutability": "nonpayable",
      "type": "function"
    },
    {
      "inputs": [],
      "name": "unpause",
      "outputs": [],
      "stateMutability": "nonpayable",
      "type": "function"
    },
    {
      "inputs": [
        {
          "internalType": "address",
          "name": "agent",
          "type": "address"
        },
        {
          "internalType": "bytes32",
          "name": "newRoot",
          "type": "bytes32"
        }
      ],
      "name": "updateGrantRoot",
      "outputs": [],
      "stateMutability": "nonpayable",
      "type": "function"
    },
    {
      "inputs": [
        {
          "internalType": "address",
          "name": "agent",
          "type": "address"
        },
        {
          "internalType": "bytes32",
          "name": "capabilityId",
          "type": "bytes32"
        },
        {
          "internalType": "bytes32",
          "name": "grantLeaf",
          "type": "bytes32"
        },
        {
          "internalType": "bytes32[]",
          "name": "merkleProof",
          "type": "bytes32[]"
        },
        {
          "internalType": "address",
          "name": "grantor",
          "type": "address"
        },
        {
          "internalType": "bytes32",
          "name": "constraintsHash",
          "type": "bytes32"
        },
        {
          "internalType": "uint64",
          "name": "expiresAt",
          "type": "uint64"
        }
      ],
      "name": "verifyCapability",
      "outputs": [
        {
          "internalType": "bool",
          "name": "",
          "type": "bool"
        }
      ],
      "stateMutability": "view",
      "type": "function"
    }
  ],
  "bytecode": "0x6080806040523461003a576001600081905580546001600160a81b0319163360081b610100600160a81b0316179055610e0a90816100408239f35b600080fdfe6080604081815260048036101561001557600080fd5b600092833560e01c9081631656cd7e14610a2f5750806324354992146107e4578063372b102d146107a65780633a7f6cc7146107135780633f4ba83a1461066e578063537394101461060d5780635c975abb146105e95780636f4907a6146105bd5780637b23648a1461051e5780638456cb59146104b757806388a8baf9146104315780638da5cb5b146104045780639cb7c5f414610343578063a6e0a6ce14610308578063adf4d59e14610210578063b036fe7e146101ed578063c2ead131146101865763f2fde38b146100e957600080fd5b3461018257602036600319011261018257610102610a63565b600154929091906001600160a01b0361012233600887901c831614610b94565b83161561014f575050610100600160a81b031990911660089190911b610100600160a81b03161760015580f35b906020606492519162461bcd60e51b8352820152600d60248201526c24b73b30b634b21037bbb732b960991b6044820152fd5b8280fd5b5034610182576020366003190112610182578160a09360ff92358152600260205220805492600260018301549267ffffffffffffffff9182910154938351968752600180891b0381166020880152871c1682860152821660608501521c1615156080820152f35b50503461020c578160031936011261020c576020906003549051908152f35b5080fd5b5090346101825760203660031901126101825781359182845260026020528184209060018201549067ffffffffffffffff8260a01c16156102ce5750600160401b91600291610274906001600160a01b0390811633149081156102bd575b50610b19565b019161028760ff845480931c1615610b56565b68ff000000000000000019161790557f49605d0360d8e90064c274ba9997a3d883d637411e4a6855594c367b31679d668280a280f35b905060015460081c1633143861026e565b606490602085519162461bcd60e51b8352820152601460248201527310d85c18589a5b1a5d1e481b9bdd08199bdd5b9960621b6044820152fd5b50346101825760203660031901126101825735916003548310156103405750610332602092610a7e565b90549060031b1c9051908152f35b80fd5b50346101825760203660031901126101825782829160a0946080845161036881610acb565b828152826020820152828682015282606082015201523581526002602052206002825161039481610acb565b825493848252600184015493600180881b03946020840195808216875267ffffffffffffffff95869384868801948c1c16845201549660ff60806060880197868b1689520198861c1615158852845198895251166020880152511690850152511660608301525115156080820152f35b50503461020c578160031936011261020c57600154905160089190911c6001600160a01b03168152602090f35b50903461018257806003193601126101825760207fd16ef39bb9aa303cfb433f8db1c88ac040afe9393441412bf5b1f0f97d0104b79161046f610a63565b6001600160a01b031693602435919033861480156104a3575b61049190610b19565b8587528352818187205551908152a280f35b50338752600684528187205460ff16610488565b50503461020c578160031936011261020c5760207f62e78cea01bee320cd4e420270b5ea74000d11b0c9f74754ebdbfc544b05a2589160018054610506828060a01b038260081c163314610b94565b61050e610d90565b60ff19161760015551338152a180f35b5091346103405760e036600319011261034057610539610a63565b906064359167ffffffffffffffff9485841161018257366023850112156101825783013590858211610182573660248360051b8601011161018257608435926001600160a01b03841684036103405760c43596871687036103405750916105b4939160209693602460a4359401906044359060243590610bcd565b90519015158152f35b5034610182576020366003190112610182578160209360ff923581526005855220541690519015158152f35b50503461020c578160031936011261020c5760209060ff6001541690519015158152f35b50503461020c578060031936011261020c57610627610a63565b906024359182151580930361066a5760018060a01b03906106508260015460081c163314610b94565b168352600660205282209060ff8019835416911617905580f35b8380fd5b50346101825782600319360112610182576001549061069b33600884901c6001600160a01b031614610b94565b60ff8216156106d9575060ff1916600155513381527f5db9ee0a495bf2e6ff9c91a7834c1ba4fdd244a5e8aa4e537bd38aeae4b073aa90602090a180f35b606490602084519162461bcd60e51b8352820152601460248201527314185d5cd8589b194e881b9bdd081c185d5cd95960621b6044820152fd5b503461018257816003193601126101825735906024358352600260205261075260018060a01b0380600184872001541633149081156102bd5750610b19565b818352600560205261076a60ff828520541615610b56565b81835260056020528220805460ff191660011790557fbc7909d45ab794ee63122077124d9ce05bea1db0768be90c77d2eddbdf1eef4f8280a280f35b50503461020c57602036600319011261020c5760209160ff9082906001600160a01b036107d1610a63565b1681526006855220541690519015158152f35b50903461018257606036600319011261018257813591602480359267ffffffffffffffff90818511610a2b5736602386011215610a2b578484013591808311610a275736848488010111610a275760443592818416809403610a2357610848610d90565b87895260209660028852826001858c20015460a01c166109ed5781156109b9578351828193888b84019401843781018981018c905203808352603f01601f1916820191838311818410176109a757828b86959360029368ff0000000000000000968e99525190209a6108b983610acb565b8b8352868184019233845285828601938842168552606087019c8d52608087019b838d528352522092518355600183019160018060a01b0390511682549167ffffffffffffffff60a01b905160a01b169163ffffffff60e01b16171790550194511691845493511515901b169168ffffffffffffffffff19161717905560035491600160401b8310156109965750508060016109589201600355610a7e565b81549060031b9084821b91600019901b191617905533917ff29a7a8b7e17110feb5338446fbfdcb1f7370015c5a13bfdf070ccbf6b5e2dfe8480a480f35b634e487b7160e01b86526041905284fd5b634e487b7160e01b8b5260418852868bfd5b835162461bcd60e51b8152808801899052600f818801526e1058dd1a5bdb881c995c5d5a5c9959608a1b6044820152606490fd5b835162461bcd60e51b8152808801899052601181880152704361706162696c6974792065786973747360781b6044820152606490fd5b8880fd5b8780fd5b8680fd5b929190503461066a57602036600319011261066a57602093906001600160a01b03610a58610a63565b168252845220548152f35b600435906001600160a01b0382168203610a7957565b600080fd5b600354811015610ab55760036000527fc2575a0e9e593c00f959f8c92f12db2869c3395a3b0502d05e2516446f71f85b0190600090565b634e487b7160e01b600052603260045260246000fd5b60a0810190811067ffffffffffffffff821117610ae757604052565b634e487b7160e01b600052604160045260246000fd5b6060810190811067ffffffffffffffff821117610ae757604052565b15610b2057565b60405162461bcd60e51b815260206004820152600e60248201526d139bdd08185d5d1a1bdc9a5e995960921b6044820152606490fd5b15610b5d57565b60405162461bcd60e51b815260206004820152600f60248201526e105b1c9958591e481c995d9bdad959608a1b6044820152606490fd5b15610b9b57565b60405162461bcd60e51b815260206004820152600a60248201526927b7363c9037bbb732b960b11b6044820152606490fd5b95909296949196600091848352602094600286526040948585209860028a01549a60ff8c891c16610d765767ffffffffffffffff809c168015159081610d86575b50610d765760019a8b01546001600160a01b039384169391908216849003610d6557908c92918951948b86019687528a8601521694856060850152608084015216998a60a083015260a0825260c082019082821090821117610d51578652519020899003610d2e5782526004845282822054978815610d2e578083526005976005865260ff8585205416610d44578015159081610d3a575b50610d2e579695949392919081965b858810610cc85750505050505050501490565b90919293949587988198831b840135808210600014610d0c5786519088820192835287820152868152610cfa81610afd565b5190205b980196959493929190610cb5565b9086519088820192835287820152868152610d2681610afd565b519020610cfe565b50509550505050505090565b9050421138610ca6565b5050509550505050505090565b634e487b7160e01b86526041600452602486fd5b505050505050509550505050505090565b5050505050509550505050505090565b9050421138610c0e565b60ff60015416610d9c57565b60405162461bcd60e51b815260206004820152601060248201526f14185d5cd8589b194e881c185d5cd95960821b6044820152606490fdfea2646970667358221220b56f7c618fee96f74549082aa30c0e6d0cc3144a30043bbb3d7af9b7378ecc4f64736f6c63430008180033",
  "linkReferences": {},
  "deployedLinkReferences": {}
}