{
  "_format": "hh-sol-artifact-1",
  "contractName": "CapabilityRegistry",
  "sourceName": "src/CapabilityRegistry.sol",
  "abi": [
    {
      "inputs": [],
      "stateMutability": "nonpayable",
      "type": "constructor"
    },
    {
      "inputs": [],
      "name": "ActionRequired",
      "type": "error"
    },
    {
      "inputs": [
        {
          "internalType": "address",
          "name": "target",
          "type": "address"
        }
      ],
      "name": "AddressEmptyCode",
      "type": "error"
    },
    {
      "inputs": [],
      "name": "AlreadyRevokedCapability",
      "type": "error"
    },
    {
      "inputs": [],
      "name": "AlreadyRevokedGrant",
      "type": "error"
    },
    {
      "inputs": [],
      "name": "CapabilityExists",
      "type": "error"
    },
    {
      "inputs": [],
      "name": "CapabilityNotFound",
      "type": "error"
    },
    {
      "inputs": [
        {
          "internalType": "address",
          "name": "implementation",
          "type": "address"
        }
      ],
      "name": "ERC1967InvalidImplementation",
      "type": "error"
    },
    {
      "inputs": [],
      "name": "ERC1967NonPayable",
      "type": "error"
    },
    {
      "inputs": [],
      "name": "EnforcedPause",
      "type": "error"
    },
    {
      "inputs": [],
      "name": "ExpectedPause",
      "type": "error"
    },
    {
      "inputs": [],
      "name": "FailedCall",
      "type": "error"
    },
    {
      "inputs": [],
      "name": "GrantNotRevocable",
      "type": "error"
    },
    {
      "inputs": [],
      "name": "InvalidInitialization",
      "type": "error"
    },
    {
      "inputs": [],
      "name": "InvalidRecipient",
      "type": "error"
    },
    {
      "inputs": [],
      "name": "InvalidRoot",
      "type": "error"
    },
    {
      "inputs": [],
      "name": "NotAuthorizedForCapability",
      "type": "error"
    },
    {
      "inputs": [],
      "name": "NotInitializing",
      "type": "error"
    },
    {
      "inputs": [
        {
          "internalType": "address",
          "name": "owner",
          "type": "address"
        }
      ],
      "name": "OwnableInvalidOwner",
      "type": "error"
    },
    {
      "inputs": [
        {
          "internalType": "address",
          "name": "account",
          "type": "address"
        }
      ],
      "name": "OwnableUnauthorizedAccount",
      "type": "error"
    },
    {
      "inputs": [],
      "name": "UUPSUnauthorizedCallContext",
      "type": "error"
    },
    {
      "inputs": [
        {
          "internalType": "bytes32",
          "name": "slot",
          "type": "bytes32"
        }
      ],
      "name": "UUPSUnsupportedProxiableUUID",
      "type": "error"
    },
    {
      "anonymous": false,
      "inputs": [
        {
          "indexed": true,
          "internalType": "bytes32",
          "name": "capabilityId",
          "type": "bytes32"
        },
        {
          "indexed": true,
          "internalType": "bytes32",
          "name": "actionHash",
          "type": "bytes32"
        },
        {
          "indexed": true,
          "internalType": "address",
          "name": "registrar",
          "type": "address"
        }
      ],
      "name": "CapabilityRegistered",
      "type": "event"
    },
    {
      "anonymous": false,
      "inputs": [
        {
          "indexed": true,
          "internalType": "bytes32",
          "name": "capabilityId",
          "type": "bytes32"
        }
      ],
      "name": "CapabilityRevoked",
      "type": "event"
    },
    {
      "anonymous": false,
      "inputs": [
        {
          "indexed": true,
          "internalType": "bytes32",
          "name": "grantLeafHash",
          "type": "bytes32"
        }
      ],
      "name": "GrantRevoked",
      "type": "event"
    },
    {
      "anonymous": false,
      "inputs": [
        {
          "indexed": true,
          "internalType": "address",
          "name": "grantor",
          "type": "address"
        },
        {
          "indexed": true,
          "internalType": "address",
          "name": "grantee",
          "type": "address"
        },
        {
          "indexed": true,
          "internalType": "bytes32",
          "name": "capabilityId",
          "type": "bytes32"
        },
        {
          "indexed": false,
          "internalType": "bytes32",
          "name": "newRoot",
          "type": "bytes32"
        }
      ],
      "name": "GrantRootUpdated",
      "type": "event"
    },
    {
      "anonymous": false,
      "inputs": [
        {
          "indexed": false,
          "internalType": "uint64",
          "name": "version",
          "type": "uint64"
        }
      ],
      "name": "Initialized",
      "type": "event"
    },
    {
      "anonymous": false,
      "inputs": [
        {
          "indexed": true,
          "internalType": "address",
          "name": "previousOwner",
          "type": "address"
        },
        {
          "indexed": true,
          "internalType": "address",
          "name": "newOwner",
          "type": "address"
        }
      ],
      "name": "OwnershipTransferred",
      "type": "event"
    },
    {
      "anonymous": false,
      "inputs": [
        {
          "indexed": false,
          "internalType": "address",
          "name": "account",
          "type": "address"
        }
      ],
      "name": "Paused",
      "type": "event"
    },
    {
      "anonymous": false,
      "inputs": [
        {
          "indexed": false,
          "internalType": "address",
          "name": "account",
          "type": "address"
        }
      ],
      "name": "Unpaused",
      "type": "event"
    },
    {
      "anonymous": false,
      "inputs": [
        {
          "indexed": true,
          "internalType": "address",
          "name": "implementation",
          "type": "address"
        }
      ],
      "name": "Upgraded",
      "type": "event"
    },
    {
      "inputs": [],
      "name": "UPGRADE_INTERFACE_VERSION",
      "outputs": [
        {
          "internalType": "string",
          "name": "",
          "type": "string"
        }
      ],
      "stateMutability": "view",
      "type": "function"
    },
    {
      "inputs": [
        {
          "internalType": "bytes32",
          "name": "",
          "type": "bytes32"
        }
      ],
      "name": "capabilities",
      "outputs": [
        {
          "internalType": "bytes32",
          "name": "actionHash",
          "type": "bytes32"
        },
        {
          "internalType": "address",
          "name": "registrar",
          "type": "address"
        },
        {
          "internalType": "uint64",
          "name": "createdAt",
          "type": "uint64"
        },
        {
          "internalType": "uint64",
          "name": "expiresAt",
          "type": "uint64"
        },
        {
          "internalType": "bool",
          "name": "revoked",
          "type": "bool"
        }
      ],
      "stateMutability": "view",
      "type": "function"
    },
    {
      "inputs": [
        {
          "internalType": "bytes32",
          "name": "capabilityId",
          "type": "bytes32"
        }
      ],
      "name": "getCapability",
      "outputs": [
        {
          "components": [
            {
              "internalType": "bytes32",
              "name": "actionHash",
              "type": "bytes32"
            },
            {
              "internalType": "address",
              "name": "registrar",
              "type": "address"
            },
            {
              "internalType": "uint64",
              "name": "createdAt",
              "type": "uint64"
            },
            {
              "internalType": "uint64",
              "name": "expiresAt",
              "type": "uint64"
            },
            {
              "internalType": "bool",
              "name": "revoked",
              "type": "bool"
            }
          ],
          "internalType": "struct CapabilityRegistry.CapabilityDef",
          "name": "",
          "type": "tuple"
        }
      ],
      "stateMutability": "view",
      "type": "function"
    },
    {
      "inputs": [
        {
          "internalType": "uint256",
          "name": "index",
          "type": "uint256"
        }
      ],
      "name": "getCapabilityAt",
      "outputs": [
        {
          "internalType": "bytes32",
          "name": "",
          "type": "bytes32"
        }
      ],
      "stateMutability": "view",
      "type": "function"
    },
    {
      "inputs": [],
      "name": "getCapabilityCount",
      "outputs": [
        {
          "internalType": "uint256",
          "name": "",
          "type": "uint256"
        }
      ],
      "stateMutability": "view",
      "type": "function"
    },
    {
      "inputs": [
        {
          "internalType": "address",
          "name": "",
          "type": "address"
        },
        {
          "internalType": "address",
          "name": "",
          "type": "address"
        },
        {
          "internalType": "bytes32",
          "name": "",
          "type": "bytes32"
        }
      ],
      "name": "grantRoots",
      "outputs": [
        {
          "internalType": "bytes32",
          "name": "",
          "type": "bytes32"
        }
      ],
      "stateMutability": "view",
      "type": "function"
    },
    {
      "inputs": [
        {
          "internalType": "address",
          "name": "owner_",
          "type": "address"
        }
      ],
      "name": "initialize",
      "outputs": [],
      "stateMutability": "nonpayable",
      "type": "function"
    },
    {
      "inputs": [],
      "name": "owner",
      "outputs": [
        {
          "internalType": "address",
          "name": "",
          "type": "address"
        }
      ],
      "stateMutability": "view",
      "type": "function"
    },
    {
      "inputs": [],
      "name": "pause",
      "outputs": [],
      "stateMutability": "nonpayable",
      "type": "function"
    },
    {
      "inputs": [],
      "name": "paused",
      "outputs": [
        {
          "internalType": "bool",
          "name": "",
          "type": "bool"
        }
      ],
      "stateMutability": "view",
      "type": "function"
    },
    {
      "inputs": [],
      "name": "proxiableUUID",
      "outputs": [
        {
          "internalType": "bytes32",
          "name": "",
          "type": "bytes32"
        }
      ],
      "stateMutability": "view",
      "type": "function"
    },
    {
      "inputs": [
        {
          "internalType": "bytes32",
          "name": "capabilityId",
          "type": "bytes32"
        },
        {
          "internalType": "string",
          "name": "action",
          "type": "string"
        },
        {
          "internalType": "uint64",
          "name": "expiresAt",
          "type": "uint64"
        }
      ],
      "name": "registerCapability",
      "outputs": [],
      "stateMutability": "nonpayable",
      "type": "function"
    },
    {
      "inputs": [],
      "name": "renounceOwnership",
      "outputs": [],
      "stateMutability": "nonpayable",
      "type": "function"
    },
    {
      "inputs": [
        {
          "internalType": "bytes32",
          "name": "capabilityId",
          "type": "bytes32"
        }
      ],
      "name": "revokeCapability",
      "outputs": [],
      "stateMutability": "nonpayable",
      "type": "function"
    },
    {
      "inputs": [
        {
          "internalType": "bytes32",
          "name": "grantLeafHash",
          "type": "bytes32"
        },
        {
          "internalType": "bytes32",
          "name": "capabilityId",
          "type": "bytes32"
        },
        {
          "internalType": "address",
          "name": "grantor",
          "type": "address"
        },
        {
          "internalType": "address",
          "name": "grantee",
          "type": "address"
        }
      ],
      "name": "revokeGrant",
      "outputs": [],
      "stateMutability": "nonpayable",
      "type": "function"
    },
    {
      "inputs": [
        {
          "internalType": "bytes32",
          "name": "",
          "type": "bytes32"
        }
      ],
      "name": "revokedGrants",
      "outputs": [
        {
          "internalType": "bool",
          "name": "",
          "type": "bool"
        }
      ],
      "stateMutability": "view",
      "type": "function"
    },
    {
      "inputs": [
        {
          "internalType": "address",
          "name": "newOwner",
          "type": "address"
        }
      ],
      "name": "transferOwnership",
      "outputs": [],
      "stateMutability": "nonpayable",
      "type": "function"
    },
    {
      "inputs": [],
      "name": "unpause",
      "outputs": [],
      "stateMutability": "nonpayable",
      "type": "function"
    },
    {
      "inputs": [
        {
          "internalType": "address",
          "name": "grantee",
          "type": "address"
        },
        {
          "internalType": "bytes32",
          "name": "capabilityId",
          "type": "bytes32"
        },
        {
          "internalType": "bytes32",
          "name": "newRoot",
          "type": "bytes32"
        }
      ],
      "name": "updateGrantRoot",
      "outputs": [],
      "stateMutability": "nonpayable",
      "type": "function"
    },
    {
      "inputs": [
        {
          "internalType": "address",
          "name": "newImplementation",
          "type": "address"
        },
        {
          "internalType": "bytes",
          "name": "data",
          "type": "bytes"
        }
      ],
      "name": "upgradeToAndCall",
      "outputs": [],
      "stateMutability": "payable",
      "type": "function"
    },
    {
      "inputs": [
        {
          "internalType": "address",
          "name": "agent",
          "type": "address"
        },
        {
          "internalType": "bytes32",
          "name": "capabilityId",
          "type": "bytes32"
        },
        {
          "internalType": "bytes32",
          "name": "grantLeaf",
          "type": "bytes32"
        },
        {
          "internalType": "bytes32[]",
          "name": "merkleProof",
          "type": "bytes32[]"
        },
        {
          "internalType": "address",
          "name": "grantor",
          "type": "address"
        },
        {
          "internalType": "bytes32",
          "name": "constraintsHash",
          "type": "bytes32"
        },
        {
          "internalType": "uint64",
          "name": "expiresAt",
          "type": "uint64"
        }
      ],
      "name": "verifyCapability",
      "outputs": [
        {
          "internalType": "bool",
          "name": "",
          "type": "bool"
        }
      ],
      "stateMutability": "view",
      "type": "function"
    }
  ],
  "bytecode": "0x60a080604052346100cc57306080527ff0c57e16840df040f15088dc2f81fe391c3923bec73e23a9662efc9c229c6a009081549060ff8260401c166100bd57506001600160401b036002600160401b031982821601610078575b6040516114e090816100d2823960805181818161090f01526109ee0152f35b6001600160401b031990911681179091556040519081527fc7f505b2f371ae2175ee4913f4499e1f2633a7b5936321eed1cdaeb6115181d290602090a1388080610059565b63f92ee8a960e01b8152600490fd5b600080fdfe604061010081526004908136101561001657600080fd5b600091823560e01c9182632435499214610dd95782632f1fd28b14610d7a5782633f4ba83a14610d025782634bea132c14610bdd5782634f1ef2861461097357826352d1902d146108fb57826356ab5d7a146108245782635c975abb146107f35782636f4907a6146107c7578263715018a61461075d5782637b23648a146106c05782638456cb59146106585782638da5cb5b146106225782639cb7c5f414610562578263ad3cb1cc146104c4578263adf4d59e14610329578263b036fe7e14610306578263c2ead131146102a0578263c4d66de814610168578263e6a2aaba1461013b57505063f2fde38b1461010c57600080fd5b3461013857602036600319011261013857610135610128610fef565b61013061138d565b6112ee565b80f35b80fd5b8334610138576020366003190112610138575061015a60209235611077565b91905490519160031b1c8152f35b91503461029c57602036600319011261029c57610183610fef565b907ff0c57e16840df040f15088dc2f81fe391c3923bec73e23a9662efc9c229c6a0091825460ff81861c1615926001600160401b03821680159081610294575b600114908161028a575b159081610281575b50610273575067ffffffffffffffff1981166001178455610208919083610254575b506102006113c6565b6101306113c6565b6102106113c6565b610218578280f35b805460ff60401b1916905551600181527fc7f505b2f371ae2175ee4913f4499e1f2633a7b5936321eed1cdaeb6115181d290602090a138808280f35b68ffffffffffffffffff191668010000000000000001178455386101f7565b855163f92ee8a960e01b8152fd5b905015386101d5565b303b1591506101cd565b8591506101c3565b8280fd5b91503461029c57602036600319011261029c578160a09360ff92358152806020522080549260026001830154926001600160401b039182910154938351968752600180891b0381166020880152871c1682860152821660608501521c1615156080820152f35b8390346103255781600319360112610325576020906001549051908152f35b5080fd5b839034610325576020366003190112610325578235908183528260205280832060018101546001600160401b038160a01c16156104b4576001600160a01b039081163314159081610498575b5061048857600201805460ff81841c166104785760ff60401b1916600160401b1790558183526002602052808320546001546000199190828101908111610465576103bf90611077565b90549060031b1c806103ea6103d384611077565b819391549060031b91821b91600019901b19161790565b905585526002602052828520556001548015610452579080859392019061041082611077565b909182549160031b1b1916905560015582825260026020528120557f49605d0360d8e90064c274ba9997a3d883d637411e4a6855594c367b31679d668280a280f35b634e487b7160e01b855260318652602485fd5b634e487b7160e01b865260118752602486fd5b825163f3d4f46960e01b81528690fd5b815163093886bb60e21b81528590fd5b905060008051602061146b833981519152541633141586610375565b8251635ad384df60e11b81528690fd5b91503461029c578260031936011261029c57815190828201908282106001600160401b0383111761054f5750825260058152602090640352e302e360dc1b6020820152825193849260208452825192836020860152825b84811061053957505050828201840152601f01601f19168101030190f35b818101830151888201880152879550820161051b565b634e487b7160e01b855260419052602484fd5b91503461029c57602036600319011261029c5782829160a094608084516105888161100a565b828152826020820152828682015282606082015201523581528060205220600282516105b38161100a565b825493848252600184015493600180881b0394602084019580821687526001600160401b0395869384868801948c1c16845201549660ff60806060880197868b1689520198861c1615158852845198895251166020880152511690850152511660608301525115156080820152f35b83903461032557816003193601126103255760008051602061146b8339815191525490516001600160a01b039091168152602090f35b83903461032557816003193601126103255760207f62e78cea01bee320cd4e420270b5ea74000d11b0c9f74754ebdbfc544b05a2589161069661138d565b61069e611362565b60008051602061148b833981519152805460ff1916600117905551338152a180f35b83346101385760e0366003190112610138576106da610fef565b90606435916001600160401b039485841161029c573660238501121561029c578301359085821161029c573660248360051b8601011161029c57608435926001600160a01b03841684036101385760c4359687168703610138575091610754939160209693602460a43594019060443590602435906110c4565b90519015158152f35b833461013857806003193601126101385761077661138d565b60008051602061146b83398151915280546001600160a01b0319811690915581906001600160a01b03167f8be0079c531659141344cd1fd0a4f28419497f9722a3daafe3b4186f6b6457e08280a380f35b91503461029c57602036600319011261029c57816020938260ff93358252855220541690519015158152f35b83903461032557816003193601126103255760209060ff60008051602061148b833981519152541690519015158152f35b91503461029c57606036600319011261029c5761083f610fef565b602435926044359161084f611362565b6001600160a01b03169283156108ed57848652856020526001600160401b036001838820015460a01c16156108df5782156108d1575033855260036020528085208386526020528085208486526020528181862055519081527f048c28aa838588f428d938cc38ac67eb079f74de104711a2d53f041db683def760203392a480f35b905163504570e360e01b8152fd5b9051635ad384df60e11b8152fd5b9051634e46966960e11b8152fd5b8334610138578060031936011261013857507f00000000000000000000000000000000000000000000000000000000000000006001600160a01b0316300361096657602090517f360894a13ba1a3210667c828492db98dca3e2076cc3735a920a3ca505d382bbc8152f35b5163703e46dd60e11b8152fd5b8091925060031936011261029c57610989610fef565b9060249384356001600160401b038111610325573660238201121561032557808501356109b58161105c565b946109c28551968761103b565b81865260209182870193368a8383010111610bd9578186928b8693018737880101526001600160a01b037f00000000000000000000000000000000000000000000000000000000000000008116308114908115610bab575b50610b9b57610a2761138d565b81169585516352d1902d60e01b815283818a818b5afa869181610b68575b50610a61575050505050505191634c9c8ce360e01b8352820152fd5b9088888894938c7f360894a13ba1a3210667c828492db98dca3e2076cc3735a920a3ca505d382bbc91828103610b535750853b15610b3f575080546001600160a01b031916821790558451889392917fbc7cd75a20ee27fd9adebab32041f755214dbc6bffa90cc0225b39da2e5c2d3b8580a2825115610b21575050610b139582915190845af4913d15610b17573d610b05610afc8261105c565b9251928361103b565b81528581943d92013e611407565b5080f35b5060609250611407565b955095505050505034610b3357505080f35b63b398979f60e01b8152fd5b8651634c9c8ce360e01b8152808501849052fd5b8751632a87526960e21b815280860191909152fd5b9091508481813d8311610b94575b610b80818361103b565b81010312610b9057519038610a45565b8680fd5b503d610b76565b855163703e46dd60e11b81528890fd5b9050817f360894a13ba1a3210667c828492db98dca3e2076cc3735a920a3ca505d382bbc5416141538610a1a565b8580fd5b9091503461029c57608036600319011261029c578135916001600160a01b0360243560443582811690819003610b905760643590838216809203610cfe57828852602093888552806001888b200154163314159081610ce2575b5080610cd8575b610cc857875260038352848720908752825283862090865281528285205415610cb95783855281815260ff8386205416610caa57838552528220805460ff191660011790557fbc7909d45ab794ee63122077124d9ce05bea1db0768be90c77d2eddbdf1eef4f8280a280f35b50905163ef5a719160e01b8152fd5b509051632f6d57e360e11b8152fd5b8551632f6d57e360e11b81528590fd5b5080331415610c3e565b905060008051602061146b833981519152541633141538610c37565b8780fd5b91503461029c578260031936011261029c57610d1c61138d565b60008051602061148b8339815191529081549060ff821615610d6c575060ff19169055513381527f5db9ee0a495bf2e6ff9c91a7834c1ba4fdd244a5e8aa4e537bd38aeae4b073aa90602090a180f35b8351638dfc202b60e01b8152fd5b83903461032557606036600319011261032557610d95610fef565b6001600160a01b036024358181169290839003610dd557916020949184931682526003855282822090825284528181206044358252845220549051908152f35b8480fd5b8390346103255760603660031901126103255782356024356001600160401b03808211610dd55736602383011215610dd5578186013593818511610bd95760248301926024863692010111610bd95760443591808316809303610b9057610e3e611362565b610e4661138d565b8487526020928784526001918083858b20015460a01c16610fdf578715610fcf5788906002878a610e8e8989518381948383019687378101888382015203808452018261103b565b519020865190610e9d8261100a565b81528781013381528782018442168152606083019687528860808401968088528d8152808c5220925183558783019160018060a01b039051168254916001600160401b0360a01b905160a01b169163ffffffff60e01b16171790550192511668ff0000000000000000835492511515861b169168ffffffffffffffffff1916171790558054600160401b811015610fbc57610f406103d382848994018555611077565b9055546000198101908111610fa95790610f7c92918588526002835281882055518581968383019586378101878382015203808652018461103b565b3392519020907ff29a7a8b7e17110feb5338446fbfdcb1f7370015c5a13bfdf070ccbf6b5e2dfe8480a480f35b634e487b7160e01b875260118852602487fd5b634e487b7160e01b885260418952602488fd5b8351630731582160e51b81528a90fd5b83516305b8e23b60e01b81528a90fd5b600435906001600160a01b038216820361100557565b600080fd5b60a081019081106001600160401b0382111761102557604052565b634e487b7160e01b600052604160045260246000fd5b90601f801991011681019081106001600160401b0382111761102557604052565b6001600160401b03811161102557601f01601f191660200190565b6001548110156110ae5760016000527fb10e2d527612073b26eecdfd717e6a320cf44b4afac2b0732d9fcbe2b7fa0cf60190600090565b634e487b7160e01b600052603260045260246000fd5b9297919096949660e052600060805260e051608051526020946080518652604060c05260c051608051209060028201549160ff8360c0511c166112d3576001600160401b0380931680151590816112e4575b506112d357600101546001600160a01b03998a16999081168a90036112d35790829160c051519689880160a05260e05160a051528b60c0518901521698896060880152608087015216968760a086015260a0855260c0850198858a10838b1117611292578960c0515283865160a05120036112d357608051526003875260c051608051209060805152865260c0516080512060e05160805152865260c05160805120549687156112c35782608051526004875260ff60c0516080512054166112c35780151590816112b9575b506112aa578411611292576005978460051b946112018787018a61103b565b885260e09460e085019082019136831161128c578790915b83831061127c575050505094608051955b87518710156112715786891b8401850151908181101561125c57608051528552600160c051608051205b96019561122a565b90608051528552600160c05160805120611254565b149650945050505050565b8235815291810191889101611219565b60805180fd5b634e487b7160e01b6080515260416004526024608051fd5b50509550505050505060805190565b90504211386111e2565b5050509550505050505060805190565b505050509550505050505060805190565b9050421138611116565b6001600160a01b039081169081156113495760008051602061146b83398151915280546001600160a01b031981168417909155167f8be0079c531659141344cd1fd0a4f28419497f9722a3daafe3b4186f6b6457e0600080a3565b604051631e4fbdf760e01b815260006004820152602490fd5b60ff60008051602061148b833981519152541661137b57565b60405163d93c066560e01b8152600490fd5b60008051602061146b833981519152546001600160a01b031633036113ae57565b60405163118cdaa760e01b8152336004820152602490fd5b60ff7ff0c57e16840df040f15088dc2f81fe391c3923bec73e23a9662efc9c229c6a005460401c16156113f557565b604051631afcd79f60e31b8152600490fd5b9061142e575080511561141c57805190602001fd5b60405163d6bda27560e01b8152600490fd5b81511580611461575b61143f575090565b604051639996b31560e01b81526001600160a01b039091166004820152602490fd5b50803b1561143756fe9016d09d72d40fdae2fd8ceac6b6234c7706214fd39c1cd1e609a0528c199300cd5ed15c6e187e77e9aee88184c21f4f2182ab5827cb3b7e07fbedcd63f03300a2646970667358221220a89f48b353044cdfccde7201763c8ff7d1f88d8e43a6c7f40d03fdd08248299a64736f6c63430008180033",
  "linkReferences": {},
  "deployedLinkReferences": {}
}