{
  "_format": "hh-sol-artifact-1",
  "contractName": "AgentWallet",
  "sourceName": "src/AgentWallet.sol",
  "abi": [
    {
      "inputs": [],
      "stateMutability": "nonpayable",
      "type": "constructor"
    },
    {
      "inputs": [],
      "name": "AlreadyInitializedError",
      "type": "error"
    },
    {
      "inputs": [],
      "name": "CallFailedError",
      "type": "error"
    },
    {
      "inputs": [],
      "name": "ExecutionFailedError",
      "type": "error"
    },
    {
      "inputs": [],
      "name": "FundingFailedError",
      "type": "error"
    },
    {
      "inputs": [],
      "name": "InvalidCallDataError",
      "type": "error"
    },
    {
      "inputs": [],
      "name": "InvalidEntryPointError",
      "type": "error"
    },
    {
      "inputs": [],
      "name": "InvalidOwnerError",
      "type": "error"
    },
    {
      "inputs": [],
      "name": "InvalidOwnerSignatureError",
      "type": "error"
    },
    {
      "inputs": [],
      "name": "InvalidRecipientError",
      "type": "error"
    },
    {
      "inputs": [],
      "name": "InvalidSessionManagerError",
      "type": "error"
    },
    {
      "inputs": [],
      "name": "LengthMismatchError",
      "type": "error"
    },
    {
      "inputs": [],
      "name": "LightweightSessionValidationFailedError",
      "type": "error"
    },
    {
      "inputs": [],
      "name": "NotAuthorizedError",
      "type": "error"
    },
    {
      "inputs": [],
      "name": "NotEntryPointError",
      "type": "error"
    },
    {
      "inputs": [],
      "name": "NotOwnerError",
      "type": "error"
    },
    {
      "inputs": [],
      "name": "NotWhiteListedError",
      "type": "error"
    },
    {
      "inputs": [],
      "name": "SessionValidationFailedError",
      "type": "error"
    },
    {
      "inputs": [],
      "name": "UnsupportedCallDataError",
      "type": "error"
    },
    {
      "anonymous": false,
      "inputs": [
        {
          "indexed": true,
          "internalType": "address",
          "name": "caller",
          "type": "address"
        },
        {
          "indexed": false,
          "internalType": "uint256",
          "name": "callCount",
          "type": "uint256"
        },
        {
          "indexed": false,
          "internalType": "uint256",
          "name": "totalValue",
          "type": "uint256"
        }
      ],
      "name": "BatchExecutionPerformed",
      "type": "event"
    },
    {
      "anonymous": false,
      "inputs": [
        {
          "indexed": false,
          "internalType": "uint256",
          "name": "amount",
          "type": "uint256"
        },
        {
          "indexed": false,
          "internalType": "uint256",
          "name": "newBalance",
          "type": "uint256"
        }
      ],
      "name": "EntryPointDepositAdded",
      "type": "event"
    },
    {
      "anonymous": false,
      "inputs": [
        {
          "indexed": true,
          "internalType": "address",
          "name": "recipient",
          "type": "address"
        },
        {
          "indexed": false,
          "internalType": "uint256",
          "name": "amount",
          "type": "uint256"
        }
      ],
      "name": "EntryPointWithdrawal",
      "type": "event"
    },
    {
      "anonymous": false,
      "inputs": [
        {
          "indexed": true,
          "internalType": "address",
          "name": "caller",
          "type": "address"
        },
        {
          "indexed": true,
          "internalType": "address",
          "name": "target",
          "type": "address"
        },
        {
          "indexed": false,
          "internalType": "uint256",
          "name": "value",
          "type": "uint256"
        },
        {
          "indexed": false,
          "internalType": "bytes32",
          "name": "dataHash",
          "type": "bytes32"
        }
      ],
      "name": "ExecutionPerformed",
      "type": "event"
    },
    {
      "anonymous": false,
      "inputs": [
        {
          "indexed": true,
          "internalType": "address",
          "name": "oldOwner",
          "type": "address"
        },
        {
          "indexed": true,
          "internalType": "address",
          "name": "newOwner",
          "type": "address"
        }
      ],
      "name": "OwnerChanged",
      "type": "event"
    },
    {
      "anonymous": false,
      "inputs": [
        {
          "indexed": true,
          "internalType": "address",
          "name": "previousOwner",
          "type": "address"
        },
        {
          "indexed": true,
          "internalType": "address",
          "name": "newOwner",
          "type": "address"
        }
      ],
      "name": "OwnershipTransferStarted",
      "type": "event"
    },
    {
      "anonymous": false,
      "inputs": [
        {
          "indexed": true,
          "internalType": "bytes32",
          "name": "userOpHash",
          "type": "bytes32"
        },
        {
          "indexed": true,
          "internalType": "address",
          "name": "signer",
          "type": "address"
        },
        {
          "indexed": true,
          "internalType": "bytes32",
          "name": "sessionId",
          "type": "bytes32"
        },
        {
          "indexed": false,
          "internalType": "uint256",
          "name": "value",
          "type": "uint256"
        }
      ],
      "name": "UserOperationValidated",
      "type": "event"
    },
    {
      "anonymous": false,
      "inputs": [
        {
          "indexed": true,
          "internalType": "address",
          "name": "owner",
          "type": "address"
        },
        {
          "indexed": true,
          "internalType": "address",
          "name": "sessionManager",
          "type": "address"
        },
        {
          "indexed": true,
          "internalType": "address",
          "name": "entryPoint",
          "type": "address"
        }
      ],
      "name": "WalletInitialized",
      "type": "event"
    },
    {
      "anonymous": false,
      "inputs": [
        {
          "indexed": true,
          "internalType": "address",
          "name": "party",
          "type": "address"
        },
        {
          "indexed": false,
          "internalType": "bool",
          "name": "status",
          "type": "bool"
        }
      ],
      "name": "WhiteListUpdated",
      "type": "event"
    },
    {
      "inputs": [],
      "name": "acceptOwnership",
      "outputs": [],
      "stateMutability": "nonpayable",
      "type": "function"
    },
    {
      "inputs": [],
      "name": "addDeposit",
      "outputs": [],
      "stateMutability": "payable",
      "type": "function"
    },
    {
      "inputs": [
        {
          "internalType": "address",
          "name": "newOwner",
          "type": "address"
        }
      ],
      "name": "changeOwner",
      "outputs": [],
      "stateMutability": "nonpayable",
      "type": "function"
    },
    {
      "inputs": [],
      "name": "checkBalance",
      "outputs": [
        {
          "internalType": "uint256",
          "name": "",
          "type": "uint256"
        }
      ],
      "stateMutability": "view",
      "type": "function"
    },
    {
      "inputs": [],
      "name": "entryPoint",
      "outputs": [
        {
          "internalType": "address",
          "name": "",
          "type": "address"
        }
      ],
      "stateMutability": "view",
      "type": "function"
    },
    {
      "inputs": [
        {
          "internalType": "address",
          "name": "target",
          "type": "address"
        },
        {
          "internalType": "uint256",
          "name": "value",
          "type": "uint256"
        },
        {
          "internalType": "bytes",
          "name": "data",
          "type": "bytes"
        }
      ],
      "name": "execute",
      "outputs": [],
      "stateMutability": "nonpayable",
      "type": "function"
    },
    {
      "inputs": [
        {
          "internalType": "address[]",
          "name": "targets",
          "type": "address[]"
        },
        {
          "internalType": "uint256[]",
          "name": "values",
          "type": "uint256[]"
        },
        {
          "internalType": "bytes[]",
          "name": "data",
          "type": "bytes[]"
        }
      ],
      "name": "executeBatch",
      "outputs": [],
      "stateMutability": "nonpayable",
      "type": "function"
    },
    {
      "inputs": [],
      "name": "getDeposit",
      "outputs": [
        {
          "internalType": "uint256",
          "name": "",
          "type": "uint256"
        }
      ],
      "stateMutability": "view",
      "type": "function"
    },
    {
      "inputs": [
        {
          "internalType": "address",
          "name": "_owner",
          "type": "address"
        },
        {
          "internalType": "address",
          "name": "_sessionManager",
          "type": "address"
        },
        {
          "internalType": "address",
          "name": "_entryPoint",
          "type": "address"
        }
      ],
      "name": "initialize",
      "outputs": [],
      "stateMutability": "nonpayable",
      "type": "function"
    },
    {
      "inputs": [],
      "name": "owner",
      "outputs": [
        {
          "internalType": "address",
          "name": "",
          "type": "address"
        }
      ],
      "stateMutability": "view",
      "type": "function"
    },
    {
      "inputs": [],
      "name": "pendingOwner",
      "outputs": [
        {
          "internalType": "address",
          "name": "",
          "type": "address"
        }
      ],
      "stateMutability": "view",
      "type": "function"
    },
    {
      "inputs": [],
      "name": "sessionManager",
      "outputs": [
        {
          "internalType": "address",
          "name": "",
          "type": "address"
        }
      ],
      "stateMutability": "view",
      "type": "function"
    },
    {
      "inputs": [
        {
          "internalType": "address",
          "name": "party",
          "type": "address"
        },
        {
          "internalType": "bool",
          "name": "status",
          "type": "bool"
        }
      ],
      "name": "setWhiteListedParty",
      "outputs": [],
      "stateMutability": "nonpayable",
      "type": "function"
    },
    {
      "inputs": [
        {
          "internalType": "address[]",
          "name": "parties",
          "type": "address[]"
        },
        {
          "internalType": "bool[]",
          "name": "statuses",
          "type": "bool[]"
        }
      ],
      "name": "setWhiteListedPartyBatch",
      "outputs": [],
      "stateMutability": "nonpayable",
      "type": "function"
    },
    {
      "inputs": [
        {
          "components": [
            {
              "internalType": "address",
              "name": "sender",
              "type": "address"
            },
            {
              "internalType": "uint256",
              "name": "nonce",
              "type": "uint256"
            },
            {
              "internalType": "bytes",
              "name": "initCode",
              "type": "bytes"
            },
            {
              "internalType": "bytes",
              "name": "callData",
              "type": "bytes"
            },
            {
              "internalType": "bytes32",
              "name": "accountGasLimits",
              "type": "bytes32"
            },
            {
              "internalType": "uint256",
              "name": "preVerificationGas",
              "type": "uint256"
            },
            {
              "internalType": "bytes32",
              "name": "gasFees",
              "type": "bytes32"
            },
            {
              "internalType": "bytes",
              "name": "paymasterAndData",
              "type": "bytes"
            },
            {
              "internalType": "bytes",
              "name": "signature",
              "type": "bytes"
            }
          ],
          "internalType": "struct PackedUserOperation",
          "name": "userOp",
          "type": "tuple"
        },
        {
          "internalType": "bytes32",
          "name": "userOpHash",
          "type": "bytes32"
        },
        {
          "internalType": "uint256",
          "name": "missingAccountFunds",
          "type": "uint256"
        }
      ],
      "name": "validateUserOp",
      "outputs": [
        {
          "internalType": "uint256",
          "name": "validationData",
          "type": "uint256"
        }
      ],
      "stateMutability": "nonpayable",
      "type": "function"
    },
    {
      "inputs": [
        {
          "internalType": "address",
          "name": "",
          "type": "address"
        }
      ],
      "name": "whiteListedParties",
      "outputs": [
        {
          "internalType": "bool",
          "name": "",
          "type": "bool"
        }
      ],
      "stateMutability": "view",
      "type": "function"
    },
    {
      "inputs": [
        {
          "internalType": "address payable",
          "name": "recipient",
          "type": "address"
        },
        {
          "internalType": "uint256",
          "name": "amount",
          "type": "uint256"
        }
      ],
      "name": "withdrawDepositTo",
      "outputs": [],
      "stateMutability": "nonpayable",
      "type": "function"
    },
    {
      "stateMutability": "payable",
      "type": "receive"
    }
  ],
  "bytecode": "0x60808060405234610028576001600055600160ff196006541617600655611896908161002e8239f35b600080fdfe6080604052600436101561001b575b361561001957600080fd5b005b60003560e01c806319822f7c1461012b57806347e1da2a146101265780634a58db19146101215780634d44560d1461011c57806379ba5097146101175780638da5cb5b146101125780639f5e3ecc1461010d578063a6f9dae114610108578063b0d691fe14610103578063b61d27f6146100fe578063b7b13f79146100f9578063b8434685146100f4578063c0c53b8b146100ef578063c399ec88146100ea578063c71daccb146100e5578063e30c3978146100e05763f9c56aa60361000e57610cac565b610c79565b610c5d565b610bed565b610aca565b610a88565b610a5f565b6109fa565b6109d1565b61092d565b6107ea565b6107c1565b610725565b6105fc565b61048c565b610259565b34610224576003196060368201126102245760048035916001600160401b0383116102245761012090833603011261022457805460443592602435916001600160a01b039190821633036102135760ff60065416156102025782610190918501611059565b91949095806101d6575b50507f3beba097c09c235465df7c6857b74b6435ffb77e2cb08a8f714156c35da60373916020916040519586521693a460405160008152602090f35b600080808093335af16101e7610db4565b50156101f3578061019a565b60405163323e69dd60e11b8152fd5b604051630173063360e51b81528490fd5b60405163f02946ad60e01b81528490fd5b600080fd5b9181601f84011215610224578235916001600160401b038311610224576020808501948460051b01011161022457565b34610224576060366003190112610224576001600160401b03600480358281116102245761028a9036908301610229565b9290602435828111610224576102a39036908501610229565b939092604435908111610224576102bd9036908301610229565b936102c6611297565b60ff60065416156104705760018054909590336001600160a01b0391821614159081610462575b5061045157868814801590610447575b610436579594939291906000966000965b898089106103545760408051918252602082018b905233917f36551ad729f069397fd12c263eba2bdbdb0e999953df151620e1ec9edd8f2aaf9190a26100196001600055565b61039a6103936103796103748c61039e958c9d9e9f9798999a9b9c610dfa565b610e0f565b6001600160a01b0316600090815260056020526040902090565b5460ff1690565b1590565b610425576103b8906103b18a8487610dfa565b3590610e1c565b976103c7610374828c8a610dfa565b6000806103d5848689610dfa565b35926103e285888b610e71565b90946040956103f5875180948193610e8c565b03925af1610401610db4565b5015610416575087019695949392919061030e565b5163ec98ced760e01b81528690fd5b604051633e2d764560e01b81528690fd5b604051637736a16d60e01b81528490fd5b50808714156102fd565b6040516379b798cf60e11b81528490fd5b9050845416331415386102ed565b604051630173063360e51b81528390fd5b600091031261022457565b6000806003193601126105e85760ff60065416156105d6576004546104c7906104bb906001600160a01b031681565b6001600160a01b031690565b803b156105d25760405163b760faf960e01b81523060048201529082908290602490829034905af180156105b4576105b9575b50600454610512906104bb906001600160a01b031681565b6040516370a0823160e01b815230600482015290602090829060249082905afa9081156105b4577f4936e4683983dc3b8afb17c6844af8a193b8bdc330595d260421c7e84ebf683e9161057f918491610585575b5060408051348152602081019290925290918291820190565b0390a180f35b6105a7915060203d6020116105ad575b61059f8183610d78565b810190610ea6565b38610566565b503d610595565b610e9a565b806105c66105cc92610d60565b80610481565b386104fa565b5080fd5b604051630173063360e51b8152600490fd5b80fd5b6001600160a01b0381160361022457565b346102245760408060031936011261022457600480359161061c836105eb565b600154602435906001600160a01b0390811633036107165760ff60065416156107075784169384156106f857835461065e906104bb906001600160a01b031681565b93843b1561022457835163040b850f60e31b81526001600160a01b0390921690820190815260208101839052909360009185919082908490829060400103925af19182156105b4577fcae8414aeb02c2a7a7089c22ed61def4882bf260298b39ff6ba047ef80a2f379936106e0936106e5575b50519081529081906020820190565b0390a2005b806105c66106f292610d60565b386106d1565b505051637192f5b760e11b8152fd5b505051630173063360e51b8152fd5b5050516374a2152760e01b8152fd5b34610224576000806003193601126105e85760ff60065416156105d6576002546001600160a01b0390811690338290036107af57600154916001600160601b0360a01b8316176001556107856001600160601b0360a01b60025416600255565b3391167fb532073b38c83145e3e5135377a08bf9aab55bc0fd7c1179cd4fb995d2a5159c8380a380f35b6040516379b798cf60e11b8152600490fd5b34610224576000366003190112610224576001546040516001600160a01b039091168152602090f35b3461022457604080600319360112610224576004906001600160401b039082358281116102245761081e9036908501610229565b92602435908111610224576108369036908601610229565b939060018060a01b03916001968360015416330361091e5760ff600654161561090f57868203610900575060005b81811061086d57005b806108a961087d8a938a87610dfa565b3561088781610ca2565b61089861037961037485888c610dfa565b9060ff801983541691151516179055565b6108b7610374828589610dfa565b7fb1288e9f7bae3599e10819d5553febea48e11a6f8f585b32c8abad397dd2627e866108ec6108e7858d8a610dfa565b610eb5565b8a519015158152921691602090a201610864565b604051637736a16d60e01b8152fd5b604051630173063360e51b8152fd5b6040516374a2152760e01b8152fd5b346102245760203660031901126102245760043561094a816105eb565b6001546001600160a01b0390811691338390036109bf5760ff60065416156105d657169081156109ad57600280546001600160a01b031916831790557f38d16b8cac22d99fc7c124b9cd0de2d3fa1faef420bfe791d8c362d765e22700600080a3005b60405163062ef65960e21b8152600490fd5b6040516374a2152760e01b8152600490fd5b34610224576000366003190112610224576004546040516001600160a01b039091168152602090f35b3461022457606036600319011261022457600435610a17816105eb565b604435906001600160401b0390818311610224573660238401121561022457826004013591821161022457366024838501011161022457602461001993019060243590610ebf565b34610224576000366003190112610224576003546040516001600160a01b039091168152602090f35b3461022457602036600319011261022457600435610aa5816105eb565b60018060a01b03166000526005602052602060ff604060002054166040519015158152f35b3461022457606036600319011261022457600435610ae7816105eb565b602435610af3816105eb565b604435610aff816105eb565b60065460ff166105d6576001600160a01b03918383169182156109ad57838216938415610bdc578116948515610bca57610b9192610b57610b749260018060a01b03166001600160601b0360a01b6001541617600155565b60018060a01b03166001600160601b0360a01b6003541617600355565b60018060a01b03166001600160601b0360a01b6004541617600455565b610ba3600160ff196006541617600655565b7f31f30195006760f9b61e7325457ca7acacfbdd7734b88a22545e264b62357fde600080a4005b6040516392377dd560e01b8152600490fd5b60405162d9b42560e01b8152600490fd5b34610224576000366003190112610224576024602060018060a01b0360045416604051928380926370a0823160e01b82523060048301525afa80156105b457602091600091610c40575b50604051908152f35b610c579150823d84116105ad5761059f8183610d78565b38610c37565b3461022457600036600319011261022457602047604051908152f35b34610224576000366003190112610224576002546040516001600160a01b039091168152602090f35b8015150361022457565b3461022457604036600319011261022457600435610cc9816105eb565b60243590610cd682610ca2565b6001546001600160a01b039190821633036109bf5760ff60065416156105d6577fb1288e9f7bae3599e10819d5553febea48e11a6f8f585b32c8abad397dd2627e9160209116928360005260058252610d3f8160406000209060ff801983541691151516179055565b6040519015158152a2005b634e487b7160e01b600052604160045260246000fd5b6001600160401b038111610d7357604052565b610d4a565b90601f801991011681019081106001600160401b03821117610d7357604052565b6001600160401b038111610d7357601f01601f191660200190565b3d15610ddf573d90610dc582610d99565b91610dd36040519384610d78565b82523d6000602084013e565b606090565b634e487b7160e01b600052603260045260246000fd5b9190811015610e0a5760051b0190565b610de4565b35610e19816105eb565b90565b91908201809211610e2957565b634e487b7160e01b600052601160045260246000fd5b903590601e198136030182121561022457018035906001600160401b0382116102245760200191813603831361022457565b90821015610e0a57610e889160051b810190610e3f565b9091565b908092918237016000815290565b6040513d6000823e3d90fd5b90816020910312610224575190565b35610e1981610ca2565b92919091610ecb611297565b60ff60065416156105d6576001546001600160a01b039190821633141580610fb7575b6107af576001600160a01b0385166000908152600560205260409020610f179061039a90610393565b610fa55760008060405180610f2d818689610e8c565b039087895af1610f3b610db4565b5015610f93577f0e33d84651ce1cd4dc3f8e0dda3367f25aac071e622cf520436716bba196be5392610f6e913691610fc5565b805160209182012060408051958652918501529316923392a3610f916001600055565b565b6040516319a5546560e21b8152600490fd5b604051633e2d764560e01b8152600490fd5b508160045416331415610eee565b929192610fd182610d99565b91610fdf6040519384610d78565b829481845281830111610224578281602093846000960137010152565b9080601f8301121561022457816020610e1993359101610fc5565b9190916040818403126102245780359260208201356001600160401b03811161022457610e199201610ffc565b908160209103126102245751610e1981610ca2565b90916110a461107461106e6060850185610e3f565b90611504565b937f19457468657265756d205369676e6564204d6573736167653a0a333200000000600052601c52603c60002090565b9161010081019060416110b78383610e3f565b905014611237576110cf6110e093926110d792610e3f565b810190611017565b81939194611607565b91846110f96104bb6104bb60035460018060a01b031690565b60405163f545b88b60e01b8152600481018490526001600160a01b038616602482015260448101839052602093918490829060649082906000905af160009181611218575b506111fb57506111a09183918660006111646104bb6104bb60035460018060a01b031690565b60405163370d79f560e21b815260048101949094526001600160a01b039092166024840152604483019390935290938492839182906064820190565b03925af19182156105b4576000926111ce575b5050156111bc57565b60405163e00e6a2560e01b8152600490fd5b6111ed9250803d106111f4575b6111e58183610d78565b810190611044565b38806111b3565b503d6111db565b925050501561120657565b60405163b02726e560e01b8152600490fd5b611230919250853d87116111f4576111e58183610d78565b903861113e565b61124a6112579395949261125192610e3f565b3691610fc5565b90611607565b60015490919061126f906001600160a01b03166104bb565b6001600160a01b03831603611285579160009190565b6040516391fad51160e01b8152600490fd5b6002600054146112a8576002600055565b60405162461bcd60e51b815260206004820152601f60248201527f5265656e7472616e637947756172643a207265656e7472616e742063616c6c006044820152606490fd5b909291928360041161022457831161022457600401916003190190565b91606083830312610224578235611320816105eb565b9260208101359260408201356001600160401b03811161022457610e199201610ffc565b6001600160401b038111610d735760051b60200190565b9080601f8301121561022457602090823561137581611344565b936113836040519586610d78565b81855260208086019260051b82010192831161022457602001905b8282106113ac575050505090565b8135815290830190830161139e565b81601f82011215610224578035916020916113d584611344565b936113e36040519586610d78565b808552838086019160051b8301019280841161022457848301915b84831061140e5750505050505090565b82356001600160401b03811161022457869161142f84848094890101610ffc565b8152019201916113fe565b9091606082840312610224576001600160401b039180358381116102245781019380601f8601121561022457602094803561147481611344565b916114826040519384610d78565b818352878084019260051b820101918483116102245788809201905b8382106114d757505050509482013584811161022457816114c091840161135b565b93604083013590811161022457610e1992016113bb565b82809183356114e5816105eb565b81520191019061149e565b8051821015610e0a5760209160051b010190565b60009291906001600160e01b031961151c838361161c565b16635b0e93fb60e11b81146115d6576323f0ed1560e11b1461154a57604051630141e84160e01b8152600490fd5b8161156092611558926112ed565b81019061143a565b509080518251036115c4576000935b81518510156115be5761159b61039a61039361037961158e89876114f0565b516001600160a01b031690565b610fa5576115b66001916115af87866114f0565b5190610e1c565b94019361156f565b93505050565b604051637736a16d60e01b8152600490fd5b5091925061160181806115f86115f082610e1996886112ed565b81019061130a565b509590506112ed565b9061163a565b610e19916116149161166a565b9190916116be565b90600411611628573590565b60405163fd1da3df60e01b8152600490fd5b6116469181019061130a565b50506001600160a01b031660009081526005602052604090205460ff1615610fa557565b90604181511460001461169457610e88916020820151906060604084015193015160001a906117de565b5050600090600290565b600511156116a857565b634e487b7160e01b600052602160045260246000fd5b6116c78161169e565b806116cf5750565b6116d88161169e565b600181036117255760405162461bcd60e51b815260206004820152601860248201527f45434453413a20696e76616c6964207369676e617475726500000000000000006044820152606490fd5b61172e8161169e565b6002810361177b5760405162461bcd60e51b815260206004820152601f60248201527f45434453413a20696e76616c6964207369676e6174757265206c656e677468006044820152606490fd5b8061178760039261169e565b1461178e57565b60405162461bcd60e51b815260206004820152602260248201527f45434453413a20696e76616c6964207369676e6174757265202773272076616c604482015261756560f01b6064820152608490fd5b9291907f7fffffffffffffffffffffffffffffff5d576e7357a4501ddfe92f46681b20a083116118545791608094939160ff602094604051948552168484015260408301526060820152600093849182805260015afa156105b45781516001600160a01b0381161561184e579190565b50600190565b5050505060009060039056fea2646970667358221220330051b1681aade00b31be0d25eae4cb6497fbe1e4a2c6f581b4747343be9e0864736f6c63430008180033",
  "linkReferences": {},
  "deployedLinkReferences": {}
}