{
  "_format": "hh-sol-artifact-1",
  "contractName": "AgentWallet",
  "sourceName": "src/AgentWallet.sol",
  "abi": [
    {
      "inputs": [],
      "stateMutability": "nonpayable",
      "type": "constructor"
    },
    {
      "anonymous": false,
      "inputs": [
        {
          "indexed": true,
          "internalType": "address",
          "name": "caller",
          "type": "address"
        },
        {
          "indexed": false,
          "internalType": "uint256",
          "name": "callCount",
          "type": "uint256"
        },
        {
          "indexed": false,
          "internalType": "uint256",
          "name": "totalValue",
          "type": "uint256"
        }
      ],
      "name": "BatchExecutionPerformed",
      "type": "event"
    },
    {
      "anonymous": false,
      "inputs": [
        {
          "indexed": false,
          "internalType": "uint256",
          "name": "amount",
          "type": "uint256"
        },
        {
          "indexed": false,
          "internalType": "uint256",
          "name": "newBalance",
          "type": "uint256"
        }
      ],
      "name": "EntryPointDepositAdded",
      "type": "event"
    },
    {
      "anonymous": false,
      "inputs": [
        {
          "indexed": true,
          "internalType": "address",
          "name": "recipient",
          "type": "address"
        },
        {
          "indexed": false,
          "internalType": "uint256",
          "name": "amount",
          "type": "uint256"
        }
      ],
      "name": "EntryPointWithdrawal",
      "type": "event"
    },
    {
      "anonymous": false,
      "inputs": [
        {
          "indexed": true,
          "internalType": "address",
          "name": "caller",
          "type": "address"
        },
        {
          "indexed": true,
          "internalType": "address",
          "name": "target",
          "type": "address"
        },
        {
          "indexed": false,
          "internalType": "uint256",
          "name": "value",
          "type": "uint256"
        },
        {
          "indexed": false,
          "internalType": "bytes",
          "name": "data",
          "type": "bytes"
        }
      ],
      "name": "ExecutionPerformed",
      "type": "event"
    },
    {
      "anonymous": false,
      "inputs": [
        {
          "indexed": true,
          "internalType": "address",
          "name": "oldOwner",
          "type": "address"
        },
        {
          "indexed": true,
          "internalType": "address",
          "name": "newOwner",
          "type": "address"
        }
      ],
      "name": "OwnerChanged",
      "type": "event"
    },
    {
      "anonymous": false,
      "inputs": [
        {
          "indexed": true,
          "internalType": "bytes32",
          "name": "userOpHash",
          "type": "bytes32"
        },
        {
          "indexed": true,
          "internalType": "address",
          "name": "signer",
          "type": "address"
        },
        {
          "indexed": true,
          "internalType": "bytes32",
          "name": "sessionId",
          "type": "bytes32"
        },
        {
          "indexed": false,
          "internalType": "uint256",
          "name": "value",
          "type": "uint256"
        }
      ],
      "name": "UserOperationValidated",
      "type": "event"
    },
    {
      "anonymous": false,
      "inputs": [
        {
          "indexed": true,
          "internalType": "address",
          "name": "owner",
          "type": "address"
        },
        {
          "indexed": true,
          "internalType": "address",
          "name": "sessionManager",
          "type": "address"
        },
        {
          "indexed": true,
          "internalType": "address",
          "name": "entryPoint",
          "type": "address"
        }
      ],
      "name": "WalletInitialized",
      "type": "event"
    },
    {
      "anonymous": false,
      "inputs": [
        {
          "indexed": true,
          "internalType": "address",
          "name": "party",
          "type": "address"
        },
        {
          "indexed": false,
          "internalType": "bool",
          "name": "status",
          "type": "bool"
        }
      ],
      "name": "WhiteListUpdated",
      "type": "event"
    },
    {
      "inputs": [],
      "name": "addDeposit",
      "outputs": [],
      "stateMutability": "payable",
      "type": "function"
    },
    {
      "inputs": [
        {
          "internalType": "address",
          "name": "newOwner",
          "type": "address"
        }
      ],
      "name": "changeOwner",
      "outputs": [],
      "stateMutability": "nonpayable",
      "type": "function"
    },
    {
      "inputs": [],
      "name": "checkBalance",
      "outputs": [
        {
          "internalType": "uint128",
          "name": "",
          "type": "uint128"
        }
      ],
      "stateMutability": "view",
      "type": "function"
    },
    {
      "inputs": [],
      "name": "entryPoint",
      "outputs": [
        {
          "internalType": "address",
          "name": "",
          "type": "address"
        }
      ],
      "stateMutability": "view",
      "type": "function"
    },
    {
      "inputs": [
        {
          "internalType": "address",
          "name": "target",
          "type": "address"
        },
        {
          "internalType": "uint256",
          "name": "value",
          "type": "uint256"
        },
        {
          "internalType": "bytes",
          "name": "data",
          "type": "bytes"
        }
      ],
      "name": "execute",
      "outputs": [],
      "stateMutability": "nonpayable",
      "type": "function"
    },
    {
      "inputs": [
        {
          "internalType": "address[]",
          "name": "targets",
          "type": "address[]"
        },
        {
          "internalType": "uint256[]",
          "name": "values",
          "type": "uint256[]"
        },
        {
          "internalType": "bytes[]",
          "name": "data",
          "type": "bytes[]"
        }
      ],
      "name": "executeBatch",
      "outputs": [],
      "stateMutability": "nonpayable",
      "type": "function"
    },
    {
      "inputs": [],
      "name": "getDeposit",
      "outputs": [
        {
          "internalType": "uint256",
          "name": "",
          "type": "uint256"
        }
      ],
      "stateMutability": "view",
      "type": "function"
    },
    {
      "inputs": [
        {
          "internalType": "address",
          "name": "_owner",
          "type": "address"
        },
        {
          "internalType": "address",
          "name": "_sessionManager",
          "type": "address"
        },
        {
          "internalType": "address",
          "name": "_entryPoint",
          "type": "address"
        }
      ],
      "name": "initialize",
      "outputs": [],
      "stateMutability": "nonpayable",
      "type": "function"
    },
    {
      "inputs": [],
      "name": "owner",
      "outputs": [
        {
          "internalType": "address",
          "name": "",
          "type": "address"
        }
      ],
      "stateMutability": "view",
      "type": "function"
    },
    {
      "inputs": [],
      "name": "sessionManager",
      "outputs": [
        {
          "internalType": "address",
          "name": "",
          "type": "address"
        }
      ],
      "stateMutability": "view",
      "type": "function"
    },
    {
      "inputs": [
        {
          "internalType": "address",
          "name": "party",
          "type": "address"
        },
        {
          "internalType": "bool",
          "name": "status",
          "type": "bool"
        }
      ],
      "name": "setWhiteListedParty",
      "outputs": [],
      "stateMutability": "nonpayable",
      "type": "function"
    },
    {
      "inputs": [
        {
          "internalType": "address[]",
          "name": "parties",
          "type": "address[]"
        },
        {
          "internalType": "bool[]",
          "name": "statuses",
          "type": "bool[]"
        }
      ],
      "name": "setWhiteListedPartyBatch",
      "outputs": [],
      "stateMutability": "nonpayable",
      "type": "function"
    },
    {
      "inputs": [
        {
          "components": [
            {
              "internalType": "address",
              "name": "sender",
              "type": "address"
            },
            {
              "internalType": "uint256",
              "name": "nonce",
              "type": "uint256"
            },
            {
              "internalType": "bytes",
              "name": "initCode",
              "type": "bytes"
            },
            {
              "internalType": "bytes",
              "name": "callData",
              "type": "bytes"
            },
            {
              "internalType": "bytes32",
              "name": "accountGasLimits",
              "type": "bytes32"
            },
            {
              "internalType": "uint256",
              "name": "preVerificationGas",
              "type": "uint256"
            },
            {
              "internalType": "bytes32",
              "name": "gasFees",
              "type": "bytes32"
            },
            {
              "internalType": "bytes",
              "name": "paymasterAndData",
              "type": "bytes"
            },
            {
              "internalType": "bytes",
              "name": "signature",
              "type": "bytes"
            }
          ],
          "internalType": "struct PackedUserOperation",
          "name": "userOp",
          "type": "tuple"
        },
        {
          "internalType": "bytes32",
          "name": "userOpHash",
          "type": "bytes32"
        },
        {
          "internalType": "uint256",
          "name": "missingAccountFunds",
          "type": "uint256"
        }
      ],
      "name": "validateUserOp",
      "outputs": [
        {
          "internalType": "uint256",
          "name": "validationData",
          "type": "uint256"
        }
      ],
      "stateMutability": "nonpayable",
      "type": "function"
    },
    {
      "inputs": [
        {
          "internalType": "address",
          "name": "",
          "type": "address"
        }
      ],
      "name": "whiteListedParties",
      "outputs": [
        {
          "internalType": "bool",
          "name": "",
          "type": "bool"
        }
      ],
      "stateMutability": "view",
      "type": "function"
    },
    {
      "inputs": [
        {
          "internalType": "address payable",
          "name": "recipient",
          "type": "address"
        },
        {
          "internalType": "uint256",
          "name": "amount",
          "type": "uint256"
        }
      ],
      "name": "withdrawDepositTo",
      "outputs": [],
      "stateMutability": "nonpayable",
      "type": "function"
    },
    {
      "stateMutability": "payable",
      "type": "receive"
    }
  ],
  "bytecode": "0x60808060405234610028576001600055600160ff19600554161760055561194a908161002e8239f35b600080fdfe608080604052600436101561001d575b50361561001b57600080fd5b005b600090813560e01c90816319822f7c14610bfe5750806347e1da2a146109ef5780634a58db19146108db5780634d44560d146107cc5780638da5cb5b146107a35780639f5e3ecc14610639578063a6f9dae1146105b3578063b0d691fe1461058a578063b61d27f61461041c578063b7b13f79146103f3578063b8434685146103b4578063c0c53b8b14610237578063c399ec881461019d578063c71daccb1461016f5763f9c56aa60361000f573461016c57604036600319011261016c576100e4610d64565b6024359081151590818303610168577fb1288e9f7bae3599e10819d5553febea48e11a6f8f585b32c8abad397dd2627e9161015e60209260018060a01b039061013282600154163314610faa565b61014060ff60055416610d8e565b169485875260048452604087209060ff801983541691151516179055565b604051908152a280f35b8380fd5b80fd5b503461016c578060031936011261016c5760206fffffffffffffffffffffffffffffffff4716604051908152f35b503461016c578060031936011261016c576003546040516370a0823160e01b81523060048201529190602090839060249082906001600160a01b03165afa90811561022b57906101f3575b602090604051908152f35b506020813d602011610223575b8161020d60209383610df5565b8101031261021e57602090516101e8565b600080fd5b3d9150610200565b604051903d90823e3d90fd5b503461016c57606036600319011261016c57610251610d64565b6001600160a01b0390602435828116919082900361021e576044359280841680940361021e576005549160ff8316610379571690610290821515610fef565b82156103345783156102f957600190846bffffffffffffffffffffffff60a01b848185541617845585816002541617600255600354161760035560ff1916176005557f31f30195006760f9b61e7325457ca7acacfbdd7734b88a22545e264b62357fde8480a480f35b60405162461bcd60e51b8152602060048201526013602482015272125b9d985b1a5908195b9d1c9e481c1bda5b9d606a1b6044820152606490fd5b60405162461bcd60e51b815260206004820152601760248201527f496e76616c69642073657373696f6e206d616e616765720000000000000000006044820152606490fd5b60405162461bcd60e51b8152602060048201526013602482015272105b1c9958591e481a5b9a5d1a585b1a5e9959606a1b6044820152606490fd5b503461016c57602036600319011261016c5760209060ff906040906001600160a01b036103df610d64565b168152600484522054166040519015158152f35b503461016c578060031936011261016c576002546040516001600160a01b039091168152602090f35b503461016c57606036600319011261016c57610436610d64565b6001600160401b03604435602435828211610586573660238301121561058657816004013592831161058657602482019160248436920101116105865761047b61137a565b61048960ff60055416610d8e565b848060018060a01b03806001541633148015610579575b6104a990610e61565b86169586825260046020526104c460ff604084205416610f16565b60405186868237848188810185815203925af16104df610e31565b501561054157827f466a2206798e055438a5c0ffd88fa284dbeb2bd07c385e998a1909b2e1ac36609260405192835260406020840152816040840152606083013784606084830101526060813394601f80199101168101030190a36001815580f35b60405162461bcd60e51b815260206004820152601060248201526f115e1958dd5d1a5bdb8819985a5b195960821b6044820152606490fd5b50600354811633146104a0565b8480fd5b503461016c578060031936011261016c576003546040516001600160a01b039091168152602090f35b503461016c57602036600319011261016c576105cd610d64565b600154906001600160a01b03808316916105e8338414610faa565b6105f660ff60055416610d8e565b168092610604821515610fef565b6001600160a01b031916176001557fb532073b38c83145e3e5135377a08bf9aab55bc0fd7c1179cd4fb995d2a5159c8380a380f35b503461016c57604036600319011261016c576001600160401b039060043582811161079f5761066c903690600401610d34565b9260243590811161079b57610685903690600401610d34565b919060018060a01b036001936106a082600154163314610faa565b6106ae60ff60055416610d8e565b80870361075e57855b8781106106c2578680f35b806106d76106d288938588610edc565b610fe2565b846106eb6106e6848d8b610edc565b610f02565b16895261070d6020916004835260408b209060ff801983541691151516179055565b7fb1288e9f7bae3599e10819d5553febea48e11a6f8f585b32c8abad397dd2627e61073c6106e6848d8b610edc565b918661074c6106d286898c610edc565b9360405194151585521692a2016106b7565b60405162461bcd60e51b8152602060048201526015602482015274082e4e4c2f240d8cadccee8d040dad2e6dac2e8c6d605b1b6044820152606490fd5b8280fd5b5080fd5b503461016c578060031936011261016c576001546040516001600160a01b039091168152602090f35b503461016c57604036600319011261016c576107e6610d64565b60243560018060a01b03809261080182600154163314610faa565b61080f60ff60055416610d8e565b169182156108a257839060035416803b1561079f5781809160446040518094819363040b850f60e31b83528960048401528860248401525af1801561089757610883575b505060207fcae8414aeb02c2a7a7089c22ed61def4882bf260298b39ff6ba047ef80a2f37991604051908152a280f35b61088c90610dcc565b61079b578238610853565b6040513d84823e3d90fd5b60405162461bcd60e51b8152602060048201526011602482015270125b9d985b1a59081c9958da5c1a595b9d607a1b6044820152606490fd5b508060031936011261016c576108f560ff60055416610d8e565b6003546001600160a01b0390811682813b1561016c5760405163b760faf960e01b8152306004820152918290602490829034905af180156109e4576109cd575b50602060249160035416604051928380926370a0823160e01b82523060048301525afa90811561089757829161099a575b5060407f4936e4683983dc3b8afb17c6844af8a193b8bdc330595d260421c7e84ebf683e918151903482526020820152a180f35b90506020813d6020116109c5575b816109b560209383610df5565b8101031261021e57516040610966565b3d91506109a8565b602491926109dc602092610dcc565b929150610935565b6040513d85823e3d90fd5b503461016c57606036600319011261016c576001600160401b0360043581811161079b57610a21903690600401610d34565b919060243582811161058657610a3b903690600401610d34565b92604435908111610bfa57610a54903690600401610d34565b90610a5d61137a565b610a6b60ff60055416610d8e565b6001546001600160a01b031633148015610be6575b610a8990610e61565b84861480610bdd575b610aa190959493929195610e9e565b869487945b878610610ae85788888860405191825260208201527f36551ad729f069397fd12c263eba2bdbdb0e999953df151620e1ec9edd8f2aaf60403392a26001815580f35b909192939495610b319060018060a01b03610b076106e68a8c8b610edc565b168a526004602052610b1f60ff60408c205416610f16565b610b2a888488610edc565b3590610f55565b95610b406106e6828a89610edc565b610b4b828488610edc565b3585831015610bc9578a918291610b678560051b880188610f78565b9190826040519384928337810185815203925af1610b83610e31565b5015610b96576001019493929190610aa6565b60405162461bcd60e51b815260206004820152600b60248201526a10d85b1b0819985a5b195960aa1b6044820152606490fd5b634e487b7160e01b8b52603260045260248bfd5b50848214610a92565b506003546001600160a01b03163314610a80565b8580fd5b823461016c5760031960603682011261079f57600435906001600160401b03821161079b5761012090823603011261079f5760035460243593604435926001600160a01b039290919083163303610d00575084610c6b91610c6360ff60055416610d8e565b600401611098565b959192909380610cae575b5060207f3beba097c09c235465df7c6857b74b6435ffb77e2cb08a8f714156c35da603739181976040519586521693a4604051908152f35b8580808093335af1610cbe610e31565b5015610cca5786610c76565b60405162461bcd60e51b815260206004820152600e60248201526d119d5b991a5b99c819985a5b195960921b6044820152606490fd5b62461bcd60e51b815260206004820152600f60248201526e139bdd08195b9d1c9e481c1bda5b9d608a1b6044820152606490fd5b9181601f8401121561021e578235916001600160401b03831161021e576020808501948460051b01011161021e57565b600435906001600160a01b038216820361021e57565b35906001600160a01b038216820361021e57565b15610d9557565b60405162461bcd60e51b815260206004820152600f60248201526e139bdd081a5b9a5d1a585b1a5e9959608a1b6044820152606490fd5b6001600160401b038111610ddf57604052565b634e487b7160e01b600052604160045260246000fd5b90601f801991011681019081106001600160401b03821117610ddf57604052565b6001600160401b038111610ddf57601f01601f191660200190565b3d15610e5c573d90610e4282610e16565b91610e506040519384610df5565b82523d6000602084013e565b606090565b15610e6857565b60405162461bcd60e51b815260206004820152600e60248201526d139bdd08185d5d1a1bdc9a5e995960921b6044820152606490fd5b15610ea557565b60405162461bcd60e51b815260206004820152600f60248201526e098cadccee8d040dad2e6dac2e8c6d608b1b6044820152606490fd5b9190811015610eec5760051b0190565b634e487b7160e01b600052603260045260246000fd5b356001600160a01b038116810361021e5790565b15610f1d57565b60405162461bcd60e51b815260206004820152601060248201526f139bdd081dda1a5d19481b1a5cdd195960821b6044820152606490fd5b91908201809211610f6257565b634e487b7160e01b600052601160045260246000fd5b903590601e198136030182121561021e57018035906001600160401b03821161021e5760200191813603831361021e57565b15610fb157565b60405162461bcd60e51b81526020600482015260096024820152682737ba1037bbb732b960b91b6044820152606490fd5b35801515810361021e5790565b15610ff657565b60405162461bcd60e51b815260206004820152600d60248201526c24b73b30b634b21037bbb732b960991b6044820152606490fd5b92919261103782610e16565b916110456040519384610df5565b82948184528183011161021e578281602093846000960137010152565b9080601f8301121561021e5781602061107d9335910161102b565b90565b9081602091031261021e5751801515810361021e5790565b906110af6110a96060840184610f78565b90611433565b926000917f19457468657265756d205369676e6564204d6573736167653a0a3332000000008352601c52603c82209261010081019060416110f08383610f78565b9050146112ed579061110191610f78565b810192604090818386031261016c5782359460209384810135906001600160401b0382116101685761114b93926111439261113c9201611062565b8798611733565b92909261176b565b600254835163f545b88b60e01b8152600481018890526001600160a01b038481166024830152604482018b9052939786928b928a918590829060649082908a908c165af18691816112ce575b5061126d5750600254875163370d79f560e21b815260048101939093526001600160a01b0391909116602483015260448201929092529293839160649183918791165af19182156112625791611235575b50156111f2575050565b60649250519062461bcd60e51b82526004820152601960248201527f53657373696f6e2076616c69646174696f6e206661696c6564000000000000006044820152fd5b6112559150833d851161125b575b61124d8183610df5565b810190611080565b386111e8565b503d611243565b8351903d90823e3d90fd5b955050505050501561127d575050565b60849250519062461bcd60e51b82526004820152602560248201527f4c696768747765696768742073657373696f6e2076616c69646174696f6e2066604482015264185a5b195960da1b6064820152fd5b6112e6919250863d881161125b5761124d8183610df5565b9038611197565b9361130c6113056113129361131a9798959698610f78565b369161102b565b90611733565b93909361176b565b6001546001600160a01b039081169084160361133557929190565b60405162461bcd60e51b815260206004820152601760248201527f496e76616c6964206f776e6572207369676e61747572650000000000000000006044820152606490fd5b60026000541461138b576002600055565b60405162461bcd60e51b815260206004820152601f60248201527f5265656e7472616e637947756172643a207265656e7472616e742063616c6c006044820152606490fd5b9160608383031261021e576113e483610d7a565b9260208101359260408201356001600160401b03811161021e5761107d9201611062565b6001600160401b038111610ddf5760051b60200190565b8051821015610eec5760209160051b010190565b60009060006004938481106116fc5782356001600160e01b031916635b0e93fb60e11b81146116b2576323f0ed1560e11b146114a45760405162461bcd60e51b81526020818701526014602482015273556e737570706f727465642063616c6c4461746160601b6044820152606490fd5b80859394951161079f578301916060848403600319011261079f576001600160401b038482013581811161016857850193806023860112156101685782850135916024906114f184611408565b926040976115026040519586610df5565b858552602095848787019160051b8301019183831161167a5785889101915b83831061169a57505050508289013582811161167e578901988160238b01121561167e57868a0135996115538b611408565b9a6115616040519c8d610df5565b808c5285888d019160051b830101918483116116965786899101915b83831061168657505050506044810135908382116116825701928160238501121561167e57868401359281876115b286611408565b6115bf6040519182610df5565b868152019460051b8601019483861161167a57828101945b86861061165157505050505050506115f28151875114610e9e565b83965b81518810156116465760019061163e906001600160a01b036116178b8661141f565b5116875285855261162d60ff8989205416610f16565b6116378a8a61141f565b5190610f55565b9701966115f5565b965050505050505090565b853583811161167657899161166b87878594870101611062565b8152019501946115d7565b8b80fd5b8980fd5b8780fd5b8880fd5b823581529181019189910161157d565b8a80fd5b81906116a584610d7a565b8152019101908790611521565b50809193508492941161079b5761107d92826116e460409360ff95880197016116db81896113d0565b509890506113d0565b50506001600160a01b03168252602052205416610f16565b60405162461bcd60e51b8152602081870152601060248201526f496e76616c69642063616c6c4461746160801b6044820152606490fd5b9060418151146000146117615761175d916020820151906060604084015193015160001a90611885565b9091565b5050600090600290565b600581101561186f578061177c5750565b600181036117c95760405162461bcd60e51b815260206004820152601860248201527f45434453413a20696e76616c6964207369676e617475726500000000000000006044820152606490fd5b600281036118165760405162461bcd60e51b815260206004820152601f60248201527f45434453413a20696e76616c6964207369676e6174757265206c656e677468006044820152606490fd5b60031461181f57565b60405162461bcd60e51b815260206004820152602260248201527f45434453413a20696e76616c6964207369676e6174757265202773272076616c604482015261756560f01b6064820152608490fd5b634e487b7160e01b600052602160045260246000fd5b9291907f7fffffffffffffffffffffffffffffff5d576e7357a4501ddfe92f46681b20a083116119085791608094939160ff602094604051948552168484015260408301526060820152600093849182805260015afa156118fb5781516001600160a01b038116156118f5579190565b50600190565b50604051903d90823e3d90fd5b5050505060009060039056fea2646970667358221220a92ee8e04e8541653d83be6ecb96789d893c1857eb6571ba5e3f0f5152271ba064736f6c63430008180033",
  "linkReferences": {},
  "deployedLinkReferences": {}
}