{
  "_format": "hh-sol-artifact-1",
  "contractName": "AgentWallet",
  "sourceName": "src/AgentWallet.sol",
  "abi": [
    {
      "inputs": [],
      "stateMutability": "nonpayable",
      "type": "constructor"
    },
    {
      "inputs": [],
      "name": "AlreadyInitializedError",
      "type": "error"
    },
    {
      "inputs": [],
      "name": "BatchTooLargeError",
      "type": "error"
    },
    {
      "inputs": [],
      "name": "CallFailedError",
      "type": "error"
    },
    {
      "inputs": [],
      "name": "ECDSAInvalidSignature",
      "type": "error"
    },
    {
      "inputs": [
        {
          "internalType": "uint256",
          "name": "length",
          "type": "uint256"
        }
      ],
      "name": "ECDSAInvalidSignatureLength",
      "type": "error"
    },
    {
      "inputs": [
        {
          "internalType": "bytes32",
          "name": "s",
          "type": "bytes32"
        }
      ],
      "name": "ECDSAInvalidSignatureS",
      "type": "error"
    },
    {
      "inputs": [],
      "name": "ExecutionFailedError",
      "type": "error"
    },
    {
      "inputs": [],
      "name": "FundingFailedError",
      "type": "error"
    },
    {
      "inputs": [],
      "name": "InvalidEntryPointError",
      "type": "error"
    },
    {
      "inputs": [],
      "name": "InvalidOwnerError",
      "type": "error"
    },
    {
      "inputs": [],
      "name": "InvalidOwnerSignatureError",
      "type": "error"
    },
    {
      "inputs": [],
      "name": "InvalidRecipientError",
      "type": "error"
    },
    {
      "inputs": [],
      "name": "InvalidSessionManagerError",
      "type": "error"
    },
    {
      "inputs": [],
      "name": "LengthMismatchError",
      "type": "error"
    },
    {
      "inputs": [],
      "name": "LightweightSessionValidationFailedError",
      "type": "error"
    },
    {
      "inputs": [],
      "name": "NotAuthorizedError",
      "type": "error"
    },
    {
      "inputs": [],
      "name": "NotEntryPointError",
      "type": "error"
    },
    {
      "inputs": [],
      "name": "NotInitializedError",
      "type": "error"
    },
    {
      "inputs": [],
      "name": "NotOwnerError",
      "type": "error"
    },
    {
      "inputs": [],
      "name": "OwnershipTransferPendingError",
      "type": "error"
    },
    {
      "inputs": [],
      "name": "ReentrancyGuardReentrantCall",
      "type": "error"
    },
    {
      "inputs": [],
      "name": "SelectorNotWhitelistedError",
      "type": "error"
    },
    {
      "inputs": [],
      "name": "SessionValidationFailedError",
      "type": "error"
    },
    {
      "inputs": [],
      "name": "TimelockActiveError",
      "type": "error"
    },
    {
      "inputs": [],
      "name": "TimelockNotReadyError",
      "type": "error"
    },
    {
      "inputs": [],
      "name": "UnsupportedCallDataError",
      "type": "error"
    },
    {
      "anonymous": false,
      "inputs": [
        {
          "indexed": true,
          "internalType": "address",
          "name": "caller",
          "type": "address"
        },
        {
          "indexed": false,
          "internalType": "uint256",
          "name": "callCount",
          "type": "uint256"
        },
        {
          "indexed": false,
          "internalType": "uint256",
          "name": "totalValue",
          "type": "uint256"
        }
      ],
      "name": "BatchExecutionPerformed",
      "type": "event"
    },
    {
      "anonymous": false,
      "inputs": [
        {
          "indexed": false,
          "internalType": "uint256",
          "name": "amount",
          "type": "uint256"
        },
        {
          "indexed": false,
          "internalType": "uint256",
          "name": "newBalance",
          "type": "uint256"
        }
      ],
      "name": "EntryPointDepositAdded",
      "type": "event"
    },
    {
      "anonymous": false,
      "inputs": [
        {
          "indexed": true,
          "internalType": "address",
          "name": "previousEntryPoint",
          "type": "address"
        },
        {
          "indexed": true,
          "internalType": "address",
          "name": "newEntryPoint",
          "type": "address"
        },
        {
          "indexed": false,
          "internalType": "uint256",
          "name": "activationTime",
          "type": "uint256"
        }
      ],
      "name": "EntryPointProposed",
      "type": "event"
    },
    {
      "anonymous": false,
      "inputs": [
        {
          "indexed": true,
          "internalType": "address",
          "name": "oldEntryPoint",
          "type": "address"
        },
        {
          "indexed": true,
          "internalType": "address",
          "name": "newEntryPoint",
          "type": "address"
        }
      ],
      "name": "EntryPointUpdated",
      "type": "event"
    },
    {
      "anonymous": false,
      "inputs": [
        {
          "indexed": true,
          "internalType": "address",
          "name": "recipient",
          "type": "address"
        },
        {
          "indexed": false,
          "internalType": "uint256",
          "name": "amount",
          "type": "uint256"
        }
      ],
      "name": "EntryPointWithdrawal",
      "type": "event"
    },
    {
      "anonymous": false,
      "inputs": [
        {
          "indexed": true,
          "internalType": "address",
          "name": "caller",
          "type": "address"
        },
        {
          "indexed": true,
          "internalType": "address",
          "name": "target",
          "type": "address"
        },
        {
          "indexed": false,
          "internalType": "uint256",
          "name": "value",
          "type": "uint256"
        },
        {
          "indexed": false,
          "internalType": "bytes32",
          "name": "dataHash",
          "type": "bytes32"
        }
      ],
      "name": "ExecutionPerformed",
      "type": "event"
    },
    {
      "anonymous": false,
      "inputs": [
        {
          "indexed": true,
          "internalType": "address",
          "name": "oldOwner",
          "type": "address"
        },
        {
          "indexed": true,
          "internalType": "address",
          "name": "newOwner",
          "type": "address"
        }
      ],
      "name": "OwnerChanged",
      "type": "event"
    },
    {
      "anonymous": false,
      "inputs": [
        {
          "indexed": true,
          "internalType": "address",
          "name": "previousOwner",
          "type": "address"
        },
        {
          "indexed": true,
          "internalType": "address",
          "name": "newOwner",
          "type": "address"
        }
      ],
      "name": "OwnershipTransferStarted",
      "type": "event"
    },
    {
      "anonymous": false,
      "inputs": [
        {
          "indexed": true,
          "internalType": "address",
          "name": "previousSessionManager",
          "type": "address"
        },
        {
          "indexed": true,
          "internalType": "address",
          "name": "newSessionManager",
          "type": "address"
        },
        {
          "indexed": false,
          "internalType": "uint256",
          "name": "activationTime",
          "type": "uint256"
        }
      ],
      "name": "SessionManagerProposed",
      "type": "event"
    },
    {
      "anonymous": false,
      "inputs": [
        {
          "indexed": true,
          "internalType": "address",
          "name": "oldSessionManager",
          "type": "address"
        },
        {
          "indexed": true,
          "internalType": "address",
          "name": "newSessionManager",
          "type": "address"
        }
      ],
      "name": "SessionManagerUpdated",
      "type": "event"
    },
    {
      "anonymous": false,
      "inputs": [
        {
          "indexed": true,
          "internalType": "bytes32",
          "name": "userOpHash",
          "type": "bytes32"
        },
        {
          "indexed": true,
          "internalType": "address",
          "name": "signer",
          "type": "address"
        },
        {
          "indexed": true,
          "internalType": "bytes32",
          "name": "sessionId",
          "type": "bytes32"
        },
        {
          "indexed": false,
          "internalType": "uint256",
          "name": "value",
          "type": "uint256"
        }
      ],
      "name": "UserOperationValidated",
      "type": "event"
    },
    {
      "anonymous": false,
      "inputs": [
        {
          "indexed": true,
          "internalType": "address",
          "name": "owner",
          "type": "address"
        },
        {
          "indexed": true,
          "internalType": "address",
          "name": "sessionManager",
          "type": "address"
        },
        {
          "indexed": true,
          "internalType": "address",
          "name": "entryPoint",
          "type": "address"
        }
      ],
      "name": "WalletInitialized",
      "type": "event"
    },
    {
      "anonymous": false,
      "inputs": [
        {
          "indexed": true,
          "internalType": "address",
          "name": "party",
          "type": "address"
        },
        {
          "indexed": false,
          "internalType": "uint256",
          "name": "count",
          "type": "uint256"
        }
      ],
      "name": "WhiteListBatchUpdated",
      "type": "event"
    },
    {
      "anonymous": false,
      "inputs": [
        {
          "indexed": true,
          "internalType": "address",
          "name": "party",
          "type": "address"
        },
        {
          "indexed": true,
          "internalType": "bytes4",
          "name": "selector",
          "type": "bytes4"
        },
        {
          "indexed": false,
          "internalType": "bool",
          "name": "status",
          "type": "bool"
        }
      ],
      "name": "WhiteListUpdated",
      "type": "event"
    },
    {
      "inputs": [],
      "name": "MAX_BATCH_SIZE",
      "outputs": [
        {
          "internalType": "uint256",
          "name": "",
          "type": "uint256"
        }
      ],
      "stateMutability": "view",
      "type": "function"
    },
    {
      "inputs": [],
      "name": "TIMELOCK_DELAY",
      "outputs": [
        {
          "internalType": "uint256",
          "name": "",
          "type": "uint256"
        }
      ],
      "stateMutability": "view",
      "type": "function"
    },
    {
      "inputs": [],
      "name": "acceptEntryPoint",
      "outputs": [],
      "stateMutability": "nonpayable",
      "type": "function"
    },
    {
      "inputs": [],
      "name": "acceptOwnership",
      "outputs": [],
      "stateMutability": "nonpayable",
      "type": "function"
    },
    {
      "inputs": [],
      "name": "acceptSessionManager",
      "outputs": [],
      "stateMutability": "nonpayable",
      "type": "function"
    },
    {
      "inputs": [],
      "name": "addDeposit",
      "outputs": [],
      "stateMutability": "payable",
      "type": "function"
    },
    {
      "inputs": [
        {
          "internalType": "address",
          "name": "newOwner",
          "type": "address"
        }
      ],
      "name": "changeOwner",
      "outputs": [],
      "stateMutability": "nonpayable",
      "type": "function"
    },
    {
      "inputs": [],
      "name": "checkBalance",
      "outputs": [
        {
          "internalType": "uint256",
          "name": "",
          "type": "uint256"
        }
      ],
      "stateMutability": "view",
      "type": "function"
    },
    {
      "inputs": [],
      "name": "entryPoint",
      "outputs": [
        {
          "internalType": "address",
          "name": "",
          "type": "address"
        }
      ],
      "stateMutability": "view",
      "type": "function"
    },
    {
      "inputs": [],
      "name": "entryPointActivationTime",
      "outputs": [
        {
          "internalType": "uint256",
          "name": "",
          "type": "uint256"
        }
      ],
      "stateMutability": "view",
      "type": "function"
    },
    {
      "inputs": [
        {
          "internalType": "address",
          "name": "target",
          "type": "address"
        },
        {
          "internalType": "uint256",
          "name": "value",
          "type": "uint256"
        },
        {
          "internalType": "bytes",
          "name": "data",
          "type": "bytes"
        }
      ],
      "name": "execute",
      "outputs": [],
      "stateMutability": "nonpayable",
      "type": "function"
    },
    {
      "inputs": [
        {
          "internalType": "address[]",
          "name": "targets",
          "type": "address[]"
        },
        {
          "internalType": "uint256[]",
          "name": "values",
          "type": "uint256[]"
        },
        {
          "internalType": "bytes[]",
          "name": "data",
          "type": "bytes[]"
        }
      ],
      "name": "executeBatch",
      "outputs": [],
      "stateMutability": "nonpayable",
      "type": "function"
    },
    {
      "inputs": [],
      "name": "getDeposit",
      "outputs": [
        {
          "internalType": "uint256",
          "name": "",
          "type": "uint256"
        }
      ],
      "stateMutability": "view",
      "type": "function"
    },
    {
      "inputs": [
        {
          "internalType": "address",
          "name": "_owner",
          "type": "address"
        },
        {
          "internalType": "address",
          "name": "_sessionManager",
          "type": "address"
        },
        {
          "internalType": "address",
          "name": "_entryPoint",
          "type": "address"
        }
      ],
      "name": "initialize",
      "outputs": [],
      "stateMutability": "nonpayable",
      "type": "function"
    },
    {
      "inputs": [
        {
          "internalType": "address",
          "name": "party",
          "type": "address"
        },
        {
          "internalType": "bytes4",
          "name": "selector",
          "type": "bytes4"
        }
      ],
      "name": "isWhiteListed",
      "outputs": [
        {
          "internalType": "bool",
          "name": "",
          "type": "bool"
        }
      ],
      "stateMutability": "view",
      "type": "function"
    },
    {
      "inputs": [],
      "name": "owner",
      "outputs": [
        {
          "internalType": "address",
          "name": "",
          "type": "address"
        }
      ],
      "stateMutability": "view",
      "type": "function"
    },
    {
      "inputs": [],
      "name": "pendingEntryPoint",
      "outputs": [
        {
          "internalType": "address",
          "name": "",
          "type": "address"
        }
      ],
      "stateMutability": "view",
      "type": "function"
    },
    {
      "inputs": [],
      "name": "pendingOwner",
      "outputs": [
        {
          "internalType": "address",
          "name": "",
          "type": "address"
        }
      ],
      "stateMutability": "view",
      "type": "function"
    },
    {
      "inputs": [],
      "name": "pendingSessionManager",
      "outputs": [
        {
          "internalType": "address",
          "name": "",
          "type": "address"
        }
      ],
      "stateMutability": "view",
      "type": "function"
    },
    {
      "inputs": [
        {
          "internalType": "address",
          "name": "_entryPoint",
          "type": "address"
        }
      ],
      "name": "proposeEntryPoint",
      "outputs": [],
      "stateMutability": "nonpayable",
      "type": "function"
    },
    {
      "inputs": [
        {
          "internalType": "address",
          "name": "_sessionManager",
          "type": "address"
        }
      ],
      "name": "proposeSessionManager",
      "outputs": [],
      "stateMutability": "nonpayable",
      "type": "function"
    },
    {
      "inputs": [],
      "name": "sessionManager",
      "outputs": [
        {
          "internalType": "address",
          "name": "",
          "type": "address"
        }
      ],
      "stateMutability": "view",
      "type": "function"
    },
    {
      "inputs": [],
      "name": "sessionManagerActivationTime",
      "outputs": [
        {
          "internalType": "uint256",
          "name": "",
          "type": "uint256"
        }
      ],
      "stateMutability": "view",
      "type": "function"
    },
    {
      "inputs": [
        {
          "internalType": "address",
          "name": "party",
          "type": "address"
        },
        {
          "internalType": "bytes4",
          "name": "selector",
          "type": "bytes4"
        },
        {
          "internalType": "bool",
          "name": "status",
          "type": "bool"
        }
      ],
      "name": "setWhiteListedSelector",
      "outputs": [],
      "stateMutability": "nonpayable",
      "type": "function"
    },
    {
      "inputs": [
        {
          "internalType": "address",
          "name": "party",
          "type": "address"
        },
        {
          "internalType": "bytes4[]",
          "name": "selectors",
          "type": "bytes4[]"
        },
        {
          "internalType": "bool[]",
          "name": "statuses",
          "type": "bool[]"
        }
      ],
      "name": "setWhiteListedSelectorBatch",
      "outputs": [],
      "stateMutability": "nonpayable",
      "type": "function"
    },
    {
      "inputs": [
        {
          "internalType": "address",
          "name": "",
          "type": "address"
        },
        {
          "internalType": "address",
          "name": "",
          "type": "address"
        },
        {
          "internalType": "address",
          "name": "",
          "type": "address"
        },
        {
          "internalType": "uint256",
          "name": "",
          "type": "uint256"
        },
        {
          "internalType": "bytes",
          "name": "",
          "type": "bytes"
        },
        {
          "internalType": "bytes",
          "name": "",
          "type": "bytes"
        }
      ],
      "name": "tokensReceived",
      "outputs": [],
      "stateMutability": "nonpayable",
      "type": "function"
    },
    {
      "inputs": [
        {
          "components": [
            {
              "internalType": "address",
              "name": "sender",
              "type": "address"
            },
            {
              "internalType": "uint256",
              "name": "nonce",
              "type": "uint256"
            },
            {
              "internalType": "bytes",
              "name": "initCode",
              "type": "bytes"
            },
            {
              "internalType": "bytes",
              "name": "callData",
              "type": "bytes"
            },
            {
              "internalType": "bytes32",
              "name": "accountGasLimits",
              "type": "bytes32"
            },
            {
              "internalType": "uint256",
              "name": "preVerificationGas",
              "type": "uint256"
            },
            {
              "internalType": "bytes32",
              "name": "gasFees",
              "type": "bytes32"
            },
            {
              "internalType": "bytes",
              "name": "paymasterAndData",
              "type": "bytes"
            },
            {
              "internalType": "bytes",
              "name": "signature",
              "type": "bytes"
            }
          ],
          "internalType": "struct PackedUserOperation",
          "name": "userOp",
          "type": "tuple"
        },
        {
          "internalType": "bytes32",
          "name": "userOpHash",
          "type": "bytes32"
        },
        {
          "internalType": "uint256",
          "name": "missingAccountFunds",
          "type": "uint256"
        }
      ],
      "name": "validateUserOp",
      "outputs": [
        {
          "internalType": "uint256",
          "name": "validationData",
          "type": "uint256"
        }
      ],
      "stateMutability": "nonpayable",
      "type": "function"
    },
    {
      "inputs": [
        {
          "internalType": "address",
          "name": "",
          "type": "address"
        },
        {
          "internalType": "bytes4",
          "name": "",
          "type": "bytes4"
        }
      ],
      "name": "whiteListedSelectors",
      "outputs": [
        {
          "internalType": "bool",
          "name": "",
          "type": "bool"
        }
      ],
      "stateMutability": "view",
      "type": "function"
    },
    {
      "inputs": [
        {
          "internalType": "address payable",
          "name": "recipient",
          "type": "address"
        },
        {
          "internalType": "uint256",
          "name": "amount",
          "type": "uint256"
        }
      ],
      "name": "withdrawDepositTo",
      "outputs": [],
      "stateMutability": "nonpayable",
      "type": "function"
    },
    {
      "stateMutability": "payable",
      "type": "receive"
    }
  ],
  "bytecode": "0x60808060405234610028576001600055600160ff19600a541617600a55611d93908161002e8239f35b600080fdfe6080604081815260049182361015610022575b505050361561002057600080fd5b005b600092833560e01c91826223de291461134d57826303230ca61461128c5750816305c41908146111a457816307c40b3c1461117b57816312ca68a1146110c057816319822f7c14610fcf5781631dab21a714610fa65781631f45349f14610e40578163309cc95714610d6c5781633e2c85f3146106ae57816347e1da2a14610af15781634a58db19146109b15781634d44560d146108b25781635ba1c1a91461089457816379ba5097146107fc5781638da5cb5b146107d35781638fc1cebd14610706578163a1eab253146106ae578163a6f9dae1146105ec578163b0d691fe146105c4578163b61d27f61461044d578163b7b13f7914610424578163c0c53b8b146102a5578163c399ec881461020c57508063c71daccb146101f2578063c96f03e0146101d4578063cfdbf254146101b9578063e30c3978146101915763ec4c9157146101705780610012565b3461018d578160031936011261018d576020906007549051908152f35b5080fd5b503461018d578160031936011261018d5760025490516001600160a01b039091168152602090f35b503461018d578160031936011261018d576020905160148152f35b503461018d578160031936011261018d576020906009549051908152f35b503461018d578160031936011261018d5751478152602090f35b83833461018d578160031936011261018d57825481516370a0823160e01b81523094810194909452602090849060249082906001600160a01b03165afa91821561029a5791610260575b6020925051908152f35b90506020823d602011610292575b8161027b60209383611555565b8101031261028d576020915190610256565b600080fd5b3d915061026e565b9051903d90823e3d90fd5b91905034610420576060366003190112610420576102c16113b8565b906102ca6113ce565b906102d36113e4565b9260ff600a5416610410576001600160a01b039081169283156104005781169384156103f157169384156103e357908591856001600160601b0360a01b8581600154161760015586816003541617600355825416178155731820a4b7618bd7140785a44af1a4f87c3332006c803b156103df57606484939284935194859384926329965a1d60e01b845230908401527fb281fc8c12954d22544db45de3159a39272895b169a852b314f9cc762e44c53b60248401523060448401525af16103cb575b5050600160ff19600a541617600a557f31f30195006760f9b61e7325457ca7acacfbdd7734b88a22545e264b62357fde8480a480f35b6103d49061152c565b6103df578338610395565b8380fd5b90516392377dd560e01b8152fd5b825162d9b42560e01b81528690fd5b825163062ef65960e21b81528690fd5b8151630173063360e51b81528590fd5b8280fd5b50503461018d578160031936011261018d5760035490516001600160a01b039091168152602090f35b905034610420576060366003190112610420576104686113b8565b91602435916044356001600160401b0381116105c05761048b903690830161140e565b9091610495611873565b60ff600a5416156105b2576001546001600160a01b0396908716331415806105a5575b6105965781831061058f5782821161058b5783356001600160e01b031916965b81169687895260056020528589209063ffffffff60e01b16895260205260ff85892054161561057c57878091865185878237888187810185815203925af161051e611591565b501561056e57507f0e33d84651ce1cd4dc3f8e0dda3367f25aac071e622cf520436716bba196be5392916105539136916115c1565b60208151910120815193845260208401523392a36001815580f35b83516319a5546560e21b8152fd5b50835163b99820a560e01b8152fd5b8780fd5b87966104d8565b5083516379b798cf60e11b8152fd5b50868254163314156104b8565b8351638fc8bd5960e01b8152fd5b8580fd5b9050346104205782600319360112610420575490516001600160a01b03909116815260209150f35b905034610420576020366003190112610420576106076113b8565b6001546001600160a01b039081169290913384900361069f5760ff600a541615610690578216938415610683576002549283166106765750506001600160a01b03191682176002557f38d16b8cac22d99fc7c124b9cd0de2d3fa1faef420bfe791d8c362d765e227008380a380f35b51632bb652d360e21b8152fd5b5163062ef65960e21b8152fd5b508351638fc8bd5960e01b8152fd5b5083516374a2152760e01b8152fd5b50503461018d578060031936011261018d5760ff816020936106ce6113b8565b6106d661143b565b6001600160a01b039091168252600586528282206001600160e01b03199091168252855220549151911615158152f35b919050346104205782600319360112610420576001546001600160a01b039190821633036107c45760ff600a5416156107b557600854928284169182156107a857600954421061079b575080546001600160a01b03198082168417909255931660085560098490558383161791167f9efc8bb238b1965522b3e784290f41e0229e21a34f499fd2f71b64463283a4168380a380f35b51639e3d304d60e01b8152fd5b516392377dd560e01b8152fd5b51638fc8bd5960e01b81529050fd5b516374a2152760e01b81529050fd5b50503461018d578160031936011261018d5760015490516001600160a01b039091168152602090f35b90503461042057826003193601126104205760ff600a54161561088657600254916001600160a01b03918284169133839003610879575050600154926001600160601b0360a01b9182851617600155166002553391167fb532073b38c83145e3e5135377a08bf9aab55bc0fd7c1179cd4fb995d2a5159c8380a380f35b516379b798cf60e11b8152fd5b9051638fc8bd5960e01b8152fd5b50503461018d578160031936011261018d5760209051620151808152f35b9050346104205781600319360112610420576108cc6113b8565b6001546001600160a01b03936024359390929091851633036109a25760ff600a5416156109935784169384156109845790859181541690813b15610420578560448492838751958694859363040b850f60e31b85528401528960248401525af1801561097a57610966575b50507fcae8414aeb02c2a7a7089c22ed61def4882bf260298b39ff6ba047ef80a2f3799160209151908152a280f35b61096f9061152c565b6103df578338610937565b83513d84823e3d90fd5b509051637192f5b760e11b8152fd5b509051638fc8bd5960e01b8152fd5b5090516374a2152760e01b8152fd5b919050826003193601126104205760ff600a541615610ae45781546001600160a01b0390811684813b15610ae157835163b760faf960e01b81523086820152918290602490829034905af18015610ad757610ac3575b506020908354169260248351809581936370a0823160e01b835230908301525afa8015610ab9578390610a67575b7f4936e4683983dc3b8afb17c6844af8a193b8bdc330595d260421c7e84ebf683e92508151903482526020820152a180f35b506020823d602011610ab1575b81610a8160209383611555565b8101031261028d577f4936e4683983dc3b8afb17c6844af8a193b8bdc330595d260421c7e84ebf683e9151610a35565b3d9150610a74565b81513d85823e3d90fd5b93610ad06020929561152c565b9390610a07565b83513d87823e3d90fd5b80fd5b51638fc8bd5960e01b8152fd5b83833461018d57606036600319011261018d576001600160401b039083358281116103df57610b239036908601611452565b9290946024358281116105c057610b3d9036908301611452565b919092604435908111610d6857610b579036908301611452565b9390610b61611873565b60ff9460ff600a541615610d585760018054909a6001600160a01b039691871633141580610d4b575b610d3b578915610d2157818a14801590610d31575b610d215760148a11610d1157999a8b9a90978b5b8b8110610bf4578c8c8f8d7f36551ad729f069397fd12c263eba2bdbdb0e999953df151620e1ec9edd8f2aaf91815193845260208401523392a26001815580f35b8b89828f9c9f9e9d9c8b610c09838b8d6114fd565b90501015600014610d0357509050610c23915086886114fd565b8911610cff57356001600160e01b03191689610c49610c44848f5b886114a5565b611518565b168d52600560209081528b8e206001600160e01b03199092168e5252898c2054821615610cef578b808c9d9e9f610c44849d9e9d610c97610c9e93610c90838f8d906114a5565b3590611482565b9e886114a5565b8d610caa85898d6114a5565b35610cb6868b8d6114fd565b8093519384928337810185815203925af1610ccf611591565b5015610cdf578d019c989c610bb3565b8a5163ec98ced760e01b81528890fd5b895163b99820a560e01b81528890fd5b8c80fd5b610c4991610c449194610c3e565b8851631d6abe8d60e01b81528690fd5b8851637736a16d60e01b81528690fd5b5082821415610b9f565b88516379b798cf60e11b81528690fd5b5086865416331415610b8a565b8651638fc8bd5960e01b81528490fd5b8680fd5b9190503461042057602036600319011261042057610d886113b8565b6001546001600160a01b03939190841633036109a25760ff600a541615610993578316928315610e3157600854818116610e22576001600160a01b03191684176008554262015180810192908310610e0f57916020917f82f58bce0ef526ec4e76de79042b60f5542ca08dbe0ef18bfa95d8c32fcbb710938260095554169351908152a380f35b634e487b7160e01b865260119052602485fd5b8351622d0f5f60e01b81528390fd5b5090516392377dd560e01b8152fd5b9190503461042057606036600319011261042057610e5c6113b8565b6001600160401b0391906024358381116105c057610e7d9036908601611452565b93604435908111610d6857610e959036908701611452565b6001805490949293926001600160a01b039182163303610f965760ff600a541615610f865716968715610f7857818703610f6a5750875b868110610f025788887f414c342353f05726910e03f51e178b30701f919619e07cc05fb7383d7fcedd2360208a8a51908152a280f35b610f0d8183866114a5565b35908115158203610f6657888a528960209260058452888220610f31848c896114a5565b359463ffffffff60e01b86168096036103df578995610f60945252888c209060ff801983541691151516179055565b01610ecc565b8980fd5b8551637736a16d60e01b8152fd5b8551637192f5b760e11b8152fd5b8651638fc8bd5960e01b81528990fd5b86516374a2152760e01b81528990fd5b50503461018d578160031936011261018d5760065490516001600160a01b039091168152602090f35b83833461018d5760031992606036850112610420578035936001600160401b0385116103df576101209085360301126104205780546001600160a01b039460443592916024359190871633036110b05760ff600a5416156110a05781611036918401611643565b9193909480611076575b5050602080977f3beba097c09c235465df7c6857b74b6435ffb77e2cb08a8f714156c35da603739287519586521693a451908152f35b8780808093335af1611086611591565b50156110925780611040565b855163323e69dd60e11b8152fd5b8451638fc8bd5960e01b81528390fd5b845163f02946ad60e01b81528390fd5b9050346104205782600319360112610420576001546001600160a01b0391908216330361116d5760ff600a54161561115f576006549082821693841561115357600754421061079b575050600354906001600160601b0360a01b9084828416176003551660065583600755167fa69f501b2fc95540d8bea22fcfa85d00f48f611c00a457d08f00f7754c9063cb8380a380f35b5162d9b42560e01b8152fd5b8251638fc8bd5960e01b8152fd5b82516374a2152760e01b8152fd5b50503461018d578160031936011261018d5760085490516001600160a01b039091168152602090f35b905034610420576060366003190112610420576111bf6113b8565b6111c761143b565b9260443580151592838203610d68576001546001600160a01b0391908216330361127c5760ff600a54161561126c571693841561125e5750916020916112567fb5091879dad74fc467385a5d3ca976bbdf8e754a848b0f231c50d9d0924173da94868952600585528289209763ffffffff60e01b1697888a5285528289209060ff801983541691151516179055565b51908152a380f35b8251637192f5b760e11b8152fd5b8351638fc8bd5960e01b81528690fd5b83516374a2152760e01b81528690fd5b929150346103df5760203660031901126103df576112a86113b8565b6001546001600160a01b0394908516330361133f575060ff600a54161561099357831692831561133157600654818116610e22576001600160a01b03191684176006554262015180810192908310610e0f5750816020917fe57f3914c462c93d70e218904ab70d6c345073c4deceb8c18c4955b3f67f874893600755600354169351908152a380f35b50905162d9b42560e01b8152fd5b6374a2152760e01b81529050fd5b84823461018d5760c036600319011261018d576113686113b8565b506113716113ce565b5061137a6113e4565b506001600160401b03906084358281116103df5761139b903690830161140e565b505060a435918211610420576113b39136910161140e565b505080f35b600435906001600160a01b038216820361028d57565b602435906001600160a01b038216820361028d57565b604435906001600160a01b038216820361028d57565b35906001600160a01b038216820361028d57565b9181601f8401121561028d578235916001600160401b03831161028d576020838186019501011161028d57565b602435906001600160e01b03198216820361028d57565b9181601f8401121561028d578235916001600160401b03831161028d576020808501948460051b01011161028d57565b9190820180921161148f57565b634e487b7160e01b600052601160045260246000fd5b91908110156114b55760051b0190565b634e487b7160e01b600052603260045260246000fd5b903590601e198136030182121561028d57018035906001600160401b03821161028d5760200191813603831361028d57565b908210156114b5576115149160051b8101906114cb565b9091565b356001600160a01b038116810361028d5790565b6001600160401b03811161153f57604052565b634e487b7160e01b600052604160045260246000fd5b90601f801991011681019081106001600160401b0382111761153f57604052565b6001600160401b03811161153f57601f01601f191660200190565b3d156115bc573d906115a282611576565b916115b06040519384611555565b82523d6000602084013e565b606090565b9291926115cd82611576565b916115db6040519384611555565b82948184528183011161028d578281602093846000960137010152565b9080601f8301121561028d57816020611613933591016115c1565b90565b91909160408184031261028d5780359260208201356001600160401b03811161028d5761161392016115f8565b9161166461165d61165760608601866114cb565b906118ad565b9284611b3c565b9160018060a01b039384600154168585161461186a5761168c816101006116949301906114cb565b810190611616565b5093806003541660409081519063c7cdfc0160e01b825260049388858401526020928381602481865afa90811561185f57918791859360009161181f575b5060ff16600181036117805750600354865163f545b88b60e01b81528881018d81526001600160a01b038d166020820152604081019490945294508492839003606001918391600091165af191821561177557600092611748575b50501561173b575050929190565b5163b02726e560e01b8152fd5b6117679250803d1061176e575b61175f8183611555565b810190611bf4565b388061172d565b503d611755565b83513d6000823e3d90fd5b925050501560001461181057825163370d79f560e21b81528481018981526001600160a01b038916602082015260408101879052909183918391908290600090829060600103925af1918215611775576000926117f3575b5050156117e6575050929190565b5163e00e6a2560e01b8152fd5b6118099250803d1061176e5761175f8183611555565b38806117d8565b50505163e00e6a2560e01b8152fd5b848193959294503d8311611858575b6118388183611555565b8101031261018d57519060ff82168203610ae157508391879160ff6116d2565b503d61182e565b85513d6000823e3d90fd5b50925060009190565b600260005414611884576002600055565b604051633ee5aeb560e01b8152600490fd5b6001600160401b03811161153f5760051b60200190565b90916000916000916004948086116103df5782356001600160e01b031916635b0e93fb60e11b8114611aed576323f0ed1560e11b146118f757604051630141e84160e01b81528690fd5b93949293820160608382036003190112611ae9576001600160401b03948385013586811161018d578401948260238701121561018d57808601359360249361193e86611896565b9861194c6040519a8b611555565b868a52602098898b018760059960051b8301019184831161058b57888c9101915b838310611ad15750505050858801358181116105c0578801978260238a0112156105c057848901359861199f8a611896565b996119ad6040519b8c611555565b808b52888c8c019160051b83010191858311611acd57898d9101915b838310611abd5750505050604481013590828211610d68570191806023840112156105c0578483013591878b6119fe85611896565b611a0b6040519182611555565b858152019360051b8501019382851161058b57888101935b858510611a98575050505050508751865103611a885782985b88518a1015611a7c5786518a1015611a6a57611a62600191898c891b8a01015190611482565b990198611a3c565b5050634e487b7160e01b825260329052fd5b98509650505050505050565b50604051637736a16d60e01b8152fd5b8435838111610f66578d91611ab2868d85948701016115f8565b815201940193611a23565b82358152918101918d91016119c9565b8880fd5b8190611adc846113fa565b8152019101908b9061196d565b8480fd5b50909491935083019160608484036003190112610ae157611b0f8285016113fa565b506044840135906001600160401b038211610ae1575091611b3691849360249501016115f8565b50013590565b907f19457468657265756d205369676e6564204d6573736167653a0a333200000000600052601c52603c600020906101008101906041611b7c83836114cb565b905014611ba85791611b9761168c611b9f93611613956114cb565b919050611c0c565b90929192611c48565b91611bc3611bbc611b9f93611bc9956114cb565b36916115c1565b90611c0c565b6001546001600160a01b0390811690821603611be25790565b6040516391fad51160e01b8152600490fd5b9081602091031261028d5751801515810361028d5790565b8151919060418303611c3d57611c3692506020820151906060604084015193015160001a90611ccd565b9192909190565b505060009160029190565b6004811015611cb75780611c5a575050565b60018103611c745760405163f645eedf60e01b8152600490fd5b60028103611c955760405163fce698f760e01b815260048101839052602490fd5b600314611c9f5750565b602490604051906335e2f38360e21b82526004820152fd5b634e487b7160e01b600052602160045260246000fd5b91907f7fffffffffffffffffffffffffffffff5d576e7357a4501ddfe92f46681b20a08411611d5157926020929160ff608095604051948552168484015260408301526060820152600092839182805260015afa15611d455780516001600160a01b03811615611d3c57918190565b50809160019190565b604051903d90823e3d90fd5b5050506000916003919056fea2646970667358221220f82848d4198b2f755d6b287ea2953f8fbb1b67b3170c08aef3e0bf7bfb9f062f64736f6c63430008180033",
  "linkReferences": {},
  "deployedLinkReferences": {}
}