{
  "_format": "hh-sol-artifact-1",
  "contractName": "AgentWallet",
  "sourceName": "src/AgentWallet.sol",
  "abi": [
    {
      "inputs": [],
      "stateMutability": "nonpayable",
      "type": "constructor"
    },
    {
      "anonymous": false,
      "inputs": [
        {
          "indexed": true,
          "internalType": "address",
          "name": "caller",
          "type": "address"
        },
        {
          "indexed": false,
          "internalType": "uint256",
          "name": "callCount",
          "type": "uint256"
        },
        {
          "indexed": false,
          "internalType": "uint256",
          "name": "totalValue",
          "type": "uint256"
        }
      ],
      "name": "BatchExecutionPerformed",
      "type": "event"
    },
    {
      "anonymous": false,
      "inputs": [
        {
          "indexed": false,
          "internalType": "uint256",
          "name": "amount",
          "type": "uint256"
        },
        {
          "indexed": false,
          "internalType": "uint256",
          "name": "newBalance",
          "type": "uint256"
        }
      ],
      "name": "EntryPointDepositAdded",
      "type": "event"
    },
    {
      "anonymous": false,
      "inputs": [
        {
          "indexed": true,
          "internalType": "address",
          "name": "recipient",
          "type": "address"
        },
        {
          "indexed": false,
          "internalType": "uint256",
          "name": "amount",
          "type": "uint256"
        }
      ],
      "name": "EntryPointWithdrawal",
      "type": "event"
    },
    {
      "anonymous": false,
      "inputs": [
        {
          "indexed": true,
          "internalType": "address",
          "name": "caller",
          "type": "address"
        },
        {
          "indexed": true,
          "internalType": "address",
          "name": "target",
          "type": "address"
        },
        {
          "indexed": false,
          "internalType": "uint256",
          "name": "value",
          "type": "uint256"
        },
        {
          "indexed": false,
          "internalType": "bytes",
          "name": "data",
          "type": "bytes"
        }
      ],
      "name": "ExecutionPerformed",
      "type": "event"
    },
    {
      "anonymous": false,
      "inputs": [
        {
          "indexed": true,
          "internalType": "address",
          "name": "oldOwner",
          "type": "address"
        },
        {
          "indexed": true,
          "internalType": "address",
          "name": "newOwner",
          "type": "address"
        }
      ],
      "name": "OwnerChanged",
      "type": "event"
    },
    {
      "anonymous": false,
      "inputs": [
        {
          "indexed": true,
          "internalType": "bytes32",
          "name": "userOpHash",
          "type": "bytes32"
        },
        {
          "indexed": true,
          "internalType": "address",
          "name": "signer",
          "type": "address"
        },
        {
          "indexed": true,
          "internalType": "bytes32",
          "name": "sessionId",
          "type": "bytes32"
        },
        {
          "indexed": false,
          "internalType": "uint256",
          "name": "value",
          "type": "uint256"
        }
      ],
      "name": "UserOperationValidated",
      "type": "event"
    },
    {
      "anonymous": false,
      "inputs": [
        {
          "indexed": true,
          "internalType": "address",
          "name": "owner",
          "type": "address"
        },
        {
          "indexed": true,
          "internalType": "address",
          "name": "sessionManager",
          "type": "address"
        },
        {
          "indexed": true,
          "internalType": "address",
          "name": "entryPoint",
          "type": "address"
        }
      ],
      "name": "WalletInitialized",
      "type": "event"
    },
    {
      "anonymous": false,
      "inputs": [
        {
          "indexed": true,
          "internalType": "address",
          "name": "party",
          "type": "address"
        },
        {
          "indexed": false,
          "internalType": "bool",
          "name": "status",
          "type": "bool"
        }
      ],
      "name": "WhiteListUpdated",
      "type": "event"
    },
    {
      "inputs": [],
      "name": "addDeposit",
      "outputs": [],
      "stateMutability": "payable",
      "type": "function"
    },
    {
      "inputs": [
        {
          "internalType": "address",
          "name": "newOwner",
          "type": "address"
        }
      ],
      "name": "changeOwner",
      "outputs": [],
      "stateMutability": "nonpayable",
      "type": "function"
    },
    {
      "inputs": [],
      "name": "checkBalance",
      "outputs": [
        {
          "internalType": "uint128",
          "name": "",
          "type": "uint128"
        }
      ],
      "stateMutability": "view",
      "type": "function"
    },
    {
      "inputs": [],
      "name": "entryPoint",
      "outputs": [
        {
          "internalType": "address",
          "name": "",
          "type": "address"
        }
      ],
      "stateMutability": "view",
      "type": "function"
    },
    {
      "inputs": [
        {
          "internalType": "address",
          "name": "target",
          "type": "address"
        },
        {
          "internalType": "uint256",
          "name": "value",
          "type": "uint256"
        },
        {
          "internalType": "bytes",
          "name": "data",
          "type": "bytes"
        }
      ],
      "name": "execute",
      "outputs": [],
      "stateMutability": "nonpayable",
      "type": "function"
    },
    {
      "inputs": [
        {
          "internalType": "address[]",
          "name": "targets",
          "type": "address[]"
        },
        {
          "internalType": "uint256[]",
          "name": "values",
          "type": "uint256[]"
        },
        {
          "internalType": "bytes[]",
          "name": "data",
          "type": "bytes[]"
        }
      ],
      "name": "executeBatch",
      "outputs": [],
      "stateMutability": "nonpayable",
      "type": "function"
    },
    {
      "inputs": [],
      "name": "getDeposit",
      "outputs": [
        {
          "internalType": "uint256",
          "name": "",
          "type": "uint256"
        }
      ],
      "stateMutability": "view",
      "type": "function"
    },
    {
      "inputs": [
        {
          "internalType": "address",
          "name": "_owner",
          "type": "address"
        },
        {
          "internalType": "address",
          "name": "_sessionManager",
          "type": "address"
        },
        {
          "internalType": "address",
          "name": "_entryPoint",
          "type": "address"
        }
      ],
      "name": "initialize",
      "outputs": [],
      "stateMutability": "nonpayable",
      "type": "function"
    },
    {
      "inputs": [],
      "name": "owner",
      "outputs": [
        {
          "internalType": "address",
          "name": "",
          "type": "address"
        }
      ],
      "stateMutability": "view",
      "type": "function"
    },
    {
      "inputs": [],
      "name": "sessionManager",
      "outputs": [
        {
          "internalType": "address",
          "name": "",
          "type": "address"
        }
      ],
      "stateMutability": "view",
      "type": "function"
    },
    {
      "inputs": [
        {
          "internalType": "address",
          "name": "party",
          "type": "address"
        },
        {
          "internalType": "bool",
          "name": "status",
          "type": "bool"
        }
      ],
      "name": "setWhiteListedParty",
      "outputs": [],
      "stateMutability": "nonpayable",
      "type": "function"
    },
    {
      "inputs": [
        {
          "internalType": "address[]",
          "name": "parties",
          "type": "address[]"
        },
        {
          "internalType": "bool[]",
          "name": "statuses",
          "type": "bool[]"
        }
      ],
      "name": "setWhiteListedPartyBatch",
      "outputs": [],
      "stateMutability": "nonpayable",
      "type": "function"
    },
    {
      "inputs": [
        {
          "components": [
            {
              "internalType": "address",
              "name": "sender",
              "type": "address"
            },
            {
              "internalType": "uint256",
              "name": "nonce",
              "type": "uint256"
            },
            {
              "internalType": "bytes",
              "name": "initCode",
              "type": "bytes"
            },
            {
              "internalType": "bytes",
              "name": "callData",
              "type": "bytes"
            },
            {
              "internalType": "bytes32",
              "name": "accountGasLimits",
              "type": "bytes32"
            },
            {
              "internalType": "uint256",
              "name": "preVerificationGas",
              "type": "uint256"
            },
            {
              "internalType": "bytes32",
              "name": "gasFees",
              "type": "bytes32"
            },
            {
              "internalType": "bytes",
              "name": "paymasterAndData",
              "type": "bytes"
            },
            {
              "internalType": "bytes",
              "name": "signature",
              "type": "bytes"
            }
          ],
          "internalType": "struct PackedUserOperation",
          "name": "userOp",
          "type": "tuple"
        },
        {
          "internalType": "bytes32",
          "name": "userOpHash",
          "type": "bytes32"
        },
        {
          "internalType": "uint256",
          "name": "missingAccountFunds",
          "type": "uint256"
        }
      ],
      "name": "validateUserOp",
      "outputs": [
        {
          "internalType": "uint256",
          "name": "validationData",
          "type": "uint256"
        }
      ],
      "stateMutability": "nonpayable",
      "type": "function"
    },
    {
      "inputs": [
        {
          "internalType": "address",
          "name": "",
          "type": "address"
        }
      ],
      "name": "whiteListedParties",
      "outputs": [
        {
          "internalType": "bool",
          "name": "",
          "type": "bool"
        }
      ],
      "stateMutability": "view",
      "type": "function"
    },
    {
      "inputs": [
        {
          "internalType": "address payable",
          "name": "recipient",
          "type": "address"
        },
        {
          "internalType": "uint256",
          "name": "amount",
          "type": "uint256"
        }
      ],
      "name": "withdrawDepositTo",
      "outputs": [],
      "stateMutability": "nonpayable",
      "type": "function"
    },
    {
      "stateMutability": "payable",
      "type": "receive"
    }
  ],
  "bytecode": "0x608060405234801561001057600080fd5b50600160008190556005805460ff19169091179055612157806100346000396000f3fe6080604052600436106100ec5760003560e01c8063b0d691fe1161008a578063c0c53b8b11610059578063c0c53b8b1461028d578063c399ec88146102ad578063c71daccb146102c2578063f9c56aa6146102ef57600080fd5b8063b0d691fe146101ed578063b61d27f61461020d578063b7b13f791461022d578063b84346851461024d57600080fd5b80634d44560d116100c65780634d44560d146101555780638da5cb5b146101755780639f5e3ecc146101ad578063a6f9dae1146101cd57600080fd5b806319822f7c146100f857806347e1da2a1461012b5780634a58db191461014d57600080fd5b366100f357005b600080fd5b34801561010457600080fd5b506101186101133660046118fc565b61030f565b6040519081526020015b60405180910390f35b34801561013757600080fd5b5061014b610146366004611993565b61047e565b005b61014b610740565b34801561016157600080fd5b5061014b610170366004611a41565b61086b565b34801561018157600080fd5b50600154610195906001600160a01b031681565b6040516001600160a01b039091168152602001610122565b3480156101b957600080fd5b5061014b6101c8366004611a6d565b6109ae565b3480156101d957600080fd5b5061014b6101e8366004611ad8565b610b60565b3480156101f957600080fd5b50600354610195906001600160a01b031681565b34801561021957600080fd5b5061014b610228366004611afc565b610c44565b34801561023957600080fd5b50600254610195906001600160a01b031681565b34801561025957600080fd5b5061027d610268366004611ad8565b60046020526000908152604090205460ff1681565b6040519015158152602001610122565b34801561029957600080fd5b5061014b6102a8366004611b84565b610e09565b3480156102b957600080fd5b50610118610fb5565b3480156102ce57600080fd5b506040516fffffffffffffffffffffffffffffffff47168152602001610122565b3480156102fb57600080fd5b5061014b61030a366004611bdd565b611027565b6003546000906001600160a01b031633146103635760405162461bcd60e51b815260206004820152600f60248201526e139bdd08195b9d1c9e481c1bda5b9d608a1b60448201526064015b60405180910390fd5b60055460ff166103855760405162461bcd60e51b815260040161035a90611c16565b600080600061039487876110cb565b91945092509050841561042c57604051600090339087908381818185875af1925050503d80600081146103e3576040519150601f19603f3d011682016040523d82523d6000602084013e6103e8565b606091505b505090508061042a5760405162461bcd60e51b815260206004820152600e60248201526d119d5b991a5b99c819985a5b195960921b604482015260640161035a565b505b81816001600160a01b0316877f3beba097c09c235465df7c6857b74b6435ffb77e2cb08a8f714156c35da603738660405161046991815260200190565b60405180910390a45060009695505050505050565b6104866113c8565b60055460ff166104a85760405162461bcd60e51b815260040161035a90611c16565b6001546001600160a01b03163314806104cb57506003546001600160a01b031633145b6105085760405162461bcd60e51b815260206004820152600e60248201526d139bdd08185d5d1a1bdc9a5e995960921b604482015260640161035a565b848314801561051657508281145b6105545760405162461bcd60e51b815260206004820152600f60248201526e098cadccee8d040dad2e6dac2e8c6d608b1b604482015260640161035a565b6000805b868110156106f1576004600089898481811061057657610576611c3f565b905060200201602081019061058b9190611ad8565b6001600160a01b0316815260208101919091526040016000205460ff166105c45760405162461bcd60e51b815260040161035a90611c55565b8585828181106105d6576105d6611c3f565b90506020020135826105e89190611c7f565b915060008888838181106105fe576105fe611c3f565b90506020020160208101906106139190611ad8565b6001600160a01b031687878481811061062e5761062e611c3f565b9050602002013586868581811061064757610647611c3f565b90506020028101906106599190611ca0565b604051610667929190611ce6565b60006040518083038185875af1925050503d80600081146106a4576040519150601f19603f3d011682016040523d82523d6000602084013e6106a9565b606091505b50509050806106e85760405162461bcd60e51b815260206004820152600b60248201526a10d85b1b0819985a5b195960aa1b604482015260640161035a565b50600101610558565b50604080518781526020810183905233917f36551ad729f069397fd12c263eba2bdbdb0e999953df151620e1ec9edd8f2aaf910160405180910390a2506107386001600055565b505050505050565b60055460ff166107625760405162461bcd60e51b815260040161035a90611c16565b60035460405163b760faf960e01b81523060048201526001600160a01b039091169063b760faf99034906024016000604051808303818588803b1580156107a857600080fd5b505af11580156107bc573d6000803e3d6000fd5b50506003546040516370a0823160e01b81523060048201527f4936e4683983dc3b8afb17c6844af8a193b8bdc330595d260421c7e84ebf683e94503493506001600160a01b0390911691506370a0823190602401602060405180830381865afa15801561082d573d6000803e3d6000fd5b505050506040513d601f19601f820116820180604052508101906108519190611cf6565b6040805192835260208301919091520160405180910390a1565b6001546001600160a01b031633146108955760405162461bcd60e51b815260040161035a90611d0f565b60055460ff166108b75760405162461bcd60e51b815260040161035a90611c16565b6001600160a01b0382166109015760405162461bcd60e51b8152602060048201526011602482015270125b9d985b1a59081c9958da5c1a595b9d607a1b604482015260640161035a565b60035460405163040b850f60e31b81526001600160a01b038481166004830152602482018490529091169063205c287890604401600060405180830381600087803b15801561094f57600080fd5b505af1158015610963573d6000803e3d6000fd5b50505050816001600160a01b03167fcae8414aeb02c2a7a7089c22ed61def4882bf260298b39ff6ba047ef80a2f379826040516109a291815260200190565b60405180910390a25050565b6001546001600160a01b031633146109d85760405162461bcd60e51b815260040161035a90611d0f565b60055460ff166109fa5760405162461bcd60e51b815260040161035a90611c16565b828114610a415760405162461bcd60e51b8152602060048201526015602482015274082e4e4c2f240d8cadccee8d040dad2e6dac2e8c6d605b1b604482015260640161035a565b60005b83811015610b5957828282818110610a5e57610a5e611c3f565b9050602002016020810190610a739190611d32565b60046000878785818110610a8957610a89611c3f565b9050602002016020810190610a9e9190611ad8565b6001600160a01b031681526020810191909152604001600020805460ff1916911515919091179055848482818110610ad857610ad8611c3f565b9050602002016020810190610aed9190611ad8565b6001600160a01b03167fb1288e9f7bae3599e10819d5553febea48e11a6f8f585b32c8abad397dd2627e848484818110610b2957610b29611c3f565b9050602002016020810190610b3e9190611d32565b604051901515815260200160405180910390a2600101610a44565b5050505050565b6001546001600160a01b03163314610b8a5760405162461bcd60e51b815260040161035a90611d0f565b60055460ff16610bac5760405162461bcd60e51b815260040161035a90611c16565b6001600160a01b038116610bf25760405162461bcd60e51b815260206004820152600d60248201526c24b73b30b634b21037bbb732b960991b604482015260640161035a565b600180546001600160a01b038381166001600160a01b0319831681179093556040519116919082907fb532073b38c83145e3e5135377a08bf9aab55bc0fd7c1179cd4fb995d2a5159c90600090a35050565b610c4c6113c8565b60055460ff16610c6e5760405162461bcd60e51b815260040161035a90611c16565b6001546001600160a01b0316331480610c9157506003546001600160a01b031633145b610cce5760405162461bcd60e51b815260206004820152600e60248201526d139bdd08185d5d1a1bdc9a5e995960921b604482015260640161035a565b6001600160a01b03841660009081526004602052604090205460ff16610d065760405162461bcd60e51b815260040161035a90611c55565b6000846001600160a01b0316848484604051610d23929190611ce6565b60006040518083038185875af1925050503d8060008114610d60576040519150601f19603f3d011682016040523d82523d6000602084013e610d65565b606091505b5050905080610da95760405162461bcd60e51b815260206004820152601060248201526f115e1958dd5d1a5bdb8819985a5b195960821b604482015260640161035a565b846001600160a01b0316336001600160a01b03167f466a2206798e055438a5c0ffd88fa284dbeb2bd07c385e998a1909b2e1ac3660868686604051610df093929190611d4f565b60405180910390a350610e036001600055565b50505050565b60055460ff1615610e525760405162461bcd60e51b8152602060048201526013602482015272105b1c9958591e481a5b9a5d1a585b1a5e9959606a1b604482015260640161035a565b6001600160a01b038316610e985760405162461bcd60e51b815260206004820152600d60248201526c24b73b30b634b21037bbb732b960991b604482015260640161035a565b6001600160a01b038216610eee5760405162461bcd60e51b815260206004820152601760248201527f496e76616c69642073657373696f6e206d616e61676572000000000000000000604482015260640161035a565b6001600160a01b038116610f3a5760405162461bcd60e51b8152602060048201526013602482015272125b9d985b1a5908195b9d1c9e481c1bda5b9d606a1b604482015260640161035a565b600180546001600160a01b03199081166001600160a01b038681169182178455600280548416878316908117909155600380549094169186169182179093556005805460ff19169094179093556040517f31f30195006760f9b61e7325457ca7acacfbdd7734b88a22545e264b62357fde90600090a4505050565b6003546040516370a0823160e01b81523060048201526000916001600160a01b0316906370a0823190602401602060405180830381865afa158015610ffe573d6000803e3d6000fd5b505050506040513d601f19601f820116820180604052508101906110229190611cf6565b905090565b6001546001600160a01b031633146110515760405162461bcd60e51b815260040161035a90611d0f565b60055460ff166110735760405162461bcd60e51b815260040161035a90611c16565b6001600160a01b038216600081815260046020908152604091829020805460ff191685151590811790915591519182527fb1288e9f7bae3599e10819d5553febea48e11a6f8f585b32c8abad397dd2627e91016109a2565b600080806110e46110df6060870187611ca0565b611421565b7f19457468657265756d205369676e6564204d6573736167653a0a3332000000006000908152601c869052603c9020909350611124610100870187611ca0565b90506041036111e55761117b61113e610100880188611ca0565b8080601f01602080910402602001604051908101604052809392919081815260200183838082843760009201919091525085939250506115e69050565b6001549092506001600160a01b038084169116146111db5760405162461bcd60e51b815260206004820152601760248201527f496e76616c6964206f776e6572207369676e6174757265000000000000000000604482015260640161035a565b50600091506113c1565b60606111f5610100880188611ca0565b8101906112029190611e3a565b909450905061121182826115e6565b60025460405163f545b88b60e01b8152600481018790526001600160a01b0380841660248301526044820189905292955091169063f545b88b906064016020604051808303816000875af1925050508015611289575060408051601f3d908101601f1916820190925261128691810190611e80565b60015b6113615760025460405163370d79f560e21b8152600481018690526001600160a01b03858116602483015260448201889052600092169063dc35e7d4906064016020604051808303816000875af11580156112e8573d6000803e3d6000fd5b505050506040513d601f19601f8201168201806040525081019061130c9190611e80565b90508061135b5760405162461bcd60e51b815260206004820152601960248201527f53657373696f6e2076616c69646174696f6e206661696c656400000000000000604482015260640161035a565b506113be565b806113bc5760405162461bcd60e51b815260206004820152602560248201527f4c696768747765696768742073657373696f6e2076616c69646174696f6e2066604482015264185a5b195960da1b606482015260840161035a565b505b50505b9250925092565b60026000540361141a5760405162461bcd60e51b815260206004820152601f60248201527f5265656e7472616e637947756172643a207265656e7472616e742063616c6c00604482015260640161035a565b6002600055565b60008061142e848461160a565b90506324f16c0560e11b6001600160e01b03198216016114875760006114578460048188611e9d565b8101906114649190611ec7565b50915061147e90506114798560048189611e9d565b611656565b91506115e09050565b635c0f12eb60e11b6001600160e01b03198216016115a1576000806114af8560048189611e9d565b8101906114bc9190612030565b509150915080518251146115045760405162461bcd60e51b815260206004820152600f60248201526e098cadccee8d040dad2e6dac2e8c6d608b1b604482015260640161035a565b60005b8251811015611598576004600084838151811061152657611526611c3f565b6020908102919091018101516001600160a01b031682528101919091526040016000205460ff166115695760405162461bcd60e51b815260040161035a90611c55565b81818151811061157b5761157b611c3f565b60200260200101518561158e9190611c7f565b9450600101611507565b505050506115e0565b60405162461bcd60e51b8152602060048201526014602482015273556e737570706f727465642063616c6c4461746160601b604482015260640161035a565b92915050565b60008060006115f585856116a6565b91509150611602816116eb565b509392505050565b600060048210156116505760405162461bcd60e51b815260206004820152601060248201526f496e76616c69642063616c6c4461746160801b604482015260640161035a565b50503590565b600061166482840184611ec7565b50506001600160a01b03811660009081526004602052604090205490915060ff166116a15760405162461bcd60e51b815260040161035a90611c55565b505050565b60008082516041036116dc5760208301516040840151606085015160001a6116d087828585611838565b945094505050506116e4565b506000905060025b9250929050565b60008160048111156116ff576116ff61210b565b036117075750565b600181600481111561171b5761171b61210b565b036117685760405162461bcd60e51b815260206004820152601860248201527f45434453413a20696e76616c6964207369676e61747572650000000000000000604482015260640161035a565b600281600481111561177c5761177c61210b565b036117c95760405162461bcd60e51b815260206004820152601f60248201527f45434453413a20696e76616c6964207369676e6174757265206c656e67746800604482015260640161035a565b60038160048111156117dd576117dd61210b565b036118355760405162461bcd60e51b815260206004820152602260248201527f45434453413a20696e76616c6964207369676e6174757265202773272076616c604482015261756560f01b606482015260840161035a565b50565b6000807f7fffffffffffffffffffffffffffffff5d576e7357a4501ddfe92f46681b20a083111561186f57506000905060036118f3565b6040805160008082526020820180845289905260ff881692820192909252606081018690526080810185905260019060a0016020604051602081039080840390855afa1580156118c3573d6000803e3d6000fd5b5050604051601f1901519150506001600160a01b0381166118ec576000600192509250506118f3565b9150600090505b94509492505050565b60008060006060848603121561191157600080fd5b83356001600160401b0381111561192757600080fd5b8401610120818703121561193a57600080fd5b95602085013595506040909401359392505050565b60008083601f84011261196157600080fd5b5081356001600160401b0381111561197857600080fd5b6020830191508360208260051b85010111156116e457600080fd5b600080600080600080606087890312156119ac57600080fd5b86356001600160401b03808211156119c357600080fd5b6119cf8a838b0161194f565b909850965060208901359150808211156119e857600080fd5b6119f48a838b0161194f565b90965094506040890135915080821115611a0d57600080fd5b50611a1a89828a0161194f565b979a9699509497509295939492505050565b6001600160a01b038116811461183557600080fd5b60008060408385031215611a5457600080fd5b8235611a5f81611a2c565b946020939093013593505050565b60008060008060408587031215611a8357600080fd5b84356001600160401b0380821115611a9a57600080fd5b611aa68883890161194f565b90965094506020870135915080821115611abf57600080fd5b50611acc8782880161194f565b95989497509550505050565b600060208284031215611aea57600080fd5b8135611af581611a2c565b9392505050565b60008060008060608587031215611b1257600080fd5b8435611b1d81611a2c565b93506020850135925060408501356001600160401b0380821115611b4057600080fd5b818701915087601f830112611b5457600080fd5b813581811115611b6357600080fd5b886020828501011115611b7557600080fd5b95989497505060200194505050565b600080600060608486031215611b9957600080fd5b8335611ba481611a2c565b92506020840135611bb481611a2c565b91506040840135611bc481611a2c565b809150509250925092565b801515811461183557600080fd5b60008060408385031215611bf057600080fd5b8235611bfb81611a2c565b91506020830135611c0b81611bcf565b809150509250929050565b6020808252600f908201526e139bdd081a5b9a5d1a585b1a5e9959608a1b604082015260600190565b634e487b7160e01b600052603260045260246000fd5b60208082526010908201526f139bdd081dda1a5d19481b1a5cdd195960821b604082015260600190565b808201808211156115e057634e487b7160e01b600052601160045260246000fd5b6000808335601e19843603018112611cb757600080fd5b8301803591506001600160401b03821115611cd157600080fd5b6020019150368190038213156116e457600080fd5b8183823760009101908152919050565b600060208284031215611d0857600080fd5b5051919050565b6020808252600990820152682737ba1037bbb732b960b91b604082015260600190565b600060208284031215611d4457600080fd5b8135611af581611bcf565b83815260406020820152816040820152818360608301376000818301606090810191909152601f909201601f1916010192915050565b634e487b7160e01b600052604160045260246000fd5b604051601f8201601f191681016001600160401b0381118282101715611dc357611dc3611d85565b604052919050565b600082601f830112611ddc57600080fd5b81356001600160401b03811115611df557611df5611d85565b611e08601f8201601f1916602001611d9b565b818152846020838601011115611e1d57600080fd5b816020850160208301376000918101602001919091529392505050565b60008060408385031215611e4d57600080fd5b8235915060208301356001600160401b03811115611e6a57600080fd5b611e7685828601611dcb565b9150509250929050565b600060208284031215611e9257600080fd5b8151611af581611bcf565b60008085851115611ead57600080fd5b83861115611eba57600080fd5b5050820193919092039150565b600080600060608486031215611edc57600080fd5b8335611ee781611a2c565b92506020840135915060408401356001600160401b03811115611f0957600080fd5b611f1586828701611dcb565b9150509250925092565b60006001600160401b03821115611f3857611f38611d85565b5060051b60200190565b600082601f830112611f5357600080fd5b81356020611f68611f6383611f1f565b611d9b565b8083825260208201915060208460051b870101935086841115611f8a57600080fd5b602086015b84811015611fa65780358352918301918301611f8f565b509695505050505050565b600082601f830112611fc257600080fd5b81356020611fd2611f6383611f1f565b82815260059290921b84018101918181019086841115611ff157600080fd5b8286015b84811015611fa65780356001600160401b038111156120145760008081fd5b6120228986838b0101611dcb565b845250918301918301611ff5565b60008060006060848603121561204557600080fd5b83356001600160401b038082111561205c57600080fd5b818601915086601f83011261207057600080fd5b81356020612080611f6383611f1f565b82815260059290921b8401810191818101908a84111561209f57600080fd5b948201945b838610156120c65785356120b781611a2c565b825294820194908201906120a4565b975050870135925050808211156120dc57600080fd5b6120e887838801611f42565b935060408601359150808211156120fe57600080fd5b50611f1586828701611fb1565b634e487b7160e01b600052602160045260246000fdfea2646970667358221220e6b4d9d3759190f6fe7a18cbafd941f203a19e7938f149ff9d94d98e05085b1964736f6c63430008180033",
  "linkReferences": {},
  "deployedLinkReferences": {}
}