{
  "_format": "hh-sol-artifact-1",
  "contractName": "AgentWalletFactory",
  "sourceName": "src/AgentWalletFactory.sol",
  "abi": [
    {
      "inputs": [],
      "stateMutability": "nonpayable",
      "type": "constructor"
    },
    {
      "inputs": [],
      "name": "InvalidEntryPointError",
      "type": "error"
    },
    {
      "inputs": [],
      "name": "InvalidImplementationError",
      "type": "error"
    },
    {
      "inputs": [],
      "name": "InvalidOwnerError",
      "type": "error"
    },
    {
      "inputs": [],
      "name": "InvalidSessionManagerError",
      "type": "error"
    },
    {
      "anonymous": false,
      "inputs": [
        {
          "indexed": false,
          "internalType": "address",
          "name": "previousAdmin",
          "type": "address"
        },
        {
          "indexed": false,
          "internalType": "address",
          "name": "newAdmin",
          "type": "address"
        }
      ],
      "name": "AdminChanged",
      "type": "event"
    },
    {
      "anonymous": false,
      "inputs": [
        {
          "indexed": true,
          "internalType": "address",
          "name": "beacon",
          "type": "address"
        }
      ],
      "name": "BeaconUpgraded",
      "type": "event"
    },
    {
      "anonymous": false,
      "inputs": [
        {
          "indexed": false,
          "internalType": "uint8",
          "name": "version",
          "type": "uint8"
        }
      ],
      "name": "Initialized",
      "type": "event"
    },
    {
      "anonymous": false,
      "inputs": [
        {
          "indexed": true,
          "internalType": "address",
          "name": "previousOwner",
          "type": "address"
        },
        {
          "indexed": true,
          "internalType": "address",
          "name": "newOwner",
          "type": "address"
        }
      ],
      "name": "OwnershipTransferred",
      "type": "event"
    },
    {
      "anonymous": false,
      "inputs": [
        {
          "indexed": true,
          "internalType": "address",
          "name": "implementation",
          "type": "address"
        }
      ],
      "name": "Upgraded",
      "type": "event"
    },
    {
      "anonymous": false,
      "inputs": [
        {
          "indexed": true,
          "internalType": "address",
          "name": "wallet",
          "type": "address"
        },
        {
          "indexed": true,
          "internalType": "address",
          "name": "owner",
          "type": "address"
        },
        {
          "indexed": true,
          "internalType": "bytes32",
          "name": "salt",
          "type": "bytes32"
        },
        {
          "indexed": false,
          "internalType": "address",
          "name": "entryPoint",
          "type": "address"
        }
      ],
      "name": "WalletCreated",
      "type": "event"
    },
    {
      "inputs": [
        {
          "internalType": "address",
          "name": "owner",
          "type": "address"
        }
      ],
      "name": "createWallet",
      "outputs": [
        {
          "internalType": "address",
          "name": "wallet",
          "type": "address"
        }
      ],
      "stateMutability": "nonpayable",
      "type": "function"
    },
    {
      "inputs": [
        {
          "internalType": "address",
          "name": "owner",
          "type": "address"
        },
        {
          "internalType": "bytes32",
          "name": "salt",
          "type": "bytes32"
        }
      ],
      "name": "createWallet",
      "outputs": [
        {
          "internalType": "address",
          "name": "wallet",
          "type": "address"
        }
      ],
      "stateMutability": "nonpayable",
      "type": "function"
    },
    {
      "inputs": [],
      "name": "entryPoint",
      "outputs": [
        {
          "internalType": "address",
          "name": "",
          "type": "address"
        }
      ],
      "stateMutability": "view",
      "type": "function"
    },
    {
      "inputs": [
        {
          "internalType": "bytes32",
          "name": "salt",
          "type": "bytes32"
        }
      ],
      "name": "getAddress",
      "outputs": [
        {
          "internalType": "address",
          "name": "wallet",
          "type": "address"
        }
      ],
      "stateMutability": "view",
      "type": "function"
    },
    {
      "inputs": [],
      "name": "implementation",
      "outputs": [
        {
          "internalType": "address",
          "name": "",
          "type": "address"
        }
      ],
      "stateMutability": "view",
      "type": "function"
    },
    {
      "inputs": [
        {
          "internalType": "address",
          "name": "implementation_",
          "type": "address"
        },
        {
          "internalType": "address",
          "name": "sessionManager_",
          "type": "address"
        },
        {
          "internalType": "address",
          "name": "entryPoint_",
          "type": "address"
        }
      ],
      "name": "initialize",
      "outputs": [],
      "stateMutability": "nonpayable",
      "type": "function"
    },
    {
      "inputs": [],
      "name": "owner",
      "outputs": [
        {
          "internalType": "address",
          "name": "",
          "type": "address"
        }
      ],
      "stateMutability": "view",
      "type": "function"
    },
    {
      "inputs": [],
      "name": "proxiableUUID",
      "outputs": [
        {
          "internalType": "bytes32",
          "name": "",
          "type": "bytes32"
        }
      ],
      "stateMutability": "view",
      "type": "function"
    },
    {
      "inputs": [],
      "name": "renounceOwnership",
      "outputs": [],
      "stateMutability": "nonpayable",
      "type": "function"
    },
    {
      "inputs": [],
      "name": "sessionManager",
      "outputs": [
        {
          "internalType": "address",
          "name": "",
          "type": "address"
        }
      ],
      "stateMutability": "view",
      "type": "function"
    },
    {
      "inputs": [
        {
          "internalType": "address",
          "name": "newEntryPoint",
          "type": "address"
        }
      ],
      "name": "setEntryPoint",
      "outputs": [],
      "stateMutability": "nonpayable",
      "type": "function"
    },
    {
      "inputs": [
        {
          "internalType": "address",
          "name": "newImplementation",
          "type": "address"
        }
      ],
      "name": "setImplementation",
      "outputs": [],
      "stateMutability": "nonpayable",
      "type": "function"
    },
    {
      "inputs": [
        {
          "internalType": "address",
          "name": "newSessionManager",
          "type": "address"
        }
      ],
      "name": "setSessionManager",
      "outputs": [],
      "stateMutability": "nonpayable",
      "type": "function"
    },
    {
      "inputs": [
        {
          "internalType": "address",
          "name": "newOwner",
          "type": "address"
        }
      ],
      "name": "transferOwnership",
      "outputs": [],
      "stateMutability": "nonpayable",
      "type": "function"
    },
    {
      "inputs": [
        {
          "internalType": "address",
          "name": "newImplementation",
          "type": "address"
        }
      ],
      "name": "upgradeTo",
      "outputs": [],
      "stateMutability": "nonpayable",
      "type": "function"
    },
    {
      "inputs": [
        {
          "internalType": "address",
          "name": "newImplementation",
          "type": "address"
        },
        {
          "internalType": "bytes",
          "name": "data",
          "type": "bytes"
        }
      ],
      "name": "upgradeToAndCall",
      "outputs": [],
      "stateMutability": "payable",
      "type": "function"
    },
    {
      "inputs": [],
      "name": "walletCount",
      "outputs": [
        {
          "internalType": "uint256",
          "name": "",
          "type": "uint256"
        }
      ],
      "stateMutability": "view",
      "type": "function"
    }
  ],
  "bytecode": "0x60a080604052346100dc57306080526000549060ff8260081c1661008a575060ff8082160361004f575b60405161125b90816100e28239608051818181610661015281816107880152610a360152f35b60ff90811916176000557f7f26b83ff96e1f2b6a682f133852f6798a09c465da95921460cefb3847402498602060405160ff8152a138610029565b62461bcd60e51b815260206004820152602760248201527f496e697469616c697a61626c653a20636f6e747261637420697320696e697469604482015266616c697a696e6760c81b6064820152608490fd5b600080fdfe6040608081526004908136101561001557600080fd5b600091823560e01c806321f8a72114610c2357806329b57c6914610c045780633659cfe614610a0f5780634f1ef2861461070e57806352d1902d1461064c578063584465f2146105f55780635c60da1b146105cc578063674f0abd14610576578063715018a6146105195780638da5cb5b146104f0578063b054a9e814610438578063b0d691fe1461040f578063b20ca818146103d5578063b7b13f79146103a8578063c0c53b8b146101c7578063d784d426146101705763f2fde38b146100dc57600080fd5b3461016c57602036600319011261016c576100f5610c54565b916100fe610df9565b6001600160a01b0383161561011a578361011784610e51565b80f35b906020608492519162461bcd60e51b8352820152602660248201527f4f776e61626c653a206e6577206f776e657220697320746865207a65726f206160448201526564647265737360d01b6064820152fd5b8280fd5b503461016c57602036600319011261016c5761018a610c54565b610192610df9565b6001600160a01b03169182156101ba5750506001600160601b0360a01b60c954161760c95580f35b5163c2b9e5e960e01b8152fd5b503461016c57606036600319011261016c576101e1610c54565b906001600160a01b039060243582811691908290036103a457604435918383168093036103a05786549360ff8560081c161594858096610393575b801561037c575b156103225760ff198116600117895585610311575b5061025260ff895460081c1661024d81611041565b611041565b61025b33610e51565b87549561026d60ff8860081c16611041565b169182156103035781156102f65783156102e857506001600160601b0360a01b918260c954161760c9558160cb54161760cb5560ca54161760ca556102b0578280f35b61ff001916825551600181527f7f26b83ff96e1f2b6a682f133852f6798a09c465da95921460cefb384740249890602090a138808280f35b86516392377dd560e01b8152fd5b865162d9b42560e01b8152fd5b865163c2b9e5e960e01b8152fd5b61ffff191661010117885538610238565b875162461bcd60e51b8152602081860152602e60248201527f496e697469616c697a61626c653a20636f6e747261637420697320616c72656160448201526d191e481a5b9a5d1a585b1a5e995960921b6064820152608490fd5b50303b1580156102235750600160ff821614610223565b50600160ff82161061021c565b8680fd5b8580fd5b5050346103d157816003193601126103d15760cb5490516001600160a01b039091168152602090f35b5080fd5b5050346103d157806003193601126103d1576020906103fe6103f5610c54565b60243590610e9a565b90516001600160a01b039091168152f35b5050346103d157816003193601126103d15760ca5490516001600160a01b039091168152602090f35b5091346104ed5760203660031901126104ed57610453610c54565b60cc5483516001600160a01b0380841660208301908152338388015246606084015260808084018590528352909493929160a0810167ffffffffffffffff8111828210176104da5787525190209260001982146104c757602086866104bf87876001880160cc55610e9a565b915191168152f35b634e487b7160e01b815260118752602490fd5b634e487b7160e01b865260418952602486fd5b80fd5b5050346103d157816003193601126103d15760975490516001600160a01b039091168152602090f35b83346104ed57806003193601126104ed57610532610df9565b609780546001600160a01b0319811690915581906001600160a01b03167f8be0079c531659141344cd1fd0a4f28419497f9722a3daafe3b4186f6b6457e08280a380f35b503461016c57602036600319011261016c57610590610c54565b610598610df9565b6001600160a01b03169182156105c05750506001600160601b0360a01b60cb54161760cb5580f35b5162d9b42560e01b8152fd5b5050346103d157816003193601126103d15760c95490516001600160a01b039091168152602090f35b503461016c57602036600319011261016c5761060f610c54565b610617610df9565b6001600160a01b031691821561063f5750506001600160601b0360a01b60ca54161760ca5580f35b516392377dd560e01b8152fd5b5082346104ed57806003193601126104ed57507f00000000000000000000000000000000000000000000000000000000000000006001600160a01b031630036106a657602082516000805160206112068339815191528152f35b6020608492519162461bcd60e51b8352820152603860248201527f555550535570677261646561626c653a206d757374206e6f742062652063616c60448201527f6c6564207468726f7567682064656c656761746563616c6c00000000000000006064820152fd5b50908060031936011261016c57610723610c54565b906024359067ffffffffffffffff8211610a0b5736602383011215610a0b578184013561074f81610cc3565b61075b83519182610ca1565b8181528660209485830193366024828401011161016c578060248893018637830101526001600160a01b037f00000000000000000000000000000000000000000000000000000000000000008116906107b630831415610cdf565b6107d3600080516020611206833981519152928284541614610d40565b6107db610df9565b7f4910fdfa16fed3260ed0e7147f7cc6da11a60208b5b9406d12a635614ffd91435460ff16156108155750505050505061011791506110a1565b869293949596169085516352d1902d60e01b815287818a81865afa8a91816109d8575b5061089757865162461bcd60e51b8152808a01899052602e60248201527f45524331393637557067726164653a206e657720696d706c656d656e7461746960448201526d6f6e206973206e6f74205555505360901b6064820152608490fd5b97919293969594970361098357506108ae826110a1565b7fbc7cd75a20ee27fd9adebab32041f755214dbc6bffa90cc0225b39da2e5c2d3b8780a28584511580159061097b575b6108ec575b50505050505080f35b80610965968451966108fd88610c6f565b602788527f416464726573733a206c6f772d6c6576656c2064656c65676174652063616c6c87890152660819985a5b195960ca1b868901525190845af4913d15610971573d61095761094e82610cc3565b92519283610ca1565b81528681943d92013e611131565b503880808080856108e3565b5060609250611131565b5060016108de565b835162461bcd60e51b8152908101859052602960248201527f45524331393637557067726164653a20756e737570706f727465642070726f786044820152681a58589b195555525160ba1b6064820152608490fd5b9091508881813d8311610a04575b6109f08183610ca1565b81010312610a0057519038610838565b8a80fd5b503d6109e6565b8480fd5b50903461016c57602080600319360112610c0057610a2b610c54565b916001600160a01b037f00000000000000000000000000000000000000000000000000000000000000008116610a6330821415610cdf565b610a80600080516020611206833981519152918383541614610d40565b610a88610df9565b8251908482019282841067ffffffffffffffff851117610bed578385528883527f4910fdfa16fed3260ed0e7147f7cc6da11a60208b5b9406d12a635614ffd91435460ff1615610ae25750505050505061011791506110a1565b869293949596169085516352d1902d60e01b815287818a81865afa8a9181610bbe575b50610b6457865162461bcd60e51b8152808a01899052602e60248201527f45524331393637557067726164653a206e657720696d706c656d656e7461746960448201526d6f6e206973206e6f74205555505360901b6064820152608490fd5b9791929396959497036109835750610b7b826110a1565b7fbc7cd75a20ee27fd9adebab32041f755214dbc6bffa90cc0225b39da2e5c2d3b8780a285845115801590610bb7576108ec5750505050505080f35b50806108de565b9091508881813d8311610be6575b610bd68183610ca1565b81010312610a0057519038610b05565b503d610bcc565b634e487b7160e01b895260418852602489fd5b8380fd5b5050346103d157816003193601126103d15760209060cc549051908152f35b503461016c57602036600319011261016c5760c954602093506001600160a01b03916104bf91309135908416610da1565b600435906001600160a01b0382168203610c6a57565b600080fd5b6060810190811067ffffffffffffffff821117610c8b57604052565b634e487b7160e01b600052604160045260246000fd5b90601f8019910116810190811067ffffffffffffffff821117610c8b57604052565b67ffffffffffffffff8111610c8b57601f01601f191660200190565b15610ce657565b60405162461bcd60e51b815260206004820152602c60248201527f46756e6374696f6e206d7573742062652063616c6c6564207468726f7567682060448201526b19195b1959d85d1958d85b1b60a21b6064820152608490fd5b15610d4757565b60405162461bcd60e51b815260206004820152602c60248201527f46756e6374696f6e206d7573742062652063616c6c6564207468726f7567682060448201526b6163746976652070726f787960a01b6064820152608490fd5b916043916055936040519260388401526f5af43d82803e903d91602b57fd5bf3ff60248401526014830152733d602d80600a3d3981f3363d3d373d3d3d363d73825260588201526037600c8201206078820152012090565b6097546001600160a01b03163303610e0d57565b606460405162461bcd60e51b815260206004820152602060248201527f4f776e61626c653a2063616c6c6572206973206e6f7420746865206f776e65726044820152fd5b609780546001600160a01b039283166001600160a01b0319821681179092559091167f8be0079c531659141344cd1fd0a4f28419497f9722a3daafe3b4186f6b6457e0600080a3565b6001600160a01b039291908316801561102f5760c95493610ebe3084838816610da1565b94853b15610efd575b507f1f7761c69c1e6ed50fd7b87c3be8af863a3977e31508a30bcb6ff930731d5dac60208260ca541692604051938452871692a4565b94506e5af43d82803e903d91602b57fd5bf3600095763d602d80600a3d3981f3363d3d373d3d3d363d7300000062ffffff8260881c161787526effffffffffffffffffffffffffffff199060781b1617602052826037600987f5818116908115610fea57958260cb54168360ca541690833b1561016c57906064839283604051968794859363c0c53b8b60e01b85528b6004860152602485015260448401525af18015610fdd57610faf575b50610ec7565b67ffffffffffffffff8211610fc957506040523880610fa9565b634e487b7160e01b81526041600452602490fd5b50604051903d90823e3d90fd5b60405162461bcd60e51b815260206004820152601760248201527f455243313136373a2063726561746532206661696c65640000000000000000006044820152606490fd5b60405163062ef65960e21b8152600490fd5b1561104857565b60405162461bcd60e51b815260206004820152602b60248201527f496e697469616c697a61626c653a20636f6e7472616374206973206e6f74206960448201526a6e697469616c697a696e6760a81b6064820152608490fd5b803b156110d65760008051602061120683398151915280546001600160a01b0319166001600160a01b03909216919091179055565b60405162461bcd60e51b815260206004820152602d60248201527f455243313936373a206e657720696d706c656d656e746174696f6e206973206e60448201526c1bdd08184818dbdb9d1c9858dd609a1b6064820152608490fd5b919290156111935750815115611145575090565b3b1561114e5790565b60405162461bcd60e51b815260206004820152601d60248201527f416464726573733a2063616c6c20746f206e6f6e2d636f6e74726163740000006044820152606490fd5b8251909150156111a65750805190602001fd5b6040519062461bcd60e51b82528160208060048301528251908160248401526000935b8285106111ec575050604492506000838284010152601f80199101168101030190fd5b84810182015186860160440152938101938593506111c956fe360894a13ba1a3210667c828492db98dca3e2076cc3735a920a3ca505d382bbca2646970667358221220915504a0e930c3fee1211cd32b24b566b0691446bda3cda478b3bfc4322e9ea864736f6c63430008180033",
  "linkReferences": {},
  "deployedLinkReferences": {}
}