{
  "_format": "hh-sol-artifact-1",
  "contractName": "AgentWalletFactory",
  "sourceName": "src/AgentWalletFactory.sol",
  "abi": [
    {
      "inputs": [],
      "stateMutability": "nonpayable",
      "type": "constructor"
    },
    {
      "inputs": [
        {
          "internalType": "address",
          "name": "target",
          "type": "address"
        }
      ],
      "name": "AddressEmptyCode",
      "type": "error"
    },
    {
      "inputs": [
        {
          "internalType": "address",
          "name": "implementation",
          "type": "address"
        }
      ],
      "name": "ERC1967InvalidImplementation",
      "type": "error"
    },
    {
      "inputs": [],
      "name": "ERC1967NonPayable",
      "type": "error"
    },
    {
      "inputs": [],
      "name": "FailedCall",
      "type": "error"
    },
    {
      "inputs": [],
      "name": "FailedDeployment",
      "type": "error"
    },
    {
      "inputs": [
        {
          "internalType": "uint256",
          "name": "balance",
          "type": "uint256"
        },
        {
          "internalType": "uint256",
          "name": "needed",
          "type": "uint256"
        }
      ],
      "name": "InsufficientBalance",
      "type": "error"
    },
    {
      "inputs": [],
      "name": "InvalidEntryPointError",
      "type": "error"
    },
    {
      "inputs": [],
      "name": "InvalidImplementationError",
      "type": "error"
    },
    {
      "inputs": [],
      "name": "InvalidInitialization",
      "type": "error"
    },
    {
      "inputs": [],
      "name": "InvalidOwnerError",
      "type": "error"
    },
    {
      "inputs": [],
      "name": "InvalidSessionManagerError",
      "type": "error"
    },
    {
      "inputs": [],
      "name": "NotInitializing",
      "type": "error"
    },
    {
      "inputs": [
        {
          "internalType": "address",
          "name": "owner",
          "type": "address"
        }
      ],
      "name": "OwnableInvalidOwner",
      "type": "error"
    },
    {
      "inputs": [
        {
          "internalType": "address",
          "name": "account",
          "type": "address"
        }
      ],
      "name": "OwnableUnauthorizedAccount",
      "type": "error"
    },
    {
      "inputs": [],
      "name": "TimelockActiveError",
      "type": "error"
    },
    {
      "inputs": [],
      "name": "TimelockNotReadyError",
      "type": "error"
    },
    {
      "inputs": [],
      "name": "UUPSUnauthorizedCallContext",
      "type": "error"
    },
    {
      "inputs": [
        {
          "internalType": "bytes32",
          "name": "slot",
          "type": "bytes32"
        }
      ],
      "name": "UUPSUnsupportedProxiableUUID",
      "type": "error"
    },
    {
      "inputs": [],
      "name": "WalletAlreadyExistsWithDifferentOwner",
      "type": "error"
    },
    {
      "anonymous": false,
      "inputs": [
        {
          "indexed": true,
          "internalType": "address",
          "name": "previous",
          "type": "address"
        },
        {
          "indexed": true,
          "internalType": "address",
          "name": "next",
          "type": "address"
        },
        {
          "indexed": false,
          "internalType": "uint256",
          "name": "activationTime",
          "type": "uint256"
        }
      ],
      "name": "EntryPointProposed",
      "type": "event"
    },
    {
      "anonymous": false,
      "inputs": [
        {
          "indexed": true,
          "internalType": "address",
          "name": "oldEP",
          "type": "address"
        },
        {
          "indexed": true,
          "internalType": "address",
          "name": "newEP",
          "type": "address"
        }
      ],
      "name": "EntryPointUpdated",
      "type": "event"
    },
    {
      "anonymous": false,
      "inputs": [
        {
          "indexed": true,
          "internalType": "address",
          "name": "previous",
          "type": "address"
        },
        {
          "indexed": true,
          "internalType": "address",
          "name": "next",
          "type": "address"
        },
        {
          "indexed": false,
          "internalType": "uint256",
          "name": "activationTime",
          "type": "uint256"
        }
      ],
      "name": "ImplementationProposed",
      "type": "event"
    },
    {
      "anonymous": false,
      "inputs": [
        {
          "indexed": true,
          "internalType": "address",
          "name": "oldImpl",
          "type": "address"
        },
        {
          "indexed": true,
          "internalType": "address",
          "name": "newImpl",
          "type": "address"
        }
      ],
      "name": "ImplementationUpdated",
      "type": "event"
    },
    {
      "anonymous": false,
      "inputs": [
        {
          "indexed": false,
          "internalType": "uint64",
          "name": "version",
          "type": "uint64"
        }
      ],
      "name": "Initialized",
      "type": "event"
    },
    {
      "anonymous": false,
      "inputs": [
        {
          "indexed": true,
          "internalType": "address",
          "name": "previousOwner",
          "type": "address"
        },
        {
          "indexed": true,
          "internalType": "address",
          "name": "newOwner",
          "type": "address"
        }
      ],
      "name": "OwnershipTransferred",
      "type": "event"
    },
    {
      "anonymous": false,
      "inputs": [
        {
          "indexed": true,
          "internalType": "address",
          "name": "previous",
          "type": "address"
        },
        {
          "indexed": true,
          "internalType": "address",
          "name": "next",
          "type": "address"
        },
        {
          "indexed": false,
          "internalType": "uint256",
          "name": "activationTime",
          "type": "uint256"
        }
      ],
      "name": "SessionManagerProposed",
      "type": "event"
    },
    {
      "anonymous": false,
      "inputs": [
        {
          "indexed": true,
          "internalType": "address",
          "name": "oldSM",
          "type": "address"
        },
        {
          "indexed": true,
          "internalType": "address",
          "name": "newSM",
          "type": "address"
        }
      ],
      "name": "SessionManagerUpdated",
      "type": "event"
    },
    {
      "anonymous": false,
      "inputs": [
        {
          "indexed": true,
          "internalType": "address",
          "name": "implementation",
          "type": "address"
        }
      ],
      "name": "Upgraded",
      "type": "event"
    },
    {
      "anonymous": false,
      "inputs": [
        {
          "indexed": true,
          "internalType": "address",
          "name": "wallet",
          "type": "address"
        },
        {
          "indexed": true,
          "internalType": "address",
          "name": "owner",
          "type": "address"
        },
        {
          "indexed": true,
          "internalType": "bytes32",
          "name": "salt",
          "type": "bytes32"
        },
        {
          "indexed": false,
          "internalType": "address",
          "name": "entryPoint",
          "type": "address"
        }
      ],
      "name": "WalletCreated",
      "type": "event"
    },
    {
      "inputs": [],
      "name": "TIMELOCK_DELAY",
      "outputs": [
        {
          "internalType": "uint256",
          "name": "",
          "type": "uint256"
        }
      ],
      "stateMutability": "view",
      "type": "function"
    },
    {
      "inputs": [],
      "name": "UPGRADE_INTERFACE_VERSION",
      "outputs": [
        {
          "internalType": "string",
          "name": "",
          "type": "string"
        }
      ],
      "stateMutability": "view",
      "type": "function"
    },
    {
      "inputs": [],
      "name": "acceptEntryPoint",
      "outputs": [],
      "stateMutability": "nonpayable",
      "type": "function"
    },
    {
      "inputs": [],
      "name": "acceptImplementation",
      "outputs": [],
      "stateMutability": "nonpayable",
      "type": "function"
    },
    {
      "inputs": [],
      "name": "acceptSessionManager",
      "outputs": [],
      "stateMutability": "nonpayable",
      "type": "function"
    },
    {
      "inputs": [
        {
          "internalType": "address",
          "name": "",
          "type": "address"
        }
      ],
      "name": "agentWallets",
      "outputs": [
        {
          "internalType": "bool",
          "name": "",
          "type": "bool"
        }
      ],
      "stateMutability": "view",
      "type": "function"
    },
    {
      "inputs": [
        {
          "internalType": "address",
          "name": "owner",
          "type": "address"
        }
      ],
      "name": "createWallet",
      "outputs": [
        {
          "internalType": "address",
          "name": "wallet",
          "type": "address"
        }
      ],
      "stateMutability": "nonpayable",
      "type": "function"
    },
    {
      "inputs": [
        {
          "internalType": "address",
          "name": "owner",
          "type": "address"
        },
        {
          "internalType": "bytes32",
          "name": "salt",
          "type": "bytes32"
        }
      ],
      "name": "createWallet",
      "outputs": [
        {
          "internalType": "address",
          "name": "wallet",
          "type": "address"
        }
      ],
      "stateMutability": "nonpayable",
      "type": "function"
    },
    {
      "inputs": [],
      "name": "entryPoint",
      "outputs": [
        {
          "internalType": "address",
          "name": "",
          "type": "address"
        }
      ],
      "stateMutability": "view",
      "type": "function"
    },
    {
      "inputs": [],
      "name": "entryPointActivationTime",
      "outputs": [
        {
          "internalType": "uint256",
          "name": "",
          "type": "uint256"
        }
      ],
      "stateMutability": "view",
      "type": "function"
    },
    {
      "inputs": [
        {
          "internalType": "bytes32",
          "name": "salt",
          "type": "bytes32"
        }
      ],
      "name": "getAddress",
      "outputs": [
        {
          "internalType": "address",
          "name": "wallet",
          "type": "address"
        }
      ],
      "stateMutability": "view",
      "type": "function"
    },
    {
      "inputs": [],
      "name": "implementation",
      "outputs": [
        {
          "internalType": "address",
          "name": "",
          "type": "address"
        }
      ],
      "stateMutability": "view",
      "type": "function"
    },
    {
      "inputs": [],
      "name": "implementationActivationTime",
      "outputs": [
        {
          "internalType": "uint256",
          "name": "",
          "type": "uint256"
        }
      ],
      "stateMutability": "view",
      "type": "function"
    },
    {
      "inputs": [
        {
          "internalType": "address",
          "name": "implementation_",
          "type": "address"
        },
        {
          "internalType": "address",
          "name": "sessionManager_",
          "type": "address"
        },
        {
          "internalType": "address",
          "name": "entryPoint_",
          "type": "address"
        }
      ],
      "name": "initialize",
      "outputs": [],
      "stateMutability": "nonpayable",
      "type": "function"
    },
    {
      "inputs": [
        {
          "internalType": "address",
          "name": "wallet",
          "type": "address"
        }
      ],
      "name": "isAgentWallet",
      "outputs": [
        {
          "internalType": "bool",
          "name": "",
          "type": "bool"
        }
      ],
      "stateMutability": "view",
      "type": "function"
    },
    {
      "inputs": [],
      "name": "owner",
      "outputs": [
        {
          "internalType": "address",
          "name": "",
          "type": "address"
        }
      ],
      "stateMutability": "view",
      "type": "function"
    },
    {
      "inputs": [],
      "name": "pendingEntryPoint",
      "outputs": [
        {
          "internalType": "address",
          "name": "",
          "type": "address"
        }
      ],
      "stateMutability": "view",
      "type": "function"
    },
    {
      "inputs": [],
      "name": "pendingImplementation",
      "outputs": [
        {
          "internalType": "address",
          "name": "",
          "type": "address"
        }
      ],
      "stateMutability": "view",
      "type": "function"
    },
    {
      "inputs": [],
      "name": "pendingSessionManager",
      "outputs": [
        {
          "internalType": "address",
          "name": "",
          "type": "address"
        }
      ],
      "stateMutability": "view",
      "type": "function"
    },
    {
      "inputs": [
        {
          "internalType": "address",
          "name": "newEntryPoint",
          "type": "address"
        }
      ],
      "name": "proposeEntryPoint",
      "outputs": [],
      "stateMutability": "nonpayable",
      "type": "function"
    },
    {
      "inputs": [
        {
          "internalType": "address",
          "name": "newImplementation",
          "type": "address"
        }
      ],
      "name": "proposeImplementation",
      "outputs": [],
      "stateMutability": "nonpayable",
      "type": "function"
    },
    {
      "inputs": [
        {
          "internalType": "address",
          "name": "newSessionManager",
          "type": "address"
        }
      ],
      "name": "proposeSessionManager",
      "outputs": [],
      "stateMutability": "nonpayable",
      "type": "function"
    },
    {
      "inputs": [],
      "name": "proxiableUUID",
      "outputs": [
        {
          "internalType": "bytes32",
          "name": "",
          "type": "bytes32"
        }
      ],
      "stateMutability": "view",
      "type": "function"
    },
    {
      "inputs": [],
      "name": "renounceOwnership",
      "outputs": [],
      "stateMutability": "nonpayable",
      "type": "function"
    },
    {
      "inputs": [],
      "name": "sessionManager",
      "outputs": [
        {
          "internalType": "address",
          "name": "",
          "type": "address"
        }
      ],
      "stateMutability": "view",
      "type": "function"
    },
    {
      "inputs": [],
      "name": "sessionManagerActivationTime",
      "outputs": [
        {
          "internalType": "uint256",
          "name": "",
          "type": "uint256"
        }
      ],
      "stateMutability": "view",
      "type": "function"
    },
    {
      "inputs": [
        {
          "internalType": "address",
          "name": "newOwner",
          "type": "address"
        }
      ],
      "name": "transferOwnership",
      "outputs": [],
      "stateMutability": "nonpayable",
      "type": "function"
    },
    {
      "inputs": [
        {
          "internalType": "address",
          "name": "newImplementation",
          "type": "address"
        },
        {
          "internalType": "bytes",
          "name": "data",
          "type": "bytes"
        }
      ],
      "name": "upgradeToAndCall",
      "outputs": [],
      "stateMutability": "payable",
      "type": "function"
    },
    {
      "inputs": [],
      "name": "walletCount",
      "outputs": [
        {
          "internalType": "uint256",
          "name": "",
          "type": "uint256"
        }
      ],
      "stateMutability": "view",
      "type": "function"
    }
  ],
  "bytecode": "0x60a080604052346100cc57306080527ff0c57e16840df040f15088dc2f81fe391c3923bec73e23a9662efc9c229c6a009081549060ff8260401c166100bd57506001600160401b036002600160401b031982821601610078575b6040516112bb90816100d2823960805181818161081501526108f40152f35b6001600160401b031990911681179091556040519081527fc7f505b2f371ae2175ee4913f4499e1f2633a7b5936321eed1cdaeb6115181d290602090a1388080610059565b63f92ee8a960e01b8152600490fd5b600080fdfe60406080815260048036101561001457600080fd5b600091823560e01c91826303230ca614610d6d57826307c40b3c14610d4457826312ca68a114610cb257826315ba56e514610c225782631dab21a714610bf957826321f8a72114610bc757826329b57c6914610ba8578263309cc95714610b04578263396f7b2314610adb5782634f1ef2861461087957826352d1902d146108005782635ba1c1a9146107e25782635c60da1b146107ba578263715018a6146107505782638da5cb5b1461071a5782638fc1cebd1461067a5782639dd18c15146105b5578263ad3cb1cc14610515578263b054a9e814610488578263b0d691fe1461045f578263b20ca81814610425578263b7b13f79146103fc578263bd5dee77146101b4578263c0c53b8b14610234578263c96f03e014610215578263daa09d49146101f6578263dfc8387a146101b457508163ec4c915714610191575063f2fde38b1461016257600080fd5b3461018e57602036600319011261018e5761018b61017e610e10565b610186610ef3565b610e7f565b80f35b80fd5b9050346101b057816003193601126101b0576020906008549051908152f35b5080fd5b909150346101f25760203660031901126101f25760209260ff918391906001600160a01b036101e1610e10565b168252855220541690519015158152f35b8280fd5b8382346101b057816003193601126101b0576020906006549051908152f35b8382346101b057816003193601126101b057602090600a549051908152f35b909150346101f25760603660031901126101f257610250610e10565b6001600160a01b039160243583811691908290036103f857604435918483168093036103f4577ff0c57e16840df040f15088dc2f81fe391c3923bec73e23a9662efc9c229c6a009485549460ff86891c16159567ffffffffffffffff8116801590816103ec575b60011490816103e2575b1590816103d9575b506103c95767ffffffffffffffff1981166001178855866103aa575b506102ee6111c1565b6102f66111c1565b6102ff33610e7f565b1691821561039c57811561038f57831561038157506001600160601b0360a01b91828854161787558160025416176002556001541617600155610340578280f35b805468ff00000000000000001916905551600181527fc7f505b2f371ae2175ee4913f4499e1f2633a7b5936321eed1cdaeb6115181d290602090a138808280f35b86516392377dd560e01b8152fd5b865162d9b42560e01b8152fd5b865163c2b9e5e960e01b8152fd5b68ffffffffffffffffff191668010000000000000001178755386102e5565b885163f92ee8a960e01b81528590fd5b905015386102c9565b303b1591506102c1565b8891506102b7565b8680fd5b8580fd5b8382346101b057816003193601126101b05760025490516001600160a01b039091168152602090f35b8382346101b057806003193601126101b05760209061044e610445610e10565b60243590610f8e565b90516001600160a01b039091168152f35b8382346101b057816003193601126101b05760015490516001600160a01b039091168152602090f35b90833461018e57602036600319011261018e576104a3610e10565b60035483516001600160a01b0383811660208301908152468388015260608084019490945292825293608082019067ffffffffffffffff82118383101761050257602087876104fa88888888865251902090610f8e565b915191168152f35b634e487b7160e01b815260418852602490fd5b909150346101f257826003193601126101f2578151908282019082821067ffffffffffffffff8311176105a25750825260058152602090640352e302e360dc1b6020820152825193849260208452825192836020860152825b84811061058c57505050828201840152601f01601f19168101030190f35b818101830151888201880152879550820161056e565b634e487b7160e01b855260419052602484fd5b9150346101f25760203660031901126101f2576105d0610e10565b916105d9610ef3565b6001600160a01b0392831692831561066b5760055481811661065c576001600160a01b031916841760055542620151808101929083106106495750816020917f55300e43272f2c3f5a6121f0ca3ba28bdd53b97b45ea6857743053f6ff858a81936006558654169351908152a380f35b634e487b7160e01b865260119052602485fd5b8351622d0f5f60e01b81528390fd5b50905163c2b9e5e960e01b8152fd5b909150346101f257826003193601126101f257610695610ef3565b6009546001600160a01b0380821693909290841561070d57600a544210610700575050600154906001600160601b0360a01b9084828416176001551660095583600a55167f9efc8bb238b1965522b3e784290f41e0229e21a34f499fd2f71b64463283a4168380a380f35b51639e3d304d60e01b8152fd5b516392377dd560e01b8152fd5b8382346101b057816003193601126101b0576000805160206112668339815191525490516001600160a01b039091168152602090f35b833461018e578060031936011261018e57610769610ef3565b60008051602061126683398151915280546001600160a01b0319811690915581906001600160a01b03167f8be0079c531659141344cd1fd0a4f28419497f9722a3daafe3b4186f6b6457e08280a380f35b8382346101b057816003193601126101b057905490516001600160a01b039091168152602090f35b8382346101b057816003193601126101b05760209051620151808152f35b90833461018e578060031936011261018e57507f00000000000000000000000000000000000000000000000000000000000000006001600160a01b0316300361086c57602090517f360894a13ba1a3210667c828492db98dca3e2076cc3735a920a3ca505d382bbc8152f35b5163703e46dd60e11b8152fd5b9150806003193601126101f25761088e610e10565b90602493843567ffffffffffffffff81116101b057366023820112156101b057808501356108bb81610e63565b946108c885519687610e2b565b81865260209182870193368a83830101116103f8578186928b8693018737880101526001600160a01b037f00000000000000000000000000000000000000000000000000000000000000008116308114908115610aad575b50610a9d5761092d610ef3565b81169585516352d1902d60e01b815283818a818b5afa869181610a6e575b50610967575050505050505191634c9c8ce360e01b8352820152fd5b9088888894938c7f360894a13ba1a3210667c828492db98dca3e2076cc3735a920a3ca505d382bbc91828103610a595750853b15610a45575080546001600160a01b031916821790558451889392917fbc7cd75a20ee27fd9adebab32041f755214dbc6bffa90cc0225b39da2e5c2d3b8580a2825115610a27575050610a199582915190845af4913d15610a1d573d610a0b610a0282610e63565b92519283610e2b565b81528581943d92013e611202565b5080f35b5060609250611202565b955095505050505034610a3957505080f35b63b398979f60e01b8152fd5b8651634c9c8ce360e01b8152808501849052fd5b8751632a87526960e21b815280860191909152fd5b9091508481813d8311610a96575b610a868183610e2b565b810103126103f45751903861094b565b503d610a7c565b855163703e46dd60e11b81528890fd5b9050817f360894a13ba1a3210667c828492db98dca3e2076cc3735a920a3ca505d382bbc5416141538610920565b8382346101b057816003193601126101b05760055490516001600160a01b039091168152602090f35b9150346101f25760203660031901126101f257610b1f610e10565b91610b28610ef3565b6001600160a01b03928316928315610b995760095481811661065c576001600160a01b031916841760095542620151808101929083106106495750816020917f82f58bce0ef526ec4e76de79042b60f5542ca08dbe0ef18bfa95d8c32fcbb71093600a55600154169351908152a380f35b5090516392377dd560e01b8152fd5b8382346101b057816003193601126101b0576020906003549051908152f35b909150346101f25760203660031901126101f25791546020926001600160a01b03916104fa9130919035908416610f2c565b8382346101b057816003193601126101b05760075490516001600160a01b039091168152602090f35b909150346101f257826003193601126101f257610c3d610ef3565b6005546001600160a01b03808216939092908415610ca557600654421061070057505083546001600160a01b0319808216851786559091166005556006849055167faa3f731066a578e5f39b4215468d826cdd15373cbc0dfc9cb9bdc649718ef7da8380a380f35b5163c2b9e5e960e01b8152fd5b909150346101f257826003193601126101f257610ccd610ef3565b6007546001600160a01b03808216939092908415610d38576008544210610700575050600254906001600160601b0360a01b9084828416176002551660075583600855167fa69f501b2fc95540d8bea22fcfa85d00f48f611c00a457d08f00f7754c9063cb8380a380f35b5162d9b42560e01b8152fd5b8382346101b057816003193601126101b05760095490516001600160a01b039091168152602090f35b9150346101f25760203660031901126101f257610d88610e10565b91610d91610ef3565b6001600160a01b03928316928315610e025760075481811661065c576001600160a01b031916841760075542620151808101929083106106495750816020917fe57f3914c462c93d70e218904ab70d6c345073c4deceb8c18c4955b3f67f874893600855600254169351908152a380f35b50905162d9b42560e01b8152fd5b600435906001600160a01b0382168203610e2657565b600080fd5b90601f8019910116810190811067ffffffffffffffff821117610e4d57604052565b634e487b7160e01b600052604160045260246000fd5b67ffffffffffffffff8111610e4d57601f01601f191660200190565b6001600160a01b03908116908115610eda5760008051602061126683398151915280546001600160a01b031981168417909155167f8be0079c531659141344cd1fd0a4f28419497f9722a3daafe3b4186f6b6457e0600080a3565b604051631e4fbdf760e01b815260006004820152602490fd5b600080516020611266833981519152546001600160a01b03163303610f1457565b60405163118cdaa760e01b8152336004820152602490fd5b60405160388101939093526f5af43d82803e903d91602b57fd5bf3ff60248401526014830152733d602d80600a3d3981f3363d3d373d3d3d363d73825260588201526037600c820120607882015260556043909101206001600160a01b031690565b60009291906001600160a01b039081169081156111af578454610fb43085848416610f2c565b803b61111a5750608881901c62ffffff16763d602d80600a3d3981f3363d3d373d3d3d363d7300000017865260781b6effffffffffffffffffffffffffffff19166e5af43d82803e903d91602b57fd5bf317602052826037600987f590808216918215611108579581600254168260015416843b156101f2576040519163c0c53b8b60e01b835286600484015260248301526044820152818160648183885af180156110fd576110d1575b50828152600460205260408120805460ff191660011790556003549060001982146110bd57507f1f7761c69c1e6ed50fd7b87c3be8af863a3977e31508a30bcb6ff930731d5dac9160016020920160035560015416604051908152a4565b634e487b7160e01b81526011600452602490fd5b67ffffffffffffffff81116110e9576040523861105f565b634e487b7160e01b82526041600452602482fd5b6040513d84823e3d90fd5b60405163b06ebf3d60e01b8152600490fd5b95919293505060405190638da5cb5b60e01b8252602082600481868a165afa9182156111a2578192611163575b5050160361115157565b6040516363ba06b360e11b8152600490fd5b9091506020813d60201161119a575b8161117f60209383610e2b565b810103126101b0575190828216820361018e57503880611147565b3d9150611172565b50604051903d90823e3d90fd5b60405163062ef65960e21b8152600490fd5b60ff7ff0c57e16840df040f15088dc2f81fe391c3923bec73e23a9662efc9c229c6a005460401c16156111f057565b604051631afcd79f60e31b8152600490fd5b90611229575080511561121757805190602001fd5b60405163d6bda27560e01b8152600490fd5b8151158061125c575b61123a575090565b604051639996b31560e01b81526001600160a01b039091166004820152602490fd5b50803b1561123256fe9016d09d72d40fdae2fd8ceac6b6234c7706214fd39c1cd1e609a0528c199300a26469706673582212206f39918efc77a3787b36c3798d4a30c6048be91d5ecd9376fc722604cf41025664736f6c63430008180033",
  "linkReferences": {},
  "deployedLinkReferences": {}
}