{
  "_format": "hh-sol-artifact-1",
  "contractName": "AgentWalletFactory",
  "sourceName": "src/AgentWalletFactory.sol",
  "abi": [
    {
      "inputs": [
        {
          "internalType": "address",
          "name": "_implementation",
          "type": "address"
        },
        {
          "internalType": "address",
          "name": "_sessionManager",
          "type": "address"
        },
        {
          "internalType": "address",
          "name": "_entryPoint",
          "type": "address"
        }
      ],
      "stateMutability": "nonpayable",
      "type": "constructor"
    },
    {
      "anonymous": false,
      "inputs": [
        {
          "indexed": true,
          "internalType": "address",
          "name": "wallet",
          "type": "address"
        },
        {
          "indexed": true,
          "internalType": "address",
          "name": "owner",
          "type": "address"
        },
        {
          "indexed": true,
          "internalType": "bytes32",
          "name": "salt",
          "type": "bytes32"
        },
        {
          "indexed": false,
          "internalType": "address",
          "name": "entryPoint",
          "type": "address"
        }
      ],
      "name": "WalletCreated",
      "type": "event"
    },
    {
      "inputs": [
        {
          "internalType": "address",
          "name": "owner",
          "type": "address"
        }
      ],
      "name": "createWallet",
      "outputs": [
        {
          "internalType": "address",
          "name": "wallet",
          "type": "address"
        }
      ],
      "stateMutability": "nonpayable",
      "type": "function"
    },
    {
      "inputs": [
        {
          "internalType": "address",
          "name": "owner",
          "type": "address"
        },
        {
          "internalType": "bytes32",
          "name": "salt",
          "type": "bytes32"
        }
      ],
      "name": "createWallet",
      "outputs": [
        {
          "internalType": "address",
          "name": "wallet",
          "type": "address"
        }
      ],
      "stateMutability": "nonpayable",
      "type": "function"
    },
    {
      "inputs": [],
      "name": "entryPoint",
      "outputs": [
        {
          "internalType": "address",
          "name": "",
          "type": "address"
        }
      ],
      "stateMutability": "view",
      "type": "function"
    },
    {
      "inputs": [
        {
          "internalType": "bytes32",
          "name": "salt",
          "type": "bytes32"
        }
      ],
      "name": "getAddress",
      "outputs": [
        {
          "internalType": "address",
          "name": "wallet",
          "type": "address"
        }
      ],
      "stateMutability": "view",
      "type": "function"
    },
    {
      "inputs": [],
      "name": "implementation",
      "outputs": [
        {
          "internalType": "address",
          "name": "",
          "type": "address"
        }
      ],
      "stateMutability": "view",
      "type": "function"
    },
    {
      "inputs": [],
      "name": "sessionManager",
      "outputs": [
        {
          "internalType": "address",
          "name": "",
          "type": "address"
        }
      ],
      "stateMutability": "view",
      "type": "function"
    },
    {
      "inputs": [],
      "name": "walletCount",
      "outputs": [
        {
          "internalType": "uint256",
          "name": "",
          "type": "uint256"
        }
      ],
      "stateMutability": "view",
      "type": "function"
    }
  ],
  "bytecode": "0x60c0346101a557601f6106f838819003918201601f191683019291906001600160401b038411838510176101aa5781606092849260409687528339810103126101a55761004b816101c0565b906100638361005c602084016101c0565b92016101c0565b916001600160a01b03918282161561016157821691821561011d578316156100d957608052600080546001600160a01b03191691909117905560a0525161052390816101d582396080518181816101da0152818161024501526102f1015260a05181818160e30152818161035001526103fc0152f35b835162461bcd60e51b815260206004820152601360248201527f496e76616c696420656e74727920706f696e74000000000000000000000000006044820152606490fd5b845162461bcd60e51b815260206004820152601760248201527f496e76616c69642073657373696f6e206d616e616765720000000000000000006044820152606490fd5b845162461bcd60e51b815260206004820152601660248201527f496e76616c696420696d706c656d656e746174696f6e000000000000000000006044820152606490fd5b600080fd5b634e487b7160e01b600052604160045260246000fd5b51906001600160a01b03821682036101a55756fe604060808152600436101561001357600080fd5b600090813560e01c806321f8a7211461022757806329b57c69146102095780635c60da1b146101c6578063b054a9e814610112578063b0d691fe146100cf578063b20ca818146100965763b7b13f791461006c57600080fd5b34610092578160031936011261009257905490516001600160a01b039091168152602090f35b5080fd5b50346100925780600319360112610092576020906100be6100b5610269565b602435906102dc565b90516001600160a01b039091168152f35b5034610092578160031936011261009257517f00000000000000000000000000000000000000000000000000000000000000006001600160a01b03168152602090f35b50346100925760203660031901126100925761012c610269565b60015482516001600160a01b03808416602083019081523383870152466060840152608080840185905283529093929160a0810167ffffffffffffffff8111828210176101b257865251902094600019821461019e575093610196916001602096016001556102dc565b915191168152f35b634e487b7160e01b81526011600452602490fd5b634e487b7160e01b88526041600452602488fd5b5034610092578160031936011261009257517f00000000000000000000000000000000000000000000000000000000000000006001600160a01b03168152602090f35b50346100925781600319360112610092576020906001549051908152f35b5034610092576020366003190112610092576020906100be306004357f0000000000000000000000000000000000000000000000000000000000000000610284565b600435906001600160a01b038216820361027f57565b600080fd5b916043916055936040519260388401526f5af43d82803e903d91602b57fd5bf3ff60248401526014830152733d602d80600a3d3981f3363d3d373d3d3d363d73825260588201526037600c8201206078820152012090565b6001600160a01b03929190831680156104b8577f00000000000000000000000000000000000000000000000000000000000000009361031c308487610284565b94853b15610378575b507f1f7761c69c1e6ed50fd7b87c3be8af863a3977e31508a30bcb6ff930731d5dac602060405192807f0000000000000000000000000000000000000000000000000000000000000000168452871692a4565b94506e5af43d82803e903d91602b57fd5bf3600095763d602d80600a3d3981f3363d3d373d3d3d363d7300000062ffffff8260881c1617875260781b17602052826037600987f594818616958615610473579582825416813b1561046f57829160648392604051958693849263c0c53b8b60e01b84528a60048501526024840152887f00000000000000000000000000000000000000000000000000000000000000001660448401525af1801561046257610434575b50610325565b67ffffffffffffffff821161044e5750604052388061042e565b634e487b7160e01b81526041600452602490fd5b50604051903d90823e3d90fd5b8280fd5b60405162461bcd60e51b815260206004820152601760248201527f455243313136373a2063726561746532206661696c65640000000000000000006044820152606490fd5b60405162461bcd60e51b815260206004820152600d60248201526c24b73b30b634b21037bbb732b960991b6044820152606490fdfea26469706673582212203fee8fdbf547a99d4955ac833ca065445776748dc03cebaa97ec77836c5c9b3864736f6c63430008180033",
  "linkReferences": {},
  "deployedLinkReferences": {}
}